{
	"data": {
		"bytecode": {
			"linkReferences": {},
			"object": "60806040526000600760146101000a81548160ff0219169083151502179055503480156200002c57600080fd5b506040516200268a3803806200268a833981810160405281019062000052919062000144565b80600160006101000a81548173ffffffffffffffffffffffffffffffffffffffff021916908373ffffffffffffffffffffffffffffffffffffffff160217905550336000806101000a81548173ffffffffffffffffffffffffffffffffffffffff021916908373ffffffffffffffffffffffffffffffffffffffff1602179055505062000176565b600080fd5b600073ffffffffffffffffffffffffffffffffffffffff82169050919050565b60006200010c82620000df565b9050919050565b6200011e81620000ff565b81146200012a57600080fd5b50565b6000815190506200013e8162000113565b92915050565b6000602082840312156200015d576200015c620000da565b5b60006200016d848285016200012d565b91505092915050565b61250480620001866000396000f3fe60806040526004361061011f5760003560e01c8063a5720770116100a0578063dce8bcea11610064578063dce8bcea14610394578063e572adbd146103b0578063ea4c58ff146103cc578063f2b5eea7146103e8578063faedd18e146104115761011f565b8063a5720770146102bf578063b7d1d98e146102ea578063c7983e2014610313578063cc4aa2041461033e578063d5f39488146103695761011f565b80637a80760e116100e75780637a80760e146101f75780638da5cb5b1461022257806391f2ebb81461024d57806394a927fe14610278578063a318c1a4146102a35761011f565b80631c8ec299146101245780631e83409a1461014f578063362bb2ac1461017857806356af4f75146101a35780636e1a7373146101ce575b600080fd5b34801561013057600080fd5b5061013961043c565b604051610146919061179d565b60405180910390f35b34801561015b57600080fd5b506101766004803603810190610171919061181b565b610442565b005b34801561018457600080fd5b5061018d6105e7565b60405161019a9190611857565b60405180910390f35b3480156101af57600080fd5b506101b8610610565b6040516101c59190611857565b60405180910390f35b3480156101da57600080fd5b506101f560048036038101906101f091906118dc565b61063a565b005b34801561020357600080fd5b5061020c61079d565b604051610219919061193e565b60405180910390f35b34801561022e57600080fd5b506102376107c3565b604051610244919061193e565b60405180910390f35b34801561025957600080fd5b506102626107e9565b60405161026f919061193e565b60405180910390f35b34801561028457600080fd5b5061028d61080f565b60405161029a9190611857565b60405180910390f35b6102bd60048036038101906102b89190611959565b610839565b005b3480156102cb57600080fd5b506102d4610acd565b6040516102e191906119db565b60405180910390f35b3480156102f657600080fd5b50610311600480360381019061030c919061181b565b610ae0565b005b34801561031f57600080fd5b50610328610bdd565b604051610335919061179d565b60405180910390f35b34801561034a57600080fd5b50610353610be3565b6040516103609190611a55565b60405180910390f35b34801561037557600080fd5b5061037e610c09565b60405161038b9190611857565b60405180910390f35b6103ae60048036038101906103a99190611a70565b610c2d565b005b6103ca60048036038101906103c59190611aeb565b610e5d565b005b6103e660048036038101906103e19190611b66565b6112c3565b005b3480156103f457600080fd5b5061040f600480360381019061040a919061181b565b61162a565b005b34801561041d57600080fd5b5061042661172f565b60405161043391906119db565b60405180910390f35b60045481565b8073ffffffffffffffffffffffffffffffffffffffff16600260009054906101000a900473ffffffffffffffffffffffffffffffffffffffff1673ffffffffffffffffffffffffffffffffffffffff16146104d2576040517f08c379a00000000000000000000000000000000000000000000000000000000081526004016104c990611c76565b60405180910390fd5b600260149054906101000a900460ff16610521576040517f08c379a000000000000000000000000000000000000000000000000000000000815260040161051890611d08565b60405180910390fd5b620151806004546105329190611d57565b60035461053f9190611d99565b421015610581576040517f08c379a000000000000000000000000000000000000000000000000000000000815260040161057890611e19565b60405180910390fd5b600260009054906101000a900473ffffffffffffffffffffffffffffffffffffffff16600160006101000a81548173ffffffffffffffffffffffffffffffffffffffff021916908373ffffffffffffffffffffffffffffffffffffffff16021790555050565b60008060009054906101000a900473ffffffffffffffffffffffffffffffffffffffff16905090565b6000600260009054906101000a900473ffffffffffffffffffffffffffffffffffffffff16905090565b8073ffffffffffffffffffffffffffffffffffffffff16600160009054906101000a900473ffffffffffffffffffffffffffffffffffffffff1673ffffffffffffffffffffffffffffffffffffffff16146106ca576040517f08c379a00000000000000000000000000000000000000000000000000000000081526004016106c190611e85565b60405180910390fd5b600760149054906101000a900460ff161561071a576040517f08c379a000000000000000000000000000000000000000000000000000000000815260040161071190611f17565b60405180910390fd5b6001600760146101000a81548160ff02191690831515021790555082600260006101000a81548173ffffffffffffffffffffffffffffffffffffffff021916908373ffffffffffffffffffffffffffffffffffffffff160217905550816004819055506000600760146101000a81548160ff021916908315150217905550505050565b600660009054906101000a900473ffffffffffffffffffffffffffffffffffffffff1681565b600160009054906101000a900473ffffffffffffffffffffffffffffffffffffffff1681565b600260009054906101000a900473ffffffffffffffffffffffffffffffffffffffff1681565b6000600160009054906101000a900473ffffffffffffffffffffffffffffffffffffffff16905090565b600160009054906101000a900473ffffffffffffffffffffffffffffffffffffffff1673ffffffffffffffffffffffffffffffffffffffff168373ffffffffffffffffffffffffffffffffffffffff16146108c9576040517f08c379a00000000000000000000000000000000000000000000000000000000081526004016108c090611fa9565b60405180910390fd5b6000471161090c576040517f08c379a000000000000000000000000000000000000000000000000000000000815260040161090390612015565b60405180910390fd5b4784111561094f576040517f08c379a000000000000000000000000000000000000000000000000000000000815260040161094690612081565b60405180910390fd5b600760149054906101000a900460ff161561099f576040517f08c379a000000000000000000000000000000000000000000000000000000000815260040161099690611f17565b60405180910390fd5b6001600760146101000a81548160ff0219169083151502179055506109e060646109d2838761174290919063ffffffff16565b61175890919063ffffffff16565b600581905550600160009054906101000a900473ffffffffffffffffffffffffffffffffffffffff1673ffffffffffffffffffffffffffffffffffffffff166108fc610a376005548761176e90919063ffffffff16565b9081150290604051600060405180830381858888f19350505050158015610a62573d6000803e3d6000fd5b508173ffffffffffffffffffffffffffffffffffffffff166108fc6005549081150290604051600060405180830381858888f19350505050158015610aab573d6000803e3d6000fd5b506000600760146101000a81548160ff02191690831515021790555050505050565b600760149054906101000a900460ff1681565b600160009054906101000a900473ffffffffffffffffffffffffffffffffffffffff1673ffffffffffffffffffffffffffffffffffffffff168173ffffffffffffffffffffffffffffffffffffffff1614610b70576040517f08c379a0000000000000000000000000000000000000000000000000000000008152600401610b67906120ed565b60405180910390fd5b600260149054906101000a900460ff16610bbf576040517f08c379a0000000000000000000000000000000000000000000000000000000008152600401610bb69061217f565b60405180910390fd5b6000600260146101000a81548160ff02191690831515021790555050565b60035481565b600760009054906101000a900473ffffffffffffffffffffffffffffffffffffffff1681565b60008054906101000a900473ffffffffffffffffffffffffffffffffffffffff1681565b600160009054906101000a900473ffffffffffffffffffffffffffffffffffffffff1673ffffffffffffffffffffffffffffffffffffffff168373ffffffffffffffffffffffffffffffffffffffff1614610cbd576040517f08c379a0000000000000000000000000000000000000000000000000000000008152600401610cb490612211565b60405180910390fd5b47841115610d00576040517f08c379a0000000000000000000000000000000000000000000000000000000008152600401610cf790612081565b60405180910390fd5b600760149054906101000a900460ff1615610d50576040517f08c379a0000000000000000000000000000000000000000000000000000000008152600401610d4790611f17565b60405180910390fd5b6001600760146101000a81548160ff021916908315150217905550610d916064610d83838761174290919063ffffffff16565b61175890919063ffffffff16565b6005819055508473ffffffffffffffffffffffffffffffffffffffff166108fc610dc66005548761176e90919063ffffffff16565b9081150290604051600060405180830381858888f19350505050158015610df1573d6000803e3d6000fd5b508173ffffffffffffffffffffffffffffffffffffffff166108fc6005549081150290604051600060405180830381858888f19350505050158015610e3a573d6000803e3d6000fd5b506000600760146101000a81548160ff0219169083151502179055505050505050565b600160009054906101000a900473ffffffffffffffffffffffffffffffffffffffff1673ffffffffffffffffffffffffffffffffffffffff168373ffffffffffffffffffffffffffffffffffffffff1614610eed576040517f08c379a0000000000000000000000000000000000000000000000000000000008152600401610ee490611fa9565b60405180910390fd5b83600760006101000a81548173ffffffffffffffffffffffffffffffffffffffff021916908373ffffffffffffffffffffffffffffffffffffffff1602179055506000600760009054906101000a900473ffffffffffffffffffffffffffffffffffffffff1673ffffffffffffffffffffffffffffffffffffffff166370a08231306040518263ffffffff1660e01b8152600401610f8b9190611857565b602060405180830381865afa158015610fa8573d6000803e3d6000fd5b505050506040513d601f19601f82011682018060405250810190610fcc9190612246565b1161100c576040517f08c379a000000000000000000000000000000000000000000000000000000000815260040161100390612015565b60405180910390fd5b600760009054906101000a900473ffffffffffffffffffffffffffffffffffffffff1673ffffffffffffffffffffffffffffffffffffffff166370a08231306040518263ffffffff1660e01b81526004016110679190611857565b602060405180830381865afa158015611084573d6000803e3d6000fd5b505050506040513d601f19601f820116820180604052508101906110a89190612246565b8511156110ea576040517f08c379a00000000000000000000000000000000000000000000000000000000081526004016110e190612081565b60405180910390fd5b600760149054906101000a900460ff161561113a576040517f08c379a000000000000000000000000000000000000000000000000000000000815260040161113190611f17565b60405180910390fd5b6001600760146101000a81548160ff02191690831515021790555061117b606461116d838861174290919063ffffffff16565b61175890919063ffffffff16565b600581905550600760009054906101000a900473ffffffffffffffffffffffffffffffffffffffff1673ffffffffffffffffffffffffffffffffffffffff1663a9059cbb600160009054906101000a900473ffffffffffffffffffffffffffffffffffffffff166111f76005548961176e90919063ffffffff16565b6040518363ffffffff1660e01b8152600401611214929190612294565b6020604051808303816000875af1158015611233573d6000803e3d6000fd5b505050506040513d601f19601f8201168201806040525081019061125791906122e9565b508173ffffffffffffffffffffffffffffffffffffffff166108fc6005549081150290604051600060405180830381858888f193505050501580156112a0573d6000803e3d6000fd5b506000600760146101000a81548160ff0219169083151502179055505050505050565b600160009054906101000a900473ffffffffffffffffffffffffffffffffffffffff1673ffffffffffffffffffffffffffffffffffffffff168373ffffffffffffffffffffffffffffffffffffffff1614611353576040517f08c379a000000000000000000000000000000000000000000000000000000000815260040161134a90612211565b60405180910390fd5b83600760006101000a81548173ffffffffffffffffffffffffffffffffffffffff021916908373ffffffffffffffffffffffffffffffffffffffff160217905550600760009054906101000a900473ffffffffffffffffffffffffffffffffffffffff1673ffffffffffffffffffffffffffffffffffffffff166370a08231306040518263ffffffff1660e01b81526004016113ef9190611857565b602060405180830381865afa15801561140c573d6000803e3d6000fd5b505050506040513d601f19601f820116820180604052508101906114309190612246565b851115611472576040517f08c379a000000000000000000000000000000000000000000000000000000000815260040161146990612081565b60405180910390fd5b600760149054906101000a900460ff16156114c2576040517f08c379a00000000000000000000000000000000000000000000000000000000081526004016114b990611f17565b60405180910390fd5b6001600760146101000a81548160ff02191690831515021790555061150360646114f5838861174290919063ffffffff16565b61175890919063ffffffff16565b600581905550600760009054906101000a900473ffffffffffffffffffffffffffffffffffffffff1673ffffffffffffffffffffffffffffffffffffffff1663a9059cbb8761155d6005548961176e90919063ffffffff16565b6040518363ffffffff1660e01b815260040161157a929190612294565b6020604051808303816000875af1158015611599573d6000803e3d6000fd5b505050506040513d601f19601f820116820180604052508101906115bd91906122e9565b508173ffffffffffffffffffffffffffffffffffffffff166108fc6005549081150290604051600060405180830381858888f19350505050158015611606573d6000803e3d6000fd5b506000600760146101000a81548160ff021916908315150217905550505050505050565b8073ffffffffffffffffffffffffffffffffffffffff16600260009054906101000a900473ffffffffffffffffffffffffffffffffffffffff1673ffffffffffffffffffffffffffffffffffffffff16146116ba576040517f08c379a00000000000000000000000000000000000000000000000000000000081526004016116b190612388565b60405180910390fd5b600260149054906101000a900460ff161561170a576040517f08c379a00000000000000000000000000000000000000000000000000000000081526004016117019061241a565b60405180910390fd5b6001600260146101000a81548160ff0219169083151502179055504260038190555050565b600260149054906101000a900460ff1681565b600081836117509190611d57565b905092915050565b600081836117669190612469565b905092915050565b6000818361177c919061249a565b905092915050565b6000819050919050565b61179781611784565b82525050565b60006020820190506117b2600083018461178e565b92915050565b600080fd5b600073ffffffffffffffffffffffffffffffffffffffff82169050919050565b60006117e8826117bd565b9050919050565b6117f8816117dd565b811461180357600080fd5b50565b600081359050611815816117ef565b92915050565b600060208284031215611831576118306117b8565b5b600061183f84828501611806565b91505092915050565b611851816117dd565b82525050565b600060208201905061186c6000830184611848565b92915050565b600061187d826117bd565b9050919050565b61188d81611872565b811461189857600080fd5b50565b6000813590506118aa81611884565b92915050565b6118b981611784565b81146118c457600080fd5b50565b6000813590506118d6816118b0565b92915050565b6000806000606084860312156118f5576118f46117b8565b5b60006119038682870161189b565b9350506020611914868287016118c7565b925050604061192586828701611806565b9150509250925092565b61193881611872565b82525050565b6000602082019050611953600083018461192f565b92915050565b60008060008060808587031215611973576119726117b8565b5b6000611981878288016118c7565b945050602061199287828801611806565b93505060406119a38782880161189b565b92505060606119b4878288016118c7565b91505092959194509250565b60008115159050919050565b6119d5816119c0565b82525050565b60006020820190506119f060008301846119cc565b92915050565b6000819050919050565b6000611a1b611a16611a11846117bd565b6119f6565b6117bd565b9050919050565b6000611a2d82611a00565b9050919050565b6000611a3f82611a22565b9050919050565b611a4f81611a34565b82525050565b6000602082019050611a6a6000830184611a46565b92915050565b600080600080600060a08688031215611a8c57611a8b6117b8565b5b6000611a9a8882890161189b565b9550506020611aab888289016118c7565b9450506040611abc88828901611806565b9350506060611acd8882890161189b565b9250506080611ade888289016118c7565b9150509295509295909350565b600080600080600060a08688031215611b0757611b066117b8565b5b6000611b15888289016118c7565b9550506020611b2688828901611806565b9450506040611b3788828901611806565b9350506060611b488882890161189b565b9250506080611b59888289016118c7565b9150509295509295909350565b60008060008060008060c08789031215611b8357611b826117b8565b5b6000611b9189828a0161189b565b9650506020611ba289828a016118c7565b9550506040611bb389828a01611806565b9450506060611bc489828a01611806565b9350506080611bd589828a0161189b565b92505060a0611be689828a016118c7565b9150509295509295509295565b600082825260208201905092915050565b7f4f6e6c792074686520686569722063616e20636c61696d20746865206163636f60008201527f756e742e00000000000000000000000000000000000000000000000000000000602082015250565b6000611c60602483611bf3565b9150611c6b82611c04565b604082019050919050565b60006020820190508181036000830152611c8f81611c53565b9050919050565b7f436c61696d2070726f6365737320686173206e6f74206265656e20696e69746960008201527f617465642e000000000000000000000000000000000000000000000000000000602082015250565b6000611cf2602583611bf3565b9150611cfd82611c96565b604082019050919050565b60006020820190508181036000830152611d2181611ce5565b9050919050565b7f4e487b7100000000000000000000000000000000000000000000000000000000600052601160045260246000fd5b6000611d6282611784565b9150611d6d83611784565b9250828202611d7b81611784565b91508282048414831517611d9257611d91611d28565b5b5092915050565b6000611da482611784565b9150611daf83611784565b9250828201905080821115611dc757611dc6611d28565b5b92915050565b7f436c61696d2064656c617920686173206e6f7420657870697265642e00000000600082015250565b6000611e03601c83611bf3565b9150611e0e82611dcd565b602082019050919050565b60006020820190508181036000830152611e3281611df6565b9050919050565b7f4f6e6c7920746865206f776e65722063616e207365742074686520686569722e600082015250565b6000611e6f602083611bf3565b9150611e7a82611e39565b602082019050919050565b60006020820190508181036000830152611e9e81611e62565b9050919050565b7f5468652066756e6374696f6e20697320616c726561647920696e20657865637560008201527f74696f6e2e000000000000000000000000000000000000000000000000000000602082015250565b6000611f01602583611bf3565b9150611f0c82611ea5565b604082019050919050565b60006020820190508181036000830152611f3081611ef4565b9050919050565b7f4f6e6c7920746865206f776e65722063616e2077697468647261772066756e6460008201527f732e000000000000000000000000000000000000000000000000000000000000602082015250565b6000611f93602283611bf3565b9150611f9e82611f37565b604082019050919050565b60006020820190508181036000830152611fc281611f86565b9050919050565b7f546865726520617265206e6f2066756e647320746f2077697468647261772e00600082015250565b6000611fff601f83611bf3565b915061200a82611fc9565b602082019050919050565b6000602082019050818103600083015261202e81611ff2565b9050919050565b7f496e73756666696369656e742066756e64732e00000000000000000000000000600082015250565b600061206b601383611bf3565b915061207682612035565b602082019050919050565b6000602082019050818103600083015261209a8161205e565b9050919050565b7f4f6e6c7920746865206f776e65722063616e2073746f70206120636c61696d2e600082015250565b60006120d7602083611bf3565b91506120e2826120a1565b602082019050919050565b60006020820190508181036000830152612106816120ca565b9050919050565b7f5468657265206973206e6f2061637469766520636c61696d20746f2073746f7060008201527f2e00000000000000000000000000000000000000000000000000000000000000602082015250565b6000612169602183611bf3565b91506121748261210d565b604082019050919050565b600060208201905081810360008301526121988161215c565b9050919050565b7f4f6e6c7920746865206f776e65722063616e207472616e736665722066756e6460008201527f732e000000000000000000000000000000000000000000000000000000000000602082015250565b60006121fb602283611bf3565b91506122068261219f565b604082019050919050565b6000602082019050818103600083015261222a816121ee565b9050919050565b600081519050612240816118b0565b92915050565b60006020828403121561225c5761225b6117b8565b5b600061226a84828501612231565b91505092915050565b600061227e82611a22565b9050919050565b61228e81612273565b82525050565b60006040820190506122a96000830185612285565b6122b6602083018461178e565b9392505050565b6122c6816119c0565b81146122d157600080fd5b50565b6000815190506122e3816122bd565b92915050565b6000602082840312156122ff576122fe6117b8565b5b600061230d848285016122d4565b91505092915050565b7f4f6e6c792074686520686569722063616e20696e69746961746520746865206360008201527f6c61696d2070726f636573732e00000000000000000000000000000000000000602082015250565b6000612372602d83611bf3565b915061237d82612316565b604082019050919050565b600060208201905081810360008301526123a181612365565b9050919050565b7f436c61696d2070726f6365737320697320616c726561647920696e2070726f6760008201527f726573732e000000000000000000000000000000000000000000000000000000602082015250565b6000612404602583611bf3565b915061240f826123a8565b604082019050919050565b60006020820190508181036000830152612433816123f7565b9050919050565b7f4e487b7100000000000000000000000000000000000000000000000000000000600052601260045260246000fd5b600061247482611784565b915061247f83611784565b92508261248f5761248e61243a565b5b828204905092915050565b60006124a582611784565b91506124b083611784565b92508282039050818111156124c8576124c7611d28565b5b9291505056fea2646970667358221220185543a5447c2096d03db695876a5b7acf4647bb6bdbaac3a85a783c0cc260b464736f6c63430008110033",
			"opcodes": "PUSH1 0x80 PUSH1 0x40 MSTORE PUSH1 0x0 PUSH1 0x7 PUSH1 0x14 PUSH2 0x100 EXP DUP2 SLOAD DUP2 PUSH1 0xFF MUL NOT AND SWAP1 DUP4 ISZERO ISZERO MUL OR SWAP1 SSTORE POP CALLVALUE DUP1 ISZERO PUSH3 0x2C JUMPI PUSH1 0x0 DUP1 REVERT JUMPDEST POP PUSH1 0x40 MLOAD PUSH3 0x268A CODESIZE SUB DUP1 PUSH3 0x268A DUP4 CODECOPY DUP2 DUP2 ADD PUSH1 0x40 MSTORE DUP2 ADD SWAP1 PUSH3 0x52 SWAP2 SWAP1 PUSH3 0x144 JUMP JUMPDEST DUP1 PUSH1 0x1 PUSH1 0x0 PUSH2 0x100 EXP DUP2 SLOAD DUP2 PUSH20 0xFFFFFFFFFFFFFFFFFFFFFFFFFFFFFFFFFFFFFFFF MUL NOT AND SWAP1 DUP4 PUSH20 0xFFFFFFFFFFFFFFFFFFFFFFFFFFFFFFFFFFFFFFFF AND MUL OR SWAP1 SSTORE POP CALLER PUSH1 0x0 DUP1 PUSH2 0x100 EXP DUP2 SLOAD DUP2 PUSH20 0xFFFFFFFFFFFFFFFFFFFFFFFFFFFFFFFFFFFFFFFF MUL NOT AND SWAP1 DUP4 PUSH20 0xFFFFFFFFFFFFFFFFFFFFFFFFFFFFFFFFFFFFFFFF AND MUL OR SWAP1 SSTORE POP POP PUSH3 0x176 JUMP JUMPDEST PUSH1 0x0 DUP1 REVERT JUMPDEST PUSH1 0x0 PUSH20 0xFFFFFFFFFFFFFFFFFFFFFFFFFFFFFFFFFFFFFFFF DUP3 AND SWAP1 POP SWAP2 SWAP1 POP JUMP JUMPDEST PUSH1 0x0 PUSH3 0x10C DUP3 PUSH3 0xDF JUMP JUMPDEST SWAP1 POP SWAP2 SWAP1 POP JUMP JUMPDEST PUSH3 0x11E DUP2 PUSH3 0xFF JUMP JUMPDEST DUP2 EQ PUSH3 0x12A JUMPI PUSH1 0x0 DUP1 REVERT JUMPDEST POP JUMP JUMPDEST PUSH1 0x0 DUP2 MLOAD SWAP1 POP PUSH3 0x13E DUP2 PUSH3 0x113 JUMP JUMPDEST SWAP3 SWAP2 POP POP JUMP JUMPDEST PUSH1 0x0 PUSH1 0x20 DUP3 DUP5 SUB SLT ISZERO PUSH3 0x15D JUMPI PUSH3 0x15C PUSH3 0xDA JUMP JUMPDEST JUMPDEST PUSH1 0x0 PUSH3 0x16D DUP5 DUP3 DUP6 ADD PUSH3 0x12D JUMP JUMPDEST SWAP2 POP POP SWAP3 SWAP2 POP POP JUMP JUMPDEST PUSH2 0x2504 DUP1 PUSH3 0x186 PUSH1 0x0 CODECOPY PUSH1 0x0 RETURN INVALID PUSH1 0x80 PUSH1 0x40 MSTORE PUSH1 0x4 CALLDATASIZE LT PUSH2 0x11F JUMPI PUSH1 0x0 CALLDATALOAD PUSH1 0xE0 SHR DUP1 PUSH4 0xA5720770 GT PUSH2 0xA0 JUMPI DUP1 PUSH4 0xDCE8BCEA GT PUSH2 0x64 JUMPI DUP1 PUSH4 0xDCE8BCEA EQ PUSH2 0x394 JUMPI DUP1 PUSH4 0xE572ADBD EQ PUSH2 0x3B0 JUMPI DUP1 PUSH4 0xEA4C58FF EQ PUSH2 0x3CC JUMPI DUP1 PUSH4 0xF2B5EEA7 EQ PUSH2 0x3E8 JUMPI DUP1 PUSH4 0xFAEDD18E EQ PUSH2 0x411 JUMPI PUSH2 0x11F JUMP JUMPDEST DUP1 PUSH4 0xA5720770 EQ PUSH2 0x2BF JUMPI DUP1 PUSH4 0xB7D1D98E EQ PUSH2 0x2EA JUMPI DUP1 PUSH4 0xC7983E20 EQ PUSH2 0x313 JUMPI DUP1 PUSH4 0xCC4AA204 EQ PUSH2 0x33E JUMPI DUP1 PUSH4 0xD5F39488 EQ PUSH2 0x369 JUMPI PUSH2 0x11F JUMP JUMPDEST DUP1 PUSH4 0x7A80760E GT PUSH2 0xE7 JUMPI DUP1 PUSH4 0x7A80760E EQ PUSH2 0x1F7 JUMPI DUP1 PUSH4 0x8DA5CB5B EQ PUSH2 0x222 JUMPI DUP1 PUSH4 0x91F2EBB8 EQ PUSH2 0x24D JUMPI DUP1 PUSH4 0x94A927FE EQ PUSH2 0x278 JUMPI DUP1 PUSH4 0xA318C1A4 EQ PUSH2 0x2A3 JUMPI PUSH2 0x11F JUMP JUMPDEST DUP1 PUSH4 0x1C8EC299 EQ PUSH2 0x124 JUMPI DUP1 PUSH4 0x1E83409A EQ PUSH2 0x14F JUMPI DUP1 PUSH4 0x362BB2AC EQ PUSH2 0x178 JUMPI DUP1 PUSH4 0x56AF4F75 EQ PUSH2 0x1A3 JUMPI DUP1 PUSH4 0x6E1A7373 EQ PUSH2 0x1CE JUMPI JUMPDEST PUSH1 0x0 DUP1 REVERT JUMPDEST CALLVALUE DUP1 ISZERO PUSH2 0x130 JUMPI PUSH1 0x0 DUP1 REVERT JUMPDEST POP PUSH2 0x139 PUSH2 0x43C JUMP JUMPDEST PUSH1 0x40 MLOAD PUSH2 0x146 SWAP2 SWAP1 PUSH2 0x179D JUMP JUMPDEST PUSH1 0x40 MLOAD DUP1 SWAP2 SUB SWAP1 RETURN JUMPDEST CALLVALUE DUP1 ISZERO PUSH2 0x15B JUMPI PUSH1 0x0 DUP1 REVERT JUMPDEST POP PUSH2 0x176 PUSH1 0x4 DUP1 CALLDATASIZE SUB DUP2 ADD SWAP1 PUSH2 0x171 SWAP2 SWAP1 PUSH2 0x181B JUMP JUMPDEST PUSH2 0x442 JUMP JUMPDEST STOP JUMPDEST CALLVALUE DUP1 ISZERO PUSH2 0x184 JUMPI PUSH1 0x0 DUP1 REVERT JUMPDEST POP PUSH2 0x18D PUSH2 0x5E7 JUMP JUMPDEST PUSH1 0x40 MLOAD PUSH2 0x19A SWAP2 SWAP1 PUSH2 0x1857 JUMP JUMPDEST PUSH1 0x40 MLOAD DUP1 SWAP2 SUB SWAP1 RETURN JUMPDEST CALLVALUE DUP1 ISZERO PUSH2 0x1AF JUMPI PUSH1 0x0 DUP1 REVERT JUMPDEST POP PUSH2 0x1B8 PUSH2 0x610 JUMP JUMPDEST PUSH1 0x40 MLOAD PUSH2 0x1C5 SWAP2 SWAP1 PUSH2 0x1857 JUMP JUMPDEST PUSH1 0x40 MLOAD DUP1 SWAP2 SUB SWAP1 RETURN JUMPDEST CALLVALUE DUP1 ISZERO PUSH2 0x1DA JUMPI PUSH1 0x0 DUP1 REVERT JUMPDEST POP PUSH2 0x1F5 PUSH1 0x4 DUP1 CALLDATASIZE SUB DUP2 ADD SWAP1 PUSH2 0x1F0 SWAP2 SWAP1 PUSH2 0x18DC JUMP JUMPDEST PUSH2 0x63A JUMP JUMPDEST STOP JUMPDEST CALLVALUE DUP1 ISZERO PUSH2 0x203 JUMPI PUSH1 0x0 DUP1 REVERT JUMPDEST POP PUSH2 0x20C PUSH2 0x79D JUMP JUMPDEST PUSH1 0x40 MLOAD PUSH2 0x219 SWAP2 SWAP1 PUSH2 0x193E JUMP JUMPDEST PUSH1 0x40 MLOAD DUP1 SWAP2 SUB SWAP1 RETURN JUMPDEST CALLVALUE DUP1 ISZERO PUSH2 0x22E JUMPI PUSH1 0x0 DUP1 REVERT JUMPDEST POP PUSH2 0x237 PUSH2 0x7C3 JUMP JUMPDEST PUSH1 0x40 MLOAD PUSH2 0x244 SWAP2 SWAP1 PUSH2 0x193E JUMP JUMPDEST PUSH1 0x40 MLOAD DUP1 SWAP2 SUB SWAP1 RETURN JUMPDEST CALLVALUE DUP1 ISZERO PUSH2 0x259 JUMPI PUSH1 0x0 DUP1 REVERT JUMPDEST POP PUSH2 0x262 PUSH2 0x7E9 JUMP JUMPDEST PUSH1 0x40 MLOAD PUSH2 0x26F SWAP2 SWAP1 PUSH2 0x193E JUMP JUMPDEST PUSH1 0x40 MLOAD DUP1 SWAP2 SUB SWAP1 RETURN JUMPDEST CALLVALUE DUP1 ISZERO PUSH2 0x284 JUMPI PUSH1 0x0 DUP1 REVERT JUMPDEST POP PUSH2 0x28D PUSH2 0x80F JUMP JUMPDEST PUSH1 0x40 MLOAD PUSH2 0x29A SWAP2 SWAP1 PUSH2 0x1857 JUMP JUMPDEST PUSH1 0x40 MLOAD DUP1 SWAP2 SUB SWAP1 RETURN JUMPDEST PUSH2 0x2BD PUSH1 0x4 DUP1 CALLDATASIZE SUB DUP2 ADD SWAP1 PUSH2 0x2B8 SWAP2 SWAP1 PUSH2 0x1959 JUMP JUMPDEST PUSH2 0x839 JUMP JUMPDEST STOP JUMPDEST CALLVALUE DUP1 ISZERO PUSH2 0x2CB JUMPI PUSH1 0x0 DUP1 REVERT JUMPDEST POP PUSH2 0x2D4 PUSH2 0xACD JUMP JUMPDEST PUSH1 0x40 MLOAD PUSH2 0x2E1 SWAP2 SWAP1 PUSH2 0x19DB JUMP JUMPDEST PUSH1 0x40 MLOAD DUP1 SWAP2 SUB SWAP1 RETURN JUMPDEST CALLVALUE DUP1 ISZERO PUSH2 0x2F6 JUMPI PUSH1 0x0 DUP1 REVERT JUMPDEST POP PUSH2 0x311 PUSH1 0x4 DUP1 CALLDATASIZE SUB DUP2 ADD SWAP1 PUSH2 0x30C SWAP2 SWAP1 PUSH2 0x181B JUMP JUMPDEST PUSH2 0xAE0 JUMP JUMPDEST STOP JUMPDEST CALLVALUE DUP1 ISZERO PUSH2 0x31F JUMPI PUSH1 0x0 DUP1 REVERT JUMPDEST POP PUSH2 0x328 PUSH2 0xBDD JUMP JUMPDEST PUSH1 0x40 MLOAD PUSH2 0x335 SWAP2 SWAP1 PUSH2 0x179D JUMP JUMPDEST PUSH1 0x40 MLOAD DUP1 SWAP2 SUB SWAP1 RETURN JUMPDEST CALLVALUE DUP1 ISZERO PUSH2 0x34A JUMPI PUSH1 0x0 DUP1 REVERT JUMPDEST POP PUSH2 0x353 PUSH2 0xBE3 JUMP JUMPDEST PUSH1 0x40 MLOAD PUSH2 0x360 SWAP2 SWAP1 PUSH2 0x1A55 JUMP JUMPDEST PUSH1 0x40 MLOAD DUP1 SWAP2 SUB SWAP1 RETURN JUMPDEST CALLVALUE DUP1 ISZERO PUSH2 0x375 JUMPI PUSH1 0x0 DUP1 REVERT JUMPDEST POP PUSH2 0x37E PUSH2 0xC09 JUMP JUMPDEST PUSH1 0x40 MLOAD PUSH2 0x38B SWAP2 SWAP1 PUSH2 0x1857 JUMP JUMPDEST PUSH1 0x40 MLOAD DUP1 SWAP2 SUB SWAP1 RETURN JUMPDEST PUSH2 0x3AE PUSH1 0x4 DUP1 CALLDATASIZE SUB DUP2 ADD SWAP1 PUSH2 0x3A9 SWAP2 SWAP1 PUSH2 0x1A70 JUMP JUMPDEST PUSH2 0xC2D JUMP JUMPDEST STOP JUMPDEST PUSH2 0x3CA PUSH1 0x4 DUP1 CALLDATASIZE SUB DUP2 ADD SWAP1 PUSH2 0x3C5 SWAP2 SWAP1 PUSH2 0x1AEB JUMP JUMPDEST PUSH2 0xE5D JUMP JUMPDEST STOP JUMPDEST PUSH2 0x3E6 PUSH1 0x4 DUP1 CALLDATASIZE SUB DUP2 ADD SWAP1 PUSH2 0x3E1 SWAP2 SWAP1 PUSH2 0x1B66 JUMP JUMPDEST PUSH2 0x12C3 JUMP JUMPDEST STOP JUMPDEST CALLVALUE DUP1 ISZERO PUSH2 0x3F4 JUMPI PUSH1 0x0 DUP1 REVERT JUMPDEST POP PUSH2 0x40F PUSH1 0x4 DUP1 CALLDATASIZE SUB DUP2 ADD SWAP1 PUSH2 0x40A SWAP2 SWAP1 PUSH2 0x181B JUMP JUMPDEST PUSH2 0x162A JUMP JUMPDEST STOP JUMPDEST CALLVALUE DUP1 ISZERO PUSH2 0x41D JUMPI PUSH1 0x0 DUP1 REVERT JUMPDEST POP PUSH2 0x426 PUSH2 0x172F JUMP JUMPDEST PUSH1 0x40 MLOAD PUSH2 0x433 SWAP2 SWAP1 PUSH2 0x19DB JUMP JUMPDEST PUSH1 0x40 MLOAD DUP1 SWAP2 SUB SWAP1 RETURN JUMPDEST PUSH1 0x4 SLOAD DUP2 JUMP JUMPDEST DUP1 PUSH20 0xFFFFFFFFFFFFFFFFFFFFFFFFFFFFFFFFFFFFFFFF AND PUSH1 0x2 PUSH1 0x0 SWAP1 SLOAD SWAP1 PUSH2 0x100 EXP SWAP1 DIV PUSH20 0xFFFFFFFFFFFFFFFFFFFFFFFFFFFFFFFFFFFFFFFF AND PUSH20 0xFFFFFFFFFFFFFFFFFFFFFFFFFFFFFFFFFFFFFFFF AND EQ PUSH2 0x4D2 JUMPI PUSH1 0x40 MLOAD PUSH32 0x8C379A000000000000000000000000000000000000000000000000000000000 DUP2 MSTORE PUSH1 0x4 ADD PUSH2 0x4C9 SWAP1 PUSH2 0x1C76 JUMP JUMPDEST PUSH1 0x40 MLOAD DUP1 SWAP2 SUB SWAP1 REVERT JUMPDEST PUSH1 0x2 PUSH1 0x14 SWAP1 SLOAD SWAP1 PUSH2 0x100 EXP SWAP1 DIV PUSH1 0xFF AND PUSH2 0x521 JUMPI PUSH1 0x40 MLOAD PUSH32 0x8C379A000000000000000000000000000000000000000000000000000000000 DUP2 MSTORE PUSH1 0x4 ADD PUSH2 0x518 SWAP1 PUSH2 0x1D08 JUMP JUMPDEST PUSH1 0x40 MLOAD DUP1 SWAP2 SUB SWAP1 REVERT JUMPDEST PUSH3 0x15180 PUSH1 0x4 SLOAD PUSH2 0x532 SWAP2 SWAP1 PUSH2 0x1D57 JUMP JUMPDEST PUSH1 0x3 SLOAD PUSH2 0x53F SWAP2 SWAP1 PUSH2 0x1D99 JUMP JUMPDEST TIMESTAMP LT ISZERO PUSH2 0x581 JUMPI PUSH1 0x40 MLOAD PUSH32 0x8C379A000000000000000000000000000000000000000000000000000000000 DUP2 MSTORE PUSH1 0x4 ADD PUSH2 0x578 SWAP1 PUSH2 0x1E19 JUMP JUMPDEST PUSH1 0x40 MLOAD DUP1 SWAP2 SUB SWAP1 REVERT JUMPDEST PUSH1 0x2 PUSH1 0x0 SWAP1 SLOAD SWAP1 PUSH2 0x100 EXP SWAP1 DIV PUSH20 0xFFFFFFFFFFFFFFFFFFFFFFFFFFFFFFFFFFFFFFFF AND PUSH1 0x1 PUSH1 0x0 PUSH2 0x100 EXP DUP2 SLOAD DUP2 PUSH20 0xFFFFFFFFFFFFFFFFFFFFFFFFFFFFFFFFFFFFFFFF MUL NOT AND SWAP1 DUP4 PUSH20 0xFFFFFFFFFFFFFFFFFFFFFFFFFFFFFFFFFFFFFFFF AND MUL OR SWAP1 SSTORE POP POP JUMP JUMPDEST PUSH1 0x0 DUP1 PUSH1 0x0 SWAP1 SLOAD SWAP1 PUSH2 0x100 EXP SWAP1 DIV PUSH20 0xFFFFFFFFFFFFFFFFFFFFFFFFFFFFFFFFFFFFFFFF AND SWAP1 POP SWAP1 JUMP JUMPDEST PUSH1 0x0 PUSH1 0x2 PUSH1 0x0 SWAP1 SLOAD SWAP1 PUSH2 0x100 EXP SWAP1 DIV PUSH20 0xFFFFFFFFFFFFFFFFFFFFFFFFFFFFFFFFFFFFFFFF AND SWAP1 POP SWAP1 JUMP JUMPDEST DUP1 PUSH20 0xFFFFFFFFFFFFFFFFFFFFFFFFFFFFFFFFFFFFFFFF AND PUSH1 0x1 PUSH1 0x0 SWAP1 SLOAD SWAP1 PUSH2 0x100 EXP SWAP1 DIV PUSH20 0xFFFFFFFFFFFFFFFFFFFFFFFFFFFFFFFFFFFFFFFF AND PUSH20 0xFFFFFFFFFFFFFFFFFFFFFFFFFFFFFFFFFFFFFFFF AND EQ PUSH2 0x6CA JUMPI PUSH1 0x40 MLOAD PUSH32 0x8C379A000000000000000000000000000000000000000000000000000000000 DUP2 MSTORE PUSH1 0x4 ADD PUSH2 0x6C1 SWAP1 PUSH2 0x1E85 JUMP JUMPDEST PUSH1 0x40 MLOAD DUP1 SWAP2 SUB SWAP1 REVERT JUMPDEST PUSH1 0x7 PUSH1 0x14 SWAP1 SLOAD SWAP1 PUSH2 0x100 EXP SWAP1 DIV PUSH1 0xFF AND ISZERO PUSH2 0x71A JUMPI PUSH1 0x40 MLOAD PUSH32 0x8C379A000000000000000000000000000000000000000000000000000000000 DUP2 MSTORE PUSH1 0x4 ADD PUSH2 0x711 SWAP1 PUSH2 0x1F17 JUMP JUMPDEST PUSH1 0x40 MLOAD DUP1 SWAP2 SUB SWAP1 REVERT JUMPDEST PUSH1 0x1 PUSH1 0x7 PUSH1 0x14 PUSH2 0x100 EXP DUP2 SLOAD DUP2 PUSH1 0xFF MUL NOT AND SWAP1 DUP4 ISZERO ISZERO MUL OR SWAP1 SSTORE POP DUP3 PUSH1 0x2 PUSH1 0x0 PUSH2 0x100 EXP DUP2 SLOAD DUP2 PUSH20 0xFFFFFFFFFFFFFFFFFFFFFFFFFFFFFFFFFFFFFFFF MUL NOT AND SWAP1 DUP4 PUSH20 0xFFFFFFFFFFFFFFFFFFFFFFFFFFFFFFFFFFFFFFFF AND MUL OR SWAP1 SSTORE POP DUP2 PUSH1 0x4 DUP2 SWAP1 SSTORE POP PUSH1 0x0 PUSH1 0x7 PUSH1 0x14 PUSH2 0x100 EXP DUP2 SLOAD DUP2 PUSH1 0xFF MUL NOT AND SWAP1 DUP4 ISZERO ISZERO MUL OR SWAP1 SSTORE POP POP POP POP JUMP JUMPDEST PUSH1 0x6 PUSH1 0x0 SWAP1 SLOAD SWAP1 PUSH2 0x100 EXP SWAP1 DIV PUSH20 0xFFFFFFFFFFFFFFFFFFFFFFFFFFFFFFFFFFFFFFFF AND DUP2 JUMP JUMPDEST PUSH1 0x1 PUSH1 0x0 SWAP1 SLOAD SWAP1 PUSH2 0x100 EXP SWAP1 DIV PUSH20 0xFFFFFFFFFFFFFFFFFFFFFFFFFFFFFFFFFFFFFFFF AND DUP2 JUMP JUMPDEST PUSH1 0x2 PUSH1 0x0 SWAP1 SLOAD SWAP1 PUSH2 0x100 EXP SWAP1 DIV PUSH20 0xFFFFFFFFFFFFFFFFFFFFFFFFFFFFFFFFFFFFFFFF AND DUP2 JUMP JUMPDEST PUSH1 0x0 PUSH1 0x1 PUSH1 0x0 SWAP1 SLOAD SWAP1 PUSH2 0x100 EXP SWAP1 DIV PUSH20 0xFFFFFFFFFFFFFFFFFFFFFFFFFFFFFFFFFFFFFFFF AND SWAP1 POP SWAP1 JUMP JUMPDEST PUSH1 0x1 PUSH1 0x0 SWAP1 SLOAD SWAP1 PUSH2 0x100 EXP SWAP1 DIV PUSH20 0xFFFFFFFFFFFFFFFFFFFFFFFFFFFFFFFFFFFFFFFF AND PUSH20 0xFFFFFFFFFFFFFFFFFFFFFFFFFFFFFFFFFFFFFFFF AND DUP4 PUSH20 0xFFFFFFFFFFFFFFFFFFFFFFFFFFFFFFFFFFFFFFFF AND EQ PUSH2 0x8C9 JUMPI PUSH1 0x40 MLOAD PUSH32 0x8C379A000000000000000000000000000000000000000000000000000000000 DUP2 MSTORE PUSH1 0x4 ADD PUSH2 0x8C0 SWAP1 PUSH2 0x1FA9 JUMP JUMPDEST PUSH1 0x40 MLOAD DUP1 SWAP2 SUB SWAP1 REVERT JUMPDEST PUSH1 0x0 SELFBALANCE GT PUSH2 0x90C JUMPI PUSH1 0x40 MLOAD PUSH32 0x8C379A000000000000000000000000000000000000000000000000000000000 DUP2 MSTORE PUSH1 0x4 ADD PUSH2 0x903 SWAP1 PUSH2 0x2015 JUMP JUMPDEST PUSH1 0x40 MLOAD DUP1 SWAP2 SUB SWAP1 REVERT JUMPDEST SELFBALANCE DUP5 GT ISZERO PUSH2 0x94F JUMPI PUSH1 0x40 MLOAD PUSH32 0x8C379A000000000000000000000000000000000000000000000000000000000 DUP2 MSTORE PUSH1 0x4 ADD PUSH2 0x946 SWAP1 PUSH2 0x2081 JUMP JUMPDEST PUSH1 0x40 MLOAD DUP1 SWAP2 SUB SWAP1 REVERT JUMPDEST PUSH1 0x7 PUSH1 0x14 SWAP1 SLOAD SWAP1 PUSH2 0x100 EXP SWAP1 DIV PUSH1 0xFF AND ISZERO PUSH2 0x99F JUMPI PUSH1 0x40 MLOAD PUSH32 0x8C379A000000000000000000000000000000000000000000000000000000000 DUP2 MSTORE PUSH1 0x4 ADD PUSH2 0x996 SWAP1 PUSH2 0x1F17 JUMP JUMPDEST PUSH1 0x40 MLOAD DUP1 SWAP2 SUB SWAP1 REVERT JUMPDEST PUSH1 0x1 PUSH1 0x7 PUSH1 0x14 PUSH2 0x100 EXP DUP2 SLOAD DUP2 PUSH1 0xFF MUL NOT AND SWAP1 DUP4 ISZERO ISZERO MUL OR SWAP1 SSTORE POP PUSH2 0x9E0 PUSH1 0x64 PUSH2 0x9D2 DUP4 DUP8 PUSH2 0x1742 SWAP1 SWAP2 SWAP1 PUSH4 0xFFFFFFFF AND JUMP JUMPDEST PUSH2 0x1758 SWAP1 SWAP2 SWAP1 PUSH4 0xFFFFFFFF AND JUMP JUMPDEST PUSH1 0x5 DUP2 SWAP1 SSTORE POP PUSH1 0x1 PUSH1 0x0 SWAP1 SLOAD SWAP1 PUSH2 0x100 EXP SWAP1 DIV PUSH20 0xFFFFFFFFFFFFFFFFFFFFFFFFFFFFFFFFFFFFFFFF AND PUSH20 0xFFFFFFFFFFFFFFFFFFFFFFFFFFFFFFFFFFFFFFFF AND PUSH2 0x8FC PUSH2 0xA37 PUSH1 0x5 SLOAD DUP8 PUSH2 0x176E SWAP1 SWAP2 SWAP1 PUSH4 0xFFFFFFFF AND JUMP JUMPDEST SWAP1 DUP2 ISZERO MUL SWAP1 PUSH1 0x40 MLOAD PUSH1 0x0 PUSH1 0x40 MLOAD DUP1 DUP4 SUB DUP2 DUP6 DUP9 DUP9 CALL SWAP4 POP POP POP POP ISZERO DUP1 ISZERO PUSH2 0xA62 JUMPI RETURNDATASIZE PUSH1 0x0 DUP1 RETURNDATACOPY RETURNDATASIZE PUSH1 0x0 REVERT JUMPDEST POP DUP2 PUSH20 0xFFFFFFFFFFFFFFFFFFFFFFFFFFFFFFFFFFFFFFFF AND PUSH2 0x8FC PUSH1 0x5 SLOAD SWAP1 DUP2 ISZERO MUL SWAP1 PUSH1 0x40 MLOAD PUSH1 0x0 PUSH1 0x40 MLOAD DUP1 DUP4 SUB DUP2 DUP6 DUP9 DUP9 CALL SWAP4 POP POP POP POP ISZERO DUP1 ISZERO PUSH2 0xAAB JUMPI RETURNDATASIZE PUSH1 0x0 DUP1 RETURNDATACOPY RETURNDATASIZE PUSH1 0x0 REVERT JUMPDEST POP PUSH1 0x0 PUSH1 0x7 PUSH1 0x14 PUSH2 0x100 EXP DUP2 SLOAD DUP2 PUSH1 0xFF MUL NOT AND SWAP1 DUP4 ISZERO ISZERO MUL OR SWAP1 SSTORE POP POP POP POP POP JUMP JUMPDEST PUSH1 0x7 PUSH1 0x14 SWAP1 SLOAD SWAP1 PUSH2 0x100 EXP SWAP1 DIV PUSH1 0xFF AND DUP2 JUMP JUMPDEST PUSH1 0x1 PUSH1 0x0 SWAP1 SLOAD SWAP1 PUSH2 0x100 EXP SWAP1 DIV PUSH20 0xFFFFFFFFFFFFFFFFFFFFFFFFFFFFFFFFFFFFFFFF AND PUSH20 0xFFFFFFFFFFFFFFFFFFFFFFFFFFFFFFFFFFFFFFFF AND DUP2 PUSH20 0xFFFFFFFFFFFFFFFFFFFFFFFFFFFFFFFFFFFFFFFF AND EQ PUSH2 0xB70 JUMPI PUSH1 0x40 MLOAD PUSH32 0x8C379A000000000000000000000000000000000000000000000000000000000 DUP2 MSTORE PUSH1 0x4 ADD PUSH2 0xB67 SWAP1 PUSH2 0x20ED JUMP JUMPDEST PUSH1 0x40 MLOAD DUP1 SWAP2 SUB SWAP1 REVERT JUMPDEST PUSH1 0x2 PUSH1 0x14 SWAP1 SLOAD SWAP1 PUSH2 0x100 EXP SWAP1 DIV PUSH1 0xFF AND PUSH2 0xBBF JUMPI PUSH1 0x40 MLOAD PUSH32 0x8C379A000000000000000000000000000000000000000000000000000000000 DUP2 MSTORE PUSH1 0x4 ADD PUSH2 0xBB6 SWAP1 PUSH2 0x217F JUMP JUMPDEST PUSH1 0x40 MLOAD DUP1 SWAP2 SUB SWAP1 REVERT JUMPDEST PUSH1 0x0 PUSH1 0x2 PUSH1 0x14 PUSH2 0x100 EXP DUP2 SLOAD DUP2 PUSH1 0xFF MUL NOT AND SWAP1 DUP4 ISZERO ISZERO MUL OR SWAP1 SSTORE POP POP JUMP JUMPDEST PUSH1 0x3 SLOAD DUP2 JUMP JUMPDEST PUSH1 0x7 PUSH1 0x0 SWAP1 SLOAD SWAP1 PUSH2 0x100 EXP SWAP1 DIV PUSH20 0xFFFFFFFFFFFFFFFFFFFFFFFFFFFFFFFFFFFFFFFF AND DUP2 JUMP JUMPDEST PUSH1 0x0 DUP1 SLOAD SWAP1 PUSH2 0x100 EXP SWAP1 DIV PUSH20 0xFFFFFFFFFFFFFFFFFFFFFFFFFFFFFFFFFFFFFFFF AND DUP2 JUMP JUMPDEST PUSH1 0x1 PUSH1 0x0 SWAP1 SLOAD SWAP1 PUSH2 0x100 EXP SWAP1 DIV PUSH20 0xFFFFFFFFFFFFFFFFFFFFFFFFFFFFFFFFFFFFFFFF AND PUSH20 0xFFFFFFFFFFFFFFFFFFFFFFFFFFFFFFFFFFFFFFFF AND DUP4 PUSH20 0xFFFFFFFFFFFFFFFFFFFFFFFFFFFFFFFFFFFFFFFF AND EQ PUSH2 0xCBD JUMPI PUSH1 0x40 MLOAD PUSH32 0x8C379A000000000000000000000000000000000000000000000000000000000 DUP2 MSTORE PUSH1 0x4 ADD PUSH2 0xCB4 SWAP1 PUSH2 0x2211 JUMP JUMPDEST PUSH1 0x40 MLOAD DUP1 SWAP2 SUB SWAP1 REVERT JUMPDEST SELFBALANCE DUP5 GT ISZERO PUSH2 0xD00 JUMPI PUSH1 0x40 MLOAD PUSH32 0x8C379A000000000000000000000000000000000000000000000000000000000 DUP2 MSTORE PUSH1 0x4 ADD PUSH2 0xCF7 SWAP1 PUSH2 0x2081 JUMP JUMPDEST PUSH1 0x40 MLOAD DUP1 SWAP2 SUB SWAP1 REVERT JUMPDEST PUSH1 0x7 PUSH1 0x14 SWAP1 SLOAD SWAP1 PUSH2 0x100 EXP SWAP1 DIV PUSH1 0xFF AND ISZERO PUSH2 0xD50 JUMPI PUSH1 0x40 MLOAD PUSH32 0x8C379A000000000000000000000000000000000000000000000000000000000 DUP2 MSTORE PUSH1 0x4 ADD PUSH2 0xD47 SWAP1 PUSH2 0x1F17 JUMP JUMPDEST PUSH1 0x40 MLOAD DUP1 SWAP2 SUB SWAP1 REVERT JUMPDEST PUSH1 0x1 PUSH1 0x7 PUSH1 0x14 PUSH2 0x100 EXP DUP2 SLOAD DUP2 PUSH1 0xFF MUL NOT AND SWAP1 DUP4 ISZERO ISZERO MUL OR SWAP1 SSTORE POP PUSH2 0xD91 PUSH1 0x64 PUSH2 0xD83 DUP4 DUP8 PUSH2 0x1742 SWAP1 SWAP2 SWAP1 PUSH4 0xFFFFFFFF AND JUMP JUMPDEST PUSH2 0x1758 SWAP1 SWAP2 SWAP1 PUSH4 0xFFFFFFFF AND JUMP JUMPDEST PUSH1 0x5 DUP2 SWAP1 SSTORE POP DUP5 PUSH20 0xFFFFFFFFFFFFFFFFFFFFFFFFFFFFFFFFFFFFFFFF AND PUSH2 0x8FC PUSH2 0xDC6 PUSH1 0x5 SLOAD DUP8 PUSH2 0x176E SWAP1 SWAP2 SWAP1 PUSH4 0xFFFFFFFF AND JUMP JUMPDEST SWAP1 DUP2 ISZERO MUL SWAP1 PUSH1 0x40 MLOAD PUSH1 0x0 PUSH1 0x40 MLOAD DUP1 DUP4 SUB DUP2 DUP6 DUP9 DUP9 CALL SWAP4 POP POP POP POP ISZERO DUP1 ISZERO PUSH2 0xDF1 JUMPI RETURNDATASIZE PUSH1 0x0 DUP1 RETURNDATACOPY RETURNDATASIZE PUSH1 0x0 REVERT JUMPDEST POP DUP2 PUSH20 0xFFFFFFFFFFFFFFFFFFFFFFFFFFFFFFFFFFFFFFFF AND PUSH2 0x8FC PUSH1 0x5 SLOAD SWAP1 DUP2 ISZERO MUL SWAP1 PUSH1 0x40 MLOAD PUSH1 0x0 PUSH1 0x40 MLOAD DUP1 DUP4 SUB DUP2 DUP6 DUP9 DUP9 CALL SWAP4 POP POP POP POP ISZERO DUP1 ISZERO PUSH2 0xE3A JUMPI RETURNDATASIZE PUSH1 0x0 DUP1 RETURNDATACOPY RETURNDATASIZE PUSH1 0x0 REVERT JUMPDEST POP PUSH1 0x0 PUSH1 0x7 PUSH1 0x14 PUSH2 0x100 EXP DUP2 SLOAD DUP2 PUSH1 0xFF MUL NOT AND SWAP1 DUP4 ISZERO ISZERO MUL OR SWAP1 SSTORE POP POP POP POP POP POP JUMP JUMPDEST PUSH1 0x1 PUSH1 0x0 SWAP1 SLOAD SWAP1 PUSH2 0x100 EXP SWAP1 DIV PUSH20 0xFFFFFFFFFFFFFFFFFFFFFFFFFFFFFFFFFFFFFFFF AND PUSH20 0xFFFFFFFFFFFFFFFFFFFFFFFFFFFFFFFFFFFFFFFF AND DUP4 PUSH20 0xFFFFFFFFFFFFFFFFFFFFFFFFFFFFFFFFFFFFFFFF AND EQ PUSH2 0xEED JUMPI PUSH1 0x40 MLOAD PUSH32 0x8C379A000000000000000000000000000000000000000000000000000000000 DUP2 MSTORE PUSH1 0x4 ADD PUSH2 0xEE4 SWAP1 PUSH2 0x1FA9 JUMP JUMPDEST PUSH1 0x40 MLOAD DUP1 SWAP2 SUB SWAP1 REVERT JUMPDEST DUP4 PUSH1 0x7 PUSH1 0x0 PUSH2 0x100 EXP DUP2 SLOAD DUP2 PUSH20 0xFFFFFFFFFFFFFFFFFFFFFFFFFFFFFFFFFFFFFFFF MUL NOT AND SWAP1 DUP4 PUSH20 0xFFFFFFFFFFFFFFFFFFFFFFFFFFFFFFFFFFFFFFFF AND MUL OR SWAP1 SSTORE POP PUSH1 0x0 PUSH1 0x7 PUSH1 0x0 SWAP1 SLOAD SWAP1 PUSH2 0x100 EXP SWAP1 DIV PUSH20 0xFFFFFFFFFFFFFFFFFFFFFFFFFFFFFFFFFFFFFFFF AND PUSH20 0xFFFFFFFFFFFFFFFFFFFFFFFFFFFFFFFFFFFFFFFF AND PUSH4 0x70A08231 ADDRESS PUSH1 0x40 MLOAD DUP3 PUSH4 0xFFFFFFFF AND PUSH1 0xE0 SHL DUP2 MSTORE PUSH1 0x4 ADD PUSH2 0xF8B SWAP2 SWAP1 PUSH2 0x1857 JUMP JUMPDEST PUSH1 0x20 PUSH1 0x40 MLOAD DUP1 DUP4 SUB DUP2 DUP7 GAS STATICCALL ISZERO DUP1 ISZERO PUSH2 0xFA8 JUMPI RETURNDATASIZE PUSH1 0x0 DUP1 RETURNDATACOPY RETURNDATASIZE PUSH1 0x0 REVERT JUMPDEST POP POP POP POP PUSH1 0x40 MLOAD RETURNDATASIZE PUSH1 0x1F NOT PUSH1 0x1F DUP3 ADD AND DUP3 ADD DUP1 PUSH1 0x40 MSTORE POP DUP2 ADD SWAP1 PUSH2 0xFCC SWAP2 SWAP1 PUSH2 0x2246 JUMP JUMPDEST GT PUSH2 0x100C JUMPI PUSH1 0x40 MLOAD PUSH32 0x8C379A000000000000000000000000000000000000000000000000000000000 DUP2 MSTORE PUSH1 0x4 ADD PUSH2 0x1003 SWAP1 PUSH2 0x2015 JUMP JUMPDEST PUSH1 0x40 MLOAD DUP1 SWAP2 SUB SWAP1 REVERT JUMPDEST PUSH1 0x7 PUSH1 0x0 SWAP1 SLOAD SWAP1 PUSH2 0x100 EXP SWAP1 DIV PUSH20 0xFFFFFFFFFFFFFFFFFFFFFFFFFFFFFFFFFFFFFFFF AND PUSH20 0xFFFFFFFFFFFFFFFFFFFFFFFFFFFFFFFFFFFFFFFF AND PUSH4 0x70A08231 ADDRESS PUSH1 0x40 MLOAD DUP3 PUSH4 0xFFFFFFFF AND PUSH1 0xE0 SHL DUP2 MSTORE PUSH1 0x4 ADD PUSH2 0x1067 SWAP2 SWAP1 PUSH2 0x1857 JUMP JUMPDEST PUSH1 0x20 PUSH1 0x40 MLOAD DUP1 DUP4 SUB DUP2 DUP7 GAS STATICCALL ISZERO DUP1 ISZERO PUSH2 0x1084 JUMPI RETURNDATASIZE PUSH1 0x0 DUP1 RETURNDATACOPY RETURNDATASIZE PUSH1 0x0 REVERT JUMPDEST POP POP POP POP PUSH1 0x40 MLOAD RETURNDATASIZE PUSH1 0x1F NOT PUSH1 0x1F DUP3 ADD AND DUP3 ADD DUP1 PUSH1 0x40 MSTORE POP DUP2 ADD SWAP1 PUSH2 0x10A8 SWAP2 SWAP1 PUSH2 0x2246 JUMP JUMPDEST DUP6 GT ISZERO PUSH2 0x10EA JUMPI PUSH1 0x40 MLOAD PUSH32 0x8C379A000000000000000000000000000000000000000000000000000000000 DUP2 MSTORE PUSH1 0x4 ADD PUSH2 0x10E1 SWAP1 PUSH2 0x2081 JUMP JUMPDEST PUSH1 0x40 MLOAD DUP1 SWAP2 SUB SWAP1 REVERT JUMPDEST PUSH1 0x7 PUSH1 0x14 SWAP1 SLOAD SWAP1 PUSH2 0x100 EXP SWAP1 DIV PUSH1 0xFF AND ISZERO PUSH2 0x113A JUMPI PUSH1 0x40 MLOAD PUSH32 0x8C379A000000000000000000000000000000000000000000000000000000000 DUP2 MSTORE PUSH1 0x4 ADD PUSH2 0x1131 SWAP1 PUSH2 0x1F17 JUMP JUMPDEST PUSH1 0x40 MLOAD DUP1 SWAP2 SUB SWAP1 REVERT JUMPDEST PUSH1 0x1 PUSH1 0x7 PUSH1 0x14 PUSH2 0x100 EXP DUP2 SLOAD DUP2 PUSH1 0xFF MUL NOT AND SWAP1 DUP4 ISZERO ISZERO MUL OR SWAP1 SSTORE POP PUSH2 0x117B PUSH1 0x64 PUSH2 0x116D DUP4 DUP9 PUSH2 0x1742 SWAP1 SWAP2 SWAP1 PUSH4 0xFFFFFFFF AND JUMP JUMPDEST PUSH2 0x1758 SWAP1 SWAP2 SWAP1 PUSH4 0xFFFFFFFF AND JUMP JUMPDEST PUSH1 0x5 DUP2 SWAP1 SSTORE POP PUSH1 0x7 PUSH1 0x0 SWAP1 SLOAD SWAP1 PUSH2 0x100 EXP SWAP1 DIV PUSH20 0xFFFFFFFFFFFFFFFFFFFFFFFFFFFFFFFFFFFFFFFF AND PUSH20 0xFFFFFFFFFFFFFFFFFFFFFFFFFFFFFFFFFFFFFFFF AND PUSH4 0xA9059CBB PUSH1 0x1 PUSH1 0x0 SWAP1 SLOAD SWAP1 PUSH2 0x100 EXP SWAP1 DIV PUSH20 0xFFFFFFFFFFFFFFFFFFFFFFFFFFFFFFFFFFFFFFFF AND PUSH2 0x11F7 PUSH1 0x5 SLOAD DUP10 PUSH2 0x176E SWAP1 SWAP2 SWAP1 PUSH4 0xFFFFFFFF AND JUMP JUMPDEST PUSH1 0x40 MLOAD DUP4 PUSH4 0xFFFFFFFF AND PUSH1 0xE0 SHL DUP2 MSTORE PUSH1 0x4 ADD PUSH2 0x1214 SWAP3 SWAP2 SWAP1 PUSH2 0x2294 JUMP JUMPDEST PUSH1 0x20 PUSH1 0x40 MLOAD DUP1 DUP4 SUB DUP2 PUSH1 0x0 DUP8 GAS CALL ISZERO DUP1 ISZERO PUSH2 0x1233 JUMPI RETURNDATASIZE PUSH1 0x0 DUP1 RETURNDATACOPY RETURNDATASIZE PUSH1 0x0 REVERT JUMPDEST POP POP POP POP PUSH1 0x40 MLOAD RETURNDATASIZE PUSH1 0x1F NOT PUSH1 0x1F DUP3 ADD AND DUP3 ADD DUP1 PUSH1 0x40 MSTORE POP DUP2 ADD SWAP1 PUSH2 0x1257 SWAP2 SWAP1 PUSH2 0x22E9 JUMP JUMPDEST POP DUP2 PUSH20 0xFFFFFFFFFFFFFFFFFFFFFFFFFFFFFFFFFFFFFFFF AND PUSH2 0x8FC PUSH1 0x5 SLOAD SWAP1 DUP2 ISZERO MUL SWAP1 PUSH1 0x40 MLOAD PUSH1 0x0 PUSH1 0x40 MLOAD DUP1 DUP4 SUB DUP2 DUP6 DUP9 DUP9 CALL SWAP4 POP POP POP POP ISZERO DUP1 ISZERO PUSH2 0x12A0 JUMPI RETURNDATASIZE PUSH1 0x0 DUP1 RETURNDATACOPY RETURNDATASIZE PUSH1 0x0 REVERT JUMPDEST POP PUSH1 0x0 PUSH1 0x7 PUSH1 0x14 PUSH2 0x100 EXP DUP2 SLOAD DUP2 PUSH1 0xFF MUL NOT AND SWAP1 DUP4 ISZERO ISZERO MUL OR SWAP1 SSTORE POP POP POP POP POP POP JUMP JUMPDEST PUSH1 0x1 PUSH1 0x0 SWAP1 SLOAD SWAP1 PUSH2 0x100 EXP SWAP1 DIV PUSH20 0xFFFFFFFFFFFFFFFFFFFFFFFFFFFFFFFFFFFFFFFF AND PUSH20 0xFFFFFFFFFFFFFFFFFFFFFFFFFFFFFFFFFFFFFFFF AND DUP4 PUSH20 0xFFFFFFFFFFFFFFFFFFFFFFFFFFFFFFFFFFFFFFFF AND EQ PUSH2 0x1353 JUMPI PUSH1 0x40 MLOAD PUSH32 0x8C379A000000000000000000000000000000000000000000000000000000000 DUP2 MSTORE PUSH1 0x4 ADD PUSH2 0x134A SWAP1 PUSH2 0x2211 JUMP JUMPDEST PUSH1 0x40 MLOAD DUP1 SWAP2 SUB SWAP1 REVERT JUMPDEST DUP4 PUSH1 0x7 PUSH1 0x0 PUSH2 0x100 EXP DUP2 SLOAD DUP2 PUSH20 0xFFFFFFFFFFFFFFFFFFFFFFFFFFFFFFFFFFFFFFFF MUL NOT AND SWAP1 DUP4 PUSH20 0xFFFFFFFFFFFFFFFFFFFFFFFFFFFFFFFFFFFFFFFF AND MUL OR SWAP1 SSTORE POP PUSH1 0x7 PUSH1 0x0 SWAP1 SLOAD SWAP1 PUSH2 0x100 EXP SWAP1 DIV PUSH20 0xFFFFFFFFFFFFFFFFFFFFFFFFFFFFFFFFFFFFFFFF AND PUSH20 0xFFFFFFFFFFFFFFFFFFFFFFFFFFFFFFFFFFFFFFFF AND PUSH4 0x70A08231 ADDRESS PUSH1 0x40 MLOAD DUP3 PUSH4 0xFFFFFFFF AND PUSH1 0xE0 SHL DUP2 MSTORE PUSH1 0x4 ADD PUSH2 0x13EF SWAP2 SWAP1 PUSH2 0x1857 JUMP JUMPDEST PUSH1 0x20 PUSH1 0x40 MLOAD DUP1 DUP4 SUB DUP2 DUP7 GAS STATICCALL ISZERO DUP1 ISZERO PUSH2 0x140C JUMPI RETURNDATASIZE PUSH1 0x0 DUP1 RETURNDATACOPY RETURNDATASIZE PUSH1 0x0 REVERT JUMPDEST POP POP POP POP PUSH1 0x40 MLOAD RETURNDATASIZE PUSH1 0x1F NOT PUSH1 0x1F DUP3 ADD AND DUP3 ADD DUP1 PUSH1 0x40 MSTORE POP DUP2 ADD SWAP1 PUSH2 0x1430 SWAP2 SWAP1 PUSH2 0x2246 JUMP JUMPDEST DUP6 GT ISZERO PUSH2 0x1472 JUMPI PUSH1 0x40 MLOAD PUSH32 0x8C379A000000000000000000000000000000000000000000000000000000000 DUP2 MSTORE PUSH1 0x4 ADD PUSH2 0x1469 SWAP1 PUSH2 0x2081 JUMP JUMPDEST PUSH1 0x40 MLOAD DUP1 SWAP2 SUB SWAP1 REVERT JUMPDEST PUSH1 0x7 PUSH1 0x14 SWAP1 SLOAD SWAP1 PUSH2 0x100 EXP SWAP1 DIV PUSH1 0xFF AND ISZERO PUSH2 0x14C2 JUMPI PUSH1 0x40 MLOAD PUSH32 0x8C379A000000000000000000000000000000000000000000000000000000000 DUP2 MSTORE PUSH1 0x4 ADD PUSH2 0x14B9 SWAP1 PUSH2 0x1F17 JUMP JUMPDEST PUSH1 0x40 MLOAD DUP1 SWAP2 SUB SWAP1 REVERT JUMPDEST PUSH1 0x1 PUSH1 0x7 PUSH1 0x14 PUSH2 0x100 EXP DUP2 SLOAD DUP2 PUSH1 0xFF MUL NOT AND SWAP1 DUP4 ISZERO ISZERO MUL OR SWAP1 SSTORE POP PUSH2 0x1503 PUSH1 0x64 PUSH2 0x14F5 DUP4 DUP9 PUSH2 0x1742 SWAP1 SWAP2 SWAP1 PUSH4 0xFFFFFFFF AND JUMP JUMPDEST PUSH2 0x1758 SWAP1 SWAP2 SWAP1 PUSH4 0xFFFFFFFF AND JUMP JUMPDEST PUSH1 0x5 DUP2 SWAP1 SSTORE POP PUSH1 0x7 PUSH1 0x0 SWAP1 SLOAD SWAP1 PUSH2 0x100 EXP SWAP1 DIV PUSH20 0xFFFFFFFFFFFFFFFFFFFFFFFFFFFFFFFFFFFFFFFF AND PUSH20 0xFFFFFFFFFFFFFFFFFFFFFFFFFFFFFFFFFFFFFFFF AND PUSH4 0xA9059CBB DUP8 PUSH2 0x155D PUSH1 0x5 SLOAD DUP10 PUSH2 0x176E SWAP1 SWAP2 SWAP1 PUSH4 0xFFFFFFFF AND JUMP JUMPDEST PUSH1 0x40 MLOAD DUP4 PUSH4 0xFFFFFFFF AND PUSH1 0xE0 SHL DUP2 MSTORE PUSH1 0x4 ADD PUSH2 0x157A SWAP3 SWAP2 SWAP1 PUSH2 0x2294 JUMP JUMPDEST PUSH1 0x20 PUSH1 0x40 MLOAD DUP1 DUP4 SUB DUP2 PUSH1 0x0 DUP8 GAS CALL ISZERO DUP1 ISZERO PUSH2 0x1599 JUMPI RETURNDATASIZE PUSH1 0x0 DUP1 RETURNDATACOPY RETURNDATASIZE PUSH1 0x0 REVERT JUMPDEST POP POP POP POP PUSH1 0x40 MLOAD RETURNDATASIZE PUSH1 0x1F NOT PUSH1 0x1F DUP3 ADD AND DUP3 ADD DUP1 PUSH1 0x40 MSTORE POP DUP2 ADD SWAP1 PUSH2 0x15BD SWAP2 SWAP1 PUSH2 0x22E9 JUMP JUMPDEST POP DUP2 PUSH20 0xFFFFFFFFFFFFFFFFFFFFFFFFFFFFFFFFFFFFFFFF AND PUSH2 0x8FC PUSH1 0x5 SLOAD SWAP1 DUP2 ISZERO MUL SWAP1 PUSH1 0x40 MLOAD PUSH1 0x0 PUSH1 0x40 MLOAD DUP1 DUP4 SUB DUP2 DUP6 DUP9 DUP9 CALL SWAP4 POP POP POP POP ISZERO DUP1 ISZERO PUSH2 0x1606 JUMPI RETURNDATASIZE PUSH1 0x0 DUP1 RETURNDATACOPY RETURNDATASIZE PUSH1 0x0 REVERT JUMPDEST POP PUSH1 0x0 PUSH1 0x7 PUSH1 0x14 PUSH2 0x100 EXP DUP2 SLOAD DUP2 PUSH1 0xFF MUL NOT AND SWAP1 DUP4 ISZERO ISZERO MUL OR SWAP1 SSTORE POP POP POP POP POP POP POP JUMP JUMPDEST DUP1 PUSH20 0xFFFFFFFFFFFFFFFFFFFFFFFFFFFFFFFFFFFFFFFF AND PUSH1 0x2 PUSH1 0x0 SWAP1 SLOAD SWAP1 PUSH2 0x100 EXP SWAP1 DIV PUSH20 0xFFFFFFFFFFFFFFFFFFFFFFFFFFFFFFFFFFFFFFFF AND PUSH20 0xFFFFFFFFFFFFFFFFFFFFFFFFFFFFFFFFFFFFFFFF AND EQ PUSH2 0x16BA JUMPI PUSH1 0x40 MLOAD PUSH32 0x8C379A000000000000000000000000000000000000000000000000000000000 DUP2 MSTORE PUSH1 0x4 ADD PUSH2 0x16B1 SWAP1 PUSH2 0x2388 JUMP JUMPDEST PUSH1 0x40 MLOAD DUP1 SWAP2 SUB SWAP1 REVERT JUMPDEST PUSH1 0x2 PUSH1 0x14 SWAP1 SLOAD SWAP1 PUSH2 0x100 EXP SWAP1 DIV PUSH1 0xFF AND ISZERO PUSH2 0x170A JUMPI PUSH1 0x40 MLOAD PUSH32 0x8C379A000000000000000000000000000000000000000000000000000000000 DUP2 MSTORE PUSH1 0x4 ADD PUSH2 0x1701 SWAP1 PUSH2 0x241A JUMP JUMPDEST PUSH1 0x40 MLOAD DUP1 SWAP2 SUB SWAP1 REVERT JUMPDEST PUSH1 0x1 PUSH1 0x2 PUSH1 0x14 PUSH2 0x100 EXP DUP2 SLOAD DUP2 PUSH1 0xFF MUL NOT AND SWAP1 DUP4 ISZERO ISZERO MUL OR SWAP1 SSTORE POP TIMESTAMP PUSH1 0x3 DUP2 SWAP1 SSTORE POP POP JUMP JUMPDEST PUSH1 0x2 PUSH1 0x14 SWAP1 SLOAD SWAP1 PUSH2 0x100 EXP SWAP1 DIV PUSH1 0xFF AND DUP2 JUMP JUMPDEST PUSH1 0x0 DUP2 DUP4 PUSH2 0x1750 SWAP2 SWAP1 PUSH2 0x1D57 JUMP JUMPDEST SWAP1 POP SWAP3 SWAP2 POP POP JUMP JUMPDEST PUSH1 0x0 DUP2 DUP4 PUSH2 0x1766 SWAP2 SWAP1 PUSH2 0x2469 JUMP JUMPDEST SWAP1 POP SWAP3 SWAP2 POP POP JUMP JUMPDEST PUSH1 0x0 DUP2 DUP4 PUSH2 0x177C SWAP2 SWAP1 PUSH2 0x249A JUMP JUMPDEST SWAP1 POP SWAP3 SWAP2 POP POP JUMP JUMPDEST PUSH1 0x0 DUP2 SWAP1 POP SWAP2 SWAP1 POP JUMP JUMPDEST PUSH2 0x1797 DUP2 PUSH2 0x1784 JUMP JUMPDEST DUP3 MSTORE POP POP JUMP JUMPDEST PUSH1 0x0 PUSH1 0x20 DUP3 ADD SWAP1 POP PUSH2 0x17B2 PUSH1 0x0 DUP4 ADD DUP5 PUSH2 0x178E JUMP JUMPDEST SWAP3 SWAP2 POP POP JUMP JUMPDEST PUSH1 0x0 DUP1 REVERT JUMPDEST PUSH1 0x0 PUSH20 0xFFFFFFFFFFFFFFFFFFFFFFFFFFFFFFFFFFFFFFFF DUP3 AND SWAP1 POP SWAP2 SWAP1 POP JUMP JUMPDEST PUSH1 0x0 PUSH2 0x17E8 DUP3 PUSH2 0x17BD JUMP JUMPDEST SWAP1 POP SWAP2 SWAP1 POP JUMP JUMPDEST PUSH2 0x17F8 DUP2 PUSH2 0x17DD JUMP JUMPDEST DUP2 EQ PUSH2 0x1803 JUMPI PUSH1 0x0 DUP1 REVERT JUMPDEST POP JUMP JUMPDEST PUSH1 0x0 DUP2 CALLDATALOAD SWAP1 POP PUSH2 0x1815 DUP2 PUSH2 0x17EF JUMP JUMPDEST SWAP3 SWAP2 POP POP JUMP JUMPDEST PUSH1 0x0 PUSH1 0x20 DUP3 DUP5 SUB SLT ISZERO PUSH2 0x1831 JUMPI PUSH2 0x1830 PUSH2 0x17B8 JUMP JUMPDEST JUMPDEST PUSH1 0x0 PUSH2 0x183F DUP5 DUP3 DUP6 ADD PUSH2 0x1806 JUMP JUMPDEST SWAP2 POP POP SWAP3 SWAP2 POP POP JUMP JUMPDEST PUSH2 0x1851 DUP2 PUSH2 0x17DD JUMP JUMPDEST DUP3 MSTORE POP POP JUMP JUMPDEST PUSH1 0x0 PUSH1 0x20 DUP3 ADD SWAP1 POP PUSH2 0x186C PUSH1 0x0 DUP4 ADD DUP5 PUSH2 0x1848 JUMP JUMPDEST SWAP3 SWAP2 POP POP JUMP JUMPDEST PUSH1 0x0 PUSH2 0x187D DUP3 PUSH2 0x17BD JUMP JUMPDEST SWAP1 POP SWAP2 SWAP1 POP JUMP JUMPDEST PUSH2 0x188D DUP2 PUSH2 0x1872 JUMP JUMPDEST DUP2 EQ PUSH2 0x1898 JUMPI PUSH1 0x0 DUP1 REVERT JUMPDEST POP JUMP JUMPDEST PUSH1 0x0 DUP2 CALLDATALOAD SWAP1 POP PUSH2 0x18AA DUP2 PUSH2 0x1884 JUMP JUMPDEST SWAP3 SWAP2 POP POP JUMP JUMPDEST PUSH2 0x18B9 DUP2 PUSH2 0x1784 JUMP JUMPDEST DUP2 EQ PUSH2 0x18C4 JUMPI PUSH1 0x0 DUP1 REVERT JUMPDEST POP JUMP JUMPDEST PUSH1 0x0 DUP2 CALLDATALOAD SWAP1 POP PUSH2 0x18D6 DUP2 PUSH2 0x18B0 JUMP JUMPDEST SWAP3 SWAP2 POP POP JUMP JUMPDEST PUSH1 0x0 DUP1 PUSH1 0x0 PUSH1 0x60 DUP5 DUP7 SUB SLT ISZERO PUSH2 0x18F5 JUMPI PUSH2 0x18F4 PUSH2 0x17B8 JUMP JUMPDEST JUMPDEST PUSH1 0x0 PUSH2 0x1903 DUP7 DUP3 DUP8 ADD PUSH2 0x189B JUMP JUMPDEST SWAP4 POP POP PUSH1 0x20 PUSH2 0x1914 DUP7 DUP3 DUP8 ADD PUSH2 0x18C7 JUMP JUMPDEST SWAP3 POP POP PUSH1 0x40 PUSH2 0x1925 DUP7 DUP3 DUP8 ADD PUSH2 0x1806 JUMP JUMPDEST SWAP2 POP POP SWAP3 POP SWAP3 POP SWAP3 JUMP JUMPDEST PUSH2 0x1938 DUP2 PUSH2 0x1872 JUMP JUMPDEST DUP3 MSTORE POP POP JUMP JUMPDEST PUSH1 0x0 PUSH1 0x20 DUP3 ADD SWAP1 POP PUSH2 0x1953 PUSH1 0x0 DUP4 ADD DUP5 PUSH2 0x192F JUMP JUMPDEST SWAP3 SWAP2 POP POP JUMP JUMPDEST PUSH1 0x0 DUP1 PUSH1 0x0 DUP1 PUSH1 0x80 DUP6 DUP8 SUB SLT ISZERO PUSH2 0x1973 JUMPI PUSH2 0x1972 PUSH2 0x17B8 JUMP JUMPDEST JUMPDEST PUSH1 0x0 PUSH2 0x1981 DUP8 DUP3 DUP9 ADD PUSH2 0x18C7 JUMP JUMPDEST SWAP5 POP POP PUSH1 0x20 PUSH2 0x1992 DUP8 DUP3 DUP9 ADD PUSH2 0x1806 JUMP JUMPDEST SWAP4 POP POP PUSH1 0x40 PUSH2 0x19A3 DUP8 DUP3 DUP9 ADD PUSH2 0x189B JUMP JUMPDEST SWAP3 POP POP PUSH1 0x60 PUSH2 0x19B4 DUP8 DUP3 DUP9 ADD PUSH2 0x18C7 JUMP JUMPDEST SWAP2 POP POP SWAP3 SWAP6 SWAP2 SWAP5 POP SWAP3 POP JUMP JUMPDEST PUSH1 0x0 DUP2 ISZERO ISZERO SWAP1 POP SWAP2 SWAP1 POP JUMP JUMPDEST PUSH2 0x19D5 DUP2 PUSH2 0x19C0 JUMP JUMPDEST DUP3 MSTORE POP POP JUMP JUMPDEST PUSH1 0x0 PUSH1 0x20 DUP3 ADD SWAP1 POP PUSH2 0x19F0 PUSH1 0x0 DUP4 ADD DUP5 PUSH2 0x19CC JUMP JUMPDEST SWAP3 SWAP2 POP POP JUMP JUMPDEST PUSH1 0x0 DUP2 SWAP1 POP SWAP2 SWAP1 POP JUMP JUMPDEST PUSH1 0x0 PUSH2 0x1A1B PUSH2 0x1A16 PUSH2 0x1A11 DUP5 PUSH2 0x17BD JUMP JUMPDEST PUSH2 0x19F6 JUMP JUMPDEST PUSH2 0x17BD JUMP JUMPDEST SWAP1 POP SWAP2 SWAP1 POP JUMP JUMPDEST PUSH1 0x0 PUSH2 0x1A2D DUP3 PUSH2 0x1A00 JUMP JUMPDEST SWAP1 POP SWAP2 SWAP1 POP JUMP JUMPDEST PUSH1 0x0 PUSH2 0x1A3F DUP3 PUSH2 0x1A22 JUMP JUMPDEST SWAP1 POP SWAP2 SWAP1 POP JUMP JUMPDEST PUSH2 0x1A4F DUP2 PUSH2 0x1A34 JUMP JUMPDEST DUP3 MSTORE POP POP JUMP JUMPDEST PUSH1 0x0 PUSH1 0x20 DUP3 ADD SWAP1 POP PUSH2 0x1A6A PUSH1 0x0 DUP4 ADD DUP5 PUSH2 0x1A46 JUMP JUMPDEST SWAP3 SWAP2 POP POP JUMP JUMPDEST PUSH1 0x0 DUP1 PUSH1 0x0 DUP1 PUSH1 0x0 PUSH1 0xA0 DUP7 DUP9 SUB SLT ISZERO PUSH2 0x1A8C JUMPI PUSH2 0x1A8B PUSH2 0x17B8 JUMP JUMPDEST JUMPDEST PUSH1 0x0 PUSH2 0x1A9A DUP9 DUP3 DUP10 ADD PUSH2 0x189B JUMP JUMPDEST SWAP6 POP POP PUSH1 0x20 PUSH2 0x1AAB DUP9 DUP3 DUP10 ADD PUSH2 0x18C7 JUMP JUMPDEST SWAP5 POP POP PUSH1 0x40 PUSH2 0x1ABC DUP9 DUP3 DUP10 ADD PUSH2 0x1806 JUMP JUMPDEST SWAP4 POP POP PUSH1 0x60 PUSH2 0x1ACD DUP9 DUP3 DUP10 ADD PUSH2 0x189B JUMP JUMPDEST SWAP3 POP POP PUSH1 0x80 PUSH2 0x1ADE DUP9 DUP3 DUP10 ADD PUSH2 0x18C7 JUMP JUMPDEST SWAP2 POP POP SWAP3 SWAP6 POP SWAP3 SWAP6 SWAP1 SWAP4 POP JUMP JUMPDEST PUSH1 0x0 DUP1 PUSH1 0x0 DUP1 PUSH1 0x0 PUSH1 0xA0 DUP7 DUP9 SUB SLT ISZERO PUSH2 0x1B07 JUMPI PUSH2 0x1B06 PUSH2 0x17B8 JUMP JUMPDEST JUMPDEST PUSH1 0x0 PUSH2 0x1B15 DUP9 DUP3 DUP10 ADD PUSH2 0x18C7 JUMP JUMPDEST SWAP6 POP POP PUSH1 0x20 PUSH2 0x1B26 DUP9 DUP3 DUP10 ADD PUSH2 0x1806 JUMP JUMPDEST SWAP5 POP POP PUSH1 0x40 PUSH2 0x1B37 DUP9 DUP3 DUP10 ADD PUSH2 0x1806 JUMP JUMPDEST SWAP4 POP POP PUSH1 0x60 PUSH2 0x1B48 DUP9 DUP3 DUP10 ADD PUSH2 0x189B JUMP JUMPDEST SWAP3 POP POP PUSH1 0x80 PUSH2 0x1B59 DUP9 DUP3 DUP10 ADD PUSH2 0x18C7 JUMP JUMPDEST SWAP2 POP POP SWAP3 SWAP6 POP SWAP3 SWAP6 SWAP1 SWAP4 POP JUMP JUMPDEST PUSH1 0x0 DUP1 PUSH1 0x0 DUP1 PUSH1 0x0 DUP1 PUSH1 0xC0 DUP8 DUP10 SUB SLT ISZERO PUSH2 0x1B83 JUMPI PUSH2 0x1B82 PUSH2 0x17B8 JUMP JUMPDEST JUMPDEST PUSH1 0x0 PUSH2 0x1B91 DUP10 DUP3 DUP11 ADD PUSH2 0x189B JUMP JUMPDEST SWAP7 POP POP PUSH1 0x20 PUSH2 0x1BA2 DUP10 DUP3 DUP11 ADD PUSH2 0x18C7 JUMP JUMPDEST SWAP6 POP POP PUSH1 0x40 PUSH2 0x1BB3 DUP10 DUP3 DUP11 ADD PUSH2 0x1806 JUMP JUMPDEST SWAP5 POP POP PUSH1 0x60 PUSH2 0x1BC4 DUP10 DUP3 DUP11 ADD PUSH2 0x1806 JUMP JUMPDEST SWAP4 POP POP PUSH1 0x80 PUSH2 0x1BD5 DUP10 DUP3 DUP11 ADD PUSH2 0x189B JUMP JUMPDEST SWAP3 POP POP PUSH1 0xA0 PUSH2 0x1BE6 DUP10 DUP3 DUP11 ADD PUSH2 0x18C7 JUMP JUMPDEST SWAP2 POP POP SWAP3 SWAP6 POP SWAP3 SWAP6 POP SWAP3 SWAP6 JUMP JUMPDEST PUSH1 0x0 DUP3 DUP3 MSTORE PUSH1 0x20 DUP3 ADD SWAP1 POP SWAP3 SWAP2 POP POP JUMP JUMPDEST PUSH32 0x4F6E6C792074686520686569722063616E20636C61696D20746865206163636F PUSH1 0x0 DUP3 ADD MSTORE PUSH32 0x756E742E00000000000000000000000000000000000000000000000000000000 PUSH1 0x20 DUP3 ADD MSTORE POP JUMP JUMPDEST PUSH1 0x0 PUSH2 0x1C60 PUSH1 0x24 DUP4 PUSH2 0x1BF3 JUMP JUMPDEST SWAP2 POP PUSH2 0x1C6B DUP3 PUSH2 0x1C04 JUMP JUMPDEST PUSH1 0x40 DUP3 ADD SWAP1 POP SWAP2 SWAP1 POP JUMP JUMPDEST PUSH1 0x0 PUSH1 0x20 DUP3 ADD SWAP1 POP DUP2 DUP2 SUB PUSH1 0x0 DUP4 ADD MSTORE PUSH2 0x1C8F DUP2 PUSH2 0x1C53 JUMP JUMPDEST SWAP1 POP SWAP2 SWAP1 POP JUMP JUMPDEST PUSH32 0x436C61696D2070726F6365737320686173206E6F74206265656E20696E697469 PUSH1 0x0 DUP3 ADD MSTORE PUSH32 0x617465642E000000000000000000000000000000000000000000000000000000 PUSH1 0x20 DUP3 ADD MSTORE POP JUMP JUMPDEST PUSH1 0x0 PUSH2 0x1CF2 PUSH1 0x25 DUP4 PUSH2 0x1BF3 JUMP JUMPDEST SWAP2 POP PUSH2 0x1CFD DUP3 PUSH2 0x1C96 JUMP JUMPDEST PUSH1 0x40 DUP3 ADD SWAP1 POP SWAP2 SWAP1 POP JUMP JUMPDEST PUSH1 0x0 PUSH1 0x20 DUP3 ADD SWAP1 POP DUP2 DUP2 SUB PUSH1 0x0 DUP4 ADD MSTORE PUSH2 0x1D21 DUP2 PUSH2 0x1CE5 JUMP JUMPDEST SWAP1 POP SWAP2 SWAP1 POP JUMP JUMPDEST PUSH32 0x4E487B7100000000000000000000000000000000000000000000000000000000 PUSH1 0x0 MSTORE PUSH1 0x11 PUSH1 0x4 MSTORE PUSH1 0x24 PUSH1 0x0 REVERT JUMPDEST PUSH1 0x0 PUSH2 0x1D62 DUP3 PUSH2 0x1784 JUMP JUMPDEST SWAP2 POP PUSH2 0x1D6D DUP4 PUSH2 0x1784 JUMP JUMPDEST SWAP3 POP DUP3 DUP3 MUL PUSH2 0x1D7B DUP2 PUSH2 0x1784 JUMP JUMPDEST SWAP2 POP DUP3 DUP3 DIV DUP5 EQ DUP4 ISZERO OR PUSH2 0x1D92 JUMPI PUSH2 0x1D91 PUSH2 0x1D28 JUMP JUMPDEST JUMPDEST POP SWAP3 SWAP2 POP POP JUMP JUMPDEST PUSH1 0x0 PUSH2 0x1DA4 DUP3 PUSH2 0x1784 JUMP JUMPDEST SWAP2 POP PUSH2 0x1DAF DUP4 PUSH2 0x1784 JUMP JUMPDEST SWAP3 POP DUP3 DUP3 ADD SWAP1 POP DUP1 DUP3 GT ISZERO PUSH2 0x1DC7 JUMPI PUSH2 0x1DC6 PUSH2 0x1D28 JUMP JUMPDEST JUMPDEST SWAP3 SWAP2 POP POP JUMP JUMPDEST PUSH32 0x436C61696D2064656C617920686173206E6F7420657870697265642E00000000 PUSH1 0x0 DUP3 ADD MSTORE POP JUMP JUMPDEST PUSH1 0x0 PUSH2 0x1E03 PUSH1 0x1C DUP4 PUSH2 0x1BF3 JUMP JUMPDEST SWAP2 POP PUSH2 0x1E0E DUP3 PUSH2 0x1DCD JUMP JUMPDEST PUSH1 0x20 DUP3 ADD SWAP1 POP SWAP2 SWAP1 POP JUMP JUMPDEST PUSH1 0x0 PUSH1 0x20 DUP3 ADD SWAP1 POP DUP2 DUP2 SUB PUSH1 0x0 DUP4 ADD MSTORE PUSH2 0x1E32 DUP2 PUSH2 0x1DF6 JUMP JUMPDEST SWAP1 POP SWAP2 SWAP1 POP JUMP JUMPDEST PUSH32 0x4F6E6C7920746865206F776E65722063616E207365742074686520686569722E PUSH1 0x0 DUP3 ADD MSTORE POP JUMP JUMPDEST PUSH1 0x0 PUSH2 0x1E6F PUSH1 0x20 DUP4 PUSH2 0x1BF3 JUMP JUMPDEST SWAP2 POP PUSH2 0x1E7A DUP3 PUSH2 0x1E39 JUMP JUMPDEST PUSH1 0x20 DUP3 ADD SWAP1 POP SWAP2 SWAP1 POP JUMP JUMPDEST PUSH1 0x0 PUSH1 0x20 DUP3 ADD SWAP1 POP DUP2 DUP2 SUB PUSH1 0x0 DUP4 ADD MSTORE PUSH2 0x1E9E DUP2 PUSH2 0x1E62 JUMP JUMPDEST SWAP1 POP SWAP2 SWAP1 POP JUMP JUMPDEST PUSH32 0x5468652066756E6374696F6E20697320616C726561647920696E206578656375 PUSH1 0x0 DUP3 ADD MSTORE PUSH32 0x74696F6E2E000000000000000000000000000000000000000000000000000000 PUSH1 0x20 DUP3 ADD MSTORE POP JUMP JUMPDEST PUSH1 0x0 PUSH2 0x1F01 PUSH1 0x25 DUP4 PUSH2 0x1BF3 JUMP JUMPDEST SWAP2 POP PUSH2 0x1F0C DUP3 PUSH2 0x1EA5 JUMP JUMPDEST PUSH1 0x40 DUP3 ADD SWAP1 POP SWAP2 SWAP1 POP JUMP JUMPDEST PUSH1 0x0 PUSH1 0x20 DUP3 ADD SWAP1 POP DUP2 DUP2 SUB PUSH1 0x0 DUP4 ADD MSTORE PUSH2 0x1F30 DUP2 PUSH2 0x1EF4 JUMP JUMPDEST SWAP1 POP SWAP2 SWAP1 POP JUMP JUMPDEST PUSH32 0x4F6E6C7920746865206F776E65722063616E2077697468647261772066756E64 PUSH1 0x0 DUP3 ADD MSTORE PUSH32 0x732E000000000000000000000000000000000000000000000000000000000000 PUSH1 0x20 DUP3 ADD MSTORE POP JUMP JUMPDEST PUSH1 0x0 PUSH2 0x1F93 PUSH1 0x22 DUP4 PUSH2 0x1BF3 JUMP JUMPDEST SWAP2 POP PUSH2 0x1F9E DUP3 PUSH2 0x1F37 JUMP JUMPDEST PUSH1 0x40 DUP3 ADD SWAP1 POP SWAP2 SWAP1 POP JUMP JUMPDEST PUSH1 0x0 PUSH1 0x20 DUP3 ADD SWAP1 POP DUP2 DUP2 SUB PUSH1 0x0 DUP4 ADD MSTORE PUSH2 0x1FC2 DUP2 PUSH2 0x1F86 JUMP JUMPDEST SWAP1 POP SWAP2 SWAP1 POP JUMP JUMPDEST PUSH32 0x546865726520617265206E6F2066756E647320746F2077697468647261772E00 PUSH1 0x0 DUP3 ADD MSTORE POP JUMP JUMPDEST PUSH1 0x0 PUSH2 0x1FFF PUSH1 0x1F DUP4 PUSH2 0x1BF3 JUMP JUMPDEST SWAP2 POP PUSH2 0x200A DUP3 PUSH2 0x1FC9 JUMP JUMPDEST PUSH1 0x20 DUP3 ADD SWAP1 POP SWAP2 SWAP1 POP JUMP JUMPDEST PUSH1 0x0 PUSH1 0x20 DUP3 ADD SWAP1 POP DUP2 DUP2 SUB PUSH1 0x0 DUP4 ADD MSTORE PUSH2 0x202E DUP2 PUSH2 0x1FF2 JUMP JUMPDEST SWAP1 POP SWAP2 SWAP1 POP JUMP JUMPDEST PUSH32 0x496E73756666696369656E742066756E64732E00000000000000000000000000 PUSH1 0x0 DUP3 ADD MSTORE POP JUMP JUMPDEST PUSH1 0x0 PUSH2 0x206B PUSH1 0x13 DUP4 PUSH2 0x1BF3 JUMP JUMPDEST SWAP2 POP PUSH2 0x2076 DUP3 PUSH2 0x2035 JUMP JUMPDEST PUSH1 0x20 DUP3 ADD SWAP1 POP SWAP2 SWAP1 POP JUMP JUMPDEST PUSH1 0x0 PUSH1 0x20 DUP3 ADD SWAP1 POP DUP2 DUP2 SUB PUSH1 0x0 DUP4 ADD MSTORE PUSH2 0x209A DUP2 PUSH2 0x205E JUMP JUMPDEST SWAP1 POP SWAP2 SWAP1 POP JUMP JUMPDEST PUSH32 0x4F6E6C7920746865206F776E65722063616E2073746F70206120636C61696D2E PUSH1 0x0 DUP3 ADD MSTORE POP JUMP JUMPDEST PUSH1 0x0 PUSH2 0x20D7 PUSH1 0x20 DUP4 PUSH2 0x1BF3 JUMP JUMPDEST SWAP2 POP PUSH2 0x20E2 DUP3 PUSH2 0x20A1 JUMP JUMPDEST PUSH1 0x20 DUP3 ADD SWAP1 POP SWAP2 SWAP1 POP JUMP JUMPDEST PUSH1 0x0 PUSH1 0x20 DUP3 ADD SWAP1 POP DUP2 DUP2 SUB PUSH1 0x0 DUP4 ADD MSTORE PUSH2 0x2106 DUP2 PUSH2 0x20CA JUMP JUMPDEST SWAP1 POP SWAP2 SWAP1 POP JUMP JUMPDEST PUSH32 0x5468657265206973206E6F2061637469766520636C61696D20746F2073746F70 PUSH1 0x0 DUP3 ADD MSTORE PUSH32 0x2E00000000000000000000000000000000000000000000000000000000000000 PUSH1 0x20 DUP3 ADD MSTORE POP JUMP JUMPDEST PUSH1 0x0 PUSH2 0x2169 PUSH1 0x21 DUP4 PUSH2 0x1BF3 JUMP JUMPDEST SWAP2 POP PUSH2 0x2174 DUP3 PUSH2 0x210D JUMP JUMPDEST PUSH1 0x40 DUP3 ADD SWAP1 POP SWAP2 SWAP1 POP JUMP JUMPDEST PUSH1 0x0 PUSH1 0x20 DUP3 ADD SWAP1 POP DUP2 DUP2 SUB PUSH1 0x0 DUP4 ADD MSTORE PUSH2 0x2198 DUP2 PUSH2 0x215C JUMP JUMPDEST SWAP1 POP SWAP2 SWAP1 POP JUMP JUMPDEST PUSH32 0x4F6E6C7920746865206F776E65722063616E207472616E736665722066756E64 PUSH1 0x0 DUP3 ADD MSTORE PUSH32 0x732E000000000000000000000000000000000000000000000000000000000000 PUSH1 0x20 DUP3 ADD MSTORE POP JUMP JUMPDEST PUSH1 0x0 PUSH2 0x21FB PUSH1 0x22 DUP4 PUSH2 0x1BF3 JUMP JUMPDEST SWAP2 POP PUSH2 0x2206 DUP3 PUSH2 0x219F JUMP JUMPDEST PUSH1 0x40 DUP3 ADD SWAP1 POP SWAP2 SWAP1 POP JUMP JUMPDEST PUSH1 0x0 PUSH1 0x20 DUP3 ADD SWAP1 POP DUP2 DUP2 SUB PUSH1 0x0 DUP4 ADD MSTORE PUSH2 0x222A DUP2 PUSH2 0x21EE JUMP JUMPDEST SWAP1 POP SWAP2 SWAP1 POP JUMP JUMPDEST PUSH1 0x0 DUP2 MLOAD SWAP1 POP PUSH2 0x2240 DUP2 PUSH2 0x18B0 JUMP JUMPDEST SWAP3 SWAP2 POP POP JUMP JUMPDEST PUSH1 0x0 PUSH1 0x20 DUP3 DUP5 SUB SLT ISZERO PUSH2 0x225C JUMPI PUSH2 0x225B PUSH2 0x17B8 JUMP JUMPDEST JUMPDEST PUSH1 0x0 PUSH2 0x226A DUP5 DUP3 DUP6 ADD PUSH2 0x2231 JUMP JUMPDEST SWAP2 POP POP SWAP3 SWAP2 POP POP JUMP JUMPDEST PUSH1 0x0 PUSH2 0x227E DUP3 PUSH2 0x1A22 JUMP JUMPDEST SWAP1 POP SWAP2 SWAP1 POP JUMP JUMPDEST PUSH2 0x228E DUP2 PUSH2 0x2273 JUMP JUMPDEST DUP3 MSTORE POP POP JUMP JUMPDEST PUSH1 0x0 PUSH1 0x40 DUP3 ADD SWAP1 POP PUSH2 0x22A9 PUSH1 0x0 DUP4 ADD DUP6 PUSH2 0x2285 JUMP JUMPDEST PUSH2 0x22B6 PUSH1 0x20 DUP4 ADD DUP5 PUSH2 0x178E JUMP JUMPDEST SWAP4 SWAP3 POP POP POP JUMP JUMPDEST PUSH2 0x22C6 DUP2 PUSH2 0x19C0 JUMP JUMPDEST DUP2 EQ PUSH2 0x22D1 JUMPI PUSH1 0x0 DUP1 REVERT JUMPDEST POP JUMP JUMPDEST PUSH1 0x0 DUP2 MLOAD SWAP1 POP PUSH2 0x22E3 DUP2 PUSH2 0x22BD JUMP JUMPDEST SWAP3 SWAP2 POP POP JUMP JUMPDEST PUSH1 0x0 PUSH1 0x20 DUP3 DUP5 SUB SLT ISZERO PUSH2 0x22FF JUMPI PUSH2 0x22FE PUSH2 0x17B8 JUMP JUMPDEST JUMPDEST PUSH1 0x0 PUSH2 0x230D DUP5 DUP3 DUP6 ADD PUSH2 0x22D4 JUMP JUMPDEST SWAP2 POP POP SWAP3 SWAP2 POP POP JUMP JUMPDEST PUSH32 0x4F6E6C792074686520686569722063616E20696E697469617465207468652063 PUSH1 0x0 DUP3 ADD MSTORE PUSH32 0x6C61696D2070726F636573732E00000000000000000000000000000000000000 PUSH1 0x20 DUP3 ADD MSTORE POP JUMP JUMPDEST PUSH1 0x0 PUSH2 0x2372 PUSH1 0x2D DUP4 PUSH2 0x1BF3 JUMP JUMPDEST SWAP2 POP PUSH2 0x237D DUP3 PUSH2 0x2316 JUMP JUMPDEST PUSH1 0x40 DUP3 ADD SWAP1 POP SWAP2 SWAP1 POP JUMP JUMPDEST PUSH1 0x0 PUSH1 0x20 DUP3 ADD SWAP1 POP DUP2 DUP2 SUB PUSH1 0x0 DUP4 ADD MSTORE PUSH2 0x23A1 DUP2 PUSH2 0x2365 JUMP JUMPDEST SWAP1 POP SWAP2 SWAP1 POP JUMP JUMPDEST PUSH32 0x436C61696D2070726F6365737320697320616C726561647920696E2070726F67 PUSH1 0x0 DUP3 ADD MSTORE PUSH32 0x726573732E000000000000000000000000000000000000000000000000000000 PUSH1 0x20 DUP3 ADD MSTORE POP JUMP JUMPDEST PUSH1 0x0 PUSH2 0x2404 PUSH1 0x25 DUP4 PUSH2 0x1BF3 JUMP JUMPDEST SWAP2 POP PUSH2 0x240F DUP3 PUSH2 0x23A8 JUMP JUMPDEST PUSH1 0x40 DUP3 ADD SWAP1 POP SWAP2 SWAP1 POP JUMP JUMPDEST PUSH1 0x0 PUSH1 0x20 DUP3 ADD SWAP1 POP DUP2 DUP2 SUB PUSH1 0x0 DUP4 ADD MSTORE PUSH2 0x2433 DUP2 PUSH2 0x23F7 JUMP JUMPDEST SWAP1 POP SWAP2 SWAP1 POP JUMP JUMPDEST PUSH32 0x4E487B7100000000000000000000000000000000000000000000000000000000 PUSH1 0x0 MSTORE PUSH1 0x12 PUSH1 0x4 MSTORE PUSH1 0x24 PUSH1 0x0 REVERT JUMPDEST PUSH1 0x0 PUSH2 0x2474 DUP3 PUSH2 0x1784 JUMP JUMPDEST SWAP2 POP PUSH2 0x247F DUP4 PUSH2 0x1784 JUMP JUMPDEST SWAP3 POP DUP3 PUSH2 0x248F JUMPI PUSH2 0x248E PUSH2 0x243A JUMP JUMPDEST JUMPDEST DUP3 DUP3 DIV SWAP1 POP SWAP3 SWAP2 POP POP JUMP JUMPDEST PUSH1 0x0 PUSH2 0x24A5 DUP3 PUSH2 0x1784 JUMP JUMPDEST SWAP2 POP PUSH2 0x24B0 DUP4 PUSH2 0x1784 JUMP JUMPDEST SWAP3 POP DUP3 DUP3 SUB SWAP1 POP DUP2 DUP2 GT ISZERO PUSH2 0x24C8 JUMPI PUSH2 0x24C7 PUSH2 0x1D28 JUMP JUMPDEST JUMPDEST SWAP3 SWAP2 POP POP JUMP INVALID LOG2 PUSH5 0x6970667358 0x22 SLT KECCAK256 XOR SSTORE NUMBER 0xA5 DIFFICULTY PUSH29 0x2096D03DB695876A5B7ACF4647BB6BDBAAC3A85A783C0CC260B464736F PUSH13 0x63430008110033000000000000 "
		},
		"gasEstimates": {
			"creation": {
				"codeDepositCost": "1895200",
				"executionCost": "infinite",
				"totalCost": "infinite"
			},
			"external": {
				"ERC20()": "infinite",
				"ERC20Token()": "2537",
				"claim(address)": "infinite",
				"claimDelay()": "2453",
				"claimInProgress()": "2631",
				"claimInitiatedAt()": "2496",
				"deployer()": "2622",
				"heir()": "2581",
				"initiateClaim(address)": "51350",
				"mutex()": "2544",
				"owner()": "2559",
				"returnDeployer()": "2590",
				"returnHeir()": "2612",
				"returnOwner()": "2611",
				"setHeir(address,uint256,address)": "infinite",
				"stopClaim(address)": "29191",
				"transferERC20Funds(address,uint256,address,address,address,uint256)": "infinite",
				"transferFunds(address,uint256,address,address,uint256)": "infinite",
				"withdraw(uint256,address,address,uint256)": "infinite",
				"withdrawERC20(uint256,address,address,address,uint256)": "infinite"
			}
		},
		"methodIdentifiers": {
			"ERC20()": "cc4aa204",
			"ERC20Token()": "7a80760e",
			"claim(address)": "1e83409a",
			"claimDelay()": "1c8ec299",
			"claimInProgress()": "faedd18e",
			"claimInitiatedAt()": "c7983e20",
			"deployer()": "d5f39488",
			"heir()": "91f2ebb8",
			"initiateClaim(address)": "f2b5eea7",
			"mutex()": "a5720770",
			"owner()": "8da5cb5b",
			"returnDeployer()": "362bb2ac",
			"returnHeir()": "56af4f75",
			"returnOwner()": "94a927fe",
			"setHeir(address,uint256,address)": "6e1a7373",
			"stopClaim(address)": "b7d1d98e",
			"transferERC20Funds(address,uint256,address,address,address,uint256)": "ea4c58ff",
			"transferFunds(address,uint256,address,address,uint256)": "dce8bcea",
			"withdraw(uint256,address,address,uint256)": "a318c1a4",
			"withdrawERC20(uint256,address,address,address,uint256)": "e572adbd"
		}
	},
	"abi": [
		{
			"inputs": [
				{
					"internalType": "address payable",
					"name": "_owner",
					"type": "address"
				}
			],
			"stateMutability": "nonpayable",
			"type": "constructor"
		},
		{
			"inputs": [],
			"name": "ERC20",
			"outputs": [
				{
					"internalType": "contract IERC20",
					"name": "",
					"type": "address"
				}
			],
			"stateMutability": "view",
			"type": "function"
		},
		{
			"inputs": [],
			"name": "ERC20Token",
			"outputs": [
				{
					"internalType": "address payable",
					"name": "",
					"type": "address"
				}
			],
			"stateMutability": "view",
			"type": "function"
		},
		{
			"inputs": [
				{
					"internalType": "address",
					"name": "_sender",
					"type": "address"
				}
			],
			"name": "claim",
			"outputs": [],
			"stateMutability": "nonpayable",
			"type": "function"
		},
		{
			"inputs": [],
			"name": "claimDelay",
			"outputs": [
				{
					"internalType": "uint256",
					"name": "",
					"type": "uint256"
				}
			],
			"stateMutability": "view",
			"type": "function"
		},
		{
			"inputs": [],
			"name": "claimInProgress",
			"outputs": [
				{
					"internalType": "bool",
					"name": "",
					"type": "bool"
				}
			],
			"stateMutability": "view",
			"type": "function"
		},
		{
			"inputs": [],
			"name": "claimInitiatedAt",
			"outputs": [
				{
					"internalType": "uint256",
					"name": "",
					"type": "uint256"
				}
			],
			"stateMutability": "view",
			"type": "function"
		},
		{
			"inputs": [],
			"name": "deployer",
			"outputs": [
				{
					"internalType": "address",
					"name": "",
					"type": "address"
				}
			],
			"stateMutability": "view",
			"type": "function"
		},
		{
			"inputs": [],
			"name": "heir",
			"outputs": [
				{
					"internalType": "address payable",
					"name": "",
					"type": "address"
				}
			],
			"stateMutability": "view",
			"type": "function"
		},
		{
			"inputs": [
				{
					"internalType": "address",
					"name": "_sender",
					"type": "address"
				}
			],
			"name": "initiateClaim",
			"outputs": [],
			"stateMutability": "nonpayable",
			"type": "function"
		},
		{
			"inputs": [],
			"name": "mutex",
			"outputs": [
				{
					"internalType": "bool",
					"name": "",
					"type": "bool"
				}
			],
			"stateMutability": "view",
			"type": "function"
		},
		{
			"inputs": [],
			"name": "owner",
			"outputs": [
				{
					"internalType": "address payable",
					"name": "",
					"type": "address"
				}
			],
			"stateMutability": "view",
			"type": "function"
		},
		{
			"inputs": [],
			"name": "returnDeployer",
			"outputs": [
				{
					"internalType": "address",
					"name": "",
					"type": "address"
				}
			],
			"stateMutability": "view",
			"type": "function"
		},
		{
			"inputs": [],
			"name": "returnHeir",
			"outputs": [
				{
					"internalType": "address",
					"name": "",
					"type": "address"
				}
			],
			"stateMutability": "view",
			"type": "function"
		},
		{
			"inputs": [],
			"name": "returnOwner",
			"outputs": [
				{
					"internalType": "address",
					"name": "",
					"type": "address"
				}
			],
			"stateMutability": "view",
			"type": "function"
		},
		{
			"inputs": [
				{
					"internalType": "address payable",
					"name": "_heir",
					"type": "address"
				},
				{
					"internalType": "uint256",
					"name": "_claimDelay",
					"type": "uint256"
				},
				{
					"internalType": "address",
					"name": "_sender",
					"type": "address"
				}
			],
			"name": "setHeir",
			"outputs": [],
			"stateMutability": "nonpayable",
			"type": "function"
		},
		{
			"inputs": [
				{
					"internalType": "address",
					"name": "_sender",
					"type": "address"
				}
			],
			"name": "stopClaim",
			"outputs": [],
			"stateMutability": "nonpayable",
			"type": "function"
		},
		{
			"inputs": [
				{
					"internalType": "address payable",
					"name": "_recipient",
					"type": "address"
				},
				{
					"internalType": "uint256",
					"name": "_amount",
					"type": "uint256"
				},
				{
					"internalType": "address",
					"name": "_ERC20Address",
					"type": "address"
				},
				{
					"internalType": "address",
					"name": "_sender",
					"type": "address"
				},
				{
					"internalType": "address payable",
					"name": "_feeAddress",
					"type": "address"
				},
				{
					"internalType": "uint256",
					"name": "_transferFee",
					"type": "uint256"
				}
			],
			"name": "transferERC20Funds",
			"outputs": [],
			"stateMutability": "payable",
			"type": "function"
		},
		{
			"inputs": [
				{
					"internalType": "address payable",
					"name": "_recipient",
					"type": "address"
				},
				{
					"internalType": "uint256",
					"name": "_amount",
					"type": "uint256"
				},
				{
					"internalType": "address",
					"name": "_sender",
					"type": "address"
				},
				{
					"internalType": "address payable",
					"name": "_feeAddress",
					"type": "address"
				},
				{
					"internalType": "uint256",
					"name": "_transferFee",
					"type": "uint256"
				}
			],
			"name": "transferFunds",
			"outputs": [],
			"stateMutability": "payable",
			"type": "function"
		},
		{
			"inputs": [
				{
					"internalType": "uint256",
					"name": "_amount",
					"type": "uint256"
				},
				{
					"internalType": "address",
					"name": "_sender",
					"type": "address"
				},
				{
					"internalType": "address payable",
					"name": "_feeAddress",
					"type": "address"
				},
				{
					"internalType": "uint256",
					"name": "_transferFee",
					"type": "uint256"
				}
			],
			"name": "withdraw",
			"outputs": [],
			"stateMutability": "payable",
			"type": "function"
		},
		{
			"inputs": [
				{
					"internalType": "uint256",
					"name": "_amount",
					"type": "uint256"
				},
				{
					"internalType": "address",
					"name": "_ERC20Address",
					"type": "address"
				},
				{
					"internalType": "address",
					"name": "_sender",
					"type": "address"
				},
				{
					"internalType": "address payable",
					"name": "_feeAddress",
					"type": "address"
				},
				{
					"internalType": "uint256",
					"name": "_transferFee",
					"type": "uint256"
				}
			],
			"name": "withdrawERC20",
			"outputs": [],
			"stateMutability": "payable",
			"type": "function"
		}
	]
}