{
	"data": {
		"bytecode": {
			"linkReferences": {},
			"object": "60806040523480156200001157600080fd5b506040516200163938038062001639833981810160405281019062000037919062000129565b80600160006101000a81548173ffffffffffffffffffffffffffffffffffffffff021916908373ffffffffffffffffffffffffffffffffffffffff160217905550336000806101000a81548173ffffffffffffffffffffffffffffffffffffffff021916908373ffffffffffffffffffffffffffffffffffffffff160217905550506200015b565b600080fd5b600073ffffffffffffffffffffffffffffffffffffffff82169050919050565b6000620000f182620000c4565b9050919050565b6200010381620000e4565b81146200010f57600080fd5b50565b6000815190506200012381620000f8565b92915050565b600060208284031215620001425762000141620000bf565b5b6000620001528482850162000112565b91505092915050565b6114ce806200016b6000396000f3fe6080604052600436106100e75760003560e01c80638da5cb5b1161008a578063c7983e2011610059578063c7983e20146102a1578063d5f39488146102cc578063f2b5eea7146102f7578063faedd18e14610320576100e7565b80638da5cb5b146101f757806391f2ebb81461022257806394a927fe1461024d578063b7d1d98e14610278576100e7565b80631e83409a116100c65780631e83409a1461014f578063362bb2ac1461017857806356af4f75146101a35780636e1a7373146101ce576100e7565b8062f714ce146100ec57806319e64f58146101085780631c8ec29914610124575b600080fd5b61010660048036038101906101019190610c16565b61034b565b005b610122600480360381019061011d9190610c94565b6104ce565b005b34801561013057600080fd5b506101396105ed565b6040516101469190610cf6565b60405180910390f35b34801561015b57600080fd5b5061017660048036038101906101719190610d11565b6105f3565b005b34801561018457600080fd5b5061018d610798565b60405161019a9190610d4d565b60405180910390f35b3480156101af57600080fd5b506101b86107c1565b6040516101c59190610d4d565b60405180910390f35b3480156101da57600080fd5b506101f560048036038101906101f09190610c94565b6107eb565b005b34801561020357600080fd5b5061020c6108c8565b6040516102199190610d77565b60405180910390f35b34801561022e57600080fd5b506102376108ee565b6040516102449190610d77565b60405180910390f35b34801561025957600080fd5b50610262610914565b60405161026f9190610d4d565b60405180910390f35b34801561028457600080fd5b5061029f600480360381019061029a9190610d11565b61093e565b005b3480156102ad57600080fd5b506102b6610a3b565b6040516102c39190610cf6565b60405180910390f35b3480156102d857600080fd5b506102e1610a41565b6040516102ee9190610d4d565b60405180910390f35b34801561030357600080fd5b5061031e60048036038101906103199190610d11565b610a65565b005b34801561032c57600080fd5b50610335610b6a565b6040516103429190610dad565b60405180910390f35b600160009054906101000a900473ffffffffffffffffffffffffffffffffffffffff1673ffffffffffffffffffffffffffffffffffffffff168173ffffffffffffffffffffffffffffffffffffffff16146103db576040517f08c379a00000000000000000000000000000000000000000000000000000000081526004016103d290610e4b565b60405180910390fd5b6000471161041e576040517f08c379a000000000000000000000000000000000000000000000000000000000815260040161041590610eb7565b60405180910390fd5b47821115610461576040517f08c379a000000000000000000000000000000000000000000000000000000000815260040161045890610f23565b60405180910390fd5b600160009054906101000a900473ffffffffffffffffffffffffffffffffffffffff1673ffffffffffffffffffffffffffffffffffffffff166108fc839081150290604051600060405180830381858888f193505050501580156104c9573d6000803e3d6000fd5b505050565b600160009054906101000a900473ffffffffffffffffffffffffffffffffffffffff1673ffffffffffffffffffffffffffffffffffffffff168173ffffffffffffffffffffffffffffffffffffffff161461055e576040517f08c379a000000000000000000000000000000000000000000000000000000000815260040161055590610fb5565b60405180910390fd5b478211156105a1576040517f08c379a000000000000000000000000000000000000000000000000000000000815260040161059890610f23565b60405180910390fd5b8273ffffffffffffffffffffffffffffffffffffffff166108fc839081150290604051600060405180830381858888f193505050501580156105e7573d6000803e3d6000fd5b50505050565b60045481565b8073ffffffffffffffffffffffffffffffffffffffff16600260009054906101000a900473ffffffffffffffffffffffffffffffffffffffff1673ffffffffffffffffffffffffffffffffffffffff1614610683576040517f08c379a000000000000000000000000000000000000000000000000000000000815260040161067a90611047565b60405180910390fd5b600260149054906101000a900460ff166106d2576040517f08c379a00000000000000000000000000000000000000000000000000000000081526004016106c9906110d9565b60405180910390fd5b620151806004546106e39190611128565b6003546106f0919061116a565b421015610732576040517f08c379a0000000000000000000000000000000000000000000000000000000008152600401610729906111ea565b60405180910390fd5b600260009054906101000a900473ffffffffffffffffffffffffffffffffffffffff16600160006101000a81548173ffffffffffffffffffffffffffffffffffffffff021916908373ffffffffffffffffffffffffffffffffffffffff16021790555050565b60008060009054906101000a900473ffffffffffffffffffffffffffffffffffffffff16905090565b6000600260009054906101000a900473ffffffffffffffffffffffffffffffffffffffff16905090565b8073ffffffffffffffffffffffffffffffffffffffff16600160009054906101000a900473ffffffffffffffffffffffffffffffffffffffff1673ffffffffffffffffffffffffffffffffffffffff161461087b576040517f08c379a000000000000000000000000000000000000000000000000000000000815260040161087290611256565b60405180910390fd5b82600260006101000a81548173ffffffffffffffffffffffffffffffffffffffff021916908373ffffffffffffffffffffffffffffffffffffffff16021790555081600481905550505050565b600160009054906101000a900473ffffffffffffffffffffffffffffffffffffffff1681565b600260009054906101000a900473ffffffffffffffffffffffffffffffffffffffff1681565b6000600160009054906101000a900473ffffffffffffffffffffffffffffffffffffffff16905090565b600160009054906101000a900473ffffffffffffffffffffffffffffffffffffffff1673ffffffffffffffffffffffffffffffffffffffff168173ffffffffffffffffffffffffffffffffffffffff16146109ce576040517f08c379a00000000000000000000000000000000000000000000000000000000081526004016109c5906112c2565b60405180910390fd5b600260149054906101000a900460ff16610a1d576040517f08c379a0000000000000000000000000000000000000000000000000000000008152600401610a1490611354565b60405180910390fd5b6000600260146101000a81548160ff02191690831515021790555050565b60035481565b60008054906101000a900473ffffffffffffffffffffffffffffffffffffffff1681565b8073ffffffffffffffffffffffffffffffffffffffff16600260009054906101000a900473ffffffffffffffffffffffffffffffffffffffff1673ffffffffffffffffffffffffffffffffffffffff1614610af5576040517f08c379a0000000000000000000000000000000000000000000000000000000008152600401610aec906113e6565b60405180910390fd5b600260149054906101000a900460ff1615610b45576040517f08c379a0000000000000000000000000000000000000000000000000000000008152600401610b3c90611478565b60405180910390fd5b6001600260146101000a81548160ff0219169083151502179055504260038190555050565b600260149054906101000a900460ff1681565b600080fd5b6000819050919050565b610b9581610b82565b8114610ba057600080fd5b50565b600081359050610bb281610b8c565b92915050565b600073ffffffffffffffffffffffffffffffffffffffff82169050919050565b6000610be382610bb8565b9050919050565b610bf381610bd8565b8114610bfe57600080fd5b50565b600081359050610c1081610bea565b92915050565b60008060408385031215610c2d57610c2c610b7d565b5b6000610c3b85828601610ba3565b9250506020610c4c85828601610c01565b9150509250929050565b6000610c6182610bb8565b9050919050565b610c7181610c56565b8114610c7c57600080fd5b50565b600081359050610c8e81610c68565b92915050565b600080600060608486031215610cad57610cac610b7d565b5b6000610cbb86828701610c7f565b9350506020610ccc86828701610ba3565b9250506040610cdd86828701610c01565b9150509250925092565b610cf081610b82565b82525050565b6000602082019050610d0b6000830184610ce7565b92915050565b600060208284031215610d2757610d26610b7d565b5b6000610d3584828501610c01565b91505092915050565b610d4781610bd8565b82525050565b6000602082019050610d626000830184610d3e565b92915050565b610d7181610c56565b82525050565b6000602082019050610d8c6000830184610d68565b92915050565b60008115159050919050565b610da781610d92565b82525050565b6000602082019050610dc26000830184610d9e565b92915050565b600082825260208201905092915050565b7f4f6e6c7920746865206f776e65722063616e2077697468647261772066756e6460008201527f732e000000000000000000000000000000000000000000000000000000000000602082015250565b6000610e35602283610dc8565b9150610e4082610dd9565b604082019050919050565b60006020820190508181036000830152610e6481610e28565b9050919050565b7f546865726520617265206e6f2066756e647320746f2077697468647261772e00600082015250565b6000610ea1601f83610dc8565b9150610eac82610e6b565b602082019050919050565b60006020820190508181036000830152610ed081610e94565b9050919050565b7f496e73756666696369656e742066756e64732e00000000000000000000000000600082015250565b6000610f0d601383610dc8565b9150610f1882610ed7565b602082019050919050565b60006020820190508181036000830152610f3c81610f00565b9050919050565b7f4f6e6c7920746865206f776e65722063616e207472616e736665722066756e6460008201527f732e000000000000000000000000000000000000000000000000000000000000602082015250565b6000610f9f602283610dc8565b9150610faa82610f43565b604082019050919050565b60006020820190508181036000830152610fce81610f92565b9050919050565b7f4f6e6c792074686520686569722063616e20636c61696d20746865206163636f60008201527f756e742e00000000000000000000000000000000000000000000000000000000602082015250565b6000611031602483610dc8565b915061103c82610fd5565b604082019050919050565b6000602082019050818103600083015261106081611024565b9050919050565b7f436c61696d2070726f6365737320686173206e6f74206265656e20696e69746960008201527f617465642e000000000000000000000000000000000000000000000000000000602082015250565b60006110c3602583610dc8565b91506110ce82611067565b604082019050919050565b600060208201905081810360008301526110f2816110b6565b9050919050565b7f4e487b7100000000000000000000000000000000000000000000000000000000600052601160045260246000fd5b600061113382610b82565b915061113e83610b82565b925082820261114c81610b82565b91508282048414831517611163576111626110f9565b5b5092915050565b600061117582610b82565b915061118083610b82565b9250828201905080821115611198576111976110f9565b5b92915050565b7f436c61696d2064656c617920686173206e6f7420657870697265642e00000000600082015250565b60006111d4601c83610dc8565b91506111df8261119e565b602082019050919050565b60006020820190508181036000830152611203816111c7565b9050919050565b7f4f6e6c7920746865206f776e65722063616e207365742074686520686569722e600082015250565b6000611240602083610dc8565b915061124b8261120a565b602082019050919050565b6000602082019050818103600083015261126f81611233565b9050919050565b7f4f6e6c7920746865206f776e65722063616e2073746f70206120636c61696d2e600082015250565b60006112ac602083610dc8565b91506112b782611276565b602082019050919050565b600060208201905081810360008301526112db8161129f565b9050919050565b7f5468657265206973206e6f2061637469766520636c61696d20746f2073746f7060008201527f2e00000000000000000000000000000000000000000000000000000000000000602082015250565b600061133e602183610dc8565b9150611349826112e2565b604082019050919050565b6000602082019050818103600083015261136d81611331565b9050919050565b7f4f6e6c792074686520686569722063616e20696e69746961746520746865206360008201527f6c61696d2070726f636573732e00000000000000000000000000000000000000602082015250565b60006113d0602d83610dc8565b91506113db82611374565b604082019050919050565b600060208201905081810360008301526113ff816113c3565b9050919050565b7f436c61696d2070726f6365737320697320616c726561647920696e2070726f6760008201527f726573732e000000000000000000000000000000000000000000000000000000602082015250565b6000611462602583610dc8565b915061146d82611406565b604082019050919050565b6000602082019050818103600083015261149181611455565b905091905056fea2646970667358221220493442ae5dc76e8bd7585058719dc4c41cd2762355b1f773fca4b6662282bb8664736f6c63430008110033",
			"opcodes": "PUSH1 0x80 PUSH1 0x40 MSTORE CALLVALUE DUP1 ISZERO PUSH3 0x11 JUMPI PUSH1 0x0 DUP1 REVERT JUMPDEST POP PUSH1 0x40 MLOAD PUSH3 0x1639 CODESIZE SUB DUP1 PUSH3 0x1639 DUP4 CODECOPY DUP2 DUP2 ADD PUSH1 0x40 MSTORE DUP2 ADD SWAP1 PUSH3 0x37 SWAP2 SWAP1 PUSH3 0x129 JUMP JUMPDEST DUP1 PUSH1 0x1 PUSH1 0x0 PUSH2 0x100 EXP DUP2 SLOAD DUP2 PUSH20 0xFFFFFFFFFFFFFFFFFFFFFFFFFFFFFFFFFFFFFFFF MUL NOT AND SWAP1 DUP4 PUSH20 0xFFFFFFFFFFFFFFFFFFFFFFFFFFFFFFFFFFFFFFFF AND MUL OR SWAP1 SSTORE POP CALLER PUSH1 0x0 DUP1 PUSH2 0x100 EXP DUP2 SLOAD DUP2 PUSH20 0xFFFFFFFFFFFFFFFFFFFFFFFFFFFFFFFFFFFFFFFF MUL NOT AND SWAP1 DUP4 PUSH20 0xFFFFFFFFFFFFFFFFFFFFFFFFFFFFFFFFFFFFFFFF AND MUL OR SWAP1 SSTORE POP POP PUSH3 0x15B JUMP JUMPDEST PUSH1 0x0 DUP1 REVERT JUMPDEST PUSH1 0x0 PUSH20 0xFFFFFFFFFFFFFFFFFFFFFFFFFFFFFFFFFFFFFFFF DUP3 AND SWAP1 POP SWAP2 SWAP1 POP JUMP JUMPDEST PUSH1 0x0 PUSH3 0xF1 DUP3 PUSH3 0xC4 JUMP JUMPDEST SWAP1 POP SWAP2 SWAP1 POP JUMP JUMPDEST PUSH3 0x103 DUP2 PUSH3 0xE4 JUMP JUMPDEST DUP2 EQ PUSH3 0x10F JUMPI PUSH1 0x0 DUP1 REVERT JUMPDEST POP JUMP JUMPDEST PUSH1 0x0 DUP2 MLOAD SWAP1 POP PUSH3 0x123 DUP2 PUSH3 0xF8 JUMP JUMPDEST SWAP3 SWAP2 POP POP JUMP JUMPDEST PUSH1 0x0 PUSH1 0x20 DUP3 DUP5 SUB SLT ISZERO PUSH3 0x142 JUMPI PUSH3 0x141 PUSH3 0xBF JUMP JUMPDEST JUMPDEST PUSH1 0x0 PUSH3 0x152 DUP5 DUP3 DUP6 ADD PUSH3 0x112 JUMP JUMPDEST SWAP2 POP POP SWAP3 SWAP2 POP POP JUMP JUMPDEST PUSH2 0x14CE DUP1 PUSH3 0x16B PUSH1 0x0 CODECOPY PUSH1 0x0 RETURN INVALID PUSH1 0x80 PUSH1 0x40 MSTORE PUSH1 0x4 CALLDATASIZE LT PUSH2 0xE7 JUMPI PUSH1 0x0 CALLDATALOAD PUSH1 0xE0 SHR DUP1 PUSH4 0x8DA5CB5B GT PUSH2 0x8A JUMPI DUP1 PUSH4 0xC7983E20 GT PUSH2 0x59 JUMPI DUP1 PUSH4 0xC7983E20 EQ PUSH2 0x2A1 JUMPI DUP1 PUSH4 0xD5F39488 EQ PUSH2 0x2CC JUMPI DUP1 PUSH4 0xF2B5EEA7 EQ PUSH2 0x2F7 JUMPI DUP1 PUSH4 0xFAEDD18E EQ PUSH2 0x320 JUMPI PUSH2 0xE7 JUMP JUMPDEST DUP1 PUSH4 0x8DA5CB5B EQ PUSH2 0x1F7 JUMPI DUP1 PUSH4 0x91F2EBB8 EQ PUSH2 0x222 JUMPI DUP1 PUSH4 0x94A927FE EQ PUSH2 0x24D JUMPI DUP1 PUSH4 0xB7D1D98E EQ PUSH2 0x278 JUMPI PUSH2 0xE7 JUMP JUMPDEST DUP1 PUSH4 0x1E83409A GT PUSH2 0xC6 JUMPI DUP1 PUSH4 0x1E83409A EQ PUSH2 0x14F JUMPI DUP1 PUSH4 0x362BB2AC EQ PUSH2 0x178 JUMPI DUP1 PUSH4 0x56AF4F75 EQ PUSH2 0x1A3 JUMPI DUP1 PUSH4 0x6E1A7373 EQ PUSH2 0x1CE JUMPI PUSH2 0xE7 JUMP JUMPDEST DUP1 PUSH3 0xF714CE EQ PUSH2 0xEC JUMPI DUP1 PUSH4 0x19E64F58 EQ PUSH2 0x108 JUMPI DUP1 PUSH4 0x1C8EC299 EQ PUSH2 0x124 JUMPI JUMPDEST PUSH1 0x0 DUP1 REVERT JUMPDEST PUSH2 0x106 PUSH1 0x4 DUP1 CALLDATASIZE SUB DUP2 ADD SWAP1 PUSH2 0x101 SWAP2 SWAP1 PUSH2 0xC16 JUMP JUMPDEST PUSH2 0x34B JUMP JUMPDEST STOP JUMPDEST PUSH2 0x122 PUSH1 0x4 DUP1 CALLDATASIZE SUB DUP2 ADD SWAP1 PUSH2 0x11D SWAP2 SWAP1 PUSH2 0xC94 JUMP JUMPDEST PUSH2 0x4CE JUMP JUMPDEST STOP JUMPDEST CALLVALUE DUP1 ISZERO PUSH2 0x130 JUMPI PUSH1 0x0 DUP1 REVERT JUMPDEST POP PUSH2 0x139 PUSH2 0x5ED JUMP JUMPDEST PUSH1 0x40 MLOAD PUSH2 0x146 SWAP2 SWAP1 PUSH2 0xCF6 JUMP JUMPDEST PUSH1 0x40 MLOAD DUP1 SWAP2 SUB SWAP1 RETURN JUMPDEST CALLVALUE DUP1 ISZERO PUSH2 0x15B JUMPI PUSH1 0x0 DUP1 REVERT JUMPDEST POP PUSH2 0x176 PUSH1 0x4 DUP1 CALLDATASIZE SUB DUP2 ADD SWAP1 PUSH2 0x171 SWAP2 SWAP1 PUSH2 0xD11 JUMP JUMPDEST PUSH2 0x5F3 JUMP JUMPDEST STOP JUMPDEST CALLVALUE DUP1 ISZERO PUSH2 0x184 JUMPI PUSH1 0x0 DUP1 REVERT JUMPDEST POP PUSH2 0x18D PUSH2 0x798 JUMP JUMPDEST PUSH1 0x40 MLOAD PUSH2 0x19A SWAP2 SWAP1 PUSH2 0xD4D JUMP JUMPDEST PUSH1 0x40 MLOAD DUP1 SWAP2 SUB SWAP1 RETURN JUMPDEST CALLVALUE DUP1 ISZERO PUSH2 0x1AF JUMPI PUSH1 0x0 DUP1 REVERT JUMPDEST POP PUSH2 0x1B8 PUSH2 0x7C1 JUMP JUMPDEST PUSH1 0x40 MLOAD PUSH2 0x1C5 SWAP2 SWAP1 PUSH2 0xD4D JUMP JUMPDEST PUSH1 0x40 MLOAD DUP1 SWAP2 SUB SWAP1 RETURN JUMPDEST CALLVALUE DUP1 ISZERO PUSH2 0x1DA JUMPI PUSH1 0x0 DUP1 REVERT JUMPDEST POP PUSH2 0x1F5 PUSH1 0x4 DUP1 CALLDATASIZE SUB DUP2 ADD SWAP1 PUSH2 0x1F0 SWAP2 SWAP1 PUSH2 0xC94 JUMP JUMPDEST PUSH2 0x7EB JUMP JUMPDEST STOP JUMPDEST CALLVALUE DUP1 ISZERO PUSH2 0x203 JUMPI PUSH1 0x0 DUP1 REVERT JUMPDEST POP PUSH2 0x20C PUSH2 0x8C8 JUMP JUMPDEST PUSH1 0x40 MLOAD PUSH2 0x219 SWAP2 SWAP1 PUSH2 0xD77 JUMP JUMPDEST PUSH1 0x40 MLOAD DUP1 SWAP2 SUB SWAP1 RETURN JUMPDEST CALLVALUE DUP1 ISZERO PUSH2 0x22E JUMPI PUSH1 0x0 DUP1 REVERT JUMPDEST POP PUSH2 0x237 PUSH2 0x8EE JUMP JUMPDEST PUSH1 0x40 MLOAD PUSH2 0x244 SWAP2 SWAP1 PUSH2 0xD77 JUMP JUMPDEST PUSH1 0x40 MLOAD DUP1 SWAP2 SUB SWAP1 RETURN JUMPDEST CALLVALUE DUP1 ISZERO PUSH2 0x259 JUMPI PUSH1 0x0 DUP1 REVERT JUMPDEST POP PUSH2 0x262 PUSH2 0x914 JUMP JUMPDEST PUSH1 0x40 MLOAD PUSH2 0x26F SWAP2 SWAP1 PUSH2 0xD4D JUMP JUMPDEST PUSH1 0x40 MLOAD DUP1 SWAP2 SUB SWAP1 RETURN JUMPDEST CALLVALUE DUP1 ISZERO PUSH2 0x284 JUMPI PUSH1 0x0 DUP1 REVERT JUMPDEST POP PUSH2 0x29F PUSH1 0x4 DUP1 CALLDATASIZE SUB DUP2 ADD SWAP1 PUSH2 0x29A SWAP2 SWAP1 PUSH2 0xD11 JUMP JUMPDEST PUSH2 0x93E JUMP JUMPDEST STOP JUMPDEST CALLVALUE DUP1 ISZERO PUSH2 0x2AD JUMPI PUSH1 0x0 DUP1 REVERT JUMPDEST POP PUSH2 0x2B6 PUSH2 0xA3B JUMP JUMPDEST PUSH1 0x40 MLOAD PUSH2 0x2C3 SWAP2 SWAP1 PUSH2 0xCF6 JUMP JUMPDEST PUSH1 0x40 MLOAD DUP1 SWAP2 SUB SWAP1 RETURN JUMPDEST CALLVALUE DUP1 ISZERO PUSH2 0x2D8 JUMPI PUSH1 0x0 DUP1 REVERT JUMPDEST POP PUSH2 0x2E1 PUSH2 0xA41 JUMP JUMPDEST PUSH1 0x40 MLOAD PUSH2 0x2EE SWAP2 SWAP1 PUSH2 0xD4D JUMP JUMPDEST PUSH1 0x40 MLOAD DUP1 SWAP2 SUB SWAP1 RETURN JUMPDEST CALLVALUE DUP1 ISZERO PUSH2 0x303 JUMPI PUSH1 0x0 DUP1 REVERT JUMPDEST POP PUSH2 0x31E PUSH1 0x4 DUP1 CALLDATASIZE SUB DUP2 ADD SWAP1 PUSH2 0x319 SWAP2 SWAP1 PUSH2 0xD11 JUMP JUMPDEST PUSH2 0xA65 JUMP JUMPDEST STOP JUMPDEST CALLVALUE DUP1 ISZERO PUSH2 0x32C JUMPI PUSH1 0x0 DUP1 REVERT JUMPDEST POP PUSH2 0x335 PUSH2 0xB6A JUMP JUMPDEST PUSH1 0x40 MLOAD PUSH2 0x342 SWAP2 SWAP1 PUSH2 0xDAD JUMP JUMPDEST PUSH1 0x40 MLOAD DUP1 SWAP2 SUB SWAP1 RETURN JUMPDEST PUSH1 0x1 PUSH1 0x0 SWAP1 SLOAD SWAP1 PUSH2 0x100 EXP SWAP1 DIV PUSH20 0xFFFFFFFFFFFFFFFFFFFFFFFFFFFFFFFFFFFFFFFF AND PUSH20 0xFFFFFFFFFFFFFFFFFFFFFFFFFFFFFFFFFFFFFFFF AND DUP2 PUSH20 0xFFFFFFFFFFFFFFFFFFFFFFFFFFFFFFFFFFFFFFFF AND EQ PUSH2 0x3DB JUMPI PUSH1 0x40 MLOAD PUSH32 0x8C379A000000000000000000000000000000000000000000000000000000000 DUP2 MSTORE PUSH1 0x4 ADD PUSH2 0x3D2 SWAP1 PUSH2 0xE4B JUMP JUMPDEST PUSH1 0x40 MLOAD DUP1 SWAP2 SUB SWAP1 REVERT JUMPDEST PUSH1 0x0 SELFBALANCE GT PUSH2 0x41E JUMPI PUSH1 0x40 MLOAD PUSH32 0x8C379A000000000000000000000000000000000000000000000000000000000 DUP2 MSTORE PUSH1 0x4 ADD PUSH2 0x415 SWAP1 PUSH2 0xEB7 JUMP JUMPDEST PUSH1 0x40 MLOAD DUP1 SWAP2 SUB SWAP1 REVERT JUMPDEST SELFBALANCE DUP3 GT ISZERO PUSH2 0x461 JUMPI PUSH1 0x40 MLOAD PUSH32 0x8C379A000000000000000000000000000000000000000000000000000000000 DUP2 MSTORE PUSH1 0x4 ADD PUSH2 0x458 SWAP1 PUSH2 0xF23 JUMP JUMPDEST PUSH1 0x40 MLOAD DUP1 SWAP2 SUB SWAP1 REVERT JUMPDEST PUSH1 0x1 PUSH1 0x0 SWAP1 SLOAD SWAP1 PUSH2 0x100 EXP SWAP1 DIV PUSH20 0xFFFFFFFFFFFFFFFFFFFFFFFFFFFFFFFFFFFFFFFF AND PUSH20 0xFFFFFFFFFFFFFFFFFFFFFFFFFFFFFFFFFFFFFFFF AND PUSH2 0x8FC DUP4 SWAP1 DUP2 ISZERO MUL SWAP1 PUSH1 0x40 MLOAD PUSH1 0x0 PUSH1 0x40 MLOAD DUP1 DUP4 SUB DUP2 DUP6 DUP9 DUP9 CALL SWAP4 POP POP POP POP ISZERO DUP1 ISZERO PUSH2 0x4C9 JUMPI RETURNDATASIZE PUSH1 0x0 DUP1 RETURNDATACOPY RETURNDATASIZE PUSH1 0x0 REVERT JUMPDEST POP POP POP JUMP JUMPDEST PUSH1 0x1 PUSH1 0x0 SWAP1 SLOAD SWAP1 PUSH2 0x100 EXP SWAP1 DIV PUSH20 0xFFFFFFFFFFFFFFFFFFFFFFFFFFFFFFFFFFFFFFFF AND PUSH20 0xFFFFFFFFFFFFFFFFFFFFFFFFFFFFFFFFFFFFFFFF AND DUP2 PUSH20 0xFFFFFFFFFFFFFFFFFFFFFFFFFFFFFFFFFFFFFFFF AND EQ PUSH2 0x55E JUMPI PUSH1 0x40 MLOAD PUSH32 0x8C379A000000000000000000000000000000000000000000000000000000000 DUP2 MSTORE PUSH1 0x4 ADD PUSH2 0x555 SWAP1 PUSH2 0xFB5 JUMP JUMPDEST PUSH1 0x40 MLOAD DUP1 SWAP2 SUB SWAP1 REVERT JUMPDEST SELFBALANCE DUP3 GT ISZERO PUSH2 0x5A1 JUMPI PUSH1 0x40 MLOAD PUSH32 0x8C379A000000000000000000000000000000000000000000000000000000000 DUP2 MSTORE PUSH1 0x4 ADD PUSH2 0x598 SWAP1 PUSH2 0xF23 JUMP JUMPDEST PUSH1 0x40 MLOAD DUP1 SWAP2 SUB SWAP1 REVERT JUMPDEST DUP3 PUSH20 0xFFFFFFFFFFFFFFFFFFFFFFFFFFFFFFFFFFFFFFFF AND PUSH2 0x8FC DUP4 SWAP1 DUP2 ISZERO MUL SWAP1 PUSH1 0x40 MLOAD PUSH1 0x0 PUSH1 0x40 MLOAD DUP1 DUP4 SUB DUP2 DUP6 DUP9 DUP9 CALL SWAP4 POP POP POP POP ISZERO DUP1 ISZERO PUSH2 0x5E7 JUMPI RETURNDATASIZE PUSH1 0x0 DUP1 RETURNDATACOPY RETURNDATASIZE PUSH1 0x0 REVERT JUMPDEST POP POP POP POP JUMP JUMPDEST PUSH1 0x4 SLOAD DUP2 JUMP JUMPDEST DUP1 PUSH20 0xFFFFFFFFFFFFFFFFFFFFFFFFFFFFFFFFFFFFFFFF AND PUSH1 0x2 PUSH1 0x0 SWAP1 SLOAD SWAP1 PUSH2 0x100 EXP SWAP1 DIV PUSH20 0xFFFFFFFFFFFFFFFFFFFFFFFFFFFFFFFFFFFFFFFF AND PUSH20 0xFFFFFFFFFFFFFFFFFFFFFFFFFFFFFFFFFFFFFFFF AND EQ PUSH2 0x683 JUMPI PUSH1 0x40 MLOAD PUSH32 0x8C379A000000000000000000000000000000000000000000000000000000000 DUP2 MSTORE PUSH1 0x4 ADD PUSH2 0x67A SWAP1 PUSH2 0x1047 JUMP JUMPDEST PUSH1 0x40 MLOAD DUP1 SWAP2 SUB SWAP1 REVERT JUMPDEST PUSH1 0x2 PUSH1 0x14 SWAP1 SLOAD SWAP1 PUSH2 0x100 EXP SWAP1 DIV PUSH1 0xFF AND PUSH2 0x6D2 JUMPI PUSH1 0x40 MLOAD PUSH32 0x8C379A000000000000000000000000000000000000000000000000000000000 DUP2 MSTORE PUSH1 0x4 ADD PUSH2 0x6C9 SWAP1 PUSH2 0x10D9 JUMP JUMPDEST PUSH1 0x40 MLOAD DUP1 SWAP2 SUB SWAP1 REVERT JUMPDEST PUSH3 0x15180 PUSH1 0x4 SLOAD PUSH2 0x6E3 SWAP2 SWAP1 PUSH2 0x1128 JUMP JUMPDEST PUSH1 0x3 SLOAD PUSH2 0x6F0 SWAP2 SWAP1 PUSH2 0x116A JUMP JUMPDEST TIMESTAMP LT ISZERO PUSH2 0x732 JUMPI PUSH1 0x40 MLOAD PUSH32 0x8C379A000000000000000000000000000000000000000000000000000000000 DUP2 MSTORE PUSH1 0x4 ADD PUSH2 0x729 SWAP1 PUSH2 0x11EA JUMP JUMPDEST PUSH1 0x40 MLOAD DUP1 SWAP2 SUB SWAP1 REVERT JUMPDEST PUSH1 0x2 PUSH1 0x0 SWAP1 SLOAD SWAP1 PUSH2 0x100 EXP SWAP1 DIV PUSH20 0xFFFFFFFFFFFFFFFFFFFFFFFFFFFFFFFFFFFFFFFF AND PUSH1 0x1 PUSH1 0x0 PUSH2 0x100 EXP DUP2 SLOAD DUP2 PUSH20 0xFFFFFFFFFFFFFFFFFFFFFFFFFFFFFFFFFFFFFFFF MUL NOT AND SWAP1 DUP4 PUSH20 0xFFFFFFFFFFFFFFFFFFFFFFFFFFFFFFFFFFFFFFFF AND MUL OR SWAP1 SSTORE POP POP JUMP JUMPDEST PUSH1 0x0 DUP1 PUSH1 0x0 SWAP1 SLOAD SWAP1 PUSH2 0x100 EXP SWAP1 DIV PUSH20 0xFFFFFFFFFFFFFFFFFFFFFFFFFFFFFFFFFFFFFFFF AND SWAP1 POP SWAP1 JUMP JUMPDEST PUSH1 0x0 PUSH1 0x2 PUSH1 0x0 SWAP1 SLOAD SWAP1 PUSH2 0x100 EXP SWAP1 DIV PUSH20 0xFFFFFFFFFFFFFFFFFFFFFFFFFFFFFFFFFFFFFFFF AND SWAP1 POP SWAP1 JUMP JUMPDEST DUP1 PUSH20 0xFFFFFFFFFFFFFFFFFFFFFFFFFFFFFFFFFFFFFFFF AND PUSH1 0x1 PUSH1 0x0 SWAP1 SLOAD SWAP1 PUSH2 0x100 EXP SWAP1 DIV PUSH20 0xFFFFFFFFFFFFFFFFFFFFFFFFFFFFFFFFFFFFFFFF AND PUSH20 0xFFFFFFFFFFFFFFFFFFFFFFFFFFFFFFFFFFFFFFFF AND EQ PUSH2 0x87B JUMPI PUSH1 0x40 MLOAD PUSH32 0x8C379A000000000000000000000000000000000000000000000000000000000 DUP2 MSTORE PUSH1 0x4 ADD PUSH2 0x872 SWAP1 PUSH2 0x1256 JUMP JUMPDEST PUSH1 0x40 MLOAD DUP1 SWAP2 SUB SWAP1 REVERT JUMPDEST DUP3 PUSH1 0x2 PUSH1 0x0 PUSH2 0x100 EXP DUP2 SLOAD DUP2 PUSH20 0xFFFFFFFFFFFFFFFFFFFFFFFFFFFFFFFFFFFFFFFF MUL NOT AND SWAP1 DUP4 PUSH20 0xFFFFFFFFFFFFFFFFFFFFFFFFFFFFFFFFFFFFFFFF AND MUL OR SWAP1 SSTORE POP DUP2 PUSH1 0x4 DUP2 SWAP1 SSTORE POP POP POP POP JUMP JUMPDEST PUSH1 0x1 PUSH1 0x0 SWAP1 SLOAD SWAP1 PUSH2 0x100 EXP SWAP1 DIV PUSH20 0xFFFFFFFFFFFFFFFFFFFFFFFFFFFFFFFFFFFFFFFF AND DUP2 JUMP JUMPDEST PUSH1 0x2 PUSH1 0x0 SWAP1 SLOAD SWAP1 PUSH2 0x100 EXP SWAP1 DIV PUSH20 0xFFFFFFFFFFFFFFFFFFFFFFFFFFFFFFFFFFFFFFFF AND DUP2 JUMP JUMPDEST PUSH1 0x0 PUSH1 0x1 PUSH1 0x0 SWAP1 SLOAD SWAP1 PUSH2 0x100 EXP SWAP1 DIV PUSH20 0xFFFFFFFFFFFFFFFFFFFFFFFFFFFFFFFFFFFFFFFF AND SWAP1 POP SWAP1 JUMP JUMPDEST PUSH1 0x1 PUSH1 0x0 SWAP1 SLOAD SWAP1 PUSH2 0x100 EXP SWAP1 DIV PUSH20 0xFFFFFFFFFFFFFFFFFFFFFFFFFFFFFFFFFFFFFFFF AND PUSH20 0xFFFFFFFFFFFFFFFFFFFFFFFFFFFFFFFFFFFFFFFF AND DUP2 PUSH20 0xFFFFFFFFFFFFFFFFFFFFFFFFFFFFFFFFFFFFFFFF AND EQ PUSH2 0x9CE JUMPI PUSH1 0x40 MLOAD PUSH32 0x8C379A000000000000000000000000000000000000000000000000000000000 DUP2 MSTORE PUSH1 0x4 ADD PUSH2 0x9C5 SWAP1 PUSH2 0x12C2 JUMP JUMPDEST PUSH1 0x40 MLOAD DUP1 SWAP2 SUB SWAP1 REVERT JUMPDEST PUSH1 0x2 PUSH1 0x14 SWAP1 SLOAD SWAP1 PUSH2 0x100 EXP SWAP1 DIV PUSH1 0xFF AND PUSH2 0xA1D JUMPI PUSH1 0x40 MLOAD PUSH32 0x8C379A000000000000000000000000000000000000000000000000000000000 DUP2 MSTORE PUSH1 0x4 ADD PUSH2 0xA14 SWAP1 PUSH2 0x1354 JUMP JUMPDEST PUSH1 0x40 MLOAD DUP1 SWAP2 SUB SWAP1 REVERT JUMPDEST PUSH1 0x0 PUSH1 0x2 PUSH1 0x14 PUSH2 0x100 EXP DUP2 SLOAD DUP2 PUSH1 0xFF MUL NOT AND SWAP1 DUP4 ISZERO ISZERO MUL OR SWAP1 SSTORE POP POP JUMP JUMPDEST PUSH1 0x3 SLOAD DUP2 JUMP JUMPDEST PUSH1 0x0 DUP1 SLOAD SWAP1 PUSH2 0x100 EXP SWAP1 DIV PUSH20 0xFFFFFFFFFFFFFFFFFFFFFFFFFFFFFFFFFFFFFFFF AND DUP2 JUMP JUMPDEST DUP1 PUSH20 0xFFFFFFFFFFFFFFFFFFFFFFFFFFFFFFFFFFFFFFFF AND PUSH1 0x2 PUSH1 0x0 SWAP1 SLOAD SWAP1 PUSH2 0x100 EXP SWAP1 DIV PUSH20 0xFFFFFFFFFFFFFFFFFFFFFFFFFFFFFFFFFFFFFFFF AND PUSH20 0xFFFFFFFFFFFFFFFFFFFFFFFFFFFFFFFFFFFFFFFF AND EQ PUSH2 0xAF5 JUMPI PUSH1 0x40 MLOAD PUSH32 0x8C379A000000000000000000000000000000000000000000000000000000000 DUP2 MSTORE PUSH1 0x4 ADD PUSH2 0xAEC SWAP1 PUSH2 0x13E6 JUMP JUMPDEST PUSH1 0x40 MLOAD DUP1 SWAP2 SUB SWAP1 REVERT JUMPDEST PUSH1 0x2 PUSH1 0x14 SWAP1 SLOAD SWAP1 PUSH2 0x100 EXP SWAP1 DIV PUSH1 0xFF AND ISZERO PUSH2 0xB45 JUMPI PUSH1 0x40 MLOAD PUSH32 0x8C379A000000000000000000000000000000000000000000000000000000000 DUP2 MSTORE PUSH1 0x4 ADD PUSH2 0xB3C SWAP1 PUSH2 0x1478 JUMP JUMPDEST PUSH1 0x40 MLOAD DUP1 SWAP2 SUB SWAP1 REVERT JUMPDEST PUSH1 0x1 PUSH1 0x2 PUSH1 0x14 PUSH2 0x100 EXP DUP2 SLOAD DUP2 PUSH1 0xFF MUL NOT AND SWAP1 DUP4 ISZERO ISZERO MUL OR SWAP1 SSTORE POP TIMESTAMP PUSH1 0x3 DUP2 SWAP1 SSTORE POP POP JUMP JUMPDEST PUSH1 0x2 PUSH1 0x14 SWAP1 SLOAD SWAP1 PUSH2 0x100 EXP SWAP1 DIV PUSH1 0xFF AND DUP2 JUMP JUMPDEST PUSH1 0x0 DUP1 REVERT JUMPDEST PUSH1 0x0 DUP2 SWAP1 POP SWAP2 SWAP1 POP JUMP JUMPDEST PUSH2 0xB95 DUP2 PUSH2 0xB82 JUMP JUMPDEST DUP2 EQ PUSH2 0xBA0 JUMPI PUSH1 0x0 DUP1 REVERT JUMPDEST POP JUMP JUMPDEST PUSH1 0x0 DUP2 CALLDATALOAD SWAP1 POP PUSH2 0xBB2 DUP2 PUSH2 0xB8C JUMP JUMPDEST SWAP3 SWAP2 POP POP JUMP JUMPDEST PUSH1 0x0 PUSH20 0xFFFFFFFFFFFFFFFFFFFFFFFFFFFFFFFFFFFFFFFF DUP3 AND SWAP1 POP SWAP2 SWAP1 POP JUMP JUMPDEST PUSH1 0x0 PUSH2 0xBE3 DUP3 PUSH2 0xBB8 JUMP JUMPDEST SWAP1 POP SWAP2 SWAP1 POP JUMP JUMPDEST PUSH2 0xBF3 DUP2 PUSH2 0xBD8 JUMP JUMPDEST DUP2 EQ PUSH2 0xBFE JUMPI PUSH1 0x0 DUP1 REVERT JUMPDEST POP JUMP JUMPDEST PUSH1 0x0 DUP2 CALLDATALOAD SWAP1 POP PUSH2 0xC10 DUP2 PUSH2 0xBEA JUMP JUMPDEST SWAP3 SWAP2 POP POP JUMP JUMPDEST PUSH1 0x0 DUP1 PUSH1 0x40 DUP4 DUP6 SUB SLT ISZERO PUSH2 0xC2D JUMPI PUSH2 0xC2C PUSH2 0xB7D JUMP JUMPDEST JUMPDEST PUSH1 0x0 PUSH2 0xC3B DUP6 DUP3 DUP7 ADD PUSH2 0xBA3 JUMP JUMPDEST SWAP3 POP POP PUSH1 0x20 PUSH2 0xC4C DUP6 DUP3 DUP7 ADD PUSH2 0xC01 JUMP JUMPDEST SWAP2 POP POP SWAP3 POP SWAP3 SWAP1 POP JUMP JUMPDEST PUSH1 0x0 PUSH2 0xC61 DUP3 PUSH2 0xBB8 JUMP JUMPDEST SWAP1 POP SWAP2 SWAP1 POP JUMP JUMPDEST PUSH2 0xC71 DUP2 PUSH2 0xC56 JUMP JUMPDEST DUP2 EQ PUSH2 0xC7C JUMPI PUSH1 0x0 DUP1 REVERT JUMPDEST POP JUMP JUMPDEST PUSH1 0x0 DUP2 CALLDATALOAD SWAP1 POP PUSH2 0xC8E DUP2 PUSH2 0xC68 JUMP JUMPDEST SWAP3 SWAP2 POP POP JUMP JUMPDEST PUSH1 0x0 DUP1 PUSH1 0x0 PUSH1 0x60 DUP5 DUP7 SUB SLT ISZERO PUSH2 0xCAD JUMPI PUSH2 0xCAC PUSH2 0xB7D JUMP JUMPDEST JUMPDEST PUSH1 0x0 PUSH2 0xCBB DUP7 DUP3 DUP8 ADD PUSH2 0xC7F JUMP JUMPDEST SWAP4 POP POP PUSH1 0x20 PUSH2 0xCCC DUP7 DUP3 DUP8 ADD PUSH2 0xBA3 JUMP JUMPDEST SWAP3 POP POP PUSH1 0x40 PUSH2 0xCDD DUP7 DUP3 DUP8 ADD PUSH2 0xC01 JUMP JUMPDEST SWAP2 POP POP SWAP3 POP SWAP3 POP SWAP3 JUMP JUMPDEST PUSH2 0xCF0 DUP2 PUSH2 0xB82 JUMP JUMPDEST DUP3 MSTORE POP POP JUMP JUMPDEST PUSH1 0x0 PUSH1 0x20 DUP3 ADD SWAP1 POP PUSH2 0xD0B PUSH1 0x0 DUP4 ADD DUP5 PUSH2 0xCE7 JUMP JUMPDEST SWAP3 SWAP2 POP POP JUMP JUMPDEST PUSH1 0x0 PUSH1 0x20 DUP3 DUP5 SUB SLT ISZERO PUSH2 0xD27 JUMPI PUSH2 0xD26 PUSH2 0xB7D JUMP JUMPDEST JUMPDEST PUSH1 0x0 PUSH2 0xD35 DUP5 DUP3 DUP6 ADD PUSH2 0xC01 JUMP JUMPDEST SWAP2 POP POP SWAP3 SWAP2 POP POP JUMP JUMPDEST PUSH2 0xD47 DUP2 PUSH2 0xBD8 JUMP JUMPDEST DUP3 MSTORE POP POP JUMP JUMPDEST PUSH1 0x0 PUSH1 0x20 DUP3 ADD SWAP1 POP PUSH2 0xD62 PUSH1 0x0 DUP4 ADD DUP5 PUSH2 0xD3E JUMP JUMPDEST SWAP3 SWAP2 POP POP JUMP JUMPDEST PUSH2 0xD71 DUP2 PUSH2 0xC56 JUMP JUMPDEST DUP3 MSTORE POP POP JUMP JUMPDEST PUSH1 0x0 PUSH1 0x20 DUP3 ADD SWAP1 POP PUSH2 0xD8C PUSH1 0x0 DUP4 ADD DUP5 PUSH2 0xD68 JUMP JUMPDEST SWAP3 SWAP2 POP POP JUMP JUMPDEST PUSH1 0x0 DUP2 ISZERO ISZERO SWAP1 POP SWAP2 SWAP1 POP JUMP JUMPDEST PUSH2 0xDA7 DUP2 PUSH2 0xD92 JUMP JUMPDEST DUP3 MSTORE POP POP JUMP JUMPDEST PUSH1 0x0 PUSH1 0x20 DUP3 ADD SWAP1 POP PUSH2 0xDC2 PUSH1 0x0 DUP4 ADD DUP5 PUSH2 0xD9E JUMP JUMPDEST SWAP3 SWAP2 POP POP JUMP JUMPDEST PUSH1 0x0 DUP3 DUP3 MSTORE PUSH1 0x20 DUP3 ADD SWAP1 POP SWAP3 SWAP2 POP POP JUMP JUMPDEST PUSH32 0x4F6E6C7920746865206F776E65722063616E2077697468647261772066756E64 PUSH1 0x0 DUP3 ADD MSTORE PUSH32 0x732E000000000000000000000000000000000000000000000000000000000000 PUSH1 0x20 DUP3 ADD MSTORE POP JUMP JUMPDEST PUSH1 0x0 PUSH2 0xE35 PUSH1 0x22 DUP4 PUSH2 0xDC8 JUMP JUMPDEST SWAP2 POP PUSH2 0xE40 DUP3 PUSH2 0xDD9 JUMP JUMPDEST PUSH1 0x40 DUP3 ADD SWAP1 POP SWAP2 SWAP1 POP JUMP JUMPDEST PUSH1 0x0 PUSH1 0x20 DUP3 ADD SWAP1 POP DUP2 DUP2 SUB PUSH1 0x0 DUP4 ADD MSTORE PUSH2 0xE64 DUP2 PUSH2 0xE28 JUMP JUMPDEST SWAP1 POP SWAP2 SWAP1 POP JUMP JUMPDEST PUSH32 0x546865726520617265206E6F2066756E647320746F2077697468647261772E00 PUSH1 0x0 DUP3 ADD MSTORE POP JUMP JUMPDEST PUSH1 0x0 PUSH2 0xEA1 PUSH1 0x1F DUP4 PUSH2 0xDC8 JUMP JUMPDEST SWAP2 POP PUSH2 0xEAC DUP3 PUSH2 0xE6B JUMP JUMPDEST PUSH1 0x20 DUP3 ADD SWAP1 POP SWAP2 SWAP1 POP JUMP JUMPDEST PUSH1 0x0 PUSH1 0x20 DUP3 ADD SWAP1 POP DUP2 DUP2 SUB PUSH1 0x0 DUP4 ADD MSTORE PUSH2 0xED0 DUP2 PUSH2 0xE94 JUMP JUMPDEST SWAP1 POP SWAP2 SWAP1 POP JUMP JUMPDEST PUSH32 0x496E73756666696369656E742066756E64732E00000000000000000000000000 PUSH1 0x0 DUP3 ADD MSTORE POP JUMP JUMPDEST PUSH1 0x0 PUSH2 0xF0D PUSH1 0x13 DUP4 PUSH2 0xDC8 JUMP JUMPDEST SWAP2 POP PUSH2 0xF18 DUP3 PUSH2 0xED7 JUMP JUMPDEST PUSH1 0x20 DUP3 ADD SWAP1 POP SWAP2 SWAP1 POP JUMP JUMPDEST PUSH1 0x0 PUSH1 0x20 DUP3 ADD SWAP1 POP DUP2 DUP2 SUB PUSH1 0x0 DUP4 ADD MSTORE PUSH2 0xF3C DUP2 PUSH2 0xF00 JUMP JUMPDEST SWAP1 POP SWAP2 SWAP1 POP JUMP JUMPDEST PUSH32 0x4F6E6C7920746865206F776E65722063616E207472616E736665722066756E64 PUSH1 0x0 DUP3 ADD MSTORE PUSH32 0x732E000000000000000000000000000000000000000000000000000000000000 PUSH1 0x20 DUP3 ADD MSTORE POP JUMP JUMPDEST PUSH1 0x0 PUSH2 0xF9F PUSH1 0x22 DUP4 PUSH2 0xDC8 JUMP JUMPDEST SWAP2 POP PUSH2 0xFAA DUP3 PUSH2 0xF43 JUMP JUMPDEST PUSH1 0x40 DUP3 ADD SWAP1 POP SWAP2 SWAP1 POP JUMP JUMPDEST PUSH1 0x0 PUSH1 0x20 DUP3 ADD SWAP1 POP DUP2 DUP2 SUB PUSH1 0x0 DUP4 ADD MSTORE PUSH2 0xFCE DUP2 PUSH2 0xF92 JUMP JUMPDEST SWAP1 POP SWAP2 SWAP1 POP JUMP JUMPDEST PUSH32 0x4F6E6C792074686520686569722063616E20636C61696D20746865206163636F PUSH1 0x0 DUP3 ADD MSTORE PUSH32 0x756E742E00000000000000000000000000000000000000000000000000000000 PUSH1 0x20 DUP3 ADD MSTORE POP JUMP JUMPDEST PUSH1 0x0 PUSH2 0x1031 PUSH1 0x24 DUP4 PUSH2 0xDC8 JUMP JUMPDEST SWAP2 POP PUSH2 0x103C DUP3 PUSH2 0xFD5 JUMP JUMPDEST PUSH1 0x40 DUP3 ADD SWAP1 POP SWAP2 SWAP1 POP JUMP JUMPDEST PUSH1 0x0 PUSH1 0x20 DUP3 ADD SWAP1 POP DUP2 DUP2 SUB PUSH1 0x0 DUP4 ADD MSTORE PUSH2 0x1060 DUP2 PUSH2 0x1024 JUMP JUMPDEST SWAP1 POP SWAP2 SWAP1 POP JUMP JUMPDEST PUSH32 0x436C61696D2070726F6365737320686173206E6F74206265656E20696E697469 PUSH1 0x0 DUP3 ADD MSTORE PUSH32 0x617465642E000000000000000000000000000000000000000000000000000000 PUSH1 0x20 DUP3 ADD MSTORE POP JUMP JUMPDEST PUSH1 0x0 PUSH2 0x10C3 PUSH1 0x25 DUP4 PUSH2 0xDC8 JUMP JUMPDEST SWAP2 POP PUSH2 0x10CE DUP3 PUSH2 0x1067 JUMP JUMPDEST PUSH1 0x40 DUP3 ADD SWAP1 POP SWAP2 SWAP1 POP JUMP JUMPDEST PUSH1 0x0 PUSH1 0x20 DUP3 ADD SWAP1 POP DUP2 DUP2 SUB PUSH1 0x0 DUP4 ADD MSTORE PUSH2 0x10F2 DUP2 PUSH2 0x10B6 JUMP JUMPDEST SWAP1 POP SWAP2 SWAP1 POP JUMP JUMPDEST PUSH32 0x4E487B7100000000000000000000000000000000000000000000000000000000 PUSH1 0x0 MSTORE PUSH1 0x11 PUSH1 0x4 MSTORE PUSH1 0x24 PUSH1 0x0 REVERT JUMPDEST PUSH1 0x0 PUSH2 0x1133 DUP3 PUSH2 0xB82 JUMP JUMPDEST SWAP2 POP PUSH2 0x113E DUP4 PUSH2 0xB82 JUMP JUMPDEST SWAP3 POP DUP3 DUP3 MUL PUSH2 0x114C DUP2 PUSH2 0xB82 JUMP JUMPDEST SWAP2 POP DUP3 DUP3 DIV DUP5 EQ DUP4 ISZERO OR PUSH2 0x1163 JUMPI PUSH2 0x1162 PUSH2 0x10F9 JUMP JUMPDEST JUMPDEST POP SWAP3 SWAP2 POP POP JUMP JUMPDEST PUSH1 0x0 PUSH2 0x1175 DUP3 PUSH2 0xB82 JUMP JUMPDEST SWAP2 POP PUSH2 0x1180 DUP4 PUSH2 0xB82 JUMP JUMPDEST SWAP3 POP DUP3 DUP3 ADD SWAP1 POP DUP1 DUP3 GT ISZERO PUSH2 0x1198 JUMPI PUSH2 0x1197 PUSH2 0x10F9 JUMP JUMPDEST JUMPDEST SWAP3 SWAP2 POP POP JUMP JUMPDEST PUSH32 0x436C61696D2064656C617920686173206E6F7420657870697265642E00000000 PUSH1 0x0 DUP3 ADD MSTORE POP JUMP JUMPDEST PUSH1 0x0 PUSH2 0x11D4 PUSH1 0x1C DUP4 PUSH2 0xDC8 JUMP JUMPDEST SWAP2 POP PUSH2 0x11DF DUP3 PUSH2 0x119E JUMP JUMPDEST PUSH1 0x20 DUP3 ADD SWAP1 POP SWAP2 SWAP1 POP JUMP JUMPDEST PUSH1 0x0 PUSH1 0x20 DUP3 ADD SWAP1 POP DUP2 DUP2 SUB PUSH1 0x0 DUP4 ADD MSTORE PUSH2 0x1203 DUP2 PUSH2 0x11C7 JUMP JUMPDEST SWAP1 POP SWAP2 SWAP1 POP JUMP JUMPDEST PUSH32 0x4F6E6C7920746865206F776E65722063616E207365742074686520686569722E PUSH1 0x0 DUP3 ADD MSTORE POP JUMP JUMPDEST PUSH1 0x0 PUSH2 0x1240 PUSH1 0x20 DUP4 PUSH2 0xDC8 JUMP JUMPDEST SWAP2 POP PUSH2 0x124B DUP3 PUSH2 0x120A JUMP JUMPDEST PUSH1 0x20 DUP3 ADD SWAP1 POP SWAP2 SWAP1 POP JUMP JUMPDEST PUSH1 0x0 PUSH1 0x20 DUP3 ADD SWAP1 POP DUP2 DUP2 SUB PUSH1 0x0 DUP4 ADD MSTORE PUSH2 0x126F DUP2 PUSH2 0x1233 JUMP JUMPDEST SWAP1 POP SWAP2 SWAP1 POP JUMP JUMPDEST PUSH32 0x4F6E6C7920746865206F776E65722063616E2073746F70206120636C61696D2E PUSH1 0x0 DUP3 ADD MSTORE POP JUMP JUMPDEST PUSH1 0x0 PUSH2 0x12AC PUSH1 0x20 DUP4 PUSH2 0xDC8 JUMP JUMPDEST SWAP2 POP PUSH2 0x12B7 DUP3 PUSH2 0x1276 JUMP JUMPDEST PUSH1 0x20 DUP3 ADD SWAP1 POP SWAP2 SWAP1 POP JUMP JUMPDEST PUSH1 0x0 PUSH1 0x20 DUP3 ADD SWAP1 POP DUP2 DUP2 SUB PUSH1 0x0 DUP4 ADD MSTORE PUSH2 0x12DB DUP2 PUSH2 0x129F JUMP JUMPDEST SWAP1 POP SWAP2 SWAP1 POP JUMP JUMPDEST PUSH32 0x5468657265206973206E6F2061637469766520636C61696D20746F2073746F70 PUSH1 0x0 DUP3 ADD MSTORE PUSH32 0x2E00000000000000000000000000000000000000000000000000000000000000 PUSH1 0x20 DUP3 ADD MSTORE POP JUMP JUMPDEST PUSH1 0x0 PUSH2 0x133E PUSH1 0x21 DUP4 PUSH2 0xDC8 JUMP JUMPDEST SWAP2 POP PUSH2 0x1349 DUP3 PUSH2 0x12E2 JUMP JUMPDEST PUSH1 0x40 DUP3 ADD SWAP1 POP SWAP2 SWAP1 POP JUMP JUMPDEST PUSH1 0x0 PUSH1 0x20 DUP3 ADD SWAP1 POP DUP2 DUP2 SUB PUSH1 0x0 DUP4 ADD MSTORE PUSH2 0x136D DUP2 PUSH2 0x1331 JUMP JUMPDEST SWAP1 POP SWAP2 SWAP1 POP JUMP JUMPDEST PUSH32 0x4F6E6C792074686520686569722063616E20696E697469617465207468652063 PUSH1 0x0 DUP3 ADD MSTORE PUSH32 0x6C61696D2070726F636573732E00000000000000000000000000000000000000 PUSH1 0x20 DUP3 ADD MSTORE POP JUMP JUMPDEST PUSH1 0x0 PUSH2 0x13D0 PUSH1 0x2D DUP4 PUSH2 0xDC8 JUMP JUMPDEST SWAP2 POP PUSH2 0x13DB DUP3 PUSH2 0x1374 JUMP JUMPDEST PUSH1 0x40 DUP3 ADD SWAP1 POP SWAP2 SWAP1 POP JUMP JUMPDEST PUSH1 0x0 PUSH1 0x20 DUP3 ADD SWAP1 POP DUP2 DUP2 SUB PUSH1 0x0 DUP4 ADD MSTORE PUSH2 0x13FF DUP2 PUSH2 0x13C3 JUMP JUMPDEST SWAP1 POP SWAP2 SWAP1 POP JUMP JUMPDEST PUSH32 0x436C61696D2070726F6365737320697320616C726561647920696E2070726F67 PUSH1 0x0 DUP3 ADD MSTORE PUSH32 0x726573732E000000000000000000000000000000000000000000000000000000 PUSH1 0x20 DUP3 ADD MSTORE POP JUMP JUMPDEST PUSH1 0x0 PUSH2 0x1462 PUSH1 0x25 DUP4 PUSH2 0xDC8 JUMP JUMPDEST SWAP2 POP PUSH2 0x146D DUP3 PUSH2 0x1406 JUMP JUMPDEST PUSH1 0x40 DUP3 ADD SWAP1 POP SWAP2 SWAP1 POP JUMP JUMPDEST PUSH1 0x0 PUSH1 0x20 DUP3 ADD SWAP1 POP DUP2 DUP2 SUB PUSH1 0x0 DUP4 ADD MSTORE PUSH2 0x1491 DUP2 PUSH2 0x1455 JUMP JUMPDEST SWAP1 POP SWAP2 SWAP1 POP JUMP INVALID LOG2 PUSH5 0x6970667358 0x22 SLT KECCAK256 0x49 CALLVALUE TIMESTAMP 0xAE 0x5D 0xC7 PUSH15 0x8BD7585058719DC4C41CD2762355B1 0xF7 PUSH20 0xFCA4B6662282BB8664736F6C6343000811003300 "
		},
		"gasEstimates": {
			"creation": {
				"codeDepositCost": "1065200",
				"executionCost": "infinite",
				"totalCost": "infinite"
			},
			"external": {
				"claim(address)": "infinite",
				"claimDelay()": "2497",
				"claimInProgress()": "2609",
				"claimInitiatedAt()": "2451",
				"deployer()": "2555",
				"heir()": "2559",
				"initiateClaim(address)": "51328",
				"owner()": "2537",
				"returnDeployer()": "2567",
				"returnHeir()": "2589",
				"returnOwner()": "2589",
				"setHeir(address,uint256,address)": "infinite",
				"stopClaim(address)": "29235",
				"transferFunds(address,uint256,address)": "infinite",
				"withdraw(uint256,address)": "infinite"
			}
		},
		"methodIdentifiers": {
			"claim(address)": "1e83409a",
			"claimDelay()": "1c8ec299",
			"claimInProgress()": "faedd18e",
			"claimInitiatedAt()": "c7983e20",
			"deployer()": "d5f39488",
			"heir()": "91f2ebb8",
			"initiateClaim(address)": "f2b5eea7",
			"owner()": "8da5cb5b",
			"returnDeployer()": "362bb2ac",
			"returnHeir()": "56af4f75",
			"returnOwner()": "94a927fe",
			"setHeir(address,uint256,address)": "6e1a7373",
			"stopClaim(address)": "b7d1d98e",
			"transferFunds(address,uint256,address)": "19e64f58",
			"withdraw(uint256,address)": "00f714ce"
		}
	},
	"abi": [
		{
			"inputs": [
				{
					"internalType": "address payable",
					"name": "_owner",
					"type": "address"
				}
			],
			"stateMutability": "nonpayable",
			"type": "constructor"
		},
		{
			"inputs": [
				{
					"internalType": "address",
					"name": "_sender",
					"type": "address"
				}
			],
			"name": "claim",
			"outputs": [],
			"stateMutability": "nonpayable",
			"type": "function"
		},
		{
			"inputs": [],
			"name": "claimDelay",
			"outputs": [
				{
					"internalType": "uint256",
					"name": "",
					"type": "uint256"
				}
			],
			"stateMutability": "view",
			"type": "function"
		},
		{
			"inputs": [],
			"name": "claimInProgress",
			"outputs": [
				{
					"internalType": "bool",
					"name": "",
					"type": "bool"
				}
			],
			"stateMutability": "view",
			"type": "function"
		},
		{
			"inputs": [],
			"name": "claimInitiatedAt",
			"outputs": [
				{
					"internalType": "uint256",
					"name": "",
					"type": "uint256"
				}
			],
			"stateMutability": "view",
			"type": "function"
		},
		{
			"inputs": [],
			"name": "deployer",
			"outputs": [
				{
					"internalType": "address",
					"name": "",
					"type": "address"
				}
			],
			"stateMutability": "view",
			"type": "function"
		},
		{
			"inputs": [],
			"name": "heir",
			"outputs": [
				{
					"internalType": "address payable",
					"name": "",
					"type": "address"
				}
			],
			"stateMutability": "view",
			"type": "function"
		},
		{
			"inputs": [
				{
					"internalType": "address",
					"name": "_sender",
					"type": "address"
				}
			],
			"name": "initiateClaim",
			"outputs": [],
			"stateMutability": "nonpayable",
			"type": "function"
		},
		{
			"inputs": [],
			"name": "owner",
			"outputs": [
				{
					"internalType": "address payable",
					"name": "",
					"type": "address"
				}
			],
			"stateMutability": "view",
			"type": "function"
		},
		{
			"inputs": [],
			"name": "returnDeployer",
			"outputs": [
				{
					"internalType": "address",
					"name": "",
					"type": "address"
				}
			],
			"stateMutability": "view",
			"type": "function"
		},
		{
			"inputs": [],
			"name": "returnHeir",
			"outputs": [
				{
					"internalType": "address",
					"name": "",
					"type": "address"
				}
			],
			"stateMutability": "view",
			"type": "function"
		},
		{
			"inputs": [],
			"name": "returnOwner",
			"outputs": [
				{
					"internalType": "address",
					"name": "",
					"type": "address"
				}
			],
			"stateMutability": "view",
			"type": "function"
		},
		{
			"inputs": [
				{
					"internalType": "address payable",
					"name": "_heir",
					"type": "address"
				},
				{
					"internalType": "uint256",
					"name": "_claimDelay",
					"type": "uint256"
				},
				{
					"internalType": "address",
					"name": "_sender",
					"type": "address"
				}
			],
			"name": "setHeir",
			"outputs": [],
			"stateMutability": "nonpayable",
			"type": "function"
		},
		{
			"inputs": [
				{
					"internalType": "address",
					"name": "_sender",
					"type": "address"
				}
			],
			"name": "stopClaim",
			"outputs": [],
			"stateMutability": "nonpayable",
			"type": "function"
		},
		{
			"inputs": [
				{
					"internalType": "address payable",
					"name": "_recipient",
					"type": "address"
				},
				{
					"internalType": "uint256",
					"name": "_amount",
					"type": "uint256"
				},
				{
					"internalType": "address",
					"name": "_sender",
					"type": "address"
				}
			],
			"name": "transferFunds",
			"outputs": [],
			"stateMutability": "payable",
			"type": "function"
		},
		{
			"inputs": [
				{
					"internalType": "uint256",
					"name": "_amount",
					"type": "uint256"
				},
				{
					"internalType": "address",
					"name": "_sender",
					"type": "address"
				}
			],
			"name": "withdraw",
			"outputs": [],
			"stateMutability": "payable",
			"type": "function"
		}
	]
}