{
	"data": {
		"bytecode": {
			"linkReferences": {},
			"object": "608060405234801561001057600080fd5b506151dd806100206000396000f3fe6080604052600436106200012e5760003560e01c80639907477411620000af578063d7043bd4116200006d578063d7043bd4146200044b578063dd784788146200046b578063ddf3883a14620004af578063de34144214620004df578063ee149b4214620004ff576200012e565b8063990747741462000339578063a77f3da5146200037d578063b0fd9ca614620003c1578063cbab0ba214620003ef578063cdf004b3146200041d576200012e565b80634fd1f68b11620000fd5780634fd1f68b146200020957806354c645ae146200024d57806358976d8b146200026d5780636e97a82714620002b15780638287e61e14620002f5576200012e565b806310f4c1fc146200013357806337c1fa7c14620001775780633cc2aa0814620001bb57806343915f0414620001db575b600080fd5b3480156200014057600080fd5b506200015f60048036038101906200015991906200160a565b62000543565b6040516200016e919062001681565b60405180910390f35b3480156200018457600080fd5b50620001a360048036038101906200019d91906200160a565b620005fe565b604051620001b2919062001681565b60405180910390f35b620001d96004803603810190620001d3919062001714565b620006b9565b005b348015620001e857600080fd5b506200020760048036038101906200020191906200179c565b62000776565b005b3480156200021657600080fd5b506200023560048036038101906200022f9190620017f8565b6200082f565b604051620002449190620018f8565b60405180910390f35b6200026b600480360381019062000265919062001959565b620009d3565b005b3480156200027a57600080fd5b506200029960048036038101906200029391906200160a565b62000a95565b604051620002a8919062001a06565b60405180910390f35b348015620002be57600080fd5b50620002dd6004803603810190620002d7919062001a23565b62000b50565b604051620002ec919062001a06565b60405180910390f35b3480156200030257600080fd5b506200032160048036038101906200031b9190620017f8565b62000c1c565b604051620003309190620018f8565b60405180910390f35b3480156200034657600080fd5b506200036560048036038101906200035f919062001a7f565b62000dc0565b60405162000374919062001a06565b60405180910390f35b3480156200038a57600080fd5b50620003a96004803603810190620003a3919062001af1565b62000e8f565b604051620003b8919062001a06565b60405180910390f35b348015620003ce57600080fd5b50620003ed6004803603810190620003e7919062001b38565b62000f58565b005b348015620003fc57600080fd5b506200041b60048036038101906200041591906200160a565b62001134565b005b3480156200042a57600080fd5b506200044960048036038101906200044391906200160a565b620011e7565b005b62000469600480360381019062000463919062001b94565b6200129a565b005b3480156200047857600080fd5b506200049760048036038101906200049191906200160a565b62001354565b604051620004a6919062001c71565b60405180910390f35b348015620004bc57600080fd5b50620004c762001394565b604051620004d6919062001681565b60405180910390f35b620004fd6004803603810190620004f7919062001c8e565b6200143c565b005b3480156200050c57600080fd5b506200052b60048036038101906200052591906200160a565b62001501565b6040516200053a919062001a06565b60405180910390f35b60008082815481106200055b576200055a62001d41565b5b9060005260206000200160009054906101000a900473ffffffffffffffffffffffffffffffffffffffff1673ffffffffffffffffffffffffffffffffffffffff166323658af46040518163ffffffff1660e01b8152600401602060405180830381865afa158015620005d1573d6000803e3d6000fd5b505050506040513d601f19601f82011682018060405250810190620005f7919062001d87565b9050919050565b600080828154811062000616576200061562001d41565b5b9060005260206000200160009054906101000a900473ffffffffffffffffffffffffffffffffffffffff1673ffffffffffffffffffffffffffffffffffffffff166394a927fe6040518163ffffffff1660e01b8152600401602060405180830381865afa1580156200068c573d6000803e3d6000fd5b505050506040513d601f19601f82011682018060405250810190620006b2919062001d87565b9050919050565b60008581548110620006d057620006cf62001d41565b5b9060005260206000200160009054906101000a900473ffffffffffffffffffffffffffffffffffffffff1673ffffffffffffffffffffffffffffffffffffffff1663c250283c858585856040518563ffffffff1660e01b81526004016200073b949392919062001dca565b600060405180830381600087803b1580156200075657600080fd5b505af11580156200076b573d6000803e3d6000fd5b505050505050505050565b600083815481106200078d576200078c62001d41565b5b9060005260206000200160009054906101000a900473ffffffffffffffffffffffffffffffffffffffff1673ffffffffffffffffffffffffffffffffffffffff16630a84aac58383336040518463ffffffff1660e01b8152600401620007f69392919062001e17565b600060405180830381600087803b1580156200081157600080fd5b505af115801562000826573d6000803e3d6000fd5b50505050505050565b60606000808054905067ffffffffffffffff81111562000854576200085362001e54565b5b604051908082528060200260200182016040528015620008835781602001602082028036833780820191505090505b5090506000805b600080549050811015620009c8578473ffffffffffffffffffffffffffffffffffffffff1660008281548110620008c657620008c562001d41565b5b9060005260206000200160009054906101000a900473ffffffffffffffffffffffffffffffffffffffff1673ffffffffffffffffffffffffffffffffffffffff166394a927fe6040518163ffffffff1660e01b8152600401602060405180830381865afa1580156200093c573d6000803e3d6000fd5b505050506040513d601f19601f8201168201806040525081019062000962919062001d87565b73ffffffffffffffffffffffffffffffffffffffff1603620009b2578083838151811062000995576200099462001d41565b5b6020026020010181815250508180620009ae9062001eb2565b9250505b8080620009bf9062001eb2565b9150506200088a565b508192505050919050565b60008681548110620009ea57620009e962001d41565b5b9060005260206000200160009054906101000a900473ffffffffffffffffffffffffffffffffffffffff1673ffffffffffffffffffffffffffffffffffffffff166387c2797d8686863387876040518763ffffffff1660e01b815260040162000a599695949392919062001f10565b600060405180830381600087803b15801562000a7457600080fd5b505af115801562000a89573d6000803e3d6000fd5b50505050505050505050565b600080828154811062000aad5762000aac62001d41565b5b9060005260206000200160009054906101000a900473ffffffffffffffffffffffffffffffffffffffff1673ffffffffffffffffffffffffffffffffffffffff16634bfffc866040518163ffffffff1660e01b8152600401602060405180830381865afa15801562000b23573d6000803e3d6000fd5b505050506040513d601f19601f8201168201806040525081019062000b49919062001f94565b9050919050565b600080848154811062000b685762000b6762001d41565b5b9060005260206000200160009054906101000a900473ffffffffffffffffffffffffffffffffffffffff1673ffffffffffffffffffffffffffffffffffffffff16631903b43184846040518363ffffffff1660e01b815260040162000bcf92919062001fc6565b602060405180830381865afa15801562000bed573d6000803e3d6000fd5b505050506040513d601f19601f8201168201806040525081019062000c13919062001f94565b90509392505050565b60606000808054905067ffffffffffffffff81111562000c415762000c4062001e54565b5b60405190808252806020026020018201604052801562000c705781602001602082028036833780820191505090505b5090506000805b60008054905081101562000db5578473ffffffffffffffffffffffffffffffffffffffff166000828154811062000cb35762000cb262001d41565b5b9060005260206000200160009054906101000a900473ffffffffffffffffffffffffffffffffffffffff1673ffffffffffffffffffffffffffffffffffffffff166323658af46040518163ffffffff1660e01b8152600401602060405180830381865afa15801562000d29573d6000803e3d6000fd5b505050506040513d601f19601f8201168201806040525081019062000d4f919062001d87565b73ffffffffffffffffffffffffffffffffffffffff160362000d9f578083838151811062000d825762000d8162001d41565b5b602002602001018181525050818062000d9b9062001eb2565b9250505b808062000dac9062001eb2565b91505062000c77565b508192505050919050565b600080858154811062000dd85762000dd762001d41565b5b9060005260206000200160009054906101000a900473ffffffffffffffffffffffffffffffffffffffff1673ffffffffffffffffffffffffffffffffffffffff1663927da1058585856040518463ffffffff1660e01b815260040162000e419392919062001ff3565b602060405180830381865afa15801562000e5f573d6000803e3d6000fd5b505050506040513d601f19601f8201168201806040525081019062000e85919062001f94565b9050949350505050565b600080838154811062000ea75762000ea662001d41565b5b9060005260206000200160009054906101000a900473ffffffffffffffffffffffffffffffffffffffff1673ffffffffffffffffffffffffffffffffffffffff1663d4fb7e2d836040518263ffffffff1660e01b815260040162000f0c919062001681565b602060405180830381865afa15801562000f2a573d6000803e3d6000fd5b505050506040513d601f19601f8201168201806040525081019062000f50919062001f94565b905092915050565b3373ffffffffffffffffffffffffffffffffffffffff166000848154811062000f865762000f8562001d41565b5b9060005260206000200160009054906101000a900473ffffffffffffffffffffffffffffffffffffffff1673ffffffffffffffffffffffffffffffffffffffff166394a927fe6040518163ffffffff1660e01b8152600401602060405180830381865afa15801562000ffc573d6000803e3d6000fd5b505050506040513d601f19601f8201168201806040525081019062001022919062001d87565b73ffffffffffffffffffffffffffffffffffffffff16146200107b576040517f08c379a00000000000000000000000000000000000000000000000000000000081526004016200107290620020b7565b60405180910390fd5b6000838154811062001092576200109162001d41565b5b9060005260206000200160009054906101000a900473ffffffffffffffffffffffffffffffffffffffff1673ffffffffffffffffffffffffffffffffffffffff1663342ac6153384846040518463ffffffff1660e01b8152600401620010fb93929190620020d9565b600060405180830381600087803b1580156200111657600080fd5b505af11580156200112b573d6000803e3d6000fd5b50505050505050565b600081815481106200114b576200114a62001d41565b5b9060005260206000200160009054906101000a900473ffffffffffffffffffffffffffffffffffffffff1673ffffffffffffffffffffffffffffffffffffffff16638d1fdf2f336040518263ffffffff1660e01b8152600401620011b0919062001681565b600060405180830381600087803b158015620011cb57600080fd5b505af1158015620011e0573d6000803e3d6000fd5b5050505050565b60008181548110620011fe57620011fd62001d41565b5b9060005260206000200160009054906101000a900473ffffffffffffffffffffffffffffffffffffffff1673ffffffffffffffffffffffffffffffffffffffff166345c8b1a6336040518263ffffffff1660e01b815260040162001263919062001681565b600060405180830381600087803b1580156200127e57600080fd5b505af115801562001293573d6000803e3d6000fd5b5050505050565b60008481548110620012b157620012b062001d41565b5b9060005260206000200160009054906101000a900473ffffffffffffffffffffffffffffffffffffffff1673ffffffffffffffffffffffffffffffffffffffff16632fac5d9f8484846040518463ffffffff1660e01b81526004016200131a9392919062002116565b600060405180830381600087803b1580156200133557600080fd5b505af11580156200134a573d6000803e3d6000fd5b5050505050505050565b600081815481106200136557600080fd5b906000526020600020016000915054906101000a900473ffffffffffffffffffffffffffffffffffffffff1681565b60008033604051620013a690620015bc565b620013b2919062002153565b604051809103906000f080158015620013cf573d6000803e3d6000fd5b5090506000819080600181540180825580915050600190039060005260206000200160009091909190916101000a81548173ffffffffffffffffffffffffffffffffffffffff021916908373ffffffffffffffffffffffffffffffffffffffff1602179055508091505090565b6000878154811062001453576200145262001d41565b5b9060005260206000200160009054906101000a900473ffffffffffffffffffffffffffffffffffffffff1673ffffffffffffffffffffffffffffffffffffffff16630171b6da878787873388886040518863ffffffff1660e01b8152600401620014c4979695949392919062002170565b600060405180830381600087803b158015620014df57600080fd5b505af1158015620014f4573d6000803e3d6000fd5b5050505050505050505050565b600080828154811062001519576200151862001d41565b5b9060005260206000200160009054906101000a900473ffffffffffffffffffffffffffffffffffffffff1673ffffffffffffffffffffffffffffffffffffffff1663c6a622906040518163ffffffff1660e01b8152600401602060405180830381865afa1580156200158f573d6000803e3d6000fd5b505050506040513d601f19601f82011682018060405250810190620015b5919062001f94565b9050919050565b612fba80620021ee83390190565b600080fd5b6000819050919050565b620015e481620015cf565b8114620015f057600080fd5b50565b6000813590506200160481620015d9565b92915050565b600060208284031215620016235762001622620015ca565b5b60006200163384828501620015f3565b91505092915050565b600073ffffffffffffffffffffffffffffffffffffffff82169050919050565b600062001669826200163c565b9050919050565b6200167b816200165c565b82525050565b600060208201905062001698600083018462001670565b92915050565b6000620016ab826200163c565b9050919050565b620016bd816200169e565b8114620016c957600080fd5b50565b600081359050620016dd81620016b2565b92915050565b620016ee816200165c565b8114620016fa57600080fd5b50565b6000813590506200170e81620016e3565b92915050565b600080600080600060a08688031215620017335762001732620015ca565b5b60006200174388828901620015f3565b95505060206200175688828901620015f3565b94505060406200176988828901620016cc565b93505060606200177c88828901620016fd565b92505060806200178f88828901620016cc565b9150509295509295909350565b600080600060608486031215620017b857620017b7620015ca565b5b6000620017c886828701620015f3565b9350506020620017db86828701620016cc565b9250506040620017ee86828701620015f3565b9150509250925092565b600060208284031215620018115762001810620015ca565b5b60006200182184828501620016fd565b91505092915050565b600081519050919050565b600082825260208201905092915050565b6000819050602082019050919050565b6200186181620015cf565b82525050565b600062001875838362001856565b60208301905092915050565b6000602082019050919050565b60006200189b826200182a565b620018a7818562001835565b9350620018b48362001846565b8060005b83811015620018eb578151620018cf888262001867565b9750620018dc8362001881565b925050600181019050620018b8565b5085935050505092915050565b600060208201905081810360008301526200191481846200188e565b905092915050565b60008115159050919050565b62001933816200191c565b81146200193f57600080fd5b50565b600081359050620019538162001928565b92915050565b60008060008060008060c08789031215620019795762001978620015ca565b5b60006200198989828a01620015f3565b96505060206200199c89828a0162001942565b9550506040620019af89828a01620015f3565b9450506060620019c289828a01620016fd565b9350506080620019d589828a01620016cc565b92505060a0620019e889828a01620015f3565b9150509295509295509295565b62001a0081620015cf565b82525050565b600060208201905062001a1d6000830184620019f5565b92915050565b60008060006060848603121562001a3f5762001a3e620015ca565b5b600062001a4f86828701620015f3565b935050602062001a628682870162001942565b925050604062001a7586828701620016fd565b9150509250925092565b6000806000806080858703121562001a9c5762001a9b620015ca565b5b600062001aac87828801620015f3565b945050602062001abf87828801620016fd565b935050604062001ad287828801620016cc565b925050606062001ae587828801620016cc565b91505092959194509250565b6000806040838503121562001b0b5762001b0a620015ca565b5b600062001b1b85828601620015f3565b925050602062001b2e85828601620016fd565b9150509250929050565b60008060006060848603121562001b545762001b53620015ca565b5b600062001b6486828701620015f3565b935050602062001b7786828701620015f3565b925050604062001b8a86828701620016fd565b9150509250925092565b6000806000806080858703121562001bb15762001bb0620015ca565b5b600062001bc187828801620015f3565b945050602062001bd487828801620015f3565b935050604062001be787828801620016fd565b925050606062001bfa87828801620016cc565b91505092959194509250565b6000819050919050565b600062001c3162001c2b62001c25846200163c565b62001c06565b6200163c565b9050919050565b600062001c458262001c10565b9050919050565b600062001c598262001c38565b9050919050565b62001c6b8162001c4c565b82525050565b600060208201905062001c88600083018462001c60565b92915050565b600080600080600080600060e0888a03121562001cb05762001caf620015ca565b5b600062001cc08a828b01620015f3565b975050602062001cd38a828b0162001942565b965050604062001ce68a828b01620016cc565b955050606062001cf98a828b01620015f3565b945050608062001d0c8a828b01620016fd565b93505060a062001d1f8a828b01620016cc565b92505060c062001d328a828b01620015f3565b91505092959891949750929550565b7f4e487b7100000000000000000000000000000000000000000000000000000000600052603260045260246000fd5b60008151905062001d8181620016e3565b92915050565b60006020828403121562001da05762001d9f620015ca565b5b600062001db08482850162001d70565b91505092915050565b62001dc4816200169e565b82525050565b600060808201905062001de16000830187620019f5565b62001df0602083018662001db9565b62001dff604083018562001670565b62001e0e606083018462001db9565b95945050505050565b600060608201905062001e2e600083018662001db9565b62001e3d6020830185620019f5565b62001e4c604083018462001670565b949350505050565b7f4e487b7100000000000000000000000000000000000000000000000000000000600052604160045260246000fd5b7f4e487b7100000000000000000000000000000000000000000000000000000000600052601160045260246000fd5b600062001ebf82620015cf565b91507fffffffffffffffffffffffffffffffffffffffffffffffffffffffffffffffff820362001ef45762001ef362001e83565b5b600182019050919050565b62001f0a816200191c565b82525050565b600060c08201905062001f27600083018962001eff565b62001f366020830188620019f5565b62001f45604083018762001670565b62001f54606083018662001670565b62001f63608083018562001db9565b62001f7260a0830184620019f5565b979650505050505050565b60008151905062001f8e81620015d9565b92915050565b60006020828403121562001fad5762001fac620015ca565b5b600062001fbd8482850162001f7d565b91505092915050565b600060408201905062001fdd600083018562001eff565b62001fec602083018462001670565b9392505050565b60006060820190506200200a600083018662001670565b62002019602083018562001db9565b62002028604083018462001db9565b949350505050565b600082825260208201905092915050565b7f4f6e6c7920746865206f776e65722063616e207365742074686520776974686460008201527f726177616c206c696d69742e0000000000000000000000000000000000000000602082015250565b60006200209f602c8362002030565b9150620020ac8262002041565b604082019050919050565b60006020820190508181036000830152620020d28162002090565b9050919050565b6000606082019050620020f0600083018662001670565b620020ff6020830185620019f5565b6200210e604083018462001670565b949350505050565b60006060820190506200212d6000830186620019f5565b6200213c602083018562001670565b6200214b604083018462001db9565b949350505050565b60006020820190506200216a600083018462001db9565b92915050565b600060e08201905062002187600083018a62001eff565b62002196602083018962001db9565b620021a56040830188620019f5565b620021b4606083018762001670565b620021c3608083018662001670565b620021d260a083018562001db9565b620021e160c0830184620019f5565b9897505050505050505056fe60806040526000600660146101000a81548160ff0219169083151502179055506000600860006101000a81548160ff0219169083151502179055503480156200004757600080fd5b5060405162002fba38038062002fba83398181016040528101906200006d91906200011e565b806000806101000a81548173ffffffffffffffffffffffffffffffffffffffff021916908373ffffffffffffffffffffffffffffffffffffffff1602179055505062000150565b600080fd5b600073ffffffffffffffffffffffffffffffffffffffff82169050919050565b6000620000e682620000b9565b9050919050565b620000f881620000d9565b81146200010457600080fd5b50565b6000815190506200011881620000ed565b92915050565b600060208284031215620001375762000136620000b4565b5b6000620001478482850162000107565b91505092915050565b612e5a80620001606000396000f3fe6080604052600436106101665760003560e01c80637a80760e116100d15780639e1a4d191161008a578063c6a6229011610064578063c6a62290146104d2578063cc4aa204146104fd578063d4fb7e2d14610528578063fce33f011461056557610166565b80639e1a4d1914610460578063a57207701461048b578063c250283c146104b657610166565b80637a80760e1461035d57806387c2797d146103885780638d1fdf2f146103a45780638da5cb5b146103cd578063927da105146103f857806394a927fe1461043557610166565b80632fac5d9f116101235780632fac5d9f1461026e578063342ac6151461028a57806338af3eed146102b357806345c8b1a6146102de5780634bfffc86146103075780636a42b8f81461033257610166565b80630171b6da1461016b578063054f7d9c146101875780630a84aac5146101b25780631903b431146101db57806323658af41461021857806328af53fa14610243575b600080fd5b610185600480360381019061018091906120ba565b6105a2565b005b34801561019357600080fd5b5061019c610d4c565b6040516101a9919061216b565b60405180910390f35b3480156101be57600080fd5b506101d960048036038101906101d49190612186565b610d5f565b005b3480156101e757600080fd5b5061020260048036038101906101fd91906121d9565b610ec7565b60405161020f9190612228565b60405180910390f35b34801561022457600080fd5b5061022d610f5a565b60405161023a9190612252565b60405180910390f35b34801561024f57600080fd5b50610258610f84565b6040516102659190612228565b60405180910390f35b6102886004803603810190610283919061226d565b610f8a565b005b34801561029657600080fd5b506102b160048036038101906102ac91906122c0565b611057565b005b3480156102bf57600080fd5b506102c861112e565b6040516102d59190612322565b60405180910390f35b3480156102ea57600080fd5b506103056004803603810190610300919061233d565b611154565b005b34801561031357600080fd5b5061031c611237565b6040516103299190612228565b60405180910390f35b34801561033e57600080fd5b50610347611241565b6040516103549190612228565b60405180910390f35b34801561036957600080fd5b50610372611247565b60405161037f9190612322565b60405180910390f35b6103a2600480360381019061039d919061236a565b61126d565b005b3480156103b057600080fd5b506103cb60048036038101906103c6919061233d565b611b77565b005b3480156103d957600080fd5b506103e2611c5a565b6040516103ef9190612322565b60405180910390f35b34801561040457600080fd5b5061041f600480360381019061041a91906123f7565b611c7e565b60405161042c9190612228565b60405180910390f35b34801561044157600080fd5b5061044a611d0a565b6040516104579190612252565b60405180910390f35b34801561046c57600080fd5b50610475611d33565b6040516104829190612228565b60405180910390f35b34801561049757600080fd5b506104a0611d39565b6040516104ad919061216b565b60405180910390f35b6104d060048036038101906104cb919061244a565b611d4c565b005b3480156104de57600080fd5b506104e7611ed8565b6040516104f49190612228565b60405180910390f35b34801561050957600080fd5b50610512611ee2565b60405161051f9190612510565b60405180910390f35b34801561053457600080fd5b5061054f600480360381019061054a919061233d565b611f08565b60405161055c9190612228565b60405180910390f35b34801561057157600080fd5b5061058c6004803603810190610587919061233d565b611f51565b6040516105999190612228565b60405180910390f35b60008054906101000a900473ffffffffffffffffffffffffffffffffffffffff1673ffffffffffffffffffffffffffffffffffffffff168373ffffffffffffffffffffffffffffffffffffffff1614806106495750600160009054906101000a900473ffffffffffffffffffffffffffffffffffffffff1673ffffffffffffffffffffffffffffffffffffffff168373ffffffffffffffffffffffffffffffffffffffff16145b610688576040517f08c379a000000000000000000000000000000000000000000000000000000000815260040161067f906125ae565b60405180910390fd5b600160009054906101000a900473ffffffffffffffffffffffffffffffffffffffff1673ffffffffffffffffffffffffffffffffffffffff168373ffffffffffffffffffffffffffffffffffffffff160361077957600960008573ffffffffffffffffffffffffffffffffffffffff1673ffffffffffffffffffffffffffffffffffffffff168152602001908152602001600020548511158061073957504260035460025461073791906125fd565b105b610778576040517f08c379a000000000000000000000000000000000000000000000000000000000815260040161076f906126c9565b60405180910390fd5b5b600860009054906101000a900460ff16156107c9576040517f08c379a00000000000000000000000000000000000000000000000000000000081526004016107c09061275b565b60405180910390fd5b86156109c35747851115610812576040517f08c379a0000000000000000000000000000000000000000000000000000000008152600401610809906127c7565b60405180910390fd5b600660149054906101000a900460ff1615610862576040517f08c379a000000000000000000000000000000000000000000000000000000000815260040161085990612859565b60405180910390fd5b6001600660146101000a81548160ff0219169083151502179055506108a360646108958388611f6990919063ffffffff16565b611f7f90919063ffffffff16565b6004819055508573ffffffffffffffffffffffffffffffffffffffff166108fc6108d860045488611f9590919063ffffffff16565b9081150290604051600060405180830381858888f19350505050158015610903573d6000803e3d6000fd5b508173ffffffffffffffffffffffffffffffffffffffff166108fc6004549081150290604051600060405180830381858888f1935050505015801561094c573d6000803e3d6000fd5b5084600960008673ffffffffffffffffffffffffffffffffffffffff1673ffffffffffffffffffffffffffffffffffffffff168152602001908152602001600020600082825461099c9190612879565b925050819055506000600660146101000a81548160ff021916908315150217905550610d43565b83600660006101000a81548173ffffffffffffffffffffffffffffffffffffffff021916908373ffffffffffffffffffffffffffffffffffffffff160217905550600660009054906101000a900473ffffffffffffffffffffffffffffffffffffffff1673ffffffffffffffffffffffffffffffffffffffff166370a08231306040518263ffffffff1660e01b8152600401610a5f9190612252565b602060405180830381865afa158015610a7c573d6000803e3d6000fd5b505050506040513d601f19601f82011682018060405250810190610aa091906128c2565b851115610ae2576040517f08c379a0000000000000000000000000000000000000000000000000000000008152600401610ad9906127c7565b60405180910390fd5b600660149054906101000a900460ff1615610b32576040517f08c379a0000000000000000000000000000000000000000000000000000000008152600401610b2990612859565b60405180910390fd5b6001600660146101000a81548160ff021916908315150217905550610b736064610b658388611f6990919063ffffffff16565b611f7f90919063ffffffff16565b600481905550600660009054906101000a900473ffffffffffffffffffffffffffffffffffffffff1673ffffffffffffffffffffffffffffffffffffffff1663a9059cbb87610bcd60045489611f9590919063ffffffff16565b6040518363ffffffff1660e01b8152600401610bea929190612910565b6020604051808303816000875af1158015610c09573d6000803e3d6000fd5b505050506040513d601f19601f82011682018060405250810190610c2d919061294e565b50600660009054906101000a900473ffffffffffffffffffffffffffffffffffffffff1673ffffffffffffffffffffffffffffffffffffffff1663a9059cbb836004546040518363ffffffff1660e01b8152600401610c8d929190612910565b6020604051808303816000875af1158015610cac573d6000803e3d6000fd5b505050506040513d601f19601f82011682018060405250810190610cd0919061294e565b5084600960008673ffffffffffffffffffffffffffffffffffffffff1673ffffffffffffffffffffffffffffffffffffffff1681526020019081526020016000206000828254610d209190612879565b925050819055506000600660146101000a81548160ff0219169083151502179055505b50505050505050565b600860009054906101000a900460ff1681565b8073ffffffffffffffffffffffffffffffffffffffff1660008054906101000a900473ffffffffffffffffffffffffffffffffffffffff1673ffffffffffffffffffffffffffffffffffffffff1614610ded576040517f08c379a0000000000000000000000000000000000000000000000000000000008152600401610de4906129ed565b60405180910390fd5b600660149054906101000a900460ff1615610e3d576040517f08c379a0000000000000000000000000000000000000000000000000000000008152600401610e3490612859565b60405180910390fd5b6001600660146101000a81548160ff02191690831515021790555082600160006101000a81548173ffffffffffffffffffffffffffffffffffffffff021916908373ffffffffffffffffffffffffffffffffffffffff160217905550816003819055506000600660146101000a81548160ff02191690831515021790555042600281905550505050565b60008215610ed757479050610f54565b8173ffffffffffffffffffffffffffffffffffffffff166370a08231306040518263ffffffff1660e01b8152600401610f109190612252565b602060405180830381865afa158015610f2d573d6000803e3d6000fd5b505050506040513d601f19601f82011682018060405250810190610f5191906128c2565b90505b92915050565b6000600160009054906101000a900473ffffffffffffffffffffffffffffffffffffffff16905090565b60025481565b60008311610fcd576040517f08c379a0000000000000000000000000000000000000000000000000000000008152600401610fc490612a59565b60405180910390fd5b60008290508073ffffffffffffffffffffffffffffffffffffffff1663095ea7b383866040518363ffffffff1660e01b815260040161100d929190612910565b6020604051808303816000875af115801561102c573d6000803e3d6000fd5b505050506040513d601f19601f82011682018060405250810190611050919061294e565b5050505050565b60008054906101000a900473ffffffffffffffffffffffffffffffffffffffff1673ffffffffffffffffffffffffffffffffffffffff168373ffffffffffffffffffffffffffffffffffffffff16146110e5576040517f08c379a00000000000000000000000000000000000000000000000000000000081526004016110dc90612aeb565b60405180910390fd5b81600960008373ffffffffffffffffffffffffffffffffffffffff1673ffffffffffffffffffffffffffffffffffffffff16815260200190815260200160002081905550505050565b600160009054906101000a900473ffffffffffffffffffffffffffffffffffffffff1681565b60008054906101000a900473ffffffffffffffffffffffffffffffffffffffff1673ffffffffffffffffffffffffffffffffffffffff168173ffffffffffffffffffffffffffffffffffffffff16146111e2576040517f08c379a00000000000000000000000000000000000000000000000000000000081526004016111d990612b7d565b60405180910390fd5b6000600860006101000a81548160ff0219169083151502179055507fca5069937e68fd197927055037f59d7c90bf75ac104e6e375539ef480c3ad6ee8160405161122c9190612252565b60405180910390a150565b6000600254905090565b60035481565b600560009054906101000a900473ffffffffffffffffffffffffffffffffffffffff1681565b60008054906101000a900473ffffffffffffffffffffffffffffffffffffffff1673ffffffffffffffffffffffffffffffffffffffff168373ffffffffffffffffffffffffffffffffffffffff1614806113145750600160009054906101000a900473ffffffffffffffffffffffffffffffffffffffff1673ffffffffffffffffffffffffffffffffffffffff168373ffffffffffffffffffffffffffffffffffffffff16145b611353576040517f08c379a000000000000000000000000000000000000000000000000000000000815260040161134a906125ae565b60405180910390fd5b600160009054906101000a900473ffffffffffffffffffffffffffffffffffffffff1673ffffffffffffffffffffffffffffffffffffffff168373ffffffffffffffffffffffffffffffffffffffff160361144457600960008573ffffffffffffffffffffffffffffffffffffffff1673ffffffffffffffffffffffffffffffffffffffff168152602001908152602001600020548511158061140457504260035460025461140291906125fd565b105b611443576040517f08c379a000000000000000000000000000000000000000000000000000000000815260040161143a906126c9565b60405180910390fd5b5b600860009054906101000a900460ff1615611494576040517f08c379a000000000000000000000000000000000000000000000000000000000815260040161148b9061275b565b60405180910390fd5b85156116f157600047116114dd576040517f08c379a00000000000000000000000000000000000000000000000000000000081526004016114d490612be9565b60405180910390fd5b47851115611520576040517f08c379a0000000000000000000000000000000000000000000000000000000008152600401611517906127c7565b60405180910390fd5b600660149054906101000a900460ff1615611570576040517f08c379a000000000000000000000000000000000000000000000000000000000815260040161156790612859565b60405180910390fd5b6001600660146101000a81548160ff0219169083151502179055506115b160646115a38388611f6990919063ffffffff16565b611f7f90919063ffffffff16565b60048190555060008054906101000a900473ffffffffffffffffffffffffffffffffffffffff1673ffffffffffffffffffffffffffffffffffffffff166108fc61160660045488611f9590919063ffffffff16565b9081150290604051600060405180830381858888f19350505050158015611631573d6000803e3d6000fd5b508173ffffffffffffffffffffffffffffffffffffffff166108fc6004549081150290604051600060405180830381858888f1935050505015801561167a573d6000803e3d6000fd5b5084600960008673ffffffffffffffffffffffffffffffffffffffff1673ffffffffffffffffffffffffffffffffffffffff16815260200190815260200160002060008282546116ca9190612879565b925050819055506000600660146101000a81548160ff021916908315150217905550611b6f565b83600660006101000a81548173ffffffffffffffffffffffffffffffffffffffff021916908373ffffffffffffffffffffffffffffffffffffffff1602179055506000600660009054906101000a900473ffffffffffffffffffffffffffffffffffffffff1673ffffffffffffffffffffffffffffffffffffffff166370a08231306040518263ffffffff1660e01b815260040161178f9190612252565b602060405180830381865afa1580156117ac573d6000803e3d6000fd5b505050506040513d601f19601f820116820180604052508101906117d091906128c2565b11611810576040517f08c379a000000000000000000000000000000000000000000000000000000000815260040161180790612be9565b60405180910390fd5b600660009054906101000a900473ffffffffffffffffffffffffffffffffffffffff1673ffffffffffffffffffffffffffffffffffffffff166370a08231306040518263ffffffff1660e01b815260040161186b9190612252565b602060405180830381865afa158015611888573d6000803e3d6000fd5b505050506040513d601f19601f820116820180604052508101906118ac91906128c2565b8511156118ee576040517f08c379a00000000000000000000000000000000000000000000000000000000081526004016118e5906127c7565b60405180910390fd5b600660149054906101000a900460ff161561193e576040517f08c379a000000000000000000000000000000000000000000000000000000000815260040161193590612859565b60405180910390fd5b6001600660146101000a81548160ff02191690831515021790555061197f60646119718388611f6990919063ffffffff16565b611f7f90919063ffffffff16565b600481905550600660009054906101000a900473ffffffffffffffffffffffffffffffffffffffff1673ffffffffffffffffffffffffffffffffffffffff1663a9059cbb60008054906101000a900473ffffffffffffffffffffffffffffffffffffffff166119f960045489611f9590919063ffffffff16565b6040518363ffffffff1660e01b8152600401611a16929190612910565b6020604051808303816000875af1158015611a35573d6000803e3d6000fd5b505050506040513d601f19601f82011682018060405250810190611a59919061294e565b50600660009054906101000a900473ffffffffffffffffffffffffffffffffffffffff1673ffffffffffffffffffffffffffffffffffffffff1663a9059cbb836004546040518363ffffffff1660e01b8152600401611ab9929190612910565b6020604051808303816000875af1158015611ad8573d6000803e3d6000fd5b505050506040513d601f19601f82011682018060405250810190611afc919061294e565b5084600960008673ffffffffffffffffffffffffffffffffffffffff1673ffffffffffffffffffffffffffffffffffffffff1681526020019081526020016000206000828254611b4c9190612879565b925050819055506000600660146101000a81548160ff0219169083151502179055505b505050505050565b60008054906101000a900473ffffffffffffffffffffffffffffffffffffffff1673ffffffffffffffffffffffffffffffffffffffff168173ffffffffffffffffffffffffffffffffffffffff1614611c05576040517f08c379a0000000000000000000000000000000000000000000000000000000008152600401611bfc90612c7b565b60405180910390fd5b6001600860006101000a81548160ff0219169083151502179055507faf85b60d26151edd11443b704d424da6c43d0468f2235ebae3d1904dbc32304981604051611c4f9190612252565b60405180910390a150565b60008054906101000a900473ffffffffffffffffffffffffffffffffffffffff1681565b6000808490508073ffffffffffffffffffffffffffffffffffffffff1663dd62ed3e85856040518363ffffffff1660e01b8152600401611cbf929190612c9b565b602060405180830381865afa158015611cdc573d6000803e3d6000fd5b505050506040513d601f19601f82011682018060405250810190611d0091906128c2565b9150509392505050565b60008060009054906101000a900473ffffffffffffffffffffffffffffffffffffffff16905090565b60075481565b600660149054906101000a900460ff1681565b60008411611d8f576040517f08c379a0000000000000000000000000000000000000000000000000000000008152600401611d8690612a59565b60405180910390fd5b6000829050848173ffffffffffffffffffffffffffffffffffffffff166370a08231866040518263ffffffff1660e01b8152600401611dce9190612cc4565b602060405180830381865afa158015611deb573d6000803e3d6000fd5b505050506040513d601f19601f82011682018060405250810190611e0f91906128c2565b1015611e50576040517f08c379a0000000000000000000000000000000000000000000000000000000008152600401611e4790612d2b565b60405180910390fd5b8073ffffffffffffffffffffffffffffffffffffffff166323b872dd8584886040518463ffffffff1660e01b8152600401611e8d93929190612d4b565b6020604051808303816000875af1158015611eac573d6000803e3d6000fd5b505050506040513d601f19601f82011682018060405250810190611ed0919061294e565b505050505050565b6000600354905090565b600660009054906101000a900473ffffffffffffffffffffffffffffffffffffffff1681565b6000600960008373ffffffffffffffffffffffffffffffffffffffff1673ffffffffffffffffffffffffffffffffffffffff168152602001908152602001600020549050919050565b60096020528060005260406000206000915090505481565b60008183611f779190612d82565b905092915050565b60008183611f8d9190612df3565b905092915050565b60008183611fa39190612879565b905092915050565b600080fd5b60008115159050919050565b611fc581611fb0565b8114611fd057600080fd5b50565b600081359050611fe281611fbc565b92915050565b600073ffffffffffffffffffffffffffffffffffffffff82169050919050565b600061201382611fe8565b9050919050565b61202381612008565b811461202e57600080fd5b50565b6000813590506120408161201a565b92915050565b6000819050919050565b61205981612046565b811461206457600080fd5b50565b60008135905061207681612050565b92915050565b600061208782611fe8565b9050919050565b6120978161207c565b81146120a257600080fd5b50565b6000813590506120b48161208e565b92915050565b600080600080600080600060e0888a0312156120d9576120d8611fab565b5b60006120e78a828b01611fd3565b97505060206120f88a828b01612031565b96505060406121098a828b01612067565b955050606061211a8a828b016120a5565b945050608061212b8a828b016120a5565b93505060a061213c8a828b01612031565b92505060c061214d8a828b01612067565b91505092959891949750929550565b61216581611fb0565b82525050565b6000602082019050612180600083018461215c565b92915050565b60008060006060848603121561219f5761219e611fab565b5b60006121ad86828701612031565b93505060206121be86828701612067565b92505060406121cf868287016120a5565b9150509250925092565b600080604083850312156121f0576121ef611fab565b5b60006121fe85828601611fd3565b925050602061220f858286016120a5565b9150509250929050565b61222281612046565b82525050565b600060208201905061223d6000830184612219565b92915050565b61224c8161207c565b82525050565b60006020820190506122676000830184612243565b92915050565b60008060006060848603121561228657612285611fab565b5b600061229486828701612067565b93505060206122a5868287016120a5565b92505060406122b686828701612031565b9150509250925092565b6000806000606084860312156122d9576122d8611fab565b5b60006122e7868287016120a5565b93505060206122f886828701612067565b9250506040612309868287016120a5565b9150509250925092565b61231c81612008565b82525050565b60006020820190506123376000830184612313565b92915050565b60006020828403121561235357612352611fab565b5b6000612361848285016120a5565b91505092915050565b60008060008060008060c0878903121561238757612386611fab565b5b600061239589828a01611fd3565b96505060206123a689828a01612067565b95505060406123b789828a016120a5565b94505060606123c889828a016120a5565b93505060806123d989828a01612031565b92505060a06123ea89828a01612067565b9150509295509295509295565b6000806000606084860312156124105761240f611fab565b5b600061241e868287016120a5565b935050602061242f86828701612031565b925050604061244086828701612031565b9150509250925092565b6000806000806080858703121561246457612463611fab565b5b600061247287828801612067565b945050602061248387828801612031565b9350506040612494878288016120a5565b92505060606124a587828801612031565b91505092959194509250565b6000819050919050565b60006124d66124d16124cc84611fe8565b6124b1565b611fe8565b9050919050565b60006124e8826124bb565b9050919050565b60006124fa826124dd565b9050919050565b61250a816124ef565b82525050565b60006020820190506125256000830184612501565b92915050565b600082825260208201905092915050565b7f4f6e6c7920746865206f776e6572206f72207468652062656e6566696369617260008201527f792063616e2077697468647261772066756e64732e0000000000000000000000602082015250565b600061259860358361252b565b91506125a38261253c565b604082019050919050565b600060208201905081810360008301526125c78161258b565b9050919050565b7f4e487b7100000000000000000000000000000000000000000000000000000000600052601160045260246000fd5b600061260882612046565b915061261383612046565b925082820190508082111561262b5761262a6125ce565b5b92915050565b7f546865207769746864726177616c20616d6f756e74206578636565647320746860008201527f65206c696d6974206f722064656c617920686173206e6f74207061737365642060208201527f7965742e00000000000000000000000000000000000000000000000000000000604082015250565b60006126b360448361252b565b91506126be82612631565b606082019050919050565b600060208201905081810360008301526126e2816126a6565b9050919050565b7f4163636f756e742069732066726f7a656e2c2063616e6e6f742077697468647260008201527f61772066756e64732e0000000000000000000000000000000000000000000000602082015250565b600061274560298361252b565b9150612750826126e9565b604082019050919050565b6000602082019050818103600083015261277481612738565b9050919050565b7f496e73756666696369656e742066756e64732e00000000000000000000000000600082015250565b60006127b160138361252b565b91506127bc8261277b565b602082019050919050565b600060208201905081810360008301526127e0816127a4565b9050919050565b7f5468652066756e6374696f6e20697320616c726561647920696e20657865637560008201527f74696f6e2e000000000000000000000000000000000000000000000000000000602082015250565b600061284360258361252b565b915061284e826127e7565b604082019050919050565b6000602082019050818103600083015261287281612836565b9050919050565b600061288482612046565b915061288f83612046565b92508282039050818111156128a7576128a66125ce565b5b92915050565b6000815190506128bc81612050565b92915050565b6000602082840312156128d8576128d7611fab565b5b60006128e6848285016128ad565b91505092915050565b60006128fa826124dd565b9050919050565b61290a816128ef565b82525050565b60006040820190506129256000830185612901565b6129326020830184612219565b9392505050565b60008151905061294881611fbc565b92915050565b60006020828403121561296457612963611fab565b5b600061297284828501612939565b91505092915050565b7f4f6e6c7920746865206f776e65722063616e20736574207468652062656e656660008201527f6963696172792e00000000000000000000000000000000000000000000000000602082015250565b60006129d760278361252b565b91506129e28261297b565b604082019050919050565b60006020820190508181036000830152612a06816129ca565b9050919050565b7f43616e6e6f74206465706f7369742030206f72206c6573732e00000000000000600082015250565b6000612a4360198361252b565b9150612a4e82612a0d565b602082019050919050565b60006020820190508181036000830152612a7281612a36565b9050919050565b7f4f6e6c7920746865206f776e65722063616e207365742074686520776974686460008201527f726177616c206c696d69742e0000000000000000000000000000000000000000602082015250565b6000612ad5602c8361252b565b9150612ae082612a79565b604082019050919050565b60006020820190508181036000830152612b0481612ac8565b9050919050565b7f4f6e6c7920746865206f776e65722063616e20756e667265657a65207468652060008201527f6163636f756e742e000000000000000000000000000000000000000000000000602082015250565b6000612b6760288361252b565b9150612b7282612b0b565b604082019050919050565b60006020820190508181036000830152612b9681612b5a565b9050919050565b7f546865726520617265206e6f2066756e647320746f2077697468647261772e00600082015250565b6000612bd3601f8361252b565b9150612bde82612b9d565b602082019050919050565b60006020820190508181036000830152612c0281612bc6565b9050919050565b7f4f6e6c7920746865206f776e65722063616e20667265657a652074686520616360008201527f636f756e742e0000000000000000000000000000000000000000000000000000602082015250565b6000612c6560268361252b565b9150612c7082612c09565b604082019050919050565b60006020820190508181036000830152612c9481612c58565b9050919050565b6000604082019050612cb06000830185612901565b612cbd6020830184612901565b9392505050565b6000602082019050612cd96000830184612901565b92915050565b7f496e73756666696369656e742062616c616e6365000000000000000000000000600082015250565b6000612d1560148361252b565b9150612d2082612cdf565b602082019050919050565b60006020820190508181036000830152612d4481612d08565b9050919050565b6000606082019050612d606000830186612901565b612d6d6020830185612901565b612d7a6040830184612219565b949350505050565b6000612d8d82612046565b9150612d9883612046565b9250828202612da681612046565b91508282048414831517612dbd57612dbc6125ce565b5b5092915050565b7f4e487b7100000000000000000000000000000000000000000000000000000000600052601260045260246000fd5b6000612dfe82612046565b9150612e0983612046565b925082612e1957612e18612dc4565b5b82820490509291505056fea2646970667358221220b21f8e5432e65311fdc9538fe1c3f76f1de470024d66fc53ba99a26d1f93223064736f6c63430008110033a26469706673582212206ca1b1131a4a9e55d9c206be53ce8bb833b346955de2f638184ebe48ca2dd8ff64736f6c63430008110033",
			"opcodes": "PUSH1 0x80 PUSH1 0x40 MSTORE CALLVALUE DUP1 ISZERO PUSH2 0x10 JUMPI PUSH1 0x0 DUP1 REVERT JUMPDEST POP PUSH2 0x51DD DUP1 PUSH2 0x20 PUSH1 0x0 CODECOPY PUSH1 0x0 RETURN INVALID PUSH1 0x80 PUSH1 0x40 MSTORE PUSH1 0x4 CALLDATASIZE LT PUSH3 0x12E JUMPI PUSH1 0x0 CALLDATALOAD PUSH1 0xE0 SHR DUP1 PUSH4 0x99074774 GT PUSH3 0xAF JUMPI DUP1 PUSH4 0xD7043BD4 GT PUSH3 0x6D JUMPI DUP1 PUSH4 0xD7043BD4 EQ PUSH3 0x44B JUMPI DUP1 PUSH4 0xDD784788 EQ PUSH3 0x46B JUMPI DUP1 PUSH4 0xDDF3883A EQ PUSH3 0x4AF JUMPI DUP1 PUSH4 0xDE341442 EQ PUSH3 0x4DF JUMPI DUP1 PUSH4 0xEE149B42 EQ PUSH3 0x4FF JUMPI PUSH3 0x12E JUMP JUMPDEST DUP1 PUSH4 0x99074774 EQ PUSH3 0x339 JUMPI DUP1 PUSH4 0xA77F3DA5 EQ PUSH3 0x37D JUMPI DUP1 PUSH4 0xB0FD9CA6 EQ PUSH3 0x3C1 JUMPI DUP1 PUSH4 0xCBAB0BA2 EQ PUSH3 0x3EF JUMPI DUP1 PUSH4 0xCDF004B3 EQ PUSH3 0x41D JUMPI PUSH3 0x12E JUMP JUMPDEST DUP1 PUSH4 0x4FD1F68B GT PUSH3 0xFD JUMPI DUP1 PUSH4 0x4FD1F68B EQ PUSH3 0x209 JUMPI DUP1 PUSH4 0x54C645AE EQ PUSH3 0x24D JUMPI DUP1 PUSH4 0x58976D8B EQ PUSH3 0x26D JUMPI DUP1 PUSH4 0x6E97A827 EQ PUSH3 0x2B1 JUMPI DUP1 PUSH4 0x8287E61E EQ PUSH3 0x2F5 JUMPI PUSH3 0x12E JUMP JUMPDEST DUP1 PUSH4 0x10F4C1FC EQ PUSH3 0x133 JUMPI DUP1 PUSH4 0x37C1FA7C EQ PUSH3 0x177 JUMPI DUP1 PUSH4 0x3CC2AA08 EQ PUSH3 0x1BB JUMPI DUP1 PUSH4 0x43915F04 EQ PUSH3 0x1DB JUMPI JUMPDEST PUSH1 0x0 DUP1 REVERT JUMPDEST CALLVALUE DUP1 ISZERO PUSH3 0x140 JUMPI PUSH1 0x0 DUP1 REVERT JUMPDEST POP PUSH3 0x15F PUSH1 0x4 DUP1 CALLDATASIZE SUB DUP2 ADD SWAP1 PUSH3 0x159 SWAP2 SWAP1 PUSH3 0x160A JUMP JUMPDEST PUSH3 0x543 JUMP JUMPDEST PUSH1 0x40 MLOAD PUSH3 0x16E SWAP2 SWAP1 PUSH3 0x1681 JUMP JUMPDEST PUSH1 0x40 MLOAD DUP1 SWAP2 SUB SWAP1 RETURN JUMPDEST CALLVALUE DUP1 ISZERO PUSH3 0x184 JUMPI PUSH1 0x0 DUP1 REVERT JUMPDEST POP PUSH3 0x1A3 PUSH1 0x4 DUP1 CALLDATASIZE SUB DUP2 ADD SWAP1 PUSH3 0x19D SWAP2 SWAP1 PUSH3 0x160A JUMP JUMPDEST PUSH3 0x5FE JUMP JUMPDEST PUSH1 0x40 MLOAD PUSH3 0x1B2 SWAP2 SWAP1 PUSH3 0x1681 JUMP JUMPDEST PUSH1 0x40 MLOAD DUP1 SWAP2 SUB SWAP1 RETURN JUMPDEST PUSH3 0x1D9 PUSH1 0x4 DUP1 CALLDATASIZE SUB DUP2 ADD SWAP1 PUSH3 0x1D3 SWAP2 SWAP1 PUSH3 0x1714 JUMP JUMPDEST PUSH3 0x6B9 JUMP JUMPDEST STOP JUMPDEST CALLVALUE DUP1 ISZERO PUSH3 0x1E8 JUMPI PUSH1 0x0 DUP1 REVERT JUMPDEST POP PUSH3 0x207 PUSH1 0x4 DUP1 CALLDATASIZE SUB DUP2 ADD SWAP1 PUSH3 0x201 SWAP2 SWAP1 PUSH3 0x179C JUMP JUMPDEST PUSH3 0x776 JUMP JUMPDEST STOP JUMPDEST CALLVALUE DUP1 ISZERO PUSH3 0x216 JUMPI PUSH1 0x0 DUP1 REVERT JUMPDEST POP PUSH3 0x235 PUSH1 0x4 DUP1 CALLDATASIZE SUB DUP2 ADD SWAP1 PUSH3 0x22F SWAP2 SWAP1 PUSH3 0x17F8 JUMP JUMPDEST PUSH3 0x82F JUMP JUMPDEST PUSH1 0x40 MLOAD PUSH3 0x244 SWAP2 SWAP1 PUSH3 0x18F8 JUMP JUMPDEST PUSH1 0x40 MLOAD DUP1 SWAP2 SUB SWAP1 RETURN JUMPDEST PUSH3 0x26B PUSH1 0x4 DUP1 CALLDATASIZE SUB DUP2 ADD SWAP1 PUSH3 0x265 SWAP2 SWAP1 PUSH3 0x1959 JUMP JUMPDEST PUSH3 0x9D3 JUMP JUMPDEST STOP JUMPDEST CALLVALUE DUP1 ISZERO PUSH3 0x27A JUMPI PUSH1 0x0 DUP1 REVERT JUMPDEST POP PUSH3 0x299 PUSH1 0x4 DUP1 CALLDATASIZE SUB DUP2 ADD SWAP1 PUSH3 0x293 SWAP2 SWAP1 PUSH3 0x160A JUMP JUMPDEST PUSH3 0xA95 JUMP JUMPDEST PUSH1 0x40 MLOAD PUSH3 0x2A8 SWAP2 SWAP1 PUSH3 0x1A06 JUMP JUMPDEST PUSH1 0x40 MLOAD DUP1 SWAP2 SUB SWAP1 RETURN JUMPDEST CALLVALUE DUP1 ISZERO PUSH3 0x2BE JUMPI PUSH1 0x0 DUP1 REVERT JUMPDEST POP PUSH3 0x2DD PUSH1 0x4 DUP1 CALLDATASIZE SUB DUP2 ADD SWAP1 PUSH3 0x2D7 SWAP2 SWAP1 PUSH3 0x1A23 JUMP JUMPDEST PUSH3 0xB50 JUMP JUMPDEST PUSH1 0x40 MLOAD PUSH3 0x2EC SWAP2 SWAP1 PUSH3 0x1A06 JUMP JUMPDEST PUSH1 0x40 MLOAD DUP1 SWAP2 SUB SWAP1 RETURN JUMPDEST CALLVALUE DUP1 ISZERO PUSH3 0x302 JUMPI PUSH1 0x0 DUP1 REVERT JUMPDEST POP PUSH3 0x321 PUSH1 0x4 DUP1 CALLDATASIZE SUB DUP2 ADD SWAP1 PUSH3 0x31B SWAP2 SWAP1 PUSH3 0x17F8 JUMP JUMPDEST PUSH3 0xC1C JUMP JUMPDEST PUSH1 0x40 MLOAD PUSH3 0x330 SWAP2 SWAP1 PUSH3 0x18F8 JUMP JUMPDEST PUSH1 0x40 MLOAD DUP1 SWAP2 SUB SWAP1 RETURN JUMPDEST CALLVALUE DUP1 ISZERO PUSH3 0x346 JUMPI PUSH1 0x0 DUP1 REVERT JUMPDEST POP PUSH3 0x365 PUSH1 0x4 DUP1 CALLDATASIZE SUB DUP2 ADD SWAP1 PUSH3 0x35F SWAP2 SWAP1 PUSH3 0x1A7F JUMP JUMPDEST PUSH3 0xDC0 JUMP JUMPDEST PUSH1 0x40 MLOAD PUSH3 0x374 SWAP2 SWAP1 PUSH3 0x1A06 JUMP JUMPDEST PUSH1 0x40 MLOAD DUP1 SWAP2 SUB SWAP1 RETURN JUMPDEST CALLVALUE DUP1 ISZERO PUSH3 0x38A JUMPI PUSH1 0x0 DUP1 REVERT JUMPDEST POP PUSH3 0x3A9 PUSH1 0x4 DUP1 CALLDATASIZE SUB DUP2 ADD SWAP1 PUSH3 0x3A3 SWAP2 SWAP1 PUSH3 0x1AF1 JUMP JUMPDEST PUSH3 0xE8F JUMP JUMPDEST PUSH1 0x40 MLOAD PUSH3 0x3B8 SWAP2 SWAP1 PUSH3 0x1A06 JUMP JUMPDEST PUSH1 0x40 MLOAD DUP1 SWAP2 SUB SWAP1 RETURN JUMPDEST CALLVALUE DUP1 ISZERO PUSH3 0x3CE JUMPI PUSH1 0x0 DUP1 REVERT JUMPDEST POP PUSH3 0x3ED PUSH1 0x4 DUP1 CALLDATASIZE SUB DUP2 ADD SWAP1 PUSH3 0x3E7 SWAP2 SWAP1 PUSH3 0x1B38 JUMP JUMPDEST PUSH3 0xF58 JUMP JUMPDEST STOP JUMPDEST CALLVALUE DUP1 ISZERO PUSH3 0x3FC JUMPI PUSH1 0x0 DUP1 REVERT JUMPDEST POP PUSH3 0x41B PUSH1 0x4 DUP1 CALLDATASIZE SUB DUP2 ADD SWAP1 PUSH3 0x415 SWAP2 SWAP1 PUSH3 0x160A JUMP JUMPDEST PUSH3 0x1134 JUMP JUMPDEST STOP JUMPDEST CALLVALUE DUP1 ISZERO PUSH3 0x42A JUMPI PUSH1 0x0 DUP1 REVERT JUMPDEST POP PUSH3 0x449 PUSH1 0x4 DUP1 CALLDATASIZE SUB DUP2 ADD SWAP1 PUSH3 0x443 SWAP2 SWAP1 PUSH3 0x160A JUMP JUMPDEST PUSH3 0x11E7 JUMP JUMPDEST STOP JUMPDEST PUSH3 0x469 PUSH1 0x4 DUP1 CALLDATASIZE SUB DUP2 ADD SWAP1 PUSH3 0x463 SWAP2 SWAP1 PUSH3 0x1B94 JUMP JUMPDEST PUSH3 0x129A JUMP JUMPDEST STOP JUMPDEST CALLVALUE DUP1 ISZERO PUSH3 0x478 JUMPI PUSH1 0x0 DUP1 REVERT JUMPDEST POP PUSH3 0x497 PUSH1 0x4 DUP1 CALLDATASIZE SUB DUP2 ADD SWAP1 PUSH3 0x491 SWAP2 SWAP1 PUSH3 0x160A JUMP JUMPDEST PUSH3 0x1354 JUMP JUMPDEST PUSH1 0x40 MLOAD PUSH3 0x4A6 SWAP2 SWAP1 PUSH3 0x1C71 JUMP JUMPDEST PUSH1 0x40 MLOAD DUP1 SWAP2 SUB SWAP1 RETURN JUMPDEST CALLVALUE DUP1 ISZERO PUSH3 0x4BC JUMPI PUSH1 0x0 DUP1 REVERT JUMPDEST POP PUSH3 0x4C7 PUSH3 0x1394 JUMP JUMPDEST PUSH1 0x40 MLOAD PUSH3 0x4D6 SWAP2 SWAP1 PUSH3 0x1681 JUMP JUMPDEST PUSH1 0x40 MLOAD DUP1 SWAP2 SUB SWAP1 RETURN JUMPDEST PUSH3 0x4FD PUSH1 0x4 DUP1 CALLDATASIZE SUB DUP2 ADD SWAP1 PUSH3 0x4F7 SWAP2 SWAP1 PUSH3 0x1C8E JUMP JUMPDEST PUSH3 0x143C JUMP JUMPDEST STOP JUMPDEST CALLVALUE DUP1 ISZERO PUSH3 0x50C JUMPI PUSH1 0x0 DUP1 REVERT JUMPDEST POP PUSH3 0x52B PUSH1 0x4 DUP1 CALLDATASIZE SUB DUP2 ADD SWAP1 PUSH3 0x525 SWAP2 SWAP1 PUSH3 0x160A JUMP JUMPDEST PUSH3 0x1501 JUMP JUMPDEST PUSH1 0x40 MLOAD PUSH3 0x53A SWAP2 SWAP1 PUSH3 0x1A06 JUMP JUMPDEST PUSH1 0x40 MLOAD DUP1 SWAP2 SUB SWAP1 RETURN JUMPDEST PUSH1 0x0 DUP1 DUP3 DUP2 SLOAD DUP2 LT PUSH3 0x55B JUMPI PUSH3 0x55A PUSH3 0x1D41 JUMP JUMPDEST JUMPDEST SWAP1 PUSH1 0x0 MSTORE PUSH1 0x20 PUSH1 0x0 KECCAK256 ADD PUSH1 0x0 SWAP1 SLOAD SWAP1 PUSH2 0x100 EXP SWAP1 DIV PUSH20 0xFFFFFFFFFFFFFFFFFFFFFFFFFFFFFFFFFFFFFFFF AND PUSH20 0xFFFFFFFFFFFFFFFFFFFFFFFFFFFFFFFFFFFFFFFF AND PUSH4 0x23658AF4 PUSH1 0x40 MLOAD DUP2 PUSH4 0xFFFFFFFF AND PUSH1 0xE0 SHL DUP2 MSTORE PUSH1 0x4 ADD PUSH1 0x20 PUSH1 0x40 MLOAD DUP1 DUP4 SUB DUP2 DUP7 GAS STATICCALL ISZERO DUP1 ISZERO PUSH3 0x5D1 JUMPI RETURNDATASIZE PUSH1 0x0 DUP1 RETURNDATACOPY RETURNDATASIZE PUSH1 0x0 REVERT JUMPDEST POP POP POP POP PUSH1 0x40 MLOAD RETURNDATASIZE PUSH1 0x1F NOT PUSH1 0x1F DUP3 ADD AND DUP3 ADD DUP1 PUSH1 0x40 MSTORE POP DUP2 ADD SWAP1 PUSH3 0x5F7 SWAP2 SWAP1 PUSH3 0x1D87 JUMP JUMPDEST SWAP1 POP SWAP2 SWAP1 POP JUMP JUMPDEST PUSH1 0x0 DUP1 DUP3 DUP2 SLOAD DUP2 LT PUSH3 0x616 JUMPI PUSH3 0x615 PUSH3 0x1D41 JUMP JUMPDEST JUMPDEST SWAP1 PUSH1 0x0 MSTORE PUSH1 0x20 PUSH1 0x0 KECCAK256 ADD PUSH1 0x0 SWAP1 SLOAD SWAP1 PUSH2 0x100 EXP SWAP1 DIV PUSH20 0xFFFFFFFFFFFFFFFFFFFFFFFFFFFFFFFFFFFFFFFF AND PUSH20 0xFFFFFFFFFFFFFFFFFFFFFFFFFFFFFFFFFFFFFFFF AND PUSH4 0x94A927FE PUSH1 0x40 MLOAD DUP2 PUSH4 0xFFFFFFFF AND PUSH1 0xE0 SHL DUP2 MSTORE PUSH1 0x4 ADD PUSH1 0x20 PUSH1 0x40 MLOAD DUP1 DUP4 SUB DUP2 DUP7 GAS STATICCALL ISZERO DUP1 ISZERO PUSH3 0x68C JUMPI RETURNDATASIZE PUSH1 0x0 DUP1 RETURNDATACOPY RETURNDATASIZE PUSH1 0x0 REVERT JUMPDEST POP POP POP POP PUSH1 0x40 MLOAD RETURNDATASIZE PUSH1 0x1F NOT PUSH1 0x1F DUP3 ADD AND DUP3 ADD DUP1 PUSH1 0x40 MSTORE POP DUP2 ADD SWAP1 PUSH3 0x6B2 SWAP2 SWAP1 PUSH3 0x1D87 JUMP JUMPDEST SWAP1 POP SWAP2 SWAP1 POP JUMP JUMPDEST PUSH1 0x0 DUP6 DUP2 SLOAD DUP2 LT PUSH3 0x6D0 JUMPI PUSH3 0x6CF PUSH3 0x1D41 JUMP JUMPDEST JUMPDEST SWAP1 PUSH1 0x0 MSTORE PUSH1 0x20 PUSH1 0x0 KECCAK256 ADD PUSH1 0x0 SWAP1 SLOAD SWAP1 PUSH2 0x100 EXP SWAP1 DIV PUSH20 0xFFFFFFFFFFFFFFFFFFFFFFFFFFFFFFFFFFFFFFFF AND PUSH20 0xFFFFFFFFFFFFFFFFFFFFFFFFFFFFFFFFFFFFFFFF AND PUSH4 0xC250283C DUP6 DUP6 DUP6 DUP6 PUSH1 0x40 MLOAD DUP6 PUSH4 0xFFFFFFFF AND PUSH1 0xE0 SHL DUP2 MSTORE PUSH1 0x4 ADD PUSH3 0x73B SWAP5 SWAP4 SWAP3 SWAP2 SWAP1 PUSH3 0x1DCA JUMP JUMPDEST PUSH1 0x0 PUSH1 0x40 MLOAD DUP1 DUP4 SUB DUP2 PUSH1 0x0 DUP8 DUP1 EXTCODESIZE ISZERO DUP1 ISZERO PUSH3 0x756 JUMPI PUSH1 0x0 DUP1 REVERT JUMPDEST POP GAS CALL ISZERO DUP1 ISZERO PUSH3 0x76B JUMPI RETURNDATASIZE PUSH1 0x0 DUP1 RETURNDATACOPY RETURNDATASIZE PUSH1 0x0 REVERT JUMPDEST POP POP POP POP POP POP POP POP POP JUMP JUMPDEST PUSH1 0x0 DUP4 DUP2 SLOAD DUP2 LT PUSH3 0x78D JUMPI PUSH3 0x78C PUSH3 0x1D41 JUMP JUMPDEST JUMPDEST SWAP1 PUSH1 0x0 MSTORE PUSH1 0x20 PUSH1 0x0 KECCAK256 ADD PUSH1 0x0 SWAP1 SLOAD SWAP1 PUSH2 0x100 EXP SWAP1 DIV PUSH20 0xFFFFFFFFFFFFFFFFFFFFFFFFFFFFFFFFFFFFFFFF AND PUSH20 0xFFFFFFFFFFFFFFFFFFFFFFFFFFFFFFFFFFFFFFFF AND PUSH4 0xA84AAC5 DUP4 DUP4 CALLER PUSH1 0x40 MLOAD DUP5 PUSH4 0xFFFFFFFF AND PUSH1 0xE0 SHL DUP2 MSTORE PUSH1 0x4 ADD PUSH3 0x7F6 SWAP4 SWAP3 SWAP2 SWAP1 PUSH3 0x1E17 JUMP JUMPDEST PUSH1 0x0 PUSH1 0x40 MLOAD DUP1 DUP4 SUB DUP2 PUSH1 0x0 DUP8 DUP1 EXTCODESIZE ISZERO DUP1 ISZERO PUSH3 0x811 JUMPI PUSH1 0x0 DUP1 REVERT JUMPDEST POP GAS CALL ISZERO DUP1 ISZERO PUSH3 0x826 JUMPI RETURNDATASIZE PUSH1 0x0 DUP1 RETURNDATACOPY RETURNDATASIZE PUSH1 0x0 REVERT JUMPDEST POP POP POP POP POP POP POP JUMP JUMPDEST PUSH1 0x60 PUSH1 0x0 DUP1 DUP1 SLOAD SWAP1 POP PUSH8 0xFFFFFFFFFFFFFFFF DUP2 GT ISZERO PUSH3 0x854 JUMPI PUSH3 0x853 PUSH3 0x1E54 JUMP JUMPDEST JUMPDEST PUSH1 0x40 MLOAD SWAP1 DUP1 DUP3 MSTORE DUP1 PUSH1 0x20 MUL PUSH1 0x20 ADD DUP3 ADD PUSH1 0x40 MSTORE DUP1 ISZERO PUSH3 0x883 JUMPI DUP2 PUSH1 0x20 ADD PUSH1 0x20 DUP3 MUL DUP1 CALLDATASIZE DUP4 CALLDATACOPY DUP1 DUP3 ADD SWAP2 POP POP SWAP1 POP JUMPDEST POP SWAP1 POP PUSH1 0x0 DUP1 JUMPDEST PUSH1 0x0 DUP1 SLOAD SWAP1 POP DUP2 LT ISZERO PUSH3 0x9C8 JUMPI DUP5 PUSH20 0xFFFFFFFFFFFFFFFFFFFFFFFFFFFFFFFFFFFFFFFF AND PUSH1 0x0 DUP3 DUP2 SLOAD DUP2 LT PUSH3 0x8C6 JUMPI PUSH3 0x8C5 PUSH3 0x1D41 JUMP JUMPDEST JUMPDEST SWAP1 PUSH1 0x0 MSTORE PUSH1 0x20 PUSH1 0x0 KECCAK256 ADD PUSH1 0x0 SWAP1 SLOAD SWAP1 PUSH2 0x100 EXP SWAP1 DIV PUSH20 0xFFFFFFFFFFFFFFFFFFFFFFFFFFFFFFFFFFFFFFFF AND PUSH20 0xFFFFFFFFFFFFFFFFFFFFFFFFFFFFFFFFFFFFFFFF AND PUSH4 0x94A927FE PUSH1 0x40 MLOAD DUP2 PUSH4 0xFFFFFFFF AND PUSH1 0xE0 SHL DUP2 MSTORE PUSH1 0x4 ADD PUSH1 0x20 PUSH1 0x40 MLOAD DUP1 DUP4 SUB DUP2 DUP7 GAS STATICCALL ISZERO DUP1 ISZERO PUSH3 0x93C JUMPI RETURNDATASIZE PUSH1 0x0 DUP1 RETURNDATACOPY RETURNDATASIZE PUSH1 0x0 REVERT JUMPDEST POP POP POP POP PUSH1 0x40 MLOAD RETURNDATASIZE PUSH1 0x1F NOT PUSH1 0x1F DUP3 ADD AND DUP3 ADD DUP1 PUSH1 0x40 MSTORE POP DUP2 ADD SWAP1 PUSH3 0x962 SWAP2 SWAP1 PUSH3 0x1D87 JUMP JUMPDEST PUSH20 0xFFFFFFFFFFFFFFFFFFFFFFFFFFFFFFFFFFFFFFFF AND SUB PUSH3 0x9B2 JUMPI DUP1 DUP4 DUP4 DUP2 MLOAD DUP2 LT PUSH3 0x995 JUMPI PUSH3 0x994 PUSH3 0x1D41 JUMP JUMPDEST JUMPDEST PUSH1 0x20 MUL PUSH1 0x20 ADD ADD DUP2 DUP2 MSTORE POP POP DUP2 DUP1 PUSH3 0x9AE SWAP1 PUSH3 0x1EB2 JUMP JUMPDEST SWAP3 POP POP JUMPDEST DUP1 DUP1 PUSH3 0x9BF SWAP1 PUSH3 0x1EB2 JUMP JUMPDEST SWAP2 POP POP PUSH3 0x88A JUMP JUMPDEST POP DUP2 SWAP3 POP POP POP SWAP2 SWAP1 POP JUMP JUMPDEST PUSH1 0x0 DUP7 DUP2 SLOAD DUP2 LT PUSH3 0x9EA JUMPI PUSH3 0x9E9 PUSH3 0x1D41 JUMP JUMPDEST JUMPDEST SWAP1 PUSH1 0x0 MSTORE PUSH1 0x20 PUSH1 0x0 KECCAK256 ADD PUSH1 0x0 SWAP1 SLOAD SWAP1 PUSH2 0x100 EXP SWAP1 DIV PUSH20 0xFFFFFFFFFFFFFFFFFFFFFFFFFFFFFFFFFFFFFFFF AND PUSH20 0xFFFFFFFFFFFFFFFFFFFFFFFFFFFFFFFFFFFFFFFF AND PUSH4 0x87C2797D DUP7 DUP7 DUP7 CALLER DUP8 DUP8 PUSH1 0x40 MLOAD DUP8 PUSH4 0xFFFFFFFF AND PUSH1 0xE0 SHL DUP2 MSTORE PUSH1 0x4 ADD PUSH3 0xA59 SWAP7 SWAP6 SWAP5 SWAP4 SWAP3 SWAP2 SWAP1 PUSH3 0x1F10 JUMP JUMPDEST PUSH1 0x0 PUSH1 0x40 MLOAD DUP1 DUP4 SUB DUP2 PUSH1 0x0 DUP8 DUP1 EXTCODESIZE ISZERO DUP1 ISZERO PUSH3 0xA74 JUMPI PUSH1 0x0 DUP1 REVERT JUMPDEST POP GAS CALL ISZERO DUP1 ISZERO PUSH3 0xA89 JUMPI RETURNDATASIZE PUSH1 0x0 DUP1 RETURNDATACOPY RETURNDATASIZE PUSH1 0x0 REVERT JUMPDEST POP POP POP POP POP POP POP POP POP POP JUMP JUMPDEST PUSH1 0x0 DUP1 DUP3 DUP2 SLOAD DUP2 LT PUSH3 0xAAD JUMPI PUSH3 0xAAC PUSH3 0x1D41 JUMP JUMPDEST JUMPDEST SWAP1 PUSH1 0x0 MSTORE PUSH1 0x20 PUSH1 0x0 KECCAK256 ADD PUSH1 0x0 SWAP1 SLOAD SWAP1 PUSH2 0x100 EXP SWAP1 DIV PUSH20 0xFFFFFFFFFFFFFFFFFFFFFFFFFFFFFFFFFFFFFFFF AND PUSH20 0xFFFFFFFFFFFFFFFFFFFFFFFFFFFFFFFFFFFFFFFF AND PUSH4 0x4BFFFC86 PUSH1 0x40 MLOAD DUP2 PUSH4 0xFFFFFFFF AND PUSH1 0xE0 SHL DUP2 MSTORE PUSH1 0x4 ADD PUSH1 0x20 PUSH1 0x40 MLOAD DUP1 DUP4 SUB DUP2 DUP7 GAS STATICCALL ISZERO DUP1 ISZERO PUSH3 0xB23 JUMPI RETURNDATASIZE PUSH1 0x0 DUP1 RETURNDATACOPY RETURNDATASIZE PUSH1 0x0 REVERT JUMPDEST POP POP POP POP PUSH1 0x40 MLOAD RETURNDATASIZE PUSH1 0x1F NOT PUSH1 0x1F DUP3 ADD AND DUP3 ADD DUP1 PUSH1 0x40 MSTORE POP DUP2 ADD SWAP1 PUSH3 0xB49 SWAP2 SWAP1 PUSH3 0x1F94 JUMP JUMPDEST SWAP1 POP SWAP2 SWAP1 POP JUMP JUMPDEST PUSH1 0x0 DUP1 DUP5 DUP2 SLOAD DUP2 LT PUSH3 0xB68 JUMPI PUSH3 0xB67 PUSH3 0x1D41 JUMP JUMPDEST JUMPDEST SWAP1 PUSH1 0x0 MSTORE PUSH1 0x20 PUSH1 0x0 KECCAK256 ADD PUSH1 0x0 SWAP1 SLOAD SWAP1 PUSH2 0x100 EXP SWAP1 DIV PUSH20 0xFFFFFFFFFFFFFFFFFFFFFFFFFFFFFFFFFFFFFFFF AND PUSH20 0xFFFFFFFFFFFFFFFFFFFFFFFFFFFFFFFFFFFFFFFF AND PUSH4 0x1903B431 DUP5 DUP5 PUSH1 0x40 MLOAD DUP4 PUSH4 0xFFFFFFFF AND PUSH1 0xE0 SHL DUP2 MSTORE PUSH1 0x4 ADD PUSH3 0xBCF SWAP3 SWAP2 SWAP1 PUSH3 0x1FC6 JUMP JUMPDEST PUSH1 0x20 PUSH1 0x40 MLOAD DUP1 DUP4 SUB DUP2 DUP7 GAS STATICCALL ISZERO DUP1 ISZERO PUSH3 0xBED JUMPI RETURNDATASIZE PUSH1 0x0 DUP1 RETURNDATACOPY RETURNDATASIZE PUSH1 0x0 REVERT JUMPDEST POP POP POP POP PUSH1 0x40 MLOAD RETURNDATASIZE PUSH1 0x1F NOT PUSH1 0x1F DUP3 ADD AND DUP3 ADD DUP1 PUSH1 0x40 MSTORE POP DUP2 ADD SWAP1 PUSH3 0xC13 SWAP2 SWAP1 PUSH3 0x1F94 JUMP JUMPDEST SWAP1 POP SWAP4 SWAP3 POP POP POP JUMP JUMPDEST PUSH1 0x60 PUSH1 0x0 DUP1 DUP1 SLOAD SWAP1 POP PUSH8 0xFFFFFFFFFFFFFFFF DUP2 GT ISZERO PUSH3 0xC41 JUMPI PUSH3 0xC40 PUSH3 0x1E54 JUMP JUMPDEST JUMPDEST PUSH1 0x40 MLOAD SWAP1 DUP1 DUP3 MSTORE DUP1 PUSH1 0x20 MUL PUSH1 0x20 ADD DUP3 ADD PUSH1 0x40 MSTORE DUP1 ISZERO PUSH3 0xC70 JUMPI DUP2 PUSH1 0x20 ADD PUSH1 0x20 DUP3 MUL DUP1 CALLDATASIZE DUP4 CALLDATACOPY DUP1 DUP3 ADD SWAP2 POP POP SWAP1 POP JUMPDEST POP SWAP1 POP PUSH1 0x0 DUP1 JUMPDEST PUSH1 0x0 DUP1 SLOAD SWAP1 POP DUP2 LT ISZERO PUSH3 0xDB5 JUMPI DUP5 PUSH20 0xFFFFFFFFFFFFFFFFFFFFFFFFFFFFFFFFFFFFFFFF AND PUSH1 0x0 DUP3 DUP2 SLOAD DUP2 LT PUSH3 0xCB3 JUMPI PUSH3 0xCB2 PUSH3 0x1D41 JUMP JUMPDEST JUMPDEST SWAP1 PUSH1 0x0 MSTORE PUSH1 0x20 PUSH1 0x0 KECCAK256 ADD PUSH1 0x0 SWAP1 SLOAD SWAP1 PUSH2 0x100 EXP SWAP1 DIV PUSH20 0xFFFFFFFFFFFFFFFFFFFFFFFFFFFFFFFFFFFFFFFF AND PUSH20 0xFFFFFFFFFFFFFFFFFFFFFFFFFFFFFFFFFFFFFFFF AND PUSH4 0x23658AF4 PUSH1 0x40 MLOAD DUP2 PUSH4 0xFFFFFFFF AND PUSH1 0xE0 SHL DUP2 MSTORE PUSH1 0x4 ADD PUSH1 0x20 PUSH1 0x40 MLOAD DUP1 DUP4 SUB DUP2 DUP7 GAS STATICCALL ISZERO DUP1 ISZERO PUSH3 0xD29 JUMPI RETURNDATASIZE PUSH1 0x0 DUP1 RETURNDATACOPY RETURNDATASIZE PUSH1 0x0 REVERT JUMPDEST POP POP POP POP PUSH1 0x40 MLOAD RETURNDATASIZE PUSH1 0x1F NOT PUSH1 0x1F DUP3 ADD AND DUP3 ADD DUP1 PUSH1 0x40 MSTORE POP DUP2 ADD SWAP1 PUSH3 0xD4F SWAP2 SWAP1 PUSH3 0x1D87 JUMP JUMPDEST PUSH20 0xFFFFFFFFFFFFFFFFFFFFFFFFFFFFFFFFFFFFFFFF AND SUB PUSH3 0xD9F JUMPI DUP1 DUP4 DUP4 DUP2 MLOAD DUP2 LT PUSH3 0xD82 JUMPI PUSH3 0xD81 PUSH3 0x1D41 JUMP JUMPDEST JUMPDEST PUSH1 0x20 MUL PUSH1 0x20 ADD ADD DUP2 DUP2 MSTORE POP POP DUP2 DUP1 PUSH3 0xD9B SWAP1 PUSH3 0x1EB2 JUMP JUMPDEST SWAP3 POP POP JUMPDEST DUP1 DUP1 PUSH3 0xDAC SWAP1 PUSH3 0x1EB2 JUMP JUMPDEST SWAP2 POP POP PUSH3 0xC77 JUMP JUMPDEST POP DUP2 SWAP3 POP POP POP SWAP2 SWAP1 POP JUMP JUMPDEST PUSH1 0x0 DUP1 DUP6 DUP2 SLOAD DUP2 LT PUSH3 0xDD8 JUMPI PUSH3 0xDD7 PUSH3 0x1D41 JUMP JUMPDEST JUMPDEST SWAP1 PUSH1 0x0 MSTORE PUSH1 0x20 PUSH1 0x0 KECCAK256 ADD PUSH1 0x0 SWAP1 SLOAD SWAP1 PUSH2 0x100 EXP SWAP1 DIV PUSH20 0xFFFFFFFFFFFFFFFFFFFFFFFFFFFFFFFFFFFFFFFF AND PUSH20 0xFFFFFFFFFFFFFFFFFFFFFFFFFFFFFFFFFFFFFFFF AND PUSH4 0x927DA105 DUP6 DUP6 DUP6 PUSH1 0x40 MLOAD DUP5 PUSH4 0xFFFFFFFF AND PUSH1 0xE0 SHL DUP2 MSTORE PUSH1 0x4 ADD PUSH3 0xE41 SWAP4 SWAP3 SWAP2 SWAP1 PUSH3 0x1FF3 JUMP JUMPDEST PUSH1 0x20 PUSH1 0x40 MLOAD DUP1 DUP4 SUB DUP2 DUP7 GAS STATICCALL ISZERO DUP1 ISZERO PUSH3 0xE5F JUMPI RETURNDATASIZE PUSH1 0x0 DUP1 RETURNDATACOPY RETURNDATASIZE PUSH1 0x0 REVERT JUMPDEST POP POP POP POP PUSH1 0x40 MLOAD RETURNDATASIZE PUSH1 0x1F NOT PUSH1 0x1F DUP3 ADD AND DUP3 ADD DUP1 PUSH1 0x40 MSTORE POP DUP2 ADD SWAP1 PUSH3 0xE85 SWAP2 SWAP1 PUSH3 0x1F94 JUMP JUMPDEST SWAP1 POP SWAP5 SWAP4 POP POP POP POP JUMP JUMPDEST PUSH1 0x0 DUP1 DUP4 DUP2 SLOAD DUP2 LT PUSH3 0xEA7 JUMPI PUSH3 0xEA6 PUSH3 0x1D41 JUMP JUMPDEST JUMPDEST SWAP1 PUSH1 0x0 MSTORE PUSH1 0x20 PUSH1 0x0 KECCAK256 ADD PUSH1 0x0 SWAP1 SLOAD SWAP1 PUSH2 0x100 EXP SWAP1 DIV PUSH20 0xFFFFFFFFFFFFFFFFFFFFFFFFFFFFFFFFFFFFFFFF AND PUSH20 0xFFFFFFFFFFFFFFFFFFFFFFFFFFFFFFFFFFFFFFFF AND PUSH4 0xD4FB7E2D DUP4 PUSH1 0x40 MLOAD DUP3 PUSH4 0xFFFFFFFF AND PUSH1 0xE0 SHL DUP2 MSTORE PUSH1 0x4 ADD PUSH3 0xF0C SWAP2 SWAP1 PUSH3 0x1681 JUMP JUMPDEST PUSH1 0x20 PUSH1 0x40 MLOAD DUP1 DUP4 SUB DUP2 DUP7 GAS STATICCALL ISZERO DUP1 ISZERO PUSH3 0xF2A JUMPI RETURNDATASIZE PUSH1 0x0 DUP1 RETURNDATACOPY RETURNDATASIZE PUSH1 0x0 REVERT JUMPDEST POP POP POP POP PUSH1 0x40 MLOAD RETURNDATASIZE PUSH1 0x1F NOT PUSH1 0x1F DUP3 ADD AND DUP3 ADD DUP1 PUSH1 0x40 MSTORE POP DUP2 ADD SWAP1 PUSH3 0xF50 SWAP2 SWAP1 PUSH3 0x1F94 JUMP JUMPDEST SWAP1 POP SWAP3 SWAP2 POP POP JUMP JUMPDEST CALLER PUSH20 0xFFFFFFFFFFFFFFFFFFFFFFFFFFFFFFFFFFFFFFFF AND PUSH1 0x0 DUP5 DUP2 SLOAD DUP2 LT PUSH3 0xF86 JUMPI PUSH3 0xF85 PUSH3 0x1D41 JUMP JUMPDEST JUMPDEST SWAP1 PUSH1 0x0 MSTORE PUSH1 0x20 PUSH1 0x0 KECCAK256 ADD PUSH1 0x0 SWAP1 SLOAD SWAP1 PUSH2 0x100 EXP SWAP1 DIV PUSH20 0xFFFFFFFFFFFFFFFFFFFFFFFFFFFFFFFFFFFFFFFF AND PUSH20 0xFFFFFFFFFFFFFFFFFFFFFFFFFFFFFFFFFFFFFFFF AND PUSH4 0x94A927FE PUSH1 0x40 MLOAD DUP2 PUSH4 0xFFFFFFFF AND PUSH1 0xE0 SHL DUP2 MSTORE PUSH1 0x4 ADD PUSH1 0x20 PUSH1 0x40 MLOAD DUP1 DUP4 SUB DUP2 DUP7 GAS STATICCALL ISZERO DUP1 ISZERO PUSH3 0xFFC JUMPI RETURNDATASIZE PUSH1 0x0 DUP1 RETURNDATACOPY RETURNDATASIZE PUSH1 0x0 REVERT JUMPDEST POP POP POP POP PUSH1 0x40 MLOAD RETURNDATASIZE PUSH1 0x1F NOT PUSH1 0x1F DUP3 ADD AND DUP3 ADD DUP1 PUSH1 0x40 MSTORE POP DUP2 ADD SWAP1 PUSH3 0x1022 SWAP2 SWAP1 PUSH3 0x1D87 JUMP JUMPDEST PUSH20 0xFFFFFFFFFFFFFFFFFFFFFFFFFFFFFFFFFFFFFFFF AND EQ PUSH3 0x107B JUMPI PUSH1 0x40 MLOAD PUSH32 0x8C379A000000000000000000000000000000000000000000000000000000000 DUP2 MSTORE PUSH1 0x4 ADD PUSH3 0x1072 SWAP1 PUSH3 0x20B7 JUMP JUMPDEST PUSH1 0x40 MLOAD DUP1 SWAP2 SUB SWAP1 REVERT JUMPDEST PUSH1 0x0 DUP4 DUP2 SLOAD DUP2 LT PUSH3 0x1092 JUMPI PUSH3 0x1091 PUSH3 0x1D41 JUMP JUMPDEST JUMPDEST SWAP1 PUSH1 0x0 MSTORE PUSH1 0x20 PUSH1 0x0 KECCAK256 ADD PUSH1 0x0 SWAP1 SLOAD SWAP1 PUSH2 0x100 EXP SWAP1 DIV PUSH20 0xFFFFFFFFFFFFFFFFFFFFFFFFFFFFFFFFFFFFFFFF AND PUSH20 0xFFFFFFFFFFFFFFFFFFFFFFFFFFFFFFFFFFFFFFFF AND PUSH4 0x342AC615 CALLER DUP5 DUP5 PUSH1 0x40 MLOAD DUP5 PUSH4 0xFFFFFFFF AND PUSH1 0xE0 SHL DUP2 MSTORE PUSH1 0x4 ADD PUSH3 0x10FB SWAP4 SWAP3 SWAP2 SWAP1 PUSH3 0x20D9 JUMP JUMPDEST PUSH1 0x0 PUSH1 0x40 MLOAD DUP1 DUP4 SUB DUP2 PUSH1 0x0 DUP8 DUP1 EXTCODESIZE ISZERO DUP1 ISZERO PUSH3 0x1116 JUMPI PUSH1 0x0 DUP1 REVERT JUMPDEST POP GAS CALL ISZERO DUP1 ISZERO PUSH3 0x112B JUMPI RETURNDATASIZE PUSH1 0x0 DUP1 RETURNDATACOPY RETURNDATASIZE PUSH1 0x0 REVERT JUMPDEST POP POP POP POP POP POP POP JUMP JUMPDEST PUSH1 0x0 DUP2 DUP2 SLOAD DUP2 LT PUSH3 0x114B JUMPI PUSH3 0x114A PUSH3 0x1D41 JUMP JUMPDEST JUMPDEST SWAP1 PUSH1 0x0 MSTORE PUSH1 0x20 PUSH1 0x0 KECCAK256 ADD PUSH1 0x0 SWAP1 SLOAD SWAP1 PUSH2 0x100 EXP SWAP1 DIV PUSH20 0xFFFFFFFFFFFFFFFFFFFFFFFFFFFFFFFFFFFFFFFF AND PUSH20 0xFFFFFFFFFFFFFFFFFFFFFFFFFFFFFFFFFFFFFFFF AND PUSH4 0x8D1FDF2F CALLER PUSH1 0x40 MLOAD DUP3 PUSH4 0xFFFFFFFF AND PUSH1 0xE0 SHL DUP2 MSTORE PUSH1 0x4 ADD PUSH3 0x11B0 SWAP2 SWAP1 PUSH3 0x1681 JUMP JUMPDEST PUSH1 0x0 PUSH1 0x40 MLOAD DUP1 DUP4 SUB DUP2 PUSH1 0x0 DUP8 DUP1 EXTCODESIZE ISZERO DUP1 ISZERO PUSH3 0x11CB JUMPI PUSH1 0x0 DUP1 REVERT JUMPDEST POP GAS CALL ISZERO DUP1 ISZERO PUSH3 0x11E0 JUMPI RETURNDATASIZE PUSH1 0x0 DUP1 RETURNDATACOPY RETURNDATASIZE PUSH1 0x0 REVERT JUMPDEST POP POP POP POP POP JUMP JUMPDEST PUSH1 0x0 DUP2 DUP2 SLOAD DUP2 LT PUSH3 0x11FE JUMPI PUSH3 0x11FD PUSH3 0x1D41 JUMP JUMPDEST JUMPDEST SWAP1 PUSH1 0x0 MSTORE PUSH1 0x20 PUSH1 0x0 KECCAK256 ADD PUSH1 0x0 SWAP1 SLOAD SWAP1 PUSH2 0x100 EXP SWAP1 DIV PUSH20 0xFFFFFFFFFFFFFFFFFFFFFFFFFFFFFFFFFFFFFFFF AND PUSH20 0xFFFFFFFFFFFFFFFFFFFFFFFFFFFFFFFFFFFFFFFF AND PUSH4 0x45C8B1A6 CALLER PUSH1 0x40 MLOAD DUP3 PUSH4 0xFFFFFFFF AND PUSH1 0xE0 SHL DUP2 MSTORE PUSH1 0x4 ADD PUSH3 0x1263 SWAP2 SWAP1 PUSH3 0x1681 JUMP JUMPDEST PUSH1 0x0 PUSH1 0x40 MLOAD DUP1 DUP4 SUB DUP2 PUSH1 0x0 DUP8 DUP1 EXTCODESIZE ISZERO DUP1 ISZERO PUSH3 0x127E JUMPI PUSH1 0x0 DUP1 REVERT JUMPDEST POP GAS CALL ISZERO DUP1 ISZERO PUSH3 0x1293 JUMPI RETURNDATASIZE PUSH1 0x0 DUP1 RETURNDATACOPY RETURNDATASIZE PUSH1 0x0 REVERT JUMPDEST POP POP POP POP POP JUMP JUMPDEST PUSH1 0x0 DUP5 DUP2 SLOAD DUP2 LT PUSH3 0x12B1 JUMPI PUSH3 0x12B0 PUSH3 0x1D41 JUMP JUMPDEST JUMPDEST SWAP1 PUSH1 0x0 MSTORE PUSH1 0x20 PUSH1 0x0 KECCAK256 ADD PUSH1 0x0 SWAP1 SLOAD SWAP1 PUSH2 0x100 EXP SWAP1 DIV PUSH20 0xFFFFFFFFFFFFFFFFFFFFFFFFFFFFFFFFFFFFFFFF AND PUSH20 0xFFFFFFFFFFFFFFFFFFFFFFFFFFFFFFFFFFFFFFFF AND PUSH4 0x2FAC5D9F DUP5 DUP5 DUP5 PUSH1 0x40 MLOAD DUP5 PUSH4 0xFFFFFFFF AND PUSH1 0xE0 SHL DUP2 MSTORE PUSH1 0x4 ADD PUSH3 0x131A SWAP4 SWAP3 SWAP2 SWAP1 PUSH3 0x2116 JUMP JUMPDEST PUSH1 0x0 PUSH1 0x40 MLOAD DUP1 DUP4 SUB DUP2 PUSH1 0x0 DUP8 DUP1 EXTCODESIZE ISZERO DUP1 ISZERO PUSH3 0x1335 JUMPI PUSH1 0x0 DUP1 REVERT JUMPDEST POP GAS CALL ISZERO DUP1 ISZERO PUSH3 0x134A JUMPI RETURNDATASIZE PUSH1 0x0 DUP1 RETURNDATACOPY RETURNDATASIZE PUSH1 0x0 REVERT JUMPDEST POP POP POP POP POP POP POP POP JUMP JUMPDEST PUSH1 0x0 DUP2 DUP2 SLOAD DUP2 LT PUSH3 0x1365 JUMPI PUSH1 0x0 DUP1 REVERT JUMPDEST SWAP1 PUSH1 0x0 MSTORE PUSH1 0x20 PUSH1 0x0 KECCAK256 ADD PUSH1 0x0 SWAP2 POP SLOAD SWAP1 PUSH2 0x100 EXP SWAP1 DIV PUSH20 0xFFFFFFFFFFFFFFFFFFFFFFFFFFFFFFFFFFFFFFFF AND DUP2 JUMP JUMPDEST PUSH1 0x0 DUP1 CALLER PUSH1 0x40 MLOAD PUSH3 0x13A6 SWAP1 PUSH3 0x15BC JUMP JUMPDEST PUSH3 0x13B2 SWAP2 SWAP1 PUSH3 0x2153 JUMP JUMPDEST PUSH1 0x40 MLOAD DUP1 SWAP2 SUB SWAP1 PUSH1 0x0 CREATE DUP1 ISZERO DUP1 ISZERO PUSH3 0x13CF JUMPI RETURNDATASIZE PUSH1 0x0 DUP1 RETURNDATACOPY RETURNDATASIZE PUSH1 0x0 REVERT JUMPDEST POP SWAP1 POP PUSH1 0x0 DUP2 SWAP1 DUP1 PUSH1 0x1 DUP2 SLOAD ADD DUP1 DUP3 SSTORE DUP1 SWAP2 POP POP PUSH1 0x1 SWAP1 SUB SWAP1 PUSH1 0x0 MSTORE PUSH1 0x20 PUSH1 0x0 KECCAK256 ADD PUSH1 0x0 SWAP1 SWAP2 SWAP1 SWAP2 SWAP1 SWAP2 PUSH2 0x100 EXP DUP2 SLOAD DUP2 PUSH20 0xFFFFFFFFFFFFFFFFFFFFFFFFFFFFFFFFFFFFFFFF MUL NOT AND SWAP1 DUP4 PUSH20 0xFFFFFFFFFFFFFFFFFFFFFFFFFFFFFFFFFFFFFFFF AND MUL OR SWAP1 SSTORE POP DUP1 SWAP2 POP POP SWAP1 JUMP JUMPDEST PUSH1 0x0 DUP8 DUP2 SLOAD DUP2 LT PUSH3 0x1453 JUMPI PUSH3 0x1452 PUSH3 0x1D41 JUMP JUMPDEST JUMPDEST SWAP1 PUSH1 0x0 MSTORE PUSH1 0x20 PUSH1 0x0 KECCAK256 ADD PUSH1 0x0 SWAP1 SLOAD SWAP1 PUSH2 0x100 EXP SWAP1 DIV PUSH20 0xFFFFFFFFFFFFFFFFFFFFFFFFFFFFFFFFFFFFFFFF AND PUSH20 0xFFFFFFFFFFFFFFFFFFFFFFFFFFFFFFFFFFFFFFFF AND PUSH4 0x171B6DA DUP8 DUP8 DUP8 DUP8 CALLER DUP9 DUP9 PUSH1 0x40 MLOAD DUP9 PUSH4 0xFFFFFFFF AND PUSH1 0xE0 SHL DUP2 MSTORE PUSH1 0x4 ADD PUSH3 0x14C4 SWAP8 SWAP7 SWAP6 SWAP5 SWAP4 SWAP3 SWAP2 SWAP1 PUSH3 0x2170 JUMP JUMPDEST PUSH1 0x0 PUSH1 0x40 MLOAD DUP1 DUP4 SUB DUP2 PUSH1 0x0 DUP8 DUP1 EXTCODESIZE ISZERO DUP1 ISZERO PUSH3 0x14DF JUMPI PUSH1 0x0 DUP1 REVERT JUMPDEST POP GAS CALL ISZERO DUP1 ISZERO PUSH3 0x14F4 JUMPI RETURNDATASIZE PUSH1 0x0 DUP1 RETURNDATACOPY RETURNDATASIZE PUSH1 0x0 REVERT JUMPDEST POP POP POP POP POP POP POP POP POP POP POP JUMP JUMPDEST PUSH1 0x0 DUP1 DUP3 DUP2 SLOAD DUP2 LT PUSH3 0x1519 JUMPI PUSH3 0x1518 PUSH3 0x1D41 JUMP JUMPDEST JUMPDEST SWAP1 PUSH1 0x0 MSTORE PUSH1 0x20 PUSH1 0x0 KECCAK256 ADD PUSH1 0x0 SWAP1 SLOAD SWAP1 PUSH2 0x100 EXP SWAP1 DIV PUSH20 0xFFFFFFFFFFFFFFFFFFFFFFFFFFFFFFFFFFFFFFFF AND PUSH20 0xFFFFFFFFFFFFFFFFFFFFFFFFFFFFFFFFFFFFFFFF AND PUSH4 0xC6A62290 PUSH1 0x40 MLOAD DUP2 PUSH4 0xFFFFFFFF AND PUSH1 0xE0 SHL DUP2 MSTORE PUSH1 0x4 ADD PUSH1 0x20 PUSH1 0x40 MLOAD DUP1 DUP4 SUB DUP2 DUP7 GAS STATICCALL ISZERO DUP1 ISZERO PUSH3 0x158F JUMPI RETURNDATASIZE PUSH1 0x0 DUP1 RETURNDATACOPY RETURNDATASIZE PUSH1 0x0 REVERT JUMPDEST POP POP POP POP PUSH1 0x40 MLOAD RETURNDATASIZE PUSH1 0x1F NOT PUSH1 0x1F DUP3 ADD AND DUP3 ADD DUP1 PUSH1 0x40 MSTORE POP DUP2 ADD SWAP1 PUSH3 0x15B5 SWAP2 SWAP1 PUSH3 0x1F94 JUMP JUMPDEST SWAP1 POP SWAP2 SWAP1 POP JUMP JUMPDEST PUSH2 0x2FBA DUP1 PUSH3 0x21EE DUP4 CODECOPY ADD SWAP1 JUMP JUMPDEST PUSH1 0x0 DUP1 REVERT JUMPDEST PUSH1 0x0 DUP2 SWAP1 POP SWAP2 SWAP1 POP JUMP JUMPDEST PUSH3 0x15E4 DUP2 PUSH3 0x15CF JUMP JUMPDEST DUP2 EQ PUSH3 0x15F0 JUMPI PUSH1 0x0 DUP1 REVERT JUMPDEST POP JUMP JUMPDEST PUSH1 0x0 DUP2 CALLDATALOAD SWAP1 POP PUSH3 0x1604 DUP2 PUSH3 0x15D9 JUMP JUMPDEST SWAP3 SWAP2 POP POP JUMP JUMPDEST PUSH1 0x0 PUSH1 0x20 DUP3 DUP5 SUB SLT ISZERO PUSH3 0x1623 JUMPI PUSH3 0x1622 PUSH3 0x15CA JUMP JUMPDEST JUMPDEST PUSH1 0x0 PUSH3 0x1633 DUP5 DUP3 DUP6 ADD PUSH3 0x15F3 JUMP JUMPDEST SWAP2 POP POP SWAP3 SWAP2 POP POP JUMP JUMPDEST PUSH1 0x0 PUSH20 0xFFFFFFFFFFFFFFFFFFFFFFFFFFFFFFFFFFFFFFFF DUP3 AND SWAP1 POP SWAP2 SWAP1 POP JUMP JUMPDEST PUSH1 0x0 PUSH3 0x1669 DUP3 PUSH3 0x163C JUMP JUMPDEST SWAP1 POP SWAP2 SWAP1 POP JUMP JUMPDEST PUSH3 0x167B DUP2 PUSH3 0x165C JUMP JUMPDEST DUP3 MSTORE POP POP JUMP JUMPDEST PUSH1 0x0 PUSH1 0x20 DUP3 ADD SWAP1 POP PUSH3 0x1698 PUSH1 0x0 DUP4 ADD DUP5 PUSH3 0x1670 JUMP JUMPDEST SWAP3 SWAP2 POP POP JUMP JUMPDEST PUSH1 0x0 PUSH3 0x16AB DUP3 PUSH3 0x163C JUMP JUMPDEST SWAP1 POP SWAP2 SWAP1 POP JUMP JUMPDEST PUSH3 0x16BD DUP2 PUSH3 0x169E JUMP JUMPDEST DUP2 EQ PUSH3 0x16C9 JUMPI PUSH1 0x0 DUP1 REVERT JUMPDEST POP JUMP JUMPDEST PUSH1 0x0 DUP2 CALLDATALOAD SWAP1 POP PUSH3 0x16DD DUP2 PUSH3 0x16B2 JUMP JUMPDEST SWAP3 SWAP2 POP POP JUMP JUMPDEST PUSH3 0x16EE DUP2 PUSH3 0x165C JUMP JUMPDEST DUP2 EQ PUSH3 0x16FA JUMPI PUSH1 0x0 DUP1 REVERT JUMPDEST POP JUMP JUMPDEST PUSH1 0x0 DUP2 CALLDATALOAD SWAP1 POP PUSH3 0x170E DUP2 PUSH3 0x16E3 JUMP JUMPDEST SWAP3 SWAP2 POP POP JUMP JUMPDEST PUSH1 0x0 DUP1 PUSH1 0x0 DUP1 PUSH1 0x0 PUSH1 0xA0 DUP7 DUP9 SUB SLT ISZERO PUSH3 0x1733 JUMPI PUSH3 0x1732 PUSH3 0x15CA JUMP JUMPDEST JUMPDEST PUSH1 0x0 PUSH3 0x1743 DUP9 DUP3 DUP10 ADD PUSH3 0x15F3 JUMP JUMPDEST SWAP6 POP POP PUSH1 0x20 PUSH3 0x1756 DUP9 DUP3 DUP10 ADD PUSH3 0x15F3 JUMP JUMPDEST SWAP5 POP POP PUSH1 0x40 PUSH3 0x1769 DUP9 DUP3 DUP10 ADD PUSH3 0x16CC JUMP JUMPDEST SWAP4 POP POP PUSH1 0x60 PUSH3 0x177C DUP9 DUP3 DUP10 ADD PUSH3 0x16FD JUMP JUMPDEST SWAP3 POP POP PUSH1 0x80 PUSH3 0x178F DUP9 DUP3 DUP10 ADD PUSH3 0x16CC JUMP JUMPDEST SWAP2 POP POP SWAP3 SWAP6 POP SWAP3 SWAP6 SWAP1 SWAP4 POP JUMP JUMPDEST PUSH1 0x0 DUP1 PUSH1 0x0 PUSH1 0x60 DUP5 DUP7 SUB SLT ISZERO PUSH3 0x17B8 JUMPI PUSH3 0x17B7 PUSH3 0x15CA JUMP JUMPDEST JUMPDEST PUSH1 0x0 PUSH3 0x17C8 DUP7 DUP3 DUP8 ADD PUSH3 0x15F3 JUMP JUMPDEST SWAP4 POP POP PUSH1 0x20 PUSH3 0x17DB DUP7 DUP3 DUP8 ADD PUSH3 0x16CC JUMP JUMPDEST SWAP3 POP POP PUSH1 0x40 PUSH3 0x17EE DUP7 DUP3 DUP8 ADD PUSH3 0x15F3 JUMP JUMPDEST SWAP2 POP POP SWAP3 POP SWAP3 POP SWAP3 JUMP JUMPDEST PUSH1 0x0 PUSH1 0x20 DUP3 DUP5 SUB SLT ISZERO PUSH3 0x1811 JUMPI PUSH3 0x1810 PUSH3 0x15CA JUMP JUMPDEST JUMPDEST PUSH1 0x0 PUSH3 0x1821 DUP5 DUP3 DUP6 ADD PUSH3 0x16FD JUMP JUMPDEST SWAP2 POP POP SWAP3 SWAP2 POP POP JUMP JUMPDEST PUSH1 0x0 DUP2 MLOAD SWAP1 POP SWAP2 SWAP1 POP JUMP JUMPDEST PUSH1 0x0 DUP3 DUP3 MSTORE PUSH1 0x20 DUP3 ADD SWAP1 POP SWAP3 SWAP2 POP POP JUMP JUMPDEST PUSH1 0x0 DUP2 SWAP1 POP PUSH1 0x20 DUP3 ADD SWAP1 POP SWAP2 SWAP1 POP JUMP JUMPDEST PUSH3 0x1861 DUP2 PUSH3 0x15CF JUMP JUMPDEST DUP3 MSTORE POP POP JUMP JUMPDEST PUSH1 0x0 PUSH3 0x1875 DUP4 DUP4 PUSH3 0x1856 JUMP JUMPDEST PUSH1 0x20 DUP4 ADD SWAP1 POP SWAP3 SWAP2 POP POP JUMP JUMPDEST PUSH1 0x0 PUSH1 0x20 DUP3 ADD SWAP1 POP SWAP2 SWAP1 POP JUMP JUMPDEST PUSH1 0x0 PUSH3 0x189B DUP3 PUSH3 0x182A JUMP JUMPDEST PUSH3 0x18A7 DUP2 DUP6 PUSH3 0x1835 JUMP JUMPDEST SWAP4 POP PUSH3 0x18B4 DUP4 PUSH3 0x1846 JUMP JUMPDEST DUP1 PUSH1 0x0 JUMPDEST DUP4 DUP2 LT ISZERO PUSH3 0x18EB JUMPI DUP2 MLOAD PUSH3 0x18CF DUP9 DUP3 PUSH3 0x1867 JUMP JUMPDEST SWAP8 POP PUSH3 0x18DC DUP4 PUSH3 0x1881 JUMP JUMPDEST SWAP3 POP POP PUSH1 0x1 DUP2 ADD SWAP1 POP PUSH3 0x18B8 JUMP JUMPDEST POP DUP6 SWAP4 POP POP POP POP SWAP3 SWAP2 POP POP JUMP JUMPDEST PUSH1 0x0 PUSH1 0x20 DUP3 ADD SWAP1 POP DUP2 DUP2 SUB PUSH1 0x0 DUP4 ADD MSTORE PUSH3 0x1914 DUP2 DUP5 PUSH3 0x188E JUMP JUMPDEST SWAP1 POP SWAP3 SWAP2 POP POP JUMP JUMPDEST PUSH1 0x0 DUP2 ISZERO ISZERO SWAP1 POP SWAP2 SWAP1 POP JUMP JUMPDEST PUSH3 0x1933 DUP2 PUSH3 0x191C JUMP JUMPDEST DUP2 EQ PUSH3 0x193F JUMPI PUSH1 0x0 DUP1 REVERT JUMPDEST POP JUMP JUMPDEST PUSH1 0x0 DUP2 CALLDATALOAD SWAP1 POP PUSH3 0x1953 DUP2 PUSH3 0x1928 JUMP JUMPDEST SWAP3 SWAP2 POP POP JUMP JUMPDEST PUSH1 0x0 DUP1 PUSH1 0x0 DUP1 PUSH1 0x0 DUP1 PUSH1 0xC0 DUP8 DUP10 SUB SLT ISZERO PUSH3 0x1979 JUMPI PUSH3 0x1978 PUSH3 0x15CA JUMP JUMPDEST JUMPDEST PUSH1 0x0 PUSH3 0x1989 DUP10 DUP3 DUP11 ADD PUSH3 0x15F3 JUMP JUMPDEST SWAP7 POP POP PUSH1 0x20 PUSH3 0x199C DUP10 DUP3 DUP11 ADD PUSH3 0x1942 JUMP JUMPDEST SWAP6 POP POP PUSH1 0x40 PUSH3 0x19AF DUP10 DUP3 DUP11 ADD PUSH3 0x15F3 JUMP JUMPDEST SWAP5 POP POP PUSH1 0x60 PUSH3 0x19C2 DUP10 DUP3 DUP11 ADD PUSH3 0x16FD JUMP JUMPDEST SWAP4 POP POP PUSH1 0x80 PUSH3 0x19D5 DUP10 DUP3 DUP11 ADD PUSH3 0x16CC JUMP JUMPDEST SWAP3 POP POP PUSH1 0xA0 PUSH3 0x19E8 DUP10 DUP3 DUP11 ADD PUSH3 0x15F3 JUMP JUMPDEST SWAP2 POP POP SWAP3 SWAP6 POP SWAP3 SWAP6 POP SWAP3 SWAP6 JUMP JUMPDEST PUSH3 0x1A00 DUP2 PUSH3 0x15CF JUMP JUMPDEST DUP3 MSTORE POP POP JUMP JUMPDEST PUSH1 0x0 PUSH1 0x20 DUP3 ADD SWAP1 POP PUSH3 0x1A1D PUSH1 0x0 DUP4 ADD DUP5 PUSH3 0x19F5 JUMP JUMPDEST SWAP3 SWAP2 POP POP JUMP JUMPDEST PUSH1 0x0 DUP1 PUSH1 0x0 PUSH1 0x60 DUP5 DUP7 SUB SLT ISZERO PUSH3 0x1A3F JUMPI PUSH3 0x1A3E PUSH3 0x15CA JUMP JUMPDEST JUMPDEST PUSH1 0x0 PUSH3 0x1A4F DUP7 DUP3 DUP8 ADD PUSH3 0x15F3 JUMP JUMPDEST SWAP4 POP POP PUSH1 0x20 PUSH3 0x1A62 DUP7 DUP3 DUP8 ADD PUSH3 0x1942 JUMP JUMPDEST SWAP3 POP POP PUSH1 0x40 PUSH3 0x1A75 DUP7 DUP3 DUP8 ADD PUSH3 0x16FD JUMP JUMPDEST SWAP2 POP POP SWAP3 POP SWAP3 POP SWAP3 JUMP JUMPDEST PUSH1 0x0 DUP1 PUSH1 0x0 DUP1 PUSH1 0x80 DUP6 DUP8 SUB SLT ISZERO PUSH3 0x1A9C JUMPI PUSH3 0x1A9B PUSH3 0x15CA JUMP JUMPDEST JUMPDEST PUSH1 0x0 PUSH3 0x1AAC DUP8 DUP3 DUP9 ADD PUSH3 0x15F3 JUMP JUMPDEST SWAP5 POP POP PUSH1 0x20 PUSH3 0x1ABF DUP8 DUP3 DUP9 ADD PUSH3 0x16FD JUMP JUMPDEST SWAP4 POP POP PUSH1 0x40 PUSH3 0x1AD2 DUP8 DUP3 DUP9 ADD PUSH3 0x16CC JUMP JUMPDEST SWAP3 POP POP PUSH1 0x60 PUSH3 0x1AE5 DUP8 DUP3 DUP9 ADD PUSH3 0x16CC JUMP JUMPDEST SWAP2 POP POP SWAP3 SWAP6 SWAP2 SWAP5 POP SWAP3 POP JUMP JUMPDEST PUSH1 0x0 DUP1 PUSH1 0x40 DUP4 DUP6 SUB SLT ISZERO PUSH3 0x1B0B JUMPI PUSH3 0x1B0A PUSH3 0x15CA JUMP JUMPDEST JUMPDEST PUSH1 0x0 PUSH3 0x1B1B DUP6 DUP3 DUP7 ADD PUSH3 0x15F3 JUMP JUMPDEST SWAP3 POP POP PUSH1 0x20 PUSH3 0x1B2E DUP6 DUP3 DUP7 ADD PUSH3 0x16FD JUMP JUMPDEST SWAP2 POP POP SWAP3 POP SWAP3 SWAP1 POP JUMP JUMPDEST PUSH1 0x0 DUP1 PUSH1 0x0 PUSH1 0x60 DUP5 DUP7 SUB SLT ISZERO PUSH3 0x1B54 JUMPI PUSH3 0x1B53 PUSH3 0x15CA JUMP JUMPDEST JUMPDEST PUSH1 0x0 PUSH3 0x1B64 DUP7 DUP3 DUP8 ADD PUSH3 0x15F3 JUMP JUMPDEST SWAP4 POP POP PUSH1 0x20 PUSH3 0x1B77 DUP7 DUP3 DUP8 ADD PUSH3 0x15F3 JUMP JUMPDEST SWAP3 POP POP PUSH1 0x40 PUSH3 0x1B8A DUP7 DUP3 DUP8 ADD PUSH3 0x16FD JUMP JUMPDEST SWAP2 POP POP SWAP3 POP SWAP3 POP SWAP3 JUMP JUMPDEST PUSH1 0x0 DUP1 PUSH1 0x0 DUP1 PUSH1 0x80 DUP6 DUP8 SUB SLT ISZERO PUSH3 0x1BB1 JUMPI PUSH3 0x1BB0 PUSH3 0x15CA JUMP JUMPDEST JUMPDEST PUSH1 0x0 PUSH3 0x1BC1 DUP8 DUP3 DUP9 ADD PUSH3 0x15F3 JUMP JUMPDEST SWAP5 POP POP PUSH1 0x20 PUSH3 0x1BD4 DUP8 DUP3 DUP9 ADD PUSH3 0x15F3 JUMP JUMPDEST SWAP4 POP POP PUSH1 0x40 PUSH3 0x1BE7 DUP8 DUP3 DUP9 ADD PUSH3 0x16FD JUMP JUMPDEST SWAP3 POP POP PUSH1 0x60 PUSH3 0x1BFA DUP8 DUP3 DUP9 ADD PUSH3 0x16CC JUMP JUMPDEST SWAP2 POP POP SWAP3 SWAP6 SWAP2 SWAP5 POP SWAP3 POP JUMP JUMPDEST PUSH1 0x0 DUP2 SWAP1 POP SWAP2 SWAP1 POP JUMP JUMPDEST PUSH1 0x0 PUSH3 0x1C31 PUSH3 0x1C2B PUSH3 0x1C25 DUP5 PUSH3 0x163C JUMP JUMPDEST PUSH3 0x1C06 JUMP JUMPDEST PUSH3 0x163C JUMP JUMPDEST SWAP1 POP SWAP2 SWAP1 POP JUMP JUMPDEST PUSH1 0x0 PUSH3 0x1C45 DUP3 PUSH3 0x1C10 JUMP JUMPDEST SWAP1 POP SWAP2 SWAP1 POP JUMP JUMPDEST PUSH1 0x0 PUSH3 0x1C59 DUP3 PUSH3 0x1C38 JUMP JUMPDEST SWAP1 POP SWAP2 SWAP1 POP JUMP JUMPDEST PUSH3 0x1C6B DUP2 PUSH3 0x1C4C JUMP JUMPDEST DUP3 MSTORE POP POP JUMP JUMPDEST PUSH1 0x0 PUSH1 0x20 DUP3 ADD SWAP1 POP PUSH3 0x1C88 PUSH1 0x0 DUP4 ADD DUP5 PUSH3 0x1C60 JUMP JUMPDEST SWAP3 SWAP2 POP POP JUMP JUMPDEST PUSH1 0x0 DUP1 PUSH1 0x0 DUP1 PUSH1 0x0 DUP1 PUSH1 0x0 PUSH1 0xE0 DUP9 DUP11 SUB SLT ISZERO PUSH3 0x1CB0 JUMPI PUSH3 0x1CAF PUSH3 0x15CA JUMP JUMPDEST JUMPDEST PUSH1 0x0 PUSH3 0x1CC0 DUP11 DUP3 DUP12 ADD PUSH3 0x15F3 JUMP JUMPDEST SWAP8 POP POP PUSH1 0x20 PUSH3 0x1CD3 DUP11 DUP3 DUP12 ADD PUSH3 0x1942 JUMP JUMPDEST SWAP7 POP POP PUSH1 0x40 PUSH3 0x1CE6 DUP11 DUP3 DUP12 ADD PUSH3 0x16CC JUMP JUMPDEST SWAP6 POP POP PUSH1 0x60 PUSH3 0x1CF9 DUP11 DUP3 DUP12 ADD PUSH3 0x15F3 JUMP JUMPDEST SWAP5 POP POP PUSH1 0x80 PUSH3 0x1D0C DUP11 DUP3 DUP12 ADD PUSH3 0x16FD JUMP JUMPDEST SWAP4 POP POP PUSH1 0xA0 PUSH3 0x1D1F DUP11 DUP3 DUP12 ADD PUSH3 0x16CC JUMP JUMPDEST SWAP3 POP POP PUSH1 0xC0 PUSH3 0x1D32 DUP11 DUP3 DUP12 ADD PUSH3 0x15F3 JUMP JUMPDEST SWAP2 POP POP SWAP3 SWAP6 SWAP9 SWAP2 SWAP5 SWAP8 POP SWAP3 SWAP6 POP JUMP JUMPDEST PUSH32 0x4E487B7100000000000000000000000000000000000000000000000000000000 PUSH1 0x0 MSTORE PUSH1 0x32 PUSH1 0x4 MSTORE PUSH1 0x24 PUSH1 0x0 REVERT JUMPDEST PUSH1 0x0 DUP2 MLOAD SWAP1 POP PUSH3 0x1D81 DUP2 PUSH3 0x16E3 JUMP JUMPDEST SWAP3 SWAP2 POP POP JUMP JUMPDEST PUSH1 0x0 PUSH1 0x20 DUP3 DUP5 SUB SLT ISZERO PUSH3 0x1DA0 JUMPI PUSH3 0x1D9F PUSH3 0x15CA JUMP JUMPDEST JUMPDEST PUSH1 0x0 PUSH3 0x1DB0 DUP5 DUP3 DUP6 ADD PUSH3 0x1D70 JUMP JUMPDEST SWAP2 POP POP SWAP3 SWAP2 POP POP JUMP JUMPDEST PUSH3 0x1DC4 DUP2 PUSH3 0x169E JUMP JUMPDEST DUP3 MSTORE POP POP JUMP JUMPDEST PUSH1 0x0 PUSH1 0x80 DUP3 ADD SWAP1 POP PUSH3 0x1DE1 PUSH1 0x0 DUP4 ADD DUP8 PUSH3 0x19F5 JUMP JUMPDEST PUSH3 0x1DF0 PUSH1 0x20 DUP4 ADD DUP7 PUSH3 0x1DB9 JUMP JUMPDEST PUSH3 0x1DFF PUSH1 0x40 DUP4 ADD DUP6 PUSH3 0x1670 JUMP JUMPDEST PUSH3 0x1E0E PUSH1 0x60 DUP4 ADD DUP5 PUSH3 0x1DB9 JUMP JUMPDEST SWAP6 SWAP5 POP POP POP POP POP JUMP JUMPDEST PUSH1 0x0 PUSH1 0x60 DUP3 ADD SWAP1 POP PUSH3 0x1E2E PUSH1 0x0 DUP4 ADD DUP7 PUSH3 0x1DB9 JUMP JUMPDEST PUSH3 0x1E3D PUSH1 0x20 DUP4 ADD DUP6 PUSH3 0x19F5 JUMP JUMPDEST PUSH3 0x1E4C PUSH1 0x40 DUP4 ADD DUP5 PUSH3 0x1670 JUMP JUMPDEST SWAP5 SWAP4 POP POP POP POP JUMP JUMPDEST PUSH32 0x4E487B7100000000000000000000000000000000000000000000000000000000 PUSH1 0x0 MSTORE PUSH1 0x41 PUSH1 0x4 MSTORE PUSH1 0x24 PUSH1 0x0 REVERT JUMPDEST PUSH32 0x4E487B7100000000000000000000000000000000000000000000000000000000 PUSH1 0x0 MSTORE PUSH1 0x11 PUSH1 0x4 MSTORE PUSH1 0x24 PUSH1 0x0 REVERT JUMPDEST PUSH1 0x0 PUSH3 0x1EBF DUP3 PUSH3 0x15CF JUMP JUMPDEST SWAP2 POP PUSH32 0xFFFFFFFFFFFFFFFFFFFFFFFFFFFFFFFFFFFFFFFFFFFFFFFFFFFFFFFFFFFFFFFF DUP3 SUB PUSH3 0x1EF4 JUMPI PUSH3 0x1EF3 PUSH3 0x1E83 JUMP JUMPDEST JUMPDEST PUSH1 0x1 DUP3 ADD SWAP1 POP SWAP2 SWAP1 POP JUMP JUMPDEST PUSH3 0x1F0A DUP2 PUSH3 0x191C JUMP JUMPDEST DUP3 MSTORE POP POP JUMP JUMPDEST PUSH1 0x0 PUSH1 0xC0 DUP3 ADD SWAP1 POP PUSH3 0x1F27 PUSH1 0x0 DUP4 ADD DUP10 PUSH3 0x1EFF JUMP JUMPDEST PUSH3 0x1F36 PUSH1 0x20 DUP4 ADD DUP9 PUSH3 0x19F5 JUMP JUMPDEST PUSH3 0x1F45 PUSH1 0x40 DUP4 ADD DUP8 PUSH3 0x1670 JUMP JUMPDEST PUSH3 0x1F54 PUSH1 0x60 DUP4 ADD DUP7 PUSH3 0x1670 JUMP JUMPDEST PUSH3 0x1F63 PUSH1 0x80 DUP4 ADD DUP6 PUSH3 0x1DB9 JUMP JUMPDEST PUSH3 0x1F72 PUSH1 0xA0 DUP4 ADD DUP5 PUSH3 0x19F5 JUMP JUMPDEST SWAP8 SWAP7 POP POP POP POP POP POP POP JUMP JUMPDEST PUSH1 0x0 DUP2 MLOAD SWAP1 POP PUSH3 0x1F8E DUP2 PUSH3 0x15D9 JUMP JUMPDEST SWAP3 SWAP2 POP POP JUMP JUMPDEST PUSH1 0x0 PUSH1 0x20 DUP3 DUP5 SUB SLT ISZERO PUSH3 0x1FAD JUMPI PUSH3 0x1FAC PUSH3 0x15CA JUMP JUMPDEST JUMPDEST PUSH1 0x0 PUSH3 0x1FBD DUP5 DUP3 DUP6 ADD PUSH3 0x1F7D JUMP JUMPDEST SWAP2 POP POP SWAP3 SWAP2 POP POP JUMP JUMPDEST PUSH1 0x0 PUSH1 0x40 DUP3 ADD SWAP1 POP PUSH3 0x1FDD PUSH1 0x0 DUP4 ADD DUP6 PUSH3 0x1EFF JUMP JUMPDEST PUSH3 0x1FEC PUSH1 0x20 DUP4 ADD DUP5 PUSH3 0x1670 JUMP JUMPDEST SWAP4 SWAP3 POP POP POP JUMP JUMPDEST PUSH1 0x0 PUSH1 0x60 DUP3 ADD SWAP1 POP PUSH3 0x200A PUSH1 0x0 DUP4 ADD DUP7 PUSH3 0x1670 JUMP JUMPDEST PUSH3 0x2019 PUSH1 0x20 DUP4 ADD DUP6 PUSH3 0x1DB9 JUMP JUMPDEST PUSH3 0x2028 PUSH1 0x40 DUP4 ADD DUP5 PUSH3 0x1DB9 JUMP JUMPDEST SWAP5 SWAP4 POP POP POP POP JUMP JUMPDEST PUSH1 0x0 DUP3 DUP3 MSTORE PUSH1 0x20 DUP3 ADD SWAP1 POP SWAP3 SWAP2 POP POP JUMP JUMPDEST PUSH32 0x4F6E6C7920746865206F776E65722063616E2073657420746865207769746864 PUSH1 0x0 DUP3 ADD MSTORE PUSH32 0x726177616C206C696D69742E0000000000000000000000000000000000000000 PUSH1 0x20 DUP3 ADD MSTORE POP JUMP JUMPDEST PUSH1 0x0 PUSH3 0x209F PUSH1 0x2C DUP4 PUSH3 0x2030 JUMP JUMPDEST SWAP2 POP PUSH3 0x20AC DUP3 PUSH3 0x2041 JUMP JUMPDEST PUSH1 0x40 DUP3 ADD SWAP1 POP SWAP2 SWAP1 POP JUMP JUMPDEST PUSH1 0x0 PUSH1 0x20 DUP3 ADD SWAP1 POP DUP2 DUP2 SUB PUSH1 0x0 DUP4 ADD MSTORE PUSH3 0x20D2 DUP2 PUSH3 0x2090 JUMP JUMPDEST SWAP1 POP SWAP2 SWAP1 POP JUMP JUMPDEST PUSH1 0x0 PUSH1 0x60 DUP3 ADD SWAP1 POP PUSH3 0x20F0 PUSH1 0x0 DUP4 ADD DUP7 PUSH3 0x1670 JUMP JUMPDEST PUSH3 0x20FF PUSH1 0x20 DUP4 ADD DUP6 PUSH3 0x19F5 JUMP JUMPDEST PUSH3 0x210E PUSH1 0x40 DUP4 ADD DUP5 PUSH3 0x1670 JUMP JUMPDEST SWAP5 SWAP4 POP POP POP POP JUMP JUMPDEST PUSH1 0x0 PUSH1 0x60 DUP3 ADD SWAP1 POP PUSH3 0x212D PUSH1 0x0 DUP4 ADD DUP7 PUSH3 0x19F5 JUMP JUMPDEST PUSH3 0x213C PUSH1 0x20 DUP4 ADD DUP6 PUSH3 0x1670 JUMP JUMPDEST PUSH3 0x214B PUSH1 0x40 DUP4 ADD DUP5 PUSH3 0x1DB9 JUMP JUMPDEST SWAP5 SWAP4 POP POP POP POP JUMP JUMPDEST PUSH1 0x0 PUSH1 0x20 DUP3 ADD SWAP1 POP PUSH3 0x216A PUSH1 0x0 DUP4 ADD DUP5 PUSH3 0x1DB9 JUMP JUMPDEST SWAP3 SWAP2 POP POP JUMP JUMPDEST PUSH1 0x0 PUSH1 0xE0 DUP3 ADD SWAP1 POP PUSH3 0x2187 PUSH1 0x0 DUP4 ADD DUP11 PUSH3 0x1EFF JUMP JUMPDEST PUSH3 0x2196 PUSH1 0x20 DUP4 ADD DUP10 PUSH3 0x1DB9 JUMP JUMPDEST PUSH3 0x21A5 PUSH1 0x40 DUP4 ADD DUP9 PUSH3 0x19F5 JUMP JUMPDEST PUSH3 0x21B4 PUSH1 0x60 DUP4 ADD DUP8 PUSH3 0x1670 JUMP JUMPDEST PUSH3 0x21C3 PUSH1 0x80 DUP4 ADD DUP7 PUSH3 0x1670 JUMP JUMPDEST PUSH3 0x21D2 PUSH1 0xA0 DUP4 ADD DUP6 PUSH3 0x1DB9 JUMP JUMPDEST PUSH3 0x21E1 PUSH1 0xC0 DUP4 ADD DUP5 PUSH3 0x19F5 JUMP JUMPDEST SWAP9 SWAP8 POP POP POP POP POP POP POP POP JUMP INVALID PUSH1 0x80 PUSH1 0x40 MSTORE PUSH1 0x0 PUSH1 0x6 PUSH1 0x14 PUSH2 0x100 EXP DUP2 SLOAD DUP2 PUSH1 0xFF MUL NOT AND SWAP1 DUP4 ISZERO ISZERO MUL OR SWAP1 SSTORE POP PUSH1 0x0 PUSH1 0x8 PUSH1 0x0 PUSH2 0x100 EXP DUP2 SLOAD DUP2 PUSH1 0xFF MUL NOT AND SWAP1 DUP4 ISZERO ISZERO MUL OR SWAP1 SSTORE POP CALLVALUE DUP1 ISZERO PUSH3 0x47 JUMPI PUSH1 0x0 DUP1 REVERT JUMPDEST POP PUSH1 0x40 MLOAD PUSH3 0x2FBA CODESIZE SUB DUP1 PUSH3 0x2FBA DUP4 CODECOPY DUP2 DUP2 ADD PUSH1 0x40 MSTORE DUP2 ADD SWAP1 PUSH3 0x6D SWAP2 SWAP1 PUSH3 0x11E JUMP JUMPDEST DUP1 PUSH1 0x0 DUP1 PUSH2 0x100 EXP DUP2 SLOAD DUP2 PUSH20 0xFFFFFFFFFFFFFFFFFFFFFFFFFFFFFFFFFFFFFFFF MUL NOT AND SWAP1 DUP4 PUSH20 0xFFFFFFFFFFFFFFFFFFFFFFFFFFFFFFFFFFFFFFFF AND MUL OR SWAP1 SSTORE POP POP PUSH3 0x150 JUMP JUMPDEST PUSH1 0x0 DUP1 REVERT JUMPDEST PUSH1 0x0 PUSH20 0xFFFFFFFFFFFFFFFFFFFFFFFFFFFFFFFFFFFFFFFF DUP3 AND SWAP1 POP SWAP2 SWAP1 POP JUMP JUMPDEST PUSH1 0x0 PUSH3 0xE6 DUP3 PUSH3 0xB9 JUMP JUMPDEST SWAP1 POP SWAP2 SWAP1 POP JUMP JUMPDEST PUSH3 0xF8 DUP2 PUSH3 0xD9 JUMP JUMPDEST DUP2 EQ PUSH3 0x104 JUMPI PUSH1 0x0 DUP1 REVERT JUMPDEST POP JUMP JUMPDEST PUSH1 0x0 DUP2 MLOAD SWAP1 POP PUSH3 0x118 DUP2 PUSH3 0xED JUMP JUMPDEST SWAP3 SWAP2 POP POP JUMP JUMPDEST PUSH1 0x0 PUSH1 0x20 DUP3 DUP5 SUB SLT ISZERO PUSH3 0x137 JUMPI PUSH3 0x136 PUSH3 0xB4 JUMP JUMPDEST JUMPDEST PUSH1 0x0 PUSH3 0x147 DUP5 DUP3 DUP6 ADD PUSH3 0x107 JUMP JUMPDEST SWAP2 POP POP SWAP3 SWAP2 POP POP JUMP JUMPDEST PUSH2 0x2E5A DUP1 PUSH3 0x160 PUSH1 0x0 CODECOPY PUSH1 0x0 RETURN INVALID PUSH1 0x80 PUSH1 0x40 MSTORE PUSH1 0x4 CALLDATASIZE LT PUSH2 0x166 JUMPI PUSH1 0x0 CALLDATALOAD PUSH1 0xE0 SHR DUP1 PUSH4 0x7A80760E GT PUSH2 0xD1 JUMPI DUP1 PUSH4 0x9E1A4D19 GT PUSH2 0x8A JUMPI DUP1 PUSH4 0xC6A62290 GT PUSH2 0x64 JUMPI DUP1 PUSH4 0xC6A62290 EQ PUSH2 0x4D2 JUMPI DUP1 PUSH4 0xCC4AA204 EQ PUSH2 0x4FD JUMPI DUP1 PUSH4 0xD4FB7E2D EQ PUSH2 0x528 JUMPI DUP1 PUSH4 0xFCE33F01 EQ PUSH2 0x565 JUMPI PUSH2 0x166 JUMP JUMPDEST DUP1 PUSH4 0x9E1A4D19 EQ PUSH2 0x460 JUMPI DUP1 PUSH4 0xA5720770 EQ PUSH2 0x48B JUMPI DUP1 PUSH4 0xC250283C EQ PUSH2 0x4B6 JUMPI PUSH2 0x166 JUMP JUMPDEST DUP1 PUSH4 0x7A80760E EQ PUSH2 0x35D JUMPI DUP1 PUSH4 0x87C2797D EQ PUSH2 0x388 JUMPI DUP1 PUSH4 0x8D1FDF2F EQ PUSH2 0x3A4 JUMPI DUP1 PUSH4 0x8DA5CB5B EQ PUSH2 0x3CD JUMPI DUP1 PUSH4 0x927DA105 EQ PUSH2 0x3F8 JUMPI DUP1 PUSH4 0x94A927FE EQ PUSH2 0x435 JUMPI PUSH2 0x166 JUMP JUMPDEST DUP1 PUSH4 0x2FAC5D9F GT PUSH2 0x123 JUMPI DUP1 PUSH4 0x2FAC5D9F EQ PUSH2 0x26E JUMPI DUP1 PUSH4 0x342AC615 EQ PUSH2 0x28A JUMPI DUP1 PUSH4 0x38AF3EED EQ PUSH2 0x2B3 JUMPI DUP1 PUSH4 0x45C8B1A6 EQ PUSH2 0x2DE JUMPI DUP1 PUSH4 0x4BFFFC86 EQ PUSH2 0x307 JUMPI DUP1 PUSH4 0x6A42B8F8 EQ PUSH2 0x332 JUMPI PUSH2 0x166 JUMP JUMPDEST DUP1 PUSH4 0x171B6DA EQ PUSH2 0x16B JUMPI DUP1 PUSH4 0x54F7D9C EQ PUSH2 0x187 JUMPI DUP1 PUSH4 0xA84AAC5 EQ PUSH2 0x1B2 JUMPI DUP1 PUSH4 0x1903B431 EQ PUSH2 0x1DB JUMPI DUP1 PUSH4 0x23658AF4 EQ PUSH2 0x218 JUMPI DUP1 PUSH4 0x28AF53FA EQ PUSH2 0x243 JUMPI JUMPDEST PUSH1 0x0 DUP1 REVERT JUMPDEST PUSH2 0x185 PUSH1 0x4 DUP1 CALLDATASIZE SUB DUP2 ADD SWAP1 PUSH2 0x180 SWAP2 SWAP1 PUSH2 0x20BA JUMP JUMPDEST PUSH2 0x5A2 JUMP JUMPDEST STOP JUMPDEST CALLVALUE DUP1 ISZERO PUSH2 0x193 JUMPI PUSH1 0x0 DUP1 REVERT JUMPDEST POP PUSH2 0x19C PUSH2 0xD4C JUMP JUMPDEST PUSH1 0x40 MLOAD PUSH2 0x1A9 SWAP2 SWAP1 PUSH2 0x216B JUMP JUMPDEST PUSH1 0x40 MLOAD DUP1 SWAP2 SUB SWAP1 RETURN JUMPDEST CALLVALUE DUP1 ISZERO PUSH2 0x1BE JUMPI PUSH1 0x0 DUP1 REVERT JUMPDEST POP PUSH2 0x1D9 PUSH1 0x4 DUP1 CALLDATASIZE SUB DUP2 ADD SWAP1 PUSH2 0x1D4 SWAP2 SWAP1 PUSH2 0x2186 JUMP JUMPDEST PUSH2 0xD5F JUMP JUMPDEST STOP JUMPDEST CALLVALUE DUP1 ISZERO PUSH2 0x1E7 JUMPI PUSH1 0x0 DUP1 REVERT JUMPDEST POP PUSH2 0x202 PUSH1 0x4 DUP1 CALLDATASIZE SUB DUP2 ADD SWAP1 PUSH2 0x1FD SWAP2 SWAP1 PUSH2 0x21D9 JUMP JUMPDEST PUSH2 0xEC7 JUMP JUMPDEST PUSH1 0x40 MLOAD PUSH2 0x20F SWAP2 SWAP1 PUSH2 0x2228 JUMP JUMPDEST PUSH1 0x40 MLOAD DUP1 SWAP2 SUB SWAP1 RETURN JUMPDEST CALLVALUE DUP1 ISZERO PUSH2 0x224 JUMPI PUSH1 0x0 DUP1 REVERT JUMPDEST POP PUSH2 0x22D PUSH2 0xF5A JUMP JUMPDEST PUSH1 0x40 MLOAD PUSH2 0x23A SWAP2 SWAP1 PUSH2 0x2252 JUMP JUMPDEST PUSH1 0x40 MLOAD DUP1 SWAP2 SUB SWAP1 RETURN JUMPDEST CALLVALUE DUP1 ISZERO PUSH2 0x24F JUMPI PUSH1 0x0 DUP1 REVERT JUMPDEST POP PUSH2 0x258 PUSH2 0xF84 JUMP JUMPDEST PUSH1 0x40 MLOAD PUSH2 0x265 SWAP2 SWAP1 PUSH2 0x2228 JUMP JUMPDEST PUSH1 0x40 MLOAD DUP1 SWAP2 SUB SWAP1 RETURN JUMPDEST PUSH2 0x288 PUSH1 0x4 DUP1 CALLDATASIZE SUB DUP2 ADD SWAP1 PUSH2 0x283 SWAP2 SWAP1 PUSH2 0x226D JUMP JUMPDEST PUSH2 0xF8A JUMP JUMPDEST STOP JUMPDEST CALLVALUE DUP1 ISZERO PUSH2 0x296 JUMPI PUSH1 0x0 DUP1 REVERT JUMPDEST POP PUSH2 0x2B1 PUSH1 0x4 DUP1 CALLDATASIZE SUB DUP2 ADD SWAP1 PUSH2 0x2AC SWAP2 SWAP1 PUSH2 0x22C0 JUMP JUMPDEST PUSH2 0x1057 JUMP JUMPDEST STOP JUMPDEST CALLVALUE DUP1 ISZERO PUSH2 0x2BF JUMPI PUSH1 0x0 DUP1 REVERT JUMPDEST POP PUSH2 0x2C8 PUSH2 0x112E JUMP JUMPDEST PUSH1 0x40 MLOAD PUSH2 0x2D5 SWAP2 SWAP1 PUSH2 0x2322 JUMP JUMPDEST PUSH1 0x40 MLOAD DUP1 SWAP2 SUB SWAP1 RETURN JUMPDEST CALLVALUE DUP1 ISZERO PUSH2 0x2EA JUMPI PUSH1 0x0 DUP1 REVERT JUMPDEST POP PUSH2 0x305 PUSH1 0x4 DUP1 CALLDATASIZE SUB DUP2 ADD SWAP1 PUSH2 0x300 SWAP2 SWAP1 PUSH2 0x233D JUMP JUMPDEST PUSH2 0x1154 JUMP JUMPDEST STOP JUMPDEST CALLVALUE DUP1 ISZERO PUSH2 0x313 JUMPI PUSH1 0x0 DUP1 REVERT JUMPDEST POP PUSH2 0x31C PUSH2 0x1237 JUMP JUMPDEST PUSH1 0x40 MLOAD PUSH2 0x329 SWAP2 SWAP1 PUSH2 0x2228 JUMP JUMPDEST PUSH1 0x40 MLOAD DUP1 SWAP2 SUB SWAP1 RETURN JUMPDEST CALLVALUE DUP1 ISZERO PUSH2 0x33E JUMPI PUSH1 0x0 DUP1 REVERT JUMPDEST POP PUSH2 0x347 PUSH2 0x1241 JUMP JUMPDEST PUSH1 0x40 MLOAD PUSH2 0x354 SWAP2 SWAP1 PUSH2 0x2228 JUMP JUMPDEST PUSH1 0x40 MLOAD DUP1 SWAP2 SUB SWAP1 RETURN JUMPDEST CALLVALUE DUP1 ISZERO PUSH2 0x369 JUMPI PUSH1 0x0 DUP1 REVERT JUMPDEST POP PUSH2 0x372 PUSH2 0x1247 JUMP JUMPDEST PUSH1 0x40 MLOAD PUSH2 0x37F SWAP2 SWAP1 PUSH2 0x2322 JUMP JUMPDEST PUSH1 0x40 MLOAD DUP1 SWAP2 SUB SWAP1 RETURN JUMPDEST PUSH2 0x3A2 PUSH1 0x4 DUP1 CALLDATASIZE SUB DUP2 ADD SWAP1 PUSH2 0x39D SWAP2 SWAP1 PUSH2 0x236A JUMP JUMPDEST PUSH2 0x126D JUMP JUMPDEST STOP JUMPDEST CALLVALUE DUP1 ISZERO PUSH2 0x3B0 JUMPI PUSH1 0x0 DUP1 REVERT JUMPDEST POP PUSH2 0x3CB PUSH1 0x4 DUP1 CALLDATASIZE SUB DUP2 ADD SWAP1 PUSH2 0x3C6 SWAP2 SWAP1 PUSH2 0x233D JUMP JUMPDEST PUSH2 0x1B77 JUMP JUMPDEST STOP JUMPDEST CALLVALUE DUP1 ISZERO PUSH2 0x3D9 JUMPI PUSH1 0x0 DUP1 REVERT JUMPDEST POP PUSH2 0x3E2 PUSH2 0x1C5A JUMP JUMPDEST PUSH1 0x40 MLOAD PUSH2 0x3EF SWAP2 SWAP1 PUSH2 0x2322 JUMP JUMPDEST PUSH1 0x40 MLOAD DUP1 SWAP2 SUB SWAP1 RETURN JUMPDEST CALLVALUE DUP1 ISZERO PUSH2 0x404 JUMPI PUSH1 0x0 DUP1 REVERT JUMPDEST POP PUSH2 0x41F PUSH1 0x4 DUP1 CALLDATASIZE SUB DUP2 ADD SWAP1 PUSH2 0x41A SWAP2 SWAP1 PUSH2 0x23F7 JUMP JUMPDEST PUSH2 0x1C7E JUMP JUMPDEST PUSH1 0x40 MLOAD PUSH2 0x42C SWAP2 SWAP1 PUSH2 0x2228 JUMP JUMPDEST PUSH1 0x40 MLOAD DUP1 SWAP2 SUB SWAP1 RETURN JUMPDEST CALLVALUE DUP1 ISZERO PUSH2 0x441 JUMPI PUSH1 0x0 DUP1 REVERT JUMPDEST POP PUSH2 0x44A PUSH2 0x1D0A JUMP JUMPDEST PUSH1 0x40 MLOAD PUSH2 0x457 SWAP2 SWAP1 PUSH2 0x2252 JUMP JUMPDEST PUSH1 0x40 MLOAD DUP1 SWAP2 SUB SWAP1 RETURN JUMPDEST CALLVALUE DUP1 ISZERO PUSH2 0x46C JUMPI PUSH1 0x0 DUP1 REVERT JUMPDEST POP PUSH2 0x475 PUSH2 0x1D33 JUMP JUMPDEST PUSH1 0x40 MLOAD PUSH2 0x482 SWAP2 SWAP1 PUSH2 0x2228 JUMP JUMPDEST PUSH1 0x40 MLOAD DUP1 SWAP2 SUB SWAP1 RETURN JUMPDEST CALLVALUE DUP1 ISZERO PUSH2 0x497 JUMPI PUSH1 0x0 DUP1 REVERT JUMPDEST POP PUSH2 0x4A0 PUSH2 0x1D39 JUMP JUMPDEST PUSH1 0x40 MLOAD PUSH2 0x4AD SWAP2 SWAP1 PUSH2 0x216B JUMP JUMPDEST PUSH1 0x40 MLOAD DUP1 SWAP2 SUB SWAP1 RETURN JUMPDEST PUSH2 0x4D0 PUSH1 0x4 DUP1 CALLDATASIZE SUB DUP2 ADD SWAP1 PUSH2 0x4CB SWAP2 SWAP1 PUSH2 0x244A JUMP JUMPDEST PUSH2 0x1D4C JUMP JUMPDEST STOP JUMPDEST CALLVALUE DUP1 ISZERO PUSH2 0x4DE JUMPI PUSH1 0x0 DUP1 REVERT JUMPDEST POP PUSH2 0x4E7 PUSH2 0x1ED8 JUMP JUMPDEST PUSH1 0x40 MLOAD PUSH2 0x4F4 SWAP2 SWAP1 PUSH2 0x2228 JUMP JUMPDEST PUSH1 0x40 MLOAD DUP1 SWAP2 SUB SWAP1 RETURN JUMPDEST CALLVALUE DUP1 ISZERO PUSH2 0x509 JUMPI PUSH1 0x0 DUP1 REVERT JUMPDEST POP PUSH2 0x512 PUSH2 0x1EE2 JUMP JUMPDEST PUSH1 0x40 MLOAD PUSH2 0x51F SWAP2 SWAP1 PUSH2 0x2510 JUMP JUMPDEST PUSH1 0x40 MLOAD DUP1 SWAP2 SUB SWAP1 RETURN JUMPDEST CALLVALUE DUP1 ISZERO PUSH2 0x534 JUMPI PUSH1 0x0 DUP1 REVERT JUMPDEST POP PUSH2 0x54F PUSH1 0x4 DUP1 CALLDATASIZE SUB DUP2 ADD SWAP1 PUSH2 0x54A SWAP2 SWAP1 PUSH2 0x233D JUMP JUMPDEST PUSH2 0x1F08 JUMP JUMPDEST PUSH1 0x40 MLOAD PUSH2 0x55C SWAP2 SWAP1 PUSH2 0x2228 JUMP JUMPDEST PUSH1 0x40 MLOAD DUP1 SWAP2 SUB SWAP1 RETURN JUMPDEST CALLVALUE DUP1 ISZERO PUSH2 0x571 JUMPI PUSH1 0x0 DUP1 REVERT JUMPDEST POP PUSH2 0x58C PUSH1 0x4 DUP1 CALLDATASIZE SUB DUP2 ADD SWAP1 PUSH2 0x587 SWAP2 SWAP1 PUSH2 0x233D JUMP JUMPDEST PUSH2 0x1F51 JUMP JUMPDEST PUSH1 0x40 MLOAD PUSH2 0x599 SWAP2 SWAP1 PUSH2 0x2228 JUMP JUMPDEST PUSH1 0x40 MLOAD DUP1 SWAP2 SUB SWAP1 RETURN JUMPDEST PUSH1 0x0 DUP1 SLOAD SWAP1 PUSH2 0x100 EXP SWAP1 DIV PUSH20 0xFFFFFFFFFFFFFFFFFFFFFFFFFFFFFFFFFFFFFFFF AND PUSH20 0xFFFFFFFFFFFFFFFFFFFFFFFFFFFFFFFFFFFFFFFF AND DUP4 PUSH20 0xFFFFFFFFFFFFFFFFFFFFFFFFFFFFFFFFFFFFFFFF AND EQ DUP1 PUSH2 0x649 JUMPI POP PUSH1 0x1 PUSH1 0x0 SWAP1 SLOAD SWAP1 PUSH2 0x100 EXP SWAP1 DIV PUSH20 0xFFFFFFFFFFFFFFFFFFFFFFFFFFFFFFFFFFFFFFFF AND PUSH20 0xFFFFFFFFFFFFFFFFFFFFFFFFFFFFFFFFFFFFFFFF AND DUP4 PUSH20 0xFFFFFFFFFFFFFFFFFFFFFFFFFFFFFFFFFFFFFFFF AND EQ JUMPDEST PUSH2 0x688 JUMPI PUSH1 0x40 MLOAD PUSH32 0x8C379A000000000000000000000000000000000000000000000000000000000 DUP2 MSTORE PUSH1 0x4 ADD PUSH2 0x67F SWAP1 PUSH2 0x25AE JUMP JUMPDEST PUSH1 0x40 MLOAD DUP1 SWAP2 SUB SWAP1 REVERT JUMPDEST PUSH1 0x1 PUSH1 0x0 SWAP1 SLOAD SWAP1 PUSH2 0x100 EXP SWAP1 DIV PUSH20 0xFFFFFFFFFFFFFFFFFFFFFFFFFFFFFFFFFFFFFFFF AND PUSH20 0xFFFFFFFFFFFFFFFFFFFFFFFFFFFFFFFFFFFFFFFF AND DUP4 PUSH20 0xFFFFFFFFFFFFFFFFFFFFFFFFFFFFFFFFFFFFFFFF AND SUB PUSH2 0x779 JUMPI PUSH1 0x9 PUSH1 0x0 DUP6 PUSH20 0xFFFFFFFFFFFFFFFFFFFFFFFFFFFFFFFFFFFFFFFF AND PUSH20 0xFFFFFFFFFFFFFFFFFFFFFFFFFFFFFFFFFFFFFFFF AND DUP2 MSTORE PUSH1 0x20 ADD SWAP1 DUP2 MSTORE PUSH1 0x20 ADD PUSH1 0x0 KECCAK256 SLOAD DUP6 GT ISZERO DUP1 PUSH2 0x739 JUMPI POP TIMESTAMP PUSH1 0x3 SLOAD PUSH1 0x2 SLOAD PUSH2 0x737 SWAP2 SWAP1 PUSH2 0x25FD JUMP JUMPDEST LT JUMPDEST PUSH2 0x778 JUMPI PUSH1 0x40 MLOAD PUSH32 0x8C379A000000000000000000000000000000000000000000000000000000000 DUP2 MSTORE PUSH1 0x4 ADD PUSH2 0x76F SWAP1 PUSH2 0x26C9 JUMP JUMPDEST PUSH1 0x40 MLOAD DUP1 SWAP2 SUB SWAP1 REVERT JUMPDEST JUMPDEST PUSH1 0x8 PUSH1 0x0 SWAP1 SLOAD SWAP1 PUSH2 0x100 EXP SWAP1 DIV PUSH1 0xFF AND ISZERO PUSH2 0x7C9 JUMPI PUSH1 0x40 MLOAD PUSH32 0x8C379A000000000000000000000000000000000000000000000000000000000 DUP2 MSTORE PUSH1 0x4 ADD PUSH2 0x7C0 SWAP1 PUSH2 0x275B JUMP JUMPDEST PUSH1 0x40 MLOAD DUP1 SWAP2 SUB SWAP1 REVERT JUMPDEST DUP7 ISZERO PUSH2 0x9C3 JUMPI SELFBALANCE DUP6 GT ISZERO PUSH2 0x812 JUMPI PUSH1 0x40 MLOAD PUSH32 0x8C379A000000000000000000000000000000000000000000000000000000000 DUP2 MSTORE PUSH1 0x4 ADD PUSH2 0x809 SWAP1 PUSH2 0x27C7 JUMP JUMPDEST PUSH1 0x40 MLOAD DUP1 SWAP2 SUB SWAP1 REVERT JUMPDEST PUSH1 0x6 PUSH1 0x14 SWAP1 SLOAD SWAP1 PUSH2 0x100 EXP SWAP1 DIV PUSH1 0xFF AND ISZERO PUSH2 0x862 JUMPI PUSH1 0x40 MLOAD PUSH32 0x8C379A000000000000000000000000000000000000000000000000000000000 DUP2 MSTORE PUSH1 0x4 ADD PUSH2 0x859 SWAP1 PUSH2 0x2859 JUMP JUMPDEST PUSH1 0x40 MLOAD DUP1 SWAP2 SUB SWAP1 REVERT JUMPDEST PUSH1 0x1 PUSH1 0x6 PUSH1 0x14 PUSH2 0x100 EXP DUP2 SLOAD DUP2 PUSH1 0xFF MUL NOT AND SWAP1 DUP4 ISZERO ISZERO MUL OR SWAP1 SSTORE POP PUSH2 0x8A3 PUSH1 0x64 PUSH2 0x895 DUP4 DUP9 PUSH2 0x1F69 SWAP1 SWAP2 SWAP1 PUSH4 0xFFFFFFFF AND JUMP JUMPDEST PUSH2 0x1F7F SWAP1 SWAP2 SWAP1 PUSH4 0xFFFFFFFF AND JUMP JUMPDEST PUSH1 0x4 DUP2 SWAP1 SSTORE POP DUP6 PUSH20 0xFFFFFFFFFFFFFFFFFFFFFFFFFFFFFFFFFFFFFFFF AND PUSH2 0x8FC PUSH2 0x8D8 PUSH1 0x4 SLOAD DUP9 PUSH2 0x1F95 SWAP1 SWAP2 SWAP1 PUSH4 0xFFFFFFFF AND JUMP JUMPDEST SWAP1 DUP2 ISZERO MUL SWAP1 PUSH1 0x40 MLOAD PUSH1 0x0 PUSH1 0x40 MLOAD DUP1 DUP4 SUB DUP2 DUP6 DUP9 DUP9 CALL SWAP4 POP POP POP POP ISZERO DUP1 ISZERO PUSH2 0x903 JUMPI RETURNDATASIZE PUSH1 0x0 DUP1 RETURNDATACOPY RETURNDATASIZE PUSH1 0x0 REVERT JUMPDEST POP DUP2 PUSH20 0xFFFFFFFFFFFFFFFFFFFFFFFFFFFFFFFFFFFFFFFF AND PUSH2 0x8FC PUSH1 0x4 SLOAD SWAP1 DUP2 ISZERO MUL SWAP1 PUSH1 0x40 MLOAD PUSH1 0x0 PUSH1 0x40 MLOAD DUP1 DUP4 SUB DUP2 DUP6 DUP9 DUP9 CALL SWAP4 POP POP POP POP ISZERO DUP1 ISZERO PUSH2 0x94C JUMPI RETURNDATASIZE PUSH1 0x0 DUP1 RETURNDATACOPY RETURNDATASIZE PUSH1 0x0 REVERT JUMPDEST POP DUP5 PUSH1 0x9 PUSH1 0x0 DUP7 PUSH20 0xFFFFFFFFFFFFFFFFFFFFFFFFFFFFFFFFFFFFFFFF AND PUSH20 0xFFFFFFFFFFFFFFFFFFFFFFFFFFFFFFFFFFFFFFFF AND DUP2 MSTORE PUSH1 0x20 ADD SWAP1 DUP2 MSTORE PUSH1 0x20 ADD PUSH1 0x0 KECCAK256 PUSH1 0x0 DUP3 DUP3 SLOAD PUSH2 0x99C SWAP2 SWAP1 PUSH2 0x2879 JUMP JUMPDEST SWAP3 POP POP DUP2 SWAP1 SSTORE POP PUSH1 0x0 PUSH1 0x6 PUSH1 0x14 PUSH2 0x100 EXP DUP2 SLOAD DUP2 PUSH1 0xFF MUL NOT AND SWAP1 DUP4 ISZERO ISZERO MUL OR SWAP1 SSTORE POP PUSH2 0xD43 JUMP JUMPDEST DUP4 PUSH1 0x6 PUSH1 0x0 PUSH2 0x100 EXP DUP2 SLOAD DUP2 PUSH20 0xFFFFFFFFFFFFFFFFFFFFFFFFFFFFFFFFFFFFFFFF MUL NOT AND SWAP1 DUP4 PUSH20 0xFFFFFFFFFFFFFFFFFFFFFFFFFFFFFFFFFFFFFFFF AND MUL OR SWAP1 SSTORE POP PUSH1 0x6 PUSH1 0x0 SWAP1 SLOAD SWAP1 PUSH2 0x100 EXP SWAP1 DIV PUSH20 0xFFFFFFFFFFFFFFFFFFFFFFFFFFFFFFFFFFFFFFFF AND PUSH20 0xFFFFFFFFFFFFFFFFFFFFFFFFFFFFFFFFFFFFFFFF AND PUSH4 0x70A08231 ADDRESS PUSH1 0x40 MLOAD DUP3 PUSH4 0xFFFFFFFF AND PUSH1 0xE0 SHL DUP2 MSTORE PUSH1 0x4 ADD PUSH2 0xA5F SWAP2 SWAP1 PUSH2 0x2252 JUMP JUMPDEST PUSH1 0x20 PUSH1 0x40 MLOAD DUP1 DUP4 SUB DUP2 DUP7 GAS STATICCALL ISZERO DUP1 ISZERO PUSH2 0xA7C JUMPI RETURNDATASIZE PUSH1 0x0 DUP1 RETURNDATACOPY RETURNDATASIZE PUSH1 0x0 REVERT JUMPDEST POP POP POP POP PUSH1 0x40 MLOAD RETURNDATASIZE PUSH1 0x1F NOT PUSH1 0x1F DUP3 ADD AND DUP3 ADD DUP1 PUSH1 0x40 MSTORE POP DUP2 ADD SWAP1 PUSH2 0xAA0 SWAP2 SWAP1 PUSH2 0x28C2 JUMP JUMPDEST DUP6 GT ISZERO PUSH2 0xAE2 JUMPI PUSH1 0x40 MLOAD PUSH32 0x8C379A000000000000000000000000000000000000000000000000000000000 DUP2 MSTORE PUSH1 0x4 ADD PUSH2 0xAD9 SWAP1 PUSH2 0x27C7 JUMP JUMPDEST PUSH1 0x40 MLOAD DUP1 SWAP2 SUB SWAP1 REVERT JUMPDEST PUSH1 0x6 PUSH1 0x14 SWAP1 SLOAD SWAP1 PUSH2 0x100 EXP SWAP1 DIV PUSH1 0xFF AND ISZERO PUSH2 0xB32 JUMPI PUSH1 0x40 MLOAD PUSH32 0x8C379A000000000000000000000000000000000000000000000000000000000 DUP2 MSTORE PUSH1 0x4 ADD PUSH2 0xB29 SWAP1 PUSH2 0x2859 JUMP JUMPDEST PUSH1 0x40 MLOAD DUP1 SWAP2 SUB SWAP1 REVERT JUMPDEST PUSH1 0x1 PUSH1 0x6 PUSH1 0x14 PUSH2 0x100 EXP DUP2 SLOAD DUP2 PUSH1 0xFF MUL NOT AND SWAP1 DUP4 ISZERO ISZERO MUL OR SWAP1 SSTORE POP PUSH2 0xB73 PUSH1 0x64 PUSH2 0xB65 DUP4 DUP9 PUSH2 0x1F69 SWAP1 SWAP2 SWAP1 PUSH4 0xFFFFFFFF AND JUMP JUMPDEST PUSH2 0x1F7F SWAP1 SWAP2 SWAP1 PUSH4 0xFFFFFFFF AND JUMP JUMPDEST PUSH1 0x4 DUP2 SWAP1 SSTORE POP PUSH1 0x6 PUSH1 0x0 SWAP1 SLOAD SWAP1 PUSH2 0x100 EXP SWAP1 DIV PUSH20 0xFFFFFFFFFFFFFFFFFFFFFFFFFFFFFFFFFFFFFFFF AND PUSH20 0xFFFFFFFFFFFFFFFFFFFFFFFFFFFFFFFFFFFFFFFF AND PUSH4 0xA9059CBB DUP8 PUSH2 0xBCD PUSH1 0x4 SLOAD DUP10 PUSH2 0x1F95 SWAP1 SWAP2 SWAP1 PUSH4 0xFFFFFFFF AND JUMP JUMPDEST PUSH1 0x40 MLOAD DUP4 PUSH4 0xFFFFFFFF AND PUSH1 0xE0 SHL DUP2 MSTORE PUSH1 0x4 ADD PUSH2 0xBEA SWAP3 SWAP2 SWAP1 PUSH2 0x2910 JUMP JUMPDEST PUSH1 0x20 PUSH1 0x40 MLOAD DUP1 DUP4 SUB DUP2 PUSH1 0x0 DUP8 GAS CALL ISZERO DUP1 ISZERO PUSH2 0xC09 JUMPI RETURNDATASIZE PUSH1 0x0 DUP1 RETURNDATACOPY RETURNDATASIZE PUSH1 0x0 REVERT JUMPDEST POP POP POP POP PUSH1 0x40 MLOAD RETURNDATASIZE PUSH1 0x1F NOT PUSH1 0x1F DUP3 ADD AND DUP3 ADD DUP1 PUSH1 0x40 MSTORE POP DUP2 ADD SWAP1 PUSH2 0xC2D SWAP2 SWAP1 PUSH2 0x294E JUMP JUMPDEST POP PUSH1 0x6 PUSH1 0x0 SWAP1 SLOAD SWAP1 PUSH2 0x100 EXP SWAP1 DIV PUSH20 0xFFFFFFFFFFFFFFFFFFFFFFFFFFFFFFFFFFFFFFFF AND PUSH20 0xFFFFFFFFFFFFFFFFFFFFFFFFFFFFFFFFFFFFFFFF AND PUSH4 0xA9059CBB DUP4 PUSH1 0x4 SLOAD PUSH1 0x40 MLOAD DUP4 PUSH4 0xFFFFFFFF AND PUSH1 0xE0 SHL DUP2 MSTORE PUSH1 0x4 ADD PUSH2 0xC8D SWAP3 SWAP2 SWAP1 PUSH2 0x2910 JUMP JUMPDEST PUSH1 0x20 PUSH1 0x40 MLOAD DUP1 DUP4 SUB DUP2 PUSH1 0x0 DUP8 GAS CALL ISZERO DUP1 ISZERO PUSH2 0xCAC JUMPI RETURNDATASIZE PUSH1 0x0 DUP1 RETURNDATACOPY RETURNDATASIZE PUSH1 0x0 REVERT JUMPDEST POP POP POP POP PUSH1 0x40 MLOAD RETURNDATASIZE PUSH1 0x1F NOT PUSH1 0x1F DUP3 ADD AND DUP3 ADD DUP1 PUSH1 0x40 MSTORE POP DUP2 ADD SWAP1 PUSH2 0xCD0 SWAP2 SWAP1 PUSH2 0x294E JUMP JUMPDEST POP DUP5 PUSH1 0x9 PUSH1 0x0 DUP7 PUSH20 0xFFFFFFFFFFFFFFFFFFFFFFFFFFFFFFFFFFFFFFFF AND PUSH20 0xFFFFFFFFFFFFFFFFFFFFFFFFFFFFFFFFFFFFFFFF AND DUP2 MSTORE PUSH1 0x20 ADD SWAP1 DUP2 MSTORE PUSH1 0x20 ADD PUSH1 0x0 KECCAK256 PUSH1 0x0 DUP3 DUP3 SLOAD PUSH2 0xD20 SWAP2 SWAP1 PUSH2 0x2879 JUMP JUMPDEST SWAP3 POP POP DUP2 SWAP1 SSTORE POP PUSH1 0x0 PUSH1 0x6 PUSH1 0x14 PUSH2 0x100 EXP DUP2 SLOAD DUP2 PUSH1 0xFF MUL NOT AND SWAP1 DUP4 ISZERO ISZERO MUL OR SWAP1 SSTORE POP JUMPDEST POP POP POP POP POP POP POP JUMP JUMPDEST PUSH1 0x8 PUSH1 0x0 SWAP1 SLOAD SWAP1 PUSH2 0x100 EXP SWAP1 DIV PUSH1 0xFF AND DUP2 JUMP JUMPDEST DUP1 PUSH20 0xFFFFFFFFFFFFFFFFFFFFFFFFFFFFFFFFFFFFFFFF AND PUSH1 0x0 DUP1 SLOAD SWAP1 PUSH2 0x100 EXP SWAP1 DIV PUSH20 0xFFFFFFFFFFFFFFFFFFFFFFFFFFFFFFFFFFFFFFFF AND PUSH20 0xFFFFFFFFFFFFFFFFFFFFFFFFFFFFFFFFFFFFFFFF AND EQ PUSH2 0xDED JUMPI PUSH1 0x40 MLOAD PUSH32 0x8C379A000000000000000000000000000000000000000000000000000000000 DUP2 MSTORE PUSH1 0x4 ADD PUSH2 0xDE4 SWAP1 PUSH2 0x29ED JUMP JUMPDEST PUSH1 0x40 MLOAD DUP1 SWAP2 SUB SWAP1 REVERT JUMPDEST PUSH1 0x6 PUSH1 0x14 SWAP1 SLOAD SWAP1 PUSH2 0x100 EXP SWAP1 DIV PUSH1 0xFF AND ISZERO PUSH2 0xE3D JUMPI PUSH1 0x40 MLOAD PUSH32 0x8C379A000000000000000000000000000000000000000000000000000000000 DUP2 MSTORE PUSH1 0x4 ADD PUSH2 0xE34 SWAP1 PUSH2 0x2859 JUMP JUMPDEST PUSH1 0x40 MLOAD DUP1 SWAP2 SUB SWAP1 REVERT JUMPDEST PUSH1 0x1 PUSH1 0x6 PUSH1 0x14 PUSH2 0x100 EXP DUP2 SLOAD DUP2 PUSH1 0xFF MUL NOT AND SWAP1 DUP4 ISZERO ISZERO MUL OR SWAP1 SSTORE POP DUP3 PUSH1 0x1 PUSH1 0x0 PUSH2 0x100 EXP DUP2 SLOAD DUP2 PUSH20 0xFFFFFFFFFFFFFFFFFFFFFFFFFFFFFFFFFFFFFFFF MUL NOT AND SWAP1 DUP4 PUSH20 0xFFFFFFFFFFFFFFFFFFFFFFFFFFFFFFFFFFFFFFFF AND MUL OR SWAP1 SSTORE POP DUP2 PUSH1 0x3 DUP2 SWAP1 SSTORE POP PUSH1 0x0 PUSH1 0x6 PUSH1 0x14 PUSH2 0x100 EXP DUP2 SLOAD DUP2 PUSH1 0xFF MUL NOT AND SWAP1 DUP4 ISZERO ISZERO MUL OR SWAP1 SSTORE POP TIMESTAMP PUSH1 0x2 DUP2 SWAP1 SSTORE POP POP POP POP JUMP JUMPDEST PUSH1 0x0 DUP3 ISZERO PUSH2 0xED7 JUMPI SELFBALANCE SWAP1 POP PUSH2 0xF54 JUMP JUMPDEST DUP2 PUSH20 0xFFFFFFFFFFFFFFFFFFFFFFFFFFFFFFFFFFFFFFFF AND PUSH4 0x70A08231 ADDRESS PUSH1 0x40 MLOAD DUP3 PUSH4 0xFFFFFFFF AND PUSH1 0xE0 SHL DUP2 MSTORE PUSH1 0x4 ADD PUSH2 0xF10 SWAP2 SWAP1 PUSH2 0x2252 JUMP JUMPDEST PUSH1 0x20 PUSH1 0x40 MLOAD DUP1 DUP4 SUB DUP2 DUP7 GAS STATICCALL ISZERO DUP1 ISZERO PUSH2 0xF2D JUMPI RETURNDATASIZE PUSH1 0x0 DUP1 RETURNDATACOPY RETURNDATASIZE PUSH1 0x0 REVERT JUMPDEST POP POP POP POP PUSH1 0x40 MLOAD RETURNDATASIZE PUSH1 0x1F NOT PUSH1 0x1F DUP3 ADD AND DUP3 ADD DUP1 PUSH1 0x40 MSTORE POP DUP2 ADD SWAP1 PUSH2 0xF51 SWAP2 SWAP1 PUSH2 0x28C2 JUMP JUMPDEST SWAP1 POP JUMPDEST SWAP3 SWAP2 POP POP JUMP JUMPDEST PUSH1 0x0 PUSH1 0x1 PUSH1 0x0 SWAP1 SLOAD SWAP1 PUSH2 0x100 EXP SWAP1 DIV PUSH20 0xFFFFFFFFFFFFFFFFFFFFFFFFFFFFFFFFFFFFFFFF AND SWAP1 POP SWAP1 JUMP JUMPDEST PUSH1 0x2 SLOAD DUP2 JUMP JUMPDEST PUSH1 0x0 DUP4 GT PUSH2 0xFCD JUMPI PUSH1 0x40 MLOAD PUSH32 0x8C379A000000000000000000000000000000000000000000000000000000000 DUP2 MSTORE PUSH1 0x4 ADD PUSH2 0xFC4 SWAP1 PUSH2 0x2A59 JUMP JUMPDEST PUSH1 0x40 MLOAD DUP1 SWAP2 SUB SWAP1 REVERT JUMPDEST PUSH1 0x0 DUP3 SWAP1 POP DUP1 PUSH20 0xFFFFFFFFFFFFFFFFFFFFFFFFFFFFFFFFFFFFFFFF AND PUSH4 0x95EA7B3 DUP4 DUP7 PUSH1 0x40 MLOAD DUP4 PUSH4 0xFFFFFFFF AND PUSH1 0xE0 SHL DUP2 MSTORE PUSH1 0x4 ADD PUSH2 0x100D SWAP3 SWAP2 SWAP1 PUSH2 0x2910 JUMP JUMPDEST PUSH1 0x20 PUSH1 0x40 MLOAD DUP1 DUP4 SUB DUP2 PUSH1 0x0 DUP8 GAS CALL ISZERO DUP1 ISZERO PUSH2 0x102C JUMPI RETURNDATASIZE PUSH1 0x0 DUP1 RETURNDATACOPY RETURNDATASIZE PUSH1 0x0 REVERT JUMPDEST POP POP POP POP PUSH1 0x40 MLOAD RETURNDATASIZE PUSH1 0x1F NOT PUSH1 0x1F DUP3 ADD AND DUP3 ADD DUP1 PUSH1 0x40 MSTORE POP DUP2 ADD SWAP1 PUSH2 0x1050 SWAP2 SWAP1 PUSH2 0x294E JUMP JUMPDEST POP POP POP POP POP JUMP JUMPDEST PUSH1 0x0 DUP1 SLOAD SWAP1 PUSH2 0x100 EXP SWAP1 DIV PUSH20 0xFFFFFFFFFFFFFFFFFFFFFFFFFFFFFFFFFFFFFFFF AND PUSH20 0xFFFFFFFFFFFFFFFFFFFFFFFFFFFFFFFFFFFFFFFF AND DUP4 PUSH20 0xFFFFFFFFFFFFFFFFFFFFFFFFFFFFFFFFFFFFFFFF AND EQ PUSH2 0x10E5 JUMPI PUSH1 0x40 MLOAD PUSH32 0x8C379A000000000000000000000000000000000000000000000000000000000 DUP2 MSTORE PUSH1 0x4 ADD PUSH2 0x10DC SWAP1 PUSH2 0x2AEB JUMP JUMPDEST PUSH1 0x40 MLOAD DUP1 SWAP2 SUB SWAP1 REVERT JUMPDEST DUP2 PUSH1 0x9 PUSH1 0x0 DUP4 PUSH20 0xFFFFFFFFFFFFFFFFFFFFFFFFFFFFFFFFFFFFFFFF AND PUSH20 0xFFFFFFFFFFFFFFFFFFFFFFFFFFFFFFFFFFFFFFFF AND DUP2 MSTORE PUSH1 0x20 ADD SWAP1 DUP2 MSTORE PUSH1 0x20 ADD PUSH1 0x0 KECCAK256 DUP2 SWAP1 SSTORE POP POP POP POP JUMP JUMPDEST PUSH1 0x1 PUSH1 0x0 SWAP1 SLOAD SWAP1 PUSH2 0x100 EXP SWAP1 DIV PUSH20 0xFFFFFFFFFFFFFFFFFFFFFFFFFFFFFFFFFFFFFFFF AND DUP2 JUMP JUMPDEST PUSH1 0x0 DUP1 SLOAD SWAP1 PUSH2 0x100 EXP SWAP1 DIV PUSH20 0xFFFFFFFFFFFFFFFFFFFFFFFFFFFFFFFFFFFFFFFF AND PUSH20 0xFFFFFFFFFFFFFFFFFFFFFFFFFFFFFFFFFFFFFFFF AND DUP2 PUSH20 0xFFFFFFFFFFFFFFFFFFFFFFFFFFFFFFFFFFFFFFFF AND EQ PUSH2 0x11E2 JUMPI PUSH1 0x40 MLOAD PUSH32 0x8C379A000000000000000000000000000000000000000000000000000000000 DUP2 MSTORE PUSH1 0x4 ADD PUSH2 0x11D9 SWAP1 PUSH2 0x2B7D JUMP JUMPDEST PUSH1 0x40 MLOAD DUP1 SWAP2 SUB SWAP1 REVERT JUMPDEST PUSH1 0x0 PUSH1 0x8 PUSH1 0x0 PUSH2 0x100 EXP DUP2 SLOAD DUP2 PUSH1 0xFF MUL NOT AND SWAP1 DUP4 ISZERO ISZERO MUL OR SWAP1 SSTORE POP PUSH32 0xCA5069937E68FD197927055037F59D7C90BF75AC104E6E375539EF480C3AD6EE DUP2 PUSH1 0x40 MLOAD PUSH2 0x122C SWAP2 SWAP1 PUSH2 0x2252 JUMP JUMPDEST PUSH1 0x40 MLOAD DUP1 SWAP2 SUB SWAP1 LOG1 POP JUMP JUMPDEST PUSH1 0x0 PUSH1 0x2 SLOAD SWAP1 POP SWAP1 JUMP JUMPDEST PUSH1 0x3 SLOAD DUP2 JUMP JUMPDEST PUSH1 0x5 PUSH1 0x0 SWAP1 SLOAD SWAP1 PUSH2 0x100 EXP SWAP1 DIV PUSH20 0xFFFFFFFFFFFFFFFFFFFFFFFFFFFFFFFFFFFFFFFF AND DUP2 JUMP JUMPDEST PUSH1 0x0 DUP1 SLOAD SWAP1 PUSH2 0x100 EXP SWAP1 DIV PUSH20 0xFFFFFFFFFFFFFFFFFFFFFFFFFFFFFFFFFFFFFFFF AND PUSH20 0xFFFFFFFFFFFFFFFFFFFFFFFFFFFFFFFFFFFFFFFF AND DUP4 PUSH20 0xFFFFFFFFFFFFFFFFFFFFFFFFFFFFFFFFFFFFFFFF AND EQ DUP1 PUSH2 0x1314 JUMPI POP PUSH1 0x1 PUSH1 0x0 SWAP1 SLOAD SWAP1 PUSH2 0x100 EXP SWAP1 DIV PUSH20 0xFFFFFFFFFFFFFFFFFFFFFFFFFFFFFFFFFFFFFFFF AND PUSH20 0xFFFFFFFFFFFFFFFFFFFFFFFFFFFFFFFFFFFFFFFF AND DUP4 PUSH20 0xFFFFFFFFFFFFFFFFFFFFFFFFFFFFFFFFFFFFFFFF AND EQ JUMPDEST PUSH2 0x1353 JUMPI PUSH1 0x40 MLOAD PUSH32 0x8C379A000000000000000000000000000000000000000000000000000000000 DUP2 MSTORE PUSH1 0x4 ADD PUSH2 0x134A SWAP1 PUSH2 0x25AE JUMP JUMPDEST PUSH1 0x40 MLOAD DUP1 SWAP2 SUB SWAP1 REVERT JUMPDEST PUSH1 0x1 PUSH1 0x0 SWAP1 SLOAD SWAP1 PUSH2 0x100 EXP SWAP1 DIV PUSH20 0xFFFFFFFFFFFFFFFFFFFFFFFFFFFFFFFFFFFFFFFF AND PUSH20 0xFFFFFFFFFFFFFFFFFFFFFFFFFFFFFFFFFFFFFFFF AND DUP4 PUSH20 0xFFFFFFFFFFFFFFFFFFFFFFFFFFFFFFFFFFFFFFFF AND SUB PUSH2 0x1444 JUMPI PUSH1 0x9 PUSH1 0x0 DUP6 PUSH20 0xFFFFFFFFFFFFFFFFFFFFFFFFFFFFFFFFFFFFFFFF AND PUSH20 0xFFFFFFFFFFFFFFFFFFFFFFFFFFFFFFFFFFFFFFFF AND DUP2 MSTORE PUSH1 0x20 ADD SWAP1 DUP2 MSTORE PUSH1 0x20 ADD PUSH1 0x0 KECCAK256 SLOAD DUP6 GT ISZERO DUP1 PUSH2 0x1404 JUMPI POP TIMESTAMP PUSH1 0x3 SLOAD PUSH1 0x2 SLOAD PUSH2 0x1402 SWAP2 SWAP1 PUSH2 0x25FD JUMP JUMPDEST LT JUMPDEST PUSH2 0x1443 JUMPI PUSH1 0x40 MLOAD PUSH32 0x8C379A000000000000000000000000000000000000000000000000000000000 DUP2 MSTORE PUSH1 0x4 ADD PUSH2 0x143A SWAP1 PUSH2 0x26C9 JUMP JUMPDEST PUSH1 0x40 MLOAD DUP1 SWAP2 SUB SWAP1 REVERT JUMPDEST JUMPDEST PUSH1 0x8 PUSH1 0x0 SWAP1 SLOAD SWAP1 PUSH2 0x100 EXP SWAP1 DIV PUSH1 0xFF AND ISZERO PUSH2 0x1494 JUMPI PUSH1 0x40 MLOAD PUSH32 0x8C379A000000000000000000000000000000000000000000000000000000000 DUP2 MSTORE PUSH1 0x4 ADD PUSH2 0x148B SWAP1 PUSH2 0x275B JUMP JUMPDEST PUSH1 0x40 MLOAD DUP1 SWAP2 SUB SWAP1 REVERT JUMPDEST DUP6 ISZERO PUSH2 0x16F1 JUMPI PUSH1 0x0 SELFBALANCE GT PUSH2 0x14DD JUMPI PUSH1 0x40 MLOAD PUSH32 0x8C379A000000000000000000000000000000000000000000000000000000000 DUP2 MSTORE PUSH1 0x4 ADD PUSH2 0x14D4 SWAP1 PUSH2 0x2BE9 JUMP JUMPDEST PUSH1 0x40 MLOAD DUP1 SWAP2 SUB SWAP1 REVERT JUMPDEST SELFBALANCE DUP6 GT ISZERO PUSH2 0x1520 JUMPI PUSH1 0x40 MLOAD PUSH32 0x8C379A000000000000000000000000000000000000000000000000000000000 DUP2 MSTORE PUSH1 0x4 ADD PUSH2 0x1517 SWAP1 PUSH2 0x27C7 JUMP JUMPDEST PUSH1 0x40 MLOAD DUP1 SWAP2 SUB SWAP1 REVERT JUMPDEST PUSH1 0x6 PUSH1 0x14 SWAP1 SLOAD SWAP1 PUSH2 0x100 EXP SWAP1 DIV PUSH1 0xFF AND ISZERO PUSH2 0x1570 JUMPI PUSH1 0x40 MLOAD PUSH32 0x8C379A000000000000000000000000000000000000000000000000000000000 DUP2 MSTORE PUSH1 0x4 ADD PUSH2 0x1567 SWAP1 PUSH2 0x2859 JUMP JUMPDEST PUSH1 0x40 MLOAD DUP1 SWAP2 SUB SWAP1 REVERT JUMPDEST PUSH1 0x1 PUSH1 0x6 PUSH1 0x14 PUSH2 0x100 EXP DUP2 SLOAD DUP2 PUSH1 0xFF MUL NOT AND SWAP1 DUP4 ISZERO ISZERO MUL OR SWAP1 SSTORE POP PUSH2 0x15B1 PUSH1 0x64 PUSH2 0x15A3 DUP4 DUP9 PUSH2 0x1F69 SWAP1 SWAP2 SWAP1 PUSH4 0xFFFFFFFF AND JUMP JUMPDEST PUSH2 0x1F7F SWAP1 SWAP2 SWAP1 PUSH4 0xFFFFFFFF AND JUMP JUMPDEST PUSH1 0x4 DUP2 SWAP1 SSTORE POP PUSH1 0x0 DUP1 SLOAD SWAP1 PUSH2 0x100 EXP SWAP1 DIV PUSH20 0xFFFFFFFFFFFFFFFFFFFFFFFFFFFFFFFFFFFFFFFF AND PUSH20 0xFFFFFFFFFFFFFFFFFFFFFFFFFFFFFFFFFFFFFFFF AND PUSH2 0x8FC PUSH2 0x1606 PUSH1 0x4 SLOAD DUP9 PUSH2 0x1F95 SWAP1 SWAP2 SWAP1 PUSH4 0xFFFFFFFF AND JUMP JUMPDEST SWAP1 DUP2 ISZERO MUL SWAP1 PUSH1 0x40 MLOAD PUSH1 0x0 PUSH1 0x40 MLOAD DUP1 DUP4 SUB DUP2 DUP6 DUP9 DUP9 CALL SWAP4 POP POP POP POP ISZERO DUP1 ISZERO PUSH2 0x1631 JUMPI RETURNDATASIZE PUSH1 0x0 DUP1 RETURNDATACOPY RETURNDATASIZE PUSH1 0x0 REVERT JUMPDEST POP DUP2 PUSH20 0xFFFFFFFFFFFFFFFFFFFFFFFFFFFFFFFFFFFFFFFF AND PUSH2 0x8FC PUSH1 0x4 SLOAD SWAP1 DUP2 ISZERO MUL SWAP1 PUSH1 0x40 MLOAD PUSH1 0x0 PUSH1 0x40 MLOAD DUP1 DUP4 SUB DUP2 DUP6 DUP9 DUP9 CALL SWAP4 POP POP POP POP ISZERO DUP1 ISZERO PUSH2 0x167A JUMPI RETURNDATASIZE PUSH1 0x0 DUP1 RETURNDATACOPY RETURNDATASIZE PUSH1 0x0 REVERT JUMPDEST POP DUP5 PUSH1 0x9 PUSH1 0x0 DUP7 PUSH20 0xFFFFFFFFFFFFFFFFFFFFFFFFFFFFFFFFFFFFFFFF AND PUSH20 0xFFFFFFFFFFFFFFFFFFFFFFFFFFFFFFFFFFFFFFFF AND DUP2 MSTORE PUSH1 0x20 ADD SWAP1 DUP2 MSTORE PUSH1 0x20 ADD PUSH1 0x0 KECCAK256 PUSH1 0x0 DUP3 DUP3 SLOAD PUSH2 0x16CA SWAP2 SWAP1 PUSH2 0x2879 JUMP JUMPDEST SWAP3 POP POP DUP2 SWAP1 SSTORE POP PUSH1 0x0 PUSH1 0x6 PUSH1 0x14 PUSH2 0x100 EXP DUP2 SLOAD DUP2 PUSH1 0xFF MUL NOT AND SWAP1 DUP4 ISZERO ISZERO MUL OR SWAP1 SSTORE POP PUSH2 0x1B6F JUMP JUMPDEST DUP4 PUSH1 0x6 PUSH1 0x0 PUSH2 0x100 EXP DUP2 SLOAD DUP2 PUSH20 0xFFFFFFFFFFFFFFFFFFFFFFFFFFFFFFFFFFFFFFFF MUL NOT AND SWAP1 DUP4 PUSH20 0xFFFFFFFFFFFFFFFFFFFFFFFFFFFFFFFFFFFFFFFF AND MUL OR SWAP1 SSTORE POP PUSH1 0x0 PUSH1 0x6 PUSH1 0x0 SWAP1 SLOAD SWAP1 PUSH2 0x100 EXP SWAP1 DIV PUSH20 0xFFFFFFFFFFFFFFFFFFFFFFFFFFFFFFFFFFFFFFFF AND PUSH20 0xFFFFFFFFFFFFFFFFFFFFFFFFFFFFFFFFFFFFFFFF AND PUSH4 0x70A08231 ADDRESS PUSH1 0x40 MLOAD DUP3 PUSH4 0xFFFFFFFF AND PUSH1 0xE0 SHL DUP2 MSTORE PUSH1 0x4 ADD PUSH2 0x178F SWAP2 SWAP1 PUSH2 0x2252 JUMP JUMPDEST PUSH1 0x20 PUSH1 0x40 MLOAD DUP1 DUP4 SUB DUP2 DUP7 GAS STATICCALL ISZERO DUP1 ISZERO PUSH2 0x17AC JUMPI RETURNDATASIZE PUSH1 0x0 DUP1 RETURNDATACOPY RETURNDATASIZE PUSH1 0x0 REVERT JUMPDEST POP POP POP POP PUSH1 0x40 MLOAD RETURNDATASIZE PUSH1 0x1F NOT PUSH1 0x1F DUP3 ADD AND DUP3 ADD DUP1 PUSH1 0x40 MSTORE POP DUP2 ADD SWAP1 PUSH2 0x17D0 SWAP2 SWAP1 PUSH2 0x28C2 JUMP JUMPDEST GT PUSH2 0x1810 JUMPI PUSH1 0x40 MLOAD PUSH32 0x8C379A000000000000000000000000000000000000000000000000000000000 DUP2 MSTORE PUSH1 0x4 ADD PUSH2 0x1807 SWAP1 PUSH2 0x2BE9 JUMP JUMPDEST PUSH1 0x40 MLOAD DUP1 SWAP2 SUB SWAP1 REVERT JUMPDEST PUSH1 0x6 PUSH1 0x0 SWAP1 SLOAD SWAP1 PUSH2 0x100 EXP SWAP1 DIV PUSH20 0xFFFFFFFFFFFFFFFFFFFFFFFFFFFFFFFFFFFFFFFF AND PUSH20 0xFFFFFFFFFFFFFFFFFFFFFFFFFFFFFFFFFFFFFFFF AND PUSH4 0x70A08231 ADDRESS PUSH1 0x40 MLOAD DUP3 PUSH4 0xFFFFFFFF AND PUSH1 0xE0 SHL DUP2 MSTORE PUSH1 0x4 ADD PUSH2 0x186B SWAP2 SWAP1 PUSH2 0x2252 JUMP JUMPDEST PUSH1 0x20 PUSH1 0x40 MLOAD DUP1 DUP4 SUB DUP2 DUP7 GAS STATICCALL ISZERO DUP1 ISZERO PUSH2 0x1888 JUMPI RETURNDATASIZE PUSH1 0x0 DUP1 RETURNDATACOPY RETURNDATASIZE PUSH1 0x0 REVERT JUMPDEST POP POP POP POP PUSH1 0x40 MLOAD RETURNDATASIZE PUSH1 0x1F NOT PUSH1 0x1F DUP3 ADD AND DUP3 ADD DUP1 PUSH1 0x40 MSTORE POP DUP2 ADD SWAP1 PUSH2 0x18AC SWAP2 SWAP1 PUSH2 0x28C2 JUMP JUMPDEST DUP6 GT ISZERO PUSH2 0x18EE JUMPI PUSH1 0x40 MLOAD PUSH32 0x8C379A000000000000000000000000000000000000000000000000000000000 DUP2 MSTORE PUSH1 0x4 ADD PUSH2 0x18E5 SWAP1 PUSH2 0x27C7 JUMP JUMPDEST PUSH1 0x40 MLOAD DUP1 SWAP2 SUB SWAP1 REVERT JUMPDEST PUSH1 0x6 PUSH1 0x14 SWAP1 SLOAD SWAP1 PUSH2 0x100 EXP SWAP1 DIV PUSH1 0xFF AND ISZERO PUSH2 0x193E JUMPI PUSH1 0x40 MLOAD PUSH32 0x8C379A000000000000000000000000000000000000000000000000000000000 DUP2 MSTORE PUSH1 0x4 ADD PUSH2 0x1935 SWAP1 PUSH2 0x2859 JUMP JUMPDEST PUSH1 0x40 MLOAD DUP1 SWAP2 SUB SWAP1 REVERT JUMPDEST PUSH1 0x1 PUSH1 0x6 PUSH1 0x14 PUSH2 0x100 EXP DUP2 SLOAD DUP2 PUSH1 0xFF MUL NOT AND SWAP1 DUP4 ISZERO ISZERO MUL OR SWAP1 SSTORE POP PUSH2 0x197F PUSH1 0x64 PUSH2 0x1971 DUP4 DUP9 PUSH2 0x1F69 SWAP1 SWAP2 SWAP1 PUSH4 0xFFFFFFFF AND JUMP JUMPDEST PUSH2 0x1F7F SWAP1 SWAP2 SWAP1 PUSH4 0xFFFFFFFF AND JUMP JUMPDEST PUSH1 0x4 DUP2 SWAP1 SSTORE POP PUSH1 0x6 PUSH1 0x0 SWAP1 SLOAD SWAP1 PUSH2 0x100 EXP SWAP1 DIV PUSH20 0xFFFFFFFFFFFFFFFFFFFFFFFFFFFFFFFFFFFFFFFF AND PUSH20 0xFFFFFFFFFFFFFFFFFFFFFFFFFFFFFFFFFFFFFFFF AND PUSH4 0xA9059CBB PUSH1 0x0 DUP1 SLOAD SWAP1 PUSH2 0x100 EXP SWAP1 DIV PUSH20 0xFFFFFFFFFFFFFFFFFFFFFFFFFFFFFFFFFFFFFFFF AND PUSH2 0x19F9 PUSH1 0x4 SLOAD DUP10 PUSH2 0x1F95 SWAP1 SWAP2 SWAP1 PUSH4 0xFFFFFFFF AND JUMP JUMPDEST PUSH1 0x40 MLOAD DUP4 PUSH4 0xFFFFFFFF AND PUSH1 0xE0 SHL DUP2 MSTORE PUSH1 0x4 ADD PUSH2 0x1A16 SWAP3 SWAP2 SWAP1 PUSH2 0x2910 JUMP JUMPDEST PUSH1 0x20 PUSH1 0x40 MLOAD DUP1 DUP4 SUB DUP2 PUSH1 0x0 DUP8 GAS CALL ISZERO DUP1 ISZERO PUSH2 0x1A35 JUMPI RETURNDATASIZE PUSH1 0x0 DUP1 RETURNDATACOPY RETURNDATASIZE PUSH1 0x0 REVERT JUMPDEST POP POP POP POP PUSH1 0x40 MLOAD RETURNDATASIZE PUSH1 0x1F NOT PUSH1 0x1F DUP3 ADD AND DUP3 ADD DUP1 PUSH1 0x40 MSTORE POP DUP2 ADD SWAP1 PUSH2 0x1A59 SWAP2 SWAP1 PUSH2 0x294E JUMP JUMPDEST POP PUSH1 0x6 PUSH1 0x0 SWAP1 SLOAD SWAP1 PUSH2 0x100 EXP SWAP1 DIV PUSH20 0xFFFFFFFFFFFFFFFFFFFFFFFFFFFFFFFFFFFFFFFF AND PUSH20 0xFFFFFFFFFFFFFFFFFFFFFFFFFFFFFFFFFFFFFFFF AND PUSH4 0xA9059CBB DUP4 PUSH1 0x4 SLOAD PUSH1 0x40 MLOAD DUP4 PUSH4 0xFFFFFFFF AND PUSH1 0xE0 SHL DUP2 MSTORE PUSH1 0x4 ADD PUSH2 0x1AB9 SWAP3 SWAP2 SWAP1 PUSH2 0x2910 JUMP JUMPDEST PUSH1 0x20 PUSH1 0x40 MLOAD DUP1 DUP4 SUB DUP2 PUSH1 0x0 DUP8 GAS CALL ISZERO DUP1 ISZERO PUSH2 0x1AD8 JUMPI RETURNDATASIZE PUSH1 0x0 DUP1 RETURNDATACOPY RETURNDATASIZE PUSH1 0x0 REVERT JUMPDEST POP POP POP POP PUSH1 0x40 MLOAD RETURNDATASIZE PUSH1 0x1F NOT PUSH1 0x1F DUP3 ADD AND DUP3 ADD DUP1 PUSH1 0x40 MSTORE POP DUP2 ADD SWAP1 PUSH2 0x1AFC SWAP2 SWAP1 PUSH2 0x294E JUMP JUMPDEST POP DUP5 PUSH1 0x9 PUSH1 0x0 DUP7 PUSH20 0xFFFFFFFFFFFFFFFFFFFFFFFFFFFFFFFFFFFFFFFF AND PUSH20 0xFFFFFFFFFFFFFFFFFFFFFFFFFFFFFFFFFFFFFFFF AND DUP2 MSTORE PUSH1 0x20 ADD SWAP1 DUP2 MSTORE PUSH1 0x20 ADD PUSH1 0x0 KECCAK256 PUSH1 0x0 DUP3 DUP3 SLOAD PUSH2 0x1B4C SWAP2 SWAP1 PUSH2 0x2879 JUMP JUMPDEST SWAP3 POP POP DUP2 SWAP1 SSTORE POP PUSH1 0x0 PUSH1 0x6 PUSH1 0x14 PUSH2 0x100 EXP DUP2 SLOAD DUP2 PUSH1 0xFF MUL NOT AND SWAP1 DUP4 ISZERO ISZERO MUL OR SWAP1 SSTORE POP JUMPDEST POP POP POP POP POP POP JUMP JUMPDEST PUSH1 0x0 DUP1 SLOAD SWAP1 PUSH2 0x100 EXP SWAP1 DIV PUSH20 0xFFFFFFFFFFFFFFFFFFFFFFFFFFFFFFFFFFFFFFFF AND PUSH20 0xFFFFFFFFFFFFFFFFFFFFFFFFFFFFFFFFFFFFFFFF AND DUP2 PUSH20 0xFFFFFFFFFFFFFFFFFFFFFFFFFFFFFFFFFFFFFFFF AND EQ PUSH2 0x1C05 JUMPI PUSH1 0x40 MLOAD PUSH32 0x8C379A000000000000000000000000000000000000000000000000000000000 DUP2 MSTORE PUSH1 0x4 ADD PUSH2 0x1BFC SWAP1 PUSH2 0x2C7B JUMP JUMPDEST PUSH1 0x40 MLOAD DUP1 SWAP2 SUB SWAP1 REVERT JUMPDEST PUSH1 0x1 PUSH1 0x8 PUSH1 0x0 PUSH2 0x100 EXP DUP2 SLOAD DUP2 PUSH1 0xFF MUL NOT AND SWAP1 DUP4 ISZERO ISZERO MUL OR SWAP1 SSTORE POP PUSH32 0xAF85B60D26151EDD11443B704D424DA6C43D0468F2235EBAE3D1904DBC323049 DUP2 PUSH1 0x40 MLOAD PUSH2 0x1C4F SWAP2 SWAP1 PUSH2 0x2252 JUMP JUMPDEST PUSH1 0x40 MLOAD DUP1 SWAP2 SUB SWAP1 LOG1 POP JUMP JUMPDEST PUSH1 0x0 DUP1 SLOAD SWAP1 PUSH2 0x100 EXP SWAP1 DIV PUSH20 0xFFFFFFFFFFFFFFFFFFFFFFFFFFFFFFFFFFFFFFFF AND DUP2 JUMP JUMPDEST PUSH1 0x0 DUP1 DUP5 SWAP1 POP DUP1 PUSH20 0xFFFFFFFFFFFFFFFFFFFFFFFFFFFFFFFFFFFFFFFF AND PUSH4 0xDD62ED3E DUP6 DUP6 PUSH1 0x40 MLOAD DUP4 PUSH4 0xFFFFFFFF AND PUSH1 0xE0 SHL DUP2 MSTORE PUSH1 0x4 ADD PUSH2 0x1CBF SWAP3 SWAP2 SWAP1 PUSH2 0x2C9B JUMP JUMPDEST PUSH1 0x20 PUSH1 0x40 MLOAD DUP1 DUP4 SUB DUP2 DUP7 GAS STATICCALL ISZERO DUP1 ISZERO PUSH2 0x1CDC JUMPI RETURNDATASIZE PUSH1 0x0 DUP1 RETURNDATACOPY RETURNDATASIZE PUSH1 0x0 REVERT JUMPDEST POP POP POP POP PUSH1 0x40 MLOAD RETURNDATASIZE PUSH1 0x1F NOT PUSH1 0x1F DUP3 ADD AND DUP3 ADD DUP1 PUSH1 0x40 MSTORE POP DUP2 ADD SWAP1 PUSH2 0x1D00 SWAP2 SWAP1 PUSH2 0x28C2 JUMP JUMPDEST SWAP2 POP POP SWAP4 SWAP3 POP POP POP JUMP JUMPDEST PUSH1 0x0 DUP1 PUSH1 0x0 SWAP1 SLOAD SWAP1 PUSH2 0x100 EXP SWAP1 DIV PUSH20 0xFFFFFFFFFFFFFFFFFFFFFFFFFFFFFFFFFFFFFFFF AND SWAP1 POP SWAP1 JUMP JUMPDEST PUSH1 0x7 SLOAD DUP2 JUMP JUMPDEST PUSH1 0x6 PUSH1 0x14 SWAP1 SLOAD SWAP1 PUSH2 0x100 EXP SWAP1 DIV PUSH1 0xFF AND DUP2 JUMP JUMPDEST PUSH1 0x0 DUP5 GT PUSH2 0x1D8F JUMPI PUSH1 0x40 MLOAD PUSH32 0x8C379A000000000000000000000000000000000000000000000000000000000 DUP2 MSTORE PUSH1 0x4 ADD PUSH2 0x1D86 SWAP1 PUSH2 0x2A59 JUMP JUMPDEST PUSH1 0x40 MLOAD DUP1 SWAP2 SUB SWAP1 REVERT JUMPDEST PUSH1 0x0 DUP3 SWAP1 POP DUP5 DUP2 PUSH20 0xFFFFFFFFFFFFFFFFFFFFFFFFFFFFFFFFFFFFFFFF AND PUSH4 0x70A08231 DUP7 PUSH1 0x40 MLOAD DUP3 PUSH4 0xFFFFFFFF AND PUSH1 0xE0 SHL DUP2 MSTORE PUSH1 0x4 ADD PUSH2 0x1DCE SWAP2 SWAP1 PUSH2 0x2CC4 JUMP JUMPDEST PUSH1 0x20 PUSH1 0x40 MLOAD DUP1 DUP4 SUB DUP2 DUP7 GAS STATICCALL ISZERO DUP1 ISZERO PUSH2 0x1DEB JUMPI RETURNDATASIZE PUSH1 0x0 DUP1 RETURNDATACOPY RETURNDATASIZE PUSH1 0x0 REVERT JUMPDEST POP POP POP POP PUSH1 0x40 MLOAD RETURNDATASIZE PUSH1 0x1F NOT PUSH1 0x1F DUP3 ADD AND DUP3 ADD DUP1 PUSH1 0x40 MSTORE POP DUP2 ADD SWAP1 PUSH2 0x1E0F SWAP2 SWAP1 PUSH2 0x28C2 JUMP JUMPDEST LT ISZERO PUSH2 0x1E50 JUMPI PUSH1 0x40 MLOAD PUSH32 0x8C379A000000000000000000000000000000000000000000000000000000000 DUP2 MSTORE PUSH1 0x4 ADD PUSH2 0x1E47 SWAP1 PUSH2 0x2D2B JUMP JUMPDEST PUSH1 0x40 MLOAD DUP1 SWAP2 SUB SWAP1 REVERT JUMPDEST DUP1 PUSH20 0xFFFFFFFFFFFFFFFFFFFFFFFFFFFFFFFFFFFFFFFF AND PUSH4 0x23B872DD DUP6 DUP5 DUP9 PUSH1 0x40 MLOAD DUP5 PUSH4 0xFFFFFFFF AND PUSH1 0xE0 SHL DUP2 MSTORE PUSH1 0x4 ADD PUSH2 0x1E8D SWAP4 SWAP3 SWAP2 SWAP1 PUSH2 0x2D4B JUMP JUMPDEST PUSH1 0x20 PUSH1 0x40 MLOAD DUP1 DUP4 SUB DUP2 PUSH1 0x0 DUP8 GAS CALL ISZERO DUP1 ISZERO PUSH2 0x1EAC JUMPI RETURNDATASIZE PUSH1 0x0 DUP1 RETURNDATACOPY RETURNDATASIZE PUSH1 0x0 REVERT JUMPDEST POP POP POP POP PUSH1 0x40 MLOAD RETURNDATASIZE PUSH1 0x1F NOT PUSH1 0x1F DUP3 ADD AND DUP3 ADD DUP1 PUSH1 0x40 MSTORE POP DUP2 ADD SWAP1 PUSH2 0x1ED0 SWAP2 SWAP1 PUSH2 0x294E JUMP JUMPDEST POP POP POP POP POP POP JUMP JUMPDEST PUSH1 0x0 PUSH1 0x3 SLOAD SWAP1 POP SWAP1 JUMP JUMPDEST PUSH1 0x6 PUSH1 0x0 SWAP1 SLOAD SWAP1 PUSH2 0x100 EXP SWAP1 DIV PUSH20 0xFFFFFFFFFFFFFFFFFFFFFFFFFFFFFFFFFFFFFFFF AND DUP2 JUMP JUMPDEST PUSH1 0x0 PUSH1 0x9 PUSH1 0x0 DUP4 PUSH20 0xFFFFFFFFFFFFFFFFFFFFFFFFFFFFFFFFFFFFFFFF AND PUSH20 0xFFFFFFFFFFFFFFFFFFFFFFFFFFFFFFFFFFFFFFFF AND DUP2 MSTORE PUSH1 0x20 ADD SWAP1 DUP2 MSTORE PUSH1 0x20 ADD PUSH1 0x0 KECCAK256 SLOAD SWAP1 POP SWAP2 SWAP1 POP JUMP JUMPDEST PUSH1 0x9 PUSH1 0x20 MSTORE DUP1 PUSH1 0x0 MSTORE PUSH1 0x40 PUSH1 0x0 KECCAK256 PUSH1 0x0 SWAP2 POP SWAP1 POP SLOAD DUP2 JUMP JUMPDEST PUSH1 0x0 DUP2 DUP4 PUSH2 0x1F77 SWAP2 SWAP1 PUSH2 0x2D82 JUMP JUMPDEST SWAP1 POP SWAP3 SWAP2 POP POP JUMP JUMPDEST PUSH1 0x0 DUP2 DUP4 PUSH2 0x1F8D SWAP2 SWAP1 PUSH2 0x2DF3 JUMP JUMPDEST SWAP1 POP SWAP3 SWAP2 POP POP JUMP JUMPDEST PUSH1 0x0 DUP2 DUP4 PUSH2 0x1FA3 SWAP2 SWAP1 PUSH2 0x2879 JUMP JUMPDEST SWAP1 POP SWAP3 SWAP2 POP POP JUMP JUMPDEST PUSH1 0x0 DUP1 REVERT JUMPDEST PUSH1 0x0 DUP2 ISZERO ISZERO SWAP1 POP SWAP2 SWAP1 POP JUMP JUMPDEST PUSH2 0x1FC5 DUP2 PUSH2 0x1FB0 JUMP JUMPDEST DUP2 EQ PUSH2 0x1FD0 JUMPI PUSH1 0x0 DUP1 REVERT JUMPDEST POP JUMP JUMPDEST PUSH1 0x0 DUP2 CALLDATALOAD SWAP1 POP PUSH2 0x1FE2 DUP2 PUSH2 0x1FBC JUMP JUMPDEST SWAP3 SWAP2 POP POP JUMP JUMPDEST PUSH1 0x0 PUSH20 0xFFFFFFFFFFFFFFFFFFFFFFFFFFFFFFFFFFFFFFFF DUP3 AND SWAP1 POP SWAP2 SWAP1 POP JUMP JUMPDEST PUSH1 0x0 PUSH2 0x2013 DUP3 PUSH2 0x1FE8 JUMP JUMPDEST SWAP1 POP SWAP2 SWAP1 POP JUMP JUMPDEST PUSH2 0x2023 DUP2 PUSH2 0x2008 JUMP JUMPDEST DUP2 EQ PUSH2 0x202E JUMPI PUSH1 0x0 DUP1 REVERT JUMPDEST POP JUMP JUMPDEST PUSH1 0x0 DUP2 CALLDATALOAD SWAP1 POP PUSH2 0x2040 DUP2 PUSH2 0x201A JUMP JUMPDEST SWAP3 SWAP2 POP POP JUMP JUMPDEST PUSH1 0x0 DUP2 SWAP1 POP SWAP2 SWAP1 POP JUMP JUMPDEST PUSH2 0x2059 DUP2 PUSH2 0x2046 JUMP JUMPDEST DUP2 EQ PUSH2 0x2064 JUMPI PUSH1 0x0 DUP1 REVERT JUMPDEST POP JUMP JUMPDEST PUSH1 0x0 DUP2 CALLDATALOAD SWAP1 POP PUSH2 0x2076 DUP2 PUSH2 0x2050 JUMP JUMPDEST SWAP3 SWAP2 POP POP JUMP JUMPDEST PUSH1 0x0 PUSH2 0x2087 DUP3 PUSH2 0x1FE8 JUMP JUMPDEST SWAP1 POP SWAP2 SWAP1 POP JUMP JUMPDEST PUSH2 0x2097 DUP2 PUSH2 0x207C JUMP JUMPDEST DUP2 EQ PUSH2 0x20A2 JUMPI PUSH1 0x0 DUP1 REVERT JUMPDEST POP JUMP JUMPDEST PUSH1 0x0 DUP2 CALLDATALOAD SWAP1 POP PUSH2 0x20B4 DUP2 PUSH2 0x208E JUMP JUMPDEST SWAP3 SWAP2 POP POP JUMP JUMPDEST PUSH1 0x0 DUP1 PUSH1 0x0 DUP1 PUSH1 0x0 DUP1 PUSH1 0x0 PUSH1 0xE0 DUP9 DUP11 SUB SLT ISZERO PUSH2 0x20D9 JUMPI PUSH2 0x20D8 PUSH2 0x1FAB JUMP JUMPDEST JUMPDEST PUSH1 0x0 PUSH2 0x20E7 DUP11 DUP3 DUP12 ADD PUSH2 0x1FD3 JUMP JUMPDEST SWAP8 POP POP PUSH1 0x20 PUSH2 0x20F8 DUP11 DUP3 DUP12 ADD PUSH2 0x2031 JUMP JUMPDEST SWAP7 POP POP PUSH1 0x40 PUSH2 0x2109 DUP11 DUP3 DUP12 ADD PUSH2 0x2067 JUMP JUMPDEST SWAP6 POP POP PUSH1 0x60 PUSH2 0x211A DUP11 DUP3 DUP12 ADD PUSH2 0x20A5 JUMP JUMPDEST SWAP5 POP POP PUSH1 0x80 PUSH2 0x212B DUP11 DUP3 DUP12 ADD PUSH2 0x20A5 JUMP JUMPDEST SWAP4 POP POP PUSH1 0xA0 PUSH2 0x213C DUP11 DUP3 DUP12 ADD PUSH2 0x2031 JUMP JUMPDEST SWAP3 POP POP PUSH1 0xC0 PUSH2 0x214D DUP11 DUP3 DUP12 ADD PUSH2 0x2067 JUMP JUMPDEST SWAP2 POP POP SWAP3 SWAP6 SWAP9 SWAP2 SWAP5 SWAP8 POP SWAP3 SWAP6 POP JUMP JUMPDEST PUSH2 0x2165 DUP2 PUSH2 0x1FB0 JUMP JUMPDEST DUP3 MSTORE POP POP JUMP JUMPDEST PUSH1 0x0 PUSH1 0x20 DUP3 ADD SWAP1 POP PUSH2 0x2180 PUSH1 0x0 DUP4 ADD DUP5 PUSH2 0x215C JUMP JUMPDEST SWAP3 SWAP2 POP POP JUMP JUMPDEST PUSH1 0x0 DUP1 PUSH1 0x0 PUSH1 0x60 DUP5 DUP7 SUB SLT ISZERO PUSH2 0x219F JUMPI PUSH2 0x219E PUSH2 0x1FAB JUMP JUMPDEST JUMPDEST PUSH1 0x0 PUSH2 0x21AD DUP7 DUP3 DUP8 ADD PUSH2 0x2031 JUMP JUMPDEST SWAP4 POP POP PUSH1 0x20 PUSH2 0x21BE DUP7 DUP3 DUP8 ADD PUSH2 0x2067 JUMP JUMPDEST SWAP3 POP POP PUSH1 0x40 PUSH2 0x21CF DUP7 DUP3 DUP8 ADD PUSH2 0x20A5 JUMP JUMPDEST SWAP2 POP POP SWAP3 POP SWAP3 POP SWAP3 JUMP JUMPDEST PUSH1 0x0 DUP1 PUSH1 0x40 DUP4 DUP6 SUB SLT ISZERO PUSH2 0x21F0 JUMPI PUSH2 0x21EF PUSH2 0x1FAB JUMP JUMPDEST JUMPDEST PUSH1 0x0 PUSH2 0x21FE DUP6 DUP3 DUP7 ADD PUSH2 0x1FD3 JUMP JUMPDEST SWAP3 POP POP PUSH1 0x20 PUSH2 0x220F DUP6 DUP3 DUP7 ADD PUSH2 0x20A5 JUMP JUMPDEST SWAP2 POP POP SWAP3 POP SWAP3 SWAP1 POP JUMP JUMPDEST PUSH2 0x2222 DUP2 PUSH2 0x2046 JUMP JUMPDEST DUP3 MSTORE POP POP JUMP JUMPDEST PUSH1 0x0 PUSH1 0x20 DUP3 ADD SWAP1 POP PUSH2 0x223D PUSH1 0x0 DUP4 ADD DUP5 PUSH2 0x2219 JUMP JUMPDEST SWAP3 SWAP2 POP POP JUMP JUMPDEST PUSH2 0x224C DUP2 PUSH2 0x207C JUMP JUMPDEST DUP3 MSTORE POP POP JUMP JUMPDEST PUSH1 0x0 PUSH1 0x20 DUP3 ADD SWAP1 POP PUSH2 0x2267 PUSH1 0x0 DUP4 ADD DUP5 PUSH2 0x2243 JUMP JUMPDEST SWAP3 SWAP2 POP POP JUMP JUMPDEST PUSH1 0x0 DUP1 PUSH1 0x0 PUSH1 0x60 DUP5 DUP7 SUB SLT ISZERO PUSH2 0x2286 JUMPI PUSH2 0x2285 PUSH2 0x1FAB JUMP JUMPDEST JUMPDEST PUSH1 0x0 PUSH2 0x2294 DUP7 DUP3 DUP8 ADD PUSH2 0x2067 JUMP JUMPDEST SWAP4 POP POP PUSH1 0x20 PUSH2 0x22A5 DUP7 DUP3 DUP8 ADD PUSH2 0x20A5 JUMP JUMPDEST SWAP3 POP POP PUSH1 0x40 PUSH2 0x22B6 DUP7 DUP3 DUP8 ADD PUSH2 0x2031 JUMP JUMPDEST SWAP2 POP POP SWAP3 POP SWAP3 POP SWAP3 JUMP JUMPDEST PUSH1 0x0 DUP1 PUSH1 0x0 PUSH1 0x60 DUP5 DUP7 SUB SLT ISZERO PUSH2 0x22D9 JUMPI PUSH2 0x22D8 PUSH2 0x1FAB JUMP JUMPDEST JUMPDEST PUSH1 0x0 PUSH2 0x22E7 DUP7 DUP3 DUP8 ADD PUSH2 0x20A5 JUMP JUMPDEST SWAP4 POP POP PUSH1 0x20 PUSH2 0x22F8 DUP7 DUP3 DUP8 ADD PUSH2 0x2067 JUMP JUMPDEST SWAP3 POP POP PUSH1 0x40 PUSH2 0x2309 DUP7 DUP3 DUP8 ADD PUSH2 0x20A5 JUMP JUMPDEST SWAP2 POP POP SWAP3 POP SWAP3 POP SWAP3 JUMP JUMPDEST PUSH2 0x231C DUP2 PUSH2 0x2008 JUMP JUMPDEST DUP3 MSTORE POP POP JUMP JUMPDEST PUSH1 0x0 PUSH1 0x20 DUP3 ADD SWAP1 POP PUSH2 0x2337 PUSH1 0x0 DUP4 ADD DUP5 PUSH2 0x2313 JUMP JUMPDEST SWAP3 SWAP2 POP POP JUMP JUMPDEST PUSH1 0x0 PUSH1 0x20 DUP3 DUP5 SUB SLT ISZERO PUSH2 0x2353 JUMPI PUSH2 0x2352 PUSH2 0x1FAB JUMP JUMPDEST JUMPDEST PUSH1 0x0 PUSH2 0x2361 DUP5 DUP3 DUP6 ADD PUSH2 0x20A5 JUMP JUMPDEST SWAP2 POP POP SWAP3 SWAP2 POP POP JUMP JUMPDEST PUSH1 0x0 DUP1 PUSH1 0x0 DUP1 PUSH1 0x0 DUP1 PUSH1 0xC0 DUP8 DUP10 SUB SLT ISZERO PUSH2 0x2387 JUMPI PUSH2 0x2386 PUSH2 0x1FAB JUMP JUMPDEST JUMPDEST PUSH1 0x0 PUSH2 0x2395 DUP10 DUP3 DUP11 ADD PUSH2 0x1FD3 JUMP JUMPDEST SWAP7 POP POP PUSH1 0x20 PUSH2 0x23A6 DUP10 DUP3 DUP11 ADD PUSH2 0x2067 JUMP JUMPDEST SWAP6 POP POP PUSH1 0x40 PUSH2 0x23B7 DUP10 DUP3 DUP11 ADD PUSH2 0x20A5 JUMP JUMPDEST SWAP5 POP POP PUSH1 0x60 PUSH2 0x23C8 DUP10 DUP3 DUP11 ADD PUSH2 0x20A5 JUMP JUMPDEST SWAP4 POP POP PUSH1 0x80 PUSH2 0x23D9 DUP10 DUP3 DUP11 ADD PUSH2 0x2031 JUMP JUMPDEST SWAP3 POP POP PUSH1 0xA0 PUSH2 0x23EA DUP10 DUP3 DUP11 ADD PUSH2 0x2067 JUMP JUMPDEST SWAP2 POP POP SWAP3 SWAP6 POP SWAP3 SWAP6 POP SWAP3 SWAP6 JUMP JUMPDEST PUSH1 0x0 DUP1 PUSH1 0x0 PUSH1 0x60 DUP5 DUP7 SUB SLT ISZERO PUSH2 0x2410 JUMPI PUSH2 0x240F PUSH2 0x1FAB JUMP JUMPDEST JUMPDEST PUSH1 0x0 PUSH2 0x241E DUP7 DUP3 DUP8 ADD PUSH2 0x20A5 JUMP JUMPDEST SWAP4 POP POP PUSH1 0x20 PUSH2 0x242F DUP7 DUP3 DUP8 ADD PUSH2 0x2031 JUMP JUMPDEST SWAP3 POP POP PUSH1 0x40 PUSH2 0x2440 DUP7 DUP3 DUP8 ADD PUSH2 0x2031 JUMP JUMPDEST SWAP2 POP POP SWAP3 POP SWAP3 POP SWAP3 JUMP JUMPDEST PUSH1 0x0 DUP1 PUSH1 0x0 DUP1 PUSH1 0x80 DUP6 DUP8 SUB SLT ISZERO PUSH2 0x2464 JUMPI PUSH2 0x2463 PUSH2 0x1FAB JUMP JUMPDEST JUMPDEST PUSH1 0x0 PUSH2 0x2472 DUP8 DUP3 DUP9 ADD PUSH2 0x2067 JUMP JUMPDEST SWAP5 POP POP PUSH1 0x20 PUSH2 0x2483 DUP8 DUP3 DUP9 ADD PUSH2 0x2031 JUMP JUMPDEST SWAP4 POP POP PUSH1 0x40 PUSH2 0x2494 DUP8 DUP3 DUP9 ADD PUSH2 0x20A5 JUMP JUMPDEST SWAP3 POP POP PUSH1 0x60 PUSH2 0x24A5 DUP8 DUP3 DUP9 ADD PUSH2 0x2031 JUMP JUMPDEST SWAP2 POP POP SWAP3 SWAP6 SWAP2 SWAP5 POP SWAP3 POP JUMP JUMPDEST PUSH1 0x0 DUP2 SWAP1 POP SWAP2 SWAP1 POP JUMP JUMPDEST PUSH1 0x0 PUSH2 0x24D6 PUSH2 0x24D1 PUSH2 0x24CC DUP5 PUSH2 0x1FE8 JUMP JUMPDEST PUSH2 0x24B1 JUMP JUMPDEST PUSH2 0x1FE8 JUMP JUMPDEST SWAP1 POP SWAP2 SWAP1 POP JUMP JUMPDEST PUSH1 0x0 PUSH2 0x24E8 DUP3 PUSH2 0x24BB JUMP JUMPDEST SWAP1 POP SWAP2 SWAP1 POP JUMP JUMPDEST PUSH1 0x0 PUSH2 0x24FA DUP3 PUSH2 0x24DD JUMP JUMPDEST SWAP1 POP SWAP2 SWAP1 POP JUMP JUMPDEST PUSH2 0x250A DUP2 PUSH2 0x24EF JUMP JUMPDEST DUP3 MSTORE POP POP JUMP JUMPDEST PUSH1 0x0 PUSH1 0x20 DUP3 ADD SWAP1 POP PUSH2 0x2525 PUSH1 0x0 DUP4 ADD DUP5 PUSH2 0x2501 JUMP JUMPDEST SWAP3 SWAP2 POP POP JUMP JUMPDEST PUSH1 0x0 DUP3 DUP3 MSTORE PUSH1 0x20 DUP3 ADD SWAP1 POP SWAP3 SWAP2 POP POP JUMP JUMPDEST PUSH32 0x4F6E6C7920746865206F776E6572206F72207468652062656E65666963696172 PUSH1 0x0 DUP3 ADD MSTORE PUSH32 0x792063616E2077697468647261772066756E64732E0000000000000000000000 PUSH1 0x20 DUP3 ADD MSTORE POP JUMP JUMPDEST PUSH1 0x0 PUSH2 0x2598 PUSH1 0x35 DUP4 PUSH2 0x252B JUMP JUMPDEST SWAP2 POP PUSH2 0x25A3 DUP3 PUSH2 0x253C JUMP JUMPDEST PUSH1 0x40 DUP3 ADD SWAP1 POP SWAP2 SWAP1 POP JUMP JUMPDEST PUSH1 0x0 PUSH1 0x20 DUP3 ADD SWAP1 POP DUP2 DUP2 SUB PUSH1 0x0 DUP4 ADD MSTORE PUSH2 0x25C7 DUP2 PUSH2 0x258B JUMP JUMPDEST SWAP1 POP SWAP2 SWAP1 POP JUMP JUMPDEST PUSH32 0x4E487B7100000000000000000000000000000000000000000000000000000000 PUSH1 0x0 MSTORE PUSH1 0x11 PUSH1 0x4 MSTORE PUSH1 0x24 PUSH1 0x0 REVERT JUMPDEST PUSH1 0x0 PUSH2 0x2608 DUP3 PUSH2 0x2046 JUMP JUMPDEST SWAP2 POP PUSH2 0x2613 DUP4 PUSH2 0x2046 JUMP JUMPDEST SWAP3 POP DUP3 DUP3 ADD SWAP1 POP DUP1 DUP3 GT ISZERO PUSH2 0x262B JUMPI PUSH2 0x262A PUSH2 0x25CE JUMP JUMPDEST JUMPDEST SWAP3 SWAP2 POP POP JUMP JUMPDEST PUSH32 0x546865207769746864726177616C20616D6F756E742065786365656473207468 PUSH1 0x0 DUP3 ADD MSTORE PUSH32 0x65206C696D6974206F722064656C617920686173206E6F742070617373656420 PUSH1 0x20 DUP3 ADD MSTORE PUSH32 0x7965742E00000000000000000000000000000000000000000000000000000000 PUSH1 0x40 DUP3 ADD MSTORE POP JUMP JUMPDEST PUSH1 0x0 PUSH2 0x26B3 PUSH1 0x44 DUP4 PUSH2 0x252B JUMP JUMPDEST SWAP2 POP PUSH2 0x26BE DUP3 PUSH2 0x2631 JUMP JUMPDEST PUSH1 0x60 DUP3 ADD SWAP1 POP SWAP2 SWAP1 POP JUMP JUMPDEST PUSH1 0x0 PUSH1 0x20 DUP3 ADD SWAP1 POP DUP2 DUP2 SUB PUSH1 0x0 DUP4 ADD MSTORE PUSH2 0x26E2 DUP2 PUSH2 0x26A6 JUMP JUMPDEST SWAP1 POP SWAP2 SWAP1 POP JUMP JUMPDEST PUSH32 0x4163636F756E742069732066726F7A656E2C2063616E6E6F7420776974686472 PUSH1 0x0 DUP3 ADD MSTORE PUSH32 0x61772066756E64732E0000000000000000000000000000000000000000000000 PUSH1 0x20 DUP3 ADD MSTORE POP JUMP JUMPDEST PUSH1 0x0 PUSH2 0x2745 PUSH1 0x29 DUP4 PUSH2 0x252B JUMP JUMPDEST SWAP2 POP PUSH2 0x2750 DUP3 PUSH2 0x26E9 JUMP JUMPDEST PUSH1 0x40 DUP3 ADD SWAP1 POP SWAP2 SWAP1 POP JUMP JUMPDEST PUSH1 0x0 PUSH1 0x20 DUP3 ADD SWAP1 POP DUP2 DUP2 SUB PUSH1 0x0 DUP4 ADD MSTORE PUSH2 0x2774 DUP2 PUSH2 0x2738 JUMP JUMPDEST SWAP1 POP SWAP2 SWAP1 POP JUMP JUMPDEST PUSH32 0x496E73756666696369656E742066756E64732E00000000000000000000000000 PUSH1 0x0 DUP3 ADD MSTORE POP JUMP JUMPDEST PUSH1 0x0 PUSH2 0x27B1 PUSH1 0x13 DUP4 PUSH2 0x252B JUMP JUMPDEST SWAP2 POP PUSH2 0x27BC DUP3 PUSH2 0x277B JUMP JUMPDEST PUSH1 0x20 DUP3 ADD SWAP1 POP SWAP2 SWAP1 POP JUMP JUMPDEST PUSH1 0x0 PUSH1 0x20 DUP3 ADD SWAP1 POP DUP2 DUP2 SUB PUSH1 0x0 DUP4 ADD MSTORE PUSH2 0x27E0 DUP2 PUSH2 0x27A4 JUMP JUMPDEST SWAP1 POP SWAP2 SWAP1 POP JUMP JUMPDEST PUSH32 0x5468652066756E6374696F6E20697320616C726561647920696E206578656375 PUSH1 0x0 DUP3 ADD MSTORE PUSH32 0x74696F6E2E000000000000000000000000000000000000000000000000000000 PUSH1 0x20 DUP3 ADD MSTORE POP JUMP JUMPDEST PUSH1 0x0 PUSH2 0x2843 PUSH1 0x25 DUP4 PUSH2 0x252B JUMP JUMPDEST SWAP2 POP PUSH2 0x284E DUP3 PUSH2 0x27E7 JUMP JUMPDEST PUSH1 0x40 DUP3 ADD SWAP1 POP SWAP2 SWAP1 POP JUMP JUMPDEST PUSH1 0x0 PUSH1 0x20 DUP3 ADD SWAP1 POP DUP2 DUP2 SUB PUSH1 0x0 DUP4 ADD MSTORE PUSH2 0x2872 DUP2 PUSH2 0x2836 JUMP JUMPDEST SWAP1 POP SWAP2 SWAP1 POP JUMP JUMPDEST PUSH1 0x0 PUSH2 0x2884 DUP3 PUSH2 0x2046 JUMP JUMPDEST SWAP2 POP PUSH2 0x288F DUP4 PUSH2 0x2046 JUMP JUMPDEST SWAP3 POP DUP3 DUP3 SUB SWAP1 POP DUP2 DUP2 GT ISZERO PUSH2 0x28A7 JUMPI PUSH2 0x28A6 PUSH2 0x25CE JUMP JUMPDEST JUMPDEST SWAP3 SWAP2 POP POP JUMP JUMPDEST PUSH1 0x0 DUP2 MLOAD SWAP1 POP PUSH2 0x28BC DUP2 PUSH2 0x2050 JUMP JUMPDEST SWAP3 SWAP2 POP POP JUMP JUMPDEST PUSH1 0x0 PUSH1 0x20 DUP3 DUP5 SUB SLT ISZERO PUSH2 0x28D8 JUMPI PUSH2 0x28D7 PUSH2 0x1FAB JUMP JUMPDEST JUMPDEST PUSH1 0x0 PUSH2 0x28E6 DUP5 DUP3 DUP6 ADD PUSH2 0x28AD JUMP JUMPDEST SWAP2 POP POP SWAP3 SWAP2 POP POP JUMP JUMPDEST PUSH1 0x0 PUSH2 0x28FA DUP3 PUSH2 0x24DD JUMP JUMPDEST SWAP1 POP SWAP2 SWAP1 POP JUMP JUMPDEST PUSH2 0x290A DUP2 PUSH2 0x28EF JUMP JUMPDEST DUP3 MSTORE POP POP JUMP JUMPDEST PUSH1 0x0 PUSH1 0x40 DUP3 ADD SWAP1 POP PUSH2 0x2925 PUSH1 0x0 DUP4 ADD DUP6 PUSH2 0x2901 JUMP JUMPDEST PUSH2 0x2932 PUSH1 0x20 DUP4 ADD DUP5 PUSH2 0x2219 JUMP JUMPDEST SWAP4 SWAP3 POP POP POP JUMP JUMPDEST PUSH1 0x0 DUP2 MLOAD SWAP1 POP PUSH2 0x2948 DUP2 PUSH2 0x1FBC JUMP JUMPDEST SWAP3 SWAP2 POP POP JUMP JUMPDEST PUSH1 0x0 PUSH1 0x20 DUP3 DUP5 SUB SLT ISZERO PUSH2 0x2964 JUMPI PUSH2 0x2963 PUSH2 0x1FAB JUMP JUMPDEST JUMPDEST PUSH1 0x0 PUSH2 0x2972 DUP5 DUP3 DUP6 ADD PUSH2 0x2939 JUMP JUMPDEST SWAP2 POP POP SWAP3 SWAP2 POP POP JUMP JUMPDEST PUSH32 0x4F6E6C7920746865206F776E65722063616E20736574207468652062656E6566 PUSH1 0x0 DUP3 ADD MSTORE PUSH32 0x6963696172792E00000000000000000000000000000000000000000000000000 PUSH1 0x20 DUP3 ADD MSTORE POP JUMP JUMPDEST PUSH1 0x0 PUSH2 0x29D7 PUSH1 0x27 DUP4 PUSH2 0x252B JUMP JUMPDEST SWAP2 POP PUSH2 0x29E2 DUP3 PUSH2 0x297B JUMP JUMPDEST PUSH1 0x40 DUP3 ADD SWAP1 POP SWAP2 SWAP1 POP JUMP JUMPDEST PUSH1 0x0 PUSH1 0x20 DUP3 ADD SWAP1 POP DUP2 DUP2 SUB PUSH1 0x0 DUP4 ADD MSTORE PUSH2 0x2A06 DUP2 PUSH2 0x29CA JUMP JUMPDEST SWAP1 POP SWAP2 SWAP1 POP JUMP JUMPDEST PUSH32 0x43616E6E6F74206465706F7369742030206F72206C6573732E00000000000000 PUSH1 0x0 DUP3 ADD MSTORE POP JUMP JUMPDEST PUSH1 0x0 PUSH2 0x2A43 PUSH1 0x19 DUP4 PUSH2 0x252B JUMP JUMPDEST SWAP2 POP PUSH2 0x2A4E DUP3 PUSH2 0x2A0D JUMP JUMPDEST PUSH1 0x20 DUP3 ADD SWAP1 POP SWAP2 SWAP1 POP JUMP JUMPDEST PUSH1 0x0 PUSH1 0x20 DUP3 ADD SWAP1 POP DUP2 DUP2 SUB PUSH1 0x0 DUP4 ADD MSTORE PUSH2 0x2A72 DUP2 PUSH2 0x2A36 JUMP JUMPDEST SWAP1 POP SWAP2 SWAP1 POP JUMP JUMPDEST PUSH32 0x4F6E6C7920746865206F776E65722063616E2073657420746865207769746864 PUSH1 0x0 DUP3 ADD MSTORE PUSH32 0x726177616C206C696D69742E0000000000000000000000000000000000000000 PUSH1 0x20 DUP3 ADD MSTORE POP JUMP JUMPDEST PUSH1 0x0 PUSH2 0x2AD5 PUSH1 0x2C DUP4 PUSH2 0x252B JUMP JUMPDEST SWAP2 POP PUSH2 0x2AE0 DUP3 PUSH2 0x2A79 JUMP JUMPDEST PUSH1 0x40 DUP3 ADD SWAP1 POP SWAP2 SWAP1 POP JUMP JUMPDEST PUSH1 0x0 PUSH1 0x20 DUP3 ADD SWAP1 POP DUP2 DUP2 SUB PUSH1 0x0 DUP4 ADD MSTORE PUSH2 0x2B04 DUP2 PUSH2 0x2AC8 JUMP JUMPDEST SWAP1 POP SWAP2 SWAP1 POP JUMP JUMPDEST PUSH32 0x4F6E6C7920746865206F776E65722063616E20756E667265657A652074686520 PUSH1 0x0 DUP3 ADD MSTORE PUSH32 0x6163636F756E742E000000000000000000000000000000000000000000000000 PUSH1 0x20 DUP3 ADD MSTORE POP JUMP JUMPDEST PUSH1 0x0 PUSH2 0x2B67 PUSH1 0x28 DUP4 PUSH2 0x252B JUMP JUMPDEST SWAP2 POP PUSH2 0x2B72 DUP3 PUSH2 0x2B0B JUMP JUMPDEST PUSH1 0x40 DUP3 ADD SWAP1 POP SWAP2 SWAP1 POP JUMP JUMPDEST PUSH1 0x0 PUSH1 0x20 DUP3 ADD SWAP1 POP DUP2 DUP2 SUB PUSH1 0x0 DUP4 ADD MSTORE PUSH2 0x2B96 DUP2 PUSH2 0x2B5A JUMP JUMPDEST SWAP1 POP SWAP2 SWAP1 POP JUMP JUMPDEST PUSH32 0x546865726520617265206E6F2066756E647320746F2077697468647261772E00 PUSH1 0x0 DUP3 ADD MSTORE POP JUMP JUMPDEST PUSH1 0x0 PUSH2 0x2BD3 PUSH1 0x1F DUP4 PUSH2 0x252B JUMP JUMPDEST SWAP2 POP PUSH2 0x2BDE DUP3 PUSH2 0x2B9D JUMP JUMPDEST PUSH1 0x20 DUP3 ADD SWAP1 POP SWAP2 SWAP1 POP JUMP JUMPDEST PUSH1 0x0 PUSH1 0x20 DUP3 ADD SWAP1 POP DUP2 DUP2 SUB PUSH1 0x0 DUP4 ADD MSTORE PUSH2 0x2C02 DUP2 PUSH2 0x2BC6 JUMP JUMPDEST SWAP1 POP SWAP2 SWAP1 POP JUMP JUMPDEST PUSH32 0x4F6E6C7920746865206F776E65722063616E20667265657A6520746865206163 PUSH1 0x0 DUP3 ADD MSTORE PUSH32 0x636F756E742E0000000000000000000000000000000000000000000000000000 PUSH1 0x20 DUP3 ADD MSTORE POP JUMP JUMPDEST PUSH1 0x0 PUSH2 0x2C65 PUSH1 0x26 DUP4 PUSH2 0x252B JUMP JUMPDEST SWAP2 POP PUSH2 0x2C70 DUP3 PUSH2 0x2C09 JUMP JUMPDEST PUSH1 0x40 DUP3 ADD SWAP1 POP SWAP2 SWAP1 POP JUMP JUMPDEST PUSH1 0x0 PUSH1 0x20 DUP3 ADD SWAP1 POP DUP2 DUP2 SUB PUSH1 0x0 DUP4 ADD MSTORE PUSH2 0x2C94 DUP2 PUSH2 0x2C58 JUMP JUMPDEST SWAP1 POP SWAP2 SWAP1 POP JUMP JUMPDEST PUSH1 0x0 PUSH1 0x40 DUP3 ADD SWAP1 POP PUSH2 0x2CB0 PUSH1 0x0 DUP4 ADD DUP6 PUSH2 0x2901 JUMP JUMPDEST PUSH2 0x2CBD PUSH1 0x20 DUP4 ADD DUP5 PUSH2 0x2901 JUMP JUMPDEST SWAP4 SWAP3 POP POP POP JUMP JUMPDEST PUSH1 0x0 PUSH1 0x20 DUP3 ADD SWAP1 POP PUSH2 0x2CD9 PUSH1 0x0 DUP4 ADD DUP5 PUSH2 0x2901 JUMP JUMPDEST SWAP3 SWAP2 POP POP JUMP JUMPDEST PUSH32 0x496E73756666696369656E742062616C616E6365000000000000000000000000 PUSH1 0x0 DUP3 ADD MSTORE POP JUMP JUMPDEST PUSH1 0x0 PUSH2 0x2D15 PUSH1 0x14 DUP4 PUSH2 0x252B JUMP JUMPDEST SWAP2 POP PUSH2 0x2D20 DUP3 PUSH2 0x2CDF JUMP JUMPDEST PUSH1 0x20 DUP3 ADD SWAP1 POP SWAP2 SWAP1 POP JUMP JUMPDEST PUSH1 0x0 PUSH1 0x20 DUP3 ADD SWAP1 POP DUP2 DUP2 SUB PUSH1 0x0 DUP4 ADD MSTORE PUSH2 0x2D44 DUP2 PUSH2 0x2D08 JUMP JUMPDEST SWAP1 POP SWAP2 SWAP1 POP JUMP JUMPDEST PUSH1 0x0 PUSH1 0x60 DUP3 ADD SWAP1 POP PUSH2 0x2D60 PUSH1 0x0 DUP4 ADD DUP7 PUSH2 0x2901 JUMP JUMPDEST PUSH2 0x2D6D PUSH1 0x20 DUP4 ADD DUP6 PUSH2 0x2901 JUMP JUMPDEST PUSH2 0x2D7A PUSH1 0x40 DUP4 ADD DUP5 PUSH2 0x2219 JUMP JUMPDEST SWAP5 SWAP4 POP POP POP POP JUMP JUMPDEST PUSH1 0x0 PUSH2 0x2D8D DUP3 PUSH2 0x2046 JUMP JUMPDEST SWAP2 POP PUSH2 0x2D98 DUP4 PUSH2 0x2046 JUMP JUMPDEST SWAP3 POP DUP3 DUP3 MUL PUSH2 0x2DA6 DUP2 PUSH2 0x2046 JUMP JUMPDEST SWAP2 POP DUP3 DUP3 DIV DUP5 EQ DUP4 ISZERO OR PUSH2 0x2DBD JUMPI PUSH2 0x2DBC PUSH2 0x25CE JUMP JUMPDEST JUMPDEST POP SWAP3 SWAP2 POP POP JUMP JUMPDEST PUSH32 0x4E487B7100000000000000000000000000000000000000000000000000000000 PUSH1 0x0 MSTORE PUSH1 0x12 PUSH1 0x4 MSTORE PUSH1 0x24 PUSH1 0x0 REVERT JUMPDEST PUSH1 0x0 PUSH2 0x2DFE DUP3 PUSH2 0x2046 JUMP JUMPDEST SWAP2 POP PUSH2 0x2E09 DUP4 PUSH2 0x2046 JUMP JUMPDEST SWAP3 POP DUP3 PUSH2 0x2E19 JUMPI PUSH2 0x2E18 PUSH2 0x2DC4 JUMP JUMPDEST JUMPDEST DUP3 DUP3 DIV SWAP1 POP SWAP3 SWAP2 POP POP JUMP INVALID LOG2 PUSH5 0x6970667358 0x22 SLT KECCAK256 0xB2 0x1F DUP15 SLOAD ORIGIN 0xE6 MSTORE8 GT REVERT 0xC9 MSTORE8 DUP16 0xE1 0xC3 0xF7 PUSH16 0x1DE470024D66FC53BA99A26D1F932230 PUSH5 0x736F6C6343 STOP ADDMOD GT STOP CALLER LOG2 PUSH5 0x6970667358 0x22 SLT KECCAK256 PUSH13 0xA1B1131A4A9E55D9C206BE53CE DUP12 0xB8 CALLER 0xB3 CHAINID SWAP6 0x5D 0xE2 0xF6 CODESIZE XOR 0x4E 0xBE BASEFEE 0xCA 0x2D 0xD8 SELFDESTRUCT PUSH5 0x736F6C6343 STOP ADDMOD GT STOP CALLER "
		},
		"gasEstimates": {
			"creation": {
				"codeDepositCost": "4191400",
				"executionCost": "4818",
				"totalCost": "4196218"
			},
			"external": {
				"allowance(uint256,address,address,address)": "infinite",
				"approve(uint256,uint256,address,address)": "infinite",
				"createJointWallet()": "infinite",
				"findBeneficiary(address)": "infinite",
				"findOwner(address)": "infinite",
				"jointArray(uint256)": "infinite",
				"jointBalance(uint256,bool,address)": "infinite",
				"jointDeposit(uint256,uint256,address,address,address)": "infinite",
				"jointFreeze(uint256)": "infinite",
				"jointGetAmount(uint256,address)": "infinite",
				"jointReturnBeneficiary(uint256)": "infinite",
				"jointReturnDelay(uint256)": "infinite",
				"jointReturnInitiateAt(uint256)": "infinite",
				"jointReturnOwner(uint256)": "infinite",
				"jointSetAmount(uint256,uint256,address)": "infinite",
				"jointSetBeneficiary(uint256,address,uint256)": "infinite",
				"jointTransferFunds(uint256,bool,address,uint256,address,address,uint256)": "infinite",
				"jointUnfreeze(uint256)": "infinite",
				"jointWithdraw(uint256,bool,uint256,address,address,uint256)": "infinite"
			}
		},
		"methodIdentifiers": {
			"allowance(uint256,address,address,address)": "99074774",
			"approve(uint256,uint256,address,address)": "d7043bd4",
			"createJointWallet()": "ddf3883a",
			"findBeneficiary(address)": "8287e61e",
			"findOwner(address)": "4fd1f68b",
			"jointArray(uint256)": "dd784788",
			"jointBalance(uint256,bool,address)": "6e97a827",
			"jointDeposit(uint256,uint256,address,address,address)": "3cc2aa08",
			"jointFreeze(uint256)": "cbab0ba2",
			"jointGetAmount(uint256,address)": "a77f3da5",
			"jointReturnBeneficiary(uint256)": "10f4c1fc",
			"jointReturnDelay(uint256)": "ee149b42",
			"jointReturnInitiateAt(uint256)": "58976d8b",
			"jointReturnOwner(uint256)": "37c1fa7c",
			"jointSetAmount(uint256,uint256,address)": "b0fd9ca6",
			"jointSetBeneficiary(uint256,address,uint256)": "43915f04",
			"jointTransferFunds(uint256,bool,address,uint256,address,address,uint256)": "de341442",
			"jointUnfreeze(uint256)": "cdf004b3",
			"jointWithdraw(uint256,bool,uint256,address,address,uint256)": "54c645ae"
		}
	},
	"abi": [
		{
			"inputs": [
				{
					"internalType": "uint256",
					"name": "_jointindex",
					"type": "uint256"
				},
				{
					"internalType": "address",
					"name": "_ERC20Address",
					"type": "address"
				},
				{
					"internalType": "address payable",
					"name": "_from",
					"type": "address"
				},
				{
					"internalType": "address payable",
					"name": "_contract",
					"type": "address"
				}
			],
			"name": "allowance",
			"outputs": [
				{
					"internalType": "uint256",
					"name": "",
					"type": "uint256"
				}
			],
			"stateMutability": "view",
			"type": "function"
		},
		{
			"inputs": [
				{
					"internalType": "uint256",
					"name": "_jointindex",
					"type": "uint256"
				},
				{
					"internalType": "uint256",
					"name": "_amount",
					"type": "uint256"
				},
				{
					"internalType": "address",
					"name": "_ERC20Address",
					"type": "address"
				},
				{
					"internalType": "address payable",
					"name": "_contract",
					"type": "address"
				}
			],
			"name": "approve",
			"outputs": [],
			"stateMutability": "payable",
			"type": "function"
		},
		{
			"inputs": [],
			"name": "createJointWallet",
			"outputs": [
				{
					"internalType": "address",
					"name": "",
					"type": "address"
				}
			],
			"stateMutability": "nonpayable",
			"type": "function"
		},
		{
			"inputs": [
				{
					"internalType": "address",
					"name": "_beneficiary",
					"type": "address"
				}
			],
			"name": "findBeneficiary",
			"outputs": [
				{
					"internalType": "uint256[]",
					"name": "",
					"type": "uint256[]"
				}
			],
			"stateMutability": "view",
			"type": "function"
		},
		{
			"inputs": [
				{
					"internalType": "address",
					"name": "_owner",
					"type": "address"
				}
			],
			"name": "findOwner",
			"outputs": [
				{
					"internalType": "uint256[]",
					"name": "",
					"type": "uint256[]"
				}
			],
			"stateMutability": "view",
			"type": "function"
		},
		{
			"inputs": [
				{
					"internalType": "uint256",
					"name": "",
					"type": "uint256"
				}
			],
			"name": "jointArray",
			"outputs": [
				{
					"internalType": "contract Accounts",
					"name": "",
					"type": "address"
				}
			],
			"stateMutability": "view",
			"type": "function"
		},
		{
			"inputs": [
				{
					"internalType": "uint256",
					"name": "_ttodindex",
					"type": "uint256"
				},
				{
					"internalType": "bool",
					"name": "_isCelo",
					"type": "bool"
				},
				{
					"internalType": "address",
					"name": "_ERC20Address",
					"type": "address"
				}
			],
			"name": "jointBalance",
			"outputs": [
				{
					"internalType": "uint256",
					"name": "",
					"type": "uint256"
				}
			],
			"stateMutability": "view",
			"type": "function"
		},
		{
			"inputs": [
				{
					"internalType": "uint256",
					"name": "_jointindex",
					"type": "uint256"
				},
				{
					"internalType": "uint256",
					"name": "_amount",
					"type": "uint256"
				},
				{
					"internalType": "address payable",
					"name": "_from",
					"type": "address"
				},
				{
					"internalType": "address",
					"name": "_ERC20Address",
					"type": "address"
				},
				{
					"internalType": "address payable",
					"name": "_contract",
					"type": "address"
				}
			],
			"name": "jointDeposit",
			"outputs": [],
			"stateMutability": "payable",
			"type": "function"
		},
		{
			"inputs": [
				{
					"internalType": "uint256",
					"name": "_jointindex",
					"type": "uint256"
				}
			],
			"name": "jointFreeze",
			"outputs": [],
			"stateMutability": "nonpayable",
			"type": "function"
		},
		{
			"inputs": [
				{
					"internalType": "uint256",
					"name": "_jointindex",
					"type": "uint256"
				},
				{
					"internalType": "address",
					"name": "_ERC20Address",
					"type": "address"
				}
			],
			"name": "jointGetAmount",
			"outputs": [
				{
					"internalType": "uint256",
					"name": "",
					"type": "uint256"
				}
			],
			"stateMutability": "view",
			"type": "function"
		},
		{
			"inputs": [
				{
					"internalType": "uint256",
					"name": "_jointindex",
					"type": "uint256"
				}
			],
			"name": "jointReturnBeneficiary",
			"outputs": [
				{
					"internalType": "address",
					"name": "",
					"type": "address"
				}
			],
			"stateMutability": "view",
			"type": "function"
		},
		{
			"inputs": [
				{
					"internalType": "uint256",
					"name": "_jointindex",
					"type": "uint256"
				}
			],
			"name": "jointReturnDelay",
			"outputs": [
				{
					"internalType": "uint256",
					"name": "",
					"type": "uint256"
				}
			],
			"stateMutability": "view",
			"type": "function"
		},
		{
			"inputs": [
				{
					"internalType": "uint256",
					"name": "_jointindex",
					"type": "uint256"
				}
			],
			"name": "jointReturnInitiateAt",
			"outputs": [
				{
					"internalType": "uint256",
					"name": "",
					"type": "uint256"
				}
			],
			"stateMutability": "view",
			"type": "function"
		},
		{
			"inputs": [
				{
					"internalType": "uint256",
					"name": "_jointindex",
					"type": "uint256"
				}
			],
			"name": "jointReturnOwner",
			"outputs": [
				{
					"internalType": "address",
					"name": "",
					"type": "address"
				}
			],
			"stateMutability": "view",
			"type": "function"
		},
		{
			"inputs": [
				{
					"internalType": "uint256",
					"name": "_jointindex",
					"type": "uint256"
				},
				{
					"internalType": "uint256",
					"name": "_amount",
					"type": "uint256"
				},
				{
					"internalType": "address",
					"name": "_ERC20Address",
					"type": "address"
				}
			],
			"name": "jointSetAmount",
			"outputs": [],
			"stateMutability": "nonpayable",
			"type": "function"
		},
		{
			"inputs": [
				{
					"internalType": "uint256",
					"name": "_jointindex",
					"type": "uint256"
				},
				{
					"internalType": "address payable",
					"name": "_beneficiary",
					"type": "address"
				},
				{
					"internalType": "uint256",
					"name": "_delay",
					"type": "uint256"
				}
			],
			"name": "jointSetBeneficiary",
			"outputs": [],
			"stateMutability": "nonpayable",
			"type": "function"
		},
		{
			"inputs": [
				{
					"internalType": "uint256",
					"name": "_jointindex",
					"type": "uint256"
				},
				{
					"internalType": "bool",
					"name": "_isCelo",
					"type": "bool"
				},
				{
					"internalType": "address payable",
					"name": "_recipient",
					"type": "address"
				},
				{
					"internalType": "uint256",
					"name": "_amount",
					"type": "uint256"
				},
				{
					"internalType": "address",
					"name": "_ERC20Address",
					"type": "address"
				},
				{
					"internalType": "address payable",
					"name": "_feeAddress",
					"type": "address"
				},
				{
					"internalType": "uint256",
					"name": "_transferFee",
					"type": "uint256"
				}
			],
			"name": "jointTransferFunds",
			"outputs": [],
			"stateMutability": "payable",
			"type": "function"
		},
		{
			"inputs": [
				{
					"internalType": "uint256",
					"name": "_jointindex",
					"type": "uint256"
				}
			],
			"name": "jointUnfreeze",
			"outputs": [],
			"stateMutability": "nonpayable",
			"type": "function"
		},
		{
			"inputs": [
				{
					"internalType": "uint256",
					"name": "_jointindex",
					"type": "uint256"
				},
				{
					"internalType": "bool",
					"name": "_isCelo",
					"type": "bool"
				},
				{
					"internalType": "uint256",
					"name": "_amount",
					"type": "uint256"
				},
				{
					"internalType": "address",
					"name": "_ERC20Address",
					"type": "address"
				},
				{
					"internalType": "address payable",
					"name": "_feeAddress",
					"type": "address"
				},
				{
					"internalType": "uint256",
					"name": "_transferFee",
					"type": "uint256"
				}
			],
			"name": "jointWithdraw",
			"outputs": [],
			"stateMutability": "payable",
			"type": "function"
		}
	]
}