{
	"contract/HeirAccount.sol": {
		"Accounts": {
			"abi": [
				{
					"inputs": [
						{
							"internalType": "address payable",
							"name": "_owner",
							"type": "address"
						}
					],
					"stateMutability": "nonpayable",
					"type": "constructor"
				},
				{
					"anonymous": false,
					"inputs": [
						{
							"indexed": false,
							"internalType": "address",
							"name": "freezeBy",
							"type": "address"
						}
					],
					"name": "Freeze",
					"type": "event"
				},
				{
					"anonymous": false,
					"inputs": [
						{
							"indexed": false,
							"internalType": "address",
							"name": "unfreezeBy",
							"type": "address"
						}
					],
					"name": "Unfreeze",
					"type": "event"
				},
				{
					"inputs": [],
					"name": "ERC20",
					"outputs": [
						{
							"internalType": "contract IERC20",
							"name": "",
							"type": "address"
						}
					],
					"stateMutability": "view",
					"type": "function"
				},
				{
					"inputs": [],
					"name": "ERC20Token",
					"outputs": [
						{
							"internalType": "address payable",
							"name": "",
							"type": "address"
						}
					],
					"stateMutability": "view",
					"type": "function"
				},
				{
					"inputs": [
						{
							"internalType": "address",
							"name": "_ERC20Address",
							"type": "address"
						},
						{
							"internalType": "address payable",
							"name": "_from",
							"type": "address"
						},
						{
							"internalType": "address payable",
							"name": "_contract",
							"type": "address"
						}
					],
					"name": "allowance",
					"outputs": [
						{
							"internalType": "uint256",
							"name": "",
							"type": "uint256"
						}
					],
					"stateMutability": "view",
					"type": "function"
				},
				{
					"inputs": [
						{
							"internalType": "uint256",
							"name": "_amount",
							"type": "uint256"
						},
						{
							"internalType": "address",
							"name": "_ERC20Address",
							"type": "address"
						},
						{
							"internalType": "address payable",
							"name": "_contract",
							"type": "address"
						}
					],
					"name": "approve",
					"outputs": [],
					"stateMutability": "payable",
					"type": "function"
				},
				{
					"inputs": [
						{
							"internalType": "bool",
							"name": "_isCelo",
							"type": "bool"
						},
						{
							"internalType": "address",
							"name": "_ERC20Address",
							"type": "address"
						}
					],
					"name": "balanceOf",
					"outputs": [
						{
							"internalType": "uint256",
							"name": "",
							"type": "uint256"
						}
					],
					"stateMutability": "view",
					"type": "function"
				},
				{
					"inputs": [
						{
							"internalType": "address",
							"name": "_sender",
							"type": "address"
						}
					],
					"name": "claim",
					"outputs": [],
					"stateMutability": "nonpayable",
					"type": "function"
				},
				{
					"inputs": [],
					"name": "claimDelay",
					"outputs": [
						{
							"internalType": "uint256",
							"name": "",
							"type": "uint256"
						}
					],
					"stateMutability": "view",
					"type": "function"
				},
				{
					"inputs": [],
					"name": "claimInProgress",
					"outputs": [
						{
							"internalType": "bool",
							"name": "",
							"type": "bool"
						}
					],
					"stateMutability": "view",
					"type": "function"
				},
				{
					"inputs": [],
					"name": "claimInitiatedAt",
					"outputs": [
						{
							"internalType": "uint256",
							"name": "",
							"type": "uint256"
						}
					],
					"stateMutability": "view",
					"type": "function"
				},
				{
					"inputs": [],
					"name": "deployer",
					"outputs": [
						{
							"internalType": "address",
							"name": "",
							"type": "address"
						}
					],
					"stateMutability": "view",
					"type": "function"
				},
				{
					"inputs": [
						{
							"internalType": "uint256",
							"name": "_amount",
							"type": "uint256"
						},
						{
							"internalType": "address payable",
							"name": "_from",
							"type": "address"
						},
						{
							"internalType": "address",
							"name": "_ERC20Address",
							"type": "address"
						},
						{
							"internalType": "address payable",
							"name": "_contract",
							"type": "address"
						}
					],
					"name": "deposit",
					"outputs": [],
					"stateMutability": "payable",
					"type": "function"
				},
				{
					"inputs": [
						{
							"internalType": "address",
							"name": "_sender",
							"type": "address"
						}
					],
					"name": "freeze",
					"outputs": [],
					"stateMutability": "nonpayable",
					"type": "function"
				},
				{
					"inputs": [],
					"name": "frozen",
					"outputs": [
						{
							"internalType": "bool",
							"name": "",
							"type": "bool"
						}
					],
					"stateMutability": "view",
					"type": "function"
				},
				{
					"inputs": [],
					"name": "heir",
					"outputs": [
						{
							"internalType": "address payable",
							"name": "",
							"type": "address"
						}
					],
					"stateMutability": "view",
					"type": "function"
				},
				{
					"inputs": [
						{
							"internalType": "address",
							"name": "_sender",
							"type": "address"
						}
					],
					"name": "initiateClaim",
					"outputs": [],
					"stateMutability": "nonpayable",
					"type": "function"
				},
				{
					"inputs": [],
					"name": "mutex",
					"outputs": [
						{
							"internalType": "bool",
							"name": "",
							"type": "bool"
						}
					],
					"stateMutability": "view",
					"type": "function"
				},
				{
					"inputs": [],
					"name": "owner",
					"outputs": [
						{
							"internalType": "address payable",
							"name": "",
							"type": "address"
						}
					],
					"stateMutability": "view",
					"type": "function"
				},
				{
					"inputs": [],
					"name": "returnDeployer",
					"outputs": [
						{
							"internalType": "address",
							"name": "",
							"type": "address"
						}
					],
					"stateMutability": "view",
					"type": "function"
				},
				{
					"inputs": [],
					"name": "returnHeir",
					"outputs": [
						{
							"internalType": "address",
							"name": "",
							"type": "address"
						}
					],
					"stateMutability": "view",
					"type": "function"
				},
				{
					"inputs": [],
					"name": "returnOwner",
					"outputs": [
						{
							"internalType": "address",
							"name": "",
							"type": "address"
						}
					],
					"stateMutability": "view",
					"type": "function"
				},
				{
					"inputs": [
						{
							"internalType": "address payable",
							"name": "_heir",
							"type": "address"
						},
						{
							"internalType": "uint256",
							"name": "_claimDelay",
							"type": "uint256"
						},
						{
							"internalType": "address",
							"name": "_sender",
							"type": "address"
						}
					],
					"name": "setHeir",
					"outputs": [],
					"stateMutability": "nonpayable",
					"type": "function"
				},
				{
					"inputs": [
						{
							"internalType": "address",
							"name": "_sender",
							"type": "address"
						}
					],
					"name": "stopClaim",
					"outputs": [],
					"stateMutability": "nonpayable",
					"type": "function"
				},
				{
					"inputs": [],
					"name": "tokenBalance",
					"outputs": [
						{
							"internalType": "uint256",
							"name": "",
							"type": "uint256"
						}
					],
					"stateMutability": "view",
					"type": "function"
				},
				{
					"inputs": [
						{
							"internalType": "bool",
							"name": "_isCelo",
							"type": "bool"
						},
						{
							"internalType": "address payable",
							"name": "_recipient",
							"type": "address"
						},
						{
							"internalType": "uint256",
							"name": "_amount",
							"type": "uint256"
						},
						{
							"internalType": "address",
							"name": "_ERC20Address",
							"type": "address"
						},
						{
							"internalType": "address",
							"name": "_sender",
							"type": "address"
						},
						{
							"internalType": "address payable",
							"name": "_feeAddress",
							"type": "address"
						},
						{
							"internalType": "uint256",
							"name": "_transferFee",
							"type": "uint256"
						}
					],
					"name": "transferFunds",
					"outputs": [],
					"stateMutability": "payable",
					"type": "function"
				},
				{
					"inputs": [
						{
							"internalType": "address",
							"name": "_sender",
							"type": "address"
						}
					],
					"name": "unfreeze",
					"outputs": [],
					"stateMutability": "nonpayable",
					"type": "function"
				},
				{
					"inputs": [
						{
							"internalType": "bool",
							"name": "_isCelo",
							"type": "bool"
						},
						{
							"internalType": "uint256",
							"name": "_amount",
							"type": "uint256"
						},
						{
							"internalType": "address",
							"name": "_ERC20Address",
							"type": "address"
						},
						{
							"internalType": "address",
							"name": "_sender",
							"type": "address"
						},
						{
							"internalType": "address payable",
							"name": "_feeAddress",
							"type": "address"
						},
						{
							"internalType": "uint256",
							"name": "_transferFee",
							"type": "uint256"
						}
					],
					"name": "withdraw",
					"outputs": [],
					"stateMutability": "payable",
					"type": "function"
				}
			],
			"devdoc": {
				"kind": "dev",
				"methods": {},
				"version": 1
			},
			"evm": {
				"assembly": "    /* \"contract/HeirAccount.sol\":927:8188  contract Accounts {... */\n  mstore(0x40, 0x80)\n    /* \"contract/HeirAccount.sol\":1765:1770  false */\n  0x00\n    /* \"contract/HeirAccount.sol\":1745:1770  bool public mutex = false */\n  0x07\n  exp(0x0100, 0x14)\n  dup2\n  sload\n  dup2\n  0xff\n  mul\n  not\n  and\n  swap1\n  dup4\n  iszero\n  iszero\n  mul\n  or\n  swap1\n  sstore\n  pop\n    /* \"contract/HeirAccount.sol\":1878:1883  false */\n  0x00\n    /* \"contract/HeirAccount.sol\":1857:1883  bool public frozen = false */\n  0x09\n  exp(0x0100, 0x00)\n  dup2\n  sload\n  dup2\n  0xff\n  mul\n  not\n  and\n  swap1\n  dup4\n  iszero\n  iszero\n  mul\n  or\n  swap1\n  sstore\n  pop\n    /* \"contract/HeirAccount.sol\":2015:2115  constructor(address payable _owner) {... */\n  callvalue\n  dup1\n  iszero\n  tag_1\n  jumpi\n  0x00\n  dup1\n  revert\ntag_1:\n  pop\n  mload(0x40)\n  sub(codesize, bytecodeSize)\n  dup1\n  bytecodeSize\n  dup4\n  codecopy\n  dup2\n  dup2\n  add\n  0x40\n  mstore\n  dup2\n  add\n  swap1\n  tag_2\n  swap2\n  swap1\n  tag_3\n  jump\t// in\ntag_2:\n    /* \"contract/HeirAccount.sol\":2072:2078  _owner */\n  dup1\n    /* \"contract/HeirAccount.sol\":2064:2069  owner */\n  0x01\n  0x00\n    /* \"contract/HeirAccount.sol\":2064:2078  owner = _owner */\n  0x0100\n  exp\n  dup2\n  sload\n  dup2\n  0xffffffffffffffffffffffffffffffffffffffff\n  mul\n  not\n  and\n  swap1\n  dup4\n  0xffffffffffffffffffffffffffffffffffffffff\n  and\n  mul\n  or\n  swap1\n  sstore\n  pop\n    /* \"contract/HeirAccount.sol\":2102:2108  _owner */\n  dup1\n    /* \"contract/HeirAccount.sol\":2091:2099  deployer */\n  0x00\n  dup1\n    /* \"contract/HeirAccount.sol\":2091:2108  deployer = _owner */\n  0x0100\n  exp\n  dup2\n  sload\n  dup2\n  0xffffffffffffffffffffffffffffffffffffffff\n  mul\n  not\n  and\n  swap1\n  dup4\n  0xffffffffffffffffffffffffffffffffffffffff\n  and\n  mul\n  or\n  swap1\n  sstore\n  pop\n    /* \"contract/HeirAccount.sol\":2015:2115  constructor(address payable _owner) {... */\n  pop\n    /* \"contract/HeirAccount.sol\":927:8188  contract Accounts {... */\n  jump(tag_6)\n    /* \"#utility.yul\":88:205   */\ntag_8:\n    /* \"#utility.yul\":197:198   */\n  0x00\n    /* \"#utility.yul\":194:195   */\n  dup1\n    /* \"#utility.yul\":187:199   */\n  revert\n    /* \"#utility.yul\":334:460   */\ntag_10:\n    /* \"#utility.yul\":371:378   */\n  0x00\n    /* \"#utility.yul\":411:453   */\n  0xffffffffffffffffffffffffffffffffffffffff\n    /* \"#utility.yul\":404:409   */\n  dup3\n    /* \"#utility.yul\":400:454   */\n  and\n    /* \"#utility.yul\":389:454   */\n  swap1\n  pop\n    /* \"#utility.yul\":334:460   */\n  swap2\n  swap1\n  pop\n  jump\t// out\n    /* \"#utility.yul\":466:570   */\ntag_11:\n    /* \"#utility.yul\":511:518   */\n  0x00\n    /* \"#utility.yul\":540:564   */\n  tag_20\n    /* \"#utility.yul\":558:563   */\n  dup3\n    /* \"#utility.yul\":540:564   */\n  tag_10\n  jump\t// in\ntag_20:\n    /* \"#utility.yul\":529:564   */\n  swap1\n  pop\n    /* \"#utility.yul\":466:570   */\n  swap2\n  swap1\n  pop\n  jump\t// out\n    /* \"#utility.yul\":576:714   */\ntag_12:\n    /* \"#utility.yul\":657:689   */\n  tag_22\n    /* \"#utility.yul\":683:688   */\n  dup2\n    /* \"#utility.yul\":657:689   */\n  tag_11\n  jump\t// in\ntag_22:\n    /* \"#utility.yul\":650:655   */\n  dup2\n    /* \"#utility.yul\":647:690   */\n  eq\n    /* \"#utility.yul\":637:708   */\n  tag_23\n  jumpi\n    /* \"#utility.yul\":704:705   */\n  0x00\n    /* \"#utility.yul\":701:702   */\n  dup1\n    /* \"#utility.yul\":694:706   */\n  revert\n    /* \"#utility.yul\":637:708   */\ntag_23:\n    /* \"#utility.yul\":576:714   */\n  pop\n  jump\t// out\n    /* \"#utility.yul\":720:879   */\ntag_13:\n    /* \"#utility.yul\":785:790   */\n  0x00\n    /* \"#utility.yul\":816:822   */\n  dup2\n    /* \"#utility.yul\":810:823   */\n  mload\n    /* \"#utility.yul\":801:823   */\n  swap1\n  pop\n    /* \"#utility.yul\":832:873   */\n  tag_25\n    /* \"#utility.yul\":867:872   */\n  dup2\n    /* \"#utility.yul\":832:873   */\n  tag_12\n  jump\t// in\ntag_25:\n    /* \"#utility.yul\":720:879   */\n  swap3\n  swap2\n  pop\n  pop\n  jump\t// out\n    /* \"#utility.yul\":885:1252   */\ntag_3:\n    /* \"#utility.yul\":963:969   */\n  0x00\n    /* \"#utility.yul\":1012:1014   */\n  0x20\n    /* \"#utility.yul\":1000:1009   */\n  dup3\n    /* \"#utility.yul\":991:998   */\n  dup5\n    /* \"#utility.yul\":987:1010   */\n  sub\n    /* \"#utility.yul\":983:1015   */\n  slt\n    /* \"#utility.yul\":980:1099   */\n  iszero\n  tag_27\n  jumpi\n    /* \"#utility.yul\":1018:1097   */\n  tag_28\n  tag_8\n  jump\t// in\ntag_28:\n    /* \"#utility.yul\":980:1099   */\ntag_27:\n    /* \"#utility.yul\":1138:1139   */\n  0x00\n    /* \"#utility.yul\":1163:1235   */\n  tag_29\n    /* \"#utility.yul\":1227:1234   */\n  dup5\n    /* \"#utility.yul\":1218:1224   */\n  dup3\n    /* \"#utility.yul\":1207:1216   */\n  dup6\n    /* \"#utility.yul\":1203:1225   */\n  add\n    /* \"#utility.yul\":1163:1235   */\n  tag_13\n  jump\t// in\ntag_29:\n    /* \"#utility.yul\":1153:1235   */\n  swap2\n  pop\n    /* \"#utility.yul\":1109:1245   */\n  pop\n    /* \"#utility.yul\":885:1252   */\n  swap3\n  swap2\n  pop\n  pop\n  jump\t// out\n    /* \"contract/HeirAccount.sol\":927:8188  contract Accounts {... */\ntag_6:\n  dataSize(sub_0)\n  dup1\n  dataOffset(sub_0)\n  0x00\n  codecopy\n  0x00\n  return\nstop\n\nsub_0: assembly {\n        /* \"contract/HeirAccount.sol\":927:8188  contract Accounts {... */\n      mstore(0x40, 0x80)\n      jumpi(tag_1, lt(calldatasize, 0x04))\n      shr(0xe0, calldataload(0x00))\n      dup1\n      0x8da5cb5b\n      gt\n      tag_28\n      jumpi\n      dup1\n      0xb7d1d98e\n      gt\n      tag_29\n      jumpi\n      dup1\n      0xcc4aa204\n      gt\n      tag_30\n      jumpi\n      dup1\n      0xcc4aa204\n      eq\n      tag_24\n      jumpi\n      dup1\n      0xd5f39488\n      eq\n      tag_25\n      jumpi\n      dup1\n      0xf2b5eea7\n      eq\n      tag_26\n      jumpi\n      dup1\n      0xfaedd18e\n      eq\n      tag_27\n      jumpi\n      jump(tag_1)\n    tag_30:\n      dup1\n      0xb7d1d98e\n      eq\n      tag_21\n      jumpi\n      dup1\n      0xc250283c\n      eq\n      tag_22\n      jumpi\n      dup1\n      0xc7983e20\n      eq\n      tag_23\n      jumpi\n      jump(tag_1)\n    tag_29:\n      dup1\n      0x8da5cb5b\n      eq\n      tag_15\n      jumpi\n      dup1\n      0x91f2ebb8\n      eq\n      tag_16\n      jumpi\n      dup1\n      0x927da105\n      eq\n      tag_17\n      jumpi\n      dup1\n      0x94a927fe\n      eq\n      tag_18\n      jumpi\n      dup1\n      0x9e1a4d19\n      eq\n      tag_19\n      jumpi\n      dup1\n      0xa5720770\n      eq\n      tag_20\n      jumpi\n      jump(tag_1)\n    tag_28:\n      dup1\n      0x362bb2ac\n      gt\n      tag_31\n      jumpi\n      dup1\n      0x6e1a7373\n      gt\n      tag_32\n      jumpi\n      dup1\n      0x6e1a7373\n      eq\n      tag_11\n      jumpi\n      dup1\n      0x7a80760e\n      eq\n      tag_12\n      jumpi\n      dup1\n      0x87c2797d\n      eq\n      tag_13\n      jumpi\n      dup1\n      0x8d1fdf2f\n      eq\n      tag_14\n      jumpi\n      jump(tag_1)\n    tag_32:\n      dup1\n      0x362bb2ac\n      eq\n      tag_8\n      jumpi\n      dup1\n      0x45c8b1a6\n      eq\n      tag_9\n      jumpi\n      dup1\n      0x56af4f75\n      eq\n      tag_10\n      jumpi\n      jump(tag_1)\n    tag_31:\n      dup1\n      0x0171b6da\n      eq\n      tag_2\n      jumpi\n      dup1\n      0x054f7d9c\n      eq\n      tag_3\n      jumpi\n      dup1\n      0x1903b431\n      eq\n      tag_4\n      jumpi\n      dup1\n      0x1c8ec299\n      eq\n      tag_5\n      jumpi\n      dup1\n      0x1e83409a\n      eq\n      tag_6\n      jumpi\n      dup1\n      0x2fac5d9f\n      eq\n      tag_7\n      jumpi\n    tag_1:\n      0x00\n      dup1\n      revert\n        /* \"contract/HeirAccount.sol\":6333:7471  function transferFunds(bool _isCelo, address payable _recipient, uint _amount, address _ERC20Address, address _sender, address payable _feeAddress, uint _transferFee) public payable {... */\n    tag_2:\n      tag_33\n      0x04\n      dup1\n      calldatasize\n      sub\n      dup2\n      add\n      swap1\n      tag_34\n      swap2\n      swap1\n      tag_35\n      jump\t// in\n    tag_34:\n      tag_36\n      jump\t// in\n    tag_33:\n      stop\n        /* \"contract/HeirAccount.sol\":1857:1883  bool public frozen = false */\n    tag_3:\n      callvalue\n      dup1\n      iszero\n      tag_37\n      jumpi\n      0x00\n      dup1\n      revert\n    tag_37:\n      pop\n      tag_38\n      tag_39\n      jump\t// in\n    tag_38:\n      mload(0x40)\n      tag_40\n      swap2\n      swap1\n      tag_41\n      jump\t// in\n    tag_40:\n      mload(0x40)\n      dup1\n      swap2\n      sub\n      swap1\n      return\n        /* \"contract/HeirAccount.sol\":7524:7759  function balanceOf(bool _isCelo, address _ERC20Address) public view returns(uint) {... */\n    tag_4:\n      callvalue\n      dup1\n      iszero\n      tag_42\n      jumpi\n      0x00\n      dup1\n      revert\n    tag_42:\n      pop\n      tag_43\n      0x04\n      dup1\n      calldatasize\n      sub\n      dup2\n      add\n      swap1\n      tag_44\n      swap2\n      swap1\n      tag_45\n      jump\t// in\n    tag_44:\n      tag_46\n      jump\t// in\n    tag_43:\n      mload(0x40)\n      tag_47\n      swap2\n      swap1\n      tag_48\n      jump\t// in\n    tag_47:\n      mload(0x40)\n      dup1\n      swap2\n      sub\n      swap1\n      return\n        /* \"contract/HeirAccount.sol\":1443:1465  uint public claimDelay */\n    tag_5:\n      callvalue\n      dup1\n      iszero\n      tag_49\n      jumpi\n      0x00\n      dup1\n      revert\n    tag_49:\n      pop\n      tag_50\n      tag_51\n      jump\t// in\n    tag_50:\n      mload(0x40)\n      tag_52\n      swap2\n      swap1\n      tag_48\n      jump\t// in\n    tag_52:\n      mload(0x40)\n      dup1\n      swap2\n      sub\n      swap1\n      return\n        /* \"contract/HeirAccount.sol\":2903:3266  function claim(address _sender) public  {... */\n    tag_6:\n      callvalue\n      dup1\n      iszero\n      tag_53\n      jumpi\n      0x00\n      dup1\n      revert\n    tag_53:\n      pop\n      tag_54\n      0x04\n      dup1\n      calldatasize\n      sub\n      dup2\n      add\n      swap1\n      tag_55\n      swap2\n      swap1\n      tag_56\n      jump\t// in\n    tag_55:\n      tag_57\n      jump\t// in\n    tag_54:\n      stop\n        /* \"contract/HeirAccount.sol\":4059:4317  function approve(uint _amount,  address _ERC20Address, address payable _contract) public payable {... */\n    tag_7:\n      tag_58\n      0x04\n      dup1\n      calldatasize\n      sub\n      dup2\n      add\n      swap1\n      tag_59\n      swap2\n      swap1\n      tag_60\n      jump\t// in\n    tag_59:\n      tag_61\n      jump\t// in\n    tag_58:\n      stop\n        /* \"contract/HeirAccount.sol\":8098:8184  function returnDeployer() public view returns(address){... */\n    tag_8:\n      callvalue\n      dup1\n      iszero\n      tag_62\n      jumpi\n      0x00\n      dup1\n      revert\n    tag_62:\n      pop\n      tag_63\n      tag_64\n      jump\t// in\n    tag_63:\n      mload(0x40)\n      tag_65\n      swap2\n      swap1\n      tag_66\n      jump\t// in\n    tag_65:\n      mload(0x40)\n      dup1\n      swap2\n      sub\n      swap1\n      return\n        /* \"contract/HeirAccount.sol\":3831:4015  function unfreeze(address _sender) public {... */\n    tag_9:\n      callvalue\n      dup1\n      iszero\n      tag_67\n      jumpi\n      0x00\n      dup1\n      revert\n    tag_67:\n      pop\n      tag_68\n      0x04\n      dup1\n      calldatasize\n      sub\n      dup2\n      add\n      swap1\n      tag_69\n      swap2\n      swap1\n      tag_56\n      jump\t// in\n    tag_69:\n      tag_70\n      jump\t// in\n    tag_68:\n      stop\n        /* \"contract/HeirAccount.sol\":7956:8034  function returnHeir() public view returns(address){... */\n    tag_10:\n      callvalue\n      dup1\n      iszero\n      tag_71\n      jumpi\n      0x00\n      dup1\n      revert\n    tag_71:\n      pop\n      tag_72\n      tag_73\n      jump\t// in\n    tag_72:\n      mload(0x40)\n      tag_74\n      swap2\n      swap1\n      tag_66\n      jump\t// in\n    tag_74:\n      mload(0x40)\n      dup1\n      swap2\n      sub\n      swap1\n      return\n        /* \"contract/HeirAccount.sol\":2168:2496  function setHeir(address payable _heir, uint _claimDelay, address _sender) public {... */\n    tag_11:\n      callvalue\n      dup1\n      iszero\n      tag_75\n      jumpi\n      0x00\n      dup1\n      revert\n    tag_75:\n      pop\n      tag_76\n      0x04\n      dup1\n      calldatasize\n      sub\n      dup2\n      add\n      swap1\n      tag_77\n      swap2\n      swap1\n      tag_78\n      jump\t// in\n    tag_77:\n      tag_79\n      jump\t// in\n    tag_76:\n      stop\n        /* \"contract/HeirAccount.sol\":1555:1588  address payable public ERC20Token */\n    tag_12:\n      callvalue\n      dup1\n      iszero\n      tag_80\n      jumpi\n      0x00\n      dup1\n      revert\n    tag_80:\n      pop\n      tag_81\n      tag_82\n      jump\t// in\n    tag_81:\n      mload(0x40)\n      tag_83\n      swap2\n      swap1\n      tag_84\n      jump\t// in\n    tag_83:\n      mload(0x40)\n      dup1\n      swap2\n      sub\n      swap1\n      return\n        /* \"contract/HeirAccount.sol\":5051:6289  function withdraw(bool _isCelo, uint _amount, address _ERC20Address, address _sender, address payable _feeAddress, uint _transferFee) public payable {... */\n    tag_13:\n      tag_85\n      0x04\n      dup1\n      calldatasize\n      sub\n      dup2\n      add\n      swap1\n      tag_86\n      swap2\n      swap1\n      tag_87\n      jump\t// in\n    tag_86:\n      tag_88\n      jump\t// in\n    tag_85:\n      stop\n        /* \"contract/HeirAccount.sol\":3608:3785  function freeze(address _sender) public {... */\n    tag_14:\n      callvalue\n      dup1\n      iszero\n      tag_89\n      jumpi\n      0x00\n      dup1\n      revert\n    tag_89:\n      pop\n      tag_90\n      0x04\n      dup1\n      calldatasize\n      sub\n      dup2\n      add\n      swap1\n      tag_91\n      swap2\n      swap1\n      tag_56\n      jump\t// in\n    tag_91:\n      tag_92\n      jump\t// in\n    tag_90:\n      stop\n        /* \"contract/HeirAccount.sol\":1079:1107  address payable public owner */\n    tag_15:\n      callvalue\n      dup1\n      iszero\n      tag_93\n      jumpi\n      0x00\n      dup1\n      revert\n    tag_93:\n      pop\n      tag_94\n      tag_95\n      jump\t// in\n    tag_94:\n      mload(0x40)\n      tag_96\n      swap2\n      swap1\n      tag_84\n      jump\t// in\n    tag_96:\n      mload(0x40)\n      dup1\n      swap2\n      sub\n      swap1\n      return\n        /* \"contract/HeirAccount.sol\":1144:1171  address payable public heir */\n    tag_16:\n      callvalue\n      dup1\n      iszero\n      tag_97\n      jumpi\n      0x00\n      dup1\n      revert\n    tag_97:\n      pop\n      tag_98\n      tag_99\n      jump\t// in\n    tag_98:\n      mload(0x40)\n      tag_100\n      swap2\n      swap1\n      tag_84\n      jump\t// in\n    tag_100:\n      mload(0x40)\n      dup1\n      swap2\n      sub\n      swap1\n      return\n        /* \"contract/HeirAccount.sol\":4370:4602  function allowance ( address _ERC20Address, address payable _from, address payable _contract) public  view returns (uint256) {... */\n    tag_17:\n      callvalue\n      dup1\n      iszero\n      tag_101\n      jumpi\n      0x00\n      dup1\n      revert\n    tag_101:\n      pop\n      tag_102\n      0x04\n      dup1\n      calldatasize\n      sub\n      dup2\n      add\n      swap1\n      tag_103\n      swap2\n      swap1\n      tag_104\n      jump\t// in\n    tag_103:\n      tag_105\n      jump\t// in\n    tag_102:\n      mload(0x40)\n      tag_106\n      swap2\n      swap1\n      tag_48\n      jump\t// in\n    tag_106:\n      mload(0x40)\n      dup1\n      swap2\n      sub\n      swap1\n      return\n        /* \"contract/HeirAccount.sol\":7816:7896  function returnOwner() public view returns(address){... */\n    tag_18:\n      callvalue\n      dup1\n      iszero\n      tag_107\n      jumpi\n      0x00\n      dup1\n      revert\n    tag_107:\n      pop\n      tag_108\n      tag_109\n      jump\t// in\n    tag_108:\n      mload(0x40)\n      tag_110\n      swap2\n      swap1\n      tag_66\n      jump\t// in\n    tag_110:\n      mload(0x40)\n      dup1\n      swap2\n      sub\n      swap1\n      return\n        /* \"contract/HeirAccount.sol\":1805:1829  uint public tokenBalance */\n    tag_19:\n      callvalue\n      dup1\n      iszero\n      tag_111\n      jumpi\n      0x00\n      dup1\n      revert\n    tag_111:\n      pop\n      tag_112\n      tag_113\n      jump\t// in\n    tag_112:\n      mload(0x40)\n      tag_114\n      swap2\n      swap1\n      tag_48\n      jump\t// in\n    tag_114:\n      mload(0x40)\n      dup1\n      swap2\n      sub\n      swap1\n      return\n        /* \"contract/HeirAccount.sol\":1745:1770  bool public mutex = false */\n    tag_20:\n      callvalue\n      dup1\n      iszero\n      tag_115\n      jumpi\n      0x00\n      dup1\n      revert\n    tag_115:\n      pop\n      tag_116\n      tag_117\n      jump\t// in\n    tag_116:\n      mload(0x40)\n      tag_118\n      swap2\n      swap1\n      tag_41\n      jump\t// in\n    tag_118:\n      mload(0x40)\n      dup1\n      swap2\n      sub\n      swap1\n      return\n        /* \"contract/HeirAccount.sol\":3338:3563  function stopClaim(address _sender) public {... */\n    tag_21:\n      callvalue\n      dup1\n      iszero\n      tag_119\n      jumpi\n      0x00\n      dup1\n      revert\n    tag_119:\n      pop\n      tag_120\n      0x04\n      dup1\n      calldatasize\n      sub\n      dup2\n      add\n      swap1\n      tag_121\n      swap2\n      swap1\n      tag_56\n      jump\t// in\n    tag_121:\n      tag_122\n      jump\t// in\n    tag_120:\n      stop\n        /* \"contract/HeirAccount.sol\":4640:5006  function deposit(uint _amount,  address payable _from, address _ERC20Address, address payable _contract) public payable {... */\n    tag_22:\n      tag_123\n      0x04\n      dup1\n      calldatasize\n      sub\n      dup2\n      add\n      swap1\n      tag_124\n      swap2\n      swap1\n      tag_125\n      jump\t// in\n    tag_124:\n      tag_126\n      jump\t// in\n    tag_123:\n      stop\n        /* \"contract/HeirAccount.sol\":1321:1349  uint public claimInitiatedAt */\n    tag_23:\n      callvalue\n      dup1\n      iszero\n      tag_127\n      jumpi\n      0x00\n      dup1\n      revert\n    tag_127:\n      pop\n      tag_128\n      tag_129\n      jump\t// in\n    tag_128:\n      mload(0x40)\n      tag_130\n      swap2\n      swap1\n      tag_48\n      jump\t// in\n    tag_130:\n      mload(0x40)\n      dup1\n      swap2\n      sub\n      swap1\n      return\n        /* \"contract/HeirAccount.sol\":1608:1627  IERC20 public ERC20 */\n    tag_24:\n      callvalue\n      dup1\n      iszero\n      tag_131\n      jumpi\n      0x00\n      dup1\n      revert\n    tag_131:\n      pop\n      tag_132\n      tag_133\n      jump\t// in\n    tag_132:\n      mload(0x40)\n      tag_134\n      swap2\n      swap1\n      tag_135\n      jump\t// in\n    tag_134:\n      mload(0x40)\n      dup1\n      swap2\n      sub\n      swap1\n      return\n        /* \"contract/HeirAccount.sol\":1002:1025  address public deployer */\n    tag_25:\n      callvalue\n      dup1\n      iszero\n      tag_136\n      jumpi\n      0x00\n      dup1\n      revert\n    tag_136:\n      pop\n      tag_137\n      tag_138\n      jump\t// in\n    tag_137:\n      mload(0x40)\n      tag_139\n      swap2\n      swap1\n      tag_66\n      jump\t// in\n    tag_139:\n      mload(0x40)\n      dup1\n      swap2\n      sub\n      swap1\n      return\n        /* \"contract/HeirAccount.sol\":2558:2847  function initiateClaim(address _sender) public {... */\n    tag_26:\n      callvalue\n      dup1\n      iszero\n      tag_140\n      jumpi\n      0x00\n      dup1\n      revert\n    tag_140:\n      pop\n      tag_141\n      0x04\n      dup1\n      calldatasize\n      sub\n      dup2\n      add\n      swap1\n      tag_142\n      swap2\n      swap1\n      tag_56\n      jump\t// in\n    tag_142:\n      tag_143\n      jump\t// in\n    tag_141:\n      stop\n        /* \"contract/HeirAccount.sol\":1231:1258  bool public claimInProgress */\n    tag_27:\n      callvalue\n      dup1\n      iszero\n      tag_144\n      jumpi\n      0x00\n      dup1\n      revert\n    tag_144:\n      pop\n      tag_145\n      tag_146\n      jump\t// in\n    tag_145:\n      mload(0x40)\n      tag_147\n      swap2\n      swap1\n      tag_41\n      jump\t// in\n    tag_147:\n      mload(0x40)\n      dup1\n      swap2\n      sub\n      swap1\n      return\n        /* \"contract/HeirAccount.sol\":6333:7471  function transferFunds(bool _isCelo, address payable _recipient, uint _amount, address _ERC20Address, address _sender, address payable _feeAddress, uint _transferFee) public payable {... */\n    tag_36:\n        /* \"contract/HeirAccount.sol\":6544:6549  owner */\n      0x01\n      0x00\n      swap1\n      sload\n      swap1\n      0x0100\n      exp\n      swap1\n      div\n      0xffffffffffffffffffffffffffffffffffffffff\n      and\n        /* \"contract/HeirAccount.sol\":6533:6549  _sender == owner */\n      0xffffffffffffffffffffffffffffffffffffffff\n      and\n        /* \"contract/HeirAccount.sol\":6533:6540  _sender */\n      dup4\n        /* \"contract/HeirAccount.sol\":6533:6549  _sender == owner */\n      0xffffffffffffffffffffffffffffffffffffffff\n      and\n      eq\n        /* \"contract/HeirAccount.sol\":6525:6588  require(_sender == owner, \"Only the owner can transfer funds.\") */\n      tag_149\n      jumpi\n      mload(0x40)\n      0x08c379a000000000000000000000000000000000000000000000000000000000\n      dup2\n      mstore\n      0x04\n      add\n      tag_150\n      swap1\n      tag_151\n      jump\t// in\n    tag_150:\n      mload(0x40)\n      dup1\n      swap2\n      sub\n      swap1\n      revert\n    tag_149:\n        /* \"contract/HeirAccount.sol\":6607:6613  frozen */\n      0x09\n      0x00\n      swap1\n      sload\n      swap1\n      0x0100\n      exp\n      swap1\n      div\n      0xff\n      and\n        /* \"contract/HeirAccount.sol\":6606:6613  !frozen */\n      iszero\n        /* \"contract/HeirAccount.sol\":6598:6659  require(!frozen, \"Account is frozen, cannot withdraw funds.\") */\n      tag_152\n      jumpi\n      mload(0x40)\n      0x08c379a000000000000000000000000000000000000000000000000000000000\n      dup2\n      mstore\n      0x04\n      add\n      tag_153\n      swap1\n      tag_154\n      jump\t// in\n    tag_153:\n      mload(0x40)\n      dup1\n      swap2\n      sub\n      swap1\n      revert\n    tag_152:\n        /* \"contract/HeirAccount.sol\":6672:6679  _isCelo */\n      dup7\n        /* \"contract/HeirAccount.sol\":6668:7465  if (_isCelo) {... */\n      iszero\n      tag_155\n      jumpi\n        /* \"contract/HeirAccount.sol\":6714:6735  address(this).balance */\n      selfbalance\n        /* \"contract/HeirAccount.sol\":6703:6710  _amount */\n      dup6\n        /* \"contract/HeirAccount.sol\":6703:6735  _amount <= address(this).balance */\n      gt\n      iszero\n        /* \"contract/HeirAccount.sol\":6695:6759  require(_amount <= address(this).balance, \"Insufficient funds.\") */\n      tag_156\n      jumpi\n      mload(0x40)\n      0x08c379a000000000000000000000000000000000000000000000000000000000\n      dup2\n      mstore\n      0x04\n      add\n      tag_157\n      swap1\n      tag_158\n      jump\t// in\n    tag_157:\n      mload(0x40)\n      dup1\n      swap2\n      sub\n      swap1\n      revert\n    tag_156:\n        /* \"contract/HeirAccount.sol\":6782:6787  mutex */\n      0x07\n      0x14\n      swap1\n      sload\n      swap1\n      0x0100\n      exp\n      swap1\n      div\n      0xff\n      and\n        /* \"contract/HeirAccount.sol\":6781:6787  !mutex */\n      iszero\n        /* \"contract/HeirAccount.sol\":6773:6829  require(!mutex, \"The function is already in execution.\") */\n      tag_159\n      jumpi\n      mload(0x40)\n      0x08c379a000000000000000000000000000000000000000000000000000000000\n      dup2\n      mstore\n      0x04\n      add\n      tag_160\n      swap1\n      tag_161\n      jump\t// in\n    tag_160:\n      mload(0x40)\n      dup1\n      swap2\n      sub\n      swap1\n      revert\n    tag_159:\n        /* \"contract/HeirAccount.sol\":6851:6855  true */\n      0x01\n        /* \"contract/HeirAccount.sol\":6843:6848  mutex */\n      0x07\n      0x14\n        /* \"contract/HeirAccount.sol\":6843:6855  mutex = true */\n      0x0100\n      exp\n      dup2\n      sload\n      dup2\n      0xff\n      mul\n      not\n      and\n      swap1\n      dup4\n      iszero\n      iszero\n      mul\n      or\n      swap1\n      sstore\n      pop\n        /* \"contract/HeirAccount.sol\":6875:6909  _amount.mul(_transferFee).div(100) */\n      tag_162\n        /* \"contract/HeirAccount.sol\":6905:6908  100 */\n      0x64\n        /* \"contract/HeirAccount.sol\":6875:6900  _amount.mul(_transferFee) */\n      tag_163\n        /* \"contract/HeirAccount.sol\":6887:6899  _transferFee */\n      dup4\n        /* \"contract/HeirAccount.sol\":6875:6882  _amount */\n      dup9\n        /* \"contract/HeirAccount.sol\":6875:6886  _amount.mul */\n      tag_164\n      swap1\n        /* \"contract/HeirAccount.sol\":6875:6900  _amount.mul(_transferFee) */\n      swap2\n      swap1\n      0xffffffff\n      and\n      jump\t// in\n    tag_163:\n        /* \"contract/HeirAccount.sol\":6875:6904  _amount.mul(_transferFee).div */\n      tag_165\n      swap1\n        /* \"contract/HeirAccount.sol\":6875:6909  _amount.mul(_transferFee).div(100) */\n      swap2\n      swap1\n      0xffffffff\n      and\n      jump\t// in\n    tag_162:\n        /* \"contract/HeirAccount.sol\":6869:6872  fee */\n      0x05\n        /* \"contract/HeirAccount.sol\":6869:6909  fee = _amount.mul(_transferFee).div(100) */\n      dup2\n      swap1\n      sstore\n      pop\n        /* \"contract/HeirAccount.sol\":6923:6933  _recipient */\n      dup6\n        /* \"contract/HeirAccount.sol\":6923:6942  _recipient.transfer */\n      0xffffffffffffffffffffffffffffffffffffffff\n      and\n        /* \"contract/HeirAccount.sol\":6923:6960  _recipient.transfer(_amount.sub(fee)) */\n      0x08fc\n        /* \"contract/HeirAccount.sol\":6943:6959  _amount.sub(fee) */\n      tag_166\n        /* \"contract/HeirAccount.sol\":6955:6958  fee */\n      sload(0x05)\n        /* \"contract/HeirAccount.sol\":6943:6950  _amount */\n      dup9\n        /* \"contract/HeirAccount.sol\":6943:6954  _amount.sub */\n      tag_167\n      swap1\n        /* \"contract/HeirAccount.sol\":6943:6959  _amount.sub(fee) */\n      swap2\n      swap1\n      0xffffffff\n      and\n      jump\t// in\n    tag_166:\n        /* \"contract/HeirAccount.sol\":6923:6960  _recipient.transfer(_amount.sub(fee)) */\n      swap1\n      dup2\n      iszero\n      mul\n      swap1\n      mload(0x40)\n      0x00\n      mload(0x40)\n      dup1\n      dup4\n      sub\n      dup2\n      dup6\n      dup9\n      dup9\n      call\n      swap4\n      pop\n      pop\n      pop\n      pop\n      iszero\n      dup1\n      iszero\n      tag_169\n      jumpi\n      returndatasize\n      0x00\n      dup1\n      returndatacopy\n      revert(0x00, returndatasize)\n    tag_169:\n      pop\n        /* \"contract/HeirAccount.sol\":6974:6985  _feeAddress */\n      dup2\n        /* \"contract/HeirAccount.sol\":6974:6994  _feeAddress.transfer */\n      0xffffffffffffffffffffffffffffffffffffffff\n      and\n        /* \"contract/HeirAccount.sol\":6974:6999  _feeAddress.transfer(fee) */\n      0x08fc\n        /* \"contract/HeirAccount.sol\":6995:6998  fee */\n      sload(0x05)\n        /* \"contract/HeirAccount.sol\":6974:6999  _feeAddress.transfer(fee) */\n      swap1\n      dup2\n      iszero\n      mul\n      swap1\n      mload(0x40)\n      0x00\n      mload(0x40)\n      dup1\n      dup4\n      sub\n      dup2\n      dup6\n      dup9\n      dup9\n      call\n      swap4\n      pop\n      pop\n      pop\n      pop\n      iszero\n      dup1\n      iszero\n      tag_171\n      jumpi\n      returndatasize\n      0x00\n      dup1\n      returndatacopy\n      revert(0x00, returndatasize)\n    tag_171:\n      pop\n        /* \"contract/HeirAccount.sol\":7021:7026  false */\n      0x00\n        /* \"contract/HeirAccount.sol\":7013:7018  mutex */\n      0x07\n      0x14\n        /* \"contract/HeirAccount.sol\":7013:7026  mutex = false */\n      0x0100\n      exp\n      dup2\n      sload\n      dup2\n      0xff\n      mul\n      not\n      and\n      swap1\n      dup4\n      iszero\n      iszero\n      mul\n      or\n      swap1\n      sstore\n      pop\n        /* \"contract/HeirAccount.sol\":6668:7465  if (_isCelo) {... */\n      jump(tag_172)\n    tag_155:\n        /* \"contract/HeirAccount.sol\":7072:7085  _ERC20Address */\n      dup4\n        /* \"contract/HeirAccount.sol\":7057:7062  ERC20 */\n      0x07\n      0x00\n        /* \"contract/HeirAccount.sol\":7057:7086  ERC20 = IERC20(_ERC20Address) */\n      0x0100\n      exp\n      dup2\n      sload\n      dup2\n      0xffffffffffffffffffffffffffffffffffffffff\n      mul\n      not\n      and\n      swap1\n      dup4\n      0xffffffffffffffffffffffffffffffffffffffff\n      and\n      mul\n      or\n      swap1\n      sstore\n      pop\n        /* \"contract/HeirAccount.sol\":7119:7124  ERC20 */\n      0x07\n      0x00\n      swap1\n      sload\n      swap1\n      0x0100\n      exp\n      swap1\n      div\n      0xffffffffffffffffffffffffffffffffffffffff\n      and\n        /* \"contract/HeirAccount.sol\":7119:7134  ERC20.balanceOf */\n      0xffffffffffffffffffffffffffffffffffffffff\n      and\n      0x70a08231\n        /* \"contract/HeirAccount.sol\":7143:7147  this */\n      address\n        /* \"contract/HeirAccount.sol\":7119:7149  ERC20.balanceOf(address(this)) */\n      mload(0x40)\n      dup3\n      0xffffffff\n      and\n      0xe0\n      shl\n      dup2\n      mstore\n      0x04\n      add\n      tag_173\n      swap2\n      swap1\n      tag_66\n      jump\t// in\n    tag_173:\n      0x20\n      mload(0x40)\n      dup1\n      dup4\n      sub\n      dup2\n      dup7\n      gas\n      staticcall\n      iszero\n      dup1\n      iszero\n      tag_175\n      jumpi\n      returndatasize\n      0x00\n      dup1\n      returndatacopy\n      revert(0x00, returndatasize)\n    tag_175:\n      pop\n      pop\n      pop\n      pop\n      mload(0x40)\n      returndatasize\n      not(0x1f)\n      0x1f\n      dup3\n      add\n      and\n      dup3\n      add\n      dup1\n      0x40\n      mstore\n      pop\n      dup2\n      add\n      swap1\n      tag_176\n      swap2\n      swap1\n      tag_177\n      jump\t// in\n    tag_176:\n        /* \"contract/HeirAccount.sol\":7108:7115  _amount */\n      dup6\n        /* \"contract/HeirAccount.sol\":7108:7149  _amount <= ERC20.balanceOf(address(this)) */\n      gt\n      iszero\n        /* \"contract/HeirAccount.sol\":7100:7173  require(_amount <= ERC20.balanceOf(address(this)), \"Insufficient funds.\") */\n      tag_178\n      jumpi\n      mload(0x40)\n      0x08c379a000000000000000000000000000000000000000000000000000000000\n      dup2\n      mstore\n      0x04\n      add\n      tag_179\n      swap1\n      tag_158\n      jump\t// in\n    tag_179:\n      mload(0x40)\n      dup1\n      swap2\n      sub\n      swap1\n      revert\n    tag_178:\n        /* \"contract/HeirAccount.sol\":7196:7201  mutex */\n      0x07\n      0x14\n      swap1\n      sload\n      swap1\n      0x0100\n      exp\n      swap1\n      div\n      0xff\n      and\n        /* \"contract/HeirAccount.sol\":7195:7201  !mutex */\n      iszero\n        /* \"contract/HeirAccount.sol\":7187:7243  require(!mutex, \"The function is already in execution.\") */\n      tag_180\n      jumpi\n      mload(0x40)\n      0x08c379a000000000000000000000000000000000000000000000000000000000\n      dup2\n      mstore\n      0x04\n      add\n      tag_181\n      swap1\n      tag_161\n      jump\t// in\n    tag_181:\n      mload(0x40)\n      dup1\n      swap2\n      sub\n      swap1\n      revert\n    tag_180:\n        /* \"contract/HeirAccount.sol\":7265:7269  true */\n      0x01\n        /* \"contract/HeirAccount.sol\":7257:7262  mutex */\n      0x07\n      0x14\n        /* \"contract/HeirAccount.sol\":7257:7269  mutex = true */\n      0x0100\n      exp\n      dup2\n      sload\n      dup2\n      0xff\n      mul\n      not\n      and\n      swap1\n      dup4\n      iszero\n      iszero\n      mul\n      or\n      swap1\n      sstore\n      pop\n        /* \"contract/HeirAccount.sol\":7289:7323  _amount.mul(_transferFee).div(100) */\n      tag_182\n        /* \"contract/HeirAccount.sol\":7319:7322  100 */\n      0x64\n        /* \"contract/HeirAccount.sol\":7289:7314  _amount.mul(_transferFee) */\n      tag_183\n        /* \"contract/HeirAccount.sol\":7301:7313  _transferFee */\n      dup4\n        /* \"contract/HeirAccount.sol\":7289:7296  _amount */\n      dup9\n        /* \"contract/HeirAccount.sol\":7289:7300  _amount.mul */\n      tag_164\n      swap1\n        /* \"contract/HeirAccount.sol\":7289:7314  _amount.mul(_transferFee) */\n      swap2\n      swap1\n      0xffffffff\n      and\n      jump\t// in\n    tag_183:\n        /* \"contract/HeirAccount.sol\":7289:7318  _amount.mul(_transferFee).div */\n      tag_165\n      swap1\n        /* \"contract/HeirAccount.sol\":7289:7323  _amount.mul(_transferFee).div(100) */\n      swap2\n      swap1\n      0xffffffff\n      and\n      jump\t// in\n    tag_182:\n        /* \"contract/HeirAccount.sol\":7283:7286  fee */\n      0x05\n        /* \"contract/HeirAccount.sol\":7283:7323  fee = _amount.mul(_transferFee).div(100) */\n      dup2\n      swap1\n      sstore\n      pop\n        /* \"contract/HeirAccount.sol\":7337:7342  ERC20 */\n      0x07\n      0x00\n      swap1\n      sload\n      swap1\n      0x0100\n      exp\n      swap1\n      div\n      0xffffffffffffffffffffffffffffffffffffffff\n      and\n        /* \"contract/HeirAccount.sol\":7337:7351  ERC20.transfer */\n      0xffffffffffffffffffffffffffffffffffffffff\n      and\n      0xa9059cbb\n        /* \"contract/HeirAccount.sol\":7352:7362  _recipient */\n      dup8\n        /* \"contract/HeirAccount.sol\":7364:7380  _amount.sub(fee) */\n      tag_184\n        /* \"contract/HeirAccount.sol\":7376:7379  fee */\n      sload(0x05)\n        /* \"contract/HeirAccount.sol\":7364:7371  _amount */\n      dup10\n        /* \"contract/HeirAccount.sol\":7364:7375  _amount.sub */\n      tag_167\n      swap1\n        /* \"contract/HeirAccount.sol\":7364:7380  _amount.sub(fee) */\n      swap2\n      swap1\n      0xffffffff\n      and\n      jump\t// in\n    tag_184:\n        /* \"contract/HeirAccount.sol\":7337:7381  ERC20.transfer(_recipient, _amount.sub(fee)) */\n      mload(0x40)\n      dup4\n      0xffffffff\n      and\n      0xe0\n      shl\n      dup2\n      mstore\n      0x04\n      add\n      tag_185\n      swap3\n      swap2\n      swap1\n      tag_186\n      jump\t// in\n    tag_185:\n      0x20\n      mload(0x40)\n      dup1\n      dup4\n      sub\n      dup2\n      0x00\n      dup8\n      gas\n      call\n      iszero\n      dup1\n      iszero\n      tag_188\n      jumpi\n      returndatasize\n      0x00\n      dup1\n      returndatacopy\n      revert(0x00, returndatasize)\n    tag_188:\n      pop\n      pop\n      pop\n      pop\n      mload(0x40)\n      returndatasize\n      not(0x1f)\n      0x1f\n      dup3\n      add\n      and\n      dup3\n      add\n      dup1\n      0x40\n      mstore\n      pop\n      dup2\n      add\n      swap1\n      tag_189\n      swap2\n      swap1\n      tag_190\n      jump\t// in\n    tag_189:\n      pop\n        /* \"contract/HeirAccount.sol\":7395:7400  ERC20 */\n      0x07\n      0x00\n      swap1\n      sload\n      swap1\n      0x0100\n      exp\n      swap1\n      div\n      0xffffffffffffffffffffffffffffffffffffffff\n      and\n        /* \"contract/HeirAccount.sol\":7395:7409  ERC20.transfer */\n      0xffffffffffffffffffffffffffffffffffffffff\n      and\n      0xa9059cbb\n        /* \"contract/HeirAccount.sol\":7410:7421  _feeAddress */\n      dup4\n        /* \"contract/HeirAccount.sol\":7423:7426  fee */\n      sload(0x05)\n        /* \"contract/HeirAccount.sol\":7395:7427  ERC20.transfer(_feeAddress, fee) */\n      mload(0x40)\n      dup4\n      0xffffffff\n      and\n      0xe0\n      shl\n      dup2\n      mstore\n      0x04\n      add\n      tag_191\n      swap3\n      swap2\n      swap1\n      tag_186\n      jump\t// in\n    tag_191:\n      0x20\n      mload(0x40)\n      dup1\n      dup4\n      sub\n      dup2\n      0x00\n      dup8\n      gas\n      call\n      iszero\n      dup1\n      iszero\n      tag_193\n      jumpi\n      returndatasize\n      0x00\n      dup1\n      returndatacopy\n      revert(0x00, returndatasize)\n    tag_193:\n      pop\n      pop\n      pop\n      pop\n      mload(0x40)\n      returndatasize\n      not(0x1f)\n      0x1f\n      dup3\n      add\n      and\n      dup3\n      add\n      dup1\n      0x40\n      mstore\n      pop\n      dup2\n      add\n      swap1\n      tag_194\n      swap2\n      swap1\n      tag_190\n      jump\t// in\n    tag_194:\n      pop\n        /* \"contract/HeirAccount.sol\":7449:7454  false */\n      0x00\n        /* \"contract/HeirAccount.sol\":7441:7446  mutex */\n      0x07\n      0x14\n        /* \"contract/HeirAccount.sol\":7441:7454  mutex = false */\n      0x0100\n      exp\n      dup2\n      sload\n      dup2\n      0xff\n      mul\n      not\n      and\n      swap1\n      dup4\n      iszero\n      iszero\n      mul\n      or\n      swap1\n      sstore\n      pop\n        /* \"contract/HeirAccount.sol\":6668:7465  if (_isCelo) {... */\n    tag_172:\n        /* \"contract/HeirAccount.sol\":6333:7471  function transferFunds(bool _isCelo, address payable _recipient, uint _amount, address _ERC20Address, address _sender, address payable _feeAddress, uint _transferFee) public payable {... */\n      pop\n      pop\n      pop\n      pop\n      pop\n      pop\n      pop\n      jump\t// out\n        /* \"contract/HeirAccount.sol\":1857:1883  bool public frozen = false */\n    tag_39:\n      0x09\n      0x00\n      swap1\n      sload\n      swap1\n      0x0100\n      exp\n      swap1\n      div\n      0xff\n      and\n      dup2\n      jump\t// out\n        /* \"contract/HeirAccount.sol\":7524:7759  function balanceOf(bool _isCelo, address _ERC20Address) public view returns(uint) {... */\n    tag_46:\n        /* \"contract/HeirAccount.sol\":7600:7604  uint */\n      0x00\n        /* \"contract/HeirAccount.sol\":7616:7623  _isCelo */\n      dup3\n        /* \"contract/HeirAccount.sol\":7612:7753  if (_isCelo) {... */\n      iszero\n      tag_196\n      jumpi\n        /* \"contract/HeirAccount.sol\":7642:7663  address(this).balance */\n      selfbalance\n        /* \"contract/HeirAccount.sol\":7635:7663  return address(this).balance */\n      swap1\n      pop\n      jump(tag_195)\n        /* \"contract/HeirAccount.sol\":7612:7753  if (_isCelo) {... */\n    tag_196:\n        /* \"contract/HeirAccount.sol\":7700:7713  _ERC20Address */\n      dup2\n        /* \"contract/HeirAccount.sol\":7693:7724  IERC20(_ERC20Address).balanceOf */\n      0xffffffffffffffffffffffffffffffffffffffff\n      and\n      0x70a08231\n        /* \"contract/HeirAccount.sol\":7733:7737  this */\n      address\n        /* \"contract/HeirAccount.sol\":7693:7739  IERC20(_ERC20Address).balanceOf(address(this)) */\n      mload(0x40)\n      dup3\n      0xffffffff\n      and\n      0xe0\n      shl\n      dup2\n      mstore\n      0x04\n      add\n      tag_198\n      swap2\n      swap1\n      tag_66\n      jump\t// in\n    tag_198:\n      0x20\n      mload(0x40)\n      dup1\n      dup4\n      sub\n      dup2\n      dup7\n      gas\n      staticcall\n      iszero\n      dup1\n      iszero\n      tag_200\n      jumpi\n      returndatasize\n      0x00\n      dup1\n      returndatacopy\n      revert(0x00, returndatasize)\n    tag_200:\n      pop\n      pop\n      pop\n      pop\n      mload(0x40)\n      returndatasize\n      not(0x1f)\n      0x1f\n      dup3\n      add\n      and\n      dup3\n      add\n      dup1\n      0x40\n      mstore\n      pop\n      dup2\n      add\n      swap1\n      tag_201\n      swap2\n      swap1\n      tag_177\n      jump\t// in\n    tag_201:\n        /* \"contract/HeirAccount.sol\":7686:7739  return IERC20(_ERC20Address).balanceOf(address(this)) */\n      swap1\n      pop\n        /* \"contract/HeirAccount.sol\":7524:7759  function balanceOf(bool _isCelo, address _ERC20Address) public view returns(uint) {... */\n    tag_195:\n      swap3\n      swap2\n      pop\n      pop\n      jump\t// out\n        /* \"contract/HeirAccount.sol\":1443:1465  uint public claimDelay */\n    tag_51:\n      sload(0x04)\n      dup2\n      jump\t// out\n        /* \"contract/HeirAccount.sol\":2903:3266  function claim(address _sender) public  {... */\n    tag_57:\n        /* \"contract/HeirAccount.sol\":2969:2976  _sender */\n      dup1\n        /* \"contract/HeirAccount.sol\":2961:2976  heir == _sender */\n      0xffffffffffffffffffffffffffffffffffffffff\n      and\n        /* \"contract/HeirAccount.sol\":2961:2965  heir */\n      0x02\n      0x00\n      swap1\n      sload\n      swap1\n      0x0100\n      exp\n      swap1\n      div\n      0xffffffffffffffffffffffffffffffffffffffff\n      and\n        /* \"contract/HeirAccount.sol\":2961:2976  heir == _sender */\n      0xffffffffffffffffffffffffffffffffffffffff\n      and\n      eq\n        /* \"contract/HeirAccount.sol\":2953:3017  require(heir == _sender, \"Only the heir can claim the account.\") */\n      tag_203\n      jumpi\n      mload(0x40)\n      0x08c379a000000000000000000000000000000000000000000000000000000000\n      dup2\n      mstore\n      0x04\n      add\n      tag_204\n      swap1\n      tag_205\n      jump\t// in\n    tag_204:\n      mload(0x40)\n      dup1\n      swap2\n      sub\n      swap1\n      revert\n    tag_203:\n        /* \"contract/HeirAccount.sol\":3035:3050  claimInProgress */\n      0x02\n      0x14\n      swap1\n      sload\n      swap1\n      0x0100\n      exp\n      swap1\n      div\n      0xff\n      and\n        /* \"contract/HeirAccount.sol\":3027:3092  require(claimInProgress, \"Claim process has not been initiated.\") */\n      tag_206\n      jumpi\n      mload(0x40)\n      0x08c379a000000000000000000000000000000000000000000000000000000000\n      dup2\n      mstore\n      0x04\n      add\n      tag_207\n      swap1\n      tag_208\n      jump\t// in\n    tag_207:\n      mload(0x40)\n      dup1\n      swap2\n      sub\n      swap1\n      revert\n    tag_206:\n        /* \"contract/HeirAccount.sol\":3161:3167  1 days */\n      0x015180\n        /* \"contract/HeirAccount.sol\":3148:3158  claimDelay */\n      sload(0x04)\n        /* \"contract/HeirAccount.sol\":3148:3167  claimDelay * 1 days */\n      tag_209\n      swap2\n      swap1\n      tag_210\n      jump\t// in\n    tag_209:\n        /* \"contract/HeirAccount.sol\":3129:3145  claimInitiatedAt */\n      sload(0x03)\n        /* \"contract/HeirAccount.sol\":3129:3167  claimInitiatedAt + claimDelay * 1 days */\n      tag_211\n      swap2\n      swap1\n      tag_212\n      jump\t// in\n    tag_211:\n        /* \"contract/HeirAccount.sol\":3110:3125  block.timestamp */\n      timestamp\n        /* \"contract/HeirAccount.sol\":3110:3167  block.timestamp >= claimInitiatedAt + claimDelay * 1 days */\n      lt\n      iszero\n        /* \"contract/HeirAccount.sol\":3102:3200  require(block.timestamp >= claimInitiatedAt + claimDelay * 1 days, \"Claim delay has not expired.\") */\n      tag_213\n      jumpi\n      mload(0x40)\n      0x08c379a000000000000000000000000000000000000000000000000000000000\n      dup2\n      mstore\n      0x04\n      add\n      tag_214\n      swap1\n      tag_215\n      jump\t// in\n    tag_214:\n      mload(0x40)\n      dup1\n      swap2\n      sub\n      swap1\n      revert\n    tag_213:\n        /* \"contract/HeirAccount.sol\":3218:3222  heir */\n      0x02\n      0x00\n      swap1\n      sload\n      swap1\n      0x0100\n      exp\n      swap1\n      div\n      0xffffffffffffffffffffffffffffffffffffffff\n      and\n        /* \"contract/HeirAccount.sol\":3210:3215  owner */\n      0x01\n      0x00\n        /* \"contract/HeirAccount.sol\":3210:3222  owner = heir */\n      0x0100\n      exp\n      dup2\n      sload\n      dup2\n      0xffffffffffffffffffffffffffffffffffffffff\n      mul\n      not\n      and\n      swap1\n      dup4\n      0xffffffffffffffffffffffffffffffffffffffff\n      and\n      mul\n      or\n      swap1\n      sstore\n      pop\n        /* \"contract/HeirAccount.sol\":3250:3255  false */\n      0x00\n        /* \"contract/HeirAccount.sol\":3232:3247  claimInProgress */\n      0x02\n      0x14\n        /* \"contract/HeirAccount.sol\":3232:3255  claimInProgress = false */\n      0x0100\n      exp\n      dup2\n      sload\n      dup2\n      0xff\n      mul\n      not\n      and\n      swap1\n      dup4\n      iszero\n      iszero\n      mul\n      or\n      swap1\n      sstore\n      pop\n        /* \"contract/HeirAccount.sol\":2903:3266  function claim(address _sender) public  {... */\n      pop\n      jump\t// out\n        /* \"contract/HeirAccount.sol\":4059:4317  function approve(uint _amount,  address _ERC20Address, address payable _contract) public payable {... */\n    tag_61:\n        /* \"contract/HeirAccount.sol\":4184:4185  0 */\n      0x00\n        /* \"contract/HeirAccount.sol\":4174:4181  _amount */\n      dup4\n        /* \"contract/HeirAccount.sol\":4174:4185  _amount > 0 */\n      gt\n        /* \"contract/HeirAccount.sol\":4166:4215  require(_amount > 0, \"Cannot deposit 0 or less.\") */\n      tag_217\n      jumpi\n      mload(0x40)\n      0x08c379a000000000000000000000000000000000000000000000000000000000\n      dup2\n      mstore\n      0x04\n      add\n      tag_218\n      swap1\n      tag_219\n      jump\t// in\n    tag_218:\n      mload(0x40)\n      dup1\n      swap2\n      sub\n      swap1\n      revert\n    tag_217:\n        /* \"contract/HeirAccount.sol\":4225:4238  IERC20 token_ */\n      0x00\n        /* \"contract/HeirAccount.sol\":4248:4261  _ERC20Address */\n      dup3\n        /* \"contract/HeirAccount.sol\":4225:4262  IERC20 token_ = IERC20(_ERC20Address) */\n      swap1\n      pop\n        /* \"contract/HeirAccount.sol\":4272:4278  token_ */\n      dup1\n        /* \"contract/HeirAccount.sol\":4272:4286  token_.approve */\n      0xffffffffffffffffffffffffffffffffffffffff\n      and\n      0x095ea7b3\n        /* \"contract/HeirAccount.sol\":4287:4296  _contract */\n      dup4\n        /* \"contract/HeirAccount.sol\":4298:4305  _amount */\n      dup7\n        /* \"contract/HeirAccount.sol\":4272:4306  token_.approve(_contract, _amount) */\n      mload(0x40)\n      dup4\n      0xffffffff\n      and\n      0xe0\n      shl\n      dup2\n      mstore\n      0x04\n      add\n      tag_220\n      swap3\n      swap2\n      swap1\n      tag_186\n      jump\t// in\n    tag_220:\n      0x20\n      mload(0x40)\n      dup1\n      dup4\n      sub\n      dup2\n      0x00\n      dup8\n      gas\n      call\n      iszero\n      dup1\n      iszero\n      tag_222\n      jumpi\n      returndatasize\n      0x00\n      dup1\n      returndatacopy\n      revert(0x00, returndatasize)\n    tag_222:\n      pop\n      pop\n      pop\n      pop\n      mload(0x40)\n      returndatasize\n      not(0x1f)\n      0x1f\n      dup3\n      add\n      and\n      dup3\n      add\n      dup1\n      0x40\n      mstore\n      pop\n      dup2\n      add\n      swap1\n      tag_223\n      swap2\n      swap1\n      tag_190\n      jump\t// in\n    tag_223:\n      pop\n        /* \"contract/HeirAccount.sol\":4156:4317  {... */\n      pop\n        /* \"contract/HeirAccount.sol\":4059:4317  function approve(uint _amount,  address _ERC20Address, address payable _contract) public payable {... */\n      pop\n      pop\n      pop\n      jump\t// out\n        /* \"contract/HeirAccount.sol\":8098:8184  function returnDeployer() public view returns(address){... */\n    tag_64:\n        /* \"contract/HeirAccount.sol\":8144:8151  address */\n      0x00\n        /* \"contract/HeirAccount.sol\":8169:8177  deployer */\n      dup1\n      0x00\n      swap1\n      sload\n      swap1\n      0x0100\n      exp\n      swap1\n      div\n      0xffffffffffffffffffffffffffffffffffffffff\n      and\n        /* \"contract/HeirAccount.sol\":8162:8177  return deployer */\n      swap1\n      pop\n        /* \"contract/HeirAccount.sol\":8098:8184  function returnDeployer() public view returns(address){... */\n      swap1\n      jump\t// out\n        /* \"contract/HeirAccount.sol\":3831:4015  function unfreeze(address _sender) public {... */\n    tag_70:\n        /* \"contract/HeirAccount.sol\":3902:3907  owner */\n      0x01\n      0x00\n      swap1\n      sload\n      swap1\n      0x0100\n      exp\n      swap1\n      div\n      0xffffffffffffffffffffffffffffffffffffffff\n      and\n        /* \"contract/HeirAccount.sol\":3891:3907  _sender == owner */\n      0xffffffffffffffffffffffffffffffffffffffff\n      and\n        /* \"contract/HeirAccount.sol\":3891:3898  _sender */\n      dup2\n        /* \"contract/HeirAccount.sol\":3891:3907  _sender == owner */\n      0xffffffffffffffffffffffffffffffffffffffff\n      and\n      eq\n        /* \"contract/HeirAccount.sol\":3883:3952  require(_sender == owner, \"Only the owner can unfreeze the account.\") */\n      tag_226\n      jumpi\n      mload(0x40)\n      0x08c379a000000000000000000000000000000000000000000000000000000000\n      dup2\n      mstore\n      0x04\n      add\n      tag_227\n      swap1\n      tag_228\n      jump\t// in\n    tag_227:\n      mload(0x40)\n      dup1\n      swap2\n      sub\n      swap1\n      revert\n    tag_226:\n        /* \"contract/HeirAccount.sol\":3971:3976  false */\n      0x00\n        /* \"contract/HeirAccount.sol\":3962:3968  frozen */\n      0x09\n      0x00\n        /* \"contract/HeirAccount.sol\":3962:3976  frozen = false */\n      0x0100\n      exp\n      dup2\n      sload\n      dup2\n      0xff\n      mul\n      not\n      and\n      swap1\n      dup4\n      iszero\n      iszero\n      mul\n      or\n      swap1\n      sstore\n      pop\n        /* \"contract/HeirAccount.sol\":3991:4008  Unfreeze(_sender) */\n      0xca5069937e68fd197927055037f59d7c90bf75ac104e6e375539ef480c3ad6ee\n        /* \"contract/HeirAccount.sol\":4000:4007  _sender */\n      dup2\n        /* \"contract/HeirAccount.sol\":3991:4008  Unfreeze(_sender) */\n      mload(0x40)\n      tag_229\n      swap2\n      swap1\n      tag_66\n      jump\t// in\n    tag_229:\n      mload(0x40)\n      dup1\n      swap2\n      sub\n      swap1\n      log1\n        /* \"contract/HeirAccount.sol\":3831:4015  function unfreeze(address _sender) public {... */\n      pop\n      jump\t// out\n        /* \"contract/HeirAccount.sol\":7956:8034  function returnHeir() public view returns(address){... */\n    tag_73:\n        /* \"contract/HeirAccount.sol\":7998:8005  address */\n      0x00\n        /* \"contract/HeirAccount.sol\":8023:8027  heir */\n      0x02\n      0x00\n      swap1\n      sload\n      swap1\n      0x0100\n      exp\n      swap1\n      div\n      0xffffffffffffffffffffffffffffffffffffffff\n      and\n        /* \"contract/HeirAccount.sol\":8016:8027  return heir */\n      swap1\n      pop\n        /* \"contract/HeirAccount.sol\":7956:8034  function returnHeir() public view returns(address){... */\n      swap1\n      jump\t// out\n        /* \"contract/HeirAccount.sol\":2168:2496  function setHeir(address payable _heir, uint _claimDelay, address _sender) public {... */\n    tag_79:\n        /* \"contract/HeirAccount.sol\":2277:2284  _sender */\n      dup1\n        /* \"contract/HeirAccount.sol\":2268:2284  owner == _sender */\n      0xffffffffffffffffffffffffffffffffffffffff\n      and\n        /* \"contract/HeirAccount.sol\":2268:2273  owner */\n      0x01\n      0x00\n      swap1\n      sload\n      swap1\n      0x0100\n      exp\n      swap1\n      div\n      0xffffffffffffffffffffffffffffffffffffffff\n      and\n        /* \"contract/HeirAccount.sol\":2268:2284  owner == _sender */\n      0xffffffffffffffffffffffffffffffffffffffff\n      and\n      eq\n        /* \"contract/HeirAccount.sol\":2260:2321  require(owner == _sender, \"Only the owner can set the heir.\") */\n      tag_232\n      jumpi\n      mload(0x40)\n      0x08c379a000000000000000000000000000000000000000000000000000000000\n      dup2\n      mstore\n      0x04\n      add\n      tag_233\n      swap1\n      tag_234\n      jump\t// in\n    tag_233:\n      mload(0x40)\n      dup1\n      swap2\n      sub\n      swap1\n      revert\n    tag_232:\n        /* \"contract/HeirAccount.sol\":2340:2345  mutex */\n      0x07\n      0x14\n      swap1\n      sload\n      swap1\n      0x0100\n      exp\n      swap1\n      div\n      0xff\n      and\n        /* \"contract/HeirAccount.sol\":2339:2345  !mutex */\n      iszero\n        /* \"contract/HeirAccount.sol\":2331:2387  require(!mutex, \"The function is already in execution.\") */\n      tag_235\n      jumpi\n      mload(0x40)\n      0x08c379a000000000000000000000000000000000000000000000000000000000\n      dup2\n      mstore\n      0x04\n      add\n      tag_236\n      swap1\n      tag_161\n      jump\t// in\n    tag_236:\n      mload(0x40)\n      dup1\n      swap2\n      sub\n      swap1\n      revert\n    tag_235:\n        /* \"contract/HeirAccount.sol\":2405:2409  true */\n      0x01\n        /* \"contract/HeirAccount.sol\":2397:2402  mutex */\n      0x07\n      0x14\n        /* \"contract/HeirAccount.sol\":2397:2409  mutex = true */\n      0x0100\n      exp\n      dup2\n      sload\n      dup2\n      0xff\n      mul\n      not\n      and\n      swap1\n      dup4\n      iszero\n      iszero\n      mul\n      or\n      swap1\n      sstore\n      pop\n        /* \"contract/HeirAccount.sol\":2427:2432  _heir */\n      dup3\n        /* \"contract/HeirAccount.sol\":2420:2424  heir */\n      0x02\n      0x00\n        /* \"contract/HeirAccount.sol\":2420:2432  heir = _heir */\n      0x0100\n      exp\n      dup2\n      sload\n      dup2\n      0xffffffffffffffffffffffffffffffffffffffff\n      mul\n      not\n      and\n      swap1\n      dup4\n      0xffffffffffffffffffffffffffffffffffffffff\n      and\n      mul\n      or\n      swap1\n      sstore\n      pop\n        /* \"contract/HeirAccount.sol\":2455:2466  _claimDelay */\n      dup2\n        /* \"contract/HeirAccount.sol\":2442:2452  claimDelay */\n      0x04\n        /* \"contract/HeirAccount.sol\":2442:2466  claimDelay = _claimDelay */\n      dup2\n      swap1\n      sstore\n      pop\n        /* \"contract/HeirAccount.sol\":2484:2489  false */\n      0x00\n        /* \"contract/HeirAccount.sol\":2476:2481  mutex */\n      0x07\n      0x14\n        /* \"contract/HeirAccount.sol\":2476:2489  mutex = false */\n      0x0100\n      exp\n      dup2\n      sload\n      dup2\n      0xff\n      mul\n      not\n      and\n      swap1\n      dup4\n      iszero\n      iszero\n      mul\n      or\n      swap1\n      sstore\n      pop\n        /* \"contract/HeirAccount.sol\":2168:2496  function setHeir(address payable _heir, uint _claimDelay, address _sender) public {... */\n      pop\n      pop\n      pop\n      jump\t// out\n        /* \"contract/HeirAccount.sol\":1555:1588  address payable public ERC20Token */\n    tag_82:\n      0x06\n      0x00\n      swap1\n      sload\n      swap1\n      0x0100\n      exp\n      swap1\n      div\n      0xffffffffffffffffffffffffffffffffffffffff\n      and\n      dup2\n      jump\t// out\n        /* \"contract/HeirAccount.sol\":5051:6289  function withdraw(bool _isCelo, uint _amount, address _ERC20Address, address _sender, address payable _feeAddress, uint _transferFee) public payable {... */\n    tag_88:\n        /* \"contract/HeirAccount.sol\":5229:5234  owner */\n      0x01\n      0x00\n      swap1\n      sload\n      swap1\n      0x0100\n      exp\n      swap1\n      div\n      0xffffffffffffffffffffffffffffffffffffffff\n      and\n        /* \"contract/HeirAccount.sol\":5218:5234  _sender == owner */\n      0xffffffffffffffffffffffffffffffffffffffff\n      and\n        /* \"contract/HeirAccount.sol\":5218:5225  _sender */\n      dup4\n        /* \"contract/HeirAccount.sol\":5218:5234  _sender == owner */\n      0xffffffffffffffffffffffffffffffffffffffff\n      and\n      eq\n        /* \"contract/HeirAccount.sol\":5210:5273  require(_sender == owner, \"Only the owner can withdraw funds.\") */\n      tag_238\n      jumpi\n      mload(0x40)\n      0x08c379a000000000000000000000000000000000000000000000000000000000\n      dup2\n      mstore\n      0x04\n      add\n      tag_239\n      swap1\n      tag_240\n      jump\t// in\n    tag_239:\n      mload(0x40)\n      dup1\n      swap2\n      sub\n      swap1\n      revert\n    tag_238:\n        /* \"contract/HeirAccount.sol\":5292:5298  frozen */\n      0x09\n      0x00\n      swap1\n      sload\n      swap1\n      0x0100\n      exp\n      swap1\n      div\n      0xff\n      and\n        /* \"contract/HeirAccount.sol\":5291:5298  !frozen */\n      iszero\n        /* \"contract/HeirAccount.sol\":5283:5344  require(!frozen, \"Account is frozen, cannot withdraw funds.\") */\n      tag_241\n      jumpi\n      mload(0x40)\n      0x08c379a000000000000000000000000000000000000000000000000000000000\n      dup2\n      mstore\n      0x04\n      add\n      tag_242\n      swap1\n      tag_154\n      jump\t// in\n    tag_242:\n      mload(0x40)\n      dup1\n      swap2\n      sub\n      swap1\n      revert\n    tag_241:\n        /* \"contract/HeirAccount.sol\":5358:5365  _isCelo */\n      dup6\n        /* \"contract/HeirAccount.sol\":5354:6283  if (_isCelo) {... */\n      iszero\n      tag_243\n      jumpi\n        /* \"contract/HeirAccount.sol\":5413:5414  0 */\n      0x00\n        /* \"contract/HeirAccount.sol\":5389:5410  address(this).balance */\n      selfbalance\n        /* \"contract/HeirAccount.sol\":5389:5414  address(this).balance > 0 */\n      gt\n        /* \"contract/HeirAccount.sol\":5381:5450  require(address(this).balance > 0, \"There are no funds to withdraw.\") */\n      tag_244\n      jumpi\n      mload(0x40)\n      0x08c379a000000000000000000000000000000000000000000000000000000000\n      dup2\n      mstore\n      0x04\n      add\n      tag_245\n      swap1\n      tag_246\n      jump\t// in\n    tag_245:\n      mload(0x40)\n      dup1\n      swap2\n      sub\n      swap1\n      revert\n    tag_244:\n        /* \"contract/HeirAccount.sol\":5483:5504  address(this).balance */\n      selfbalance\n        /* \"contract/HeirAccount.sol\":5472:5479  _amount */\n      dup6\n        /* \"contract/HeirAccount.sol\":5472:5504  _amount <= address(this).balance */\n      gt\n      iszero\n        /* \"contract/HeirAccount.sol\":5464:5528  require(_amount <= address(this).balance, \"Insufficient funds.\") */\n      tag_247\n      jumpi\n      mload(0x40)\n      0x08c379a000000000000000000000000000000000000000000000000000000000\n      dup2\n      mstore\n      0x04\n      add\n      tag_248\n      swap1\n      tag_158\n      jump\t// in\n    tag_248:\n      mload(0x40)\n      dup1\n      swap2\n      sub\n      swap1\n      revert\n    tag_247:\n        /* \"contract/HeirAccount.sol\":5551:5556  mutex */\n      0x07\n      0x14\n      swap1\n      sload\n      swap1\n      0x0100\n      exp\n      swap1\n      div\n      0xff\n      and\n        /* \"contract/HeirAccount.sol\":5550:5556  !mutex */\n      iszero\n        /* \"contract/HeirAccount.sol\":5542:5598  require(!mutex, \"The function is already in execution.\") */\n      tag_249\n      jumpi\n      mload(0x40)\n      0x08c379a000000000000000000000000000000000000000000000000000000000\n      dup2\n      mstore\n      0x04\n      add\n      tag_250\n      swap1\n      tag_161\n      jump\t// in\n    tag_250:\n      mload(0x40)\n      dup1\n      swap2\n      sub\n      swap1\n      revert\n    tag_249:\n        /* \"contract/HeirAccount.sol\":5620:5624  true */\n      0x01\n        /* \"contract/HeirAccount.sol\":5612:5617  mutex */\n      0x07\n      0x14\n        /* \"contract/HeirAccount.sol\":5612:5624  mutex = true */\n      0x0100\n      exp\n      dup2\n      sload\n      dup2\n      0xff\n      mul\n      not\n      and\n      swap1\n      dup4\n      iszero\n      iszero\n      mul\n      or\n      swap1\n      sstore\n      pop\n        /* \"contract/HeirAccount.sol\":5644:5678  _amount.mul(_transferFee).div(100) */\n      tag_251\n        /* \"contract/HeirAccount.sol\":5674:5677  100 */\n      0x64\n        /* \"contract/HeirAccount.sol\":5644:5669  _amount.mul(_transferFee) */\n      tag_252\n        /* \"contract/HeirAccount.sol\":5656:5668  _transferFee */\n      dup4\n        /* \"contract/HeirAccount.sol\":5644:5651  _amount */\n      dup9\n        /* \"contract/HeirAccount.sol\":5644:5655  _amount.mul */\n      tag_164\n      swap1\n        /* \"contract/HeirAccount.sol\":5644:5669  _amount.mul(_transferFee) */\n      swap2\n      swap1\n      0xffffffff\n      and\n      jump\t// in\n    tag_252:\n        /* \"contract/HeirAccount.sol\":5644:5673  _amount.mul(_transferFee).div */\n      tag_165\n      swap1\n        /* \"contract/HeirAccount.sol\":5644:5678  _amount.mul(_transferFee).div(100) */\n      swap2\n      swap1\n      0xffffffff\n      and\n      jump\t// in\n    tag_251:\n        /* \"contract/HeirAccount.sol\":5638:5641  fee */\n      0x05\n        /* \"contract/HeirAccount.sol\":5638:5678  fee = _amount.mul(_transferFee).div(100) */\n      dup2\n      swap1\n      sstore\n      pop\n        /* \"contract/HeirAccount.sol\":5692:5697  owner */\n      0x01\n      0x00\n      swap1\n      sload\n      swap1\n      0x0100\n      exp\n      swap1\n      div\n      0xffffffffffffffffffffffffffffffffffffffff\n      and\n        /* \"contract/HeirAccount.sol\":5692:5706  owner.transfer */\n      0xffffffffffffffffffffffffffffffffffffffff\n      and\n        /* \"contract/HeirAccount.sol\":5692:5724  owner.transfer(_amount.sub(fee)) */\n      0x08fc\n        /* \"contract/HeirAccount.sol\":5707:5723  _amount.sub(fee) */\n      tag_253\n        /* \"contract/HeirAccount.sol\":5719:5722  fee */\n      sload(0x05)\n        /* \"contract/HeirAccount.sol\":5707:5714  _amount */\n      dup9\n        /* \"contract/HeirAccount.sol\":5707:5718  _amount.sub */\n      tag_167\n      swap1\n        /* \"contract/HeirAccount.sol\":5707:5723  _amount.sub(fee) */\n      swap2\n      swap1\n      0xffffffff\n      and\n      jump\t// in\n    tag_253:\n        /* \"contract/HeirAccount.sol\":5692:5724  owner.transfer(_amount.sub(fee)) */\n      swap1\n      dup2\n      iszero\n      mul\n      swap1\n      mload(0x40)\n      0x00\n      mload(0x40)\n      dup1\n      dup4\n      sub\n      dup2\n      dup6\n      dup9\n      dup9\n      call\n      swap4\n      pop\n      pop\n      pop\n      pop\n      iszero\n      dup1\n      iszero\n      tag_255\n      jumpi\n      returndatasize\n      0x00\n      dup1\n      returndatacopy\n      revert(0x00, returndatasize)\n    tag_255:\n      pop\n        /* \"contract/HeirAccount.sol\":5738:5749  _feeAddress */\n      dup2\n        /* \"contract/HeirAccount.sol\":5738:5758  _feeAddress.transfer */\n      0xffffffffffffffffffffffffffffffffffffffff\n      and\n        /* \"contract/HeirAccount.sol\":5738:5763  _feeAddress.transfer(fee) */\n      0x08fc\n        /* \"contract/HeirAccount.sol\":5759:5762  fee */\n      sload(0x05)\n        /* \"contract/HeirAccount.sol\":5738:5763  _feeAddress.transfer(fee) */\n      swap1\n      dup2\n      iszero\n      mul\n      swap1\n      mload(0x40)\n      0x00\n      mload(0x40)\n      dup1\n      dup4\n      sub\n      dup2\n      dup6\n      dup9\n      dup9\n      call\n      swap4\n      pop\n      pop\n      pop\n      pop\n      iszero\n      dup1\n      iszero\n      tag_257\n      jumpi\n      returndatasize\n      0x00\n      dup1\n      returndatacopy\n      revert(0x00, returndatasize)\n    tag_257:\n      pop\n        /* \"contract/HeirAccount.sol\":5785:5790  false */\n      0x00\n        /* \"contract/HeirAccount.sol\":5777:5782  mutex */\n      0x07\n      0x14\n        /* \"contract/HeirAccount.sol\":5777:5790  mutex = false */\n      0x0100\n      exp\n      dup2\n      sload\n      dup2\n      0xff\n      mul\n      not\n      and\n      swap1\n      dup4\n      iszero\n      iszero\n      mul\n      or\n      swap1\n      sstore\n      pop\n        /* \"contract/HeirAccount.sol\":5354:6283  if (_isCelo) {... */\n      jump(tag_258)\n    tag_243:\n        /* \"contract/HeirAccount.sol\":5834:5847  _ERC20Address */\n      dup4\n        /* \"contract/HeirAccount.sol\":5819:5824  ERC20 */\n      0x07\n      0x00\n        /* \"contract/HeirAccount.sol\":5819:5848  ERC20 = IERC20(_ERC20Address) */\n      0x0100\n      exp\n      dup2\n      sload\n      dup2\n      0xffffffffffffffffffffffffffffffffffffffff\n      mul\n      not\n      and\n      swap1\n      dup4\n      0xffffffffffffffffffffffffffffffffffffffff\n      and\n      mul\n      or\n      swap1\n      sstore\n      pop\n        /* \"contract/HeirAccount.sol\":5899:5900  0 */\n      0x00\n        /* \"contract/HeirAccount.sol\":5866:5871  ERC20 */\n      0x07\n      0x00\n      swap1\n      sload\n      swap1\n      0x0100\n      exp\n      swap1\n      div\n      0xffffffffffffffffffffffffffffffffffffffff\n      and\n        /* \"contract/HeirAccount.sol\":5866:5881  ERC20.balanceOf */\n      0xffffffffffffffffffffffffffffffffffffffff\n      and\n      0x70a08231\n        /* \"contract/HeirAccount.sol\":5890:5894  this */\n      address\n        /* \"contract/HeirAccount.sol\":5866:5896  ERC20.balanceOf(address(this)) */\n      mload(0x40)\n      dup3\n      0xffffffff\n      and\n      0xe0\n      shl\n      dup2\n      mstore\n      0x04\n      add\n      tag_259\n      swap2\n      swap1\n      tag_66\n      jump\t// in\n    tag_259:\n      0x20\n      mload(0x40)\n      dup1\n      dup4\n      sub\n      dup2\n      dup7\n      gas\n      staticcall\n      iszero\n      dup1\n      iszero\n      tag_261\n      jumpi\n      returndatasize\n      0x00\n      dup1\n      returndatacopy\n      revert(0x00, returndatasize)\n    tag_261:\n      pop\n      pop\n      pop\n      pop\n      mload(0x40)\n      returndatasize\n      not(0x1f)\n      0x1f\n      dup3\n      add\n      and\n      dup3\n      add\n      dup1\n      0x40\n      mstore\n      pop\n      dup2\n      add\n      swap1\n      tag_262\n      swap2\n      swap1\n      tag_177\n      jump\t// in\n    tag_262:\n        /* \"contract/HeirAccount.sol\":5866:5900  ERC20.balanceOf(address(this)) > 0 */\n      gt\n        /* \"contract/HeirAccount.sol\":5858:5936  require(ERC20.balanceOf(address(this)) > 0, \"There are no funds to withdraw.\") */\n      tag_263\n      jumpi\n      mload(0x40)\n      0x08c379a000000000000000000000000000000000000000000000000000000000\n      dup2\n      mstore\n      0x04\n      add\n      tag_264\n      swap1\n      tag_246\n      jump\t// in\n    tag_264:\n      mload(0x40)\n      dup1\n      swap2\n      sub\n      swap1\n      revert\n    tag_263:\n        /* \"contract/HeirAccount.sol\":5965:5970  ERC20 */\n      0x07\n      0x00\n      swap1\n      sload\n      swap1\n      0x0100\n      exp\n      swap1\n      div\n      0xffffffffffffffffffffffffffffffffffffffff\n      and\n        /* \"contract/HeirAccount.sol\":5965:5980  ERC20.balanceOf */\n      0xffffffffffffffffffffffffffffffffffffffff\n      and\n      0x70a08231\n        /* \"contract/HeirAccount.sol\":5989:5993  this */\n      address\n        /* \"contract/HeirAccount.sol\":5965:5995  ERC20.balanceOf(address(this)) */\n      mload(0x40)\n      dup3\n      0xffffffff\n      and\n      0xe0\n      shl\n      dup2\n      mstore\n      0x04\n      add\n      tag_265\n      swap2\n      swap1\n      tag_66\n      jump\t// in\n    tag_265:\n      0x20\n      mload(0x40)\n      dup1\n      dup4\n      sub\n      dup2\n      dup7\n      gas\n      staticcall\n      iszero\n      dup1\n      iszero\n      tag_267\n      jumpi\n      returndatasize\n      0x00\n      dup1\n      returndatacopy\n      revert(0x00, returndatasize)\n    tag_267:\n      pop\n      pop\n      pop\n      pop\n      mload(0x40)\n      returndatasize\n      not(0x1f)\n      0x1f\n      dup3\n      add\n      and\n      dup3\n      add\n      dup1\n      0x40\n      mstore\n      pop\n      dup2\n      add\n      swap1\n      tag_268\n      swap2\n      swap1\n      tag_177\n      jump\t// in\n    tag_268:\n        /* \"contract/HeirAccount.sol\":5954:5961  _amount */\n      dup6\n        /* \"contract/HeirAccount.sol\":5954:5995  _amount <= ERC20.balanceOf(address(this)) */\n      gt\n      iszero\n        /* \"contract/HeirAccount.sol\":5946:6019  require(_amount <= ERC20.balanceOf(address(this)), \"Insufficient funds.\") */\n      tag_269\n      jumpi\n      mload(0x40)\n      0x08c379a000000000000000000000000000000000000000000000000000000000\n      dup2\n      mstore\n      0x04\n      add\n      tag_270\n      swap1\n      tag_158\n      jump\t// in\n    tag_270:\n      mload(0x40)\n      dup1\n      swap2\n      sub\n      swap1\n      revert\n    tag_269:\n        /* \"contract/HeirAccount.sol\":6038:6043  mutex */\n      0x07\n      0x14\n      swap1\n      sload\n      swap1\n      0x0100\n      exp\n      swap1\n      div\n      0xff\n      and\n        /* \"contract/HeirAccount.sol\":6037:6043  !mutex */\n      iszero\n        /* \"contract/HeirAccount.sol\":6029:6085  require(!mutex, \"The function is already in execution.\") */\n      tag_271\n      jumpi\n      mload(0x40)\n      0x08c379a000000000000000000000000000000000000000000000000000000000\n      dup2\n      mstore\n      0x04\n      add\n      tag_272\n      swap1\n      tag_161\n      jump\t// in\n    tag_272:\n      mload(0x40)\n      dup1\n      swap2\n      sub\n      swap1\n      revert\n    tag_271:\n        /* \"contract/HeirAccount.sol\":6103:6107  true */\n      0x01\n        /* \"contract/HeirAccount.sol\":6095:6100  mutex */\n      0x07\n      0x14\n        /* \"contract/HeirAccount.sol\":6095:6107  mutex = true */\n      0x0100\n      exp\n      dup2\n      sload\n      dup2\n      0xff\n      mul\n      not\n      and\n      swap1\n      dup4\n      iszero\n      iszero\n      mul\n      or\n      swap1\n      sstore\n      pop\n        /* \"contract/HeirAccount.sol\":6123:6157  _amount.mul(_transferFee).div(100) */\n      tag_273\n        /* \"contract/HeirAccount.sol\":6153:6156  100 */\n      0x64\n        /* \"contract/HeirAccount.sol\":6123:6148  _amount.mul(_transferFee) */\n      tag_274\n        /* \"contract/HeirAccount.sol\":6135:6147  _transferFee */\n      dup4\n        /* \"contract/HeirAccount.sol\":6123:6130  _amount */\n      dup9\n        /* \"contract/HeirAccount.sol\":6123:6134  _amount.mul */\n      tag_164\n      swap1\n        /* \"contract/HeirAccount.sol\":6123:6148  _amount.mul(_transferFee) */\n      swap2\n      swap1\n      0xffffffff\n      and\n      jump\t// in\n    tag_274:\n        /* \"contract/HeirAccount.sol\":6123:6152  _amount.mul(_transferFee).div */\n      tag_165\n      swap1\n        /* \"contract/HeirAccount.sol\":6123:6157  _amount.mul(_transferFee).div(100) */\n      swap2\n      swap1\n      0xffffffff\n      and\n      jump\t// in\n    tag_273:\n        /* \"contract/HeirAccount.sol\":6117:6120  fee */\n      0x05\n        /* \"contract/HeirAccount.sol\":6117:6157  fee = _amount.mul(_transferFee).div(100) */\n      dup2\n      swap1\n      sstore\n      pop\n        /* \"contract/HeirAccount.sol\":6167:6172  ERC20 */\n      0x07\n      0x00\n      swap1\n      sload\n      swap1\n      0x0100\n      exp\n      swap1\n      div\n      0xffffffffffffffffffffffffffffffffffffffff\n      and\n        /* \"contract/HeirAccount.sol\":6167:6181  ERC20.transfer */\n      0xffffffffffffffffffffffffffffffffffffffff\n      and\n      0xa9059cbb\n        /* \"contract/HeirAccount.sol\":6182:6187  owner */\n      0x01\n      0x00\n      swap1\n      sload\n      swap1\n      0x0100\n      exp\n      swap1\n      div\n      0xffffffffffffffffffffffffffffffffffffffff\n      and\n        /* \"contract/HeirAccount.sol\":6189:6205  _amount.sub(fee) */\n      tag_275\n        /* \"contract/HeirAccount.sol\":6201:6204  fee */\n      sload(0x05)\n        /* \"contract/HeirAccount.sol\":6189:6196  _amount */\n      dup10\n        /* \"contract/HeirAccount.sol\":6189:6200  _amount.sub */\n      tag_167\n      swap1\n        /* \"contract/HeirAccount.sol\":6189:6205  _amount.sub(fee) */\n      swap2\n      swap1\n      0xffffffff\n      and\n      jump\t// in\n    tag_275:\n        /* \"contract/HeirAccount.sol\":6167:6206  ERC20.transfer(owner, _amount.sub(fee)) */\n      mload(0x40)\n      dup4\n      0xffffffff\n      and\n      0xe0\n      shl\n      dup2\n      mstore\n      0x04\n      add\n      tag_276\n      swap3\n      swap2\n      swap1\n      tag_186\n      jump\t// in\n    tag_276:\n      0x20\n      mload(0x40)\n      dup1\n      dup4\n      sub\n      dup2\n      0x00\n      dup8\n      gas\n      call\n      iszero\n      dup1\n      iszero\n      tag_278\n      jumpi\n      returndatasize\n      0x00\n      dup1\n      returndatacopy\n      revert(0x00, returndatasize)\n    tag_278:\n      pop\n      pop\n      pop\n      pop\n      mload(0x40)\n      returndatasize\n      not(0x1f)\n      0x1f\n      dup3\n      add\n      and\n      dup3\n      add\n      dup1\n      0x40\n      mstore\n      pop\n      dup2\n      add\n      swap1\n      tag_279\n      swap2\n      swap1\n      tag_190\n      jump\t// in\n    tag_279:\n      pop\n        /* \"contract/HeirAccount.sol\":6216:6221  ERC20 */\n      0x07\n      0x00\n      swap1\n      sload\n      swap1\n      0x0100\n      exp\n      swap1\n      div\n      0xffffffffffffffffffffffffffffffffffffffff\n      and\n        /* \"contract/HeirAccount.sol\":6216:6230  ERC20.transfer */\n      0xffffffffffffffffffffffffffffffffffffffff\n      and\n      0xa9059cbb\n        /* \"contract/HeirAccount.sol\":6231:6242  _feeAddress */\n      dup4\n        /* \"contract/HeirAccount.sol\":6244:6247  fee */\n      sload(0x05)\n        /* \"contract/HeirAccount.sol\":6216:6248  ERC20.transfer(_feeAddress, fee) */\n      mload(0x40)\n      dup4\n      0xffffffff\n      and\n      0xe0\n      shl\n      dup2\n      mstore\n      0x04\n      add\n      tag_280\n      swap3\n      swap2\n      swap1\n      tag_186\n      jump\t// in\n    tag_280:\n      0x20\n      mload(0x40)\n      dup1\n      dup4\n      sub\n      dup2\n      0x00\n      dup8\n      gas\n      call\n      iszero\n      dup1\n      iszero\n      tag_282\n      jumpi\n      returndatasize\n      0x00\n      dup1\n      returndatacopy\n      revert(0x00, returndatasize)\n    tag_282:\n      pop\n      pop\n      pop\n      pop\n      mload(0x40)\n      returndatasize\n      not(0x1f)\n      0x1f\n      dup3\n      add\n      and\n      dup3\n      add\n      dup1\n      0x40\n      mstore\n      pop\n      dup2\n      add\n      swap1\n      tag_283\n      swap2\n      swap1\n      tag_190\n      jump\t// in\n    tag_283:\n      pop\n        /* \"contract/HeirAccount.sol\":6266:6271  false */\n      0x00\n        /* \"contract/HeirAccount.sol\":6258:6263  mutex */\n      0x07\n      0x14\n        /* \"contract/HeirAccount.sol\":6258:6271  mutex = false */\n      0x0100\n      exp\n      dup2\n      sload\n      dup2\n      0xff\n      mul\n      not\n      and\n      swap1\n      dup4\n      iszero\n      iszero\n      mul\n      or\n      swap1\n      sstore\n      pop\n        /* \"contract/HeirAccount.sol\":5354:6283  if (_isCelo) {... */\n    tag_258:\n        /* \"contract/HeirAccount.sol\":5051:6289  function withdraw(bool _isCelo, uint _amount, address _ERC20Address, address _sender, address payable _feeAddress, uint _transferFee) public payable {... */\n      pop\n      pop\n      pop\n      pop\n      pop\n      pop\n      jump\t// out\n        /* \"contract/HeirAccount.sol\":3608:3785  function freeze(address _sender) public {... */\n    tag_92:\n        /* \"contract/HeirAccount.sol\":3677:3682  owner */\n      0x01\n      0x00\n      swap1\n      sload\n      swap1\n      0x0100\n      exp\n      swap1\n      div\n      0xffffffffffffffffffffffffffffffffffffffff\n      and\n        /* \"contract/HeirAccount.sol\":3666:3682  _sender == owner */\n      0xffffffffffffffffffffffffffffffffffffffff\n      and\n        /* \"contract/HeirAccount.sol\":3666:3673  _sender */\n      dup2\n        /* \"contract/HeirAccount.sol\":3666:3682  _sender == owner */\n      0xffffffffffffffffffffffffffffffffffffffff\n      and\n      eq\n        /* \"contract/HeirAccount.sol\":3658:3725  require(_sender == owner, \"Only the owner can freeze the account.\") */\n      tag_285\n      jumpi\n      mload(0x40)\n      0x08c379a000000000000000000000000000000000000000000000000000000000\n      dup2\n      mstore\n      0x04\n      add\n      tag_286\n      swap1\n      tag_287\n      jump\t// in\n    tag_286:\n      mload(0x40)\n      dup1\n      swap2\n      sub\n      swap1\n      revert\n    tag_285:\n        /* \"contract/HeirAccount.sol\":3744:3748  true */\n      0x01\n        /* \"contract/HeirAccount.sol\":3735:3741  frozen */\n      0x09\n      0x00\n        /* \"contract/HeirAccount.sol\":3735:3748  frozen = true */\n      0x0100\n      exp\n      dup2\n      sload\n      dup2\n      0xff\n      mul\n      not\n      and\n      swap1\n      dup4\n      iszero\n      iszero\n      mul\n      or\n      swap1\n      sstore\n      pop\n        /* \"contract/HeirAccount.sol\":3763:3778  Freeze(_sender) */\n      0xaf85b60d26151edd11443b704d424da6c43d0468f2235ebae3d1904dbc323049\n        /* \"contract/HeirAccount.sol\":3770:3777  _sender */\n      dup2\n        /* \"contract/HeirAccount.sol\":3763:3778  Freeze(_sender) */\n      mload(0x40)\n      tag_288\n      swap2\n      swap1\n      tag_66\n      jump\t// in\n    tag_288:\n      mload(0x40)\n      dup1\n      swap2\n      sub\n      swap1\n      log1\n        /* \"contract/HeirAccount.sol\":3608:3785  function freeze(address _sender) public {... */\n      pop\n      jump\t// out\n        /* \"contract/HeirAccount.sol\":1079:1107  address payable public owner */\n    tag_95:\n      0x01\n      0x00\n      swap1\n      sload\n      swap1\n      0x0100\n      exp\n      swap1\n      div\n      0xffffffffffffffffffffffffffffffffffffffff\n      and\n      dup2\n      jump\t// out\n        /* \"contract/HeirAccount.sol\":1144:1171  address payable public heir */\n    tag_99:\n      0x02\n      0x00\n      swap1\n      sload\n      swap1\n      0x0100\n      exp\n      swap1\n      div\n      0xffffffffffffffffffffffffffffffffffffffff\n      and\n      dup2\n      jump\t// out\n        /* \"contract/HeirAccount.sol\":4370:4602  function allowance ( address _ERC20Address, address payable _from, address payable _contract) public  view returns (uint256) {... */\n    tag_105:\n        /* \"contract/HeirAccount.sol\":4486:4493  uint256 */\n      0x00\n        /* \"contract/HeirAccount.sol\":4505:4518  IERC20 token_ */\n      dup1\n        /* \"contract/HeirAccount.sol\":4528:4541  _ERC20Address */\n      dup5\n        /* \"contract/HeirAccount.sol\":4505:4542  IERC20 token_ = IERC20(_ERC20Address) */\n      swap1\n      pop\n        /* \"contract/HeirAccount.sol\":4559:4565  token_ */\n      dup1\n        /* \"contract/HeirAccount.sol\":4559:4575  token_.allowance */\n      0xffffffffffffffffffffffffffffffffffffffff\n      and\n      0xdd62ed3e\n        /* \"contract/HeirAccount.sol\":4578:4583  _from */\n      dup6\n        /* \"contract/HeirAccount.sol\":4585:4594  _contract */\n      dup6\n        /* \"contract/HeirAccount.sol\":4559:4595  token_.allowance(  _from, _contract) */\n      mload(0x40)\n      dup4\n      0xffffffff\n      and\n      0xe0\n      shl\n      dup2\n      mstore\n      0x04\n      add\n      tag_290\n      swap3\n      swap2\n      swap1\n      tag_291\n      jump\t// in\n    tag_290:\n      0x20\n      mload(0x40)\n      dup1\n      dup4\n      sub\n      dup2\n      dup7\n      gas\n      staticcall\n      iszero\n      dup1\n      iszero\n      tag_293\n      jumpi\n      returndatasize\n      0x00\n      dup1\n      returndatacopy\n      revert(0x00, returndatasize)\n    tag_293:\n      pop\n      pop\n      pop\n      pop\n      mload(0x40)\n      returndatasize\n      not(0x1f)\n      0x1f\n      dup3\n      add\n      and\n      dup3\n      add\n      dup1\n      0x40\n      mstore\n      pop\n      dup2\n      add\n      swap1\n      tag_294\n      swap2\n      swap1\n      tag_177\n      jump\t// in\n    tag_294:\n        /* \"contract/HeirAccount.sol\":4552:4595  return token_.allowance(  _from, _contract) */\n      swap2\n      pop\n      pop\n        /* \"contract/HeirAccount.sol\":4370:4602  function allowance ( address _ERC20Address, address payable _from, address payable _contract) public  view returns (uint256) {... */\n      swap4\n      swap3\n      pop\n      pop\n      pop\n      jump\t// out\n        /* \"contract/HeirAccount.sol\":7816:7896  function returnOwner() public view returns(address){... */\n    tag_109:\n        /* \"contract/HeirAccount.sol\":7859:7866  address */\n      0x00\n        /* \"contract/HeirAccount.sol\":7884:7889  owner */\n      0x01\n      0x00\n      swap1\n      sload\n      swap1\n      0x0100\n      exp\n      swap1\n      div\n      0xffffffffffffffffffffffffffffffffffffffff\n      and\n        /* \"contract/HeirAccount.sol\":7877:7889  return owner */\n      swap1\n      pop\n        /* \"contract/HeirAccount.sol\":7816:7896  function returnOwner() public view returns(address){... */\n      swap1\n      jump\t// out\n        /* \"contract/HeirAccount.sol\":1805:1829  uint public tokenBalance */\n    tag_113:\n      sload(0x08)\n      dup2\n      jump\t// out\n        /* \"contract/HeirAccount.sol\":1745:1770  bool public mutex = false */\n    tag_117:\n      0x07\n      0x14\n      swap1\n      sload\n      swap1\n      0x0100\n      exp\n      swap1\n      div\n      0xff\n      and\n      dup2\n      jump\t// out\n        /* \"contract/HeirAccount.sol\":3338:3563  function stopClaim(address _sender) public {... */\n    tag_122:\n        /* \"contract/HeirAccount.sol\":3410:3415  owner */\n      0x01\n      0x00\n      swap1\n      sload\n      swap1\n      0x0100\n      exp\n      swap1\n      div\n      0xffffffffffffffffffffffffffffffffffffffff\n      and\n        /* \"contract/HeirAccount.sol\":3399:3415  _sender == owner */\n      0xffffffffffffffffffffffffffffffffffffffff\n      and\n        /* \"contract/HeirAccount.sol\":3399:3406  _sender */\n      dup2\n        /* \"contract/HeirAccount.sol\":3399:3415  _sender == owner */\n      0xffffffffffffffffffffffffffffffffffffffff\n      and\n      eq\n        /* \"contract/HeirAccount.sol\":3391:3452  require(_sender == owner, \"Only the owner can stop a claim.\") */\n      tag_297\n      jumpi\n      mload(0x40)\n      0x08c379a000000000000000000000000000000000000000000000000000000000\n      dup2\n      mstore\n      0x04\n      add\n      tag_298\n      swap1\n      tag_299\n      jump\t// in\n    tag_298:\n      mload(0x40)\n      dup1\n      swap2\n      sub\n      swap1\n      revert\n    tag_297:\n        /* \"contract/HeirAccount.sol\":3470:3485  claimInProgress */\n      0x02\n      0x14\n      swap1\n      sload\n      swap1\n      0x0100\n      exp\n      swap1\n      div\n      0xff\n      and\n        /* \"contract/HeirAccount.sol\":3462:3523  require(claimInProgress, \"There is no active claim to stop.\") */\n      tag_300\n      jumpi\n      mload(0x40)\n      0x08c379a000000000000000000000000000000000000000000000000000000000\n      dup2\n      mstore\n      0x04\n      add\n      tag_301\n      swap1\n      tag_302\n      jump\t// in\n    tag_301:\n      mload(0x40)\n      dup1\n      swap2\n      sub\n      swap1\n      revert\n    tag_300:\n        /* \"contract/HeirAccount.sol\":3551:3556  false */\n      0x00\n        /* \"contract/HeirAccount.sol\":3533:3548  claimInProgress */\n      0x02\n      0x14\n        /* \"contract/HeirAccount.sol\":3533:3556  claimInProgress = false */\n      0x0100\n      exp\n      dup2\n      sload\n      dup2\n      0xff\n      mul\n      not\n      and\n      swap1\n      dup4\n      iszero\n      iszero\n      mul\n      or\n      swap1\n      sstore\n      pop\n        /* \"contract/HeirAccount.sol\":3338:3563  function stopClaim(address _sender) public {... */\n      pop\n      jump\t// out\n        /* \"contract/HeirAccount.sol\":4640:5006  function deposit(uint _amount,  address payable _from, address _ERC20Address, address payable _contract) public payable {... */\n    tag_126:\n        /* \"contract/HeirAccount.sol\":4788:4789  0 */\n      0x00\n        /* \"contract/HeirAccount.sol\":4778:4785  _amount */\n      dup5\n        /* \"contract/HeirAccount.sol\":4778:4789  _amount > 0 */\n      gt\n        /* \"contract/HeirAccount.sol\":4770:4819  require(_amount > 0, \"Cannot deposit 0 or less.\") */\n      tag_304\n      jumpi\n      mload(0x40)\n      0x08c379a000000000000000000000000000000000000000000000000000000000\n      dup2\n      mstore\n      0x04\n      add\n      tag_305\n      swap1\n      tag_219\n      jump\t// in\n    tag_305:\n      mload(0x40)\n      dup1\n      swap2\n      sub\n      swap1\n      revert\n    tag_304:\n        /* \"contract/HeirAccount.sol\":4829:4842  IERC20 token_ */\n      0x00\n        /* \"contract/HeirAccount.sol\":4852:4865  _ERC20Address */\n      dup3\n        /* \"contract/HeirAccount.sol\":4829:4866  IERC20 token_ = IERC20(_ERC20Address) */\n      swap1\n      pop\n        /* \"contract/HeirAccount.sol\":4911:4918  _amount */\n      dup5\n        /* \"contract/HeirAccount.sol\":4884:4890  token_ */\n      dup2\n        /* \"contract/HeirAccount.sol\":4884:4900  token_.balanceOf */\n      0xffffffffffffffffffffffffffffffffffffffff\n      and\n      0x70a08231\n        /* \"contract/HeirAccount.sol\":4901:4906  _from */\n      dup7\n        /* \"contract/HeirAccount.sol\":4884:4907  token_.balanceOf(_from) */\n      mload(0x40)\n      dup3\n      0xffffffff\n      and\n      0xe0\n      shl\n      dup2\n      mstore\n      0x04\n      add\n      tag_306\n      swap2\n      swap1\n      tag_307\n      jump\t// in\n    tag_306:\n      0x20\n      mload(0x40)\n      dup1\n      dup4\n      sub\n      dup2\n      dup7\n      gas\n      staticcall\n      iszero\n      dup1\n      iszero\n      tag_309\n      jumpi\n      returndatasize\n      0x00\n      dup1\n      returndatacopy\n      revert(0x00, returndatasize)\n    tag_309:\n      pop\n      pop\n      pop\n      pop\n      mload(0x40)\n      returndatasize\n      not(0x1f)\n      0x1f\n      dup3\n      add\n      and\n      dup3\n      add\n      dup1\n      0x40\n      mstore\n      pop\n      dup2\n      add\n      swap1\n      tag_310\n      swap2\n      swap1\n      tag_177\n      jump\t// in\n    tag_310:\n        /* \"contract/HeirAccount.sol\":4884:4918  token_.balanceOf(_from) >= _amount */\n      lt\n      iszero\n        /* \"contract/HeirAccount.sol\":4876:4943  require(token_.balanceOf(_from) >= _amount, \"Insufficient balance\") */\n      tag_311\n      jumpi\n      mload(0x40)\n      0x08c379a000000000000000000000000000000000000000000000000000000000\n      dup2\n      mstore\n      0x04\n      add\n      tag_312\n      swap1\n      tag_313\n      jump\t// in\n    tag_312:\n      mload(0x40)\n      dup1\n      swap2\n      sub\n      swap1\n      revert\n    tag_311:\n        /* \"contract/HeirAccount.sol\":4953:4959  token_ */\n      dup1\n        /* \"contract/HeirAccount.sol\":4953:4972  token_.transferFrom */\n      0xffffffffffffffffffffffffffffffffffffffff\n      and\n      0x23b872dd\n        /* \"contract/HeirAccount.sol\":4973:4978  _from */\n      dup6\n        /* \"contract/HeirAccount.sol\":4980:4989  _contract */\n      dup5\n        /* \"contract/HeirAccount.sol\":4991:4998  _amount */\n      dup9\n        /* \"contract/HeirAccount.sol\":4953:4999  token_.transferFrom(_from, _contract, _amount) */\n      mload(0x40)\n      dup5\n      0xffffffff\n      and\n      0xe0\n      shl\n      dup2\n      mstore\n      0x04\n      add\n      tag_314\n      swap4\n      swap3\n      swap2\n      swap1\n      tag_315\n      jump\t// in\n    tag_314:\n      0x20\n      mload(0x40)\n      dup1\n      dup4\n      sub\n      dup2\n      0x00\n      dup8\n      gas\n      call\n      iszero\n      dup1\n      iszero\n      tag_317\n      jumpi\n      returndatasize\n      0x00\n      dup1\n      returndatacopy\n      revert(0x00, returndatasize)\n    tag_317:\n      pop\n      pop\n      pop\n      pop\n      mload(0x40)\n      returndatasize\n      not(0x1f)\n      0x1f\n      dup3\n      add\n      and\n      dup3\n      add\n      dup1\n      0x40\n      mstore\n      pop\n      dup2\n      add\n      swap1\n      tag_318\n      swap2\n      swap1\n      tag_190\n      jump\t// in\n    tag_318:\n      pop\n        /* \"contract/HeirAccount.sol\":4760:5006  {... */\n      pop\n        /* \"contract/HeirAccount.sol\":4640:5006  function deposit(uint _amount,  address payable _from, address _ERC20Address, address payable _contract) public payable {... */\n      pop\n      pop\n      pop\n      pop\n      jump\t// out\n        /* \"contract/HeirAccount.sol\":1321:1349  uint public claimInitiatedAt */\n    tag_129:\n      sload(0x03)\n      dup2\n      jump\t// out\n        /* \"contract/HeirAccount.sol\":1608:1627  IERC20 public ERC20 */\n    tag_133:\n      0x07\n      0x00\n      swap1\n      sload\n      swap1\n      0x0100\n      exp\n      swap1\n      div\n      0xffffffffffffffffffffffffffffffffffffffff\n      and\n      dup2\n      jump\t// out\n        /* \"contract/HeirAccount.sol\":1002:1025  address public deployer */\n    tag_138:\n      0x00\n      dup1\n      sload\n      swap1\n      0x0100\n      exp\n      swap1\n      div\n      0xffffffffffffffffffffffffffffffffffffffff\n      and\n      dup2\n      jump\t// out\n        /* \"contract/HeirAccount.sol\":2558:2847  function initiateClaim(address _sender) public {... */\n    tag_143:\n        /* \"contract/HeirAccount.sol\":2631:2638  _sender */\n      dup1\n        /* \"contract/HeirAccount.sol\":2623:2638  heir == _sender */\n      0xffffffffffffffffffffffffffffffffffffffff\n      and\n        /* \"contract/HeirAccount.sol\":2623:2627  heir */\n      0x02\n      0x00\n      swap1\n      sload\n      swap1\n      0x0100\n      exp\n      swap1\n      div\n      0xffffffffffffffffffffffffffffffffffffffff\n      and\n        /* \"contract/HeirAccount.sol\":2623:2638  heir == _sender */\n      0xffffffffffffffffffffffffffffffffffffffff\n      and\n      eq\n        /* \"contract/HeirAccount.sol\":2615:2688  require(heir == _sender, \"Only the heir can initiate the claim process.\") */\n      tag_320\n      jumpi\n      mload(0x40)\n      0x08c379a000000000000000000000000000000000000000000000000000000000\n      dup2\n      mstore\n      0x04\n      add\n      tag_321\n      swap1\n      tag_322\n      jump\t// in\n    tag_321:\n      mload(0x40)\n      dup1\n      swap2\n      sub\n      swap1\n      revert\n    tag_320:\n        /* \"contract/HeirAccount.sol\":2707:2722  claimInProgress */\n      0x02\n      0x14\n      swap1\n      sload\n      swap1\n      0x0100\n      exp\n      swap1\n      div\n      0xff\n      and\n        /* \"contract/HeirAccount.sol\":2706:2722  !claimInProgress */\n      iszero\n        /* \"contract/HeirAccount.sol\":2698:2764  require(!claimInProgress, \"Claim process is already in progress.\") */\n      tag_323\n      jumpi\n      mload(0x40)\n      0x08c379a000000000000000000000000000000000000000000000000000000000\n      dup2\n      mstore\n      0x04\n      add\n      tag_324\n      swap1\n      tag_325\n      jump\t// in\n    tag_324:\n      mload(0x40)\n      dup1\n      swap2\n      sub\n      swap1\n      revert\n    tag_323:\n        /* \"contract/HeirAccount.sol\":2792:2796  true */\n      0x01\n        /* \"contract/HeirAccount.sol\":2774:2789  claimInProgress */\n      0x02\n      0x14\n        /* \"contract/HeirAccount.sol\":2774:2796  claimInProgress = true */\n      0x0100\n      exp\n      dup2\n      sload\n      dup2\n      0xff\n      mul\n      not\n      and\n      swap1\n      dup4\n      iszero\n      iszero\n      mul\n      or\n      swap1\n      sstore\n      pop\n        /* \"contract/HeirAccount.sol\":2825:2840  block.timestamp */\n      timestamp\n        /* \"contract/HeirAccount.sol\":2806:2822  claimInitiatedAt */\n      0x03\n        /* \"contract/HeirAccount.sol\":2806:2840  claimInitiatedAt = block.timestamp */\n      dup2\n      swap1\n      sstore\n      pop\n        /* \"contract/HeirAccount.sol\":2558:2847  function initiateClaim(address _sender) public {... */\n      pop\n      jump\t// out\n        /* \"contract/HeirAccount.sol\":1231:1258  bool public claimInProgress */\n    tag_146:\n      0x02\n      0x14\n      swap1\n      sload\n      swap1\n      0x0100\n      exp\n      swap1\n      div\n      0xff\n      and\n      dup2\n      jump\t// out\n        /* \"@openzeppelin/contracts/utils/math/SafeMath.sol\":3465:3561  function mul(uint256 a, uint256 b) internal pure returns (uint256) {... */\n    tag_164:\n        /* \"@openzeppelin/contracts/utils/math/SafeMath.sol\":3523:3530  uint256 */\n      0x00\n        /* \"@openzeppelin/contracts/utils/math/SafeMath.sol\":3553:3554  b */\n      dup2\n        /* \"@openzeppelin/contracts/utils/math/SafeMath.sol\":3549:3550  a */\n      dup4\n        /* \"@openzeppelin/contracts/utils/math/SafeMath.sol\":3549:3554  a * b */\n      tag_327\n      swap2\n      swap1\n      tag_210\n      jump\t// in\n    tag_327:\n        /* \"@openzeppelin/contracts/utils/math/SafeMath.sol\":3542:3554  return a * b */\n      swap1\n      pop\n        /* \"@openzeppelin/contracts/utils/math/SafeMath.sol\":3465:3561  function mul(uint256 a, uint256 b) internal pure returns (uint256) {... */\n      swap3\n      swap2\n      pop\n      pop\n      jump\t// out\n        /* \"@openzeppelin/contracts/utils/math/SafeMath.sol\":3850:3946  function div(uint256 a, uint256 b) internal pure returns (uint256) {... */\n    tag_165:\n        /* \"@openzeppelin/contracts/utils/math/SafeMath.sol\":3908:3915  uint256 */\n      0x00\n        /* \"@openzeppelin/contracts/utils/math/SafeMath.sol\":3938:3939  b */\n      dup2\n        /* \"@openzeppelin/contracts/utils/math/SafeMath.sol\":3934:3935  a */\n      dup4\n        /* \"@openzeppelin/contracts/utils/math/SafeMath.sol\":3934:3939  a / b */\n      tag_329\n      swap2\n      swap1\n      tag_330\n      jump\t// in\n    tag_329:\n        /* \"@openzeppelin/contracts/utils/math/SafeMath.sol\":3927:3939  return a / b */\n      swap1\n      pop\n        /* \"@openzeppelin/contracts/utils/math/SafeMath.sol\":3850:3946  function div(uint256 a, uint256 b) internal pure returns (uint256) {... */\n      swap3\n      swap2\n      pop\n      pop\n      jump\t// out\n        /* \"@openzeppelin/contracts/utils/math/SafeMath.sol\":3122:3218  function sub(uint256 a, uint256 b) internal pure returns (uint256) {... */\n    tag_167:\n        /* \"@openzeppelin/contracts/utils/math/SafeMath.sol\":3180:3187  uint256 */\n      0x00\n        /* \"@openzeppelin/contracts/utils/math/SafeMath.sol\":3210:3211  b */\n      dup2\n        /* \"@openzeppelin/contracts/utils/math/SafeMath.sol\":3206:3207  a */\n      dup4\n        /* \"@openzeppelin/contracts/utils/math/SafeMath.sol\":3206:3211  a - b */\n      tag_332\n      swap2\n      swap1\n      tag_333\n      jump\t// in\n    tag_332:\n        /* \"@openzeppelin/contracts/utils/math/SafeMath.sol\":3199:3211  return a - b */\n      swap1\n      pop\n        /* \"@openzeppelin/contracts/utils/math/SafeMath.sol\":3122:3218  function sub(uint256 a, uint256 b) internal pure returns (uint256) {... */\n      swap3\n      swap2\n      pop\n      pop\n      jump\t// out\n        /* \"#utility.yul\":88:205   */\n    tag_335:\n        /* \"#utility.yul\":197:198   */\n      0x00\n        /* \"#utility.yul\":194:195   */\n      dup1\n        /* \"#utility.yul\":187:199   */\n      revert\n        /* \"#utility.yul\":334:424   */\n    tag_337:\n        /* \"#utility.yul\":368:375   */\n      0x00\n        /* \"#utility.yul\":411:416   */\n      dup2\n        /* \"#utility.yul\":404:417   */\n      iszero\n        /* \"#utility.yul\":397:418   */\n      iszero\n        /* \"#utility.yul\":386:418   */\n      swap1\n      pop\n        /* \"#utility.yul\":334:424   */\n      swap2\n      swap1\n      pop\n      jump\t// out\n        /* \"#utility.yul\":430:546   */\n    tag_338:\n        /* \"#utility.yul\":500:521   */\n      tag_408\n        /* \"#utility.yul\":515:520   */\n      dup2\n        /* \"#utility.yul\":500:521   */\n      tag_337\n      jump\t// in\n    tag_408:\n        /* \"#utility.yul\":493:498   */\n      dup2\n        /* \"#utility.yul\":490:522   */\n      eq\n        /* \"#utility.yul\":480:540   */\n      tag_409\n      jumpi\n        /* \"#utility.yul\":536:537   */\n      0x00\n        /* \"#utility.yul\":533:534   */\n      dup1\n        /* \"#utility.yul\":526:538   */\n      revert\n        /* \"#utility.yul\":480:540   */\n    tag_409:\n        /* \"#utility.yul\":430:546   */\n      pop\n      jump\t// out\n        /* \"#utility.yul\":552:685   */\n    tag_339:\n        /* \"#utility.yul\":595:600   */\n      0x00\n        /* \"#utility.yul\":633:639   */\n      dup2\n        /* \"#utility.yul\":620:640   */\n      calldataload\n        /* \"#utility.yul\":611:640   */\n      swap1\n      pop\n        /* \"#utility.yul\":649:679   */\n      tag_411\n        /* \"#utility.yul\":673:678   */\n      dup2\n        /* \"#utility.yul\":649:679   */\n      tag_338\n      jump\t// in\n    tag_411:\n        /* \"#utility.yul\":552:685   */\n      swap3\n      swap2\n      pop\n      pop\n      jump\t// out\n        /* \"#utility.yul\":691:817   */\n    tag_340:\n        /* \"#utility.yul\":728:735   */\n      0x00\n        /* \"#utility.yul\":768:810   */\n      0xffffffffffffffffffffffffffffffffffffffff\n        /* \"#utility.yul\":761:766   */\n      dup3\n        /* \"#utility.yul\":757:811   */\n      and\n        /* \"#utility.yul\":746:811   */\n      swap1\n      pop\n        /* \"#utility.yul\":691:817   */\n      swap2\n      swap1\n      pop\n      jump\t// out\n        /* \"#utility.yul\":823:927   */\n    tag_341:\n        /* \"#utility.yul\":868:875   */\n      0x00\n        /* \"#utility.yul\":897:921   */\n      tag_414\n        /* \"#utility.yul\":915:920   */\n      dup3\n        /* \"#utility.yul\":897:921   */\n      tag_340\n      jump\t// in\n    tag_414:\n        /* \"#utility.yul\":886:921   */\n      swap1\n      pop\n        /* \"#utility.yul\":823:927   */\n      swap2\n      swap1\n      pop\n      jump\t// out\n        /* \"#utility.yul\":933:1071   */\n    tag_342:\n        /* \"#utility.yul\":1014:1046   */\n      tag_416\n        /* \"#utility.yul\":1040:1045   */\n      dup2\n        /* \"#utility.yul\":1014:1046   */\n      tag_341\n      jump\t// in\n    tag_416:\n        /* \"#utility.yul\":1007:1012   */\n      dup2\n        /* \"#utility.yul\":1004:1047   */\n      eq\n        /* \"#utility.yul\":994:1065   */\n      tag_417\n      jumpi\n        /* \"#utility.yul\":1061:1062   */\n      0x00\n        /* \"#utility.yul\":1058:1059   */\n      dup1\n        /* \"#utility.yul\":1051:1063   */\n      revert\n        /* \"#utility.yul\":994:1065   */\n    tag_417:\n        /* \"#utility.yul\":933:1071   */\n      pop\n      jump\t// out\n        /* \"#utility.yul\":1077:1232   */\n    tag_343:\n        /* \"#utility.yul\":1131:1136   */\n      0x00\n        /* \"#utility.yul\":1169:1175   */\n      dup2\n        /* \"#utility.yul\":1156:1176   */\n      calldataload\n        /* \"#utility.yul\":1147:1176   */\n      swap1\n      pop\n        /* \"#utility.yul\":1185:1226   */\n      tag_419\n        /* \"#utility.yul\":1220:1225   */\n      dup2\n        /* \"#utility.yul\":1185:1226   */\n      tag_342\n      jump\t// in\n    tag_419:\n        /* \"#utility.yul\":1077:1232   */\n      swap3\n      swap2\n      pop\n      pop\n      jump\t// out\n        /* \"#utility.yul\":1238:1315   */\n    tag_344:\n        /* \"#utility.yul\":1275:1282   */\n      0x00\n        /* \"#utility.yul\":1304:1309   */\n      dup2\n        /* \"#utility.yul\":1293:1309   */\n      swap1\n      pop\n        /* \"#utility.yul\":1238:1315   */\n      swap2\n      swap1\n      pop\n      jump\t// out\n        /* \"#utility.yul\":1321:1443   */\n    tag_345:\n        /* \"#utility.yul\":1394:1418   */\n      tag_422\n        /* \"#utility.yul\":1412:1417   */\n      dup2\n        /* \"#utility.yul\":1394:1418   */\n      tag_344\n      jump\t// in\n    tag_422:\n        /* \"#utility.yul\":1387:1392   */\n      dup2\n        /* \"#utility.yul\":1384:1419   */\n      eq\n        /* \"#utility.yul\":1374:1437   */\n      tag_423\n      jumpi\n        /* \"#utility.yul\":1433:1434   */\n      0x00\n        /* \"#utility.yul\":1430:1431   */\n      dup1\n        /* \"#utility.yul\":1423:1435   */\n      revert\n        /* \"#utility.yul\":1374:1437   */\n    tag_423:\n        /* \"#utility.yul\":1321:1443   */\n      pop\n      jump\t// out\n        /* \"#utility.yul\":1449:1588   */\n    tag_346:\n        /* \"#utility.yul\":1495:1500   */\n      0x00\n        /* \"#utility.yul\":1533:1539   */\n      dup2\n        /* \"#utility.yul\":1520:1540   */\n      calldataload\n        /* \"#utility.yul\":1511:1540   */\n      swap1\n      pop\n        /* \"#utility.yul\":1549:1582   */\n      tag_425\n        /* \"#utility.yul\":1576:1581   */\n      dup2\n        /* \"#utility.yul\":1549:1582   */\n      tag_345\n      jump\t// in\n    tag_425:\n        /* \"#utility.yul\":1449:1588   */\n      swap3\n      swap2\n      pop\n      pop\n      jump\t// out\n        /* \"#utility.yul\":1594:1690   */\n    tag_347:\n        /* \"#utility.yul\":1631:1638   */\n      0x00\n        /* \"#utility.yul\":1660:1684   */\n      tag_427\n        /* \"#utility.yul\":1678:1683   */\n      dup3\n        /* \"#utility.yul\":1660:1684   */\n      tag_340\n      jump\t// in\n    tag_427:\n        /* \"#utility.yul\":1649:1684   */\n      swap1\n      pop\n        /* \"#utility.yul\":1594:1690   */\n      swap2\n      swap1\n      pop\n      jump\t// out\n        /* \"#utility.yul\":1696:1818   */\n    tag_348:\n        /* \"#utility.yul\":1769:1793   */\n      tag_429\n        /* \"#utility.yul\":1787:1792   */\n      dup2\n        /* \"#utility.yul\":1769:1793   */\n      tag_347\n      jump\t// in\n    tag_429:\n        /* \"#utility.yul\":1762:1767   */\n      dup2\n        /* \"#utility.yul\":1759:1794   */\n      eq\n        /* \"#utility.yul\":1749:1812   */\n      tag_430\n      jumpi\n        /* \"#utility.yul\":1808:1809   */\n      0x00\n        /* \"#utility.yul\":1805:1806   */\n      dup1\n        /* \"#utility.yul\":1798:1810   */\n      revert\n        /* \"#utility.yul\":1749:1812   */\n    tag_430:\n        /* \"#utility.yul\":1696:1818   */\n      pop\n      jump\t// out\n        /* \"#utility.yul\":1824:1963   */\n    tag_349:\n        /* \"#utility.yul\":1870:1875   */\n      0x00\n        /* \"#utility.yul\":1908:1914   */\n      dup2\n        /* \"#utility.yul\":1895:1915   */\n      calldataload\n        /* \"#utility.yul\":1886:1915   */\n      swap1\n      pop\n        /* \"#utility.yul\":1924:1957   */\n      tag_432\n        /* \"#utility.yul\":1951:1956   */\n      dup2\n        /* \"#utility.yul\":1924:1957   */\n      tag_348\n      jump\t// in\n    tag_432:\n        /* \"#utility.yul\":1824:1963   */\n      swap3\n      swap2\n      pop\n      pop\n      jump\t// out\n        /* \"#utility.yul\":1969:3198   */\n    tag_35:\n        /* \"#utility.yul\":2095:2101   */\n      0x00\n        /* \"#utility.yul\":2103:2109   */\n      dup1\n        /* \"#utility.yul\":2111:2117   */\n      0x00\n        /* \"#utility.yul\":2119:2125   */\n      dup1\n        /* \"#utility.yul\":2127:2133   */\n      0x00\n        /* \"#utility.yul\":2135:2141   */\n      dup1\n        /* \"#utility.yul\":2143:2149   */\n      0x00\n        /* \"#utility.yul\":2192:2195   */\n      0xe0\n        /* \"#utility.yul\":2180:2189   */\n      dup9\n        /* \"#utility.yul\":2171:2178   */\n      dup11\n        /* \"#utility.yul\":2167:2190   */\n      sub\n        /* \"#utility.yul\":2163:2196   */\n      slt\n        /* \"#utility.yul\":2160:2280   */\n      iszero\n      tag_434\n      jumpi\n        /* \"#utility.yul\":2199:2278   */\n      tag_435\n      tag_335\n      jump\t// in\n    tag_435:\n        /* \"#utility.yul\":2160:2280   */\n    tag_434:\n        /* \"#utility.yul\":2319:2320   */\n      0x00\n        /* \"#utility.yul\":2344:2394   */\n      tag_436\n        /* \"#utility.yul\":2386:2393   */\n      dup11\n        /* \"#utility.yul\":2377:2383   */\n      dup3\n        /* \"#utility.yul\":2366:2375   */\n      dup12\n        /* \"#utility.yul\":2362:2384   */\n      add\n        /* \"#utility.yul\":2344:2394   */\n      tag_339\n      jump\t// in\n    tag_436:\n        /* \"#utility.yul\":2334:2394   */\n      swap8\n      pop\n        /* \"#utility.yul\":2290:2404   */\n      pop\n        /* \"#utility.yul\":2443:2445   */\n      0x20\n        /* \"#utility.yul\":2469:2530   */\n      tag_437\n        /* \"#utility.yul\":2522:2529   */\n      dup11\n        /* \"#utility.yul\":2513:2519   */\n      dup3\n        /* \"#utility.yul\":2502:2511   */\n      dup12\n        /* \"#utility.yul\":2498:2520   */\n      add\n        /* \"#utility.yul\":2469:2530   */\n      tag_343\n      jump\t// in\n    tag_437:\n        /* \"#utility.yul\":2459:2530   */\n      swap7\n      pop\n        /* \"#utility.yul\":2414:2540   */\n      pop\n        /* \"#utility.yul\":2579:2581   */\n      0x40\n        /* \"#utility.yul\":2605:2658   */\n      tag_438\n        /* \"#utility.yul\":2650:2657   */\n      dup11\n        /* \"#utility.yul\":2641:2647   */\n      dup3\n        /* \"#utility.yul\":2630:2639   */\n      dup12\n        /* \"#utility.yul\":2626:2648   */\n      add\n        /* \"#utility.yul\":2605:2658   */\n      tag_346\n      jump\t// in\n    tag_438:\n        /* \"#utility.yul\":2595:2658   */\n      swap6\n      pop\n        /* \"#utility.yul\":2550:2668   */\n      pop\n        /* \"#utility.yul\":2707:2709   */\n      0x60\n        /* \"#utility.yul\":2733:2786   */\n      tag_439\n        /* \"#utility.yul\":2778:2785   */\n      dup11\n        /* \"#utility.yul\":2769:2775   */\n      dup3\n        /* \"#utility.yul\":2758:2767   */\n      dup12\n        /* \"#utility.yul\":2754:2776   */\n      add\n        /* \"#utility.yul\":2733:2786   */\n      tag_349\n      jump\t// in\n    tag_439:\n        /* \"#utility.yul\":2723:2786   */\n      swap5\n      pop\n        /* \"#utility.yul\":2678:2796   */\n      pop\n        /* \"#utility.yul\":2835:2838   */\n      0x80\n        /* \"#utility.yul\":2862:2915   */\n      tag_440\n        /* \"#utility.yul\":2907:2914   */\n      dup11\n        /* \"#utility.yul\":2898:2904   */\n      dup3\n        /* \"#utility.yul\":2887:2896   */\n      dup12\n        /* \"#utility.yul\":2883:2905   */\n      add\n        /* \"#utility.yul\":2862:2915   */\n      tag_349\n      jump\t// in\n    tag_440:\n        /* \"#utility.yul\":2852:2915   */\n      swap4\n      pop\n        /* \"#utility.yul\":2806:2925   */\n      pop\n        /* \"#utility.yul\":2964:2967   */\n      0xa0\n        /* \"#utility.yul\":2991:3052   */\n      tag_441\n        /* \"#utility.yul\":3044:3051   */\n      dup11\n        /* \"#utility.yul\":3035:3041   */\n      dup3\n        /* \"#utility.yul\":3024:3033   */\n      dup12\n        /* \"#utility.yul\":3020:3042   */\n      add\n        /* \"#utility.yul\":2991:3052   */\n      tag_343\n      jump\t// in\n    tag_441:\n        /* \"#utility.yul\":2981:3052   */\n      swap3\n      pop\n        /* \"#utility.yul\":2935:3062   */\n      pop\n        /* \"#utility.yul\":3101:3104   */\n      0xc0\n        /* \"#utility.yul\":3128:3181   */\n      tag_442\n        /* \"#utility.yul\":3173:3180   */\n      dup11\n        /* \"#utility.yul\":3164:3170   */\n      dup3\n        /* \"#utility.yul\":3153:3162   */\n      dup12\n        /* \"#utility.yul\":3149:3171   */\n      add\n        /* \"#utility.yul\":3128:3181   */\n      tag_346\n      jump\t// in\n    tag_442:\n        /* \"#utility.yul\":3118:3181   */\n      swap2\n      pop\n        /* \"#utility.yul\":3072:3191   */\n      pop\n        /* \"#utility.yul\":1969:3198   */\n      swap3\n      swap6\n      swap9\n      swap2\n      swap5\n      swap8\n      pop\n      swap3\n      swap6\n      pop\n      jump\t// out\n        /* \"#utility.yul\":3204:3313   */\n    tag_350:\n        /* \"#utility.yul\":3285:3306   */\n      tag_444\n        /* \"#utility.yul\":3300:3305   */\n      dup2\n        /* \"#utility.yul\":3285:3306   */\n      tag_337\n      jump\t// in\n    tag_444:\n        /* \"#utility.yul\":3280:3283   */\n      dup3\n        /* \"#utility.yul\":3273:3307   */\n      mstore\n        /* \"#utility.yul\":3204:3313   */\n      pop\n      pop\n      jump\t// out\n        /* \"#utility.yul\":3319:3529   */\n    tag_41:\n        /* \"#utility.yul\":3406:3410   */\n      0x00\n        /* \"#utility.yul\":3444:3446   */\n      0x20\n        /* \"#utility.yul\":3433:3442   */\n      dup3\n        /* \"#utility.yul\":3429:3447   */\n      add\n        /* \"#utility.yul\":3421:3447   */\n      swap1\n      pop\n        /* \"#utility.yul\":3457:3522   */\n      tag_446\n        /* \"#utility.yul\":3519:3520   */\n      0x00\n        /* \"#utility.yul\":3508:3517   */\n      dup4\n        /* \"#utility.yul\":3504:3521   */\n      add\n        /* \"#utility.yul\":3495:3501   */\n      dup5\n        /* \"#utility.yul\":3457:3522   */\n      tag_350\n      jump\t// in\n    tag_446:\n        /* \"#utility.yul\":3319:3529   */\n      swap3\n      swap2\n      pop\n      pop\n      jump\t// out\n        /* \"#utility.yul\":3535:4003   */\n    tag_45:\n        /* \"#utility.yul\":3600:3606   */\n      0x00\n        /* \"#utility.yul\":3608:3614   */\n      dup1\n        /* \"#utility.yul\":3657:3659   */\n      0x40\n        /* \"#utility.yul\":3645:3654   */\n      dup4\n        /* \"#utility.yul\":3636:3643   */\n      dup6\n        /* \"#utility.yul\":3632:3655   */\n      sub\n        /* \"#utility.yul\":3628:3660   */\n      slt\n        /* \"#utility.yul\":3625:3744   */\n      iszero\n      tag_448\n      jumpi\n        /* \"#utility.yul\":3663:3742   */\n      tag_449\n      tag_335\n      jump\t// in\n    tag_449:\n        /* \"#utility.yul\":3625:3744   */\n    tag_448:\n        /* \"#utility.yul\":3783:3784   */\n      0x00\n        /* \"#utility.yul\":3808:3858   */\n      tag_450\n        /* \"#utility.yul\":3850:3857   */\n      dup6\n        /* \"#utility.yul\":3841:3847   */\n      dup3\n        /* \"#utility.yul\":3830:3839   */\n      dup7\n        /* \"#utility.yul\":3826:3848   */\n      add\n        /* \"#utility.yul\":3808:3858   */\n      tag_339\n      jump\t// in\n    tag_450:\n        /* \"#utility.yul\":3798:3858   */\n      swap3\n      pop\n        /* \"#utility.yul\":3754:3868   */\n      pop\n        /* \"#utility.yul\":3907:3909   */\n      0x20\n        /* \"#utility.yul\":3933:3986   */\n      tag_451\n        /* \"#utility.yul\":3978:3985   */\n      dup6\n        /* \"#utility.yul\":3969:3975   */\n      dup3\n        /* \"#utility.yul\":3958:3967   */\n      dup7\n        /* \"#utility.yul\":3954:3976   */\n      add\n        /* \"#utility.yul\":3933:3986   */\n      tag_349\n      jump\t// in\n    tag_451:\n        /* \"#utility.yul\":3923:3986   */\n      swap2\n      pop\n        /* \"#utility.yul\":3878:3996   */\n      pop\n        /* \"#utility.yul\":3535:4003   */\n      swap3\n      pop\n      swap3\n      swap1\n      pop\n      jump\t// out\n        /* \"#utility.yul\":4009:4127   */\n    tag_351:\n        /* \"#utility.yul\":4096:4120   */\n      tag_453\n        /* \"#utility.yul\":4114:4119   */\n      dup2\n        /* \"#utility.yul\":4096:4120   */\n      tag_344\n      jump\t// in\n    tag_453:\n        /* \"#utility.yul\":4091:4094   */\n      dup3\n        /* \"#utility.yul\":4084:4121   */\n      mstore\n        /* \"#utility.yul\":4009:4127   */\n      pop\n      pop\n      jump\t// out\n        /* \"#utility.yul\":4133:4355   */\n    tag_48:\n        /* \"#utility.yul\":4226:4230   */\n      0x00\n        /* \"#utility.yul\":4264:4266   */\n      0x20\n        /* \"#utility.yul\":4253:4262   */\n      dup3\n        /* \"#utility.yul\":4249:4267   */\n      add\n        /* \"#utility.yul\":4241:4267   */\n      swap1\n      pop\n        /* \"#utility.yul\":4277:4348   */\n      tag_455\n        /* \"#utility.yul\":4345:4346   */\n      0x00\n        /* \"#utility.yul\":4334:4343   */\n      dup4\n        /* \"#utility.yul\":4330:4347   */\n      add\n        /* \"#utility.yul\":4321:4327   */\n      dup5\n        /* \"#utility.yul\":4277:4348   */\n      tag_351\n      jump\t// in\n    tag_455:\n        /* \"#utility.yul\":4133:4355   */\n      swap3\n      swap2\n      pop\n      pop\n      jump\t// out\n        /* \"#utility.yul\":4361:4690   */\n    tag_56:\n        /* \"#utility.yul\":4420:4426   */\n      0x00\n        /* \"#utility.yul\":4469:4471   */\n      0x20\n        /* \"#utility.yul\":4457:4466   */\n      dup3\n        /* \"#utility.yul\":4448:4455   */\n      dup5\n        /* \"#utility.yul\":4444:4467   */\n      sub\n        /* \"#utility.yul\":4440:4472   */\n      slt\n        /* \"#utility.yul\":4437:4556   */\n      iszero\n      tag_457\n      jumpi\n        /* \"#utility.yul\":4475:4554   */\n      tag_458\n      tag_335\n      jump\t// in\n    tag_458:\n        /* \"#utility.yul\":4437:4556   */\n    tag_457:\n        /* \"#utility.yul\":4595:4596   */\n      0x00\n        /* \"#utility.yul\":4620:4673   */\n      tag_459\n        /* \"#utility.yul\":4665:4672   */\n      dup5\n        /* \"#utility.yul\":4656:4662   */\n      dup3\n        /* \"#utility.yul\":4645:4654   */\n      dup6\n        /* \"#utility.yul\":4641:4663   */\n      add\n        /* \"#utility.yul\":4620:4673   */\n      tag_349\n      jump\t// in\n    tag_459:\n        /* \"#utility.yul\":4610:4673   */\n      swap2\n      pop\n        /* \"#utility.yul\":4566:4683   */\n      pop\n        /* \"#utility.yul\":4361:4690   */\n      swap3\n      swap2\n      pop\n      pop\n      jump\t// out\n        /* \"#utility.yul\":4696:5331   */\n    tag_60:\n        /* \"#utility.yul\":4781:4787   */\n      0x00\n        /* \"#utility.yul\":4789:4795   */\n      dup1\n        /* \"#utility.yul\":4797:4803   */\n      0x00\n        /* \"#utility.yul\":4846:4848   */\n      0x60\n        /* \"#utility.yul\":4834:4843   */\n      dup5\n        /* \"#utility.yul\":4825:4832   */\n      dup7\n        /* \"#utility.yul\":4821:4844   */\n      sub\n        /* \"#utility.yul\":4817:4849   */\n      slt\n        /* \"#utility.yul\":4814:4933   */\n      iszero\n      tag_461\n      jumpi\n        /* \"#utility.yul\":4852:4931   */\n      tag_462\n      tag_335\n      jump\t// in\n    tag_462:\n        /* \"#utility.yul\":4814:4933   */\n    tag_461:\n        /* \"#utility.yul\":4972:4973   */\n      0x00\n        /* \"#utility.yul\":4997:5050   */\n      tag_463\n        /* \"#utility.yul\":5042:5049   */\n      dup7\n        /* \"#utility.yul\":5033:5039   */\n      dup3\n        /* \"#utility.yul\":5022:5031   */\n      dup8\n        /* \"#utility.yul\":5018:5040   */\n      add\n        /* \"#utility.yul\":4997:5050   */\n      tag_346\n      jump\t// in\n    tag_463:\n        /* \"#utility.yul\":4987:5050   */\n      swap4\n      pop\n        /* \"#utility.yul\":4943:5060   */\n      pop\n        /* \"#utility.yul\":5099:5101   */\n      0x20\n        /* \"#utility.yul\":5125:5178   */\n      tag_464\n        /* \"#utility.yul\":5170:5177   */\n      dup7\n        /* \"#utility.yul\":5161:5167   */\n      dup3\n        /* \"#utility.yul\":5150:5159   */\n      dup8\n        /* \"#utility.yul\":5146:5168   */\n      add\n        /* \"#utility.yul\":5125:5178   */\n      tag_349\n      jump\t// in\n    tag_464:\n        /* \"#utility.yul\":5115:5178   */\n      swap3\n      pop\n        /* \"#utility.yul\":5070:5188   */\n      pop\n        /* \"#utility.yul\":5227:5229   */\n      0x40\n        /* \"#utility.yul\":5253:5314   */\n      tag_465\n        /* \"#utility.yul\":5306:5313   */\n      dup7\n        /* \"#utility.yul\":5297:5303   */\n      dup3\n        /* \"#utility.yul\":5286:5295   */\n      dup8\n        /* \"#utility.yul\":5282:5304   */\n      add\n        /* \"#utility.yul\":5253:5314   */\n      tag_343\n      jump\t// in\n    tag_465:\n        /* \"#utility.yul\":5243:5314   */\n      swap2\n      pop\n        /* \"#utility.yul\":5198:5324   */\n      pop\n        /* \"#utility.yul\":4696:5331   */\n      swap3\n      pop\n      swap3\n      pop\n      swap3\n      jump\t// out\n        /* \"#utility.yul\":5337:5455   */\n    tag_352:\n        /* \"#utility.yul\":5424:5448   */\n      tag_467\n        /* \"#utility.yul\":5442:5447   */\n      dup2\n        /* \"#utility.yul\":5424:5448   */\n      tag_347\n      jump\t// in\n    tag_467:\n        /* \"#utility.yul\":5419:5422   */\n      dup3\n        /* \"#utility.yul\":5412:5449   */\n      mstore\n        /* \"#utility.yul\":5337:5455   */\n      pop\n      pop\n      jump\t// out\n        /* \"#utility.yul\":5461:5683   */\n    tag_66:\n        /* \"#utility.yul\":5554:5558   */\n      0x00\n        /* \"#utility.yul\":5592:5594   */\n      0x20\n        /* \"#utility.yul\":5581:5590   */\n      dup3\n        /* \"#utility.yul\":5577:5595   */\n      add\n        /* \"#utility.yul\":5569:5595   */\n      swap1\n      pop\n        /* \"#utility.yul\":5605:5676   */\n      tag_469\n        /* \"#utility.yul\":5673:5674   */\n      0x00\n        /* \"#utility.yul\":5662:5671   */\n      dup4\n        /* \"#utility.yul\":5658:5675   */\n      add\n        /* \"#utility.yul\":5649:5655   */\n      dup5\n        /* \"#utility.yul\":5605:5676   */\n      tag_352\n      jump\t// in\n    tag_469:\n        /* \"#utility.yul\":5461:5683   */\n      swap3\n      swap2\n      pop\n      pop\n      jump\t// out\n        /* \"#utility.yul\":5689:6324   */\n    tag_78:\n        /* \"#utility.yul\":5774:5780   */\n      0x00\n        /* \"#utility.yul\":5782:5788   */\n      dup1\n        /* \"#utility.yul\":5790:5796   */\n      0x00\n        /* \"#utility.yul\":5839:5841   */\n      0x60\n        /* \"#utility.yul\":5827:5836   */\n      dup5\n        /* \"#utility.yul\":5818:5825   */\n      dup7\n        /* \"#utility.yul\":5814:5837   */\n      sub\n        /* \"#utility.yul\":5810:5842   */\n      slt\n        /* \"#utility.yul\":5807:5926   */\n      iszero\n      tag_471\n      jumpi\n        /* \"#utility.yul\":5845:5924   */\n      tag_472\n      tag_335\n      jump\t// in\n    tag_472:\n        /* \"#utility.yul\":5807:5926   */\n    tag_471:\n        /* \"#utility.yul\":5965:5966   */\n      0x00\n        /* \"#utility.yul\":5990:6051   */\n      tag_473\n        /* \"#utility.yul\":6043:6050   */\n      dup7\n        /* \"#utility.yul\":6034:6040   */\n      dup3\n        /* \"#utility.yul\":6023:6032   */\n      dup8\n        /* \"#utility.yul\":6019:6041   */\n      add\n        /* \"#utility.yul\":5990:6051   */\n      tag_343\n      jump\t// in\n    tag_473:\n        /* \"#utility.yul\":5980:6051   */\n      swap4\n      pop\n        /* \"#utility.yul\":5936:6061   */\n      pop\n        /* \"#utility.yul\":6100:6102   */\n      0x20\n        /* \"#utility.yul\":6126:6179   */\n      tag_474\n        /* \"#utility.yul\":6171:6178   */\n      dup7\n        /* \"#utility.yul\":6162:6168   */\n      dup3\n        /* \"#utility.yul\":6151:6160   */\n      dup8\n        /* \"#utility.yul\":6147:6169   */\n      add\n        /* \"#utility.yul\":6126:6179   */\n      tag_346\n      jump\t// in\n    tag_474:\n        /* \"#utility.yul\":6116:6179   */\n      swap3\n      pop\n        /* \"#utility.yul\":6071:6189   */\n      pop\n        /* \"#utility.yul\":6228:6230   */\n      0x40\n        /* \"#utility.yul\":6254:6307   */\n      tag_475\n        /* \"#utility.yul\":6299:6306   */\n      dup7\n        /* \"#utility.yul\":6290:6296   */\n      dup3\n        /* \"#utility.yul\":6279:6288   */\n      dup8\n        /* \"#utility.yul\":6275:6297   */\n      add\n        /* \"#utility.yul\":6254:6307   */\n      tag_349\n      jump\t// in\n    tag_475:\n        /* \"#utility.yul\":6244:6307   */\n      swap2\n      pop\n        /* \"#utility.yul\":6199:6317   */\n      pop\n        /* \"#utility.yul\":5689:6324   */\n      swap3\n      pop\n      swap3\n      pop\n      swap3\n      jump\t// out\n        /* \"#utility.yul\":6330:6472   */\n    tag_353:\n        /* \"#utility.yul\":6433:6465   */\n      tag_477\n        /* \"#utility.yul\":6459:6464   */\n      dup2\n        /* \"#utility.yul\":6433:6465   */\n      tag_341\n      jump\t// in\n    tag_477:\n        /* \"#utility.yul\":6428:6431   */\n      dup3\n        /* \"#utility.yul\":6421:6466   */\n      mstore\n        /* \"#utility.yul\":6330:6472   */\n      pop\n      pop\n      jump\t// out\n        /* \"#utility.yul\":6478:6732   */\n    tag_84:\n        /* \"#utility.yul\":6587:6591   */\n      0x00\n        /* \"#utility.yul\":6625:6627   */\n      0x20\n        /* \"#utility.yul\":6614:6623   */\n      dup3\n        /* \"#utility.yul\":6610:6628   */\n      add\n        /* \"#utility.yul\":6602:6628   */\n      swap1\n      pop\n        /* \"#utility.yul\":6638:6725   */\n      tag_479\n        /* \"#utility.yul\":6722:6723   */\n      0x00\n        /* \"#utility.yul\":6711:6720   */\n      dup4\n        /* \"#utility.yul\":6707:6724   */\n      add\n        /* \"#utility.yul\":6698:6704   */\n      dup5\n        /* \"#utility.yul\":6638:6725   */\n      tag_353\n      jump\t// in\n    tag_479:\n        /* \"#utility.yul\":6478:6732   */\n      swap3\n      swap2\n      pop\n      pop\n      jump\t// out\n        /* \"#utility.yul\":6738:7805   */\n    tag_87:\n        /* \"#utility.yul\":6847:6853   */\n      0x00\n        /* \"#utility.yul\":6855:6861   */\n      dup1\n        /* \"#utility.yul\":6863:6869   */\n      0x00\n        /* \"#utility.yul\":6871:6877   */\n      dup1\n        /* \"#utility.yul\":6879:6885   */\n      0x00\n        /* \"#utility.yul\":6887:6893   */\n      dup1\n        /* \"#utility.yul\":6936:6939   */\n      0xc0\n        /* \"#utility.yul\":6924:6933   */\n      dup8\n        /* \"#utility.yul\":6915:6922   */\n      dup10\n        /* \"#utility.yul\":6911:6934   */\n      sub\n        /* \"#utility.yul\":6907:6940   */\n      slt\n        /* \"#utility.yul\":6904:7024   */\n      iszero\n      tag_481\n      jumpi\n        /* \"#utility.yul\":6943:7022   */\n      tag_482\n      tag_335\n      jump\t// in\n    tag_482:\n        /* \"#utility.yul\":6904:7024   */\n    tag_481:\n        /* \"#utility.yul\":7063:7064   */\n      0x00\n        /* \"#utility.yul\":7088:7138   */\n      tag_483\n        /* \"#utility.yul\":7130:7137   */\n      dup10\n        /* \"#utility.yul\":7121:7127   */\n      dup3\n        /* \"#utility.yul\":7110:7119   */\n      dup11\n        /* \"#utility.yul\":7106:7128   */\n      add\n        /* \"#utility.yul\":7088:7138   */\n      tag_339\n      jump\t// in\n    tag_483:\n        /* \"#utility.yul\":7078:7138   */\n      swap7\n      pop\n        /* \"#utility.yul\":7034:7148   */\n      pop\n        /* \"#utility.yul\":7187:7189   */\n      0x20\n        /* \"#utility.yul\":7213:7266   */\n      tag_484\n        /* \"#utility.yul\":7258:7265   */\n      dup10\n        /* \"#utility.yul\":7249:7255   */\n      dup3\n        /* \"#utility.yul\":7238:7247   */\n      dup11\n        /* \"#utility.yul\":7234:7256   */\n      add\n        /* \"#utility.yul\":7213:7266   */\n      tag_346\n      jump\t// in\n    tag_484:\n        /* \"#utility.yul\":7203:7266   */\n      swap6\n      pop\n        /* \"#utility.yul\":7158:7276   */\n      pop\n        /* \"#utility.yul\":7315:7317   */\n      0x40\n        /* \"#utility.yul\":7341:7394   */\n      tag_485\n        /* \"#utility.yul\":7386:7393   */\n      dup10\n        /* \"#utility.yul\":7377:7383   */\n      dup3\n        /* \"#utility.yul\":7366:7375   */\n      dup11\n        /* \"#utility.yul\":7362:7384   */\n      add\n        /* \"#utility.yul\":7341:7394   */\n      tag_349\n      jump\t// in\n    tag_485:\n        /* \"#utility.yul\":7331:7394   */\n      swap5\n      pop\n        /* \"#utility.yul\":7286:7404   */\n      pop\n        /* \"#utility.yul\":7443:7445   */\n      0x60\n        /* \"#utility.yul\":7469:7522   */\n      tag_486\n        /* \"#utility.yul\":7514:7521   */\n      dup10\n        /* \"#utility.yul\":7505:7511   */\n      dup3\n        /* \"#utility.yul\":7494:7503   */\n      dup11\n        /* \"#utility.yul\":7490:7512   */\n      add\n        /* \"#utility.yul\":7469:7522   */\n      tag_349\n      jump\t// in\n    tag_486:\n        /* \"#utility.yul\":7459:7522   */\n      swap4\n      pop\n        /* \"#utility.yul\":7414:7532   */\n      pop\n        /* \"#utility.yul\":7571:7574   */\n      0x80\n        /* \"#utility.yul\":7598:7659   */\n      tag_487\n        /* \"#utility.yul\":7651:7658   */\n      dup10\n        /* \"#utility.yul\":7642:7648   */\n      dup3\n        /* \"#utility.yul\":7631:7640   */\n      dup11\n        /* \"#utility.yul\":7627:7649   */\n      add\n        /* \"#utility.yul\":7598:7659   */\n      tag_343\n      jump\t// in\n    tag_487:\n        /* \"#utility.yul\":7588:7659   */\n      swap3\n      pop\n        /* \"#utility.yul\":7542:7669   */\n      pop\n        /* \"#utility.yul\":7708:7711   */\n      0xa0\n        /* \"#utility.yul\":7735:7788   */\n      tag_488\n        /* \"#utility.yul\":7780:7787   */\n      dup10\n        /* \"#utility.yul\":7771:7777   */\n      dup3\n        /* \"#utility.yul\":7760:7769   */\n      dup11\n        /* \"#utility.yul\":7756:7778   */\n      add\n        /* \"#utility.yul\":7735:7788   */\n      tag_346\n      jump\t// in\n    tag_488:\n        /* \"#utility.yul\":7725:7788   */\n      swap2\n      pop\n        /* \"#utility.yul\":7679:7798   */\n      pop\n        /* \"#utility.yul\":6738:7805   */\n      swap3\n      swap6\n      pop\n      swap3\n      swap6\n      pop\n      swap3\n      swap6\n      jump\t// out\n        /* \"#utility.yul\":7811:8462   */\n    tag_104:\n        /* \"#utility.yul\":7904:7910   */\n      0x00\n        /* \"#utility.yul\":7912:7918   */\n      dup1\n        /* \"#utility.yul\":7920:7926   */\n      0x00\n        /* \"#utility.yul\":7969:7971   */\n      0x60\n        /* \"#utility.yul\":7957:7966   */\n      dup5\n        /* \"#utility.yul\":7948:7955   */\n      dup7\n        /* \"#utility.yul\":7944:7967   */\n      sub\n        /* \"#utility.yul\":7940:7972   */\n      slt\n        /* \"#utility.yul\":7937:8056   */\n      iszero\n      tag_490\n      jumpi\n        /* \"#utility.yul\":7975:8054   */\n      tag_491\n      tag_335\n      jump\t// in\n    tag_491:\n        /* \"#utility.yul\":7937:8056   */\n    tag_490:\n        /* \"#utility.yul\":8095:8096   */\n      0x00\n        /* \"#utility.yul\":8120:8173   */\n      tag_492\n        /* \"#utility.yul\":8165:8172   */\n      dup7\n        /* \"#utility.yul\":8156:8162   */\n      dup3\n        /* \"#utility.yul\":8145:8154   */\n      dup8\n        /* \"#utility.yul\":8141:8163   */\n      add\n        /* \"#utility.yul\":8120:8173   */\n      tag_349\n      jump\t// in\n    tag_492:\n        /* \"#utility.yul\":8110:8173   */\n      swap4\n      pop\n        /* \"#utility.yul\":8066:8183   */\n      pop\n        /* \"#utility.yul\":8222:8224   */\n      0x20\n        /* \"#utility.yul\":8248:8309   */\n      tag_493\n        /* \"#utility.yul\":8301:8308   */\n      dup7\n        /* \"#utility.yul\":8292:8298   */\n      dup3\n        /* \"#utility.yul\":8281:8290   */\n      dup8\n        /* \"#utility.yul\":8277:8299   */\n      add\n        /* \"#utility.yul\":8248:8309   */\n      tag_343\n      jump\t// in\n    tag_493:\n        /* \"#utility.yul\":8238:8309   */\n      swap3\n      pop\n        /* \"#utility.yul\":8193:8319   */\n      pop\n        /* \"#utility.yul\":8358:8360   */\n      0x40\n        /* \"#utility.yul\":8384:8445   */\n      tag_494\n        /* \"#utility.yul\":8437:8444   */\n      dup7\n        /* \"#utility.yul\":8428:8434   */\n      dup3\n        /* \"#utility.yul\":8417:8426   */\n      dup8\n        /* \"#utility.yul\":8413:8435   */\n      add\n        /* \"#utility.yul\":8384:8445   */\n      tag_343\n      jump\t// in\n    tag_494:\n        /* \"#utility.yul\":8374:8445   */\n      swap2\n      pop\n        /* \"#utility.yul\":8329:8455   */\n      pop\n        /* \"#utility.yul\":7811:8462   */\n      swap3\n      pop\n      swap3\n      pop\n      swap3\n      jump\t// out\n        /* \"#utility.yul\":8468:9265   */\n    tag_125:\n        /* \"#utility.yul\":8570:8576   */\n      0x00\n        /* \"#utility.yul\":8578:8584   */\n      dup1\n        /* \"#utility.yul\":8586:8592   */\n      0x00\n        /* \"#utility.yul\":8594:8600   */\n      dup1\n        /* \"#utility.yul\":8643:8646   */\n      0x80\n        /* \"#utility.yul\":8631:8640   */\n      dup6\n        /* \"#utility.yul\":8622:8629   */\n      dup8\n        /* \"#utility.yul\":8618:8641   */\n      sub\n        /* \"#utility.yul\":8614:8647   */\n      slt\n        /* \"#utility.yul\":8611:8731   */\n      iszero\n      tag_496\n      jumpi\n        /* \"#utility.yul\":8650:8729   */\n      tag_497\n      tag_335\n      jump\t// in\n    tag_497:\n        /* \"#utility.yul\":8611:8731   */\n    tag_496:\n        /* \"#utility.yul\":8770:8771   */\n      0x00\n        /* \"#utility.yul\":8795:8848   */\n      tag_498\n        /* \"#utility.yul\":8840:8847   */\n      dup8\n        /* \"#utility.yul\":8831:8837   */\n      dup3\n        /* \"#utility.yul\":8820:8829   */\n      dup9\n        /* \"#utility.yul\":8816:8838   */\n      add\n        /* \"#utility.yul\":8795:8848   */\n      tag_346\n      jump\t// in\n    tag_498:\n        /* \"#utility.yul\":8785:8848   */\n      swap5\n      pop\n        /* \"#utility.yul\":8741:8858   */\n      pop\n        /* \"#utility.yul\":8897:8899   */\n      0x20\n        /* \"#utility.yul\":8923:8984   */\n      tag_499\n        /* \"#utility.yul\":8976:8983   */\n      dup8\n        /* \"#utility.yul\":8967:8973   */\n      dup3\n        /* \"#utility.yul\":8956:8965   */\n      dup9\n        /* \"#utility.yul\":8952:8974   */\n      add\n        /* \"#utility.yul\":8923:8984   */\n      tag_343\n      jump\t// in\n    tag_499:\n        /* \"#utility.yul\":8913:8984   */\n      swap4\n      pop\n        /* \"#utility.yul\":8868:8994   */\n      pop\n        /* \"#utility.yul\":9033:9035   */\n      0x40\n        /* \"#utility.yul\":9059:9112   */\n      tag_500\n        /* \"#utility.yul\":9104:9111   */\n      dup8\n        /* \"#utility.yul\":9095:9101   */\n      dup3\n        /* \"#utility.yul\":9084:9093   */\n      dup9\n        /* \"#utility.yul\":9080:9102   */\n      add\n        /* \"#utility.yul\":9059:9112   */\n      tag_349\n      jump\t// in\n    tag_500:\n        /* \"#utility.yul\":9049:9112   */\n      swap3\n      pop\n        /* \"#utility.yul\":9004:9122   */\n      pop\n        /* \"#utility.yul\":9161:9163   */\n      0x60\n        /* \"#utility.yul\":9187:9248   */\n      tag_501\n        /* \"#utility.yul\":9240:9247   */\n      dup8\n        /* \"#utility.yul\":9231:9237   */\n      dup3\n        /* \"#utility.yul\":9220:9229   */\n      dup9\n        /* \"#utility.yul\":9216:9238   */\n      add\n        /* \"#utility.yul\":9187:9248   */\n      tag_343\n      jump\t// in\n    tag_501:\n        /* \"#utility.yul\":9177:9248   */\n      swap2\n      pop\n        /* \"#utility.yul\":9132:9258   */\n      pop\n        /* \"#utility.yul\":8468:9265   */\n      swap3\n      swap6\n      swap2\n      swap5\n      pop\n      swap3\n      pop\n      jump\t// out\n        /* \"#utility.yul\":9271:9331   */\n    tag_354:\n        /* \"#utility.yul\":9299:9302   */\n      0x00\n        /* \"#utility.yul\":9320:9325   */\n      dup2\n        /* \"#utility.yul\":9313:9325   */\n      swap1\n      pop\n        /* \"#utility.yul\":9271:9331   */\n      swap2\n      swap1\n      pop\n      jump\t// out\n        /* \"#utility.yul\":9337:9479   */\n    tag_355:\n        /* \"#utility.yul\":9387:9396   */\n      0x00\n        /* \"#utility.yul\":9420:9473   */\n      tag_504\n        /* \"#utility.yul\":9438:9472   */\n      tag_505\n        /* \"#utility.yul\":9447:9471   */\n      tag_506\n        /* \"#utility.yul\":9465:9470   */\n      dup5\n        /* \"#utility.yul\":9447:9471   */\n      tag_340\n      jump\t// in\n    tag_506:\n        /* \"#utility.yul\":9438:9472   */\n      tag_354\n      jump\t// in\n    tag_505:\n        /* \"#utility.yul\":9420:9473   */\n      tag_340\n      jump\t// in\n    tag_504:\n        /* \"#utility.yul\":9407:9473   */\n      swap1\n      pop\n        /* \"#utility.yul\":9337:9479   */\n      swap2\n      swap1\n      pop\n      jump\t// out\n        /* \"#utility.yul\":9485:9611   */\n    tag_356:\n        /* \"#utility.yul\":9535:9544   */\n      0x00\n        /* \"#utility.yul\":9568:9605   */\n      tag_508\n        /* \"#utility.yul\":9599:9604   */\n      dup3\n        /* \"#utility.yul\":9568:9605   */\n      tag_355\n      jump\t// in\n    tag_508:\n        /* \"#utility.yul\":9555:9605   */\n      swap1\n      pop\n        /* \"#utility.yul\":9485:9611   */\n      swap2\n      swap1\n      pop\n      jump\t// out\n        /* \"#utility.yul\":9617:9756   */\n    tag_357:\n        /* \"#utility.yul\":9680:9689   */\n      0x00\n        /* \"#utility.yul\":9713:9750   */\n      tag_510\n        /* \"#utility.yul\":9744:9749   */\n      dup3\n        /* \"#utility.yul\":9713:9750   */\n      tag_356\n      jump\t// in\n    tag_510:\n        /* \"#utility.yul\":9700:9750   */\n      swap1\n      pop\n        /* \"#utility.yul\":9617:9756   */\n      swap2\n      swap1\n      pop\n      jump\t// out\n        /* \"#utility.yul\":9762:9919   */\n    tag_358:\n        /* \"#utility.yul\":9862:9912   */\n      tag_512\n        /* \"#utility.yul\":9906:9911   */\n      dup2\n        /* \"#utility.yul\":9862:9912   */\n      tag_357\n      jump\t// in\n    tag_512:\n        /* \"#utility.yul\":9857:9860   */\n      dup3\n        /* \"#utility.yul\":9850:9913   */\n      mstore\n        /* \"#utility.yul\":9762:9919   */\n      pop\n      pop\n      jump\t// out\n        /* \"#utility.yul\":9925:10173   */\n    tag_135:\n        /* \"#utility.yul\":10031:10035   */\n      0x00\n        /* \"#utility.yul\":10069:10071   */\n      0x20\n        /* \"#utility.yul\":10058:10067   */\n      dup3\n        /* \"#utility.yul\":10054:10072   */\n      add\n        /* \"#utility.yul\":10046:10072   */\n      swap1\n      pop\n        /* \"#utility.yul\":10082:10166   */\n      tag_514\n        /* \"#utility.yul\":10163:10164   */\n      0x00\n        /* \"#utility.yul\":10152:10161   */\n      dup4\n        /* \"#utility.yul\":10148:10165   */\n      add\n        /* \"#utility.yul\":10139:10145   */\n      dup5\n        /* \"#utility.yul\":10082:10166   */\n      tag_358\n      jump\t// in\n    tag_514:\n        /* \"#utility.yul\":9925:10173   */\n      swap3\n      swap2\n      pop\n      pop\n      jump\t// out\n        /* \"#utility.yul\":10179:10348   */\n    tag_359:\n        /* \"#utility.yul\":10263:10274   */\n      0x00\n        /* \"#utility.yul\":10297:10303   */\n      dup3\n        /* \"#utility.yul\":10292:10295   */\n      dup3\n        /* \"#utility.yul\":10285:10304   */\n      mstore\n        /* \"#utility.yul\":10337:10341   */\n      0x20\n        /* \"#utility.yul\":10332:10335   */\n      dup3\n        /* \"#utility.yul\":10328:10342   */\n      add\n        /* \"#utility.yul\":10313:10342   */\n      swap1\n      pop\n        /* \"#utility.yul\":10179:10348   */\n      swap3\n      swap2\n      pop\n      pop\n      jump\t// out\n        /* \"#utility.yul\":10354:10575   */\n    tag_360:\n        /* \"#utility.yul\":10494:10528   */\n      0x4f6e6c7920746865206f776e65722063616e207472616e736665722066756e64\n        /* \"#utility.yul\":10490:10491   */\n      0x00\n        /* \"#utility.yul\":10482:10488   */\n      dup3\n        /* \"#utility.yul\":10478:10492   */\n      add\n        /* \"#utility.yul\":10471:10529   */\n      mstore\n        /* \"#utility.yul\":10563:10567   */\n      0x732e000000000000000000000000000000000000000000000000000000000000\n        /* \"#utility.yul\":10558:10560   */\n      0x20\n        /* \"#utility.yul\":10550:10556   */\n      dup3\n        /* \"#utility.yul\":10546:10561   */\n      add\n        /* \"#utility.yul\":10539:10568   */\n      mstore\n        /* \"#utility.yul\":10354:10575   */\n      pop\n      jump\t// out\n        /* \"#utility.yul\":10581:10947   */\n    tag_361:\n        /* \"#utility.yul\":10723:10726   */\n      0x00\n        /* \"#utility.yul\":10744:10811   */\n      tag_518\n        /* \"#utility.yul\":10808:10810   */\n      0x22\n        /* \"#utility.yul\":10803:10806   */\n      dup4\n        /* \"#utility.yul\":10744:10811   */\n      tag_359\n      jump\t// in\n    tag_518:\n        /* \"#utility.yul\":10737:10811   */\n      swap2\n      pop\n        /* \"#utility.yul\":10820:10913   */\n      tag_519\n        /* \"#utility.yul\":10909:10912   */\n      dup3\n        /* \"#utility.yul\":10820:10913   */\n      tag_360\n      jump\t// in\n    tag_519:\n        /* \"#utility.yul\":10938:10940   */\n      0x40\n        /* \"#utility.yul\":10933:10936   */\n      dup3\n        /* \"#utility.yul\":10929:10941   */\n      add\n        /* \"#utility.yul\":10922:10941   */\n      swap1\n      pop\n        /* \"#utility.yul\":10581:10947   */\n      swap2\n      swap1\n      pop\n      jump\t// out\n        /* \"#utility.yul\":10953:11372   */\n    tag_151:\n        /* \"#utility.yul\":11119:11123   */\n      0x00\n        /* \"#utility.yul\":11157:11159   */\n      0x20\n        /* \"#utility.yul\":11146:11155   */\n      dup3\n        /* \"#utility.yul\":11142:11160   */\n      add\n        /* \"#utility.yul\":11134:11160   */\n      swap1\n      pop\n        /* \"#utility.yul\":11206:11215   */\n      dup2\n        /* \"#utility.yul\":11200:11204   */\n      dup2\n        /* \"#utility.yul\":11196:11216   */\n      sub\n        /* \"#utility.yul\":11192:11193   */\n      0x00\n        /* \"#utility.yul\":11181:11190   */\n      dup4\n        /* \"#utility.yul\":11177:11194   */\n      add\n        /* \"#utility.yul\":11170:11217   */\n      mstore\n        /* \"#utility.yul\":11234:11365   */\n      tag_521\n        /* \"#utility.yul\":11360:11364   */\n      dup2\n        /* \"#utility.yul\":11234:11365   */\n      tag_361\n      jump\t// in\n    tag_521:\n        /* \"#utility.yul\":11226:11365   */\n      swap1\n      pop\n        /* \"#utility.yul\":10953:11372   */\n      swap2\n      swap1\n      pop\n      jump\t// out\n        /* \"#utility.yul\":11378:11606   */\n    tag_362:\n        /* \"#utility.yul\":11518:11552   */\n      0x4163636f756e742069732066726f7a656e2c2063616e6e6f7420776974686472\n        /* \"#utility.yul\":11514:11515   */\n      0x00\n        /* \"#utility.yul\":11506:11512   */\n      dup3\n        /* \"#utility.yul\":11502:11516   */\n      add\n        /* \"#utility.yul\":11495:11553   */\n      mstore\n        /* \"#utility.yul\":11587:11598   */\n      0x61772066756e64732e0000000000000000000000000000000000000000000000\n        /* \"#utility.yul\":11582:11584   */\n      0x20\n        /* \"#utility.yul\":11574:11580   */\n      dup3\n        /* \"#utility.yul\":11570:11585   */\n      add\n        /* \"#utility.yul\":11563:11599   */\n      mstore\n        /* \"#utility.yul\":11378:11606   */\n      pop\n      jump\t// out\n        /* \"#utility.yul\":11612:11978   */\n    tag_363:\n        /* \"#utility.yul\":11754:11757   */\n      0x00\n        /* \"#utility.yul\":11775:11842   */\n      tag_524\n        /* \"#utility.yul\":11839:11841   */\n      0x29\n        /* \"#utility.yul\":11834:11837   */\n      dup4\n        /* \"#utility.yul\":11775:11842   */\n      tag_359\n      jump\t// in\n    tag_524:\n        /* \"#utility.yul\":11768:11842   */\n      swap2\n      pop\n        /* \"#utility.yul\":11851:11944   */\n      tag_525\n        /* \"#utility.yul\":11940:11943   */\n      dup3\n        /* \"#utility.yul\":11851:11944   */\n      tag_362\n      jump\t// in\n    tag_525:\n        /* \"#utility.yul\":11969:11971   */\n      0x40\n        /* \"#utility.yul\":11964:11967   */\n      dup3\n        /* \"#utility.yul\":11960:11972   */\n      add\n        /* \"#utility.yul\":11953:11972   */\n      swap1\n      pop\n        /* \"#utility.yul\":11612:11978   */\n      swap2\n      swap1\n      pop\n      jump\t// out\n        /* \"#utility.yul\":11984:12403   */\n    tag_154:\n        /* \"#utility.yul\":12150:12154   */\n      0x00\n        /* \"#utility.yul\":12188:12190   */\n      0x20\n        /* \"#utility.yul\":12177:12186   */\n      dup3\n        /* \"#utility.yul\":12173:12191   */\n      add\n        /* \"#utility.yul\":12165:12191   */\n      swap1\n      pop\n        /* \"#utility.yul\":12237:12246   */\n      dup2\n        /* \"#utility.yul\":12231:12235   */\n      dup2\n        /* \"#utility.yul\":12227:12247   */\n      sub\n        /* \"#utility.yul\":12223:12224   */\n      0x00\n        /* \"#utility.yul\":12212:12221   */\n      dup4\n        /* \"#utility.yul\":12208:12225   */\n      add\n        /* \"#utility.yul\":12201:12248   */\n      mstore\n        /* \"#utility.yul\":12265:12396   */\n      tag_527\n        /* \"#utility.yul\":12391:12395   */\n      dup2\n        /* \"#utility.yul\":12265:12396   */\n      tag_363\n      jump\t// in\n    tag_527:\n        /* \"#utility.yul\":12257:12396   */\n      swap1\n      pop\n        /* \"#utility.yul\":11984:12403   */\n      swap2\n      swap1\n      pop\n      jump\t// out\n        /* \"#utility.yul\":12409:12578   */\n    tag_364:\n        /* \"#utility.yul\":12549:12570   */\n      0x496e73756666696369656e742066756e64732e00000000000000000000000000\n        /* \"#utility.yul\":12545:12546   */\n      0x00\n        /* \"#utility.yul\":12537:12543   */\n      dup3\n        /* \"#utility.yul\":12533:12547   */\n      add\n        /* \"#utility.yul\":12526:12571   */\n      mstore\n        /* \"#utility.yul\":12409:12578   */\n      pop\n      jump\t// out\n        /* \"#utility.yul\":12584:12950   */\n    tag_365:\n        /* \"#utility.yul\":12726:12729   */\n      0x00\n        /* \"#utility.yul\":12747:12814   */\n      tag_530\n        /* \"#utility.yul\":12811:12813   */\n      0x13\n        /* \"#utility.yul\":12806:12809   */\n      dup4\n        /* \"#utility.yul\":12747:12814   */\n      tag_359\n      jump\t// in\n    tag_530:\n        /* \"#utility.yul\":12740:12814   */\n      swap2\n      pop\n        /* \"#utility.yul\":12823:12916   */\n      tag_531\n        /* \"#utility.yul\":12912:12915   */\n      dup3\n        /* \"#utility.yul\":12823:12916   */\n      tag_364\n      jump\t// in\n    tag_531:\n        /* \"#utility.yul\":12941:12943   */\n      0x20\n        /* \"#utility.yul\":12936:12939   */\n      dup3\n        /* \"#utility.yul\":12932:12944   */\n      add\n        /* \"#utility.yul\":12925:12944   */\n      swap1\n      pop\n        /* \"#utility.yul\":12584:12950   */\n      swap2\n      swap1\n      pop\n      jump\t// out\n        /* \"#utility.yul\":12956:13375   */\n    tag_158:\n        /* \"#utility.yul\":13122:13126   */\n      0x00\n        /* \"#utility.yul\":13160:13162   */\n      0x20\n        /* \"#utility.yul\":13149:13158   */\n      dup3\n        /* \"#utility.yul\":13145:13163   */\n      add\n        /* \"#utility.yul\":13137:13163   */\n      swap1\n      pop\n        /* \"#utility.yul\":13209:13218   */\n      dup2\n        /* \"#utility.yul\":13203:13207   */\n      dup2\n        /* \"#utility.yul\":13199:13219   */\n      sub\n        /* \"#utility.yul\":13195:13196   */\n      0x00\n        /* \"#utility.yul\":13184:13193   */\n      dup4\n        /* \"#utility.yul\":13180:13197   */\n      add\n        /* \"#utility.yul\":13173:13220   */\n      mstore\n        /* \"#utility.yul\":13237:13368   */\n      tag_533\n        /* \"#utility.yul\":13363:13367   */\n      dup2\n        /* \"#utility.yul\":13237:13368   */\n      tag_365\n      jump\t// in\n    tag_533:\n        /* \"#utility.yul\":13229:13368   */\n      swap1\n      pop\n        /* \"#utility.yul\":12956:13375   */\n      swap2\n      swap1\n      pop\n      jump\t// out\n        /* \"#utility.yul\":13381:13605   */\n    tag_366:\n        /* \"#utility.yul\":13521:13555   */\n      0x5468652066756e6374696f6e20697320616c726561647920696e206578656375\n        /* \"#utility.yul\":13517:13518   */\n      0x00\n        /* \"#utility.yul\":13509:13515   */\n      dup3\n        /* \"#utility.yul\":13505:13519   */\n      add\n        /* \"#utility.yul\":13498:13556   */\n      mstore\n        /* \"#utility.yul\":13590:13597   */\n      0x74696f6e2e000000000000000000000000000000000000000000000000000000\n        /* \"#utility.yul\":13585:13587   */\n      0x20\n        /* \"#utility.yul\":13577:13583   */\n      dup3\n        /* \"#utility.yul\":13573:13588   */\n      add\n        /* \"#utility.yul\":13566:13598   */\n      mstore\n        /* \"#utility.yul\":13381:13605   */\n      pop\n      jump\t// out\n        /* \"#utility.yul\":13611:13977   */\n    tag_367:\n        /* \"#utility.yul\":13753:13756   */\n      0x00\n        /* \"#utility.yul\":13774:13841   */\n      tag_536\n        /* \"#utility.yul\":13838:13840   */\n      0x25\n        /* \"#utility.yul\":13833:13836   */\n      dup4\n        /* \"#utility.yul\":13774:13841   */\n      tag_359\n      jump\t// in\n    tag_536:\n        /* \"#utility.yul\":13767:13841   */\n      swap2\n      pop\n        /* \"#utility.yul\":13850:13943   */\n      tag_537\n        /* \"#utility.yul\":13939:13942   */\n      dup3\n        /* \"#utility.yul\":13850:13943   */\n      tag_366\n      jump\t// in\n    tag_537:\n        /* \"#utility.yul\":13968:13970   */\n      0x40\n        /* \"#utility.yul\":13963:13966   */\n      dup3\n        /* \"#utility.yul\":13959:13971   */\n      add\n        /* \"#utility.yul\":13952:13971   */\n      swap1\n      pop\n        /* \"#utility.yul\":13611:13977   */\n      swap2\n      swap1\n      pop\n      jump\t// out\n        /* \"#utility.yul\":13983:14402   */\n    tag_161:\n        /* \"#utility.yul\":14149:14153   */\n      0x00\n        /* \"#utility.yul\":14187:14189   */\n      0x20\n        /* \"#utility.yul\":14176:14185   */\n      dup3\n        /* \"#utility.yul\":14172:14190   */\n      add\n        /* \"#utility.yul\":14164:14190   */\n      swap1\n      pop\n        /* \"#utility.yul\":14236:14245   */\n      dup2\n        /* \"#utility.yul\":14230:14234   */\n      dup2\n        /* \"#utility.yul\":14226:14246   */\n      sub\n        /* \"#utility.yul\":14222:14223   */\n      0x00\n        /* \"#utility.yul\":14211:14220   */\n      dup4\n        /* \"#utility.yul\":14207:14224   */\n      add\n        /* \"#utility.yul\":14200:14247   */\n      mstore\n        /* \"#utility.yul\":14264:14395   */\n      tag_539\n        /* \"#utility.yul\":14390:14394   */\n      dup2\n        /* \"#utility.yul\":14264:14395   */\n      tag_367\n      jump\t// in\n    tag_539:\n        /* \"#utility.yul\":14256:14395   */\n      swap1\n      pop\n        /* \"#utility.yul\":13983:14402   */\n      swap2\n      swap1\n      pop\n      jump\t// out\n        /* \"#utility.yul\":14408:14551   */\n    tag_368:\n        /* \"#utility.yul\":14465:14470   */\n      0x00\n        /* \"#utility.yul\":14496:14502   */\n      dup2\n        /* \"#utility.yul\":14490:14503   */\n      mload\n        /* \"#utility.yul\":14481:14503   */\n      swap1\n      pop\n        /* \"#utility.yul\":14512:14545   */\n      tag_541\n        /* \"#utility.yul\":14539:14544   */\n      dup2\n        /* \"#utility.yul\":14512:14545   */\n      tag_345\n      jump\t// in\n    tag_541:\n        /* \"#utility.yul\":14408:14551   */\n      swap3\n      swap2\n      pop\n      pop\n      jump\t// out\n        /* \"#utility.yul\":14557:14908   */\n    tag_177:\n        /* \"#utility.yul\":14627:14633   */\n      0x00\n        /* \"#utility.yul\":14676:14678   */\n      0x20\n        /* \"#utility.yul\":14664:14673   */\n      dup3\n        /* \"#utility.yul\":14655:14662   */\n      dup5\n        /* \"#utility.yul\":14651:14674   */\n      sub\n        /* \"#utility.yul\":14647:14679   */\n      slt\n        /* \"#utility.yul\":14644:14763   */\n      iszero\n      tag_543\n      jumpi\n        /* \"#utility.yul\":14682:14761   */\n      tag_544\n      tag_335\n      jump\t// in\n    tag_544:\n        /* \"#utility.yul\":14644:14763   */\n    tag_543:\n        /* \"#utility.yul\":14802:14803   */\n      0x00\n        /* \"#utility.yul\":14827:14891   */\n      tag_545\n        /* \"#utility.yul\":14883:14890   */\n      dup5\n        /* \"#utility.yul\":14874:14880   */\n      dup3\n        /* \"#utility.yul\":14863:14872   */\n      dup6\n        /* \"#utility.yul\":14859:14881   */\n      add\n        /* \"#utility.yul\":14827:14891   */\n      tag_368\n      jump\t// in\n    tag_545:\n        /* \"#utility.yul\":14817:14891   */\n      swap2\n      pop\n        /* \"#utility.yul\":14773:14901   */\n      pop\n        /* \"#utility.yul\":14557:14908   */\n      swap3\n      swap2\n      pop\n      pop\n      jump\t// out\n        /* \"#utility.yul\":14914:15048   */\n    tag_369:\n        /* \"#utility.yul\":14972:14981   */\n      0x00\n        /* \"#utility.yul\":15005:15042   */\n      tag_547\n        /* \"#utility.yul\":15036:15041   */\n      dup3\n        /* \"#utility.yul\":15005:15042   */\n      tag_356\n      jump\t// in\n    tag_547:\n        /* \"#utility.yul\":14992:15042   */\n      swap1\n      pop\n        /* \"#utility.yul\":14914:15048   */\n      swap2\n      swap1\n      pop\n      jump\t// out\n        /* \"#utility.yul\":15054:15201   */\n    tag_370:\n        /* \"#utility.yul\":15149:15194   */\n      tag_549\n        /* \"#utility.yul\":15188:15193   */\n      dup2\n        /* \"#utility.yul\":15149:15194   */\n      tag_369\n      jump\t// in\n    tag_549:\n        /* \"#utility.yul\":15144:15147   */\n      dup3\n        /* \"#utility.yul\":15137:15195   */\n      mstore\n        /* \"#utility.yul\":15054:15201   */\n      pop\n      pop\n      jump\t// out\n        /* \"#utility.yul\":15207:15555   */\n    tag_186:\n        /* \"#utility.yul\":15336:15340   */\n      0x00\n        /* \"#utility.yul\":15374:15376   */\n      0x40\n        /* \"#utility.yul\":15363:15372   */\n      dup3\n        /* \"#utility.yul\":15359:15377   */\n      add\n        /* \"#utility.yul\":15351:15377   */\n      swap1\n      pop\n        /* \"#utility.yul\":15387:15466   */\n      tag_551\n        /* \"#utility.yul\":15463:15464   */\n      0x00\n        /* \"#utility.yul\":15452:15461   */\n      dup4\n        /* \"#utility.yul\":15448:15465   */\n      add\n        /* \"#utility.yul\":15439:15445   */\n      dup6\n        /* \"#utility.yul\":15387:15466   */\n      tag_370\n      jump\t// in\n    tag_551:\n        /* \"#utility.yul\":15476:15548   */\n      tag_552\n        /* \"#utility.yul\":15544:15546   */\n      0x20\n        /* \"#utility.yul\":15533:15542   */\n      dup4\n        /* \"#utility.yul\":15529:15547   */\n      add\n        /* \"#utility.yul\":15520:15526   */\n      dup5\n        /* \"#utility.yul\":15476:15548   */\n      tag_351\n      jump\t// in\n    tag_552:\n        /* \"#utility.yul\":15207:15555   */\n      swap4\n      swap3\n      pop\n      pop\n      pop\n      jump\t// out\n        /* \"#utility.yul\":15561:15698   */\n    tag_371:\n        /* \"#utility.yul\":15615:15620   */\n      0x00\n        /* \"#utility.yul\":15646:15652   */\n      dup2\n        /* \"#utility.yul\":15640:15653   */\n      mload\n        /* \"#utility.yul\":15631:15653   */\n      swap1\n      pop\n        /* \"#utility.yul\":15662:15692   */\n      tag_554\n        /* \"#utility.yul\":15686:15691   */\n      dup2\n        /* \"#utility.yul\":15662:15692   */\n      tag_338\n      jump\t// in\n    tag_554:\n        /* \"#utility.yul\":15561:15698   */\n      swap3\n      swap2\n      pop\n      pop\n      jump\t// out\n        /* \"#utility.yul\":15704:16049   */\n    tag_190:\n        /* \"#utility.yul\":15771:15777   */\n      0x00\n        /* \"#utility.yul\":15820:15822   */\n      0x20\n        /* \"#utility.yul\":15808:15817   */\n      dup3\n        /* \"#utility.yul\":15799:15806   */\n      dup5\n        /* \"#utility.yul\":15795:15818   */\n      sub\n        /* \"#utility.yul\":15791:15823   */\n      slt\n        /* \"#utility.yul\":15788:15907   */\n      iszero\n      tag_556\n      jumpi\n        /* \"#utility.yul\":15826:15905   */\n      tag_557\n      tag_335\n      jump\t// in\n    tag_557:\n        /* \"#utility.yul\":15788:15907   */\n    tag_556:\n        /* \"#utility.yul\":15946:15947   */\n      0x00\n        /* \"#utility.yul\":15971:16032   */\n      tag_558\n        /* \"#utility.yul\":16024:16031   */\n      dup5\n        /* \"#utility.yul\":16015:16021   */\n      dup3\n        /* \"#utility.yul\":16004:16013   */\n      dup6\n        /* \"#utility.yul\":16000:16022   */\n      add\n        /* \"#utility.yul\":15971:16032   */\n      tag_371\n      jump\t// in\n    tag_558:\n        /* \"#utility.yul\":15961:16032   */\n      swap2\n      pop\n        /* \"#utility.yul\":15917:16042   */\n      pop\n        /* \"#utility.yul\":15704:16049   */\n      swap3\n      swap2\n      pop\n      pop\n      jump\t// out\n        /* \"#utility.yul\":16055:16278   */\n    tag_372:\n        /* \"#utility.yul\":16195:16229   */\n      0x4f6e6c792074686520686569722063616e20636c61696d20746865206163636f\n        /* \"#utility.yul\":16191:16192   */\n      0x00\n        /* \"#utility.yul\":16183:16189   */\n      dup3\n        /* \"#utility.yul\":16179:16193   */\n      add\n        /* \"#utility.yul\":16172:16230   */\n      mstore\n        /* \"#utility.yul\":16264:16270   */\n      0x756e742e00000000000000000000000000000000000000000000000000000000\n        /* \"#utility.yul\":16259:16261   */\n      0x20\n        /* \"#utility.yul\":16251:16257   */\n      dup3\n        /* \"#utility.yul\":16247:16262   */\n      add\n        /* \"#utility.yul\":16240:16271   */\n      mstore\n        /* \"#utility.yul\":16055:16278   */\n      pop\n      jump\t// out\n        /* \"#utility.yul\":16284:16650   */\n    tag_373:\n        /* \"#utility.yul\":16426:16429   */\n      0x00\n        /* \"#utility.yul\":16447:16514   */\n      tag_561\n        /* \"#utility.yul\":16511:16513   */\n      0x24\n        /* \"#utility.yul\":16506:16509   */\n      dup4\n        /* \"#utility.yul\":16447:16514   */\n      tag_359\n      jump\t// in\n    tag_561:\n        /* \"#utility.yul\":16440:16514   */\n      swap2\n      pop\n        /* \"#utility.yul\":16523:16616   */\n      tag_562\n        /* \"#utility.yul\":16612:16615   */\n      dup3\n        /* \"#utility.yul\":16523:16616   */\n      tag_372\n      jump\t// in\n    tag_562:\n        /* \"#utility.yul\":16641:16643   */\n      0x40\n        /* \"#utility.yul\":16636:16639   */\n      dup3\n        /* \"#utility.yul\":16632:16644   */\n      add\n        /* \"#utility.yul\":16625:16644   */\n      swap1\n      pop\n        /* \"#utility.yul\":16284:16650   */\n      swap2\n      swap1\n      pop\n      jump\t// out\n        /* \"#utility.yul\":16656:17075   */\n    tag_205:\n        /* \"#utility.yul\":16822:16826   */\n      0x00\n        /* \"#utility.yul\":16860:16862   */\n      0x20\n        /* \"#utility.yul\":16849:16858   */\n      dup3\n        /* \"#utility.yul\":16845:16863   */\n      add\n        /* \"#utility.yul\":16837:16863   */\n      swap1\n      pop\n        /* \"#utility.yul\":16909:16918   */\n      dup2\n        /* \"#utility.yul\":16903:16907   */\n      dup2\n        /* \"#utility.yul\":16899:16919   */\n      sub\n        /* \"#utility.yul\":16895:16896   */\n      0x00\n        /* \"#utility.yul\":16884:16893   */\n      dup4\n        /* \"#utility.yul\":16880:16897   */\n      add\n        /* \"#utility.yul\":16873:16920   */\n      mstore\n        /* \"#utility.yul\":16937:17068   */\n      tag_564\n        /* \"#utility.yul\":17063:17067   */\n      dup2\n        /* \"#utility.yul\":16937:17068   */\n      tag_373\n      jump\t// in\n    tag_564:\n        /* \"#utility.yul\":16929:17068   */\n      swap1\n      pop\n        /* \"#utility.yul\":16656:17075   */\n      swap2\n      swap1\n      pop\n      jump\t// out\n        /* \"#utility.yul\":17081:17305   */\n    tag_374:\n        /* \"#utility.yul\":17221:17255   */\n      0x436c61696d2070726f6365737320686173206e6f74206265656e20696e697469\n        /* \"#utility.yul\":17217:17218   */\n      0x00\n        /* \"#utility.yul\":17209:17215   */\n      dup3\n        /* \"#utility.yul\":17205:17219   */\n      add\n        /* \"#utility.yul\":17198:17256   */\n      mstore\n        /* \"#utility.yul\":17290:17297   */\n      0x617465642e000000000000000000000000000000000000000000000000000000\n        /* \"#utility.yul\":17285:17287   */\n      0x20\n        /* \"#utility.yul\":17277:17283   */\n      dup3\n        /* \"#utility.yul\":17273:17288   */\n      add\n        /* \"#utility.yul\":17266:17298   */\n      mstore\n        /* \"#utility.yul\":17081:17305   */\n      pop\n      jump\t// out\n        /* \"#utility.yul\":17311:17677   */\n    tag_375:\n        /* \"#utility.yul\":17453:17456   */\n      0x00\n        /* \"#utility.yul\":17474:17541   */\n      tag_567\n        /* \"#utility.yul\":17538:17540   */\n      0x25\n        /* \"#utility.yul\":17533:17536   */\n      dup4\n        /* \"#utility.yul\":17474:17541   */\n      tag_359\n      jump\t// in\n    tag_567:\n        /* \"#utility.yul\":17467:17541   */\n      swap2\n      pop\n        /* \"#utility.yul\":17550:17643   */\n      tag_568\n        /* \"#utility.yul\":17639:17642   */\n      dup3\n        /* \"#utility.yul\":17550:17643   */\n      tag_374\n      jump\t// in\n    tag_568:\n        /* \"#utility.yul\":17668:17670   */\n      0x40\n        /* \"#utility.yul\":17663:17666   */\n      dup3\n        /* \"#utility.yul\":17659:17671   */\n      add\n        /* \"#utility.yul\":17652:17671   */\n      swap1\n      pop\n        /* \"#utility.yul\":17311:17677   */\n      swap2\n      swap1\n      pop\n      jump\t// out\n        /* \"#utility.yul\":17683:18102   */\n    tag_208:\n        /* \"#utility.yul\":17849:17853   */\n      0x00\n        /* \"#utility.yul\":17887:17889   */\n      0x20\n        /* \"#utility.yul\":17876:17885   */\n      dup3\n        /* \"#utility.yul\":17872:17890   */\n      add\n        /* \"#utility.yul\":17864:17890   */\n      swap1\n      pop\n        /* \"#utility.yul\":17936:17945   */\n      dup2\n        /* \"#utility.yul\":17930:17934   */\n      dup2\n        /* \"#utility.yul\":17926:17946   */\n      sub\n        /* \"#utility.yul\":17922:17923   */\n      0x00\n        /* \"#utility.yul\":17911:17920   */\n      dup4\n        /* \"#utility.yul\":17907:17924   */\n      add\n        /* \"#utility.yul\":17900:17947   */\n      mstore\n        /* \"#utility.yul\":17964:18095   */\n      tag_570\n        /* \"#utility.yul\":18090:18094   */\n      dup2\n        /* \"#utility.yul\":17964:18095   */\n      tag_375\n      jump\t// in\n    tag_570:\n        /* \"#utility.yul\":17956:18095   */\n      swap1\n      pop\n        /* \"#utility.yul\":17683:18102   */\n      swap2\n      swap1\n      pop\n      jump\t// out\n        /* \"#utility.yul\":18108:18288   */\n    tag_376:\n        /* \"#utility.yul\":18156:18233   */\n      0x4e487b7100000000000000000000000000000000000000000000000000000000\n        /* \"#utility.yul\":18153:18154   */\n      0x00\n        /* \"#utility.yul\":18146:18234   */\n      mstore\n        /* \"#utility.yul\":18253:18257   */\n      0x11\n        /* \"#utility.yul\":18250:18251   */\n      0x04\n        /* \"#utility.yul\":18243:18258   */\n      mstore\n        /* \"#utility.yul\":18277:18281   */\n      0x24\n        /* \"#utility.yul\":18274:18275   */\n      0x00\n        /* \"#utility.yul\":18267:18282   */\n      revert\n        /* \"#utility.yul\":18294:18704   */\n    tag_210:\n        /* \"#utility.yul\":18334:18341   */\n      0x00\n        /* \"#utility.yul\":18357:18377   */\n      tag_573\n        /* \"#utility.yul\":18375:18376   */\n      dup3\n        /* \"#utility.yul\":18357:18377   */\n      tag_344\n      jump\t// in\n    tag_573:\n        /* \"#utility.yul\":18352:18377   */\n      swap2\n      pop\n        /* \"#utility.yul\":18391:18411   */\n      tag_574\n        /* \"#utility.yul\":18409:18410   */\n      dup4\n        /* \"#utility.yul\":18391:18411   */\n      tag_344\n      jump\t// in\n    tag_574:\n        /* \"#utility.yul\":18386:18411   */\n      swap3\n      pop\n        /* \"#utility.yul\":18446:18447   */\n      dup3\n        /* \"#utility.yul\":18443:18444   */\n      dup3\n        /* \"#utility.yul\":18439:18448   */\n      mul\n        /* \"#utility.yul\":18468:18498   */\n      tag_575\n        /* \"#utility.yul\":18486:18497   */\n      dup2\n        /* \"#utility.yul\":18468:18498   */\n      tag_344\n      jump\t// in\n    tag_575:\n        /* \"#utility.yul\":18457:18498   */\n      swap2\n      pop\n        /* \"#utility.yul\":18647:18648   */\n      dup3\n        /* \"#utility.yul\":18638:18645   */\n      dup3\n        /* \"#utility.yul\":18634:18649   */\n      div\n        /* \"#utility.yul\":18631:18632   */\n      dup5\n        /* \"#utility.yul\":18628:18650   */\n      eq\n        /* \"#utility.yul\":18608:18609   */\n      dup4\n        /* \"#utility.yul\":18601:18610   */\n      iszero\n        /* \"#utility.yul\":18581:18664   */\n      or\n        /* \"#utility.yul\":18558:18697   */\n      tag_576\n      jumpi\n        /* \"#utility.yul\":18677:18695   */\n      tag_577\n      tag_376\n      jump\t// in\n    tag_577:\n        /* \"#utility.yul\":18558:18697   */\n    tag_576:\n        /* \"#utility.yul\":18342:18704   */\n      pop\n        /* \"#utility.yul\":18294:18704   */\n      swap3\n      swap2\n      pop\n      pop\n      jump\t// out\n        /* \"#utility.yul\":18710:18901   */\n    tag_212:\n        /* \"#utility.yul\":18750:18753   */\n      0x00\n        /* \"#utility.yul\":18769:18789   */\n      tag_579\n        /* \"#utility.yul\":18787:18788   */\n      dup3\n        /* \"#utility.yul\":18769:18789   */\n      tag_344\n      jump\t// in\n    tag_579:\n        /* \"#utility.yul\":18764:18789   */\n      swap2\n      pop\n        /* \"#utility.yul\":18803:18823   */\n      tag_580\n        /* \"#utility.yul\":18821:18822   */\n      dup4\n        /* \"#utility.yul\":18803:18823   */\n      tag_344\n      jump\t// in\n    tag_580:\n        /* \"#utility.yul\":18798:18823   */\n      swap3\n      pop\n        /* \"#utility.yul\":18846:18847   */\n      dup3\n        /* \"#utility.yul\":18843:18844   */\n      dup3\n        /* \"#utility.yul\":18839:18848   */\n      add\n        /* \"#utility.yul\":18832:18848   */\n      swap1\n      pop\n        /* \"#utility.yul\":18867:18870   */\n      dup1\n        /* \"#utility.yul\":18864:18865   */\n      dup3\n        /* \"#utility.yul\":18861:18871   */\n      gt\n        /* \"#utility.yul\":18858:18894   */\n      iszero\n      tag_581\n      jumpi\n        /* \"#utility.yul\":18874:18892   */\n      tag_582\n      tag_376\n      jump\t// in\n    tag_582:\n        /* \"#utility.yul\":18858:18894   */\n    tag_581:\n        /* \"#utility.yul\":18710:18901   */\n      swap3\n      swap2\n      pop\n      pop\n      jump\t// out\n        /* \"#utility.yul\":18907:19085   */\n    tag_377:\n        /* \"#utility.yul\":19047:19077   */\n      0x436c61696d2064656c617920686173206e6f7420657870697265642e00000000\n        /* \"#utility.yul\":19043:19044   */\n      0x00\n        /* \"#utility.yul\":19035:19041   */\n      dup3\n        /* \"#utility.yul\":19031:19045   */\n      add\n        /* \"#utility.yul\":19024:19078   */\n      mstore\n        /* \"#utility.yul\":18907:19085   */\n      pop\n      jump\t// out\n        /* \"#utility.yul\":19091:19457   */\n    tag_378:\n        /* \"#utility.yul\":19233:19236   */\n      0x00\n        /* \"#utility.yul\":19254:19321   */\n      tag_585\n        /* \"#utility.yul\":19318:19320   */\n      0x1c\n        /* \"#utility.yul\":19313:19316   */\n      dup4\n        /* \"#utility.yul\":19254:19321   */\n      tag_359\n      jump\t// in\n    tag_585:\n        /* \"#utility.yul\":19247:19321   */\n      swap2\n      pop\n        /* \"#utility.yul\":19330:19423   */\n      tag_586\n        /* \"#utility.yul\":19419:19422   */\n      dup3\n        /* \"#utility.yul\":19330:19423   */\n      tag_377\n      jump\t// in\n    tag_586:\n        /* \"#utility.yul\":19448:19450   */\n      0x20\n        /* \"#utility.yul\":19443:19446   */\n      dup3\n        /* \"#utility.yul\":19439:19451   */\n      add\n        /* \"#utility.yul\":19432:19451   */\n      swap1\n      pop\n        /* \"#utility.yul\":19091:19457   */\n      swap2\n      swap1\n      pop\n      jump\t// out\n        /* \"#utility.yul\":19463:19882   */\n    tag_215:\n        /* \"#utility.yul\":19629:19633   */\n      0x00\n        /* \"#utility.yul\":19667:19669   */\n      0x20\n        /* \"#utility.yul\":19656:19665   */\n      dup3\n        /* \"#utility.yul\":19652:19670   */\n      add\n        /* \"#utility.yul\":19644:19670   */\n      swap1\n      pop\n        /* \"#utility.yul\":19716:19725   */\n      dup2\n        /* \"#utility.yul\":19710:19714   */\n      dup2\n        /* \"#utility.yul\":19706:19726   */\n      sub\n        /* \"#utility.yul\":19702:19703   */\n      0x00\n        /* \"#utility.yul\":19691:19700   */\n      dup4\n        /* \"#utility.yul\":19687:19704   */\n      add\n        /* \"#utility.yul\":19680:19727   */\n      mstore\n        /* \"#utility.yul\":19744:19875   */\n      tag_588\n        /* \"#utility.yul\":19870:19874   */\n      dup2\n        /* \"#utility.yul\":19744:19875   */\n      tag_378\n      jump\t// in\n    tag_588:\n        /* \"#utility.yul\":19736:19875   */\n      swap1\n      pop\n        /* \"#utility.yul\":19463:19882   */\n      swap2\n      swap1\n      pop\n      jump\t// out\n        /* \"#utility.yul\":19888:20063   */\n    tag_379:\n        /* \"#utility.yul\":20028:20055   */\n      0x43616e6e6f74206465706f7369742030206f72206c6573732e00000000000000\n        /* \"#utility.yul\":20024:20025   */\n      0x00\n        /* \"#utility.yul\":20016:20022   */\n      dup3\n        /* \"#utility.yul\":20012:20026   */\n      add\n        /* \"#utility.yul\":20005:20056   */\n      mstore\n        /* \"#utility.yul\":19888:20063   */\n      pop\n      jump\t// out\n        /* \"#utility.yul\":20069:20435   */\n    tag_380:\n        /* \"#utility.yul\":20211:20214   */\n      0x00\n        /* \"#utility.yul\":20232:20299   */\n      tag_591\n        /* \"#utility.yul\":20296:20298   */\n      0x19\n        /* \"#utility.yul\":20291:20294   */\n      dup4\n        /* \"#utility.yul\":20232:20299   */\n      tag_359\n      jump\t// in\n    tag_591:\n        /* \"#utility.yul\":20225:20299   */\n      swap2\n      pop\n        /* \"#utility.yul\":20308:20401   */\n      tag_592\n        /* \"#utility.yul\":20397:20400   */\n      dup3\n        /* \"#utility.yul\":20308:20401   */\n      tag_379\n      jump\t// in\n    tag_592:\n        /* \"#utility.yul\":20426:20428   */\n      0x20\n        /* \"#utility.yul\":20421:20424   */\n      dup3\n        /* \"#utility.yul\":20417:20429   */\n      add\n        /* \"#utility.yul\":20410:20429   */\n      swap1\n      pop\n        /* \"#utility.yul\":20069:20435   */\n      swap2\n      swap1\n      pop\n      jump\t// out\n        /* \"#utility.yul\":20441:20860   */\n    tag_219:\n        /* \"#utility.yul\":20607:20611   */\n      0x00\n        /* \"#utility.yul\":20645:20647   */\n      0x20\n        /* \"#utility.yul\":20634:20643   */\n      dup3\n        /* \"#utility.yul\":20630:20648   */\n      add\n        /* \"#utility.yul\":20622:20648   */\n      swap1\n      pop\n        /* \"#utility.yul\":20694:20703   */\n      dup2\n        /* \"#utility.yul\":20688:20692   */\n      dup2\n        /* \"#utility.yul\":20684:20704   */\n      sub\n        /* \"#utility.yul\":20680:20681   */\n      0x00\n        /* \"#utility.yul\":20669:20678   */\n      dup4\n        /* \"#utility.yul\":20665:20682   */\n      add\n        /* \"#utility.yul\":20658:20705   */\n      mstore\n        /* \"#utility.yul\":20722:20853   */\n      tag_594\n        /* \"#utility.yul\":20848:20852   */\n      dup2\n        /* \"#utility.yul\":20722:20853   */\n      tag_380\n      jump\t// in\n    tag_594:\n        /* \"#utility.yul\":20714:20853   */\n      swap1\n      pop\n        /* \"#utility.yul\":20441:20860   */\n      swap2\n      swap1\n      pop\n      jump\t// out\n        /* \"#utility.yul\":20866:21093   */\n    tag_381:\n        /* \"#utility.yul\":21006:21040   */\n      0x4f6e6c7920746865206f776e65722063616e20756e667265657a652074686520\n        /* \"#utility.yul\":21002:21003   */\n      0x00\n        /* \"#utility.yul\":20994:21000   */\n      dup3\n        /* \"#utility.yul\":20990:21004   */\n      add\n        /* \"#utility.yul\":20983:21041   */\n      mstore\n        /* \"#utility.yul\":21075:21085   */\n      0x6163636f756e742e000000000000000000000000000000000000000000000000\n        /* \"#utility.yul\":21070:21072   */\n      0x20\n        /* \"#utility.yul\":21062:21068   */\n      dup3\n        /* \"#utility.yul\":21058:21073   */\n      add\n        /* \"#utility.yul\":21051:21086   */\n      mstore\n        /* \"#utility.yul\":20866:21093   */\n      pop\n      jump\t// out\n        /* \"#utility.yul\":21099:21465   */\n    tag_382:\n        /* \"#utility.yul\":21241:21244   */\n      0x00\n        /* \"#utility.yul\":21262:21329   */\n      tag_597\n        /* \"#utility.yul\":21326:21328   */\n      0x28\n        /* \"#utility.yul\":21321:21324   */\n      dup4\n        /* \"#utility.yul\":21262:21329   */\n      tag_359\n      jump\t// in\n    tag_597:\n        /* \"#utility.yul\":21255:21329   */\n      swap2\n      pop\n        /* \"#utility.yul\":21338:21431   */\n      tag_598\n        /* \"#utility.yul\":21427:21430   */\n      dup3\n        /* \"#utility.yul\":21338:21431   */\n      tag_381\n      jump\t// in\n    tag_598:\n        /* \"#utility.yul\":21456:21458   */\n      0x40\n        /* \"#utility.yul\":21451:21454   */\n      dup3\n        /* \"#utility.yul\":21447:21459   */\n      add\n        /* \"#utility.yul\":21440:21459   */\n      swap1\n      pop\n        /* \"#utility.yul\":21099:21465   */\n      swap2\n      swap1\n      pop\n      jump\t// out\n        /* \"#utility.yul\":21471:21890   */\n    tag_228:\n        /* \"#utility.yul\":21637:21641   */\n      0x00\n        /* \"#utility.yul\":21675:21677   */\n      0x20\n        /* \"#utility.yul\":21664:21673   */\n      dup3\n        /* \"#utility.yul\":21660:21678   */\n      add\n        /* \"#utility.yul\":21652:21678   */\n      swap1\n      pop\n        /* \"#utility.yul\":21724:21733   */\n      dup2\n        /* \"#utility.yul\":21718:21722   */\n      dup2\n        /* \"#utility.yul\":21714:21734   */\n      sub\n        /* \"#utility.yul\":21710:21711   */\n      0x00\n        /* \"#utility.yul\":21699:21708   */\n      dup4\n        /* \"#utility.yul\":21695:21712   */\n      add\n        /* \"#utility.yul\":21688:21735   */\n      mstore\n        /* \"#utility.yul\":21752:21883   */\n      tag_600\n        /* \"#utility.yul\":21878:21882   */\n      dup2\n        /* \"#utility.yul\":21752:21883   */\n      tag_382\n      jump\t// in\n    tag_600:\n        /* \"#utility.yul\":21744:21883   */\n      swap1\n      pop\n        /* \"#utility.yul\":21471:21890   */\n      swap2\n      swap1\n      pop\n      jump\t// out\n        /* \"#utility.yul\":21896:22078   */\n    tag_383:\n        /* \"#utility.yul\":22036:22070   */\n      0x4f6e6c7920746865206f776e65722063616e207365742074686520686569722e\n        /* \"#utility.yul\":22032:22033   */\n      0x00\n        /* \"#utility.yul\":22024:22030   */\n      dup3\n        /* \"#utility.yul\":22020:22034   */\n      add\n        /* \"#utility.yul\":22013:22071   */\n      mstore\n        /* \"#utility.yul\":21896:22078   */\n      pop\n      jump\t// out\n        /* \"#utility.yul\":22084:22450   */\n    tag_384:\n        /* \"#utility.yul\":22226:22229   */\n      0x00\n        /* \"#utility.yul\":22247:22314   */\n      tag_603\n        /* \"#utility.yul\":22311:22313   */\n      0x20\n        /* \"#utility.yul\":22306:22309   */\n      dup4\n        /* \"#utility.yul\":22247:22314   */\n      tag_359\n      jump\t// in\n    tag_603:\n        /* \"#utility.yul\":22240:22314   */\n      swap2\n      pop\n        /* \"#utility.yul\":22323:22416   */\n      tag_604\n        /* \"#utility.yul\":22412:22415   */\n      dup3\n        /* \"#utility.yul\":22323:22416   */\n      tag_383\n      jump\t// in\n    tag_604:\n        /* \"#utility.yul\":22441:22443   */\n      0x20\n        /* \"#utility.yul\":22436:22439   */\n      dup3\n        /* \"#utility.yul\":22432:22444   */\n      add\n        /* \"#utility.yul\":22425:22444   */\n      swap1\n      pop\n        /* \"#utility.yul\":22084:22450   */\n      swap2\n      swap1\n      pop\n      jump\t// out\n        /* \"#utility.yul\":22456:22875   */\n    tag_234:\n        /* \"#utility.yul\":22622:22626   */\n      0x00\n        /* \"#utility.yul\":22660:22662   */\n      0x20\n        /* \"#utility.yul\":22649:22658   */\n      dup3\n        /* \"#utility.yul\":22645:22663   */\n      add\n        /* \"#utility.yul\":22637:22663   */\n      swap1\n      pop\n        /* \"#utility.yul\":22709:22718   */\n      dup2\n        /* \"#utility.yul\":22703:22707   */\n      dup2\n        /* \"#utility.yul\":22699:22719   */\n      sub\n        /* \"#utility.yul\":22695:22696   */\n      0x00\n        /* \"#utility.yul\":22684:22693   */\n      dup4\n        /* \"#utility.yul\":22680:22697   */\n      add\n        /* \"#utility.yul\":22673:22720   */\n      mstore\n        /* \"#utility.yul\":22737:22868   */\n      tag_606\n        /* \"#utility.yul\":22863:22867   */\n      dup2\n        /* \"#utility.yul\":22737:22868   */\n      tag_384\n      jump\t// in\n    tag_606:\n        /* \"#utility.yul\":22729:22868   */\n      swap1\n      pop\n        /* \"#utility.yul\":22456:22875   */\n      swap2\n      swap1\n      pop\n      jump\t// out\n        /* \"#utility.yul\":22881:23102   */\n    tag_385:\n        /* \"#utility.yul\":23021:23055   */\n      0x4f6e6c7920746865206f776e65722063616e2077697468647261772066756e64\n        /* \"#utility.yul\":23017:23018   */\n      0x00\n        /* \"#utility.yul\":23009:23015   */\n      dup3\n        /* \"#utility.yul\":23005:23019   */\n      add\n        /* \"#utility.yul\":22998:23056   */\n      mstore\n        /* \"#utility.yul\":23090:23094   */\n      0x732e000000000000000000000000000000000000000000000000000000000000\n        /* \"#utility.yul\":23085:23087   */\n      0x20\n        /* \"#utility.yul\":23077:23083   */\n      dup3\n        /* \"#utility.yul\":23073:23088   */\n      add\n        /* \"#utility.yul\":23066:23095   */\n      mstore\n        /* \"#utility.yul\":22881:23102   */\n      pop\n      jump\t// out\n        /* \"#utility.yul\":23108:23474   */\n    tag_386:\n        /* \"#utility.yul\":23250:23253   */\n      0x00\n        /* \"#utility.yul\":23271:23338   */\n      tag_609\n        /* \"#utility.yul\":23335:23337   */\n      0x22\n        /* \"#utility.yul\":23330:23333   */\n      dup4\n        /* \"#utility.yul\":23271:23338   */\n      tag_359\n      jump\t// in\n    tag_609:\n        /* \"#utility.yul\":23264:23338   */\n      swap2\n      pop\n        /* \"#utility.yul\":23347:23440   */\n      tag_610\n        /* \"#utility.yul\":23436:23439   */\n      dup3\n        /* \"#utility.yul\":23347:23440   */\n      tag_385\n      jump\t// in\n    tag_610:\n        /* \"#utility.yul\":23465:23467   */\n      0x40\n        /* \"#utility.yul\":23460:23463   */\n      dup3\n        /* \"#utility.yul\":23456:23468   */\n      add\n        /* \"#utility.yul\":23449:23468   */\n      swap1\n      pop\n        /* \"#utility.yul\":23108:23474   */\n      swap2\n      swap1\n      pop\n      jump\t// out\n        /* \"#utility.yul\":23480:23899   */\n    tag_240:\n        /* \"#utility.yul\":23646:23650   */\n      0x00\n        /* \"#utility.yul\":23684:23686   */\n      0x20\n        /* \"#utility.yul\":23673:23682   */\n      dup3\n        /* \"#utility.yul\":23669:23687   */\n      add\n        /* \"#utility.yul\":23661:23687   */\n      swap1\n      pop\n        /* \"#utility.yul\":23733:23742   */\n      dup2\n        /* \"#utility.yul\":23727:23731   */\n      dup2\n        /* \"#utility.yul\":23723:23743   */\n      sub\n        /* \"#utility.yul\":23719:23720   */\n      0x00\n        /* \"#utility.yul\":23708:23717   */\n      dup4\n        /* \"#utility.yul\":23704:23721   */\n      add\n        /* \"#utility.yul\":23697:23744   */\n      mstore\n        /* \"#utility.yul\":23761:23892   */\n      tag_612\n        /* \"#utility.yul\":23887:23891   */\n      dup2\n        /* \"#utility.yul\":23761:23892   */\n      tag_386\n      jump\t// in\n    tag_612:\n        /* \"#utility.yul\":23753:23892   */\n      swap1\n      pop\n        /* \"#utility.yul\":23480:23899   */\n      swap2\n      swap1\n      pop\n      jump\t// out\n        /* \"#utility.yul\":23905:24086   */\n    tag_387:\n        /* \"#utility.yul\":24045:24078   */\n      0x546865726520617265206e6f2066756e647320746f2077697468647261772e00\n        /* \"#utility.yul\":24041:24042   */\n      0x00\n        /* \"#utility.yul\":24033:24039   */\n      dup3\n        /* \"#utility.yul\":24029:24043   */\n      add\n        /* \"#utility.yul\":24022:24079   */\n      mstore\n        /* \"#utility.yul\":23905:24086   */\n      pop\n      jump\t// out\n        /* \"#utility.yul\":24092:24458   */\n    tag_388:\n        /* \"#utility.yul\":24234:24237   */\n      0x00\n        /* \"#utility.yul\":24255:24322   */\n      tag_615\n        /* \"#utility.yul\":24319:24321   */\n      0x1f\n        /* \"#utility.yul\":24314:24317   */\n      dup4\n        /* \"#utility.yul\":24255:24322   */\n      tag_359\n      jump\t// in\n    tag_615:\n        /* \"#utility.yul\":24248:24322   */\n      swap2\n      pop\n        /* \"#utility.yul\":24331:24424   */\n      tag_616\n        /* \"#utility.yul\":24420:24423   */\n      dup3\n        /* \"#utility.yul\":24331:24424   */\n      tag_387\n      jump\t// in\n    tag_616:\n        /* \"#utility.yul\":24449:24451   */\n      0x20\n        /* \"#utility.yul\":24444:24447   */\n      dup3\n        /* \"#utility.yul\":24440:24452   */\n      add\n        /* \"#utility.yul\":24433:24452   */\n      swap1\n      pop\n        /* \"#utility.yul\":24092:24458   */\n      swap2\n      swap1\n      pop\n      jump\t// out\n        /* \"#utility.yul\":24464:24883   */\n    tag_246:\n        /* \"#utility.yul\":24630:24634   */\n      0x00\n        /* \"#utility.yul\":24668:24670   */\n      0x20\n        /* \"#utility.yul\":24657:24666   */\n      dup3\n        /* \"#utility.yul\":24653:24671   */\n      add\n        /* \"#utility.yul\":24645:24671   */\n      swap1\n      pop\n        /* \"#utility.yul\":24717:24726   */\n      dup2\n        /* \"#utility.yul\":24711:24715   */\n      dup2\n        /* \"#utility.yul\":24707:24727   */\n      sub\n        /* \"#utility.yul\":24703:24704   */\n      0x00\n        /* \"#utility.yul\":24692:24701   */\n      dup4\n        /* \"#utility.yul\":24688:24705   */\n      add\n        /* \"#utility.yul\":24681:24728   */\n      mstore\n        /* \"#utility.yul\":24745:24876   */\n      tag_618\n        /* \"#utility.yul\":24871:24875   */\n      dup2\n        /* \"#utility.yul\":24745:24876   */\n      tag_388\n      jump\t// in\n    tag_618:\n        /* \"#utility.yul\":24737:24876   */\n      swap1\n      pop\n        /* \"#utility.yul\":24464:24883   */\n      swap2\n      swap1\n      pop\n      jump\t// out\n        /* \"#utility.yul\":24889:25114   */\n    tag_389:\n        /* \"#utility.yul\":25029:25063   */\n      0x4f6e6c7920746865206f776e65722063616e20667265657a6520746865206163\n        /* \"#utility.yul\":25025:25026   */\n      0x00\n        /* \"#utility.yul\":25017:25023   */\n      dup3\n        /* \"#utility.yul\":25013:25027   */\n      add\n        /* \"#utility.yul\":25006:25064   */\n      mstore\n        /* \"#utility.yul\":25098:25106   */\n      0x636f756e742e0000000000000000000000000000000000000000000000000000\n        /* \"#utility.yul\":25093:25095   */\n      0x20\n        /* \"#utility.yul\":25085:25091   */\n      dup3\n        /* \"#utility.yul\":25081:25096   */\n      add\n        /* \"#utility.yul\":25074:25107   */\n      mstore\n        /* \"#utility.yul\":24889:25114   */\n      pop\n      jump\t// out\n        /* \"#utility.yul\":25120:25486   */\n    tag_390:\n        /* \"#utility.yul\":25262:25265   */\n      0x00\n        /* \"#utility.yul\":25283:25350   */\n      tag_621\n        /* \"#utility.yul\":25347:25349   */\n      0x26\n        /* \"#utility.yul\":25342:25345   */\n      dup4\n        /* \"#utility.yul\":25283:25350   */\n      tag_359\n      jump\t// in\n    tag_621:\n        /* \"#utility.yul\":25276:25350   */\n      swap2\n      pop\n        /* \"#utility.yul\":25359:25452   */\n      tag_622\n        /* \"#utility.yul\":25448:25451   */\n      dup3\n        /* \"#utility.yul\":25359:25452   */\n      tag_389\n      jump\t// in\n    tag_622:\n        /* \"#utility.yul\":25477:25479   */\n      0x40\n        /* \"#utility.yul\":25472:25475   */\n      dup3\n        /* \"#utility.yul\":25468:25480   */\n      add\n        /* \"#utility.yul\":25461:25480   */\n      swap1\n      pop\n        /* \"#utility.yul\":25120:25486   */\n      swap2\n      swap1\n      pop\n      jump\t// out\n        /* \"#utility.yul\":25492:25911   */\n    tag_287:\n        /* \"#utility.yul\":25658:25662   */\n      0x00\n        /* \"#utility.yul\":25696:25698   */\n      0x20\n        /* \"#utility.yul\":25685:25694   */\n      dup3\n        /* \"#utility.yul\":25681:25699   */\n      add\n        /* \"#utility.yul\":25673:25699   */\n      swap1\n      pop\n        /* \"#utility.yul\":25745:25754   */\n      dup2\n        /* \"#utility.yul\":25739:25743   */\n      dup2\n        /* \"#utility.yul\":25735:25755   */\n      sub\n        /* \"#utility.yul\":25731:25732   */\n      0x00\n        /* \"#utility.yul\":25720:25729   */\n      dup4\n        /* \"#utility.yul\":25716:25733   */\n      add\n        /* \"#utility.yul\":25709:25756   */\n      mstore\n        /* \"#utility.yul\":25773:25904   */\n      tag_624\n        /* \"#utility.yul\":25899:25903   */\n      dup2\n        /* \"#utility.yul\":25773:25904   */\n      tag_390\n      jump\t// in\n    tag_624:\n        /* \"#utility.yul\":25765:25904   */\n      swap1\n      pop\n        /* \"#utility.yul\":25492:25911   */\n      swap2\n      swap1\n      pop\n      jump\t// out\n        /* \"#utility.yul\":25917:26281   */\n    tag_291:\n        /* \"#utility.yul\":26054:26058   */\n      0x00\n        /* \"#utility.yul\":26092:26094   */\n      0x40\n        /* \"#utility.yul\":26081:26090   */\n      dup3\n        /* \"#utility.yul\":26077:26095   */\n      add\n        /* \"#utility.yul\":26069:26095   */\n      swap1\n      pop\n        /* \"#utility.yul\":26105:26184   */\n      tag_626\n        /* \"#utility.yul\":26181:26182   */\n      0x00\n        /* \"#utility.yul\":26170:26179   */\n      dup4\n        /* \"#utility.yul\":26166:26183   */\n      add\n        /* \"#utility.yul\":26157:26163   */\n      dup6\n        /* \"#utility.yul\":26105:26184   */\n      tag_370\n      jump\t// in\n    tag_626:\n        /* \"#utility.yul\":26194:26274   */\n      tag_627\n        /* \"#utility.yul\":26270:26272   */\n      0x20\n        /* \"#utility.yul\":26259:26268   */\n      dup4\n        /* \"#utility.yul\":26255:26273   */\n      add\n        /* \"#utility.yul\":26246:26252   */\n      dup5\n        /* \"#utility.yul\":26194:26274   */\n      tag_370\n      jump\t// in\n    tag_627:\n        /* \"#utility.yul\":25917:26281   */\n      swap4\n      swap3\n      pop\n      pop\n      pop\n      jump\t// out\n        /* \"#utility.yul\":26287:26469   */\n    tag_391:\n        /* \"#utility.yul\":26427:26461   */\n      0x4f6e6c7920746865206f776e65722063616e2073746f70206120636c61696d2e\n        /* \"#utility.yul\":26423:26424   */\n      0x00\n        /* \"#utility.yul\":26415:26421   */\n      dup3\n        /* \"#utility.yul\":26411:26425   */\n      add\n        /* \"#utility.yul\":26404:26462   */\n      mstore\n        /* \"#utility.yul\":26287:26469   */\n      pop\n      jump\t// out\n        /* \"#utility.yul\":26475:26841   */\n    tag_392:\n        /* \"#utility.yul\":26617:26620   */\n      0x00\n        /* \"#utility.yul\":26638:26705   */\n      tag_630\n        /* \"#utility.yul\":26702:26704   */\n      0x20\n        /* \"#utility.yul\":26697:26700   */\n      dup4\n        /* \"#utility.yul\":26638:26705   */\n      tag_359\n      jump\t// in\n    tag_630:\n        /* \"#utility.yul\":26631:26705   */\n      swap2\n      pop\n        /* \"#utility.yul\":26714:26807   */\n      tag_631\n        /* \"#utility.yul\":26803:26806   */\n      dup3\n        /* \"#utility.yul\":26714:26807   */\n      tag_391\n      jump\t// in\n    tag_631:\n        /* \"#utility.yul\":26832:26834   */\n      0x20\n        /* \"#utility.yul\":26827:26830   */\n      dup3\n        /* \"#utility.yul\":26823:26835   */\n      add\n        /* \"#utility.yul\":26816:26835   */\n      swap1\n      pop\n        /* \"#utility.yul\":26475:26841   */\n      swap2\n      swap1\n      pop\n      jump\t// out\n        /* \"#utility.yul\":26847:27266   */\n    tag_299:\n        /* \"#utility.yul\":27013:27017   */\n      0x00\n        /* \"#utility.yul\":27051:27053   */\n      0x20\n        /* \"#utility.yul\":27040:27049   */\n      dup3\n        /* \"#utility.yul\":27036:27054   */\n      add\n        /* \"#utility.yul\":27028:27054   */\n      swap1\n      pop\n        /* \"#utility.yul\":27100:27109   */\n      dup2\n        /* \"#utility.yul\":27094:27098   */\n      dup2\n        /* \"#utility.yul\":27090:27110   */\n      sub\n        /* \"#utility.yul\":27086:27087   */\n      0x00\n        /* \"#utility.yul\":27075:27084   */\n      dup4\n        /* \"#utility.yul\":27071:27088   */\n      add\n        /* \"#utility.yul\":27064:27111   */\n      mstore\n        /* \"#utility.yul\":27128:27259   */\n      tag_633\n        /* \"#utility.yul\":27254:27258   */\n      dup2\n        /* \"#utility.yul\":27128:27259   */\n      tag_392\n      jump\t// in\n    tag_633:\n        /* \"#utility.yul\":27120:27259   */\n      swap1\n      pop\n        /* \"#utility.yul\":26847:27266   */\n      swap2\n      swap1\n      pop\n      jump\t// out\n        /* \"#utility.yul\":27272:27492   */\n    tag_393:\n        /* \"#utility.yul\":27412:27446   */\n      0x5468657265206973206e6f2061637469766520636c61696d20746f2073746f70\n        /* \"#utility.yul\":27408:27409   */\n      0x00\n        /* \"#utility.yul\":27400:27406   */\n      dup3\n        /* \"#utility.yul\":27396:27410   */\n      add\n        /* \"#utility.yul\":27389:27447   */\n      mstore\n        /* \"#utility.yul\":27481:27484   */\n      0x2e00000000000000000000000000000000000000000000000000000000000000\n        /* \"#utility.yul\":27476:27478   */\n      0x20\n        /* \"#utility.yul\":27468:27474   */\n      dup3\n        /* \"#utility.yul\":27464:27479   */\n      add\n        /* \"#utility.yul\":27457:27485   */\n      mstore\n        /* \"#utility.yul\":27272:27492   */\n      pop\n      jump\t// out\n        /* \"#utility.yul\":27498:27864   */\n    tag_394:\n        /* \"#utility.yul\":27640:27643   */\n      0x00\n        /* \"#utility.yul\":27661:27728   */\n      tag_636\n        /* \"#utility.yul\":27725:27727   */\n      0x21\n        /* \"#utility.yul\":27720:27723   */\n      dup4\n        /* \"#utility.yul\":27661:27728   */\n      tag_359\n      jump\t// in\n    tag_636:\n        /* \"#utility.yul\":27654:27728   */\n      swap2\n      pop\n        /* \"#utility.yul\":27737:27830   */\n      tag_637\n        /* \"#utility.yul\":27826:27829   */\n      dup3\n        /* \"#utility.yul\":27737:27830   */\n      tag_393\n      jump\t// in\n    tag_637:\n        /* \"#utility.yul\":27855:27857   */\n      0x40\n        /* \"#utility.yul\":27850:27853   */\n      dup3\n        /* \"#utility.yul\":27846:27858   */\n      add\n        /* \"#utility.yul\":27839:27858   */\n      swap1\n      pop\n        /* \"#utility.yul\":27498:27864   */\n      swap2\n      swap1\n      pop\n      jump\t// out\n        /* \"#utility.yul\":27870:28289   */\n    tag_302:\n        /* \"#utility.yul\":28036:28040   */\n      0x00\n        /* \"#utility.yul\":28074:28076   */\n      0x20\n        /* \"#utility.yul\":28063:28072   */\n      dup3\n        /* \"#utility.yul\":28059:28077   */\n      add\n        /* \"#utility.yul\":28051:28077   */\n      swap1\n      pop\n        /* \"#utility.yul\":28123:28132   */\n      dup2\n        /* \"#utility.yul\":28117:28121   */\n      dup2\n        /* \"#utility.yul\":28113:28133   */\n      sub\n        /* \"#utility.yul\":28109:28110   */\n      0x00\n        /* \"#utility.yul\":28098:28107   */\n      dup4\n        /* \"#utility.yul\":28094:28111   */\n      add\n        /* \"#utility.yul\":28087:28134   */\n      mstore\n        /* \"#utility.yul\":28151:28282   */\n      tag_639\n        /* \"#utility.yul\":28277:28281   */\n      dup2\n        /* \"#utility.yul\":28151:28282   */\n      tag_394\n      jump\t// in\n    tag_639:\n        /* \"#utility.yul\":28143:28282   */\n      swap1\n      pop\n        /* \"#utility.yul\":27870:28289   */\n      swap2\n      swap1\n      pop\n      jump\t// out\n        /* \"#utility.yul\":28295:28533   */\n    tag_307:\n        /* \"#utility.yul\":28396:28400   */\n      0x00\n        /* \"#utility.yul\":28434:28436   */\n      0x20\n        /* \"#utility.yul\":28423:28432   */\n      dup3\n        /* \"#utility.yul\":28419:28437   */\n      add\n        /* \"#utility.yul\":28411:28437   */\n      swap1\n      pop\n        /* \"#utility.yul\":28447:28526   */\n      tag_641\n        /* \"#utility.yul\":28523:28524   */\n      0x00\n        /* \"#utility.yul\":28512:28521   */\n      dup4\n        /* \"#utility.yul\":28508:28525   */\n      add\n        /* \"#utility.yul\":28499:28505   */\n      dup5\n        /* \"#utility.yul\":28447:28526   */\n      tag_370\n      jump\t// in\n    tag_641:\n        /* \"#utility.yul\":28295:28533   */\n      swap3\n      swap2\n      pop\n      pop\n      jump\t// out\n        /* \"#utility.yul\":28539:28709   */\n    tag_395:\n        /* \"#utility.yul\":28679:28701   */\n      0x496e73756666696369656e742062616c616e6365000000000000000000000000\n        /* \"#utility.yul\":28675:28676   */\n      0x00\n        /* \"#utility.yul\":28667:28673   */\n      dup3\n        /* \"#utility.yul\":28663:28677   */\n      add\n        /* \"#utility.yul\":28656:28702   */\n      mstore\n        /* \"#utility.yul\":28539:28709   */\n      pop\n      jump\t// out\n        /* \"#utility.yul\":28715:29081   */\n    tag_396:\n        /* \"#utility.yul\":28857:28860   */\n      0x00\n        /* \"#utility.yul\":28878:28945   */\n      tag_644\n        /* \"#utility.yul\":28942:28944   */\n      0x14\n        /* \"#utility.yul\":28937:28940   */\n      dup4\n        /* \"#utility.yul\":28878:28945   */\n      tag_359\n      jump\t// in\n    tag_644:\n        /* \"#utility.yul\":28871:28945   */\n      swap2\n      pop\n        /* \"#utility.yul\":28954:29047   */\n      tag_645\n        /* \"#utility.yul\":29043:29046   */\n      dup3\n        /* \"#utility.yul\":28954:29047   */\n      tag_395\n      jump\t// in\n    tag_645:\n        /* \"#utility.yul\":29072:29074   */\n      0x20\n        /* \"#utility.yul\":29067:29070   */\n      dup3\n        /* \"#utility.yul\":29063:29075   */\n      add\n        /* \"#utility.yul\":29056:29075   */\n      swap1\n      pop\n        /* \"#utility.yul\":28715:29081   */\n      swap2\n      swap1\n      pop\n      jump\t// out\n        /* \"#utility.yul\":29087:29506   */\n    tag_313:\n        /* \"#utility.yul\":29253:29257   */\n      0x00\n        /* \"#utility.yul\":29291:29293   */\n      0x20\n        /* \"#utility.yul\":29280:29289   */\n      dup3\n        /* \"#utility.yul\":29276:29294   */\n      add\n        /* \"#utility.yul\":29268:29294   */\n      swap1\n      pop\n        /* \"#utility.yul\":29340:29349   */\n      dup2\n        /* \"#utility.yul\":29334:29338   */\n      dup2\n        /* \"#utility.yul\":29330:29350   */\n      sub\n        /* \"#utility.yul\":29326:29327   */\n      0x00\n        /* \"#utility.yul\":29315:29324   */\n      dup4\n        /* \"#utility.yul\":29311:29328   */\n      add\n        /* \"#utility.yul\":29304:29351   */\n      mstore\n        /* \"#utility.yul\":29368:29499   */\n      tag_647\n        /* \"#utility.yul\":29494:29498   */\n      dup2\n        /* \"#utility.yul\":29368:29499   */\n      tag_396\n      jump\t// in\n    tag_647:\n        /* \"#utility.yul\":29360:29499   */\n      swap1\n      pop\n        /* \"#utility.yul\":29087:29506   */\n      swap2\n      swap1\n      pop\n      jump\t// out\n        /* \"#utility.yul\":29512:29986   */\n    tag_315:\n        /* \"#utility.yul\":29677:29681   */\n      0x00\n        /* \"#utility.yul\":29715:29717   */\n      0x60\n        /* \"#utility.yul\":29704:29713   */\n      dup3\n        /* \"#utility.yul\":29700:29718   */\n      add\n        /* \"#utility.yul\":29692:29718   */\n      swap1\n      pop\n        /* \"#utility.yul\":29728:29807   */\n      tag_649\n        /* \"#utility.yul\":29804:29805   */\n      0x00\n        /* \"#utility.yul\":29793:29802   */\n      dup4\n        /* \"#utility.yul\":29789:29806   */\n      add\n        /* \"#utility.yul\":29780:29786   */\n      dup7\n        /* \"#utility.yul\":29728:29807   */\n      tag_370\n      jump\t// in\n    tag_649:\n        /* \"#utility.yul\":29817:29897   */\n      tag_650\n        /* \"#utility.yul\":29893:29895   */\n      0x20\n        /* \"#utility.yul\":29882:29891   */\n      dup4\n        /* \"#utility.yul\":29878:29896   */\n      add\n        /* \"#utility.yul\":29869:29875   */\n      dup6\n        /* \"#utility.yul\":29817:29897   */\n      tag_370\n      jump\t// in\n    tag_650:\n        /* \"#utility.yul\":29907:29979   */\n      tag_651\n        /* \"#utility.yul\":29975:29977   */\n      0x40\n        /* \"#utility.yul\":29964:29973   */\n      dup4\n        /* \"#utility.yul\":29960:29978   */\n      add\n        /* \"#utility.yul\":29951:29957   */\n      dup5\n        /* \"#utility.yul\":29907:29979   */\n      tag_351\n      jump\t// in\n    tag_651:\n        /* \"#utility.yul\":29512:29986   */\n      swap5\n      swap4\n      pop\n      pop\n      pop\n      pop\n      jump\t// out\n        /* \"#utility.yul\":29992:30224   */\n    tag_397:\n        /* \"#utility.yul\":30132:30166   */\n      0x4f6e6c792074686520686569722063616e20696e697469617465207468652063\n        /* \"#utility.yul\":30128:30129   */\n      0x00\n        /* \"#utility.yul\":30120:30126   */\n      dup3\n        /* \"#utility.yul\":30116:30130   */\n      add\n        /* \"#utility.yul\":30109:30167   */\n      mstore\n        /* \"#utility.yul\":30201:30216   */\n      0x6c61696d2070726f636573732e00000000000000000000000000000000000000\n        /* \"#utility.yul\":30196:30198   */\n      0x20\n        /* \"#utility.yul\":30188:30194   */\n      dup3\n        /* \"#utility.yul\":30184:30199   */\n      add\n        /* \"#utility.yul\":30177:30217   */\n      mstore\n        /* \"#utility.yul\":29992:30224   */\n      pop\n      jump\t// out\n        /* \"#utility.yul\":30230:30596   */\n    tag_398:\n        /* \"#utility.yul\":30372:30375   */\n      0x00\n        /* \"#utility.yul\":30393:30460   */\n      tag_654\n        /* \"#utility.yul\":30457:30459   */\n      0x2d\n        /* \"#utility.yul\":30452:30455   */\n      dup4\n        /* \"#utility.yul\":30393:30460   */\n      tag_359\n      jump\t// in\n    tag_654:\n        /* \"#utility.yul\":30386:30460   */\n      swap2\n      pop\n        /* \"#utility.yul\":30469:30562   */\n      tag_655\n        /* \"#utility.yul\":30558:30561   */\n      dup3\n        /* \"#utility.yul\":30469:30562   */\n      tag_397\n      jump\t// in\n    tag_655:\n        /* \"#utility.yul\":30587:30589   */\n      0x40\n        /* \"#utility.yul\":30582:30585   */\n      dup3\n        /* \"#utility.yul\":30578:30590   */\n      add\n        /* \"#utility.yul\":30571:30590   */\n      swap1\n      pop\n        /* \"#utility.yul\":30230:30596   */\n      swap2\n      swap1\n      pop\n      jump\t// out\n        /* \"#utility.yul\":30602:31021   */\n    tag_322:\n        /* \"#utility.yul\":30768:30772   */\n      0x00\n        /* \"#utility.yul\":30806:30808   */\n      0x20\n        /* \"#utility.yul\":30795:30804   */\n      dup3\n        /* \"#utility.yul\":30791:30809   */\n      add\n        /* \"#utility.yul\":30783:30809   */\n      swap1\n      pop\n        /* \"#utility.yul\":30855:30864   */\n      dup2\n        /* \"#utility.yul\":30849:30853   */\n      dup2\n        /* \"#utility.yul\":30845:30865   */\n      sub\n        /* \"#utility.yul\":30841:30842   */\n      0x00\n        /* \"#utility.yul\":30830:30839   */\n      dup4\n        /* \"#utility.yul\":30826:30843   */\n      add\n        /* \"#utility.yul\":30819:30866   */\n      mstore\n        /* \"#utility.yul\":30883:31014   */\n      tag_657\n        /* \"#utility.yul\":31009:31013   */\n      dup2\n        /* \"#utility.yul\":30883:31014   */\n      tag_398\n      jump\t// in\n    tag_657:\n        /* \"#utility.yul\":30875:31014   */\n      swap1\n      pop\n        /* \"#utility.yul\":30602:31021   */\n      swap2\n      swap1\n      pop\n      jump\t// out\n        /* \"#utility.yul\":31027:31251   */\n    tag_399:\n        /* \"#utility.yul\":31167:31201   */\n      0x436c61696d2070726f6365737320697320616c726561647920696e2070726f67\n        /* \"#utility.yul\":31163:31164   */\n      0x00\n        /* \"#utility.yul\":31155:31161   */\n      dup3\n        /* \"#utility.yul\":31151:31165   */\n      add\n        /* \"#utility.yul\":31144:31202   */\n      mstore\n        /* \"#utility.yul\":31236:31243   */\n      0x726573732e000000000000000000000000000000000000000000000000000000\n        /* \"#utility.yul\":31231:31233   */\n      0x20\n        /* \"#utility.yul\":31223:31229   */\n      dup3\n        /* \"#utility.yul\":31219:31234   */\n      add\n        /* \"#utility.yul\":31212:31244   */\n      mstore\n        /* \"#utility.yul\":31027:31251   */\n      pop\n      jump\t// out\n        /* \"#utility.yul\":31257:31623   */\n    tag_400:\n        /* \"#utility.yul\":31399:31402   */\n      0x00\n        /* \"#utility.yul\":31420:31487   */\n      tag_660\n        /* \"#utility.yul\":31484:31486   */\n      0x25\n        /* \"#utility.yul\":31479:31482   */\n      dup4\n        /* \"#utility.yul\":31420:31487   */\n      tag_359\n      jump\t// in\n    tag_660:\n        /* \"#utility.yul\":31413:31487   */\n      swap2\n      pop\n        /* \"#utility.yul\":31496:31589   */\n      tag_661\n        /* \"#utility.yul\":31585:31588   */\n      dup3\n        /* \"#utility.yul\":31496:31589   */\n      tag_399\n      jump\t// in\n    tag_661:\n        /* \"#utility.yul\":31614:31616   */\n      0x40\n        /* \"#utility.yul\":31609:31612   */\n      dup3\n        /* \"#utility.yul\":31605:31617   */\n      add\n        /* \"#utility.yul\":31598:31617   */\n      swap1\n      pop\n        /* \"#utility.yul\":31257:31623   */\n      swap2\n      swap1\n      pop\n      jump\t// out\n        /* \"#utility.yul\":31629:32048   */\n    tag_325:\n        /* \"#utility.yul\":31795:31799   */\n      0x00\n        /* \"#utility.yul\":31833:31835   */\n      0x20\n        /* \"#utility.yul\":31822:31831   */\n      dup3\n        /* \"#utility.yul\":31818:31836   */\n      add\n        /* \"#utility.yul\":31810:31836   */\n      swap1\n      pop\n        /* \"#utility.yul\":31882:31891   */\n      dup2\n        /* \"#utility.yul\":31876:31880   */\n      dup2\n        /* \"#utility.yul\":31872:31892   */\n      sub\n        /* \"#utility.yul\":31868:31869   */\n      0x00\n        /* \"#utility.yul\":31857:31866   */\n      dup4\n        /* \"#utility.yul\":31853:31870   */\n      add\n        /* \"#utility.yul\":31846:31893   */\n      mstore\n        /* \"#utility.yul\":31910:32041   */\n      tag_663\n        /* \"#utility.yul\":32036:32040   */\n      dup2\n        /* \"#utility.yul\":31910:32041   */\n      tag_400\n      jump\t// in\n    tag_663:\n        /* \"#utility.yul\":31902:32041   */\n      swap1\n      pop\n        /* \"#utility.yul\":31629:32048   */\n      swap2\n      swap1\n      pop\n      jump\t// out\n        /* \"#utility.yul\":32054:32234   */\n    tag_401:\n        /* \"#utility.yul\":32102:32179   */\n      0x4e487b7100000000000000000000000000000000000000000000000000000000\n        /* \"#utility.yul\":32099:32100   */\n      0x00\n        /* \"#utility.yul\":32092:32180   */\n      mstore\n        /* \"#utility.yul\":32199:32203   */\n      0x12\n        /* \"#utility.yul\":32196:32197   */\n      0x04\n        /* \"#utility.yul\":32189:32204   */\n      mstore\n        /* \"#utility.yul\":32223:32227   */\n      0x24\n        /* \"#utility.yul\":32220:32221   */\n      0x00\n        /* \"#utility.yul\":32213:32228   */\n      revert\n        /* \"#utility.yul\":32240:32425   */\n    tag_330:\n        /* \"#utility.yul\":32280:32281   */\n      0x00\n        /* \"#utility.yul\":32297:32317   */\n      tag_666\n        /* \"#utility.yul\":32315:32316   */\n      dup3\n        /* \"#utility.yul\":32297:32317   */\n      tag_344\n      jump\t// in\n    tag_666:\n        /* \"#utility.yul\":32292:32317   */\n      swap2\n      pop\n        /* \"#utility.yul\":32331:32351   */\n      tag_667\n        /* \"#utility.yul\":32349:32350   */\n      dup4\n        /* \"#utility.yul\":32331:32351   */\n      tag_344\n      jump\t// in\n    tag_667:\n        /* \"#utility.yul\":32326:32351   */\n      swap3\n      pop\n        /* \"#utility.yul\":32370:32371   */\n      dup3\n        /* \"#utility.yul\":32360:32395   */\n      tag_668\n      jumpi\n        /* \"#utility.yul\":32375:32393   */\n      tag_669\n      tag_401\n      jump\t// in\n    tag_669:\n        /* \"#utility.yul\":32360:32395   */\n    tag_668:\n        /* \"#utility.yul\":32417:32418   */\n      dup3\n        /* \"#utility.yul\":32414:32415   */\n      dup3\n        /* \"#utility.yul\":32410:32419   */\n      div\n        /* \"#utility.yul\":32405:32419   */\n      swap1\n      pop\n        /* \"#utility.yul\":32240:32425   */\n      swap3\n      swap2\n      pop\n      pop\n      jump\t// out\n        /* \"#utility.yul\":32431:32625   */\n    tag_333:\n        /* \"#utility.yul\":32471:32475   */\n      0x00\n        /* \"#utility.yul\":32491:32511   */\n      tag_671\n        /* \"#utility.yul\":32509:32510   */\n      dup3\n        /* \"#utility.yul\":32491:32511   */\n      tag_344\n      jump\t// in\n    tag_671:\n        /* \"#utility.yul\":32486:32511   */\n      swap2\n      pop\n        /* \"#utility.yul\":32525:32545   */\n      tag_672\n        /* \"#utility.yul\":32543:32544   */\n      dup4\n        /* \"#utility.yul\":32525:32545   */\n      tag_344\n      jump\t// in\n    tag_672:\n        /* \"#utility.yul\":32520:32545   */\n      swap3\n      pop\n        /* \"#utility.yul\":32569:32570   */\n      dup3\n        /* \"#utility.yul\":32566:32567   */\n      dup3\n        /* \"#utility.yul\":32562:32571   */\n      sub\n        /* \"#utility.yul\":32554:32571   */\n      swap1\n      pop\n        /* \"#utility.yul\":32593:32594   */\n      dup2\n        /* \"#utility.yul\":32587:32591   */\n      dup2\n        /* \"#utility.yul\":32584:32595   */\n      gt\n        /* \"#utility.yul\":32581:32618   */\n      iszero\n      tag_673\n      jumpi\n        /* \"#utility.yul\":32598:32616   */\n      tag_674\n      tag_376\n      jump\t// in\n    tag_674:\n        /* \"#utility.yul\":32581:32618   */\n    tag_673:\n        /* \"#utility.yul\":32431:32625   */\n      swap3\n      swap2\n      pop\n      pop\n      jump\t// out\n\n    auxdata: 0xa2646970667358221220616b4945c32ed29d6994ce7d95082f127e8ffed51a383dd986edadb4ff57461964736f6c63430008110033\n}\n",
				"bytecode": {
					"linkReferences": {},
					"object": "60806040526000600760146101000a81548160ff0219169083151502179055506000600960006101000a81548160ff0219169083151502179055503480156200004757600080fd5b50604051620031903803806200319083398181016040528101906200006d91906200015f565b80600160006101000a81548173ffffffffffffffffffffffffffffffffffffffff021916908373ffffffffffffffffffffffffffffffffffffffff160217905550806000806101000a81548173ffffffffffffffffffffffffffffffffffffffff021916908373ffffffffffffffffffffffffffffffffffffffff1602179055505062000191565b600080fd5b600073ffffffffffffffffffffffffffffffffffffffff82169050919050565b60006200012782620000fa565b9050919050565b62000139816200011a565b81146200014557600080fd5b50565b60008151905062000159816200012e565b92915050565b600060208284031215620001785762000177620000f5565b5b6000620001888482850162000148565b91505092915050565b612fef80620001a16000396000f3fe6080604052600436106101815760003560e01c80638da5cb5b116100d1578063b7d1d98e1161008a578063cc4aa20411610064578063cc4aa20414610516578063d5f3948814610541578063f2b5eea71461056c578063faedd18e1461059557610181565b8063b7d1d98e146104a6578063c250283c146104cf578063c7983e20146104eb57610181565b80638da5cb5b1461039257806391f2ebb8146103bd578063927da105146103e857806394a927fe146104255780639e1a4d1914610450578063a57207701461047b57610181565b8063362bb2ac1161013e5780636e1a7373116101185780636e1a7373146102f95780637a80760e1461032257806387c2797d1461034d5780638d1fdf2f1461036957610181565b8063362bb2ac1461027a57806345c8b1a6146102a557806356af4f75146102ce57610181565b80630171b6da14610186578063054f7d9c146101a25780631903b431146101cd5780631c8ec2991461020a5780631e83409a146102355780632fac5d9f1461025e575b600080fd5b6101a0600480360381019061019b9190611fce565b6105c0565b005b3480156101ae57600080fd5b506101b7610b77565b6040516101c4919061207f565b60405180910390f35b3480156101d957600080fd5b506101f460048036038101906101ef919061209a565b610b8a565b60405161020191906120e9565b60405180910390f35b34801561021657600080fd5b5061021f610c1d565b60405161022c91906120e9565b60405180910390f35b34801561024157600080fd5b5061025c60048036038101906102579190612104565b610c23565b005b61027860048036038101906102739190612131565b610de3565b005b34801561028657600080fd5b5061028f610eb0565b60405161029c9190612193565b60405180910390f35b3480156102b157600080fd5b506102cc60048036038101906102c79190612104565b610ed9565b005b3480156102da57600080fd5b506102e3610fbe565b6040516102f09190612193565b60405180910390f35b34801561030557600080fd5b50610320600480360381019061031b91906121ae565b610fe8565b005b34801561032e57600080fd5b5061033761114b565b6040516103449190612210565b60405180910390f35b6103676004803603810190610362919061222b565b611171565b005b34801561037557600080fd5b50610390600480360381019061038b9190612104565b61188c565b005b34801561039e57600080fd5b506103a7611971565b6040516103b49190612210565b60405180910390f35b3480156103c957600080fd5b506103d2611997565b6040516103df9190612210565b60405180910390f35b3480156103f457600080fd5b5061040f600480360381019061040a91906122b8565b6119bd565b60405161041c91906120e9565b60405180910390f35b34801561043157600080fd5b5061043a611a49565b6040516104479190612193565b60405180910390f35b34801561045c57600080fd5b50610465611a73565b60405161047291906120e9565b60405180910390f35b34801561048757600080fd5b50610490611a79565b60405161049d919061207f565b60405180910390f35b3480156104b257600080fd5b506104cd60048036038101906104c89190612104565b611a8c565b005b6104e960048036038101906104e4919061230b565b611b89565b005b3480156104f757600080fd5b50610500611d15565b60405161050d91906120e9565b60405180910390f35b34801561052257600080fd5b5061052b611d1b565b60405161053891906123d1565b60405180910390f35b34801561054d57600080fd5b50610556611d41565b6040516105639190612193565b60405180910390f35b34801561057857600080fd5b50610593600480360381019061058e9190612104565b611d65565b005b3480156105a157600080fd5b506105aa611e6a565b6040516105b7919061207f565b60405180910390f35b600160009054906101000a900473ffffffffffffffffffffffffffffffffffffffff1673ffffffffffffffffffffffffffffffffffffffff168373ffffffffffffffffffffffffffffffffffffffff1614610650576040517f08c379a00000000000000000000000000000000000000000000000000000000081526004016106479061246f565b60405180910390fd5b600960009054906101000a900460ff16156106a0576040517f08c379a000000000000000000000000000000000000000000000000000000000815260040161069790612501565b60405180910390fd5b861561084457478511156106e9576040517f08c379a00000000000000000000000000000000000000000000000000000000081526004016106e09061256d565b60405180910390fd5b600760149054906101000a900460ff1615610739576040517f08c379a0000000000000000000000000000000000000000000000000000000008152600401610730906125ff565b60405180910390fd5b6001600760146101000a81548160ff02191690831515021790555061077a606461076c8388611e7d90919063ffffffff16565b611e9390919063ffffffff16565b6005819055508573ffffffffffffffffffffffffffffffffffffffff166108fc6107af60055488611ea990919063ffffffff16565b9081150290604051600060405180830381858888f193505050501580156107da573d6000803e3d6000fd5b508173ffffffffffffffffffffffffffffffffffffffff166108fc6005549081150290604051600060405180830381858888f19350505050158015610823573d6000803e3d6000fd5b506000600760146101000a81548160ff021916908315150217905550610b6e565b83600760006101000a81548173ffffffffffffffffffffffffffffffffffffffff021916908373ffffffffffffffffffffffffffffffffffffffff160217905550600760009054906101000a900473ffffffffffffffffffffffffffffffffffffffff1673ffffffffffffffffffffffffffffffffffffffff166370a08231306040518263ffffffff1660e01b81526004016108e09190612193565b602060405180830381865afa1580156108fd573d6000803e3d6000fd5b505050506040513d601f19601f820116820180604052508101906109219190612634565b851115610963576040517f08c379a000000000000000000000000000000000000000000000000000000000815260040161095a9061256d565b60405180910390fd5b600760149054906101000a900460ff16156109b3576040517f08c379a00000000000000000000000000000000000000000000000000000000081526004016109aa906125ff565b60405180910390fd5b6001600760146101000a81548160ff0219169083151502179055506109f460646109e68388611e7d90919063ffffffff16565b611e9390919063ffffffff16565b600581905550600760009054906101000a900473ffffffffffffffffffffffffffffffffffffffff1673ffffffffffffffffffffffffffffffffffffffff1663a9059cbb87610a4e60055489611ea990919063ffffffff16565b6040518363ffffffff1660e01b8152600401610a6b929190612682565b6020604051808303816000875af1158015610a8a573d6000803e3d6000fd5b505050506040513d601f19601f82011682018060405250810190610aae91906126c0565b50600760009054906101000a900473ffffffffffffffffffffffffffffffffffffffff1673ffffffffffffffffffffffffffffffffffffffff1663a9059cbb836005546040518363ffffffff1660e01b8152600401610b0e929190612682565b6020604051808303816000875af1158015610b2d573d6000803e3d6000fd5b505050506040513d601f19601f82011682018060405250810190610b5191906126c0565b506000600760146101000a81548160ff0219169083151502179055505b50505050505050565b600960009054906101000a900460ff1681565b60008215610b9a57479050610c17565b8173ffffffffffffffffffffffffffffffffffffffff166370a08231306040518263ffffffff1660e01b8152600401610bd39190612193565b602060405180830381865afa158015610bf0573d6000803e3d6000fd5b505050506040513d601f19601f82011682018060405250810190610c149190612634565b90505b92915050565b60045481565b8073ffffffffffffffffffffffffffffffffffffffff16600260009054906101000a900473ffffffffffffffffffffffffffffffffffffffff1673ffffffffffffffffffffffffffffffffffffffff1614610cb3576040517f08c379a0000000000000000000000000000000000000000000000000000000008152600401610caa9061275f565b60405180910390fd5b600260149054906101000a900460ff16610d02576040517f08c379a0000000000000000000000000000000000000000000000000000000008152600401610cf9906127f1565b60405180910390fd5b62015180600454610d139190612840565b600354610d209190612882565b421015610d62576040517f08c379a0000000000000000000000000000000000000000000000000000000008152600401610d5990612902565b60405180910390fd5b600260009054906101000a900473ffffffffffffffffffffffffffffffffffffffff16600160006101000a81548173ffffffffffffffffffffffffffffffffffffffff021916908373ffffffffffffffffffffffffffffffffffffffff1602179055506000600260146101000a81548160ff02191690831515021790555050565b60008311610e26576040517f08c379a0000000000000000000000000000000000000000000000000000000008152600401610e1d9061296e565b60405180910390fd5b60008290508073ffffffffffffffffffffffffffffffffffffffff1663095ea7b383866040518363ffffffff1660e01b8152600401610e66929190612682565b6020604051808303816000875af1158015610e85573d6000803e3d6000fd5b505050506040513d601f19601f82011682018060405250810190610ea991906126c0565b5050505050565b60008060009054906101000a900473ffffffffffffffffffffffffffffffffffffffff16905090565b600160009054906101000a900473ffffffffffffffffffffffffffffffffffffffff1673ffffffffffffffffffffffffffffffffffffffff168173ffffffffffffffffffffffffffffffffffffffff1614610f69576040517f08c379a0000000000000000000000000000000000000000000000000000000008152600401610f6090612a00565b60405180910390fd5b6000600960006101000a81548160ff0219169083151502179055507fca5069937e68fd197927055037f59d7c90bf75ac104e6e375539ef480c3ad6ee81604051610fb39190612193565b60405180910390a150565b6000600260009054906101000a900473ffffffffffffffffffffffffffffffffffffffff16905090565b8073ffffffffffffffffffffffffffffffffffffffff16600160009054906101000a900473ffffffffffffffffffffffffffffffffffffffff1673ffffffffffffffffffffffffffffffffffffffff1614611078576040517f08c379a000000000000000000000000000000000000000000000000000000000815260040161106f90612a6c565b60405180910390fd5b600760149054906101000a900460ff16156110c8576040517f08c379a00000000000000000000000000000000000000000000000000000000081526004016110bf906125ff565b60405180910390fd5b6001600760146101000a81548160ff02191690831515021790555082600260006101000a81548173ffffffffffffffffffffffffffffffffffffffff021916908373ffffffffffffffffffffffffffffffffffffffff160217905550816004819055506000600760146101000a81548160ff021916908315150217905550505050565b600660009054906101000a900473ffffffffffffffffffffffffffffffffffffffff1681565b600160009054906101000a900473ffffffffffffffffffffffffffffffffffffffff1673ffffffffffffffffffffffffffffffffffffffff168373ffffffffffffffffffffffffffffffffffffffff1614611201576040517f08c379a00000000000000000000000000000000000000000000000000000000081526004016111f890612afe565b60405180910390fd5b600960009054906101000a900460ff1615611251576040517f08c379a000000000000000000000000000000000000000000000000000000000815260040161124890612501565b60405180910390fd5b851561145a576000471161129a576040517f08c379a000000000000000000000000000000000000000000000000000000000815260040161129190612b6a565b60405180910390fd5b478511156112dd576040517f08c379a00000000000000000000000000000000000000000000000000000000081526004016112d49061256d565b60405180910390fd5b600760149054906101000a900460ff161561132d576040517f08c379a0000000000000000000000000000000000000000000000000000000008152600401611324906125ff565b60405180910390fd5b6001600760146101000a81548160ff02191690831515021790555061136e60646113608388611e7d90919063ffffffff16565b611e9390919063ffffffff16565b600581905550600160009054906101000a900473ffffffffffffffffffffffffffffffffffffffff1673ffffffffffffffffffffffffffffffffffffffff166108fc6113c560055488611ea990919063ffffffff16565b9081150290604051600060405180830381858888f193505050501580156113f0573d6000803e3d6000fd5b508173ffffffffffffffffffffffffffffffffffffffff166108fc6005549081150290604051600060405180830381858888f19350505050158015611439573d6000803e3d6000fd5b506000600760146101000a81548160ff021916908315150217905550611884565b83600760006101000a81548173ffffffffffffffffffffffffffffffffffffffff021916908373ffffffffffffffffffffffffffffffffffffffff1602179055506000600760009054906101000a900473ffffffffffffffffffffffffffffffffffffffff1673ffffffffffffffffffffffffffffffffffffffff166370a08231306040518263ffffffff1660e01b81526004016114f89190612193565b602060405180830381865afa158015611515573d6000803e3d6000fd5b505050506040513d601f19601f820116820180604052508101906115399190612634565b11611579576040517f08c379a000000000000000000000000000000000000000000000000000000000815260040161157090612b6a565b60405180910390fd5b600760009054906101000a900473ffffffffffffffffffffffffffffffffffffffff1673ffffffffffffffffffffffffffffffffffffffff166370a08231306040518263ffffffff1660e01b81526004016115d49190612193565b602060405180830381865afa1580156115f1573d6000803e3d6000fd5b505050506040513d601f19601f820116820180604052508101906116159190612634565b851115611657576040517f08c379a000000000000000000000000000000000000000000000000000000000815260040161164e9061256d565b60405180910390fd5b600760149054906101000a900460ff16156116a7576040517f08c379a000000000000000000000000000000000000000000000000000000000815260040161169e906125ff565b60405180910390fd5b6001600760146101000a81548160ff0219169083151502179055506116e860646116da8388611e7d90919063ffffffff16565b611e9390919063ffffffff16565b600581905550600760009054906101000a900473ffffffffffffffffffffffffffffffffffffffff1673ffffffffffffffffffffffffffffffffffffffff1663a9059cbb600160009054906101000a900473ffffffffffffffffffffffffffffffffffffffff1661176460055489611ea990919063ffffffff16565b6040518363ffffffff1660e01b8152600401611781929190612682565b6020604051808303816000875af11580156117a0573d6000803e3d6000fd5b505050506040513d601f19601f820116820180604052508101906117c491906126c0565b50600760009054906101000a900473ffffffffffffffffffffffffffffffffffffffff1673ffffffffffffffffffffffffffffffffffffffff1663a9059cbb836005546040518363ffffffff1660e01b8152600401611824929190612682565b6020604051808303816000875af1158015611843573d6000803e3d6000fd5b505050506040513d601f19601f8201168201806040525081019061186791906126c0565b506000600760146101000a81548160ff0219169083151502179055505b505050505050565b600160009054906101000a900473ffffffffffffffffffffffffffffffffffffffff1673ffffffffffffffffffffffffffffffffffffffff168173ffffffffffffffffffffffffffffffffffffffff161461191c576040517f08c379a000000000000000000000000000000000000000000000000000000000815260040161191390612bfc565b60405180910390fd5b6001600960006101000a81548160ff0219169083151502179055507faf85b60d26151edd11443b704d424da6c43d0468f2235ebae3d1904dbc323049816040516119669190612193565b60405180910390a150565b600160009054906101000a900473ffffffffffffffffffffffffffffffffffffffff1681565b600260009054906101000a900473ffffffffffffffffffffffffffffffffffffffff1681565b6000808490508073ffffffffffffffffffffffffffffffffffffffff1663dd62ed3e85856040518363ffffffff1660e01b81526004016119fe929190612c1c565b602060405180830381865afa158015611a1b573d6000803e3d6000fd5b505050506040513d601f19601f82011682018060405250810190611a3f9190612634565b9150509392505050565b6000600160009054906101000a900473ffffffffffffffffffffffffffffffffffffffff16905090565b60085481565b600760149054906101000a900460ff1681565b600160009054906101000a900473ffffffffffffffffffffffffffffffffffffffff1673ffffffffffffffffffffffffffffffffffffffff168173ffffffffffffffffffffffffffffffffffffffff1614611b1c576040517f08c379a0000000000000000000000000000000000000000000000000000000008152600401611b1390612c91565b60405180910390fd5b600260149054906101000a900460ff16611b6b576040517f08c379a0000000000000000000000000000000000000000000000000000000008152600401611b6290612d23565b60405180910390fd5b6000600260146101000a81548160ff02191690831515021790555050565b60008411611bcc576040517f08c379a0000000000000000000000000000000000000000000000000000000008152600401611bc39061296e565b60405180910390fd5b6000829050848173ffffffffffffffffffffffffffffffffffffffff166370a08231866040518263ffffffff1660e01b8152600401611c0b9190612d43565b602060405180830381865afa158015611c28573d6000803e3d6000fd5b505050506040513d601f19601f82011682018060405250810190611c4c9190612634565b1015611c8d576040517f08c379a0000000000000000000000000000000000000000000000000000000008152600401611c8490612daa565b60405180910390fd5b8073ffffffffffffffffffffffffffffffffffffffff166323b872dd8584886040518463ffffffff1660e01b8152600401611cca93929190612dca565b6020604051808303816000875af1158015611ce9573d6000803e3d6000fd5b505050506040513d601f19601f82011682018060405250810190611d0d91906126c0565b505050505050565b60035481565b600760009054906101000a900473ffffffffffffffffffffffffffffffffffffffff1681565b60008054906101000a900473ffffffffffffffffffffffffffffffffffffffff1681565b8073ffffffffffffffffffffffffffffffffffffffff16600260009054906101000a900473ffffffffffffffffffffffffffffffffffffffff1673ffffffffffffffffffffffffffffffffffffffff1614611df5576040517f08c379a0000000000000000000000000000000000000000000000000000000008152600401611dec90612e73565b60405180910390fd5b600260149054906101000a900460ff1615611e45576040517f08c379a0000000000000000000000000000000000000000000000000000000008152600401611e3c90612f05565b60405180910390fd5b6001600260146101000a81548160ff0219169083151502179055504260038190555050565b600260149054906101000a900460ff1681565b60008183611e8b9190612840565b905092915050565b60008183611ea19190612f54565b905092915050565b60008183611eb79190612f85565b905092915050565b600080fd5b60008115159050919050565b611ed981611ec4565b8114611ee457600080fd5b50565b600081359050611ef681611ed0565b92915050565b600073ffffffffffffffffffffffffffffffffffffffff82169050919050565b6000611f2782611efc565b9050919050565b611f3781611f1c565b8114611f4257600080fd5b50565b600081359050611f5481611f2e565b92915050565b6000819050919050565b611f6d81611f5a565b8114611f7857600080fd5b50565b600081359050611f8a81611f64565b92915050565b6000611f9b82611efc565b9050919050565b611fab81611f90565b8114611fb657600080fd5b50565b600081359050611fc881611fa2565b92915050565b600080600080600080600060e0888a031215611fed57611fec611ebf565b5b6000611ffb8a828b01611ee7565b975050602061200c8a828b01611f45565b965050604061201d8a828b01611f7b565b955050606061202e8a828b01611fb9565b945050608061203f8a828b01611fb9565b93505060a06120508a828b01611f45565b92505060c06120618a828b01611f7b565b91505092959891949750929550565b61207981611ec4565b82525050565b60006020820190506120946000830184612070565b92915050565b600080604083850312156120b1576120b0611ebf565b5b60006120bf85828601611ee7565b92505060206120d085828601611fb9565b9150509250929050565b6120e381611f5a565b82525050565b60006020820190506120fe60008301846120da565b92915050565b60006020828403121561211a57612119611ebf565b5b600061212884828501611fb9565b91505092915050565b60008060006060848603121561214a57612149611ebf565b5b600061215886828701611f7b565b935050602061216986828701611fb9565b925050604061217a86828701611f45565b9150509250925092565b61218d81611f90565b82525050565b60006020820190506121a86000830184612184565b92915050565b6000806000606084860312156121c7576121c6611ebf565b5b60006121d586828701611f45565b93505060206121e686828701611f7b565b92505060406121f786828701611fb9565b9150509250925092565b61220a81611f1c565b82525050565b60006020820190506122256000830184612201565b92915050565b60008060008060008060c0878903121561224857612247611ebf565b5b600061225689828a01611ee7565b965050602061226789828a01611f7b565b955050604061227889828a01611fb9565b945050606061228989828a01611fb9565b935050608061229a89828a01611f45565b92505060a06122ab89828a01611f7b565b9150509295509295509295565b6000806000606084860312156122d1576122d0611ebf565b5b60006122df86828701611fb9565b93505060206122f086828701611f45565b925050604061230186828701611f45565b9150509250925092565b6000806000806080858703121561232557612324611ebf565b5b600061233387828801611f7b565b945050602061234487828801611f45565b935050604061235587828801611fb9565b925050606061236687828801611f45565b91505092959194509250565b6000819050919050565b600061239761239261238d84611efc565b612372565b611efc565b9050919050565b60006123a98261237c565b9050919050565b60006123bb8261239e565b9050919050565b6123cb816123b0565b82525050565b60006020820190506123e660008301846123c2565b92915050565b600082825260208201905092915050565b7f4f6e6c7920746865206f776e65722063616e207472616e736665722066756e6460008201527f732e000000000000000000000000000000000000000000000000000000000000602082015250565b60006124596022836123ec565b9150612464826123fd565b604082019050919050565b600060208201905081810360008301526124888161244c565b9050919050565b7f4163636f756e742069732066726f7a656e2c2063616e6e6f742077697468647260008201527f61772066756e64732e0000000000000000000000000000000000000000000000602082015250565b60006124eb6029836123ec565b91506124f68261248f565b604082019050919050565b6000602082019050818103600083015261251a816124de565b9050919050565b7f496e73756666696369656e742066756e64732e00000000000000000000000000600082015250565b60006125576013836123ec565b915061256282612521565b602082019050919050565b600060208201905081810360008301526125868161254a565b9050919050565b7f5468652066756e6374696f6e20697320616c726561647920696e20657865637560008201527f74696f6e2e000000000000000000000000000000000000000000000000000000602082015250565b60006125e96025836123ec565b91506125f48261258d565b604082019050919050565b60006020820190508181036000830152612618816125dc565b9050919050565b60008151905061262e81611f64565b92915050565b60006020828403121561264a57612649611ebf565b5b60006126588482850161261f565b91505092915050565b600061266c8261239e565b9050919050565b61267c81612661565b82525050565b60006040820190506126976000830185612673565b6126a460208301846120da565b9392505050565b6000815190506126ba81611ed0565b92915050565b6000602082840312156126d6576126d5611ebf565b5b60006126e4848285016126ab565b91505092915050565b7f4f6e6c792074686520686569722063616e20636c61696d20746865206163636f60008201527f756e742e00000000000000000000000000000000000000000000000000000000602082015250565b60006127496024836123ec565b9150612754826126ed565b604082019050919050565b600060208201905081810360008301526127788161273c565b9050919050565b7f436c61696d2070726f6365737320686173206e6f74206265656e20696e69746960008201527f617465642e000000000000000000000000000000000000000000000000000000602082015250565b60006127db6025836123ec565b91506127e68261277f565b604082019050919050565b6000602082019050818103600083015261280a816127ce565b9050919050565b7f4e487b7100000000000000000000000000000000000000000000000000000000600052601160045260246000fd5b600061284b82611f5a565b915061285683611f5a565b925082820261286481611f5a565b9150828204841483151761287b5761287a612811565b5b5092915050565b600061288d82611f5a565b915061289883611f5a565b92508282019050808211156128b0576128af612811565b5b92915050565b7f436c61696d2064656c617920686173206e6f7420657870697265642e00000000600082015250565b60006128ec601c836123ec565b91506128f7826128b6565b602082019050919050565b6000602082019050818103600083015261291b816128df565b9050919050565b7f43616e6e6f74206465706f7369742030206f72206c6573732e00000000000000600082015250565b60006129586019836123ec565b915061296382612922565b602082019050919050565b600060208201905081810360008301526129878161294b565b9050919050565b7f4f6e6c7920746865206f776e65722063616e20756e667265657a65207468652060008201527f6163636f756e742e000000000000000000000000000000000000000000000000602082015250565b60006129ea6028836123ec565b91506129f58261298e565b604082019050919050565b60006020820190508181036000830152612a19816129dd565b9050919050565b7f4f6e6c7920746865206f776e65722063616e207365742074686520686569722e600082015250565b6000612a566020836123ec565b9150612a6182612a20565b602082019050919050565b60006020820190508181036000830152612a8581612a49565b9050919050565b7f4f6e6c7920746865206f776e65722063616e2077697468647261772066756e6460008201527f732e000000000000000000000000000000000000000000000000000000000000602082015250565b6000612ae86022836123ec565b9150612af382612a8c565b604082019050919050565b60006020820190508181036000830152612b1781612adb565b9050919050565b7f546865726520617265206e6f2066756e647320746f2077697468647261772e00600082015250565b6000612b54601f836123ec565b9150612b5f82612b1e565b602082019050919050565b60006020820190508181036000830152612b8381612b47565b9050919050565b7f4f6e6c7920746865206f776e65722063616e20667265657a652074686520616360008201527f636f756e742e0000000000000000000000000000000000000000000000000000602082015250565b6000612be66026836123ec565b9150612bf182612b8a565b604082019050919050565b60006020820190508181036000830152612c1581612bd9565b9050919050565b6000604082019050612c316000830185612673565b612c3e6020830184612673565b9392505050565b7f4f6e6c7920746865206f776e65722063616e2073746f70206120636c61696d2e600082015250565b6000612c7b6020836123ec565b9150612c8682612c45565b602082019050919050565b60006020820190508181036000830152612caa81612c6e565b9050919050565b7f5468657265206973206e6f2061637469766520636c61696d20746f2073746f7060008201527f2e00000000000000000000000000000000000000000000000000000000000000602082015250565b6000612d0d6021836123ec565b9150612d1882612cb1565b604082019050919050565b60006020820190508181036000830152612d3c81612d00565b9050919050565b6000602082019050612d586000830184612673565b92915050565b7f496e73756666696369656e742062616c616e6365000000000000000000000000600082015250565b6000612d946014836123ec565b9150612d9f82612d5e565b602082019050919050565b60006020820190508181036000830152612dc381612d87565b9050919050565b6000606082019050612ddf6000830186612673565b612dec6020830185612673565b612df960408301846120da565b949350505050565b7f4f6e6c792074686520686569722063616e20696e69746961746520746865206360008201527f6c61696d2070726f636573732e00000000000000000000000000000000000000602082015250565b6000612e5d602d836123ec565b9150612e6882612e01565b604082019050919050565b60006020820190508181036000830152612e8c81612e50565b9050919050565b7f436c61696d2070726f6365737320697320616c726561647920696e2070726f6760008201527f726573732e000000000000000000000000000000000000000000000000000000602082015250565b6000612eef6025836123ec565b9150612efa82612e93565b604082019050919050565b60006020820190508181036000830152612f1e81612ee2565b9050919050565b7f4e487b7100000000000000000000000000000000000000000000000000000000600052601260045260246000fd5b6000612f5f82611f5a565b9150612f6a83611f5a565b925082612f7a57612f79612f25565b5b828204905092915050565b6000612f9082611f5a565b9150612f9b83611f5a565b9250828203905081811115612fb357612fb2612811565b5b9291505056fea2646970667358221220616b4945c32ed29d6994ce7d95082f127e8ffed51a383dd986edadb4ff57461964736f6c63430008110033",
					"opcodes": "PUSH1 0x80 PUSH1 0x40 MSTORE PUSH1 0x0 PUSH1 0x7 PUSH1 0x14 PUSH2 0x100 EXP DUP2 SLOAD DUP2 PUSH1 0xFF MUL NOT AND SWAP1 DUP4 ISZERO ISZERO MUL OR SWAP1 SSTORE POP PUSH1 0x0 PUSH1 0x9 PUSH1 0x0 PUSH2 0x100 EXP DUP2 SLOAD DUP2 PUSH1 0xFF MUL NOT AND SWAP1 DUP4 ISZERO ISZERO MUL OR SWAP1 SSTORE POP CALLVALUE DUP1 ISZERO PUSH3 0x47 JUMPI PUSH1 0x0 DUP1 REVERT JUMPDEST POP PUSH1 0x40 MLOAD PUSH3 0x3190 CODESIZE SUB DUP1 PUSH3 0x3190 DUP4 CODECOPY DUP2 DUP2 ADD PUSH1 0x40 MSTORE DUP2 ADD SWAP1 PUSH3 0x6D SWAP2 SWAP1 PUSH3 0x15F JUMP JUMPDEST DUP1 PUSH1 0x1 PUSH1 0x0 PUSH2 0x100 EXP DUP2 SLOAD DUP2 PUSH20 0xFFFFFFFFFFFFFFFFFFFFFFFFFFFFFFFFFFFFFFFF MUL NOT AND SWAP1 DUP4 PUSH20 0xFFFFFFFFFFFFFFFFFFFFFFFFFFFFFFFFFFFFFFFF AND MUL OR SWAP1 SSTORE POP DUP1 PUSH1 0x0 DUP1 PUSH2 0x100 EXP DUP2 SLOAD DUP2 PUSH20 0xFFFFFFFFFFFFFFFFFFFFFFFFFFFFFFFFFFFFFFFF MUL NOT AND SWAP1 DUP4 PUSH20 0xFFFFFFFFFFFFFFFFFFFFFFFFFFFFFFFFFFFFFFFF AND MUL OR SWAP1 SSTORE POP POP PUSH3 0x191 JUMP JUMPDEST PUSH1 0x0 DUP1 REVERT JUMPDEST PUSH1 0x0 PUSH20 0xFFFFFFFFFFFFFFFFFFFFFFFFFFFFFFFFFFFFFFFF DUP3 AND SWAP1 POP SWAP2 SWAP1 POP JUMP JUMPDEST PUSH1 0x0 PUSH3 0x127 DUP3 PUSH3 0xFA JUMP JUMPDEST SWAP1 POP SWAP2 SWAP1 POP JUMP JUMPDEST PUSH3 0x139 DUP2 PUSH3 0x11A JUMP JUMPDEST DUP2 EQ PUSH3 0x145 JUMPI PUSH1 0x0 DUP1 REVERT JUMPDEST POP JUMP JUMPDEST PUSH1 0x0 DUP2 MLOAD SWAP1 POP PUSH3 0x159 DUP2 PUSH3 0x12E JUMP JUMPDEST SWAP3 SWAP2 POP POP JUMP JUMPDEST PUSH1 0x0 PUSH1 0x20 DUP3 DUP5 SUB SLT ISZERO PUSH3 0x178 JUMPI PUSH3 0x177 PUSH3 0xF5 JUMP JUMPDEST JUMPDEST PUSH1 0x0 PUSH3 0x188 DUP5 DUP3 DUP6 ADD PUSH3 0x148 JUMP JUMPDEST SWAP2 POP POP SWAP3 SWAP2 POP POP JUMP JUMPDEST PUSH2 0x2FEF DUP1 PUSH3 0x1A1 PUSH1 0x0 CODECOPY PUSH1 0x0 RETURN INVALID PUSH1 0x80 PUSH1 0x40 MSTORE PUSH1 0x4 CALLDATASIZE LT PUSH2 0x181 JUMPI PUSH1 0x0 CALLDATALOAD PUSH1 0xE0 SHR DUP1 PUSH4 0x8DA5CB5B GT PUSH2 0xD1 JUMPI DUP1 PUSH4 0xB7D1D98E GT PUSH2 0x8A JUMPI DUP1 PUSH4 0xCC4AA204 GT PUSH2 0x64 JUMPI DUP1 PUSH4 0xCC4AA204 EQ PUSH2 0x516 JUMPI DUP1 PUSH4 0xD5F39488 EQ PUSH2 0x541 JUMPI DUP1 PUSH4 0xF2B5EEA7 EQ PUSH2 0x56C JUMPI DUP1 PUSH4 0xFAEDD18E EQ PUSH2 0x595 JUMPI PUSH2 0x181 JUMP JUMPDEST DUP1 PUSH4 0xB7D1D98E EQ PUSH2 0x4A6 JUMPI DUP1 PUSH4 0xC250283C EQ PUSH2 0x4CF JUMPI DUP1 PUSH4 0xC7983E20 EQ PUSH2 0x4EB JUMPI PUSH2 0x181 JUMP JUMPDEST DUP1 PUSH4 0x8DA5CB5B EQ PUSH2 0x392 JUMPI DUP1 PUSH4 0x91F2EBB8 EQ PUSH2 0x3BD JUMPI DUP1 PUSH4 0x927DA105 EQ PUSH2 0x3E8 JUMPI DUP1 PUSH4 0x94A927FE EQ PUSH2 0x425 JUMPI DUP1 PUSH4 0x9E1A4D19 EQ PUSH2 0x450 JUMPI DUP1 PUSH4 0xA5720770 EQ PUSH2 0x47B JUMPI PUSH2 0x181 JUMP JUMPDEST DUP1 PUSH4 0x362BB2AC GT PUSH2 0x13E JUMPI DUP1 PUSH4 0x6E1A7373 GT PUSH2 0x118 JUMPI DUP1 PUSH4 0x6E1A7373 EQ PUSH2 0x2F9 JUMPI DUP1 PUSH4 0x7A80760E EQ PUSH2 0x322 JUMPI DUP1 PUSH4 0x87C2797D EQ PUSH2 0x34D JUMPI DUP1 PUSH4 0x8D1FDF2F EQ PUSH2 0x369 JUMPI PUSH2 0x181 JUMP JUMPDEST DUP1 PUSH4 0x362BB2AC EQ PUSH2 0x27A JUMPI DUP1 PUSH4 0x45C8B1A6 EQ PUSH2 0x2A5 JUMPI DUP1 PUSH4 0x56AF4F75 EQ PUSH2 0x2CE JUMPI PUSH2 0x181 JUMP JUMPDEST DUP1 PUSH4 0x171B6DA EQ PUSH2 0x186 JUMPI DUP1 PUSH4 0x54F7D9C EQ PUSH2 0x1A2 JUMPI DUP1 PUSH4 0x1903B431 EQ PUSH2 0x1CD JUMPI DUP1 PUSH4 0x1C8EC299 EQ PUSH2 0x20A JUMPI DUP1 PUSH4 0x1E83409A EQ PUSH2 0x235 JUMPI DUP1 PUSH4 0x2FAC5D9F EQ PUSH2 0x25E JUMPI JUMPDEST PUSH1 0x0 DUP1 REVERT JUMPDEST PUSH2 0x1A0 PUSH1 0x4 DUP1 CALLDATASIZE SUB DUP2 ADD SWAP1 PUSH2 0x19B SWAP2 SWAP1 PUSH2 0x1FCE JUMP JUMPDEST PUSH2 0x5C0 JUMP JUMPDEST STOP JUMPDEST CALLVALUE DUP1 ISZERO PUSH2 0x1AE JUMPI PUSH1 0x0 DUP1 REVERT JUMPDEST POP PUSH2 0x1B7 PUSH2 0xB77 JUMP JUMPDEST PUSH1 0x40 MLOAD PUSH2 0x1C4 SWAP2 SWAP1 PUSH2 0x207F JUMP JUMPDEST PUSH1 0x40 MLOAD DUP1 SWAP2 SUB SWAP1 RETURN JUMPDEST CALLVALUE DUP1 ISZERO PUSH2 0x1D9 JUMPI PUSH1 0x0 DUP1 REVERT JUMPDEST POP PUSH2 0x1F4 PUSH1 0x4 DUP1 CALLDATASIZE SUB DUP2 ADD SWAP1 PUSH2 0x1EF SWAP2 SWAP1 PUSH2 0x209A JUMP JUMPDEST PUSH2 0xB8A JUMP JUMPDEST PUSH1 0x40 MLOAD PUSH2 0x201 SWAP2 SWAP1 PUSH2 0x20E9 JUMP JUMPDEST PUSH1 0x40 MLOAD DUP1 SWAP2 SUB SWAP1 RETURN JUMPDEST CALLVALUE DUP1 ISZERO PUSH2 0x216 JUMPI PUSH1 0x0 DUP1 REVERT JUMPDEST POP PUSH2 0x21F PUSH2 0xC1D JUMP JUMPDEST PUSH1 0x40 MLOAD PUSH2 0x22C SWAP2 SWAP1 PUSH2 0x20E9 JUMP JUMPDEST PUSH1 0x40 MLOAD DUP1 SWAP2 SUB SWAP1 RETURN JUMPDEST CALLVALUE DUP1 ISZERO PUSH2 0x241 JUMPI PUSH1 0x0 DUP1 REVERT JUMPDEST POP PUSH2 0x25C PUSH1 0x4 DUP1 CALLDATASIZE SUB DUP2 ADD SWAP1 PUSH2 0x257 SWAP2 SWAP1 PUSH2 0x2104 JUMP JUMPDEST PUSH2 0xC23 JUMP JUMPDEST STOP JUMPDEST PUSH2 0x278 PUSH1 0x4 DUP1 CALLDATASIZE SUB DUP2 ADD SWAP1 PUSH2 0x273 SWAP2 SWAP1 PUSH2 0x2131 JUMP JUMPDEST PUSH2 0xDE3 JUMP JUMPDEST STOP JUMPDEST CALLVALUE DUP1 ISZERO PUSH2 0x286 JUMPI PUSH1 0x0 DUP1 REVERT JUMPDEST POP PUSH2 0x28F PUSH2 0xEB0 JUMP JUMPDEST PUSH1 0x40 MLOAD PUSH2 0x29C SWAP2 SWAP1 PUSH2 0x2193 JUMP JUMPDEST PUSH1 0x40 MLOAD DUP1 SWAP2 SUB SWAP1 RETURN JUMPDEST CALLVALUE DUP1 ISZERO PUSH2 0x2B1 JUMPI PUSH1 0x0 DUP1 REVERT JUMPDEST POP PUSH2 0x2CC PUSH1 0x4 DUP1 CALLDATASIZE SUB DUP2 ADD SWAP1 PUSH2 0x2C7 SWAP2 SWAP1 PUSH2 0x2104 JUMP JUMPDEST PUSH2 0xED9 JUMP JUMPDEST STOP JUMPDEST CALLVALUE DUP1 ISZERO PUSH2 0x2DA JUMPI PUSH1 0x0 DUP1 REVERT JUMPDEST POP PUSH2 0x2E3 PUSH2 0xFBE JUMP JUMPDEST PUSH1 0x40 MLOAD PUSH2 0x2F0 SWAP2 SWAP1 PUSH2 0x2193 JUMP JUMPDEST PUSH1 0x40 MLOAD DUP1 SWAP2 SUB SWAP1 RETURN JUMPDEST CALLVALUE DUP1 ISZERO PUSH2 0x305 JUMPI PUSH1 0x0 DUP1 REVERT JUMPDEST POP PUSH2 0x320 PUSH1 0x4 DUP1 CALLDATASIZE SUB DUP2 ADD SWAP1 PUSH2 0x31B SWAP2 SWAP1 PUSH2 0x21AE JUMP JUMPDEST PUSH2 0xFE8 JUMP JUMPDEST STOP JUMPDEST CALLVALUE DUP1 ISZERO PUSH2 0x32E JUMPI PUSH1 0x0 DUP1 REVERT JUMPDEST POP PUSH2 0x337 PUSH2 0x114B JUMP JUMPDEST PUSH1 0x40 MLOAD PUSH2 0x344 SWAP2 SWAP1 PUSH2 0x2210 JUMP JUMPDEST PUSH1 0x40 MLOAD DUP1 SWAP2 SUB SWAP1 RETURN JUMPDEST PUSH2 0x367 PUSH1 0x4 DUP1 CALLDATASIZE SUB DUP2 ADD SWAP1 PUSH2 0x362 SWAP2 SWAP1 PUSH2 0x222B JUMP JUMPDEST PUSH2 0x1171 JUMP JUMPDEST STOP JUMPDEST CALLVALUE DUP1 ISZERO PUSH2 0x375 JUMPI PUSH1 0x0 DUP1 REVERT JUMPDEST POP PUSH2 0x390 PUSH1 0x4 DUP1 CALLDATASIZE SUB DUP2 ADD SWAP1 PUSH2 0x38B SWAP2 SWAP1 PUSH2 0x2104 JUMP JUMPDEST PUSH2 0x188C JUMP JUMPDEST STOP JUMPDEST CALLVALUE DUP1 ISZERO PUSH2 0x39E JUMPI PUSH1 0x0 DUP1 REVERT JUMPDEST POP PUSH2 0x3A7 PUSH2 0x1971 JUMP JUMPDEST PUSH1 0x40 MLOAD PUSH2 0x3B4 SWAP2 SWAP1 PUSH2 0x2210 JUMP JUMPDEST PUSH1 0x40 MLOAD DUP1 SWAP2 SUB SWAP1 RETURN JUMPDEST CALLVALUE DUP1 ISZERO PUSH2 0x3C9 JUMPI PUSH1 0x0 DUP1 REVERT JUMPDEST POP PUSH2 0x3D2 PUSH2 0x1997 JUMP JUMPDEST PUSH1 0x40 MLOAD PUSH2 0x3DF SWAP2 SWAP1 PUSH2 0x2210 JUMP JUMPDEST PUSH1 0x40 MLOAD DUP1 SWAP2 SUB SWAP1 RETURN JUMPDEST CALLVALUE DUP1 ISZERO PUSH2 0x3F4 JUMPI PUSH1 0x0 DUP1 REVERT JUMPDEST POP PUSH2 0x40F PUSH1 0x4 DUP1 CALLDATASIZE SUB DUP2 ADD SWAP1 PUSH2 0x40A SWAP2 SWAP1 PUSH2 0x22B8 JUMP JUMPDEST PUSH2 0x19BD JUMP JUMPDEST PUSH1 0x40 MLOAD PUSH2 0x41C SWAP2 SWAP1 PUSH2 0x20E9 JUMP JUMPDEST PUSH1 0x40 MLOAD DUP1 SWAP2 SUB SWAP1 RETURN JUMPDEST CALLVALUE DUP1 ISZERO PUSH2 0x431 JUMPI PUSH1 0x0 DUP1 REVERT JUMPDEST POP PUSH2 0x43A PUSH2 0x1A49 JUMP JUMPDEST PUSH1 0x40 MLOAD PUSH2 0x447 SWAP2 SWAP1 PUSH2 0x2193 JUMP JUMPDEST PUSH1 0x40 MLOAD DUP1 SWAP2 SUB SWAP1 RETURN JUMPDEST CALLVALUE DUP1 ISZERO PUSH2 0x45C JUMPI PUSH1 0x0 DUP1 REVERT JUMPDEST POP PUSH2 0x465 PUSH2 0x1A73 JUMP JUMPDEST PUSH1 0x40 MLOAD PUSH2 0x472 SWAP2 SWAP1 PUSH2 0x20E9 JUMP JUMPDEST PUSH1 0x40 MLOAD DUP1 SWAP2 SUB SWAP1 RETURN JUMPDEST CALLVALUE DUP1 ISZERO PUSH2 0x487 JUMPI PUSH1 0x0 DUP1 REVERT JUMPDEST POP PUSH2 0x490 PUSH2 0x1A79 JUMP JUMPDEST PUSH1 0x40 MLOAD PUSH2 0x49D SWAP2 SWAP1 PUSH2 0x207F JUMP JUMPDEST PUSH1 0x40 MLOAD DUP1 SWAP2 SUB SWAP1 RETURN JUMPDEST CALLVALUE DUP1 ISZERO PUSH2 0x4B2 JUMPI PUSH1 0x0 DUP1 REVERT JUMPDEST POP PUSH2 0x4CD PUSH1 0x4 DUP1 CALLDATASIZE SUB DUP2 ADD SWAP1 PUSH2 0x4C8 SWAP2 SWAP1 PUSH2 0x2104 JUMP JUMPDEST PUSH2 0x1A8C JUMP JUMPDEST STOP JUMPDEST PUSH2 0x4E9 PUSH1 0x4 DUP1 CALLDATASIZE SUB DUP2 ADD SWAP1 PUSH2 0x4E4 SWAP2 SWAP1 PUSH2 0x230B JUMP JUMPDEST PUSH2 0x1B89 JUMP JUMPDEST STOP JUMPDEST CALLVALUE DUP1 ISZERO PUSH2 0x4F7 JUMPI PUSH1 0x0 DUP1 REVERT JUMPDEST POP PUSH2 0x500 PUSH2 0x1D15 JUMP JUMPDEST PUSH1 0x40 MLOAD PUSH2 0x50D SWAP2 SWAP1 PUSH2 0x20E9 JUMP JUMPDEST PUSH1 0x40 MLOAD DUP1 SWAP2 SUB SWAP1 RETURN JUMPDEST CALLVALUE DUP1 ISZERO PUSH2 0x522 JUMPI PUSH1 0x0 DUP1 REVERT JUMPDEST POP PUSH2 0x52B PUSH2 0x1D1B JUMP JUMPDEST PUSH1 0x40 MLOAD PUSH2 0x538 SWAP2 SWAP1 PUSH2 0x23D1 JUMP JUMPDEST PUSH1 0x40 MLOAD DUP1 SWAP2 SUB SWAP1 RETURN JUMPDEST CALLVALUE DUP1 ISZERO PUSH2 0x54D JUMPI PUSH1 0x0 DUP1 REVERT JUMPDEST POP PUSH2 0x556 PUSH2 0x1D41 JUMP JUMPDEST PUSH1 0x40 MLOAD PUSH2 0x563 SWAP2 SWAP1 PUSH2 0x2193 JUMP JUMPDEST PUSH1 0x40 MLOAD DUP1 SWAP2 SUB SWAP1 RETURN JUMPDEST CALLVALUE DUP1 ISZERO PUSH2 0x578 JUMPI PUSH1 0x0 DUP1 REVERT JUMPDEST POP PUSH2 0x593 PUSH1 0x4 DUP1 CALLDATASIZE SUB DUP2 ADD SWAP1 PUSH2 0x58E SWAP2 SWAP1 PUSH2 0x2104 JUMP JUMPDEST PUSH2 0x1D65 JUMP JUMPDEST STOP JUMPDEST CALLVALUE DUP1 ISZERO PUSH2 0x5A1 JUMPI PUSH1 0x0 DUP1 REVERT JUMPDEST POP PUSH2 0x5AA PUSH2 0x1E6A JUMP JUMPDEST PUSH1 0x40 MLOAD PUSH2 0x5B7 SWAP2 SWAP1 PUSH2 0x207F JUMP JUMPDEST PUSH1 0x40 MLOAD DUP1 SWAP2 SUB SWAP1 RETURN JUMPDEST PUSH1 0x1 PUSH1 0x0 SWAP1 SLOAD SWAP1 PUSH2 0x100 EXP SWAP1 DIV PUSH20 0xFFFFFFFFFFFFFFFFFFFFFFFFFFFFFFFFFFFFFFFF AND PUSH20 0xFFFFFFFFFFFFFFFFFFFFFFFFFFFFFFFFFFFFFFFF AND DUP4 PUSH20 0xFFFFFFFFFFFFFFFFFFFFFFFFFFFFFFFFFFFFFFFF AND EQ PUSH2 0x650 JUMPI PUSH1 0x40 MLOAD PUSH32 0x8C379A000000000000000000000000000000000000000000000000000000000 DUP2 MSTORE PUSH1 0x4 ADD PUSH2 0x647 SWAP1 PUSH2 0x246F JUMP JUMPDEST PUSH1 0x40 MLOAD DUP1 SWAP2 SUB SWAP1 REVERT JUMPDEST PUSH1 0x9 PUSH1 0x0 SWAP1 SLOAD SWAP1 PUSH2 0x100 EXP SWAP1 DIV PUSH1 0xFF AND ISZERO PUSH2 0x6A0 JUMPI PUSH1 0x40 MLOAD PUSH32 0x8C379A000000000000000000000000000000000000000000000000000000000 DUP2 MSTORE PUSH1 0x4 ADD PUSH2 0x697 SWAP1 PUSH2 0x2501 JUMP JUMPDEST PUSH1 0x40 MLOAD DUP1 SWAP2 SUB SWAP1 REVERT JUMPDEST DUP7 ISZERO PUSH2 0x844 JUMPI SELFBALANCE DUP6 GT ISZERO PUSH2 0x6E9 JUMPI PUSH1 0x40 MLOAD PUSH32 0x8C379A000000000000000000000000000000000000000000000000000000000 DUP2 MSTORE PUSH1 0x4 ADD PUSH2 0x6E0 SWAP1 PUSH2 0x256D JUMP JUMPDEST PUSH1 0x40 MLOAD DUP1 SWAP2 SUB SWAP1 REVERT JUMPDEST PUSH1 0x7 PUSH1 0x14 SWAP1 SLOAD SWAP1 PUSH2 0x100 EXP SWAP1 DIV PUSH1 0xFF AND ISZERO PUSH2 0x739 JUMPI PUSH1 0x40 MLOAD PUSH32 0x8C379A000000000000000000000000000000000000000000000000000000000 DUP2 MSTORE PUSH1 0x4 ADD PUSH2 0x730 SWAP1 PUSH2 0x25FF JUMP JUMPDEST PUSH1 0x40 MLOAD DUP1 SWAP2 SUB SWAP1 REVERT JUMPDEST PUSH1 0x1 PUSH1 0x7 PUSH1 0x14 PUSH2 0x100 EXP DUP2 SLOAD DUP2 PUSH1 0xFF MUL NOT AND SWAP1 DUP4 ISZERO ISZERO MUL OR SWAP1 SSTORE POP PUSH2 0x77A PUSH1 0x64 PUSH2 0x76C DUP4 DUP9 PUSH2 0x1E7D SWAP1 SWAP2 SWAP1 PUSH4 0xFFFFFFFF AND JUMP JUMPDEST PUSH2 0x1E93 SWAP1 SWAP2 SWAP1 PUSH4 0xFFFFFFFF AND JUMP JUMPDEST PUSH1 0x5 DUP2 SWAP1 SSTORE POP DUP6 PUSH20 0xFFFFFFFFFFFFFFFFFFFFFFFFFFFFFFFFFFFFFFFF AND PUSH2 0x8FC PUSH2 0x7AF PUSH1 0x5 SLOAD DUP9 PUSH2 0x1EA9 SWAP1 SWAP2 SWAP1 PUSH4 0xFFFFFFFF AND JUMP JUMPDEST SWAP1 DUP2 ISZERO MUL SWAP1 PUSH1 0x40 MLOAD PUSH1 0x0 PUSH1 0x40 MLOAD DUP1 DUP4 SUB DUP2 DUP6 DUP9 DUP9 CALL SWAP4 POP POP POP POP ISZERO DUP1 ISZERO PUSH2 0x7DA JUMPI RETURNDATASIZE PUSH1 0x0 DUP1 RETURNDATACOPY RETURNDATASIZE PUSH1 0x0 REVERT JUMPDEST POP DUP2 PUSH20 0xFFFFFFFFFFFFFFFFFFFFFFFFFFFFFFFFFFFFFFFF AND PUSH2 0x8FC PUSH1 0x5 SLOAD SWAP1 DUP2 ISZERO MUL SWAP1 PUSH1 0x40 MLOAD PUSH1 0x0 PUSH1 0x40 MLOAD DUP1 DUP4 SUB DUP2 DUP6 DUP9 DUP9 CALL SWAP4 POP POP POP POP ISZERO DUP1 ISZERO PUSH2 0x823 JUMPI RETURNDATASIZE PUSH1 0x0 DUP1 RETURNDATACOPY RETURNDATASIZE PUSH1 0x0 REVERT JUMPDEST POP PUSH1 0x0 PUSH1 0x7 PUSH1 0x14 PUSH2 0x100 EXP DUP2 SLOAD DUP2 PUSH1 0xFF MUL NOT AND SWAP1 DUP4 ISZERO ISZERO MUL OR SWAP1 SSTORE POP PUSH2 0xB6E JUMP JUMPDEST DUP4 PUSH1 0x7 PUSH1 0x0 PUSH2 0x100 EXP DUP2 SLOAD DUP2 PUSH20 0xFFFFFFFFFFFFFFFFFFFFFFFFFFFFFFFFFFFFFFFF MUL NOT AND SWAP1 DUP4 PUSH20 0xFFFFFFFFFFFFFFFFFFFFFFFFFFFFFFFFFFFFFFFF AND MUL OR SWAP1 SSTORE POP PUSH1 0x7 PUSH1 0x0 SWAP1 SLOAD SWAP1 PUSH2 0x100 EXP SWAP1 DIV PUSH20 0xFFFFFFFFFFFFFFFFFFFFFFFFFFFFFFFFFFFFFFFF AND PUSH20 0xFFFFFFFFFFFFFFFFFFFFFFFFFFFFFFFFFFFFFFFF AND PUSH4 0x70A08231 ADDRESS PUSH1 0x40 MLOAD DUP3 PUSH4 0xFFFFFFFF AND PUSH1 0xE0 SHL DUP2 MSTORE PUSH1 0x4 ADD PUSH2 0x8E0 SWAP2 SWAP1 PUSH2 0x2193 JUMP JUMPDEST PUSH1 0x20 PUSH1 0x40 MLOAD DUP1 DUP4 SUB DUP2 DUP7 GAS STATICCALL ISZERO DUP1 ISZERO PUSH2 0x8FD JUMPI RETURNDATASIZE PUSH1 0x0 DUP1 RETURNDATACOPY RETURNDATASIZE PUSH1 0x0 REVERT JUMPDEST POP POP POP POP PUSH1 0x40 MLOAD RETURNDATASIZE PUSH1 0x1F NOT PUSH1 0x1F DUP3 ADD AND DUP3 ADD DUP1 PUSH1 0x40 MSTORE POP DUP2 ADD SWAP1 PUSH2 0x921 SWAP2 SWAP1 PUSH2 0x2634 JUMP JUMPDEST DUP6 GT ISZERO PUSH2 0x963 JUMPI PUSH1 0x40 MLOAD PUSH32 0x8C379A000000000000000000000000000000000000000000000000000000000 DUP2 MSTORE PUSH1 0x4 ADD PUSH2 0x95A SWAP1 PUSH2 0x256D JUMP JUMPDEST PUSH1 0x40 MLOAD DUP1 SWAP2 SUB SWAP1 REVERT JUMPDEST PUSH1 0x7 PUSH1 0x14 SWAP1 SLOAD SWAP1 PUSH2 0x100 EXP SWAP1 DIV PUSH1 0xFF AND ISZERO PUSH2 0x9B3 JUMPI PUSH1 0x40 MLOAD PUSH32 0x8C379A000000000000000000000000000000000000000000000000000000000 DUP2 MSTORE PUSH1 0x4 ADD PUSH2 0x9AA SWAP1 PUSH2 0x25FF JUMP JUMPDEST PUSH1 0x40 MLOAD DUP1 SWAP2 SUB SWAP1 REVERT JUMPDEST PUSH1 0x1 PUSH1 0x7 PUSH1 0x14 PUSH2 0x100 EXP DUP2 SLOAD DUP2 PUSH1 0xFF MUL NOT AND SWAP1 DUP4 ISZERO ISZERO MUL OR SWAP1 SSTORE POP PUSH2 0x9F4 PUSH1 0x64 PUSH2 0x9E6 DUP4 DUP9 PUSH2 0x1E7D SWAP1 SWAP2 SWAP1 PUSH4 0xFFFFFFFF AND JUMP JUMPDEST PUSH2 0x1E93 SWAP1 SWAP2 SWAP1 PUSH4 0xFFFFFFFF AND JUMP JUMPDEST PUSH1 0x5 DUP2 SWAP1 SSTORE POP PUSH1 0x7 PUSH1 0x0 SWAP1 SLOAD SWAP1 PUSH2 0x100 EXP SWAP1 DIV PUSH20 0xFFFFFFFFFFFFFFFFFFFFFFFFFFFFFFFFFFFFFFFF AND PUSH20 0xFFFFFFFFFFFFFFFFFFFFFFFFFFFFFFFFFFFFFFFF AND PUSH4 0xA9059CBB DUP8 PUSH2 0xA4E PUSH1 0x5 SLOAD DUP10 PUSH2 0x1EA9 SWAP1 SWAP2 SWAP1 PUSH4 0xFFFFFFFF AND JUMP JUMPDEST PUSH1 0x40 MLOAD DUP4 PUSH4 0xFFFFFFFF AND PUSH1 0xE0 SHL DUP2 MSTORE PUSH1 0x4 ADD PUSH2 0xA6B SWAP3 SWAP2 SWAP1 PUSH2 0x2682 JUMP JUMPDEST PUSH1 0x20 PUSH1 0x40 MLOAD DUP1 DUP4 SUB DUP2 PUSH1 0x0 DUP8 GAS CALL ISZERO DUP1 ISZERO PUSH2 0xA8A JUMPI RETURNDATASIZE PUSH1 0x0 DUP1 RETURNDATACOPY RETURNDATASIZE PUSH1 0x0 REVERT JUMPDEST POP POP POP POP PUSH1 0x40 MLOAD RETURNDATASIZE PUSH1 0x1F NOT PUSH1 0x1F DUP3 ADD AND DUP3 ADD DUP1 PUSH1 0x40 MSTORE POP DUP2 ADD SWAP1 PUSH2 0xAAE SWAP2 SWAP1 PUSH2 0x26C0 JUMP JUMPDEST POP PUSH1 0x7 PUSH1 0x0 SWAP1 SLOAD SWAP1 PUSH2 0x100 EXP SWAP1 DIV PUSH20 0xFFFFFFFFFFFFFFFFFFFFFFFFFFFFFFFFFFFFFFFF AND PUSH20 0xFFFFFFFFFFFFFFFFFFFFFFFFFFFFFFFFFFFFFFFF AND PUSH4 0xA9059CBB DUP4 PUSH1 0x5 SLOAD PUSH1 0x40 MLOAD DUP4 PUSH4 0xFFFFFFFF AND PUSH1 0xE0 SHL DUP2 MSTORE PUSH1 0x4 ADD PUSH2 0xB0E SWAP3 SWAP2 SWAP1 PUSH2 0x2682 JUMP JUMPDEST PUSH1 0x20 PUSH1 0x40 MLOAD DUP1 DUP4 SUB DUP2 PUSH1 0x0 DUP8 GAS CALL ISZERO DUP1 ISZERO PUSH2 0xB2D JUMPI RETURNDATASIZE PUSH1 0x0 DUP1 RETURNDATACOPY RETURNDATASIZE PUSH1 0x0 REVERT JUMPDEST POP POP POP POP PUSH1 0x40 MLOAD RETURNDATASIZE PUSH1 0x1F NOT PUSH1 0x1F DUP3 ADD AND DUP3 ADD DUP1 PUSH1 0x40 MSTORE POP DUP2 ADD SWAP1 PUSH2 0xB51 SWAP2 SWAP1 PUSH2 0x26C0 JUMP JUMPDEST POP PUSH1 0x0 PUSH1 0x7 PUSH1 0x14 PUSH2 0x100 EXP DUP2 SLOAD DUP2 PUSH1 0xFF MUL NOT AND SWAP1 DUP4 ISZERO ISZERO MUL OR SWAP1 SSTORE POP JUMPDEST POP POP POP POP POP POP POP JUMP JUMPDEST PUSH1 0x9 PUSH1 0x0 SWAP1 SLOAD SWAP1 PUSH2 0x100 EXP SWAP1 DIV PUSH1 0xFF AND DUP2 JUMP JUMPDEST PUSH1 0x0 DUP3 ISZERO PUSH2 0xB9A JUMPI SELFBALANCE SWAP1 POP PUSH2 0xC17 JUMP JUMPDEST DUP2 PUSH20 0xFFFFFFFFFFFFFFFFFFFFFFFFFFFFFFFFFFFFFFFF AND PUSH4 0x70A08231 ADDRESS PUSH1 0x40 MLOAD DUP3 PUSH4 0xFFFFFFFF AND PUSH1 0xE0 SHL DUP2 MSTORE PUSH1 0x4 ADD PUSH2 0xBD3 SWAP2 SWAP1 PUSH2 0x2193 JUMP JUMPDEST PUSH1 0x20 PUSH1 0x40 MLOAD DUP1 DUP4 SUB DUP2 DUP7 GAS STATICCALL ISZERO DUP1 ISZERO PUSH2 0xBF0 JUMPI RETURNDATASIZE PUSH1 0x0 DUP1 RETURNDATACOPY RETURNDATASIZE PUSH1 0x0 REVERT JUMPDEST POP POP POP POP PUSH1 0x40 MLOAD RETURNDATASIZE PUSH1 0x1F NOT PUSH1 0x1F DUP3 ADD AND DUP3 ADD DUP1 PUSH1 0x40 MSTORE POP DUP2 ADD SWAP1 PUSH2 0xC14 SWAP2 SWAP1 PUSH2 0x2634 JUMP JUMPDEST SWAP1 POP JUMPDEST SWAP3 SWAP2 POP POP JUMP JUMPDEST PUSH1 0x4 SLOAD DUP2 JUMP JUMPDEST DUP1 PUSH20 0xFFFFFFFFFFFFFFFFFFFFFFFFFFFFFFFFFFFFFFFF AND PUSH1 0x2 PUSH1 0x0 SWAP1 SLOAD SWAP1 PUSH2 0x100 EXP SWAP1 DIV PUSH20 0xFFFFFFFFFFFFFFFFFFFFFFFFFFFFFFFFFFFFFFFF AND PUSH20 0xFFFFFFFFFFFFFFFFFFFFFFFFFFFFFFFFFFFFFFFF AND EQ PUSH2 0xCB3 JUMPI PUSH1 0x40 MLOAD PUSH32 0x8C379A000000000000000000000000000000000000000000000000000000000 DUP2 MSTORE PUSH1 0x4 ADD PUSH2 0xCAA SWAP1 PUSH2 0x275F JUMP JUMPDEST PUSH1 0x40 MLOAD DUP1 SWAP2 SUB SWAP1 REVERT JUMPDEST PUSH1 0x2 PUSH1 0x14 SWAP1 SLOAD SWAP1 PUSH2 0x100 EXP SWAP1 DIV PUSH1 0xFF AND PUSH2 0xD02 JUMPI PUSH1 0x40 MLOAD PUSH32 0x8C379A000000000000000000000000000000000000000000000000000000000 DUP2 MSTORE PUSH1 0x4 ADD PUSH2 0xCF9 SWAP1 PUSH2 0x27F1 JUMP JUMPDEST PUSH1 0x40 MLOAD DUP1 SWAP2 SUB SWAP1 REVERT JUMPDEST PUSH3 0x15180 PUSH1 0x4 SLOAD PUSH2 0xD13 SWAP2 SWAP1 PUSH2 0x2840 JUMP JUMPDEST PUSH1 0x3 SLOAD PUSH2 0xD20 SWAP2 SWAP1 PUSH2 0x2882 JUMP JUMPDEST TIMESTAMP LT ISZERO PUSH2 0xD62 JUMPI PUSH1 0x40 MLOAD PUSH32 0x8C379A000000000000000000000000000000000000000000000000000000000 DUP2 MSTORE PUSH1 0x4 ADD PUSH2 0xD59 SWAP1 PUSH2 0x2902 JUMP JUMPDEST PUSH1 0x40 MLOAD DUP1 SWAP2 SUB SWAP1 REVERT JUMPDEST PUSH1 0x2 PUSH1 0x0 SWAP1 SLOAD SWAP1 PUSH2 0x100 EXP SWAP1 DIV PUSH20 0xFFFFFFFFFFFFFFFFFFFFFFFFFFFFFFFFFFFFFFFF AND PUSH1 0x1 PUSH1 0x0 PUSH2 0x100 EXP DUP2 SLOAD DUP2 PUSH20 0xFFFFFFFFFFFFFFFFFFFFFFFFFFFFFFFFFFFFFFFF MUL NOT AND SWAP1 DUP4 PUSH20 0xFFFFFFFFFFFFFFFFFFFFFFFFFFFFFFFFFFFFFFFF AND MUL OR SWAP1 SSTORE POP PUSH1 0x0 PUSH1 0x2 PUSH1 0x14 PUSH2 0x100 EXP DUP2 SLOAD DUP2 PUSH1 0xFF MUL NOT AND SWAP1 DUP4 ISZERO ISZERO MUL OR SWAP1 SSTORE POP POP JUMP JUMPDEST PUSH1 0x0 DUP4 GT PUSH2 0xE26 JUMPI PUSH1 0x40 MLOAD PUSH32 0x8C379A000000000000000000000000000000000000000000000000000000000 DUP2 MSTORE PUSH1 0x4 ADD PUSH2 0xE1D SWAP1 PUSH2 0x296E JUMP JUMPDEST PUSH1 0x40 MLOAD DUP1 SWAP2 SUB SWAP1 REVERT JUMPDEST PUSH1 0x0 DUP3 SWAP1 POP DUP1 PUSH20 0xFFFFFFFFFFFFFFFFFFFFFFFFFFFFFFFFFFFFFFFF AND PUSH4 0x95EA7B3 DUP4 DUP7 PUSH1 0x40 MLOAD DUP4 PUSH4 0xFFFFFFFF AND PUSH1 0xE0 SHL DUP2 MSTORE PUSH1 0x4 ADD PUSH2 0xE66 SWAP3 SWAP2 SWAP1 PUSH2 0x2682 JUMP JUMPDEST PUSH1 0x20 PUSH1 0x40 MLOAD DUP1 DUP4 SUB DUP2 PUSH1 0x0 DUP8 GAS CALL ISZERO DUP1 ISZERO PUSH2 0xE85 JUMPI RETURNDATASIZE PUSH1 0x0 DUP1 RETURNDATACOPY RETURNDATASIZE PUSH1 0x0 REVERT JUMPDEST POP POP POP POP PUSH1 0x40 MLOAD RETURNDATASIZE PUSH1 0x1F NOT PUSH1 0x1F DUP3 ADD AND DUP3 ADD DUP1 PUSH1 0x40 MSTORE POP DUP2 ADD SWAP1 PUSH2 0xEA9 SWAP2 SWAP1 PUSH2 0x26C0 JUMP JUMPDEST POP POP POP POP POP JUMP JUMPDEST PUSH1 0x0 DUP1 PUSH1 0x0 SWAP1 SLOAD SWAP1 PUSH2 0x100 EXP SWAP1 DIV PUSH20 0xFFFFFFFFFFFFFFFFFFFFFFFFFFFFFFFFFFFFFFFF AND SWAP1 POP SWAP1 JUMP JUMPDEST PUSH1 0x1 PUSH1 0x0 SWAP1 SLOAD SWAP1 PUSH2 0x100 EXP SWAP1 DIV PUSH20 0xFFFFFFFFFFFFFFFFFFFFFFFFFFFFFFFFFFFFFFFF AND PUSH20 0xFFFFFFFFFFFFFFFFFFFFFFFFFFFFFFFFFFFFFFFF AND DUP2 PUSH20 0xFFFFFFFFFFFFFFFFFFFFFFFFFFFFFFFFFFFFFFFF AND EQ PUSH2 0xF69 JUMPI PUSH1 0x40 MLOAD PUSH32 0x8C379A000000000000000000000000000000000000000000000000000000000 DUP2 MSTORE PUSH1 0x4 ADD PUSH2 0xF60 SWAP1 PUSH2 0x2A00 JUMP JUMPDEST PUSH1 0x40 MLOAD DUP1 SWAP2 SUB SWAP1 REVERT JUMPDEST PUSH1 0x0 PUSH1 0x9 PUSH1 0x0 PUSH2 0x100 EXP DUP2 SLOAD DUP2 PUSH1 0xFF MUL NOT AND SWAP1 DUP4 ISZERO ISZERO MUL OR SWAP1 SSTORE POP PUSH32 0xCA5069937E68FD197927055037F59D7C90BF75AC104E6E375539EF480C3AD6EE DUP2 PUSH1 0x40 MLOAD PUSH2 0xFB3 SWAP2 SWAP1 PUSH2 0x2193 JUMP JUMPDEST PUSH1 0x40 MLOAD DUP1 SWAP2 SUB SWAP1 LOG1 POP JUMP JUMPDEST PUSH1 0x0 PUSH1 0x2 PUSH1 0x0 SWAP1 SLOAD SWAP1 PUSH2 0x100 EXP SWAP1 DIV PUSH20 0xFFFFFFFFFFFFFFFFFFFFFFFFFFFFFFFFFFFFFFFF AND SWAP1 POP SWAP1 JUMP JUMPDEST DUP1 PUSH20 0xFFFFFFFFFFFFFFFFFFFFFFFFFFFFFFFFFFFFFFFF AND PUSH1 0x1 PUSH1 0x0 SWAP1 SLOAD SWAP1 PUSH2 0x100 EXP SWAP1 DIV PUSH20 0xFFFFFFFFFFFFFFFFFFFFFFFFFFFFFFFFFFFFFFFF AND PUSH20 0xFFFFFFFFFFFFFFFFFFFFFFFFFFFFFFFFFFFFFFFF AND EQ PUSH2 0x1078 JUMPI PUSH1 0x40 MLOAD PUSH32 0x8C379A000000000000000000000000000000000000000000000000000000000 DUP2 MSTORE PUSH1 0x4 ADD PUSH2 0x106F SWAP1 PUSH2 0x2A6C JUMP JUMPDEST PUSH1 0x40 MLOAD DUP1 SWAP2 SUB SWAP1 REVERT JUMPDEST PUSH1 0x7 PUSH1 0x14 SWAP1 SLOAD SWAP1 PUSH2 0x100 EXP SWAP1 DIV PUSH1 0xFF AND ISZERO PUSH2 0x10C8 JUMPI PUSH1 0x40 MLOAD PUSH32 0x8C379A000000000000000000000000000000000000000000000000000000000 DUP2 MSTORE PUSH1 0x4 ADD PUSH2 0x10BF SWAP1 PUSH2 0x25FF JUMP JUMPDEST PUSH1 0x40 MLOAD DUP1 SWAP2 SUB SWAP1 REVERT JUMPDEST PUSH1 0x1 PUSH1 0x7 PUSH1 0x14 PUSH2 0x100 EXP DUP2 SLOAD DUP2 PUSH1 0xFF MUL NOT AND SWAP1 DUP4 ISZERO ISZERO MUL OR SWAP1 SSTORE POP DUP3 PUSH1 0x2 PUSH1 0x0 PUSH2 0x100 EXP DUP2 SLOAD DUP2 PUSH20 0xFFFFFFFFFFFFFFFFFFFFFFFFFFFFFFFFFFFFFFFF MUL NOT AND SWAP1 DUP4 PUSH20 0xFFFFFFFFFFFFFFFFFFFFFFFFFFFFFFFFFFFFFFFF AND MUL OR SWAP1 SSTORE POP DUP2 PUSH1 0x4 DUP2 SWAP1 SSTORE POP PUSH1 0x0 PUSH1 0x7 PUSH1 0x14 PUSH2 0x100 EXP DUP2 SLOAD DUP2 PUSH1 0xFF MUL NOT AND SWAP1 DUP4 ISZERO ISZERO MUL OR SWAP1 SSTORE POP POP POP POP JUMP JUMPDEST PUSH1 0x6 PUSH1 0x0 SWAP1 SLOAD SWAP1 PUSH2 0x100 EXP SWAP1 DIV PUSH20 0xFFFFFFFFFFFFFFFFFFFFFFFFFFFFFFFFFFFFFFFF AND DUP2 JUMP JUMPDEST PUSH1 0x1 PUSH1 0x0 SWAP1 SLOAD SWAP1 PUSH2 0x100 EXP SWAP1 DIV PUSH20 0xFFFFFFFFFFFFFFFFFFFFFFFFFFFFFFFFFFFFFFFF AND PUSH20 0xFFFFFFFFFFFFFFFFFFFFFFFFFFFFFFFFFFFFFFFF AND DUP4 PUSH20 0xFFFFFFFFFFFFFFFFFFFFFFFFFFFFFFFFFFFFFFFF AND EQ PUSH2 0x1201 JUMPI PUSH1 0x40 MLOAD PUSH32 0x8C379A000000000000000000000000000000000000000000000000000000000 DUP2 MSTORE PUSH1 0x4 ADD PUSH2 0x11F8 SWAP1 PUSH2 0x2AFE JUMP JUMPDEST PUSH1 0x40 MLOAD DUP1 SWAP2 SUB SWAP1 REVERT JUMPDEST PUSH1 0x9 PUSH1 0x0 SWAP1 SLOAD SWAP1 PUSH2 0x100 EXP SWAP1 DIV PUSH1 0xFF AND ISZERO PUSH2 0x1251 JUMPI PUSH1 0x40 MLOAD PUSH32 0x8C379A000000000000000000000000000000000000000000000000000000000 DUP2 MSTORE PUSH1 0x4 ADD PUSH2 0x1248 SWAP1 PUSH2 0x2501 JUMP JUMPDEST PUSH1 0x40 MLOAD DUP1 SWAP2 SUB SWAP1 REVERT JUMPDEST DUP6 ISZERO PUSH2 0x145A JUMPI PUSH1 0x0 SELFBALANCE GT PUSH2 0x129A JUMPI PUSH1 0x40 MLOAD PUSH32 0x8C379A000000000000000000000000000000000000000000000000000000000 DUP2 MSTORE PUSH1 0x4 ADD PUSH2 0x1291 SWAP1 PUSH2 0x2B6A JUMP JUMPDEST PUSH1 0x40 MLOAD DUP1 SWAP2 SUB SWAP1 REVERT JUMPDEST SELFBALANCE DUP6 GT ISZERO PUSH2 0x12DD JUMPI PUSH1 0x40 MLOAD PUSH32 0x8C379A000000000000000000000000000000000000000000000000000000000 DUP2 MSTORE PUSH1 0x4 ADD PUSH2 0x12D4 SWAP1 PUSH2 0x256D JUMP JUMPDEST PUSH1 0x40 MLOAD DUP1 SWAP2 SUB SWAP1 REVERT JUMPDEST PUSH1 0x7 PUSH1 0x14 SWAP1 SLOAD SWAP1 PUSH2 0x100 EXP SWAP1 DIV PUSH1 0xFF AND ISZERO PUSH2 0x132D JUMPI PUSH1 0x40 MLOAD PUSH32 0x8C379A000000000000000000000000000000000000000000000000000000000 DUP2 MSTORE PUSH1 0x4 ADD PUSH2 0x1324 SWAP1 PUSH2 0x25FF JUMP JUMPDEST PUSH1 0x40 MLOAD DUP1 SWAP2 SUB SWAP1 REVERT JUMPDEST PUSH1 0x1 PUSH1 0x7 PUSH1 0x14 PUSH2 0x100 EXP DUP2 SLOAD DUP2 PUSH1 0xFF MUL NOT AND SWAP1 DUP4 ISZERO ISZERO MUL OR SWAP1 SSTORE POP PUSH2 0x136E PUSH1 0x64 PUSH2 0x1360 DUP4 DUP9 PUSH2 0x1E7D SWAP1 SWAP2 SWAP1 PUSH4 0xFFFFFFFF AND JUMP JUMPDEST PUSH2 0x1E93 SWAP1 SWAP2 SWAP1 PUSH4 0xFFFFFFFF AND JUMP JUMPDEST PUSH1 0x5 DUP2 SWAP1 SSTORE POP PUSH1 0x1 PUSH1 0x0 SWAP1 SLOAD SWAP1 PUSH2 0x100 EXP SWAP1 DIV PUSH20 0xFFFFFFFFFFFFFFFFFFFFFFFFFFFFFFFFFFFFFFFF AND PUSH20 0xFFFFFFFFFFFFFFFFFFFFFFFFFFFFFFFFFFFFFFFF AND PUSH2 0x8FC PUSH2 0x13C5 PUSH1 0x5 SLOAD DUP9 PUSH2 0x1EA9 SWAP1 SWAP2 SWAP1 PUSH4 0xFFFFFFFF AND JUMP JUMPDEST SWAP1 DUP2 ISZERO MUL SWAP1 PUSH1 0x40 MLOAD PUSH1 0x0 PUSH1 0x40 MLOAD DUP1 DUP4 SUB DUP2 DUP6 DUP9 DUP9 CALL SWAP4 POP POP POP POP ISZERO DUP1 ISZERO PUSH2 0x13F0 JUMPI RETURNDATASIZE PUSH1 0x0 DUP1 RETURNDATACOPY RETURNDATASIZE PUSH1 0x0 REVERT JUMPDEST POP DUP2 PUSH20 0xFFFFFFFFFFFFFFFFFFFFFFFFFFFFFFFFFFFFFFFF AND PUSH2 0x8FC PUSH1 0x5 SLOAD SWAP1 DUP2 ISZERO MUL SWAP1 PUSH1 0x40 MLOAD PUSH1 0x0 PUSH1 0x40 MLOAD DUP1 DUP4 SUB DUP2 DUP6 DUP9 DUP9 CALL SWAP4 POP POP POP POP ISZERO DUP1 ISZERO PUSH2 0x1439 JUMPI RETURNDATASIZE PUSH1 0x0 DUP1 RETURNDATACOPY RETURNDATASIZE PUSH1 0x0 REVERT JUMPDEST POP PUSH1 0x0 PUSH1 0x7 PUSH1 0x14 PUSH2 0x100 EXP DUP2 SLOAD DUP2 PUSH1 0xFF MUL NOT AND SWAP1 DUP4 ISZERO ISZERO MUL OR SWAP1 SSTORE POP PUSH2 0x1884 JUMP JUMPDEST DUP4 PUSH1 0x7 PUSH1 0x0 PUSH2 0x100 EXP DUP2 SLOAD DUP2 PUSH20 0xFFFFFFFFFFFFFFFFFFFFFFFFFFFFFFFFFFFFFFFF MUL NOT AND SWAP1 DUP4 PUSH20 0xFFFFFFFFFFFFFFFFFFFFFFFFFFFFFFFFFFFFFFFF AND MUL OR SWAP1 SSTORE POP PUSH1 0x0 PUSH1 0x7 PUSH1 0x0 SWAP1 SLOAD SWAP1 PUSH2 0x100 EXP SWAP1 DIV PUSH20 0xFFFFFFFFFFFFFFFFFFFFFFFFFFFFFFFFFFFFFFFF AND PUSH20 0xFFFFFFFFFFFFFFFFFFFFFFFFFFFFFFFFFFFFFFFF AND PUSH4 0x70A08231 ADDRESS PUSH1 0x40 MLOAD DUP3 PUSH4 0xFFFFFFFF AND PUSH1 0xE0 SHL DUP2 MSTORE PUSH1 0x4 ADD PUSH2 0x14F8 SWAP2 SWAP1 PUSH2 0x2193 JUMP JUMPDEST PUSH1 0x20 PUSH1 0x40 MLOAD DUP1 DUP4 SUB DUP2 DUP7 GAS STATICCALL ISZERO DUP1 ISZERO PUSH2 0x1515 JUMPI RETURNDATASIZE PUSH1 0x0 DUP1 RETURNDATACOPY RETURNDATASIZE PUSH1 0x0 REVERT JUMPDEST POP POP POP POP PUSH1 0x40 MLOAD RETURNDATASIZE PUSH1 0x1F NOT PUSH1 0x1F DUP3 ADD AND DUP3 ADD DUP1 PUSH1 0x40 MSTORE POP DUP2 ADD SWAP1 PUSH2 0x1539 SWAP2 SWAP1 PUSH2 0x2634 JUMP JUMPDEST GT PUSH2 0x1579 JUMPI PUSH1 0x40 MLOAD PUSH32 0x8C379A000000000000000000000000000000000000000000000000000000000 DUP2 MSTORE PUSH1 0x4 ADD PUSH2 0x1570 SWAP1 PUSH2 0x2B6A JUMP JUMPDEST PUSH1 0x40 MLOAD DUP1 SWAP2 SUB SWAP1 REVERT JUMPDEST PUSH1 0x7 PUSH1 0x0 SWAP1 SLOAD SWAP1 PUSH2 0x100 EXP SWAP1 DIV PUSH20 0xFFFFFFFFFFFFFFFFFFFFFFFFFFFFFFFFFFFFFFFF AND PUSH20 0xFFFFFFFFFFFFFFFFFFFFFFFFFFFFFFFFFFFFFFFF AND PUSH4 0x70A08231 ADDRESS PUSH1 0x40 MLOAD DUP3 PUSH4 0xFFFFFFFF AND PUSH1 0xE0 SHL DUP2 MSTORE PUSH1 0x4 ADD PUSH2 0x15D4 SWAP2 SWAP1 PUSH2 0x2193 JUMP JUMPDEST PUSH1 0x20 PUSH1 0x40 MLOAD DUP1 DUP4 SUB DUP2 DUP7 GAS STATICCALL ISZERO DUP1 ISZERO PUSH2 0x15F1 JUMPI RETURNDATASIZE PUSH1 0x0 DUP1 RETURNDATACOPY RETURNDATASIZE PUSH1 0x0 REVERT JUMPDEST POP POP POP POP PUSH1 0x40 MLOAD RETURNDATASIZE PUSH1 0x1F NOT PUSH1 0x1F DUP3 ADD AND DUP3 ADD DUP1 PUSH1 0x40 MSTORE POP DUP2 ADD SWAP1 PUSH2 0x1615 SWAP2 SWAP1 PUSH2 0x2634 JUMP JUMPDEST DUP6 GT ISZERO PUSH2 0x1657 JUMPI PUSH1 0x40 MLOAD PUSH32 0x8C379A000000000000000000000000000000000000000000000000000000000 DUP2 MSTORE PUSH1 0x4 ADD PUSH2 0x164E SWAP1 PUSH2 0x256D JUMP JUMPDEST PUSH1 0x40 MLOAD DUP1 SWAP2 SUB SWAP1 REVERT JUMPDEST PUSH1 0x7 PUSH1 0x14 SWAP1 SLOAD SWAP1 PUSH2 0x100 EXP SWAP1 DIV PUSH1 0xFF AND ISZERO PUSH2 0x16A7 JUMPI PUSH1 0x40 MLOAD PUSH32 0x8C379A000000000000000000000000000000000000000000000000000000000 DUP2 MSTORE PUSH1 0x4 ADD PUSH2 0x169E SWAP1 PUSH2 0x25FF JUMP JUMPDEST PUSH1 0x40 MLOAD DUP1 SWAP2 SUB SWAP1 REVERT JUMPDEST PUSH1 0x1 PUSH1 0x7 PUSH1 0x14 PUSH2 0x100 EXP DUP2 SLOAD DUP2 PUSH1 0xFF MUL NOT AND SWAP1 DUP4 ISZERO ISZERO MUL OR SWAP1 SSTORE POP PUSH2 0x16E8 PUSH1 0x64 PUSH2 0x16DA DUP4 DUP9 PUSH2 0x1E7D SWAP1 SWAP2 SWAP1 PUSH4 0xFFFFFFFF AND JUMP JUMPDEST PUSH2 0x1E93 SWAP1 SWAP2 SWAP1 PUSH4 0xFFFFFFFF AND JUMP JUMPDEST PUSH1 0x5 DUP2 SWAP1 SSTORE POP PUSH1 0x7 PUSH1 0x0 SWAP1 SLOAD SWAP1 PUSH2 0x100 EXP SWAP1 DIV PUSH20 0xFFFFFFFFFFFFFFFFFFFFFFFFFFFFFFFFFFFFFFFF AND PUSH20 0xFFFFFFFFFFFFFFFFFFFFFFFFFFFFFFFFFFFFFFFF AND PUSH4 0xA9059CBB PUSH1 0x1 PUSH1 0x0 SWAP1 SLOAD SWAP1 PUSH2 0x100 EXP SWAP1 DIV PUSH20 0xFFFFFFFFFFFFFFFFFFFFFFFFFFFFFFFFFFFFFFFF AND PUSH2 0x1764 PUSH1 0x5 SLOAD DUP10 PUSH2 0x1EA9 SWAP1 SWAP2 SWAP1 PUSH4 0xFFFFFFFF AND JUMP JUMPDEST PUSH1 0x40 MLOAD DUP4 PUSH4 0xFFFFFFFF AND PUSH1 0xE0 SHL DUP2 MSTORE PUSH1 0x4 ADD PUSH2 0x1781 SWAP3 SWAP2 SWAP1 PUSH2 0x2682 JUMP JUMPDEST PUSH1 0x20 PUSH1 0x40 MLOAD DUP1 DUP4 SUB DUP2 PUSH1 0x0 DUP8 GAS CALL ISZERO DUP1 ISZERO PUSH2 0x17A0 JUMPI RETURNDATASIZE PUSH1 0x0 DUP1 RETURNDATACOPY RETURNDATASIZE PUSH1 0x0 REVERT JUMPDEST POP POP POP POP PUSH1 0x40 MLOAD RETURNDATASIZE PUSH1 0x1F NOT PUSH1 0x1F DUP3 ADD AND DUP3 ADD DUP1 PUSH1 0x40 MSTORE POP DUP2 ADD SWAP1 PUSH2 0x17C4 SWAP2 SWAP1 PUSH2 0x26C0 JUMP JUMPDEST POP PUSH1 0x7 PUSH1 0x0 SWAP1 SLOAD SWAP1 PUSH2 0x100 EXP SWAP1 DIV PUSH20 0xFFFFFFFFFFFFFFFFFFFFFFFFFFFFFFFFFFFFFFFF AND PUSH20 0xFFFFFFFFFFFFFFFFFFFFFFFFFFFFFFFFFFFFFFFF AND PUSH4 0xA9059CBB DUP4 PUSH1 0x5 SLOAD PUSH1 0x40 MLOAD DUP4 PUSH4 0xFFFFFFFF AND PUSH1 0xE0 SHL DUP2 MSTORE PUSH1 0x4 ADD PUSH2 0x1824 SWAP3 SWAP2 SWAP1 PUSH2 0x2682 JUMP JUMPDEST PUSH1 0x20 PUSH1 0x40 MLOAD DUP1 DUP4 SUB DUP2 PUSH1 0x0 DUP8 GAS CALL ISZERO DUP1 ISZERO PUSH2 0x1843 JUMPI RETURNDATASIZE PUSH1 0x0 DUP1 RETURNDATACOPY RETURNDATASIZE PUSH1 0x0 REVERT JUMPDEST POP POP POP POP PUSH1 0x40 MLOAD RETURNDATASIZE PUSH1 0x1F NOT PUSH1 0x1F DUP3 ADD AND DUP3 ADD DUP1 PUSH1 0x40 MSTORE POP DUP2 ADD SWAP1 PUSH2 0x1867 SWAP2 SWAP1 PUSH2 0x26C0 JUMP JUMPDEST POP PUSH1 0x0 PUSH1 0x7 PUSH1 0x14 PUSH2 0x100 EXP DUP2 SLOAD DUP2 PUSH1 0xFF MUL NOT AND SWAP1 DUP4 ISZERO ISZERO MUL OR SWAP1 SSTORE POP JUMPDEST POP POP POP POP POP POP JUMP JUMPDEST PUSH1 0x1 PUSH1 0x0 SWAP1 SLOAD SWAP1 PUSH2 0x100 EXP SWAP1 DIV PUSH20 0xFFFFFFFFFFFFFFFFFFFFFFFFFFFFFFFFFFFFFFFF AND PUSH20 0xFFFFFFFFFFFFFFFFFFFFFFFFFFFFFFFFFFFFFFFF AND DUP2 PUSH20 0xFFFFFFFFFFFFFFFFFFFFFFFFFFFFFFFFFFFFFFFF AND EQ PUSH2 0x191C JUMPI PUSH1 0x40 MLOAD PUSH32 0x8C379A000000000000000000000000000000000000000000000000000000000 DUP2 MSTORE PUSH1 0x4 ADD PUSH2 0x1913 SWAP1 PUSH2 0x2BFC JUMP JUMPDEST PUSH1 0x40 MLOAD DUP1 SWAP2 SUB SWAP1 REVERT JUMPDEST PUSH1 0x1 PUSH1 0x9 PUSH1 0x0 PUSH2 0x100 EXP DUP2 SLOAD DUP2 PUSH1 0xFF MUL NOT AND SWAP1 DUP4 ISZERO ISZERO MUL OR SWAP1 SSTORE POP PUSH32 0xAF85B60D26151EDD11443B704D424DA6C43D0468F2235EBAE3D1904DBC323049 DUP2 PUSH1 0x40 MLOAD PUSH2 0x1966 SWAP2 SWAP1 PUSH2 0x2193 JUMP JUMPDEST PUSH1 0x40 MLOAD DUP1 SWAP2 SUB SWAP1 LOG1 POP JUMP JUMPDEST PUSH1 0x1 PUSH1 0x0 SWAP1 SLOAD SWAP1 PUSH2 0x100 EXP SWAP1 DIV PUSH20 0xFFFFFFFFFFFFFFFFFFFFFFFFFFFFFFFFFFFFFFFF AND DUP2 JUMP JUMPDEST PUSH1 0x2 PUSH1 0x0 SWAP1 SLOAD SWAP1 PUSH2 0x100 EXP SWAP1 DIV PUSH20 0xFFFFFFFFFFFFFFFFFFFFFFFFFFFFFFFFFFFFFFFF AND DUP2 JUMP JUMPDEST PUSH1 0x0 DUP1 DUP5 SWAP1 POP DUP1 PUSH20 0xFFFFFFFFFFFFFFFFFFFFFFFFFFFFFFFFFFFFFFFF AND PUSH4 0xDD62ED3E DUP6 DUP6 PUSH1 0x40 MLOAD DUP4 PUSH4 0xFFFFFFFF AND PUSH1 0xE0 SHL DUP2 MSTORE PUSH1 0x4 ADD PUSH2 0x19FE SWAP3 SWAP2 SWAP1 PUSH2 0x2C1C JUMP JUMPDEST PUSH1 0x20 PUSH1 0x40 MLOAD DUP1 DUP4 SUB DUP2 DUP7 GAS STATICCALL ISZERO DUP1 ISZERO PUSH2 0x1A1B JUMPI RETURNDATASIZE PUSH1 0x0 DUP1 RETURNDATACOPY RETURNDATASIZE PUSH1 0x0 REVERT JUMPDEST POP POP POP POP PUSH1 0x40 MLOAD RETURNDATASIZE PUSH1 0x1F NOT PUSH1 0x1F DUP3 ADD AND DUP3 ADD DUP1 PUSH1 0x40 MSTORE POP DUP2 ADD SWAP1 PUSH2 0x1A3F SWAP2 SWAP1 PUSH2 0x2634 JUMP JUMPDEST SWAP2 POP POP SWAP4 SWAP3 POP POP POP JUMP JUMPDEST PUSH1 0x0 PUSH1 0x1 PUSH1 0x0 SWAP1 SLOAD SWAP1 PUSH2 0x100 EXP SWAP1 DIV PUSH20 0xFFFFFFFFFFFFFFFFFFFFFFFFFFFFFFFFFFFFFFFF AND SWAP1 POP SWAP1 JUMP JUMPDEST PUSH1 0x8 SLOAD DUP2 JUMP JUMPDEST PUSH1 0x7 PUSH1 0x14 SWAP1 SLOAD SWAP1 PUSH2 0x100 EXP SWAP1 DIV PUSH1 0xFF AND DUP2 JUMP JUMPDEST PUSH1 0x1 PUSH1 0x0 SWAP1 SLOAD SWAP1 PUSH2 0x100 EXP SWAP1 DIV PUSH20 0xFFFFFFFFFFFFFFFFFFFFFFFFFFFFFFFFFFFFFFFF AND PUSH20 0xFFFFFFFFFFFFFFFFFFFFFFFFFFFFFFFFFFFFFFFF AND DUP2 PUSH20 0xFFFFFFFFFFFFFFFFFFFFFFFFFFFFFFFFFFFFFFFF AND EQ PUSH2 0x1B1C JUMPI PUSH1 0x40 MLOAD PUSH32 0x8C379A000000000000000000000000000000000000000000000000000000000 DUP2 MSTORE PUSH1 0x4 ADD PUSH2 0x1B13 SWAP1 PUSH2 0x2C91 JUMP JUMPDEST PUSH1 0x40 MLOAD DUP1 SWAP2 SUB SWAP1 REVERT JUMPDEST PUSH1 0x2 PUSH1 0x14 SWAP1 SLOAD SWAP1 PUSH2 0x100 EXP SWAP1 DIV PUSH1 0xFF AND PUSH2 0x1B6B JUMPI PUSH1 0x40 MLOAD PUSH32 0x8C379A000000000000000000000000000000000000000000000000000000000 DUP2 MSTORE PUSH1 0x4 ADD PUSH2 0x1B62 SWAP1 PUSH2 0x2D23 JUMP JUMPDEST PUSH1 0x40 MLOAD DUP1 SWAP2 SUB SWAP1 REVERT JUMPDEST PUSH1 0x0 PUSH1 0x2 PUSH1 0x14 PUSH2 0x100 EXP DUP2 SLOAD DUP2 PUSH1 0xFF MUL NOT AND SWAP1 DUP4 ISZERO ISZERO MUL OR SWAP1 SSTORE POP POP JUMP JUMPDEST PUSH1 0x0 DUP5 GT PUSH2 0x1BCC JUMPI PUSH1 0x40 MLOAD PUSH32 0x8C379A000000000000000000000000000000000000000000000000000000000 DUP2 MSTORE PUSH1 0x4 ADD PUSH2 0x1BC3 SWAP1 PUSH2 0x296E JUMP JUMPDEST PUSH1 0x40 MLOAD DUP1 SWAP2 SUB SWAP1 REVERT JUMPDEST PUSH1 0x0 DUP3 SWAP1 POP DUP5 DUP2 PUSH20 0xFFFFFFFFFFFFFFFFFFFFFFFFFFFFFFFFFFFFFFFF AND PUSH4 0x70A08231 DUP7 PUSH1 0x40 MLOAD DUP3 PUSH4 0xFFFFFFFF AND PUSH1 0xE0 SHL DUP2 MSTORE PUSH1 0x4 ADD PUSH2 0x1C0B SWAP2 SWAP1 PUSH2 0x2D43 JUMP JUMPDEST PUSH1 0x20 PUSH1 0x40 MLOAD DUP1 DUP4 SUB DUP2 DUP7 GAS STATICCALL ISZERO DUP1 ISZERO PUSH2 0x1C28 JUMPI RETURNDATASIZE PUSH1 0x0 DUP1 RETURNDATACOPY RETURNDATASIZE PUSH1 0x0 REVERT JUMPDEST POP POP POP POP PUSH1 0x40 MLOAD RETURNDATASIZE PUSH1 0x1F NOT PUSH1 0x1F DUP3 ADD AND DUP3 ADD DUP1 PUSH1 0x40 MSTORE POP DUP2 ADD SWAP1 PUSH2 0x1C4C SWAP2 SWAP1 PUSH2 0x2634 JUMP JUMPDEST LT ISZERO PUSH2 0x1C8D JUMPI PUSH1 0x40 MLOAD PUSH32 0x8C379A000000000000000000000000000000000000000000000000000000000 DUP2 MSTORE PUSH1 0x4 ADD PUSH2 0x1C84 SWAP1 PUSH2 0x2DAA JUMP JUMPDEST PUSH1 0x40 MLOAD DUP1 SWAP2 SUB SWAP1 REVERT JUMPDEST DUP1 PUSH20 0xFFFFFFFFFFFFFFFFFFFFFFFFFFFFFFFFFFFFFFFF AND PUSH4 0x23B872DD DUP6 DUP5 DUP9 PUSH1 0x40 MLOAD DUP5 PUSH4 0xFFFFFFFF AND PUSH1 0xE0 SHL DUP2 MSTORE PUSH1 0x4 ADD PUSH2 0x1CCA SWAP4 SWAP3 SWAP2 SWAP1 PUSH2 0x2DCA JUMP JUMPDEST PUSH1 0x20 PUSH1 0x40 MLOAD DUP1 DUP4 SUB DUP2 PUSH1 0x0 DUP8 GAS CALL ISZERO DUP1 ISZERO PUSH2 0x1CE9 JUMPI RETURNDATASIZE PUSH1 0x0 DUP1 RETURNDATACOPY RETURNDATASIZE PUSH1 0x0 REVERT JUMPDEST POP POP POP POP PUSH1 0x40 MLOAD RETURNDATASIZE PUSH1 0x1F NOT PUSH1 0x1F DUP3 ADD AND DUP3 ADD DUP1 PUSH1 0x40 MSTORE POP DUP2 ADD SWAP1 PUSH2 0x1D0D SWAP2 SWAP1 PUSH2 0x26C0 JUMP JUMPDEST POP POP POP POP POP POP JUMP JUMPDEST PUSH1 0x3 SLOAD DUP2 JUMP JUMPDEST PUSH1 0x7 PUSH1 0x0 SWAP1 SLOAD SWAP1 PUSH2 0x100 EXP SWAP1 DIV PUSH20 0xFFFFFFFFFFFFFFFFFFFFFFFFFFFFFFFFFFFFFFFF AND DUP2 JUMP JUMPDEST PUSH1 0x0 DUP1 SLOAD SWAP1 PUSH2 0x100 EXP SWAP1 DIV PUSH20 0xFFFFFFFFFFFFFFFFFFFFFFFFFFFFFFFFFFFFFFFF AND DUP2 JUMP JUMPDEST DUP1 PUSH20 0xFFFFFFFFFFFFFFFFFFFFFFFFFFFFFFFFFFFFFFFF AND PUSH1 0x2 PUSH1 0x0 SWAP1 SLOAD SWAP1 PUSH2 0x100 EXP SWAP1 DIV PUSH20 0xFFFFFFFFFFFFFFFFFFFFFFFFFFFFFFFFFFFFFFFF AND PUSH20 0xFFFFFFFFFFFFFFFFFFFFFFFFFFFFFFFFFFFFFFFF AND EQ PUSH2 0x1DF5 JUMPI PUSH1 0x40 MLOAD PUSH32 0x8C379A000000000000000000000000000000000000000000000000000000000 DUP2 MSTORE PUSH1 0x4 ADD PUSH2 0x1DEC SWAP1 PUSH2 0x2E73 JUMP JUMPDEST PUSH1 0x40 MLOAD DUP1 SWAP2 SUB SWAP1 REVERT JUMPDEST PUSH1 0x2 PUSH1 0x14 SWAP1 SLOAD SWAP1 PUSH2 0x100 EXP SWAP1 DIV PUSH1 0xFF AND ISZERO PUSH2 0x1E45 JUMPI PUSH1 0x40 MLOAD PUSH32 0x8C379A000000000000000000000000000000000000000000000000000000000 DUP2 MSTORE PUSH1 0x4 ADD PUSH2 0x1E3C SWAP1 PUSH2 0x2F05 JUMP JUMPDEST PUSH1 0x40 MLOAD DUP1 SWAP2 SUB SWAP1 REVERT JUMPDEST PUSH1 0x1 PUSH1 0x2 PUSH1 0x14 PUSH2 0x100 EXP DUP2 SLOAD DUP2 PUSH1 0xFF MUL NOT AND SWAP1 DUP4 ISZERO ISZERO MUL OR SWAP1 SSTORE POP TIMESTAMP PUSH1 0x3 DUP2 SWAP1 SSTORE POP POP JUMP JUMPDEST PUSH1 0x2 PUSH1 0x14 SWAP1 SLOAD SWAP1 PUSH2 0x100 EXP SWAP1 DIV PUSH1 0xFF AND DUP2 JUMP JUMPDEST PUSH1 0x0 DUP2 DUP4 PUSH2 0x1E8B SWAP2 SWAP1 PUSH2 0x2840 JUMP JUMPDEST SWAP1 POP SWAP3 SWAP2 POP POP JUMP JUMPDEST PUSH1 0x0 DUP2 DUP4 PUSH2 0x1EA1 SWAP2 SWAP1 PUSH2 0x2F54 JUMP JUMPDEST SWAP1 POP SWAP3 SWAP2 POP POP JUMP JUMPDEST PUSH1 0x0 DUP2 DUP4 PUSH2 0x1EB7 SWAP2 SWAP1 PUSH2 0x2F85 JUMP JUMPDEST SWAP1 POP SWAP3 SWAP2 POP POP JUMP JUMPDEST PUSH1 0x0 DUP1 REVERT JUMPDEST PUSH1 0x0 DUP2 ISZERO ISZERO SWAP1 POP SWAP2 SWAP1 POP JUMP JUMPDEST PUSH2 0x1ED9 DUP2 PUSH2 0x1EC4 JUMP JUMPDEST DUP2 EQ PUSH2 0x1EE4 JUMPI PUSH1 0x0 DUP1 REVERT JUMPDEST POP JUMP JUMPDEST PUSH1 0x0 DUP2 CALLDATALOAD SWAP1 POP PUSH2 0x1EF6 DUP2 PUSH2 0x1ED0 JUMP JUMPDEST SWAP3 SWAP2 POP POP JUMP JUMPDEST PUSH1 0x0 PUSH20 0xFFFFFFFFFFFFFFFFFFFFFFFFFFFFFFFFFFFFFFFF DUP3 AND SWAP1 POP SWAP2 SWAP1 POP JUMP JUMPDEST PUSH1 0x0 PUSH2 0x1F27 DUP3 PUSH2 0x1EFC JUMP JUMPDEST SWAP1 POP SWAP2 SWAP1 POP JUMP JUMPDEST PUSH2 0x1F37 DUP2 PUSH2 0x1F1C JUMP JUMPDEST DUP2 EQ PUSH2 0x1F42 JUMPI PUSH1 0x0 DUP1 REVERT JUMPDEST POP JUMP JUMPDEST PUSH1 0x0 DUP2 CALLDATALOAD SWAP1 POP PUSH2 0x1F54 DUP2 PUSH2 0x1F2E JUMP JUMPDEST SWAP3 SWAP2 POP POP JUMP JUMPDEST PUSH1 0x0 DUP2 SWAP1 POP SWAP2 SWAP1 POP JUMP JUMPDEST PUSH2 0x1F6D DUP2 PUSH2 0x1F5A JUMP JUMPDEST DUP2 EQ PUSH2 0x1F78 JUMPI PUSH1 0x0 DUP1 REVERT JUMPDEST POP JUMP JUMPDEST PUSH1 0x0 DUP2 CALLDATALOAD SWAP1 POP PUSH2 0x1F8A DUP2 PUSH2 0x1F64 JUMP JUMPDEST SWAP3 SWAP2 POP POP JUMP JUMPDEST PUSH1 0x0 PUSH2 0x1F9B DUP3 PUSH2 0x1EFC JUMP JUMPDEST SWAP1 POP SWAP2 SWAP1 POP JUMP JUMPDEST PUSH2 0x1FAB DUP2 PUSH2 0x1F90 JUMP JUMPDEST DUP2 EQ PUSH2 0x1FB6 JUMPI PUSH1 0x0 DUP1 REVERT JUMPDEST POP JUMP JUMPDEST PUSH1 0x0 DUP2 CALLDATALOAD SWAP1 POP PUSH2 0x1FC8 DUP2 PUSH2 0x1FA2 JUMP JUMPDEST SWAP3 SWAP2 POP POP JUMP JUMPDEST PUSH1 0x0 DUP1 PUSH1 0x0 DUP1 PUSH1 0x0 DUP1 PUSH1 0x0 PUSH1 0xE0 DUP9 DUP11 SUB SLT ISZERO PUSH2 0x1FED JUMPI PUSH2 0x1FEC PUSH2 0x1EBF JUMP JUMPDEST JUMPDEST PUSH1 0x0 PUSH2 0x1FFB DUP11 DUP3 DUP12 ADD PUSH2 0x1EE7 JUMP JUMPDEST SWAP8 POP POP PUSH1 0x20 PUSH2 0x200C DUP11 DUP3 DUP12 ADD PUSH2 0x1F45 JUMP JUMPDEST SWAP7 POP POP PUSH1 0x40 PUSH2 0x201D DUP11 DUP3 DUP12 ADD PUSH2 0x1F7B JUMP JUMPDEST SWAP6 POP POP PUSH1 0x60 PUSH2 0x202E DUP11 DUP3 DUP12 ADD PUSH2 0x1FB9 JUMP JUMPDEST SWAP5 POP POP PUSH1 0x80 PUSH2 0x203F DUP11 DUP3 DUP12 ADD PUSH2 0x1FB9 JUMP JUMPDEST SWAP4 POP POP PUSH1 0xA0 PUSH2 0x2050 DUP11 DUP3 DUP12 ADD PUSH2 0x1F45 JUMP JUMPDEST SWAP3 POP POP PUSH1 0xC0 PUSH2 0x2061 DUP11 DUP3 DUP12 ADD PUSH2 0x1F7B JUMP JUMPDEST SWAP2 POP POP SWAP3 SWAP6 SWAP9 SWAP2 SWAP5 SWAP8 POP SWAP3 SWAP6 POP JUMP JUMPDEST PUSH2 0x2079 DUP2 PUSH2 0x1EC4 JUMP JUMPDEST DUP3 MSTORE POP POP JUMP JUMPDEST PUSH1 0x0 PUSH1 0x20 DUP3 ADD SWAP1 POP PUSH2 0x2094 PUSH1 0x0 DUP4 ADD DUP5 PUSH2 0x2070 JUMP JUMPDEST SWAP3 SWAP2 POP POP JUMP JUMPDEST PUSH1 0x0 DUP1 PUSH1 0x40 DUP4 DUP6 SUB SLT ISZERO PUSH2 0x20B1 JUMPI PUSH2 0x20B0 PUSH2 0x1EBF JUMP JUMPDEST JUMPDEST PUSH1 0x0 PUSH2 0x20BF DUP6 DUP3 DUP7 ADD PUSH2 0x1EE7 JUMP JUMPDEST SWAP3 POP POP PUSH1 0x20 PUSH2 0x20D0 DUP6 DUP3 DUP7 ADD PUSH2 0x1FB9 JUMP JUMPDEST SWAP2 POP POP SWAP3 POP SWAP3 SWAP1 POP JUMP JUMPDEST PUSH2 0x20E3 DUP2 PUSH2 0x1F5A JUMP JUMPDEST DUP3 MSTORE POP POP JUMP JUMPDEST PUSH1 0x0 PUSH1 0x20 DUP3 ADD SWAP1 POP PUSH2 0x20FE PUSH1 0x0 DUP4 ADD DUP5 PUSH2 0x20DA JUMP JUMPDEST SWAP3 SWAP2 POP POP JUMP JUMPDEST PUSH1 0x0 PUSH1 0x20 DUP3 DUP5 SUB SLT ISZERO PUSH2 0x211A JUMPI PUSH2 0x2119 PUSH2 0x1EBF JUMP JUMPDEST JUMPDEST PUSH1 0x0 PUSH2 0x2128 DUP5 DUP3 DUP6 ADD PUSH2 0x1FB9 JUMP JUMPDEST SWAP2 POP POP SWAP3 SWAP2 POP POP JUMP JUMPDEST PUSH1 0x0 DUP1 PUSH1 0x0 PUSH1 0x60 DUP5 DUP7 SUB SLT ISZERO PUSH2 0x214A JUMPI PUSH2 0x2149 PUSH2 0x1EBF JUMP JUMPDEST JUMPDEST PUSH1 0x0 PUSH2 0x2158 DUP7 DUP3 DUP8 ADD PUSH2 0x1F7B JUMP JUMPDEST SWAP4 POP POP PUSH1 0x20 PUSH2 0x2169 DUP7 DUP3 DUP8 ADD PUSH2 0x1FB9 JUMP JUMPDEST SWAP3 POP POP PUSH1 0x40 PUSH2 0x217A DUP7 DUP3 DUP8 ADD PUSH2 0x1F45 JUMP JUMPDEST SWAP2 POP POP SWAP3 POP SWAP3 POP SWAP3 JUMP JUMPDEST PUSH2 0x218D DUP2 PUSH2 0x1F90 JUMP JUMPDEST DUP3 MSTORE POP POP JUMP JUMPDEST PUSH1 0x0 PUSH1 0x20 DUP3 ADD SWAP1 POP PUSH2 0x21A8 PUSH1 0x0 DUP4 ADD DUP5 PUSH2 0x2184 JUMP JUMPDEST SWAP3 SWAP2 POP POP JUMP JUMPDEST PUSH1 0x0 DUP1 PUSH1 0x0 PUSH1 0x60 DUP5 DUP7 SUB SLT ISZERO PUSH2 0x21C7 JUMPI PUSH2 0x21C6 PUSH2 0x1EBF JUMP JUMPDEST JUMPDEST PUSH1 0x0 PUSH2 0x21D5 DUP7 DUP3 DUP8 ADD PUSH2 0x1F45 JUMP JUMPDEST SWAP4 POP POP PUSH1 0x20 PUSH2 0x21E6 DUP7 DUP3 DUP8 ADD PUSH2 0x1F7B JUMP JUMPDEST SWAP3 POP POP PUSH1 0x40 PUSH2 0x21F7 DUP7 DUP3 DUP8 ADD PUSH2 0x1FB9 JUMP JUMPDEST SWAP2 POP POP SWAP3 POP SWAP3 POP SWAP3 JUMP JUMPDEST PUSH2 0x220A DUP2 PUSH2 0x1F1C JUMP JUMPDEST DUP3 MSTORE POP POP JUMP JUMPDEST PUSH1 0x0 PUSH1 0x20 DUP3 ADD SWAP1 POP PUSH2 0x2225 PUSH1 0x0 DUP4 ADD DUP5 PUSH2 0x2201 JUMP JUMPDEST SWAP3 SWAP2 POP POP JUMP JUMPDEST PUSH1 0x0 DUP1 PUSH1 0x0 DUP1 PUSH1 0x0 DUP1 PUSH1 0xC0 DUP8 DUP10 SUB SLT ISZERO PUSH2 0x2248 JUMPI PUSH2 0x2247 PUSH2 0x1EBF JUMP JUMPDEST JUMPDEST PUSH1 0x0 PUSH2 0x2256 DUP10 DUP3 DUP11 ADD PUSH2 0x1EE7 JUMP JUMPDEST SWAP7 POP POP PUSH1 0x20 PUSH2 0x2267 DUP10 DUP3 DUP11 ADD PUSH2 0x1F7B JUMP JUMPDEST SWAP6 POP POP PUSH1 0x40 PUSH2 0x2278 DUP10 DUP3 DUP11 ADD PUSH2 0x1FB9 JUMP JUMPDEST SWAP5 POP POP PUSH1 0x60 PUSH2 0x2289 DUP10 DUP3 DUP11 ADD PUSH2 0x1FB9 JUMP JUMPDEST SWAP4 POP POP PUSH1 0x80 PUSH2 0x229A DUP10 DUP3 DUP11 ADD PUSH2 0x1F45 JUMP JUMPDEST SWAP3 POP POP PUSH1 0xA0 PUSH2 0x22AB DUP10 DUP3 DUP11 ADD PUSH2 0x1F7B JUMP JUMPDEST SWAP2 POP POP SWAP3 SWAP6 POP SWAP3 SWAP6 POP SWAP3 SWAP6 JUMP JUMPDEST PUSH1 0x0 DUP1 PUSH1 0x0 PUSH1 0x60 DUP5 DUP7 SUB SLT ISZERO PUSH2 0x22D1 JUMPI PUSH2 0x22D0 PUSH2 0x1EBF JUMP JUMPDEST JUMPDEST PUSH1 0x0 PUSH2 0x22DF DUP7 DUP3 DUP8 ADD PUSH2 0x1FB9 JUMP JUMPDEST SWAP4 POP POP PUSH1 0x20 PUSH2 0x22F0 DUP7 DUP3 DUP8 ADD PUSH2 0x1F45 JUMP JUMPDEST SWAP3 POP POP PUSH1 0x40 PUSH2 0x2301 DUP7 DUP3 DUP8 ADD PUSH2 0x1F45 JUMP JUMPDEST SWAP2 POP POP SWAP3 POP SWAP3 POP SWAP3 JUMP JUMPDEST PUSH1 0x0 DUP1 PUSH1 0x0 DUP1 PUSH1 0x80 DUP6 DUP8 SUB SLT ISZERO PUSH2 0x2325 JUMPI PUSH2 0x2324 PUSH2 0x1EBF JUMP JUMPDEST JUMPDEST PUSH1 0x0 PUSH2 0x2333 DUP8 DUP3 DUP9 ADD PUSH2 0x1F7B JUMP JUMPDEST SWAP5 POP POP PUSH1 0x20 PUSH2 0x2344 DUP8 DUP3 DUP9 ADD PUSH2 0x1F45 JUMP JUMPDEST SWAP4 POP POP PUSH1 0x40 PUSH2 0x2355 DUP8 DUP3 DUP9 ADD PUSH2 0x1FB9 JUMP JUMPDEST SWAP3 POP POP PUSH1 0x60 PUSH2 0x2366 DUP8 DUP3 DUP9 ADD PUSH2 0x1F45 JUMP JUMPDEST SWAP2 POP POP SWAP3 SWAP6 SWAP2 SWAP5 POP SWAP3 POP JUMP JUMPDEST PUSH1 0x0 DUP2 SWAP1 POP SWAP2 SWAP1 POP JUMP JUMPDEST PUSH1 0x0 PUSH2 0x2397 PUSH2 0x2392 PUSH2 0x238D DUP5 PUSH2 0x1EFC JUMP JUMPDEST PUSH2 0x2372 JUMP JUMPDEST PUSH2 0x1EFC JUMP JUMPDEST SWAP1 POP SWAP2 SWAP1 POP JUMP JUMPDEST PUSH1 0x0 PUSH2 0x23A9 DUP3 PUSH2 0x237C JUMP JUMPDEST SWAP1 POP SWAP2 SWAP1 POP JUMP JUMPDEST PUSH1 0x0 PUSH2 0x23BB DUP3 PUSH2 0x239E JUMP JUMPDEST SWAP1 POP SWAP2 SWAP1 POP JUMP JUMPDEST PUSH2 0x23CB DUP2 PUSH2 0x23B0 JUMP JUMPDEST DUP3 MSTORE POP POP JUMP JUMPDEST PUSH1 0x0 PUSH1 0x20 DUP3 ADD SWAP1 POP PUSH2 0x23E6 PUSH1 0x0 DUP4 ADD DUP5 PUSH2 0x23C2 JUMP JUMPDEST SWAP3 SWAP2 POP POP JUMP JUMPDEST PUSH1 0x0 DUP3 DUP3 MSTORE PUSH1 0x20 DUP3 ADD SWAP1 POP SWAP3 SWAP2 POP POP JUMP JUMPDEST PUSH32 0x4F6E6C7920746865206F776E65722063616E207472616E736665722066756E64 PUSH1 0x0 DUP3 ADD MSTORE PUSH32 0x732E000000000000000000000000000000000000000000000000000000000000 PUSH1 0x20 DUP3 ADD MSTORE POP JUMP JUMPDEST PUSH1 0x0 PUSH2 0x2459 PUSH1 0x22 DUP4 PUSH2 0x23EC JUMP JUMPDEST SWAP2 POP PUSH2 0x2464 DUP3 PUSH2 0x23FD JUMP JUMPDEST PUSH1 0x40 DUP3 ADD SWAP1 POP SWAP2 SWAP1 POP JUMP JUMPDEST PUSH1 0x0 PUSH1 0x20 DUP3 ADD SWAP1 POP DUP2 DUP2 SUB PUSH1 0x0 DUP4 ADD MSTORE PUSH2 0x2488 DUP2 PUSH2 0x244C JUMP JUMPDEST SWAP1 POP SWAP2 SWAP1 POP JUMP JUMPDEST PUSH32 0x4163636F756E742069732066726F7A656E2C2063616E6E6F7420776974686472 PUSH1 0x0 DUP3 ADD MSTORE PUSH32 0x61772066756E64732E0000000000000000000000000000000000000000000000 PUSH1 0x20 DUP3 ADD MSTORE POP JUMP JUMPDEST PUSH1 0x0 PUSH2 0x24EB PUSH1 0x29 DUP4 PUSH2 0x23EC JUMP JUMPDEST SWAP2 POP PUSH2 0x24F6 DUP3 PUSH2 0x248F JUMP JUMPDEST PUSH1 0x40 DUP3 ADD SWAP1 POP SWAP2 SWAP1 POP JUMP JUMPDEST PUSH1 0x0 PUSH1 0x20 DUP3 ADD SWAP1 POP DUP2 DUP2 SUB PUSH1 0x0 DUP4 ADD MSTORE PUSH2 0x251A DUP2 PUSH2 0x24DE JUMP JUMPDEST SWAP1 POP SWAP2 SWAP1 POP JUMP JUMPDEST PUSH32 0x496E73756666696369656E742066756E64732E00000000000000000000000000 PUSH1 0x0 DUP3 ADD MSTORE POP JUMP JUMPDEST PUSH1 0x0 PUSH2 0x2557 PUSH1 0x13 DUP4 PUSH2 0x23EC JUMP JUMPDEST SWAP2 POP PUSH2 0x2562 DUP3 PUSH2 0x2521 JUMP JUMPDEST PUSH1 0x20 DUP3 ADD SWAP1 POP SWAP2 SWAP1 POP JUMP JUMPDEST PUSH1 0x0 PUSH1 0x20 DUP3 ADD SWAP1 POP DUP2 DUP2 SUB PUSH1 0x0 DUP4 ADD MSTORE PUSH2 0x2586 DUP2 PUSH2 0x254A JUMP JUMPDEST SWAP1 POP SWAP2 SWAP1 POP JUMP JUMPDEST PUSH32 0x5468652066756E6374696F6E20697320616C726561647920696E206578656375 PUSH1 0x0 DUP3 ADD MSTORE PUSH32 0x74696F6E2E000000000000000000000000000000000000000000000000000000 PUSH1 0x20 DUP3 ADD MSTORE POP JUMP JUMPDEST PUSH1 0x0 PUSH2 0x25E9 PUSH1 0x25 DUP4 PUSH2 0x23EC JUMP JUMPDEST SWAP2 POP PUSH2 0x25F4 DUP3 PUSH2 0x258D JUMP JUMPDEST PUSH1 0x40 DUP3 ADD SWAP1 POP SWAP2 SWAP1 POP JUMP JUMPDEST PUSH1 0x0 PUSH1 0x20 DUP3 ADD SWAP1 POP DUP2 DUP2 SUB PUSH1 0x0 DUP4 ADD MSTORE PUSH2 0x2618 DUP2 PUSH2 0x25DC JUMP JUMPDEST SWAP1 POP SWAP2 SWAP1 POP JUMP JUMPDEST PUSH1 0x0 DUP2 MLOAD SWAP1 POP PUSH2 0x262E DUP2 PUSH2 0x1F64 JUMP JUMPDEST SWAP3 SWAP2 POP POP JUMP JUMPDEST PUSH1 0x0 PUSH1 0x20 DUP3 DUP5 SUB SLT ISZERO PUSH2 0x264A JUMPI PUSH2 0x2649 PUSH2 0x1EBF JUMP JUMPDEST JUMPDEST PUSH1 0x0 PUSH2 0x2658 DUP5 DUP3 DUP6 ADD PUSH2 0x261F JUMP JUMPDEST SWAP2 POP POP SWAP3 SWAP2 POP POP JUMP JUMPDEST PUSH1 0x0 PUSH2 0x266C DUP3 PUSH2 0x239E JUMP JUMPDEST SWAP1 POP SWAP2 SWAP1 POP JUMP JUMPDEST PUSH2 0x267C DUP2 PUSH2 0x2661 JUMP JUMPDEST DUP3 MSTORE POP POP JUMP JUMPDEST PUSH1 0x0 PUSH1 0x40 DUP3 ADD SWAP1 POP PUSH2 0x2697 PUSH1 0x0 DUP4 ADD DUP6 PUSH2 0x2673 JUMP JUMPDEST PUSH2 0x26A4 PUSH1 0x20 DUP4 ADD DUP5 PUSH2 0x20DA JUMP JUMPDEST SWAP4 SWAP3 POP POP POP JUMP JUMPDEST PUSH1 0x0 DUP2 MLOAD SWAP1 POP PUSH2 0x26BA DUP2 PUSH2 0x1ED0 JUMP JUMPDEST SWAP3 SWAP2 POP POP JUMP JUMPDEST PUSH1 0x0 PUSH1 0x20 DUP3 DUP5 SUB SLT ISZERO PUSH2 0x26D6 JUMPI PUSH2 0x26D5 PUSH2 0x1EBF JUMP JUMPDEST JUMPDEST PUSH1 0x0 PUSH2 0x26E4 DUP5 DUP3 DUP6 ADD PUSH2 0x26AB JUMP JUMPDEST SWAP2 POP POP SWAP3 SWAP2 POP POP JUMP JUMPDEST PUSH32 0x4F6E6C792074686520686569722063616E20636C61696D20746865206163636F PUSH1 0x0 DUP3 ADD MSTORE PUSH32 0x756E742E00000000000000000000000000000000000000000000000000000000 PUSH1 0x20 DUP3 ADD MSTORE POP JUMP JUMPDEST PUSH1 0x0 PUSH2 0x2749 PUSH1 0x24 DUP4 PUSH2 0x23EC JUMP JUMPDEST SWAP2 POP PUSH2 0x2754 DUP3 PUSH2 0x26ED JUMP JUMPDEST PUSH1 0x40 DUP3 ADD SWAP1 POP SWAP2 SWAP1 POP JUMP JUMPDEST PUSH1 0x0 PUSH1 0x20 DUP3 ADD SWAP1 POP DUP2 DUP2 SUB PUSH1 0x0 DUP4 ADD MSTORE PUSH2 0x2778 DUP2 PUSH2 0x273C JUMP JUMPDEST SWAP1 POP SWAP2 SWAP1 POP JUMP JUMPDEST PUSH32 0x436C61696D2070726F6365737320686173206E6F74206265656E20696E697469 PUSH1 0x0 DUP3 ADD MSTORE PUSH32 0x617465642E000000000000000000000000000000000000000000000000000000 PUSH1 0x20 DUP3 ADD MSTORE POP JUMP JUMPDEST PUSH1 0x0 PUSH2 0x27DB PUSH1 0x25 DUP4 PUSH2 0x23EC JUMP JUMPDEST SWAP2 POP PUSH2 0x27E6 DUP3 PUSH2 0x277F JUMP JUMPDEST PUSH1 0x40 DUP3 ADD SWAP1 POP SWAP2 SWAP1 POP JUMP JUMPDEST PUSH1 0x0 PUSH1 0x20 DUP3 ADD SWAP1 POP DUP2 DUP2 SUB PUSH1 0x0 DUP4 ADD MSTORE PUSH2 0x280A DUP2 PUSH2 0x27CE JUMP JUMPDEST SWAP1 POP SWAP2 SWAP1 POP JUMP JUMPDEST PUSH32 0x4E487B7100000000000000000000000000000000000000000000000000000000 PUSH1 0x0 MSTORE PUSH1 0x11 PUSH1 0x4 MSTORE PUSH1 0x24 PUSH1 0x0 REVERT JUMPDEST PUSH1 0x0 PUSH2 0x284B DUP3 PUSH2 0x1F5A JUMP JUMPDEST SWAP2 POP PUSH2 0x2856 DUP4 PUSH2 0x1F5A JUMP JUMPDEST SWAP3 POP DUP3 DUP3 MUL PUSH2 0x2864 DUP2 PUSH2 0x1F5A JUMP JUMPDEST SWAP2 POP DUP3 DUP3 DIV DUP5 EQ DUP4 ISZERO OR PUSH2 0x287B JUMPI PUSH2 0x287A PUSH2 0x2811 JUMP JUMPDEST JUMPDEST POP SWAP3 SWAP2 POP POP JUMP JUMPDEST PUSH1 0x0 PUSH2 0x288D DUP3 PUSH2 0x1F5A JUMP JUMPDEST SWAP2 POP PUSH2 0x2898 DUP4 PUSH2 0x1F5A JUMP JUMPDEST SWAP3 POP DUP3 DUP3 ADD SWAP1 POP DUP1 DUP3 GT ISZERO PUSH2 0x28B0 JUMPI PUSH2 0x28AF PUSH2 0x2811 JUMP JUMPDEST JUMPDEST SWAP3 SWAP2 POP POP JUMP JUMPDEST PUSH32 0x436C61696D2064656C617920686173206E6F7420657870697265642E00000000 PUSH1 0x0 DUP3 ADD MSTORE POP JUMP JUMPDEST PUSH1 0x0 PUSH2 0x28EC PUSH1 0x1C DUP4 PUSH2 0x23EC JUMP JUMPDEST SWAP2 POP PUSH2 0x28F7 DUP3 PUSH2 0x28B6 JUMP JUMPDEST PUSH1 0x20 DUP3 ADD SWAP1 POP SWAP2 SWAP1 POP JUMP JUMPDEST PUSH1 0x0 PUSH1 0x20 DUP3 ADD SWAP1 POP DUP2 DUP2 SUB PUSH1 0x0 DUP4 ADD MSTORE PUSH2 0x291B DUP2 PUSH2 0x28DF JUMP JUMPDEST SWAP1 POP SWAP2 SWAP1 POP JUMP JUMPDEST PUSH32 0x43616E6E6F74206465706F7369742030206F72206C6573732E00000000000000 PUSH1 0x0 DUP3 ADD MSTORE POP JUMP JUMPDEST PUSH1 0x0 PUSH2 0x2958 PUSH1 0x19 DUP4 PUSH2 0x23EC JUMP JUMPDEST SWAP2 POP PUSH2 0x2963 DUP3 PUSH2 0x2922 JUMP JUMPDEST PUSH1 0x20 DUP3 ADD SWAP1 POP SWAP2 SWAP1 POP JUMP JUMPDEST PUSH1 0x0 PUSH1 0x20 DUP3 ADD SWAP1 POP DUP2 DUP2 SUB PUSH1 0x0 DUP4 ADD MSTORE PUSH2 0x2987 DUP2 PUSH2 0x294B JUMP JUMPDEST SWAP1 POP SWAP2 SWAP1 POP JUMP JUMPDEST PUSH32 0x4F6E6C7920746865206F776E65722063616E20756E667265657A652074686520 PUSH1 0x0 DUP3 ADD MSTORE PUSH32 0x6163636F756E742E000000000000000000000000000000000000000000000000 PUSH1 0x20 DUP3 ADD MSTORE POP JUMP JUMPDEST PUSH1 0x0 PUSH2 0x29EA PUSH1 0x28 DUP4 PUSH2 0x23EC JUMP JUMPDEST SWAP2 POP PUSH2 0x29F5 DUP3 PUSH2 0x298E JUMP JUMPDEST PUSH1 0x40 DUP3 ADD SWAP1 POP SWAP2 SWAP1 POP JUMP JUMPDEST PUSH1 0x0 PUSH1 0x20 DUP3 ADD SWAP1 POP DUP2 DUP2 SUB PUSH1 0x0 DUP4 ADD MSTORE PUSH2 0x2A19 DUP2 PUSH2 0x29DD JUMP JUMPDEST SWAP1 POP SWAP2 SWAP1 POP JUMP JUMPDEST PUSH32 0x4F6E6C7920746865206F776E65722063616E207365742074686520686569722E PUSH1 0x0 DUP3 ADD MSTORE POP JUMP JUMPDEST PUSH1 0x0 PUSH2 0x2A56 PUSH1 0x20 DUP4 PUSH2 0x23EC JUMP JUMPDEST SWAP2 POP PUSH2 0x2A61 DUP3 PUSH2 0x2A20 JUMP JUMPDEST PUSH1 0x20 DUP3 ADD SWAP1 POP SWAP2 SWAP1 POP JUMP JUMPDEST PUSH1 0x0 PUSH1 0x20 DUP3 ADD SWAP1 POP DUP2 DUP2 SUB PUSH1 0x0 DUP4 ADD MSTORE PUSH2 0x2A85 DUP2 PUSH2 0x2A49 JUMP JUMPDEST SWAP1 POP SWAP2 SWAP1 POP JUMP JUMPDEST PUSH32 0x4F6E6C7920746865206F776E65722063616E2077697468647261772066756E64 PUSH1 0x0 DUP3 ADD MSTORE PUSH32 0x732E000000000000000000000000000000000000000000000000000000000000 PUSH1 0x20 DUP3 ADD MSTORE POP JUMP JUMPDEST PUSH1 0x0 PUSH2 0x2AE8 PUSH1 0x22 DUP4 PUSH2 0x23EC JUMP JUMPDEST SWAP2 POP PUSH2 0x2AF3 DUP3 PUSH2 0x2A8C JUMP JUMPDEST PUSH1 0x40 DUP3 ADD SWAP1 POP SWAP2 SWAP1 POP JUMP JUMPDEST PUSH1 0x0 PUSH1 0x20 DUP3 ADD SWAP1 POP DUP2 DUP2 SUB PUSH1 0x0 DUP4 ADD MSTORE PUSH2 0x2B17 DUP2 PUSH2 0x2ADB JUMP JUMPDEST SWAP1 POP SWAP2 SWAP1 POP JUMP JUMPDEST PUSH32 0x546865726520617265206E6F2066756E647320746F2077697468647261772E00 PUSH1 0x0 DUP3 ADD MSTORE POP JUMP JUMPDEST PUSH1 0x0 PUSH2 0x2B54 PUSH1 0x1F DUP4 PUSH2 0x23EC JUMP JUMPDEST SWAP2 POP PUSH2 0x2B5F DUP3 PUSH2 0x2B1E JUMP JUMPDEST PUSH1 0x20 DUP3 ADD SWAP1 POP SWAP2 SWAP1 POP JUMP JUMPDEST PUSH1 0x0 PUSH1 0x20 DUP3 ADD SWAP1 POP DUP2 DUP2 SUB PUSH1 0x0 DUP4 ADD MSTORE PUSH2 0x2B83 DUP2 PUSH2 0x2B47 JUMP JUMPDEST SWAP1 POP SWAP2 SWAP1 POP JUMP JUMPDEST PUSH32 0x4F6E6C7920746865206F776E65722063616E20667265657A6520746865206163 PUSH1 0x0 DUP3 ADD MSTORE PUSH32 0x636F756E742E0000000000000000000000000000000000000000000000000000 PUSH1 0x20 DUP3 ADD MSTORE POP JUMP JUMPDEST PUSH1 0x0 PUSH2 0x2BE6 PUSH1 0x26 DUP4 PUSH2 0x23EC JUMP JUMPDEST SWAP2 POP PUSH2 0x2BF1 DUP3 PUSH2 0x2B8A JUMP JUMPDEST PUSH1 0x40 DUP3 ADD SWAP1 POP SWAP2 SWAP1 POP JUMP JUMPDEST PUSH1 0x0 PUSH1 0x20 DUP3 ADD SWAP1 POP DUP2 DUP2 SUB PUSH1 0x0 DUP4 ADD MSTORE PUSH2 0x2C15 DUP2 PUSH2 0x2BD9 JUMP JUMPDEST SWAP1 POP SWAP2 SWAP1 POP JUMP JUMPDEST PUSH1 0x0 PUSH1 0x40 DUP3 ADD SWAP1 POP PUSH2 0x2C31 PUSH1 0x0 DUP4 ADD DUP6 PUSH2 0x2673 JUMP JUMPDEST PUSH2 0x2C3E PUSH1 0x20 DUP4 ADD DUP5 PUSH2 0x2673 JUMP JUMPDEST SWAP4 SWAP3 POP POP POP JUMP JUMPDEST PUSH32 0x4F6E6C7920746865206F776E65722063616E2073746F70206120636C61696D2E PUSH1 0x0 DUP3 ADD MSTORE POP JUMP JUMPDEST PUSH1 0x0 PUSH2 0x2C7B PUSH1 0x20 DUP4 PUSH2 0x23EC JUMP JUMPDEST SWAP2 POP PUSH2 0x2C86 DUP3 PUSH2 0x2C45 JUMP JUMPDEST PUSH1 0x20 DUP3 ADD SWAP1 POP SWAP2 SWAP1 POP JUMP JUMPDEST PUSH1 0x0 PUSH1 0x20 DUP3 ADD SWAP1 POP DUP2 DUP2 SUB PUSH1 0x0 DUP4 ADD MSTORE PUSH2 0x2CAA DUP2 PUSH2 0x2C6E JUMP JUMPDEST SWAP1 POP SWAP2 SWAP1 POP JUMP JUMPDEST PUSH32 0x5468657265206973206E6F2061637469766520636C61696D20746F2073746F70 PUSH1 0x0 DUP3 ADD MSTORE PUSH32 0x2E00000000000000000000000000000000000000000000000000000000000000 PUSH1 0x20 DUP3 ADD MSTORE POP JUMP JUMPDEST PUSH1 0x0 PUSH2 0x2D0D PUSH1 0x21 DUP4 PUSH2 0x23EC JUMP JUMPDEST SWAP2 POP PUSH2 0x2D18 DUP3 PUSH2 0x2CB1 JUMP JUMPDEST PUSH1 0x40 DUP3 ADD SWAP1 POP SWAP2 SWAP1 POP JUMP JUMPDEST PUSH1 0x0 PUSH1 0x20 DUP3 ADD SWAP1 POP DUP2 DUP2 SUB PUSH1 0x0 DUP4 ADD MSTORE PUSH2 0x2D3C DUP2 PUSH2 0x2D00 JUMP JUMPDEST SWAP1 POP SWAP2 SWAP1 POP JUMP JUMPDEST PUSH1 0x0 PUSH1 0x20 DUP3 ADD SWAP1 POP PUSH2 0x2D58 PUSH1 0x0 DUP4 ADD DUP5 PUSH2 0x2673 JUMP JUMPDEST SWAP3 SWAP2 POP POP JUMP JUMPDEST PUSH32 0x496E73756666696369656E742062616C616E6365000000000000000000000000 PUSH1 0x0 DUP3 ADD MSTORE POP JUMP JUMPDEST PUSH1 0x0 PUSH2 0x2D94 PUSH1 0x14 DUP4 PUSH2 0x23EC JUMP JUMPDEST SWAP2 POP PUSH2 0x2D9F DUP3 PUSH2 0x2D5E JUMP JUMPDEST PUSH1 0x20 DUP3 ADD SWAP1 POP SWAP2 SWAP1 POP JUMP JUMPDEST PUSH1 0x0 PUSH1 0x20 DUP3 ADD SWAP1 POP DUP2 DUP2 SUB PUSH1 0x0 DUP4 ADD MSTORE PUSH2 0x2DC3 DUP2 PUSH2 0x2D87 JUMP JUMPDEST SWAP1 POP SWAP2 SWAP1 POP JUMP JUMPDEST PUSH1 0x0 PUSH1 0x60 DUP3 ADD SWAP1 POP PUSH2 0x2DDF PUSH1 0x0 DUP4 ADD DUP7 PUSH2 0x2673 JUMP JUMPDEST PUSH2 0x2DEC PUSH1 0x20 DUP4 ADD DUP6 PUSH2 0x2673 JUMP JUMPDEST PUSH2 0x2DF9 PUSH1 0x40 DUP4 ADD DUP5 PUSH2 0x20DA JUMP JUMPDEST SWAP5 SWAP4 POP POP POP POP JUMP JUMPDEST PUSH32 0x4F6E6C792074686520686569722063616E20696E697469617465207468652063 PUSH1 0x0 DUP3 ADD MSTORE PUSH32 0x6C61696D2070726F636573732E00000000000000000000000000000000000000 PUSH1 0x20 DUP3 ADD MSTORE POP JUMP JUMPDEST PUSH1 0x0 PUSH2 0x2E5D PUSH1 0x2D DUP4 PUSH2 0x23EC JUMP JUMPDEST SWAP2 POP PUSH2 0x2E68 DUP3 PUSH2 0x2E01 JUMP JUMPDEST PUSH1 0x40 DUP3 ADD SWAP1 POP SWAP2 SWAP1 POP JUMP JUMPDEST PUSH1 0x0 PUSH1 0x20 DUP3 ADD SWAP1 POP DUP2 DUP2 SUB PUSH1 0x0 DUP4 ADD MSTORE PUSH2 0x2E8C DUP2 PUSH2 0x2E50 JUMP JUMPDEST SWAP1 POP SWAP2 SWAP1 POP JUMP JUMPDEST PUSH32 0x436C61696D2070726F6365737320697320616C726561647920696E2070726F67 PUSH1 0x0 DUP3 ADD MSTORE PUSH32 0x726573732E000000000000000000000000000000000000000000000000000000 PUSH1 0x20 DUP3 ADD MSTORE POP JUMP JUMPDEST PUSH1 0x0 PUSH2 0x2EEF PUSH1 0x25 DUP4 PUSH2 0x23EC JUMP JUMPDEST SWAP2 POP PUSH2 0x2EFA DUP3 PUSH2 0x2E93 JUMP JUMPDEST PUSH1 0x40 DUP3 ADD SWAP1 POP SWAP2 SWAP1 POP JUMP JUMPDEST PUSH1 0x0 PUSH1 0x20 DUP3 ADD SWAP1 POP DUP2 DUP2 SUB PUSH1 0x0 DUP4 ADD MSTORE PUSH2 0x2F1E DUP2 PUSH2 0x2EE2 JUMP JUMPDEST SWAP1 POP SWAP2 SWAP1 POP JUMP JUMPDEST PUSH32 0x4E487B7100000000000000000000000000000000000000000000000000000000 PUSH1 0x0 MSTORE PUSH1 0x12 PUSH1 0x4 MSTORE PUSH1 0x24 PUSH1 0x0 REVERT JUMPDEST PUSH1 0x0 PUSH2 0x2F5F DUP3 PUSH2 0x1F5A JUMP JUMPDEST SWAP2 POP PUSH2 0x2F6A DUP4 PUSH2 0x1F5A JUMP JUMPDEST SWAP3 POP DUP3 PUSH2 0x2F7A JUMPI PUSH2 0x2F79 PUSH2 0x2F25 JUMP JUMPDEST JUMPDEST DUP3 DUP3 DIV SWAP1 POP SWAP3 SWAP2 POP POP JUMP JUMPDEST PUSH1 0x0 PUSH2 0x2F90 DUP3 PUSH2 0x1F5A JUMP JUMPDEST SWAP2 POP PUSH2 0x2F9B DUP4 PUSH2 0x1F5A JUMP JUMPDEST SWAP3 POP DUP3 DUP3 SUB SWAP1 POP DUP2 DUP2 GT ISZERO PUSH2 0x2FB3 JUMPI PUSH2 0x2FB2 PUSH2 0x2811 JUMP JUMPDEST JUMPDEST SWAP3 SWAP2 POP POP JUMP INVALID LOG2 PUSH5 0x6970667358 0x22 SLT KECCAK256 PUSH2 0x6B49 GASLIMIT 0xC3 0x2E 0xD2 SWAP14 PUSH10 0x94CE7D95082F127E8FFE 0xD5 BYTE CODESIZE RETURNDATASIZE 0xD9 DUP7 0xED 0xAD 0xB4 SELFDESTRUCT JUMPI CHAINID NOT PUSH5 0x736F6C6343 STOP ADDMOD GT STOP CALLER "
				},
				"gasEstimates": {
					"creation": {
						"codeDepositCost": "2454200",
						"executionCost": "infinite",
						"totalCost": "infinite"
					},
					"external": {
						"ERC20()": "infinite",
						"ERC20Token()": "2581",
						"allowance(address,address,address)": "infinite",
						"approve(uint256,address,address)": "infinite",
						"balanceOf(bool,address)": "infinite",
						"claim(address)": "infinite",
						"claimDelay()": "2519",
						"claimInProgress()": "2631",
						"claimInitiatedAt()": "2518",
						"deployer()": "2577",
						"deposit(uint256,address,address,address)": "infinite",
						"freeze(address)": "infinite",
						"frozen()": "2517",
						"heir()": "2559",
						"initiateClaim(address)": "51350",
						"mutex()": "2654",
						"owner()": "2537",
						"returnDeployer()": "2568",
						"returnHeir()": "2612",
						"returnOwner()": "2611",
						"setHeir(address,uint256,address)": "infinite",
						"stopClaim(address)": "29191",
						"tokenBalance()": "2540",
						"transferFunds(bool,address,uint256,address,address,address,uint256)": "infinite",
						"unfreeze(address)": "infinite",
						"withdraw(bool,uint256,address,address,address,uint256)": "infinite"
					}
				},
				"methodIdentifiers": {
					"ERC20()": "cc4aa204",
					"ERC20Token()": "7a80760e",
					"allowance(address,address,address)": "927da105",
					"approve(uint256,address,address)": "2fac5d9f",
					"balanceOf(bool,address)": "1903b431",
					"claim(address)": "1e83409a",
					"claimDelay()": "1c8ec299",
					"claimInProgress()": "faedd18e",
					"claimInitiatedAt()": "c7983e20",
					"deployer()": "d5f39488",
					"deposit(uint256,address,address,address)": "c250283c",
					"freeze(address)": "8d1fdf2f",
					"frozen()": "054f7d9c",
					"heir()": "91f2ebb8",
					"initiateClaim(address)": "f2b5eea7",
					"mutex()": "a5720770",
					"owner()": "8da5cb5b",
					"returnDeployer()": "362bb2ac",
					"returnHeir()": "56af4f75",
					"returnOwner()": "94a927fe",
					"setHeir(address,uint256,address)": "6e1a7373",
					"stopClaim(address)": "b7d1d98e",
					"tokenBalance()": "9e1a4d19",
					"transferFunds(bool,address,uint256,address,address,address,uint256)": "0171b6da",
					"unfreeze(address)": "45c8b1a6",
					"withdraw(bool,uint256,address,address,address,uint256)": "87c2797d"
				}
			},
			"storageLayout": {
				"storage": [
					{
						"astId": 1042,
						"contract": "contract/HeirAccount.sol:Accounts",
						"label": "deployer",
						"offset": 0,
						"slot": "0",
						"type": "t_address"
					},
					{
						"astId": 1044,
						"contract": "contract/HeirAccount.sol:Accounts",
						"label": "owner",
						"offset": 0,
						"slot": "1",
						"type": "t_address_payable"
					},
					{
						"astId": 1046,
						"contract": "contract/HeirAccount.sol:Accounts",
						"label": "heir",
						"offset": 0,
						"slot": "2",
						"type": "t_address_payable"
					},
					{
						"astId": 1048,
						"contract": "contract/HeirAccount.sol:Accounts",
						"label": "claimInProgress",
						"offset": 20,
						"slot": "2",
						"type": "t_bool"
					},
					{
						"astId": 1050,
						"contract": "contract/HeirAccount.sol:Accounts",
						"label": "claimInitiatedAt",
						"offset": 0,
						"slot": "3",
						"type": "t_uint256"
					},
					{
						"astId": 1052,
						"contract": "contract/HeirAccount.sol:Accounts",
						"label": "claimDelay",
						"offset": 0,
						"slot": "4",
						"type": "t_uint256"
					},
					{
						"astId": 1054,
						"contract": "contract/HeirAccount.sol:Accounts",
						"label": "fee",
						"offset": 0,
						"slot": "5",
						"type": "t_uint256"
					},
					{
						"astId": 1056,
						"contract": "contract/HeirAccount.sol:Accounts",
						"label": "ERC20Token",
						"offset": 0,
						"slot": "6",
						"type": "t_address_payable"
					},
					{
						"astId": 1059,
						"contract": "contract/HeirAccount.sol:Accounts",
						"label": "ERC20",
						"offset": 0,
						"slot": "7",
						"type": "t_contract(IERC20)77"
					},
					{
						"astId": 1065,
						"contract": "contract/HeirAccount.sol:Accounts",
						"label": "mutex",
						"offset": 20,
						"slot": "7",
						"type": "t_bool"
					},
					{
						"astId": 1067,
						"contract": "contract/HeirAccount.sol:Accounts",
						"label": "tokenBalance",
						"offset": 0,
						"slot": "8",
						"type": "t_uint256"
					},
					{
						"astId": 1070,
						"contract": "contract/HeirAccount.sol:Accounts",
						"label": "frozen",
						"offset": 0,
						"slot": "9",
						"type": "t_bool"
					}
				],
				"types": {
					"t_address": {
						"encoding": "inplace",
						"label": "address",
						"numberOfBytes": "20"
					},
					"t_address_payable": {
						"encoding": "inplace",
						"label": "address payable",
						"numberOfBytes": "20"
					},
					"t_bool": {
						"encoding": "inplace",
						"label": "bool",
						"numberOfBytes": "1"
					},
					"t_contract(IERC20)77": {
						"encoding": "inplace",
						"label": "contract IERC20",
						"numberOfBytes": "20"
					},
					"t_uint256": {
						"encoding": "inplace",
						"label": "uint256",
						"numberOfBytes": "32"
					}
				}
			},
			"userdoc": {
				"kind": "user",
				"methods": {},
				"version": 1
			}
		}
	}
}