{
	"contract/HeirAccount.sol": {
		"Accounts": {
			"abi": [
				{
					"inputs": [
						{
							"internalType": "address payable",
							"name": "_owner",
							"type": "address"
						}
					],
					"stateMutability": "nonpayable",
					"type": "constructor"
				},
				{
					"anonymous": false,
					"inputs": [
						{
							"indexed": false,
							"internalType": "address",
							"name": "freezeBy",
							"type": "address"
						}
					],
					"name": "Freeze",
					"type": "event"
				},
				{
					"anonymous": false,
					"inputs": [
						{
							"indexed": false,
							"internalType": "address",
							"name": "unfreezeBy",
							"type": "address"
						}
					],
					"name": "Unfreeze",
					"type": "event"
				},
				{
					"inputs": [],
					"name": "ERC20",
					"outputs": [
						{
							"internalType": "contract IERC20",
							"name": "",
							"type": "address"
						}
					],
					"stateMutability": "view",
					"type": "function"
				},
				{
					"inputs": [],
					"name": "ERC20Token",
					"outputs": [
						{
							"internalType": "address payable",
							"name": "",
							"type": "address"
						}
					],
					"stateMutability": "view",
					"type": "function"
				},
				{
					"inputs": [
						{
							"internalType": "bool",
							"name": "_isCelo",
							"type": "bool"
						},
						{
							"internalType": "address",
							"name": "_ERC20Address",
							"type": "address"
						}
					],
					"name": "balanceOf",
					"outputs": [
						{
							"internalType": "uint256",
							"name": "",
							"type": "uint256"
						}
					],
					"stateMutability": "nonpayable",
					"type": "function"
				},
				{
					"inputs": [
						{
							"internalType": "address",
							"name": "_sender",
							"type": "address"
						}
					],
					"name": "claim",
					"outputs": [],
					"stateMutability": "nonpayable",
					"type": "function"
				},
				{
					"inputs": [],
					"name": "claimDelay",
					"outputs": [
						{
							"internalType": "uint256",
							"name": "",
							"type": "uint256"
						}
					],
					"stateMutability": "view",
					"type": "function"
				},
				{
					"inputs": [],
					"name": "claimInProgress",
					"outputs": [
						{
							"internalType": "bool",
							"name": "",
							"type": "bool"
						}
					],
					"stateMutability": "view",
					"type": "function"
				},
				{
					"inputs": [],
					"name": "claimInitiatedAt",
					"outputs": [
						{
							"internalType": "uint256",
							"name": "",
							"type": "uint256"
						}
					],
					"stateMutability": "view",
					"type": "function"
				},
				{
					"inputs": [],
					"name": "deployer",
					"outputs": [
						{
							"internalType": "address",
							"name": "",
							"type": "address"
						}
					],
					"stateMutability": "view",
					"type": "function"
				},
				{
					"inputs": [
						{
							"internalType": "bool",
							"name": "_isCelo",
							"type": "bool"
						},
						{
							"internalType": "address",
							"name": "_ERC20Address",
							"type": "address"
						}
					],
					"name": "deposit",
					"outputs": [],
					"stateMutability": "payable",
					"type": "function"
				},
				{
					"inputs": [
						{
							"internalType": "address",
							"name": "_sender",
							"type": "address"
						}
					],
					"name": "freeze",
					"outputs": [],
					"stateMutability": "nonpayable",
					"type": "function"
				},
				{
					"inputs": [],
					"name": "frozen",
					"outputs": [
						{
							"internalType": "bool",
							"name": "",
							"type": "bool"
						}
					],
					"stateMutability": "view",
					"type": "function"
				},
				{
					"inputs": [],
					"name": "heir",
					"outputs": [
						{
							"internalType": "address payable",
							"name": "",
							"type": "address"
						}
					],
					"stateMutability": "view",
					"type": "function"
				},
				{
					"inputs": [
						{
							"internalType": "address",
							"name": "_sender",
							"type": "address"
						}
					],
					"name": "initiateClaim",
					"outputs": [],
					"stateMutability": "nonpayable",
					"type": "function"
				},
				{
					"inputs": [],
					"name": "mutex",
					"outputs": [
						{
							"internalType": "bool",
							"name": "",
							"type": "bool"
						}
					],
					"stateMutability": "view",
					"type": "function"
				},
				{
					"inputs": [],
					"name": "owner",
					"outputs": [
						{
							"internalType": "address payable",
							"name": "",
							"type": "address"
						}
					],
					"stateMutability": "view",
					"type": "function"
				},
				{
					"inputs": [],
					"name": "returnDeployer",
					"outputs": [
						{
							"internalType": "address",
							"name": "",
							"type": "address"
						}
					],
					"stateMutability": "view",
					"type": "function"
				},
				{
					"inputs": [],
					"name": "returnHeir",
					"outputs": [
						{
							"internalType": "address",
							"name": "",
							"type": "address"
						}
					],
					"stateMutability": "view",
					"type": "function"
				},
				{
					"inputs": [],
					"name": "returnOwner",
					"outputs": [
						{
							"internalType": "address",
							"name": "",
							"type": "address"
						}
					],
					"stateMutability": "view",
					"type": "function"
				},
				{
					"inputs": [
						{
							"internalType": "address payable",
							"name": "_heir",
							"type": "address"
						},
						{
							"internalType": "uint256",
							"name": "_claimDelay",
							"type": "uint256"
						},
						{
							"internalType": "address",
							"name": "_sender",
							"type": "address"
						}
					],
					"name": "setHeir",
					"outputs": [],
					"stateMutability": "nonpayable",
					"type": "function"
				},
				{
					"inputs": [
						{
							"internalType": "address",
							"name": "_sender",
							"type": "address"
						}
					],
					"name": "stopClaim",
					"outputs": [],
					"stateMutability": "nonpayable",
					"type": "function"
				},
				{
					"inputs": [],
					"name": "tokenBalance",
					"outputs": [
						{
							"internalType": "uint256",
							"name": "",
							"type": "uint256"
						}
					],
					"stateMutability": "view",
					"type": "function"
				},
				{
					"inputs": [
						{
							"internalType": "bool",
							"name": "_isCelo",
							"type": "bool"
						},
						{
							"internalType": "address payable",
							"name": "_recipient",
							"type": "address"
						},
						{
							"internalType": "uint256",
							"name": "_amount",
							"type": "uint256"
						},
						{
							"internalType": "address",
							"name": "_ERC20Address",
							"type": "address"
						},
						{
							"internalType": "address",
							"name": "_sender",
							"type": "address"
						},
						{
							"internalType": "address payable",
							"name": "_feeAddress",
							"type": "address"
						},
						{
							"internalType": "uint256",
							"name": "_transferFee",
							"type": "uint256"
						}
					],
					"name": "transferFunds",
					"outputs": [],
					"stateMutability": "payable",
					"type": "function"
				},
				{
					"inputs": [
						{
							"internalType": "address",
							"name": "_sender",
							"type": "address"
						}
					],
					"name": "unfreeze",
					"outputs": [],
					"stateMutability": "nonpayable",
					"type": "function"
				},
				{
					"inputs": [
						{
							"internalType": "bool",
							"name": "_isCelo",
							"type": "bool"
						},
						{
							"internalType": "uint256",
							"name": "_amount",
							"type": "uint256"
						},
						{
							"internalType": "address",
							"name": "_ERC20Address",
							"type": "address"
						},
						{
							"internalType": "address",
							"name": "_sender",
							"type": "address"
						},
						{
							"internalType": "address payable",
							"name": "_feeAddress",
							"type": "address"
						},
						{
							"internalType": "uint256",
							"name": "_transferFee",
							"type": "uint256"
						}
					],
					"name": "withdraw",
					"outputs": [],
					"stateMutability": "payable",
					"type": "function"
				}
			],
			"devdoc": {
				"kind": "dev",
				"methods": {},
				"version": 1
			},
			"evm": {
				"assembly": "    /* \"contract/HeirAccount.sol\":1100:7685  contract Accounts {... */\n  mstore(0x40, 0x80)\n    /* \"contract/HeirAccount.sol\":1937:1942  false */\n  0x00\n    /* \"contract/HeirAccount.sol\":1917:1942  bool public mutex = false */\n  0x07\n  exp(0x0100, 0x14)\n  dup2\n  sload\n  dup2\n  0xff\n  mul\n  not\n  and\n  swap1\n  dup4\n  iszero\n  iszero\n  mul\n  or\n  swap1\n  sstore\n  pop\n    /* \"contract/HeirAccount.sol\":2050:2055  false */\n  0x00\n    /* \"contract/HeirAccount.sol\":2029:2055  bool public frozen = false */\n  0x09\n  exp(0x0100, 0x00)\n  dup2\n  sload\n  dup2\n  0xff\n  mul\n  not\n  and\n  swap1\n  dup4\n  iszero\n  iszero\n  mul\n  or\n  swap1\n  sstore\n  pop\n    /* \"contract/HeirAccount.sol\":2186:2290  constructor(address payable _owner) {... */\n  callvalue\n  dup1\n  iszero\n  tag_1\n  jumpi\n  0x00\n  dup1\n  revert\ntag_1:\n  pop\n  mload(0x40)\n  sub(codesize, bytecodeSize)\n  dup1\n  bytecodeSize\n  dup4\n  codecopy\n  dup2\n  dup2\n  add\n  0x40\n  mstore\n  dup2\n  add\n  swap1\n  tag_2\n  swap2\n  swap1\n  tag_3\n  jump\t// in\ntag_2:\n    /* \"contract/HeirAccount.sol\":2243:2249  _owner */\n  dup1\n    /* \"contract/HeirAccount.sol\":2235:2240  owner */\n  0x01\n  0x00\n    /* \"contract/HeirAccount.sol\":2235:2249  owner = _owner */\n  0x0100\n  exp\n  dup2\n  sload\n  dup2\n  0xffffffffffffffffffffffffffffffffffffffff\n  mul\n  not\n  and\n  swap1\n  dup4\n  0xffffffffffffffffffffffffffffffffffffffff\n  and\n  mul\n  or\n  swap1\n  sstore\n  pop\n    /* \"contract/HeirAccount.sol\":2273:2283  msg.sender */\n  caller\n    /* \"contract/HeirAccount.sol\":2262:2270  deployer */\n  0x00\n  dup1\n    /* \"contract/HeirAccount.sol\":2262:2283  deployer = msg.sender */\n  0x0100\n  exp\n  dup2\n  sload\n  dup2\n  0xffffffffffffffffffffffffffffffffffffffff\n  mul\n  not\n  and\n  swap1\n  dup4\n  0xffffffffffffffffffffffffffffffffffffffff\n  and\n  mul\n  or\n  swap1\n  sstore\n  pop\n    /* \"contract/HeirAccount.sol\":2186:2290  constructor(address payable _owner) {... */\n  pop\n    /* \"contract/HeirAccount.sol\":1100:7685  contract Accounts {... */\n  jump(tag_6)\n    /* \"#utility.yul\":88:205   */\ntag_8:\n    /* \"#utility.yul\":197:198   */\n  0x00\n    /* \"#utility.yul\":194:195   */\n  dup1\n    /* \"#utility.yul\":187:199   */\n  revert\n    /* \"#utility.yul\":334:460   */\ntag_10:\n    /* \"#utility.yul\":371:378   */\n  0x00\n    /* \"#utility.yul\":411:453   */\n  0xffffffffffffffffffffffffffffffffffffffff\n    /* \"#utility.yul\":404:409   */\n  dup3\n    /* \"#utility.yul\":400:454   */\n  and\n    /* \"#utility.yul\":389:454   */\n  swap1\n  pop\n    /* \"#utility.yul\":334:460   */\n  swap2\n  swap1\n  pop\n  jump\t// out\n    /* \"#utility.yul\":466:570   */\ntag_11:\n    /* \"#utility.yul\":511:518   */\n  0x00\n    /* \"#utility.yul\":540:564   */\n  tag_20\n    /* \"#utility.yul\":558:563   */\n  dup3\n    /* \"#utility.yul\":540:564   */\n  tag_10\n  jump\t// in\ntag_20:\n    /* \"#utility.yul\":529:564   */\n  swap1\n  pop\n    /* \"#utility.yul\":466:570   */\n  swap2\n  swap1\n  pop\n  jump\t// out\n    /* \"#utility.yul\":576:714   */\ntag_12:\n    /* \"#utility.yul\":657:689   */\n  tag_22\n    /* \"#utility.yul\":683:688   */\n  dup2\n    /* \"#utility.yul\":657:689   */\n  tag_11\n  jump\t// in\ntag_22:\n    /* \"#utility.yul\":650:655   */\n  dup2\n    /* \"#utility.yul\":647:690   */\n  eq\n    /* \"#utility.yul\":637:708   */\n  tag_23\n  jumpi\n    /* \"#utility.yul\":704:705   */\n  0x00\n    /* \"#utility.yul\":701:702   */\n  dup1\n    /* \"#utility.yul\":694:706   */\n  revert\n    /* \"#utility.yul\":637:708   */\ntag_23:\n    /* \"#utility.yul\":576:714   */\n  pop\n  jump\t// out\n    /* \"#utility.yul\":720:879   */\ntag_13:\n    /* \"#utility.yul\":785:790   */\n  0x00\n    /* \"#utility.yul\":816:822   */\n  dup2\n    /* \"#utility.yul\":810:823   */\n  mload\n    /* \"#utility.yul\":801:823   */\n  swap1\n  pop\n    /* \"#utility.yul\":832:873   */\n  tag_25\n    /* \"#utility.yul\":867:872   */\n  dup2\n    /* \"#utility.yul\":832:873   */\n  tag_12\n  jump\t// in\ntag_25:\n    /* \"#utility.yul\":720:879   */\n  swap3\n  swap2\n  pop\n  pop\n  jump\t// out\n    /* \"#utility.yul\":885:1252   */\ntag_3:\n    /* \"#utility.yul\":963:969   */\n  0x00\n    /* \"#utility.yul\":1012:1014   */\n  0x20\n    /* \"#utility.yul\":1000:1009   */\n  dup3\n    /* \"#utility.yul\":991:998   */\n  dup5\n    /* \"#utility.yul\":987:1010   */\n  sub\n    /* \"#utility.yul\":983:1015   */\n  slt\n    /* \"#utility.yul\":980:1099   */\n  iszero\n  tag_27\n  jumpi\n    /* \"#utility.yul\":1018:1097   */\n  tag_28\n  tag_8\n  jump\t// in\ntag_28:\n    /* \"#utility.yul\":980:1099   */\ntag_27:\n    /* \"#utility.yul\":1138:1139   */\n  0x00\n    /* \"#utility.yul\":1163:1235   */\n  tag_29\n    /* \"#utility.yul\":1227:1234   */\n  dup5\n    /* \"#utility.yul\":1218:1224   */\n  dup3\n    /* \"#utility.yul\":1207:1216   */\n  dup6\n    /* \"#utility.yul\":1203:1225   */\n  add\n    /* \"#utility.yul\":1163:1235   */\n  tag_13\n  jump\t// in\ntag_29:\n    /* \"#utility.yul\":1153:1235   */\n  swap2\n  pop\n    /* \"#utility.yul\":1109:1245   */\n  pop\n    /* \"#utility.yul\":885:1252   */\n  swap3\n  swap2\n  pop\n  pop\n  jump\t// out\n    /* \"contract/HeirAccount.sol\":1100:7685  contract Accounts {... */\ntag_6:\n  dataSize(sub_0)\n  dup1\n  dataOffset(sub_0)\n  0x00\n  codecopy\n  0x00\n  return\nstop\n\nsub_0: assembly {\n        /* \"contract/HeirAccount.sol\":1100:7685  contract Accounts {... */\n      mstore(0x40, 0x80)\n      jumpi(tag_1, lt(calldatasize, 0x04))\n      shr(0xe0, calldataload(0x00))\n      dup1\n      0x8da5cb5b\n      gt\n      tag_26\n      jumpi\n      dup1\n      0xb7d1d98e\n      gt\n      tag_27\n      jumpi\n      dup1\n      0xb7d1d98e\n      eq\n      tag_20\n      jumpi\n      dup1\n      0xc7983e20\n      eq\n      tag_21\n      jumpi\n      dup1\n      0xcc4aa204\n      eq\n      tag_22\n      jumpi\n      dup1\n      0xd5f39488\n      eq\n      tag_23\n      jumpi\n      dup1\n      0xf2b5eea7\n      eq\n      tag_24\n      jumpi\n      dup1\n      0xfaedd18e\n      eq\n      tag_25\n      jumpi\n      jump(tag_1)\n    tag_27:\n      dup1\n      0x8da5cb5b\n      eq\n      tag_14\n      jumpi\n      dup1\n      0x91f2ebb8\n      eq\n      tag_15\n      jumpi\n      dup1\n      0x94a927fe\n      eq\n      tag_16\n      jumpi\n      dup1\n      0x9e1a4d19\n      eq\n      tag_17\n      jumpi\n      dup1\n      0xa5720770\n      eq\n      tag_18\n      jumpi\n      dup1\n      0xb486b8c9\n      eq\n      tag_19\n      jumpi\n      jump(tag_1)\n    tag_26:\n      dup1\n      0x45c8b1a6\n      gt\n      tag_28\n      jumpi\n      dup1\n      0x45c8b1a6\n      eq\n      tag_8\n      jumpi\n      dup1\n      0x56af4f75\n      eq\n      tag_9\n      jumpi\n      dup1\n      0x6e1a7373\n      eq\n      tag_10\n      jumpi\n      dup1\n      0x7a80760e\n      eq\n      tag_11\n      jumpi\n      dup1\n      0x87c2797d\n      eq\n      tag_12\n      jumpi\n      dup1\n      0x8d1fdf2f\n      eq\n      tag_13\n      jumpi\n      jump(tag_1)\n    tag_28:\n      dup1\n      0x0171b6da\n      eq\n      tag_2\n      jumpi\n      dup1\n      0x054f7d9c\n      eq\n      tag_3\n      jumpi\n      dup1\n      0x1903b431\n      eq\n      tag_4\n      jumpi\n      dup1\n      0x1c8ec299\n      eq\n      tag_5\n      jumpi\n      dup1\n      0x1e83409a\n      eq\n      tag_6\n      jumpi\n      dup1\n      0x362bb2ac\n      eq\n      tag_7\n      jumpi\n    tag_1:\n      0x00\n      dup1\n      revert\n        /* \"contract/HeirAccount.sol\":5838:6969  function transferFunds(bool _isCelo, address payable _recipient, uint _amount, address _ERC20Address, address _sender, address payable _feeAddress, uint _transferFee) public payable {... */\n    tag_2:\n      tag_29\n      0x04\n      dup1\n      calldatasize\n      sub\n      dup2\n      add\n      swap1\n      tag_30\n      swap2\n      swap1\n      tag_31\n      jump\t// in\n    tag_30:\n      tag_32\n      jump\t// in\n    tag_29:\n      stop\n        /* \"contract/HeirAccount.sol\":2029:2055  bool public frozen = false */\n    tag_3:\n      callvalue\n      dup1\n      iszero\n      tag_33\n      jumpi\n      0x00\n      dup1\n      revert\n    tag_33:\n      pop\n      tag_34\n      tag_35\n      jump\t// in\n    tag_34:\n      mload(0x40)\n      tag_36\n      swap2\n      swap1\n      tag_37\n      jump\t// in\n    tag_36:\n      mload(0x40)\n      dup1\n      swap2\n      sub\n      swap1\n      return\n        /* \"contract/HeirAccount.sol\":3461:3715  function balanceOf(bool _isCelo, address _ERC20Address) public returns (uint) {... */\n    tag_4:\n      callvalue\n      dup1\n      iszero\n      tag_38\n      jumpi\n      0x00\n      dup1\n      revert\n    tag_38:\n      pop\n      tag_39\n      0x04\n      dup1\n      calldatasize\n      sub\n      dup2\n      add\n      swap1\n      tag_40\n      swap2\n      swap1\n      tag_41\n      jump\t// in\n    tag_40:\n      tag_42\n      jump\t// in\n    tag_39:\n      mload(0x40)\n      tag_43\n      swap2\n      swap1\n      tag_44\n      jump\t// in\n    tag_43:\n      mload(0x40)\n      dup1\n      swap2\n      sub\n      swap1\n      return\n        /* \"contract/HeirAccount.sol\":1616:1638  uint public claimDelay */\n    tag_5:\n      callvalue\n      dup1\n      iszero\n      tag_45\n      jumpi\n      0x00\n      dup1\n      revert\n    tag_45:\n      pop\n      tag_46\n      tag_47\n      jump\t// in\n    tag_46:\n      mload(0x40)\n      tag_48\n      swap2\n      swap1\n      tag_44\n      jump\t// in\n    tag_48:\n      mload(0x40)\n      dup1\n      swap2\n      sub\n      swap1\n      return\n        /* \"contract/HeirAccount.sol\":3078:3408  function claim(address _sender) public  {... */\n    tag_6:\n      callvalue\n      dup1\n      iszero\n      tag_49\n      jumpi\n      0x00\n      dup1\n      revert\n    tag_49:\n      pop\n      tag_50\n      0x04\n      dup1\n      calldatasize\n      sub\n      dup2\n      add\n      swap1\n      tag_51\n      swap2\n      swap1\n      tag_52\n      jump\t// in\n    tag_51:\n      tag_53\n      jump\t// in\n    tag_50:\n      stop\n        /* \"contract/HeirAccount.sol\":7596:7682  function returnDeployer() public view returns(address){... */\n    tag_7:\n      callvalue\n      dup1\n      iszero\n      tag_54\n      jumpi\n      0x00\n      dup1\n      revert\n    tag_54:\n      pop\n      tag_55\n      tag_56\n      jump\t// in\n    tag_55:\n      mload(0x40)\n      tag_57\n      swap2\n      swap1\n      tag_58\n      jump\t// in\n    tag_57:\n      mload(0x40)\n      dup1\n      swap2\n      sub\n      swap1\n      return\n        /* \"contract/HeirAccount.sol\":3982:4166  function unfreeze(address _sender) public {... */\n    tag_8:\n      callvalue\n      dup1\n      iszero\n      tag_59\n      jumpi\n      0x00\n      dup1\n      revert\n    tag_59:\n      pop\n      tag_60\n      0x04\n      dup1\n      calldatasize\n      sub\n      dup2\n      add\n      swap1\n      tag_61\n      swap2\n      swap1\n      tag_52\n      jump\t// in\n    tag_61:\n      tag_62\n      jump\t// in\n    tag_60:\n      stop\n        /* \"contract/HeirAccount.sol\":7454:7532  function returnHeir() public view returns(address){... */\n    tag_9:\n      callvalue\n      dup1\n      iszero\n      tag_63\n      jumpi\n      0x00\n      dup1\n      revert\n    tag_63:\n      pop\n      tag_64\n      tag_65\n      jump\t// in\n    tag_64:\n      mload(0x40)\n      tag_66\n      swap2\n      swap1\n      tag_58\n      jump\t// in\n    tag_66:\n      mload(0x40)\n      dup1\n      swap2\n      sub\n      swap1\n      return\n        /* \"contract/HeirAccount.sol\":2343:2671  function setHeir(address payable _heir, uint _claimDelay, address _sender) public {... */\n    tag_10:\n      callvalue\n      dup1\n      iszero\n      tag_67\n      jumpi\n      0x00\n      dup1\n      revert\n    tag_67:\n      pop\n      tag_68\n      0x04\n      dup1\n      calldatasize\n      sub\n      dup2\n      add\n      swap1\n      tag_69\n      swap2\n      swap1\n      tag_70\n      jump\t// in\n    tag_69:\n      tag_71\n      jump\t// in\n    tag_68:\n      stop\n        /* \"contract/HeirAccount.sol\":1727:1760  address payable public ERC20Token */\n    tag_11:\n      callvalue\n      dup1\n      iszero\n      tag_72\n      jumpi\n      0x00\n      dup1\n      revert\n    tag_72:\n      pop\n      tag_73\n      tag_74\n      jump\t// in\n    tag_73:\n      mload(0x40)\n      tag_75\n      swap2\n      swap1\n      tag_76\n      jump\t// in\n    tag_75:\n      mload(0x40)\n      dup1\n      swap2\n      sub\n      swap1\n      return\n        /* \"contract/HeirAccount.sol\":4563:5794  function withdraw(bool _isCelo, uint _amount, address _ERC20Address, address _sender, address payable _feeAddress, uint _transferFee) public payable {... */\n    tag_12:\n      tag_77\n      0x04\n      dup1\n      calldatasize\n      sub\n      dup2\n      add\n      swap1\n      tag_78\n      swap2\n      swap1\n      tag_79\n      jump\t// in\n    tag_78:\n      tag_80\n      jump\t// in\n    tag_77:\n      stop\n        /* \"contract/HeirAccount.sol\":3759:3936  function freeze(address _sender) public {... */\n    tag_13:\n      callvalue\n      dup1\n      iszero\n      tag_81\n      jumpi\n      0x00\n      dup1\n      revert\n    tag_81:\n      pop\n      tag_82\n      0x04\n      dup1\n      calldatasize\n      sub\n      dup2\n      add\n      swap1\n      tag_83\n      swap2\n      swap1\n      tag_52\n      jump\t// in\n    tag_83:\n      tag_84\n      jump\t// in\n    tag_82:\n      stop\n        /* \"contract/HeirAccount.sol\":1252:1280  address payable public owner */\n    tag_14:\n      callvalue\n      dup1\n      iszero\n      tag_85\n      jumpi\n      0x00\n      dup1\n      revert\n    tag_85:\n      pop\n      tag_86\n      tag_87\n      jump\t// in\n    tag_86:\n      mload(0x40)\n      tag_88\n      swap2\n      swap1\n      tag_76\n      jump\t// in\n    tag_88:\n      mload(0x40)\n      dup1\n      swap2\n      sub\n      swap1\n      return\n        /* \"contract/HeirAccount.sol\":1317:1344  address payable public heir */\n    tag_15:\n      callvalue\n      dup1\n      iszero\n      tag_89\n      jumpi\n      0x00\n      dup1\n      revert\n    tag_89:\n      pop\n      tag_90\n      tag_91\n      jump\t// in\n    tag_90:\n      mload(0x40)\n      tag_92\n      swap2\n      swap1\n      tag_76\n      jump\t// in\n    tag_92:\n      mload(0x40)\n      dup1\n      swap2\n      sub\n      swap1\n      return\n        /* \"contract/HeirAccount.sol\":7314:7394  function returnOwner() public view returns(address){... */\n    tag_16:\n      callvalue\n      dup1\n      iszero\n      tag_93\n      jumpi\n      0x00\n      dup1\n      revert\n    tag_93:\n      pop\n      tag_94\n      tag_95\n      jump\t// in\n    tag_94:\n      mload(0x40)\n      tag_96\n      swap2\n      swap1\n      tag_58\n      jump\t// in\n    tag_96:\n      mload(0x40)\n      dup1\n      swap2\n      sub\n      swap1\n      return\n        /* \"contract/HeirAccount.sol\":1977:2001  uint public tokenBalance */\n    tag_17:\n      callvalue\n      dup1\n      iszero\n      tag_97\n      jumpi\n      0x00\n      dup1\n      revert\n    tag_97:\n      pop\n      tag_98\n      tag_99\n      jump\t// in\n    tag_98:\n      mload(0x40)\n      tag_100\n      swap2\n      swap1\n      tag_44\n      jump\t// in\n    tag_100:\n      mload(0x40)\n      dup1\n      swap2\n      sub\n      swap1\n      return\n        /* \"contract/HeirAccount.sol\":1917:1942  bool public mutex = false */\n    tag_18:\n      callvalue\n      dup1\n      iszero\n      tag_101\n      jumpi\n      0x00\n      dup1\n      revert\n    tag_101:\n      pop\n      tag_102\n      tag_103\n      jump\t// in\n    tag_102:\n      mload(0x40)\n      tag_104\n      swap2\n      swap1\n      tag_37\n      jump\t// in\n    tag_104:\n      mload(0x40)\n      dup1\n      swap2\n      sub\n      swap1\n      return\n        /* \"contract/HeirAccount.sol\":4203:4519  function deposit(bool _isCelo, address _ERC20Address) public payable {... */\n    tag_19:\n      tag_105\n      0x04\n      dup1\n      calldatasize\n      sub\n      dup2\n      add\n      swap1\n      tag_106\n      swap2\n      swap1\n      tag_41\n      jump\t// in\n    tag_106:\n      tag_107\n      jump\t// in\n    tag_105:\n      stop\n        /* \"contract/HeirAccount.sol\":7032:7257  function stopClaim(address _sender) public {... */\n    tag_20:\n      callvalue\n      dup1\n      iszero\n      tag_108\n      jumpi\n      0x00\n      dup1\n      revert\n    tag_108:\n      pop\n      tag_109\n      0x04\n      dup1\n      calldatasize\n      sub\n      dup2\n      add\n      swap1\n      tag_110\n      swap2\n      swap1\n      tag_52\n      jump\t// in\n    tag_110:\n      tag_111\n      jump\t// in\n    tag_109:\n      stop\n        /* \"contract/HeirAccount.sol\":1494:1522  uint public claimInitiatedAt */\n    tag_21:\n      callvalue\n      dup1\n      iszero\n      tag_112\n      jumpi\n      0x00\n      dup1\n      revert\n    tag_112:\n      pop\n      tag_113\n      tag_114\n      jump\t// in\n    tag_113:\n      mload(0x40)\n      tag_115\n      swap2\n      swap1\n      tag_44\n      jump\t// in\n    tag_115:\n      mload(0x40)\n      dup1\n      swap2\n      sub\n      swap1\n      return\n        /* \"contract/HeirAccount.sol\":1780:1799  IERC20 public ERC20 */\n    tag_22:\n      callvalue\n      dup1\n      iszero\n      tag_116\n      jumpi\n      0x00\n      dup1\n      revert\n    tag_116:\n      pop\n      tag_117\n      tag_118\n      jump\t// in\n    tag_117:\n      mload(0x40)\n      tag_119\n      swap2\n      swap1\n      tag_120\n      jump\t// in\n    tag_119:\n      mload(0x40)\n      dup1\n      swap2\n      sub\n      swap1\n      return\n        /* \"contract/HeirAccount.sol\":1175:1198  address public deployer */\n    tag_23:\n      callvalue\n      dup1\n      iszero\n      tag_121\n      jumpi\n      0x00\n      dup1\n      revert\n    tag_121:\n      pop\n      tag_122\n      tag_123\n      jump\t// in\n    tag_122:\n      mload(0x40)\n      tag_124\n      swap2\n      swap1\n      tag_58\n      jump\t// in\n    tag_124:\n      mload(0x40)\n      dup1\n      swap2\n      sub\n      swap1\n      return\n        /* \"contract/HeirAccount.sol\":2733:3022  function initiateClaim(address _sender) public {... */\n    tag_24:\n      callvalue\n      dup1\n      iszero\n      tag_125\n      jumpi\n      0x00\n      dup1\n      revert\n    tag_125:\n      pop\n      tag_126\n      0x04\n      dup1\n      calldatasize\n      sub\n      dup2\n      add\n      swap1\n      tag_127\n      swap2\n      swap1\n      tag_52\n      jump\t// in\n    tag_127:\n      tag_128\n      jump\t// in\n    tag_126:\n      stop\n        /* \"contract/HeirAccount.sol\":1404:1431  bool public claimInProgress */\n    tag_25:\n      callvalue\n      dup1\n      iszero\n      tag_129\n      jumpi\n      0x00\n      dup1\n      revert\n    tag_129:\n      pop\n      tag_130\n      tag_131\n      jump\t// in\n    tag_130:\n      mload(0x40)\n      tag_132\n      swap2\n      swap1\n      tag_37\n      jump\t// in\n    tag_132:\n      mload(0x40)\n      dup1\n      swap2\n      sub\n      swap1\n      return\n        /* \"contract/HeirAccount.sol\":5838:6969  function transferFunds(bool _isCelo, address payable _recipient, uint _amount, address _ERC20Address, address _sender, address payable _feeAddress, uint _transferFee) public payable {... */\n    tag_32:\n        /* \"contract/HeirAccount.sol\":6049:6054  owner */\n      0x01\n      0x00\n      swap1\n      sload\n      swap1\n      0x0100\n      exp\n      swap1\n      div\n      0xffffffffffffffffffffffffffffffffffffffff\n      and\n        /* \"contract/HeirAccount.sol\":6038:6054  _sender == owner */\n      0xffffffffffffffffffffffffffffffffffffffff\n      and\n        /* \"contract/HeirAccount.sol\":6038:6045  _sender */\n      dup4\n        /* \"contract/HeirAccount.sol\":6038:6054  _sender == owner */\n      0xffffffffffffffffffffffffffffffffffffffff\n      and\n      eq\n        /* \"contract/HeirAccount.sol\":6030:6093  require(_sender == owner, \"Only the owner can transfer funds.\") */\n      tag_134\n      jumpi\n      mload(0x40)\n      0x08c379a000000000000000000000000000000000000000000000000000000000\n      dup2\n      mstore\n      0x04\n      add\n      tag_135\n      swap1\n      tag_136\n      jump\t// in\n    tag_135:\n      mload(0x40)\n      dup1\n      swap2\n      sub\n      swap1\n      revert\n    tag_134:\n        /* \"contract/HeirAccount.sol\":6112:6118  frozen */\n      0x09\n      0x00\n      swap1\n      sload\n      swap1\n      0x0100\n      exp\n      swap1\n      div\n      0xff\n      and\n        /* \"contract/HeirAccount.sol\":6111:6118  !frozen */\n      iszero\n        /* \"contract/HeirAccount.sol\":6103:6164  require(!frozen, \"Account is frozen, cannot withdraw funds.\") */\n      tag_137\n      jumpi\n      mload(0x40)\n      0x08c379a000000000000000000000000000000000000000000000000000000000\n      dup2\n      mstore\n      0x04\n      add\n      tag_138\n      swap1\n      tag_139\n      jump\t// in\n    tag_138:\n      mload(0x40)\n      dup1\n      swap2\n      sub\n      swap1\n      revert\n    tag_137:\n        /* \"contract/HeirAccount.sol\":6177:6184  _isCelo */\n      dup7\n        /* \"contract/HeirAccount.sol\":6173:6963  if (_isCelo) {... */\n      iszero\n      tag_140\n      jumpi\n        /* \"contract/HeirAccount.sol\":6219:6240  address(this).balance */\n      selfbalance\n        /* \"contract/HeirAccount.sol\":6208:6215  _amount */\n      dup6\n        /* \"contract/HeirAccount.sol\":6208:6240  _amount <= address(this).balance */\n      gt\n      iszero\n        /* \"contract/HeirAccount.sol\":6200:6264  require(_amount <= address(this).balance, \"Insufficient funds.\") */\n      tag_141\n      jumpi\n      mload(0x40)\n      0x08c379a000000000000000000000000000000000000000000000000000000000\n      dup2\n      mstore\n      0x04\n      add\n      tag_142\n      swap1\n      tag_143\n      jump\t// in\n    tag_142:\n      mload(0x40)\n      dup1\n      swap2\n      sub\n      swap1\n      revert\n    tag_141:\n        /* \"contract/HeirAccount.sol\":6287:6292  mutex */\n      0x07\n      0x14\n      swap1\n      sload\n      swap1\n      0x0100\n      exp\n      swap1\n      div\n      0xff\n      and\n        /* \"contract/HeirAccount.sol\":6286:6292  !mutex */\n      iszero\n        /* \"contract/HeirAccount.sol\":6278:6334  require(!mutex, \"The function is already in execution.\") */\n      tag_144\n      jumpi\n      mload(0x40)\n      0x08c379a000000000000000000000000000000000000000000000000000000000\n      dup2\n      mstore\n      0x04\n      add\n      tag_145\n      swap1\n      tag_146\n      jump\t// in\n    tag_145:\n      mload(0x40)\n      dup1\n      swap2\n      sub\n      swap1\n      revert\n    tag_144:\n        /* \"contract/HeirAccount.sol\":6356:6360  true */\n      0x01\n        /* \"contract/HeirAccount.sol\":6348:6353  mutex */\n      0x07\n      0x14\n        /* \"contract/HeirAccount.sol\":6348:6360  mutex = true */\n      0x0100\n      exp\n      dup2\n      sload\n      dup2\n      0xff\n      mul\n      not\n      and\n      swap1\n      dup4\n      iszero\n      iszero\n      mul\n      or\n      swap1\n      sstore\n      pop\n        /* \"contract/HeirAccount.sol\":6380:6414  _amount.mul(_transferFee).div(100) */\n      tag_147\n        /* \"contract/HeirAccount.sol\":6410:6413  100 */\n      0x64\n        /* \"contract/HeirAccount.sol\":6380:6405  _amount.mul(_transferFee) */\n      tag_148\n        /* \"contract/HeirAccount.sol\":6392:6404  _transferFee */\n      dup4\n        /* \"contract/HeirAccount.sol\":6380:6387  _amount */\n      dup9\n        /* \"contract/HeirAccount.sol\":6380:6391  _amount.mul */\n      tag_149\n      swap1\n        /* \"contract/HeirAccount.sol\":6380:6405  _amount.mul(_transferFee) */\n      swap2\n      swap1\n      0xffffffff\n      and\n      jump\t// in\n    tag_148:\n        /* \"contract/HeirAccount.sol\":6380:6409  _amount.mul(_transferFee).div */\n      tag_150\n      swap1\n        /* \"contract/HeirAccount.sol\":6380:6414  _amount.mul(_transferFee).div(100) */\n      swap2\n      swap1\n      0xffffffff\n      and\n      jump\t// in\n    tag_147:\n        /* \"contract/HeirAccount.sol\":6374:6377  fee */\n      0x05\n        /* \"contract/HeirAccount.sol\":6374:6414  fee = _amount.mul(_transferFee).div(100) */\n      dup2\n      swap1\n      sstore\n      pop\n        /* \"contract/HeirAccount.sol\":6428:6438  _recipient */\n      dup6\n        /* \"contract/HeirAccount.sol\":6428:6447  _recipient.transfer */\n      0xffffffffffffffffffffffffffffffffffffffff\n      and\n        /* \"contract/HeirAccount.sol\":6428:6465  _recipient.transfer(_amount.sub(fee)) */\n      0x08fc\n        /* \"contract/HeirAccount.sol\":6448:6464  _amount.sub(fee) */\n      tag_151\n        /* \"contract/HeirAccount.sol\":6460:6463  fee */\n      sload(0x05)\n        /* \"contract/HeirAccount.sol\":6448:6455  _amount */\n      dup9\n        /* \"contract/HeirAccount.sol\":6448:6459  _amount.sub */\n      tag_152\n      swap1\n        /* \"contract/HeirAccount.sol\":6448:6464  _amount.sub(fee) */\n      swap2\n      swap1\n      0xffffffff\n      and\n      jump\t// in\n    tag_151:\n        /* \"contract/HeirAccount.sol\":6428:6465  _recipient.transfer(_amount.sub(fee)) */\n      swap1\n      dup2\n      iszero\n      mul\n      swap1\n      mload(0x40)\n      0x00\n      mload(0x40)\n      dup1\n      dup4\n      sub\n      dup2\n      dup6\n      dup9\n      dup9\n      call\n      swap4\n      pop\n      pop\n      pop\n      pop\n      iszero\n      dup1\n      iszero\n      tag_154\n      jumpi\n      returndatasize\n      0x00\n      dup1\n      returndatacopy\n      revert(0x00, returndatasize)\n    tag_154:\n      pop\n        /* \"contract/HeirAccount.sol\":6479:6490  _feeAddress */\n      dup2\n        /* \"contract/HeirAccount.sol\":6479:6499  _feeAddress.transfer */\n      0xffffffffffffffffffffffffffffffffffffffff\n      and\n        /* \"contract/HeirAccount.sol\":6479:6504  _feeAddress.transfer(fee) */\n      0x08fc\n        /* \"contract/HeirAccount.sol\":6500:6503  fee */\n      sload(0x05)\n        /* \"contract/HeirAccount.sol\":6479:6504  _feeAddress.transfer(fee) */\n      swap1\n      dup2\n      iszero\n      mul\n      swap1\n      mload(0x40)\n      0x00\n      mload(0x40)\n      dup1\n      dup4\n      sub\n      dup2\n      dup6\n      dup9\n      dup9\n      call\n      swap4\n      pop\n      pop\n      pop\n      pop\n      iszero\n      dup1\n      iszero\n      tag_156\n      jumpi\n      returndatasize\n      0x00\n      dup1\n      returndatacopy\n      revert(0x00, returndatasize)\n    tag_156:\n      pop\n        /* \"contract/HeirAccount.sol\":6526:6531  false */\n      0x00\n        /* \"contract/HeirAccount.sol\":6518:6523  mutex */\n      0x07\n      0x14\n        /* \"contract/HeirAccount.sol\":6518:6531  mutex = false */\n      0x0100\n      exp\n      dup2\n      sload\n      dup2\n      0xff\n      mul\n      not\n      and\n      swap1\n      dup4\n      iszero\n      iszero\n      mul\n      or\n      swap1\n      sstore\n      pop\n        /* \"contract/HeirAccount.sol\":6173:6963  if (_isCelo) {... */\n      jump(tag_157)\n    tag_140:\n        /* \"contract/HeirAccount.sol\":6577:6590  _ERC20Address */\n      dup4\n        /* \"contract/HeirAccount.sol\":6562:6567  ERC20 */\n      0x07\n      0x00\n        /* \"contract/HeirAccount.sol\":6562:6591  ERC20 = IERC20(_ERC20Address) */\n      0x0100\n      exp\n      dup2\n      sload\n      dup2\n      0xffffffffffffffffffffffffffffffffffffffff\n      mul\n      not\n      and\n      swap1\n      dup4\n      0xffffffffffffffffffffffffffffffffffffffff\n      and\n      mul\n      or\n      swap1\n      sstore\n      pop\n        /* \"contract/HeirAccount.sol\":6624:6629  ERC20 */\n      0x07\n      0x00\n      swap1\n      sload\n      swap1\n      0x0100\n      exp\n      swap1\n      div\n      0xffffffffffffffffffffffffffffffffffffffff\n      and\n        /* \"contract/HeirAccount.sol\":6624:6639  ERC20.balanceOf */\n      0xffffffffffffffffffffffffffffffffffffffff\n      and\n      0x70a08231\n        /* \"contract/HeirAccount.sol\":6648:6652  this */\n      address\n        /* \"contract/HeirAccount.sol\":6624:6654  ERC20.balanceOf(address(this)) */\n      mload(0x40)\n      dup3\n      0xffffffff\n      and\n      0xe0\n      shl\n      dup2\n      mstore\n      0x04\n      add\n      tag_158\n      swap2\n      swap1\n      tag_58\n      jump\t// in\n    tag_158:\n      0x20\n      mload(0x40)\n      dup1\n      dup4\n      sub\n      dup2\n      dup7\n      gas\n      staticcall\n      iszero\n      dup1\n      iszero\n      tag_160\n      jumpi\n      returndatasize\n      0x00\n      dup1\n      returndatacopy\n      revert(0x00, returndatasize)\n    tag_160:\n      pop\n      pop\n      pop\n      pop\n      mload(0x40)\n      returndatasize\n      not(0x1f)\n      0x1f\n      dup3\n      add\n      and\n      dup3\n      add\n      dup1\n      0x40\n      mstore\n      pop\n      dup2\n      add\n      swap1\n      tag_161\n      swap2\n      swap1\n      tag_162\n      jump\t// in\n    tag_161:\n        /* \"contract/HeirAccount.sol\":6613:6620  _amount */\n      dup6\n        /* \"contract/HeirAccount.sol\":6613:6654  _amount <= ERC20.balanceOf(address(this)) */\n      gt\n      iszero\n        /* \"contract/HeirAccount.sol\":6605:6678  require(_amount <= ERC20.balanceOf(address(this)), \"Insufficient funds.\") */\n      tag_163\n      jumpi\n      mload(0x40)\n      0x08c379a000000000000000000000000000000000000000000000000000000000\n      dup2\n      mstore\n      0x04\n      add\n      tag_164\n      swap1\n      tag_143\n      jump\t// in\n    tag_164:\n      mload(0x40)\n      dup1\n      swap2\n      sub\n      swap1\n      revert\n    tag_163:\n        /* \"contract/HeirAccount.sol\":6701:6706  mutex */\n      0x07\n      0x14\n      swap1\n      sload\n      swap1\n      0x0100\n      exp\n      swap1\n      div\n      0xff\n      and\n        /* \"contract/HeirAccount.sol\":6700:6706  !mutex */\n      iszero\n        /* \"contract/HeirAccount.sol\":6692:6748  require(!mutex, \"The function is already in execution.\") */\n      tag_165\n      jumpi\n      mload(0x40)\n      0x08c379a000000000000000000000000000000000000000000000000000000000\n      dup2\n      mstore\n      0x04\n      add\n      tag_166\n      swap1\n      tag_146\n      jump\t// in\n    tag_166:\n      mload(0x40)\n      dup1\n      swap2\n      sub\n      swap1\n      revert\n    tag_165:\n        /* \"contract/HeirAccount.sol\":6770:6774  true */\n      0x01\n        /* \"contract/HeirAccount.sol\":6762:6767  mutex */\n      0x07\n      0x14\n        /* \"contract/HeirAccount.sol\":6762:6774  mutex = true */\n      0x0100\n      exp\n      dup2\n      sload\n      dup2\n      0xff\n      mul\n      not\n      and\n      swap1\n      dup4\n      iszero\n      iszero\n      mul\n      or\n      swap1\n      sstore\n      pop\n        /* \"contract/HeirAccount.sol\":6794:6828  _amount.mul(_transferFee).div(100) */\n      tag_167\n        /* \"contract/HeirAccount.sol\":6824:6827  100 */\n      0x64\n        /* \"contract/HeirAccount.sol\":6794:6819  _amount.mul(_transferFee) */\n      tag_168\n        /* \"contract/HeirAccount.sol\":6806:6818  _transferFee */\n      dup4\n        /* \"contract/HeirAccount.sol\":6794:6801  _amount */\n      dup9\n        /* \"contract/HeirAccount.sol\":6794:6805  _amount.mul */\n      tag_149\n      swap1\n        /* \"contract/HeirAccount.sol\":6794:6819  _amount.mul(_transferFee) */\n      swap2\n      swap1\n      0xffffffff\n      and\n      jump\t// in\n    tag_168:\n        /* \"contract/HeirAccount.sol\":6794:6823  _amount.mul(_transferFee).div */\n      tag_150\n      swap1\n        /* \"contract/HeirAccount.sol\":6794:6828  _amount.mul(_transferFee).div(100) */\n      swap2\n      swap1\n      0xffffffff\n      and\n      jump\t// in\n    tag_167:\n        /* \"contract/HeirAccount.sol\":6788:6791  fee */\n      0x05\n        /* \"contract/HeirAccount.sol\":6788:6828  fee = _amount.mul(_transferFee).div(100) */\n      dup2\n      swap1\n      sstore\n      pop\n        /* \"contract/HeirAccount.sol\":6842:6847  ERC20 */\n      0x07\n      0x00\n      swap1\n      sload\n      swap1\n      0x0100\n      exp\n      swap1\n      div\n      0xffffffffffffffffffffffffffffffffffffffff\n      and\n        /* \"contract/HeirAccount.sol\":6842:6856  ERC20.transfer */\n      0xffffffffffffffffffffffffffffffffffffffff\n      and\n      0xa9059cbb\n        /* \"contract/HeirAccount.sol\":6857:6867  _recipient */\n      dup8\n        /* \"contract/HeirAccount.sol\":6869:6885  _amount.sub(fee) */\n      tag_169\n        /* \"contract/HeirAccount.sol\":6881:6884  fee */\n      sload(0x05)\n        /* \"contract/HeirAccount.sol\":6869:6876  _amount */\n      dup10\n        /* \"contract/HeirAccount.sol\":6869:6880  _amount.sub */\n      tag_152\n      swap1\n        /* \"contract/HeirAccount.sol\":6869:6885  _amount.sub(fee) */\n      swap2\n      swap1\n      0xffffffff\n      and\n      jump\t// in\n    tag_169:\n        /* \"contract/HeirAccount.sol\":6842:6886  ERC20.transfer(_recipient, _amount.sub(fee)) */\n      mload(0x40)\n      dup4\n      0xffffffff\n      and\n      0xe0\n      shl\n      dup2\n      mstore\n      0x04\n      add\n      tag_170\n      swap3\n      swap2\n      swap1\n      tag_171\n      jump\t// in\n    tag_170:\n      0x20\n      mload(0x40)\n      dup1\n      dup4\n      sub\n      dup2\n      0x00\n      dup8\n      gas\n      call\n      iszero\n      dup1\n      iszero\n      tag_173\n      jumpi\n      returndatasize\n      0x00\n      dup1\n      returndatacopy\n      revert(0x00, returndatasize)\n    tag_173:\n      pop\n      pop\n      pop\n      pop\n      mload(0x40)\n      returndatasize\n      not(0x1f)\n      0x1f\n      dup3\n      add\n      and\n      dup3\n      add\n      dup1\n      0x40\n      mstore\n      pop\n      dup2\n      add\n      swap1\n      tag_174\n      swap2\n      swap1\n      tag_175\n      jump\t// in\n    tag_174:\n      pop\n        /* \"contract/HeirAccount.sol\":6900:6911  _feeAddress */\n      dup2\n        /* \"contract/HeirAccount.sol\":6900:6920  _feeAddress.transfer */\n      0xffffffffffffffffffffffffffffffffffffffff\n      and\n        /* \"contract/HeirAccount.sol\":6900:6925  _feeAddress.transfer(fee) */\n      0x08fc\n        /* \"contract/HeirAccount.sol\":6921:6924  fee */\n      sload(0x05)\n        /* \"contract/HeirAccount.sol\":6900:6925  _feeAddress.transfer(fee) */\n      swap1\n      dup2\n      iszero\n      mul\n      swap1\n      mload(0x40)\n      0x00\n      mload(0x40)\n      dup1\n      dup4\n      sub\n      dup2\n      dup6\n      dup9\n      dup9\n      call\n      swap4\n      pop\n      pop\n      pop\n      pop\n      iszero\n      dup1\n      iszero\n      tag_177\n      jumpi\n      returndatasize\n      0x00\n      dup1\n      returndatacopy\n      revert(0x00, returndatasize)\n    tag_177:\n      pop\n        /* \"contract/HeirAccount.sol\":6947:6952  false */\n      0x00\n        /* \"contract/HeirAccount.sol\":6939:6944  mutex */\n      0x07\n      0x14\n        /* \"contract/HeirAccount.sol\":6939:6952  mutex = false */\n      0x0100\n      exp\n      dup2\n      sload\n      dup2\n      0xff\n      mul\n      not\n      and\n      swap1\n      dup4\n      iszero\n      iszero\n      mul\n      or\n      swap1\n      sstore\n      pop\n        /* \"contract/HeirAccount.sol\":6173:6963  if (_isCelo) {... */\n    tag_157:\n        /* \"contract/HeirAccount.sol\":5838:6969  function transferFunds(bool _isCelo, address payable _recipient, uint _amount, address _ERC20Address, address _sender, address payable _feeAddress, uint _transferFee) public payable {... */\n      pop\n      pop\n      pop\n      pop\n      pop\n      pop\n      pop\n      jump\t// out\n        /* \"contract/HeirAccount.sol\":2029:2055  bool public frozen = false */\n    tag_35:\n      0x09\n      0x00\n      swap1\n      sload\n      swap1\n      0x0100\n      exp\n      swap1\n      div\n      0xff\n      and\n      dup2\n      jump\t// out\n        /* \"contract/HeirAccount.sol\":3461:3715  function balanceOf(bool _isCelo, address _ERC20Address) public returns (uint) {... */\n    tag_42:\n        /* \"contract/HeirAccount.sol\":3533:3537  uint */\n      0x00\n        /* \"contract/HeirAccount.sol\":3549:3556  _isCelo */\n      dup3\n        /* \"contract/HeirAccount.sol\":3545:3709  if (_isCelo) {... */\n      iszero\n      tag_179\n      jumpi\n        /* \"contract/HeirAccount.sol\":3575:3596  address(this).balance */\n      selfbalance\n        /* \"contract/HeirAccount.sol\":3568:3596  return address(this).balance */\n      swap1\n      pop\n      jump(tag_178)\n        /* \"contract/HeirAccount.sol\":3545:3709  if (_isCelo) {... */\n    tag_179:\n        /* \"contract/HeirAccount.sol\":3634:3647  _ERC20Address */\n      dup2\n        /* \"contract/HeirAccount.sol\":3619:3624  ERC20 */\n      0x07\n      0x00\n        /* \"contract/HeirAccount.sol\":3619:3648  ERC20 = IERC20(_ERC20Address) */\n      0x0100\n      exp\n      dup2\n      sload\n      dup2\n      0xffffffffffffffffffffffffffffffffffffffff\n      mul\n      not\n      and\n      swap1\n      dup4\n      0xffffffffffffffffffffffffffffffffffffffff\n      and\n      mul\n      or\n      swap1\n      sstore\n      pop\n        /* \"contract/HeirAccount.sol\":3665:3670  ERC20 */\n      0x07\n      0x00\n      swap1\n      sload\n      swap1\n      0x0100\n      exp\n      swap1\n      div\n      0xffffffffffffffffffffffffffffffffffffffff\n      and\n        /* \"contract/HeirAccount.sol\":3665:3680  ERC20.balanceOf */\n      0xffffffffffffffffffffffffffffffffffffffff\n      and\n      0x70a08231\n        /* \"contract/HeirAccount.sol\":3689:3693  this */\n      address\n        /* \"contract/HeirAccount.sol\":3665:3695  ERC20.balanceOf(address(this)) */\n      mload(0x40)\n      dup3\n      0xffffffff\n      and\n      0xe0\n      shl\n      dup2\n      mstore\n      0x04\n      add\n      tag_181\n      swap2\n      swap1\n      tag_58\n      jump\t// in\n    tag_181:\n      0x20\n      mload(0x40)\n      dup1\n      dup4\n      sub\n      dup2\n      dup7\n      gas\n      staticcall\n      iszero\n      dup1\n      iszero\n      tag_183\n      jumpi\n      returndatasize\n      0x00\n      dup1\n      returndatacopy\n      revert(0x00, returndatasize)\n    tag_183:\n      pop\n      pop\n      pop\n      pop\n      mload(0x40)\n      returndatasize\n      not(0x1f)\n      0x1f\n      dup3\n      add\n      and\n      dup3\n      add\n      dup1\n      0x40\n      mstore\n      pop\n      dup2\n      add\n      swap1\n      tag_184\n      swap2\n      swap1\n      tag_162\n      jump\t// in\n    tag_184:\n        /* \"contract/HeirAccount.sol\":3658:3695  return ERC20.balanceOf(address(this)) */\n      swap1\n      pop\n        /* \"contract/HeirAccount.sol\":3461:3715  function balanceOf(bool _isCelo, address _ERC20Address) public returns (uint) {... */\n    tag_178:\n      swap3\n      swap2\n      pop\n      pop\n      jump\t// out\n        /* \"contract/HeirAccount.sol\":1616:1638  uint public claimDelay */\n    tag_47:\n      sload(0x04)\n      dup2\n      jump\t// out\n        /* \"contract/HeirAccount.sol\":3078:3408  function claim(address _sender) public  {... */\n    tag_53:\n        /* \"contract/HeirAccount.sol\":3144:3151  _sender */\n      dup1\n        /* \"contract/HeirAccount.sol\":3136:3151  heir == _sender */\n      0xffffffffffffffffffffffffffffffffffffffff\n      and\n        /* \"contract/HeirAccount.sol\":3136:3140  heir */\n      0x02\n      0x00\n      swap1\n      sload\n      swap1\n      0x0100\n      exp\n      swap1\n      div\n      0xffffffffffffffffffffffffffffffffffffffff\n      and\n        /* \"contract/HeirAccount.sol\":3136:3151  heir == _sender */\n      0xffffffffffffffffffffffffffffffffffffffff\n      and\n      eq\n        /* \"contract/HeirAccount.sol\":3128:3192  require(heir == _sender, \"Only the heir can claim the account.\") */\n      tag_186\n      jumpi\n      mload(0x40)\n      0x08c379a000000000000000000000000000000000000000000000000000000000\n      dup2\n      mstore\n      0x04\n      add\n      tag_187\n      swap1\n      tag_188\n      jump\t// in\n    tag_187:\n      mload(0x40)\n      dup1\n      swap2\n      sub\n      swap1\n      revert\n    tag_186:\n        /* \"contract/HeirAccount.sol\":3210:3225  claimInProgress */\n      0x02\n      0x14\n      swap1\n      sload\n      swap1\n      0x0100\n      exp\n      swap1\n      div\n      0xff\n      and\n        /* \"contract/HeirAccount.sol\":3202:3267  require(claimInProgress, \"Claim process has not been initiated.\") */\n      tag_189\n      jumpi\n      mload(0x40)\n      0x08c379a000000000000000000000000000000000000000000000000000000000\n      dup2\n      mstore\n      0x04\n      add\n      tag_190\n      swap1\n      tag_191\n      jump\t// in\n    tag_190:\n      mload(0x40)\n      dup1\n      swap2\n      sub\n      swap1\n      revert\n    tag_189:\n        /* \"contract/HeirAccount.sol\":3336:3342  1 days */\n      0x015180\n        /* \"contract/HeirAccount.sol\":3323:3333  claimDelay */\n      sload(0x04)\n        /* \"contract/HeirAccount.sol\":3323:3342  claimDelay * 1 days */\n      tag_192\n      swap2\n      swap1\n      tag_193\n      jump\t// in\n    tag_192:\n        /* \"contract/HeirAccount.sol\":3304:3320  claimInitiatedAt */\n      sload(0x03)\n        /* \"contract/HeirAccount.sol\":3304:3342  claimInitiatedAt + claimDelay * 1 days */\n      tag_194\n      swap2\n      swap1\n      tag_195\n      jump\t// in\n    tag_194:\n        /* \"contract/HeirAccount.sol\":3285:3300  block.timestamp */\n      timestamp\n        /* \"contract/HeirAccount.sol\":3285:3342  block.timestamp >= claimInitiatedAt + claimDelay * 1 days */\n      lt\n      iszero\n        /* \"contract/HeirAccount.sol\":3277:3375  require(block.timestamp >= claimInitiatedAt + claimDelay * 1 days, \"Claim delay has not expired.\") */\n      tag_196\n      jumpi\n      mload(0x40)\n      0x08c379a000000000000000000000000000000000000000000000000000000000\n      dup2\n      mstore\n      0x04\n      add\n      tag_197\n      swap1\n      tag_198\n      jump\t// in\n    tag_197:\n      mload(0x40)\n      dup1\n      swap2\n      sub\n      swap1\n      revert\n    tag_196:\n        /* \"contract/HeirAccount.sol\":3393:3397  heir */\n      0x02\n      0x00\n      swap1\n      sload\n      swap1\n      0x0100\n      exp\n      swap1\n      div\n      0xffffffffffffffffffffffffffffffffffffffff\n      and\n        /* \"contract/HeirAccount.sol\":3385:3390  owner */\n      0x01\n      0x00\n        /* \"contract/HeirAccount.sol\":3385:3397  owner = heir */\n      0x0100\n      exp\n      dup2\n      sload\n      dup2\n      0xffffffffffffffffffffffffffffffffffffffff\n      mul\n      not\n      and\n      swap1\n      dup4\n      0xffffffffffffffffffffffffffffffffffffffff\n      and\n      mul\n      or\n      swap1\n      sstore\n      pop\n        /* \"contract/HeirAccount.sol\":3078:3408  function claim(address _sender) public  {... */\n      pop\n      jump\t// out\n        /* \"contract/HeirAccount.sol\":7596:7682  function returnDeployer() public view returns(address){... */\n    tag_56:\n        /* \"contract/HeirAccount.sol\":7642:7649  address */\n      0x00\n        /* \"contract/HeirAccount.sol\":7667:7675  deployer */\n      dup1\n      0x00\n      swap1\n      sload\n      swap1\n      0x0100\n      exp\n      swap1\n      div\n      0xffffffffffffffffffffffffffffffffffffffff\n      and\n        /* \"contract/HeirAccount.sol\":7660:7675  return deployer */\n      swap1\n      pop\n        /* \"contract/HeirAccount.sol\":7596:7682  function returnDeployer() public view returns(address){... */\n      swap1\n      jump\t// out\n        /* \"contract/HeirAccount.sol\":3982:4166  function unfreeze(address _sender) public {... */\n    tag_62:\n        /* \"contract/HeirAccount.sol\":4053:4058  owner */\n      0x01\n      0x00\n      swap1\n      sload\n      swap1\n      0x0100\n      exp\n      swap1\n      div\n      0xffffffffffffffffffffffffffffffffffffffff\n      and\n        /* \"contract/HeirAccount.sol\":4042:4058  _sender == owner */\n      0xffffffffffffffffffffffffffffffffffffffff\n      and\n        /* \"contract/HeirAccount.sol\":4042:4049  _sender */\n      dup2\n        /* \"contract/HeirAccount.sol\":4042:4058  _sender == owner */\n      0xffffffffffffffffffffffffffffffffffffffff\n      and\n      eq\n        /* \"contract/HeirAccount.sol\":4034:4103  require(_sender == owner, \"Only the owner can unfreeze the account.\") */\n      tag_201\n      jumpi\n      mload(0x40)\n      0x08c379a000000000000000000000000000000000000000000000000000000000\n      dup2\n      mstore\n      0x04\n      add\n      tag_202\n      swap1\n      tag_203\n      jump\t// in\n    tag_202:\n      mload(0x40)\n      dup1\n      swap2\n      sub\n      swap1\n      revert\n    tag_201:\n        /* \"contract/HeirAccount.sol\":4122:4127  false */\n      0x00\n        /* \"contract/HeirAccount.sol\":4113:4119  frozen */\n      0x09\n      0x00\n        /* \"contract/HeirAccount.sol\":4113:4127  frozen = false */\n      0x0100\n      exp\n      dup2\n      sload\n      dup2\n      0xff\n      mul\n      not\n      and\n      swap1\n      dup4\n      iszero\n      iszero\n      mul\n      or\n      swap1\n      sstore\n      pop\n        /* \"contract/HeirAccount.sol\":4142:4159  Unfreeze(_sender) */\n      0xca5069937e68fd197927055037f59d7c90bf75ac104e6e375539ef480c3ad6ee\n        /* \"contract/HeirAccount.sol\":4151:4158  _sender */\n      dup2\n        /* \"contract/HeirAccount.sol\":4142:4159  Unfreeze(_sender) */\n      mload(0x40)\n      tag_204\n      swap2\n      swap1\n      tag_58\n      jump\t// in\n    tag_204:\n      mload(0x40)\n      dup1\n      swap2\n      sub\n      swap1\n      log1\n        /* \"contract/HeirAccount.sol\":3982:4166  function unfreeze(address _sender) public {... */\n      pop\n      jump\t// out\n        /* \"contract/HeirAccount.sol\":7454:7532  function returnHeir() public view returns(address){... */\n    tag_65:\n        /* \"contract/HeirAccount.sol\":7496:7503  address */\n      0x00\n        /* \"contract/HeirAccount.sol\":7521:7525  heir */\n      0x02\n      0x00\n      swap1\n      sload\n      swap1\n      0x0100\n      exp\n      swap1\n      div\n      0xffffffffffffffffffffffffffffffffffffffff\n      and\n        /* \"contract/HeirAccount.sol\":7514:7525  return heir */\n      swap1\n      pop\n        /* \"contract/HeirAccount.sol\":7454:7532  function returnHeir() public view returns(address){... */\n      swap1\n      jump\t// out\n        /* \"contract/HeirAccount.sol\":2343:2671  function setHeir(address payable _heir, uint _claimDelay, address _sender) public {... */\n    tag_71:\n        /* \"contract/HeirAccount.sol\":2452:2459  _sender */\n      dup1\n        /* \"contract/HeirAccount.sol\":2443:2459  owner == _sender */\n      0xffffffffffffffffffffffffffffffffffffffff\n      and\n        /* \"contract/HeirAccount.sol\":2443:2448  owner */\n      0x01\n      0x00\n      swap1\n      sload\n      swap1\n      0x0100\n      exp\n      swap1\n      div\n      0xffffffffffffffffffffffffffffffffffffffff\n      and\n        /* \"contract/HeirAccount.sol\":2443:2459  owner == _sender */\n      0xffffffffffffffffffffffffffffffffffffffff\n      and\n      eq\n        /* \"contract/HeirAccount.sol\":2435:2496  require(owner == _sender, \"Only the owner can set the heir.\") */\n      tag_207\n      jumpi\n      mload(0x40)\n      0x08c379a000000000000000000000000000000000000000000000000000000000\n      dup2\n      mstore\n      0x04\n      add\n      tag_208\n      swap1\n      tag_209\n      jump\t// in\n    tag_208:\n      mload(0x40)\n      dup1\n      swap2\n      sub\n      swap1\n      revert\n    tag_207:\n        /* \"contract/HeirAccount.sol\":2515:2520  mutex */\n      0x07\n      0x14\n      swap1\n      sload\n      swap1\n      0x0100\n      exp\n      swap1\n      div\n      0xff\n      and\n        /* \"contract/HeirAccount.sol\":2514:2520  !mutex */\n      iszero\n        /* \"contract/HeirAccount.sol\":2506:2562  require(!mutex, \"The function is already in execution.\") */\n      tag_210\n      jumpi\n      mload(0x40)\n      0x08c379a000000000000000000000000000000000000000000000000000000000\n      dup2\n      mstore\n      0x04\n      add\n      tag_211\n      swap1\n      tag_146\n      jump\t// in\n    tag_211:\n      mload(0x40)\n      dup1\n      swap2\n      sub\n      swap1\n      revert\n    tag_210:\n        /* \"contract/HeirAccount.sol\":2580:2584  true */\n      0x01\n        /* \"contract/HeirAccount.sol\":2572:2577  mutex */\n      0x07\n      0x14\n        /* \"contract/HeirAccount.sol\":2572:2584  mutex = true */\n      0x0100\n      exp\n      dup2\n      sload\n      dup2\n      0xff\n      mul\n      not\n      and\n      swap1\n      dup4\n      iszero\n      iszero\n      mul\n      or\n      swap1\n      sstore\n      pop\n        /* \"contract/HeirAccount.sol\":2602:2607  _heir */\n      dup3\n        /* \"contract/HeirAccount.sol\":2595:2599  heir */\n      0x02\n      0x00\n        /* \"contract/HeirAccount.sol\":2595:2607  heir = _heir */\n      0x0100\n      exp\n      dup2\n      sload\n      dup2\n      0xffffffffffffffffffffffffffffffffffffffff\n      mul\n      not\n      and\n      swap1\n      dup4\n      0xffffffffffffffffffffffffffffffffffffffff\n      and\n      mul\n      or\n      swap1\n      sstore\n      pop\n        /* \"contract/HeirAccount.sol\":2630:2641  _claimDelay */\n      dup2\n        /* \"contract/HeirAccount.sol\":2617:2627  claimDelay */\n      0x04\n        /* \"contract/HeirAccount.sol\":2617:2641  claimDelay = _claimDelay */\n      dup2\n      swap1\n      sstore\n      pop\n        /* \"contract/HeirAccount.sol\":2659:2664  false */\n      0x00\n        /* \"contract/HeirAccount.sol\":2651:2656  mutex */\n      0x07\n      0x14\n        /* \"contract/HeirAccount.sol\":2651:2664  mutex = false */\n      0x0100\n      exp\n      dup2\n      sload\n      dup2\n      0xff\n      mul\n      not\n      and\n      swap1\n      dup4\n      iszero\n      iszero\n      mul\n      or\n      swap1\n      sstore\n      pop\n        /* \"contract/HeirAccount.sol\":2343:2671  function setHeir(address payable _heir, uint _claimDelay, address _sender) public {... */\n      pop\n      pop\n      pop\n      jump\t// out\n        /* \"contract/HeirAccount.sol\":1727:1760  address payable public ERC20Token */\n    tag_74:\n      0x06\n      0x00\n      swap1\n      sload\n      swap1\n      0x0100\n      exp\n      swap1\n      div\n      0xffffffffffffffffffffffffffffffffffffffff\n      and\n      dup2\n      jump\t// out\n        /* \"contract/HeirAccount.sol\":4563:5794  function withdraw(bool _isCelo, uint _amount, address _ERC20Address, address _sender, address payable _feeAddress, uint _transferFee) public payable {... */\n    tag_80:\n        /* \"contract/HeirAccount.sol\":4741:4746  owner */\n      0x01\n      0x00\n      swap1\n      sload\n      swap1\n      0x0100\n      exp\n      swap1\n      div\n      0xffffffffffffffffffffffffffffffffffffffff\n      and\n        /* \"contract/HeirAccount.sol\":4730:4746  _sender == owner */\n      0xffffffffffffffffffffffffffffffffffffffff\n      and\n        /* \"contract/HeirAccount.sol\":4730:4737  _sender */\n      dup4\n        /* \"contract/HeirAccount.sol\":4730:4746  _sender == owner */\n      0xffffffffffffffffffffffffffffffffffffffff\n      and\n      eq\n        /* \"contract/HeirAccount.sol\":4722:4785  require(_sender == owner, \"Only the owner can withdraw funds.\") */\n      tag_213\n      jumpi\n      mload(0x40)\n      0x08c379a000000000000000000000000000000000000000000000000000000000\n      dup2\n      mstore\n      0x04\n      add\n      tag_214\n      swap1\n      tag_215\n      jump\t// in\n    tag_214:\n      mload(0x40)\n      dup1\n      swap2\n      sub\n      swap1\n      revert\n    tag_213:\n        /* \"contract/HeirAccount.sol\":4804:4810  frozen */\n      0x09\n      0x00\n      swap1\n      sload\n      swap1\n      0x0100\n      exp\n      swap1\n      div\n      0xff\n      and\n        /* \"contract/HeirAccount.sol\":4803:4810  !frozen */\n      iszero\n        /* \"contract/HeirAccount.sol\":4795:4856  require(!frozen, \"Account is frozen, cannot withdraw funds.\") */\n      tag_216\n      jumpi\n      mload(0x40)\n      0x08c379a000000000000000000000000000000000000000000000000000000000\n      dup2\n      mstore\n      0x04\n      add\n      tag_217\n      swap1\n      tag_139\n      jump\t// in\n    tag_217:\n      mload(0x40)\n      dup1\n      swap2\n      sub\n      swap1\n      revert\n    tag_216:\n        /* \"contract/HeirAccount.sol\":4870:4877  _isCelo */\n      dup6\n        /* \"contract/HeirAccount.sol\":4866:5788  if (_isCelo) {... */\n      iszero\n      tag_218\n      jumpi\n        /* \"contract/HeirAccount.sol\":4925:4926  0 */\n      0x00\n        /* \"contract/HeirAccount.sol\":4901:4922  address(this).balance */\n      selfbalance\n        /* \"contract/HeirAccount.sol\":4901:4926  address(this).balance > 0 */\n      gt\n        /* \"contract/HeirAccount.sol\":4893:4962  require(address(this).balance > 0, \"There are no funds to withdraw.\") */\n      tag_219\n      jumpi\n      mload(0x40)\n      0x08c379a000000000000000000000000000000000000000000000000000000000\n      dup2\n      mstore\n      0x04\n      add\n      tag_220\n      swap1\n      tag_221\n      jump\t// in\n    tag_220:\n      mload(0x40)\n      dup1\n      swap2\n      sub\n      swap1\n      revert\n    tag_219:\n        /* \"contract/HeirAccount.sol\":4995:5016  address(this).balance */\n      selfbalance\n        /* \"contract/HeirAccount.sol\":4984:4991  _amount */\n      dup6\n        /* \"contract/HeirAccount.sol\":4984:5016  _amount <= address(this).balance */\n      gt\n      iszero\n        /* \"contract/HeirAccount.sol\":4976:5040  require(_amount <= address(this).balance, \"Insufficient funds.\") */\n      tag_222\n      jumpi\n      mload(0x40)\n      0x08c379a000000000000000000000000000000000000000000000000000000000\n      dup2\n      mstore\n      0x04\n      add\n      tag_223\n      swap1\n      tag_143\n      jump\t// in\n    tag_223:\n      mload(0x40)\n      dup1\n      swap2\n      sub\n      swap1\n      revert\n    tag_222:\n        /* \"contract/HeirAccount.sol\":5063:5068  mutex */\n      0x07\n      0x14\n      swap1\n      sload\n      swap1\n      0x0100\n      exp\n      swap1\n      div\n      0xff\n      and\n        /* \"contract/HeirAccount.sol\":5062:5068  !mutex */\n      iszero\n        /* \"contract/HeirAccount.sol\":5054:5110  require(!mutex, \"The function is already in execution.\") */\n      tag_224\n      jumpi\n      mload(0x40)\n      0x08c379a000000000000000000000000000000000000000000000000000000000\n      dup2\n      mstore\n      0x04\n      add\n      tag_225\n      swap1\n      tag_146\n      jump\t// in\n    tag_225:\n      mload(0x40)\n      dup1\n      swap2\n      sub\n      swap1\n      revert\n    tag_224:\n        /* \"contract/HeirAccount.sol\":5132:5136  true */\n      0x01\n        /* \"contract/HeirAccount.sol\":5124:5129  mutex */\n      0x07\n      0x14\n        /* \"contract/HeirAccount.sol\":5124:5136  mutex = true */\n      0x0100\n      exp\n      dup2\n      sload\n      dup2\n      0xff\n      mul\n      not\n      and\n      swap1\n      dup4\n      iszero\n      iszero\n      mul\n      or\n      swap1\n      sstore\n      pop\n        /* \"contract/HeirAccount.sol\":5156:5190  _amount.mul(_transferFee).div(100) */\n      tag_226\n        /* \"contract/HeirAccount.sol\":5186:5189  100 */\n      0x64\n        /* \"contract/HeirAccount.sol\":5156:5181  _amount.mul(_transferFee) */\n      tag_227\n        /* \"contract/HeirAccount.sol\":5168:5180  _transferFee */\n      dup4\n        /* \"contract/HeirAccount.sol\":5156:5163  _amount */\n      dup9\n        /* \"contract/HeirAccount.sol\":5156:5167  _amount.mul */\n      tag_149\n      swap1\n        /* \"contract/HeirAccount.sol\":5156:5181  _amount.mul(_transferFee) */\n      swap2\n      swap1\n      0xffffffff\n      and\n      jump\t// in\n    tag_227:\n        /* \"contract/HeirAccount.sol\":5156:5185  _amount.mul(_transferFee).div */\n      tag_150\n      swap1\n        /* \"contract/HeirAccount.sol\":5156:5190  _amount.mul(_transferFee).div(100) */\n      swap2\n      swap1\n      0xffffffff\n      and\n      jump\t// in\n    tag_226:\n        /* \"contract/HeirAccount.sol\":5150:5153  fee */\n      0x05\n        /* \"contract/HeirAccount.sol\":5150:5190  fee = _amount.mul(_transferFee).div(100) */\n      dup2\n      swap1\n      sstore\n      pop\n        /* \"contract/HeirAccount.sol\":5204:5209  owner */\n      0x01\n      0x00\n      swap1\n      sload\n      swap1\n      0x0100\n      exp\n      swap1\n      div\n      0xffffffffffffffffffffffffffffffffffffffff\n      and\n        /* \"contract/HeirAccount.sol\":5204:5218  owner.transfer */\n      0xffffffffffffffffffffffffffffffffffffffff\n      and\n        /* \"contract/HeirAccount.sol\":5204:5236  owner.transfer(_amount.sub(fee)) */\n      0x08fc\n        /* \"contract/HeirAccount.sol\":5219:5235  _amount.sub(fee) */\n      tag_228\n        /* \"contract/HeirAccount.sol\":5231:5234  fee */\n      sload(0x05)\n        /* \"contract/HeirAccount.sol\":5219:5226  _amount */\n      dup9\n        /* \"contract/HeirAccount.sol\":5219:5230  _amount.sub */\n      tag_152\n      swap1\n        /* \"contract/HeirAccount.sol\":5219:5235  _amount.sub(fee) */\n      swap2\n      swap1\n      0xffffffff\n      and\n      jump\t// in\n    tag_228:\n        /* \"contract/HeirAccount.sol\":5204:5236  owner.transfer(_amount.sub(fee)) */\n      swap1\n      dup2\n      iszero\n      mul\n      swap1\n      mload(0x40)\n      0x00\n      mload(0x40)\n      dup1\n      dup4\n      sub\n      dup2\n      dup6\n      dup9\n      dup9\n      call\n      swap4\n      pop\n      pop\n      pop\n      pop\n      iszero\n      dup1\n      iszero\n      tag_230\n      jumpi\n      returndatasize\n      0x00\n      dup1\n      returndatacopy\n      revert(0x00, returndatasize)\n    tag_230:\n      pop\n        /* \"contract/HeirAccount.sol\":5250:5261  _feeAddress */\n      dup2\n        /* \"contract/HeirAccount.sol\":5250:5270  _feeAddress.transfer */\n      0xffffffffffffffffffffffffffffffffffffffff\n      and\n        /* \"contract/HeirAccount.sol\":5250:5275  _feeAddress.transfer(fee) */\n      0x08fc\n        /* \"contract/HeirAccount.sol\":5271:5274  fee */\n      sload(0x05)\n        /* \"contract/HeirAccount.sol\":5250:5275  _feeAddress.transfer(fee) */\n      swap1\n      dup2\n      iszero\n      mul\n      swap1\n      mload(0x40)\n      0x00\n      mload(0x40)\n      dup1\n      dup4\n      sub\n      dup2\n      dup6\n      dup9\n      dup9\n      call\n      swap4\n      pop\n      pop\n      pop\n      pop\n      iszero\n      dup1\n      iszero\n      tag_232\n      jumpi\n      returndatasize\n      0x00\n      dup1\n      returndatacopy\n      revert(0x00, returndatasize)\n    tag_232:\n      pop\n        /* \"contract/HeirAccount.sol\":5297:5302  false */\n      0x00\n        /* \"contract/HeirAccount.sol\":5289:5294  mutex */\n      0x07\n      0x14\n        /* \"contract/HeirAccount.sol\":5289:5302  mutex = false */\n      0x0100\n      exp\n      dup2\n      sload\n      dup2\n      0xff\n      mul\n      not\n      and\n      swap1\n      dup4\n      iszero\n      iszero\n      mul\n      or\n      swap1\n      sstore\n      pop\n        /* \"contract/HeirAccount.sol\":4866:5788  if (_isCelo) {... */\n      jump(tag_233)\n    tag_218:\n        /* \"contract/HeirAccount.sol\":5346:5359  _ERC20Address */\n      dup4\n        /* \"contract/HeirAccount.sol\":5331:5336  ERC20 */\n      0x07\n      0x00\n        /* \"contract/HeirAccount.sol\":5331:5360  ERC20 = IERC20(_ERC20Address) */\n      0x0100\n      exp\n      dup2\n      sload\n      dup2\n      0xffffffffffffffffffffffffffffffffffffffff\n      mul\n      not\n      and\n      swap1\n      dup4\n      0xffffffffffffffffffffffffffffffffffffffff\n      and\n      mul\n      or\n      swap1\n      sstore\n      pop\n        /* \"contract/HeirAccount.sol\":5411:5412  0 */\n      0x00\n        /* \"contract/HeirAccount.sol\":5378:5383  ERC20 */\n      0x07\n      0x00\n      swap1\n      sload\n      swap1\n      0x0100\n      exp\n      swap1\n      div\n      0xffffffffffffffffffffffffffffffffffffffff\n      and\n        /* \"contract/HeirAccount.sol\":5378:5393  ERC20.balanceOf */\n      0xffffffffffffffffffffffffffffffffffffffff\n      and\n      0x70a08231\n        /* \"contract/HeirAccount.sol\":5402:5406  this */\n      address\n        /* \"contract/HeirAccount.sol\":5378:5408  ERC20.balanceOf(address(this)) */\n      mload(0x40)\n      dup3\n      0xffffffff\n      and\n      0xe0\n      shl\n      dup2\n      mstore\n      0x04\n      add\n      tag_234\n      swap2\n      swap1\n      tag_58\n      jump\t// in\n    tag_234:\n      0x20\n      mload(0x40)\n      dup1\n      dup4\n      sub\n      dup2\n      dup7\n      gas\n      staticcall\n      iszero\n      dup1\n      iszero\n      tag_236\n      jumpi\n      returndatasize\n      0x00\n      dup1\n      returndatacopy\n      revert(0x00, returndatasize)\n    tag_236:\n      pop\n      pop\n      pop\n      pop\n      mload(0x40)\n      returndatasize\n      not(0x1f)\n      0x1f\n      dup3\n      add\n      and\n      dup3\n      add\n      dup1\n      0x40\n      mstore\n      pop\n      dup2\n      add\n      swap1\n      tag_237\n      swap2\n      swap1\n      tag_162\n      jump\t// in\n    tag_237:\n        /* \"contract/HeirAccount.sol\":5378:5412  ERC20.balanceOf(address(this)) > 0 */\n      gt\n        /* \"contract/HeirAccount.sol\":5370:5448  require(ERC20.balanceOf(address(this)) > 0, \"There are no funds to withdraw.\") */\n      tag_238\n      jumpi\n      mload(0x40)\n      0x08c379a000000000000000000000000000000000000000000000000000000000\n      dup2\n      mstore\n      0x04\n      add\n      tag_239\n      swap1\n      tag_221\n      jump\t// in\n    tag_239:\n      mload(0x40)\n      dup1\n      swap2\n      sub\n      swap1\n      revert\n    tag_238:\n        /* \"contract/HeirAccount.sol\":5477:5482  ERC20 */\n      0x07\n      0x00\n      swap1\n      sload\n      swap1\n      0x0100\n      exp\n      swap1\n      div\n      0xffffffffffffffffffffffffffffffffffffffff\n      and\n        /* \"contract/HeirAccount.sol\":5477:5492  ERC20.balanceOf */\n      0xffffffffffffffffffffffffffffffffffffffff\n      and\n      0x70a08231\n        /* \"contract/HeirAccount.sol\":5501:5505  this */\n      address\n        /* \"contract/HeirAccount.sol\":5477:5507  ERC20.balanceOf(address(this)) */\n      mload(0x40)\n      dup3\n      0xffffffff\n      and\n      0xe0\n      shl\n      dup2\n      mstore\n      0x04\n      add\n      tag_240\n      swap2\n      swap1\n      tag_58\n      jump\t// in\n    tag_240:\n      0x20\n      mload(0x40)\n      dup1\n      dup4\n      sub\n      dup2\n      dup7\n      gas\n      staticcall\n      iszero\n      dup1\n      iszero\n      tag_242\n      jumpi\n      returndatasize\n      0x00\n      dup1\n      returndatacopy\n      revert(0x00, returndatasize)\n    tag_242:\n      pop\n      pop\n      pop\n      pop\n      mload(0x40)\n      returndatasize\n      not(0x1f)\n      0x1f\n      dup3\n      add\n      and\n      dup3\n      add\n      dup1\n      0x40\n      mstore\n      pop\n      dup2\n      add\n      swap1\n      tag_243\n      swap2\n      swap1\n      tag_162\n      jump\t// in\n    tag_243:\n        /* \"contract/HeirAccount.sol\":5466:5473  _amount */\n      dup6\n        /* \"contract/HeirAccount.sol\":5466:5507  _amount <= ERC20.balanceOf(address(this)) */\n      gt\n      iszero\n        /* \"contract/HeirAccount.sol\":5458:5531  require(_amount <= ERC20.balanceOf(address(this)), \"Insufficient funds.\") */\n      tag_244\n      jumpi\n      mload(0x40)\n      0x08c379a000000000000000000000000000000000000000000000000000000000\n      dup2\n      mstore\n      0x04\n      add\n      tag_245\n      swap1\n      tag_143\n      jump\t// in\n    tag_245:\n      mload(0x40)\n      dup1\n      swap2\n      sub\n      swap1\n      revert\n    tag_244:\n        /* \"contract/HeirAccount.sol\":5550:5555  mutex */\n      0x07\n      0x14\n      swap1\n      sload\n      swap1\n      0x0100\n      exp\n      swap1\n      div\n      0xff\n      and\n        /* \"contract/HeirAccount.sol\":5549:5555  !mutex */\n      iszero\n        /* \"contract/HeirAccount.sol\":5541:5597  require(!mutex, \"The function is already in execution.\") */\n      tag_246\n      jumpi\n      mload(0x40)\n      0x08c379a000000000000000000000000000000000000000000000000000000000\n      dup2\n      mstore\n      0x04\n      add\n      tag_247\n      swap1\n      tag_146\n      jump\t// in\n    tag_247:\n      mload(0x40)\n      dup1\n      swap2\n      sub\n      swap1\n      revert\n    tag_246:\n        /* \"contract/HeirAccount.sol\":5615:5619  true */\n      0x01\n        /* \"contract/HeirAccount.sol\":5607:5612  mutex */\n      0x07\n      0x14\n        /* \"contract/HeirAccount.sol\":5607:5619  mutex = true */\n      0x0100\n      exp\n      dup2\n      sload\n      dup2\n      0xff\n      mul\n      not\n      and\n      swap1\n      dup4\n      iszero\n      iszero\n      mul\n      or\n      swap1\n      sstore\n      pop\n        /* \"contract/HeirAccount.sol\":5635:5669  _amount.mul(_transferFee).div(100) */\n      tag_248\n        /* \"contract/HeirAccount.sol\":5665:5668  100 */\n      0x64\n        /* \"contract/HeirAccount.sol\":5635:5660  _amount.mul(_transferFee) */\n      tag_249\n        /* \"contract/HeirAccount.sol\":5647:5659  _transferFee */\n      dup4\n        /* \"contract/HeirAccount.sol\":5635:5642  _amount */\n      dup9\n        /* \"contract/HeirAccount.sol\":5635:5646  _amount.mul */\n      tag_149\n      swap1\n        /* \"contract/HeirAccount.sol\":5635:5660  _amount.mul(_transferFee) */\n      swap2\n      swap1\n      0xffffffff\n      and\n      jump\t// in\n    tag_249:\n        /* \"contract/HeirAccount.sol\":5635:5664  _amount.mul(_transferFee).div */\n      tag_150\n      swap1\n        /* \"contract/HeirAccount.sol\":5635:5669  _amount.mul(_transferFee).div(100) */\n      swap2\n      swap1\n      0xffffffff\n      and\n      jump\t// in\n    tag_248:\n        /* \"contract/HeirAccount.sol\":5629:5632  fee */\n      0x05\n        /* \"contract/HeirAccount.sol\":5629:5669  fee = _amount.mul(_transferFee).div(100) */\n      dup2\n      swap1\n      sstore\n      pop\n        /* \"contract/HeirAccount.sol\":5679:5684  ERC20 */\n      0x07\n      0x00\n      swap1\n      sload\n      swap1\n      0x0100\n      exp\n      swap1\n      div\n      0xffffffffffffffffffffffffffffffffffffffff\n      and\n        /* \"contract/HeirAccount.sol\":5679:5693  ERC20.transfer */\n      0xffffffffffffffffffffffffffffffffffffffff\n      and\n      0xa9059cbb\n        /* \"contract/HeirAccount.sol\":5694:5699  owner */\n      0x01\n      0x00\n      swap1\n      sload\n      swap1\n      0x0100\n      exp\n      swap1\n      div\n      0xffffffffffffffffffffffffffffffffffffffff\n      and\n        /* \"contract/HeirAccount.sol\":5701:5717  _amount.sub(fee) */\n      tag_250\n        /* \"contract/HeirAccount.sol\":5713:5716  fee */\n      sload(0x05)\n        /* \"contract/HeirAccount.sol\":5701:5708  _amount */\n      dup10\n        /* \"contract/HeirAccount.sol\":5701:5712  _amount.sub */\n      tag_152\n      swap1\n        /* \"contract/HeirAccount.sol\":5701:5717  _amount.sub(fee) */\n      swap2\n      swap1\n      0xffffffff\n      and\n      jump\t// in\n    tag_250:\n        /* \"contract/HeirAccount.sol\":5679:5718  ERC20.transfer(owner, _amount.sub(fee)) */\n      mload(0x40)\n      dup4\n      0xffffffff\n      and\n      0xe0\n      shl\n      dup2\n      mstore\n      0x04\n      add\n      tag_251\n      swap3\n      swap2\n      swap1\n      tag_171\n      jump\t// in\n    tag_251:\n      0x20\n      mload(0x40)\n      dup1\n      dup4\n      sub\n      dup2\n      0x00\n      dup8\n      gas\n      call\n      iszero\n      dup1\n      iszero\n      tag_253\n      jumpi\n      returndatasize\n      0x00\n      dup1\n      returndatacopy\n      revert(0x00, returndatasize)\n    tag_253:\n      pop\n      pop\n      pop\n      pop\n      mload(0x40)\n      returndatasize\n      not(0x1f)\n      0x1f\n      dup3\n      add\n      and\n      dup3\n      add\n      dup1\n      0x40\n      mstore\n      pop\n      dup2\n      add\n      swap1\n      tag_254\n      swap2\n      swap1\n      tag_175\n      jump\t// in\n    tag_254:\n      pop\n        /* \"contract/HeirAccount.sol\":5728:5739  _feeAddress */\n      dup2\n        /* \"contract/HeirAccount.sol\":5728:5748  _feeAddress.transfer */\n      0xffffffffffffffffffffffffffffffffffffffff\n      and\n        /* \"contract/HeirAccount.sol\":5728:5753  _feeAddress.transfer(fee) */\n      0x08fc\n        /* \"contract/HeirAccount.sol\":5749:5752  fee */\n      sload(0x05)\n        /* \"contract/HeirAccount.sol\":5728:5753  _feeAddress.transfer(fee) */\n      swap1\n      dup2\n      iszero\n      mul\n      swap1\n      mload(0x40)\n      0x00\n      mload(0x40)\n      dup1\n      dup4\n      sub\n      dup2\n      dup6\n      dup9\n      dup9\n      call\n      swap4\n      pop\n      pop\n      pop\n      pop\n      iszero\n      dup1\n      iszero\n      tag_256\n      jumpi\n      returndatasize\n      0x00\n      dup1\n      returndatacopy\n      revert(0x00, returndatasize)\n    tag_256:\n      pop\n        /* \"contract/HeirAccount.sol\":5771:5776  false */\n      0x00\n        /* \"contract/HeirAccount.sol\":5763:5768  mutex */\n      0x07\n      0x14\n        /* \"contract/HeirAccount.sol\":5763:5776  mutex = false */\n      0x0100\n      exp\n      dup2\n      sload\n      dup2\n      0xff\n      mul\n      not\n      and\n      swap1\n      dup4\n      iszero\n      iszero\n      mul\n      or\n      swap1\n      sstore\n      pop\n        /* \"contract/HeirAccount.sol\":4866:5788  if (_isCelo) {... */\n    tag_233:\n        /* \"contract/HeirAccount.sol\":4563:5794  function withdraw(bool _isCelo, uint _amount, address _ERC20Address, address _sender, address payable _feeAddress, uint _transferFee) public payable {... */\n      pop\n      pop\n      pop\n      pop\n      pop\n      pop\n      jump\t// out\n        /* \"contract/HeirAccount.sol\":3759:3936  function freeze(address _sender) public {... */\n    tag_84:\n        /* \"contract/HeirAccount.sol\":3828:3833  owner */\n      0x01\n      0x00\n      swap1\n      sload\n      swap1\n      0x0100\n      exp\n      swap1\n      div\n      0xffffffffffffffffffffffffffffffffffffffff\n      and\n        /* \"contract/HeirAccount.sol\":3817:3833  _sender == owner */\n      0xffffffffffffffffffffffffffffffffffffffff\n      and\n        /* \"contract/HeirAccount.sol\":3817:3824  _sender */\n      dup2\n        /* \"contract/HeirAccount.sol\":3817:3833  _sender == owner */\n      0xffffffffffffffffffffffffffffffffffffffff\n      and\n      eq\n        /* \"contract/HeirAccount.sol\":3809:3876  require(_sender == owner, \"Only the owner can freeze the account.\") */\n      tag_258\n      jumpi\n      mload(0x40)\n      0x08c379a000000000000000000000000000000000000000000000000000000000\n      dup2\n      mstore\n      0x04\n      add\n      tag_259\n      swap1\n      tag_260\n      jump\t// in\n    tag_259:\n      mload(0x40)\n      dup1\n      swap2\n      sub\n      swap1\n      revert\n    tag_258:\n        /* \"contract/HeirAccount.sol\":3895:3899  true */\n      0x01\n        /* \"contract/HeirAccount.sol\":3886:3892  frozen */\n      0x09\n      0x00\n        /* \"contract/HeirAccount.sol\":3886:3899  frozen = true */\n      0x0100\n      exp\n      dup2\n      sload\n      dup2\n      0xff\n      mul\n      not\n      and\n      swap1\n      dup4\n      iszero\n      iszero\n      mul\n      or\n      swap1\n      sstore\n      pop\n        /* \"contract/HeirAccount.sol\":3914:3929  Freeze(_sender) */\n      0xaf85b60d26151edd11443b704d424da6c43d0468f2235ebae3d1904dbc323049\n        /* \"contract/HeirAccount.sol\":3921:3928  _sender */\n      dup2\n        /* \"contract/HeirAccount.sol\":3914:3929  Freeze(_sender) */\n      mload(0x40)\n      tag_261\n      swap2\n      swap1\n      tag_58\n      jump\t// in\n    tag_261:\n      mload(0x40)\n      dup1\n      swap2\n      sub\n      swap1\n      log1\n        /* \"contract/HeirAccount.sol\":3759:3936  function freeze(address _sender) public {... */\n      pop\n      jump\t// out\n        /* \"contract/HeirAccount.sol\":1252:1280  address payable public owner */\n    tag_87:\n      0x01\n      0x00\n      swap1\n      sload\n      swap1\n      0x0100\n      exp\n      swap1\n      div\n      0xffffffffffffffffffffffffffffffffffffffff\n      and\n      dup2\n      jump\t// out\n        /* \"contract/HeirAccount.sol\":1317:1344  address payable public heir */\n    tag_91:\n      0x02\n      0x00\n      swap1\n      sload\n      swap1\n      0x0100\n      exp\n      swap1\n      div\n      0xffffffffffffffffffffffffffffffffffffffff\n      and\n      dup2\n      jump\t// out\n        /* \"contract/HeirAccount.sol\":7314:7394  function returnOwner() public view returns(address){... */\n    tag_95:\n        /* \"contract/HeirAccount.sol\":7357:7364  address */\n      0x00\n        /* \"contract/HeirAccount.sol\":7382:7387  owner */\n      0x01\n      0x00\n      swap1\n      sload\n      swap1\n      0x0100\n      exp\n      swap1\n      div\n      0xffffffffffffffffffffffffffffffffffffffff\n      and\n        /* \"contract/HeirAccount.sol\":7375:7387  return owner */\n      swap1\n      pop\n        /* \"contract/HeirAccount.sol\":7314:7394  function returnOwner() public view returns(address){... */\n      swap1\n      jump\t// out\n        /* \"contract/HeirAccount.sol\":1977:2001  uint public tokenBalance */\n    tag_99:\n      sload(0x08)\n      dup2\n      jump\t// out\n        /* \"contract/HeirAccount.sol\":1917:1942  bool public mutex = false */\n    tag_103:\n      0x07\n      0x14\n      swap1\n      sload\n      swap1\n      0x0100\n      exp\n      swap1\n      div\n      0xff\n      and\n      dup2\n      jump\t// out\n        /* \"contract/HeirAccount.sol\":4203:4519  function deposit(bool _isCelo, address _ERC20Address) public payable {... */\n    tag_107:\n        /* \"contract/HeirAccount.sol\":4302:4303  0 */\n      0x00\n        /* \"contract/HeirAccount.sol\":4290:4299  msg.value */\n      callvalue\n        /* \"contract/HeirAccount.sol\":4290:4303  msg.value > 0 */\n      gt\n        /* \"contract/HeirAccount.sol\":4282:4333  require(msg.value > 0, \"Cannot deposit 0 or less.\") */\n      tag_264\n      jumpi\n      mload(0x40)\n      0x08c379a000000000000000000000000000000000000000000000000000000000\n      dup2\n      mstore\n      0x04\n      add\n      tag_265\n      swap1\n      tag_266\n      jump\t// in\n    tag_265:\n      mload(0x40)\n      dup1\n      swap2\n      sub\n      swap1\n      revert\n    tag_264:\n        /* \"contract/HeirAccount.sol\":4343:4350  _isCelo */\n      dup2\n        /* \"contract/HeirAccount.sol\":4339:4513  if (_isCelo) {... */\n      iszero\n      tag_267\n      jumpi\n        /* \"contract/HeirAccount.sol\":4377:4404  tokenBalance.add(msg.value) */\n      tag_268\n        /* \"contract/HeirAccount.sol\":4394:4403  msg.value */\n      callvalue\n        /* \"contract/HeirAccount.sol\":4377:4389  tokenBalance */\n      sload(0x08)\n        /* \"contract/HeirAccount.sol\":4377:4393  tokenBalance.add */\n      tag_269\n      swap1\n        /* \"contract/HeirAccount.sol\":4377:4404  tokenBalance.add(msg.value) */\n      swap2\n      swap1\n      0xffffffff\n      and\n      jump\t// in\n    tag_268:\n        /* \"contract/HeirAccount.sol\":4362:4374  tokenBalance */\n      0x08\n        /* \"contract/HeirAccount.sol\":4362:4404  tokenBalance = tokenBalance.add(msg.value) */\n      dup2\n      swap1\n      sstore\n      pop\n        /* \"contract/HeirAccount.sol\":4339:4513  if (_isCelo) {... */\n      jump(tag_270)\n    tag_267:\n        /* \"contract/HeirAccount.sol\":4442:4455  _ERC20Address */\n      dup1\n        /* \"contract/HeirAccount.sol\":4427:4432  ERC20 */\n      0x07\n      0x00\n        /* \"contract/HeirAccount.sol\":4427:4456  ERC20 = IERC20(_ERC20Address) */\n      0x0100\n      exp\n      dup2\n      sload\n      dup2\n      0xffffffffffffffffffffffffffffffffffffffff\n      mul\n      not\n      and\n      swap1\n      dup4\n      0xffffffffffffffffffffffffffffffffffffffff\n      and\n      mul\n      or\n      swap1\n      sstore\n      pop\n        /* \"contract/HeirAccount.sol\":4466:4471  ERC20 */\n      0x07\n      0x00\n      swap1\n      sload\n      swap1\n      0x0100\n      exp\n      swap1\n      div\n      0xffffffffffffffffffffffffffffffffffffffff\n      and\n        /* \"contract/HeirAccount.sol\":4466:4480  ERC20.transfer */\n      0xffffffffffffffffffffffffffffffffffffffff\n      and\n      0xa9059cbb\n        /* \"contract/HeirAccount.sol\":4489:4493  this */\n      address\n        /* \"contract/HeirAccount.sol\":4496:4505  msg.value */\n      callvalue\n        /* \"contract/HeirAccount.sol\":4466:4506  ERC20.transfer(address(this), msg.value) */\n      mload(0x40)\n      dup4\n      0xffffffff\n      and\n      0xe0\n      shl\n      dup2\n      mstore\n      0x04\n      add\n      tag_271\n      swap3\n      swap2\n      swap1\n      tag_272\n      jump\t// in\n    tag_271:\n      0x20\n      mload(0x40)\n      dup1\n      dup4\n      sub\n      dup2\n      0x00\n      dup8\n      gas\n      call\n      iszero\n      dup1\n      iszero\n      tag_274\n      jumpi\n      returndatasize\n      0x00\n      dup1\n      returndatacopy\n      revert(0x00, returndatasize)\n    tag_274:\n      pop\n      pop\n      pop\n      pop\n      mload(0x40)\n      returndatasize\n      not(0x1f)\n      0x1f\n      dup3\n      add\n      and\n      dup3\n      add\n      dup1\n      0x40\n      mstore\n      pop\n      dup2\n      add\n      swap1\n      tag_275\n      swap2\n      swap1\n      tag_175\n      jump\t// in\n    tag_275:\n      pop\n        /* \"contract/HeirAccount.sol\":4339:4513  if (_isCelo) {... */\n    tag_270:\n        /* \"contract/HeirAccount.sol\":4203:4519  function deposit(bool _isCelo, address _ERC20Address) public payable {... */\n      pop\n      pop\n      jump\t// out\n        /* \"contract/HeirAccount.sol\":7032:7257  function stopClaim(address _sender) public {... */\n    tag_111:\n        /* \"contract/HeirAccount.sol\":7104:7109  owner */\n      0x01\n      0x00\n      swap1\n      sload\n      swap1\n      0x0100\n      exp\n      swap1\n      div\n      0xffffffffffffffffffffffffffffffffffffffff\n      and\n        /* \"contract/HeirAccount.sol\":7093:7109  _sender == owner */\n      0xffffffffffffffffffffffffffffffffffffffff\n      and\n        /* \"contract/HeirAccount.sol\":7093:7100  _sender */\n      dup2\n        /* \"contract/HeirAccount.sol\":7093:7109  _sender == owner */\n      0xffffffffffffffffffffffffffffffffffffffff\n      and\n      eq\n        /* \"contract/HeirAccount.sol\":7085:7146  require(_sender == owner, \"Only the owner can stop a claim.\") */\n      tag_277\n      jumpi\n      mload(0x40)\n      0x08c379a000000000000000000000000000000000000000000000000000000000\n      dup2\n      mstore\n      0x04\n      add\n      tag_278\n      swap1\n      tag_279\n      jump\t// in\n    tag_278:\n      mload(0x40)\n      dup1\n      swap2\n      sub\n      swap1\n      revert\n    tag_277:\n        /* \"contract/HeirAccount.sol\":7164:7179  claimInProgress */\n      0x02\n      0x14\n      swap1\n      sload\n      swap1\n      0x0100\n      exp\n      swap1\n      div\n      0xff\n      and\n        /* \"contract/HeirAccount.sol\":7156:7217  require(claimInProgress, \"There is no active claim to stop.\") */\n      tag_280\n      jumpi\n      mload(0x40)\n      0x08c379a000000000000000000000000000000000000000000000000000000000\n      dup2\n      mstore\n      0x04\n      add\n      tag_281\n      swap1\n      tag_282\n      jump\t// in\n    tag_281:\n      mload(0x40)\n      dup1\n      swap2\n      sub\n      swap1\n      revert\n    tag_280:\n        /* \"contract/HeirAccount.sol\":7245:7250  false */\n      0x00\n        /* \"contract/HeirAccount.sol\":7227:7242  claimInProgress */\n      0x02\n      0x14\n        /* \"contract/HeirAccount.sol\":7227:7250  claimInProgress = false */\n      0x0100\n      exp\n      dup2\n      sload\n      dup2\n      0xff\n      mul\n      not\n      and\n      swap1\n      dup4\n      iszero\n      iszero\n      mul\n      or\n      swap1\n      sstore\n      pop\n        /* \"contract/HeirAccount.sol\":7032:7257  function stopClaim(address _sender) public {... */\n      pop\n      jump\t// out\n        /* \"contract/HeirAccount.sol\":1494:1522  uint public claimInitiatedAt */\n    tag_114:\n      sload(0x03)\n      dup2\n      jump\t// out\n        /* \"contract/HeirAccount.sol\":1780:1799  IERC20 public ERC20 */\n    tag_118:\n      0x07\n      0x00\n      swap1\n      sload\n      swap1\n      0x0100\n      exp\n      swap1\n      div\n      0xffffffffffffffffffffffffffffffffffffffff\n      and\n      dup2\n      jump\t// out\n        /* \"contract/HeirAccount.sol\":1175:1198  address public deployer */\n    tag_123:\n      0x00\n      dup1\n      sload\n      swap1\n      0x0100\n      exp\n      swap1\n      div\n      0xffffffffffffffffffffffffffffffffffffffff\n      and\n      dup2\n      jump\t// out\n        /* \"contract/HeirAccount.sol\":2733:3022  function initiateClaim(address _sender) public {... */\n    tag_128:\n        /* \"contract/HeirAccount.sol\":2806:2813  _sender */\n      dup1\n        /* \"contract/HeirAccount.sol\":2798:2813  heir == _sender */\n      0xffffffffffffffffffffffffffffffffffffffff\n      and\n        /* \"contract/HeirAccount.sol\":2798:2802  heir */\n      0x02\n      0x00\n      swap1\n      sload\n      swap1\n      0x0100\n      exp\n      swap1\n      div\n      0xffffffffffffffffffffffffffffffffffffffff\n      and\n        /* \"contract/HeirAccount.sol\":2798:2813  heir == _sender */\n      0xffffffffffffffffffffffffffffffffffffffff\n      and\n      eq\n        /* \"contract/HeirAccount.sol\":2790:2863  require(heir == _sender, \"Only the heir can initiate the claim process.\") */\n      tag_284\n      jumpi\n      mload(0x40)\n      0x08c379a000000000000000000000000000000000000000000000000000000000\n      dup2\n      mstore\n      0x04\n      add\n      tag_285\n      swap1\n      tag_286\n      jump\t// in\n    tag_285:\n      mload(0x40)\n      dup1\n      swap2\n      sub\n      swap1\n      revert\n    tag_284:\n        /* \"contract/HeirAccount.sol\":2882:2897  claimInProgress */\n      0x02\n      0x14\n      swap1\n      sload\n      swap1\n      0x0100\n      exp\n      swap1\n      div\n      0xff\n      and\n        /* \"contract/HeirAccount.sol\":2881:2897  !claimInProgress */\n      iszero\n        /* \"contract/HeirAccount.sol\":2873:2939  require(!claimInProgress, \"Claim process is already in progress.\") */\n      tag_287\n      jumpi\n      mload(0x40)\n      0x08c379a000000000000000000000000000000000000000000000000000000000\n      dup2\n      mstore\n      0x04\n      add\n      tag_288\n      swap1\n      tag_289\n      jump\t// in\n    tag_288:\n      mload(0x40)\n      dup1\n      swap2\n      sub\n      swap1\n      revert\n    tag_287:\n        /* \"contract/HeirAccount.sol\":2967:2971  true */\n      0x01\n        /* \"contract/HeirAccount.sol\":2949:2964  claimInProgress */\n      0x02\n      0x14\n        /* \"contract/HeirAccount.sol\":2949:2971  claimInProgress = true */\n      0x0100\n      exp\n      dup2\n      sload\n      dup2\n      0xff\n      mul\n      not\n      and\n      swap1\n      dup4\n      iszero\n      iszero\n      mul\n      or\n      swap1\n      sstore\n      pop\n        /* \"contract/HeirAccount.sol\":3000:3015  block.timestamp */\n      timestamp\n        /* \"contract/HeirAccount.sol\":2981:2997  claimInitiatedAt */\n      0x03\n        /* \"contract/HeirAccount.sol\":2981:3015  claimInitiatedAt = block.timestamp */\n      dup2\n      swap1\n      sstore\n      pop\n        /* \"contract/HeirAccount.sol\":2733:3022  function initiateClaim(address _sender) public {... */\n      pop\n      jump\t// out\n        /* \"contract/HeirAccount.sol\":1404:1431  bool public claimInProgress */\n    tag_131:\n      0x02\n      0x14\n      swap1\n      sload\n      swap1\n      0x0100\n      exp\n      swap1\n      div\n      0xff\n      and\n      dup2\n      jump\t// out\n        /* \"https://github.com/OpenZeppelin/openzeppelin-contracts/blob/49c0e4370d0cc50ea6090709e3835a3091e33ee2/contracts/utils/math/SafeMath.sol\":3465:3561  function mul(uint256 a, uint256 b) internal pure returns (uint256) {... */\n    tag_149:\n        /* \"https://github.com/OpenZeppelin/openzeppelin-contracts/blob/49c0e4370d0cc50ea6090709e3835a3091e33ee2/contracts/utils/math/SafeMath.sol\":3523:3530  uint256 */\n      0x00\n        /* \"https://github.com/OpenZeppelin/openzeppelin-contracts/blob/49c0e4370d0cc50ea6090709e3835a3091e33ee2/contracts/utils/math/SafeMath.sol\":3553:3554  b */\n      dup2\n        /* \"https://github.com/OpenZeppelin/openzeppelin-contracts/blob/49c0e4370d0cc50ea6090709e3835a3091e33ee2/contracts/utils/math/SafeMath.sol\":3549:3550  a */\n      dup4\n        /* \"https://github.com/OpenZeppelin/openzeppelin-contracts/blob/49c0e4370d0cc50ea6090709e3835a3091e33ee2/contracts/utils/math/SafeMath.sol\":3549:3554  a * b */\n      tag_291\n      swap2\n      swap1\n      tag_193\n      jump\t// in\n    tag_291:\n        /* \"https://github.com/OpenZeppelin/openzeppelin-contracts/blob/49c0e4370d0cc50ea6090709e3835a3091e33ee2/contracts/utils/math/SafeMath.sol\":3542:3554  return a * b */\n      swap1\n      pop\n        /* \"https://github.com/OpenZeppelin/openzeppelin-contracts/blob/49c0e4370d0cc50ea6090709e3835a3091e33ee2/contracts/utils/math/SafeMath.sol\":3465:3561  function mul(uint256 a, uint256 b) internal pure returns (uint256) {... */\n      swap3\n      swap2\n      pop\n      pop\n      jump\t// out\n        /* \"https://github.com/OpenZeppelin/openzeppelin-contracts/blob/49c0e4370d0cc50ea6090709e3835a3091e33ee2/contracts/utils/math/SafeMath.sol\":3850:3946  function div(uint256 a, uint256 b) internal pure returns (uint256) {... */\n    tag_150:\n        /* \"https://github.com/OpenZeppelin/openzeppelin-contracts/blob/49c0e4370d0cc50ea6090709e3835a3091e33ee2/contracts/utils/math/SafeMath.sol\":3908:3915  uint256 */\n      0x00\n        /* \"https://github.com/OpenZeppelin/openzeppelin-contracts/blob/49c0e4370d0cc50ea6090709e3835a3091e33ee2/contracts/utils/math/SafeMath.sol\":3938:3939  b */\n      dup2\n        /* \"https://github.com/OpenZeppelin/openzeppelin-contracts/blob/49c0e4370d0cc50ea6090709e3835a3091e33ee2/contracts/utils/math/SafeMath.sol\":3934:3935  a */\n      dup4\n        /* \"https://github.com/OpenZeppelin/openzeppelin-contracts/blob/49c0e4370d0cc50ea6090709e3835a3091e33ee2/contracts/utils/math/SafeMath.sol\":3934:3939  a / b */\n      tag_293\n      swap2\n      swap1\n      tag_294\n      jump\t// in\n    tag_293:\n        /* \"https://github.com/OpenZeppelin/openzeppelin-contracts/blob/49c0e4370d0cc50ea6090709e3835a3091e33ee2/contracts/utils/math/SafeMath.sol\":3927:3939  return a / b */\n      swap1\n      pop\n        /* \"https://github.com/OpenZeppelin/openzeppelin-contracts/blob/49c0e4370d0cc50ea6090709e3835a3091e33ee2/contracts/utils/math/SafeMath.sol\":3850:3946  function div(uint256 a, uint256 b) internal pure returns (uint256) {... */\n      swap3\n      swap2\n      pop\n      pop\n      jump\t// out\n        /* \"https://github.com/OpenZeppelin/openzeppelin-contracts/blob/49c0e4370d0cc50ea6090709e3835a3091e33ee2/contracts/utils/math/SafeMath.sol\":3122:3218  function sub(uint256 a, uint256 b) internal pure returns (uint256) {... */\n    tag_152:\n        /* \"https://github.com/OpenZeppelin/openzeppelin-contracts/blob/49c0e4370d0cc50ea6090709e3835a3091e33ee2/contracts/utils/math/SafeMath.sol\":3180:3187  uint256 */\n      0x00\n        /* \"https://github.com/OpenZeppelin/openzeppelin-contracts/blob/49c0e4370d0cc50ea6090709e3835a3091e33ee2/contracts/utils/math/SafeMath.sol\":3210:3211  b */\n      dup2\n        /* \"https://github.com/OpenZeppelin/openzeppelin-contracts/blob/49c0e4370d0cc50ea6090709e3835a3091e33ee2/contracts/utils/math/SafeMath.sol\":3206:3207  a */\n      dup4\n        /* \"https://github.com/OpenZeppelin/openzeppelin-contracts/blob/49c0e4370d0cc50ea6090709e3835a3091e33ee2/contracts/utils/math/SafeMath.sol\":3206:3211  a - b */\n      tag_296\n      swap2\n      swap1\n      tag_297\n      jump\t// in\n    tag_296:\n        /* \"https://github.com/OpenZeppelin/openzeppelin-contracts/blob/49c0e4370d0cc50ea6090709e3835a3091e33ee2/contracts/utils/math/SafeMath.sol\":3199:3211  return a - b */\n      swap1\n      pop\n        /* \"https://github.com/OpenZeppelin/openzeppelin-contracts/blob/49c0e4370d0cc50ea6090709e3835a3091e33ee2/contracts/utils/math/SafeMath.sol\":3122:3218  function sub(uint256 a, uint256 b) internal pure returns (uint256) {... */\n      swap3\n      swap2\n      pop\n      pop\n      jump\t// out\n        /* \"https://github.com/OpenZeppelin/openzeppelin-contracts/blob/49c0e4370d0cc50ea6090709e3835a3091e33ee2/contracts/utils/math/SafeMath.sol\":2755:2851  function add(uint256 a, uint256 b) internal pure returns (uint256) {... */\n    tag_269:\n        /* \"https://github.com/OpenZeppelin/openzeppelin-contracts/blob/49c0e4370d0cc50ea6090709e3835a3091e33ee2/contracts/utils/math/SafeMath.sol\":2813:2820  uint256 */\n      0x00\n        /* \"https://github.com/OpenZeppelin/openzeppelin-contracts/blob/49c0e4370d0cc50ea6090709e3835a3091e33ee2/contracts/utils/math/SafeMath.sol\":2843:2844  b */\n      dup2\n        /* \"https://github.com/OpenZeppelin/openzeppelin-contracts/blob/49c0e4370d0cc50ea6090709e3835a3091e33ee2/contracts/utils/math/SafeMath.sol\":2839:2840  a */\n      dup4\n        /* \"https://github.com/OpenZeppelin/openzeppelin-contracts/blob/49c0e4370d0cc50ea6090709e3835a3091e33ee2/contracts/utils/math/SafeMath.sol\":2839:2844  a + b */\n      tag_299\n      swap2\n      swap1\n      tag_195\n      jump\t// in\n    tag_299:\n        /* \"https://github.com/OpenZeppelin/openzeppelin-contracts/blob/49c0e4370d0cc50ea6090709e3835a3091e33ee2/contracts/utils/math/SafeMath.sol\":2832:2844  return a + b */\n      swap1\n      pop\n        /* \"https://github.com/OpenZeppelin/openzeppelin-contracts/blob/49c0e4370d0cc50ea6090709e3835a3091e33ee2/contracts/utils/math/SafeMath.sol\":2755:2851  function add(uint256 a, uint256 b) internal pure returns (uint256) {... */\n      swap3\n      swap2\n      pop\n      pop\n      jump\t// out\n        /* \"#utility.yul\":88:205   */\n    tag_301:\n        /* \"#utility.yul\":197:198   */\n      0x00\n        /* \"#utility.yul\":194:195   */\n      dup1\n        /* \"#utility.yul\":187:199   */\n      revert\n        /* \"#utility.yul\":334:424   */\n    tag_303:\n        /* \"#utility.yul\":368:375   */\n      0x00\n        /* \"#utility.yul\":411:416   */\n      dup2\n        /* \"#utility.yul\":404:417   */\n      iszero\n        /* \"#utility.yul\":397:418   */\n      iszero\n        /* \"#utility.yul\":386:418   */\n      swap1\n      pop\n        /* \"#utility.yul\":334:424   */\n      swap2\n      swap1\n      pop\n      jump\t// out\n        /* \"#utility.yul\":430:546   */\n    tag_304:\n        /* \"#utility.yul\":500:521   */\n      tag_372\n        /* \"#utility.yul\":515:520   */\n      dup2\n        /* \"#utility.yul\":500:521   */\n      tag_303\n      jump\t// in\n    tag_372:\n        /* \"#utility.yul\":493:498   */\n      dup2\n        /* \"#utility.yul\":490:522   */\n      eq\n        /* \"#utility.yul\":480:540   */\n      tag_373\n      jumpi\n        /* \"#utility.yul\":536:537   */\n      0x00\n        /* \"#utility.yul\":533:534   */\n      dup1\n        /* \"#utility.yul\":526:538   */\n      revert\n        /* \"#utility.yul\":480:540   */\n    tag_373:\n        /* \"#utility.yul\":430:546   */\n      pop\n      jump\t// out\n        /* \"#utility.yul\":552:685   */\n    tag_305:\n        /* \"#utility.yul\":595:600   */\n      0x00\n        /* \"#utility.yul\":633:639   */\n      dup2\n        /* \"#utility.yul\":620:640   */\n      calldataload\n        /* \"#utility.yul\":611:640   */\n      swap1\n      pop\n        /* \"#utility.yul\":649:679   */\n      tag_375\n        /* \"#utility.yul\":673:678   */\n      dup2\n        /* \"#utility.yul\":649:679   */\n      tag_304\n      jump\t// in\n    tag_375:\n        /* \"#utility.yul\":552:685   */\n      swap3\n      swap2\n      pop\n      pop\n      jump\t// out\n        /* \"#utility.yul\":691:817   */\n    tag_306:\n        /* \"#utility.yul\":728:735   */\n      0x00\n        /* \"#utility.yul\":768:810   */\n      0xffffffffffffffffffffffffffffffffffffffff\n        /* \"#utility.yul\":761:766   */\n      dup3\n        /* \"#utility.yul\":757:811   */\n      and\n        /* \"#utility.yul\":746:811   */\n      swap1\n      pop\n        /* \"#utility.yul\":691:817   */\n      swap2\n      swap1\n      pop\n      jump\t// out\n        /* \"#utility.yul\":823:927   */\n    tag_307:\n        /* \"#utility.yul\":868:875   */\n      0x00\n        /* \"#utility.yul\":897:921   */\n      tag_378\n        /* \"#utility.yul\":915:920   */\n      dup3\n        /* \"#utility.yul\":897:921   */\n      tag_306\n      jump\t// in\n    tag_378:\n        /* \"#utility.yul\":886:921   */\n      swap1\n      pop\n        /* \"#utility.yul\":823:927   */\n      swap2\n      swap1\n      pop\n      jump\t// out\n        /* \"#utility.yul\":933:1071   */\n    tag_308:\n        /* \"#utility.yul\":1014:1046   */\n      tag_380\n        /* \"#utility.yul\":1040:1045   */\n      dup2\n        /* \"#utility.yul\":1014:1046   */\n      tag_307\n      jump\t// in\n    tag_380:\n        /* \"#utility.yul\":1007:1012   */\n      dup2\n        /* \"#utility.yul\":1004:1047   */\n      eq\n        /* \"#utility.yul\":994:1065   */\n      tag_381\n      jumpi\n        /* \"#utility.yul\":1061:1062   */\n      0x00\n        /* \"#utility.yul\":1058:1059   */\n      dup1\n        /* \"#utility.yul\":1051:1063   */\n      revert\n        /* \"#utility.yul\":994:1065   */\n    tag_381:\n        /* \"#utility.yul\":933:1071   */\n      pop\n      jump\t// out\n        /* \"#utility.yul\":1077:1232   */\n    tag_309:\n        /* \"#utility.yul\":1131:1136   */\n      0x00\n        /* \"#utility.yul\":1169:1175   */\n      dup2\n        /* \"#utility.yul\":1156:1176   */\n      calldataload\n        /* \"#utility.yul\":1147:1176   */\n      swap1\n      pop\n        /* \"#utility.yul\":1185:1226   */\n      tag_383\n        /* \"#utility.yul\":1220:1225   */\n      dup2\n        /* \"#utility.yul\":1185:1226   */\n      tag_308\n      jump\t// in\n    tag_383:\n        /* \"#utility.yul\":1077:1232   */\n      swap3\n      swap2\n      pop\n      pop\n      jump\t// out\n        /* \"#utility.yul\":1238:1315   */\n    tag_310:\n        /* \"#utility.yul\":1275:1282   */\n      0x00\n        /* \"#utility.yul\":1304:1309   */\n      dup2\n        /* \"#utility.yul\":1293:1309   */\n      swap1\n      pop\n        /* \"#utility.yul\":1238:1315   */\n      swap2\n      swap1\n      pop\n      jump\t// out\n        /* \"#utility.yul\":1321:1443   */\n    tag_311:\n        /* \"#utility.yul\":1394:1418   */\n      tag_386\n        /* \"#utility.yul\":1412:1417   */\n      dup2\n        /* \"#utility.yul\":1394:1418   */\n      tag_310\n      jump\t// in\n    tag_386:\n        /* \"#utility.yul\":1387:1392   */\n      dup2\n        /* \"#utility.yul\":1384:1419   */\n      eq\n        /* \"#utility.yul\":1374:1437   */\n      tag_387\n      jumpi\n        /* \"#utility.yul\":1433:1434   */\n      0x00\n        /* \"#utility.yul\":1430:1431   */\n      dup1\n        /* \"#utility.yul\":1423:1435   */\n      revert\n        /* \"#utility.yul\":1374:1437   */\n    tag_387:\n        /* \"#utility.yul\":1321:1443   */\n      pop\n      jump\t// out\n        /* \"#utility.yul\":1449:1588   */\n    tag_312:\n        /* \"#utility.yul\":1495:1500   */\n      0x00\n        /* \"#utility.yul\":1533:1539   */\n      dup2\n        /* \"#utility.yul\":1520:1540   */\n      calldataload\n        /* \"#utility.yul\":1511:1540   */\n      swap1\n      pop\n        /* \"#utility.yul\":1549:1582   */\n      tag_389\n        /* \"#utility.yul\":1576:1581   */\n      dup2\n        /* \"#utility.yul\":1549:1582   */\n      tag_311\n      jump\t// in\n    tag_389:\n        /* \"#utility.yul\":1449:1588   */\n      swap3\n      swap2\n      pop\n      pop\n      jump\t// out\n        /* \"#utility.yul\":1594:1690   */\n    tag_313:\n        /* \"#utility.yul\":1631:1638   */\n      0x00\n        /* \"#utility.yul\":1660:1684   */\n      tag_391\n        /* \"#utility.yul\":1678:1683   */\n      dup3\n        /* \"#utility.yul\":1660:1684   */\n      tag_306\n      jump\t// in\n    tag_391:\n        /* \"#utility.yul\":1649:1684   */\n      swap1\n      pop\n        /* \"#utility.yul\":1594:1690   */\n      swap2\n      swap1\n      pop\n      jump\t// out\n        /* \"#utility.yul\":1696:1818   */\n    tag_314:\n        /* \"#utility.yul\":1769:1793   */\n      tag_393\n        /* \"#utility.yul\":1787:1792   */\n      dup2\n        /* \"#utility.yul\":1769:1793   */\n      tag_313\n      jump\t// in\n    tag_393:\n        /* \"#utility.yul\":1762:1767   */\n      dup2\n        /* \"#utility.yul\":1759:1794   */\n      eq\n        /* \"#utility.yul\":1749:1812   */\n      tag_394\n      jumpi\n        /* \"#utility.yul\":1808:1809   */\n      0x00\n        /* \"#utility.yul\":1805:1806   */\n      dup1\n        /* \"#utility.yul\":1798:1810   */\n      revert\n        /* \"#utility.yul\":1749:1812   */\n    tag_394:\n        /* \"#utility.yul\":1696:1818   */\n      pop\n      jump\t// out\n        /* \"#utility.yul\":1824:1963   */\n    tag_315:\n        /* \"#utility.yul\":1870:1875   */\n      0x00\n        /* \"#utility.yul\":1908:1914   */\n      dup2\n        /* \"#utility.yul\":1895:1915   */\n      calldataload\n        /* \"#utility.yul\":1886:1915   */\n      swap1\n      pop\n        /* \"#utility.yul\":1924:1957   */\n      tag_396\n        /* \"#utility.yul\":1951:1956   */\n      dup2\n        /* \"#utility.yul\":1924:1957   */\n      tag_314\n      jump\t// in\n    tag_396:\n        /* \"#utility.yul\":1824:1963   */\n      swap3\n      swap2\n      pop\n      pop\n      jump\t// out\n        /* \"#utility.yul\":1969:3198   */\n    tag_31:\n        /* \"#utility.yul\":2095:2101   */\n      0x00\n        /* \"#utility.yul\":2103:2109   */\n      dup1\n        /* \"#utility.yul\":2111:2117   */\n      0x00\n        /* \"#utility.yul\":2119:2125   */\n      dup1\n        /* \"#utility.yul\":2127:2133   */\n      0x00\n        /* \"#utility.yul\":2135:2141   */\n      dup1\n        /* \"#utility.yul\":2143:2149   */\n      0x00\n        /* \"#utility.yul\":2192:2195   */\n      0xe0\n        /* \"#utility.yul\":2180:2189   */\n      dup9\n        /* \"#utility.yul\":2171:2178   */\n      dup11\n        /* \"#utility.yul\":2167:2190   */\n      sub\n        /* \"#utility.yul\":2163:2196   */\n      slt\n        /* \"#utility.yul\":2160:2280   */\n      iszero\n      tag_398\n      jumpi\n        /* \"#utility.yul\":2199:2278   */\n      tag_399\n      tag_301\n      jump\t// in\n    tag_399:\n        /* \"#utility.yul\":2160:2280   */\n    tag_398:\n        /* \"#utility.yul\":2319:2320   */\n      0x00\n        /* \"#utility.yul\":2344:2394   */\n      tag_400\n        /* \"#utility.yul\":2386:2393   */\n      dup11\n        /* \"#utility.yul\":2377:2383   */\n      dup3\n        /* \"#utility.yul\":2366:2375   */\n      dup12\n        /* \"#utility.yul\":2362:2384   */\n      add\n        /* \"#utility.yul\":2344:2394   */\n      tag_305\n      jump\t// in\n    tag_400:\n        /* \"#utility.yul\":2334:2394   */\n      swap8\n      pop\n        /* \"#utility.yul\":2290:2404   */\n      pop\n        /* \"#utility.yul\":2443:2445   */\n      0x20\n        /* \"#utility.yul\":2469:2530   */\n      tag_401\n        /* \"#utility.yul\":2522:2529   */\n      dup11\n        /* \"#utility.yul\":2513:2519   */\n      dup3\n        /* \"#utility.yul\":2502:2511   */\n      dup12\n        /* \"#utility.yul\":2498:2520   */\n      add\n        /* \"#utility.yul\":2469:2530   */\n      tag_309\n      jump\t// in\n    tag_401:\n        /* \"#utility.yul\":2459:2530   */\n      swap7\n      pop\n        /* \"#utility.yul\":2414:2540   */\n      pop\n        /* \"#utility.yul\":2579:2581   */\n      0x40\n        /* \"#utility.yul\":2605:2658   */\n      tag_402\n        /* \"#utility.yul\":2650:2657   */\n      dup11\n        /* \"#utility.yul\":2641:2647   */\n      dup3\n        /* \"#utility.yul\":2630:2639   */\n      dup12\n        /* \"#utility.yul\":2626:2648   */\n      add\n        /* \"#utility.yul\":2605:2658   */\n      tag_312\n      jump\t// in\n    tag_402:\n        /* \"#utility.yul\":2595:2658   */\n      swap6\n      pop\n        /* \"#utility.yul\":2550:2668   */\n      pop\n        /* \"#utility.yul\":2707:2709   */\n      0x60\n        /* \"#utility.yul\":2733:2786   */\n      tag_403\n        /* \"#utility.yul\":2778:2785   */\n      dup11\n        /* \"#utility.yul\":2769:2775   */\n      dup3\n        /* \"#utility.yul\":2758:2767   */\n      dup12\n        /* \"#utility.yul\":2754:2776   */\n      add\n        /* \"#utility.yul\":2733:2786   */\n      tag_315\n      jump\t// in\n    tag_403:\n        /* \"#utility.yul\":2723:2786   */\n      swap5\n      pop\n        /* \"#utility.yul\":2678:2796   */\n      pop\n        /* \"#utility.yul\":2835:2838   */\n      0x80\n        /* \"#utility.yul\":2862:2915   */\n      tag_404\n        /* \"#utility.yul\":2907:2914   */\n      dup11\n        /* \"#utility.yul\":2898:2904   */\n      dup3\n        /* \"#utility.yul\":2887:2896   */\n      dup12\n        /* \"#utility.yul\":2883:2905   */\n      add\n        /* \"#utility.yul\":2862:2915   */\n      tag_315\n      jump\t// in\n    tag_404:\n        /* \"#utility.yul\":2852:2915   */\n      swap4\n      pop\n        /* \"#utility.yul\":2806:2925   */\n      pop\n        /* \"#utility.yul\":2964:2967   */\n      0xa0\n        /* \"#utility.yul\":2991:3052   */\n      tag_405\n        /* \"#utility.yul\":3044:3051   */\n      dup11\n        /* \"#utility.yul\":3035:3041   */\n      dup3\n        /* \"#utility.yul\":3024:3033   */\n      dup12\n        /* \"#utility.yul\":3020:3042   */\n      add\n        /* \"#utility.yul\":2991:3052   */\n      tag_309\n      jump\t// in\n    tag_405:\n        /* \"#utility.yul\":2981:3052   */\n      swap3\n      pop\n        /* \"#utility.yul\":2935:3062   */\n      pop\n        /* \"#utility.yul\":3101:3104   */\n      0xc0\n        /* \"#utility.yul\":3128:3181   */\n      tag_406\n        /* \"#utility.yul\":3173:3180   */\n      dup11\n        /* \"#utility.yul\":3164:3170   */\n      dup3\n        /* \"#utility.yul\":3153:3162   */\n      dup12\n        /* \"#utility.yul\":3149:3171   */\n      add\n        /* \"#utility.yul\":3128:3181   */\n      tag_312\n      jump\t// in\n    tag_406:\n        /* \"#utility.yul\":3118:3181   */\n      swap2\n      pop\n        /* \"#utility.yul\":3072:3191   */\n      pop\n        /* \"#utility.yul\":1969:3198   */\n      swap3\n      swap6\n      swap9\n      swap2\n      swap5\n      swap8\n      pop\n      swap3\n      swap6\n      pop\n      jump\t// out\n        /* \"#utility.yul\":3204:3313   */\n    tag_316:\n        /* \"#utility.yul\":3285:3306   */\n      tag_408\n        /* \"#utility.yul\":3300:3305   */\n      dup2\n        /* \"#utility.yul\":3285:3306   */\n      tag_303\n      jump\t// in\n    tag_408:\n        /* \"#utility.yul\":3280:3283   */\n      dup3\n        /* \"#utility.yul\":3273:3307   */\n      mstore\n        /* \"#utility.yul\":3204:3313   */\n      pop\n      pop\n      jump\t// out\n        /* \"#utility.yul\":3319:3529   */\n    tag_37:\n        /* \"#utility.yul\":3406:3410   */\n      0x00\n        /* \"#utility.yul\":3444:3446   */\n      0x20\n        /* \"#utility.yul\":3433:3442   */\n      dup3\n        /* \"#utility.yul\":3429:3447   */\n      add\n        /* \"#utility.yul\":3421:3447   */\n      swap1\n      pop\n        /* \"#utility.yul\":3457:3522   */\n      tag_410\n        /* \"#utility.yul\":3519:3520   */\n      0x00\n        /* \"#utility.yul\":3508:3517   */\n      dup4\n        /* \"#utility.yul\":3504:3521   */\n      add\n        /* \"#utility.yul\":3495:3501   */\n      dup5\n        /* \"#utility.yul\":3457:3522   */\n      tag_316\n      jump\t// in\n    tag_410:\n        /* \"#utility.yul\":3319:3529   */\n      swap3\n      swap2\n      pop\n      pop\n      jump\t// out\n        /* \"#utility.yul\":3535:4003   */\n    tag_41:\n        /* \"#utility.yul\":3600:3606   */\n      0x00\n        /* \"#utility.yul\":3608:3614   */\n      dup1\n        /* \"#utility.yul\":3657:3659   */\n      0x40\n        /* \"#utility.yul\":3645:3654   */\n      dup4\n        /* \"#utility.yul\":3636:3643   */\n      dup6\n        /* \"#utility.yul\":3632:3655   */\n      sub\n        /* \"#utility.yul\":3628:3660   */\n      slt\n        /* \"#utility.yul\":3625:3744   */\n      iszero\n      tag_412\n      jumpi\n        /* \"#utility.yul\":3663:3742   */\n      tag_413\n      tag_301\n      jump\t// in\n    tag_413:\n        /* \"#utility.yul\":3625:3744   */\n    tag_412:\n        /* \"#utility.yul\":3783:3784   */\n      0x00\n        /* \"#utility.yul\":3808:3858   */\n      tag_414\n        /* \"#utility.yul\":3850:3857   */\n      dup6\n        /* \"#utility.yul\":3841:3847   */\n      dup3\n        /* \"#utility.yul\":3830:3839   */\n      dup7\n        /* \"#utility.yul\":3826:3848   */\n      add\n        /* \"#utility.yul\":3808:3858   */\n      tag_305\n      jump\t// in\n    tag_414:\n        /* \"#utility.yul\":3798:3858   */\n      swap3\n      pop\n        /* \"#utility.yul\":3754:3868   */\n      pop\n        /* \"#utility.yul\":3907:3909   */\n      0x20\n        /* \"#utility.yul\":3933:3986   */\n      tag_415\n        /* \"#utility.yul\":3978:3985   */\n      dup6\n        /* \"#utility.yul\":3969:3975   */\n      dup3\n        /* \"#utility.yul\":3958:3967   */\n      dup7\n        /* \"#utility.yul\":3954:3976   */\n      add\n        /* \"#utility.yul\":3933:3986   */\n      tag_315\n      jump\t// in\n    tag_415:\n        /* \"#utility.yul\":3923:3986   */\n      swap2\n      pop\n        /* \"#utility.yul\":3878:3996   */\n      pop\n        /* \"#utility.yul\":3535:4003   */\n      swap3\n      pop\n      swap3\n      swap1\n      pop\n      jump\t// out\n        /* \"#utility.yul\":4009:4127   */\n    tag_317:\n        /* \"#utility.yul\":4096:4120   */\n      tag_417\n        /* \"#utility.yul\":4114:4119   */\n      dup2\n        /* \"#utility.yul\":4096:4120   */\n      tag_310\n      jump\t// in\n    tag_417:\n        /* \"#utility.yul\":4091:4094   */\n      dup3\n        /* \"#utility.yul\":4084:4121   */\n      mstore\n        /* \"#utility.yul\":4009:4127   */\n      pop\n      pop\n      jump\t// out\n        /* \"#utility.yul\":4133:4355   */\n    tag_44:\n        /* \"#utility.yul\":4226:4230   */\n      0x00\n        /* \"#utility.yul\":4264:4266   */\n      0x20\n        /* \"#utility.yul\":4253:4262   */\n      dup3\n        /* \"#utility.yul\":4249:4267   */\n      add\n        /* \"#utility.yul\":4241:4267   */\n      swap1\n      pop\n        /* \"#utility.yul\":4277:4348   */\n      tag_419\n        /* \"#utility.yul\":4345:4346   */\n      0x00\n        /* \"#utility.yul\":4334:4343   */\n      dup4\n        /* \"#utility.yul\":4330:4347   */\n      add\n        /* \"#utility.yul\":4321:4327   */\n      dup5\n        /* \"#utility.yul\":4277:4348   */\n      tag_317\n      jump\t// in\n    tag_419:\n        /* \"#utility.yul\":4133:4355   */\n      swap3\n      swap2\n      pop\n      pop\n      jump\t// out\n        /* \"#utility.yul\":4361:4690   */\n    tag_52:\n        /* \"#utility.yul\":4420:4426   */\n      0x00\n        /* \"#utility.yul\":4469:4471   */\n      0x20\n        /* \"#utility.yul\":4457:4466   */\n      dup3\n        /* \"#utility.yul\":4448:4455   */\n      dup5\n        /* \"#utility.yul\":4444:4467   */\n      sub\n        /* \"#utility.yul\":4440:4472   */\n      slt\n        /* \"#utility.yul\":4437:4556   */\n      iszero\n      tag_421\n      jumpi\n        /* \"#utility.yul\":4475:4554   */\n      tag_422\n      tag_301\n      jump\t// in\n    tag_422:\n        /* \"#utility.yul\":4437:4556   */\n    tag_421:\n        /* \"#utility.yul\":4595:4596   */\n      0x00\n        /* \"#utility.yul\":4620:4673   */\n      tag_423\n        /* \"#utility.yul\":4665:4672   */\n      dup5\n        /* \"#utility.yul\":4656:4662   */\n      dup3\n        /* \"#utility.yul\":4645:4654   */\n      dup6\n        /* \"#utility.yul\":4641:4663   */\n      add\n        /* \"#utility.yul\":4620:4673   */\n      tag_315\n      jump\t// in\n    tag_423:\n        /* \"#utility.yul\":4610:4673   */\n      swap2\n      pop\n        /* \"#utility.yul\":4566:4683   */\n      pop\n        /* \"#utility.yul\":4361:4690   */\n      swap3\n      swap2\n      pop\n      pop\n      jump\t// out\n        /* \"#utility.yul\":4696:4814   */\n    tag_318:\n        /* \"#utility.yul\":4783:4807   */\n      tag_425\n        /* \"#utility.yul\":4801:4806   */\n      dup2\n        /* \"#utility.yul\":4783:4807   */\n      tag_313\n      jump\t// in\n    tag_425:\n        /* \"#utility.yul\":4778:4781   */\n      dup3\n        /* \"#utility.yul\":4771:4808   */\n      mstore\n        /* \"#utility.yul\":4696:4814   */\n      pop\n      pop\n      jump\t// out\n        /* \"#utility.yul\":4820:5042   */\n    tag_58:\n        /* \"#utility.yul\":4913:4917   */\n      0x00\n        /* \"#utility.yul\":4951:4953   */\n      0x20\n        /* \"#utility.yul\":4940:4949   */\n      dup3\n        /* \"#utility.yul\":4936:4954   */\n      add\n        /* \"#utility.yul\":4928:4954   */\n      swap1\n      pop\n        /* \"#utility.yul\":4964:5035   */\n      tag_427\n        /* \"#utility.yul\":5032:5033   */\n      0x00\n        /* \"#utility.yul\":5021:5030   */\n      dup4\n        /* \"#utility.yul\":5017:5034   */\n      add\n        /* \"#utility.yul\":5008:5014   */\n      dup5\n        /* \"#utility.yul\":4964:5035   */\n      tag_318\n      jump\t// in\n    tag_427:\n        /* \"#utility.yul\":4820:5042   */\n      swap3\n      swap2\n      pop\n      pop\n      jump\t// out\n        /* \"#utility.yul\":5048:5683   */\n    tag_70:\n        /* \"#utility.yul\":5133:5139   */\n      0x00\n        /* \"#utility.yul\":5141:5147   */\n      dup1\n        /* \"#utility.yul\":5149:5155   */\n      0x00\n        /* \"#utility.yul\":5198:5200   */\n      0x60\n        /* \"#utility.yul\":5186:5195   */\n      dup5\n        /* \"#utility.yul\":5177:5184   */\n      dup7\n        /* \"#utility.yul\":5173:5196   */\n      sub\n        /* \"#utility.yul\":5169:5201   */\n      slt\n        /* \"#utility.yul\":5166:5285   */\n      iszero\n      tag_429\n      jumpi\n        /* \"#utility.yul\":5204:5283   */\n      tag_430\n      tag_301\n      jump\t// in\n    tag_430:\n        /* \"#utility.yul\":5166:5285   */\n    tag_429:\n        /* \"#utility.yul\":5324:5325   */\n      0x00\n        /* \"#utility.yul\":5349:5410   */\n      tag_431\n        /* \"#utility.yul\":5402:5409   */\n      dup7\n        /* \"#utility.yul\":5393:5399   */\n      dup3\n        /* \"#utility.yul\":5382:5391   */\n      dup8\n        /* \"#utility.yul\":5378:5400   */\n      add\n        /* \"#utility.yul\":5349:5410   */\n      tag_309\n      jump\t// in\n    tag_431:\n        /* \"#utility.yul\":5339:5410   */\n      swap4\n      pop\n        /* \"#utility.yul\":5295:5420   */\n      pop\n        /* \"#utility.yul\":5459:5461   */\n      0x20\n        /* \"#utility.yul\":5485:5538   */\n      tag_432\n        /* \"#utility.yul\":5530:5537   */\n      dup7\n        /* \"#utility.yul\":5521:5527   */\n      dup3\n        /* \"#utility.yul\":5510:5519   */\n      dup8\n        /* \"#utility.yul\":5506:5528   */\n      add\n        /* \"#utility.yul\":5485:5538   */\n      tag_312\n      jump\t// in\n    tag_432:\n        /* \"#utility.yul\":5475:5538   */\n      swap3\n      pop\n        /* \"#utility.yul\":5430:5548   */\n      pop\n        /* \"#utility.yul\":5587:5589   */\n      0x40\n        /* \"#utility.yul\":5613:5666   */\n      tag_433\n        /* \"#utility.yul\":5658:5665   */\n      dup7\n        /* \"#utility.yul\":5649:5655   */\n      dup3\n        /* \"#utility.yul\":5638:5647   */\n      dup8\n        /* \"#utility.yul\":5634:5656   */\n      add\n        /* \"#utility.yul\":5613:5666   */\n      tag_315\n      jump\t// in\n    tag_433:\n        /* \"#utility.yul\":5603:5666   */\n      swap2\n      pop\n        /* \"#utility.yul\":5558:5676   */\n      pop\n        /* \"#utility.yul\":5048:5683   */\n      swap3\n      pop\n      swap3\n      pop\n      swap3\n      jump\t// out\n        /* \"#utility.yul\":5689:5831   */\n    tag_319:\n        /* \"#utility.yul\":5792:5824   */\n      tag_435\n        /* \"#utility.yul\":5818:5823   */\n      dup2\n        /* \"#utility.yul\":5792:5824   */\n      tag_307\n      jump\t// in\n    tag_435:\n        /* \"#utility.yul\":5787:5790   */\n      dup3\n        /* \"#utility.yul\":5780:5825   */\n      mstore\n        /* \"#utility.yul\":5689:5831   */\n      pop\n      pop\n      jump\t// out\n        /* \"#utility.yul\":5837:6091   */\n    tag_76:\n        /* \"#utility.yul\":5946:5950   */\n      0x00\n        /* \"#utility.yul\":5984:5986   */\n      0x20\n        /* \"#utility.yul\":5973:5982   */\n      dup3\n        /* \"#utility.yul\":5969:5987   */\n      add\n        /* \"#utility.yul\":5961:5987   */\n      swap1\n      pop\n        /* \"#utility.yul\":5997:6084   */\n      tag_437\n        /* \"#utility.yul\":6081:6082   */\n      0x00\n        /* \"#utility.yul\":6070:6079   */\n      dup4\n        /* \"#utility.yul\":6066:6083   */\n      add\n        /* \"#utility.yul\":6057:6063   */\n      dup5\n        /* \"#utility.yul\":5997:6084   */\n      tag_319\n      jump\t// in\n    tag_437:\n        /* \"#utility.yul\":5837:6091   */\n      swap3\n      swap2\n      pop\n      pop\n      jump\t// out\n        /* \"#utility.yul\":6097:7164   */\n    tag_79:\n        /* \"#utility.yul\":6206:6212   */\n      0x00\n        /* \"#utility.yul\":6214:6220   */\n      dup1\n        /* \"#utility.yul\":6222:6228   */\n      0x00\n        /* \"#utility.yul\":6230:6236   */\n      dup1\n        /* \"#utility.yul\":6238:6244   */\n      0x00\n        /* \"#utility.yul\":6246:6252   */\n      dup1\n        /* \"#utility.yul\":6295:6298   */\n      0xc0\n        /* \"#utility.yul\":6283:6292   */\n      dup8\n        /* \"#utility.yul\":6274:6281   */\n      dup10\n        /* \"#utility.yul\":6270:6293   */\n      sub\n        /* \"#utility.yul\":6266:6299   */\n      slt\n        /* \"#utility.yul\":6263:6383   */\n      iszero\n      tag_439\n      jumpi\n        /* \"#utility.yul\":6302:6381   */\n      tag_440\n      tag_301\n      jump\t// in\n    tag_440:\n        /* \"#utility.yul\":6263:6383   */\n    tag_439:\n        /* \"#utility.yul\":6422:6423   */\n      0x00\n        /* \"#utility.yul\":6447:6497   */\n      tag_441\n        /* \"#utility.yul\":6489:6496   */\n      dup10\n        /* \"#utility.yul\":6480:6486   */\n      dup3\n        /* \"#utility.yul\":6469:6478   */\n      dup11\n        /* \"#utility.yul\":6465:6487   */\n      add\n        /* \"#utility.yul\":6447:6497   */\n      tag_305\n      jump\t// in\n    tag_441:\n        /* \"#utility.yul\":6437:6497   */\n      swap7\n      pop\n        /* \"#utility.yul\":6393:6507   */\n      pop\n        /* \"#utility.yul\":6546:6548   */\n      0x20\n        /* \"#utility.yul\":6572:6625   */\n      tag_442\n        /* \"#utility.yul\":6617:6624   */\n      dup10\n        /* \"#utility.yul\":6608:6614   */\n      dup3\n        /* \"#utility.yul\":6597:6606   */\n      dup11\n        /* \"#utility.yul\":6593:6615   */\n      add\n        /* \"#utility.yul\":6572:6625   */\n      tag_312\n      jump\t// in\n    tag_442:\n        /* \"#utility.yul\":6562:6625   */\n      swap6\n      pop\n        /* \"#utility.yul\":6517:6635   */\n      pop\n        /* \"#utility.yul\":6674:6676   */\n      0x40\n        /* \"#utility.yul\":6700:6753   */\n      tag_443\n        /* \"#utility.yul\":6745:6752   */\n      dup10\n        /* \"#utility.yul\":6736:6742   */\n      dup3\n        /* \"#utility.yul\":6725:6734   */\n      dup11\n        /* \"#utility.yul\":6721:6743   */\n      add\n        /* \"#utility.yul\":6700:6753   */\n      tag_315\n      jump\t// in\n    tag_443:\n        /* \"#utility.yul\":6690:6753   */\n      swap5\n      pop\n        /* \"#utility.yul\":6645:6763   */\n      pop\n        /* \"#utility.yul\":6802:6804   */\n      0x60\n        /* \"#utility.yul\":6828:6881   */\n      tag_444\n        /* \"#utility.yul\":6873:6880   */\n      dup10\n        /* \"#utility.yul\":6864:6870   */\n      dup3\n        /* \"#utility.yul\":6853:6862   */\n      dup11\n        /* \"#utility.yul\":6849:6871   */\n      add\n        /* \"#utility.yul\":6828:6881   */\n      tag_315\n      jump\t// in\n    tag_444:\n        /* \"#utility.yul\":6818:6881   */\n      swap4\n      pop\n        /* \"#utility.yul\":6773:6891   */\n      pop\n        /* \"#utility.yul\":6930:6933   */\n      0x80\n        /* \"#utility.yul\":6957:7018   */\n      tag_445\n        /* \"#utility.yul\":7010:7017   */\n      dup10\n        /* \"#utility.yul\":7001:7007   */\n      dup3\n        /* \"#utility.yul\":6990:6999   */\n      dup11\n        /* \"#utility.yul\":6986:7008   */\n      add\n        /* \"#utility.yul\":6957:7018   */\n      tag_309\n      jump\t// in\n    tag_445:\n        /* \"#utility.yul\":6947:7018   */\n      swap3\n      pop\n        /* \"#utility.yul\":6901:7028   */\n      pop\n        /* \"#utility.yul\":7067:7070   */\n      0xa0\n        /* \"#utility.yul\":7094:7147   */\n      tag_446\n        /* \"#utility.yul\":7139:7146   */\n      dup10\n        /* \"#utility.yul\":7130:7136   */\n      dup3\n        /* \"#utility.yul\":7119:7128   */\n      dup11\n        /* \"#utility.yul\":7115:7137   */\n      add\n        /* \"#utility.yul\":7094:7147   */\n      tag_312\n      jump\t// in\n    tag_446:\n        /* \"#utility.yul\":7084:7147   */\n      swap2\n      pop\n        /* \"#utility.yul\":7038:7157   */\n      pop\n        /* \"#utility.yul\":6097:7164   */\n      swap3\n      swap6\n      pop\n      swap3\n      swap6\n      pop\n      swap3\n      swap6\n      jump\t// out\n        /* \"#utility.yul\":7170:7230   */\n    tag_320:\n        /* \"#utility.yul\":7198:7201   */\n      0x00\n        /* \"#utility.yul\":7219:7224   */\n      dup2\n        /* \"#utility.yul\":7212:7224   */\n      swap1\n      pop\n        /* \"#utility.yul\":7170:7230   */\n      swap2\n      swap1\n      pop\n      jump\t// out\n        /* \"#utility.yul\":7236:7378   */\n    tag_321:\n        /* \"#utility.yul\":7286:7295   */\n      0x00\n        /* \"#utility.yul\":7319:7372   */\n      tag_449\n        /* \"#utility.yul\":7337:7371   */\n      tag_450\n        /* \"#utility.yul\":7346:7370   */\n      tag_451\n        /* \"#utility.yul\":7364:7369   */\n      dup5\n        /* \"#utility.yul\":7346:7370   */\n      tag_306\n      jump\t// in\n    tag_451:\n        /* \"#utility.yul\":7337:7371   */\n      tag_320\n      jump\t// in\n    tag_450:\n        /* \"#utility.yul\":7319:7372   */\n      tag_306\n      jump\t// in\n    tag_449:\n        /* \"#utility.yul\":7306:7372   */\n      swap1\n      pop\n        /* \"#utility.yul\":7236:7378   */\n      swap2\n      swap1\n      pop\n      jump\t// out\n        /* \"#utility.yul\":7384:7510   */\n    tag_322:\n        /* \"#utility.yul\":7434:7443   */\n      0x00\n        /* \"#utility.yul\":7467:7504   */\n      tag_453\n        /* \"#utility.yul\":7498:7503   */\n      dup3\n        /* \"#utility.yul\":7467:7504   */\n      tag_321\n      jump\t// in\n    tag_453:\n        /* \"#utility.yul\":7454:7504   */\n      swap1\n      pop\n        /* \"#utility.yul\":7384:7510   */\n      swap2\n      swap1\n      pop\n      jump\t// out\n        /* \"#utility.yul\":7516:7656   */\n    tag_323:\n        /* \"#utility.yul\":7580:7589   */\n      0x00\n        /* \"#utility.yul\":7613:7650   */\n      tag_455\n        /* \"#utility.yul\":7644:7649   */\n      dup3\n        /* \"#utility.yul\":7613:7650   */\n      tag_322\n      jump\t// in\n    tag_455:\n        /* \"#utility.yul\":7600:7650   */\n      swap1\n      pop\n        /* \"#utility.yul\":7516:7656   */\n      swap2\n      swap1\n      pop\n      jump\t// out\n        /* \"#utility.yul\":7662:7821   */\n    tag_324:\n        /* \"#utility.yul\":7763:7814   */\n      tag_457\n        /* \"#utility.yul\":7808:7813   */\n      dup2\n        /* \"#utility.yul\":7763:7814   */\n      tag_323\n      jump\t// in\n    tag_457:\n        /* \"#utility.yul\":7758:7761   */\n      dup3\n        /* \"#utility.yul\":7751:7815   */\n      mstore\n        /* \"#utility.yul\":7662:7821   */\n      pop\n      pop\n      jump\t// out\n        /* \"#utility.yul\":7827:8077   */\n    tag_120:\n        /* \"#utility.yul\":7934:7938   */\n      0x00\n        /* \"#utility.yul\":7972:7974   */\n      0x20\n        /* \"#utility.yul\":7961:7970   */\n      dup3\n        /* \"#utility.yul\":7957:7975   */\n      add\n        /* \"#utility.yul\":7949:7975   */\n      swap1\n      pop\n        /* \"#utility.yul\":7985:8070   */\n      tag_459\n        /* \"#utility.yul\":8067:8068   */\n      0x00\n        /* \"#utility.yul\":8056:8065   */\n      dup4\n        /* \"#utility.yul\":8052:8069   */\n      add\n        /* \"#utility.yul\":8043:8049   */\n      dup5\n        /* \"#utility.yul\":7985:8070   */\n      tag_324\n      jump\t// in\n    tag_459:\n        /* \"#utility.yul\":7827:8077   */\n      swap3\n      swap2\n      pop\n      pop\n      jump\t// out\n        /* \"#utility.yul\":8083:8252   */\n    tag_325:\n        /* \"#utility.yul\":8167:8178   */\n      0x00\n        /* \"#utility.yul\":8201:8207   */\n      dup3\n        /* \"#utility.yul\":8196:8199   */\n      dup3\n        /* \"#utility.yul\":8189:8208   */\n      mstore\n        /* \"#utility.yul\":8241:8245   */\n      0x20\n        /* \"#utility.yul\":8236:8239   */\n      dup3\n        /* \"#utility.yul\":8232:8246   */\n      add\n        /* \"#utility.yul\":8217:8246   */\n      swap1\n      pop\n        /* \"#utility.yul\":8083:8252   */\n      swap3\n      swap2\n      pop\n      pop\n      jump\t// out\n        /* \"#utility.yul\":8258:8479   */\n    tag_326:\n        /* \"#utility.yul\":8398:8432   */\n      0x4f6e6c7920746865206f776e65722063616e207472616e736665722066756e64\n        /* \"#utility.yul\":8394:8395   */\n      0x00\n        /* \"#utility.yul\":8386:8392   */\n      dup3\n        /* \"#utility.yul\":8382:8396   */\n      add\n        /* \"#utility.yul\":8375:8433   */\n      mstore\n        /* \"#utility.yul\":8467:8471   */\n      0x732e000000000000000000000000000000000000000000000000000000000000\n        /* \"#utility.yul\":8462:8464   */\n      0x20\n        /* \"#utility.yul\":8454:8460   */\n      dup3\n        /* \"#utility.yul\":8450:8465   */\n      add\n        /* \"#utility.yul\":8443:8472   */\n      mstore\n        /* \"#utility.yul\":8258:8479   */\n      pop\n      jump\t// out\n        /* \"#utility.yul\":8485:8851   */\n    tag_327:\n        /* \"#utility.yul\":8627:8630   */\n      0x00\n        /* \"#utility.yul\":8648:8715   */\n      tag_463\n        /* \"#utility.yul\":8712:8714   */\n      0x22\n        /* \"#utility.yul\":8707:8710   */\n      dup4\n        /* \"#utility.yul\":8648:8715   */\n      tag_325\n      jump\t// in\n    tag_463:\n        /* \"#utility.yul\":8641:8715   */\n      swap2\n      pop\n        /* \"#utility.yul\":8724:8817   */\n      tag_464\n        /* \"#utility.yul\":8813:8816   */\n      dup3\n        /* \"#utility.yul\":8724:8817   */\n      tag_326\n      jump\t// in\n    tag_464:\n        /* \"#utility.yul\":8842:8844   */\n      0x40\n        /* \"#utility.yul\":8837:8840   */\n      dup3\n        /* \"#utility.yul\":8833:8845   */\n      add\n        /* \"#utility.yul\":8826:8845   */\n      swap1\n      pop\n        /* \"#utility.yul\":8485:8851   */\n      swap2\n      swap1\n      pop\n      jump\t// out\n        /* \"#utility.yul\":8857:9276   */\n    tag_136:\n        /* \"#utility.yul\":9023:9027   */\n      0x00\n        /* \"#utility.yul\":9061:9063   */\n      0x20\n        /* \"#utility.yul\":9050:9059   */\n      dup3\n        /* \"#utility.yul\":9046:9064   */\n      add\n        /* \"#utility.yul\":9038:9064   */\n      swap1\n      pop\n        /* \"#utility.yul\":9110:9119   */\n      dup2\n        /* \"#utility.yul\":9104:9108   */\n      dup2\n        /* \"#utility.yul\":9100:9120   */\n      sub\n        /* \"#utility.yul\":9096:9097   */\n      0x00\n        /* \"#utility.yul\":9085:9094   */\n      dup4\n        /* \"#utility.yul\":9081:9098   */\n      add\n        /* \"#utility.yul\":9074:9121   */\n      mstore\n        /* \"#utility.yul\":9138:9269   */\n      tag_466\n        /* \"#utility.yul\":9264:9268   */\n      dup2\n        /* \"#utility.yul\":9138:9269   */\n      tag_327\n      jump\t// in\n    tag_466:\n        /* \"#utility.yul\":9130:9269   */\n      swap1\n      pop\n        /* \"#utility.yul\":8857:9276   */\n      swap2\n      swap1\n      pop\n      jump\t// out\n        /* \"#utility.yul\":9282:9510   */\n    tag_328:\n        /* \"#utility.yul\":9422:9456   */\n      0x4163636f756e742069732066726f7a656e2c2063616e6e6f7420776974686472\n        /* \"#utility.yul\":9418:9419   */\n      0x00\n        /* \"#utility.yul\":9410:9416   */\n      dup3\n        /* \"#utility.yul\":9406:9420   */\n      add\n        /* \"#utility.yul\":9399:9457   */\n      mstore\n        /* \"#utility.yul\":9491:9502   */\n      0x61772066756e64732e0000000000000000000000000000000000000000000000\n        /* \"#utility.yul\":9486:9488   */\n      0x20\n        /* \"#utility.yul\":9478:9484   */\n      dup3\n        /* \"#utility.yul\":9474:9489   */\n      add\n        /* \"#utility.yul\":9467:9503   */\n      mstore\n        /* \"#utility.yul\":9282:9510   */\n      pop\n      jump\t// out\n        /* \"#utility.yul\":9516:9882   */\n    tag_329:\n        /* \"#utility.yul\":9658:9661   */\n      0x00\n        /* \"#utility.yul\":9679:9746   */\n      tag_469\n        /* \"#utility.yul\":9743:9745   */\n      0x29\n        /* \"#utility.yul\":9738:9741   */\n      dup4\n        /* \"#utility.yul\":9679:9746   */\n      tag_325\n      jump\t// in\n    tag_469:\n        /* \"#utility.yul\":9672:9746   */\n      swap2\n      pop\n        /* \"#utility.yul\":9755:9848   */\n      tag_470\n        /* \"#utility.yul\":9844:9847   */\n      dup3\n        /* \"#utility.yul\":9755:9848   */\n      tag_328\n      jump\t// in\n    tag_470:\n        /* \"#utility.yul\":9873:9875   */\n      0x40\n        /* \"#utility.yul\":9868:9871   */\n      dup3\n        /* \"#utility.yul\":9864:9876   */\n      add\n        /* \"#utility.yul\":9857:9876   */\n      swap1\n      pop\n        /* \"#utility.yul\":9516:9882   */\n      swap2\n      swap1\n      pop\n      jump\t// out\n        /* \"#utility.yul\":9888:10307   */\n    tag_139:\n        /* \"#utility.yul\":10054:10058   */\n      0x00\n        /* \"#utility.yul\":10092:10094   */\n      0x20\n        /* \"#utility.yul\":10081:10090   */\n      dup3\n        /* \"#utility.yul\":10077:10095   */\n      add\n        /* \"#utility.yul\":10069:10095   */\n      swap1\n      pop\n        /* \"#utility.yul\":10141:10150   */\n      dup2\n        /* \"#utility.yul\":10135:10139   */\n      dup2\n        /* \"#utility.yul\":10131:10151   */\n      sub\n        /* \"#utility.yul\":10127:10128   */\n      0x00\n        /* \"#utility.yul\":10116:10125   */\n      dup4\n        /* \"#utility.yul\":10112:10129   */\n      add\n        /* \"#utility.yul\":10105:10152   */\n      mstore\n        /* \"#utility.yul\":10169:10300   */\n      tag_472\n        /* \"#utility.yul\":10295:10299   */\n      dup2\n        /* \"#utility.yul\":10169:10300   */\n      tag_329\n      jump\t// in\n    tag_472:\n        /* \"#utility.yul\":10161:10300   */\n      swap1\n      pop\n        /* \"#utility.yul\":9888:10307   */\n      swap2\n      swap1\n      pop\n      jump\t// out\n        /* \"#utility.yul\":10313:10482   */\n    tag_330:\n        /* \"#utility.yul\":10453:10474   */\n      0x496e73756666696369656e742066756e64732e00000000000000000000000000\n        /* \"#utility.yul\":10449:10450   */\n      0x00\n        /* \"#utility.yul\":10441:10447   */\n      dup3\n        /* \"#utility.yul\":10437:10451   */\n      add\n        /* \"#utility.yul\":10430:10475   */\n      mstore\n        /* \"#utility.yul\":10313:10482   */\n      pop\n      jump\t// out\n        /* \"#utility.yul\":10488:10854   */\n    tag_331:\n        /* \"#utility.yul\":10630:10633   */\n      0x00\n        /* \"#utility.yul\":10651:10718   */\n      tag_475\n        /* \"#utility.yul\":10715:10717   */\n      0x13\n        /* \"#utility.yul\":10710:10713   */\n      dup4\n        /* \"#utility.yul\":10651:10718   */\n      tag_325\n      jump\t// in\n    tag_475:\n        /* \"#utility.yul\":10644:10718   */\n      swap2\n      pop\n        /* \"#utility.yul\":10727:10820   */\n      tag_476\n        /* \"#utility.yul\":10816:10819   */\n      dup3\n        /* \"#utility.yul\":10727:10820   */\n      tag_330\n      jump\t// in\n    tag_476:\n        /* \"#utility.yul\":10845:10847   */\n      0x20\n        /* \"#utility.yul\":10840:10843   */\n      dup3\n        /* \"#utility.yul\":10836:10848   */\n      add\n        /* \"#utility.yul\":10829:10848   */\n      swap1\n      pop\n        /* \"#utility.yul\":10488:10854   */\n      swap2\n      swap1\n      pop\n      jump\t// out\n        /* \"#utility.yul\":10860:11279   */\n    tag_143:\n        /* \"#utility.yul\":11026:11030   */\n      0x00\n        /* \"#utility.yul\":11064:11066   */\n      0x20\n        /* \"#utility.yul\":11053:11062   */\n      dup3\n        /* \"#utility.yul\":11049:11067   */\n      add\n        /* \"#utility.yul\":11041:11067   */\n      swap1\n      pop\n        /* \"#utility.yul\":11113:11122   */\n      dup2\n        /* \"#utility.yul\":11107:11111   */\n      dup2\n        /* \"#utility.yul\":11103:11123   */\n      sub\n        /* \"#utility.yul\":11099:11100   */\n      0x00\n        /* \"#utility.yul\":11088:11097   */\n      dup4\n        /* \"#utility.yul\":11084:11101   */\n      add\n        /* \"#utility.yul\":11077:11124   */\n      mstore\n        /* \"#utility.yul\":11141:11272   */\n      tag_478\n        /* \"#utility.yul\":11267:11271   */\n      dup2\n        /* \"#utility.yul\":11141:11272   */\n      tag_331\n      jump\t// in\n    tag_478:\n        /* \"#utility.yul\":11133:11272   */\n      swap1\n      pop\n        /* \"#utility.yul\":10860:11279   */\n      swap2\n      swap1\n      pop\n      jump\t// out\n        /* \"#utility.yul\":11285:11509   */\n    tag_332:\n        /* \"#utility.yul\":11425:11459   */\n      0x5468652066756e6374696f6e20697320616c726561647920696e206578656375\n        /* \"#utility.yul\":11421:11422   */\n      0x00\n        /* \"#utility.yul\":11413:11419   */\n      dup3\n        /* \"#utility.yul\":11409:11423   */\n      add\n        /* \"#utility.yul\":11402:11460   */\n      mstore\n        /* \"#utility.yul\":11494:11501   */\n      0x74696f6e2e000000000000000000000000000000000000000000000000000000\n        /* \"#utility.yul\":11489:11491   */\n      0x20\n        /* \"#utility.yul\":11481:11487   */\n      dup3\n        /* \"#utility.yul\":11477:11492   */\n      add\n        /* \"#utility.yul\":11470:11502   */\n      mstore\n        /* \"#utility.yul\":11285:11509   */\n      pop\n      jump\t// out\n        /* \"#utility.yul\":11515:11881   */\n    tag_333:\n        /* \"#utility.yul\":11657:11660   */\n      0x00\n        /* \"#utility.yul\":11678:11745   */\n      tag_481\n        /* \"#utility.yul\":11742:11744   */\n      0x25\n        /* \"#utility.yul\":11737:11740   */\n      dup4\n        /* \"#utility.yul\":11678:11745   */\n      tag_325\n      jump\t// in\n    tag_481:\n        /* \"#utility.yul\":11671:11745   */\n      swap2\n      pop\n        /* \"#utility.yul\":11754:11847   */\n      tag_482\n        /* \"#utility.yul\":11843:11846   */\n      dup3\n        /* \"#utility.yul\":11754:11847   */\n      tag_332\n      jump\t// in\n    tag_482:\n        /* \"#utility.yul\":11872:11874   */\n      0x40\n        /* \"#utility.yul\":11867:11870   */\n      dup3\n        /* \"#utility.yul\":11863:11875   */\n      add\n        /* \"#utility.yul\":11856:11875   */\n      swap1\n      pop\n        /* \"#utility.yul\":11515:11881   */\n      swap2\n      swap1\n      pop\n      jump\t// out\n        /* \"#utility.yul\":11887:12306   */\n    tag_146:\n        /* \"#utility.yul\":12053:12057   */\n      0x00\n        /* \"#utility.yul\":12091:12093   */\n      0x20\n        /* \"#utility.yul\":12080:12089   */\n      dup3\n        /* \"#utility.yul\":12076:12094   */\n      add\n        /* \"#utility.yul\":12068:12094   */\n      swap1\n      pop\n        /* \"#utility.yul\":12140:12149   */\n      dup2\n        /* \"#utility.yul\":12134:12138   */\n      dup2\n        /* \"#utility.yul\":12130:12150   */\n      sub\n        /* \"#utility.yul\":12126:12127   */\n      0x00\n        /* \"#utility.yul\":12115:12124   */\n      dup4\n        /* \"#utility.yul\":12111:12128   */\n      add\n        /* \"#utility.yul\":12104:12151   */\n      mstore\n        /* \"#utility.yul\":12168:12299   */\n      tag_484\n        /* \"#utility.yul\":12294:12298   */\n      dup2\n        /* \"#utility.yul\":12168:12299   */\n      tag_333\n      jump\t// in\n    tag_484:\n        /* \"#utility.yul\":12160:12299   */\n      swap1\n      pop\n        /* \"#utility.yul\":11887:12306   */\n      swap2\n      swap1\n      pop\n      jump\t// out\n        /* \"#utility.yul\":12312:12455   */\n    tag_334:\n        /* \"#utility.yul\":12369:12374   */\n      0x00\n        /* \"#utility.yul\":12400:12406   */\n      dup2\n        /* \"#utility.yul\":12394:12407   */\n      mload\n        /* \"#utility.yul\":12385:12407   */\n      swap1\n      pop\n        /* \"#utility.yul\":12416:12449   */\n      tag_486\n        /* \"#utility.yul\":12443:12448   */\n      dup2\n        /* \"#utility.yul\":12416:12449   */\n      tag_311\n      jump\t// in\n    tag_486:\n        /* \"#utility.yul\":12312:12455   */\n      swap3\n      swap2\n      pop\n      pop\n      jump\t// out\n        /* \"#utility.yul\":12461:12812   */\n    tag_162:\n        /* \"#utility.yul\":12531:12537   */\n      0x00\n        /* \"#utility.yul\":12580:12582   */\n      0x20\n        /* \"#utility.yul\":12568:12577   */\n      dup3\n        /* \"#utility.yul\":12559:12566   */\n      dup5\n        /* \"#utility.yul\":12555:12578   */\n      sub\n        /* \"#utility.yul\":12551:12583   */\n      slt\n        /* \"#utility.yul\":12548:12667   */\n      iszero\n      tag_488\n      jumpi\n        /* \"#utility.yul\":12586:12665   */\n      tag_489\n      tag_301\n      jump\t// in\n    tag_489:\n        /* \"#utility.yul\":12548:12667   */\n    tag_488:\n        /* \"#utility.yul\":12706:12707   */\n      0x00\n        /* \"#utility.yul\":12731:12795   */\n      tag_490\n        /* \"#utility.yul\":12787:12794   */\n      dup5\n        /* \"#utility.yul\":12778:12784   */\n      dup3\n        /* \"#utility.yul\":12767:12776   */\n      dup6\n        /* \"#utility.yul\":12763:12785   */\n      add\n        /* \"#utility.yul\":12731:12795   */\n      tag_334\n      jump\t// in\n    tag_490:\n        /* \"#utility.yul\":12721:12795   */\n      swap2\n      pop\n        /* \"#utility.yul\":12677:12805   */\n      pop\n        /* \"#utility.yul\":12461:12812   */\n      swap3\n      swap2\n      pop\n      pop\n      jump\t// out\n        /* \"#utility.yul\":12818:12952   */\n    tag_335:\n        /* \"#utility.yul\":12876:12885   */\n      0x00\n        /* \"#utility.yul\":12909:12946   */\n      tag_492\n        /* \"#utility.yul\":12940:12945   */\n      dup3\n        /* \"#utility.yul\":12909:12946   */\n      tag_322\n      jump\t// in\n    tag_492:\n        /* \"#utility.yul\":12896:12946   */\n      swap1\n      pop\n        /* \"#utility.yul\":12818:12952   */\n      swap2\n      swap1\n      pop\n      jump\t// out\n        /* \"#utility.yul\":12958:13105   */\n    tag_336:\n        /* \"#utility.yul\":13053:13098   */\n      tag_494\n        /* \"#utility.yul\":13092:13097   */\n      dup2\n        /* \"#utility.yul\":13053:13098   */\n      tag_335\n      jump\t// in\n    tag_494:\n        /* \"#utility.yul\":13048:13051   */\n      dup3\n        /* \"#utility.yul\":13041:13099   */\n      mstore\n        /* \"#utility.yul\":12958:13105   */\n      pop\n      pop\n      jump\t// out\n        /* \"#utility.yul\":13111:13459   */\n    tag_171:\n        /* \"#utility.yul\":13240:13244   */\n      0x00\n        /* \"#utility.yul\":13278:13280   */\n      0x40\n        /* \"#utility.yul\":13267:13276   */\n      dup3\n        /* \"#utility.yul\":13263:13281   */\n      add\n        /* \"#utility.yul\":13255:13281   */\n      swap1\n      pop\n        /* \"#utility.yul\":13291:13370   */\n      tag_496\n        /* \"#utility.yul\":13367:13368   */\n      0x00\n        /* \"#utility.yul\":13356:13365   */\n      dup4\n        /* \"#utility.yul\":13352:13369   */\n      add\n        /* \"#utility.yul\":13343:13349   */\n      dup6\n        /* \"#utility.yul\":13291:13370   */\n      tag_336\n      jump\t// in\n    tag_496:\n        /* \"#utility.yul\":13380:13452   */\n      tag_497\n        /* \"#utility.yul\":13448:13450   */\n      0x20\n        /* \"#utility.yul\":13437:13446   */\n      dup4\n        /* \"#utility.yul\":13433:13451   */\n      add\n        /* \"#utility.yul\":13424:13430   */\n      dup5\n        /* \"#utility.yul\":13380:13452   */\n      tag_317\n      jump\t// in\n    tag_497:\n        /* \"#utility.yul\":13111:13459   */\n      swap4\n      swap3\n      pop\n      pop\n      pop\n      jump\t// out\n        /* \"#utility.yul\":13465:13602   */\n    tag_337:\n        /* \"#utility.yul\":13519:13524   */\n      0x00\n        /* \"#utility.yul\":13550:13556   */\n      dup2\n        /* \"#utility.yul\":13544:13557   */\n      mload\n        /* \"#utility.yul\":13535:13557   */\n      swap1\n      pop\n        /* \"#utility.yul\":13566:13596   */\n      tag_499\n        /* \"#utility.yul\":13590:13595   */\n      dup2\n        /* \"#utility.yul\":13566:13596   */\n      tag_304\n      jump\t// in\n    tag_499:\n        /* \"#utility.yul\":13465:13602   */\n      swap3\n      swap2\n      pop\n      pop\n      jump\t// out\n        /* \"#utility.yul\":13608:13953   */\n    tag_175:\n        /* \"#utility.yul\":13675:13681   */\n      0x00\n        /* \"#utility.yul\":13724:13726   */\n      0x20\n        /* \"#utility.yul\":13712:13721   */\n      dup3\n        /* \"#utility.yul\":13703:13710   */\n      dup5\n        /* \"#utility.yul\":13699:13722   */\n      sub\n        /* \"#utility.yul\":13695:13727   */\n      slt\n        /* \"#utility.yul\":13692:13811   */\n      iszero\n      tag_501\n      jumpi\n        /* \"#utility.yul\":13730:13809   */\n      tag_502\n      tag_301\n      jump\t// in\n    tag_502:\n        /* \"#utility.yul\":13692:13811   */\n    tag_501:\n        /* \"#utility.yul\":13850:13851   */\n      0x00\n        /* \"#utility.yul\":13875:13936   */\n      tag_503\n        /* \"#utility.yul\":13928:13935   */\n      dup5\n        /* \"#utility.yul\":13919:13925   */\n      dup3\n        /* \"#utility.yul\":13908:13917   */\n      dup6\n        /* \"#utility.yul\":13904:13926   */\n      add\n        /* \"#utility.yul\":13875:13936   */\n      tag_337\n      jump\t// in\n    tag_503:\n        /* \"#utility.yul\":13865:13936   */\n      swap2\n      pop\n        /* \"#utility.yul\":13821:13946   */\n      pop\n        /* \"#utility.yul\":13608:13953   */\n      swap3\n      swap2\n      pop\n      pop\n      jump\t// out\n        /* \"#utility.yul\":13959:14182   */\n    tag_338:\n        /* \"#utility.yul\":14099:14133   */\n      0x4f6e6c792074686520686569722063616e20636c61696d20746865206163636f\n        /* \"#utility.yul\":14095:14096   */\n      0x00\n        /* \"#utility.yul\":14087:14093   */\n      dup3\n        /* \"#utility.yul\":14083:14097   */\n      add\n        /* \"#utility.yul\":14076:14134   */\n      mstore\n        /* \"#utility.yul\":14168:14174   */\n      0x756e742e00000000000000000000000000000000000000000000000000000000\n        /* \"#utility.yul\":14163:14165   */\n      0x20\n        /* \"#utility.yul\":14155:14161   */\n      dup3\n        /* \"#utility.yul\":14151:14166   */\n      add\n        /* \"#utility.yul\":14144:14175   */\n      mstore\n        /* \"#utility.yul\":13959:14182   */\n      pop\n      jump\t// out\n        /* \"#utility.yul\":14188:14554   */\n    tag_339:\n        /* \"#utility.yul\":14330:14333   */\n      0x00\n        /* \"#utility.yul\":14351:14418   */\n      tag_506\n        /* \"#utility.yul\":14415:14417   */\n      0x24\n        /* \"#utility.yul\":14410:14413   */\n      dup4\n        /* \"#utility.yul\":14351:14418   */\n      tag_325\n      jump\t// in\n    tag_506:\n        /* \"#utility.yul\":14344:14418   */\n      swap2\n      pop\n        /* \"#utility.yul\":14427:14520   */\n      tag_507\n        /* \"#utility.yul\":14516:14519   */\n      dup3\n        /* \"#utility.yul\":14427:14520   */\n      tag_338\n      jump\t// in\n    tag_507:\n        /* \"#utility.yul\":14545:14547   */\n      0x40\n        /* \"#utility.yul\":14540:14543   */\n      dup3\n        /* \"#utility.yul\":14536:14548   */\n      add\n        /* \"#utility.yul\":14529:14548   */\n      swap1\n      pop\n        /* \"#utility.yul\":14188:14554   */\n      swap2\n      swap1\n      pop\n      jump\t// out\n        /* \"#utility.yul\":14560:14979   */\n    tag_188:\n        /* \"#utility.yul\":14726:14730   */\n      0x00\n        /* \"#utility.yul\":14764:14766   */\n      0x20\n        /* \"#utility.yul\":14753:14762   */\n      dup3\n        /* \"#utility.yul\":14749:14767   */\n      add\n        /* \"#utility.yul\":14741:14767   */\n      swap1\n      pop\n        /* \"#utility.yul\":14813:14822   */\n      dup2\n        /* \"#utility.yul\":14807:14811   */\n      dup2\n        /* \"#utility.yul\":14803:14823   */\n      sub\n        /* \"#utility.yul\":14799:14800   */\n      0x00\n        /* \"#utility.yul\":14788:14797   */\n      dup4\n        /* \"#utility.yul\":14784:14801   */\n      add\n        /* \"#utility.yul\":14777:14824   */\n      mstore\n        /* \"#utility.yul\":14841:14972   */\n      tag_509\n        /* \"#utility.yul\":14967:14971   */\n      dup2\n        /* \"#utility.yul\":14841:14972   */\n      tag_339\n      jump\t// in\n    tag_509:\n        /* \"#utility.yul\":14833:14972   */\n      swap1\n      pop\n        /* \"#utility.yul\":14560:14979   */\n      swap2\n      swap1\n      pop\n      jump\t// out\n        /* \"#utility.yul\":14985:15209   */\n    tag_340:\n        /* \"#utility.yul\":15125:15159   */\n      0x436c61696d2070726f6365737320686173206e6f74206265656e20696e697469\n        /* \"#utility.yul\":15121:15122   */\n      0x00\n        /* \"#utility.yul\":15113:15119   */\n      dup3\n        /* \"#utility.yul\":15109:15123   */\n      add\n        /* \"#utility.yul\":15102:15160   */\n      mstore\n        /* \"#utility.yul\":15194:15201   */\n      0x617465642e000000000000000000000000000000000000000000000000000000\n        /* \"#utility.yul\":15189:15191   */\n      0x20\n        /* \"#utility.yul\":15181:15187   */\n      dup3\n        /* \"#utility.yul\":15177:15192   */\n      add\n        /* \"#utility.yul\":15170:15202   */\n      mstore\n        /* \"#utility.yul\":14985:15209   */\n      pop\n      jump\t// out\n        /* \"#utility.yul\":15215:15581   */\n    tag_341:\n        /* \"#utility.yul\":15357:15360   */\n      0x00\n        /* \"#utility.yul\":15378:15445   */\n      tag_512\n        /* \"#utility.yul\":15442:15444   */\n      0x25\n        /* \"#utility.yul\":15437:15440   */\n      dup4\n        /* \"#utility.yul\":15378:15445   */\n      tag_325\n      jump\t// in\n    tag_512:\n        /* \"#utility.yul\":15371:15445   */\n      swap2\n      pop\n        /* \"#utility.yul\":15454:15547   */\n      tag_513\n        /* \"#utility.yul\":15543:15546   */\n      dup3\n        /* \"#utility.yul\":15454:15547   */\n      tag_340\n      jump\t// in\n    tag_513:\n        /* \"#utility.yul\":15572:15574   */\n      0x40\n        /* \"#utility.yul\":15567:15570   */\n      dup3\n        /* \"#utility.yul\":15563:15575   */\n      add\n        /* \"#utility.yul\":15556:15575   */\n      swap1\n      pop\n        /* \"#utility.yul\":15215:15581   */\n      swap2\n      swap1\n      pop\n      jump\t// out\n        /* \"#utility.yul\":15587:16006   */\n    tag_191:\n        /* \"#utility.yul\":15753:15757   */\n      0x00\n        /* \"#utility.yul\":15791:15793   */\n      0x20\n        /* \"#utility.yul\":15780:15789   */\n      dup3\n        /* \"#utility.yul\":15776:15794   */\n      add\n        /* \"#utility.yul\":15768:15794   */\n      swap1\n      pop\n        /* \"#utility.yul\":15840:15849   */\n      dup2\n        /* \"#utility.yul\":15834:15838   */\n      dup2\n        /* \"#utility.yul\":15830:15850   */\n      sub\n        /* \"#utility.yul\":15826:15827   */\n      0x00\n        /* \"#utility.yul\":15815:15824   */\n      dup4\n        /* \"#utility.yul\":15811:15828   */\n      add\n        /* \"#utility.yul\":15804:15851   */\n      mstore\n        /* \"#utility.yul\":15868:15999   */\n      tag_515\n        /* \"#utility.yul\":15994:15998   */\n      dup2\n        /* \"#utility.yul\":15868:15999   */\n      tag_341\n      jump\t// in\n    tag_515:\n        /* \"#utility.yul\":15860:15999   */\n      swap1\n      pop\n        /* \"#utility.yul\":15587:16006   */\n      swap2\n      swap1\n      pop\n      jump\t// out\n        /* \"#utility.yul\":16012:16192   */\n    tag_342:\n        /* \"#utility.yul\":16060:16137   */\n      0x4e487b7100000000000000000000000000000000000000000000000000000000\n        /* \"#utility.yul\":16057:16058   */\n      0x00\n        /* \"#utility.yul\":16050:16138   */\n      mstore\n        /* \"#utility.yul\":16157:16161   */\n      0x11\n        /* \"#utility.yul\":16154:16155   */\n      0x04\n        /* \"#utility.yul\":16147:16162   */\n      mstore\n        /* \"#utility.yul\":16181:16185   */\n      0x24\n        /* \"#utility.yul\":16178:16179   */\n      0x00\n        /* \"#utility.yul\":16171:16186   */\n      revert\n        /* \"#utility.yul\":16198:16608   */\n    tag_193:\n        /* \"#utility.yul\":16238:16245   */\n      0x00\n        /* \"#utility.yul\":16261:16281   */\n      tag_518\n        /* \"#utility.yul\":16279:16280   */\n      dup3\n        /* \"#utility.yul\":16261:16281   */\n      tag_310\n      jump\t// in\n    tag_518:\n        /* \"#utility.yul\":16256:16281   */\n      swap2\n      pop\n        /* \"#utility.yul\":16295:16315   */\n      tag_519\n        /* \"#utility.yul\":16313:16314   */\n      dup4\n        /* \"#utility.yul\":16295:16315   */\n      tag_310\n      jump\t// in\n    tag_519:\n        /* \"#utility.yul\":16290:16315   */\n      swap3\n      pop\n        /* \"#utility.yul\":16350:16351   */\n      dup3\n        /* \"#utility.yul\":16347:16348   */\n      dup3\n        /* \"#utility.yul\":16343:16352   */\n      mul\n        /* \"#utility.yul\":16372:16402   */\n      tag_520\n        /* \"#utility.yul\":16390:16401   */\n      dup2\n        /* \"#utility.yul\":16372:16402   */\n      tag_310\n      jump\t// in\n    tag_520:\n        /* \"#utility.yul\":16361:16402   */\n      swap2\n      pop\n        /* \"#utility.yul\":16551:16552   */\n      dup3\n        /* \"#utility.yul\":16542:16549   */\n      dup3\n        /* \"#utility.yul\":16538:16553   */\n      div\n        /* \"#utility.yul\":16535:16536   */\n      dup5\n        /* \"#utility.yul\":16532:16554   */\n      eq\n        /* \"#utility.yul\":16512:16513   */\n      dup4\n        /* \"#utility.yul\":16505:16514   */\n      iszero\n        /* \"#utility.yul\":16485:16568   */\n      or\n        /* \"#utility.yul\":16462:16601   */\n      tag_521\n      jumpi\n        /* \"#utility.yul\":16581:16599   */\n      tag_522\n      tag_342\n      jump\t// in\n    tag_522:\n        /* \"#utility.yul\":16462:16601   */\n    tag_521:\n        /* \"#utility.yul\":16246:16608   */\n      pop\n        /* \"#utility.yul\":16198:16608   */\n      swap3\n      swap2\n      pop\n      pop\n      jump\t// out\n        /* \"#utility.yul\":16614:16805   */\n    tag_195:\n        /* \"#utility.yul\":16654:16657   */\n      0x00\n        /* \"#utility.yul\":16673:16693   */\n      tag_524\n        /* \"#utility.yul\":16691:16692   */\n      dup3\n        /* \"#utility.yul\":16673:16693   */\n      tag_310\n      jump\t// in\n    tag_524:\n        /* \"#utility.yul\":16668:16693   */\n      swap2\n      pop\n        /* \"#utility.yul\":16707:16727   */\n      tag_525\n        /* \"#utility.yul\":16725:16726   */\n      dup4\n        /* \"#utility.yul\":16707:16727   */\n      tag_310\n      jump\t// in\n    tag_525:\n        /* \"#utility.yul\":16702:16727   */\n      swap3\n      pop\n        /* \"#utility.yul\":16750:16751   */\n      dup3\n        /* \"#utility.yul\":16747:16748   */\n      dup3\n        /* \"#utility.yul\":16743:16752   */\n      add\n        /* \"#utility.yul\":16736:16752   */\n      swap1\n      pop\n        /* \"#utility.yul\":16771:16774   */\n      dup1\n        /* \"#utility.yul\":16768:16769   */\n      dup3\n        /* \"#utility.yul\":16765:16775   */\n      gt\n        /* \"#utility.yul\":16762:16798   */\n      iszero\n      tag_526\n      jumpi\n        /* \"#utility.yul\":16778:16796   */\n      tag_527\n      tag_342\n      jump\t// in\n    tag_527:\n        /* \"#utility.yul\":16762:16798   */\n    tag_526:\n        /* \"#utility.yul\":16614:16805   */\n      swap3\n      swap2\n      pop\n      pop\n      jump\t// out\n        /* \"#utility.yul\":16811:16989   */\n    tag_343:\n        /* \"#utility.yul\":16951:16981   */\n      0x436c61696d2064656c617920686173206e6f7420657870697265642e00000000\n        /* \"#utility.yul\":16947:16948   */\n      0x00\n        /* \"#utility.yul\":16939:16945   */\n      dup3\n        /* \"#utility.yul\":16935:16949   */\n      add\n        /* \"#utility.yul\":16928:16982   */\n      mstore\n        /* \"#utility.yul\":16811:16989   */\n      pop\n      jump\t// out\n        /* \"#utility.yul\":16995:17361   */\n    tag_344:\n        /* \"#utility.yul\":17137:17140   */\n      0x00\n        /* \"#utility.yul\":17158:17225   */\n      tag_530\n        /* \"#utility.yul\":17222:17224   */\n      0x1c\n        /* \"#utility.yul\":17217:17220   */\n      dup4\n        /* \"#utility.yul\":17158:17225   */\n      tag_325\n      jump\t// in\n    tag_530:\n        /* \"#utility.yul\":17151:17225   */\n      swap2\n      pop\n        /* \"#utility.yul\":17234:17327   */\n      tag_531\n        /* \"#utility.yul\":17323:17326   */\n      dup3\n        /* \"#utility.yul\":17234:17327   */\n      tag_343\n      jump\t// in\n    tag_531:\n        /* \"#utility.yul\":17352:17354   */\n      0x20\n        /* \"#utility.yul\":17347:17350   */\n      dup3\n        /* \"#utility.yul\":17343:17355   */\n      add\n        /* \"#utility.yul\":17336:17355   */\n      swap1\n      pop\n        /* \"#utility.yul\":16995:17361   */\n      swap2\n      swap1\n      pop\n      jump\t// out\n        /* \"#utility.yul\":17367:17786   */\n    tag_198:\n        /* \"#utility.yul\":17533:17537   */\n      0x00\n        /* \"#utility.yul\":17571:17573   */\n      0x20\n        /* \"#utility.yul\":17560:17569   */\n      dup3\n        /* \"#utility.yul\":17556:17574   */\n      add\n        /* \"#utility.yul\":17548:17574   */\n      swap1\n      pop\n        /* \"#utility.yul\":17620:17629   */\n      dup2\n        /* \"#utility.yul\":17614:17618   */\n      dup2\n        /* \"#utility.yul\":17610:17630   */\n      sub\n        /* \"#utility.yul\":17606:17607   */\n      0x00\n        /* \"#utility.yul\":17595:17604   */\n      dup4\n        /* \"#utility.yul\":17591:17608   */\n      add\n        /* \"#utility.yul\":17584:17631   */\n      mstore\n        /* \"#utility.yul\":17648:17779   */\n      tag_533\n        /* \"#utility.yul\":17774:17778   */\n      dup2\n        /* \"#utility.yul\":17648:17779   */\n      tag_344\n      jump\t// in\n    tag_533:\n        /* \"#utility.yul\":17640:17779   */\n      swap1\n      pop\n        /* \"#utility.yul\":17367:17786   */\n      swap2\n      swap1\n      pop\n      jump\t// out\n        /* \"#utility.yul\":17792:18019   */\n    tag_345:\n        /* \"#utility.yul\":17932:17966   */\n      0x4f6e6c7920746865206f776e65722063616e20756e667265657a652074686520\n        /* \"#utility.yul\":17928:17929   */\n      0x00\n        /* \"#utility.yul\":17920:17926   */\n      dup3\n        /* \"#utility.yul\":17916:17930   */\n      add\n        /* \"#utility.yul\":17909:17967   */\n      mstore\n        /* \"#utility.yul\":18001:18011   */\n      0x6163636f756e742e000000000000000000000000000000000000000000000000\n        /* \"#utility.yul\":17996:17998   */\n      0x20\n        /* \"#utility.yul\":17988:17994   */\n      dup3\n        /* \"#utility.yul\":17984:17999   */\n      add\n        /* \"#utility.yul\":17977:18012   */\n      mstore\n        /* \"#utility.yul\":17792:18019   */\n      pop\n      jump\t// out\n        /* \"#utility.yul\":18025:18391   */\n    tag_346:\n        /* \"#utility.yul\":18167:18170   */\n      0x00\n        /* \"#utility.yul\":18188:18255   */\n      tag_536\n        /* \"#utility.yul\":18252:18254   */\n      0x28\n        /* \"#utility.yul\":18247:18250   */\n      dup4\n        /* \"#utility.yul\":18188:18255   */\n      tag_325\n      jump\t// in\n    tag_536:\n        /* \"#utility.yul\":18181:18255   */\n      swap2\n      pop\n        /* \"#utility.yul\":18264:18357   */\n      tag_537\n        /* \"#utility.yul\":18353:18356   */\n      dup3\n        /* \"#utility.yul\":18264:18357   */\n      tag_345\n      jump\t// in\n    tag_537:\n        /* \"#utility.yul\":18382:18384   */\n      0x40\n        /* \"#utility.yul\":18377:18380   */\n      dup3\n        /* \"#utility.yul\":18373:18385   */\n      add\n        /* \"#utility.yul\":18366:18385   */\n      swap1\n      pop\n        /* \"#utility.yul\":18025:18391   */\n      swap2\n      swap1\n      pop\n      jump\t// out\n        /* \"#utility.yul\":18397:18816   */\n    tag_203:\n        /* \"#utility.yul\":18563:18567   */\n      0x00\n        /* \"#utility.yul\":18601:18603   */\n      0x20\n        /* \"#utility.yul\":18590:18599   */\n      dup3\n        /* \"#utility.yul\":18586:18604   */\n      add\n        /* \"#utility.yul\":18578:18604   */\n      swap1\n      pop\n        /* \"#utility.yul\":18650:18659   */\n      dup2\n        /* \"#utility.yul\":18644:18648   */\n      dup2\n        /* \"#utility.yul\":18640:18660   */\n      sub\n        /* \"#utility.yul\":18636:18637   */\n      0x00\n        /* \"#utility.yul\":18625:18634   */\n      dup4\n        /* \"#utility.yul\":18621:18638   */\n      add\n        /* \"#utility.yul\":18614:18661   */\n      mstore\n        /* \"#utility.yul\":18678:18809   */\n      tag_539\n        /* \"#utility.yul\":18804:18808   */\n      dup2\n        /* \"#utility.yul\":18678:18809   */\n      tag_346\n      jump\t// in\n    tag_539:\n        /* \"#utility.yul\":18670:18809   */\n      swap1\n      pop\n        /* \"#utility.yul\":18397:18816   */\n      swap2\n      swap1\n      pop\n      jump\t// out\n        /* \"#utility.yul\":18822:19004   */\n    tag_347:\n        /* \"#utility.yul\":18962:18996   */\n      0x4f6e6c7920746865206f776e65722063616e207365742074686520686569722e\n        /* \"#utility.yul\":18958:18959   */\n      0x00\n        /* \"#utility.yul\":18950:18956   */\n      dup3\n        /* \"#utility.yul\":18946:18960   */\n      add\n        /* \"#utility.yul\":18939:18997   */\n      mstore\n        /* \"#utility.yul\":18822:19004   */\n      pop\n      jump\t// out\n        /* \"#utility.yul\":19010:19376   */\n    tag_348:\n        /* \"#utility.yul\":19152:19155   */\n      0x00\n        /* \"#utility.yul\":19173:19240   */\n      tag_542\n        /* \"#utility.yul\":19237:19239   */\n      0x20\n        /* \"#utility.yul\":19232:19235   */\n      dup4\n        /* \"#utility.yul\":19173:19240   */\n      tag_325\n      jump\t// in\n    tag_542:\n        /* \"#utility.yul\":19166:19240   */\n      swap2\n      pop\n        /* \"#utility.yul\":19249:19342   */\n      tag_543\n        /* \"#utility.yul\":19338:19341   */\n      dup3\n        /* \"#utility.yul\":19249:19342   */\n      tag_347\n      jump\t// in\n    tag_543:\n        /* \"#utility.yul\":19367:19369   */\n      0x20\n        /* \"#utility.yul\":19362:19365   */\n      dup3\n        /* \"#utility.yul\":19358:19370   */\n      add\n        /* \"#utility.yul\":19351:19370   */\n      swap1\n      pop\n        /* \"#utility.yul\":19010:19376   */\n      swap2\n      swap1\n      pop\n      jump\t// out\n        /* \"#utility.yul\":19382:19801   */\n    tag_209:\n        /* \"#utility.yul\":19548:19552   */\n      0x00\n        /* \"#utility.yul\":19586:19588   */\n      0x20\n        /* \"#utility.yul\":19575:19584   */\n      dup3\n        /* \"#utility.yul\":19571:19589   */\n      add\n        /* \"#utility.yul\":19563:19589   */\n      swap1\n      pop\n        /* \"#utility.yul\":19635:19644   */\n      dup2\n        /* \"#utility.yul\":19629:19633   */\n      dup2\n        /* \"#utility.yul\":19625:19645   */\n      sub\n        /* \"#utility.yul\":19621:19622   */\n      0x00\n        /* \"#utility.yul\":19610:19619   */\n      dup4\n        /* \"#utility.yul\":19606:19623   */\n      add\n        /* \"#utility.yul\":19599:19646   */\n      mstore\n        /* \"#utility.yul\":19663:19794   */\n      tag_545\n        /* \"#utility.yul\":19789:19793   */\n      dup2\n        /* \"#utility.yul\":19663:19794   */\n      tag_348\n      jump\t// in\n    tag_545:\n        /* \"#utility.yul\":19655:19794   */\n      swap1\n      pop\n        /* \"#utility.yul\":19382:19801   */\n      swap2\n      swap1\n      pop\n      jump\t// out\n        /* \"#utility.yul\":19807:20028   */\n    tag_349:\n        /* \"#utility.yul\":19947:19981   */\n      0x4f6e6c7920746865206f776e65722063616e2077697468647261772066756e64\n        /* \"#utility.yul\":19943:19944   */\n      0x00\n        /* \"#utility.yul\":19935:19941   */\n      dup3\n        /* \"#utility.yul\":19931:19945   */\n      add\n        /* \"#utility.yul\":19924:19982   */\n      mstore\n        /* \"#utility.yul\":20016:20020   */\n      0x732e000000000000000000000000000000000000000000000000000000000000\n        /* \"#utility.yul\":20011:20013   */\n      0x20\n        /* \"#utility.yul\":20003:20009   */\n      dup3\n        /* \"#utility.yul\":19999:20014   */\n      add\n        /* \"#utility.yul\":19992:20021   */\n      mstore\n        /* \"#utility.yul\":19807:20028   */\n      pop\n      jump\t// out\n        /* \"#utility.yul\":20034:20400   */\n    tag_350:\n        /* \"#utility.yul\":20176:20179   */\n      0x00\n        /* \"#utility.yul\":20197:20264   */\n      tag_548\n        /* \"#utility.yul\":20261:20263   */\n      0x22\n        /* \"#utility.yul\":20256:20259   */\n      dup4\n        /* \"#utility.yul\":20197:20264   */\n      tag_325\n      jump\t// in\n    tag_548:\n        /* \"#utility.yul\":20190:20264   */\n      swap2\n      pop\n        /* \"#utility.yul\":20273:20366   */\n      tag_549\n        /* \"#utility.yul\":20362:20365   */\n      dup3\n        /* \"#utility.yul\":20273:20366   */\n      tag_349\n      jump\t// in\n    tag_549:\n        /* \"#utility.yul\":20391:20393   */\n      0x40\n        /* \"#utility.yul\":20386:20389   */\n      dup3\n        /* \"#utility.yul\":20382:20394   */\n      add\n        /* \"#utility.yul\":20375:20394   */\n      swap1\n      pop\n        /* \"#utility.yul\":20034:20400   */\n      swap2\n      swap1\n      pop\n      jump\t// out\n        /* \"#utility.yul\":20406:20825   */\n    tag_215:\n        /* \"#utility.yul\":20572:20576   */\n      0x00\n        /* \"#utility.yul\":20610:20612   */\n      0x20\n        /* \"#utility.yul\":20599:20608   */\n      dup3\n        /* \"#utility.yul\":20595:20613   */\n      add\n        /* \"#utility.yul\":20587:20613   */\n      swap1\n      pop\n        /* \"#utility.yul\":20659:20668   */\n      dup2\n        /* \"#utility.yul\":20653:20657   */\n      dup2\n        /* \"#utility.yul\":20649:20669   */\n      sub\n        /* \"#utility.yul\":20645:20646   */\n      0x00\n        /* \"#utility.yul\":20634:20643   */\n      dup4\n        /* \"#utility.yul\":20630:20647   */\n      add\n        /* \"#utility.yul\":20623:20670   */\n      mstore\n        /* \"#utility.yul\":20687:20818   */\n      tag_551\n        /* \"#utility.yul\":20813:20817   */\n      dup2\n        /* \"#utility.yul\":20687:20818   */\n      tag_350\n      jump\t// in\n    tag_551:\n        /* \"#utility.yul\":20679:20818   */\n      swap1\n      pop\n        /* \"#utility.yul\":20406:20825   */\n      swap2\n      swap1\n      pop\n      jump\t// out\n        /* \"#utility.yul\":20831:21012   */\n    tag_351:\n        /* \"#utility.yul\":20971:21004   */\n      0x546865726520617265206e6f2066756e647320746f2077697468647261772e00\n        /* \"#utility.yul\":20967:20968   */\n      0x00\n        /* \"#utility.yul\":20959:20965   */\n      dup3\n        /* \"#utility.yul\":20955:20969   */\n      add\n        /* \"#utility.yul\":20948:21005   */\n      mstore\n        /* \"#utility.yul\":20831:21012   */\n      pop\n      jump\t// out\n        /* \"#utility.yul\":21018:21384   */\n    tag_352:\n        /* \"#utility.yul\":21160:21163   */\n      0x00\n        /* \"#utility.yul\":21181:21248   */\n      tag_554\n        /* \"#utility.yul\":21245:21247   */\n      0x1f\n        /* \"#utility.yul\":21240:21243   */\n      dup4\n        /* \"#utility.yul\":21181:21248   */\n      tag_325\n      jump\t// in\n    tag_554:\n        /* \"#utility.yul\":21174:21248   */\n      swap2\n      pop\n        /* \"#utility.yul\":21257:21350   */\n      tag_555\n        /* \"#utility.yul\":21346:21349   */\n      dup3\n        /* \"#utility.yul\":21257:21350   */\n      tag_351\n      jump\t// in\n    tag_555:\n        /* \"#utility.yul\":21375:21377   */\n      0x20\n        /* \"#utility.yul\":21370:21373   */\n      dup3\n        /* \"#utility.yul\":21366:21378   */\n      add\n        /* \"#utility.yul\":21359:21378   */\n      swap1\n      pop\n        /* \"#utility.yul\":21018:21384   */\n      swap2\n      swap1\n      pop\n      jump\t// out\n        /* \"#utility.yul\":21390:21809   */\n    tag_221:\n        /* \"#utility.yul\":21556:21560   */\n      0x00\n        /* \"#utility.yul\":21594:21596   */\n      0x20\n        /* \"#utility.yul\":21583:21592   */\n      dup3\n        /* \"#utility.yul\":21579:21597   */\n      add\n        /* \"#utility.yul\":21571:21597   */\n      swap1\n      pop\n        /* \"#utility.yul\":21643:21652   */\n      dup2\n        /* \"#utility.yul\":21637:21641   */\n      dup2\n        /* \"#utility.yul\":21633:21653   */\n      sub\n        /* \"#utility.yul\":21629:21630   */\n      0x00\n        /* \"#utility.yul\":21618:21627   */\n      dup4\n        /* \"#utility.yul\":21614:21631   */\n      add\n        /* \"#utility.yul\":21607:21654   */\n      mstore\n        /* \"#utility.yul\":21671:21802   */\n      tag_557\n        /* \"#utility.yul\":21797:21801   */\n      dup2\n        /* \"#utility.yul\":21671:21802   */\n      tag_352\n      jump\t// in\n    tag_557:\n        /* \"#utility.yul\":21663:21802   */\n      swap1\n      pop\n        /* \"#utility.yul\":21390:21809   */\n      swap2\n      swap1\n      pop\n      jump\t// out\n        /* \"#utility.yul\":21815:22040   */\n    tag_353:\n        /* \"#utility.yul\":21955:21989   */\n      0x4f6e6c7920746865206f776e65722063616e20667265657a6520746865206163\n        /* \"#utility.yul\":21951:21952   */\n      0x00\n        /* \"#utility.yul\":21943:21949   */\n      dup3\n        /* \"#utility.yul\":21939:21953   */\n      add\n        /* \"#utility.yul\":21932:21990   */\n      mstore\n        /* \"#utility.yul\":22024:22032   */\n      0x636f756e742e0000000000000000000000000000000000000000000000000000\n        /* \"#utility.yul\":22019:22021   */\n      0x20\n        /* \"#utility.yul\":22011:22017   */\n      dup3\n        /* \"#utility.yul\":22007:22022   */\n      add\n        /* \"#utility.yul\":22000:22033   */\n      mstore\n        /* \"#utility.yul\":21815:22040   */\n      pop\n      jump\t// out\n        /* \"#utility.yul\":22046:22412   */\n    tag_354:\n        /* \"#utility.yul\":22188:22191   */\n      0x00\n        /* \"#utility.yul\":22209:22276   */\n      tag_560\n        /* \"#utility.yul\":22273:22275   */\n      0x26\n        /* \"#utility.yul\":22268:22271   */\n      dup4\n        /* \"#utility.yul\":22209:22276   */\n      tag_325\n      jump\t// in\n    tag_560:\n        /* \"#utility.yul\":22202:22276   */\n      swap2\n      pop\n        /* \"#utility.yul\":22285:22378   */\n      tag_561\n        /* \"#utility.yul\":22374:22377   */\n      dup3\n        /* \"#utility.yul\":22285:22378   */\n      tag_353\n      jump\t// in\n    tag_561:\n        /* \"#utility.yul\":22403:22405   */\n      0x40\n        /* \"#utility.yul\":22398:22401   */\n      dup3\n        /* \"#utility.yul\":22394:22406   */\n      add\n        /* \"#utility.yul\":22387:22406   */\n      swap1\n      pop\n        /* \"#utility.yul\":22046:22412   */\n      swap2\n      swap1\n      pop\n      jump\t// out\n        /* \"#utility.yul\":22418:22837   */\n    tag_260:\n        /* \"#utility.yul\":22584:22588   */\n      0x00\n        /* \"#utility.yul\":22622:22624   */\n      0x20\n        /* \"#utility.yul\":22611:22620   */\n      dup3\n        /* \"#utility.yul\":22607:22625   */\n      add\n        /* \"#utility.yul\":22599:22625   */\n      swap1\n      pop\n        /* \"#utility.yul\":22671:22680   */\n      dup2\n        /* \"#utility.yul\":22665:22669   */\n      dup2\n        /* \"#utility.yul\":22661:22681   */\n      sub\n        /* \"#utility.yul\":22657:22658   */\n      0x00\n        /* \"#utility.yul\":22646:22655   */\n      dup4\n        /* \"#utility.yul\":22642:22659   */\n      add\n        /* \"#utility.yul\":22635:22682   */\n      mstore\n        /* \"#utility.yul\":22699:22830   */\n      tag_563\n        /* \"#utility.yul\":22825:22829   */\n      dup2\n        /* \"#utility.yul\":22699:22830   */\n      tag_354\n      jump\t// in\n    tag_563:\n        /* \"#utility.yul\":22691:22830   */\n      swap1\n      pop\n        /* \"#utility.yul\":22418:22837   */\n      swap2\n      swap1\n      pop\n      jump\t// out\n        /* \"#utility.yul\":22843:23018   */\n    tag_355:\n        /* \"#utility.yul\":22983:23010   */\n      0x43616e6e6f74206465706f7369742030206f72206c6573732e00000000000000\n        /* \"#utility.yul\":22979:22980   */\n      0x00\n        /* \"#utility.yul\":22971:22977   */\n      dup3\n        /* \"#utility.yul\":22967:22981   */\n      add\n        /* \"#utility.yul\":22960:23011   */\n      mstore\n        /* \"#utility.yul\":22843:23018   */\n      pop\n      jump\t// out\n        /* \"#utility.yul\":23024:23390   */\n    tag_356:\n        /* \"#utility.yul\":23166:23169   */\n      0x00\n        /* \"#utility.yul\":23187:23254   */\n      tag_566\n        /* \"#utility.yul\":23251:23253   */\n      0x19\n        /* \"#utility.yul\":23246:23249   */\n      dup4\n        /* \"#utility.yul\":23187:23254   */\n      tag_325\n      jump\t// in\n    tag_566:\n        /* \"#utility.yul\":23180:23254   */\n      swap2\n      pop\n        /* \"#utility.yul\":23263:23356   */\n      tag_567\n        /* \"#utility.yul\":23352:23355   */\n      dup3\n        /* \"#utility.yul\":23263:23356   */\n      tag_355\n      jump\t// in\n    tag_567:\n        /* \"#utility.yul\":23381:23383   */\n      0x20\n        /* \"#utility.yul\":23376:23379   */\n      dup3\n        /* \"#utility.yul\":23372:23384   */\n      add\n        /* \"#utility.yul\":23365:23384   */\n      swap1\n      pop\n        /* \"#utility.yul\":23024:23390   */\n      swap2\n      swap1\n      pop\n      jump\t// out\n        /* \"#utility.yul\":23396:23815   */\n    tag_266:\n        /* \"#utility.yul\":23562:23566   */\n      0x00\n        /* \"#utility.yul\":23600:23602   */\n      0x20\n        /* \"#utility.yul\":23589:23598   */\n      dup3\n        /* \"#utility.yul\":23585:23603   */\n      add\n        /* \"#utility.yul\":23577:23603   */\n      swap1\n      pop\n        /* \"#utility.yul\":23649:23658   */\n      dup2\n        /* \"#utility.yul\":23643:23647   */\n      dup2\n        /* \"#utility.yul\":23639:23659   */\n      sub\n        /* \"#utility.yul\":23635:23636   */\n      0x00\n        /* \"#utility.yul\":23624:23633   */\n      dup4\n        /* \"#utility.yul\":23620:23637   */\n      add\n        /* \"#utility.yul\":23613:23660   */\n      mstore\n        /* \"#utility.yul\":23677:23808   */\n      tag_569\n        /* \"#utility.yul\":23803:23807   */\n      dup2\n        /* \"#utility.yul\":23677:23808   */\n      tag_356\n      jump\t// in\n    tag_569:\n        /* \"#utility.yul\":23669:23808   */\n      swap1\n      pop\n        /* \"#utility.yul\":23396:23815   */\n      swap2\n      swap1\n      pop\n      jump\t// out\n        /* \"#utility.yul\":23821:24153   */\n    tag_272:\n        /* \"#utility.yul\":23942:23946   */\n      0x00\n        /* \"#utility.yul\":23980:23982   */\n      0x40\n        /* \"#utility.yul\":23969:23978   */\n      dup3\n        /* \"#utility.yul\":23965:23983   */\n      add\n        /* \"#utility.yul\":23957:23983   */\n      swap1\n      pop\n        /* \"#utility.yul\":23993:24064   */\n      tag_571\n        /* \"#utility.yul\":24061:24062   */\n      0x00\n        /* \"#utility.yul\":24050:24059   */\n      dup4\n        /* \"#utility.yul\":24046:24063   */\n      add\n        /* \"#utility.yul\":24037:24043   */\n      dup6\n        /* \"#utility.yul\":23993:24064   */\n      tag_318\n      jump\t// in\n    tag_571:\n        /* \"#utility.yul\":24074:24146   */\n      tag_572\n        /* \"#utility.yul\":24142:24144   */\n      0x20\n        /* \"#utility.yul\":24131:24140   */\n      dup4\n        /* \"#utility.yul\":24127:24145   */\n      add\n        /* \"#utility.yul\":24118:24124   */\n      dup5\n        /* \"#utility.yul\":24074:24146   */\n      tag_317\n      jump\t// in\n    tag_572:\n        /* \"#utility.yul\":23821:24153   */\n      swap4\n      swap3\n      pop\n      pop\n      pop\n      jump\t// out\n        /* \"#utility.yul\":24159:24341   */\n    tag_357:\n        /* \"#utility.yul\":24299:24333   */\n      0x4f6e6c7920746865206f776e65722063616e2073746f70206120636c61696d2e\n        /* \"#utility.yul\":24295:24296   */\n      0x00\n        /* \"#utility.yul\":24287:24293   */\n      dup3\n        /* \"#utility.yul\":24283:24297   */\n      add\n        /* \"#utility.yul\":24276:24334   */\n      mstore\n        /* \"#utility.yul\":24159:24341   */\n      pop\n      jump\t// out\n        /* \"#utility.yul\":24347:24713   */\n    tag_358:\n        /* \"#utility.yul\":24489:24492   */\n      0x00\n        /* \"#utility.yul\":24510:24577   */\n      tag_575\n        /* \"#utility.yul\":24574:24576   */\n      0x20\n        /* \"#utility.yul\":24569:24572   */\n      dup4\n        /* \"#utility.yul\":24510:24577   */\n      tag_325\n      jump\t// in\n    tag_575:\n        /* \"#utility.yul\":24503:24577   */\n      swap2\n      pop\n        /* \"#utility.yul\":24586:24679   */\n      tag_576\n        /* \"#utility.yul\":24675:24678   */\n      dup3\n        /* \"#utility.yul\":24586:24679   */\n      tag_357\n      jump\t// in\n    tag_576:\n        /* \"#utility.yul\":24704:24706   */\n      0x20\n        /* \"#utility.yul\":24699:24702   */\n      dup3\n        /* \"#utility.yul\":24695:24707   */\n      add\n        /* \"#utility.yul\":24688:24707   */\n      swap1\n      pop\n        /* \"#utility.yul\":24347:24713   */\n      swap2\n      swap1\n      pop\n      jump\t// out\n        /* \"#utility.yul\":24719:25138   */\n    tag_279:\n        /* \"#utility.yul\":24885:24889   */\n      0x00\n        /* \"#utility.yul\":24923:24925   */\n      0x20\n        /* \"#utility.yul\":24912:24921   */\n      dup3\n        /* \"#utility.yul\":24908:24926   */\n      add\n        /* \"#utility.yul\":24900:24926   */\n      swap1\n      pop\n        /* \"#utility.yul\":24972:24981   */\n      dup2\n        /* \"#utility.yul\":24966:24970   */\n      dup2\n        /* \"#utility.yul\":24962:24982   */\n      sub\n        /* \"#utility.yul\":24958:24959   */\n      0x00\n        /* \"#utility.yul\":24947:24956   */\n      dup4\n        /* \"#utility.yul\":24943:24960   */\n      add\n        /* \"#utility.yul\":24936:24983   */\n      mstore\n        /* \"#utility.yul\":25000:25131   */\n      tag_578\n        /* \"#utility.yul\":25126:25130   */\n      dup2\n        /* \"#utility.yul\":25000:25131   */\n      tag_358\n      jump\t// in\n    tag_578:\n        /* \"#utility.yul\":24992:25131   */\n      swap1\n      pop\n        /* \"#utility.yul\":24719:25138   */\n      swap2\n      swap1\n      pop\n      jump\t// out\n        /* \"#utility.yul\":25144:25364   */\n    tag_359:\n        /* \"#utility.yul\":25284:25318   */\n      0x5468657265206973206e6f2061637469766520636c61696d20746f2073746f70\n        /* \"#utility.yul\":25280:25281   */\n      0x00\n        /* \"#utility.yul\":25272:25278   */\n      dup3\n        /* \"#utility.yul\":25268:25282   */\n      add\n        /* \"#utility.yul\":25261:25319   */\n      mstore\n        /* \"#utility.yul\":25353:25356   */\n      0x2e00000000000000000000000000000000000000000000000000000000000000\n        /* \"#utility.yul\":25348:25350   */\n      0x20\n        /* \"#utility.yul\":25340:25346   */\n      dup3\n        /* \"#utility.yul\":25336:25351   */\n      add\n        /* \"#utility.yul\":25329:25357   */\n      mstore\n        /* \"#utility.yul\":25144:25364   */\n      pop\n      jump\t// out\n        /* \"#utility.yul\":25370:25736   */\n    tag_360:\n        /* \"#utility.yul\":25512:25515   */\n      0x00\n        /* \"#utility.yul\":25533:25600   */\n      tag_581\n        /* \"#utility.yul\":25597:25599   */\n      0x21\n        /* \"#utility.yul\":25592:25595   */\n      dup4\n        /* \"#utility.yul\":25533:25600   */\n      tag_325\n      jump\t// in\n    tag_581:\n        /* \"#utility.yul\":25526:25600   */\n      swap2\n      pop\n        /* \"#utility.yul\":25609:25702   */\n      tag_582\n        /* \"#utility.yul\":25698:25701   */\n      dup3\n        /* \"#utility.yul\":25609:25702   */\n      tag_359\n      jump\t// in\n    tag_582:\n        /* \"#utility.yul\":25727:25729   */\n      0x40\n        /* \"#utility.yul\":25722:25725   */\n      dup3\n        /* \"#utility.yul\":25718:25730   */\n      add\n        /* \"#utility.yul\":25711:25730   */\n      swap1\n      pop\n        /* \"#utility.yul\":25370:25736   */\n      swap2\n      swap1\n      pop\n      jump\t// out\n        /* \"#utility.yul\":25742:26161   */\n    tag_282:\n        /* \"#utility.yul\":25908:25912   */\n      0x00\n        /* \"#utility.yul\":25946:25948   */\n      0x20\n        /* \"#utility.yul\":25935:25944   */\n      dup3\n        /* \"#utility.yul\":25931:25949   */\n      add\n        /* \"#utility.yul\":25923:25949   */\n      swap1\n      pop\n        /* \"#utility.yul\":25995:26004   */\n      dup2\n        /* \"#utility.yul\":25989:25993   */\n      dup2\n        /* \"#utility.yul\":25985:26005   */\n      sub\n        /* \"#utility.yul\":25981:25982   */\n      0x00\n        /* \"#utility.yul\":25970:25979   */\n      dup4\n        /* \"#utility.yul\":25966:25983   */\n      add\n        /* \"#utility.yul\":25959:26006   */\n      mstore\n        /* \"#utility.yul\":26023:26154   */\n      tag_584\n        /* \"#utility.yul\":26149:26153   */\n      dup2\n        /* \"#utility.yul\":26023:26154   */\n      tag_360\n      jump\t// in\n    tag_584:\n        /* \"#utility.yul\":26015:26154   */\n      swap1\n      pop\n        /* \"#utility.yul\":25742:26161   */\n      swap2\n      swap1\n      pop\n      jump\t// out\n        /* \"#utility.yul\":26167:26399   */\n    tag_361:\n        /* \"#utility.yul\":26307:26341   */\n      0x4f6e6c792074686520686569722063616e20696e697469617465207468652063\n        /* \"#utility.yul\":26303:26304   */\n      0x00\n        /* \"#utility.yul\":26295:26301   */\n      dup3\n        /* \"#utility.yul\":26291:26305   */\n      add\n        /* \"#utility.yul\":26284:26342   */\n      mstore\n        /* \"#utility.yul\":26376:26391   */\n      0x6c61696d2070726f636573732e00000000000000000000000000000000000000\n        /* \"#utility.yul\":26371:26373   */\n      0x20\n        /* \"#utility.yul\":26363:26369   */\n      dup3\n        /* \"#utility.yul\":26359:26374   */\n      add\n        /* \"#utility.yul\":26352:26392   */\n      mstore\n        /* \"#utility.yul\":26167:26399   */\n      pop\n      jump\t// out\n        /* \"#utility.yul\":26405:26771   */\n    tag_362:\n        /* \"#utility.yul\":26547:26550   */\n      0x00\n        /* \"#utility.yul\":26568:26635   */\n      tag_587\n        /* \"#utility.yul\":26632:26634   */\n      0x2d\n        /* \"#utility.yul\":26627:26630   */\n      dup4\n        /* \"#utility.yul\":26568:26635   */\n      tag_325\n      jump\t// in\n    tag_587:\n        /* \"#utility.yul\":26561:26635   */\n      swap2\n      pop\n        /* \"#utility.yul\":26644:26737   */\n      tag_588\n        /* \"#utility.yul\":26733:26736   */\n      dup3\n        /* \"#utility.yul\":26644:26737   */\n      tag_361\n      jump\t// in\n    tag_588:\n        /* \"#utility.yul\":26762:26764   */\n      0x40\n        /* \"#utility.yul\":26757:26760   */\n      dup3\n        /* \"#utility.yul\":26753:26765   */\n      add\n        /* \"#utility.yul\":26746:26765   */\n      swap1\n      pop\n        /* \"#utility.yul\":26405:26771   */\n      swap2\n      swap1\n      pop\n      jump\t// out\n        /* \"#utility.yul\":26777:27196   */\n    tag_286:\n        /* \"#utility.yul\":26943:26947   */\n      0x00\n        /* \"#utility.yul\":26981:26983   */\n      0x20\n        /* \"#utility.yul\":26970:26979   */\n      dup3\n        /* \"#utility.yul\":26966:26984   */\n      add\n        /* \"#utility.yul\":26958:26984   */\n      swap1\n      pop\n        /* \"#utility.yul\":27030:27039   */\n      dup2\n        /* \"#utility.yul\":27024:27028   */\n      dup2\n        /* \"#utility.yul\":27020:27040   */\n      sub\n        /* \"#utility.yul\":27016:27017   */\n      0x00\n        /* \"#utility.yul\":27005:27014   */\n      dup4\n        /* \"#utility.yul\":27001:27018   */\n      add\n        /* \"#utility.yul\":26994:27041   */\n      mstore\n        /* \"#utility.yul\":27058:27189   */\n      tag_590\n        /* \"#utility.yul\":27184:27188   */\n      dup2\n        /* \"#utility.yul\":27058:27189   */\n      tag_362\n      jump\t// in\n    tag_590:\n        /* \"#utility.yul\":27050:27189   */\n      swap1\n      pop\n        /* \"#utility.yul\":26777:27196   */\n      swap2\n      swap1\n      pop\n      jump\t// out\n        /* \"#utility.yul\":27202:27426   */\n    tag_363:\n        /* \"#utility.yul\":27342:27376   */\n      0x436c61696d2070726f6365737320697320616c726561647920696e2070726f67\n        /* \"#utility.yul\":27338:27339   */\n      0x00\n        /* \"#utility.yul\":27330:27336   */\n      dup3\n        /* \"#utility.yul\":27326:27340   */\n      add\n        /* \"#utility.yul\":27319:27377   */\n      mstore\n        /* \"#utility.yul\":27411:27418   */\n      0x726573732e000000000000000000000000000000000000000000000000000000\n        /* \"#utility.yul\":27406:27408   */\n      0x20\n        /* \"#utility.yul\":27398:27404   */\n      dup3\n        /* \"#utility.yul\":27394:27409   */\n      add\n        /* \"#utility.yul\":27387:27419   */\n      mstore\n        /* \"#utility.yul\":27202:27426   */\n      pop\n      jump\t// out\n        /* \"#utility.yul\":27432:27798   */\n    tag_364:\n        /* \"#utility.yul\":27574:27577   */\n      0x00\n        /* \"#utility.yul\":27595:27662   */\n      tag_593\n        /* \"#utility.yul\":27659:27661   */\n      0x25\n        /* \"#utility.yul\":27654:27657   */\n      dup4\n        /* \"#utility.yul\":27595:27662   */\n      tag_325\n      jump\t// in\n    tag_593:\n        /* \"#utility.yul\":27588:27662   */\n      swap2\n      pop\n        /* \"#utility.yul\":27671:27764   */\n      tag_594\n        /* \"#utility.yul\":27760:27763   */\n      dup3\n        /* \"#utility.yul\":27671:27764   */\n      tag_363\n      jump\t// in\n    tag_594:\n        /* \"#utility.yul\":27789:27791   */\n      0x40\n        /* \"#utility.yul\":27784:27787   */\n      dup3\n        /* \"#utility.yul\":27780:27792   */\n      add\n        /* \"#utility.yul\":27773:27792   */\n      swap1\n      pop\n        /* \"#utility.yul\":27432:27798   */\n      swap2\n      swap1\n      pop\n      jump\t// out\n        /* \"#utility.yul\":27804:28223   */\n    tag_289:\n        /* \"#utility.yul\":27970:27974   */\n      0x00\n        /* \"#utility.yul\":28008:28010   */\n      0x20\n        /* \"#utility.yul\":27997:28006   */\n      dup3\n        /* \"#utility.yul\":27993:28011   */\n      add\n        /* \"#utility.yul\":27985:28011   */\n      swap1\n      pop\n        /* \"#utility.yul\":28057:28066   */\n      dup2\n        /* \"#utility.yul\":28051:28055   */\n      dup2\n        /* \"#utility.yul\":28047:28067   */\n      sub\n        /* \"#utility.yul\":28043:28044   */\n      0x00\n        /* \"#utility.yul\":28032:28041   */\n      dup4\n        /* \"#utility.yul\":28028:28045   */\n      add\n        /* \"#utility.yul\":28021:28068   */\n      mstore\n        /* \"#utility.yul\":28085:28216   */\n      tag_596\n        /* \"#utility.yul\":28211:28215   */\n      dup2\n        /* \"#utility.yul\":28085:28216   */\n      tag_364\n      jump\t// in\n    tag_596:\n        /* \"#utility.yul\":28077:28216   */\n      swap1\n      pop\n        /* \"#utility.yul\":27804:28223   */\n      swap2\n      swap1\n      pop\n      jump\t// out\n        /* \"#utility.yul\":28229:28409   */\n    tag_365:\n        /* \"#utility.yul\":28277:28354   */\n      0x4e487b7100000000000000000000000000000000000000000000000000000000\n        /* \"#utility.yul\":28274:28275   */\n      0x00\n        /* \"#utility.yul\":28267:28355   */\n      mstore\n        /* \"#utility.yul\":28374:28378   */\n      0x12\n        /* \"#utility.yul\":28371:28372   */\n      0x04\n        /* \"#utility.yul\":28364:28379   */\n      mstore\n        /* \"#utility.yul\":28398:28402   */\n      0x24\n        /* \"#utility.yul\":28395:28396   */\n      0x00\n        /* \"#utility.yul\":28388:28403   */\n      revert\n        /* \"#utility.yul\":28415:28600   */\n    tag_294:\n        /* \"#utility.yul\":28455:28456   */\n      0x00\n        /* \"#utility.yul\":28472:28492   */\n      tag_599\n        /* \"#utility.yul\":28490:28491   */\n      dup3\n        /* \"#utility.yul\":28472:28492   */\n      tag_310\n      jump\t// in\n    tag_599:\n        /* \"#utility.yul\":28467:28492   */\n      swap2\n      pop\n        /* \"#utility.yul\":28506:28526   */\n      tag_600\n        /* \"#utility.yul\":28524:28525   */\n      dup4\n        /* \"#utility.yul\":28506:28526   */\n      tag_310\n      jump\t// in\n    tag_600:\n        /* \"#utility.yul\":28501:28526   */\n      swap3\n      pop\n        /* \"#utility.yul\":28545:28546   */\n      dup3\n        /* \"#utility.yul\":28535:28570   */\n      tag_601\n      jumpi\n        /* \"#utility.yul\":28550:28568   */\n      tag_602\n      tag_365\n      jump\t// in\n    tag_602:\n        /* \"#utility.yul\":28535:28570   */\n    tag_601:\n        /* \"#utility.yul\":28592:28593   */\n      dup3\n        /* \"#utility.yul\":28589:28590   */\n      dup3\n        /* \"#utility.yul\":28585:28594   */\n      div\n        /* \"#utility.yul\":28580:28594   */\n      swap1\n      pop\n        /* \"#utility.yul\":28415:28600   */\n      swap3\n      swap2\n      pop\n      pop\n      jump\t// out\n        /* \"#utility.yul\":28606:28800   */\n    tag_297:\n        /* \"#utility.yul\":28646:28650   */\n      0x00\n        /* \"#utility.yul\":28666:28686   */\n      tag_604\n        /* \"#utility.yul\":28684:28685   */\n      dup3\n        /* \"#utility.yul\":28666:28686   */\n      tag_310\n      jump\t// in\n    tag_604:\n        /* \"#utility.yul\":28661:28686   */\n      swap2\n      pop\n        /* \"#utility.yul\":28700:28720   */\n      tag_605\n        /* \"#utility.yul\":28718:28719   */\n      dup4\n        /* \"#utility.yul\":28700:28720   */\n      tag_310\n      jump\t// in\n    tag_605:\n        /* \"#utility.yul\":28695:28720   */\n      swap3\n      pop\n        /* \"#utility.yul\":28744:28745   */\n      dup3\n        /* \"#utility.yul\":28741:28742   */\n      dup3\n        /* \"#utility.yul\":28737:28746   */\n      sub\n        /* \"#utility.yul\":28729:28746   */\n      swap1\n      pop\n        /* \"#utility.yul\":28768:28769   */\n      dup2\n        /* \"#utility.yul\":28762:28766   */\n      dup2\n        /* \"#utility.yul\":28759:28770   */\n      gt\n        /* \"#utility.yul\":28756:28793   */\n      iszero\n      tag_606\n      jumpi\n        /* \"#utility.yul\":28773:28791   */\n      tag_607\n      tag_342\n      jump\t// in\n    tag_607:\n        /* \"#utility.yul\":28756:28793   */\n    tag_606:\n        /* \"#utility.yul\":28606:28800   */\n      swap3\n      swap2\n      pop\n      pop\n      jump\t// out\n\n    auxdata: 0xa264697066735822122051a04130f289cc52131ead7abedb86ed0672e7b07b9c252208d610d7172e212864736f6c63430008110033\n}\n",
				"bytecode": {
					"linkReferences": {},
					"object": "60806040526000600760146101000a81548160ff0219169083151502179055506000600960006101000a81548160ff0219169083151502179055503480156200004757600080fd5b5060405162002d4b38038062002d4b83398181016040528101906200006d91906200015f565b80600160006101000a81548173ffffffffffffffffffffffffffffffffffffffff021916908373ffffffffffffffffffffffffffffffffffffffff160217905550336000806101000a81548173ffffffffffffffffffffffffffffffffffffffff021916908373ffffffffffffffffffffffffffffffffffffffff1602179055505062000191565b600080fd5b600073ffffffffffffffffffffffffffffffffffffffff82169050919050565b60006200012782620000fa565b9050919050565b62000139816200011a565b81146200014557600080fd5b50565b60008151905062000159816200012e565b92915050565b600060208284031215620001785762000177620000f5565b5b6000620001888482850162000148565b91505092915050565b612baa80620001a16000396000f3fe60806040526004361061014b5760003560e01c80638da5cb5b116100b6578063b7d1d98e1161006f578063b7d1d98e14610433578063c7983e201461045c578063cc4aa20414610487578063d5f39488146104b2578063f2b5eea7146104dd578063faedd18e146105065761014b565b80638da5cb5b1461034057806391f2ebb81461036b57806394a927fe146103965780639e1a4d19146103c1578063a5720770146103ec578063b486b8c9146104175761014b565b806345c8b1a61161010857806345c8b1a61461025357806356af4f751461027c5780636e1a7373146102a75780637a80760e146102d057806387c2797d146102fb5780638d1fdf2f146103175761014b565b80630171b6da14610150578063054f7d9c1461016c5780631903b431146101975780631c8ec299146101d45780631e83409a146101ff578063362bb2ac14610228575b600080fd5b61016a60048036038101906101659190611d54565b610531565b005b34801561017857600080fd5b50610181610a8e565b60405161018e9190611e05565b60405180910390f35b3480156101a357600080fd5b506101be60048036038101906101b99190611e20565b610aa1565b6040516101cb9190611e6f565b60405180910390f35b3480156101e057600080fd5b506101e9610b97565b6040516101f69190611e6f565b60405180910390f35b34801561020b57600080fd5b5061022660048036038101906102219190611e8a565b610b9d565b005b34801561023457600080fd5b5061023d610d42565b60405161024a9190611ec6565b60405180910390f35b34801561025f57600080fd5b5061027a60048036038101906102759190611e8a565b610d6b565b005b34801561028857600080fd5b50610291610e50565b60405161029e9190611ec6565b60405180910390f35b3480156102b357600080fd5b506102ce60048036038101906102c99190611ee1565b610e7a565b005b3480156102dc57600080fd5b506102e5610fdd565b6040516102f29190611f43565b60405180910390f35b61031560048036038101906103109190611f5e565b611003565b005b34801561032357600080fd5b5061033e60048036038101906103399190611e8a565b6116c4565b005b34801561034c57600080fd5b506103556117a9565b6040516103629190611f43565b60405180910390f35b34801561037757600080fd5b506103806117cf565b60405161038d9190611f43565b60405180910390f35b3480156103a257600080fd5b506103ab6117f5565b6040516103b89190611ec6565b60405180910390f35b3480156103cd57600080fd5b506103d661181f565b6040516103e39190611e6f565b60405180910390f35b3480156103f857600080fd5b50610401611825565b60405161040e9190611e05565b60405180910390f35b610431600480360381019061042c9190611e20565b611838565b005b34801561043f57600080fd5b5061045a60048036038101906104559190611e8a565b611988565b005b34801561046857600080fd5b50610471611a85565b60405161047e9190611e6f565b60405180910390f35b34801561049357600080fd5b5061049c611a8b565b6040516104a9919061204a565b60405180910390f35b3480156104be57600080fd5b506104c7611ab1565b6040516104d49190611ec6565b60405180910390f35b3480156104e957600080fd5b5061050460048036038101906104ff9190611e8a565b611ad5565b005b34801561051257600080fd5b5061051b611bda565b6040516105289190611e05565b60405180910390f35b600160009054906101000a900473ffffffffffffffffffffffffffffffffffffffff1673ffffffffffffffffffffffffffffffffffffffff168373ffffffffffffffffffffffffffffffffffffffff16146105c1576040517f08c379a00000000000000000000000000000000000000000000000000000000081526004016105b8906120e8565b60405180910390fd5b600960009054906101000a900460ff1615610611576040517f08c379a00000000000000000000000000000000000000000000000000000000081526004016106089061217a565b60405180910390fd5b86156107b5574785111561065a576040517f08c379a0000000000000000000000000000000000000000000000000000000008152600401610651906121e6565b60405180910390fd5b600760149054906101000a900460ff16156106aa576040517f08c379a00000000000000000000000000000000000000000000000000000000081526004016106a190612278565b60405180910390fd5b6001600760146101000a81548160ff0219169083151502179055506106eb60646106dd8388611bed90919063ffffffff16565b611c0390919063ffffffff16565b6005819055508573ffffffffffffffffffffffffffffffffffffffff166108fc61072060055488611c1990919063ffffffff16565b9081150290604051600060405180830381858888f1935050505015801561074b573d6000803e3d6000fd5b508173ffffffffffffffffffffffffffffffffffffffff166108fc6005549081150290604051600060405180830381858888f19350505050158015610794573d6000803e3d6000fd5b506000600760146101000a81548160ff021916908315150217905550610a85565b83600760006101000a81548173ffffffffffffffffffffffffffffffffffffffff021916908373ffffffffffffffffffffffffffffffffffffffff160217905550600760009054906101000a900473ffffffffffffffffffffffffffffffffffffffff1673ffffffffffffffffffffffffffffffffffffffff166370a08231306040518263ffffffff1660e01b81526004016108519190611ec6565b602060405180830381865afa15801561086e573d6000803e3d6000fd5b505050506040513d601f19601f8201168201806040525081019061089291906122ad565b8511156108d4576040517f08c379a00000000000000000000000000000000000000000000000000000000081526004016108cb906121e6565b60405180910390fd5b600760149054906101000a900460ff1615610924576040517f08c379a000000000000000000000000000000000000000000000000000000000815260040161091b90612278565b60405180910390fd5b6001600760146101000a81548160ff02191690831515021790555061096560646109578388611bed90919063ffffffff16565b611c0390919063ffffffff16565b600581905550600760009054906101000a900473ffffffffffffffffffffffffffffffffffffffff1673ffffffffffffffffffffffffffffffffffffffff1663a9059cbb876109bf60055489611c1990919063ffffffff16565b6040518363ffffffff1660e01b81526004016109dc9291906122fb565b6020604051808303816000875af11580156109fb573d6000803e3d6000fd5b505050506040513d601f19601f82011682018060405250810190610a1f9190612339565b508173ffffffffffffffffffffffffffffffffffffffff166108fc6005549081150290604051600060405180830381858888f19350505050158015610a68573d6000803e3d6000fd5b506000600760146101000a81548160ff0219169083151502179055505b50505050505050565b600960009054906101000a900460ff1681565b60008215610ab157479050610b91565b81600760006101000a81548173ffffffffffffffffffffffffffffffffffffffff021916908373ffffffffffffffffffffffffffffffffffffffff160217905550600760009054906101000a900473ffffffffffffffffffffffffffffffffffffffff1673ffffffffffffffffffffffffffffffffffffffff166370a08231306040518263ffffffff1660e01b8152600401610b4d9190611ec6565b602060405180830381865afa158015610b6a573d6000803e3d6000fd5b505050506040513d601f19601f82011682018060405250810190610b8e91906122ad565b90505b92915050565b60045481565b8073ffffffffffffffffffffffffffffffffffffffff16600260009054906101000a900473ffffffffffffffffffffffffffffffffffffffff1673ffffffffffffffffffffffffffffffffffffffff1614610c2d576040517f08c379a0000000000000000000000000000000000000000000000000000000008152600401610c24906123d8565b60405180910390fd5b600260149054906101000a900460ff16610c7c576040517f08c379a0000000000000000000000000000000000000000000000000000000008152600401610c739061246a565b60405180910390fd5b62015180600454610c8d91906124b9565b600354610c9a91906124fb565b421015610cdc576040517f08c379a0000000000000000000000000000000000000000000000000000000008152600401610cd39061257b565b60405180910390fd5b600260009054906101000a900473ffffffffffffffffffffffffffffffffffffffff16600160006101000a81548173ffffffffffffffffffffffffffffffffffffffff021916908373ffffffffffffffffffffffffffffffffffffffff16021790555050565b60008060009054906101000a900473ffffffffffffffffffffffffffffffffffffffff16905090565b600160009054906101000a900473ffffffffffffffffffffffffffffffffffffffff1673ffffffffffffffffffffffffffffffffffffffff168173ffffffffffffffffffffffffffffffffffffffff1614610dfb576040517f08c379a0000000000000000000000000000000000000000000000000000000008152600401610df29061260d565b60405180910390fd5b6000600960006101000a81548160ff0219169083151502179055507fca5069937e68fd197927055037f59d7c90bf75ac104e6e375539ef480c3ad6ee81604051610e459190611ec6565b60405180910390a150565b6000600260009054906101000a900473ffffffffffffffffffffffffffffffffffffffff16905090565b8073ffffffffffffffffffffffffffffffffffffffff16600160009054906101000a900473ffffffffffffffffffffffffffffffffffffffff1673ffffffffffffffffffffffffffffffffffffffff1614610f0a576040517f08c379a0000000000000000000000000000000000000000000000000000000008152600401610f0190612679565b60405180910390fd5b600760149054906101000a900460ff1615610f5a576040517f08c379a0000000000000000000000000000000000000000000000000000000008152600401610f5190612278565b60405180910390fd5b6001600760146101000a81548160ff02191690831515021790555082600260006101000a81548173ffffffffffffffffffffffffffffffffffffffff021916908373ffffffffffffffffffffffffffffffffffffffff160217905550816004819055506000600760146101000a81548160ff021916908315150217905550505050565b600660009054906101000a900473ffffffffffffffffffffffffffffffffffffffff1681565b600160009054906101000a900473ffffffffffffffffffffffffffffffffffffffff1673ffffffffffffffffffffffffffffffffffffffff168373ffffffffffffffffffffffffffffffffffffffff1614611093576040517f08c379a000000000000000000000000000000000000000000000000000000000815260040161108a9061270b565b60405180910390fd5b600960009054906101000a900460ff16156110e3576040517f08c379a00000000000000000000000000000000000000000000000000000000081526004016110da9061217a565b60405180910390fd5b85156112ec576000471161112c576040517f08c379a000000000000000000000000000000000000000000000000000000000815260040161112390612777565b60405180910390fd5b4785111561116f576040517f08c379a0000000000000000000000000000000000000000000000000000000008152600401611166906121e6565b60405180910390fd5b600760149054906101000a900460ff16156111bf576040517f08c379a00000000000000000000000000000000000000000000000000000000081526004016111b690612278565b60405180910390fd5b6001600760146101000a81548160ff02191690831515021790555061120060646111f28388611bed90919063ffffffff16565b611c0390919063ffffffff16565b600581905550600160009054906101000a900473ffffffffffffffffffffffffffffffffffffffff1673ffffffffffffffffffffffffffffffffffffffff166108fc61125760055488611c1990919063ffffffff16565b9081150290604051600060405180830381858888f19350505050158015611282573d6000803e3d6000fd5b508173ffffffffffffffffffffffffffffffffffffffff166108fc6005549081150290604051600060405180830381858888f193505050501580156112cb573d6000803e3d6000fd5b506000600760146101000a81548160ff0219169083151502179055506116bc565b83600760006101000a81548173ffffffffffffffffffffffffffffffffffffffff021916908373ffffffffffffffffffffffffffffffffffffffff1602179055506000600760009054906101000a900473ffffffffffffffffffffffffffffffffffffffff1673ffffffffffffffffffffffffffffffffffffffff166370a08231306040518263ffffffff1660e01b815260040161138a9190611ec6565b602060405180830381865afa1580156113a7573d6000803e3d6000fd5b505050506040513d601f19601f820116820180604052508101906113cb91906122ad565b1161140b576040517f08c379a000000000000000000000000000000000000000000000000000000000815260040161140290612777565b60405180910390fd5b600760009054906101000a900473ffffffffffffffffffffffffffffffffffffffff1673ffffffffffffffffffffffffffffffffffffffff166370a08231306040518263ffffffff1660e01b81526004016114669190611ec6565b602060405180830381865afa158015611483573d6000803e3d6000fd5b505050506040513d601f19601f820116820180604052508101906114a791906122ad565b8511156114e9576040517f08c379a00000000000000000000000000000000000000000000000000000000081526004016114e0906121e6565b60405180910390fd5b600760149054906101000a900460ff1615611539576040517f08c379a000000000000000000000000000000000000000000000000000000000815260040161153090612278565b60405180910390fd5b6001600760146101000a81548160ff02191690831515021790555061157a606461156c8388611bed90919063ffffffff16565b611c0390919063ffffffff16565b600581905550600760009054906101000a900473ffffffffffffffffffffffffffffffffffffffff1673ffffffffffffffffffffffffffffffffffffffff1663a9059cbb600160009054906101000a900473ffffffffffffffffffffffffffffffffffffffff166115f660055489611c1990919063ffffffff16565b6040518363ffffffff1660e01b81526004016116139291906122fb565b6020604051808303816000875af1158015611632573d6000803e3d6000fd5b505050506040513d601f19601f820116820180604052508101906116569190612339565b508173ffffffffffffffffffffffffffffffffffffffff166108fc6005549081150290604051600060405180830381858888f1935050505015801561169f573d6000803e3d6000fd5b506000600760146101000a81548160ff0219169083151502179055505b505050505050565b600160009054906101000a900473ffffffffffffffffffffffffffffffffffffffff1673ffffffffffffffffffffffffffffffffffffffff168173ffffffffffffffffffffffffffffffffffffffff1614611754576040517f08c379a000000000000000000000000000000000000000000000000000000000815260040161174b90612809565b60405180910390fd5b6001600960006101000a81548160ff0219169083151502179055507faf85b60d26151edd11443b704d424da6c43d0468f2235ebae3d1904dbc3230498160405161179e9190611ec6565b60405180910390a150565b600160009054906101000a900473ffffffffffffffffffffffffffffffffffffffff1681565b600260009054906101000a900473ffffffffffffffffffffffffffffffffffffffff1681565b6000600160009054906101000a900473ffffffffffffffffffffffffffffffffffffffff16905090565b60085481565b600760149054906101000a900460ff1681565b6000341161187b576040517f08c379a000000000000000000000000000000000000000000000000000000000815260040161187290612875565b60405180910390fd5b81156118a15761189634600854611c2f90919063ffffffff16565b600881905550611984565b80600760006101000a81548173ffffffffffffffffffffffffffffffffffffffff021916908373ffffffffffffffffffffffffffffffffffffffff160217905550600760009054906101000a900473ffffffffffffffffffffffffffffffffffffffff1673ffffffffffffffffffffffffffffffffffffffff1663a9059cbb30346040518363ffffffff1660e01b815260040161193f929190612895565b6020604051808303816000875af115801561195e573d6000803e3d6000fd5b505050506040513d601f19601f820116820180604052508101906119829190612339565b505b5050565b600160009054906101000a900473ffffffffffffffffffffffffffffffffffffffff1673ffffffffffffffffffffffffffffffffffffffff168173ffffffffffffffffffffffffffffffffffffffff1614611a18576040517f08c379a0000000000000000000000000000000000000000000000000000000008152600401611a0f9061290a565b60405180910390fd5b600260149054906101000a900460ff16611a67576040517f08c379a0000000000000000000000000000000000000000000000000000000008152600401611a5e9061299c565b60405180910390fd5b6000600260146101000a81548160ff02191690831515021790555050565b60035481565b600760009054906101000a900473ffffffffffffffffffffffffffffffffffffffff1681565b60008054906101000a900473ffffffffffffffffffffffffffffffffffffffff1681565b8073ffffffffffffffffffffffffffffffffffffffff16600260009054906101000a900473ffffffffffffffffffffffffffffffffffffffff1673ffffffffffffffffffffffffffffffffffffffff1614611b65576040517f08c379a0000000000000000000000000000000000000000000000000000000008152600401611b5c90612a2e565b60405180910390fd5b600260149054906101000a900460ff1615611bb5576040517f08c379a0000000000000000000000000000000000000000000000000000000008152600401611bac90612ac0565b60405180910390fd5b6001600260146101000a81548160ff0219169083151502179055504260038190555050565b600260149054906101000a900460ff1681565b60008183611bfb91906124b9565b905092915050565b60008183611c119190612b0f565b905092915050565b60008183611c279190612b40565b905092915050565b60008183611c3d91906124fb565b905092915050565b600080fd5b60008115159050919050565b611c5f81611c4a565b8114611c6a57600080fd5b50565b600081359050611c7c81611c56565b92915050565b600073ffffffffffffffffffffffffffffffffffffffff82169050919050565b6000611cad82611c82565b9050919050565b611cbd81611ca2565b8114611cc857600080fd5b50565b600081359050611cda81611cb4565b92915050565b6000819050919050565b611cf381611ce0565b8114611cfe57600080fd5b50565b600081359050611d1081611cea565b92915050565b6000611d2182611c82565b9050919050565b611d3181611d16565b8114611d3c57600080fd5b50565b600081359050611d4e81611d28565b92915050565b600080600080600080600060e0888a031215611d7357611d72611c45565b5b6000611d818a828b01611c6d565b9750506020611d928a828b01611ccb565b9650506040611da38a828b01611d01565b9550506060611db48a828b01611d3f565b9450506080611dc58a828b01611d3f565b93505060a0611dd68a828b01611ccb565b92505060c0611de78a828b01611d01565b91505092959891949750929550565b611dff81611c4a565b82525050565b6000602082019050611e1a6000830184611df6565b92915050565b60008060408385031215611e3757611e36611c45565b5b6000611e4585828601611c6d565b9250506020611e5685828601611d3f565b9150509250929050565b611e6981611ce0565b82525050565b6000602082019050611e846000830184611e60565b92915050565b600060208284031215611ea057611e9f611c45565b5b6000611eae84828501611d3f565b91505092915050565b611ec081611d16565b82525050565b6000602082019050611edb6000830184611eb7565b92915050565b600080600060608486031215611efa57611ef9611c45565b5b6000611f0886828701611ccb565b9350506020611f1986828701611d01565b9250506040611f2a86828701611d3f565b9150509250925092565b611f3d81611ca2565b82525050565b6000602082019050611f586000830184611f34565b92915050565b60008060008060008060c08789031215611f7b57611f7a611c45565b5b6000611f8989828a01611c6d565b9650506020611f9a89828a01611d01565b9550506040611fab89828a01611d3f565b9450506060611fbc89828a01611d3f565b9350506080611fcd89828a01611ccb565b92505060a0611fde89828a01611d01565b9150509295509295509295565b6000819050919050565b600061201061200b61200684611c82565b611feb565b611c82565b9050919050565b600061202282611ff5565b9050919050565b600061203482612017565b9050919050565b61204481612029565b82525050565b600060208201905061205f600083018461203b565b92915050565b600082825260208201905092915050565b7f4f6e6c7920746865206f776e65722063616e207472616e736665722066756e6460008201527f732e000000000000000000000000000000000000000000000000000000000000602082015250565b60006120d2602283612065565b91506120dd82612076565b604082019050919050565b60006020820190508181036000830152612101816120c5565b9050919050565b7f4163636f756e742069732066726f7a656e2c2063616e6e6f742077697468647260008201527f61772066756e64732e0000000000000000000000000000000000000000000000602082015250565b6000612164602983612065565b915061216f82612108565b604082019050919050565b6000602082019050818103600083015261219381612157565b9050919050565b7f496e73756666696369656e742066756e64732e00000000000000000000000000600082015250565b60006121d0601383612065565b91506121db8261219a565b602082019050919050565b600060208201905081810360008301526121ff816121c3565b9050919050565b7f5468652066756e6374696f6e20697320616c726561647920696e20657865637560008201527f74696f6e2e000000000000000000000000000000000000000000000000000000602082015250565b6000612262602583612065565b915061226d82612206565b604082019050919050565b6000602082019050818103600083015261229181612255565b9050919050565b6000815190506122a781611cea565b92915050565b6000602082840312156122c3576122c2611c45565b5b60006122d184828501612298565b91505092915050565b60006122e582612017565b9050919050565b6122f5816122da565b82525050565b600060408201905061231060008301856122ec565b61231d6020830184611e60565b9392505050565b60008151905061233381611c56565b92915050565b60006020828403121561234f5761234e611c45565b5b600061235d84828501612324565b91505092915050565b7f4f6e6c792074686520686569722063616e20636c61696d20746865206163636f60008201527f756e742e00000000000000000000000000000000000000000000000000000000602082015250565b60006123c2602483612065565b91506123cd82612366565b604082019050919050565b600060208201905081810360008301526123f1816123b5565b9050919050565b7f436c61696d2070726f6365737320686173206e6f74206265656e20696e69746960008201527f617465642e000000000000000000000000000000000000000000000000000000602082015250565b6000612454602583612065565b915061245f826123f8565b604082019050919050565b6000602082019050818103600083015261248381612447565b9050919050565b7f4e487b7100000000000000000000000000000000000000000000000000000000600052601160045260246000fd5b60006124c482611ce0565b91506124cf83611ce0565b92508282026124dd81611ce0565b915082820484148315176124f4576124f361248a565b5b5092915050565b600061250682611ce0565b915061251183611ce0565b92508282019050808211156125295761252861248a565b5b92915050565b7f436c61696d2064656c617920686173206e6f7420657870697265642e00000000600082015250565b6000612565601c83612065565b91506125708261252f565b602082019050919050565b6000602082019050818103600083015261259481612558565b9050919050565b7f4f6e6c7920746865206f776e65722063616e20756e667265657a65207468652060008201527f6163636f756e742e000000000000000000000000000000000000000000000000602082015250565b60006125f7602883612065565b91506126028261259b565b604082019050919050565b60006020820190508181036000830152612626816125ea565b9050919050565b7f4f6e6c7920746865206f776e65722063616e207365742074686520686569722e600082015250565b6000612663602083612065565b915061266e8261262d565b602082019050919050565b6000602082019050818103600083015261269281612656565b9050919050565b7f4f6e6c7920746865206f776e65722063616e2077697468647261772066756e6460008201527f732e000000000000000000000000000000000000000000000000000000000000602082015250565b60006126f5602283612065565b915061270082612699565b604082019050919050565b60006020820190508181036000830152612724816126e8565b9050919050565b7f546865726520617265206e6f2066756e647320746f2077697468647261772e00600082015250565b6000612761601f83612065565b915061276c8261272b565b602082019050919050565b6000602082019050818103600083015261279081612754565b9050919050565b7f4f6e6c7920746865206f776e65722063616e20667265657a652074686520616360008201527f636f756e742e0000000000000000000000000000000000000000000000000000602082015250565b60006127f3602683612065565b91506127fe82612797565b604082019050919050565b60006020820190508181036000830152612822816127e6565b9050919050565b7f43616e6e6f74206465706f7369742030206f72206c6573732e00000000000000600082015250565b600061285f601983612065565b915061286a82612829565b602082019050919050565b6000602082019050818103600083015261288e81612852565b9050919050565b60006040820190506128aa6000830185611eb7565b6128b76020830184611e60565b9392505050565b7f4f6e6c7920746865206f776e65722063616e2073746f70206120636c61696d2e600082015250565b60006128f4602083612065565b91506128ff826128be565b602082019050919050565b60006020820190508181036000830152612923816128e7565b9050919050565b7f5468657265206973206e6f2061637469766520636c61696d20746f2073746f7060008201527f2e00000000000000000000000000000000000000000000000000000000000000602082015250565b6000612986602183612065565b91506129918261292a565b604082019050919050565b600060208201905081810360008301526129b581612979565b9050919050565b7f4f6e6c792074686520686569722063616e20696e69746961746520746865206360008201527f6c61696d2070726f636573732e00000000000000000000000000000000000000602082015250565b6000612a18602d83612065565b9150612a23826129bc565b604082019050919050565b60006020820190508181036000830152612a4781612a0b565b9050919050565b7f436c61696d2070726f6365737320697320616c726561647920696e2070726f6760008201527f726573732e000000000000000000000000000000000000000000000000000000602082015250565b6000612aaa602583612065565b9150612ab582612a4e565b604082019050919050565b60006020820190508181036000830152612ad981612a9d565b9050919050565b7f4e487b7100000000000000000000000000000000000000000000000000000000600052601260045260246000fd5b6000612b1a82611ce0565b9150612b2583611ce0565b925082612b3557612b34612ae0565b5b828204905092915050565b6000612b4b82611ce0565b9150612b5683611ce0565b9250828203905081811115612b6e57612b6d61248a565b5b9291505056fea264697066735822122051a04130f289cc52131ead7abedb86ed0672e7b07b9c252208d610d7172e212864736f6c63430008110033",
					"opcodes": "PUSH1 0x80 PUSH1 0x40 MSTORE PUSH1 0x0 PUSH1 0x7 PUSH1 0x14 PUSH2 0x100 EXP DUP2 SLOAD DUP2 PUSH1 0xFF MUL NOT AND SWAP1 DUP4 ISZERO ISZERO MUL OR SWAP1 SSTORE POP PUSH1 0x0 PUSH1 0x9 PUSH1 0x0 PUSH2 0x100 EXP DUP2 SLOAD DUP2 PUSH1 0xFF MUL NOT AND SWAP1 DUP4 ISZERO ISZERO MUL OR SWAP1 SSTORE POP CALLVALUE DUP1 ISZERO PUSH3 0x47 JUMPI PUSH1 0x0 DUP1 REVERT JUMPDEST POP PUSH1 0x40 MLOAD PUSH3 0x2D4B CODESIZE SUB DUP1 PUSH3 0x2D4B DUP4 CODECOPY DUP2 DUP2 ADD PUSH1 0x40 MSTORE DUP2 ADD SWAP1 PUSH3 0x6D SWAP2 SWAP1 PUSH3 0x15F JUMP JUMPDEST DUP1 PUSH1 0x1 PUSH1 0x0 PUSH2 0x100 EXP DUP2 SLOAD DUP2 PUSH20 0xFFFFFFFFFFFFFFFFFFFFFFFFFFFFFFFFFFFFFFFF MUL NOT AND SWAP1 DUP4 PUSH20 0xFFFFFFFFFFFFFFFFFFFFFFFFFFFFFFFFFFFFFFFF AND MUL OR SWAP1 SSTORE POP CALLER PUSH1 0x0 DUP1 PUSH2 0x100 EXP DUP2 SLOAD DUP2 PUSH20 0xFFFFFFFFFFFFFFFFFFFFFFFFFFFFFFFFFFFFFFFF MUL NOT AND SWAP1 DUP4 PUSH20 0xFFFFFFFFFFFFFFFFFFFFFFFFFFFFFFFFFFFFFFFF AND MUL OR SWAP1 SSTORE POP POP PUSH3 0x191 JUMP JUMPDEST PUSH1 0x0 DUP1 REVERT JUMPDEST PUSH1 0x0 PUSH20 0xFFFFFFFFFFFFFFFFFFFFFFFFFFFFFFFFFFFFFFFF DUP3 AND SWAP1 POP SWAP2 SWAP1 POP JUMP JUMPDEST PUSH1 0x0 PUSH3 0x127 DUP3 PUSH3 0xFA JUMP JUMPDEST SWAP1 POP SWAP2 SWAP1 POP JUMP JUMPDEST PUSH3 0x139 DUP2 PUSH3 0x11A JUMP JUMPDEST DUP2 EQ PUSH3 0x145 JUMPI PUSH1 0x0 DUP1 REVERT JUMPDEST POP JUMP JUMPDEST PUSH1 0x0 DUP2 MLOAD SWAP1 POP PUSH3 0x159 DUP2 PUSH3 0x12E JUMP JUMPDEST SWAP3 SWAP2 POP POP JUMP JUMPDEST PUSH1 0x0 PUSH1 0x20 DUP3 DUP5 SUB SLT ISZERO PUSH3 0x178 JUMPI PUSH3 0x177 PUSH3 0xF5 JUMP JUMPDEST JUMPDEST PUSH1 0x0 PUSH3 0x188 DUP5 DUP3 DUP6 ADD PUSH3 0x148 JUMP JUMPDEST SWAP2 POP POP SWAP3 SWAP2 POP POP JUMP JUMPDEST PUSH2 0x2BAA DUP1 PUSH3 0x1A1 PUSH1 0x0 CODECOPY PUSH1 0x0 RETURN INVALID PUSH1 0x80 PUSH1 0x40 MSTORE PUSH1 0x4 CALLDATASIZE LT PUSH2 0x14B JUMPI PUSH1 0x0 CALLDATALOAD PUSH1 0xE0 SHR DUP1 PUSH4 0x8DA5CB5B GT PUSH2 0xB6 JUMPI DUP1 PUSH4 0xB7D1D98E GT PUSH2 0x6F JUMPI DUP1 PUSH4 0xB7D1D98E EQ PUSH2 0x433 JUMPI DUP1 PUSH4 0xC7983E20 EQ PUSH2 0x45C JUMPI DUP1 PUSH4 0xCC4AA204 EQ PUSH2 0x487 JUMPI DUP1 PUSH4 0xD5F39488 EQ PUSH2 0x4B2 JUMPI DUP1 PUSH4 0xF2B5EEA7 EQ PUSH2 0x4DD JUMPI DUP1 PUSH4 0xFAEDD18E EQ PUSH2 0x506 JUMPI PUSH2 0x14B JUMP JUMPDEST DUP1 PUSH4 0x8DA5CB5B EQ PUSH2 0x340 JUMPI DUP1 PUSH4 0x91F2EBB8 EQ PUSH2 0x36B JUMPI DUP1 PUSH4 0x94A927FE EQ PUSH2 0x396 JUMPI DUP1 PUSH4 0x9E1A4D19 EQ PUSH2 0x3C1 JUMPI DUP1 PUSH4 0xA5720770 EQ PUSH2 0x3EC JUMPI DUP1 PUSH4 0xB486B8C9 EQ PUSH2 0x417 JUMPI PUSH2 0x14B JUMP JUMPDEST DUP1 PUSH4 0x45C8B1A6 GT PUSH2 0x108 JUMPI DUP1 PUSH4 0x45C8B1A6 EQ PUSH2 0x253 JUMPI DUP1 PUSH4 0x56AF4F75 EQ PUSH2 0x27C JUMPI DUP1 PUSH4 0x6E1A7373 EQ PUSH2 0x2A7 JUMPI DUP1 PUSH4 0x7A80760E EQ PUSH2 0x2D0 JUMPI DUP1 PUSH4 0x87C2797D EQ PUSH2 0x2FB JUMPI DUP1 PUSH4 0x8D1FDF2F EQ PUSH2 0x317 JUMPI PUSH2 0x14B JUMP JUMPDEST DUP1 PUSH4 0x171B6DA EQ PUSH2 0x150 JUMPI DUP1 PUSH4 0x54F7D9C EQ PUSH2 0x16C JUMPI DUP1 PUSH4 0x1903B431 EQ PUSH2 0x197 JUMPI DUP1 PUSH4 0x1C8EC299 EQ PUSH2 0x1D4 JUMPI DUP1 PUSH4 0x1E83409A EQ PUSH2 0x1FF JUMPI DUP1 PUSH4 0x362BB2AC EQ PUSH2 0x228 JUMPI JUMPDEST PUSH1 0x0 DUP1 REVERT JUMPDEST PUSH2 0x16A PUSH1 0x4 DUP1 CALLDATASIZE SUB DUP2 ADD SWAP1 PUSH2 0x165 SWAP2 SWAP1 PUSH2 0x1D54 JUMP JUMPDEST PUSH2 0x531 JUMP JUMPDEST STOP JUMPDEST CALLVALUE DUP1 ISZERO PUSH2 0x178 JUMPI PUSH1 0x0 DUP1 REVERT JUMPDEST POP PUSH2 0x181 PUSH2 0xA8E JUMP JUMPDEST PUSH1 0x40 MLOAD PUSH2 0x18E SWAP2 SWAP1 PUSH2 0x1E05 JUMP JUMPDEST PUSH1 0x40 MLOAD DUP1 SWAP2 SUB SWAP1 RETURN JUMPDEST CALLVALUE DUP1 ISZERO PUSH2 0x1A3 JUMPI PUSH1 0x0 DUP1 REVERT JUMPDEST POP PUSH2 0x1BE PUSH1 0x4 DUP1 CALLDATASIZE SUB DUP2 ADD SWAP1 PUSH2 0x1B9 SWAP2 SWAP1 PUSH2 0x1E20 JUMP JUMPDEST PUSH2 0xAA1 JUMP JUMPDEST PUSH1 0x40 MLOAD PUSH2 0x1CB SWAP2 SWAP1 PUSH2 0x1E6F JUMP JUMPDEST PUSH1 0x40 MLOAD DUP1 SWAP2 SUB SWAP1 RETURN JUMPDEST CALLVALUE DUP1 ISZERO PUSH2 0x1E0 JUMPI PUSH1 0x0 DUP1 REVERT JUMPDEST POP PUSH2 0x1E9 PUSH2 0xB97 JUMP JUMPDEST PUSH1 0x40 MLOAD PUSH2 0x1F6 SWAP2 SWAP1 PUSH2 0x1E6F JUMP JUMPDEST PUSH1 0x40 MLOAD DUP1 SWAP2 SUB SWAP1 RETURN JUMPDEST CALLVALUE DUP1 ISZERO PUSH2 0x20B JUMPI PUSH1 0x0 DUP1 REVERT JUMPDEST POP PUSH2 0x226 PUSH1 0x4 DUP1 CALLDATASIZE SUB DUP2 ADD SWAP1 PUSH2 0x221 SWAP2 SWAP1 PUSH2 0x1E8A JUMP JUMPDEST PUSH2 0xB9D JUMP JUMPDEST STOP JUMPDEST CALLVALUE DUP1 ISZERO PUSH2 0x234 JUMPI PUSH1 0x0 DUP1 REVERT JUMPDEST POP PUSH2 0x23D PUSH2 0xD42 JUMP JUMPDEST PUSH1 0x40 MLOAD PUSH2 0x24A SWAP2 SWAP1 PUSH2 0x1EC6 JUMP JUMPDEST PUSH1 0x40 MLOAD DUP1 SWAP2 SUB SWAP1 RETURN JUMPDEST CALLVALUE DUP1 ISZERO PUSH2 0x25F JUMPI PUSH1 0x0 DUP1 REVERT JUMPDEST POP PUSH2 0x27A PUSH1 0x4 DUP1 CALLDATASIZE SUB DUP2 ADD SWAP1 PUSH2 0x275 SWAP2 SWAP1 PUSH2 0x1E8A JUMP JUMPDEST PUSH2 0xD6B JUMP JUMPDEST STOP JUMPDEST CALLVALUE DUP1 ISZERO PUSH2 0x288 JUMPI PUSH1 0x0 DUP1 REVERT JUMPDEST POP PUSH2 0x291 PUSH2 0xE50 JUMP JUMPDEST PUSH1 0x40 MLOAD PUSH2 0x29E SWAP2 SWAP1 PUSH2 0x1EC6 JUMP JUMPDEST PUSH1 0x40 MLOAD DUP1 SWAP2 SUB SWAP1 RETURN JUMPDEST CALLVALUE DUP1 ISZERO PUSH2 0x2B3 JUMPI PUSH1 0x0 DUP1 REVERT JUMPDEST POP PUSH2 0x2CE PUSH1 0x4 DUP1 CALLDATASIZE SUB DUP2 ADD SWAP1 PUSH2 0x2C9 SWAP2 SWAP1 PUSH2 0x1EE1 JUMP JUMPDEST PUSH2 0xE7A JUMP JUMPDEST STOP JUMPDEST CALLVALUE DUP1 ISZERO PUSH2 0x2DC JUMPI PUSH1 0x0 DUP1 REVERT JUMPDEST POP PUSH2 0x2E5 PUSH2 0xFDD JUMP JUMPDEST PUSH1 0x40 MLOAD PUSH2 0x2F2 SWAP2 SWAP1 PUSH2 0x1F43 JUMP JUMPDEST PUSH1 0x40 MLOAD DUP1 SWAP2 SUB SWAP1 RETURN JUMPDEST PUSH2 0x315 PUSH1 0x4 DUP1 CALLDATASIZE SUB DUP2 ADD SWAP1 PUSH2 0x310 SWAP2 SWAP1 PUSH2 0x1F5E JUMP JUMPDEST PUSH2 0x1003 JUMP JUMPDEST STOP JUMPDEST CALLVALUE DUP1 ISZERO PUSH2 0x323 JUMPI PUSH1 0x0 DUP1 REVERT JUMPDEST POP PUSH2 0x33E PUSH1 0x4 DUP1 CALLDATASIZE SUB DUP2 ADD SWAP1 PUSH2 0x339 SWAP2 SWAP1 PUSH2 0x1E8A JUMP JUMPDEST PUSH2 0x16C4 JUMP JUMPDEST STOP JUMPDEST CALLVALUE DUP1 ISZERO PUSH2 0x34C JUMPI PUSH1 0x0 DUP1 REVERT JUMPDEST POP PUSH2 0x355 PUSH2 0x17A9 JUMP JUMPDEST PUSH1 0x40 MLOAD PUSH2 0x362 SWAP2 SWAP1 PUSH2 0x1F43 JUMP JUMPDEST PUSH1 0x40 MLOAD DUP1 SWAP2 SUB SWAP1 RETURN JUMPDEST CALLVALUE DUP1 ISZERO PUSH2 0x377 JUMPI PUSH1 0x0 DUP1 REVERT JUMPDEST POP PUSH2 0x380 PUSH2 0x17CF JUMP JUMPDEST PUSH1 0x40 MLOAD PUSH2 0x38D SWAP2 SWAP1 PUSH2 0x1F43 JUMP JUMPDEST PUSH1 0x40 MLOAD DUP1 SWAP2 SUB SWAP1 RETURN JUMPDEST CALLVALUE DUP1 ISZERO PUSH2 0x3A2 JUMPI PUSH1 0x0 DUP1 REVERT JUMPDEST POP PUSH2 0x3AB PUSH2 0x17F5 JUMP JUMPDEST PUSH1 0x40 MLOAD PUSH2 0x3B8 SWAP2 SWAP1 PUSH2 0x1EC6 JUMP JUMPDEST PUSH1 0x40 MLOAD DUP1 SWAP2 SUB SWAP1 RETURN JUMPDEST CALLVALUE DUP1 ISZERO PUSH2 0x3CD JUMPI PUSH1 0x0 DUP1 REVERT JUMPDEST POP PUSH2 0x3D6 PUSH2 0x181F JUMP JUMPDEST PUSH1 0x40 MLOAD PUSH2 0x3E3 SWAP2 SWAP1 PUSH2 0x1E6F JUMP JUMPDEST PUSH1 0x40 MLOAD DUP1 SWAP2 SUB SWAP1 RETURN JUMPDEST CALLVALUE DUP1 ISZERO PUSH2 0x3F8 JUMPI PUSH1 0x0 DUP1 REVERT JUMPDEST POP PUSH2 0x401 PUSH2 0x1825 JUMP JUMPDEST PUSH1 0x40 MLOAD PUSH2 0x40E SWAP2 SWAP1 PUSH2 0x1E05 JUMP JUMPDEST PUSH1 0x40 MLOAD DUP1 SWAP2 SUB SWAP1 RETURN JUMPDEST PUSH2 0x431 PUSH1 0x4 DUP1 CALLDATASIZE SUB DUP2 ADD SWAP1 PUSH2 0x42C SWAP2 SWAP1 PUSH2 0x1E20 JUMP JUMPDEST PUSH2 0x1838 JUMP JUMPDEST STOP JUMPDEST CALLVALUE DUP1 ISZERO PUSH2 0x43F JUMPI PUSH1 0x0 DUP1 REVERT JUMPDEST POP PUSH2 0x45A PUSH1 0x4 DUP1 CALLDATASIZE SUB DUP2 ADD SWAP1 PUSH2 0x455 SWAP2 SWAP1 PUSH2 0x1E8A JUMP JUMPDEST PUSH2 0x1988 JUMP JUMPDEST STOP JUMPDEST CALLVALUE DUP1 ISZERO PUSH2 0x468 JUMPI PUSH1 0x0 DUP1 REVERT JUMPDEST POP PUSH2 0x471 PUSH2 0x1A85 JUMP JUMPDEST PUSH1 0x40 MLOAD PUSH2 0x47E SWAP2 SWAP1 PUSH2 0x1E6F JUMP JUMPDEST PUSH1 0x40 MLOAD DUP1 SWAP2 SUB SWAP1 RETURN JUMPDEST CALLVALUE DUP1 ISZERO PUSH2 0x493 JUMPI PUSH1 0x0 DUP1 REVERT JUMPDEST POP PUSH2 0x49C PUSH2 0x1A8B JUMP JUMPDEST PUSH1 0x40 MLOAD PUSH2 0x4A9 SWAP2 SWAP1 PUSH2 0x204A JUMP JUMPDEST PUSH1 0x40 MLOAD DUP1 SWAP2 SUB SWAP1 RETURN JUMPDEST CALLVALUE DUP1 ISZERO PUSH2 0x4BE JUMPI PUSH1 0x0 DUP1 REVERT JUMPDEST POP PUSH2 0x4C7 PUSH2 0x1AB1 JUMP JUMPDEST PUSH1 0x40 MLOAD PUSH2 0x4D4 SWAP2 SWAP1 PUSH2 0x1EC6 JUMP JUMPDEST PUSH1 0x40 MLOAD DUP1 SWAP2 SUB SWAP1 RETURN JUMPDEST CALLVALUE DUP1 ISZERO PUSH2 0x4E9 JUMPI PUSH1 0x0 DUP1 REVERT JUMPDEST POP PUSH2 0x504 PUSH1 0x4 DUP1 CALLDATASIZE SUB DUP2 ADD SWAP1 PUSH2 0x4FF SWAP2 SWAP1 PUSH2 0x1E8A JUMP JUMPDEST PUSH2 0x1AD5 JUMP JUMPDEST STOP JUMPDEST CALLVALUE DUP1 ISZERO PUSH2 0x512 JUMPI PUSH1 0x0 DUP1 REVERT JUMPDEST POP PUSH2 0x51B PUSH2 0x1BDA JUMP JUMPDEST PUSH1 0x40 MLOAD PUSH2 0x528 SWAP2 SWAP1 PUSH2 0x1E05 JUMP JUMPDEST PUSH1 0x40 MLOAD DUP1 SWAP2 SUB SWAP1 RETURN JUMPDEST PUSH1 0x1 PUSH1 0x0 SWAP1 SLOAD SWAP1 PUSH2 0x100 EXP SWAP1 DIV PUSH20 0xFFFFFFFFFFFFFFFFFFFFFFFFFFFFFFFFFFFFFFFF AND PUSH20 0xFFFFFFFFFFFFFFFFFFFFFFFFFFFFFFFFFFFFFFFF AND DUP4 PUSH20 0xFFFFFFFFFFFFFFFFFFFFFFFFFFFFFFFFFFFFFFFF AND EQ PUSH2 0x5C1 JUMPI PUSH1 0x40 MLOAD PUSH32 0x8C379A000000000000000000000000000000000000000000000000000000000 DUP2 MSTORE PUSH1 0x4 ADD PUSH2 0x5B8 SWAP1 PUSH2 0x20E8 JUMP JUMPDEST PUSH1 0x40 MLOAD DUP1 SWAP2 SUB SWAP1 REVERT JUMPDEST PUSH1 0x9 PUSH1 0x0 SWAP1 SLOAD SWAP1 PUSH2 0x100 EXP SWAP1 DIV PUSH1 0xFF AND ISZERO PUSH2 0x611 JUMPI PUSH1 0x40 MLOAD PUSH32 0x8C379A000000000000000000000000000000000000000000000000000000000 DUP2 MSTORE PUSH1 0x4 ADD PUSH2 0x608 SWAP1 PUSH2 0x217A JUMP JUMPDEST PUSH1 0x40 MLOAD DUP1 SWAP2 SUB SWAP1 REVERT JUMPDEST DUP7 ISZERO PUSH2 0x7B5 JUMPI SELFBALANCE DUP6 GT ISZERO PUSH2 0x65A JUMPI PUSH1 0x40 MLOAD PUSH32 0x8C379A000000000000000000000000000000000000000000000000000000000 DUP2 MSTORE PUSH1 0x4 ADD PUSH2 0x651 SWAP1 PUSH2 0x21E6 JUMP JUMPDEST PUSH1 0x40 MLOAD DUP1 SWAP2 SUB SWAP1 REVERT JUMPDEST PUSH1 0x7 PUSH1 0x14 SWAP1 SLOAD SWAP1 PUSH2 0x100 EXP SWAP1 DIV PUSH1 0xFF AND ISZERO PUSH2 0x6AA JUMPI PUSH1 0x40 MLOAD PUSH32 0x8C379A000000000000000000000000000000000000000000000000000000000 DUP2 MSTORE PUSH1 0x4 ADD PUSH2 0x6A1 SWAP1 PUSH2 0x2278 JUMP JUMPDEST PUSH1 0x40 MLOAD DUP1 SWAP2 SUB SWAP1 REVERT JUMPDEST PUSH1 0x1 PUSH1 0x7 PUSH1 0x14 PUSH2 0x100 EXP DUP2 SLOAD DUP2 PUSH1 0xFF MUL NOT AND SWAP1 DUP4 ISZERO ISZERO MUL OR SWAP1 SSTORE POP PUSH2 0x6EB PUSH1 0x64 PUSH2 0x6DD DUP4 DUP9 PUSH2 0x1BED SWAP1 SWAP2 SWAP1 PUSH4 0xFFFFFFFF AND JUMP JUMPDEST PUSH2 0x1C03 SWAP1 SWAP2 SWAP1 PUSH4 0xFFFFFFFF AND JUMP JUMPDEST PUSH1 0x5 DUP2 SWAP1 SSTORE POP DUP6 PUSH20 0xFFFFFFFFFFFFFFFFFFFFFFFFFFFFFFFFFFFFFFFF AND PUSH2 0x8FC PUSH2 0x720 PUSH1 0x5 SLOAD DUP9 PUSH2 0x1C19 SWAP1 SWAP2 SWAP1 PUSH4 0xFFFFFFFF AND JUMP JUMPDEST SWAP1 DUP2 ISZERO MUL SWAP1 PUSH1 0x40 MLOAD PUSH1 0x0 PUSH1 0x40 MLOAD DUP1 DUP4 SUB DUP2 DUP6 DUP9 DUP9 CALL SWAP4 POP POP POP POP ISZERO DUP1 ISZERO PUSH2 0x74B JUMPI RETURNDATASIZE PUSH1 0x0 DUP1 RETURNDATACOPY RETURNDATASIZE PUSH1 0x0 REVERT JUMPDEST POP DUP2 PUSH20 0xFFFFFFFFFFFFFFFFFFFFFFFFFFFFFFFFFFFFFFFF AND PUSH2 0x8FC PUSH1 0x5 SLOAD SWAP1 DUP2 ISZERO MUL SWAP1 PUSH1 0x40 MLOAD PUSH1 0x0 PUSH1 0x40 MLOAD DUP1 DUP4 SUB DUP2 DUP6 DUP9 DUP9 CALL SWAP4 POP POP POP POP ISZERO DUP1 ISZERO PUSH2 0x794 JUMPI RETURNDATASIZE PUSH1 0x0 DUP1 RETURNDATACOPY RETURNDATASIZE PUSH1 0x0 REVERT JUMPDEST POP PUSH1 0x0 PUSH1 0x7 PUSH1 0x14 PUSH2 0x100 EXP DUP2 SLOAD DUP2 PUSH1 0xFF MUL NOT AND SWAP1 DUP4 ISZERO ISZERO MUL OR SWAP1 SSTORE POP PUSH2 0xA85 JUMP JUMPDEST DUP4 PUSH1 0x7 PUSH1 0x0 PUSH2 0x100 EXP DUP2 SLOAD DUP2 PUSH20 0xFFFFFFFFFFFFFFFFFFFFFFFFFFFFFFFFFFFFFFFF MUL NOT AND SWAP1 DUP4 PUSH20 0xFFFFFFFFFFFFFFFFFFFFFFFFFFFFFFFFFFFFFFFF AND MUL OR SWAP1 SSTORE POP PUSH1 0x7 PUSH1 0x0 SWAP1 SLOAD SWAP1 PUSH2 0x100 EXP SWAP1 DIV PUSH20 0xFFFFFFFFFFFFFFFFFFFFFFFFFFFFFFFFFFFFFFFF AND PUSH20 0xFFFFFFFFFFFFFFFFFFFFFFFFFFFFFFFFFFFFFFFF AND PUSH4 0x70A08231 ADDRESS PUSH1 0x40 MLOAD DUP3 PUSH4 0xFFFFFFFF AND PUSH1 0xE0 SHL DUP2 MSTORE PUSH1 0x4 ADD PUSH2 0x851 SWAP2 SWAP1 PUSH2 0x1EC6 JUMP JUMPDEST PUSH1 0x20 PUSH1 0x40 MLOAD DUP1 DUP4 SUB DUP2 DUP7 GAS STATICCALL ISZERO DUP1 ISZERO PUSH2 0x86E JUMPI RETURNDATASIZE PUSH1 0x0 DUP1 RETURNDATACOPY RETURNDATASIZE PUSH1 0x0 REVERT JUMPDEST POP POP POP POP PUSH1 0x40 MLOAD RETURNDATASIZE PUSH1 0x1F NOT PUSH1 0x1F DUP3 ADD AND DUP3 ADD DUP1 PUSH1 0x40 MSTORE POP DUP2 ADD SWAP1 PUSH2 0x892 SWAP2 SWAP1 PUSH2 0x22AD JUMP JUMPDEST DUP6 GT ISZERO PUSH2 0x8D4 JUMPI PUSH1 0x40 MLOAD PUSH32 0x8C379A000000000000000000000000000000000000000000000000000000000 DUP2 MSTORE PUSH1 0x4 ADD PUSH2 0x8CB SWAP1 PUSH2 0x21E6 JUMP JUMPDEST PUSH1 0x40 MLOAD DUP1 SWAP2 SUB SWAP1 REVERT JUMPDEST PUSH1 0x7 PUSH1 0x14 SWAP1 SLOAD SWAP1 PUSH2 0x100 EXP SWAP1 DIV PUSH1 0xFF AND ISZERO PUSH2 0x924 JUMPI PUSH1 0x40 MLOAD PUSH32 0x8C379A000000000000000000000000000000000000000000000000000000000 DUP2 MSTORE PUSH1 0x4 ADD PUSH2 0x91B SWAP1 PUSH2 0x2278 JUMP JUMPDEST PUSH1 0x40 MLOAD DUP1 SWAP2 SUB SWAP1 REVERT JUMPDEST PUSH1 0x1 PUSH1 0x7 PUSH1 0x14 PUSH2 0x100 EXP DUP2 SLOAD DUP2 PUSH1 0xFF MUL NOT AND SWAP1 DUP4 ISZERO ISZERO MUL OR SWAP1 SSTORE POP PUSH2 0x965 PUSH1 0x64 PUSH2 0x957 DUP4 DUP9 PUSH2 0x1BED SWAP1 SWAP2 SWAP1 PUSH4 0xFFFFFFFF AND JUMP JUMPDEST PUSH2 0x1C03 SWAP1 SWAP2 SWAP1 PUSH4 0xFFFFFFFF AND JUMP JUMPDEST PUSH1 0x5 DUP2 SWAP1 SSTORE POP PUSH1 0x7 PUSH1 0x0 SWAP1 SLOAD SWAP1 PUSH2 0x100 EXP SWAP1 DIV PUSH20 0xFFFFFFFFFFFFFFFFFFFFFFFFFFFFFFFFFFFFFFFF AND PUSH20 0xFFFFFFFFFFFFFFFFFFFFFFFFFFFFFFFFFFFFFFFF AND PUSH4 0xA9059CBB DUP8 PUSH2 0x9BF PUSH1 0x5 SLOAD DUP10 PUSH2 0x1C19 SWAP1 SWAP2 SWAP1 PUSH4 0xFFFFFFFF AND JUMP JUMPDEST PUSH1 0x40 MLOAD DUP4 PUSH4 0xFFFFFFFF AND PUSH1 0xE0 SHL DUP2 MSTORE PUSH1 0x4 ADD PUSH2 0x9DC SWAP3 SWAP2 SWAP1 PUSH2 0x22FB JUMP JUMPDEST PUSH1 0x20 PUSH1 0x40 MLOAD DUP1 DUP4 SUB DUP2 PUSH1 0x0 DUP8 GAS CALL ISZERO DUP1 ISZERO PUSH2 0x9FB JUMPI RETURNDATASIZE PUSH1 0x0 DUP1 RETURNDATACOPY RETURNDATASIZE PUSH1 0x0 REVERT JUMPDEST POP POP POP POP PUSH1 0x40 MLOAD RETURNDATASIZE PUSH1 0x1F NOT PUSH1 0x1F DUP3 ADD AND DUP3 ADD DUP1 PUSH1 0x40 MSTORE POP DUP2 ADD SWAP1 PUSH2 0xA1F SWAP2 SWAP1 PUSH2 0x2339 JUMP JUMPDEST POP DUP2 PUSH20 0xFFFFFFFFFFFFFFFFFFFFFFFFFFFFFFFFFFFFFFFF AND PUSH2 0x8FC PUSH1 0x5 SLOAD SWAP1 DUP2 ISZERO MUL SWAP1 PUSH1 0x40 MLOAD PUSH1 0x0 PUSH1 0x40 MLOAD DUP1 DUP4 SUB DUP2 DUP6 DUP9 DUP9 CALL SWAP4 POP POP POP POP ISZERO DUP1 ISZERO PUSH2 0xA68 JUMPI RETURNDATASIZE PUSH1 0x0 DUP1 RETURNDATACOPY RETURNDATASIZE PUSH1 0x0 REVERT JUMPDEST POP PUSH1 0x0 PUSH1 0x7 PUSH1 0x14 PUSH2 0x100 EXP DUP2 SLOAD DUP2 PUSH1 0xFF MUL NOT AND SWAP1 DUP4 ISZERO ISZERO MUL OR SWAP1 SSTORE POP JUMPDEST POP POP POP POP POP POP POP JUMP JUMPDEST PUSH1 0x9 PUSH1 0x0 SWAP1 SLOAD SWAP1 PUSH2 0x100 EXP SWAP1 DIV PUSH1 0xFF AND DUP2 JUMP JUMPDEST PUSH1 0x0 DUP3 ISZERO PUSH2 0xAB1 JUMPI SELFBALANCE SWAP1 POP PUSH2 0xB91 JUMP JUMPDEST DUP2 PUSH1 0x7 PUSH1 0x0 PUSH2 0x100 EXP DUP2 SLOAD DUP2 PUSH20 0xFFFFFFFFFFFFFFFFFFFFFFFFFFFFFFFFFFFFFFFF MUL NOT AND SWAP1 DUP4 PUSH20 0xFFFFFFFFFFFFFFFFFFFFFFFFFFFFFFFFFFFFFFFF AND MUL OR SWAP1 SSTORE POP PUSH1 0x7 PUSH1 0x0 SWAP1 SLOAD SWAP1 PUSH2 0x100 EXP SWAP1 DIV PUSH20 0xFFFFFFFFFFFFFFFFFFFFFFFFFFFFFFFFFFFFFFFF AND PUSH20 0xFFFFFFFFFFFFFFFFFFFFFFFFFFFFFFFFFFFFFFFF AND PUSH4 0x70A08231 ADDRESS PUSH1 0x40 MLOAD DUP3 PUSH4 0xFFFFFFFF AND PUSH1 0xE0 SHL DUP2 MSTORE PUSH1 0x4 ADD PUSH2 0xB4D SWAP2 SWAP1 PUSH2 0x1EC6 JUMP JUMPDEST PUSH1 0x20 PUSH1 0x40 MLOAD DUP1 DUP4 SUB DUP2 DUP7 GAS STATICCALL ISZERO DUP1 ISZERO PUSH2 0xB6A JUMPI RETURNDATASIZE PUSH1 0x0 DUP1 RETURNDATACOPY RETURNDATASIZE PUSH1 0x0 REVERT JUMPDEST POP POP POP POP PUSH1 0x40 MLOAD RETURNDATASIZE PUSH1 0x1F NOT PUSH1 0x1F DUP3 ADD AND DUP3 ADD DUP1 PUSH1 0x40 MSTORE POP DUP2 ADD SWAP1 PUSH2 0xB8E SWAP2 SWAP1 PUSH2 0x22AD JUMP JUMPDEST SWAP1 POP JUMPDEST SWAP3 SWAP2 POP POP JUMP JUMPDEST PUSH1 0x4 SLOAD DUP2 JUMP JUMPDEST DUP1 PUSH20 0xFFFFFFFFFFFFFFFFFFFFFFFFFFFFFFFFFFFFFFFF AND PUSH1 0x2 PUSH1 0x0 SWAP1 SLOAD SWAP1 PUSH2 0x100 EXP SWAP1 DIV PUSH20 0xFFFFFFFFFFFFFFFFFFFFFFFFFFFFFFFFFFFFFFFF AND PUSH20 0xFFFFFFFFFFFFFFFFFFFFFFFFFFFFFFFFFFFFFFFF AND EQ PUSH2 0xC2D JUMPI PUSH1 0x40 MLOAD PUSH32 0x8C379A000000000000000000000000000000000000000000000000000000000 DUP2 MSTORE PUSH1 0x4 ADD PUSH2 0xC24 SWAP1 PUSH2 0x23D8 JUMP JUMPDEST PUSH1 0x40 MLOAD DUP1 SWAP2 SUB SWAP1 REVERT JUMPDEST PUSH1 0x2 PUSH1 0x14 SWAP1 SLOAD SWAP1 PUSH2 0x100 EXP SWAP1 DIV PUSH1 0xFF AND PUSH2 0xC7C JUMPI PUSH1 0x40 MLOAD PUSH32 0x8C379A000000000000000000000000000000000000000000000000000000000 DUP2 MSTORE PUSH1 0x4 ADD PUSH2 0xC73 SWAP1 PUSH2 0x246A JUMP JUMPDEST PUSH1 0x40 MLOAD DUP1 SWAP2 SUB SWAP1 REVERT JUMPDEST PUSH3 0x15180 PUSH1 0x4 SLOAD PUSH2 0xC8D SWAP2 SWAP1 PUSH2 0x24B9 JUMP JUMPDEST PUSH1 0x3 SLOAD PUSH2 0xC9A SWAP2 SWAP1 PUSH2 0x24FB JUMP JUMPDEST TIMESTAMP LT ISZERO PUSH2 0xCDC JUMPI PUSH1 0x40 MLOAD PUSH32 0x8C379A000000000000000000000000000000000000000000000000000000000 DUP2 MSTORE PUSH1 0x4 ADD PUSH2 0xCD3 SWAP1 PUSH2 0x257B JUMP JUMPDEST PUSH1 0x40 MLOAD DUP1 SWAP2 SUB SWAP1 REVERT JUMPDEST PUSH1 0x2 PUSH1 0x0 SWAP1 SLOAD SWAP1 PUSH2 0x100 EXP SWAP1 DIV PUSH20 0xFFFFFFFFFFFFFFFFFFFFFFFFFFFFFFFFFFFFFFFF AND PUSH1 0x1 PUSH1 0x0 PUSH2 0x100 EXP DUP2 SLOAD DUP2 PUSH20 0xFFFFFFFFFFFFFFFFFFFFFFFFFFFFFFFFFFFFFFFF MUL NOT AND SWAP1 DUP4 PUSH20 0xFFFFFFFFFFFFFFFFFFFFFFFFFFFFFFFFFFFFFFFF AND MUL OR SWAP1 SSTORE POP POP JUMP JUMPDEST PUSH1 0x0 DUP1 PUSH1 0x0 SWAP1 SLOAD SWAP1 PUSH2 0x100 EXP SWAP1 DIV PUSH20 0xFFFFFFFFFFFFFFFFFFFFFFFFFFFFFFFFFFFFFFFF AND SWAP1 POP SWAP1 JUMP JUMPDEST PUSH1 0x1 PUSH1 0x0 SWAP1 SLOAD SWAP1 PUSH2 0x100 EXP SWAP1 DIV PUSH20 0xFFFFFFFFFFFFFFFFFFFFFFFFFFFFFFFFFFFFFFFF AND PUSH20 0xFFFFFFFFFFFFFFFFFFFFFFFFFFFFFFFFFFFFFFFF AND DUP2 PUSH20 0xFFFFFFFFFFFFFFFFFFFFFFFFFFFFFFFFFFFFFFFF AND EQ PUSH2 0xDFB JUMPI PUSH1 0x40 MLOAD PUSH32 0x8C379A000000000000000000000000000000000000000000000000000000000 DUP2 MSTORE PUSH1 0x4 ADD PUSH2 0xDF2 SWAP1 PUSH2 0x260D JUMP JUMPDEST PUSH1 0x40 MLOAD DUP1 SWAP2 SUB SWAP1 REVERT JUMPDEST PUSH1 0x0 PUSH1 0x9 PUSH1 0x0 PUSH2 0x100 EXP DUP2 SLOAD DUP2 PUSH1 0xFF MUL NOT AND SWAP1 DUP4 ISZERO ISZERO MUL OR SWAP1 SSTORE POP PUSH32 0xCA5069937E68FD197927055037F59D7C90BF75AC104E6E375539EF480C3AD6EE DUP2 PUSH1 0x40 MLOAD PUSH2 0xE45 SWAP2 SWAP1 PUSH2 0x1EC6 JUMP JUMPDEST PUSH1 0x40 MLOAD DUP1 SWAP2 SUB SWAP1 LOG1 POP JUMP JUMPDEST PUSH1 0x0 PUSH1 0x2 PUSH1 0x0 SWAP1 SLOAD SWAP1 PUSH2 0x100 EXP SWAP1 DIV PUSH20 0xFFFFFFFFFFFFFFFFFFFFFFFFFFFFFFFFFFFFFFFF AND SWAP1 POP SWAP1 JUMP JUMPDEST DUP1 PUSH20 0xFFFFFFFFFFFFFFFFFFFFFFFFFFFFFFFFFFFFFFFF AND PUSH1 0x1 PUSH1 0x0 SWAP1 SLOAD SWAP1 PUSH2 0x100 EXP SWAP1 DIV PUSH20 0xFFFFFFFFFFFFFFFFFFFFFFFFFFFFFFFFFFFFFFFF AND PUSH20 0xFFFFFFFFFFFFFFFFFFFFFFFFFFFFFFFFFFFFFFFF AND EQ PUSH2 0xF0A JUMPI PUSH1 0x40 MLOAD PUSH32 0x8C379A000000000000000000000000000000000000000000000000000000000 DUP2 MSTORE PUSH1 0x4 ADD PUSH2 0xF01 SWAP1 PUSH2 0x2679 JUMP JUMPDEST PUSH1 0x40 MLOAD DUP1 SWAP2 SUB SWAP1 REVERT JUMPDEST PUSH1 0x7 PUSH1 0x14 SWAP1 SLOAD SWAP1 PUSH2 0x100 EXP SWAP1 DIV PUSH1 0xFF AND ISZERO PUSH2 0xF5A JUMPI PUSH1 0x40 MLOAD PUSH32 0x8C379A000000000000000000000000000000000000000000000000000000000 DUP2 MSTORE PUSH1 0x4 ADD PUSH2 0xF51 SWAP1 PUSH2 0x2278 JUMP JUMPDEST PUSH1 0x40 MLOAD DUP1 SWAP2 SUB SWAP1 REVERT JUMPDEST PUSH1 0x1 PUSH1 0x7 PUSH1 0x14 PUSH2 0x100 EXP DUP2 SLOAD DUP2 PUSH1 0xFF MUL NOT AND SWAP1 DUP4 ISZERO ISZERO MUL OR SWAP1 SSTORE POP DUP3 PUSH1 0x2 PUSH1 0x0 PUSH2 0x100 EXP DUP2 SLOAD DUP2 PUSH20 0xFFFFFFFFFFFFFFFFFFFFFFFFFFFFFFFFFFFFFFFF MUL NOT AND SWAP1 DUP4 PUSH20 0xFFFFFFFFFFFFFFFFFFFFFFFFFFFFFFFFFFFFFFFF AND MUL OR SWAP1 SSTORE POP DUP2 PUSH1 0x4 DUP2 SWAP1 SSTORE POP PUSH1 0x0 PUSH1 0x7 PUSH1 0x14 PUSH2 0x100 EXP DUP2 SLOAD DUP2 PUSH1 0xFF MUL NOT AND SWAP1 DUP4 ISZERO ISZERO MUL OR SWAP1 SSTORE POP POP POP POP JUMP JUMPDEST PUSH1 0x6 PUSH1 0x0 SWAP1 SLOAD SWAP1 PUSH2 0x100 EXP SWAP1 DIV PUSH20 0xFFFFFFFFFFFFFFFFFFFFFFFFFFFFFFFFFFFFFFFF AND DUP2 JUMP JUMPDEST PUSH1 0x1 PUSH1 0x0 SWAP1 SLOAD SWAP1 PUSH2 0x100 EXP SWAP1 DIV PUSH20 0xFFFFFFFFFFFFFFFFFFFFFFFFFFFFFFFFFFFFFFFF AND PUSH20 0xFFFFFFFFFFFFFFFFFFFFFFFFFFFFFFFFFFFFFFFF AND DUP4 PUSH20 0xFFFFFFFFFFFFFFFFFFFFFFFFFFFFFFFFFFFFFFFF AND EQ PUSH2 0x1093 JUMPI PUSH1 0x40 MLOAD PUSH32 0x8C379A000000000000000000000000000000000000000000000000000000000 DUP2 MSTORE PUSH1 0x4 ADD PUSH2 0x108A SWAP1 PUSH2 0x270B JUMP JUMPDEST PUSH1 0x40 MLOAD DUP1 SWAP2 SUB SWAP1 REVERT JUMPDEST PUSH1 0x9 PUSH1 0x0 SWAP1 SLOAD SWAP1 PUSH2 0x100 EXP SWAP1 DIV PUSH1 0xFF AND ISZERO PUSH2 0x10E3 JUMPI PUSH1 0x40 MLOAD PUSH32 0x8C379A000000000000000000000000000000000000000000000000000000000 DUP2 MSTORE PUSH1 0x4 ADD PUSH2 0x10DA SWAP1 PUSH2 0x217A JUMP JUMPDEST PUSH1 0x40 MLOAD DUP1 SWAP2 SUB SWAP1 REVERT JUMPDEST DUP6 ISZERO PUSH2 0x12EC JUMPI PUSH1 0x0 SELFBALANCE GT PUSH2 0x112C JUMPI PUSH1 0x40 MLOAD PUSH32 0x8C379A000000000000000000000000000000000000000000000000000000000 DUP2 MSTORE PUSH1 0x4 ADD PUSH2 0x1123 SWAP1 PUSH2 0x2777 JUMP JUMPDEST PUSH1 0x40 MLOAD DUP1 SWAP2 SUB SWAP1 REVERT JUMPDEST SELFBALANCE DUP6 GT ISZERO PUSH2 0x116F JUMPI PUSH1 0x40 MLOAD PUSH32 0x8C379A000000000000000000000000000000000000000000000000000000000 DUP2 MSTORE PUSH1 0x4 ADD PUSH2 0x1166 SWAP1 PUSH2 0x21E6 JUMP JUMPDEST PUSH1 0x40 MLOAD DUP1 SWAP2 SUB SWAP1 REVERT JUMPDEST PUSH1 0x7 PUSH1 0x14 SWAP1 SLOAD SWAP1 PUSH2 0x100 EXP SWAP1 DIV PUSH1 0xFF AND ISZERO PUSH2 0x11BF JUMPI PUSH1 0x40 MLOAD PUSH32 0x8C379A000000000000000000000000000000000000000000000000000000000 DUP2 MSTORE PUSH1 0x4 ADD PUSH2 0x11B6 SWAP1 PUSH2 0x2278 JUMP JUMPDEST PUSH1 0x40 MLOAD DUP1 SWAP2 SUB SWAP1 REVERT JUMPDEST PUSH1 0x1 PUSH1 0x7 PUSH1 0x14 PUSH2 0x100 EXP DUP2 SLOAD DUP2 PUSH1 0xFF MUL NOT AND SWAP1 DUP4 ISZERO ISZERO MUL OR SWAP1 SSTORE POP PUSH2 0x1200 PUSH1 0x64 PUSH2 0x11F2 DUP4 DUP9 PUSH2 0x1BED SWAP1 SWAP2 SWAP1 PUSH4 0xFFFFFFFF AND JUMP JUMPDEST PUSH2 0x1C03 SWAP1 SWAP2 SWAP1 PUSH4 0xFFFFFFFF AND JUMP JUMPDEST PUSH1 0x5 DUP2 SWAP1 SSTORE POP PUSH1 0x1 PUSH1 0x0 SWAP1 SLOAD SWAP1 PUSH2 0x100 EXP SWAP1 DIV PUSH20 0xFFFFFFFFFFFFFFFFFFFFFFFFFFFFFFFFFFFFFFFF AND PUSH20 0xFFFFFFFFFFFFFFFFFFFFFFFFFFFFFFFFFFFFFFFF AND PUSH2 0x8FC PUSH2 0x1257 PUSH1 0x5 SLOAD DUP9 PUSH2 0x1C19 SWAP1 SWAP2 SWAP1 PUSH4 0xFFFFFFFF AND JUMP JUMPDEST SWAP1 DUP2 ISZERO MUL SWAP1 PUSH1 0x40 MLOAD PUSH1 0x0 PUSH1 0x40 MLOAD DUP1 DUP4 SUB DUP2 DUP6 DUP9 DUP9 CALL SWAP4 POP POP POP POP ISZERO DUP1 ISZERO PUSH2 0x1282 JUMPI RETURNDATASIZE PUSH1 0x0 DUP1 RETURNDATACOPY RETURNDATASIZE PUSH1 0x0 REVERT JUMPDEST POP DUP2 PUSH20 0xFFFFFFFFFFFFFFFFFFFFFFFFFFFFFFFFFFFFFFFF AND PUSH2 0x8FC PUSH1 0x5 SLOAD SWAP1 DUP2 ISZERO MUL SWAP1 PUSH1 0x40 MLOAD PUSH1 0x0 PUSH1 0x40 MLOAD DUP1 DUP4 SUB DUP2 DUP6 DUP9 DUP9 CALL SWAP4 POP POP POP POP ISZERO DUP1 ISZERO PUSH2 0x12CB JUMPI RETURNDATASIZE PUSH1 0x0 DUP1 RETURNDATACOPY RETURNDATASIZE PUSH1 0x0 REVERT JUMPDEST POP PUSH1 0x0 PUSH1 0x7 PUSH1 0x14 PUSH2 0x100 EXP DUP2 SLOAD DUP2 PUSH1 0xFF MUL NOT AND SWAP1 DUP4 ISZERO ISZERO MUL OR SWAP1 SSTORE POP PUSH2 0x16BC JUMP JUMPDEST DUP4 PUSH1 0x7 PUSH1 0x0 PUSH2 0x100 EXP DUP2 SLOAD DUP2 PUSH20 0xFFFFFFFFFFFFFFFFFFFFFFFFFFFFFFFFFFFFFFFF MUL NOT AND SWAP1 DUP4 PUSH20 0xFFFFFFFFFFFFFFFFFFFFFFFFFFFFFFFFFFFFFFFF AND MUL OR SWAP1 SSTORE POP PUSH1 0x0 PUSH1 0x7 PUSH1 0x0 SWAP1 SLOAD SWAP1 PUSH2 0x100 EXP SWAP1 DIV PUSH20 0xFFFFFFFFFFFFFFFFFFFFFFFFFFFFFFFFFFFFFFFF AND PUSH20 0xFFFFFFFFFFFFFFFFFFFFFFFFFFFFFFFFFFFFFFFF AND PUSH4 0x70A08231 ADDRESS PUSH1 0x40 MLOAD DUP3 PUSH4 0xFFFFFFFF AND PUSH1 0xE0 SHL DUP2 MSTORE PUSH1 0x4 ADD PUSH2 0x138A SWAP2 SWAP1 PUSH2 0x1EC6 JUMP JUMPDEST PUSH1 0x20 PUSH1 0x40 MLOAD DUP1 DUP4 SUB DUP2 DUP7 GAS STATICCALL ISZERO DUP1 ISZERO PUSH2 0x13A7 JUMPI RETURNDATASIZE PUSH1 0x0 DUP1 RETURNDATACOPY RETURNDATASIZE PUSH1 0x0 REVERT JUMPDEST POP POP POP POP PUSH1 0x40 MLOAD RETURNDATASIZE PUSH1 0x1F NOT PUSH1 0x1F DUP3 ADD AND DUP3 ADD DUP1 PUSH1 0x40 MSTORE POP DUP2 ADD SWAP1 PUSH2 0x13CB SWAP2 SWAP1 PUSH2 0x22AD JUMP JUMPDEST GT PUSH2 0x140B JUMPI PUSH1 0x40 MLOAD PUSH32 0x8C379A000000000000000000000000000000000000000000000000000000000 DUP2 MSTORE PUSH1 0x4 ADD PUSH2 0x1402 SWAP1 PUSH2 0x2777 JUMP JUMPDEST PUSH1 0x40 MLOAD DUP1 SWAP2 SUB SWAP1 REVERT JUMPDEST PUSH1 0x7 PUSH1 0x0 SWAP1 SLOAD SWAP1 PUSH2 0x100 EXP SWAP1 DIV PUSH20 0xFFFFFFFFFFFFFFFFFFFFFFFFFFFFFFFFFFFFFFFF AND PUSH20 0xFFFFFFFFFFFFFFFFFFFFFFFFFFFFFFFFFFFFFFFF AND PUSH4 0x70A08231 ADDRESS PUSH1 0x40 MLOAD DUP3 PUSH4 0xFFFFFFFF AND PUSH1 0xE0 SHL DUP2 MSTORE PUSH1 0x4 ADD PUSH2 0x1466 SWAP2 SWAP1 PUSH2 0x1EC6 JUMP JUMPDEST PUSH1 0x20 PUSH1 0x40 MLOAD DUP1 DUP4 SUB DUP2 DUP7 GAS STATICCALL ISZERO DUP1 ISZERO PUSH2 0x1483 JUMPI RETURNDATASIZE PUSH1 0x0 DUP1 RETURNDATACOPY RETURNDATASIZE PUSH1 0x0 REVERT JUMPDEST POP POP POP POP PUSH1 0x40 MLOAD RETURNDATASIZE PUSH1 0x1F NOT PUSH1 0x1F DUP3 ADD AND DUP3 ADD DUP1 PUSH1 0x40 MSTORE POP DUP2 ADD SWAP1 PUSH2 0x14A7 SWAP2 SWAP1 PUSH2 0x22AD JUMP JUMPDEST DUP6 GT ISZERO PUSH2 0x14E9 JUMPI PUSH1 0x40 MLOAD PUSH32 0x8C379A000000000000000000000000000000000000000000000000000000000 DUP2 MSTORE PUSH1 0x4 ADD PUSH2 0x14E0 SWAP1 PUSH2 0x21E6 JUMP JUMPDEST PUSH1 0x40 MLOAD DUP1 SWAP2 SUB SWAP1 REVERT JUMPDEST PUSH1 0x7 PUSH1 0x14 SWAP1 SLOAD SWAP1 PUSH2 0x100 EXP SWAP1 DIV PUSH1 0xFF AND ISZERO PUSH2 0x1539 JUMPI PUSH1 0x40 MLOAD PUSH32 0x8C379A000000000000000000000000000000000000000000000000000000000 DUP2 MSTORE PUSH1 0x4 ADD PUSH2 0x1530 SWAP1 PUSH2 0x2278 JUMP JUMPDEST PUSH1 0x40 MLOAD DUP1 SWAP2 SUB SWAP1 REVERT JUMPDEST PUSH1 0x1 PUSH1 0x7 PUSH1 0x14 PUSH2 0x100 EXP DUP2 SLOAD DUP2 PUSH1 0xFF MUL NOT AND SWAP1 DUP4 ISZERO ISZERO MUL OR SWAP1 SSTORE POP PUSH2 0x157A PUSH1 0x64 PUSH2 0x156C DUP4 DUP9 PUSH2 0x1BED SWAP1 SWAP2 SWAP1 PUSH4 0xFFFFFFFF AND JUMP JUMPDEST PUSH2 0x1C03 SWAP1 SWAP2 SWAP1 PUSH4 0xFFFFFFFF AND JUMP JUMPDEST PUSH1 0x5 DUP2 SWAP1 SSTORE POP PUSH1 0x7 PUSH1 0x0 SWAP1 SLOAD SWAP1 PUSH2 0x100 EXP SWAP1 DIV PUSH20 0xFFFFFFFFFFFFFFFFFFFFFFFFFFFFFFFFFFFFFFFF AND PUSH20 0xFFFFFFFFFFFFFFFFFFFFFFFFFFFFFFFFFFFFFFFF AND PUSH4 0xA9059CBB PUSH1 0x1 PUSH1 0x0 SWAP1 SLOAD SWAP1 PUSH2 0x100 EXP SWAP1 DIV PUSH20 0xFFFFFFFFFFFFFFFFFFFFFFFFFFFFFFFFFFFFFFFF AND PUSH2 0x15F6 PUSH1 0x5 SLOAD DUP10 PUSH2 0x1C19 SWAP1 SWAP2 SWAP1 PUSH4 0xFFFFFFFF AND JUMP JUMPDEST PUSH1 0x40 MLOAD DUP4 PUSH4 0xFFFFFFFF AND PUSH1 0xE0 SHL DUP2 MSTORE PUSH1 0x4 ADD PUSH2 0x1613 SWAP3 SWAP2 SWAP1 PUSH2 0x22FB JUMP JUMPDEST PUSH1 0x20 PUSH1 0x40 MLOAD DUP1 DUP4 SUB DUP2 PUSH1 0x0 DUP8 GAS CALL ISZERO DUP1 ISZERO PUSH2 0x1632 JUMPI RETURNDATASIZE PUSH1 0x0 DUP1 RETURNDATACOPY RETURNDATASIZE PUSH1 0x0 REVERT JUMPDEST POP POP POP POP PUSH1 0x40 MLOAD RETURNDATASIZE PUSH1 0x1F NOT PUSH1 0x1F DUP3 ADD AND DUP3 ADD DUP1 PUSH1 0x40 MSTORE POP DUP2 ADD SWAP1 PUSH2 0x1656 SWAP2 SWAP1 PUSH2 0x2339 JUMP JUMPDEST POP DUP2 PUSH20 0xFFFFFFFFFFFFFFFFFFFFFFFFFFFFFFFFFFFFFFFF AND PUSH2 0x8FC PUSH1 0x5 SLOAD SWAP1 DUP2 ISZERO MUL SWAP1 PUSH1 0x40 MLOAD PUSH1 0x0 PUSH1 0x40 MLOAD DUP1 DUP4 SUB DUP2 DUP6 DUP9 DUP9 CALL SWAP4 POP POP POP POP ISZERO DUP1 ISZERO PUSH2 0x169F JUMPI RETURNDATASIZE PUSH1 0x0 DUP1 RETURNDATACOPY RETURNDATASIZE PUSH1 0x0 REVERT JUMPDEST POP PUSH1 0x0 PUSH1 0x7 PUSH1 0x14 PUSH2 0x100 EXP DUP2 SLOAD DUP2 PUSH1 0xFF MUL NOT AND SWAP1 DUP4 ISZERO ISZERO MUL OR SWAP1 SSTORE POP JUMPDEST POP POP POP POP POP POP JUMP JUMPDEST PUSH1 0x1 PUSH1 0x0 SWAP1 SLOAD SWAP1 PUSH2 0x100 EXP SWAP1 DIV PUSH20 0xFFFFFFFFFFFFFFFFFFFFFFFFFFFFFFFFFFFFFFFF AND PUSH20 0xFFFFFFFFFFFFFFFFFFFFFFFFFFFFFFFFFFFFFFFF AND DUP2 PUSH20 0xFFFFFFFFFFFFFFFFFFFFFFFFFFFFFFFFFFFFFFFF AND EQ PUSH2 0x1754 JUMPI PUSH1 0x40 MLOAD PUSH32 0x8C379A000000000000000000000000000000000000000000000000000000000 DUP2 MSTORE PUSH1 0x4 ADD PUSH2 0x174B SWAP1 PUSH2 0x2809 JUMP JUMPDEST PUSH1 0x40 MLOAD DUP1 SWAP2 SUB SWAP1 REVERT JUMPDEST PUSH1 0x1 PUSH1 0x9 PUSH1 0x0 PUSH2 0x100 EXP DUP2 SLOAD DUP2 PUSH1 0xFF MUL NOT AND SWAP1 DUP4 ISZERO ISZERO MUL OR SWAP1 SSTORE POP PUSH32 0xAF85B60D26151EDD11443B704D424DA6C43D0468F2235EBAE3D1904DBC323049 DUP2 PUSH1 0x40 MLOAD PUSH2 0x179E SWAP2 SWAP1 PUSH2 0x1EC6 JUMP JUMPDEST PUSH1 0x40 MLOAD DUP1 SWAP2 SUB SWAP1 LOG1 POP JUMP JUMPDEST PUSH1 0x1 PUSH1 0x0 SWAP1 SLOAD SWAP1 PUSH2 0x100 EXP SWAP1 DIV PUSH20 0xFFFFFFFFFFFFFFFFFFFFFFFFFFFFFFFFFFFFFFFF AND DUP2 JUMP JUMPDEST PUSH1 0x2 PUSH1 0x0 SWAP1 SLOAD SWAP1 PUSH2 0x100 EXP SWAP1 DIV PUSH20 0xFFFFFFFFFFFFFFFFFFFFFFFFFFFFFFFFFFFFFFFF AND DUP2 JUMP JUMPDEST PUSH1 0x0 PUSH1 0x1 PUSH1 0x0 SWAP1 SLOAD SWAP1 PUSH2 0x100 EXP SWAP1 DIV PUSH20 0xFFFFFFFFFFFFFFFFFFFFFFFFFFFFFFFFFFFFFFFF AND SWAP1 POP SWAP1 JUMP JUMPDEST PUSH1 0x8 SLOAD DUP2 JUMP JUMPDEST PUSH1 0x7 PUSH1 0x14 SWAP1 SLOAD SWAP1 PUSH2 0x100 EXP SWAP1 DIV PUSH1 0xFF AND DUP2 JUMP JUMPDEST PUSH1 0x0 CALLVALUE GT PUSH2 0x187B JUMPI PUSH1 0x40 MLOAD PUSH32 0x8C379A000000000000000000000000000000000000000000000000000000000 DUP2 MSTORE PUSH1 0x4 ADD PUSH2 0x1872 SWAP1 PUSH2 0x2875 JUMP JUMPDEST PUSH1 0x40 MLOAD DUP1 SWAP2 SUB SWAP1 REVERT JUMPDEST DUP2 ISZERO PUSH2 0x18A1 JUMPI PUSH2 0x1896 CALLVALUE PUSH1 0x8 SLOAD PUSH2 0x1C2F SWAP1 SWAP2 SWAP1 PUSH4 0xFFFFFFFF AND JUMP JUMPDEST PUSH1 0x8 DUP2 SWAP1 SSTORE POP PUSH2 0x1984 JUMP JUMPDEST DUP1 PUSH1 0x7 PUSH1 0x0 PUSH2 0x100 EXP DUP2 SLOAD DUP2 PUSH20 0xFFFFFFFFFFFFFFFFFFFFFFFFFFFFFFFFFFFFFFFF MUL NOT AND SWAP1 DUP4 PUSH20 0xFFFFFFFFFFFFFFFFFFFFFFFFFFFFFFFFFFFFFFFF AND MUL OR SWAP1 SSTORE POP PUSH1 0x7 PUSH1 0x0 SWAP1 SLOAD SWAP1 PUSH2 0x100 EXP SWAP1 DIV PUSH20 0xFFFFFFFFFFFFFFFFFFFFFFFFFFFFFFFFFFFFFFFF AND PUSH20 0xFFFFFFFFFFFFFFFFFFFFFFFFFFFFFFFFFFFFFFFF AND PUSH4 0xA9059CBB ADDRESS CALLVALUE PUSH1 0x40 MLOAD DUP4 PUSH4 0xFFFFFFFF AND PUSH1 0xE0 SHL DUP2 MSTORE PUSH1 0x4 ADD PUSH2 0x193F SWAP3 SWAP2 SWAP1 PUSH2 0x2895 JUMP JUMPDEST PUSH1 0x20 PUSH1 0x40 MLOAD DUP1 DUP4 SUB DUP2 PUSH1 0x0 DUP8 GAS CALL ISZERO DUP1 ISZERO PUSH2 0x195E JUMPI RETURNDATASIZE PUSH1 0x0 DUP1 RETURNDATACOPY RETURNDATASIZE PUSH1 0x0 REVERT JUMPDEST POP POP POP POP PUSH1 0x40 MLOAD RETURNDATASIZE PUSH1 0x1F NOT PUSH1 0x1F DUP3 ADD AND DUP3 ADD DUP1 PUSH1 0x40 MSTORE POP DUP2 ADD SWAP1 PUSH2 0x1982 SWAP2 SWAP1 PUSH2 0x2339 JUMP JUMPDEST POP JUMPDEST POP POP JUMP JUMPDEST PUSH1 0x1 PUSH1 0x0 SWAP1 SLOAD SWAP1 PUSH2 0x100 EXP SWAP1 DIV PUSH20 0xFFFFFFFFFFFFFFFFFFFFFFFFFFFFFFFFFFFFFFFF AND PUSH20 0xFFFFFFFFFFFFFFFFFFFFFFFFFFFFFFFFFFFFFFFF AND DUP2 PUSH20 0xFFFFFFFFFFFFFFFFFFFFFFFFFFFFFFFFFFFFFFFF AND EQ PUSH2 0x1A18 JUMPI PUSH1 0x40 MLOAD PUSH32 0x8C379A000000000000000000000000000000000000000000000000000000000 DUP2 MSTORE PUSH1 0x4 ADD PUSH2 0x1A0F SWAP1 PUSH2 0x290A JUMP JUMPDEST PUSH1 0x40 MLOAD DUP1 SWAP2 SUB SWAP1 REVERT JUMPDEST PUSH1 0x2 PUSH1 0x14 SWAP1 SLOAD SWAP1 PUSH2 0x100 EXP SWAP1 DIV PUSH1 0xFF AND PUSH2 0x1A67 JUMPI PUSH1 0x40 MLOAD PUSH32 0x8C379A000000000000000000000000000000000000000000000000000000000 DUP2 MSTORE PUSH1 0x4 ADD PUSH2 0x1A5E SWAP1 PUSH2 0x299C JUMP JUMPDEST PUSH1 0x40 MLOAD DUP1 SWAP2 SUB SWAP1 REVERT JUMPDEST PUSH1 0x0 PUSH1 0x2 PUSH1 0x14 PUSH2 0x100 EXP DUP2 SLOAD DUP2 PUSH1 0xFF MUL NOT AND SWAP1 DUP4 ISZERO ISZERO MUL OR SWAP1 SSTORE POP POP JUMP JUMPDEST PUSH1 0x3 SLOAD DUP2 JUMP JUMPDEST PUSH1 0x7 PUSH1 0x0 SWAP1 SLOAD SWAP1 PUSH2 0x100 EXP SWAP1 DIV PUSH20 0xFFFFFFFFFFFFFFFFFFFFFFFFFFFFFFFFFFFFFFFF AND DUP2 JUMP JUMPDEST PUSH1 0x0 DUP1 SLOAD SWAP1 PUSH2 0x100 EXP SWAP1 DIV PUSH20 0xFFFFFFFFFFFFFFFFFFFFFFFFFFFFFFFFFFFFFFFF AND DUP2 JUMP JUMPDEST DUP1 PUSH20 0xFFFFFFFFFFFFFFFFFFFFFFFFFFFFFFFFFFFFFFFF AND PUSH1 0x2 PUSH1 0x0 SWAP1 SLOAD SWAP1 PUSH2 0x100 EXP SWAP1 DIV PUSH20 0xFFFFFFFFFFFFFFFFFFFFFFFFFFFFFFFFFFFFFFFF AND PUSH20 0xFFFFFFFFFFFFFFFFFFFFFFFFFFFFFFFFFFFFFFFF AND EQ PUSH2 0x1B65 JUMPI PUSH1 0x40 MLOAD PUSH32 0x8C379A000000000000000000000000000000000000000000000000000000000 DUP2 MSTORE PUSH1 0x4 ADD PUSH2 0x1B5C SWAP1 PUSH2 0x2A2E JUMP JUMPDEST PUSH1 0x40 MLOAD DUP1 SWAP2 SUB SWAP1 REVERT JUMPDEST PUSH1 0x2 PUSH1 0x14 SWAP1 SLOAD SWAP1 PUSH2 0x100 EXP SWAP1 DIV PUSH1 0xFF AND ISZERO PUSH2 0x1BB5 JUMPI PUSH1 0x40 MLOAD PUSH32 0x8C379A000000000000000000000000000000000000000000000000000000000 DUP2 MSTORE PUSH1 0x4 ADD PUSH2 0x1BAC SWAP1 PUSH2 0x2AC0 JUMP JUMPDEST PUSH1 0x40 MLOAD DUP1 SWAP2 SUB SWAP1 REVERT JUMPDEST PUSH1 0x1 PUSH1 0x2 PUSH1 0x14 PUSH2 0x100 EXP DUP2 SLOAD DUP2 PUSH1 0xFF MUL NOT AND SWAP1 DUP4 ISZERO ISZERO MUL OR SWAP1 SSTORE POP TIMESTAMP PUSH1 0x3 DUP2 SWAP1 SSTORE POP POP JUMP JUMPDEST PUSH1 0x2 PUSH1 0x14 SWAP1 SLOAD SWAP1 PUSH2 0x100 EXP SWAP1 DIV PUSH1 0xFF AND DUP2 JUMP JUMPDEST PUSH1 0x0 DUP2 DUP4 PUSH2 0x1BFB SWAP2 SWAP1 PUSH2 0x24B9 JUMP JUMPDEST SWAP1 POP SWAP3 SWAP2 POP POP JUMP JUMPDEST PUSH1 0x0 DUP2 DUP4 PUSH2 0x1C11 SWAP2 SWAP1 PUSH2 0x2B0F JUMP JUMPDEST SWAP1 POP SWAP3 SWAP2 POP POP JUMP JUMPDEST PUSH1 0x0 DUP2 DUP4 PUSH2 0x1C27 SWAP2 SWAP1 PUSH2 0x2B40 JUMP JUMPDEST SWAP1 POP SWAP3 SWAP2 POP POP JUMP JUMPDEST PUSH1 0x0 DUP2 DUP4 PUSH2 0x1C3D SWAP2 SWAP1 PUSH2 0x24FB JUMP JUMPDEST SWAP1 POP SWAP3 SWAP2 POP POP JUMP JUMPDEST PUSH1 0x0 DUP1 REVERT JUMPDEST PUSH1 0x0 DUP2 ISZERO ISZERO SWAP1 POP SWAP2 SWAP1 POP JUMP JUMPDEST PUSH2 0x1C5F DUP2 PUSH2 0x1C4A JUMP JUMPDEST DUP2 EQ PUSH2 0x1C6A JUMPI PUSH1 0x0 DUP1 REVERT JUMPDEST POP JUMP JUMPDEST PUSH1 0x0 DUP2 CALLDATALOAD SWAP1 POP PUSH2 0x1C7C DUP2 PUSH2 0x1C56 JUMP JUMPDEST SWAP3 SWAP2 POP POP JUMP JUMPDEST PUSH1 0x0 PUSH20 0xFFFFFFFFFFFFFFFFFFFFFFFFFFFFFFFFFFFFFFFF DUP3 AND SWAP1 POP SWAP2 SWAP1 POP JUMP JUMPDEST PUSH1 0x0 PUSH2 0x1CAD DUP3 PUSH2 0x1C82 JUMP JUMPDEST SWAP1 POP SWAP2 SWAP1 POP JUMP JUMPDEST PUSH2 0x1CBD DUP2 PUSH2 0x1CA2 JUMP JUMPDEST DUP2 EQ PUSH2 0x1CC8 JUMPI PUSH1 0x0 DUP1 REVERT JUMPDEST POP JUMP JUMPDEST PUSH1 0x0 DUP2 CALLDATALOAD SWAP1 POP PUSH2 0x1CDA DUP2 PUSH2 0x1CB4 JUMP JUMPDEST SWAP3 SWAP2 POP POP JUMP JUMPDEST PUSH1 0x0 DUP2 SWAP1 POP SWAP2 SWAP1 POP JUMP JUMPDEST PUSH2 0x1CF3 DUP2 PUSH2 0x1CE0 JUMP JUMPDEST DUP2 EQ PUSH2 0x1CFE JUMPI PUSH1 0x0 DUP1 REVERT JUMPDEST POP JUMP JUMPDEST PUSH1 0x0 DUP2 CALLDATALOAD SWAP1 POP PUSH2 0x1D10 DUP2 PUSH2 0x1CEA JUMP JUMPDEST SWAP3 SWAP2 POP POP JUMP JUMPDEST PUSH1 0x0 PUSH2 0x1D21 DUP3 PUSH2 0x1C82 JUMP JUMPDEST SWAP1 POP SWAP2 SWAP1 POP JUMP JUMPDEST PUSH2 0x1D31 DUP2 PUSH2 0x1D16 JUMP JUMPDEST DUP2 EQ PUSH2 0x1D3C JUMPI PUSH1 0x0 DUP1 REVERT JUMPDEST POP JUMP JUMPDEST PUSH1 0x0 DUP2 CALLDATALOAD SWAP1 POP PUSH2 0x1D4E DUP2 PUSH2 0x1D28 JUMP JUMPDEST SWAP3 SWAP2 POP POP JUMP JUMPDEST PUSH1 0x0 DUP1 PUSH1 0x0 DUP1 PUSH1 0x0 DUP1 PUSH1 0x0 PUSH1 0xE0 DUP9 DUP11 SUB SLT ISZERO PUSH2 0x1D73 JUMPI PUSH2 0x1D72 PUSH2 0x1C45 JUMP JUMPDEST JUMPDEST PUSH1 0x0 PUSH2 0x1D81 DUP11 DUP3 DUP12 ADD PUSH2 0x1C6D JUMP JUMPDEST SWAP8 POP POP PUSH1 0x20 PUSH2 0x1D92 DUP11 DUP3 DUP12 ADD PUSH2 0x1CCB JUMP JUMPDEST SWAP7 POP POP PUSH1 0x40 PUSH2 0x1DA3 DUP11 DUP3 DUP12 ADD PUSH2 0x1D01 JUMP JUMPDEST SWAP6 POP POP PUSH1 0x60 PUSH2 0x1DB4 DUP11 DUP3 DUP12 ADD PUSH2 0x1D3F JUMP JUMPDEST SWAP5 POP POP PUSH1 0x80 PUSH2 0x1DC5 DUP11 DUP3 DUP12 ADD PUSH2 0x1D3F JUMP JUMPDEST SWAP4 POP POP PUSH1 0xA0 PUSH2 0x1DD6 DUP11 DUP3 DUP12 ADD PUSH2 0x1CCB JUMP JUMPDEST SWAP3 POP POP PUSH1 0xC0 PUSH2 0x1DE7 DUP11 DUP3 DUP12 ADD PUSH2 0x1D01 JUMP JUMPDEST SWAP2 POP POP SWAP3 SWAP6 SWAP9 SWAP2 SWAP5 SWAP8 POP SWAP3 SWAP6 POP JUMP JUMPDEST PUSH2 0x1DFF DUP2 PUSH2 0x1C4A JUMP JUMPDEST DUP3 MSTORE POP POP JUMP JUMPDEST PUSH1 0x0 PUSH1 0x20 DUP3 ADD SWAP1 POP PUSH2 0x1E1A PUSH1 0x0 DUP4 ADD DUP5 PUSH2 0x1DF6 JUMP JUMPDEST SWAP3 SWAP2 POP POP JUMP JUMPDEST PUSH1 0x0 DUP1 PUSH1 0x40 DUP4 DUP6 SUB SLT ISZERO PUSH2 0x1E37 JUMPI PUSH2 0x1E36 PUSH2 0x1C45 JUMP JUMPDEST JUMPDEST PUSH1 0x0 PUSH2 0x1E45 DUP6 DUP3 DUP7 ADD PUSH2 0x1C6D JUMP JUMPDEST SWAP3 POP POP PUSH1 0x20 PUSH2 0x1E56 DUP6 DUP3 DUP7 ADD PUSH2 0x1D3F JUMP JUMPDEST SWAP2 POP POP SWAP3 POP SWAP3 SWAP1 POP JUMP JUMPDEST PUSH2 0x1E69 DUP2 PUSH2 0x1CE0 JUMP JUMPDEST DUP3 MSTORE POP POP JUMP JUMPDEST PUSH1 0x0 PUSH1 0x20 DUP3 ADD SWAP1 POP PUSH2 0x1E84 PUSH1 0x0 DUP4 ADD DUP5 PUSH2 0x1E60 JUMP JUMPDEST SWAP3 SWAP2 POP POP JUMP JUMPDEST PUSH1 0x0 PUSH1 0x20 DUP3 DUP5 SUB SLT ISZERO PUSH2 0x1EA0 JUMPI PUSH2 0x1E9F PUSH2 0x1C45 JUMP JUMPDEST JUMPDEST PUSH1 0x0 PUSH2 0x1EAE DUP5 DUP3 DUP6 ADD PUSH2 0x1D3F JUMP JUMPDEST SWAP2 POP POP SWAP3 SWAP2 POP POP JUMP JUMPDEST PUSH2 0x1EC0 DUP2 PUSH2 0x1D16 JUMP JUMPDEST DUP3 MSTORE POP POP JUMP JUMPDEST PUSH1 0x0 PUSH1 0x20 DUP3 ADD SWAP1 POP PUSH2 0x1EDB PUSH1 0x0 DUP4 ADD DUP5 PUSH2 0x1EB7 JUMP JUMPDEST SWAP3 SWAP2 POP POP JUMP JUMPDEST PUSH1 0x0 DUP1 PUSH1 0x0 PUSH1 0x60 DUP5 DUP7 SUB SLT ISZERO PUSH2 0x1EFA JUMPI PUSH2 0x1EF9 PUSH2 0x1C45 JUMP JUMPDEST JUMPDEST PUSH1 0x0 PUSH2 0x1F08 DUP7 DUP3 DUP8 ADD PUSH2 0x1CCB JUMP JUMPDEST SWAP4 POP POP PUSH1 0x20 PUSH2 0x1F19 DUP7 DUP3 DUP8 ADD PUSH2 0x1D01 JUMP JUMPDEST SWAP3 POP POP PUSH1 0x40 PUSH2 0x1F2A DUP7 DUP3 DUP8 ADD PUSH2 0x1D3F JUMP JUMPDEST SWAP2 POP POP SWAP3 POP SWAP3 POP SWAP3 JUMP JUMPDEST PUSH2 0x1F3D DUP2 PUSH2 0x1CA2 JUMP JUMPDEST DUP3 MSTORE POP POP JUMP JUMPDEST PUSH1 0x0 PUSH1 0x20 DUP3 ADD SWAP1 POP PUSH2 0x1F58 PUSH1 0x0 DUP4 ADD DUP5 PUSH2 0x1F34 JUMP JUMPDEST SWAP3 SWAP2 POP POP JUMP JUMPDEST PUSH1 0x0 DUP1 PUSH1 0x0 DUP1 PUSH1 0x0 DUP1 PUSH1 0xC0 DUP8 DUP10 SUB SLT ISZERO PUSH2 0x1F7B JUMPI PUSH2 0x1F7A PUSH2 0x1C45 JUMP JUMPDEST JUMPDEST PUSH1 0x0 PUSH2 0x1F89 DUP10 DUP3 DUP11 ADD PUSH2 0x1C6D JUMP JUMPDEST SWAP7 POP POP PUSH1 0x20 PUSH2 0x1F9A DUP10 DUP3 DUP11 ADD PUSH2 0x1D01 JUMP JUMPDEST SWAP6 POP POP PUSH1 0x40 PUSH2 0x1FAB DUP10 DUP3 DUP11 ADD PUSH2 0x1D3F JUMP JUMPDEST SWAP5 POP POP PUSH1 0x60 PUSH2 0x1FBC DUP10 DUP3 DUP11 ADD PUSH2 0x1D3F JUMP JUMPDEST SWAP4 POP POP PUSH1 0x80 PUSH2 0x1FCD DUP10 DUP3 DUP11 ADD PUSH2 0x1CCB JUMP JUMPDEST SWAP3 POP POP PUSH1 0xA0 PUSH2 0x1FDE DUP10 DUP3 DUP11 ADD PUSH2 0x1D01 JUMP JUMPDEST SWAP2 POP POP SWAP3 SWAP6 POP SWAP3 SWAP6 POP SWAP3 SWAP6 JUMP JUMPDEST PUSH1 0x0 DUP2 SWAP1 POP SWAP2 SWAP1 POP JUMP JUMPDEST PUSH1 0x0 PUSH2 0x2010 PUSH2 0x200B PUSH2 0x2006 DUP5 PUSH2 0x1C82 JUMP JUMPDEST PUSH2 0x1FEB JUMP JUMPDEST PUSH2 0x1C82 JUMP JUMPDEST SWAP1 POP SWAP2 SWAP1 POP JUMP JUMPDEST PUSH1 0x0 PUSH2 0x2022 DUP3 PUSH2 0x1FF5 JUMP JUMPDEST SWAP1 POP SWAP2 SWAP1 POP JUMP JUMPDEST PUSH1 0x0 PUSH2 0x2034 DUP3 PUSH2 0x2017 JUMP JUMPDEST SWAP1 POP SWAP2 SWAP1 POP JUMP JUMPDEST PUSH2 0x2044 DUP2 PUSH2 0x2029 JUMP JUMPDEST DUP3 MSTORE POP POP JUMP JUMPDEST PUSH1 0x0 PUSH1 0x20 DUP3 ADD SWAP1 POP PUSH2 0x205F PUSH1 0x0 DUP4 ADD DUP5 PUSH2 0x203B JUMP JUMPDEST SWAP3 SWAP2 POP POP JUMP JUMPDEST PUSH1 0x0 DUP3 DUP3 MSTORE PUSH1 0x20 DUP3 ADD SWAP1 POP SWAP3 SWAP2 POP POP JUMP JUMPDEST PUSH32 0x4F6E6C7920746865206F776E65722063616E207472616E736665722066756E64 PUSH1 0x0 DUP3 ADD MSTORE PUSH32 0x732E000000000000000000000000000000000000000000000000000000000000 PUSH1 0x20 DUP3 ADD MSTORE POP JUMP JUMPDEST PUSH1 0x0 PUSH2 0x20D2 PUSH1 0x22 DUP4 PUSH2 0x2065 JUMP JUMPDEST SWAP2 POP PUSH2 0x20DD DUP3 PUSH2 0x2076 JUMP JUMPDEST PUSH1 0x40 DUP3 ADD SWAP1 POP SWAP2 SWAP1 POP JUMP JUMPDEST PUSH1 0x0 PUSH1 0x20 DUP3 ADD SWAP1 POP DUP2 DUP2 SUB PUSH1 0x0 DUP4 ADD MSTORE PUSH2 0x2101 DUP2 PUSH2 0x20C5 JUMP JUMPDEST SWAP1 POP SWAP2 SWAP1 POP JUMP JUMPDEST PUSH32 0x4163636F756E742069732066726F7A656E2C2063616E6E6F7420776974686472 PUSH1 0x0 DUP3 ADD MSTORE PUSH32 0x61772066756E64732E0000000000000000000000000000000000000000000000 PUSH1 0x20 DUP3 ADD MSTORE POP JUMP JUMPDEST PUSH1 0x0 PUSH2 0x2164 PUSH1 0x29 DUP4 PUSH2 0x2065 JUMP JUMPDEST SWAP2 POP PUSH2 0x216F DUP3 PUSH2 0x2108 JUMP JUMPDEST PUSH1 0x40 DUP3 ADD SWAP1 POP SWAP2 SWAP1 POP JUMP JUMPDEST PUSH1 0x0 PUSH1 0x20 DUP3 ADD SWAP1 POP DUP2 DUP2 SUB PUSH1 0x0 DUP4 ADD MSTORE PUSH2 0x2193 DUP2 PUSH2 0x2157 JUMP JUMPDEST SWAP1 POP SWAP2 SWAP1 POP JUMP JUMPDEST PUSH32 0x496E73756666696369656E742066756E64732E00000000000000000000000000 PUSH1 0x0 DUP3 ADD MSTORE POP JUMP JUMPDEST PUSH1 0x0 PUSH2 0x21D0 PUSH1 0x13 DUP4 PUSH2 0x2065 JUMP JUMPDEST SWAP2 POP PUSH2 0x21DB DUP3 PUSH2 0x219A JUMP JUMPDEST PUSH1 0x20 DUP3 ADD SWAP1 POP SWAP2 SWAP1 POP JUMP JUMPDEST PUSH1 0x0 PUSH1 0x20 DUP3 ADD SWAP1 POP DUP2 DUP2 SUB PUSH1 0x0 DUP4 ADD MSTORE PUSH2 0x21FF DUP2 PUSH2 0x21C3 JUMP JUMPDEST SWAP1 POP SWAP2 SWAP1 POP JUMP JUMPDEST PUSH32 0x5468652066756E6374696F6E20697320616C726561647920696E206578656375 PUSH1 0x0 DUP3 ADD MSTORE PUSH32 0x74696F6E2E000000000000000000000000000000000000000000000000000000 PUSH1 0x20 DUP3 ADD MSTORE POP JUMP JUMPDEST PUSH1 0x0 PUSH2 0x2262 PUSH1 0x25 DUP4 PUSH2 0x2065 JUMP JUMPDEST SWAP2 POP PUSH2 0x226D DUP3 PUSH2 0x2206 JUMP JUMPDEST PUSH1 0x40 DUP3 ADD SWAP1 POP SWAP2 SWAP1 POP JUMP JUMPDEST PUSH1 0x0 PUSH1 0x20 DUP3 ADD SWAP1 POP DUP2 DUP2 SUB PUSH1 0x0 DUP4 ADD MSTORE PUSH2 0x2291 DUP2 PUSH2 0x2255 JUMP JUMPDEST SWAP1 POP SWAP2 SWAP1 POP JUMP JUMPDEST PUSH1 0x0 DUP2 MLOAD SWAP1 POP PUSH2 0x22A7 DUP2 PUSH2 0x1CEA JUMP JUMPDEST SWAP3 SWAP2 POP POP JUMP JUMPDEST PUSH1 0x0 PUSH1 0x20 DUP3 DUP5 SUB SLT ISZERO PUSH2 0x22C3 JUMPI PUSH2 0x22C2 PUSH2 0x1C45 JUMP JUMPDEST JUMPDEST PUSH1 0x0 PUSH2 0x22D1 DUP5 DUP3 DUP6 ADD PUSH2 0x2298 JUMP JUMPDEST SWAP2 POP POP SWAP3 SWAP2 POP POP JUMP JUMPDEST PUSH1 0x0 PUSH2 0x22E5 DUP3 PUSH2 0x2017 JUMP JUMPDEST SWAP1 POP SWAP2 SWAP1 POP JUMP JUMPDEST PUSH2 0x22F5 DUP2 PUSH2 0x22DA JUMP JUMPDEST DUP3 MSTORE POP POP JUMP JUMPDEST PUSH1 0x0 PUSH1 0x40 DUP3 ADD SWAP1 POP PUSH2 0x2310 PUSH1 0x0 DUP4 ADD DUP6 PUSH2 0x22EC JUMP JUMPDEST PUSH2 0x231D PUSH1 0x20 DUP4 ADD DUP5 PUSH2 0x1E60 JUMP JUMPDEST SWAP4 SWAP3 POP POP POP JUMP JUMPDEST PUSH1 0x0 DUP2 MLOAD SWAP1 POP PUSH2 0x2333 DUP2 PUSH2 0x1C56 JUMP JUMPDEST SWAP3 SWAP2 POP POP JUMP JUMPDEST PUSH1 0x0 PUSH1 0x20 DUP3 DUP5 SUB SLT ISZERO PUSH2 0x234F JUMPI PUSH2 0x234E PUSH2 0x1C45 JUMP JUMPDEST JUMPDEST PUSH1 0x0 PUSH2 0x235D DUP5 DUP3 DUP6 ADD PUSH2 0x2324 JUMP JUMPDEST SWAP2 POP POP SWAP3 SWAP2 POP POP JUMP JUMPDEST PUSH32 0x4F6E6C792074686520686569722063616E20636C61696D20746865206163636F PUSH1 0x0 DUP3 ADD MSTORE PUSH32 0x756E742E00000000000000000000000000000000000000000000000000000000 PUSH1 0x20 DUP3 ADD MSTORE POP JUMP JUMPDEST PUSH1 0x0 PUSH2 0x23C2 PUSH1 0x24 DUP4 PUSH2 0x2065 JUMP JUMPDEST SWAP2 POP PUSH2 0x23CD DUP3 PUSH2 0x2366 JUMP JUMPDEST PUSH1 0x40 DUP3 ADD SWAP1 POP SWAP2 SWAP1 POP JUMP JUMPDEST PUSH1 0x0 PUSH1 0x20 DUP3 ADD SWAP1 POP DUP2 DUP2 SUB PUSH1 0x0 DUP4 ADD MSTORE PUSH2 0x23F1 DUP2 PUSH2 0x23B5 JUMP JUMPDEST SWAP1 POP SWAP2 SWAP1 POP JUMP JUMPDEST PUSH32 0x436C61696D2070726F6365737320686173206E6F74206265656E20696E697469 PUSH1 0x0 DUP3 ADD MSTORE PUSH32 0x617465642E000000000000000000000000000000000000000000000000000000 PUSH1 0x20 DUP3 ADD MSTORE POP JUMP JUMPDEST PUSH1 0x0 PUSH2 0x2454 PUSH1 0x25 DUP4 PUSH2 0x2065 JUMP JUMPDEST SWAP2 POP PUSH2 0x245F DUP3 PUSH2 0x23F8 JUMP JUMPDEST PUSH1 0x40 DUP3 ADD SWAP1 POP SWAP2 SWAP1 POP JUMP JUMPDEST PUSH1 0x0 PUSH1 0x20 DUP3 ADD SWAP1 POP DUP2 DUP2 SUB PUSH1 0x0 DUP4 ADD MSTORE PUSH2 0x2483 DUP2 PUSH2 0x2447 JUMP JUMPDEST SWAP1 POP SWAP2 SWAP1 POP JUMP JUMPDEST PUSH32 0x4E487B7100000000000000000000000000000000000000000000000000000000 PUSH1 0x0 MSTORE PUSH1 0x11 PUSH1 0x4 MSTORE PUSH1 0x24 PUSH1 0x0 REVERT JUMPDEST PUSH1 0x0 PUSH2 0x24C4 DUP3 PUSH2 0x1CE0 JUMP JUMPDEST SWAP2 POP PUSH2 0x24CF DUP4 PUSH2 0x1CE0 JUMP JUMPDEST SWAP3 POP DUP3 DUP3 MUL PUSH2 0x24DD DUP2 PUSH2 0x1CE0 JUMP JUMPDEST SWAP2 POP DUP3 DUP3 DIV DUP5 EQ DUP4 ISZERO OR PUSH2 0x24F4 JUMPI PUSH2 0x24F3 PUSH2 0x248A JUMP JUMPDEST JUMPDEST POP SWAP3 SWAP2 POP POP JUMP JUMPDEST PUSH1 0x0 PUSH2 0x2506 DUP3 PUSH2 0x1CE0 JUMP JUMPDEST SWAP2 POP PUSH2 0x2511 DUP4 PUSH2 0x1CE0 JUMP JUMPDEST SWAP3 POP DUP3 DUP3 ADD SWAP1 POP DUP1 DUP3 GT ISZERO PUSH2 0x2529 JUMPI PUSH2 0x2528 PUSH2 0x248A JUMP JUMPDEST JUMPDEST SWAP3 SWAP2 POP POP JUMP JUMPDEST PUSH32 0x436C61696D2064656C617920686173206E6F7420657870697265642E00000000 PUSH1 0x0 DUP3 ADD MSTORE POP JUMP JUMPDEST PUSH1 0x0 PUSH2 0x2565 PUSH1 0x1C DUP4 PUSH2 0x2065 JUMP JUMPDEST SWAP2 POP PUSH2 0x2570 DUP3 PUSH2 0x252F JUMP JUMPDEST PUSH1 0x20 DUP3 ADD SWAP1 POP SWAP2 SWAP1 POP JUMP JUMPDEST PUSH1 0x0 PUSH1 0x20 DUP3 ADD SWAP1 POP DUP2 DUP2 SUB PUSH1 0x0 DUP4 ADD MSTORE PUSH2 0x2594 DUP2 PUSH2 0x2558 JUMP JUMPDEST SWAP1 POP SWAP2 SWAP1 POP JUMP JUMPDEST PUSH32 0x4F6E6C7920746865206F776E65722063616E20756E667265657A652074686520 PUSH1 0x0 DUP3 ADD MSTORE PUSH32 0x6163636F756E742E000000000000000000000000000000000000000000000000 PUSH1 0x20 DUP3 ADD MSTORE POP JUMP JUMPDEST PUSH1 0x0 PUSH2 0x25F7 PUSH1 0x28 DUP4 PUSH2 0x2065 JUMP JUMPDEST SWAP2 POP PUSH2 0x2602 DUP3 PUSH2 0x259B JUMP JUMPDEST PUSH1 0x40 DUP3 ADD SWAP1 POP SWAP2 SWAP1 POP JUMP JUMPDEST PUSH1 0x0 PUSH1 0x20 DUP3 ADD SWAP1 POP DUP2 DUP2 SUB PUSH1 0x0 DUP4 ADD MSTORE PUSH2 0x2626 DUP2 PUSH2 0x25EA JUMP JUMPDEST SWAP1 POP SWAP2 SWAP1 POP JUMP JUMPDEST PUSH32 0x4F6E6C7920746865206F776E65722063616E207365742074686520686569722E PUSH1 0x0 DUP3 ADD MSTORE POP JUMP JUMPDEST PUSH1 0x0 PUSH2 0x2663 PUSH1 0x20 DUP4 PUSH2 0x2065 JUMP JUMPDEST SWAP2 POP PUSH2 0x266E DUP3 PUSH2 0x262D JUMP JUMPDEST PUSH1 0x20 DUP3 ADD SWAP1 POP SWAP2 SWAP1 POP JUMP JUMPDEST PUSH1 0x0 PUSH1 0x20 DUP3 ADD SWAP1 POP DUP2 DUP2 SUB PUSH1 0x0 DUP4 ADD MSTORE PUSH2 0x2692 DUP2 PUSH2 0x2656 JUMP JUMPDEST SWAP1 POP SWAP2 SWAP1 POP JUMP JUMPDEST PUSH32 0x4F6E6C7920746865206F776E65722063616E2077697468647261772066756E64 PUSH1 0x0 DUP3 ADD MSTORE PUSH32 0x732E000000000000000000000000000000000000000000000000000000000000 PUSH1 0x20 DUP3 ADD MSTORE POP JUMP JUMPDEST PUSH1 0x0 PUSH2 0x26F5 PUSH1 0x22 DUP4 PUSH2 0x2065 JUMP JUMPDEST SWAP2 POP PUSH2 0x2700 DUP3 PUSH2 0x2699 JUMP JUMPDEST PUSH1 0x40 DUP3 ADD SWAP1 POP SWAP2 SWAP1 POP JUMP JUMPDEST PUSH1 0x0 PUSH1 0x20 DUP3 ADD SWAP1 POP DUP2 DUP2 SUB PUSH1 0x0 DUP4 ADD MSTORE PUSH2 0x2724 DUP2 PUSH2 0x26E8 JUMP JUMPDEST SWAP1 POP SWAP2 SWAP1 POP JUMP JUMPDEST PUSH32 0x546865726520617265206E6F2066756E647320746F2077697468647261772E00 PUSH1 0x0 DUP3 ADD MSTORE POP JUMP JUMPDEST PUSH1 0x0 PUSH2 0x2761 PUSH1 0x1F DUP4 PUSH2 0x2065 JUMP JUMPDEST SWAP2 POP PUSH2 0x276C DUP3 PUSH2 0x272B JUMP JUMPDEST PUSH1 0x20 DUP3 ADD SWAP1 POP SWAP2 SWAP1 POP JUMP JUMPDEST PUSH1 0x0 PUSH1 0x20 DUP3 ADD SWAP1 POP DUP2 DUP2 SUB PUSH1 0x0 DUP4 ADD MSTORE PUSH2 0x2790 DUP2 PUSH2 0x2754 JUMP JUMPDEST SWAP1 POP SWAP2 SWAP1 POP JUMP JUMPDEST PUSH32 0x4F6E6C7920746865206F776E65722063616E20667265657A6520746865206163 PUSH1 0x0 DUP3 ADD MSTORE PUSH32 0x636F756E742E0000000000000000000000000000000000000000000000000000 PUSH1 0x20 DUP3 ADD MSTORE POP JUMP JUMPDEST PUSH1 0x0 PUSH2 0x27F3 PUSH1 0x26 DUP4 PUSH2 0x2065 JUMP JUMPDEST SWAP2 POP PUSH2 0x27FE DUP3 PUSH2 0x2797 JUMP JUMPDEST PUSH1 0x40 DUP3 ADD SWAP1 POP SWAP2 SWAP1 POP JUMP JUMPDEST PUSH1 0x0 PUSH1 0x20 DUP3 ADD SWAP1 POP DUP2 DUP2 SUB PUSH1 0x0 DUP4 ADD MSTORE PUSH2 0x2822 DUP2 PUSH2 0x27E6 JUMP JUMPDEST SWAP1 POP SWAP2 SWAP1 POP JUMP JUMPDEST PUSH32 0x43616E6E6F74206465706F7369742030206F72206C6573732E00000000000000 PUSH1 0x0 DUP3 ADD MSTORE POP JUMP JUMPDEST PUSH1 0x0 PUSH2 0x285F PUSH1 0x19 DUP4 PUSH2 0x2065 JUMP JUMPDEST SWAP2 POP PUSH2 0x286A DUP3 PUSH2 0x2829 JUMP JUMPDEST PUSH1 0x20 DUP3 ADD SWAP1 POP SWAP2 SWAP1 POP JUMP JUMPDEST PUSH1 0x0 PUSH1 0x20 DUP3 ADD SWAP1 POP DUP2 DUP2 SUB PUSH1 0x0 DUP4 ADD MSTORE PUSH2 0x288E DUP2 PUSH2 0x2852 JUMP JUMPDEST SWAP1 POP SWAP2 SWAP1 POP JUMP JUMPDEST PUSH1 0x0 PUSH1 0x40 DUP3 ADD SWAP1 POP PUSH2 0x28AA PUSH1 0x0 DUP4 ADD DUP6 PUSH2 0x1EB7 JUMP JUMPDEST PUSH2 0x28B7 PUSH1 0x20 DUP4 ADD DUP5 PUSH2 0x1E60 JUMP JUMPDEST SWAP4 SWAP3 POP POP POP JUMP JUMPDEST PUSH32 0x4F6E6C7920746865206F776E65722063616E2073746F70206120636C61696D2E PUSH1 0x0 DUP3 ADD MSTORE POP JUMP JUMPDEST PUSH1 0x0 PUSH2 0x28F4 PUSH1 0x20 DUP4 PUSH2 0x2065 JUMP JUMPDEST SWAP2 POP PUSH2 0x28FF DUP3 PUSH2 0x28BE JUMP JUMPDEST PUSH1 0x20 DUP3 ADD SWAP1 POP SWAP2 SWAP1 POP JUMP JUMPDEST PUSH1 0x0 PUSH1 0x20 DUP3 ADD SWAP1 POP DUP2 DUP2 SUB PUSH1 0x0 DUP4 ADD MSTORE PUSH2 0x2923 DUP2 PUSH2 0x28E7 JUMP JUMPDEST SWAP1 POP SWAP2 SWAP1 POP JUMP JUMPDEST PUSH32 0x5468657265206973206E6F2061637469766520636C61696D20746F2073746F70 PUSH1 0x0 DUP3 ADD MSTORE PUSH32 0x2E00000000000000000000000000000000000000000000000000000000000000 PUSH1 0x20 DUP3 ADD MSTORE POP JUMP JUMPDEST PUSH1 0x0 PUSH2 0x2986 PUSH1 0x21 DUP4 PUSH2 0x2065 JUMP JUMPDEST SWAP2 POP PUSH2 0x2991 DUP3 PUSH2 0x292A JUMP JUMPDEST PUSH1 0x40 DUP3 ADD SWAP1 POP SWAP2 SWAP1 POP JUMP JUMPDEST PUSH1 0x0 PUSH1 0x20 DUP3 ADD SWAP1 POP DUP2 DUP2 SUB PUSH1 0x0 DUP4 ADD MSTORE PUSH2 0x29B5 DUP2 PUSH2 0x2979 JUMP JUMPDEST SWAP1 POP SWAP2 SWAP1 POP JUMP JUMPDEST PUSH32 0x4F6E6C792074686520686569722063616E20696E697469617465207468652063 PUSH1 0x0 DUP3 ADD MSTORE PUSH32 0x6C61696D2070726F636573732E00000000000000000000000000000000000000 PUSH1 0x20 DUP3 ADD MSTORE POP JUMP JUMPDEST PUSH1 0x0 PUSH2 0x2A18 PUSH1 0x2D DUP4 PUSH2 0x2065 JUMP JUMPDEST SWAP2 POP PUSH2 0x2A23 DUP3 PUSH2 0x29BC JUMP JUMPDEST PUSH1 0x40 DUP3 ADD SWAP1 POP SWAP2 SWAP1 POP JUMP JUMPDEST PUSH1 0x0 PUSH1 0x20 DUP3 ADD SWAP1 POP DUP2 DUP2 SUB PUSH1 0x0 DUP4 ADD MSTORE PUSH2 0x2A47 DUP2 PUSH2 0x2A0B JUMP JUMPDEST SWAP1 POP SWAP2 SWAP1 POP JUMP JUMPDEST PUSH32 0x436C61696D2070726F6365737320697320616C726561647920696E2070726F67 PUSH1 0x0 DUP3 ADD MSTORE PUSH32 0x726573732E000000000000000000000000000000000000000000000000000000 PUSH1 0x20 DUP3 ADD MSTORE POP JUMP JUMPDEST PUSH1 0x0 PUSH2 0x2AAA PUSH1 0x25 DUP4 PUSH2 0x2065 JUMP JUMPDEST SWAP2 POP PUSH2 0x2AB5 DUP3 PUSH2 0x2A4E JUMP JUMPDEST PUSH1 0x40 DUP3 ADD SWAP1 POP SWAP2 SWAP1 POP JUMP JUMPDEST PUSH1 0x0 PUSH1 0x20 DUP3 ADD SWAP1 POP DUP2 DUP2 SUB PUSH1 0x0 DUP4 ADD MSTORE PUSH2 0x2AD9 DUP2 PUSH2 0x2A9D JUMP JUMPDEST SWAP1 POP SWAP2 SWAP1 POP JUMP JUMPDEST PUSH32 0x4E487B7100000000000000000000000000000000000000000000000000000000 PUSH1 0x0 MSTORE PUSH1 0x12 PUSH1 0x4 MSTORE PUSH1 0x24 PUSH1 0x0 REVERT JUMPDEST PUSH1 0x0 PUSH2 0x2B1A DUP3 PUSH2 0x1CE0 JUMP JUMPDEST SWAP2 POP PUSH2 0x2B25 DUP4 PUSH2 0x1CE0 JUMP JUMPDEST SWAP3 POP DUP3 PUSH2 0x2B35 JUMPI PUSH2 0x2B34 PUSH2 0x2AE0 JUMP JUMPDEST JUMPDEST DUP3 DUP3 DIV SWAP1 POP SWAP3 SWAP2 POP POP JUMP JUMPDEST PUSH1 0x0 PUSH2 0x2B4B DUP3 PUSH2 0x1CE0 JUMP JUMPDEST SWAP2 POP PUSH2 0x2B56 DUP4 PUSH2 0x1CE0 JUMP JUMPDEST SWAP3 POP DUP3 DUP3 SUB SWAP1 POP DUP2 DUP2 GT ISZERO PUSH2 0x2B6E JUMPI PUSH2 0x2B6D PUSH2 0x248A JUMP JUMPDEST JUMPDEST SWAP3 SWAP2 POP POP JUMP INVALID LOG2 PUSH5 0x6970667358 0x22 SLT KECCAK256 MLOAD LOG0 COINBASE ADDRESS CALLCODE DUP10 0xCC MSTORE SGT 0x1E 0xAD PUSH27 0xBEDB86ED0672E7B07B9C252208D610D7172E212864736F6C634300 ADDMOD GT STOP CALLER "
				},
				"gasEstimates": {
					"creation": {
						"codeDepositCost": "2235600",
						"executionCost": "infinite",
						"totalCost": "infinite"
					},
					"external": {
						"ERC20()": "infinite",
						"ERC20Token()": "2603",
						"balanceOf(bool,address)": "infinite",
						"claim(address)": "infinite",
						"claimDelay()": "2519",
						"claimInProgress()": "2653",
						"claimInitiatedAt()": "2473",
						"deployer()": "2599",
						"deposit(bool,address)": "infinite",
						"freeze(address)": "infinite",
						"frozen()": "2517",
						"heir()": "2559",
						"initiateClaim(address)": "51372",
						"mutex()": "2632",
						"owner()": "2537",
						"returnDeployer()": "2656",
						"returnHeir()": "2567",
						"returnOwner()": "2589",
						"setHeir(address,uint256,address)": "infinite",
						"stopClaim(address)": "29168",
						"tokenBalance()": "2518",
						"transferFunds(bool,address,uint256,address,address,address,uint256)": "infinite",
						"unfreeze(address)": "infinite",
						"withdraw(bool,uint256,address,address,address,uint256)": "infinite"
					}
				},
				"methodIdentifiers": {
					"ERC20()": "cc4aa204",
					"ERC20Token()": "7a80760e",
					"balanceOf(bool,address)": "1903b431",
					"claim(address)": "1e83409a",
					"claimDelay()": "1c8ec299",
					"claimInProgress()": "faedd18e",
					"claimInitiatedAt()": "c7983e20",
					"deployer()": "d5f39488",
					"deposit(bool,address)": "b486b8c9",
					"freeze(address)": "8d1fdf2f",
					"frozen()": "054f7d9c",
					"heir()": "91f2ebb8",
					"initiateClaim(address)": "f2b5eea7",
					"mutex()": "a5720770",
					"owner()": "8da5cb5b",
					"returnDeployer()": "362bb2ac",
					"returnHeir()": "56af4f75",
					"returnOwner()": "94a927fe",
					"setHeir(address,uint256,address)": "6e1a7373",
					"stopClaim(address)": "b7d1d98e",
					"tokenBalance()": "9e1a4d19",
					"transferFunds(bool,address,uint256,address,address,address,uint256)": "0171b6da",
					"unfreeze(address)": "45c8b1a6",
					"withdraw(bool,uint256,address,address,address,uint256)": "87c2797d"
				}
			},
			"storageLayout": {
				"storage": [
					{
						"astId": 5,
						"contract": "contract/HeirAccount.sol:Accounts",
						"label": "deployer",
						"offset": 0,
						"slot": "0",
						"type": "t_address"
					},
					{
						"astId": 7,
						"contract": "contract/HeirAccount.sol:Accounts",
						"label": "owner",
						"offset": 0,
						"slot": "1",
						"type": "t_address_payable"
					},
					{
						"astId": 9,
						"contract": "contract/HeirAccount.sol:Accounts",
						"label": "heir",
						"offset": 0,
						"slot": "2",
						"type": "t_address_payable"
					},
					{
						"astId": 11,
						"contract": "contract/HeirAccount.sol:Accounts",
						"label": "claimInProgress",
						"offset": 20,
						"slot": "2",
						"type": "t_bool"
					},
					{
						"astId": 13,
						"contract": "contract/HeirAccount.sol:Accounts",
						"label": "claimInitiatedAt",
						"offset": 0,
						"slot": "3",
						"type": "t_uint256"
					},
					{
						"astId": 15,
						"contract": "contract/HeirAccount.sol:Accounts",
						"label": "claimDelay",
						"offset": 0,
						"slot": "4",
						"type": "t_uint256"
					},
					{
						"astId": 17,
						"contract": "contract/HeirAccount.sol:Accounts",
						"label": "fee",
						"offset": 0,
						"slot": "5",
						"type": "t_uint256"
					},
					{
						"astId": 19,
						"contract": "contract/HeirAccount.sol:Accounts",
						"label": "ERC20Token",
						"offset": 0,
						"slot": "6",
						"type": "t_address_payable"
					},
					{
						"astId": 22,
						"contract": "contract/HeirAccount.sol:Accounts",
						"label": "ERC20",
						"offset": 0,
						"slot": "7",
						"type": "t_contract(IERC20)713"
					},
					{
						"astId": 28,
						"contract": "contract/HeirAccount.sol:Accounts",
						"label": "mutex",
						"offset": 20,
						"slot": "7",
						"type": "t_bool"
					},
					{
						"astId": 30,
						"contract": "contract/HeirAccount.sol:Accounts",
						"label": "tokenBalance",
						"offset": 0,
						"slot": "8",
						"type": "t_uint256"
					},
					{
						"astId": 33,
						"contract": "contract/HeirAccount.sol:Accounts",
						"label": "frozen",
						"offset": 0,
						"slot": "9",
						"type": "t_bool"
					}
				],
				"types": {
					"t_address": {
						"encoding": "inplace",
						"label": "address",
						"numberOfBytes": "20"
					},
					"t_address_payable": {
						"encoding": "inplace",
						"label": "address payable",
						"numberOfBytes": "20"
					},
					"t_bool": {
						"encoding": "inplace",
						"label": "bool",
						"numberOfBytes": "1"
					},
					"t_contract(IERC20)713": {
						"encoding": "inplace",
						"label": "contract IERC20",
						"numberOfBytes": "20"
					},
					"t_uint256": {
						"encoding": "inplace",
						"label": "uint256",
						"numberOfBytes": "32"
					}
				}
			},
			"userdoc": {
				"kind": "user",
				"methods": {},
				"version": 1
			}
		}
	}
}