{
	"contract/HeirAccount.sol": {
		"Accounts": {
			"abi": [
				{
					"inputs": [
						{
							"internalType": "address payable",
							"name": "_owner",
							"type": "address"
						}
					],
					"stateMutability": "nonpayable",
					"type": "constructor"
				},
				{
					"anonymous": false,
					"inputs": [
						{
							"indexed": true,
							"internalType": "address",
							"name": "contractAddress",
							"type": "address"
						},
						{
							"indexed": true,
							"internalType": "address",
							"name": "from",
							"type": "address"
						},
						{
							"indexed": false,
							"internalType": "uint256",
							"name": "amount",
							"type": "uint256"
						}
					],
					"name": "Deposit",
					"type": "event"
				},
				{
					"anonymous": false,
					"inputs": [
						{
							"indexed": false,
							"internalType": "address",
							"name": "account",
							"type": "address"
						}
					],
					"name": "Paused",
					"type": "event"
				},
				{
					"anonymous": false,
					"inputs": [
						{
							"indexed": false,
							"internalType": "address",
							"name": "account",
							"type": "address"
						}
					],
					"name": "Unpaused",
					"type": "event"
				},
				{
					"stateMutability": "payable",
					"type": "fallback"
				},
				{
					"inputs": [],
					"name": "ERC20",
					"outputs": [
						{
							"internalType": "contract IERC20",
							"name": "",
							"type": "address"
						}
					],
					"stateMutability": "view",
					"type": "function"
				},
				{
					"inputs": [],
					"name": "ERC20Token",
					"outputs": [
						{
							"internalType": "address payable",
							"name": "",
							"type": "address"
						}
					],
					"stateMutability": "view",
					"type": "function"
				},
				{
					"inputs": [
						{
							"internalType": "bool",
							"name": "_isCelo",
							"type": "bool"
						},
						{
							"internalType": "address",
							"name": "_ERC20Address",
							"type": "address"
						}
					],
					"name": "balanceOf",
					"outputs": [
						{
							"internalType": "uint256",
							"name": "",
							"type": "uint256"
						}
					],
					"stateMutability": "view",
					"type": "function"
				},
				{
					"inputs": [
						{
							"internalType": "address",
							"name": "_sender",
							"type": "address"
						}
					],
					"name": "claim",
					"outputs": [],
					"stateMutability": "nonpayable",
					"type": "function"
				},
				{
					"inputs": [],
					"name": "claimDelay",
					"outputs": [
						{
							"internalType": "uint256",
							"name": "",
							"type": "uint256"
						}
					],
					"stateMutability": "view",
					"type": "function"
				},
				{
					"inputs": [],
					"name": "claimInProgress",
					"outputs": [
						{
							"internalType": "bool",
							"name": "",
							"type": "bool"
						}
					],
					"stateMutability": "view",
					"type": "function"
				},
				{
					"inputs": [],
					"name": "claimInitiatedAt",
					"outputs": [
						{
							"internalType": "uint256",
							"name": "",
							"type": "uint256"
						}
					],
					"stateMutability": "view",
					"type": "function"
				},
				{
					"inputs": [],
					"name": "deployer",
					"outputs": [
						{
							"internalType": "address",
							"name": "",
							"type": "address"
						}
					],
					"stateMutability": "view",
					"type": "function"
				},
				{
					"inputs": [],
					"name": "heir",
					"outputs": [
						{
							"internalType": "address payable",
							"name": "",
							"type": "address"
						}
					],
					"stateMutability": "view",
					"type": "function"
				},
				{
					"inputs": [
						{
							"internalType": "address",
							"name": "_sender",
							"type": "address"
						}
					],
					"name": "initiateClaim",
					"outputs": [],
					"stateMutability": "nonpayable",
					"type": "function"
				},
				{
					"inputs": [],
					"name": "owner",
					"outputs": [
						{
							"internalType": "address payable",
							"name": "",
							"type": "address"
						}
					],
					"stateMutability": "view",
					"type": "function"
				},
				{
					"inputs": [
						{
							"internalType": "address",
							"name": "_sender",
							"type": "address"
						}
					],
					"name": "pause",
					"outputs": [],
					"stateMutability": "nonpayable",
					"type": "function"
				},
				{
					"inputs": [],
					"name": "paused",
					"outputs": [
						{
							"internalType": "bool",
							"name": "",
							"type": "bool"
						}
					],
					"stateMutability": "view",
					"type": "function"
				},
				{
					"inputs": [],
					"name": "returnDeployer",
					"outputs": [
						{
							"internalType": "address",
							"name": "",
							"type": "address"
						}
					],
					"stateMutability": "view",
					"type": "function"
				},
				{
					"inputs": [],
					"name": "returnHeir",
					"outputs": [
						{
							"internalType": "address",
							"name": "",
							"type": "address"
						}
					],
					"stateMutability": "view",
					"type": "function"
				},
				{
					"inputs": [],
					"name": "returnOwner",
					"outputs": [
						{
							"internalType": "address",
							"name": "",
							"type": "address"
						}
					],
					"stateMutability": "view",
					"type": "function"
				},
				{
					"inputs": [],
					"name": "returnTransferFee",
					"outputs": [
						{
							"internalType": "uint256",
							"name": "",
							"type": "uint256"
						}
					],
					"stateMutability": "view",
					"type": "function"
				},
				{
					"inputs": [
						{
							"internalType": "address payable",
							"name": "_heir",
							"type": "address"
						},
						{
							"internalType": "uint256",
							"name": "_claimDelay",
							"type": "uint256"
						},
						{
							"internalType": "address",
							"name": "_sender",
							"type": "address"
						}
					],
					"name": "setHeir",
					"outputs": [],
					"stateMutability": "nonpayable",
					"type": "function"
				},
				{
					"inputs": [
						{
							"internalType": "address",
							"name": "_sender",
							"type": "address"
						}
					],
					"name": "stopClaim",
					"outputs": [],
					"stateMutability": "nonpayable",
					"type": "function"
				},
				{
					"inputs": [],
					"name": "tokenBalance",
					"outputs": [
						{
							"internalType": "uint256",
							"name": "",
							"type": "uint256"
						}
					],
					"stateMutability": "view",
					"type": "function"
				},
				{
					"inputs": [
						{
							"internalType": "bool",
							"name": "_isWithdraw",
							"type": "bool"
						},
						{
							"internalType": "bool",
							"name": "_isCelo",
							"type": "bool"
						},
						{
							"internalType": "address payable",
							"name": "_recipient",
							"type": "address"
						},
						{
							"internalType": "uint256",
							"name": "_amount",
							"type": "uint256"
						},
						{
							"internalType": "address",
							"name": "_ERC20Address",
							"type": "address"
						},
						{
							"internalType": "address",
							"name": "_sender",
							"type": "address"
						}
					],
					"name": "transferOrWithdraw",
					"outputs": [],
					"stateMutability": "nonpayable",
					"type": "function"
				},
				{
					"inputs": [
						{
							"internalType": "address",
							"name": "_sender",
							"type": "address"
						}
					],
					"name": "unpause",
					"outputs": [],
					"stateMutability": "nonpayable",
					"type": "function"
				},
				{
					"stateMutability": "payable",
					"type": "receive"
				}
			],
			"devdoc": {
				"kind": "dev",
				"methods": {
					"paused()": {
						"details": "Returns true if the contract is paused, and false otherwise."
					}
				},
				"version": 1
			},
			"evm": {
				"assembly": "    /* \"contract/HeirAccount.sol\":921:5947  contract Accounts is Pausable, ReentrancyGuard {... */\n  mstore(0x40, 0x80)\n    /* \"contract/HeirAccount.sol\":2200:2405  constructor(address payable _owner) {... */\n  callvalue\n  dup1\n  iszero\n  tag_1\n  jumpi\n  0x00\n  dup1\n  revert\ntag_1:\n  pop\n  mload(0x40)\n  sub(codesize, bytecodeSize)\n  dup1\n  bytecodeSize\n  dup4\n  codecopy\n  dup2\n  dup2\n  add\n  0x40\n  mstore\n  dup2\n  add\n  swap1\n  tag_2\n  swap2\n  swap1\n  tag_3\n  jump\t// in\ntag_2:\n    /* \"@openzeppelin/contracts/security/Pausable.sol\":1006:1011  false */\n  0x00\n    /* \"@openzeppelin/contracts/security/Pausable.sol\":996:1003  _paused */\n  dup1\n  0x00\n    /* \"@openzeppelin/contracts/security/Pausable.sol\":996:1011  _paused = false */\n  0x0100\n  exp\n  dup2\n  sload\n  dup2\n  0xff\n  mul\n  not\n  and\n  swap1\n  dup4\n  iszero\n  iszero\n  mul\n  or\n  swap1\n  sstore\n  pop\n    /* \"@openzeppelin/contracts/security/ReentrancyGuard.sol\":1716:1717  1 */\n  0x01\n    /* \"@openzeppelin/contracts/security/ReentrancyGuard.sol\":1821:1828  _status */\n  dup1\n    /* \"@openzeppelin/contracts/security/ReentrancyGuard.sol\":1821:1843  _status = _NOT_ENTERED */\n  dup2\n  swap1\n  sstore\n  pop\n    /* \"contract/HeirAccount.sol\":2257:2263  _owner */\n  dup1\n    /* \"contract/HeirAccount.sol\":2249:2254  owner */\n  0x04\n  0x00\n    /* \"contract/HeirAccount.sol\":2249:2263  owner = _owner */\n  0x0100\n  exp\n  dup2\n  sload\n  dup2\n  0xffffffffffffffffffffffffffffffffffffffff\n  mul\n  not\n  and\n  swap1\n  dup4\n  0xffffffffffffffffffffffffffffffffffffffff\n  and\n  mul\n  or\n  swap1\n  sstore\n  pop\n    /* \"contract/HeirAccount.sol\":2287:2293  _owner */\n  dup1\n    /* \"contract/HeirAccount.sol\":2276:2284  deployer */\n  0x03\n  0x00\n    /* \"contract/HeirAccount.sol\":2276:2293  deployer = _owner */\n  0x0100\n  exp\n  dup2\n  sload\n  dup2\n  0xffffffffffffffffffffffffffffffffffffffff\n  mul\n  not\n  and\n  swap1\n  dup4\n  0xffffffffffffffffffffffffffffffffffffffff\n  and\n  mul\n  or\n  swap1\n  sstore\n  pop\n    /* \"contract/HeirAccount.sol\":2320:2321  1 */\n  0x01\n    /* \"contract/HeirAccount.sol\":2306:2317  transferFee */\n  0x0b\n    /* \"contract/HeirAccount.sol\":2306:2321  transferFee = 1 */\n  dup2\n  swap1\n  sstore\n  pop\n    /* \"contract/HeirAccount.sol\":2355:2397  0xca3C4DF107a315de8545Fb715917CaE4f6af8BF1 */\n  0xca3c4df107a315de8545fb715917cae4f6af8bf1\n    /* \"contract/HeirAccount.sol\":2334:2344  feeAddress */\n  0x07\n  0x00\n    /* \"contract/HeirAccount.sol\":2334:2398  feeAddress = payable(0xca3C4DF107a315de8545Fb715917CaE4f6af8BF1) */\n  0x0100\n  exp\n  dup2\n  sload\n  dup2\n  0xffffffffffffffffffffffffffffffffffffffff\n  mul\n  not\n  and\n  swap1\n  dup4\n  0xffffffffffffffffffffffffffffffffffffffff\n  and\n  mul\n  or\n  swap1\n  sstore\n  pop\n    /* \"contract/HeirAccount.sol\":2200:2405  constructor(address payable _owner) {... */\n  pop\n    /* \"contract/HeirAccount.sol\":921:5947  contract Accounts is Pausable, ReentrancyGuard {... */\n  jump(tag_10)\n    /* \"#utility.yul\":7:166   */\ntag_12:\n    /* \"#utility.yul\":72:77   */\n  0x00\n    /* \"#utility.yul\":103:109   */\n  dup2\n    /* \"#utility.yul\":97:110   */\n  mload\n    /* \"#utility.yul\":88:110   */\n  swap1\n  pop\n    /* \"#utility.yul\":119:160   */\n  tag_14\n    /* \"#utility.yul\":154:159   */\n  dup2\n    /* \"#utility.yul\":119:160   */\n  tag_15\n  jump\t// in\ntag_14:\n    /* \"#utility.yul\":7:166   */\n  swap3\n  swap2\n  pop\n  pop\n  jump\t// out\n    /* \"#utility.yul\":172:539   */\ntag_3:\n    /* \"#utility.yul\":250:256   */\n  0x00\n    /* \"#utility.yul\":299:301   */\n  0x20\n    /* \"#utility.yul\":287:296   */\n  dup3\n    /* \"#utility.yul\":278:285   */\n  dup5\n    /* \"#utility.yul\":274:297   */\n  sub\n    /* \"#utility.yul\":270:302   */\n  slt\n    /* \"#utility.yul\":267:386   */\n  iszero\n  tag_17\n  jumpi\n    /* \"#utility.yul\":305:384   */\n  tag_18\n  tag_19\n  jump\t// in\ntag_18:\n    /* \"#utility.yul\":267:386   */\ntag_17:\n    /* \"#utility.yul\":425:426   */\n  0x00\n    /* \"#utility.yul\":450:522   */\n  tag_20\n    /* \"#utility.yul\":514:521   */\n  dup5\n    /* \"#utility.yul\":505:511   */\n  dup3\n    /* \"#utility.yul\":494:503   */\n  dup6\n    /* \"#utility.yul\":490:512   */\n  add\n    /* \"#utility.yul\":450:522   */\n  tag_12\n  jump\t// in\ntag_20:\n    /* \"#utility.yul\":440:522   */\n  swap2\n  pop\n    /* \"#utility.yul\":396:532   */\n  pop\n    /* \"#utility.yul\":172:539   */\n  swap3\n  swap2\n  pop\n  pop\n  jump\t// out\n    /* \"#utility.yul\":626:730   */\ntag_23:\n    /* \"#utility.yul\":671:678   */\n  0x00\n    /* \"#utility.yul\":700:724   */\n  tag_25\n    /* \"#utility.yul\":718:723   */\n  dup3\n    /* \"#utility.yul\":700:724   */\n  tag_26\n  jump\t// in\ntag_25:\n    /* \"#utility.yul\":689:724   */\n  swap1\n  pop\n    /* \"#utility.yul\":626:730   */\n  swap2\n  swap1\n  pop\n  jump\t// out\n    /* \"#utility.yul\":736:862   */\ntag_26:\n    /* \"#utility.yul\":773:780   */\n  0x00\n    /* \"#utility.yul\":813:855   */\n  0xffffffffffffffffffffffffffffffffffffffff\n    /* \"#utility.yul\":806:811   */\n  dup3\n    /* \"#utility.yul\":802:856   */\n  and\n    /* \"#utility.yul\":791:856   */\n  swap1\n  pop\n    /* \"#utility.yul\":736:862   */\n  swap2\n  swap1\n  pop\n  jump\t// out\n    /* \"#utility.yul\":991:1108   */\ntag_19:\n    /* \"#utility.yul\":1100:1101   */\n  0x00\n    /* \"#utility.yul\":1097:1098   */\n  dup1\n    /* \"#utility.yul\":1090:1102   */\n  revert\n    /* \"#utility.yul\":1114:1252   */\ntag_15:\n    /* \"#utility.yul\":1195:1227   */\n  tag_32\n    /* \"#utility.yul\":1221:1226   */\n  dup2\n    /* \"#utility.yul\":1195:1227   */\n  tag_23\n  jump\t// in\ntag_32:\n    /* \"#utility.yul\":1188:1193   */\n  dup2\n    /* \"#utility.yul\":1185:1228   */\n  eq\n    /* \"#utility.yul\":1175:1246   */\n  tag_33\n  jumpi\n    /* \"#utility.yul\":1242:1243   */\n  0x00\n    /* \"#utility.yul\":1239:1240   */\n  dup1\n    /* \"#utility.yul\":1232:1244   */\n  revert\n    /* \"#utility.yul\":1175:1246   */\ntag_33:\n    /* \"#utility.yul\":1114:1252   */\n  pop\n  jump\t// out\n    /* \"contract/HeirAccount.sol\":921:5947  contract Accounts is Pausable, ReentrancyGuard {... */\ntag_10:\n  dataSize(sub_0)\n  dup1\n  dataOffset(sub_0)\n  0x00\n  codecopy\n  0x00\n  return\nstop\n\nsub_0: assembly {\n        /* \"contract/HeirAccount.sol\":921:5947  contract Accounts is Pausable, ReentrancyGuard {... */\n      mstore(0x40, 0x80)\n      jumpi(tag_1, lt(calldatasize, 0x04))\n      shr(0xe0, calldataload(0x00))\n      dup1\n      0x8da5cb5b\n      gt\n      tag_25\n      jumpi\n      dup1\n      0xc7983e20\n      gt\n      tag_26\n      jumpi\n      dup1\n      0xc7983e20\n      eq\n      tag_19\n      jumpi\n      dup1\n      0xcc4aa204\n      eq\n      tag_20\n      jumpi\n      dup1\n      0xd5f39488\n      eq\n      tag_21\n      jumpi\n      dup1\n      0xf2b5eea7\n      eq\n      tag_22\n      jumpi\n      dup1\n      0xf5c91a0b\n      eq\n      tag_23\n      jumpi\n      dup1\n      0xfaedd18e\n      eq\n      tag_24\n      jumpi\n      jump(tag_2)\n    tag_26:\n      dup1\n      0x8da5cb5b\n      eq\n      tag_14\n      jumpi\n      dup1\n      0x91f2ebb8\n      eq\n      tag_15\n      jumpi\n      dup1\n      0x94a927fe\n      eq\n      tag_16\n      jumpi\n      dup1\n      0x9e1a4d19\n      eq\n      tag_17\n      jumpi\n      dup1\n      0xb7d1d98e\n      eq\n      tag_18\n      jumpi\n      jump(tag_2)\n    tag_25:\n      dup1\n      0x57b001f9\n      gt\n      tag_27\n      jumpi\n      dup1\n      0x57b001f9\n      eq\n      tag_8\n      jumpi\n      dup1\n      0x5c975abb\n      eq\n      tag_9\n      jumpi\n      dup1\n      0x6e1a7373\n      eq\n      tag_10\n      jumpi\n      dup1\n      0x76a67a51\n      eq\n      tag_11\n      jumpi\n      dup1\n      0x7a80760e\n      eq\n      tag_12\n      jumpi\n      dup1\n      0x836b1aff\n      eq\n      tag_13\n      jumpi\n      jump(tag_2)\n    tag_27:\n      dup1\n      0x1903b431\n      eq\n      tag_3\n      jumpi\n      dup1\n      0x1c8ec299\n      eq\n      tag_4\n      jumpi\n      dup1\n      0x1e83409a\n      eq\n      tag_5\n      jumpi\n      dup1\n      0x362bb2ac\n      eq\n      tag_6\n      jumpi\n      dup1\n      0x56af4f75\n      eq\n      tag_7\n      jumpi\n      jump(tag_2)\n    tag_1:\n      jumpi(tag_2, calldatasize)\n        /* \"contract/HeirAccount.sol\":2635:2645  msg.sender */\n      caller\n        /* \"contract/HeirAccount.sol\":2612:2657  Deposit(address(this), msg.sender, msg.value) */\n      0xffffffffffffffffffffffffffffffffffffffff\n      and\n        /* \"contract/HeirAccount.sol\":2628:2632  this */\n      address\n        /* \"contract/HeirAccount.sol\":2612:2657  Deposit(address(this), msg.sender, msg.value) */\n      0xffffffffffffffffffffffffffffffffffffffff\n      and\n      0x5548c837ab068cf56a2c2479df0882a4922fd203edb7517321831d95078c5f62\n        /* \"contract/HeirAccount.sol\":2647:2656  msg.value */\n      callvalue\n        /* \"contract/HeirAccount.sol\":2612:2657  Deposit(address(this), msg.sender, msg.value) */\n      mload(0x40)\n      tag_30\n      swap2\n      swap1\n      tag_31\n      jump\t// in\n    tag_30:\n      mload(0x40)\n      dup1\n      swap2\n      sub\n      swap1\n      log3\n        /* \"contract/HeirAccount.sol\":921:5947  contract Accounts is Pausable, ReentrancyGuard {... */\n      stop\n    tag_2:\n        /* \"contract/HeirAccount.sol\":2502:2512  msg.sender */\n      caller\n        /* \"contract/HeirAccount.sol\":2479:2524  Deposit(address(this), msg.sender, msg.value) */\n      0xffffffffffffffffffffffffffffffffffffffff\n      and\n        /* \"contract/HeirAccount.sol\":2495:2499  this */\n      address\n        /* \"contract/HeirAccount.sol\":2479:2524  Deposit(address(this), msg.sender, msg.value) */\n      0xffffffffffffffffffffffffffffffffffffffff\n      and\n      0x5548c837ab068cf56a2c2479df0882a4922fd203edb7517321831d95078c5f62\n        /* \"contract/HeirAccount.sol\":2514:2523  msg.value */\n      callvalue\n        /* \"contract/HeirAccount.sol\":2479:2524  Deposit(address(this), msg.sender, msg.value) */\n      mload(0x40)\n      tag_34\n      swap2\n      swap1\n      tag_31\n      jump\t// in\n    tag_34:\n      mload(0x40)\n      dup1\n      swap2\n      sub\n      swap1\n      log3\n        /* \"contract/HeirAccount.sol\":921:5947  contract Accounts is Pausable, ReentrancyGuard {... */\n      stop\n        /* \"contract/HeirAccount.sol\":5126:5361  function balanceOf(bool _isCelo, address _ERC20Address) public view returns(uint) {... */\n    tag_3:\n      callvalue\n      dup1\n      iszero\n      tag_35\n      jumpi\n      0x00\n      dup1\n      revert\n    tag_35:\n      pop\n      tag_36\n      0x04\n      dup1\n      calldatasize\n      sub\n      dup2\n      add\n      swap1\n      tag_37\n      swap2\n      swap1\n      tag_38\n      jump\t// in\n    tag_37:\n      tag_39\n      jump\t// in\n    tag_36:\n      mload(0x40)\n      tag_40\n      swap2\n      swap1\n      tag_31\n      jump\t// in\n    tag_40:\n      mload(0x40)\n      dup1\n      swap2\n      sub\n      swap1\n      return\n        /* \"contract/HeirAccount.sol\":1743:1765  uint public claimDelay */\n    tag_4:\n      callvalue\n      dup1\n      iszero\n      tag_41\n      jumpi\n      0x00\n      dup1\n      revert\n    tag_41:\n      pop\n      tag_42\n      tag_43\n      jump\t// in\n    tag_42:\n      mload(0x40)\n      tag_44\n      swap2\n      swap1\n      tag_31\n      jump\t// in\n    tag_44:\n      mload(0x40)\n      dup1\n      swap2\n      sub\n      swap1\n      return\n        /* \"contract/HeirAccount.sol\":3625:3945  function claim(address _sender) public whenNotPaused onlyHeir(_sender) {... */\n    tag_5:\n      callvalue\n      dup1\n      iszero\n      tag_45\n      jumpi\n      0x00\n      dup1\n      revert\n    tag_45:\n      pop\n      tag_46\n      0x04\n      dup1\n      calldatasize\n      sub\n      dup2\n      add\n      swap1\n      tag_47\n      swap2\n      swap1\n      tag_48\n      jump\t// in\n    tag_47:\n      tag_49\n      jump\t// in\n    tag_46:\n      stop\n        /* \"contract/HeirAccount.sol\":5701:5787  function returnDeployer() public view returns(address){... */\n    tag_6:\n      callvalue\n      dup1\n      iszero\n      tag_50\n      jumpi\n      0x00\n      dup1\n      revert\n    tag_50:\n      pop\n      tag_51\n      tag_52\n      jump\t// in\n    tag_51:\n      mload(0x40)\n      tag_53\n      swap2\n      swap1\n      tag_54\n      jump\t// in\n    tag_53:\n      mload(0x40)\n      dup1\n      swap2\n      sub\n      swap1\n      return\n        /* \"contract/HeirAccount.sol\":5559:5637  function returnHeir() public view returns(address){... */\n    tag_7:\n      callvalue\n      dup1\n      iszero\n      tag_55\n      jumpi\n      0x00\n      dup1\n      revert\n    tag_55:\n      pop\n      tag_56\n      tag_57\n      jump\t// in\n    tag_56:\n      mload(0x40)\n      tag_58\n      swap2\n      swap1\n      tag_54\n      jump\t// in\n    tag_58:\n      mload(0x40)\n      dup1\n      swap2\n      sub\n      swap1\n      return\n        /* \"contract/HeirAccount.sol\":2895:2982  function unpause(address _sender) public onlyOwner(_sender) {... */\n    tag_8:\n      callvalue\n      dup1\n      iszero\n      tag_59\n      jumpi\n      0x00\n      dup1\n      revert\n    tag_59:\n      pop\n      tag_60\n      0x04\n      dup1\n      calldatasize\n      sub\n      dup2\n      add\n      swap1\n      tag_61\n      swap2\n      swap1\n      tag_48\n      jump\t// in\n    tag_61:\n      tag_62\n      jump\t// in\n    tag_60:\n      stop\n        /* \"@openzeppelin/contracts/security/Pausable.sol\":1615:1699  function paused() public view virtual returns (bool) {... */\n    tag_9:\n      callvalue\n      dup1\n      iszero\n      tag_63\n      jumpi\n      0x00\n      dup1\n      revert\n    tag_63:\n      pop\n      tag_64\n      tag_65\n      jump\t// in\n    tag_64:\n      mload(0x40)\n      tag_66\n      swap2\n      swap1\n      tag_67\n      jump\t// in\n    tag_66:\n      mload(0x40)\n      dup1\n      swap2\n      sub\n      swap1\n      return\n        /* \"contract/HeirAccount.sol\":3035:3269  function setHeir(address payable _heir, uint _claimDelay, address _sender) public onlyOwner(_sender) {... */\n    tag_10:\n      callvalue\n      dup1\n      iszero\n      tag_68\n      jumpi\n      0x00\n      dup1\n      revert\n    tag_68:\n      pop\n      tag_69\n      0x04\n      dup1\n      calldatasize\n      sub\n      dup2\n      add\n      swap1\n      tag_70\n      swap2\n      swap1\n      tag_71\n      jump\t// in\n    tag_70:\n      tag_72\n      jump\t// in\n    tag_69:\n      stop\n        /* \"contract/HeirAccount.sol\":2792:2875  function pause(address _sender) public onlyOwner(_sender) {... */\n    tag_11:\n      callvalue\n      dup1\n      iszero\n      tag_73\n      jumpi\n      0x00\n      dup1\n      revert\n    tag_73:\n      pop\n      tag_74\n      0x04\n      dup1\n      calldatasize\n      sub\n      dup2\n      add\n      swap1\n      tag_75\n      swap2\n      swap1\n      tag_48\n      jump\t// in\n    tag_75:\n      tag_76\n      jump\t// in\n    tag_74:\n      stop\n        /* \"contract/HeirAccount.sol\":1369:1402  address payable public ERC20Token */\n    tag_12:\n      callvalue\n      dup1\n      iszero\n      tag_77\n      jumpi\n      0x00\n      dup1\n      revert\n    tag_77:\n      pop\n      tag_78\n      tag_79\n      jump\t// in\n    tag_78:\n      mload(0x40)\n      tag_80\n      swap2\n      swap1\n      tag_81\n      jump\t// in\n    tag_80:\n      mload(0x40)\n      dup1\n      swap2\n      sub\n      swap1\n      return\n        /* \"contract/HeirAccount.sol\":4248:5073  function transferOrWithdraw (bool _isWithdraw, bool _isCelo, address payable _recipient, uint _amount, address _ERC20Address, address _sender) public whenNotPaused nonReentrant onlyOwner(_sender) {... */\n    tag_13:\n      callvalue\n      dup1\n      iszero\n      tag_82\n      jumpi\n      0x00\n      dup1\n      revert\n    tag_82:\n      pop\n      tag_83\n      0x04\n      dup1\n      calldatasize\n      sub\n      dup2\n      add\n      swap1\n      tag_84\n      swap2\n      swap1\n      tag_85\n      jump\t// in\n    tag_84:\n      tag_86\n      jump\t// in\n    tag_83:\n      stop\n        /* \"contract/HeirAccount.sol\":1224:1252  address payable public owner */\n    tag_14:\n      callvalue\n      dup1\n      iszero\n      tag_87\n      jumpi\n      0x00\n      dup1\n      revert\n    tag_87:\n      pop\n      tag_88\n      tag_89\n      jump\t// in\n    tag_88:\n      mload(0x40)\n      tag_90\n      swap2\n      swap1\n      tag_81\n      jump\t// in\n    tag_90:\n      mload(0x40)\n      dup1\n      swap2\n      sub\n      swap1\n      return\n        /* \"contract/HeirAccount.sol\":1289:1316  address payable public heir */\n    tag_15:\n      callvalue\n      dup1\n      iszero\n      tag_91\n      jumpi\n      0x00\n      dup1\n      revert\n    tag_91:\n      pop\n      tag_92\n      tag_93\n      jump\t// in\n    tag_92:\n      mload(0x40)\n      tag_94\n      swap2\n      swap1\n      tag_81\n      jump\t// in\n    tag_94:\n      mload(0x40)\n      dup1\n      swap2\n      sub\n      swap1\n      return\n        /* \"contract/HeirAccount.sol\":5419:5499  function returnOwner() public view returns(address){... */\n    tag_16:\n      callvalue\n      dup1\n      iszero\n      tag_95\n      jumpi\n      0x00\n      dup1\n      revert\n    tag_95:\n      pop\n      tag_96\n      tag_97\n      jump\t// in\n    tag_96:\n      mload(0x40)\n      tag_98\n      swap2\n      swap1\n      tag_54\n      jump\t// in\n    tag_98:\n      mload(0x40)\n      dup1\n      swap2\n      sub\n      swap1\n      return\n        /* \"contract/HeirAccount.sol\":1895:1919  uint public tokenBalance */\n    tag_17:\n      callvalue\n      dup1\n      iszero\n      tag_99\n      jumpi\n      0x00\n      dup1\n      revert\n    tag_99:\n      pop\n      tag_100\n      tag_101\n      jump\t// in\n    tag_100:\n      mload(0x40)\n      tag_102\n      swap2\n      swap1\n      tag_31\n      jump\t// in\n    tag_102:\n      mload(0x40)\n      dup1\n      swap2\n      sub\n      swap1\n      return\n        /* \"contract/HeirAccount.sol\":4017:4190  function stopClaim(address _sender) public onlyOwner(_sender) {... */\n    tag_18:\n      callvalue\n      dup1\n      iszero\n      tag_103\n      jumpi\n      0x00\n      dup1\n      revert\n    tag_103:\n      pop\n      tag_104\n      0x04\n      dup1\n      calldatasize\n      sub\n      dup2\n      add\n      swap1\n      tag_105\n      swap2\n      swap1\n      tag_48\n      jump\t// in\n    tag_105:\n      tag_106\n      jump\t// in\n    tag_104:\n      stop\n        /* \"contract/HeirAccount.sol\":1621:1649  uint public claimInitiatedAt */\n    tag_19:\n      callvalue\n      dup1\n      iszero\n      tag_107\n      jumpi\n      0x00\n      dup1\n      revert\n    tag_107:\n      pop\n      tag_108\n      tag_109\n      jump\t// in\n    tag_108:\n      mload(0x40)\n      tag_110\n      swap2\n      swap1\n      tag_31\n      jump\t// in\n    tag_110:\n      mload(0x40)\n      dup1\n      swap2\n      sub\n      swap1\n      return\n        /* \"contract/HeirAccount.sol\":988:1007  IERC20 public ERC20 */\n    tag_20:\n      callvalue\n      dup1\n      iszero\n      tag_111\n      jumpi\n      0x00\n      dup1\n      revert\n    tag_111:\n      pop\n      tag_112\n      tag_113\n      jump\t// in\n    tag_112:\n      mload(0x40)\n      tag_114\n      swap2\n      swap1\n      tag_115\n      jump\t// in\n    tag_114:\n      mload(0x40)\n      dup1\n      swap2\n      sub\n      swap1\n      return\n        /* \"contract/HeirAccount.sol\":1147:1170  address public deployer */\n    tag_21:\n      callvalue\n      dup1\n      iszero\n      tag_116\n      jumpi\n      0x00\n      dup1\n      revert\n    tag_116:\n      pop\n      tag_117\n      tag_118\n      jump\t// in\n    tag_117:\n      mload(0x40)\n      tag_119\n      swap2\n      swap1\n      tag_54\n      jump\t// in\n    tag_119:\n      mload(0x40)\n      dup1\n      swap2\n      sub\n      swap1\n      return\n        /* \"contract/HeirAccount.sol\":3331:3569  function initiateClaim(address _sender) public whenNotPaused onlyHeir(_sender) {... */\n    tag_22:\n      callvalue\n      dup1\n      iszero\n      tag_120\n      jumpi\n      0x00\n      dup1\n      revert\n    tag_120:\n      pop\n      tag_121\n      0x04\n      dup1\n      calldatasize\n      sub\n      dup2\n      add\n      swap1\n      tag_122\n      swap2\n      swap1\n      tag_48\n      jump\t// in\n    tag_122:\n      tag_123\n      jump\t// in\n    tag_121:\n      stop\n        /* \"contract/HeirAccount.sol\":5851:5940  function returnTransferFee() public view returns(uint){... */\n    tag_23:\n      callvalue\n      dup1\n      iszero\n      tag_124\n      jumpi\n      0x00\n      dup1\n      revert\n    tag_124:\n      pop\n      tag_125\n      tag_126\n      jump\t// in\n    tag_125:\n      mload(0x40)\n      tag_127\n      swap2\n      swap1\n      tag_31\n      jump\t// in\n    tag_127:\n      mload(0x40)\n      dup1\n      swap2\n      sub\n      swap1\n      return\n        /* \"contract/HeirAccount.sol\":1529:1556  bool public claimInProgress */\n    tag_24:\n      callvalue\n      dup1\n      iszero\n      tag_128\n      jumpi\n      0x00\n      dup1\n      revert\n    tag_128:\n      pop\n      tag_129\n      tag_130\n      jump\t// in\n    tag_129:\n      mload(0x40)\n      tag_131\n      swap2\n      swap1\n      tag_67\n      jump\t// in\n    tag_131:\n      mload(0x40)\n      dup1\n      swap2\n      sub\n      swap1\n      return\n        /* \"contract/HeirAccount.sol\":5126:5361  function balanceOf(bool _isCelo, address _ERC20Address) public view returns(uint) {... */\n    tag_39:\n        /* \"contract/HeirAccount.sol\":5202:5206  uint */\n      0x00\n        /* \"contract/HeirAccount.sol\":5218:5225  _isCelo */\n      dup3\n        /* \"contract/HeirAccount.sol\":5214:5355  if (_isCelo) {... */\n      iszero\n      tag_133\n      jumpi\n        /* \"contract/HeirAccount.sol\":5244:5265  address(this).balance */\n      selfbalance\n        /* \"contract/HeirAccount.sol\":5237:5265  return address(this).balance */\n      swap1\n      pop\n      jump(tag_132)\n        /* \"contract/HeirAccount.sol\":5214:5355  if (_isCelo) {... */\n    tag_133:\n        /* \"contract/HeirAccount.sol\":5302:5315  _ERC20Address */\n      dup2\n        /* \"contract/HeirAccount.sol\":5295:5326  IERC20(_ERC20Address).balanceOf */\n      0xffffffffffffffffffffffffffffffffffffffff\n      and\n      0x70a08231\n        /* \"contract/HeirAccount.sol\":5335:5339  this */\n      address\n        /* \"contract/HeirAccount.sol\":5295:5341  IERC20(_ERC20Address).balanceOf(address(this)) */\n      mload(0x40)\n      dup3\n      0xffffffff\n      and\n      0xe0\n      shl\n      dup2\n      mstore\n      0x04\n      add\n      tag_135\n      swap2\n      swap1\n      tag_54\n      jump\t// in\n    tag_135:\n      0x20\n      mload(0x40)\n      dup1\n      dup4\n      sub\n      dup2\n      dup7\n      dup1\n      extcodesize\n      iszero\n      dup1\n      iszero\n      tag_136\n      jumpi\n      0x00\n      dup1\n      revert\n    tag_136:\n      pop\n      gas\n      staticcall\n      iszero\n      dup1\n      iszero\n      tag_138\n      jumpi\n      returndatasize\n      0x00\n      dup1\n      returndatacopy\n      revert(0x00, returndatasize)\n    tag_138:\n      pop\n      pop\n      pop\n      pop\n      mload(0x40)\n      returndatasize\n      not(0x1f)\n      0x1f\n      dup3\n      add\n      and\n      dup3\n      add\n      dup1\n      0x40\n      mstore\n      pop\n      dup2\n      add\n      swap1\n      tag_139\n      swap2\n      swap1\n      tag_140\n      jump\t// in\n    tag_139:\n        /* \"contract/HeirAccount.sol\":5288:5341  return IERC20(_ERC20Address).balanceOf(address(this)) */\n      swap1\n      pop\n        /* \"contract/HeirAccount.sol\":5126:5361  function balanceOf(bool _isCelo, address _ERC20Address) public view returns(uint) {... */\n    tag_132:\n      swap3\n      swap2\n      pop\n      pop\n      jump\t// out\n        /* \"contract/HeirAccount.sol\":1743:1765  uint public claimDelay */\n    tag_43:\n      sload(0x09)\n      dup2\n      jump\t// out\n        /* \"contract/HeirAccount.sol\":3625:3945  function claim(address _sender) public whenNotPaused onlyHeir(_sender) {... */\n    tag_49:\n        /* \"@openzeppelin/contracts/security/Pausable.sol\":1239:1258  _requireNotPaused() */\n      tag_142\n        /* \"@openzeppelin/contracts/security/Pausable.sol\":1239:1256  _requireNotPaused */\n      tag_143\n        /* \"@openzeppelin/contracts/security/Pausable.sol\":1239:1258  _requireNotPaused() */\n      jump\t// in\n    tag_142:\n        /* \"contract/HeirAccount.sol\":3687:3694  _sender */\n      dup1\n        /* \"contract/HeirAccount.sol\":2128:2132  heir */\n      0x05\n      0x00\n      swap1\n      sload\n      swap1\n      0x0100\n      exp\n      swap1\n      div\n      0xffffffffffffffffffffffffffffffffffffffff\n      and\n        /* \"contract/HeirAccount.sol\":2117:2132  _sender == heir */\n      0xffffffffffffffffffffffffffffffffffffffff\n      and\n        /* \"contract/HeirAccount.sol\":2117:2124  _sender */\n      dup2\n        /* \"contract/HeirAccount.sol\":2117:2132  _sender == heir */\n      0xffffffffffffffffffffffffffffffffffffffff\n      and\n      eq\n        /* \"contract/HeirAccount.sol\":2109:2173  require(_sender == heir, \"Only the heir can call this function\") */\n      tag_145\n      jumpi\n      mload(0x40)\n      0x08c379a000000000000000000000000000000000000000000000000000000000\n      dup2\n      mstore\n      0x04\n      add\n      tag_146\n      swap1\n      tag_147\n      jump\t// in\n    tag_146:\n      mload(0x40)\n      dup1\n      swap2\n      sub\n      swap1\n      revert\n    tag_145:\n        /* \"contract/HeirAccount.sol\":3714:3729  claimInProgress */\n      0x07\n      0x14\n      swap1\n      sload\n      swap1\n      0x0100\n      exp\n      swap1\n      div\n      0xff\n      and\n        /* \"contract/HeirAccount.sol\":3706:3771  require(claimInProgress, \"Claim process has not been initiated.\") */\n      tag_149\n      jumpi\n      mload(0x40)\n      0x08c379a000000000000000000000000000000000000000000000000000000000\n      dup2\n      mstore\n      0x04\n      add\n      tag_150\n      swap1\n      tag_151\n      jump\t// in\n    tag_150:\n      mload(0x40)\n      dup1\n      swap2\n      sub\n      swap1\n      revert\n    tag_149:\n        /* \"contract/HeirAccount.sol\":3840:3846  1 days */\n      0x015180\n        /* \"contract/HeirAccount.sol\":3827:3837  claimDelay */\n      sload(0x09)\n        /* \"contract/HeirAccount.sol\":3827:3846  claimDelay * 1 days */\n      tag_152\n      swap2\n      swap1\n      tag_153\n      jump\t// in\n    tag_152:\n        /* \"contract/HeirAccount.sol\":3808:3824  claimInitiatedAt */\n      sload(0x08)\n        /* \"contract/HeirAccount.sol\":3808:3846  claimInitiatedAt + claimDelay * 1 days */\n      tag_154\n      swap2\n      swap1\n      tag_155\n      jump\t// in\n    tag_154:\n        /* \"contract/HeirAccount.sol\":3789:3804  block.timestamp */\n      timestamp\n        /* \"contract/HeirAccount.sol\":3789:3846  block.timestamp >= claimInitiatedAt + claimDelay * 1 days */\n      lt\n      iszero\n        /* \"contract/HeirAccount.sol\":3781:3879  require(block.timestamp >= claimInitiatedAt + claimDelay * 1 days, \"Claim delay has not expired.\") */\n      tag_156\n      jumpi\n      mload(0x40)\n      0x08c379a000000000000000000000000000000000000000000000000000000000\n      dup2\n      mstore\n      0x04\n      add\n      tag_157\n      swap1\n      tag_158\n      jump\t// in\n    tag_157:\n      mload(0x40)\n      dup1\n      swap2\n      sub\n      swap1\n      revert\n    tag_156:\n        /* \"contract/HeirAccount.sol\":3897:3901  heir */\n      0x05\n      0x00\n      swap1\n      sload\n      swap1\n      0x0100\n      exp\n      swap1\n      div\n      0xffffffffffffffffffffffffffffffffffffffff\n      and\n        /* \"contract/HeirAccount.sol\":3889:3894  owner */\n      0x04\n      0x00\n        /* \"contract/HeirAccount.sol\":3889:3901  owner = heir */\n      0x0100\n      exp\n      dup2\n      sload\n      dup2\n      0xffffffffffffffffffffffffffffffffffffffff\n      mul\n      not\n      and\n      swap1\n      dup4\n      0xffffffffffffffffffffffffffffffffffffffff\n      and\n      mul\n      or\n      swap1\n      sstore\n      pop\n        /* \"contract/HeirAccount.sol\":3929:3934  false */\n      0x00\n        /* \"contract/HeirAccount.sol\":3911:3926  claimInProgress */\n      0x07\n      0x14\n        /* \"contract/HeirAccount.sol\":3911:3934  claimInProgress = false */\n      0x0100\n      exp\n      dup2\n      sload\n      dup2\n      0xff\n      mul\n      not\n      and\n      swap1\n      dup4\n      iszero\n      iszero\n      mul\n      or\n      swap1\n      sstore\n      pop\n        /* \"@openzeppelin/contracts/security/Pausable.sol\":1268:1269  _ */\n      pop\n        /* \"contract/HeirAccount.sol\":3625:3945  function claim(address _sender) public whenNotPaused onlyHeir(_sender) {... */\n      pop\n      jump\t// out\n        /* \"contract/HeirAccount.sol\":5701:5787  function returnDeployer() public view returns(address){... */\n    tag_52:\n        /* \"contract/HeirAccount.sol\":5747:5754  address */\n      0x00\n        /* \"contract/HeirAccount.sol\":5772:5780  deployer */\n      0x03\n      0x00\n      swap1\n      sload\n      swap1\n      0x0100\n      exp\n      swap1\n      div\n      0xffffffffffffffffffffffffffffffffffffffff\n      and\n        /* \"contract/HeirAccount.sol\":5765:5780  return deployer */\n      swap1\n      pop\n        /* \"contract/HeirAccount.sol\":5701:5787  function returnDeployer() public view returns(address){... */\n      swap1\n      jump\t// out\n        /* \"contract/HeirAccount.sol\":5559:5637  function returnHeir() public view returns(address){... */\n    tag_57:\n        /* \"contract/HeirAccount.sol\":5601:5608  address */\n      0x00\n        /* \"contract/HeirAccount.sol\":5626:5630  heir */\n      0x05\n      0x00\n      swap1\n      sload\n      swap1\n      0x0100\n      exp\n      swap1\n      div\n      0xffffffffffffffffffffffffffffffffffffffff\n      and\n        /* \"contract/HeirAccount.sol\":5619:5630  return heir */\n      swap1\n      pop\n        /* \"contract/HeirAccount.sol\":5559:5637  function returnHeir() public view returns(address){... */\n      swap1\n      jump\t// out\n        /* \"contract/HeirAccount.sol\":2895:2982  function unpause(address _sender) public onlyOwner(_sender) {... */\n    tag_62:\n        /* \"contract/HeirAccount.sol\":2946:2953  _sender */\n      dup1\n        /* \"contract/HeirAccount.sol\":1991:1996  owner */\n      0x04\n      0x00\n      swap1\n      sload\n      swap1\n      0x0100\n      exp\n      swap1\n      div\n      0xffffffffffffffffffffffffffffffffffffffff\n      and\n        /* \"contract/HeirAccount.sol\":1980:1996  _sender == owner */\n      0xffffffffffffffffffffffffffffffffffffffff\n      and\n        /* \"contract/HeirAccount.sol\":1980:1987  _sender */\n      dup2\n        /* \"contract/HeirAccount.sol\":1980:1996  _sender == owner */\n      0xffffffffffffffffffffffffffffffffffffffff\n      and\n      eq\n        /* \"contract/HeirAccount.sol\":1972:2038  require(_sender == owner, \"Only the owner can call this function\") */\n      tag_162\n      jumpi\n      mload(0x40)\n      0x08c379a000000000000000000000000000000000000000000000000000000000\n      dup2\n      mstore\n      0x04\n      add\n      tag_163\n      swap1\n      tag_164\n      jump\t// in\n    tag_163:\n      mload(0x40)\n      dup1\n      swap2\n      sub\n      swap1\n      revert\n    tag_162:\n        /* \"contract/HeirAccount.sol\":2965:2975  _unpause() */\n      tag_166\n        /* \"contract/HeirAccount.sol\":2965:2973  _unpause */\n      tag_167\n        /* \"contract/HeirAccount.sol\":2965:2975  _unpause() */\n      jump\t// in\n    tag_166:\n        /* \"contract/HeirAccount.sol\":2895:2982  function unpause(address _sender) public onlyOwner(_sender) {... */\n      pop\n      pop\n      jump\t// out\n        /* \"@openzeppelin/contracts/security/Pausable.sol\":1615:1699  function paused() public view virtual returns (bool) {... */\n    tag_65:\n        /* \"@openzeppelin/contracts/security/Pausable.sol\":1662:1666  bool */\n      0x00\n        /* \"@openzeppelin/contracts/security/Pausable.sol\":1685:1692  _paused */\n      dup1\n      0x00\n      swap1\n      sload\n      swap1\n      0x0100\n      exp\n      swap1\n      div\n      0xff\n      and\n        /* \"@openzeppelin/contracts/security/Pausable.sol\":1678:1692  return _paused */\n      swap1\n      pop\n        /* \"@openzeppelin/contracts/security/Pausable.sol\":1615:1699  function paused() public view virtual returns (bool) {... */\n      swap1\n      jump\t// out\n        /* \"contract/HeirAccount.sol\":3035:3269  function setHeir(address payable _heir, uint _claimDelay, address _sender) public onlyOwner(_sender) {... */\n    tag_72:\n        /* \"contract/HeirAccount.sol\":3127:3134  _sender */\n      dup1\n        /* \"contract/HeirAccount.sol\":1991:1996  owner */\n      0x04\n      0x00\n      swap1\n      sload\n      swap1\n      0x0100\n      exp\n      swap1\n      div\n      0xffffffffffffffffffffffffffffffffffffffff\n      and\n        /* \"contract/HeirAccount.sol\":1980:1996  _sender == owner */\n      0xffffffffffffffffffffffffffffffffffffffff\n      and\n        /* \"contract/HeirAccount.sol\":1980:1987  _sender */\n      dup2\n        /* \"contract/HeirAccount.sol\":1980:1996  _sender == owner */\n      0xffffffffffffffffffffffffffffffffffffffff\n      and\n      eq\n        /* \"contract/HeirAccount.sol\":1972:2038  require(_sender == owner, \"Only the owner can call this function\") */\n      tag_170\n      jumpi\n      mload(0x40)\n      0x08c379a000000000000000000000000000000000000000000000000000000000\n      dup2\n      mstore\n      0x04\n      add\n      tag_171\n      swap1\n      tag_164\n      jump\t// in\n    tag_171:\n      mload(0x40)\n      dup1\n      swap2\n      sub\n      swap1\n      revert\n    tag_170:\n        /* \"contract/HeirAccount.sol\":3171:3172  0 */\n      0x00\n        /* \"contract/HeirAccount.sol\":3154:3173  _heir != address(0) */\n      0xffffffffffffffffffffffffffffffffffffffff\n      and\n        /* \"contract/HeirAccount.sol\":3154:3159  _heir */\n      dup5\n        /* \"contract/HeirAccount.sol\":3154:3173  _heir != address(0) */\n      0xffffffffffffffffffffffffffffffffffffffff\n      and\n      eq\n      iszero\n        /* \"contract/HeirAccount.sol\":3146:3205  require(_heir != address(0), \"Heir cannot be zero address\") */\n      tag_173\n      jumpi\n      mload(0x40)\n      0x08c379a000000000000000000000000000000000000000000000000000000000\n      dup2\n      mstore\n      0x04\n      add\n      tag_174\n      swap1\n      tag_175\n      jump\t// in\n    tag_174:\n      mload(0x40)\n      dup1\n      swap2\n      sub\n      swap1\n      revert\n    tag_173:\n        /* \"contract/HeirAccount.sol\":3223:3228  _heir */\n      dup4\n        /* \"contract/HeirAccount.sol\":3216:3220  heir */\n      0x05\n      0x00\n        /* \"contract/HeirAccount.sol\":3216:3228  heir = _heir */\n      0x0100\n      exp\n      dup2\n      sload\n      dup2\n      0xffffffffffffffffffffffffffffffffffffffff\n      mul\n      not\n      and\n      swap1\n      dup4\n      0xffffffffffffffffffffffffffffffffffffffff\n      and\n      mul\n      or\n      swap1\n      sstore\n      pop\n        /* \"contract/HeirAccount.sol\":3251:3262  _claimDelay */\n      dup3\n        /* \"contract/HeirAccount.sol\":3238:3248  claimDelay */\n      0x09\n        /* \"contract/HeirAccount.sol\":3238:3262  claimDelay = _claimDelay */\n      dup2\n      swap1\n      sstore\n      pop\n        /* \"contract/HeirAccount.sol\":3035:3269  function setHeir(address payable _heir, uint _claimDelay, address _sender) public onlyOwner(_sender) {... */\n      pop\n      pop\n      pop\n      pop\n      jump\t// out\n        /* \"contract/HeirAccount.sol\":2792:2875  function pause(address _sender) public onlyOwner(_sender) {... */\n    tag_76:\n        /* \"contract/HeirAccount.sol\":2841:2848  _sender */\n      dup1\n        /* \"contract/HeirAccount.sol\":1991:1996  owner */\n      0x04\n      0x00\n      swap1\n      sload\n      swap1\n      0x0100\n      exp\n      swap1\n      div\n      0xffffffffffffffffffffffffffffffffffffffff\n      and\n        /* \"contract/HeirAccount.sol\":1980:1996  _sender == owner */\n      0xffffffffffffffffffffffffffffffffffffffff\n      and\n        /* \"contract/HeirAccount.sol\":1980:1987  _sender */\n      dup2\n        /* \"contract/HeirAccount.sol\":1980:1996  _sender == owner */\n      0xffffffffffffffffffffffffffffffffffffffff\n      and\n      eq\n        /* \"contract/HeirAccount.sol\":1972:2038  require(_sender == owner, \"Only the owner can call this function\") */\n      tag_177\n      jumpi\n      mload(0x40)\n      0x08c379a000000000000000000000000000000000000000000000000000000000\n      dup2\n      mstore\n      0x04\n      add\n      tag_178\n      swap1\n      tag_164\n      jump\t// in\n    tag_178:\n      mload(0x40)\n      dup1\n      swap2\n      sub\n      swap1\n      revert\n    tag_177:\n        /* \"contract/HeirAccount.sol\":2860:2868  _pause() */\n      tag_180\n        /* \"contract/HeirAccount.sol\":2860:2866  _pause */\n      tag_181\n        /* \"contract/HeirAccount.sol\":2860:2868  _pause() */\n      jump\t// in\n    tag_180:\n        /* \"contract/HeirAccount.sol\":2792:2875  function pause(address _sender) public onlyOwner(_sender) {... */\n      pop\n      pop\n      jump\t// out\n        /* \"contract/HeirAccount.sol\":1369:1402  address payable public ERC20Token */\n    tag_79:\n      0x06\n      0x00\n      swap1\n      sload\n      swap1\n      0x0100\n      exp\n      swap1\n      div\n      0xffffffffffffffffffffffffffffffffffffffff\n      and\n      dup2\n      jump\t// out\n        /* \"contract/HeirAccount.sol\":4248:5073  function transferOrWithdraw (bool _isWithdraw, bool _isCelo, address payable _recipient, uint _amount, address _ERC20Address, address _sender) public whenNotPaused nonReentrant onlyOwner(_sender) {... */\n    tag_86:\n        /* \"@openzeppelin/contracts/security/Pausable.sol\":1239:1258  _requireNotPaused() */\n      tag_183\n        /* \"@openzeppelin/contracts/security/Pausable.sol\":1239:1256  _requireNotPaused */\n      tag_143\n        /* \"@openzeppelin/contracts/security/Pausable.sol\":1239:1258  _requireNotPaused() */\n      jump\t// in\n    tag_183:\n        /* \"@openzeppelin/contracts/security/ReentrancyGuard.sol\":2261:2282  _nonReentrantBefore() */\n      tag_185\n        /* \"@openzeppelin/contracts/security/ReentrancyGuard.sol\":2261:2280  _nonReentrantBefore */\n      tag_186\n        /* \"@openzeppelin/contracts/security/ReentrancyGuard.sol\":2261:2282  _nonReentrantBefore() */\n      jump\t// in\n    tag_185:\n        /* \"contract/HeirAccount.sol\":4435:4442  _sender */\n      dup1\n        /* \"contract/HeirAccount.sol\":1991:1996  owner */\n      0x04\n      0x00\n      swap1\n      sload\n      swap1\n      0x0100\n      exp\n      swap1\n      div\n      0xffffffffffffffffffffffffffffffffffffffff\n      and\n        /* \"contract/HeirAccount.sol\":1980:1996  _sender == owner */\n      0xffffffffffffffffffffffffffffffffffffffff\n      and\n        /* \"contract/HeirAccount.sol\":1980:1987  _sender */\n      dup2\n        /* \"contract/HeirAccount.sol\":1980:1996  _sender == owner */\n      0xffffffffffffffffffffffffffffffffffffffff\n      and\n      eq\n        /* \"contract/HeirAccount.sol\":1972:2038  require(_sender == owner, \"Only the owner can call this function\") */\n      tag_188\n      jumpi\n      mload(0x40)\n      0x08c379a000000000000000000000000000000000000000000000000000000000\n      dup2\n      mstore\n      0x04\n      add\n      tag_189\n      swap1\n      tag_164\n      jump\t// in\n    tag_189:\n      mload(0x40)\n      dup1\n      swap2\n      sub\n      swap1\n      revert\n    tag_188:\n        /* \"contract/HeirAccount.sol\":4454:4479  address payable recipient */\n      0x00\n        /* \"contract/HeirAccount.sol\":4482:4493  _isWithdraw */\n      dup8\n        /* \"contract/HeirAccount.sol\":4482:4513  _isWithdraw ? owner: _recipient */\n      tag_191\n      jumpi\n        /* \"contract/HeirAccount.sol\":4503:4513  _recipient */\n      dup6\n        /* \"contract/HeirAccount.sol\":4482:4513  _isWithdraw ? owner: _recipient */\n      jump(tag_192)\n    tag_191:\n        /* \"contract/HeirAccount.sol\":4496:4501  owner */\n      0x04\n      0x00\n      swap1\n      sload\n      swap1\n      0x0100\n      exp\n      swap1\n      div\n      0xffffffffffffffffffffffffffffffffffffffff\n      and\n        /* \"contract/HeirAccount.sol\":4482:4513  _isWithdraw ? owner: _recipient */\n    tag_192:\n        /* \"contract/HeirAccount.sol\":4454:4513  address payable recipient = _isWithdraw ? owner: _recipient */\n      swap1\n      pop\n        /* \"contract/HeirAccount.sol\":4526:4533  _isCelo */\n      dup7\n        /* \"contract/HeirAccount.sol\":4522:5067  if (_isCelo) {... */\n      iszero\n      tag_193\n      jumpi\n        /* \"contract/HeirAccount.sol\":4568:4589  address(this).balance */\n      selfbalance\n        /* \"contract/HeirAccount.sol\":4557:4564  _amount */\n      dup6\n        /* \"contract/HeirAccount.sol\":4557:4589  _amount <= address(this).balance */\n      gt\n      iszero\n        /* \"contract/HeirAccount.sol\":4549:4613  require(_amount <= address(this).balance, \"Insufficient funds.\") */\n      tag_194\n      jumpi\n      mload(0x40)\n      0x08c379a000000000000000000000000000000000000000000000000000000000\n      dup2\n      mstore\n      0x04\n      add\n      tag_195\n      swap1\n      tag_196\n      jump\t// in\n    tag_195:\n      mload(0x40)\n      dup1\n      swap2\n      sub\n      swap1\n      revert\n    tag_194:\n        /* \"contract/HeirAccount.sol\":4633:4666  _amount.mul(transferFee).div(100) */\n      tag_197\n        /* \"contract/HeirAccount.sol\":4662:4665  100 */\n      0x64\n        /* \"contract/HeirAccount.sol\":4633:4657  _amount.mul(transferFee) */\n      tag_198\n        /* \"contract/HeirAccount.sol\":4645:4656  transferFee */\n      sload(0x0b)\n        /* \"contract/HeirAccount.sol\":4633:4640  _amount */\n      dup9\n        /* \"contract/HeirAccount.sol\":4633:4644  _amount.mul */\n      tag_199\n      swap1\n        /* \"contract/HeirAccount.sol\":4633:4657  _amount.mul(transferFee) */\n      swap2\n      swap1\n      0xffffffff\n      and\n      jump\t// in\n    tag_198:\n        /* \"contract/HeirAccount.sol\":4633:4661  _amount.mul(transferFee).div */\n      tag_200\n      swap1\n        /* \"contract/HeirAccount.sol\":4633:4666  _amount.mul(transferFee).div(100) */\n      swap2\n      swap1\n      0xffffffff\n      and\n      jump\t// in\n    tag_197:\n        /* \"contract/HeirAccount.sol\":4627:4630  fee */\n      0x0a\n        /* \"contract/HeirAccount.sol\":4627:4666  fee = _amount.mul(transferFee).div(100) */\n      dup2\n      swap1\n      sstore\n      pop\n        /* \"contract/HeirAccount.sol\":4680:4689  recipient */\n      dup1\n        /* \"contract/HeirAccount.sol\":4680:4698  recipient.transfer */\n      0xffffffffffffffffffffffffffffffffffffffff\n      and\n        /* \"contract/HeirAccount.sol\":4680:4716  recipient.transfer(_amount.sub(fee)) */\n      0x08fc\n        /* \"contract/HeirAccount.sol\":4699:4715  _amount.sub(fee) */\n      tag_201\n        /* \"contract/HeirAccount.sol\":4711:4714  fee */\n      sload(0x0a)\n        /* \"contract/HeirAccount.sol\":4699:4706  _amount */\n      dup9\n        /* \"contract/HeirAccount.sol\":4699:4710  _amount.sub */\n      tag_202\n      swap1\n        /* \"contract/HeirAccount.sol\":4699:4715  _amount.sub(fee) */\n      swap2\n      swap1\n      0xffffffff\n      and\n      jump\t// in\n    tag_201:\n        /* \"contract/HeirAccount.sol\":4680:4716  recipient.transfer(_amount.sub(fee)) */\n      swap1\n      dup2\n      iszero\n      mul\n      swap1\n      mload(0x40)\n      0x00\n      mload(0x40)\n      dup1\n      dup4\n      sub\n      dup2\n      dup6\n      dup9\n      dup9\n      call\n      swap4\n      pop\n      pop\n      pop\n      pop\n      iszero\n      dup1\n      iszero\n      tag_204\n      jumpi\n      returndatasize\n      0x00\n      dup1\n      returndatacopy\n      revert(0x00, returndatasize)\n    tag_204:\n      pop\n        /* \"contract/HeirAccount.sol\":4730:4740  feeAddress */\n      0x07\n      0x00\n      swap1\n      sload\n      swap1\n      0x0100\n      exp\n      swap1\n      div\n      0xffffffffffffffffffffffffffffffffffffffff\n      and\n        /* \"contract/HeirAccount.sol\":4730:4749  feeAddress.transfer */\n      0xffffffffffffffffffffffffffffffffffffffff\n      and\n        /* \"contract/HeirAccount.sol\":4730:4754  feeAddress.transfer(fee) */\n      0x08fc\n        /* \"contract/HeirAccount.sol\":4750:4753  fee */\n      sload(0x0a)\n        /* \"contract/HeirAccount.sol\":4730:4754  feeAddress.transfer(fee) */\n      swap1\n      dup2\n      iszero\n      mul\n      swap1\n      mload(0x40)\n      0x00\n      mload(0x40)\n      dup1\n      dup4\n      sub\n      dup2\n      dup6\n      dup9\n      dup9\n      call\n      swap4\n      pop\n      pop\n      pop\n      pop\n      iszero\n      dup1\n      iszero\n      tag_206\n      jumpi\n      returndatasize\n      0x00\n      dup1\n      returndatacopy\n      revert(0x00, returndatasize)\n    tag_206:\n      pop\n        /* \"contract/HeirAccount.sol\":4522:5067  if (_isCelo) {... */\n      jump(tag_207)\n    tag_193:\n        /* \"contract/HeirAccount.sol\":4800:4813  _ERC20Address */\n      dup4\n        /* \"contract/HeirAccount.sol\":4785:4790  ERC20 */\n      0x02\n      0x00\n        /* \"contract/HeirAccount.sol\":4785:4814  ERC20 = IERC20(_ERC20Address) */\n      0x0100\n      exp\n      dup2\n      sload\n      dup2\n      0xffffffffffffffffffffffffffffffffffffffff\n      mul\n      not\n      and\n      swap1\n      dup4\n      0xffffffffffffffffffffffffffffffffffffffff\n      and\n      mul\n      or\n      swap1\n      sstore\n      pop\n        /* \"contract/HeirAccount.sol\":4847:4852  ERC20 */\n      0x02\n      0x00\n      swap1\n      sload\n      swap1\n      0x0100\n      exp\n      swap1\n      div\n      0xffffffffffffffffffffffffffffffffffffffff\n      and\n        /* \"contract/HeirAccount.sol\":4847:4862  ERC20.balanceOf */\n      0xffffffffffffffffffffffffffffffffffffffff\n      and\n      0x70a08231\n        /* \"contract/HeirAccount.sol\":4871:4875  this */\n      address\n        /* \"contract/HeirAccount.sol\":4847:4877  ERC20.balanceOf(address(this)) */\n      mload(0x40)\n      dup3\n      0xffffffff\n      and\n      0xe0\n      shl\n      dup2\n      mstore\n      0x04\n      add\n      tag_208\n      swap2\n      swap1\n      tag_54\n      jump\t// in\n    tag_208:\n      0x20\n      mload(0x40)\n      dup1\n      dup4\n      sub\n      dup2\n      dup7\n      dup1\n      extcodesize\n      iszero\n      dup1\n      iszero\n      tag_209\n      jumpi\n      0x00\n      dup1\n      revert\n    tag_209:\n      pop\n      gas\n      staticcall\n      iszero\n      dup1\n      iszero\n      tag_211\n      jumpi\n      returndatasize\n      0x00\n      dup1\n      returndatacopy\n      revert(0x00, returndatasize)\n    tag_211:\n      pop\n      pop\n      pop\n      pop\n      mload(0x40)\n      returndatasize\n      not(0x1f)\n      0x1f\n      dup3\n      add\n      and\n      dup3\n      add\n      dup1\n      0x40\n      mstore\n      pop\n      dup2\n      add\n      swap1\n      tag_212\n      swap2\n      swap1\n      tag_140\n      jump\t// in\n    tag_212:\n        /* \"contract/HeirAccount.sol\":4836:4843  _amount */\n      dup6\n        /* \"contract/HeirAccount.sol\":4836:4877  _amount <= ERC20.balanceOf(address(this)) */\n      gt\n      iszero\n        /* \"contract/HeirAccount.sol\":4828:4901  require(_amount <= ERC20.balanceOf(address(this)), \"Insufficient funds.\") */\n      tag_213\n      jumpi\n      mload(0x40)\n      0x08c379a000000000000000000000000000000000000000000000000000000000\n      dup2\n      mstore\n      0x04\n      add\n      tag_214\n      swap1\n      tag_196\n      jump\t// in\n    tag_214:\n      mload(0x40)\n      dup1\n      swap2\n      sub\n      swap1\n      revert\n    tag_213:\n        /* \"contract/HeirAccount.sol\":4921:4954  _amount.mul(transferFee).div(100) */\n      tag_215\n        /* \"contract/HeirAccount.sol\":4950:4953  100 */\n      0x64\n        /* \"contract/HeirAccount.sol\":4921:4945  _amount.mul(transferFee) */\n      tag_216\n        /* \"contract/HeirAccount.sol\":4933:4944  transferFee */\n      sload(0x0b)\n        /* \"contract/HeirAccount.sol\":4921:4928  _amount */\n      dup9\n        /* \"contract/HeirAccount.sol\":4921:4932  _amount.mul */\n      tag_199\n      swap1\n        /* \"contract/HeirAccount.sol\":4921:4945  _amount.mul(transferFee) */\n      swap2\n      swap1\n      0xffffffff\n      and\n      jump\t// in\n    tag_216:\n        /* \"contract/HeirAccount.sol\":4921:4949  _amount.mul(transferFee).div */\n      tag_200\n      swap1\n        /* \"contract/HeirAccount.sol\":4921:4954  _amount.mul(transferFee).div(100) */\n      swap2\n      swap1\n      0xffffffff\n      and\n      jump\t// in\n    tag_215:\n        /* \"contract/HeirAccount.sol\":4915:4918  fee */\n      0x0a\n        /* \"contract/HeirAccount.sol\":4915:4954  fee = _amount.mul(transferFee).div(100) */\n      dup2\n      swap1\n      sstore\n      pop\n        /* \"contract/HeirAccount.sol\":4968:4973  ERC20 */\n      0x02\n      0x00\n      swap1\n      sload\n      swap1\n      0x0100\n      exp\n      swap1\n      div\n      0xffffffffffffffffffffffffffffffffffffffff\n      and\n        /* \"contract/HeirAccount.sol\":4968:4982  ERC20.transfer */\n      0xffffffffffffffffffffffffffffffffffffffff\n      and\n      0xa9059cbb\n        /* \"contract/HeirAccount.sol\":4983:4992  recipient */\n      dup3\n        /* \"contract/HeirAccount.sol\":4994:5010  _amount.sub(fee) */\n      tag_217\n        /* \"contract/HeirAccount.sol\":5006:5009  fee */\n      sload(0x0a)\n        /* \"contract/HeirAccount.sol\":4994:5001  _amount */\n      dup10\n        /* \"contract/HeirAccount.sol\":4994:5005  _amount.sub */\n      tag_202\n      swap1\n        /* \"contract/HeirAccount.sol\":4994:5010  _amount.sub(fee) */\n      swap2\n      swap1\n      0xffffffff\n      and\n      jump\t// in\n    tag_217:\n        /* \"contract/HeirAccount.sol\":4968:5011  ERC20.transfer(recipient, _amount.sub(fee)) */\n      mload(0x40)\n      dup4\n      0xffffffff\n      and\n      0xe0\n      shl\n      dup2\n      mstore\n      0x04\n      add\n      tag_218\n      swap3\n      swap2\n      swap1\n      tag_219\n      jump\t// in\n    tag_218:\n      0x20\n      mload(0x40)\n      dup1\n      dup4\n      sub\n      dup2\n      0x00\n      dup8\n      dup1\n      extcodesize\n      iszero\n      dup1\n      iszero\n      tag_220\n      jumpi\n      0x00\n      dup1\n      revert\n    tag_220:\n      pop\n      gas\n      call\n      iszero\n      dup1\n      iszero\n      tag_222\n      jumpi\n      returndatasize\n      0x00\n      dup1\n      returndatacopy\n      revert(0x00, returndatasize)\n    tag_222:\n      pop\n      pop\n      pop\n      pop\n      mload(0x40)\n      returndatasize\n      not(0x1f)\n      0x1f\n      dup3\n      add\n      and\n      dup3\n      add\n      dup1\n      0x40\n      mstore\n      pop\n      dup2\n      add\n      swap1\n      tag_223\n      swap2\n      swap1\n      tag_224\n      jump\t// in\n    tag_223:\n      pop\n        /* \"contract/HeirAccount.sol\":5025:5030  ERC20 */\n      0x02\n      0x00\n      swap1\n      sload\n      swap1\n      0x0100\n      exp\n      swap1\n      div\n      0xffffffffffffffffffffffffffffffffffffffff\n      and\n        /* \"contract/HeirAccount.sol\":5025:5039  ERC20.transfer */\n      0xffffffffffffffffffffffffffffffffffffffff\n      and\n      0xa9059cbb\n        /* \"contract/HeirAccount.sol\":5040:5050  feeAddress */\n      0x07\n      0x00\n      swap1\n      sload\n      swap1\n      0x0100\n      exp\n      swap1\n      div\n      0xffffffffffffffffffffffffffffffffffffffff\n      and\n        /* \"contract/HeirAccount.sol\":5052:5055  fee */\n      sload(0x0a)\n        /* \"contract/HeirAccount.sol\":5025:5056  ERC20.transfer(feeAddress, fee) */\n      mload(0x40)\n      dup4\n      0xffffffff\n      and\n      0xe0\n      shl\n      dup2\n      mstore\n      0x04\n      add\n      tag_225\n      swap3\n      swap2\n      swap1\n      tag_219\n      jump\t// in\n    tag_225:\n      0x20\n      mload(0x40)\n      dup1\n      dup4\n      sub\n      dup2\n      0x00\n      dup8\n      dup1\n      extcodesize\n      iszero\n      dup1\n      iszero\n      tag_226\n      jumpi\n      0x00\n      dup1\n      revert\n    tag_226:\n      pop\n      gas\n      call\n      iszero\n      dup1\n      iszero\n      tag_228\n      jumpi\n      returndatasize\n      0x00\n      dup1\n      returndatacopy\n      revert(0x00, returndatasize)\n    tag_228:\n      pop\n      pop\n      pop\n      pop\n      mload(0x40)\n      returndatasize\n      not(0x1f)\n      0x1f\n      dup3\n      add\n      and\n      dup3\n      add\n      dup1\n      0x40\n      mstore\n      pop\n      dup2\n      add\n      swap1\n      tag_229\n      swap2\n      swap1\n      tag_224\n      jump\t// in\n    tag_229:\n      pop\n        /* \"contract/HeirAccount.sol\":4522:5067  if (_isCelo) {... */\n    tag_207:\n        /* \"contract/HeirAccount.sol\":4444:5073  {... */\n      pop\n        /* \"@openzeppelin/contracts/security/ReentrancyGuard.sol\":2292:2293  _ */\n      pop\n        /* \"@openzeppelin/contracts/security/ReentrancyGuard.sol\":2303:2323  _nonReentrantAfter() */\n      tag_230\n        /* \"@openzeppelin/contracts/security/ReentrancyGuard.sol\":2303:2321  _nonReentrantAfter */\n      tag_231\n        /* \"@openzeppelin/contracts/security/ReentrancyGuard.sol\":2303:2323  _nonReentrantAfter() */\n      jump\t// in\n    tag_230:\n        /* \"contract/HeirAccount.sol\":4248:5073  function transferOrWithdraw (bool _isWithdraw, bool _isCelo, address payable _recipient, uint _amount, address _ERC20Address, address _sender) public whenNotPaused nonReentrant onlyOwner(_sender) {... */\n      pop\n      pop\n      pop\n      pop\n      pop\n      pop\n      jump\t// out\n        /* \"contract/HeirAccount.sol\":1224:1252  address payable public owner */\n    tag_89:\n      0x04\n      0x00\n      swap1\n      sload\n      swap1\n      0x0100\n      exp\n      swap1\n      div\n      0xffffffffffffffffffffffffffffffffffffffff\n      and\n      dup2\n      jump\t// out\n        /* \"contract/HeirAccount.sol\":1289:1316  address payable public heir */\n    tag_93:\n      0x05\n      0x00\n      swap1\n      sload\n      swap1\n      0x0100\n      exp\n      swap1\n      div\n      0xffffffffffffffffffffffffffffffffffffffff\n      and\n      dup2\n      jump\t// out\n        /* \"contract/HeirAccount.sol\":5419:5499  function returnOwner() public view returns(address){... */\n    tag_97:\n        /* \"contract/HeirAccount.sol\":5462:5469  address */\n      0x00\n        /* \"contract/HeirAccount.sol\":5487:5492  owner */\n      0x04\n      0x00\n      swap1\n      sload\n      swap1\n      0x0100\n      exp\n      swap1\n      div\n      0xffffffffffffffffffffffffffffffffffffffff\n      and\n        /* \"contract/HeirAccount.sol\":5480:5492  return owner */\n      swap1\n      pop\n        /* \"contract/HeirAccount.sol\":5419:5499  function returnOwner() public view returns(address){... */\n      swap1\n      jump\t// out\n        /* \"contract/HeirAccount.sol\":1895:1919  uint public tokenBalance */\n    tag_101:\n      sload(0x0c)\n      dup2\n      jump\t// out\n        /* \"contract/HeirAccount.sol\":4017:4190  function stopClaim(address _sender) public onlyOwner(_sender) {... */\n    tag_106:\n        /* \"contract/HeirAccount.sol\":4070:4077  _sender */\n      dup1\n        /* \"contract/HeirAccount.sol\":1991:1996  owner */\n      0x04\n      0x00\n      swap1\n      sload\n      swap1\n      0x0100\n      exp\n      swap1\n      div\n      0xffffffffffffffffffffffffffffffffffffffff\n      and\n        /* \"contract/HeirAccount.sol\":1980:1996  _sender == owner */\n      0xffffffffffffffffffffffffffffffffffffffff\n      and\n        /* \"contract/HeirAccount.sol\":1980:1987  _sender */\n      dup2\n        /* \"contract/HeirAccount.sol\":1980:1996  _sender == owner */\n      0xffffffffffffffffffffffffffffffffffffffff\n      and\n      eq\n        /* \"contract/HeirAccount.sol\":1972:2038  require(_sender == owner, \"Only the owner can call this function\") */\n      tag_234\n      jumpi\n      mload(0x40)\n      0x08c379a000000000000000000000000000000000000000000000000000000000\n      dup2\n      mstore\n      0x04\n      add\n      tag_235\n      swap1\n      tag_164\n      jump\t// in\n    tag_235:\n      mload(0x40)\n      dup1\n      swap2\n      sub\n      swap1\n      revert\n    tag_234:\n        /* \"contract/HeirAccount.sol\":4097:4112  claimInProgress */\n      0x07\n      0x14\n      swap1\n      sload\n      swap1\n      0x0100\n      exp\n      swap1\n      div\n      0xff\n      and\n        /* \"contract/HeirAccount.sol\":4089:4150  require(claimInProgress, \"There is no active claim to stop.\") */\n      tag_237\n      jumpi\n      mload(0x40)\n      0x08c379a000000000000000000000000000000000000000000000000000000000\n      dup2\n      mstore\n      0x04\n      add\n      tag_238\n      swap1\n      tag_239\n      jump\t// in\n    tag_238:\n      mload(0x40)\n      dup1\n      swap2\n      sub\n      swap1\n      revert\n    tag_237:\n        /* \"contract/HeirAccount.sol\":4178:4183  false */\n      0x00\n        /* \"contract/HeirAccount.sol\":4160:4175  claimInProgress */\n      0x07\n      0x14\n        /* \"contract/HeirAccount.sol\":4160:4183  claimInProgress = false */\n      0x0100\n      exp\n      dup2\n      sload\n      dup2\n      0xff\n      mul\n      not\n      and\n      swap1\n      dup4\n      iszero\n      iszero\n      mul\n      or\n      swap1\n      sstore\n      pop\n        /* \"contract/HeirAccount.sol\":4017:4190  function stopClaim(address _sender) public onlyOwner(_sender) {... */\n      pop\n      pop\n      jump\t// out\n        /* \"contract/HeirAccount.sol\":1621:1649  uint public claimInitiatedAt */\n    tag_109:\n      sload(0x08)\n      dup2\n      jump\t// out\n        /* \"contract/HeirAccount.sol\":988:1007  IERC20 public ERC20 */\n    tag_113:\n      0x02\n      0x00\n      swap1\n      sload\n      swap1\n      0x0100\n      exp\n      swap1\n      div\n      0xffffffffffffffffffffffffffffffffffffffff\n      and\n      dup2\n      jump\t// out\n        /* \"contract/HeirAccount.sol\":1147:1170  address public deployer */\n    tag_118:\n      0x03\n      0x00\n      swap1\n      sload\n      swap1\n      0x0100\n      exp\n      swap1\n      div\n      0xffffffffffffffffffffffffffffffffffffffff\n      and\n      dup2\n      jump\t// out\n        /* \"contract/HeirAccount.sol\":3331:3569  function initiateClaim(address _sender) public whenNotPaused onlyHeir(_sender) {... */\n    tag_123:\n        /* \"@openzeppelin/contracts/security/Pausable.sol\":1239:1258  _requireNotPaused() */\n      tag_241\n        /* \"@openzeppelin/contracts/security/Pausable.sol\":1239:1256  _requireNotPaused */\n      tag_143\n        /* \"@openzeppelin/contracts/security/Pausable.sol\":1239:1258  _requireNotPaused() */\n      jump\t// in\n    tag_241:\n        /* \"contract/HeirAccount.sol\":3401:3408  _sender */\n      dup1\n        /* \"contract/HeirAccount.sol\":2128:2132  heir */\n      0x05\n      0x00\n      swap1\n      sload\n      swap1\n      0x0100\n      exp\n      swap1\n      div\n      0xffffffffffffffffffffffffffffffffffffffff\n      and\n        /* \"contract/HeirAccount.sol\":2117:2132  _sender == heir */\n      0xffffffffffffffffffffffffffffffffffffffff\n      and\n        /* \"contract/HeirAccount.sol\":2117:2124  _sender */\n      dup2\n        /* \"contract/HeirAccount.sol\":2117:2132  _sender == heir */\n      0xffffffffffffffffffffffffffffffffffffffff\n      and\n      eq\n        /* \"contract/HeirAccount.sol\":2109:2173  require(_sender == heir, \"Only the heir can call this function\") */\n      tag_243\n      jumpi\n      mload(0x40)\n      0x08c379a000000000000000000000000000000000000000000000000000000000\n      dup2\n      mstore\n      0x04\n      add\n      tag_244\n      swap1\n      tag_147\n      jump\t// in\n    tag_244:\n      mload(0x40)\n      dup1\n      swap2\n      sub\n      swap1\n      revert\n    tag_243:\n        /* \"contract/HeirAccount.sol\":3429:3444  claimInProgress */\n      0x07\n      0x14\n      swap1\n      sload\n      swap1\n      0x0100\n      exp\n      swap1\n      div\n      0xff\n      and\n        /* \"contract/HeirAccount.sol\":3428:3444  !claimInProgress */\n      iszero\n        /* \"contract/HeirAccount.sol\":3420:3486  require(!claimInProgress, \"Claim process is already in progress.\") */\n      tag_246\n      jumpi\n      mload(0x40)\n      0x08c379a000000000000000000000000000000000000000000000000000000000\n      dup2\n      mstore\n      0x04\n      add\n      tag_247\n      swap1\n      tag_248\n      jump\t// in\n    tag_247:\n      mload(0x40)\n      dup1\n      swap2\n      sub\n      swap1\n      revert\n    tag_246:\n        /* \"contract/HeirAccount.sol\":3514:3518  true */\n      0x01\n        /* \"contract/HeirAccount.sol\":3496:3511  claimInProgress */\n      0x07\n      0x14\n        /* \"contract/HeirAccount.sol\":3496:3518  claimInProgress = true */\n      0x0100\n      exp\n      dup2\n      sload\n      dup2\n      0xff\n      mul\n      not\n      and\n      swap1\n      dup4\n      iszero\n      iszero\n      mul\n      or\n      swap1\n      sstore\n      pop\n        /* \"contract/HeirAccount.sol\":3547:3562  block.timestamp */\n      timestamp\n        /* \"contract/HeirAccount.sol\":3528:3544  claimInitiatedAt */\n      0x08\n        /* \"contract/HeirAccount.sol\":3528:3562  claimInitiatedAt = block.timestamp */\n      dup2\n      swap1\n      sstore\n      pop\n        /* \"@openzeppelin/contracts/security/Pausable.sol\":1268:1269  _ */\n      pop\n        /* \"contract/HeirAccount.sol\":3331:3569  function initiateClaim(address _sender) public whenNotPaused onlyHeir(_sender) {... */\n      pop\n      jump\t// out\n        /* \"contract/HeirAccount.sol\":5851:5940  function returnTransferFee() public view returns(uint){... */\n    tag_126:\n        /* \"contract/HeirAccount.sol\":5900:5904  uint */\n      0x00\n        /* \"contract/HeirAccount.sol\":5922:5933  transferFee */\n      sload(0x0b)\n        /* \"contract/HeirAccount.sol\":5915:5933  return transferFee */\n      swap1\n      pop\n        /* \"contract/HeirAccount.sol\":5851:5940  function returnTransferFee() public view returns(uint){... */\n      swap1\n      jump\t// out\n        /* \"contract/HeirAccount.sol\":1529:1556  bool public claimInProgress */\n    tag_130:\n      0x07\n      0x14\n      swap1\n      sload\n      swap1\n      0x0100\n      exp\n      swap1\n      div\n      0xff\n      and\n      dup2\n      jump\t// out\n        /* \"@openzeppelin/contracts/security/Pausable.sol\":1767:1873  function _requireNotPaused() internal view virtual {... */\n    tag_143:\n        /* \"@openzeppelin/contracts/security/Pausable.sol\":1837:1845  paused() */\n      tag_251\n        /* \"@openzeppelin/contracts/security/Pausable.sol\":1837:1843  paused */\n      tag_65\n        /* \"@openzeppelin/contracts/security/Pausable.sol\":1837:1845  paused() */\n      jump\t// in\n    tag_251:\n        /* \"@openzeppelin/contracts/security/Pausable.sol\":1836:1845  !paused() */\n      iszero\n        /* \"@openzeppelin/contracts/security/Pausable.sol\":1828:1866  require(!paused(), \"Pausable: paused\") */\n      tag_252\n      jumpi\n      mload(0x40)\n      0x08c379a000000000000000000000000000000000000000000000000000000000\n      dup2\n      mstore\n      0x04\n      add\n      tag_253\n      swap1\n      tag_254\n      jump\t// in\n    tag_253:\n      mload(0x40)\n      dup1\n      swap2\n      sub\n      swap1\n      revert\n    tag_252:\n        /* \"@openzeppelin/contracts/security/Pausable.sol\":1767:1873  function _requireNotPaused() internal view virtual {... */\n      jump\t// out\n        /* \"@openzeppelin/contracts/security/Pausable.sol\":2433:2550  function _unpause() internal virtual whenPaused {... */\n    tag_167:\n        /* \"@openzeppelin/contracts/security/Pausable.sol\":1486:1502  _requirePaused() */\n      tag_256\n        /* \"@openzeppelin/contracts/security/Pausable.sol\":1486:1500  _requirePaused */\n      tag_257\n        /* \"@openzeppelin/contracts/security/Pausable.sol\":1486:1502  _requirePaused() */\n      jump\t// in\n    tag_256:\n        /* \"@openzeppelin/contracts/security/Pausable.sol\":2501:2506  false */\n      0x00\n        /* \"@openzeppelin/contracts/security/Pausable.sol\":2491:2498  _paused */\n      dup1\n      0x00\n        /* \"@openzeppelin/contracts/security/Pausable.sol\":2491:2506  _paused = false */\n      0x0100\n      exp\n      dup2\n      sload\n      dup2\n      0xff\n      mul\n      not\n      and\n      swap1\n      dup4\n      iszero\n      iszero\n      mul\n      or\n      swap1\n      sstore\n      pop\n        /* \"@openzeppelin/contracts/security/Pausable.sol\":2521:2543  Unpaused(_msgSender()) */\n      0x5db9ee0a495bf2e6ff9c91a7834c1ba4fdd244a5e8aa4e537bd38aeae4b073aa\n        /* \"@openzeppelin/contracts/security/Pausable.sol\":2530:2542  _msgSender() */\n      tag_259\n        /* \"@openzeppelin/contracts/security/Pausable.sol\":2530:2540  _msgSender */\n      tag_260\n        /* \"@openzeppelin/contracts/security/Pausable.sol\":2530:2542  _msgSender() */\n      jump\t// in\n    tag_259:\n        /* \"@openzeppelin/contracts/security/Pausable.sol\":2521:2543  Unpaused(_msgSender()) */\n      mload(0x40)\n      tag_261\n      swap2\n      swap1\n      tag_54\n      jump\t// in\n    tag_261:\n      mload(0x40)\n      dup1\n      swap2\n      sub\n      swap1\n      log1\n        /* \"@openzeppelin/contracts/security/Pausable.sol\":2433:2550  function _unpause() internal virtual whenPaused {... */\n      jump\t// out\n        /* \"@openzeppelin/contracts/security/Pausable.sol\":2186:2301  function _pause() internal virtual whenNotPaused {... */\n    tag_181:\n        /* \"@openzeppelin/contracts/security/Pausable.sol\":1239:1258  _requireNotPaused() */\n      tag_263\n        /* \"@openzeppelin/contracts/security/Pausable.sol\":1239:1256  _requireNotPaused */\n      tag_143\n        /* \"@openzeppelin/contracts/security/Pausable.sol\":1239:1258  _requireNotPaused() */\n      jump\t// in\n    tag_263:\n        /* \"@openzeppelin/contracts/security/Pausable.sol\":2255:2259  true */\n      0x01\n        /* \"@openzeppelin/contracts/security/Pausable.sol\":2245:2252  _paused */\n      0x00\n      dup1\n        /* \"@openzeppelin/contracts/security/Pausable.sol\":2245:2259  _paused = true */\n      0x0100\n      exp\n      dup2\n      sload\n      dup2\n      0xff\n      mul\n      not\n      and\n      swap1\n      dup4\n      iszero\n      iszero\n      mul\n      or\n      swap1\n      sstore\n      pop\n        /* \"@openzeppelin/contracts/security/Pausable.sol\":2274:2294  Paused(_msgSender()) */\n      0x62e78cea01bee320cd4e420270b5ea74000d11b0c9f74754ebdbfc544b05a258\n        /* \"@openzeppelin/contracts/security/Pausable.sol\":2281:2293  _msgSender() */\n      tag_265\n        /* \"@openzeppelin/contracts/security/Pausable.sol\":2281:2291  _msgSender */\n      tag_260\n        /* \"@openzeppelin/contracts/security/Pausable.sol\":2281:2293  _msgSender() */\n      jump\t// in\n    tag_265:\n        /* \"@openzeppelin/contracts/security/Pausable.sol\":2274:2294  Paused(_msgSender()) */\n      mload(0x40)\n      tag_266\n      swap2\n      swap1\n      tag_54\n      jump\t// in\n    tag_266:\n      mload(0x40)\n      dup1\n      swap2\n      sub\n      swap1\n      log1\n        /* \"@openzeppelin/contracts/security/Pausable.sol\":2186:2301  function _pause() internal virtual whenNotPaused {... */\n      jump\t// out\n        /* \"@openzeppelin/contracts/security/ReentrancyGuard.sol\":2336:2623  function _nonReentrantBefore() private {... */\n    tag_186:\n        /* \"@openzeppelin/contracts/security/ReentrancyGuard.sol\":1759:1760  2 */\n      0x02\n        /* \"@openzeppelin/contracts/security/ReentrancyGuard.sol\":2468:2475  _status */\n      sload(0x01)\n        /* \"@openzeppelin/contracts/security/ReentrancyGuard.sol\":2468:2487  _status != _ENTERED */\n      eq\n      iszero\n        /* \"@openzeppelin/contracts/security/ReentrancyGuard.sol\":2460:2523  require(_status != _ENTERED, \"ReentrancyGuard: reentrant call\") */\n      tag_268\n      jumpi\n      mload(0x40)\n      0x08c379a000000000000000000000000000000000000000000000000000000000\n      dup2\n      mstore\n      0x04\n      add\n      tag_269\n      swap1\n      tag_270\n      jump\t// in\n    tag_269:\n      mload(0x40)\n      dup1\n      swap2\n      sub\n      swap1\n      revert\n    tag_268:\n        /* \"@openzeppelin/contracts/security/ReentrancyGuard.sol\":1759:1760  2 */\n      0x02\n        /* \"@openzeppelin/contracts/security/ReentrancyGuard.sol\":2598:2605  _status */\n      0x01\n        /* \"@openzeppelin/contracts/security/ReentrancyGuard.sol\":2598:2616  _status = _ENTERED */\n      dup2\n      swap1\n      sstore\n      pop\n        /* \"@openzeppelin/contracts/security/ReentrancyGuard.sol\":2336:2623  function _nonReentrantBefore() private {... */\n      jump\t// out\n        /* \"@openzeppelin/contracts/utils/math/SafeMath.sol\":3465:3561  function mul(uint256 a, uint256 b) internal pure returns (uint256) {... */\n    tag_199:\n        /* \"@openzeppelin/contracts/utils/math/SafeMath.sol\":3523:3530  uint256 */\n      0x00\n        /* \"@openzeppelin/contracts/utils/math/SafeMath.sol\":3553:3554  b */\n      dup2\n        /* \"@openzeppelin/contracts/utils/math/SafeMath.sol\":3549:3550  a */\n      dup4\n        /* \"@openzeppelin/contracts/utils/math/SafeMath.sol\":3549:3554  a * b */\n      tag_272\n      swap2\n      swap1\n      tag_153\n      jump\t// in\n    tag_272:\n        /* \"@openzeppelin/contracts/utils/math/SafeMath.sol\":3542:3554  return a * b */\n      swap1\n      pop\n        /* \"@openzeppelin/contracts/utils/math/SafeMath.sol\":3465:3561  function mul(uint256 a, uint256 b) internal pure returns (uint256) {... */\n      swap3\n      swap2\n      pop\n      pop\n      jump\t// out\n        /* \"@openzeppelin/contracts/utils/math/SafeMath.sol\":3850:3946  function div(uint256 a, uint256 b) internal pure returns (uint256) {... */\n    tag_200:\n        /* \"@openzeppelin/contracts/utils/math/SafeMath.sol\":3908:3915  uint256 */\n      0x00\n        /* \"@openzeppelin/contracts/utils/math/SafeMath.sol\":3938:3939  b */\n      dup2\n        /* \"@openzeppelin/contracts/utils/math/SafeMath.sol\":3934:3935  a */\n      dup4\n        /* \"@openzeppelin/contracts/utils/math/SafeMath.sol\":3934:3939  a / b */\n      tag_274\n      swap2\n      swap1\n      tag_275\n      jump\t// in\n    tag_274:\n        /* \"@openzeppelin/contracts/utils/math/SafeMath.sol\":3927:3939  return a / b */\n      swap1\n      pop\n        /* \"@openzeppelin/contracts/utils/math/SafeMath.sol\":3850:3946  function div(uint256 a, uint256 b) internal pure returns (uint256) {... */\n      swap3\n      swap2\n      pop\n      pop\n      jump\t// out\n        /* \"@openzeppelin/contracts/utils/math/SafeMath.sol\":3122:3218  function sub(uint256 a, uint256 b) internal pure returns (uint256) {... */\n    tag_202:\n        /* \"@openzeppelin/contracts/utils/math/SafeMath.sol\":3180:3187  uint256 */\n      0x00\n        /* \"@openzeppelin/contracts/utils/math/SafeMath.sol\":3210:3211  b */\n      dup2\n        /* \"@openzeppelin/contracts/utils/math/SafeMath.sol\":3206:3207  a */\n      dup4\n        /* \"@openzeppelin/contracts/utils/math/SafeMath.sol\":3206:3211  a - b */\n      tag_277\n      swap2\n      swap1\n      tag_278\n      jump\t// in\n    tag_277:\n        /* \"@openzeppelin/contracts/utils/math/SafeMath.sol\":3199:3211  return a - b */\n      swap1\n      pop\n        /* \"@openzeppelin/contracts/utils/math/SafeMath.sol\":3122:3218  function sub(uint256 a, uint256 b) internal pure returns (uint256) {... */\n      swap3\n      swap2\n      pop\n      pop\n      jump\t// out\n        /* \"@openzeppelin/contracts/security/ReentrancyGuard.sol\":2629:2838  function _nonReentrantAfter() private {... */\n    tag_231:\n        /* \"@openzeppelin/contracts/security/ReentrancyGuard.sol\":1716:1717  1 */\n      0x01\n        /* \"@openzeppelin/contracts/security/ReentrancyGuard.sol\":2809:2816  _status */\n      dup1\n        /* \"@openzeppelin/contracts/security/ReentrancyGuard.sol\":2809:2831  _status = _NOT_ENTERED */\n      dup2\n      swap1\n      sstore\n      pop\n        /* \"@openzeppelin/contracts/security/ReentrancyGuard.sol\":2629:2838  function _nonReentrantAfter() private {... */\n      jump\t// out\n        /* \"@openzeppelin/contracts/security/Pausable.sol\":1945:2051  function _requirePaused() internal view virtual {... */\n    tag_257:\n        /* \"@openzeppelin/contracts/security/Pausable.sol\":2011:2019  paused() */\n      tag_281\n        /* \"@openzeppelin/contracts/security/Pausable.sol\":2011:2017  paused */\n      tag_65\n        /* \"@openzeppelin/contracts/security/Pausable.sol\":2011:2019  paused() */\n      jump\t// in\n    tag_281:\n        /* \"@openzeppelin/contracts/security/Pausable.sol\":2003:2044  require(paused(), \"Pausable: not paused\") */\n      tag_282\n      jumpi\n      mload(0x40)\n      0x08c379a000000000000000000000000000000000000000000000000000000000\n      dup2\n      mstore\n      0x04\n      add\n      tag_283\n      swap1\n      tag_284\n      jump\t// in\n    tag_283:\n      mload(0x40)\n      dup1\n      swap2\n      sub\n      swap1\n      revert\n    tag_282:\n        /* \"@openzeppelin/contracts/security/Pausable.sol\":1945:2051  function _requirePaused() internal view virtual {... */\n      jump\t// out\n        /* \"@openzeppelin/contracts/utils/Context.sol\":640:736  function _msgSender() internal view virtual returns (address) {... */\n    tag_260:\n        /* \"@openzeppelin/contracts/utils/Context.sol\":693:700  address */\n      0x00\n        /* \"@openzeppelin/contracts/utils/Context.sol\":719:729  msg.sender */\n      caller\n        /* \"@openzeppelin/contracts/utils/Context.sol\":712:729  return msg.sender */\n      swap1\n      pop\n        /* \"@openzeppelin/contracts/utils/Context.sol\":640:736  function _msgSender() internal view virtual returns (address) {... */\n      swap1\n      jump\t// out\n        /* \"#utility.yul\":7:146   */\n    tag_287:\n        /* \"#utility.yul\":53:58   */\n      0x00\n        /* \"#utility.yul\":91:97   */\n      dup2\n        /* \"#utility.yul\":78:98   */\n      calldataload\n        /* \"#utility.yul\":69:98   */\n      swap1\n      pop\n        /* \"#utility.yul\":107:140   */\n      tag_289\n        /* \"#utility.yul\":134:139   */\n      dup2\n        /* \"#utility.yul\":107:140   */\n      tag_290\n      jump\t// in\n    tag_289:\n        /* \"#utility.yul\":7:146   */\n      swap3\n      swap2\n      pop\n      pop\n      jump\t// out\n        /* \"#utility.yul\":152:307   */\n    tag_291:\n        /* \"#utility.yul\":206:211   */\n      0x00\n        /* \"#utility.yul\":244:250   */\n      dup2\n        /* \"#utility.yul\":231:251   */\n      calldataload\n        /* \"#utility.yul\":222:251   */\n      swap1\n      pop\n        /* \"#utility.yul\":260:301   */\n      tag_293\n        /* \"#utility.yul\":295:300   */\n      dup2\n        /* \"#utility.yul\":260:301   */\n      tag_294\n      jump\t// in\n    tag_293:\n        /* \"#utility.yul\":152:307   */\n      swap3\n      swap2\n      pop\n      pop\n      jump\t// out\n        /* \"#utility.yul\":313:446   */\n    tag_295:\n        /* \"#utility.yul\":356:361   */\n      0x00\n        /* \"#utility.yul\":394:400   */\n      dup2\n        /* \"#utility.yul\":381:401   */\n      calldataload\n        /* \"#utility.yul\":372:401   */\n      swap1\n      pop\n        /* \"#utility.yul\":410:440   */\n      tag_297\n        /* \"#utility.yul\":434:439   */\n      dup2\n        /* \"#utility.yul\":410:440   */\n      tag_298\n      jump\t// in\n    tag_297:\n        /* \"#utility.yul\":313:446   */\n      swap3\n      swap2\n      pop\n      pop\n      jump\t// out\n        /* \"#utility.yul\":452:589   */\n    tag_299:\n        /* \"#utility.yul\":506:511   */\n      0x00\n        /* \"#utility.yul\":537:543   */\n      dup2\n        /* \"#utility.yul\":531:544   */\n      mload\n        /* \"#utility.yul\":522:544   */\n      swap1\n      pop\n        /* \"#utility.yul\":553:583   */\n      tag_301\n        /* \"#utility.yul\":577:582   */\n      dup2\n        /* \"#utility.yul\":553:583   */\n      tag_298\n      jump\t// in\n    tag_301:\n        /* \"#utility.yul\":452:589   */\n      swap3\n      swap2\n      pop\n      pop\n      jump\t// out\n        /* \"#utility.yul\":595:734   */\n    tag_302:\n        /* \"#utility.yul\":641:646   */\n      0x00\n        /* \"#utility.yul\":679:685   */\n      dup2\n        /* \"#utility.yul\":666:686   */\n      calldataload\n        /* \"#utility.yul\":657:686   */\n      swap1\n      pop\n        /* \"#utility.yul\":695:728   */\n      tag_304\n        /* \"#utility.yul\":722:727   */\n      dup2\n        /* \"#utility.yul\":695:728   */\n      tag_305\n      jump\t// in\n    tag_304:\n        /* \"#utility.yul\":595:734   */\n      swap3\n      swap2\n      pop\n      pop\n      jump\t// out\n        /* \"#utility.yul\":740:883   */\n    tag_306:\n        /* \"#utility.yul\":797:802   */\n      0x00\n        /* \"#utility.yul\":828:834   */\n      dup2\n        /* \"#utility.yul\":822:835   */\n      mload\n        /* \"#utility.yul\":813:835   */\n      swap1\n      pop\n        /* \"#utility.yul\":844:877   */\n      tag_308\n        /* \"#utility.yul\":871:876   */\n      dup2\n        /* \"#utility.yul\":844:877   */\n      tag_305\n      jump\t// in\n    tag_308:\n        /* \"#utility.yul\":740:883   */\n      swap3\n      swap2\n      pop\n      pop\n      jump\t// out\n        /* \"#utility.yul\":889:1218   */\n    tag_48:\n        /* \"#utility.yul\":948:954   */\n      0x00\n        /* \"#utility.yul\":997:999   */\n      0x20\n        /* \"#utility.yul\":985:994   */\n      dup3\n        /* \"#utility.yul\":976:983   */\n      dup5\n        /* \"#utility.yul\":972:995   */\n      sub\n        /* \"#utility.yul\":968:1000   */\n      slt\n        /* \"#utility.yul\":965:1084   */\n      iszero\n      tag_310\n      jumpi\n        /* \"#utility.yul\":1003:1082   */\n      tag_311\n      tag_312\n      jump\t// in\n    tag_311:\n        /* \"#utility.yul\":965:1084   */\n    tag_310:\n        /* \"#utility.yul\":1123:1124   */\n      0x00\n        /* \"#utility.yul\":1148:1201   */\n      tag_313\n        /* \"#utility.yul\":1193:1200   */\n      dup5\n        /* \"#utility.yul\":1184:1190   */\n      dup3\n        /* \"#utility.yul\":1173:1182   */\n      dup6\n        /* \"#utility.yul\":1169:1191   */\n      add\n        /* \"#utility.yul\":1148:1201   */\n      tag_287\n      jump\t// in\n    tag_313:\n        /* \"#utility.yul\":1138:1201   */\n      swap2\n      pop\n        /* \"#utility.yul\":1094:1211   */\n      pop\n        /* \"#utility.yul\":889:1218   */\n      swap3\n      swap2\n      pop\n      pop\n      jump\t// out\n        /* \"#utility.yul\":1224:1859   */\n    tag_71:\n        /* \"#utility.yul\":1309:1315   */\n      0x00\n        /* \"#utility.yul\":1317:1323   */\n      dup1\n        /* \"#utility.yul\":1325:1331   */\n      0x00\n        /* \"#utility.yul\":1374:1376   */\n      0x60\n        /* \"#utility.yul\":1362:1371   */\n      dup5\n        /* \"#utility.yul\":1353:1360   */\n      dup7\n        /* \"#utility.yul\":1349:1372   */\n      sub\n        /* \"#utility.yul\":1345:1377   */\n      slt\n        /* \"#utility.yul\":1342:1461   */\n      iszero\n      tag_315\n      jumpi\n        /* \"#utility.yul\":1380:1459   */\n      tag_316\n      tag_312\n      jump\t// in\n    tag_316:\n        /* \"#utility.yul\":1342:1461   */\n    tag_315:\n        /* \"#utility.yul\":1500:1501   */\n      0x00\n        /* \"#utility.yul\":1525:1586   */\n      tag_317\n        /* \"#utility.yul\":1578:1585   */\n      dup7\n        /* \"#utility.yul\":1569:1575   */\n      dup3\n        /* \"#utility.yul\":1558:1567   */\n      dup8\n        /* \"#utility.yul\":1554:1576   */\n      add\n        /* \"#utility.yul\":1525:1586   */\n      tag_291\n      jump\t// in\n    tag_317:\n        /* \"#utility.yul\":1515:1586   */\n      swap4\n      pop\n        /* \"#utility.yul\":1471:1596   */\n      pop\n        /* \"#utility.yul\":1635:1637   */\n      0x20\n        /* \"#utility.yul\":1661:1714   */\n      tag_318\n        /* \"#utility.yul\":1706:1713   */\n      dup7\n        /* \"#utility.yul\":1697:1703   */\n      dup3\n        /* \"#utility.yul\":1686:1695   */\n      dup8\n        /* \"#utility.yul\":1682:1704   */\n      add\n        /* \"#utility.yul\":1661:1714   */\n      tag_302\n      jump\t// in\n    tag_318:\n        /* \"#utility.yul\":1651:1714   */\n      swap3\n      pop\n        /* \"#utility.yul\":1606:1724   */\n      pop\n        /* \"#utility.yul\":1763:1765   */\n      0x40\n        /* \"#utility.yul\":1789:1842   */\n      tag_319\n        /* \"#utility.yul\":1834:1841   */\n      dup7\n        /* \"#utility.yul\":1825:1831   */\n      dup3\n        /* \"#utility.yul\":1814:1823   */\n      dup8\n        /* \"#utility.yul\":1810:1832   */\n      add\n        /* \"#utility.yul\":1789:1842   */\n      tag_287\n      jump\t// in\n    tag_319:\n        /* \"#utility.yul\":1779:1842   */\n      swap2\n      pop\n        /* \"#utility.yul\":1734:1852   */\n      pop\n        /* \"#utility.yul\":1224:1859   */\n      swap3\n      pop\n      swap3\n      pop\n      swap3\n      jump\t// out\n        /* \"#utility.yul\":1865:2210   */\n    tag_224:\n        /* \"#utility.yul\":1932:1938   */\n      0x00\n        /* \"#utility.yul\":1981:1983   */\n      0x20\n        /* \"#utility.yul\":1969:1978   */\n      dup3\n        /* \"#utility.yul\":1960:1967   */\n      dup5\n        /* \"#utility.yul\":1956:1979   */\n      sub\n        /* \"#utility.yul\":1952:1984   */\n      slt\n        /* \"#utility.yul\":1949:2068   */\n      iszero\n      tag_321\n      jumpi\n        /* \"#utility.yul\":1987:2066   */\n      tag_322\n      tag_312\n      jump\t// in\n    tag_322:\n        /* \"#utility.yul\":1949:2068   */\n    tag_321:\n        /* \"#utility.yul\":2107:2108   */\n      0x00\n        /* \"#utility.yul\":2132:2193   */\n      tag_323\n        /* \"#utility.yul\":2185:2192   */\n      dup5\n        /* \"#utility.yul\":2176:2182   */\n      dup3\n        /* \"#utility.yul\":2165:2174   */\n      dup6\n        /* \"#utility.yul\":2161:2183   */\n      add\n        /* \"#utility.yul\":2132:2193   */\n      tag_299\n      jump\t// in\n    tag_323:\n        /* \"#utility.yul\":2122:2193   */\n      swap2\n      pop\n        /* \"#utility.yul\":2078:2203   */\n      pop\n        /* \"#utility.yul\":1865:2210   */\n      swap3\n      swap2\n      pop\n      pop\n      jump\t// out\n        /* \"#utility.yul\":2216:2684   */\n    tag_38:\n        /* \"#utility.yul\":2281:2287   */\n      0x00\n        /* \"#utility.yul\":2289:2295   */\n      dup1\n        /* \"#utility.yul\":2338:2340   */\n      0x40\n        /* \"#utility.yul\":2326:2335   */\n      dup4\n        /* \"#utility.yul\":2317:2324   */\n      dup6\n        /* \"#utility.yul\":2313:2336   */\n      sub\n        /* \"#utility.yul\":2309:2341   */\n      slt\n        /* \"#utility.yul\":2306:2425   */\n      iszero\n      tag_325\n      jumpi\n        /* \"#utility.yul\":2344:2423   */\n      tag_326\n      tag_312\n      jump\t// in\n    tag_326:\n        /* \"#utility.yul\":2306:2425   */\n    tag_325:\n        /* \"#utility.yul\":2464:2465   */\n      0x00\n        /* \"#utility.yul\":2489:2539   */\n      tag_327\n        /* \"#utility.yul\":2531:2538   */\n      dup6\n        /* \"#utility.yul\":2522:2528   */\n      dup3\n        /* \"#utility.yul\":2511:2520   */\n      dup7\n        /* \"#utility.yul\":2507:2529   */\n      add\n        /* \"#utility.yul\":2489:2539   */\n      tag_295\n      jump\t// in\n    tag_327:\n        /* \"#utility.yul\":2479:2539   */\n      swap3\n      pop\n        /* \"#utility.yul\":2435:2549   */\n      pop\n        /* \"#utility.yul\":2588:2590   */\n      0x20\n        /* \"#utility.yul\":2614:2667   */\n      tag_328\n        /* \"#utility.yul\":2659:2666   */\n      dup6\n        /* \"#utility.yul\":2650:2656   */\n      dup3\n        /* \"#utility.yul\":2639:2648   */\n      dup7\n        /* \"#utility.yul\":2635:2657   */\n      add\n        /* \"#utility.yul\":2614:2667   */\n      tag_287\n      jump\t// in\n    tag_328:\n        /* \"#utility.yul\":2604:2667   */\n      swap2\n      pop\n        /* \"#utility.yul\":2559:2677   */\n      pop\n        /* \"#utility.yul\":2216:2684   */\n      swap3\n      pop\n      swap3\n      swap1\n      pop\n      jump\t// out\n        /* \"#utility.yul\":2690:3751   */\n    tag_85:\n        /* \"#utility.yul\":2796:2802   */\n      0x00\n        /* \"#utility.yul\":2804:2810   */\n      dup1\n        /* \"#utility.yul\":2812:2818   */\n      0x00\n        /* \"#utility.yul\":2820:2826   */\n      dup1\n        /* \"#utility.yul\":2828:2834   */\n      0x00\n        /* \"#utility.yul\":2836:2842   */\n      dup1\n        /* \"#utility.yul\":2885:2888   */\n      0xc0\n        /* \"#utility.yul\":2873:2882   */\n      dup8\n        /* \"#utility.yul\":2864:2871   */\n      dup10\n        /* \"#utility.yul\":2860:2883   */\n      sub\n        /* \"#utility.yul\":2856:2889   */\n      slt\n        /* \"#utility.yul\":2853:2973   */\n      iszero\n      tag_330\n      jumpi\n        /* \"#utility.yul\":2892:2971   */\n      tag_331\n      tag_312\n      jump\t// in\n    tag_331:\n        /* \"#utility.yul\":2853:2973   */\n    tag_330:\n        /* \"#utility.yul\":3012:3013   */\n      0x00\n        /* \"#utility.yul\":3037:3087   */\n      tag_332\n        /* \"#utility.yul\":3079:3086   */\n      dup10\n        /* \"#utility.yul\":3070:3076   */\n      dup3\n        /* \"#utility.yul\":3059:3068   */\n      dup11\n        /* \"#utility.yul\":3055:3077   */\n      add\n        /* \"#utility.yul\":3037:3087   */\n      tag_295\n      jump\t// in\n    tag_332:\n        /* \"#utility.yul\":3027:3087   */\n      swap7\n      pop\n        /* \"#utility.yul\":2983:3097   */\n      pop\n        /* \"#utility.yul\":3136:3138   */\n      0x20\n        /* \"#utility.yul\":3162:3212   */\n      tag_333\n        /* \"#utility.yul\":3204:3211   */\n      dup10\n        /* \"#utility.yul\":3195:3201   */\n      dup3\n        /* \"#utility.yul\":3184:3193   */\n      dup11\n        /* \"#utility.yul\":3180:3202   */\n      add\n        /* \"#utility.yul\":3162:3212   */\n      tag_295\n      jump\t// in\n    tag_333:\n        /* \"#utility.yul\":3152:3212   */\n      swap6\n      pop\n        /* \"#utility.yul\":3107:3222   */\n      pop\n        /* \"#utility.yul\":3261:3263   */\n      0x40\n        /* \"#utility.yul\":3287:3348   */\n      tag_334\n        /* \"#utility.yul\":3340:3347   */\n      dup10\n        /* \"#utility.yul\":3331:3337   */\n      dup3\n        /* \"#utility.yul\":3320:3329   */\n      dup11\n        /* \"#utility.yul\":3316:3338   */\n      add\n        /* \"#utility.yul\":3287:3348   */\n      tag_291\n      jump\t// in\n    tag_334:\n        /* \"#utility.yul\":3277:3348   */\n      swap5\n      pop\n        /* \"#utility.yul\":3232:3358   */\n      pop\n        /* \"#utility.yul\":3397:3399   */\n      0x60\n        /* \"#utility.yul\":3423:3476   */\n      tag_335\n        /* \"#utility.yul\":3468:3475   */\n      dup10\n        /* \"#utility.yul\":3459:3465   */\n      dup3\n        /* \"#utility.yul\":3448:3457   */\n      dup11\n        /* \"#utility.yul\":3444:3466   */\n      add\n        /* \"#utility.yul\":3423:3476   */\n      tag_302\n      jump\t// in\n    tag_335:\n        /* \"#utility.yul\":3413:3476   */\n      swap4\n      pop\n        /* \"#utility.yul\":3368:3486   */\n      pop\n        /* \"#utility.yul\":3525:3528   */\n      0x80\n        /* \"#utility.yul\":3552:3605   */\n      tag_336\n        /* \"#utility.yul\":3597:3604   */\n      dup10\n        /* \"#utility.yul\":3588:3594   */\n      dup3\n        /* \"#utility.yul\":3577:3586   */\n      dup11\n        /* \"#utility.yul\":3573:3595   */\n      add\n        /* \"#utility.yul\":3552:3605   */\n      tag_287\n      jump\t// in\n    tag_336:\n        /* \"#utility.yul\":3542:3605   */\n      swap3\n      pop\n        /* \"#utility.yul\":3496:3615   */\n      pop\n        /* \"#utility.yul\":3654:3657   */\n      0xa0\n        /* \"#utility.yul\":3681:3734   */\n      tag_337\n        /* \"#utility.yul\":3726:3733   */\n      dup10\n        /* \"#utility.yul\":3717:3723   */\n      dup3\n        /* \"#utility.yul\":3706:3715   */\n      dup11\n        /* \"#utility.yul\":3702:3724   */\n      add\n        /* \"#utility.yul\":3681:3734   */\n      tag_287\n      jump\t// in\n    tag_337:\n        /* \"#utility.yul\":3671:3734   */\n      swap2\n      pop\n        /* \"#utility.yul\":3625:3744   */\n      pop\n        /* \"#utility.yul\":2690:3751   */\n      swap3\n      swap6\n      pop\n      swap3\n      swap6\n      pop\n      swap3\n      swap6\n      jump\t// out\n        /* \"#utility.yul\":3757:4108   */\n    tag_140:\n        /* \"#utility.yul\":3827:3833   */\n      0x00\n        /* \"#utility.yul\":3876:3878   */\n      0x20\n        /* \"#utility.yul\":3864:3873   */\n      dup3\n        /* \"#utility.yul\":3855:3862   */\n      dup5\n        /* \"#utility.yul\":3851:3874   */\n      sub\n        /* \"#utility.yul\":3847:3879   */\n      slt\n        /* \"#utility.yul\":3844:3963   */\n      iszero\n      tag_339\n      jumpi\n        /* \"#utility.yul\":3882:3961   */\n      tag_340\n      tag_312\n      jump\t// in\n    tag_340:\n        /* \"#utility.yul\":3844:3963   */\n    tag_339:\n        /* \"#utility.yul\":4002:4003   */\n      0x00\n        /* \"#utility.yul\":4027:4091   */\n      tag_341\n        /* \"#utility.yul\":4083:4090   */\n      dup5\n        /* \"#utility.yul\":4074:4080   */\n      dup3\n        /* \"#utility.yul\":4063:4072   */\n      dup6\n        /* \"#utility.yul\":4059:4081   */\n      add\n        /* \"#utility.yul\":4027:4091   */\n      tag_306\n      jump\t// in\n    tag_341:\n        /* \"#utility.yul\":4017:4091   */\n      swap2\n      pop\n        /* \"#utility.yul\":3973:4101   */\n      pop\n        /* \"#utility.yul\":3757:4108   */\n      swap3\n      swap2\n      pop\n      pop\n      jump\t// out\n        /* \"#utility.yul\":4114:4261   */\n    tag_342:\n        /* \"#utility.yul\":4209:4254   */\n      tag_344\n        /* \"#utility.yul\":4248:4253   */\n      dup2\n        /* \"#utility.yul\":4209:4254   */\n      tag_345\n      jump\t// in\n    tag_344:\n        /* \"#utility.yul\":4204:4207   */\n      dup3\n        /* \"#utility.yul\":4197:4255   */\n      mstore\n        /* \"#utility.yul\":4114:4261   */\n      pop\n      pop\n      jump\t// out\n        /* \"#utility.yul\":4267:4409   */\n    tag_346:\n        /* \"#utility.yul\":4370:4402   */\n      tag_348\n        /* \"#utility.yul\":4396:4401   */\n      dup2\n        /* \"#utility.yul\":4370:4402   */\n      tag_349\n      jump\t// in\n    tag_348:\n        /* \"#utility.yul\":4365:4368   */\n      dup3\n        /* \"#utility.yul\":4358:4403   */\n      mstore\n        /* \"#utility.yul\":4267:4409   */\n      pop\n      pop\n      jump\t// out\n        /* \"#utility.yul\":4415:4533   */\n    tag_350:\n        /* \"#utility.yul\":4502:4526   */\n      tag_352\n        /* \"#utility.yul\":4520:4525   */\n      dup2\n        /* \"#utility.yul\":4502:4526   */\n      tag_353\n      jump\t// in\n    tag_352:\n        /* \"#utility.yul\":4497:4500   */\n      dup3\n        /* \"#utility.yul\":4490:4527   */\n      mstore\n        /* \"#utility.yul\":4415:4533   */\n      pop\n      pop\n      jump\t// out\n        /* \"#utility.yul\":4539:4648   */\n    tag_354:\n        /* \"#utility.yul\":4620:4641   */\n      tag_356\n        /* \"#utility.yul\":4635:4640   */\n      dup2\n        /* \"#utility.yul\":4620:4641   */\n      tag_357\n      jump\t// in\n    tag_356:\n        /* \"#utility.yul\":4615:4618   */\n      dup3\n        /* \"#utility.yul\":4608:4642   */\n      mstore\n        /* \"#utility.yul\":4539:4648   */\n      pop\n      pop\n      jump\t// out\n        /* \"#utility.yul\":4654:4813   */\n    tag_358:\n        /* \"#utility.yul\":4755:4806   */\n      tag_360\n        /* \"#utility.yul\":4800:4805   */\n      dup2\n        /* \"#utility.yul\":4755:4806   */\n      tag_361\n      jump\t// in\n    tag_360:\n        /* \"#utility.yul\":4750:4753   */\n      dup3\n        /* \"#utility.yul\":4743:4807   */\n      mstore\n        /* \"#utility.yul\":4654:4813   */\n      pop\n      pop\n      jump\t// out\n        /* \"#utility.yul\":4819:5185   */\n    tag_362:\n        /* \"#utility.yul\":4961:4964   */\n      0x00\n        /* \"#utility.yul\":4982:5049   */\n      tag_364\n        /* \"#utility.yul\":5046:5048   */\n      0x25\n        /* \"#utility.yul\":5041:5044   */\n      dup4\n        /* \"#utility.yul\":4982:5049   */\n      tag_365\n      jump\t// in\n    tag_364:\n        /* \"#utility.yul\":4975:5049   */\n      swap2\n      pop\n        /* \"#utility.yul\":5058:5151   */\n      tag_366\n        /* \"#utility.yul\":5147:5150   */\n      dup3\n        /* \"#utility.yul\":5058:5151   */\n      tag_367\n      jump\t// in\n    tag_366:\n        /* \"#utility.yul\":5176:5178   */\n      0x40\n        /* \"#utility.yul\":5171:5174   */\n      dup3\n        /* \"#utility.yul\":5167:5179   */\n      add\n        /* \"#utility.yul\":5160:5179   */\n      swap1\n      pop\n        /* \"#utility.yul\":4819:5185   */\n      swap2\n      swap1\n      pop\n      jump\t// out\n        /* \"#utility.yul\":5191:5557   */\n    tag_368:\n        /* \"#utility.yul\":5333:5336   */\n      0x00\n        /* \"#utility.yul\":5354:5421   */\n      tag_370\n        /* \"#utility.yul\":5418:5420   */\n      0x14\n        /* \"#utility.yul\":5413:5416   */\n      dup4\n        /* \"#utility.yul\":5354:5421   */\n      tag_365\n      jump\t// in\n    tag_370:\n        /* \"#utility.yul\":5347:5421   */\n      swap2\n      pop\n        /* \"#utility.yul\":5430:5523   */\n      tag_371\n        /* \"#utility.yul\":5519:5522   */\n      dup3\n        /* \"#utility.yul\":5430:5523   */\n      tag_372\n      jump\t// in\n    tag_371:\n        /* \"#utility.yul\":5548:5550   */\n      0x20\n        /* \"#utility.yul\":5543:5546   */\n      dup3\n        /* \"#utility.yul\":5539:5551   */\n      add\n        /* \"#utility.yul\":5532:5551   */\n      swap1\n      pop\n        /* \"#utility.yul\":5191:5557   */\n      swap2\n      swap1\n      pop\n      jump\t// out\n        /* \"#utility.yul\":5563:5929   */\n    tag_373:\n        /* \"#utility.yul\":5705:5708   */\n      0x00\n        /* \"#utility.yul\":5726:5793   */\n      tag_375\n        /* \"#utility.yul\":5790:5792   */\n      0x24\n        /* \"#utility.yul\":5785:5788   */\n      dup4\n        /* \"#utility.yul\":5726:5793   */\n      tag_365\n      jump\t// in\n    tag_375:\n        /* \"#utility.yul\":5719:5793   */\n      swap2\n      pop\n        /* \"#utility.yul\":5802:5895   */\n      tag_376\n        /* \"#utility.yul\":5891:5894   */\n      dup3\n        /* \"#utility.yul\":5802:5895   */\n      tag_377\n      jump\t// in\n    tag_376:\n        /* \"#utility.yul\":5920:5922   */\n      0x40\n        /* \"#utility.yul\":5915:5918   */\n      dup3\n        /* \"#utility.yul\":5911:5923   */\n      add\n        /* \"#utility.yul\":5904:5923   */\n      swap1\n      pop\n        /* \"#utility.yul\":5563:5929   */\n      swap2\n      swap1\n      pop\n      jump\t// out\n        /* \"#utility.yul\":5935:6301   */\n    tag_378:\n        /* \"#utility.yul\":6077:6080   */\n      0x00\n        /* \"#utility.yul\":6098:6165   */\n      tag_380\n        /* \"#utility.yul\":6162:6164   */\n      0x25\n        /* \"#utility.yul\":6157:6160   */\n      dup4\n        /* \"#utility.yul\":6098:6165   */\n      tag_365\n      jump\t// in\n    tag_380:\n        /* \"#utility.yul\":6091:6165   */\n      swap2\n      pop\n        /* \"#utility.yul\":6174:6267   */\n      tag_381\n        /* \"#utility.yul\":6263:6266   */\n      dup3\n        /* \"#utility.yul\":6174:6267   */\n      tag_382\n      jump\t// in\n    tag_381:\n        /* \"#utility.yul\":6292:6294   */\n      0x40\n        /* \"#utility.yul\":6287:6290   */\n      dup3\n        /* \"#utility.yul\":6283:6295   */\n      add\n        /* \"#utility.yul\":6276:6295   */\n      swap1\n      pop\n        /* \"#utility.yul\":5935:6301   */\n      swap2\n      swap1\n      pop\n      jump\t// out\n        /* \"#utility.yul\":6307:6673   */\n    tag_383:\n        /* \"#utility.yul\":6449:6452   */\n      0x00\n        /* \"#utility.yul\":6470:6537   */\n      tag_385\n        /* \"#utility.yul\":6534:6536   */\n      0x1c\n        /* \"#utility.yul\":6529:6532   */\n      dup4\n        /* \"#utility.yul\":6470:6537   */\n      tag_365\n      jump\t// in\n    tag_385:\n        /* \"#utility.yul\":6463:6537   */\n      swap2\n      pop\n        /* \"#utility.yul\":6546:6639   */\n      tag_386\n        /* \"#utility.yul\":6635:6638   */\n      dup3\n        /* \"#utility.yul\":6546:6639   */\n      tag_387\n      jump\t// in\n    tag_386:\n        /* \"#utility.yul\":6664:6666   */\n      0x20\n        /* \"#utility.yul\":6659:6662   */\n      dup3\n        /* \"#utility.yul\":6655:6667   */\n      add\n        /* \"#utility.yul\":6648:6667   */\n      swap1\n      pop\n        /* \"#utility.yul\":6307:6673   */\n      swap2\n      swap1\n      pop\n      jump\t// out\n        /* \"#utility.yul\":6679:7045   */\n    tag_388:\n        /* \"#utility.yul\":6821:6824   */\n      0x00\n        /* \"#utility.yul\":6842:6909   */\n      tag_390\n        /* \"#utility.yul\":6906:6908   */\n      0x1b\n        /* \"#utility.yul\":6901:6904   */\n      dup4\n        /* \"#utility.yul\":6842:6909   */\n      tag_365\n      jump\t// in\n    tag_390:\n        /* \"#utility.yul\":6835:6909   */\n      swap2\n      pop\n        /* \"#utility.yul\":6918:7011   */\n      tag_391\n        /* \"#utility.yul\":7007:7010   */\n      dup3\n        /* \"#utility.yul\":6918:7011   */\n      tag_392\n      jump\t// in\n    tag_391:\n        /* \"#utility.yul\":7036:7038   */\n      0x20\n        /* \"#utility.yul\":7031:7034   */\n      dup3\n        /* \"#utility.yul\":7027:7039   */\n      add\n        /* \"#utility.yul\":7020:7039   */\n      swap1\n      pop\n        /* \"#utility.yul\":6679:7045   */\n      swap2\n      swap1\n      pop\n      jump\t// out\n        /* \"#utility.yul\":7051:7417   */\n    tag_393:\n        /* \"#utility.yul\":7193:7196   */\n      0x00\n        /* \"#utility.yul\":7214:7281   */\n      tag_395\n        /* \"#utility.yul\":7278:7280   */\n      0x10\n        /* \"#utility.yul\":7273:7276   */\n      dup4\n        /* \"#utility.yul\":7214:7281   */\n      tag_365\n      jump\t// in\n    tag_395:\n        /* \"#utility.yul\":7207:7281   */\n      swap2\n      pop\n        /* \"#utility.yul\":7290:7383   */\n      tag_396\n        /* \"#utility.yul\":7379:7382   */\n      dup3\n        /* \"#utility.yul\":7290:7383   */\n      tag_397\n      jump\t// in\n    tag_396:\n        /* \"#utility.yul\":7408:7410   */\n      0x20\n        /* \"#utility.yul\":7403:7406   */\n      dup3\n        /* \"#utility.yul\":7399:7411   */\n      add\n        /* \"#utility.yul\":7392:7411   */\n      swap1\n      pop\n        /* \"#utility.yul\":7051:7417   */\n      swap2\n      swap1\n      pop\n      jump\t// out\n        /* \"#utility.yul\":7423:7789   */\n    tag_398:\n        /* \"#utility.yul\":7565:7568   */\n      0x00\n        /* \"#utility.yul\":7586:7653   */\n      tag_400\n        /* \"#utility.yul\":7650:7652   */\n      0x21\n        /* \"#utility.yul\":7645:7648   */\n      dup4\n        /* \"#utility.yul\":7586:7653   */\n      tag_365\n      jump\t// in\n    tag_400:\n        /* \"#utility.yul\":7579:7653   */\n      swap2\n      pop\n        /* \"#utility.yul\":7662:7755   */\n      tag_401\n        /* \"#utility.yul\":7751:7754   */\n      dup3\n        /* \"#utility.yul\":7662:7755   */\n      tag_402\n      jump\t// in\n    tag_401:\n        /* \"#utility.yul\":7780:7782   */\n      0x40\n        /* \"#utility.yul\":7775:7778   */\n      dup3\n        /* \"#utility.yul\":7771:7783   */\n      add\n        /* \"#utility.yul\":7764:7783   */\n      swap1\n      pop\n        /* \"#utility.yul\":7423:7789   */\n      swap2\n      swap1\n      pop\n      jump\t// out\n        /* \"#utility.yul\":7795:8161   */\n    tag_403:\n        /* \"#utility.yul\":7937:7940   */\n      0x00\n        /* \"#utility.yul\":7958:8025   */\n      tag_405\n        /* \"#utility.yul\":8022:8024   */\n      0x25\n        /* \"#utility.yul\":8017:8020   */\n      dup4\n        /* \"#utility.yul\":7958:8025   */\n      tag_365\n      jump\t// in\n    tag_405:\n        /* \"#utility.yul\":7951:8025   */\n      swap2\n      pop\n        /* \"#utility.yul\":8034:8127   */\n      tag_406\n        /* \"#utility.yul\":8123:8126   */\n      dup3\n        /* \"#utility.yul\":8034:8127   */\n      tag_407\n      jump\t// in\n    tag_406:\n        /* \"#utility.yul\":8152:8154   */\n      0x40\n        /* \"#utility.yul\":8147:8150   */\n      dup3\n        /* \"#utility.yul\":8143:8155   */\n      add\n        /* \"#utility.yul\":8136:8155   */\n      swap1\n      pop\n        /* \"#utility.yul\":7795:8161   */\n      swap2\n      swap1\n      pop\n      jump\t// out\n        /* \"#utility.yul\":8167:8533   */\n    tag_408:\n        /* \"#utility.yul\":8309:8312   */\n      0x00\n        /* \"#utility.yul\":8330:8397   */\n      tag_410\n        /* \"#utility.yul\":8394:8396   */\n      0x1f\n        /* \"#utility.yul\":8389:8392   */\n      dup4\n        /* \"#utility.yul\":8330:8397   */\n      tag_365\n      jump\t// in\n    tag_410:\n        /* \"#utility.yul\":8323:8397   */\n      swap2\n      pop\n        /* \"#utility.yul\":8406:8499   */\n      tag_411\n        /* \"#utility.yul\":8495:8498   */\n      dup3\n        /* \"#utility.yul\":8406:8499   */\n      tag_412\n      jump\t// in\n    tag_411:\n        /* \"#utility.yul\":8524:8526   */\n      0x20\n        /* \"#utility.yul\":8519:8522   */\n      dup3\n        /* \"#utility.yul\":8515:8527   */\n      add\n        /* \"#utility.yul\":8508:8527   */\n      swap1\n      pop\n        /* \"#utility.yul\":8167:8533   */\n      swap2\n      swap1\n      pop\n      jump\t// out\n        /* \"#utility.yul\":8539:8905   */\n    tag_413:\n        /* \"#utility.yul\":8681:8684   */\n      0x00\n        /* \"#utility.yul\":8702:8769   */\n      tag_415\n        /* \"#utility.yul\":8766:8768   */\n      0x13\n        /* \"#utility.yul\":8761:8764   */\n      dup4\n        /* \"#utility.yul\":8702:8769   */\n      tag_365\n      jump\t// in\n    tag_415:\n        /* \"#utility.yul\":8695:8769   */\n      swap2\n      pop\n        /* \"#utility.yul\":8778:8871   */\n      tag_416\n        /* \"#utility.yul\":8867:8870   */\n      dup3\n        /* \"#utility.yul\":8778:8871   */\n      tag_417\n      jump\t// in\n    tag_416:\n        /* \"#utility.yul\":8896:8898   */\n      0x20\n        /* \"#utility.yul\":8891:8894   */\n      dup3\n        /* \"#utility.yul\":8887:8899   */\n      add\n        /* \"#utility.yul\":8880:8899   */\n      swap1\n      pop\n        /* \"#utility.yul\":8539:8905   */\n      swap2\n      swap1\n      pop\n      jump\t// out\n        /* \"#utility.yul\":8911:9029   */\n    tag_418:\n        /* \"#utility.yul\":8998:9022   */\n      tag_420\n        /* \"#utility.yul\":9016:9021   */\n      dup2\n        /* \"#utility.yul\":8998:9022   */\n      tag_421\n      jump\t// in\n    tag_420:\n        /* \"#utility.yul\":8993:8996   */\n      dup3\n        /* \"#utility.yul\":8986:9023   */\n      mstore\n        /* \"#utility.yul\":8911:9029   */\n      pop\n      pop\n      jump\t// out\n        /* \"#utility.yul\":9035:9257   */\n    tag_54:\n        /* \"#utility.yul\":9128:9132   */\n      0x00\n        /* \"#utility.yul\":9166:9168   */\n      0x20\n        /* \"#utility.yul\":9155:9164   */\n      dup3\n        /* \"#utility.yul\":9151:9169   */\n      add\n        /* \"#utility.yul\":9143:9169   */\n      swap1\n      pop\n        /* \"#utility.yul\":9179:9250   */\n      tag_423\n        /* \"#utility.yul\":9247:9248   */\n      0x00\n        /* \"#utility.yul\":9236:9245   */\n      dup4\n        /* \"#utility.yul\":9232:9249   */\n      add\n        /* \"#utility.yul\":9223:9229   */\n      dup5\n        /* \"#utility.yul\":9179:9250   */\n      tag_350\n      jump\t// in\n    tag_423:\n        /* \"#utility.yul\":9035:9257   */\n      swap3\n      swap2\n      pop\n      pop\n      jump\t// out\n        /* \"#utility.yul\":9263:9517   */\n    tag_81:\n        /* \"#utility.yul\":9372:9376   */\n      0x00\n        /* \"#utility.yul\":9410:9412   */\n      0x20\n        /* \"#utility.yul\":9399:9408   */\n      dup3\n        /* \"#utility.yul\":9395:9413   */\n      add\n        /* \"#utility.yul\":9387:9413   */\n      swap1\n      pop\n        /* \"#utility.yul\":9423:9510   */\n      tag_425\n        /* \"#utility.yul\":9507:9508   */\n      0x00\n        /* \"#utility.yul\":9496:9505   */\n      dup4\n        /* \"#utility.yul\":9492:9509   */\n      add\n        /* \"#utility.yul\":9483:9489   */\n      dup5\n        /* \"#utility.yul\":9423:9510   */\n      tag_346\n      jump\t// in\n    tag_425:\n        /* \"#utility.yul\":9263:9517   */\n      swap3\n      swap2\n      pop\n      pop\n      jump\t// out\n        /* \"#utility.yul\":9523:9871   */\n    tag_219:\n        /* \"#utility.yul\":9652:9656   */\n      0x00\n        /* \"#utility.yul\":9690:9692   */\n      0x40\n        /* \"#utility.yul\":9679:9688   */\n      dup3\n        /* \"#utility.yul\":9675:9693   */\n      add\n        /* \"#utility.yul\":9667:9693   */\n      swap1\n      pop\n        /* \"#utility.yul\":9703:9782   */\n      tag_427\n        /* \"#utility.yul\":9779:9780   */\n      0x00\n        /* \"#utility.yul\":9768:9777   */\n      dup4\n        /* \"#utility.yul\":9764:9781   */\n      add\n        /* \"#utility.yul\":9755:9761   */\n      dup6\n        /* \"#utility.yul\":9703:9782   */\n      tag_342\n      jump\t// in\n    tag_427:\n        /* \"#utility.yul\":9792:9864   */\n      tag_428\n        /* \"#utility.yul\":9860:9862   */\n      0x20\n        /* \"#utility.yul\":9849:9858   */\n      dup4\n        /* \"#utility.yul\":9845:9863   */\n      add\n        /* \"#utility.yul\":9836:9842   */\n      dup5\n        /* \"#utility.yul\":9792:9864   */\n      tag_418\n      jump\t// in\n    tag_428:\n        /* \"#utility.yul\":9523:9871   */\n      swap4\n      swap3\n      pop\n      pop\n      pop\n      jump\t// out\n        /* \"#utility.yul\":9877:10087   */\n    tag_67:\n        /* \"#utility.yul\":9964:9968   */\n      0x00\n        /* \"#utility.yul\":10002:10004   */\n      0x20\n        /* \"#utility.yul\":9991:10000   */\n      dup3\n        /* \"#utility.yul\":9987:10005   */\n      add\n        /* \"#utility.yul\":9979:10005   */\n      swap1\n      pop\n        /* \"#utility.yul\":10015:10080   */\n      tag_430\n        /* \"#utility.yul\":10077:10078   */\n      0x00\n        /* \"#utility.yul\":10066:10075   */\n      dup4\n        /* \"#utility.yul\":10062:10079   */\n      add\n        /* \"#utility.yul\":10053:10059   */\n      dup5\n        /* \"#utility.yul\":10015:10080   */\n      tag_354\n      jump\t// in\n    tag_430:\n        /* \"#utility.yul\":9877:10087   */\n      swap3\n      swap2\n      pop\n      pop\n      jump\t// out\n        /* \"#utility.yul\":10093:10343   */\n    tag_115:\n        /* \"#utility.yul\":10200:10204   */\n      0x00\n        /* \"#utility.yul\":10238:10240   */\n      0x20\n        /* \"#utility.yul\":10227:10236   */\n      dup3\n        /* \"#utility.yul\":10223:10241   */\n      add\n        /* \"#utility.yul\":10215:10241   */\n      swap1\n      pop\n        /* \"#utility.yul\":10251:10336   */\n      tag_432\n        /* \"#utility.yul\":10333:10334   */\n      0x00\n        /* \"#utility.yul\":10322:10331   */\n      dup4\n        /* \"#utility.yul\":10318:10335   */\n      add\n        /* \"#utility.yul\":10309:10315   */\n      dup5\n        /* \"#utility.yul\":10251:10336   */\n      tag_358\n      jump\t// in\n    tag_432:\n        /* \"#utility.yul\":10093:10343   */\n      swap3\n      swap2\n      pop\n      pop\n      jump\t// out\n        /* \"#utility.yul\":10349:10768   */\n    tag_164:\n        /* \"#utility.yul\":10515:10519   */\n      0x00\n        /* \"#utility.yul\":10553:10555   */\n      0x20\n        /* \"#utility.yul\":10542:10551   */\n      dup3\n        /* \"#utility.yul\":10538:10556   */\n      add\n        /* \"#utility.yul\":10530:10556   */\n      swap1\n      pop\n        /* \"#utility.yul\":10602:10611   */\n      dup2\n        /* \"#utility.yul\":10596:10600   */\n      dup2\n        /* \"#utility.yul\":10592:10612   */\n      sub\n        /* \"#utility.yul\":10588:10589   */\n      0x00\n        /* \"#utility.yul\":10577:10586   */\n      dup4\n        /* \"#utility.yul\":10573:10590   */\n      add\n        /* \"#utility.yul\":10566:10613   */\n      mstore\n        /* \"#utility.yul\":10630:10761   */\n      tag_434\n        /* \"#utility.yul\":10756:10760   */\n      dup2\n        /* \"#utility.yul\":10630:10761   */\n      tag_362\n      jump\t// in\n    tag_434:\n        /* \"#utility.yul\":10622:10761   */\n      swap1\n      pop\n        /* \"#utility.yul\":10349:10768   */\n      swap2\n      swap1\n      pop\n      jump\t// out\n        /* \"#utility.yul\":10774:11193   */\n    tag_284:\n        /* \"#utility.yul\":10940:10944   */\n      0x00\n        /* \"#utility.yul\":10978:10980   */\n      0x20\n        /* \"#utility.yul\":10967:10976   */\n      dup3\n        /* \"#utility.yul\":10963:10981   */\n      add\n        /* \"#utility.yul\":10955:10981   */\n      swap1\n      pop\n        /* \"#utility.yul\":11027:11036   */\n      dup2\n        /* \"#utility.yul\":11021:11025   */\n      dup2\n        /* \"#utility.yul\":11017:11037   */\n      sub\n        /* \"#utility.yul\":11013:11014   */\n      0x00\n        /* \"#utility.yul\":11002:11011   */\n      dup4\n        /* \"#utility.yul\":10998:11015   */\n      add\n        /* \"#utility.yul\":10991:11038   */\n      mstore\n        /* \"#utility.yul\":11055:11186   */\n      tag_436\n        /* \"#utility.yul\":11181:11185   */\n      dup2\n        /* \"#utility.yul\":11055:11186   */\n      tag_368\n      jump\t// in\n    tag_436:\n        /* \"#utility.yul\":11047:11186   */\n      swap1\n      pop\n        /* \"#utility.yul\":10774:11193   */\n      swap2\n      swap1\n      pop\n      jump\t// out\n        /* \"#utility.yul\":11199:11618   */\n    tag_147:\n        /* \"#utility.yul\":11365:11369   */\n      0x00\n        /* \"#utility.yul\":11403:11405   */\n      0x20\n        /* \"#utility.yul\":11392:11401   */\n      dup3\n        /* \"#utility.yul\":11388:11406   */\n      add\n        /* \"#utility.yul\":11380:11406   */\n      swap1\n      pop\n        /* \"#utility.yul\":11452:11461   */\n      dup2\n        /* \"#utility.yul\":11446:11450   */\n      dup2\n        /* \"#utility.yul\":11442:11462   */\n      sub\n        /* \"#utility.yul\":11438:11439   */\n      0x00\n        /* \"#utility.yul\":11427:11436   */\n      dup4\n        /* \"#utility.yul\":11423:11440   */\n      add\n        /* \"#utility.yul\":11416:11463   */\n      mstore\n        /* \"#utility.yul\":11480:11611   */\n      tag_438\n        /* \"#utility.yul\":11606:11610   */\n      dup2\n        /* \"#utility.yul\":11480:11611   */\n      tag_373\n      jump\t// in\n    tag_438:\n        /* \"#utility.yul\":11472:11611   */\n      swap1\n      pop\n        /* \"#utility.yul\":11199:11618   */\n      swap2\n      swap1\n      pop\n      jump\t// out\n        /* \"#utility.yul\":11624:12043   */\n    tag_151:\n        /* \"#utility.yul\":11790:11794   */\n      0x00\n        /* \"#utility.yul\":11828:11830   */\n      0x20\n        /* \"#utility.yul\":11817:11826   */\n      dup3\n        /* \"#utility.yul\":11813:11831   */\n      add\n        /* \"#utility.yul\":11805:11831   */\n      swap1\n      pop\n        /* \"#utility.yul\":11877:11886   */\n      dup2\n        /* \"#utility.yul\":11871:11875   */\n      dup2\n        /* \"#utility.yul\":11867:11887   */\n      sub\n        /* \"#utility.yul\":11863:11864   */\n      0x00\n        /* \"#utility.yul\":11852:11861   */\n      dup4\n        /* \"#utility.yul\":11848:11865   */\n      add\n        /* \"#utility.yul\":11841:11888   */\n      mstore\n        /* \"#utility.yul\":11905:12036   */\n      tag_440\n        /* \"#utility.yul\":12031:12035   */\n      dup2\n        /* \"#utility.yul\":11905:12036   */\n      tag_378\n      jump\t// in\n    tag_440:\n        /* \"#utility.yul\":11897:12036   */\n      swap1\n      pop\n        /* \"#utility.yul\":11624:12043   */\n      swap2\n      swap1\n      pop\n      jump\t// out\n        /* \"#utility.yul\":12049:12468   */\n    tag_158:\n        /* \"#utility.yul\":12215:12219   */\n      0x00\n        /* \"#utility.yul\":12253:12255   */\n      0x20\n        /* \"#utility.yul\":12242:12251   */\n      dup3\n        /* \"#utility.yul\":12238:12256   */\n      add\n        /* \"#utility.yul\":12230:12256   */\n      swap1\n      pop\n        /* \"#utility.yul\":12302:12311   */\n      dup2\n        /* \"#utility.yul\":12296:12300   */\n      dup2\n        /* \"#utility.yul\":12292:12312   */\n      sub\n        /* \"#utility.yul\":12288:12289   */\n      0x00\n        /* \"#utility.yul\":12277:12286   */\n      dup4\n        /* \"#utility.yul\":12273:12290   */\n      add\n        /* \"#utility.yul\":12266:12313   */\n      mstore\n        /* \"#utility.yul\":12330:12461   */\n      tag_442\n        /* \"#utility.yul\":12456:12460   */\n      dup2\n        /* \"#utility.yul\":12330:12461   */\n      tag_383\n      jump\t// in\n    tag_442:\n        /* \"#utility.yul\":12322:12461   */\n      swap1\n      pop\n        /* \"#utility.yul\":12049:12468   */\n      swap2\n      swap1\n      pop\n      jump\t// out\n        /* \"#utility.yul\":12474:12893   */\n    tag_175:\n        /* \"#utility.yul\":12640:12644   */\n      0x00\n        /* \"#utility.yul\":12678:12680   */\n      0x20\n        /* \"#utility.yul\":12667:12676   */\n      dup3\n        /* \"#utility.yul\":12663:12681   */\n      add\n        /* \"#utility.yul\":12655:12681   */\n      swap1\n      pop\n        /* \"#utility.yul\":12727:12736   */\n      dup2\n        /* \"#utility.yul\":12721:12725   */\n      dup2\n        /* \"#utility.yul\":12717:12737   */\n      sub\n        /* \"#utility.yul\":12713:12714   */\n      0x00\n        /* \"#utility.yul\":12702:12711   */\n      dup4\n        /* \"#utility.yul\":12698:12715   */\n      add\n        /* \"#utility.yul\":12691:12738   */\n      mstore\n        /* \"#utility.yul\":12755:12886   */\n      tag_444\n        /* \"#utility.yul\":12881:12885   */\n      dup2\n        /* \"#utility.yul\":12755:12886   */\n      tag_388\n      jump\t// in\n    tag_444:\n        /* \"#utility.yul\":12747:12886   */\n      swap1\n      pop\n        /* \"#utility.yul\":12474:12893   */\n      swap2\n      swap1\n      pop\n      jump\t// out\n        /* \"#utility.yul\":12899:13318   */\n    tag_254:\n        /* \"#utility.yul\":13065:13069   */\n      0x00\n        /* \"#utility.yul\":13103:13105   */\n      0x20\n        /* \"#utility.yul\":13092:13101   */\n      dup3\n        /* \"#utility.yul\":13088:13106   */\n      add\n        /* \"#utility.yul\":13080:13106   */\n      swap1\n      pop\n        /* \"#utility.yul\":13152:13161   */\n      dup2\n        /* \"#utility.yul\":13146:13150   */\n      dup2\n        /* \"#utility.yul\":13142:13162   */\n      sub\n        /* \"#utility.yul\":13138:13139   */\n      0x00\n        /* \"#utility.yul\":13127:13136   */\n      dup4\n        /* \"#utility.yul\":13123:13140   */\n      add\n        /* \"#utility.yul\":13116:13163   */\n      mstore\n        /* \"#utility.yul\":13180:13311   */\n      tag_446\n        /* \"#utility.yul\":13306:13310   */\n      dup2\n        /* \"#utility.yul\":13180:13311   */\n      tag_393\n      jump\t// in\n    tag_446:\n        /* \"#utility.yul\":13172:13311   */\n      swap1\n      pop\n        /* \"#utility.yul\":12899:13318   */\n      swap2\n      swap1\n      pop\n      jump\t// out\n        /* \"#utility.yul\":13324:13743   */\n    tag_239:\n        /* \"#utility.yul\":13490:13494   */\n      0x00\n        /* \"#utility.yul\":13528:13530   */\n      0x20\n        /* \"#utility.yul\":13517:13526   */\n      dup3\n        /* \"#utility.yul\":13513:13531   */\n      add\n        /* \"#utility.yul\":13505:13531   */\n      swap1\n      pop\n        /* \"#utility.yul\":13577:13586   */\n      dup2\n        /* \"#utility.yul\":13571:13575   */\n      dup2\n        /* \"#utility.yul\":13567:13587   */\n      sub\n        /* \"#utility.yul\":13563:13564   */\n      0x00\n        /* \"#utility.yul\":13552:13561   */\n      dup4\n        /* \"#utility.yul\":13548:13565   */\n      add\n        /* \"#utility.yul\":13541:13588   */\n      mstore\n        /* \"#utility.yul\":13605:13736   */\n      tag_448\n        /* \"#utility.yul\":13731:13735   */\n      dup2\n        /* \"#utility.yul\":13605:13736   */\n      tag_398\n      jump\t// in\n    tag_448:\n        /* \"#utility.yul\":13597:13736   */\n      swap1\n      pop\n        /* \"#utility.yul\":13324:13743   */\n      swap2\n      swap1\n      pop\n      jump\t// out\n        /* \"#utility.yul\":13749:14168   */\n    tag_248:\n        /* \"#utility.yul\":13915:13919   */\n      0x00\n        /* \"#utility.yul\":13953:13955   */\n      0x20\n        /* \"#utility.yul\":13942:13951   */\n      dup3\n        /* \"#utility.yul\":13938:13956   */\n      add\n        /* \"#utility.yul\":13930:13956   */\n      swap1\n      pop\n        /* \"#utility.yul\":14002:14011   */\n      dup2\n        /* \"#utility.yul\":13996:14000   */\n      dup2\n        /* \"#utility.yul\":13992:14012   */\n      sub\n        /* \"#utility.yul\":13988:13989   */\n      0x00\n        /* \"#utility.yul\":13977:13986   */\n      dup4\n        /* \"#utility.yul\":13973:13990   */\n      add\n        /* \"#utility.yul\":13966:14013   */\n      mstore\n        /* \"#utility.yul\":14030:14161   */\n      tag_450\n        /* \"#utility.yul\":14156:14160   */\n      dup2\n        /* \"#utility.yul\":14030:14161   */\n      tag_403\n      jump\t// in\n    tag_450:\n        /* \"#utility.yul\":14022:14161   */\n      swap1\n      pop\n        /* \"#utility.yul\":13749:14168   */\n      swap2\n      swap1\n      pop\n      jump\t// out\n        /* \"#utility.yul\":14174:14593   */\n    tag_270:\n        /* \"#utility.yul\":14340:14344   */\n      0x00\n        /* \"#utility.yul\":14378:14380   */\n      0x20\n        /* \"#utility.yul\":14367:14376   */\n      dup3\n        /* \"#utility.yul\":14363:14381   */\n      add\n        /* \"#utility.yul\":14355:14381   */\n      swap1\n      pop\n        /* \"#utility.yul\":14427:14436   */\n      dup2\n        /* \"#utility.yul\":14421:14425   */\n      dup2\n        /* \"#utility.yul\":14417:14437   */\n      sub\n        /* \"#utility.yul\":14413:14414   */\n      0x00\n        /* \"#utility.yul\":14402:14411   */\n      dup4\n        /* \"#utility.yul\":14398:14415   */\n      add\n        /* \"#utility.yul\":14391:14438   */\n      mstore\n        /* \"#utility.yul\":14455:14586   */\n      tag_452\n        /* \"#utility.yul\":14581:14585   */\n      dup2\n        /* \"#utility.yul\":14455:14586   */\n      tag_408\n      jump\t// in\n    tag_452:\n        /* \"#utility.yul\":14447:14586   */\n      swap1\n      pop\n        /* \"#utility.yul\":14174:14593   */\n      swap2\n      swap1\n      pop\n      jump\t// out\n        /* \"#utility.yul\":14599:15018   */\n    tag_196:\n        /* \"#utility.yul\":14765:14769   */\n      0x00\n        /* \"#utility.yul\":14803:14805   */\n      0x20\n        /* \"#utility.yul\":14792:14801   */\n      dup3\n        /* \"#utility.yul\":14788:14806   */\n      add\n        /* \"#utility.yul\":14780:14806   */\n      swap1\n      pop\n        /* \"#utility.yul\":14852:14861   */\n      dup2\n        /* \"#utility.yul\":14846:14850   */\n      dup2\n        /* \"#utility.yul\":14842:14862   */\n      sub\n        /* \"#utility.yul\":14838:14839   */\n      0x00\n        /* \"#utility.yul\":14827:14836   */\n      dup4\n        /* \"#utility.yul\":14823:14840   */\n      add\n        /* \"#utility.yul\":14816:14863   */\n      mstore\n        /* \"#utility.yul\":14880:15011   */\n      tag_454\n        /* \"#utility.yul\":15006:15010   */\n      dup2\n        /* \"#utility.yul\":14880:15011   */\n      tag_413\n      jump\t// in\n    tag_454:\n        /* \"#utility.yul\":14872:15011   */\n      swap1\n      pop\n        /* \"#utility.yul\":14599:15018   */\n      swap2\n      swap1\n      pop\n      jump\t// out\n        /* \"#utility.yul\":15024:15246   */\n    tag_31:\n        /* \"#utility.yul\":15117:15121   */\n      0x00\n        /* \"#utility.yul\":15155:15157   */\n      0x20\n        /* \"#utility.yul\":15144:15153   */\n      dup3\n        /* \"#utility.yul\":15140:15158   */\n      add\n        /* \"#utility.yul\":15132:15158   */\n      swap1\n      pop\n        /* \"#utility.yul\":15168:15239   */\n      tag_456\n        /* \"#utility.yul\":15236:15237   */\n      0x00\n        /* \"#utility.yul\":15225:15234   */\n      dup4\n        /* \"#utility.yul\":15221:15238   */\n      add\n        /* \"#utility.yul\":15212:15218   */\n      dup5\n        /* \"#utility.yul\":15168:15239   */\n      tag_418\n      jump\t// in\n    tag_456:\n        /* \"#utility.yul\":15024:15246   */\n      swap3\n      swap2\n      pop\n      pop\n      jump\t// out\n        /* \"#utility.yul\":15333:15502   */\n    tag_365:\n        /* \"#utility.yul\":15417:15428   */\n      0x00\n        /* \"#utility.yul\":15451:15457   */\n      dup3\n        /* \"#utility.yul\":15446:15449   */\n      dup3\n        /* \"#utility.yul\":15439:15458   */\n      mstore\n        /* \"#utility.yul\":15491:15495   */\n      0x20\n        /* \"#utility.yul\":15486:15489   */\n      dup3\n        /* \"#utility.yul\":15482:15496   */\n      add\n        /* \"#utility.yul\":15467:15496   */\n      swap1\n      pop\n        /* \"#utility.yul\":15333:15502   */\n      swap3\n      swap2\n      pop\n      pop\n      jump\t// out\n        /* \"#utility.yul\":15508:15813   */\n    tag_155:\n        /* \"#utility.yul\":15548:15551   */\n      0x00\n        /* \"#utility.yul\":15567:15587   */\n      tag_461\n        /* \"#utility.yul\":15585:15586   */\n      dup3\n        /* \"#utility.yul\":15567:15587   */\n      tag_421\n      jump\t// in\n    tag_461:\n        /* \"#utility.yul\":15562:15587   */\n      swap2\n      pop\n        /* \"#utility.yul\":15601:15621   */\n      tag_462\n        /* \"#utility.yul\":15619:15620   */\n      dup4\n        /* \"#utility.yul\":15601:15621   */\n      tag_421\n      jump\t// in\n    tag_462:\n        /* \"#utility.yul\":15596:15621   */\n      swap3\n      pop\n        /* \"#utility.yul\":15755:15756   */\n      dup3\n        /* \"#utility.yul\":15687:15753   */\n      0xffffffffffffffffffffffffffffffffffffffffffffffffffffffffffffffff\n        /* \"#utility.yul\":15683:15757   */\n      sub\n        /* \"#utility.yul\":15680:15681   */\n      dup3\n        /* \"#utility.yul\":15677:15758   */\n      gt\n        /* \"#utility.yul\":15674:15781   */\n      iszero\n      tag_463\n      jumpi\n        /* \"#utility.yul\":15761:15779   */\n      tag_464\n      tag_465\n      jump\t// in\n    tag_464:\n        /* \"#utility.yul\":15674:15781   */\n    tag_463:\n        /* \"#utility.yul\":15805:15806   */\n      dup3\n        /* \"#utility.yul\":15802:15803   */\n      dup3\n        /* \"#utility.yul\":15798:15807   */\n      add\n        /* \"#utility.yul\":15791:15807   */\n      swap1\n      pop\n        /* \"#utility.yul\":15508:15813   */\n      swap3\n      swap2\n      pop\n      pop\n      jump\t// out\n        /* \"#utility.yul\":15819:16004   */\n    tag_275:\n        /* \"#utility.yul\":15859:15860   */\n      0x00\n        /* \"#utility.yul\":15876:15896   */\n      tag_467\n        /* \"#utility.yul\":15894:15895   */\n      dup3\n        /* \"#utility.yul\":15876:15896   */\n      tag_421\n      jump\t// in\n    tag_467:\n        /* \"#utility.yul\":15871:15896   */\n      swap2\n      pop\n        /* \"#utility.yul\":15910:15930   */\n      tag_468\n        /* \"#utility.yul\":15928:15929   */\n      dup4\n        /* \"#utility.yul\":15910:15930   */\n      tag_421\n      jump\t// in\n    tag_468:\n        /* \"#utility.yul\":15905:15930   */\n      swap3\n      pop\n        /* \"#utility.yul\":15949:15950   */\n      dup3\n        /* \"#utility.yul\":15939:15974   */\n      tag_469\n      jumpi\n        /* \"#utility.yul\":15954:15972   */\n      tag_470\n      tag_471\n      jump\t// in\n    tag_470:\n        /* \"#utility.yul\":15939:15974   */\n    tag_469:\n        /* \"#utility.yul\":15996:15997   */\n      dup3\n        /* \"#utility.yul\":15993:15994   */\n      dup3\n        /* \"#utility.yul\":15989:15998   */\n      div\n        /* \"#utility.yul\":15984:15998   */\n      swap1\n      pop\n        /* \"#utility.yul\":15819:16004   */\n      swap3\n      swap2\n      pop\n      pop\n      jump\t// out\n        /* \"#utility.yul\":16010:16358   */\n    tag_153:\n        /* \"#utility.yul\":16050:16057   */\n      0x00\n        /* \"#utility.yul\":16073:16093   */\n      tag_473\n        /* \"#utility.yul\":16091:16092   */\n      dup3\n        /* \"#utility.yul\":16073:16093   */\n      tag_421\n      jump\t// in\n    tag_473:\n        /* \"#utility.yul\":16068:16093   */\n      swap2\n      pop\n        /* \"#utility.yul\":16107:16127   */\n      tag_474\n        /* \"#utility.yul\":16125:16126   */\n      dup4\n        /* \"#utility.yul\":16107:16127   */\n      tag_421\n      jump\t// in\n    tag_474:\n        /* \"#utility.yul\":16102:16127   */\n      swap3\n      pop\n        /* \"#utility.yul\":16295:16296   */\n      dup2\n        /* \"#utility.yul\":16227:16293   */\n      0xffffffffffffffffffffffffffffffffffffffffffffffffffffffffffffffff\n        /* \"#utility.yul\":16223:16297   */\n      div\n        /* \"#utility.yul\":16220:16221   */\n      dup4\n        /* \"#utility.yul\":16217:16298   */\n      gt\n        /* \"#utility.yul\":16212:16213   */\n      dup3\n        /* \"#utility.yul\":16205:16214   */\n      iszero\n        /* \"#utility.yul\":16198:16215   */\n      iszero\n        /* \"#utility.yul\":16194:16299   */\n      and\n        /* \"#utility.yul\":16191:16322   */\n      iszero\n      tag_475\n      jumpi\n        /* \"#utility.yul\":16302:16320   */\n      tag_476\n      tag_465\n      jump\t// in\n    tag_476:\n        /* \"#utility.yul\":16191:16322   */\n    tag_475:\n        /* \"#utility.yul\":16350:16351   */\n      dup3\n        /* \"#utility.yul\":16347:16348   */\n      dup3\n        /* \"#utility.yul\":16343:16352   */\n      mul\n        /* \"#utility.yul\":16332:16352   */\n      swap1\n      pop\n        /* \"#utility.yul\":16010:16358   */\n      swap3\n      swap2\n      pop\n      pop\n      jump\t// out\n        /* \"#utility.yul\":16364:16555   */\n    tag_278:\n        /* \"#utility.yul\":16404:16408   */\n      0x00\n        /* \"#utility.yul\":16424:16444   */\n      tag_478\n        /* \"#utility.yul\":16442:16443   */\n      dup3\n        /* \"#utility.yul\":16424:16444   */\n      tag_421\n      jump\t// in\n    tag_478:\n        /* \"#utility.yul\":16419:16444   */\n      swap2\n      pop\n        /* \"#utility.yul\":16458:16478   */\n      tag_479\n        /* \"#utility.yul\":16476:16477   */\n      dup4\n        /* \"#utility.yul\":16458:16478   */\n      tag_421\n      jump\t// in\n    tag_479:\n        /* \"#utility.yul\":16453:16478   */\n      swap3\n      pop\n        /* \"#utility.yul\":16497:16498   */\n      dup3\n        /* \"#utility.yul\":16494:16495   */\n      dup3\n        /* \"#utility.yul\":16491:16499   */\n      lt\n        /* \"#utility.yul\":16488:16522   */\n      iszero\n      tag_480\n      jumpi\n        /* \"#utility.yul\":16502:16520   */\n      tag_481\n      tag_465\n      jump\t// in\n    tag_481:\n        /* \"#utility.yul\":16488:16522   */\n    tag_480:\n        /* \"#utility.yul\":16547:16548   */\n      dup3\n        /* \"#utility.yul\":16544:16545   */\n      dup3\n        /* \"#utility.yul\":16540:16549   */\n      sub\n        /* \"#utility.yul\":16532:16549   */\n      swap1\n      pop\n        /* \"#utility.yul\":16364:16555   */\n      swap3\n      swap2\n      pop\n      pop\n      jump\t// out\n        /* \"#utility.yul\":16561:16657   */\n    tag_353:\n        /* \"#utility.yul\":16598:16605   */\n      0x00\n        /* \"#utility.yul\":16627:16651   */\n      tag_483\n        /* \"#utility.yul\":16645:16650   */\n      dup3\n        /* \"#utility.yul\":16627:16651   */\n      tag_484\n      jump\t// in\n    tag_483:\n        /* \"#utility.yul\":16616:16651   */\n      swap1\n      pop\n        /* \"#utility.yul\":16561:16657   */\n      swap2\n      swap1\n      pop\n      jump\t// out\n        /* \"#utility.yul\":16663:16767   */\n    tag_349:\n        /* \"#utility.yul\":16708:16715   */\n      0x00\n        /* \"#utility.yul\":16737:16761   */\n      tag_486\n        /* \"#utility.yul\":16755:16760   */\n      dup3\n        /* \"#utility.yul\":16737:16761   */\n      tag_484\n      jump\t// in\n    tag_486:\n        /* \"#utility.yul\":16726:16761   */\n      swap1\n      pop\n        /* \"#utility.yul\":16663:16767   */\n      swap2\n      swap1\n      pop\n      jump\t// out\n        /* \"#utility.yul\":16773:16863   */\n    tag_357:\n        /* \"#utility.yul\":16807:16814   */\n      0x00\n        /* \"#utility.yul\":16850:16855   */\n      dup2\n        /* \"#utility.yul\":16843:16856   */\n      iszero\n        /* \"#utility.yul\":16836:16857   */\n      iszero\n        /* \"#utility.yul\":16825:16857   */\n      swap1\n      pop\n        /* \"#utility.yul\":16773:16863   */\n      swap2\n      swap1\n      pop\n      jump\t// out\n        /* \"#utility.yul\":16869:16995   */\n    tag_484:\n        /* \"#utility.yul\":16906:16913   */\n      0x00\n        /* \"#utility.yul\":16946:16988   */\n      0xffffffffffffffffffffffffffffffffffffffff\n        /* \"#utility.yul\":16939:16944   */\n      dup3\n        /* \"#utility.yul\":16935:16989   */\n      and\n        /* \"#utility.yul\":16924:16989   */\n      swap1\n      pop\n        /* \"#utility.yul\":16869:16995   */\n      swap2\n      swap1\n      pop\n      jump\t// out\n        /* \"#utility.yul\":17001:17078   */\n    tag_421:\n        /* \"#utility.yul\":17038:17045   */\n      0x00\n        /* \"#utility.yul\":17067:17072   */\n      dup2\n        /* \"#utility.yul\":17056:17072   */\n      swap1\n      pop\n        /* \"#utility.yul\":17001:17078   */\n      swap2\n      swap1\n      pop\n      jump\t// out\n        /* \"#utility.yul\":17084:17218   */\n    tag_345:\n        /* \"#utility.yul\":17142:17151   */\n      0x00\n        /* \"#utility.yul\":17175:17212   */\n      tag_491\n        /* \"#utility.yul\":17206:17211   */\n      dup3\n        /* \"#utility.yul\":17175:17212   */\n      tag_492\n      jump\t// in\n    tag_491:\n        /* \"#utility.yul\":17162:17212   */\n      swap1\n      pop\n        /* \"#utility.yul\":17084:17218   */\n      swap2\n      swap1\n      pop\n      jump\t// out\n        /* \"#utility.yul\":17224:17364   */\n    tag_361:\n        /* \"#utility.yul\":17288:17297   */\n      0x00\n        /* \"#utility.yul\":17321:17358   */\n      tag_494\n        /* \"#utility.yul\":17352:17357   */\n      dup3\n        /* \"#utility.yul\":17321:17358   */\n      tag_492\n      jump\t// in\n    tag_494:\n        /* \"#utility.yul\":17308:17358   */\n      swap1\n      pop\n        /* \"#utility.yul\":17224:17364   */\n      swap2\n      swap1\n      pop\n      jump\t// out\n        /* \"#utility.yul\":17370:17496   */\n    tag_492:\n        /* \"#utility.yul\":17420:17429   */\n      0x00\n        /* \"#utility.yul\":17453:17490   */\n      tag_496\n        /* \"#utility.yul\":17484:17489   */\n      dup3\n        /* \"#utility.yul\":17453:17490   */\n      tag_497\n      jump\t// in\n    tag_496:\n        /* \"#utility.yul\":17440:17490   */\n      swap1\n      pop\n        /* \"#utility.yul\":17370:17496   */\n      swap2\n      swap1\n      pop\n      jump\t// out\n        /* \"#utility.yul\":17502:17615   */\n    tag_497:\n        /* \"#utility.yul\":17552:17561   */\n      0x00\n        /* \"#utility.yul\":17585:17609   */\n      tag_499\n        /* \"#utility.yul\":17603:17608   */\n      dup3\n        /* \"#utility.yul\":17585:17609   */\n      tag_484\n      jump\t// in\n    tag_499:\n        /* \"#utility.yul\":17572:17609   */\n      swap1\n      pop\n        /* \"#utility.yul\":17502:17615   */\n      swap2\n      swap1\n      pop\n      jump\t// out\n        /* \"#utility.yul\":17621:17801   */\n    tag_465:\n        /* \"#utility.yul\":17669:17746   */\n      0x4e487b7100000000000000000000000000000000000000000000000000000000\n        /* \"#utility.yul\":17666:17667   */\n      0x00\n        /* \"#utility.yul\":17659:17747   */\n      mstore\n        /* \"#utility.yul\":17766:17770   */\n      0x11\n        /* \"#utility.yul\":17763:17764   */\n      0x04\n        /* \"#utility.yul\":17756:17771   */\n      mstore\n        /* \"#utility.yul\":17790:17794   */\n      0x24\n        /* \"#utility.yul\":17787:17788   */\n      0x00\n        /* \"#utility.yul\":17780:17795   */\n      revert\n        /* \"#utility.yul\":17807:17987   */\n    tag_471:\n        /* \"#utility.yul\":17855:17932   */\n      0x4e487b7100000000000000000000000000000000000000000000000000000000\n        /* \"#utility.yul\":17852:17853   */\n      0x00\n        /* \"#utility.yul\":17845:17933   */\n      mstore\n        /* \"#utility.yul\":17952:17956   */\n      0x12\n        /* \"#utility.yul\":17949:17950   */\n      0x04\n        /* \"#utility.yul\":17942:17957   */\n      mstore\n        /* \"#utility.yul\":17976:17980   */\n      0x24\n        /* \"#utility.yul\":17973:17974   */\n      0x00\n        /* \"#utility.yul\":17966:17981   */\n      revert\n        /* \"#utility.yul\":18116:18233   */\n    tag_312:\n        /* \"#utility.yul\":18225:18226   */\n      0x00\n        /* \"#utility.yul\":18222:18223   */\n      dup1\n        /* \"#utility.yul\":18215:18227   */\n      revert\n        /* \"#utility.yul\":18239:18463   */\n    tag_367:\n        /* \"#utility.yul\":18379:18413   */\n      0x4f6e6c7920746865206f776e65722063616e2063616c6c20746869732066756e\n        /* \"#utility.yul\":18375:18376   */\n      0x00\n        /* \"#utility.yul\":18367:18373   */\n      dup3\n        /* \"#utility.yul\":18363:18377   */\n      add\n        /* \"#utility.yul\":18356:18414   */\n      mstore\n        /* \"#utility.yul\":18448:18455   */\n      0x6374696f6e000000000000000000000000000000000000000000000000000000\n        /* \"#utility.yul\":18443:18445   */\n      0x20\n        /* \"#utility.yul\":18435:18441   */\n      dup3\n        /* \"#utility.yul\":18431:18446   */\n      add\n        /* \"#utility.yul\":18424:18456   */\n      mstore\n        /* \"#utility.yul\":18239:18463   */\n      pop\n      jump\t// out\n        /* \"#utility.yul\":18469:18639   */\n    tag_372:\n        /* \"#utility.yul\":18609:18631   */\n      0x5061757361626c653a206e6f7420706175736564000000000000000000000000\n        /* \"#utility.yul\":18605:18606   */\n      0x00\n        /* \"#utility.yul\":18597:18603   */\n      dup3\n        /* \"#utility.yul\":18593:18607   */\n      add\n        /* \"#utility.yul\":18586:18632   */\n      mstore\n        /* \"#utility.yul\":18469:18639   */\n      pop\n      jump\t// out\n        /* \"#utility.yul\":18645:18868   */\n    tag_377:\n        /* \"#utility.yul\":18785:18819   */\n      0x4f6e6c792074686520686569722063616e2063616c6c20746869732066756e63\n        /* \"#utility.yul\":18781:18782   */\n      0x00\n        /* \"#utility.yul\":18773:18779   */\n      dup3\n        /* \"#utility.yul\":18769:18783   */\n      add\n        /* \"#utility.yul\":18762:18820   */\n      mstore\n        /* \"#utility.yul\":18854:18860   */\n      0x74696f6e00000000000000000000000000000000000000000000000000000000\n        /* \"#utility.yul\":18849:18851   */\n      0x20\n        /* \"#utility.yul\":18841:18847   */\n      dup3\n        /* \"#utility.yul\":18837:18852   */\n      add\n        /* \"#utility.yul\":18830:18861   */\n      mstore\n        /* \"#utility.yul\":18645:18868   */\n      pop\n      jump\t// out\n        /* \"#utility.yul\":18874:19098   */\n    tag_382:\n        /* \"#utility.yul\":19014:19048   */\n      0x436c61696d2070726f6365737320686173206e6f74206265656e20696e697469\n        /* \"#utility.yul\":19010:19011   */\n      0x00\n        /* \"#utility.yul\":19002:19008   */\n      dup3\n        /* \"#utility.yul\":18998:19012   */\n      add\n        /* \"#utility.yul\":18991:19049   */\n      mstore\n        /* \"#utility.yul\":19083:19090   */\n      0x617465642e000000000000000000000000000000000000000000000000000000\n        /* \"#utility.yul\":19078:19080   */\n      0x20\n        /* \"#utility.yul\":19070:19076   */\n      dup3\n        /* \"#utility.yul\":19066:19081   */\n      add\n        /* \"#utility.yul\":19059:19091   */\n      mstore\n        /* \"#utility.yul\":18874:19098   */\n      pop\n      jump\t// out\n        /* \"#utility.yul\":19104:19282   */\n    tag_387:\n        /* \"#utility.yul\":19244:19274   */\n      0x436c61696d2064656c617920686173206e6f7420657870697265642e00000000\n        /* \"#utility.yul\":19240:19241   */\n      0x00\n        /* \"#utility.yul\":19232:19238   */\n      dup3\n        /* \"#utility.yul\":19228:19242   */\n      add\n        /* \"#utility.yul\":19221:19275   */\n      mstore\n        /* \"#utility.yul\":19104:19282   */\n      pop\n      jump\t// out\n        /* \"#utility.yul\":19288:19465   */\n    tag_392:\n        /* \"#utility.yul\":19428:19457   */\n      0x486569722063616e6e6f74206265207a65726f20616464726573730000000000\n        /* \"#utility.yul\":19424:19425   */\n      0x00\n        /* \"#utility.yul\":19416:19422   */\n      dup3\n        /* \"#utility.yul\":19412:19426   */\n      add\n        /* \"#utility.yul\":19405:19458   */\n      mstore\n        /* \"#utility.yul\":19288:19465   */\n      pop\n      jump\t// out\n        /* \"#utility.yul\":19471:19637   */\n    tag_397:\n        /* \"#utility.yul\":19611:19629   */\n      0x5061757361626c653a2070617573656400000000000000000000000000000000\n        /* \"#utility.yul\":19607:19608   */\n      0x00\n        /* \"#utility.yul\":19599:19605   */\n      dup3\n        /* \"#utility.yul\":19595:19609   */\n      add\n        /* \"#utility.yul\":19588:19630   */\n      mstore\n        /* \"#utility.yul\":19471:19637   */\n      pop\n      jump\t// out\n        /* \"#utility.yul\":19643:19863   */\n    tag_402:\n        /* \"#utility.yul\":19783:19817   */\n      0x5468657265206973206e6f2061637469766520636c61696d20746f2073746f70\n        /* \"#utility.yul\":19779:19780   */\n      0x00\n        /* \"#utility.yul\":19771:19777   */\n      dup3\n        /* \"#utility.yul\":19767:19781   */\n      add\n        /* \"#utility.yul\":19760:19818   */\n      mstore\n        /* \"#utility.yul\":19852:19855   */\n      0x2e00000000000000000000000000000000000000000000000000000000000000\n        /* \"#utility.yul\":19847:19849   */\n      0x20\n        /* \"#utility.yul\":19839:19845   */\n      dup3\n        /* \"#utility.yul\":19835:19850   */\n      add\n        /* \"#utility.yul\":19828:19856   */\n      mstore\n        /* \"#utility.yul\":19643:19863   */\n      pop\n      jump\t// out\n        /* \"#utility.yul\":19869:20093   */\n    tag_407:\n        /* \"#utility.yul\":20009:20043   */\n      0x436c61696d2070726f6365737320697320616c726561647920696e2070726f67\n        /* \"#utility.yul\":20005:20006   */\n      0x00\n        /* \"#utility.yul\":19997:20003   */\n      dup3\n        /* \"#utility.yul\":19993:20007   */\n      add\n        /* \"#utility.yul\":19986:20044   */\n      mstore\n        /* \"#utility.yul\":20078:20085   */\n      0x726573732e000000000000000000000000000000000000000000000000000000\n        /* \"#utility.yul\":20073:20075   */\n      0x20\n        /* \"#utility.yul\":20065:20071   */\n      dup3\n        /* \"#utility.yul\":20061:20076   */\n      add\n        /* \"#utility.yul\":20054:20086   */\n      mstore\n        /* \"#utility.yul\":19869:20093   */\n      pop\n      jump\t// out\n        /* \"#utility.yul\":20099:20280   */\n    tag_412:\n        /* \"#utility.yul\":20239:20272   */\n      0x5265656e7472616e637947756172643a207265656e7472616e742063616c6c00\n        /* \"#utility.yul\":20235:20236   */\n      0x00\n        /* \"#utility.yul\":20227:20233   */\n      dup3\n        /* \"#utility.yul\":20223:20237   */\n      add\n        /* \"#utility.yul\":20216:20273   */\n      mstore\n        /* \"#utility.yul\":20099:20280   */\n      pop\n      jump\t// out\n        /* \"#utility.yul\":20286:20455   */\n    tag_417:\n        /* \"#utility.yul\":20426:20447   */\n      0x496e73756666696369656e742066756e64732e00000000000000000000000000\n        /* \"#utility.yul\":20422:20423   */\n      0x00\n        /* \"#utility.yul\":20414:20420   */\n      dup3\n        /* \"#utility.yul\":20410:20424   */\n      add\n        /* \"#utility.yul\":20403:20448   */\n      mstore\n        /* \"#utility.yul\":20286:20455   */\n      pop\n      jump\t// out\n        /* \"#utility.yul\":20461:20583   */\n    tag_290:\n        /* \"#utility.yul\":20534:20558   */\n      tag_517\n        /* \"#utility.yul\":20552:20557   */\n      dup2\n        /* \"#utility.yul\":20534:20558   */\n      tag_353\n      jump\t// in\n    tag_517:\n        /* \"#utility.yul\":20527:20532   */\n      dup2\n        /* \"#utility.yul\":20524:20559   */\n      eq\n        /* \"#utility.yul\":20514:20577   */\n      tag_518\n      jumpi\n        /* \"#utility.yul\":20573:20574   */\n      0x00\n        /* \"#utility.yul\":20570:20571   */\n      dup1\n        /* \"#utility.yul\":20563:20575   */\n      revert\n        /* \"#utility.yul\":20514:20577   */\n    tag_518:\n        /* \"#utility.yul\":20461:20583   */\n      pop\n      jump\t// out\n        /* \"#utility.yul\":20589:20727   */\n    tag_294:\n        /* \"#utility.yul\":20670:20702   */\n      tag_520\n        /* \"#utility.yul\":20696:20701   */\n      dup2\n        /* \"#utility.yul\":20670:20702   */\n      tag_349\n      jump\t// in\n    tag_520:\n        /* \"#utility.yul\":20663:20668   */\n      dup2\n        /* \"#utility.yul\":20660:20703   */\n      eq\n        /* \"#utility.yul\":20650:20721   */\n      tag_521\n      jumpi\n        /* \"#utility.yul\":20717:20718   */\n      0x00\n        /* \"#utility.yul\":20714:20715   */\n      dup1\n        /* \"#utility.yul\":20707:20719   */\n      revert\n        /* \"#utility.yul\":20650:20721   */\n    tag_521:\n        /* \"#utility.yul\":20589:20727   */\n      pop\n      jump\t// out\n        /* \"#utility.yul\":20733:20849   */\n    tag_298:\n        /* \"#utility.yul\":20803:20824   */\n      tag_523\n        /* \"#utility.yul\":20818:20823   */\n      dup2\n        /* \"#utility.yul\":20803:20824   */\n      tag_357\n      jump\t// in\n    tag_523:\n        /* \"#utility.yul\":20796:20801   */\n      dup2\n        /* \"#utility.yul\":20793:20825   */\n      eq\n        /* \"#utility.yul\":20783:20843   */\n      tag_524\n      jumpi\n        /* \"#utility.yul\":20839:20840   */\n      0x00\n        /* \"#utility.yul\":20836:20837   */\n      dup1\n        /* \"#utility.yul\":20829:20841   */\n      revert\n        /* \"#utility.yul\":20783:20843   */\n    tag_524:\n        /* \"#utility.yul\":20733:20849   */\n      pop\n      jump\t// out\n        /* \"#utility.yul\":20855:20977   */\n    tag_305:\n        /* \"#utility.yul\":20928:20952   */\n      tag_526\n        /* \"#utility.yul\":20946:20951   */\n      dup2\n        /* \"#utility.yul\":20928:20952   */\n      tag_421\n      jump\t// in\n    tag_526:\n        /* \"#utility.yul\":20921:20926   */\n      dup2\n        /* \"#utility.yul\":20918:20953   */\n      eq\n        /* \"#utility.yul\":20908:20971   */\n      tag_527\n      jumpi\n        /* \"#utility.yul\":20967:20968   */\n      0x00\n        /* \"#utility.yul\":20964:20965   */\n      dup1\n        /* \"#utility.yul\":20957:20969   */\n      revert\n        /* \"#utility.yul\":20908:20971   */\n    tag_527:\n        /* \"#utility.yul\":20855:20977   */\n      pop\n      jump\t// out\n\n    auxdata: 0xa26469706673582212204436ff6b5d72cc48553779bb39780dda5cb672a422c32d353e2171fe237ebf3964736f6c63430008070033\n}\n",
				"bytecode": {
					"linkReferences": {},
					"object": "60806040523480156200001157600080fd5b506040516200229538038062002295833981810160405281019062000037919062000155565b60008060006101000a81548160ff0219169083151502179055506001808190555080600460006101000a81548173ffffffffffffffffffffffffffffffffffffffff021916908373ffffffffffffffffffffffffffffffffffffffff16021790555080600360006101000a81548173ffffffffffffffffffffffffffffffffffffffff021916908373ffffffffffffffffffffffffffffffffffffffff1602179055506001600b8190555073ca3c4df107a315de8545fb715917cae4f6af8bf1600760006101000a81548173ffffffffffffffffffffffffffffffffffffffff021916908373ffffffffffffffffffffffffffffffffffffffff16021790555050620001da565b6000815190506200014f81620001c0565b92915050565b6000602082840312156200016e576200016d620001bb565b5b60006200017e848285016200013e565b91505092915050565b600062000194826200019b565b9050919050565b600073ffffffffffffffffffffffffffffffffffffffff82169050919050565b600080fd5b620001cb8162000187565b8114620001d757600080fd5b50565b6120ab80620001ea6000396000f3fe6080604052600436106101395760003560e01c80638da5cb5b116100ab578063c7983e201161006f578063c7983e20146104c2578063cc4aa204146104ed578063d5f3948814610518578063f2b5eea714610543578063f5c91a0b1461056c578063faedd18e14610597576101a5565b80638da5cb5b146103ed57806391f2ebb81461041857806394a927fe146104435780639e1a4d191461046e578063b7d1d98e14610499576101a5565b806357b001f9116100fd57806357b001f9146102f35780635c975abb1461031c5780636e1a73731461034757806376a67a51146103705780637a80760e14610399578063836b1aff146103c4576101a5565b80631903b4311461020c5780631c8ec299146102495780631e83409a14610274578063362bb2ac1461029d57806356af4f75146102c8576101a5565b366101a5573373ffffffffffffffffffffffffffffffffffffffff163073ffffffffffffffffffffffffffffffffffffffff167f5548c837ab068cf56a2c2479df0882a4922fd203edb7517321831d95078c5f623460405161019b9190611b52565b60405180910390a3005b3373ffffffffffffffffffffffffffffffffffffffff163073ffffffffffffffffffffffffffffffffffffffff167f5548c837ab068cf56a2c2479df0882a4922fd203edb7517321831d95078c5f62346040516102029190611b52565b60405180910390a3005b34801561021857600080fd5b50610233600480360381019061022e9190611688565b6105c2565b6040516102409190611b52565b60405180910390f35b34801561025557600080fd5b5061025e610664565b60405161026b9190611b52565b60405180910390f35b34801561028057600080fd5b5061029b600480360381019061029691906115db565b61066a565b005b3480156102a957600080fd5b506102b2610834565b6040516102bf919061195d565b60405180910390f35b3480156102d457600080fd5b506102dd61085e565b6040516102ea919061195d565b60405180910390f35b3480156102ff57600080fd5b5061031a600480360381019061031591906115db565b610888565b005b34801561032857600080fd5b50610331610925565b60405161033e91906119bc565b60405180910390f35b34801561035357600080fd5b5061036e60048036038101906103699190611608565b61093b565b005b34801561037c57600080fd5b50610397600480360381019061039291906115db565b610a8a565b005b3480156103a557600080fd5b506103ae610b27565b6040516103bb9190611978565b60405180910390f35b3480156103d057600080fd5b506103eb60048036038101906103e691906116c8565b610b4d565b005b3480156103f957600080fd5b5061040261106a565b60405161040f9190611978565b60405180910390f35b34801561042457600080fd5b5061042d611090565b60405161043a9190611978565b60405180910390f35b34801561044f57600080fd5b506104586110b6565b604051610465919061195d565b60405180910390f35b34801561047a57600080fd5b506104836110e0565b6040516104909190611b52565b60405180910390f35b3480156104a557600080fd5b506104c060048036038101906104bb91906115db565b6110e6565b005b3480156104ce57600080fd5b506104d76111e5565b6040516104e49190611b52565b60405180910390f35b3480156104f957600080fd5b506105026111eb565b60405161050f91906119d7565b60405180910390f35b34801561052457600080fd5b5061052d611211565b60405161053a919061195d565b60405180910390f35b34801561054f57600080fd5b5061056a600480360381019061056591906115db565b611237565b005b34801561057857600080fd5b50610581611346565b60405161058e9190611b52565b60405180910390f35b3480156105a357600080fd5b506105ac611350565b6040516105b991906119bc565b60405180910390f35b600082156105d25747905061065e565b8173ffffffffffffffffffffffffffffffffffffffff166370a08231306040518263ffffffff1660e01b815260040161060b919061195d565b60206040518083038186803b15801561062357600080fd5b505afa158015610637573d6000803e3d6000fd5b505050506040513d601f19601f8201168201806040525081019061065b9190611755565b90505b92915050565b60095481565b610672611363565b80600560009054906101000a900473ffffffffffffffffffffffffffffffffffffffff1673ffffffffffffffffffffffffffffffffffffffff168173ffffffffffffffffffffffffffffffffffffffff1614610703576040517f08c379a00000000000000000000000000000000000000000000000000000000081526004016106fa90611a32565b60405180910390fd5b600760149054906101000a900460ff16610752576040517f08c379a000000000000000000000000000000000000000000000000000000000815260040161074990611a52565b60405180910390fd5b620151806009546107639190611c05565b6008546107709190611b7e565b4210156107b2576040517f08c379a00000000000000000000000000000000000000000000000000000000081526004016107a990611a72565b60405180910390fd5b600560009054906101000a900473ffffffffffffffffffffffffffffffffffffffff16600460006101000a81548173ffffffffffffffffffffffffffffffffffffffff021916908373ffffffffffffffffffffffffffffffffffffffff1602179055506000600760146101000a81548160ff0219169083151502179055505050565b6000600360009054906101000a900473ffffffffffffffffffffffffffffffffffffffff16905090565b6000600560009054906101000a900473ffffffffffffffffffffffffffffffffffffffff16905090565b80600460009054906101000a900473ffffffffffffffffffffffffffffffffffffffff1673ffffffffffffffffffffffffffffffffffffffff168173ffffffffffffffffffffffffffffffffffffffff1614610919576040517f08c379a0000000000000000000000000000000000000000000000000000000008152600401610910906119f2565b60405180910390fd5b6109216113ad565b5050565b60008060009054906101000a900460ff16905090565b80600460009054906101000a900473ffffffffffffffffffffffffffffffffffffffff1673ffffffffffffffffffffffffffffffffffffffff168173ffffffffffffffffffffffffffffffffffffffff16146109cc576040517f08c379a00000000000000000000000000000000000000000000000000000000081526004016109c3906119f2565b60405180910390fd5b600073ffffffffffffffffffffffffffffffffffffffff168473ffffffffffffffffffffffffffffffffffffffff161415610a3c576040517f08c379a0000000000000000000000000000000000000000000000000000000008152600401610a3390611a92565b60405180910390fd5b83600560006101000a81548173ffffffffffffffffffffffffffffffffffffffff021916908373ffffffffffffffffffffffffffffffffffffffff1602179055508260098190555050505050565b80600460009054906101000a900473ffffffffffffffffffffffffffffffffffffffff1673ffffffffffffffffffffffffffffffffffffffff168173ffffffffffffffffffffffffffffffffffffffff1614610b1b576040517f08c379a0000000000000000000000000000000000000000000000000000000008152600401610b12906119f2565b60405180910390fd5b610b2361140f565b5050565b600660009054906101000a900473ffffffffffffffffffffffffffffffffffffffff1681565b610b55611363565b610b5d611471565b80600460009054906101000a900473ffffffffffffffffffffffffffffffffffffffff1673ffffffffffffffffffffffffffffffffffffffff168173ffffffffffffffffffffffffffffffffffffffff1614610bee576040517f08c379a0000000000000000000000000000000000000000000000000000000008152600401610be5906119f2565b60405180910390fd5b600087610bfb5785610c1f565b600460009054906101000a900473ffffffffffffffffffffffffffffffffffffffff165b90508615610d635747851115610c6a576040517f08c379a0000000000000000000000000000000000000000000000000000000008152600401610c6190611b32565b60405180910390fd5b610c926064610c84600b54886114c190919063ffffffff16565b6114d790919063ffffffff16565b600a819055508073ffffffffffffffffffffffffffffffffffffffff166108fc610cc7600a54886114ed90919063ffffffff16565b9081150290604051600060405180830381858888f19350505050158015610cf2573d6000803e3d6000fd5b50600760009054906101000a900473ffffffffffffffffffffffffffffffffffffffff1673ffffffffffffffffffffffffffffffffffffffff166108fc600a549081150290604051600060405180830381858888f19350505050158015610d5d573d6000803e3d6000fd5b50611058565b83600260006101000a81548173ffffffffffffffffffffffffffffffffffffffff021916908373ffffffffffffffffffffffffffffffffffffffff160217905550600260009054906101000a900473ffffffffffffffffffffffffffffffffffffffff1673ffffffffffffffffffffffffffffffffffffffff166370a08231306040518263ffffffff1660e01b8152600401610dff919061195d565b60206040518083038186803b158015610e1757600080fd5b505afa158015610e2b573d6000803e3d6000fd5b505050506040513d601f19601f82011682018060405250810190610e4f9190611755565b851115610e91576040517f08c379a0000000000000000000000000000000000000000000000000000000008152600401610e8890611b32565b60405180910390fd5b610eb96064610eab600b54886114c190919063ffffffff16565b6114d790919063ffffffff16565b600a81905550600260009054906101000a900473ffffffffffffffffffffffffffffffffffffffff1673ffffffffffffffffffffffffffffffffffffffff1663a9059cbb82610f13600a54896114ed90919063ffffffff16565b6040518363ffffffff1660e01b8152600401610f30929190611993565b602060405180830381600087803b158015610f4a57600080fd5b505af1158015610f5e573d6000803e3d6000fd5b505050506040513d601f19601f82011682018060405250810190610f82919061165b565b50600260009054906101000a900473ffffffffffffffffffffffffffffffffffffffff1673ffffffffffffffffffffffffffffffffffffffff1663a9059cbb600760009054906101000a900473ffffffffffffffffffffffffffffffffffffffff16600a546040518363ffffffff1660e01b8152600401611004929190611993565b602060405180830381600087803b15801561101e57600080fd5b505af1158015611032573d6000803e3d6000fd5b505050506040513d601f19601f82011682018060405250810190611056919061165b565b505b5050611062611503565b505050505050565b600460009054906101000a900473ffffffffffffffffffffffffffffffffffffffff1681565b600560009054906101000a900473ffffffffffffffffffffffffffffffffffffffff1681565b6000600460009054906101000a900473ffffffffffffffffffffffffffffffffffffffff16905090565b600c5481565b80600460009054906101000a900473ffffffffffffffffffffffffffffffffffffffff1673ffffffffffffffffffffffffffffffffffffffff168173ffffffffffffffffffffffffffffffffffffffff1614611177576040517f08c379a000000000000000000000000000000000000000000000000000000000815260040161116e906119f2565b60405180910390fd5b600760149054906101000a900460ff166111c6576040517f08c379a00000000000000000000000000000000000000000000000000000000081526004016111bd90611ad2565b60405180910390fd5b6000600760146101000a81548160ff0219169083151502179055505050565b60085481565b600260009054906101000a900473ffffffffffffffffffffffffffffffffffffffff1681565b600360009054906101000a900473ffffffffffffffffffffffffffffffffffffffff1681565b61123f611363565b80600560009054906101000a900473ffffffffffffffffffffffffffffffffffffffff1673ffffffffffffffffffffffffffffffffffffffff168173ffffffffffffffffffffffffffffffffffffffff16146112d0576040517f08c379a00000000000000000000000000000000000000000000000000000000081526004016112c790611a32565b60405180910390fd5b600760149054906101000a900460ff1615611320576040517f08c379a000000000000000000000000000000000000000000000000000000000815260040161131790611af2565b60405180910390fd5b6001600760146101000a81548160ff021916908315150217905550426008819055505050565b6000600b54905090565b600760149054906101000a900460ff1681565b61136b610925565b156113ab576040517f08c379a00000000000000000000000000000000000000000000000000000000081526004016113a290611ab2565b60405180910390fd5b565b6113b561150c565b60008060006101000a81548160ff0219169083151502179055507f5db9ee0a495bf2e6ff9c91a7834c1ba4fdd244a5e8aa4e537bd38aeae4b073aa6113f8611555565b604051611405919061195d565b60405180910390a1565b611417611363565b60016000806101000a81548160ff0219169083151502179055507f62e78cea01bee320cd4e420270b5ea74000d11b0c9f74754ebdbfc544b05a25861145a611555565b604051611467919061195d565b60405180910390a1565b600260015414156114b7576040517f08c379a00000000000000000000000000000000000000000000000000000000081526004016114ae90611b12565b60405180910390fd5b6002600181905550565b600081836114cf9190611c05565b905092915050565b600081836114e59190611bd4565b905092915050565b600081836114fb9190611c5f565b905092915050565b60018081905550565b611514610925565b611553576040517f08c379a000000000000000000000000000000000000000000000000000000000815260040161154a90611a12565b60405180910390fd5b565b600033905090565b60008135905061156c81612019565b92915050565b60008135905061158181612030565b92915050565b60008135905061159681612047565b92915050565b6000815190506115ab81612047565b92915050565b6000813590506115c08161205e565b92915050565b6000815190506115d58161205e565b92915050565b6000602082840312156115f1576115f0611d93565b5b60006115ff8482850161155d565b91505092915050565b60008060006060848603121561162157611620611d93565b5b600061162f86828701611572565b9350506020611640868287016115b1565b92505060406116518682870161155d565b9150509250925092565b60006020828403121561167157611670611d93565b5b600061167f8482850161159c565b91505092915050565b6000806040838503121561169f5761169e611d93565b5b60006116ad85828601611587565b92505060206116be8582860161155d565b9150509250929050565b60008060008060008060c087890312156116e5576116e4611d93565b5b60006116f389828a01611587565b965050602061170489828a01611587565b955050604061171589828a01611572565b945050606061172689828a016115b1565b935050608061173789828a0161155d565b92505060a061174889828a0161155d565b9150509295509295509295565b60006020828403121561176b5761176a611d93565b5b6000611779848285016115c6565b91505092915050565b61178b81611ced565b82525050565b61179a81611ca5565b82525050565b6117a981611c93565b82525050565b6117b881611cb7565b82525050565b6117c781611cff565b82525050565b60006117da602583611b6d565b91506117e582611d98565b604082019050919050565b60006117fd601483611b6d565b915061180882611de7565b602082019050919050565b6000611820602483611b6d565b915061182b82611e10565b604082019050919050565b6000611843602583611b6d565b915061184e82611e5f565b604082019050919050565b6000611866601c83611b6d565b915061187182611eae565b602082019050919050565b6000611889601b83611b6d565b915061189482611ed7565b602082019050919050565b60006118ac601083611b6d565b91506118b782611f00565b602082019050919050565b60006118cf602183611b6d565b91506118da82611f29565b604082019050919050565b60006118f2602583611b6d565b91506118fd82611f78565b604082019050919050565b6000611915601f83611b6d565b915061192082611fc7565b602082019050919050565b6000611938601383611b6d565b915061194382611ff0565b602082019050919050565b61195781611ce3565b82525050565b600060208201905061197260008301846117a0565b92915050565b600060208201905061198d6000830184611791565b92915050565b60006040820190506119a86000830185611782565b6119b5602083018461194e565b9392505050565b60006020820190506119d160008301846117af565b92915050565b60006020820190506119ec60008301846117be565b92915050565b60006020820190508181036000830152611a0b816117cd565b9050919050565b60006020820190508181036000830152611a2b816117f0565b9050919050565b60006020820190508181036000830152611a4b81611813565b9050919050565b60006020820190508181036000830152611a6b81611836565b9050919050565b60006020820190508181036000830152611a8b81611859565b9050919050565b60006020820190508181036000830152611aab8161187c565b9050919050565b60006020820190508181036000830152611acb8161189f565b9050919050565b60006020820190508181036000830152611aeb816118c2565b9050919050565b60006020820190508181036000830152611b0b816118e5565b9050919050565b60006020820190508181036000830152611b2b81611908565b9050919050565b60006020820190508181036000830152611b4b8161192b565b9050919050565b6000602082019050611b67600083018461194e565b92915050565b600082825260208201905092915050565b6000611b8982611ce3565b9150611b9483611ce3565b9250827fffffffffffffffffffffffffffffffffffffffffffffffffffffffffffffffff03821115611bc957611bc8611d35565b5b828201905092915050565b6000611bdf82611ce3565b9150611bea83611ce3565b925082611bfa57611bf9611d64565b5b828204905092915050565b6000611c1082611ce3565b9150611c1b83611ce3565b9250817fffffffffffffffffffffffffffffffffffffffffffffffffffffffffffffffff0483118215151615611c5457611c53611d35565b5b828202905092915050565b6000611c6a82611ce3565b9150611c7583611ce3565b925082821015611c8857611c87611d35565b5b828203905092915050565b6000611c9e82611cc3565b9050919050565b6000611cb082611cc3565b9050919050565b60008115159050919050565b600073ffffffffffffffffffffffffffffffffffffffff82169050919050565b6000819050919050565b6000611cf882611d11565b9050919050565b6000611d0a82611d11565b9050919050565b6000611d1c82611d23565b9050919050565b6000611d2e82611cc3565b9050919050565b7f4e487b7100000000000000000000000000000000000000000000000000000000600052601160045260246000fd5b7f4e487b7100000000000000000000000000000000000000000000000000000000600052601260045260246000fd5b600080fd5b7f4f6e6c7920746865206f776e65722063616e2063616c6c20746869732066756e60008201527f6374696f6e000000000000000000000000000000000000000000000000000000602082015250565b7f5061757361626c653a206e6f7420706175736564000000000000000000000000600082015250565b7f4f6e6c792074686520686569722063616e2063616c6c20746869732066756e6360008201527f74696f6e00000000000000000000000000000000000000000000000000000000602082015250565b7f436c61696d2070726f6365737320686173206e6f74206265656e20696e69746960008201527f617465642e000000000000000000000000000000000000000000000000000000602082015250565b7f436c61696d2064656c617920686173206e6f7420657870697265642e00000000600082015250565b7f486569722063616e6e6f74206265207a65726f20616464726573730000000000600082015250565b7f5061757361626c653a2070617573656400000000000000000000000000000000600082015250565b7f5468657265206973206e6f2061637469766520636c61696d20746f2073746f7060008201527f2e00000000000000000000000000000000000000000000000000000000000000602082015250565b7f436c61696d2070726f6365737320697320616c726561647920696e2070726f6760008201527f726573732e000000000000000000000000000000000000000000000000000000602082015250565b7f5265656e7472616e637947756172643a207265656e7472616e742063616c6c00600082015250565b7f496e73756666696369656e742066756e64732e00000000000000000000000000600082015250565b61202281611c93565b811461202d57600080fd5b50565b61203981611ca5565b811461204457600080fd5b50565b61205081611cb7565b811461205b57600080fd5b50565b61206781611ce3565b811461207257600080fd5b5056fea26469706673582212204436ff6b5d72cc48553779bb39780dda5cb672a422c32d353e2171fe237ebf3964736f6c63430008070033",
					"opcodes": "PUSH1 0x80 PUSH1 0x40 MSTORE CALLVALUE DUP1 ISZERO PUSH3 0x11 JUMPI PUSH1 0x0 DUP1 REVERT JUMPDEST POP PUSH1 0x40 MLOAD PUSH3 0x2295 CODESIZE SUB DUP1 PUSH3 0x2295 DUP4 CODECOPY DUP2 DUP2 ADD PUSH1 0x40 MSTORE DUP2 ADD SWAP1 PUSH3 0x37 SWAP2 SWAP1 PUSH3 0x155 JUMP JUMPDEST PUSH1 0x0 DUP1 PUSH1 0x0 PUSH2 0x100 EXP DUP2 SLOAD DUP2 PUSH1 0xFF MUL NOT AND SWAP1 DUP4 ISZERO ISZERO MUL OR SWAP1 SSTORE POP PUSH1 0x1 DUP1 DUP2 SWAP1 SSTORE POP DUP1 PUSH1 0x4 PUSH1 0x0 PUSH2 0x100 EXP DUP2 SLOAD DUP2 PUSH20 0xFFFFFFFFFFFFFFFFFFFFFFFFFFFFFFFFFFFFFFFF MUL NOT AND SWAP1 DUP4 PUSH20 0xFFFFFFFFFFFFFFFFFFFFFFFFFFFFFFFFFFFFFFFF AND MUL OR SWAP1 SSTORE POP DUP1 PUSH1 0x3 PUSH1 0x0 PUSH2 0x100 EXP DUP2 SLOAD DUP2 PUSH20 0xFFFFFFFFFFFFFFFFFFFFFFFFFFFFFFFFFFFFFFFF MUL NOT AND SWAP1 DUP4 PUSH20 0xFFFFFFFFFFFFFFFFFFFFFFFFFFFFFFFFFFFFFFFF AND MUL OR SWAP1 SSTORE POP PUSH1 0x1 PUSH1 0xB DUP2 SWAP1 SSTORE POP PUSH20 0xCA3C4DF107A315DE8545FB715917CAE4F6AF8BF1 PUSH1 0x7 PUSH1 0x0 PUSH2 0x100 EXP DUP2 SLOAD DUP2 PUSH20 0xFFFFFFFFFFFFFFFFFFFFFFFFFFFFFFFFFFFFFFFF MUL NOT AND SWAP1 DUP4 PUSH20 0xFFFFFFFFFFFFFFFFFFFFFFFFFFFFFFFFFFFFFFFF AND MUL OR SWAP1 SSTORE POP POP PUSH3 0x1DA JUMP JUMPDEST PUSH1 0x0 DUP2 MLOAD SWAP1 POP PUSH3 0x14F DUP2 PUSH3 0x1C0 JUMP JUMPDEST SWAP3 SWAP2 POP POP JUMP JUMPDEST PUSH1 0x0 PUSH1 0x20 DUP3 DUP5 SUB SLT ISZERO PUSH3 0x16E JUMPI PUSH3 0x16D PUSH3 0x1BB JUMP JUMPDEST JUMPDEST PUSH1 0x0 PUSH3 0x17E DUP5 DUP3 DUP6 ADD PUSH3 0x13E JUMP JUMPDEST SWAP2 POP POP SWAP3 SWAP2 POP POP JUMP JUMPDEST PUSH1 0x0 PUSH3 0x194 DUP3 PUSH3 0x19B JUMP JUMPDEST SWAP1 POP SWAP2 SWAP1 POP JUMP JUMPDEST PUSH1 0x0 PUSH20 0xFFFFFFFFFFFFFFFFFFFFFFFFFFFFFFFFFFFFFFFF DUP3 AND SWAP1 POP SWAP2 SWAP1 POP JUMP JUMPDEST PUSH1 0x0 DUP1 REVERT JUMPDEST PUSH3 0x1CB DUP2 PUSH3 0x187 JUMP JUMPDEST DUP2 EQ PUSH3 0x1D7 JUMPI PUSH1 0x0 DUP1 REVERT JUMPDEST POP JUMP JUMPDEST PUSH2 0x20AB DUP1 PUSH3 0x1EA PUSH1 0x0 CODECOPY PUSH1 0x0 RETURN INVALID PUSH1 0x80 PUSH1 0x40 MSTORE PUSH1 0x4 CALLDATASIZE LT PUSH2 0x139 JUMPI PUSH1 0x0 CALLDATALOAD PUSH1 0xE0 SHR DUP1 PUSH4 0x8DA5CB5B GT PUSH2 0xAB JUMPI DUP1 PUSH4 0xC7983E20 GT PUSH2 0x6F JUMPI DUP1 PUSH4 0xC7983E20 EQ PUSH2 0x4C2 JUMPI DUP1 PUSH4 0xCC4AA204 EQ PUSH2 0x4ED JUMPI DUP1 PUSH4 0xD5F39488 EQ PUSH2 0x518 JUMPI DUP1 PUSH4 0xF2B5EEA7 EQ PUSH2 0x543 JUMPI DUP1 PUSH4 0xF5C91A0B EQ PUSH2 0x56C JUMPI DUP1 PUSH4 0xFAEDD18E EQ PUSH2 0x597 JUMPI PUSH2 0x1A5 JUMP JUMPDEST DUP1 PUSH4 0x8DA5CB5B EQ PUSH2 0x3ED JUMPI DUP1 PUSH4 0x91F2EBB8 EQ PUSH2 0x418 JUMPI DUP1 PUSH4 0x94A927FE EQ PUSH2 0x443 JUMPI DUP1 PUSH4 0x9E1A4D19 EQ PUSH2 0x46E JUMPI DUP1 PUSH4 0xB7D1D98E EQ PUSH2 0x499 JUMPI PUSH2 0x1A5 JUMP JUMPDEST DUP1 PUSH4 0x57B001F9 GT PUSH2 0xFD JUMPI DUP1 PUSH4 0x57B001F9 EQ PUSH2 0x2F3 JUMPI DUP1 PUSH4 0x5C975ABB EQ PUSH2 0x31C JUMPI DUP1 PUSH4 0x6E1A7373 EQ PUSH2 0x347 JUMPI DUP1 PUSH4 0x76A67A51 EQ PUSH2 0x370 JUMPI DUP1 PUSH4 0x7A80760E EQ PUSH2 0x399 JUMPI DUP1 PUSH4 0x836B1AFF EQ PUSH2 0x3C4 JUMPI PUSH2 0x1A5 JUMP JUMPDEST DUP1 PUSH4 0x1903B431 EQ PUSH2 0x20C JUMPI DUP1 PUSH4 0x1C8EC299 EQ PUSH2 0x249 JUMPI DUP1 PUSH4 0x1E83409A EQ PUSH2 0x274 JUMPI DUP1 PUSH4 0x362BB2AC EQ PUSH2 0x29D JUMPI DUP1 PUSH4 0x56AF4F75 EQ PUSH2 0x2C8 JUMPI PUSH2 0x1A5 JUMP JUMPDEST CALLDATASIZE PUSH2 0x1A5 JUMPI CALLER PUSH20 0xFFFFFFFFFFFFFFFFFFFFFFFFFFFFFFFFFFFFFFFF AND ADDRESS PUSH20 0xFFFFFFFFFFFFFFFFFFFFFFFFFFFFFFFFFFFFFFFF AND PUSH32 0x5548C837AB068CF56A2C2479DF0882A4922FD203EDB7517321831D95078C5F62 CALLVALUE PUSH1 0x40 MLOAD PUSH2 0x19B SWAP2 SWAP1 PUSH2 0x1B52 JUMP JUMPDEST PUSH1 0x40 MLOAD DUP1 SWAP2 SUB SWAP1 LOG3 STOP JUMPDEST CALLER PUSH20 0xFFFFFFFFFFFFFFFFFFFFFFFFFFFFFFFFFFFFFFFF AND ADDRESS PUSH20 0xFFFFFFFFFFFFFFFFFFFFFFFFFFFFFFFFFFFFFFFF AND PUSH32 0x5548C837AB068CF56A2C2479DF0882A4922FD203EDB7517321831D95078C5F62 CALLVALUE PUSH1 0x40 MLOAD PUSH2 0x202 SWAP2 SWAP1 PUSH2 0x1B52 JUMP JUMPDEST PUSH1 0x40 MLOAD DUP1 SWAP2 SUB SWAP1 LOG3 STOP JUMPDEST CALLVALUE DUP1 ISZERO PUSH2 0x218 JUMPI PUSH1 0x0 DUP1 REVERT JUMPDEST POP PUSH2 0x233 PUSH1 0x4 DUP1 CALLDATASIZE SUB DUP2 ADD SWAP1 PUSH2 0x22E SWAP2 SWAP1 PUSH2 0x1688 JUMP JUMPDEST PUSH2 0x5C2 JUMP JUMPDEST PUSH1 0x40 MLOAD PUSH2 0x240 SWAP2 SWAP1 PUSH2 0x1B52 JUMP JUMPDEST PUSH1 0x40 MLOAD DUP1 SWAP2 SUB SWAP1 RETURN JUMPDEST CALLVALUE DUP1 ISZERO PUSH2 0x255 JUMPI PUSH1 0x0 DUP1 REVERT JUMPDEST POP PUSH2 0x25E PUSH2 0x664 JUMP JUMPDEST PUSH1 0x40 MLOAD PUSH2 0x26B SWAP2 SWAP1 PUSH2 0x1B52 JUMP JUMPDEST PUSH1 0x40 MLOAD DUP1 SWAP2 SUB SWAP1 RETURN JUMPDEST CALLVALUE DUP1 ISZERO PUSH2 0x280 JUMPI PUSH1 0x0 DUP1 REVERT JUMPDEST POP PUSH2 0x29B PUSH1 0x4 DUP1 CALLDATASIZE SUB DUP2 ADD SWAP1 PUSH2 0x296 SWAP2 SWAP1 PUSH2 0x15DB JUMP JUMPDEST PUSH2 0x66A JUMP JUMPDEST STOP JUMPDEST CALLVALUE DUP1 ISZERO PUSH2 0x2A9 JUMPI PUSH1 0x0 DUP1 REVERT JUMPDEST POP PUSH2 0x2B2 PUSH2 0x834 JUMP JUMPDEST PUSH1 0x40 MLOAD PUSH2 0x2BF SWAP2 SWAP1 PUSH2 0x195D JUMP JUMPDEST PUSH1 0x40 MLOAD DUP1 SWAP2 SUB SWAP1 RETURN JUMPDEST CALLVALUE DUP1 ISZERO PUSH2 0x2D4 JUMPI PUSH1 0x0 DUP1 REVERT JUMPDEST POP PUSH2 0x2DD PUSH2 0x85E JUMP JUMPDEST PUSH1 0x40 MLOAD PUSH2 0x2EA SWAP2 SWAP1 PUSH2 0x195D JUMP JUMPDEST PUSH1 0x40 MLOAD DUP1 SWAP2 SUB SWAP1 RETURN JUMPDEST CALLVALUE DUP1 ISZERO PUSH2 0x2FF JUMPI PUSH1 0x0 DUP1 REVERT JUMPDEST POP PUSH2 0x31A PUSH1 0x4 DUP1 CALLDATASIZE SUB DUP2 ADD SWAP1 PUSH2 0x315 SWAP2 SWAP1 PUSH2 0x15DB JUMP JUMPDEST PUSH2 0x888 JUMP JUMPDEST STOP JUMPDEST CALLVALUE DUP1 ISZERO PUSH2 0x328 JUMPI PUSH1 0x0 DUP1 REVERT JUMPDEST POP PUSH2 0x331 PUSH2 0x925 JUMP JUMPDEST PUSH1 0x40 MLOAD PUSH2 0x33E SWAP2 SWAP1 PUSH2 0x19BC JUMP JUMPDEST PUSH1 0x40 MLOAD DUP1 SWAP2 SUB SWAP1 RETURN JUMPDEST CALLVALUE DUP1 ISZERO PUSH2 0x353 JUMPI PUSH1 0x0 DUP1 REVERT JUMPDEST POP PUSH2 0x36E PUSH1 0x4 DUP1 CALLDATASIZE SUB DUP2 ADD SWAP1 PUSH2 0x369 SWAP2 SWAP1 PUSH2 0x1608 JUMP JUMPDEST PUSH2 0x93B JUMP JUMPDEST STOP JUMPDEST CALLVALUE DUP1 ISZERO PUSH2 0x37C JUMPI PUSH1 0x0 DUP1 REVERT JUMPDEST POP PUSH2 0x397 PUSH1 0x4 DUP1 CALLDATASIZE SUB DUP2 ADD SWAP1 PUSH2 0x392 SWAP2 SWAP1 PUSH2 0x15DB JUMP JUMPDEST PUSH2 0xA8A JUMP JUMPDEST STOP JUMPDEST CALLVALUE DUP1 ISZERO PUSH2 0x3A5 JUMPI PUSH1 0x0 DUP1 REVERT JUMPDEST POP PUSH2 0x3AE PUSH2 0xB27 JUMP JUMPDEST PUSH1 0x40 MLOAD PUSH2 0x3BB SWAP2 SWAP1 PUSH2 0x1978 JUMP JUMPDEST PUSH1 0x40 MLOAD DUP1 SWAP2 SUB SWAP1 RETURN JUMPDEST CALLVALUE DUP1 ISZERO PUSH2 0x3D0 JUMPI PUSH1 0x0 DUP1 REVERT JUMPDEST POP PUSH2 0x3EB PUSH1 0x4 DUP1 CALLDATASIZE SUB DUP2 ADD SWAP1 PUSH2 0x3E6 SWAP2 SWAP1 PUSH2 0x16C8 JUMP JUMPDEST PUSH2 0xB4D JUMP JUMPDEST STOP JUMPDEST CALLVALUE DUP1 ISZERO PUSH2 0x3F9 JUMPI PUSH1 0x0 DUP1 REVERT JUMPDEST POP PUSH2 0x402 PUSH2 0x106A JUMP JUMPDEST PUSH1 0x40 MLOAD PUSH2 0x40F SWAP2 SWAP1 PUSH2 0x1978 JUMP JUMPDEST PUSH1 0x40 MLOAD DUP1 SWAP2 SUB SWAP1 RETURN JUMPDEST CALLVALUE DUP1 ISZERO PUSH2 0x424 JUMPI PUSH1 0x0 DUP1 REVERT JUMPDEST POP PUSH2 0x42D PUSH2 0x1090 JUMP JUMPDEST PUSH1 0x40 MLOAD PUSH2 0x43A SWAP2 SWAP1 PUSH2 0x1978 JUMP JUMPDEST PUSH1 0x40 MLOAD DUP1 SWAP2 SUB SWAP1 RETURN JUMPDEST CALLVALUE DUP1 ISZERO PUSH2 0x44F JUMPI PUSH1 0x0 DUP1 REVERT JUMPDEST POP PUSH2 0x458 PUSH2 0x10B6 JUMP JUMPDEST PUSH1 0x40 MLOAD PUSH2 0x465 SWAP2 SWAP1 PUSH2 0x195D JUMP JUMPDEST PUSH1 0x40 MLOAD DUP1 SWAP2 SUB SWAP1 RETURN JUMPDEST CALLVALUE DUP1 ISZERO PUSH2 0x47A JUMPI PUSH1 0x0 DUP1 REVERT JUMPDEST POP PUSH2 0x483 PUSH2 0x10E0 JUMP JUMPDEST PUSH1 0x40 MLOAD PUSH2 0x490 SWAP2 SWAP1 PUSH2 0x1B52 JUMP JUMPDEST PUSH1 0x40 MLOAD DUP1 SWAP2 SUB SWAP1 RETURN JUMPDEST CALLVALUE DUP1 ISZERO PUSH2 0x4A5 JUMPI PUSH1 0x0 DUP1 REVERT JUMPDEST POP PUSH2 0x4C0 PUSH1 0x4 DUP1 CALLDATASIZE SUB DUP2 ADD SWAP1 PUSH2 0x4BB SWAP2 SWAP1 PUSH2 0x15DB JUMP JUMPDEST PUSH2 0x10E6 JUMP JUMPDEST STOP JUMPDEST CALLVALUE DUP1 ISZERO PUSH2 0x4CE JUMPI PUSH1 0x0 DUP1 REVERT JUMPDEST POP PUSH2 0x4D7 PUSH2 0x11E5 JUMP JUMPDEST PUSH1 0x40 MLOAD PUSH2 0x4E4 SWAP2 SWAP1 PUSH2 0x1B52 JUMP JUMPDEST PUSH1 0x40 MLOAD DUP1 SWAP2 SUB SWAP1 RETURN JUMPDEST CALLVALUE DUP1 ISZERO PUSH2 0x4F9 JUMPI PUSH1 0x0 DUP1 REVERT JUMPDEST POP PUSH2 0x502 PUSH2 0x11EB JUMP JUMPDEST PUSH1 0x40 MLOAD PUSH2 0x50F SWAP2 SWAP1 PUSH2 0x19D7 JUMP JUMPDEST PUSH1 0x40 MLOAD DUP1 SWAP2 SUB SWAP1 RETURN JUMPDEST CALLVALUE DUP1 ISZERO PUSH2 0x524 JUMPI PUSH1 0x0 DUP1 REVERT JUMPDEST POP PUSH2 0x52D PUSH2 0x1211 JUMP JUMPDEST PUSH1 0x40 MLOAD PUSH2 0x53A SWAP2 SWAP1 PUSH2 0x195D JUMP JUMPDEST PUSH1 0x40 MLOAD DUP1 SWAP2 SUB SWAP1 RETURN JUMPDEST CALLVALUE DUP1 ISZERO PUSH2 0x54F JUMPI PUSH1 0x0 DUP1 REVERT JUMPDEST POP PUSH2 0x56A PUSH1 0x4 DUP1 CALLDATASIZE SUB DUP2 ADD SWAP1 PUSH2 0x565 SWAP2 SWAP1 PUSH2 0x15DB JUMP JUMPDEST PUSH2 0x1237 JUMP JUMPDEST STOP JUMPDEST CALLVALUE DUP1 ISZERO PUSH2 0x578 JUMPI PUSH1 0x0 DUP1 REVERT JUMPDEST POP PUSH2 0x581 PUSH2 0x1346 JUMP JUMPDEST PUSH1 0x40 MLOAD PUSH2 0x58E SWAP2 SWAP1 PUSH2 0x1B52 JUMP JUMPDEST PUSH1 0x40 MLOAD DUP1 SWAP2 SUB SWAP1 RETURN JUMPDEST CALLVALUE DUP1 ISZERO PUSH2 0x5A3 JUMPI PUSH1 0x0 DUP1 REVERT JUMPDEST POP PUSH2 0x5AC PUSH2 0x1350 JUMP JUMPDEST PUSH1 0x40 MLOAD PUSH2 0x5B9 SWAP2 SWAP1 PUSH2 0x19BC JUMP JUMPDEST PUSH1 0x40 MLOAD DUP1 SWAP2 SUB SWAP1 RETURN JUMPDEST PUSH1 0x0 DUP3 ISZERO PUSH2 0x5D2 JUMPI SELFBALANCE SWAP1 POP PUSH2 0x65E JUMP JUMPDEST DUP2 PUSH20 0xFFFFFFFFFFFFFFFFFFFFFFFFFFFFFFFFFFFFFFFF AND PUSH4 0x70A08231 ADDRESS PUSH1 0x40 MLOAD DUP3 PUSH4 0xFFFFFFFF AND PUSH1 0xE0 SHL DUP2 MSTORE PUSH1 0x4 ADD PUSH2 0x60B SWAP2 SWAP1 PUSH2 0x195D JUMP JUMPDEST PUSH1 0x20 PUSH1 0x40 MLOAD DUP1 DUP4 SUB DUP2 DUP7 DUP1 EXTCODESIZE ISZERO DUP1 ISZERO PUSH2 0x623 JUMPI PUSH1 0x0 DUP1 REVERT JUMPDEST POP GAS STATICCALL ISZERO DUP1 ISZERO PUSH2 0x637 JUMPI RETURNDATASIZE PUSH1 0x0 DUP1 RETURNDATACOPY RETURNDATASIZE PUSH1 0x0 REVERT JUMPDEST POP POP POP POP PUSH1 0x40 MLOAD RETURNDATASIZE PUSH1 0x1F NOT PUSH1 0x1F DUP3 ADD AND DUP3 ADD DUP1 PUSH1 0x40 MSTORE POP DUP2 ADD SWAP1 PUSH2 0x65B SWAP2 SWAP1 PUSH2 0x1755 JUMP JUMPDEST SWAP1 POP JUMPDEST SWAP3 SWAP2 POP POP JUMP JUMPDEST PUSH1 0x9 SLOAD DUP2 JUMP JUMPDEST PUSH2 0x672 PUSH2 0x1363 JUMP JUMPDEST DUP1 PUSH1 0x5 PUSH1 0x0 SWAP1 SLOAD SWAP1 PUSH2 0x100 EXP SWAP1 DIV PUSH20 0xFFFFFFFFFFFFFFFFFFFFFFFFFFFFFFFFFFFFFFFF AND PUSH20 0xFFFFFFFFFFFFFFFFFFFFFFFFFFFFFFFFFFFFFFFF AND DUP2 PUSH20 0xFFFFFFFFFFFFFFFFFFFFFFFFFFFFFFFFFFFFFFFF AND EQ PUSH2 0x703 JUMPI PUSH1 0x40 MLOAD PUSH32 0x8C379A000000000000000000000000000000000000000000000000000000000 DUP2 MSTORE PUSH1 0x4 ADD PUSH2 0x6FA SWAP1 PUSH2 0x1A32 JUMP JUMPDEST PUSH1 0x40 MLOAD DUP1 SWAP2 SUB SWAP1 REVERT JUMPDEST PUSH1 0x7 PUSH1 0x14 SWAP1 SLOAD SWAP1 PUSH2 0x100 EXP SWAP1 DIV PUSH1 0xFF AND PUSH2 0x752 JUMPI PUSH1 0x40 MLOAD PUSH32 0x8C379A000000000000000000000000000000000000000000000000000000000 DUP2 MSTORE PUSH1 0x4 ADD PUSH2 0x749 SWAP1 PUSH2 0x1A52 JUMP JUMPDEST PUSH1 0x40 MLOAD DUP1 SWAP2 SUB SWAP1 REVERT JUMPDEST PUSH3 0x15180 PUSH1 0x9 SLOAD PUSH2 0x763 SWAP2 SWAP1 PUSH2 0x1C05 JUMP JUMPDEST PUSH1 0x8 SLOAD PUSH2 0x770 SWAP2 SWAP1 PUSH2 0x1B7E JUMP JUMPDEST TIMESTAMP LT ISZERO PUSH2 0x7B2 JUMPI PUSH1 0x40 MLOAD PUSH32 0x8C379A000000000000000000000000000000000000000000000000000000000 DUP2 MSTORE PUSH1 0x4 ADD PUSH2 0x7A9 SWAP1 PUSH2 0x1A72 JUMP JUMPDEST PUSH1 0x40 MLOAD DUP1 SWAP2 SUB SWAP1 REVERT JUMPDEST PUSH1 0x5 PUSH1 0x0 SWAP1 SLOAD SWAP1 PUSH2 0x100 EXP SWAP1 DIV PUSH20 0xFFFFFFFFFFFFFFFFFFFFFFFFFFFFFFFFFFFFFFFF AND PUSH1 0x4 PUSH1 0x0 PUSH2 0x100 EXP DUP2 SLOAD DUP2 PUSH20 0xFFFFFFFFFFFFFFFFFFFFFFFFFFFFFFFFFFFFFFFF MUL NOT AND SWAP1 DUP4 PUSH20 0xFFFFFFFFFFFFFFFFFFFFFFFFFFFFFFFFFFFFFFFF AND MUL OR SWAP1 SSTORE POP PUSH1 0x0 PUSH1 0x7 PUSH1 0x14 PUSH2 0x100 EXP DUP2 SLOAD DUP2 PUSH1 0xFF MUL NOT AND SWAP1 DUP4 ISZERO ISZERO MUL OR SWAP1 SSTORE POP POP POP JUMP JUMPDEST PUSH1 0x0 PUSH1 0x3 PUSH1 0x0 SWAP1 SLOAD SWAP1 PUSH2 0x100 EXP SWAP1 DIV PUSH20 0xFFFFFFFFFFFFFFFFFFFFFFFFFFFFFFFFFFFFFFFF AND SWAP1 POP SWAP1 JUMP JUMPDEST PUSH1 0x0 PUSH1 0x5 PUSH1 0x0 SWAP1 SLOAD SWAP1 PUSH2 0x100 EXP SWAP1 DIV PUSH20 0xFFFFFFFFFFFFFFFFFFFFFFFFFFFFFFFFFFFFFFFF AND SWAP1 POP SWAP1 JUMP JUMPDEST DUP1 PUSH1 0x4 PUSH1 0x0 SWAP1 SLOAD SWAP1 PUSH2 0x100 EXP SWAP1 DIV PUSH20 0xFFFFFFFFFFFFFFFFFFFFFFFFFFFFFFFFFFFFFFFF AND PUSH20 0xFFFFFFFFFFFFFFFFFFFFFFFFFFFFFFFFFFFFFFFF AND DUP2 PUSH20 0xFFFFFFFFFFFFFFFFFFFFFFFFFFFFFFFFFFFFFFFF AND EQ PUSH2 0x919 JUMPI PUSH1 0x40 MLOAD PUSH32 0x8C379A000000000000000000000000000000000000000000000000000000000 DUP2 MSTORE PUSH1 0x4 ADD PUSH2 0x910 SWAP1 PUSH2 0x19F2 JUMP JUMPDEST PUSH1 0x40 MLOAD DUP1 SWAP2 SUB SWAP1 REVERT JUMPDEST PUSH2 0x921 PUSH2 0x13AD JUMP JUMPDEST POP POP JUMP JUMPDEST PUSH1 0x0 DUP1 PUSH1 0x0 SWAP1 SLOAD SWAP1 PUSH2 0x100 EXP SWAP1 DIV PUSH1 0xFF AND SWAP1 POP SWAP1 JUMP JUMPDEST DUP1 PUSH1 0x4 PUSH1 0x0 SWAP1 SLOAD SWAP1 PUSH2 0x100 EXP SWAP1 DIV PUSH20 0xFFFFFFFFFFFFFFFFFFFFFFFFFFFFFFFFFFFFFFFF AND PUSH20 0xFFFFFFFFFFFFFFFFFFFFFFFFFFFFFFFFFFFFFFFF AND DUP2 PUSH20 0xFFFFFFFFFFFFFFFFFFFFFFFFFFFFFFFFFFFFFFFF AND EQ PUSH2 0x9CC JUMPI PUSH1 0x40 MLOAD PUSH32 0x8C379A000000000000000000000000000000000000000000000000000000000 DUP2 MSTORE PUSH1 0x4 ADD PUSH2 0x9C3 SWAP1 PUSH2 0x19F2 JUMP JUMPDEST PUSH1 0x40 MLOAD DUP1 SWAP2 SUB SWAP1 REVERT JUMPDEST PUSH1 0x0 PUSH20 0xFFFFFFFFFFFFFFFFFFFFFFFFFFFFFFFFFFFFFFFF AND DUP5 PUSH20 0xFFFFFFFFFFFFFFFFFFFFFFFFFFFFFFFFFFFFFFFF AND EQ ISZERO PUSH2 0xA3C JUMPI PUSH1 0x40 MLOAD PUSH32 0x8C379A000000000000000000000000000000000000000000000000000000000 DUP2 MSTORE PUSH1 0x4 ADD PUSH2 0xA33 SWAP1 PUSH2 0x1A92 JUMP JUMPDEST PUSH1 0x40 MLOAD DUP1 SWAP2 SUB SWAP1 REVERT JUMPDEST DUP4 PUSH1 0x5 PUSH1 0x0 PUSH2 0x100 EXP DUP2 SLOAD DUP2 PUSH20 0xFFFFFFFFFFFFFFFFFFFFFFFFFFFFFFFFFFFFFFFF MUL NOT AND SWAP1 DUP4 PUSH20 0xFFFFFFFFFFFFFFFFFFFFFFFFFFFFFFFFFFFFFFFF AND MUL OR SWAP1 SSTORE POP DUP3 PUSH1 0x9 DUP2 SWAP1 SSTORE POP POP POP POP POP JUMP JUMPDEST DUP1 PUSH1 0x4 PUSH1 0x0 SWAP1 SLOAD SWAP1 PUSH2 0x100 EXP SWAP1 DIV PUSH20 0xFFFFFFFFFFFFFFFFFFFFFFFFFFFFFFFFFFFFFFFF AND PUSH20 0xFFFFFFFFFFFFFFFFFFFFFFFFFFFFFFFFFFFFFFFF AND DUP2 PUSH20 0xFFFFFFFFFFFFFFFFFFFFFFFFFFFFFFFFFFFFFFFF AND EQ PUSH2 0xB1B JUMPI PUSH1 0x40 MLOAD PUSH32 0x8C379A000000000000000000000000000000000000000000000000000000000 DUP2 MSTORE PUSH1 0x4 ADD PUSH2 0xB12 SWAP1 PUSH2 0x19F2 JUMP JUMPDEST PUSH1 0x40 MLOAD DUP1 SWAP2 SUB SWAP1 REVERT JUMPDEST PUSH2 0xB23 PUSH2 0x140F JUMP JUMPDEST POP POP JUMP JUMPDEST PUSH1 0x6 PUSH1 0x0 SWAP1 SLOAD SWAP1 PUSH2 0x100 EXP SWAP1 DIV PUSH20 0xFFFFFFFFFFFFFFFFFFFFFFFFFFFFFFFFFFFFFFFF AND DUP2 JUMP JUMPDEST PUSH2 0xB55 PUSH2 0x1363 JUMP JUMPDEST PUSH2 0xB5D PUSH2 0x1471 JUMP JUMPDEST DUP1 PUSH1 0x4 PUSH1 0x0 SWAP1 SLOAD SWAP1 PUSH2 0x100 EXP SWAP1 DIV PUSH20 0xFFFFFFFFFFFFFFFFFFFFFFFFFFFFFFFFFFFFFFFF AND PUSH20 0xFFFFFFFFFFFFFFFFFFFFFFFFFFFFFFFFFFFFFFFF AND DUP2 PUSH20 0xFFFFFFFFFFFFFFFFFFFFFFFFFFFFFFFFFFFFFFFF AND EQ PUSH2 0xBEE JUMPI PUSH1 0x40 MLOAD PUSH32 0x8C379A000000000000000000000000000000000000000000000000000000000 DUP2 MSTORE PUSH1 0x4 ADD PUSH2 0xBE5 SWAP1 PUSH2 0x19F2 JUMP JUMPDEST PUSH1 0x40 MLOAD DUP1 SWAP2 SUB SWAP1 REVERT JUMPDEST PUSH1 0x0 DUP8 PUSH2 0xBFB JUMPI DUP6 PUSH2 0xC1F JUMP JUMPDEST PUSH1 0x4 PUSH1 0x0 SWAP1 SLOAD SWAP1 PUSH2 0x100 EXP SWAP1 DIV PUSH20 0xFFFFFFFFFFFFFFFFFFFFFFFFFFFFFFFFFFFFFFFF AND JUMPDEST SWAP1 POP DUP7 ISZERO PUSH2 0xD63 JUMPI SELFBALANCE DUP6 GT ISZERO PUSH2 0xC6A JUMPI PUSH1 0x40 MLOAD PUSH32 0x8C379A000000000000000000000000000000000000000000000000000000000 DUP2 MSTORE PUSH1 0x4 ADD PUSH2 0xC61 SWAP1 PUSH2 0x1B32 JUMP JUMPDEST PUSH1 0x40 MLOAD DUP1 SWAP2 SUB SWAP1 REVERT JUMPDEST PUSH2 0xC92 PUSH1 0x64 PUSH2 0xC84 PUSH1 0xB SLOAD DUP9 PUSH2 0x14C1 SWAP1 SWAP2 SWAP1 PUSH4 0xFFFFFFFF AND JUMP JUMPDEST PUSH2 0x14D7 SWAP1 SWAP2 SWAP1 PUSH4 0xFFFFFFFF AND JUMP JUMPDEST PUSH1 0xA DUP2 SWAP1 SSTORE POP DUP1 PUSH20 0xFFFFFFFFFFFFFFFFFFFFFFFFFFFFFFFFFFFFFFFF AND PUSH2 0x8FC PUSH2 0xCC7 PUSH1 0xA SLOAD DUP9 PUSH2 0x14ED SWAP1 SWAP2 SWAP1 PUSH4 0xFFFFFFFF AND JUMP JUMPDEST SWAP1 DUP2 ISZERO MUL SWAP1 PUSH1 0x40 MLOAD PUSH1 0x0 PUSH1 0x40 MLOAD DUP1 DUP4 SUB DUP2 DUP6 DUP9 DUP9 CALL SWAP4 POP POP POP POP ISZERO DUP1 ISZERO PUSH2 0xCF2 JUMPI RETURNDATASIZE PUSH1 0x0 DUP1 RETURNDATACOPY RETURNDATASIZE PUSH1 0x0 REVERT JUMPDEST POP PUSH1 0x7 PUSH1 0x0 SWAP1 SLOAD SWAP1 PUSH2 0x100 EXP SWAP1 DIV PUSH20 0xFFFFFFFFFFFFFFFFFFFFFFFFFFFFFFFFFFFFFFFF AND PUSH20 0xFFFFFFFFFFFFFFFFFFFFFFFFFFFFFFFFFFFFFFFF AND PUSH2 0x8FC PUSH1 0xA SLOAD SWAP1 DUP2 ISZERO MUL SWAP1 PUSH1 0x40 MLOAD PUSH1 0x0 PUSH1 0x40 MLOAD DUP1 DUP4 SUB DUP2 DUP6 DUP9 DUP9 CALL SWAP4 POP POP POP POP ISZERO DUP1 ISZERO PUSH2 0xD5D JUMPI RETURNDATASIZE PUSH1 0x0 DUP1 RETURNDATACOPY RETURNDATASIZE PUSH1 0x0 REVERT JUMPDEST POP PUSH2 0x1058 JUMP JUMPDEST DUP4 PUSH1 0x2 PUSH1 0x0 PUSH2 0x100 EXP DUP2 SLOAD DUP2 PUSH20 0xFFFFFFFFFFFFFFFFFFFFFFFFFFFFFFFFFFFFFFFF MUL NOT AND SWAP1 DUP4 PUSH20 0xFFFFFFFFFFFFFFFFFFFFFFFFFFFFFFFFFFFFFFFF AND MUL OR SWAP1 SSTORE POP PUSH1 0x2 PUSH1 0x0 SWAP1 SLOAD SWAP1 PUSH2 0x100 EXP SWAP1 DIV PUSH20 0xFFFFFFFFFFFFFFFFFFFFFFFFFFFFFFFFFFFFFFFF AND PUSH20 0xFFFFFFFFFFFFFFFFFFFFFFFFFFFFFFFFFFFFFFFF AND PUSH4 0x70A08231 ADDRESS PUSH1 0x40 MLOAD DUP3 PUSH4 0xFFFFFFFF AND PUSH1 0xE0 SHL DUP2 MSTORE PUSH1 0x4 ADD PUSH2 0xDFF SWAP2 SWAP1 PUSH2 0x195D JUMP JUMPDEST PUSH1 0x20 PUSH1 0x40 MLOAD DUP1 DUP4 SUB DUP2 DUP7 DUP1 EXTCODESIZE ISZERO DUP1 ISZERO PUSH2 0xE17 JUMPI PUSH1 0x0 DUP1 REVERT JUMPDEST POP GAS STATICCALL ISZERO DUP1 ISZERO PUSH2 0xE2B JUMPI RETURNDATASIZE PUSH1 0x0 DUP1 RETURNDATACOPY RETURNDATASIZE PUSH1 0x0 REVERT JUMPDEST POP POP POP POP PUSH1 0x40 MLOAD RETURNDATASIZE PUSH1 0x1F NOT PUSH1 0x1F DUP3 ADD AND DUP3 ADD DUP1 PUSH1 0x40 MSTORE POP DUP2 ADD SWAP1 PUSH2 0xE4F SWAP2 SWAP1 PUSH2 0x1755 JUMP JUMPDEST DUP6 GT ISZERO PUSH2 0xE91 JUMPI PUSH1 0x40 MLOAD PUSH32 0x8C379A000000000000000000000000000000000000000000000000000000000 DUP2 MSTORE PUSH1 0x4 ADD PUSH2 0xE88 SWAP1 PUSH2 0x1B32 JUMP JUMPDEST PUSH1 0x40 MLOAD DUP1 SWAP2 SUB SWAP1 REVERT JUMPDEST PUSH2 0xEB9 PUSH1 0x64 PUSH2 0xEAB PUSH1 0xB SLOAD DUP9 PUSH2 0x14C1 SWAP1 SWAP2 SWAP1 PUSH4 0xFFFFFFFF AND JUMP JUMPDEST PUSH2 0x14D7 SWAP1 SWAP2 SWAP1 PUSH4 0xFFFFFFFF AND JUMP JUMPDEST PUSH1 0xA DUP2 SWAP1 SSTORE POP PUSH1 0x2 PUSH1 0x0 SWAP1 SLOAD SWAP1 PUSH2 0x100 EXP SWAP1 DIV PUSH20 0xFFFFFFFFFFFFFFFFFFFFFFFFFFFFFFFFFFFFFFFF AND PUSH20 0xFFFFFFFFFFFFFFFFFFFFFFFFFFFFFFFFFFFFFFFF AND PUSH4 0xA9059CBB DUP3 PUSH2 0xF13 PUSH1 0xA SLOAD DUP10 PUSH2 0x14ED SWAP1 SWAP2 SWAP1 PUSH4 0xFFFFFFFF AND JUMP JUMPDEST PUSH1 0x40 MLOAD DUP4 PUSH4 0xFFFFFFFF AND PUSH1 0xE0 SHL DUP2 MSTORE PUSH1 0x4 ADD PUSH2 0xF30 SWAP3 SWAP2 SWAP1 PUSH2 0x1993 JUMP JUMPDEST PUSH1 0x20 PUSH1 0x40 MLOAD DUP1 DUP4 SUB DUP2 PUSH1 0x0 DUP8 DUP1 EXTCODESIZE ISZERO DUP1 ISZERO PUSH2 0xF4A JUMPI PUSH1 0x0 DUP1 REVERT JUMPDEST POP GAS CALL ISZERO DUP1 ISZERO PUSH2 0xF5E JUMPI RETURNDATASIZE PUSH1 0x0 DUP1 RETURNDATACOPY RETURNDATASIZE PUSH1 0x0 REVERT JUMPDEST POP POP POP POP PUSH1 0x40 MLOAD RETURNDATASIZE PUSH1 0x1F NOT PUSH1 0x1F DUP3 ADD AND DUP3 ADD DUP1 PUSH1 0x40 MSTORE POP DUP2 ADD SWAP1 PUSH2 0xF82 SWAP2 SWAP1 PUSH2 0x165B JUMP JUMPDEST POP PUSH1 0x2 PUSH1 0x0 SWAP1 SLOAD SWAP1 PUSH2 0x100 EXP SWAP1 DIV PUSH20 0xFFFFFFFFFFFFFFFFFFFFFFFFFFFFFFFFFFFFFFFF AND PUSH20 0xFFFFFFFFFFFFFFFFFFFFFFFFFFFFFFFFFFFFFFFF AND PUSH4 0xA9059CBB PUSH1 0x7 PUSH1 0x0 SWAP1 SLOAD SWAP1 PUSH2 0x100 EXP SWAP1 DIV PUSH20 0xFFFFFFFFFFFFFFFFFFFFFFFFFFFFFFFFFFFFFFFF AND PUSH1 0xA SLOAD PUSH1 0x40 MLOAD DUP4 PUSH4 0xFFFFFFFF AND PUSH1 0xE0 SHL DUP2 MSTORE PUSH1 0x4 ADD PUSH2 0x1004 SWAP3 SWAP2 SWAP1 PUSH2 0x1993 JUMP JUMPDEST PUSH1 0x20 PUSH1 0x40 MLOAD DUP1 DUP4 SUB DUP2 PUSH1 0x0 DUP8 DUP1 EXTCODESIZE ISZERO DUP1 ISZERO PUSH2 0x101E JUMPI PUSH1 0x0 DUP1 REVERT JUMPDEST POP GAS CALL ISZERO DUP1 ISZERO PUSH2 0x1032 JUMPI RETURNDATASIZE PUSH1 0x0 DUP1 RETURNDATACOPY RETURNDATASIZE PUSH1 0x0 REVERT JUMPDEST POP POP POP POP PUSH1 0x40 MLOAD RETURNDATASIZE PUSH1 0x1F NOT PUSH1 0x1F DUP3 ADD AND DUP3 ADD DUP1 PUSH1 0x40 MSTORE POP DUP2 ADD SWAP1 PUSH2 0x1056 SWAP2 SWAP1 PUSH2 0x165B JUMP JUMPDEST POP JUMPDEST POP POP PUSH2 0x1062 PUSH2 0x1503 JUMP JUMPDEST POP POP POP POP POP POP JUMP JUMPDEST PUSH1 0x4 PUSH1 0x0 SWAP1 SLOAD SWAP1 PUSH2 0x100 EXP SWAP1 DIV PUSH20 0xFFFFFFFFFFFFFFFFFFFFFFFFFFFFFFFFFFFFFFFF AND DUP2 JUMP JUMPDEST PUSH1 0x5 PUSH1 0x0 SWAP1 SLOAD SWAP1 PUSH2 0x100 EXP SWAP1 DIV PUSH20 0xFFFFFFFFFFFFFFFFFFFFFFFFFFFFFFFFFFFFFFFF AND DUP2 JUMP JUMPDEST PUSH1 0x0 PUSH1 0x4 PUSH1 0x0 SWAP1 SLOAD SWAP1 PUSH2 0x100 EXP SWAP1 DIV PUSH20 0xFFFFFFFFFFFFFFFFFFFFFFFFFFFFFFFFFFFFFFFF AND SWAP1 POP SWAP1 JUMP JUMPDEST PUSH1 0xC SLOAD DUP2 JUMP JUMPDEST DUP1 PUSH1 0x4 PUSH1 0x0 SWAP1 SLOAD SWAP1 PUSH2 0x100 EXP SWAP1 DIV PUSH20 0xFFFFFFFFFFFFFFFFFFFFFFFFFFFFFFFFFFFFFFFF AND PUSH20 0xFFFFFFFFFFFFFFFFFFFFFFFFFFFFFFFFFFFFFFFF AND DUP2 PUSH20 0xFFFFFFFFFFFFFFFFFFFFFFFFFFFFFFFFFFFFFFFF AND EQ PUSH2 0x1177 JUMPI PUSH1 0x40 MLOAD PUSH32 0x8C379A000000000000000000000000000000000000000000000000000000000 DUP2 MSTORE PUSH1 0x4 ADD PUSH2 0x116E SWAP1 PUSH2 0x19F2 JUMP JUMPDEST PUSH1 0x40 MLOAD DUP1 SWAP2 SUB SWAP1 REVERT JUMPDEST PUSH1 0x7 PUSH1 0x14 SWAP1 SLOAD SWAP1 PUSH2 0x100 EXP SWAP1 DIV PUSH1 0xFF AND PUSH2 0x11C6 JUMPI PUSH1 0x40 MLOAD PUSH32 0x8C379A000000000000000000000000000000000000000000000000000000000 DUP2 MSTORE PUSH1 0x4 ADD PUSH2 0x11BD SWAP1 PUSH2 0x1AD2 JUMP JUMPDEST PUSH1 0x40 MLOAD DUP1 SWAP2 SUB SWAP1 REVERT JUMPDEST PUSH1 0x0 PUSH1 0x7 PUSH1 0x14 PUSH2 0x100 EXP DUP2 SLOAD DUP2 PUSH1 0xFF MUL NOT AND SWAP1 DUP4 ISZERO ISZERO MUL OR SWAP1 SSTORE POP POP POP JUMP JUMPDEST PUSH1 0x8 SLOAD DUP2 JUMP JUMPDEST PUSH1 0x2 PUSH1 0x0 SWAP1 SLOAD SWAP1 PUSH2 0x100 EXP SWAP1 DIV PUSH20 0xFFFFFFFFFFFFFFFFFFFFFFFFFFFFFFFFFFFFFFFF AND DUP2 JUMP JUMPDEST PUSH1 0x3 PUSH1 0x0 SWAP1 SLOAD SWAP1 PUSH2 0x100 EXP SWAP1 DIV PUSH20 0xFFFFFFFFFFFFFFFFFFFFFFFFFFFFFFFFFFFFFFFF AND DUP2 JUMP JUMPDEST PUSH2 0x123F PUSH2 0x1363 JUMP JUMPDEST DUP1 PUSH1 0x5 PUSH1 0x0 SWAP1 SLOAD SWAP1 PUSH2 0x100 EXP SWAP1 DIV PUSH20 0xFFFFFFFFFFFFFFFFFFFFFFFFFFFFFFFFFFFFFFFF AND PUSH20 0xFFFFFFFFFFFFFFFFFFFFFFFFFFFFFFFFFFFFFFFF AND DUP2 PUSH20 0xFFFFFFFFFFFFFFFFFFFFFFFFFFFFFFFFFFFFFFFF AND EQ PUSH2 0x12D0 JUMPI PUSH1 0x40 MLOAD PUSH32 0x8C379A000000000000000000000000000000000000000000000000000000000 DUP2 MSTORE PUSH1 0x4 ADD PUSH2 0x12C7 SWAP1 PUSH2 0x1A32 JUMP JUMPDEST PUSH1 0x40 MLOAD DUP1 SWAP2 SUB SWAP1 REVERT JUMPDEST PUSH1 0x7 PUSH1 0x14 SWAP1 SLOAD SWAP1 PUSH2 0x100 EXP SWAP1 DIV PUSH1 0xFF AND ISZERO PUSH2 0x1320 JUMPI PUSH1 0x40 MLOAD PUSH32 0x8C379A000000000000000000000000000000000000000000000000000000000 DUP2 MSTORE PUSH1 0x4 ADD PUSH2 0x1317 SWAP1 PUSH2 0x1AF2 JUMP JUMPDEST PUSH1 0x40 MLOAD DUP1 SWAP2 SUB SWAP1 REVERT JUMPDEST PUSH1 0x1 PUSH1 0x7 PUSH1 0x14 PUSH2 0x100 EXP DUP2 SLOAD DUP2 PUSH1 0xFF MUL NOT AND SWAP1 DUP4 ISZERO ISZERO MUL OR SWAP1 SSTORE POP TIMESTAMP PUSH1 0x8 DUP2 SWAP1 SSTORE POP POP POP JUMP JUMPDEST PUSH1 0x0 PUSH1 0xB SLOAD SWAP1 POP SWAP1 JUMP JUMPDEST PUSH1 0x7 PUSH1 0x14 SWAP1 SLOAD SWAP1 PUSH2 0x100 EXP SWAP1 DIV PUSH1 0xFF AND DUP2 JUMP JUMPDEST PUSH2 0x136B PUSH2 0x925 JUMP JUMPDEST ISZERO PUSH2 0x13AB JUMPI PUSH1 0x40 MLOAD PUSH32 0x8C379A000000000000000000000000000000000000000000000000000000000 DUP2 MSTORE PUSH1 0x4 ADD PUSH2 0x13A2 SWAP1 PUSH2 0x1AB2 JUMP JUMPDEST PUSH1 0x40 MLOAD DUP1 SWAP2 SUB SWAP1 REVERT JUMPDEST JUMP JUMPDEST PUSH2 0x13B5 PUSH2 0x150C JUMP JUMPDEST PUSH1 0x0 DUP1 PUSH1 0x0 PUSH2 0x100 EXP DUP2 SLOAD DUP2 PUSH1 0xFF MUL NOT AND SWAP1 DUP4 ISZERO ISZERO MUL OR SWAP1 SSTORE POP PUSH32 0x5DB9EE0A495BF2E6FF9C91A7834C1BA4FDD244A5E8AA4E537BD38AEAE4B073AA PUSH2 0x13F8 PUSH2 0x1555 JUMP JUMPDEST PUSH1 0x40 MLOAD PUSH2 0x1405 SWAP2 SWAP1 PUSH2 0x195D JUMP JUMPDEST PUSH1 0x40 MLOAD DUP1 SWAP2 SUB SWAP1 LOG1 JUMP JUMPDEST PUSH2 0x1417 PUSH2 0x1363 JUMP JUMPDEST PUSH1 0x1 PUSH1 0x0 DUP1 PUSH2 0x100 EXP DUP2 SLOAD DUP2 PUSH1 0xFF MUL NOT AND SWAP1 DUP4 ISZERO ISZERO MUL OR SWAP1 SSTORE POP PUSH32 0x62E78CEA01BEE320CD4E420270B5EA74000D11B0C9F74754EBDBFC544B05A258 PUSH2 0x145A PUSH2 0x1555 JUMP JUMPDEST PUSH1 0x40 MLOAD PUSH2 0x1467 SWAP2 SWAP1 PUSH2 0x195D JUMP JUMPDEST PUSH1 0x40 MLOAD DUP1 SWAP2 SUB SWAP1 LOG1 JUMP JUMPDEST PUSH1 0x2 PUSH1 0x1 SLOAD EQ ISZERO PUSH2 0x14B7 JUMPI PUSH1 0x40 MLOAD PUSH32 0x8C379A000000000000000000000000000000000000000000000000000000000 DUP2 MSTORE PUSH1 0x4 ADD PUSH2 0x14AE SWAP1 PUSH2 0x1B12 JUMP JUMPDEST PUSH1 0x40 MLOAD DUP1 SWAP2 SUB SWAP1 REVERT JUMPDEST PUSH1 0x2 PUSH1 0x1 DUP2 SWAP1 SSTORE POP JUMP JUMPDEST PUSH1 0x0 DUP2 DUP4 PUSH2 0x14CF SWAP2 SWAP1 PUSH2 0x1C05 JUMP JUMPDEST SWAP1 POP SWAP3 SWAP2 POP POP JUMP JUMPDEST PUSH1 0x0 DUP2 DUP4 PUSH2 0x14E5 SWAP2 SWAP1 PUSH2 0x1BD4 JUMP JUMPDEST SWAP1 POP SWAP3 SWAP2 POP POP JUMP JUMPDEST PUSH1 0x0 DUP2 DUP4 PUSH2 0x14FB SWAP2 SWAP1 PUSH2 0x1C5F JUMP JUMPDEST SWAP1 POP SWAP3 SWAP2 POP POP JUMP JUMPDEST PUSH1 0x1 DUP1 DUP2 SWAP1 SSTORE POP JUMP JUMPDEST PUSH2 0x1514 PUSH2 0x925 JUMP JUMPDEST PUSH2 0x1553 JUMPI PUSH1 0x40 MLOAD PUSH32 0x8C379A000000000000000000000000000000000000000000000000000000000 DUP2 MSTORE PUSH1 0x4 ADD PUSH2 0x154A SWAP1 PUSH2 0x1A12 JUMP JUMPDEST PUSH1 0x40 MLOAD DUP1 SWAP2 SUB SWAP1 REVERT JUMPDEST JUMP JUMPDEST PUSH1 0x0 CALLER SWAP1 POP SWAP1 JUMP JUMPDEST PUSH1 0x0 DUP2 CALLDATALOAD SWAP1 POP PUSH2 0x156C DUP2 PUSH2 0x2019 JUMP JUMPDEST SWAP3 SWAP2 POP POP JUMP JUMPDEST PUSH1 0x0 DUP2 CALLDATALOAD SWAP1 POP PUSH2 0x1581 DUP2 PUSH2 0x2030 JUMP JUMPDEST SWAP3 SWAP2 POP POP JUMP JUMPDEST PUSH1 0x0 DUP2 CALLDATALOAD SWAP1 POP PUSH2 0x1596 DUP2 PUSH2 0x2047 JUMP JUMPDEST SWAP3 SWAP2 POP POP JUMP JUMPDEST PUSH1 0x0 DUP2 MLOAD SWAP1 POP PUSH2 0x15AB DUP2 PUSH2 0x2047 JUMP JUMPDEST SWAP3 SWAP2 POP POP JUMP JUMPDEST PUSH1 0x0 DUP2 CALLDATALOAD SWAP1 POP PUSH2 0x15C0 DUP2 PUSH2 0x205E JUMP JUMPDEST SWAP3 SWAP2 POP POP JUMP JUMPDEST PUSH1 0x0 DUP2 MLOAD SWAP1 POP PUSH2 0x15D5 DUP2 PUSH2 0x205E JUMP JUMPDEST SWAP3 SWAP2 POP POP JUMP JUMPDEST PUSH1 0x0 PUSH1 0x20 DUP3 DUP5 SUB SLT ISZERO PUSH2 0x15F1 JUMPI PUSH2 0x15F0 PUSH2 0x1D93 JUMP JUMPDEST JUMPDEST PUSH1 0x0 PUSH2 0x15FF DUP5 DUP3 DUP6 ADD PUSH2 0x155D JUMP JUMPDEST SWAP2 POP POP SWAP3 SWAP2 POP POP JUMP JUMPDEST PUSH1 0x0 DUP1 PUSH1 0x0 PUSH1 0x60 DUP5 DUP7 SUB SLT ISZERO PUSH2 0x1621 JUMPI PUSH2 0x1620 PUSH2 0x1D93 JUMP JUMPDEST JUMPDEST PUSH1 0x0 PUSH2 0x162F DUP7 DUP3 DUP8 ADD PUSH2 0x1572 JUMP JUMPDEST SWAP4 POP POP PUSH1 0x20 PUSH2 0x1640 DUP7 DUP3 DUP8 ADD PUSH2 0x15B1 JUMP JUMPDEST SWAP3 POP POP PUSH1 0x40 PUSH2 0x1651 DUP7 DUP3 DUP8 ADD PUSH2 0x155D JUMP JUMPDEST SWAP2 POP POP SWAP3 POP SWAP3 POP SWAP3 JUMP JUMPDEST PUSH1 0x0 PUSH1 0x20 DUP3 DUP5 SUB SLT ISZERO PUSH2 0x1671 JUMPI PUSH2 0x1670 PUSH2 0x1D93 JUMP JUMPDEST JUMPDEST PUSH1 0x0 PUSH2 0x167F DUP5 DUP3 DUP6 ADD PUSH2 0x159C JUMP JUMPDEST SWAP2 POP POP SWAP3 SWAP2 POP POP JUMP JUMPDEST PUSH1 0x0 DUP1 PUSH1 0x40 DUP4 DUP6 SUB SLT ISZERO PUSH2 0x169F JUMPI PUSH2 0x169E PUSH2 0x1D93 JUMP JUMPDEST JUMPDEST PUSH1 0x0 PUSH2 0x16AD DUP6 DUP3 DUP7 ADD PUSH2 0x1587 JUMP JUMPDEST SWAP3 POP POP PUSH1 0x20 PUSH2 0x16BE DUP6 DUP3 DUP7 ADD PUSH2 0x155D JUMP JUMPDEST SWAP2 POP POP SWAP3 POP SWAP3 SWAP1 POP JUMP JUMPDEST PUSH1 0x0 DUP1 PUSH1 0x0 DUP1 PUSH1 0x0 DUP1 PUSH1 0xC0 DUP8 DUP10 SUB SLT ISZERO PUSH2 0x16E5 JUMPI PUSH2 0x16E4 PUSH2 0x1D93 JUMP JUMPDEST JUMPDEST PUSH1 0x0 PUSH2 0x16F3 DUP10 DUP3 DUP11 ADD PUSH2 0x1587 JUMP JUMPDEST SWAP7 POP POP PUSH1 0x20 PUSH2 0x1704 DUP10 DUP3 DUP11 ADD PUSH2 0x1587 JUMP JUMPDEST SWAP6 POP POP PUSH1 0x40 PUSH2 0x1715 DUP10 DUP3 DUP11 ADD PUSH2 0x1572 JUMP JUMPDEST SWAP5 POP POP PUSH1 0x60 PUSH2 0x1726 DUP10 DUP3 DUP11 ADD PUSH2 0x15B1 JUMP JUMPDEST SWAP4 POP POP PUSH1 0x80 PUSH2 0x1737 DUP10 DUP3 DUP11 ADD PUSH2 0x155D JUMP JUMPDEST SWAP3 POP POP PUSH1 0xA0 PUSH2 0x1748 DUP10 DUP3 DUP11 ADD PUSH2 0x155D JUMP JUMPDEST SWAP2 POP POP SWAP3 SWAP6 POP SWAP3 SWAP6 POP SWAP3 SWAP6 JUMP JUMPDEST PUSH1 0x0 PUSH1 0x20 DUP3 DUP5 SUB SLT ISZERO PUSH2 0x176B JUMPI PUSH2 0x176A PUSH2 0x1D93 JUMP JUMPDEST JUMPDEST PUSH1 0x0 PUSH2 0x1779 DUP5 DUP3 DUP6 ADD PUSH2 0x15C6 JUMP JUMPDEST SWAP2 POP POP SWAP3 SWAP2 POP POP JUMP JUMPDEST PUSH2 0x178B DUP2 PUSH2 0x1CED JUMP JUMPDEST DUP3 MSTORE POP POP JUMP JUMPDEST PUSH2 0x179A DUP2 PUSH2 0x1CA5 JUMP JUMPDEST DUP3 MSTORE POP POP JUMP JUMPDEST PUSH2 0x17A9 DUP2 PUSH2 0x1C93 JUMP JUMPDEST DUP3 MSTORE POP POP JUMP JUMPDEST PUSH2 0x17B8 DUP2 PUSH2 0x1CB7 JUMP JUMPDEST DUP3 MSTORE POP POP JUMP JUMPDEST PUSH2 0x17C7 DUP2 PUSH2 0x1CFF JUMP JUMPDEST DUP3 MSTORE POP POP JUMP JUMPDEST PUSH1 0x0 PUSH2 0x17DA PUSH1 0x25 DUP4 PUSH2 0x1B6D JUMP JUMPDEST SWAP2 POP PUSH2 0x17E5 DUP3 PUSH2 0x1D98 JUMP JUMPDEST PUSH1 0x40 DUP3 ADD SWAP1 POP SWAP2 SWAP1 POP JUMP JUMPDEST PUSH1 0x0 PUSH2 0x17FD PUSH1 0x14 DUP4 PUSH2 0x1B6D JUMP JUMPDEST SWAP2 POP PUSH2 0x1808 DUP3 PUSH2 0x1DE7 JUMP JUMPDEST PUSH1 0x20 DUP3 ADD SWAP1 POP SWAP2 SWAP1 POP JUMP JUMPDEST PUSH1 0x0 PUSH2 0x1820 PUSH1 0x24 DUP4 PUSH2 0x1B6D JUMP JUMPDEST SWAP2 POP PUSH2 0x182B DUP3 PUSH2 0x1E10 JUMP JUMPDEST PUSH1 0x40 DUP3 ADD SWAP1 POP SWAP2 SWAP1 POP JUMP JUMPDEST PUSH1 0x0 PUSH2 0x1843 PUSH1 0x25 DUP4 PUSH2 0x1B6D JUMP JUMPDEST SWAP2 POP PUSH2 0x184E DUP3 PUSH2 0x1E5F JUMP JUMPDEST PUSH1 0x40 DUP3 ADD SWAP1 POP SWAP2 SWAP1 POP JUMP JUMPDEST PUSH1 0x0 PUSH2 0x1866 PUSH1 0x1C DUP4 PUSH2 0x1B6D JUMP JUMPDEST SWAP2 POP PUSH2 0x1871 DUP3 PUSH2 0x1EAE JUMP JUMPDEST PUSH1 0x20 DUP3 ADD SWAP1 POP SWAP2 SWAP1 POP JUMP JUMPDEST PUSH1 0x0 PUSH2 0x1889 PUSH1 0x1B DUP4 PUSH2 0x1B6D JUMP JUMPDEST SWAP2 POP PUSH2 0x1894 DUP3 PUSH2 0x1ED7 JUMP JUMPDEST PUSH1 0x20 DUP3 ADD SWAP1 POP SWAP2 SWAP1 POP JUMP JUMPDEST PUSH1 0x0 PUSH2 0x18AC PUSH1 0x10 DUP4 PUSH2 0x1B6D JUMP JUMPDEST SWAP2 POP PUSH2 0x18B7 DUP3 PUSH2 0x1F00 JUMP JUMPDEST PUSH1 0x20 DUP3 ADD SWAP1 POP SWAP2 SWAP1 POP JUMP JUMPDEST PUSH1 0x0 PUSH2 0x18CF PUSH1 0x21 DUP4 PUSH2 0x1B6D JUMP JUMPDEST SWAP2 POP PUSH2 0x18DA DUP3 PUSH2 0x1F29 JUMP JUMPDEST PUSH1 0x40 DUP3 ADD SWAP1 POP SWAP2 SWAP1 POP JUMP JUMPDEST PUSH1 0x0 PUSH2 0x18F2 PUSH1 0x25 DUP4 PUSH2 0x1B6D JUMP JUMPDEST SWAP2 POP PUSH2 0x18FD DUP3 PUSH2 0x1F78 JUMP JUMPDEST PUSH1 0x40 DUP3 ADD SWAP1 POP SWAP2 SWAP1 POP JUMP JUMPDEST PUSH1 0x0 PUSH2 0x1915 PUSH1 0x1F DUP4 PUSH2 0x1B6D JUMP JUMPDEST SWAP2 POP PUSH2 0x1920 DUP3 PUSH2 0x1FC7 JUMP JUMPDEST PUSH1 0x20 DUP3 ADD SWAP1 POP SWAP2 SWAP1 POP JUMP JUMPDEST PUSH1 0x0 PUSH2 0x1938 PUSH1 0x13 DUP4 PUSH2 0x1B6D JUMP JUMPDEST SWAP2 POP PUSH2 0x1943 DUP3 PUSH2 0x1FF0 JUMP JUMPDEST PUSH1 0x20 DUP3 ADD SWAP1 POP SWAP2 SWAP1 POP JUMP JUMPDEST PUSH2 0x1957 DUP2 PUSH2 0x1CE3 JUMP JUMPDEST DUP3 MSTORE POP POP JUMP JUMPDEST PUSH1 0x0 PUSH1 0x20 DUP3 ADD SWAP1 POP PUSH2 0x1972 PUSH1 0x0 DUP4 ADD DUP5 PUSH2 0x17A0 JUMP JUMPDEST SWAP3 SWAP2 POP POP JUMP JUMPDEST PUSH1 0x0 PUSH1 0x20 DUP3 ADD SWAP1 POP PUSH2 0x198D PUSH1 0x0 DUP4 ADD DUP5 PUSH2 0x1791 JUMP JUMPDEST SWAP3 SWAP2 POP POP JUMP JUMPDEST PUSH1 0x0 PUSH1 0x40 DUP3 ADD SWAP1 POP PUSH2 0x19A8 PUSH1 0x0 DUP4 ADD DUP6 PUSH2 0x1782 JUMP JUMPDEST PUSH2 0x19B5 PUSH1 0x20 DUP4 ADD DUP5 PUSH2 0x194E JUMP JUMPDEST SWAP4 SWAP3 POP POP POP JUMP JUMPDEST PUSH1 0x0 PUSH1 0x20 DUP3 ADD SWAP1 POP PUSH2 0x19D1 PUSH1 0x0 DUP4 ADD DUP5 PUSH2 0x17AF JUMP JUMPDEST SWAP3 SWAP2 POP POP JUMP JUMPDEST PUSH1 0x0 PUSH1 0x20 DUP3 ADD SWAP1 POP PUSH2 0x19EC PUSH1 0x0 DUP4 ADD DUP5 PUSH2 0x17BE JUMP JUMPDEST SWAP3 SWAP2 POP POP JUMP JUMPDEST PUSH1 0x0 PUSH1 0x20 DUP3 ADD SWAP1 POP DUP2 DUP2 SUB PUSH1 0x0 DUP4 ADD MSTORE PUSH2 0x1A0B DUP2 PUSH2 0x17CD JUMP JUMPDEST SWAP1 POP SWAP2 SWAP1 POP JUMP JUMPDEST PUSH1 0x0 PUSH1 0x20 DUP3 ADD SWAP1 POP DUP2 DUP2 SUB PUSH1 0x0 DUP4 ADD MSTORE PUSH2 0x1A2B DUP2 PUSH2 0x17F0 JUMP JUMPDEST SWAP1 POP SWAP2 SWAP1 POP JUMP JUMPDEST PUSH1 0x0 PUSH1 0x20 DUP3 ADD SWAP1 POP DUP2 DUP2 SUB PUSH1 0x0 DUP4 ADD MSTORE PUSH2 0x1A4B DUP2 PUSH2 0x1813 JUMP JUMPDEST SWAP1 POP SWAP2 SWAP1 POP JUMP JUMPDEST PUSH1 0x0 PUSH1 0x20 DUP3 ADD SWAP1 POP DUP2 DUP2 SUB PUSH1 0x0 DUP4 ADD MSTORE PUSH2 0x1A6B DUP2 PUSH2 0x1836 JUMP JUMPDEST SWAP1 POP SWAP2 SWAP1 POP JUMP JUMPDEST PUSH1 0x0 PUSH1 0x20 DUP3 ADD SWAP1 POP DUP2 DUP2 SUB PUSH1 0x0 DUP4 ADD MSTORE PUSH2 0x1A8B DUP2 PUSH2 0x1859 JUMP JUMPDEST SWAP1 POP SWAP2 SWAP1 POP JUMP JUMPDEST PUSH1 0x0 PUSH1 0x20 DUP3 ADD SWAP1 POP DUP2 DUP2 SUB PUSH1 0x0 DUP4 ADD MSTORE PUSH2 0x1AAB DUP2 PUSH2 0x187C JUMP JUMPDEST SWAP1 POP SWAP2 SWAP1 POP JUMP JUMPDEST PUSH1 0x0 PUSH1 0x20 DUP3 ADD SWAP1 POP DUP2 DUP2 SUB PUSH1 0x0 DUP4 ADD MSTORE PUSH2 0x1ACB DUP2 PUSH2 0x189F JUMP JUMPDEST SWAP1 POP SWAP2 SWAP1 POP JUMP JUMPDEST PUSH1 0x0 PUSH1 0x20 DUP3 ADD SWAP1 POP DUP2 DUP2 SUB PUSH1 0x0 DUP4 ADD MSTORE PUSH2 0x1AEB DUP2 PUSH2 0x18C2 JUMP JUMPDEST SWAP1 POP SWAP2 SWAP1 POP JUMP JUMPDEST PUSH1 0x0 PUSH1 0x20 DUP3 ADD SWAP1 POP DUP2 DUP2 SUB PUSH1 0x0 DUP4 ADD MSTORE PUSH2 0x1B0B DUP2 PUSH2 0x18E5 JUMP JUMPDEST SWAP1 POP SWAP2 SWAP1 POP JUMP JUMPDEST PUSH1 0x0 PUSH1 0x20 DUP3 ADD SWAP1 POP DUP2 DUP2 SUB PUSH1 0x0 DUP4 ADD MSTORE PUSH2 0x1B2B DUP2 PUSH2 0x1908 JUMP JUMPDEST SWAP1 POP SWAP2 SWAP1 POP JUMP JUMPDEST PUSH1 0x0 PUSH1 0x20 DUP3 ADD SWAP1 POP DUP2 DUP2 SUB PUSH1 0x0 DUP4 ADD MSTORE PUSH2 0x1B4B DUP2 PUSH2 0x192B JUMP JUMPDEST SWAP1 POP SWAP2 SWAP1 POP JUMP JUMPDEST PUSH1 0x0 PUSH1 0x20 DUP3 ADD SWAP1 POP PUSH2 0x1B67 PUSH1 0x0 DUP4 ADD DUP5 PUSH2 0x194E JUMP JUMPDEST SWAP3 SWAP2 POP POP JUMP JUMPDEST PUSH1 0x0 DUP3 DUP3 MSTORE PUSH1 0x20 DUP3 ADD SWAP1 POP SWAP3 SWAP2 POP POP JUMP JUMPDEST PUSH1 0x0 PUSH2 0x1B89 DUP3 PUSH2 0x1CE3 JUMP JUMPDEST SWAP2 POP PUSH2 0x1B94 DUP4 PUSH2 0x1CE3 JUMP JUMPDEST SWAP3 POP DUP3 PUSH32 0xFFFFFFFFFFFFFFFFFFFFFFFFFFFFFFFFFFFFFFFFFFFFFFFFFFFFFFFFFFFFFFFF SUB DUP3 GT ISZERO PUSH2 0x1BC9 JUMPI PUSH2 0x1BC8 PUSH2 0x1D35 JUMP JUMPDEST JUMPDEST DUP3 DUP3 ADD SWAP1 POP SWAP3 SWAP2 POP POP JUMP JUMPDEST PUSH1 0x0 PUSH2 0x1BDF DUP3 PUSH2 0x1CE3 JUMP JUMPDEST SWAP2 POP PUSH2 0x1BEA DUP4 PUSH2 0x1CE3 JUMP JUMPDEST SWAP3 POP DUP3 PUSH2 0x1BFA JUMPI PUSH2 0x1BF9 PUSH2 0x1D64 JUMP JUMPDEST JUMPDEST DUP3 DUP3 DIV SWAP1 POP SWAP3 SWAP2 POP POP JUMP JUMPDEST PUSH1 0x0 PUSH2 0x1C10 DUP3 PUSH2 0x1CE3 JUMP JUMPDEST SWAP2 POP PUSH2 0x1C1B DUP4 PUSH2 0x1CE3 JUMP JUMPDEST SWAP3 POP DUP2 PUSH32 0xFFFFFFFFFFFFFFFFFFFFFFFFFFFFFFFFFFFFFFFFFFFFFFFFFFFFFFFFFFFFFFFF DIV DUP4 GT DUP3 ISZERO ISZERO AND ISZERO PUSH2 0x1C54 JUMPI PUSH2 0x1C53 PUSH2 0x1D35 JUMP JUMPDEST JUMPDEST DUP3 DUP3 MUL SWAP1 POP SWAP3 SWAP2 POP POP JUMP JUMPDEST PUSH1 0x0 PUSH2 0x1C6A DUP3 PUSH2 0x1CE3 JUMP JUMPDEST SWAP2 POP PUSH2 0x1C75 DUP4 PUSH2 0x1CE3 JUMP JUMPDEST SWAP3 POP DUP3 DUP3 LT ISZERO PUSH2 0x1C88 JUMPI PUSH2 0x1C87 PUSH2 0x1D35 JUMP JUMPDEST JUMPDEST DUP3 DUP3 SUB SWAP1 POP SWAP3 SWAP2 POP POP JUMP JUMPDEST PUSH1 0x0 PUSH2 0x1C9E DUP3 PUSH2 0x1CC3 JUMP JUMPDEST SWAP1 POP SWAP2 SWAP1 POP JUMP JUMPDEST PUSH1 0x0 PUSH2 0x1CB0 DUP3 PUSH2 0x1CC3 JUMP JUMPDEST SWAP1 POP SWAP2 SWAP1 POP JUMP JUMPDEST PUSH1 0x0 DUP2 ISZERO ISZERO SWAP1 POP SWAP2 SWAP1 POP JUMP JUMPDEST PUSH1 0x0 PUSH20 0xFFFFFFFFFFFFFFFFFFFFFFFFFFFFFFFFFFFFFFFF DUP3 AND SWAP1 POP SWAP2 SWAP1 POP JUMP JUMPDEST PUSH1 0x0 DUP2 SWAP1 POP SWAP2 SWAP1 POP JUMP JUMPDEST PUSH1 0x0 PUSH2 0x1CF8 DUP3 PUSH2 0x1D11 JUMP JUMPDEST SWAP1 POP SWAP2 SWAP1 POP JUMP JUMPDEST PUSH1 0x0 PUSH2 0x1D0A DUP3 PUSH2 0x1D11 JUMP JUMPDEST SWAP1 POP SWAP2 SWAP1 POP JUMP JUMPDEST PUSH1 0x0 PUSH2 0x1D1C DUP3 PUSH2 0x1D23 JUMP JUMPDEST SWAP1 POP SWAP2 SWAP1 POP JUMP JUMPDEST PUSH1 0x0 PUSH2 0x1D2E DUP3 PUSH2 0x1CC3 JUMP JUMPDEST SWAP1 POP SWAP2 SWAP1 POP JUMP JUMPDEST PUSH32 0x4E487B7100000000000000000000000000000000000000000000000000000000 PUSH1 0x0 MSTORE PUSH1 0x11 PUSH1 0x4 MSTORE PUSH1 0x24 PUSH1 0x0 REVERT JUMPDEST PUSH32 0x4E487B7100000000000000000000000000000000000000000000000000000000 PUSH1 0x0 MSTORE PUSH1 0x12 PUSH1 0x4 MSTORE PUSH1 0x24 PUSH1 0x0 REVERT JUMPDEST PUSH1 0x0 DUP1 REVERT JUMPDEST PUSH32 0x4F6E6C7920746865206F776E65722063616E2063616C6C20746869732066756E PUSH1 0x0 DUP3 ADD MSTORE PUSH32 0x6374696F6E000000000000000000000000000000000000000000000000000000 PUSH1 0x20 DUP3 ADD MSTORE POP JUMP JUMPDEST PUSH32 0x5061757361626C653A206E6F7420706175736564000000000000000000000000 PUSH1 0x0 DUP3 ADD MSTORE POP JUMP JUMPDEST PUSH32 0x4F6E6C792074686520686569722063616E2063616C6C20746869732066756E63 PUSH1 0x0 DUP3 ADD MSTORE PUSH32 0x74696F6E00000000000000000000000000000000000000000000000000000000 PUSH1 0x20 DUP3 ADD MSTORE POP JUMP JUMPDEST PUSH32 0x436C61696D2070726F6365737320686173206E6F74206265656E20696E697469 PUSH1 0x0 DUP3 ADD MSTORE PUSH32 0x617465642E000000000000000000000000000000000000000000000000000000 PUSH1 0x20 DUP3 ADD MSTORE POP JUMP JUMPDEST PUSH32 0x436C61696D2064656C617920686173206E6F7420657870697265642E00000000 PUSH1 0x0 DUP3 ADD MSTORE POP JUMP JUMPDEST PUSH32 0x486569722063616E6E6F74206265207A65726F20616464726573730000000000 PUSH1 0x0 DUP3 ADD MSTORE POP JUMP JUMPDEST PUSH32 0x5061757361626C653A2070617573656400000000000000000000000000000000 PUSH1 0x0 DUP3 ADD MSTORE POP JUMP JUMPDEST PUSH32 0x5468657265206973206E6F2061637469766520636C61696D20746F2073746F70 PUSH1 0x0 DUP3 ADD MSTORE PUSH32 0x2E00000000000000000000000000000000000000000000000000000000000000 PUSH1 0x20 DUP3 ADD MSTORE POP JUMP JUMPDEST PUSH32 0x436C61696D2070726F6365737320697320616C726561647920696E2070726F67 PUSH1 0x0 DUP3 ADD MSTORE PUSH32 0x726573732E000000000000000000000000000000000000000000000000000000 PUSH1 0x20 DUP3 ADD MSTORE POP JUMP JUMPDEST PUSH32 0x5265656E7472616E637947756172643A207265656E7472616E742063616C6C00 PUSH1 0x0 DUP3 ADD MSTORE POP JUMP JUMPDEST PUSH32 0x496E73756666696369656E742066756E64732E00000000000000000000000000 PUSH1 0x0 DUP3 ADD MSTORE POP JUMP JUMPDEST PUSH2 0x2022 DUP2 PUSH2 0x1C93 JUMP JUMPDEST DUP2 EQ PUSH2 0x202D JUMPI PUSH1 0x0 DUP1 REVERT JUMPDEST POP JUMP JUMPDEST PUSH2 0x2039 DUP2 PUSH2 0x1CA5 JUMP JUMPDEST DUP2 EQ PUSH2 0x2044 JUMPI PUSH1 0x0 DUP1 REVERT JUMPDEST POP JUMP JUMPDEST PUSH2 0x2050 DUP2 PUSH2 0x1CB7 JUMP JUMPDEST DUP2 EQ PUSH2 0x205B JUMPI PUSH1 0x0 DUP1 REVERT JUMPDEST POP JUMP JUMPDEST PUSH2 0x2067 DUP2 PUSH2 0x1CE3 JUMP JUMPDEST DUP2 EQ PUSH2 0x2072 JUMPI PUSH1 0x0 DUP1 REVERT JUMPDEST POP JUMP INVALID LOG2 PUSH5 0x6970667358 0x22 SLT KECCAK256 DIFFICULTY CALLDATASIZE SELFDESTRUCT PUSH12 0x5D72CC48553779BB39780DDA 0x5C 0xB6 PUSH19 0xA422C32D353E2171FE237EBF3964736F6C6343 STOP ADDMOD SMOD STOP CALLER "
				},
				"gasEstimates": {
					"creation": {
						"codeDepositCost": "1672600",
						"executionCost": "infinite",
						"totalCost": "infinite"
					},
					"external": {
						"": "2175",
						"ERC20()": "2644",
						"ERC20Token()": "2625",
						"balanceOf(bool,address)": "infinite",
						"claim(address)": "infinite",
						"claimDelay()": "2475",
						"claimInProgress()": "2653",
						"claimInitiatedAt()": "2451",
						"deployer()": "2580",
						"heir()": "2559",
						"initiateClaim(address)": "53570",
						"owner()": "2537",
						"pause(address)": "infinite",
						"paused()": "2524",
						"returnDeployer()": "2612",
						"returnHeir()": "2634",
						"returnOwner()": "2589",
						"returnTransferFee()": "2547",
						"setHeir(address,uint256,address)": "infinite",
						"stopClaim(address)": "29262",
						"tokenBalance()": "2518",
						"transferOrWithdraw(bool,bool,address,uint256,address,address)": "infinite",
						"unpause(address)": "infinite"
					}
				},
				"methodIdentifiers": {
					"ERC20()": "cc4aa204",
					"ERC20Token()": "7a80760e",
					"balanceOf(bool,address)": "1903b431",
					"claim(address)": "1e83409a",
					"claimDelay()": "1c8ec299",
					"claimInProgress()": "faedd18e",
					"claimInitiatedAt()": "c7983e20",
					"deployer()": "d5f39488",
					"heir()": "91f2ebb8",
					"initiateClaim(address)": "f2b5eea7",
					"owner()": "8da5cb5b",
					"pause(address)": "76a67a51",
					"paused()": "5c975abb",
					"returnDeployer()": "362bb2ac",
					"returnHeir()": "56af4f75",
					"returnOwner()": "94a927fe",
					"returnTransferFee()": "f5c91a0b",
					"setHeir(address,uint256,address)": "6e1a7373",
					"stopClaim(address)": "b7d1d98e",
					"tokenBalance()": "9e1a4d19",
					"transferOrWithdraw(bool,bool,address,uint256,address,address)": "836b1aff",
					"unpause(address)": "57b001f9"
				}
			},
			"storageLayout": {
				"storage": [
					{
						"astId": 17,
						"contract": "contract/HeirAccount.sol:Accounts",
						"label": "_paused",
						"offset": 0,
						"slot": "0",
						"type": "t_bool"
					},
					{
						"astId": 118,
						"contract": "contract/HeirAccount.sol:Accounts",
						"label": "_status",
						"offset": 0,
						"slot": "1",
						"type": "t_uint256"
					},
					{
						"astId": 1233,
						"contract": "contract/HeirAccount.sol:Accounts",
						"label": "ERC20",
						"offset": 0,
						"slot": "2",
						"type": "t_contract(IERC20)239"
					},
					{
						"astId": 1238,
						"contract": "contract/HeirAccount.sol:Accounts",
						"label": "deployer",
						"offset": 0,
						"slot": "3",
						"type": "t_address"
					},
					{
						"astId": 1240,
						"contract": "contract/HeirAccount.sol:Accounts",
						"label": "owner",
						"offset": 0,
						"slot": "4",
						"type": "t_address_payable"
					},
					{
						"astId": 1242,
						"contract": "contract/HeirAccount.sol:Accounts",
						"label": "heir",
						"offset": 0,
						"slot": "5",
						"type": "t_address_payable"
					},
					{
						"astId": 1244,
						"contract": "contract/HeirAccount.sol:Accounts",
						"label": "ERC20Token",
						"offset": 0,
						"slot": "6",
						"type": "t_address_payable"
					},
					{
						"astId": 1246,
						"contract": "contract/HeirAccount.sol:Accounts",
						"label": "feeAddress",
						"offset": 0,
						"slot": "7",
						"type": "t_address_payable"
					},
					{
						"astId": 1248,
						"contract": "contract/HeirAccount.sol:Accounts",
						"label": "claimInProgress",
						"offset": 20,
						"slot": "7",
						"type": "t_bool"
					},
					{
						"astId": 1250,
						"contract": "contract/HeirAccount.sol:Accounts",
						"label": "claimInitiatedAt",
						"offset": 0,
						"slot": "8",
						"type": "t_uint256"
					},
					{
						"astId": 1252,
						"contract": "contract/HeirAccount.sol:Accounts",
						"label": "claimDelay",
						"offset": 0,
						"slot": "9",
						"type": "t_uint256"
					},
					{
						"astId": 1254,
						"contract": "contract/HeirAccount.sol:Accounts",
						"label": "fee",
						"offset": 0,
						"slot": "10",
						"type": "t_uint256"
					},
					{
						"astId": 1256,
						"contract": "contract/HeirAccount.sol:Accounts",
						"label": "transferFee",
						"offset": 0,
						"slot": "11",
						"type": "t_uint256"
					},
					{
						"astId": 1258,
						"contract": "contract/HeirAccount.sol:Accounts",
						"label": "tokenBalance",
						"offset": 0,
						"slot": "12",
						"type": "t_uint256"
					}
				],
				"types": {
					"t_address": {
						"encoding": "inplace",
						"label": "address",
						"numberOfBytes": "20"
					},
					"t_address_payable": {
						"encoding": "inplace",
						"label": "address payable",
						"numberOfBytes": "20"
					},
					"t_bool": {
						"encoding": "inplace",
						"label": "bool",
						"numberOfBytes": "1"
					},
					"t_contract(IERC20)239": {
						"encoding": "inplace",
						"label": "contract IERC20",
						"numberOfBytes": "20"
					},
					"t_uint256": {
						"encoding": "inplace",
						"label": "uint256",
						"numberOfBytes": "32"
					}
				}
			},
			"userdoc": {
				"kind": "user",
				"methods": {},
				"version": 1
			}
		}
	}
}