{
	"contract/JointAccount.sol": {
		"Accounts": {
			"abi": [
				{
					"inputs": [
						{
							"internalType": "address payable",
							"name": "_owner",
							"type": "address"
						}
					],
					"stateMutability": "nonpayable",
					"type": "constructor"
				},
				{
					"anonymous": false,
					"inputs": [
						{
							"indexed": false,
							"internalType": "address",
							"name": "freezeBy",
							"type": "address"
						}
					],
					"name": "Freeze",
					"type": "event"
				},
				{
					"anonymous": false,
					"inputs": [
						{
							"indexed": false,
							"internalType": "address",
							"name": "unfreezeBy",
							"type": "address"
						}
					],
					"name": "Unfreeze",
					"type": "event"
				},
				{
					"inputs": [],
					"name": "ERC20",
					"outputs": [
						{
							"internalType": "contract IERC20",
							"name": "",
							"type": "address"
						}
					],
					"stateMutability": "view",
					"type": "function"
				},
				{
					"inputs": [],
					"name": "ERC20Token",
					"outputs": [
						{
							"internalType": "address payable",
							"name": "",
							"type": "address"
						}
					],
					"stateMutability": "view",
					"type": "function"
				},
				{
					"inputs": [],
					"name": "InitiatedAt",
					"outputs": [
						{
							"internalType": "uint256",
							"name": "",
							"type": "uint256"
						}
					],
					"stateMutability": "view",
					"type": "function"
				},
				{
					"inputs": [
						{
							"internalType": "address",
							"name": "_ERC20Address",
							"type": "address"
						},
						{
							"internalType": "address payable",
							"name": "_from",
							"type": "address"
						},
						{
							"internalType": "address payable",
							"name": "_contract",
							"type": "address"
						}
					],
					"name": "allowance",
					"outputs": [
						{
							"internalType": "uint256",
							"name": "",
							"type": "uint256"
						}
					],
					"stateMutability": "view",
					"type": "function"
				},
				{
					"inputs": [
						{
							"internalType": "uint256",
							"name": "_amount",
							"type": "uint256"
						},
						{
							"internalType": "address",
							"name": "_ERC20Address",
							"type": "address"
						},
						{
							"internalType": "address payable",
							"name": "_contract",
							"type": "address"
						}
					],
					"name": "approve",
					"outputs": [],
					"stateMutability": "payable",
					"type": "function"
				},
				{
					"inputs": [
						{
							"internalType": "bool",
							"name": "_isCelo",
							"type": "bool"
						},
						{
							"internalType": "address",
							"name": "_ERC20Address",
							"type": "address"
						}
					],
					"name": "balanceOf",
					"outputs": [
						{
							"internalType": "uint256",
							"name": "",
							"type": "uint256"
						}
					],
					"stateMutability": "view",
					"type": "function"
				},
				{
					"inputs": [],
					"name": "beneficiary",
					"outputs": [
						{
							"internalType": "address payable",
							"name": "",
							"type": "address"
						}
					],
					"stateMutability": "view",
					"type": "function"
				},
				{
					"inputs": [],
					"name": "delay",
					"outputs": [
						{
							"internalType": "uint256",
							"name": "",
							"type": "uint256"
						}
					],
					"stateMutability": "view",
					"type": "function"
				},
				{
					"inputs": [
						{
							"internalType": "uint256",
							"name": "_amount",
							"type": "uint256"
						},
						{
							"internalType": "address payable",
							"name": "_from",
							"type": "address"
						},
						{
							"internalType": "address",
							"name": "_ERC20Address",
							"type": "address"
						},
						{
							"internalType": "address payable",
							"name": "_contract",
							"type": "address"
						}
					],
					"name": "deposit",
					"outputs": [],
					"stateMutability": "payable",
					"type": "function"
				},
				{
					"inputs": [
						{
							"internalType": "address",
							"name": "_sender",
							"type": "address"
						}
					],
					"name": "freeze",
					"outputs": [],
					"stateMutability": "nonpayable",
					"type": "function"
				},
				{
					"inputs": [],
					"name": "frozen",
					"outputs": [
						{
							"internalType": "bool",
							"name": "",
							"type": "bool"
						}
					],
					"stateMutability": "view",
					"type": "function"
				},
				{
					"inputs": [
						{
							"internalType": "address",
							"name": "_ERC20Address",
							"type": "address"
						}
					],
					"name": "getWithdrawLimit",
					"outputs": [
						{
							"internalType": "uint256",
							"name": "",
							"type": "uint256"
						}
					],
					"stateMutability": "view",
					"type": "function"
				},
				{
					"inputs": [],
					"name": "mutex",
					"outputs": [
						{
							"internalType": "bool",
							"name": "",
							"type": "bool"
						}
					],
					"stateMutability": "view",
					"type": "function"
				},
				{
					"inputs": [],
					"name": "owner",
					"outputs": [
						{
							"internalType": "address payable",
							"name": "",
							"type": "address"
						}
					],
					"stateMutability": "view",
					"type": "function"
				},
				{
					"inputs": [],
					"name": "returnBeneficiary",
					"outputs": [
						{
							"internalType": "address",
							"name": "",
							"type": "address"
						}
					],
					"stateMutability": "view",
					"type": "function"
				},
				{
					"inputs": [],
					"name": "returnDelay",
					"outputs": [
						{
							"internalType": "uint256",
							"name": "",
							"type": "uint256"
						}
					],
					"stateMutability": "view",
					"type": "function"
				},
				{
					"inputs": [],
					"name": "returnInitiateAt",
					"outputs": [
						{
							"internalType": "uint256",
							"name": "",
							"type": "uint256"
						}
					],
					"stateMutability": "view",
					"type": "function"
				},
				{
					"inputs": [],
					"name": "returnOwner",
					"outputs": [
						{
							"internalType": "address",
							"name": "",
							"type": "address"
						}
					],
					"stateMutability": "view",
					"type": "function"
				},
				{
					"inputs": [
						{
							"internalType": "address payable",
							"name": "_beneficiary",
							"type": "address"
						},
						{
							"internalType": "uint256",
							"name": "_delay",
							"type": "uint256"
						},
						{
							"internalType": "address",
							"name": "_sender",
							"type": "address"
						}
					],
					"name": "setBeneficiary",
					"outputs": [],
					"stateMutability": "nonpayable",
					"type": "function"
				},
				{
					"inputs": [
						{
							"internalType": "address",
							"name": "_sender",
							"type": "address"
						},
						{
							"internalType": "uint256",
							"name": "_amount",
							"type": "uint256"
						},
						{
							"internalType": "address",
							"name": "_ERC20Address",
							"type": "address"
						}
					],
					"name": "setWithdrawLimit",
					"outputs": [],
					"stateMutability": "nonpayable",
					"type": "function"
				},
				{
					"inputs": [],
					"name": "tokenBalance",
					"outputs": [
						{
							"internalType": "uint256",
							"name": "",
							"type": "uint256"
						}
					],
					"stateMutability": "view",
					"type": "function"
				},
				{
					"inputs": [
						{
							"internalType": "bool",
							"name": "_isCelo",
							"type": "bool"
						},
						{
							"internalType": "address payable",
							"name": "_recipient",
							"type": "address"
						},
						{
							"internalType": "uint256",
							"name": "_amount",
							"type": "uint256"
						},
						{
							"internalType": "address",
							"name": "_ERC20Address",
							"type": "address"
						},
						{
							"internalType": "address",
							"name": "_sender",
							"type": "address"
						},
						{
							"internalType": "address payable",
							"name": "_feeAddress",
							"type": "address"
						},
						{
							"internalType": "uint256",
							"name": "_transferFee",
							"type": "uint256"
						}
					],
					"name": "transferFunds",
					"outputs": [],
					"stateMutability": "payable",
					"type": "function"
				},
				{
					"inputs": [
						{
							"internalType": "address",
							"name": "_sender",
							"type": "address"
						}
					],
					"name": "unfreeze",
					"outputs": [],
					"stateMutability": "nonpayable",
					"type": "function"
				},
				{
					"inputs": [
						{
							"internalType": "bool",
							"name": "_isCelo",
							"type": "bool"
						},
						{
							"internalType": "uint256",
							"name": "_amount",
							"type": "uint256"
						},
						{
							"internalType": "address",
							"name": "_ERC20Address",
							"type": "address"
						},
						{
							"internalType": "address",
							"name": "_sender",
							"type": "address"
						},
						{
							"internalType": "address payable",
							"name": "_feeAddress",
							"type": "address"
						},
						{
							"internalType": "uint256",
							"name": "_transferFee",
							"type": "uint256"
						}
					],
					"name": "withdraw",
					"outputs": [],
					"stateMutability": "payable",
					"type": "function"
				},
				{
					"inputs": [
						{
							"internalType": "address",
							"name": "",
							"type": "address"
						}
					],
					"name": "withdrawLimit",
					"outputs": [
						{
							"internalType": "uint256",
							"name": "",
							"type": "uint256"
						}
					],
					"stateMutability": "view",
					"type": "function"
				}
			],
			"devdoc": {
				"kind": "dev",
				"methods": {},
				"version": 1
			},
			"evm": {
				"assembly": "    /* \"contract/JointAccount.sol\":192:7981  contract Accounts {... */\n  mstore(0x40, 0x80)\n    /* \"contract/JointAccount.sol\":883:888  false */\n  0x00\n    /* \"contract/JointAccount.sol\":863:888  bool public mutex = false */\n  0x06\n  exp(0x0100, 0x14)\n  dup2\n  sload\n  dup2\n  0xff\n  mul\n  not\n  and\n  swap1\n  dup4\n  iszero\n  iszero\n  mul\n  or\n  swap1\n  sstore\n  pop\n    /* \"contract/JointAccount.sol\":1000:1005  false */\n  0x00\n    /* \"contract/JointAccount.sol\":979:1005  bool public frozen = false */\n  0x08\n  exp(0x0100, 0x00)\n  dup2\n  sload\n  dup2\n  0xff\n  mul\n  not\n  and\n  swap1\n  dup4\n  iszero\n  iszero\n  mul\n  or\n  swap1\n  sstore\n  pop\n    /* \"contract/JointAccount.sol\":1268:1340  constructor(address payable _owner) {... */\n  callvalue\n  dup1\n  iszero\n  tag_1\n  jumpi\n  0x00\n  dup1\n  revert\ntag_1:\n  pop\n  mload(0x40)\n  sub(codesize, bytecodeSize)\n  dup1\n  bytecodeSize\n  dup4\n  codecopy\n  dup2\n  dup2\n  add\n  0x40\n  mstore\n  dup2\n  add\n  swap1\n  tag_2\n  swap2\n  swap1\n  tag_3\n  jump\t// in\ntag_2:\n    /* \"contract/JointAccount.sol\":1326:1332  _owner */\n  dup1\n    /* \"contract/JointAccount.sol\":1318:1323  owner */\n  0x00\n  dup1\n    /* \"contract/JointAccount.sol\":1318:1332  owner = _owner */\n  0x0100\n  exp\n  dup2\n  sload\n  dup2\n  0xffffffffffffffffffffffffffffffffffffffff\n  mul\n  not\n  and\n  swap1\n  dup4\n  0xffffffffffffffffffffffffffffffffffffffff\n  and\n  mul\n  or\n  swap1\n  sstore\n  pop\n    /* \"contract/JointAccount.sol\":1268:1340  constructor(address payable _owner) {... */\n  pop\n    /* \"contract/JointAccount.sol\":192:7981  contract Accounts {... */\n  jump(tag_6)\n    /* \"#utility.yul\":88:205   */\ntag_8:\n    /* \"#utility.yul\":197:198   */\n  0x00\n    /* \"#utility.yul\":194:195   */\n  dup1\n    /* \"#utility.yul\":187:199   */\n  revert\n    /* \"#utility.yul\":334:460   */\ntag_10:\n    /* \"#utility.yul\":371:378   */\n  0x00\n    /* \"#utility.yul\":411:453   */\n  0xffffffffffffffffffffffffffffffffffffffff\n    /* \"#utility.yul\":404:409   */\n  dup3\n    /* \"#utility.yul\":400:454   */\n  and\n    /* \"#utility.yul\":389:454   */\n  swap1\n  pop\n    /* \"#utility.yul\":334:460   */\n  swap2\n  swap1\n  pop\n  jump\t// out\n    /* \"#utility.yul\":466:570   */\ntag_11:\n    /* \"#utility.yul\":511:518   */\n  0x00\n    /* \"#utility.yul\":540:564   */\n  tag_20\n    /* \"#utility.yul\":558:563   */\n  dup3\n    /* \"#utility.yul\":540:564   */\n  tag_10\n  jump\t// in\ntag_20:\n    /* \"#utility.yul\":529:564   */\n  swap1\n  pop\n    /* \"#utility.yul\":466:570   */\n  swap2\n  swap1\n  pop\n  jump\t// out\n    /* \"#utility.yul\":576:714   */\ntag_12:\n    /* \"#utility.yul\":657:689   */\n  tag_22\n    /* \"#utility.yul\":683:688   */\n  dup2\n    /* \"#utility.yul\":657:689   */\n  tag_11\n  jump\t// in\ntag_22:\n    /* \"#utility.yul\":650:655   */\n  dup2\n    /* \"#utility.yul\":647:690   */\n  eq\n    /* \"#utility.yul\":637:708   */\n  tag_23\n  jumpi\n    /* \"#utility.yul\":704:705   */\n  0x00\n    /* \"#utility.yul\":701:702   */\n  dup1\n    /* \"#utility.yul\":694:706   */\n  revert\n    /* \"#utility.yul\":637:708   */\ntag_23:\n    /* \"#utility.yul\":576:714   */\n  pop\n  jump\t// out\n    /* \"#utility.yul\":720:879   */\ntag_13:\n    /* \"#utility.yul\":785:790   */\n  0x00\n    /* \"#utility.yul\":816:822   */\n  dup2\n    /* \"#utility.yul\":810:823   */\n  mload\n    /* \"#utility.yul\":801:823   */\n  swap1\n  pop\n    /* \"#utility.yul\":832:873   */\n  tag_25\n    /* \"#utility.yul\":867:872   */\n  dup2\n    /* \"#utility.yul\":832:873   */\n  tag_12\n  jump\t// in\ntag_25:\n    /* \"#utility.yul\":720:879   */\n  swap3\n  swap2\n  pop\n  pop\n  jump\t// out\n    /* \"#utility.yul\":885:1252   */\ntag_3:\n    /* \"#utility.yul\":963:969   */\n  0x00\n    /* \"#utility.yul\":1012:1014   */\n  0x20\n    /* \"#utility.yul\":1000:1009   */\n  dup3\n    /* \"#utility.yul\":991:998   */\n  dup5\n    /* \"#utility.yul\":987:1010   */\n  sub\n    /* \"#utility.yul\":983:1015   */\n  slt\n    /* \"#utility.yul\":980:1099   */\n  iszero\n  tag_27\n  jumpi\n    /* \"#utility.yul\":1018:1097   */\n  tag_28\n  tag_8\n  jump\t// in\ntag_28:\n    /* \"#utility.yul\":980:1099   */\ntag_27:\n    /* \"#utility.yul\":1138:1139   */\n  0x00\n    /* \"#utility.yul\":1163:1235   */\n  tag_29\n    /* \"#utility.yul\":1227:1234   */\n  dup5\n    /* \"#utility.yul\":1218:1224   */\n  dup3\n    /* \"#utility.yul\":1207:1216   */\n  dup6\n    /* \"#utility.yul\":1203:1225   */\n  add\n    /* \"#utility.yul\":1163:1235   */\n  tag_13\n  jump\t// in\ntag_29:\n    /* \"#utility.yul\":1153:1235   */\n  swap2\n  pop\n    /* \"#utility.yul\":1109:1245   */\n  pop\n    /* \"#utility.yul\":885:1252   */\n  swap3\n  swap2\n  pop\n  pop\n  jump\t// out\n    /* \"contract/JointAccount.sol\":192:7981  contract Accounts {... */\ntag_6:\n  dataSize(sub_0)\n  dup1\n  dataOffset(sub_0)\n  0x00\n  codecopy\n  0x00\n  return\nstop\n\nsub_0: assembly {\n        /* \"contract/JointAccount.sol\":192:7981  contract Accounts {... */\n      mstore(0x40, 0x80)\n      jumpi(tag_1, lt(calldatasize, 0x04))\n      shr(0xe0, calldataload(0x00))\n      dup1\n      0x7a80760e\n      gt\n      tag_27\n      jumpi\n      dup1\n      0x9e1a4d19\n      gt\n      tag_28\n      jumpi\n      dup1\n      0xc6a62290\n      gt\n      tag_29\n      jumpi\n      dup1\n      0xc6a62290\n      eq\n      tag_23\n      jumpi\n      dup1\n      0xcc4aa204\n      eq\n      tag_24\n      jumpi\n      dup1\n      0xd4fb7e2d\n      eq\n      tag_25\n      jumpi\n      dup1\n      0xfce33f01\n      eq\n      tag_26\n      jumpi\n      jump(tag_1)\n    tag_29:\n      dup1\n      0x9e1a4d19\n      eq\n      tag_20\n      jumpi\n      dup1\n      0xa5720770\n      eq\n      tag_21\n      jumpi\n      dup1\n      0xc250283c\n      eq\n      tag_22\n      jumpi\n      jump(tag_1)\n    tag_28:\n      dup1\n      0x7a80760e\n      eq\n      tag_14\n      jumpi\n      dup1\n      0x87c2797d\n      eq\n      tag_15\n      jumpi\n      dup1\n      0x8d1fdf2f\n      eq\n      tag_16\n      jumpi\n      dup1\n      0x8da5cb5b\n      eq\n      tag_17\n      jumpi\n      dup1\n      0x927da105\n      eq\n      tag_18\n      jumpi\n      dup1\n      0x94a927fe\n      eq\n      tag_19\n      jumpi\n      jump(tag_1)\n    tag_27:\n      dup1\n      0x2fac5d9f\n      gt\n      tag_30\n      jumpi\n      dup1\n      0x2fac5d9f\n      eq\n      tag_8\n      jumpi\n      dup1\n      0x342ac615\n      eq\n      tag_9\n      jumpi\n      dup1\n      0x38af3eed\n      eq\n      tag_10\n      jumpi\n      dup1\n      0x45c8b1a6\n      eq\n      tag_11\n      jumpi\n      dup1\n      0x4bfffc86\n      eq\n      tag_12\n      jumpi\n      dup1\n      0x6a42b8f8\n      eq\n      tag_13\n      jumpi\n      jump(tag_1)\n    tag_30:\n      dup1\n      0x0171b6da\n      eq\n      tag_2\n      jumpi\n      dup1\n      0x054f7d9c\n      eq\n      tag_3\n      jumpi\n      dup1\n      0x0a84aac5\n      eq\n      tag_4\n      jumpi\n      dup1\n      0x1903b431\n      eq\n      tag_5\n      jumpi\n      dup1\n      0x23658af4\n      eq\n      tag_6\n      jumpi\n      dup1\n      0x28af53fa\n      eq\n      tag_7\n      jumpi\n    tag_1:\n      0x00\n      dup1\n      revert\n        /* \"contract/JointAccount.sol\":5326:6867  function transferFunds(bool _isCelo, address payable _recipient, uint _amount, address _ERC20Address, address _sender, address payable _feeAddress, uint _transferFee) public payable {... */\n    tag_2:\n      tag_31\n      0x04\n      dup1\n      calldatasize\n      sub\n      dup2\n      add\n      swap1\n      tag_32\n      swap2\n      swap1\n      tag_33\n      jump\t// in\n    tag_32:\n      tag_34\n      jump\t// in\n    tag_31:\n      stop\n        /* \"contract/JointAccount.sol\":979:1005  bool public frozen = false */\n    tag_3:\n      callvalue\n      dup1\n      iszero\n      tag_35\n      jumpi\n      0x00\n      dup1\n      revert\n    tag_35:\n      pop\n      tag_36\n      tag_37\n      jump\t// in\n    tag_36:\n      mload(0x40)\n      tag_38\n      swap2\n      swap1\n      tag_39\n      jump\t// in\n    tag_38:\n      mload(0x40)\n      dup1\n      swap2\n      sub\n      swap1\n      return\n        /* \"contract/JointAccount.sol\":1427:1821  function setBeneficiary(address payable _beneficiary, uint _delay, address _sender) public {... */\n    tag_4:\n      callvalue\n      dup1\n      iszero\n      tag_40\n      jumpi\n      0x00\n      dup1\n      revert\n    tag_40:\n      pop\n      tag_41\n      0x04\n      dup1\n      calldatasize\n      sub\n      dup2\n      add\n      swap1\n      tag_42\n      swap2\n      swap1\n      tag_43\n      jump\t// in\n    tag_42:\n      tag_44\n      jump\t// in\n    tag_41:\n      stop\n        /* \"contract/JointAccount.sol\":6923:7164  function balanceOf(bool _isCelo, address _ERC20Address) public view returns(uint) {... */\n    tag_5:\n      callvalue\n      dup1\n      iszero\n      tag_45\n      jumpi\n      0x00\n      dup1\n      revert\n    tag_45:\n      pop\n      tag_46\n      0x04\n      dup1\n      calldatasize\n      sub\n      dup2\n      add\n      swap1\n      tag_47\n      swap2\n      swap1\n      tag_48\n      jump\t// in\n    tag_47:\n      tag_49\n      jump\t// in\n    tag_46:\n      mload(0x40)\n      tag_50\n      swap2\n      swap1\n      tag_51\n      jump\t// in\n    tag_50:\n      mload(0x40)\n      dup1\n      swap2\n      sub\n      swap1\n      return\n        /* \"contract/JointAccount.sol\":7376:7470  function returnBeneficiary() public view returns(address){... */\n    tag_6:\n      callvalue\n      dup1\n      iszero\n      tag_52\n      jumpi\n      0x00\n      dup1\n      revert\n    tag_52:\n      pop\n      tag_53\n      tag_54\n      jump\t// in\n    tag_53:\n      mload(0x40)\n      tag_55\n      swap2\n      swap1\n      tag_56\n      jump\t// in\n    tag_55:\n      mload(0x40)\n      dup1\n      swap2\n      sub\n      swap1\n      return\n        /* \"contract/JointAccount.sol\":425:448  uint public InitiatedAt */\n    tag_7:\n      callvalue\n      dup1\n      iszero\n      tag_57\n      jumpi\n      0x00\n      dup1\n      revert\n    tag_57:\n      pop\n      tag_58\n      tag_59\n      jump\t// in\n    tag_58:\n      mload(0x40)\n      tag_60\n      swap2\n      swap1\n      tag_51\n      jump\t// in\n    tag_60:\n      mload(0x40)\n      dup1\n      swap2\n      sub\n      swap1\n      return\n        /* \"contract/JointAccount.sol\":2630:2892  function approve(uint _amount, address _ERC20Address, address payable _contract) public payable {... */\n    tag_8:\n      tag_61\n      0x04\n      dup1\n      calldatasize\n      sub\n      dup2\n      add\n      swap1\n      tag_62\n      swap2\n      swap1\n      tag_63\n      jump\t// in\n    tag_62:\n      tag_64\n      jump\t// in\n    tag_61:\n      stop\n        /* \"contract/JointAccount.sol\":1900:2116  function setWithdrawLimit(address _sender, uint _amount, address _ERC20Address) public {... */\n    tag_9:\n      callvalue\n      dup1\n      iszero\n      tag_65\n      jumpi\n      0x00\n      dup1\n      revert\n    tag_65:\n      pop\n      tag_66\n      0x04\n      dup1\n      calldatasize\n      sub\n      dup2\n      add\n      swap1\n      tag_67\n      swap2\n      swap1\n      tag_68\n      jump\t// in\n    tag_67:\n      tag_69\n      jump\t// in\n    tag_66:\n      stop\n        /* \"contract/JointAccount.sol\":340:374  address payable public beneficiary */\n    tag_10:\n      callvalue\n      dup1\n      iszero\n      tag_70\n      jumpi\n      0x00\n      dup1\n      revert\n    tag_70:\n      pop\n      tag_71\n      tag_72\n      jump\t// in\n    tag_71:\n      mload(0x40)\n      tag_73\n      swap2\n      swap1\n      tag_74\n      jump\t// in\n    tag_73:\n      mload(0x40)\n      dup1\n      swap2\n      sub\n      swap1\n      return\n        /* \"contract/JointAccount.sol\":2395:2583  function unfreeze(address _sender) public {... */\n    tag_11:\n      callvalue\n      dup1\n      iszero\n      tag_75\n      jumpi\n      0x00\n      dup1\n      revert\n    tag_75:\n      pop\n      tag_76\n      0x04\n      dup1\n      calldatasize\n      sub\n      dup2\n      add\n      swap1\n      tag_77\n      swap2\n      swap1\n      tag_78\n      jump\t// in\n    tag_77:\n      tag_79\n      jump\t// in\n    tag_76:\n      stop\n        /* \"contract/JointAccount.sol\":7882:7972  function returnInitiateAt() public view returns(uint){... */\n    tag_12:\n      callvalue\n      dup1\n      iszero\n      tag_80\n      jumpi\n      0x00\n      dup1\n      revert\n    tag_80:\n      pop\n      tag_81\n      tag_82\n      jump\t// in\n    tag_81:\n      mload(0x40)\n      tag_83\n      swap2\n      swap1\n      tag_51\n      jump\t// in\n    tag_83:\n      mload(0x40)\n      dup1\n      swap2\n      sub\n      swap1\n      return\n        /* \"contract/JointAccount.sol\":556:573  uint public delay */\n    tag_13:\n      callvalue\n      dup1\n      iszero\n      tag_84\n      jumpi\n      0x00\n      dup1\n      revert\n    tag_84:\n      pop\n      tag_85\n      tag_86\n      jump\t// in\n    tag_85:\n      mload(0x40)\n      tag_87\n      swap2\n      swap1\n      tag_51\n      jump\t// in\n    tag_87:\n      mload(0x40)\n      dup1\n      swap2\n      sub\n      swap1\n      return\n        /* \"contract/JointAccount.sol\":667:700  address payable public ERC20Token */\n    tag_14:\n      callvalue\n      dup1\n      iszero\n      tag_88\n      jumpi\n      0x00\n      dup1\n      revert\n    tag_88:\n      pop\n      tag_89\n      tag_90\n      jump\t// in\n    tag_89:\n      mload(0x40)\n      tag_91\n      swap2\n      swap1\n      tag_74\n      jump\t// in\n    tag_91:\n      mload(0x40)\n      dup1\n      swap2\n      sub\n      swap1\n      return\n        /* \"contract/JointAccount.sol\":3638:5279  function withdraw(bool _isCelo, uint _amount, address _ERC20Address, address _sender, address payable _feeAddress, uint _transferFee) public payable {... */\n    tag_15:\n      tag_92\n      0x04\n      dup1\n      calldatasize\n      sub\n      dup2\n      add\n      swap1\n      tag_93\n      swap2\n      swap1\n      tag_94\n      jump\t// in\n    tag_93:\n      tag_95\n      jump\t// in\n    tag_92:\n      stop\n        /* \"contract/JointAccount.sol\":2165:2346  function freeze(address _sender) public {... */\n    tag_16:\n      callvalue\n      dup1\n      iszero\n      tag_96\n      jumpi\n      0x00\n      dup1\n      revert\n    tag_96:\n      pop\n      tag_97\n      0x04\n      dup1\n      calldatasize\n      sub\n      dup2\n      add\n      swap1\n      tag_98\n      swap2\n      swap1\n      tag_78\n      jump\t// in\n    tag_98:\n      tag_99\n      jump\t// in\n    tag_97:\n      stop\n        /* \"contract/JointAccount.sol\":266:294  address payable public owner */\n    tag_17:\n      callvalue\n      dup1\n      iszero\n      tag_100\n      jumpi\n      0x00\n      dup1\n      revert\n    tag_100:\n      pop\n      tag_101\n      tag_102\n      jump\t// in\n    tag_101:\n      mload(0x40)\n      tag_103\n      swap2\n      swap1\n      tag_74\n      jump\t// in\n    tag_103:\n      mload(0x40)\n      dup1\n      swap2\n      sub\n      swap1\n      return\n        /* \"contract/JointAccount.sol\":2947:3180  function allowance ( address _ERC20Address, address payable _from, address payable _contract) public  view returns (uint256) {... */\n    tag_18:\n      callvalue\n      dup1\n      iszero\n      tag_104\n      jumpi\n      0x00\n      dup1\n      revert\n    tag_104:\n      pop\n      tag_105\n      0x04\n      dup1\n      calldatasize\n      sub\n      dup2\n      add\n      swap1\n      tag_106\n      swap2\n      swap1\n      tag_107\n      jump\t// in\n    tag_106:\n      tag_108\n      jump\t// in\n    tag_105:\n      mload(0x40)\n      tag_109\n      swap2\n      swap1\n      tag_51\n      jump\t// in\n    tag_109:\n      mload(0x40)\n      dup1\n      swap2\n      sub\n      swap1\n      return\n        /* \"contract/JointAccount.sol\":7224:7306  function returnOwner() public view returns(address){... */\n    tag_19:\n      callvalue\n      dup1\n      iszero\n      tag_110\n      jumpi\n      0x00\n      dup1\n      revert\n    tag_110:\n      pop\n      tag_111\n      tag_112\n      jump\t// in\n    tag_111:\n      mload(0x40)\n      tag_113\n      swap2\n      swap1\n      tag_56\n      jump\t// in\n    tag_113:\n      mload(0x40)\n      dup1\n      swap2\n      sub\n      swap1\n      return\n        /* \"contract/JointAccount.sol\":925:949  uint public tokenBalance */\n    tag_20:\n      callvalue\n      dup1\n      iszero\n      tag_114\n      jumpi\n      0x00\n      dup1\n      revert\n    tag_114:\n      pop\n      tag_115\n      tag_116\n      jump\t// in\n    tag_115:\n      mload(0x40)\n      tag_117\n      swap2\n      swap1\n      tag_51\n      jump\t// in\n    tag_117:\n      mload(0x40)\n      dup1\n      swap2\n      sub\n      swap1\n      return\n        /* \"contract/JointAccount.sol\":863:888  bool public mutex = false */\n    tag_21:\n      callvalue\n      dup1\n      iszero\n      tag_118\n      jumpi\n      0x00\n      dup1\n      revert\n    tag_118:\n      pop\n      tag_119\n      tag_120\n      jump\t// in\n    tag_119:\n      mload(0x40)\n      tag_121\n      swap2\n      swap1\n      tag_39\n      jump\t// in\n    tag_121:\n      mload(0x40)\n      dup1\n      swap2\n      sub\n      swap1\n      return\n        /* \"contract/JointAccount.sol\":3221:3591  function deposit(uint _amount, address payable _from, address _ERC20Address, address payable _contract) public payable {... */\n    tag_22:\n      tag_122\n      0x04\n      dup1\n      calldatasize\n      sub\n      dup2\n      add\n      swap1\n      tag_123\n      swap2\n      swap1\n      tag_124\n      jump\t// in\n    tag_123:\n      tag_125\n      jump\t// in\n    tag_122:\n      stop\n        /* \"contract/JointAccount.sol\":7728:7807  function returnDelay() public view returns(uint){... */\n    tag_23:\n      callvalue\n      dup1\n      iszero\n      tag_126\n      jumpi\n      0x00\n      dup1\n      revert\n    tag_126:\n      pop\n      tag_127\n      tag_128\n      jump\t// in\n    tag_127:\n      mload(0x40)\n      tag_129\n      swap2\n      swap1\n      tag_51\n      jump\t// in\n    tag_129:\n      mload(0x40)\n      dup1\n      swap2\n      sub\n      swap1\n      return\n        /* \"contract/JointAccount.sol\":722:741  IERC20 public ERC20 */\n    tag_24:\n      callvalue\n      dup1\n      iszero\n      tag_130\n      jumpi\n      0x00\n      dup1\n      revert\n    tag_130:\n      pop\n      tag_131\n      tag_132\n      jump\t// in\n    tag_131:\n      mload(0x40)\n      tag_133\n      swap2\n      swap1\n      tag_134\n      jump\t// in\n    tag_133:\n      mload(0x40)\n      dup1\n      swap2\n      sub\n      swap1\n      return\n        /* \"contract/JointAccount.sol\":7539:7665  function getWithdrawLimit(address _ERC20Address) public view returns (uint) {... */\n    tag_25:\n      callvalue\n      dup1\n      iszero\n      tag_135\n      jumpi\n      0x00\n      dup1\n      revert\n    tag_135:\n      pop\n      tag_136\n      0x04\n      dup1\n      calldatasize\n      sub\n      dup2\n      add\n      swap1\n      tag_137\n      swap2\n      swap1\n      tag_78\n      jump\t// in\n    tag_137:\n      tag_138\n      jump\t// in\n    tag_136:\n      mload(0x40)\n      tag_139\n      swap2\n      swap1\n      tag_51\n      jump\t// in\n    tag_139:\n      mload(0x40)\n      dup1\n      swap2\n      sub\n      swap1\n      return\n        /* \"contract/JointAccount.sol\":1207:1253  mapping (address => uint) public withdrawLimit */\n    tag_26:\n      callvalue\n      dup1\n      iszero\n      tag_140\n      jumpi\n      0x00\n      dup1\n      revert\n    tag_140:\n      pop\n      tag_141\n      0x04\n      dup1\n      calldatasize\n      sub\n      dup2\n      add\n      swap1\n      tag_142\n      swap2\n      swap1\n      tag_78\n      jump\t// in\n    tag_142:\n      tag_143\n      jump\t// in\n    tag_141:\n      mload(0x40)\n      tag_144\n      swap2\n      swap1\n      tag_51\n      jump\t// in\n    tag_144:\n      mload(0x40)\n      dup1\n      swap2\n      sub\n      swap1\n      return\n        /* \"contract/JointAccount.sol\":5326:6867  function transferFunds(bool _isCelo, address payable _recipient, uint _amount, address _ERC20Address, address _sender, address payable _feeAddress, uint _transferFee) public payable {... */\n    tag_34:\n        /* \"contract/JointAccount.sol\":5538:5543  owner */\n      0x00\n      dup1\n      sload\n      swap1\n      0x0100\n      exp\n      swap1\n      div\n      0xffffffffffffffffffffffffffffffffffffffff\n      and\n        /* \"contract/JointAccount.sol\":5527:5543  _sender == owner */\n      0xffffffffffffffffffffffffffffffffffffffff\n      and\n        /* \"contract/JointAccount.sol\":5527:5534  _sender */\n      dup4\n        /* \"contract/JointAccount.sol\":5527:5543  _sender == owner */\n      0xffffffffffffffffffffffffffffffffffffffff\n      and\n      eq\n        /* \"contract/JointAccount.sol\":5527:5569  _sender == owner || _sender == beneficiary */\n      dup1\n      tag_146\n      jumpi\n      pop\n        /* \"contract/JointAccount.sol\":5558:5569  beneficiary */\n      0x01\n      0x00\n      swap1\n      sload\n      swap1\n      0x0100\n      exp\n      swap1\n      div\n      0xffffffffffffffffffffffffffffffffffffffff\n      and\n        /* \"contract/JointAccount.sol\":5547:5569  _sender == beneficiary */\n      0xffffffffffffffffffffffffffffffffffffffff\n      and\n        /* \"contract/JointAccount.sol\":5547:5554  _sender */\n      dup4\n        /* \"contract/JointAccount.sol\":5547:5569  _sender == beneficiary */\n      0xffffffffffffffffffffffffffffffffffffffff\n      and\n      eq\n        /* \"contract/JointAccount.sol\":5527:5569  _sender == owner || _sender == beneficiary */\n    tag_146:\n        /* \"contract/JointAccount.sol\":5519:5627  require(_sender == owner || _sender == beneficiary, \"Only the owner or the beneficiary can withdraw funds.\") */\n      tag_147\n      jumpi\n      mload(0x40)\n      0x08c379a000000000000000000000000000000000000000000000000000000000\n      dup2\n      mstore\n      0x04\n      add\n      tag_148\n      swap1\n      tag_149\n      jump\t// in\n    tag_148:\n      mload(0x40)\n      dup1\n      swap2\n      sub\n      swap1\n      revert\n    tag_147:\n        /* \"contract/JointAccount.sol\":5653:5664  beneficiary */\n      0x01\n      0x00\n      swap1\n      sload\n      swap1\n      0x0100\n      exp\n      swap1\n      div\n      0xffffffffffffffffffffffffffffffffffffffff\n      and\n        /* \"contract/JointAccount.sol\":5642:5664  _sender == beneficiary */\n      0xffffffffffffffffffffffffffffffffffffffff\n      and\n        /* \"contract/JointAccount.sol\":5642:5649  _sender */\n      dup4\n        /* \"contract/JointAccount.sol\":5642:5664  _sender == beneficiary */\n      0xffffffffffffffffffffffffffffffffffffffff\n      and\n      sub\n        /* \"contract/JointAccount.sol\":5638:5857  if (_sender == beneficiary) {... */\n      tag_150\n      jumpi\n        /* \"contract/JointAccount.sol\":5700:5713  withdrawLimit */\n      0x09\n        /* \"contract/JointAccount.sol\":5700:5728  withdrawLimit[_ERC20Address] */\n      0x00\n        /* \"contract/JointAccount.sol\":5714:5727  _ERC20Address */\n      dup6\n        /* \"contract/JointAccount.sol\":5700:5728  withdrawLimit[_ERC20Address] */\n      0xffffffffffffffffffffffffffffffffffffffff\n      and\n      0xffffffffffffffffffffffffffffffffffffffff\n      and\n      dup2\n      mstore\n      0x20\n      add\n      swap1\n      dup2\n      mstore\n      0x20\n      add\n      0x00\n      keccak256\n      sload\n        /* \"contract/JointAccount.sol\":5689:5696  _amount */\n      dup6\n        /* \"contract/JointAccount.sol\":5689:5728  _amount <= withdrawLimit[_ERC20Address] */\n      gt\n      iszero\n        /* \"contract/JointAccount.sol\":5689:5771  _amount <= withdrawLimit[_ERC20Address] || (InitiatedAt + delay) < block.timestamp */\n      dup1\n      tag_151\n      jumpi\n      pop\n        /* \"contract/JointAccount.sol\":5756:5771  block.timestamp */\n      timestamp\n        /* \"contract/JointAccount.sol\":5747:5752  delay */\n      sload(0x03)\n        /* \"contract/JointAccount.sol\":5733:5744  InitiatedAt */\n      sload(0x02)\n        /* \"contract/JointAccount.sol\":5733:5752  InitiatedAt + delay */\n      tag_152\n      swap2\n      swap1\n      tag_153\n      jump\t// in\n    tag_152:\n        /* \"contract/JointAccount.sol\":5732:5771  (InitiatedAt + delay) < block.timestamp */\n      lt\n        /* \"contract/JointAccount.sol\":5689:5771  _amount <= withdrawLimit[_ERC20Address] || (InitiatedAt + delay) < block.timestamp */\n    tag_151:\n        /* \"contract/JointAccount.sol\":5681:5845  require(_amount <= withdrawLimit[_ERC20Address] || (InitiatedAt + delay) < block.timestamp , \"The withdrawal amount exceeds the limit or delay has not passed yet.\") */\n      tag_154\n      jumpi\n      mload(0x40)\n      0x08c379a000000000000000000000000000000000000000000000000000000000\n      dup2\n      mstore\n      0x04\n      add\n      tag_155\n      swap1\n      tag_156\n      jump\t// in\n    tag_155:\n      mload(0x40)\n      dup1\n      swap2\n      sub\n      swap1\n      revert\n    tag_154:\n        /* \"contract/JointAccount.sol\":5638:5857  if (_sender == beneficiary) {... */\n    tag_150:\n        /* \"contract/JointAccount.sol\":5876:5882  frozen */\n      0x08\n      0x00\n      swap1\n      sload\n      swap1\n      0x0100\n      exp\n      swap1\n      div\n      0xff\n      and\n        /* \"contract/JointAccount.sol\":5875:5882  !frozen */\n      iszero\n        /* \"contract/JointAccount.sol\":5867:5928  require(!frozen, \"Account is frozen, cannot withdraw funds.\") */\n      tag_157\n      jumpi\n      mload(0x40)\n      0x08c379a000000000000000000000000000000000000000000000000000000000\n      dup2\n      mstore\n      0x04\n      add\n      tag_158\n      swap1\n      tag_159\n      jump\t// in\n    tag_158:\n      mload(0x40)\n      dup1\n      swap2\n      sub\n      swap1\n      revert\n    tag_157:\n        /* \"contract/JointAccount.sol\":5942:5949  _isCelo */\n      dup7\n        /* \"contract/JointAccount.sol\":5938:6860  if (_isCelo) {... */\n      iszero\n      tag_160\n      jumpi\n        /* \"contract/JointAccount.sol\":5985:6006  address(this).balance */\n      selfbalance\n        /* \"contract/JointAccount.sol\":5974:5981  _amount */\n      dup6\n        /* \"contract/JointAccount.sol\":5974:6006  _amount <= address(this).balance */\n      gt\n      iszero\n        /* \"contract/JointAccount.sol\":5966:6030  require(_amount <= address(this).balance, \"Insufficient funds.\") */\n      tag_161\n      jumpi\n      mload(0x40)\n      0x08c379a000000000000000000000000000000000000000000000000000000000\n      dup2\n      mstore\n      0x04\n      add\n      tag_162\n      swap1\n      tag_163\n      jump\t// in\n    tag_162:\n      mload(0x40)\n      dup1\n      swap2\n      sub\n      swap1\n      revert\n    tag_161:\n        /* \"contract/JointAccount.sol\":6054:6059  mutex */\n      0x06\n      0x14\n      swap1\n      sload\n      swap1\n      0x0100\n      exp\n      swap1\n      div\n      0xff\n      and\n        /* \"contract/JointAccount.sol\":6053:6059  !mutex */\n      iszero\n        /* \"contract/JointAccount.sol\":6045:6101  require(!mutex, \"The function is already in execution.\") */\n      tag_164\n      jumpi\n      mload(0x40)\n      0x08c379a000000000000000000000000000000000000000000000000000000000\n      dup2\n      mstore\n      0x04\n      add\n      tag_165\n      swap1\n      tag_166\n      jump\t// in\n    tag_165:\n      mload(0x40)\n      dup1\n      swap2\n      sub\n      swap1\n      revert\n    tag_164:\n        /* \"contract/JointAccount.sol\":6124:6128  true */\n      0x01\n        /* \"contract/JointAccount.sol\":6116:6121  mutex */\n      0x06\n      0x14\n        /* \"contract/JointAccount.sol\":6116:6128  mutex = true */\n      0x0100\n      exp\n      dup2\n      sload\n      dup2\n      0xff\n      mul\n      not\n      and\n      swap1\n      dup4\n      iszero\n      iszero\n      mul\n      or\n      swap1\n      sstore\n      pop\n        /* \"contract/JointAccount.sol\":6149:6183  _amount.mul(_transferFee).div(100) */\n      tag_167\n        /* \"contract/JointAccount.sol\":6179:6182  100 */\n      0x64\n        /* \"contract/JointAccount.sol\":6149:6174  _amount.mul(_transferFee) */\n      tag_168\n        /* \"contract/JointAccount.sol\":6161:6173  _transferFee */\n      dup4\n        /* \"contract/JointAccount.sol\":6149:6156  _amount */\n      dup9\n        /* \"contract/JointAccount.sol\":6149:6160  _amount.mul */\n      tag_169\n      swap1\n        /* \"contract/JointAccount.sol\":6149:6174  _amount.mul(_transferFee) */\n      swap2\n      swap1\n      0xffffffff\n      and\n      jump\t// in\n    tag_168:\n        /* \"contract/JointAccount.sol\":6149:6178  _amount.mul(_transferFee).div */\n      tag_170\n      swap1\n        /* \"contract/JointAccount.sol\":6149:6183  _amount.mul(_transferFee).div(100) */\n      swap2\n      swap1\n      0xffffffff\n      and\n      jump\t// in\n    tag_167:\n        /* \"contract/JointAccount.sol\":6143:6146  fee */\n      0x04\n        /* \"contract/JointAccount.sol\":6143:6183  fee = _amount.mul(_transferFee).div(100) */\n      dup2\n      swap1\n      sstore\n      pop\n        /* \"contract/JointAccount.sol\":6198:6208  _recipient */\n      dup6\n        /* \"contract/JointAccount.sol\":6198:6217  _recipient.transfer */\n      0xffffffffffffffffffffffffffffffffffffffff\n      and\n        /* \"contract/JointAccount.sol\":6198:6235  _recipient.transfer(_amount.sub(fee)) */\n      0x08fc\n        /* \"contract/JointAccount.sol\":6218:6234  _amount.sub(fee) */\n      tag_171\n        /* \"contract/JointAccount.sol\":6230:6233  fee */\n      sload(0x04)\n        /* \"contract/JointAccount.sol\":6218:6225  _amount */\n      dup9\n        /* \"contract/JointAccount.sol\":6218:6229  _amount.sub */\n      tag_172\n      swap1\n        /* \"contract/JointAccount.sol\":6218:6234  _amount.sub(fee) */\n      swap2\n      swap1\n      0xffffffff\n      and\n      jump\t// in\n    tag_171:\n        /* \"contract/JointAccount.sol\":6198:6235  _recipient.transfer(_amount.sub(fee)) */\n      swap1\n      dup2\n      iszero\n      mul\n      swap1\n      mload(0x40)\n      0x00\n      mload(0x40)\n      dup1\n      dup4\n      sub\n      dup2\n      dup6\n      dup9\n      dup9\n      call\n      swap4\n      pop\n      pop\n      pop\n      pop\n      iszero\n      dup1\n      iszero\n      tag_174\n      jumpi\n      returndatasize\n      0x00\n      dup1\n      returndatacopy\n      revert(0x00, returndatasize)\n    tag_174:\n      pop\n        /* \"contract/JointAccount.sol\":6250:6261  _feeAddress */\n      dup2\n        /* \"contract/JointAccount.sol\":6250:6270  _feeAddress.transfer */\n      0xffffffffffffffffffffffffffffffffffffffff\n      and\n        /* \"contract/JointAccount.sol\":6250:6275  _feeAddress.transfer(fee) */\n      0x08fc\n        /* \"contract/JointAccount.sol\":6271:6274  fee */\n      sload(0x04)\n        /* \"contract/JointAccount.sol\":6250:6275  _feeAddress.transfer(fee) */\n      swap1\n      dup2\n      iszero\n      mul\n      swap1\n      mload(0x40)\n      0x00\n      mload(0x40)\n      dup1\n      dup4\n      sub\n      dup2\n      dup6\n      dup9\n      dup9\n      call\n      swap4\n      pop\n      pop\n      pop\n      pop\n      iszero\n      dup1\n      iszero\n      tag_176\n      jumpi\n      returndatasize\n      0x00\n      dup1\n      returndatacopy\n      revert(0x00, returndatasize)\n    tag_176:\n      pop\n        /* \"contract/JointAccount.sol\":6322:6329  _amount */\n      dup5\n        /* \"contract/JointAccount.sol\":6290:6303  withdrawLimit */\n      0x09\n        /* \"contract/JointAccount.sol\":6290:6318  withdrawLimit[_ERC20Address] */\n      0x00\n        /* \"contract/JointAccount.sol\":6304:6317  _ERC20Address */\n      dup7\n        /* \"contract/JointAccount.sol\":6290:6318  withdrawLimit[_ERC20Address] */\n      0xffffffffffffffffffffffffffffffffffffffff\n      and\n      0xffffffffffffffffffffffffffffffffffffffff\n      and\n      dup2\n      mstore\n      0x20\n      add\n      swap1\n      dup2\n      mstore\n      0x20\n      add\n      0x00\n      keccak256\n      0x00\n        /* \"contract/JointAccount.sol\":6290:6329  withdrawLimit[_ERC20Address] -= _amount */\n      dup3\n      dup3\n      sload\n      tag_177\n      swap2\n      swap1\n      tag_178\n      jump\t// in\n    tag_177:\n      swap3\n      pop\n      pop\n      dup2\n      swap1\n      sstore\n      pop\n        /* \"contract/JointAccount.sol\":6352:6357  false */\n      0x00\n        /* \"contract/JointAccount.sol\":6344:6349  mutex */\n      0x06\n      0x14\n        /* \"contract/JointAccount.sol\":6344:6357  mutex = false */\n      0x0100\n      exp\n      dup2\n      sload\n      dup2\n      0xff\n      mul\n      not\n      and\n      swap1\n      dup4\n      iszero\n      iszero\n      mul\n      or\n      swap1\n      sstore\n      pop\n        /* \"contract/JointAccount.sol\":5938:6860  if (_isCelo) {... */\n      jump(tag_179)\n    tag_160:\n        /* \"contract/JointAccount.sol\":6405:6418  _ERC20Address */\n      dup4\n        /* \"contract/JointAccount.sol\":6390:6395  ERC20 */\n      0x06\n      0x00\n        /* \"contract/JointAccount.sol\":6390:6419  ERC20 = IERC20(_ERC20Address) */\n      0x0100\n      exp\n      dup2\n      sload\n      dup2\n      0xffffffffffffffffffffffffffffffffffffffff\n      mul\n      not\n      and\n      swap1\n      dup4\n      0xffffffffffffffffffffffffffffffffffffffff\n      and\n      mul\n      or\n      swap1\n      sstore\n      pop\n        /* \"contract/JointAccount.sol\":6453:6458  ERC20 */\n      0x06\n      0x00\n      swap1\n      sload\n      swap1\n      0x0100\n      exp\n      swap1\n      div\n      0xffffffffffffffffffffffffffffffffffffffff\n      and\n        /* \"contract/JointAccount.sol\":6453:6468  ERC20.balanceOf */\n      0xffffffffffffffffffffffffffffffffffffffff\n      and\n      0x70a08231\n        /* \"contract/JointAccount.sol\":6477:6481  this */\n      address\n        /* \"contract/JointAccount.sol\":6453:6483  ERC20.balanceOf(address(this)) */\n      mload(0x40)\n      dup3\n      0xffffffff\n      and\n      0xe0\n      shl\n      dup2\n      mstore\n      0x04\n      add\n      tag_180\n      swap2\n      swap1\n      tag_56\n      jump\t// in\n    tag_180:\n      0x20\n      mload(0x40)\n      dup1\n      dup4\n      sub\n      dup2\n      dup7\n      gas\n      staticcall\n      iszero\n      dup1\n      iszero\n      tag_182\n      jumpi\n      returndatasize\n      0x00\n      dup1\n      returndatacopy\n      revert(0x00, returndatasize)\n    tag_182:\n      pop\n      pop\n      pop\n      pop\n      mload(0x40)\n      returndatasize\n      not(0x1f)\n      0x1f\n      dup3\n      add\n      and\n      dup3\n      add\n      dup1\n      0x40\n      mstore\n      pop\n      dup2\n      add\n      swap1\n      tag_183\n      swap2\n      swap1\n      tag_184\n      jump\t// in\n    tag_183:\n        /* \"contract/JointAccount.sol\":6442:6449  _amount */\n      dup6\n        /* \"contract/JointAccount.sol\":6442:6483  _amount <= ERC20.balanceOf(address(this)) */\n      gt\n      iszero\n        /* \"contract/JointAccount.sol\":6434:6507  require(_amount <= ERC20.balanceOf(address(this)), \"Insufficient funds.\") */\n      tag_185\n      jumpi\n      mload(0x40)\n      0x08c379a000000000000000000000000000000000000000000000000000000000\n      dup2\n      mstore\n      0x04\n      add\n      tag_186\n      swap1\n      tag_163\n      jump\t// in\n    tag_186:\n      mload(0x40)\n      dup1\n      swap2\n      sub\n      swap1\n      revert\n    tag_185:\n        /* \"contract/JointAccount.sol\":6531:6536  mutex */\n      0x06\n      0x14\n      swap1\n      sload\n      swap1\n      0x0100\n      exp\n      swap1\n      div\n      0xff\n      and\n        /* \"contract/JointAccount.sol\":6530:6536  !mutex */\n      iszero\n        /* \"contract/JointAccount.sol\":6522:6578  require(!mutex, \"The function is already in execution.\") */\n      tag_187\n      jumpi\n      mload(0x40)\n      0x08c379a000000000000000000000000000000000000000000000000000000000\n      dup2\n      mstore\n      0x04\n      add\n      tag_188\n      swap1\n      tag_166\n      jump\t// in\n    tag_188:\n      mload(0x40)\n      dup1\n      swap2\n      sub\n      swap1\n      revert\n    tag_187:\n        /* \"contract/JointAccount.sol\":6601:6605  true */\n      0x01\n        /* \"contract/JointAccount.sol\":6593:6598  mutex */\n      0x06\n      0x14\n        /* \"contract/JointAccount.sol\":6593:6605  mutex = true */\n      0x0100\n      exp\n      dup2\n      sload\n      dup2\n      0xff\n      mul\n      not\n      and\n      swap1\n      dup4\n      iszero\n      iszero\n      mul\n      or\n      swap1\n      sstore\n      pop\n        /* \"contract/JointAccount.sol\":6626:6660  _amount.mul(_transferFee).div(100) */\n      tag_189\n        /* \"contract/JointAccount.sol\":6656:6659  100 */\n      0x64\n        /* \"contract/JointAccount.sol\":6626:6651  _amount.mul(_transferFee) */\n      tag_190\n        /* \"contract/JointAccount.sol\":6638:6650  _transferFee */\n      dup4\n        /* \"contract/JointAccount.sol\":6626:6633  _amount */\n      dup9\n        /* \"contract/JointAccount.sol\":6626:6637  _amount.mul */\n      tag_169\n      swap1\n        /* \"contract/JointAccount.sol\":6626:6651  _amount.mul(_transferFee) */\n      swap2\n      swap1\n      0xffffffff\n      and\n      jump\t// in\n    tag_190:\n        /* \"contract/JointAccount.sol\":6626:6655  _amount.mul(_transferFee).div */\n      tag_170\n      swap1\n        /* \"contract/JointAccount.sol\":6626:6660  _amount.mul(_transferFee).div(100) */\n      swap2\n      swap1\n      0xffffffff\n      and\n      jump\t// in\n    tag_189:\n        /* \"contract/JointAccount.sol\":6620:6623  fee */\n      0x04\n        /* \"contract/JointAccount.sol\":6620:6660  fee = _amount.mul(_transferFee).div(100) */\n      dup2\n      swap1\n      sstore\n      pop\n        /* \"contract/JointAccount.sol\":6675:6680  ERC20 */\n      0x06\n      0x00\n      swap1\n      sload\n      swap1\n      0x0100\n      exp\n      swap1\n      div\n      0xffffffffffffffffffffffffffffffffffffffff\n      and\n        /* \"contract/JointAccount.sol\":6675:6689  ERC20.transfer */\n      0xffffffffffffffffffffffffffffffffffffffff\n      and\n      0xa9059cbb\n        /* \"contract/JointAccount.sol\":6690:6700  _recipient */\n      dup8\n        /* \"contract/JointAccount.sol\":6702:6718  _amount.sub(fee) */\n      tag_191\n        /* \"contract/JointAccount.sol\":6714:6717  fee */\n      sload(0x04)\n        /* \"contract/JointAccount.sol\":6702:6709  _amount */\n      dup10\n        /* \"contract/JointAccount.sol\":6702:6713  _amount.sub */\n      tag_172\n      swap1\n        /* \"contract/JointAccount.sol\":6702:6718  _amount.sub(fee) */\n      swap2\n      swap1\n      0xffffffff\n      and\n      jump\t// in\n    tag_191:\n        /* \"contract/JointAccount.sol\":6675:6719  ERC20.transfer(_recipient, _amount.sub(fee)) */\n      mload(0x40)\n      dup4\n      0xffffffff\n      and\n      0xe0\n      shl\n      dup2\n      mstore\n      0x04\n      add\n      tag_192\n      swap3\n      swap2\n      swap1\n      tag_193\n      jump\t// in\n    tag_192:\n      0x20\n      mload(0x40)\n      dup1\n      dup4\n      sub\n      dup2\n      0x00\n      dup8\n      gas\n      call\n      iszero\n      dup1\n      iszero\n      tag_195\n      jumpi\n      returndatasize\n      0x00\n      dup1\n      returndatacopy\n      revert(0x00, returndatasize)\n    tag_195:\n      pop\n      pop\n      pop\n      pop\n      mload(0x40)\n      returndatasize\n      not(0x1f)\n      0x1f\n      dup3\n      add\n      and\n      dup3\n      add\n      dup1\n      0x40\n      mstore\n      pop\n      dup2\n      add\n      swap1\n      tag_196\n      swap2\n      swap1\n      tag_197\n      jump\t// in\n    tag_196:\n      pop\n        /* \"contract/JointAccount.sol\":6734:6739  ERC20 */\n      0x06\n      0x00\n      swap1\n      sload\n      swap1\n      0x0100\n      exp\n      swap1\n      div\n      0xffffffffffffffffffffffffffffffffffffffff\n      and\n        /* \"contract/JointAccount.sol\":6734:6748  ERC20.transfer */\n      0xffffffffffffffffffffffffffffffffffffffff\n      and\n      0xa9059cbb\n        /* \"contract/JointAccount.sol\":6749:6760  _feeAddress */\n      dup4\n        /* \"contract/JointAccount.sol\":6762:6765  fee */\n      sload(0x04)\n        /* \"contract/JointAccount.sol\":6734:6766  ERC20.transfer(_feeAddress, fee) */\n      mload(0x40)\n      dup4\n      0xffffffff\n      and\n      0xe0\n      shl\n      dup2\n      mstore\n      0x04\n      add\n      tag_198\n      swap3\n      swap2\n      swap1\n      tag_193\n      jump\t// in\n    tag_198:\n      0x20\n      mload(0x40)\n      dup1\n      dup4\n      sub\n      dup2\n      0x00\n      dup8\n      gas\n      call\n      iszero\n      dup1\n      iszero\n      tag_200\n      jumpi\n      returndatasize\n      0x00\n      dup1\n      returndatacopy\n      revert(0x00, returndatasize)\n    tag_200:\n      pop\n      pop\n      pop\n      pop\n      mload(0x40)\n      returndatasize\n      not(0x1f)\n      0x1f\n      dup3\n      add\n      and\n      dup3\n      add\n      dup1\n      0x40\n      mstore\n      pop\n      dup2\n      add\n      swap1\n      tag_201\n      swap2\n      swap1\n      tag_197\n      jump\t// in\n    tag_201:\n      pop\n        /* \"contract/JointAccount.sol\":6813:6820  _amount */\n      dup5\n        /* \"contract/JointAccount.sol\":6781:6794  withdrawLimit */\n      0x09\n        /* \"contract/JointAccount.sol\":6781:6809  withdrawLimit[_ERC20Address] */\n      0x00\n        /* \"contract/JointAccount.sol\":6795:6808  _ERC20Address */\n      dup7\n        /* \"contract/JointAccount.sol\":6781:6809  withdrawLimit[_ERC20Address] */\n      0xffffffffffffffffffffffffffffffffffffffff\n      and\n      0xffffffffffffffffffffffffffffffffffffffff\n      and\n      dup2\n      mstore\n      0x20\n      add\n      swap1\n      dup2\n      mstore\n      0x20\n      add\n      0x00\n      keccak256\n      0x00\n        /* \"contract/JointAccount.sol\":6781:6820  withdrawLimit[_ERC20Address] -= _amount */\n      dup3\n      dup3\n      sload\n      tag_202\n      swap2\n      swap1\n      tag_178\n      jump\t// in\n    tag_202:\n      swap3\n      pop\n      pop\n      dup2\n      swap1\n      sstore\n      pop\n        /* \"contract/JointAccount.sol\":6843:6848  false */\n      0x00\n        /* \"contract/JointAccount.sol\":6835:6840  mutex */\n      0x06\n      0x14\n        /* \"contract/JointAccount.sol\":6835:6848  mutex = false */\n      0x0100\n      exp\n      dup2\n      sload\n      dup2\n      0xff\n      mul\n      not\n      and\n      swap1\n      dup4\n      iszero\n      iszero\n      mul\n      or\n      swap1\n      sstore\n      pop\n        /* \"contract/JointAccount.sol\":5938:6860  if (_isCelo) {... */\n    tag_179:\n        /* \"contract/JointAccount.sol\":5326:6867  function transferFunds(bool _isCelo, address payable _recipient, uint _amount, address _ERC20Address, address _sender, address payable _feeAddress, uint _transferFee) public payable {... */\n      pop\n      pop\n      pop\n      pop\n      pop\n      pop\n      pop\n      jump\t// out\n        /* \"contract/JointAccount.sol\":979:1005  bool public frozen = false */\n    tag_37:\n      0x08\n      0x00\n      swap1\n      sload\n      swap1\n      0x0100\n      exp\n      swap1\n      div\n      0xff\n      and\n      dup2\n      jump\t// out\n        /* \"contract/JointAccount.sol\":1427:1821  function setBeneficiary(address payable _beneficiary, uint _delay, address _sender) public {... */\n    tag_44:\n        /* \"contract/JointAccount.sol\":1546:1553  _sender */\n      dup1\n        /* \"contract/JointAccount.sol\":1537:1553  owner == _sender */\n      0xffffffffffffffffffffffffffffffffffffffff\n      and\n        /* \"contract/JointAccount.sol\":1537:1542  owner */\n      0x00\n      dup1\n      sload\n      swap1\n      0x0100\n      exp\n      swap1\n      div\n      0xffffffffffffffffffffffffffffffffffffffff\n      and\n        /* \"contract/JointAccount.sol\":1537:1553  owner == _sender */\n      0xffffffffffffffffffffffffffffffffffffffff\n      and\n      eq\n        /* \"contract/JointAccount.sol\":1529:1597  require(owner == _sender, \"Only the owner can set the beneficiary.\") */\n      tag_204\n      jumpi\n      mload(0x40)\n      0x08c379a000000000000000000000000000000000000000000000000000000000\n      dup2\n      mstore\n      0x04\n      add\n      tag_205\n      swap1\n      tag_206\n      jump\t// in\n    tag_205:\n      mload(0x40)\n      dup1\n      swap2\n      sub\n      swap1\n      revert\n    tag_204:\n        /* \"contract/JointAccount.sol\":1617:1622  mutex */\n      0x06\n      0x14\n      swap1\n      sload\n      swap1\n      0x0100\n      exp\n      swap1\n      div\n      0xff\n      and\n        /* \"contract/JointAccount.sol\":1616:1622  !mutex */\n      iszero\n        /* \"contract/JointAccount.sol\":1608:1664  require(!mutex, \"The function is already in execution.\") */\n      tag_207\n      jumpi\n      mload(0x40)\n      0x08c379a000000000000000000000000000000000000000000000000000000000\n      dup2\n      mstore\n      0x04\n      add\n      tag_208\n      swap1\n      tag_166\n      jump\t// in\n    tag_208:\n      mload(0x40)\n      dup1\n      swap2\n      sub\n      swap1\n      revert\n    tag_207:\n        /* \"contract/JointAccount.sol\":1683:1687  true */\n      0x01\n        /* \"contract/JointAccount.sol\":1675:1680  mutex */\n      0x06\n      0x14\n        /* \"contract/JointAccount.sol\":1675:1687  mutex = true */\n      0x0100\n      exp\n      dup2\n      sload\n      dup2\n      0xff\n      mul\n      not\n      and\n      swap1\n      dup4\n      iszero\n      iszero\n      mul\n      or\n      swap1\n      sstore\n      pop\n        /* \"contract/JointAccount.sol\":1712:1724  _beneficiary */\n      dup3\n        /* \"contract/JointAccount.sol\":1698:1709  beneficiary */\n      0x01\n      0x00\n        /* \"contract/JointAccount.sol\":1698:1724  beneficiary = _beneficiary */\n      0x0100\n      exp\n      dup2\n      sload\n      dup2\n      0xffffffffffffffffffffffffffffffffffffffff\n      mul\n      not\n      and\n      swap1\n      dup4\n      0xffffffffffffffffffffffffffffffffffffffff\n      and\n      mul\n      or\n      swap1\n      sstore\n      pop\n        /* \"contract/JointAccount.sol\":1743:1749  _delay */\n      dup2\n        /* \"contract/JointAccount.sol\":1735:1740  delay */\n      0x03\n        /* \"contract/JointAccount.sol\":1735:1749  delay = _delay */\n      dup2\n      swap1\n      sstore\n      pop\n        /* \"contract/JointAccount.sol\":1768:1773  false */\n      0x00\n        /* \"contract/JointAccount.sol\":1760:1765  mutex */\n      0x06\n      0x14\n        /* \"contract/JointAccount.sol\":1760:1773  mutex = false */\n      0x0100\n      exp\n      dup2\n      sload\n      dup2\n      0xff\n      mul\n      not\n      and\n      swap1\n      dup4\n      iszero\n      iszero\n      mul\n      or\n      swap1\n      sstore\n      pop\n        /* \"contract/JointAccount.sol\":1798:1813  block.timestamp */\n      timestamp\n        /* \"contract/JointAccount.sol\":1784:1795  InitiatedAt */\n      0x02\n        /* \"contract/JointAccount.sol\":1784:1813  InitiatedAt = block.timestamp */\n      dup2\n      swap1\n      sstore\n      pop\n        /* \"contract/JointAccount.sol\":1427:1821  function setBeneficiary(address payable _beneficiary, uint _delay, address _sender) public {... */\n      pop\n      pop\n      pop\n      jump\t// out\n        /* \"contract/JointAccount.sol\":6923:7164  function balanceOf(bool _isCelo, address _ERC20Address) public view returns(uint) {... */\n    tag_49:\n        /* \"contract/JointAccount.sol\":6999:7003  uint */\n      0x00\n        /* \"contract/JointAccount.sol\":7016:7023  _isCelo */\n      dup3\n        /* \"contract/JointAccount.sol\":7012:7157  if (_isCelo) {... */\n      iszero\n      tag_210\n      jumpi\n        /* \"contract/JointAccount.sol\":7043:7064  address(this).balance */\n      selfbalance\n        /* \"contract/JointAccount.sol\":7036:7064  return address(this).balance */\n      swap1\n      pop\n      jump(tag_209)\n        /* \"contract/JointAccount.sol\":7012:7157  if (_isCelo) {... */\n    tag_210:\n        /* \"contract/JointAccount.sol\":7103:7116  _ERC20Address */\n      dup2\n        /* \"contract/JointAccount.sol\":7096:7127  IERC20(_ERC20Address).balanceOf */\n      0xffffffffffffffffffffffffffffffffffffffff\n      and\n      0x70a08231\n        /* \"contract/JointAccount.sol\":7136:7140  this */\n      address\n        /* \"contract/JointAccount.sol\":7096:7142  IERC20(_ERC20Address).balanceOf(address(this)) */\n      mload(0x40)\n      dup3\n      0xffffffff\n      and\n      0xe0\n      shl\n      dup2\n      mstore\n      0x04\n      add\n      tag_212\n      swap2\n      swap1\n      tag_56\n      jump\t// in\n    tag_212:\n      0x20\n      mload(0x40)\n      dup1\n      dup4\n      sub\n      dup2\n      dup7\n      gas\n      staticcall\n      iszero\n      dup1\n      iszero\n      tag_214\n      jumpi\n      returndatasize\n      0x00\n      dup1\n      returndatacopy\n      revert(0x00, returndatasize)\n    tag_214:\n      pop\n      pop\n      pop\n      pop\n      mload(0x40)\n      returndatasize\n      not(0x1f)\n      0x1f\n      dup3\n      add\n      and\n      dup3\n      add\n      dup1\n      0x40\n      mstore\n      pop\n      dup2\n      add\n      swap1\n      tag_215\n      swap2\n      swap1\n      tag_184\n      jump\t// in\n    tag_215:\n        /* \"contract/JointAccount.sol\":7089:7142  return IERC20(_ERC20Address).balanceOf(address(this)) */\n      swap1\n      pop\n        /* \"contract/JointAccount.sol\":6923:7164  function balanceOf(bool _isCelo, address _ERC20Address) public view returns(uint) {... */\n    tag_209:\n      swap3\n      swap2\n      pop\n      pop\n      jump\t// out\n        /* \"contract/JointAccount.sol\":7376:7470  function returnBeneficiary() public view returns(address){... */\n    tag_54:\n        /* \"contract/JointAccount.sol\":7425:7432  address */\n      0x00\n        /* \"contract/JointAccount.sol\":7451:7462  beneficiary */\n      0x01\n      0x00\n      swap1\n      sload\n      swap1\n      0x0100\n      exp\n      swap1\n      div\n      0xffffffffffffffffffffffffffffffffffffffff\n      and\n        /* \"contract/JointAccount.sol\":7444:7462  return beneficiary */\n      swap1\n      pop\n        /* \"contract/JointAccount.sol\":7376:7470  function returnBeneficiary() public view returns(address){... */\n      swap1\n      jump\t// out\n        /* \"contract/JointAccount.sol\":425:448  uint public InitiatedAt */\n    tag_59:\n      sload(0x02)\n      dup2\n      jump\t// out\n        /* \"contract/JointAccount.sol\":2630:2892  function approve(uint _amount, address _ERC20Address, address payable _contract) public payable {... */\n    tag_64:\n        /* \"contract/JointAccount.sol\":2755:2756  0 */\n      0x00\n        /* \"contract/JointAccount.sol\":2745:2752  _amount */\n      dup4\n        /* \"contract/JointAccount.sol\":2745:2756  _amount > 0 */\n      gt\n        /* \"contract/JointAccount.sol\":2737:2786  require(_amount > 0, \"Cannot deposit 0 or less.\") */\n      tag_218\n      jumpi\n      mload(0x40)\n      0x08c379a000000000000000000000000000000000000000000000000000000000\n      dup2\n      mstore\n      0x04\n      add\n      tag_219\n      swap1\n      tag_220\n      jump\t// in\n    tag_219:\n      mload(0x40)\n      dup1\n      swap2\n      sub\n      swap1\n      revert\n    tag_218:\n        /* \"contract/JointAccount.sol\":2797:2810  IERC20 token_ */\n      0x00\n        /* \"contract/JointAccount.sol\":2820:2833  _ERC20Address */\n      dup3\n        /* \"contract/JointAccount.sol\":2797:2834  IERC20 token_ = IERC20(_ERC20Address) */\n      swap1\n      pop\n        /* \"contract/JointAccount.sol\":2845:2851  token_ */\n      dup1\n        /* \"contract/JointAccount.sol\":2845:2859  token_.approve */\n      0xffffffffffffffffffffffffffffffffffffffff\n      and\n      0x095ea7b3\n        /* \"contract/JointAccount.sol\":2860:2869  _contract */\n      dup4\n        /* \"contract/JointAccount.sol\":2871:2878  _amount */\n      dup7\n        /* \"contract/JointAccount.sol\":2845:2879  token_.approve(_contract, _amount) */\n      mload(0x40)\n      dup4\n      0xffffffff\n      and\n      0xe0\n      shl\n      dup2\n      mstore\n      0x04\n      add\n      tag_221\n      swap3\n      swap2\n      swap1\n      tag_193\n      jump\t// in\n    tag_221:\n      0x20\n      mload(0x40)\n      dup1\n      dup4\n      sub\n      dup2\n      0x00\n      dup8\n      gas\n      call\n      iszero\n      dup1\n      iszero\n      tag_223\n      jumpi\n      returndatasize\n      0x00\n      dup1\n      returndatacopy\n      revert(0x00, returndatasize)\n    tag_223:\n      pop\n      pop\n      pop\n      pop\n      mload(0x40)\n      returndatasize\n      not(0x1f)\n      0x1f\n      dup3\n      add\n      and\n      dup3\n      add\n      dup1\n      0x40\n      mstore\n      pop\n      dup2\n      add\n      swap1\n      tag_224\n      swap2\n      swap1\n      tag_197\n      jump\t// in\n    tag_224:\n      pop\n        /* \"contract/JointAccount.sol\":2726:2892  {... */\n      pop\n        /* \"contract/JointAccount.sol\":2630:2892  function approve(uint _amount, address _ERC20Address, address payable _contract) public payable {... */\n      pop\n      pop\n      pop\n      jump\t// out\n        /* \"contract/JointAccount.sol\":1900:2116  function setWithdrawLimit(address _sender, uint _amount, address _ERC20Address) public {... */\n    tag_69:\n        /* \"contract/JointAccount.sol\":2013:2018  owner */\n      0x00\n      dup1\n      sload\n      swap1\n      0x0100\n      exp\n      swap1\n      div\n      0xffffffffffffffffffffffffffffffffffffffff\n      and\n        /* \"contract/JointAccount.sol\":2002:2018  _sender == owner */\n      0xffffffffffffffffffffffffffffffffffffffff\n      and\n        /* \"contract/JointAccount.sol\":2002:2009  _sender */\n      dup4\n        /* \"contract/JointAccount.sol\":2002:2018  _sender == owner */\n      0xffffffffffffffffffffffffffffffffffffffff\n      and\n      eq\n        /* \"contract/JointAccount.sol\":1994:2067  require(_sender == owner, \"Only the owner can set the withdrawal limit.\") */\n      tag_226\n      jumpi\n      mload(0x40)\n      0x08c379a000000000000000000000000000000000000000000000000000000000\n      dup2\n      mstore\n      0x04\n      add\n      tag_227\n      swap1\n      tag_228\n      jump\t// in\n    tag_227:\n      mload(0x40)\n      dup1\n      swap2\n      sub\n      swap1\n      revert\n    tag_226:\n        /* \"contract/JointAccount.sol\":2105:2112  _amount */\n      dup2\n        /* \"contract/JointAccount.sol\":2074:2087  withdrawLimit */\n      0x09\n        /* \"contract/JointAccount.sol\":2074:2102  withdrawLimit[_ERC20Address] */\n      0x00\n        /* \"contract/JointAccount.sol\":2088:2101  _ERC20Address */\n      dup4\n        /* \"contract/JointAccount.sol\":2074:2102  withdrawLimit[_ERC20Address] */\n      0xffffffffffffffffffffffffffffffffffffffff\n      and\n      0xffffffffffffffffffffffffffffffffffffffff\n      and\n      dup2\n      mstore\n      0x20\n      add\n      swap1\n      dup2\n      mstore\n      0x20\n      add\n      0x00\n      keccak256\n        /* \"contract/JointAccount.sol\":2074:2112  withdrawLimit[_ERC20Address] = _amount */\n      dup2\n      swap1\n      sstore\n      pop\n        /* \"contract/JointAccount.sol\":1900:2116  function setWithdrawLimit(address _sender, uint _amount, address _ERC20Address) public {... */\n      pop\n      pop\n      pop\n      jump\t// out\n        /* \"contract/JointAccount.sol\":340:374  address payable public beneficiary */\n    tag_72:\n      0x01\n      0x00\n      swap1\n      sload\n      swap1\n      0x0100\n      exp\n      swap1\n      div\n      0xffffffffffffffffffffffffffffffffffffffff\n      and\n      dup2\n      jump\t// out\n        /* \"contract/JointAccount.sol\":2395:2583  function unfreeze(address _sender) public {... */\n    tag_79:\n        /* \"contract/JointAccount.sol\":2467:2472  owner */\n      0x00\n      dup1\n      sload\n      swap1\n      0x0100\n      exp\n      swap1\n      div\n      0xffffffffffffffffffffffffffffffffffffffff\n      and\n        /* \"contract/JointAccount.sol\":2456:2472  _sender == owner */\n      0xffffffffffffffffffffffffffffffffffffffff\n      and\n        /* \"contract/JointAccount.sol\":2456:2463  _sender */\n      dup2\n        /* \"contract/JointAccount.sol\":2456:2472  _sender == owner */\n      0xffffffffffffffffffffffffffffffffffffffff\n      and\n      eq\n        /* \"contract/JointAccount.sol\":2448:2517  require(_sender == owner, \"Only the owner can unfreeze the account.\") */\n      tag_230\n      jumpi\n      mload(0x40)\n      0x08c379a000000000000000000000000000000000000000000000000000000000\n      dup2\n      mstore\n      0x04\n      add\n      tag_231\n      swap1\n      tag_232\n      jump\t// in\n    tag_231:\n      mload(0x40)\n      dup1\n      swap2\n      sub\n      swap1\n      revert\n    tag_230:\n        /* \"contract/JointAccount.sol\":2537:2542  false */\n      0x00\n        /* \"contract/JointAccount.sol\":2528:2534  frozen */\n      0x08\n      0x00\n        /* \"contract/JointAccount.sol\":2528:2542  frozen = false */\n      0x0100\n      exp\n      dup2\n      sload\n      dup2\n      0xff\n      mul\n      not\n      and\n      swap1\n      dup4\n      iszero\n      iszero\n      mul\n      or\n      swap1\n      sstore\n      pop\n        /* \"contract/JointAccount.sol\":2558:2575  Unfreeze(_sender) */\n      0xca5069937e68fd197927055037f59d7c90bf75ac104e6e375539ef480c3ad6ee\n        /* \"contract/JointAccount.sol\":2567:2574  _sender */\n      dup2\n        /* \"contract/JointAccount.sol\":2558:2575  Unfreeze(_sender) */\n      mload(0x40)\n      tag_233\n      swap2\n      swap1\n      tag_56\n      jump\t// in\n    tag_233:\n      mload(0x40)\n      dup1\n      swap2\n      sub\n      swap1\n      log1\n        /* \"contract/JointAccount.sol\":2395:2583  function unfreeze(address _sender) public {... */\n      pop\n      jump\t// out\n        /* \"contract/JointAccount.sol\":7882:7972  function returnInitiateAt() public view returns(uint){... */\n    tag_82:\n        /* \"contract/JointAccount.sol\":7930:7934  uint */\n      0x00\n        /* \"contract/JointAccount.sol\":7953:7964  InitiatedAt */\n      sload(0x02)\n        /* \"contract/JointAccount.sol\":7946:7964  return InitiatedAt */\n      swap1\n      pop\n        /* \"contract/JointAccount.sol\":7882:7972  function returnInitiateAt() public view returns(uint){... */\n      swap1\n      jump\t// out\n        /* \"contract/JointAccount.sol\":556:573  uint public delay */\n    tag_86:\n      sload(0x03)\n      dup2\n      jump\t// out\n        /* \"contract/JointAccount.sol\":667:700  address payable public ERC20Token */\n    tag_90:\n      0x05\n      0x00\n      swap1\n      sload\n      swap1\n      0x0100\n      exp\n      swap1\n      div\n      0xffffffffffffffffffffffffffffffffffffffff\n      and\n      dup2\n      jump\t// out\n        /* \"contract/JointAccount.sol\":3638:5279  function withdraw(bool _isCelo, uint _amount, address _ERC20Address, address _sender, address payable _feeAddress, uint _transferFee) public payable {... */\n    tag_95:\n        /* \"contract/JointAccount.sol\":3817:3822  owner */\n      0x00\n      dup1\n      sload\n      swap1\n      0x0100\n      exp\n      swap1\n      div\n      0xffffffffffffffffffffffffffffffffffffffff\n      and\n        /* \"contract/JointAccount.sol\":3806:3822  _sender == owner */\n      0xffffffffffffffffffffffffffffffffffffffff\n      and\n        /* \"contract/JointAccount.sol\":3806:3813  _sender */\n      dup4\n        /* \"contract/JointAccount.sol\":3806:3822  _sender == owner */\n      0xffffffffffffffffffffffffffffffffffffffff\n      and\n      eq\n        /* \"contract/JointAccount.sol\":3806:3848  _sender == owner || _sender == beneficiary */\n      dup1\n      tag_236\n      jumpi\n      pop\n        /* \"contract/JointAccount.sol\":3837:3848  beneficiary */\n      0x01\n      0x00\n      swap1\n      sload\n      swap1\n      0x0100\n      exp\n      swap1\n      div\n      0xffffffffffffffffffffffffffffffffffffffff\n      and\n        /* \"contract/JointAccount.sol\":3826:3848  _sender == beneficiary */\n      0xffffffffffffffffffffffffffffffffffffffff\n      and\n        /* \"contract/JointAccount.sol\":3826:3833  _sender */\n      dup4\n        /* \"contract/JointAccount.sol\":3826:3848  _sender == beneficiary */\n      0xffffffffffffffffffffffffffffffffffffffff\n      and\n      eq\n        /* \"contract/JointAccount.sol\":3806:3848  _sender == owner || _sender == beneficiary */\n    tag_236:\n        /* \"contract/JointAccount.sol\":3798:3906  require(_sender == owner || _sender == beneficiary, \"Only the owner or the beneficiary can withdraw funds.\") */\n      tag_237\n      jumpi\n      mload(0x40)\n      0x08c379a000000000000000000000000000000000000000000000000000000000\n      dup2\n      mstore\n      0x04\n      add\n      tag_238\n      swap1\n      tag_149\n      jump\t// in\n    tag_238:\n      mload(0x40)\n      dup1\n      swap2\n      sub\n      swap1\n      revert\n    tag_237:\n        /* \"contract/JointAccount.sol\":3932:3943  beneficiary */\n      0x01\n      0x00\n      swap1\n      sload\n      swap1\n      0x0100\n      exp\n      swap1\n      div\n      0xffffffffffffffffffffffffffffffffffffffff\n      and\n        /* \"contract/JointAccount.sol\":3921:3943  _sender == beneficiary */\n      0xffffffffffffffffffffffffffffffffffffffff\n      and\n        /* \"contract/JointAccount.sol\":3921:3928  _sender */\n      dup4\n        /* \"contract/JointAccount.sol\":3921:3943  _sender == beneficiary */\n      0xffffffffffffffffffffffffffffffffffffffff\n      and\n      sub\n        /* \"contract/JointAccount.sol\":3917:4135  if (_sender == beneficiary) {... */\n      tag_239\n      jumpi\n        /* \"contract/JointAccount.sol\":3979:3992  withdrawLimit */\n      0x09\n        /* \"contract/JointAccount.sol\":3979:4007  withdrawLimit[_ERC20Address] */\n      0x00\n        /* \"contract/JointAccount.sol\":3993:4006  _ERC20Address */\n      dup6\n        /* \"contract/JointAccount.sol\":3979:4007  withdrawLimit[_ERC20Address] */\n      0xffffffffffffffffffffffffffffffffffffffff\n      and\n      0xffffffffffffffffffffffffffffffffffffffff\n      and\n      dup2\n      mstore\n      0x20\n      add\n      swap1\n      dup2\n      mstore\n      0x20\n      add\n      0x00\n      keccak256\n      sload\n        /* \"contract/JointAccount.sol\":3968:3975  _amount */\n      dup6\n        /* \"contract/JointAccount.sol\":3968:4007  _amount <= withdrawLimit[_ERC20Address] */\n      gt\n      iszero\n        /* \"contract/JointAccount.sol\":3968:4050  _amount <= withdrawLimit[_ERC20Address] || (InitiatedAt + delay) < block.timestamp */\n      dup1\n      tag_240\n      jumpi\n      pop\n        /* \"contract/JointAccount.sol\":4035:4050  block.timestamp */\n      timestamp\n        /* \"contract/JointAccount.sol\":4026:4031  delay */\n      sload(0x03)\n        /* \"contract/JointAccount.sol\":4012:4023  InitiatedAt */\n      sload(0x02)\n        /* \"contract/JointAccount.sol\":4012:4031  InitiatedAt + delay */\n      tag_241\n      swap2\n      swap1\n      tag_153\n      jump\t// in\n    tag_241:\n        /* \"contract/JointAccount.sol\":4011:4050  (InitiatedAt + delay) < block.timestamp */\n      lt\n        /* \"contract/JointAccount.sol\":3968:4050  _amount <= withdrawLimit[_ERC20Address] || (InitiatedAt + delay) < block.timestamp */\n    tag_240:\n        /* \"contract/JointAccount.sol\":3960:4123  require(_amount <= withdrawLimit[_ERC20Address] || (InitiatedAt + delay) < block.timestamp, \"The withdrawal amount exceeds the limit or delay has not passed yet.\") */\n      tag_242\n      jumpi\n      mload(0x40)\n      0x08c379a000000000000000000000000000000000000000000000000000000000\n      dup2\n      mstore\n      0x04\n      add\n      tag_243\n      swap1\n      tag_156\n      jump\t// in\n    tag_243:\n      mload(0x40)\n      dup1\n      swap2\n      sub\n      swap1\n      revert\n    tag_242:\n        /* \"contract/JointAccount.sol\":3917:4135  if (_sender == beneficiary) {... */\n    tag_239:\n        /* \"contract/JointAccount.sol\":4154:4160  frozen */\n      0x08\n      0x00\n      swap1\n      sload\n      swap1\n      0x0100\n      exp\n      swap1\n      div\n      0xff\n      and\n        /* \"contract/JointAccount.sol\":4153:4160  !frozen */\n      iszero\n        /* \"contract/JointAccount.sol\":4145:4206  require(!frozen, \"Account is frozen, cannot withdraw funds.\") */\n      tag_244\n      jumpi\n      mload(0x40)\n      0x08c379a000000000000000000000000000000000000000000000000000000000\n      dup2\n      mstore\n      0x04\n      add\n      tag_245\n      swap1\n      tag_159\n      jump\t// in\n    tag_245:\n      mload(0x40)\n      dup1\n      swap2\n      sub\n      swap1\n      revert\n    tag_244:\n        /* \"contract/JointAccount.sol\":4223:4230  _isCelo */\n      dup6\n        /* \"contract/JointAccount.sol\":4219:5272  if (_isCelo) {... */\n      iszero\n      tag_246\n      jumpi\n        /* \"contract/JointAccount.sol\":4279:4280  0 */\n      0x00\n        /* \"contract/JointAccount.sol\":4255:4276  address(this).balance */\n      selfbalance\n        /* \"contract/JointAccount.sol\":4255:4280  address(this).balance > 0 */\n      gt\n        /* \"contract/JointAccount.sol\":4247:4316  require(address(this).balance > 0, \"There are no funds to withdraw.\") */\n      tag_247\n      jumpi\n      mload(0x40)\n      0x08c379a000000000000000000000000000000000000000000000000000000000\n      dup2\n      mstore\n      0x04\n      add\n      tag_248\n      swap1\n      tag_249\n      jump\t// in\n    tag_248:\n      mload(0x40)\n      dup1\n      swap2\n      sub\n      swap1\n      revert\n    tag_247:\n        /* \"contract/JointAccount.sol\":4350:4371  address(this).balance */\n      selfbalance\n        /* \"contract/JointAccount.sol\":4339:4346  _amount */\n      dup6\n        /* \"contract/JointAccount.sol\":4339:4371  _amount <= address(this).balance */\n      gt\n      iszero\n        /* \"contract/JointAccount.sol\":4331:4395  require(_amount <= address(this).balance, \"Insufficient funds.\") */\n      tag_250\n      jumpi\n      mload(0x40)\n      0x08c379a000000000000000000000000000000000000000000000000000000000\n      dup2\n      mstore\n      0x04\n      add\n      tag_251\n      swap1\n      tag_163\n      jump\t// in\n    tag_251:\n      mload(0x40)\n      dup1\n      swap2\n      sub\n      swap1\n      revert\n    tag_250:\n        /* \"contract/JointAccount.sol\":4419:4424  mutex */\n      0x06\n      0x14\n      swap1\n      sload\n      swap1\n      0x0100\n      exp\n      swap1\n      div\n      0xff\n      and\n        /* \"contract/JointAccount.sol\":4418:4424  !mutex */\n      iszero\n        /* \"contract/JointAccount.sol\":4410:4466  require(!mutex, \"The function is already in execution.\") */\n      tag_252\n      jumpi\n      mload(0x40)\n      0x08c379a000000000000000000000000000000000000000000000000000000000\n      dup2\n      mstore\n      0x04\n      add\n      tag_253\n      swap1\n      tag_166\n      jump\t// in\n    tag_253:\n      mload(0x40)\n      dup1\n      swap2\n      sub\n      swap1\n      revert\n    tag_252:\n        /* \"contract/JointAccount.sol\":4489:4493  true */\n      0x01\n        /* \"contract/JointAccount.sol\":4481:4486  mutex */\n      0x06\n      0x14\n        /* \"contract/JointAccount.sol\":4481:4493  mutex = true */\n      0x0100\n      exp\n      dup2\n      sload\n      dup2\n      0xff\n      mul\n      not\n      and\n      swap1\n      dup4\n      iszero\n      iszero\n      mul\n      or\n      swap1\n      sstore\n      pop\n        /* \"contract/JointAccount.sol\":4514:4548  _amount.mul(_transferFee).div(100) */\n      tag_254\n        /* \"contract/JointAccount.sol\":4544:4547  100 */\n      0x64\n        /* \"contract/JointAccount.sol\":4514:4539  _amount.mul(_transferFee) */\n      tag_255\n        /* \"contract/JointAccount.sol\":4526:4538  _transferFee */\n      dup4\n        /* \"contract/JointAccount.sol\":4514:4521  _amount */\n      dup9\n        /* \"contract/JointAccount.sol\":4514:4525  _amount.mul */\n      tag_169\n      swap1\n        /* \"contract/JointAccount.sol\":4514:4539  _amount.mul(_transferFee) */\n      swap2\n      swap1\n      0xffffffff\n      and\n      jump\t// in\n    tag_255:\n        /* \"contract/JointAccount.sol\":4514:4543  _amount.mul(_transferFee).div */\n      tag_170\n      swap1\n        /* \"contract/JointAccount.sol\":4514:4548  _amount.mul(_transferFee).div(100) */\n      swap2\n      swap1\n      0xffffffff\n      and\n      jump\t// in\n    tag_254:\n        /* \"contract/JointAccount.sol\":4508:4511  fee */\n      0x04\n        /* \"contract/JointAccount.sol\":4508:4548  fee = _amount.mul(_transferFee).div(100) */\n      dup2\n      swap1\n      sstore\n      pop\n        /* \"contract/JointAccount.sol\":4563:4568  owner */\n      0x00\n      dup1\n      sload\n      swap1\n      0x0100\n      exp\n      swap1\n      div\n      0xffffffffffffffffffffffffffffffffffffffff\n      and\n        /* \"contract/JointAccount.sol\":4563:4577  owner.transfer */\n      0xffffffffffffffffffffffffffffffffffffffff\n      and\n        /* \"contract/JointAccount.sol\":4563:4595  owner.transfer(_amount.sub(fee)) */\n      0x08fc\n        /* \"contract/JointAccount.sol\":4578:4594  _amount.sub(fee) */\n      tag_256\n        /* \"contract/JointAccount.sol\":4590:4593  fee */\n      sload(0x04)\n        /* \"contract/JointAccount.sol\":4578:4585  _amount */\n      dup9\n        /* \"contract/JointAccount.sol\":4578:4589  _amount.sub */\n      tag_172\n      swap1\n        /* \"contract/JointAccount.sol\":4578:4594  _amount.sub(fee) */\n      swap2\n      swap1\n      0xffffffff\n      and\n      jump\t// in\n    tag_256:\n        /* \"contract/JointAccount.sol\":4563:4595  owner.transfer(_amount.sub(fee)) */\n      swap1\n      dup2\n      iszero\n      mul\n      swap1\n      mload(0x40)\n      0x00\n      mload(0x40)\n      dup1\n      dup4\n      sub\n      dup2\n      dup6\n      dup9\n      dup9\n      call\n      swap4\n      pop\n      pop\n      pop\n      pop\n      iszero\n      dup1\n      iszero\n      tag_258\n      jumpi\n      returndatasize\n      0x00\n      dup1\n      returndatacopy\n      revert(0x00, returndatasize)\n    tag_258:\n      pop\n        /* \"contract/JointAccount.sol\":4610:4621  _feeAddress */\n      dup2\n        /* \"contract/JointAccount.sol\":4610:4630  _feeAddress.transfer */\n      0xffffffffffffffffffffffffffffffffffffffff\n      and\n        /* \"contract/JointAccount.sol\":4610:4635  _feeAddress.transfer(fee) */\n      0x08fc\n        /* \"contract/JointAccount.sol\":4631:4634  fee */\n      sload(0x04)\n        /* \"contract/JointAccount.sol\":4610:4635  _feeAddress.transfer(fee) */\n      swap1\n      dup2\n      iszero\n      mul\n      swap1\n      mload(0x40)\n      0x00\n      mload(0x40)\n      dup1\n      dup4\n      sub\n      dup2\n      dup6\n      dup9\n      dup9\n      call\n      swap4\n      pop\n      pop\n      pop\n      pop\n      iszero\n      dup1\n      iszero\n      tag_260\n      jumpi\n      returndatasize\n      0x00\n      dup1\n      returndatacopy\n      revert(0x00, returndatasize)\n    tag_260:\n      pop\n        /* \"contract/JointAccount.sol\":4682:4689  _amount */\n      dup5\n        /* \"contract/JointAccount.sol\":4650:4663  withdrawLimit */\n      0x09\n        /* \"contract/JointAccount.sol\":4650:4678  withdrawLimit[_ERC20Address] */\n      0x00\n        /* \"contract/JointAccount.sol\":4664:4677  _ERC20Address */\n      dup7\n        /* \"contract/JointAccount.sol\":4650:4678  withdrawLimit[_ERC20Address] */\n      0xffffffffffffffffffffffffffffffffffffffff\n      and\n      0xffffffffffffffffffffffffffffffffffffffff\n      and\n      dup2\n      mstore\n      0x20\n      add\n      swap1\n      dup2\n      mstore\n      0x20\n      add\n      0x00\n      keccak256\n      0x00\n        /* \"contract/JointAccount.sol\":4650:4689  withdrawLimit[_ERC20Address] -= _amount */\n      dup3\n      dup3\n      sload\n      tag_261\n      swap2\n      swap1\n      tag_178\n      jump\t// in\n    tag_261:\n      swap3\n      pop\n      pop\n      dup2\n      swap1\n      sstore\n      pop\n        /* \"contract/JointAccount.sol\":4712:4717  false */\n      0x00\n        /* \"contract/JointAccount.sol\":4704:4709  mutex */\n      0x06\n      0x14\n        /* \"contract/JointAccount.sol\":4704:4717  mutex = false */\n      0x0100\n      exp\n      dup2\n      sload\n      dup2\n      0xff\n      mul\n      not\n      and\n      swap1\n      dup4\n      iszero\n      iszero\n      mul\n      or\n      swap1\n      sstore\n      pop\n        /* \"contract/JointAccount.sol\":4219:5272  if (_isCelo) {... */\n      jump(tag_262)\n    tag_246:\n        /* \"contract/JointAccount.sol\":4764:4777  _ERC20Address */\n      dup4\n        /* \"contract/JointAccount.sol\":4749:4754  ERC20 */\n      0x06\n      0x00\n        /* \"contract/JointAccount.sol\":4749:4778  ERC20 = IERC20(_ERC20Address) */\n      0x0100\n      exp\n      dup2\n      sload\n      dup2\n      0xffffffffffffffffffffffffffffffffffffffff\n      mul\n      not\n      and\n      swap1\n      dup4\n      0xffffffffffffffffffffffffffffffffffffffff\n      and\n      mul\n      or\n      swap1\n      sstore\n      pop\n        /* \"contract/JointAccount.sol\":4830:4831  0 */\n      0x00\n        /* \"contract/JointAccount.sol\":4797:4802  ERC20 */\n      0x06\n      0x00\n      swap1\n      sload\n      swap1\n      0x0100\n      exp\n      swap1\n      div\n      0xffffffffffffffffffffffffffffffffffffffff\n      and\n        /* \"contract/JointAccount.sol\":4797:4812  ERC20.balanceOf */\n      0xffffffffffffffffffffffffffffffffffffffff\n      and\n      0x70a08231\n        /* \"contract/JointAccount.sol\":4821:4825  this */\n      address\n        /* \"contract/JointAccount.sol\":4797:4827  ERC20.balanceOf(address(this)) */\n      mload(0x40)\n      dup3\n      0xffffffff\n      and\n      0xe0\n      shl\n      dup2\n      mstore\n      0x04\n      add\n      tag_263\n      swap2\n      swap1\n      tag_56\n      jump\t// in\n    tag_263:\n      0x20\n      mload(0x40)\n      dup1\n      dup4\n      sub\n      dup2\n      dup7\n      gas\n      staticcall\n      iszero\n      dup1\n      iszero\n      tag_265\n      jumpi\n      returndatasize\n      0x00\n      dup1\n      returndatacopy\n      revert(0x00, returndatasize)\n    tag_265:\n      pop\n      pop\n      pop\n      pop\n      mload(0x40)\n      returndatasize\n      not(0x1f)\n      0x1f\n      dup3\n      add\n      and\n      dup3\n      add\n      dup1\n      0x40\n      mstore\n      pop\n      dup2\n      add\n      swap1\n      tag_266\n      swap2\n      swap1\n      tag_184\n      jump\t// in\n    tag_266:\n        /* \"contract/JointAccount.sol\":4797:4831  ERC20.balanceOf(address(this)) > 0 */\n      gt\n        /* \"contract/JointAccount.sol\":4789:4867  require(ERC20.balanceOf(address(this)) > 0, \"There are no funds to withdraw.\") */\n      tag_267\n      jumpi\n      mload(0x40)\n      0x08c379a000000000000000000000000000000000000000000000000000000000\n      dup2\n      mstore\n      0x04\n      add\n      tag_268\n      swap1\n      tag_249\n      jump\t// in\n    tag_268:\n      mload(0x40)\n      dup1\n      swap2\n      sub\n      swap1\n      revert\n    tag_267:\n        /* \"contract/JointAccount.sol\":4897:4902  ERC20 */\n      0x06\n      0x00\n      swap1\n      sload\n      swap1\n      0x0100\n      exp\n      swap1\n      div\n      0xffffffffffffffffffffffffffffffffffffffff\n      and\n        /* \"contract/JointAccount.sol\":4897:4912  ERC20.balanceOf */\n      0xffffffffffffffffffffffffffffffffffffffff\n      and\n      0x70a08231\n        /* \"contract/JointAccount.sol\":4921:4925  this */\n      address\n        /* \"contract/JointAccount.sol\":4897:4927  ERC20.balanceOf(address(this)) */\n      mload(0x40)\n      dup3\n      0xffffffff\n      and\n      0xe0\n      shl\n      dup2\n      mstore\n      0x04\n      add\n      tag_269\n      swap2\n      swap1\n      tag_56\n      jump\t// in\n    tag_269:\n      0x20\n      mload(0x40)\n      dup1\n      dup4\n      sub\n      dup2\n      dup7\n      gas\n      staticcall\n      iszero\n      dup1\n      iszero\n      tag_271\n      jumpi\n      returndatasize\n      0x00\n      dup1\n      returndatacopy\n      revert(0x00, returndatasize)\n    tag_271:\n      pop\n      pop\n      pop\n      pop\n      mload(0x40)\n      returndatasize\n      not(0x1f)\n      0x1f\n      dup3\n      add\n      and\n      dup3\n      add\n      dup1\n      0x40\n      mstore\n      pop\n      dup2\n      add\n      swap1\n      tag_272\n      swap2\n      swap1\n      tag_184\n      jump\t// in\n    tag_272:\n        /* \"contract/JointAccount.sol\":4886:4893  _amount */\n      dup6\n        /* \"contract/JointAccount.sol\":4886:4927  _amount <= ERC20.balanceOf(address(this)) */\n      gt\n      iszero\n        /* \"contract/JointAccount.sol\":4878:4951  require(_amount <= ERC20.balanceOf(address(this)), \"Insufficient funds.\") */\n      tag_273\n      jumpi\n      mload(0x40)\n      0x08c379a000000000000000000000000000000000000000000000000000000000\n      dup2\n      mstore\n      0x04\n      add\n      tag_274\n      swap1\n      tag_163\n      jump\t// in\n    tag_274:\n      mload(0x40)\n      dup1\n      swap2\n      sub\n      swap1\n      revert\n    tag_273:\n        /* \"contract/JointAccount.sol\":4971:4976  mutex */\n      0x06\n      0x14\n      swap1\n      sload\n      swap1\n      0x0100\n      exp\n      swap1\n      div\n      0xff\n      and\n        /* \"contract/JointAccount.sol\":4970:4976  !mutex */\n      iszero\n        /* \"contract/JointAccount.sol\":4962:5018  require(!mutex, \"The function is already in execution.\") */\n      tag_275\n      jumpi\n      mload(0x40)\n      0x08c379a000000000000000000000000000000000000000000000000000000000\n      dup2\n      mstore\n      0x04\n      add\n      tag_276\n      swap1\n      tag_166\n      jump\t// in\n    tag_276:\n      mload(0x40)\n      dup1\n      swap2\n      sub\n      swap1\n      revert\n    tag_275:\n        /* \"contract/JointAccount.sol\":5037:5041  true */\n      0x01\n        /* \"contract/JointAccount.sol\":5029:5034  mutex */\n      0x06\n      0x14\n        /* \"contract/JointAccount.sol\":5029:5041  mutex = true */\n      0x0100\n      exp\n      dup2\n      sload\n      dup2\n      0xff\n      mul\n      not\n      and\n      swap1\n      dup4\n      iszero\n      iszero\n      mul\n      or\n      swap1\n      sstore\n      pop\n        /* \"contract/JointAccount.sol\":5058:5092  _amount.mul(_transferFee).div(100) */\n      tag_277\n        /* \"contract/JointAccount.sol\":5088:5091  100 */\n      0x64\n        /* \"contract/JointAccount.sol\":5058:5083  _amount.mul(_transferFee) */\n      tag_278\n        /* \"contract/JointAccount.sol\":5070:5082  _transferFee */\n      dup4\n        /* \"contract/JointAccount.sol\":5058:5065  _amount */\n      dup9\n        /* \"contract/JointAccount.sol\":5058:5069  _amount.mul */\n      tag_169\n      swap1\n        /* \"contract/JointAccount.sol\":5058:5083  _amount.mul(_transferFee) */\n      swap2\n      swap1\n      0xffffffff\n      and\n      jump\t// in\n    tag_278:\n        /* \"contract/JointAccount.sol\":5058:5087  _amount.mul(_transferFee).div */\n      tag_170\n      swap1\n        /* \"contract/JointAccount.sol\":5058:5092  _amount.mul(_transferFee).div(100) */\n      swap2\n      swap1\n      0xffffffff\n      and\n      jump\t// in\n    tag_277:\n        /* \"contract/JointAccount.sol\":5052:5055  fee */\n      0x04\n        /* \"contract/JointAccount.sol\":5052:5092  fee = _amount.mul(_transferFee).div(100) */\n      dup2\n      swap1\n      sstore\n      pop\n        /* \"contract/JointAccount.sol\":5103:5108  ERC20 */\n      0x06\n      0x00\n      swap1\n      sload\n      swap1\n      0x0100\n      exp\n      swap1\n      div\n      0xffffffffffffffffffffffffffffffffffffffff\n      and\n        /* \"contract/JointAccount.sol\":5103:5117  ERC20.transfer */\n      0xffffffffffffffffffffffffffffffffffffffff\n      and\n      0xa9059cbb\n        /* \"contract/JointAccount.sol\":5118:5123  owner */\n      0x00\n      dup1\n      sload\n      swap1\n      0x0100\n      exp\n      swap1\n      div\n      0xffffffffffffffffffffffffffffffffffffffff\n      and\n        /* \"contract/JointAccount.sol\":5125:5141  _amount.sub(fee) */\n      tag_279\n        /* \"contract/JointAccount.sol\":5137:5140  fee */\n      sload(0x04)\n        /* \"contract/JointAccount.sol\":5125:5132  _amount */\n      dup10\n        /* \"contract/JointAccount.sol\":5125:5136  _amount.sub */\n      tag_172\n      swap1\n        /* \"contract/JointAccount.sol\":5125:5141  _amount.sub(fee) */\n      swap2\n      swap1\n      0xffffffff\n      and\n      jump\t// in\n    tag_279:\n        /* \"contract/JointAccount.sol\":5103:5142  ERC20.transfer(owner, _amount.sub(fee)) */\n      mload(0x40)\n      dup4\n      0xffffffff\n      and\n      0xe0\n      shl\n      dup2\n      mstore\n      0x04\n      add\n      tag_280\n      swap3\n      swap2\n      swap1\n      tag_193\n      jump\t// in\n    tag_280:\n      0x20\n      mload(0x40)\n      dup1\n      dup4\n      sub\n      dup2\n      0x00\n      dup8\n      gas\n      call\n      iszero\n      dup1\n      iszero\n      tag_282\n      jumpi\n      returndatasize\n      0x00\n      dup1\n      returndatacopy\n      revert(0x00, returndatasize)\n    tag_282:\n      pop\n      pop\n      pop\n      pop\n      mload(0x40)\n      returndatasize\n      not(0x1f)\n      0x1f\n      dup3\n      add\n      and\n      dup3\n      add\n      dup1\n      0x40\n      mstore\n      pop\n      dup2\n      add\n      swap1\n      tag_283\n      swap2\n      swap1\n      tag_197\n      jump\t// in\n    tag_283:\n      pop\n        /* \"contract/JointAccount.sol\":5153:5158  ERC20 */\n      0x06\n      0x00\n      swap1\n      sload\n      swap1\n      0x0100\n      exp\n      swap1\n      div\n      0xffffffffffffffffffffffffffffffffffffffff\n      and\n        /* \"contract/JointAccount.sol\":5153:5167  ERC20.transfer */\n      0xffffffffffffffffffffffffffffffffffffffff\n      and\n      0xa9059cbb\n        /* \"contract/JointAccount.sol\":5168:5179  _feeAddress */\n      dup4\n        /* \"contract/JointAccount.sol\":5181:5184  fee */\n      sload(0x04)\n        /* \"contract/JointAccount.sol\":5153:5185  ERC20.transfer(_feeAddress, fee) */\n      mload(0x40)\n      dup4\n      0xffffffff\n      and\n      0xe0\n      shl\n      dup2\n      mstore\n      0x04\n      add\n      tag_284\n      swap3\n      swap2\n      swap1\n      tag_193\n      jump\t// in\n    tag_284:\n      0x20\n      mload(0x40)\n      dup1\n      dup4\n      sub\n      dup2\n      0x00\n      dup8\n      gas\n      call\n      iszero\n      dup1\n      iszero\n      tag_286\n      jumpi\n      returndatasize\n      0x00\n      dup1\n      returndatacopy\n      revert(0x00, returndatasize)\n    tag_286:\n      pop\n      pop\n      pop\n      pop\n      mload(0x40)\n      returndatasize\n      not(0x1f)\n      0x1f\n      dup3\n      add\n      and\n      dup3\n      add\n      dup1\n      0x40\n      mstore\n      pop\n      dup2\n      add\n      swap1\n      tag_287\n      swap2\n      swap1\n      tag_197\n      jump\t// in\n    tag_287:\n      pop\n        /* \"contract/JointAccount.sol\":5228:5235  _amount */\n      dup5\n        /* \"contract/JointAccount.sol\":5196:5209  withdrawLimit */\n      0x09\n        /* \"contract/JointAccount.sol\":5196:5224  withdrawLimit[_ERC20Address] */\n      0x00\n        /* \"contract/JointAccount.sol\":5210:5223  _ERC20Address */\n      dup7\n        /* \"contract/JointAccount.sol\":5196:5224  withdrawLimit[_ERC20Address] */\n      0xffffffffffffffffffffffffffffffffffffffff\n      and\n      0xffffffffffffffffffffffffffffffffffffffff\n      and\n      dup2\n      mstore\n      0x20\n      add\n      swap1\n      dup2\n      mstore\n      0x20\n      add\n      0x00\n      keccak256\n      0x00\n        /* \"contract/JointAccount.sol\":5196:5235  withdrawLimit[_ERC20Address] -= _amount */\n      dup3\n      dup3\n      sload\n      tag_288\n      swap2\n      swap1\n      tag_178\n      jump\t// in\n    tag_288:\n      swap3\n      pop\n      pop\n      dup2\n      swap1\n      sstore\n      pop\n        /* \"contract/JointAccount.sol\":5254:5259  false */\n      0x00\n        /* \"contract/JointAccount.sol\":5246:5251  mutex */\n      0x06\n      0x14\n        /* \"contract/JointAccount.sol\":5246:5259  mutex = false */\n      0x0100\n      exp\n      dup2\n      sload\n      dup2\n      0xff\n      mul\n      not\n      and\n      swap1\n      dup4\n      iszero\n      iszero\n      mul\n      or\n      swap1\n      sstore\n      pop\n        /* \"contract/JointAccount.sol\":4219:5272  if (_isCelo) {... */\n    tag_262:\n        /* \"contract/JointAccount.sol\":3638:5279  function withdraw(bool _isCelo, uint _amount, address _ERC20Address, address _sender, address payable _feeAddress, uint _transferFee) public payable {... */\n      pop\n      pop\n      pop\n      pop\n      pop\n      pop\n      jump\t// out\n        /* \"contract/JointAccount.sol\":2165:2346  function freeze(address _sender) public {... */\n    tag_99:\n        /* \"contract/JointAccount.sol\":2235:2240  owner */\n      0x00\n      dup1\n      sload\n      swap1\n      0x0100\n      exp\n      swap1\n      div\n      0xffffffffffffffffffffffffffffffffffffffff\n      and\n        /* \"contract/JointAccount.sol\":2224:2240  _sender == owner */\n      0xffffffffffffffffffffffffffffffffffffffff\n      and\n        /* \"contract/JointAccount.sol\":2224:2231  _sender */\n      dup2\n        /* \"contract/JointAccount.sol\":2224:2240  _sender == owner */\n      0xffffffffffffffffffffffffffffffffffffffff\n      and\n      eq\n        /* \"contract/JointAccount.sol\":2216:2283  require(_sender == owner, \"Only the owner can freeze the account.\") */\n      tag_290\n      jumpi\n      mload(0x40)\n      0x08c379a000000000000000000000000000000000000000000000000000000000\n      dup2\n      mstore\n      0x04\n      add\n      tag_291\n      swap1\n      tag_292\n      jump\t// in\n    tag_291:\n      mload(0x40)\n      dup1\n      swap2\n      sub\n      swap1\n      revert\n    tag_290:\n        /* \"contract/JointAccount.sol\":2303:2307  true */\n      0x01\n        /* \"contract/JointAccount.sol\":2294:2300  frozen */\n      0x08\n      0x00\n        /* \"contract/JointAccount.sol\":2294:2307  frozen = true */\n      0x0100\n      exp\n      dup2\n      sload\n      dup2\n      0xff\n      mul\n      not\n      and\n      swap1\n      dup4\n      iszero\n      iszero\n      mul\n      or\n      swap1\n      sstore\n      pop\n        /* \"contract/JointAccount.sol\":2323:2338  Freeze(_sender) */\n      0xaf85b60d26151edd11443b704d424da6c43d0468f2235ebae3d1904dbc323049\n        /* \"contract/JointAccount.sol\":2330:2337  _sender */\n      dup2\n        /* \"contract/JointAccount.sol\":2323:2338  Freeze(_sender) */\n      mload(0x40)\n      tag_293\n      swap2\n      swap1\n      tag_56\n      jump\t// in\n    tag_293:\n      mload(0x40)\n      dup1\n      swap2\n      sub\n      swap1\n      log1\n        /* \"contract/JointAccount.sol\":2165:2346  function freeze(address _sender) public {... */\n      pop\n      jump\t// out\n        /* \"contract/JointAccount.sol\":266:294  address payable public owner */\n    tag_102:\n      0x00\n      dup1\n      sload\n      swap1\n      0x0100\n      exp\n      swap1\n      div\n      0xffffffffffffffffffffffffffffffffffffffff\n      and\n      dup2\n      jump\t// out\n        /* \"contract/JointAccount.sol\":2947:3180  function allowance ( address _ERC20Address, address payable _from, address payable _contract) public  view returns (uint256) {... */\n    tag_108:\n        /* \"contract/JointAccount.sol\":3063:3070  uint256 */\n      0x00\n        /* \"contract/JointAccount.sol\":3083:3096  IERC20 token_ */\n      dup1\n        /* \"contract/JointAccount.sol\":3106:3119  _ERC20Address */\n      dup5\n        /* \"contract/JointAccount.sol\":3083:3120  IERC20 token_ = IERC20(_ERC20Address) */\n      swap1\n      pop\n        /* \"contract/JointAccount.sol\":3138:3144  token_ */\n      dup1\n        /* \"contract/JointAccount.sol\":3138:3154  token_.allowance */\n      0xffffffffffffffffffffffffffffffffffffffff\n      and\n      0xdd62ed3e\n        /* \"contract/JointAccount.sol\":3155:3160  _from */\n      dup6\n        /* \"contract/JointAccount.sol\":3162:3171  _contract */\n      dup6\n        /* \"contract/JointAccount.sol\":3138:3172  token_.allowance(_from, _contract) */\n      mload(0x40)\n      dup4\n      0xffffffff\n      and\n      0xe0\n      shl\n      dup2\n      mstore\n      0x04\n      add\n      tag_295\n      swap3\n      swap2\n      swap1\n      tag_296\n      jump\t// in\n    tag_295:\n      0x20\n      mload(0x40)\n      dup1\n      dup4\n      sub\n      dup2\n      dup7\n      gas\n      staticcall\n      iszero\n      dup1\n      iszero\n      tag_298\n      jumpi\n      returndatasize\n      0x00\n      dup1\n      returndatacopy\n      revert(0x00, returndatasize)\n    tag_298:\n      pop\n      pop\n      pop\n      pop\n      mload(0x40)\n      returndatasize\n      not(0x1f)\n      0x1f\n      dup3\n      add\n      and\n      dup3\n      add\n      dup1\n      0x40\n      mstore\n      pop\n      dup2\n      add\n      swap1\n      tag_299\n      swap2\n      swap1\n      tag_184\n      jump\t// in\n    tag_299:\n        /* \"contract/JointAccount.sol\":3131:3172  return token_.allowance(_from, _contract) */\n      swap2\n      pop\n      pop\n        /* \"contract/JointAccount.sol\":2947:3180  function allowance ( address _ERC20Address, address payable _from, address payable _contract) public  view returns (uint256) {... */\n      swap4\n      swap3\n      pop\n      pop\n      pop\n      jump\t// out\n        /* \"contract/JointAccount.sol\":7224:7306  function returnOwner() public view returns(address){... */\n    tag_112:\n        /* \"contract/JointAccount.sol\":7267:7274  address */\n      0x00\n        /* \"contract/JointAccount.sol\":7293:7298  owner */\n      dup1\n      0x00\n      swap1\n      sload\n      swap1\n      0x0100\n      exp\n      swap1\n      div\n      0xffffffffffffffffffffffffffffffffffffffff\n      and\n        /* \"contract/JointAccount.sol\":7286:7298  return owner */\n      swap1\n      pop\n        /* \"contract/JointAccount.sol\":7224:7306  function returnOwner() public view returns(address){... */\n      swap1\n      jump\t// out\n        /* \"contract/JointAccount.sol\":925:949  uint public tokenBalance */\n    tag_116:\n      sload(0x07)\n      dup2\n      jump\t// out\n        /* \"contract/JointAccount.sol\":863:888  bool public mutex = false */\n    tag_120:\n      0x06\n      0x14\n      swap1\n      sload\n      swap1\n      0x0100\n      exp\n      swap1\n      div\n      0xff\n      and\n      dup2\n      jump\t// out\n        /* \"contract/JointAccount.sol\":3221:3591  function deposit(uint _amount, address payable _from, address _ERC20Address, address payable _contract) public payable {... */\n    tag_125:\n        /* \"contract/JointAccount.sol\":3369:3370  0 */\n      0x00\n        /* \"contract/JointAccount.sol\":3359:3366  _amount */\n      dup5\n        /* \"contract/JointAccount.sol\":3359:3370  _amount > 0 */\n      gt\n        /* \"contract/JointAccount.sol\":3351:3400  require(_amount > 0, \"Cannot deposit 0 or less.\") */\n      tag_302\n      jumpi\n      mload(0x40)\n      0x08c379a000000000000000000000000000000000000000000000000000000000\n      dup2\n      mstore\n      0x04\n      add\n      tag_303\n      swap1\n      tag_220\n      jump\t// in\n    tag_303:\n      mload(0x40)\n      dup1\n      swap2\n      sub\n      swap1\n      revert\n    tag_302:\n        /* \"contract/JointAccount.sol\":3411:3424  IERC20 token_ */\n      0x00\n        /* \"contract/JointAccount.sol\":3434:3447  _ERC20Address */\n      dup3\n        /* \"contract/JointAccount.sol\":3411:3448  IERC20 token_ = IERC20(_ERC20Address) */\n      swap1\n      pop\n        /* \"contract/JointAccount.sol\":3494:3501  _amount */\n      dup5\n        /* \"contract/JointAccount.sol\":3467:3473  token_ */\n      dup2\n        /* \"contract/JointAccount.sol\":3467:3483  token_.balanceOf */\n      0xffffffffffffffffffffffffffffffffffffffff\n      and\n      0x70a08231\n        /* \"contract/JointAccount.sol\":3484:3489  _from */\n      dup7\n        /* \"contract/JointAccount.sol\":3467:3490  token_.balanceOf(_from) */\n      mload(0x40)\n      dup3\n      0xffffffff\n      and\n      0xe0\n      shl\n      dup2\n      mstore\n      0x04\n      add\n      tag_304\n      swap2\n      swap1\n      tag_305\n      jump\t// in\n    tag_304:\n      0x20\n      mload(0x40)\n      dup1\n      dup4\n      sub\n      dup2\n      dup7\n      gas\n      staticcall\n      iszero\n      dup1\n      iszero\n      tag_307\n      jumpi\n      returndatasize\n      0x00\n      dup1\n      returndatacopy\n      revert(0x00, returndatasize)\n    tag_307:\n      pop\n      pop\n      pop\n      pop\n      mload(0x40)\n      returndatasize\n      not(0x1f)\n      0x1f\n      dup3\n      add\n      and\n      dup3\n      add\n      dup1\n      0x40\n      mstore\n      pop\n      dup2\n      add\n      swap1\n      tag_308\n      swap2\n      swap1\n      tag_184\n      jump\t// in\n    tag_308:\n        /* \"contract/JointAccount.sol\":3467:3501  token_.balanceOf(_from) >= _amount */\n      lt\n      iszero\n        /* \"contract/JointAccount.sol\":3459:3526  require(token_.balanceOf(_from) >= _amount, \"Insufficient balance\") */\n      tag_309\n      jumpi\n      mload(0x40)\n      0x08c379a000000000000000000000000000000000000000000000000000000000\n      dup2\n      mstore\n      0x04\n      add\n      tag_310\n      swap1\n      tag_311\n      jump\t// in\n    tag_310:\n      mload(0x40)\n      dup1\n      swap2\n      sub\n      swap1\n      revert\n    tag_309:\n        /* \"contract/JointAccount.sol\":3537:3543  token_ */\n      dup1\n        /* \"contract/JointAccount.sol\":3537:3556  token_.transferFrom */\n      0xffffffffffffffffffffffffffffffffffffffff\n      and\n      0x23b872dd\n        /* \"contract/JointAccount.sol\":3557:3562  _from */\n      dup6\n        /* \"contract/JointAccount.sol\":3564:3573  _contract */\n      dup5\n        /* \"contract/JointAccount.sol\":3575:3582  _amount */\n      dup9\n        /* \"contract/JointAccount.sol\":3537:3583  token_.transferFrom(_from, _contract, _amount) */\n      mload(0x40)\n      dup5\n      0xffffffff\n      and\n      0xe0\n      shl\n      dup2\n      mstore\n      0x04\n      add\n      tag_312\n      swap4\n      swap3\n      swap2\n      swap1\n      tag_313\n      jump\t// in\n    tag_312:\n      0x20\n      mload(0x40)\n      dup1\n      dup4\n      sub\n      dup2\n      0x00\n      dup8\n      gas\n      call\n      iszero\n      dup1\n      iszero\n      tag_315\n      jumpi\n      returndatasize\n      0x00\n      dup1\n      returndatacopy\n      revert(0x00, returndatasize)\n    tag_315:\n      pop\n      pop\n      pop\n      pop\n      mload(0x40)\n      returndatasize\n      not(0x1f)\n      0x1f\n      dup3\n      add\n      and\n      dup3\n      add\n      dup1\n      0x40\n      mstore\n      pop\n      dup2\n      add\n      swap1\n      tag_316\n      swap2\n      swap1\n      tag_197\n      jump\t// in\n    tag_316:\n      pop\n        /* \"contract/JointAccount.sol\":3340:3591  {... */\n      pop\n        /* \"contract/JointAccount.sol\":3221:3591  function deposit(uint _amount, address payable _from, address _ERC20Address, address payable _contract) public payable {... */\n      pop\n      pop\n      pop\n      pop\n      jump\t// out\n        /* \"contract/JointAccount.sol\":7728:7807  function returnDelay() public view returns(uint){... */\n    tag_128:\n        /* \"contract/JointAccount.sol\":7771:7775  uint */\n      0x00\n        /* \"contract/JointAccount.sol\":7794:7799  delay */\n      sload(0x03)\n        /* \"contract/JointAccount.sol\":7787:7799  return delay */\n      swap1\n      pop\n        /* \"contract/JointAccount.sol\":7728:7807  function returnDelay() public view returns(uint){... */\n      swap1\n      jump\t// out\n        /* \"contract/JointAccount.sol\":722:741  IERC20 public ERC20 */\n    tag_132:\n      0x06\n      0x00\n      swap1\n      sload\n      swap1\n      0x0100\n      exp\n      swap1\n      div\n      0xffffffffffffffffffffffffffffffffffffffff\n      and\n      dup2\n      jump\t// out\n        /* \"contract/JointAccount.sol\":7539:7665  function getWithdrawLimit(address _ERC20Address) public view returns (uint) {... */\n    tag_138:\n        /* \"contract/JointAccount.sol\":7609:7613  uint */\n      0x00\n        /* \"contract/JointAccount.sol\":7629:7642  withdrawLimit */\n      0x09\n        /* \"contract/JointAccount.sol\":7629:7657  withdrawLimit[_ERC20Address] */\n      0x00\n        /* \"contract/JointAccount.sol\":7643:7656  _ERC20Address */\n      dup4\n        /* \"contract/JointAccount.sol\":7629:7657  withdrawLimit[_ERC20Address] */\n      0xffffffffffffffffffffffffffffffffffffffff\n      and\n      0xffffffffffffffffffffffffffffffffffffffff\n      and\n      dup2\n      mstore\n      0x20\n      add\n      swap1\n      dup2\n      mstore\n      0x20\n      add\n      0x00\n      keccak256\n      sload\n        /* \"contract/JointAccount.sol\":7622:7657  return withdrawLimit[_ERC20Address] */\n      swap1\n      pop\n        /* \"contract/JointAccount.sol\":7539:7665  function getWithdrawLimit(address _ERC20Address) public view returns (uint) {... */\n      swap2\n      swap1\n      pop\n      jump\t// out\n        /* \"contract/JointAccount.sol\":1207:1253  mapping (address => uint) public withdrawLimit */\n    tag_143:\n      mstore(0x20, 0x09)\n      dup1\n      0x00\n      mstore\n      keccak256(0x00, 0x40)\n      0x00\n      swap2\n      pop\n      swap1\n      pop\n      sload\n      dup2\n      jump\t// out\n        /* \"@openzeppelin/contracts/utils/math/SafeMath.sol\":3465:3561  function mul(uint256 a, uint256 b) internal pure returns (uint256) {... */\n    tag_169:\n        /* \"@openzeppelin/contracts/utils/math/SafeMath.sol\":3523:3530  uint256 */\n      0x00\n        /* \"@openzeppelin/contracts/utils/math/SafeMath.sol\":3553:3554  b */\n      dup2\n        /* \"@openzeppelin/contracts/utils/math/SafeMath.sol\":3549:3550  a */\n      dup4\n        /* \"@openzeppelin/contracts/utils/math/SafeMath.sol\":3549:3554  a * b */\n      tag_320\n      swap2\n      swap1\n      tag_321\n      jump\t// in\n    tag_320:\n        /* \"@openzeppelin/contracts/utils/math/SafeMath.sol\":3542:3554  return a * b */\n      swap1\n      pop\n        /* \"@openzeppelin/contracts/utils/math/SafeMath.sol\":3465:3561  function mul(uint256 a, uint256 b) internal pure returns (uint256) {... */\n      swap3\n      swap2\n      pop\n      pop\n      jump\t// out\n        /* \"@openzeppelin/contracts/utils/math/SafeMath.sol\":3850:3946  function div(uint256 a, uint256 b) internal pure returns (uint256) {... */\n    tag_170:\n        /* \"@openzeppelin/contracts/utils/math/SafeMath.sol\":3908:3915  uint256 */\n      0x00\n        /* \"@openzeppelin/contracts/utils/math/SafeMath.sol\":3938:3939  b */\n      dup2\n        /* \"@openzeppelin/contracts/utils/math/SafeMath.sol\":3934:3935  a */\n      dup4\n        /* \"@openzeppelin/contracts/utils/math/SafeMath.sol\":3934:3939  a / b */\n      tag_323\n      swap2\n      swap1\n      tag_324\n      jump\t// in\n    tag_323:\n        /* \"@openzeppelin/contracts/utils/math/SafeMath.sol\":3927:3939  return a / b */\n      swap1\n      pop\n        /* \"@openzeppelin/contracts/utils/math/SafeMath.sol\":3850:3946  function div(uint256 a, uint256 b) internal pure returns (uint256) {... */\n      swap3\n      swap2\n      pop\n      pop\n      jump\t// out\n        /* \"@openzeppelin/contracts/utils/math/SafeMath.sol\":3122:3218  function sub(uint256 a, uint256 b) internal pure returns (uint256) {... */\n    tag_172:\n        /* \"@openzeppelin/contracts/utils/math/SafeMath.sol\":3180:3187  uint256 */\n      0x00\n        /* \"@openzeppelin/contracts/utils/math/SafeMath.sol\":3210:3211  b */\n      dup2\n        /* \"@openzeppelin/contracts/utils/math/SafeMath.sol\":3206:3207  a */\n      dup4\n        /* \"@openzeppelin/contracts/utils/math/SafeMath.sol\":3206:3211  a - b */\n      tag_326\n      swap2\n      swap1\n      tag_178\n      jump\t// in\n    tag_326:\n        /* \"@openzeppelin/contracts/utils/math/SafeMath.sol\":3199:3211  return a - b */\n      swap1\n      pop\n        /* \"@openzeppelin/contracts/utils/math/SafeMath.sol\":3122:3218  function sub(uint256 a, uint256 b) internal pure returns (uint256) {... */\n      swap3\n      swap2\n      pop\n      pop\n      jump\t// out\n        /* \"#utility.yul\":88:205   */\n    tag_328:\n        /* \"#utility.yul\":197:198   */\n      0x00\n        /* \"#utility.yul\":194:195   */\n      dup1\n        /* \"#utility.yul\":187:199   */\n      revert\n        /* \"#utility.yul\":334:424   */\n    tag_330:\n        /* \"#utility.yul\":368:375   */\n      0x00\n        /* \"#utility.yul\":411:416   */\n      dup2\n        /* \"#utility.yul\":404:417   */\n      iszero\n        /* \"#utility.yul\":397:418   */\n      iszero\n        /* \"#utility.yul\":386:418   */\n      swap1\n      pop\n        /* \"#utility.yul\":334:424   */\n      swap2\n      swap1\n      pop\n      jump\t// out\n        /* \"#utility.yul\":430:546   */\n    tag_331:\n        /* \"#utility.yul\":500:521   */\n      tag_389\n        /* \"#utility.yul\":515:520   */\n      dup2\n        /* \"#utility.yul\":500:521   */\n      tag_330\n      jump\t// in\n    tag_389:\n        /* \"#utility.yul\":493:498   */\n      dup2\n        /* \"#utility.yul\":490:522   */\n      eq\n        /* \"#utility.yul\":480:540   */\n      tag_390\n      jumpi\n        /* \"#utility.yul\":536:537   */\n      0x00\n        /* \"#utility.yul\":533:534   */\n      dup1\n        /* \"#utility.yul\":526:538   */\n      revert\n        /* \"#utility.yul\":480:540   */\n    tag_390:\n        /* \"#utility.yul\":430:546   */\n      pop\n      jump\t// out\n        /* \"#utility.yul\":552:685   */\n    tag_332:\n        /* \"#utility.yul\":595:600   */\n      0x00\n        /* \"#utility.yul\":633:639   */\n      dup2\n        /* \"#utility.yul\":620:640   */\n      calldataload\n        /* \"#utility.yul\":611:640   */\n      swap1\n      pop\n        /* \"#utility.yul\":649:679   */\n      tag_392\n        /* \"#utility.yul\":673:678   */\n      dup2\n        /* \"#utility.yul\":649:679   */\n      tag_331\n      jump\t// in\n    tag_392:\n        /* \"#utility.yul\":552:685   */\n      swap3\n      swap2\n      pop\n      pop\n      jump\t// out\n        /* \"#utility.yul\":691:817   */\n    tag_333:\n        /* \"#utility.yul\":728:735   */\n      0x00\n        /* \"#utility.yul\":768:810   */\n      0xffffffffffffffffffffffffffffffffffffffff\n        /* \"#utility.yul\":761:766   */\n      dup3\n        /* \"#utility.yul\":757:811   */\n      and\n        /* \"#utility.yul\":746:811   */\n      swap1\n      pop\n        /* \"#utility.yul\":691:817   */\n      swap2\n      swap1\n      pop\n      jump\t// out\n        /* \"#utility.yul\":823:927   */\n    tag_334:\n        /* \"#utility.yul\":868:875   */\n      0x00\n        /* \"#utility.yul\":897:921   */\n      tag_395\n        /* \"#utility.yul\":915:920   */\n      dup3\n        /* \"#utility.yul\":897:921   */\n      tag_333\n      jump\t// in\n    tag_395:\n        /* \"#utility.yul\":886:921   */\n      swap1\n      pop\n        /* \"#utility.yul\":823:927   */\n      swap2\n      swap1\n      pop\n      jump\t// out\n        /* \"#utility.yul\":933:1071   */\n    tag_335:\n        /* \"#utility.yul\":1014:1046   */\n      tag_397\n        /* \"#utility.yul\":1040:1045   */\n      dup2\n        /* \"#utility.yul\":1014:1046   */\n      tag_334\n      jump\t// in\n    tag_397:\n        /* \"#utility.yul\":1007:1012   */\n      dup2\n        /* \"#utility.yul\":1004:1047   */\n      eq\n        /* \"#utility.yul\":994:1065   */\n      tag_398\n      jumpi\n        /* \"#utility.yul\":1061:1062   */\n      0x00\n        /* \"#utility.yul\":1058:1059   */\n      dup1\n        /* \"#utility.yul\":1051:1063   */\n      revert\n        /* \"#utility.yul\":994:1065   */\n    tag_398:\n        /* \"#utility.yul\":933:1071   */\n      pop\n      jump\t// out\n        /* \"#utility.yul\":1077:1232   */\n    tag_336:\n        /* \"#utility.yul\":1131:1136   */\n      0x00\n        /* \"#utility.yul\":1169:1175   */\n      dup2\n        /* \"#utility.yul\":1156:1176   */\n      calldataload\n        /* \"#utility.yul\":1147:1176   */\n      swap1\n      pop\n        /* \"#utility.yul\":1185:1226   */\n      tag_400\n        /* \"#utility.yul\":1220:1225   */\n      dup2\n        /* \"#utility.yul\":1185:1226   */\n      tag_335\n      jump\t// in\n    tag_400:\n        /* \"#utility.yul\":1077:1232   */\n      swap3\n      swap2\n      pop\n      pop\n      jump\t// out\n        /* \"#utility.yul\":1238:1315   */\n    tag_337:\n        /* \"#utility.yul\":1275:1282   */\n      0x00\n        /* \"#utility.yul\":1304:1309   */\n      dup2\n        /* \"#utility.yul\":1293:1309   */\n      swap1\n      pop\n        /* \"#utility.yul\":1238:1315   */\n      swap2\n      swap1\n      pop\n      jump\t// out\n        /* \"#utility.yul\":1321:1443   */\n    tag_338:\n        /* \"#utility.yul\":1394:1418   */\n      tag_403\n        /* \"#utility.yul\":1412:1417   */\n      dup2\n        /* \"#utility.yul\":1394:1418   */\n      tag_337\n      jump\t// in\n    tag_403:\n        /* \"#utility.yul\":1387:1392   */\n      dup2\n        /* \"#utility.yul\":1384:1419   */\n      eq\n        /* \"#utility.yul\":1374:1437   */\n      tag_404\n      jumpi\n        /* \"#utility.yul\":1433:1434   */\n      0x00\n        /* \"#utility.yul\":1430:1431   */\n      dup1\n        /* \"#utility.yul\":1423:1435   */\n      revert\n        /* \"#utility.yul\":1374:1437   */\n    tag_404:\n        /* \"#utility.yul\":1321:1443   */\n      pop\n      jump\t// out\n        /* \"#utility.yul\":1449:1588   */\n    tag_339:\n        /* \"#utility.yul\":1495:1500   */\n      0x00\n        /* \"#utility.yul\":1533:1539   */\n      dup2\n        /* \"#utility.yul\":1520:1540   */\n      calldataload\n        /* \"#utility.yul\":1511:1540   */\n      swap1\n      pop\n        /* \"#utility.yul\":1549:1582   */\n      tag_406\n        /* \"#utility.yul\":1576:1581   */\n      dup2\n        /* \"#utility.yul\":1549:1582   */\n      tag_338\n      jump\t// in\n    tag_406:\n        /* \"#utility.yul\":1449:1588   */\n      swap3\n      swap2\n      pop\n      pop\n      jump\t// out\n        /* \"#utility.yul\":1594:1690   */\n    tag_340:\n        /* \"#utility.yul\":1631:1638   */\n      0x00\n        /* \"#utility.yul\":1660:1684   */\n      tag_408\n        /* \"#utility.yul\":1678:1683   */\n      dup3\n        /* \"#utility.yul\":1660:1684   */\n      tag_333\n      jump\t// in\n    tag_408:\n        /* \"#utility.yul\":1649:1684   */\n      swap1\n      pop\n        /* \"#utility.yul\":1594:1690   */\n      swap2\n      swap1\n      pop\n      jump\t// out\n        /* \"#utility.yul\":1696:1818   */\n    tag_341:\n        /* \"#utility.yul\":1769:1793   */\n      tag_410\n        /* \"#utility.yul\":1787:1792   */\n      dup2\n        /* \"#utility.yul\":1769:1793   */\n      tag_340\n      jump\t// in\n    tag_410:\n        /* \"#utility.yul\":1762:1767   */\n      dup2\n        /* \"#utility.yul\":1759:1794   */\n      eq\n        /* \"#utility.yul\":1749:1812   */\n      tag_411\n      jumpi\n        /* \"#utility.yul\":1808:1809   */\n      0x00\n        /* \"#utility.yul\":1805:1806   */\n      dup1\n        /* \"#utility.yul\":1798:1810   */\n      revert\n        /* \"#utility.yul\":1749:1812   */\n    tag_411:\n        /* \"#utility.yul\":1696:1818   */\n      pop\n      jump\t// out\n        /* \"#utility.yul\":1824:1963   */\n    tag_342:\n        /* \"#utility.yul\":1870:1875   */\n      0x00\n        /* \"#utility.yul\":1908:1914   */\n      dup2\n        /* \"#utility.yul\":1895:1915   */\n      calldataload\n        /* \"#utility.yul\":1886:1915   */\n      swap1\n      pop\n        /* \"#utility.yul\":1924:1957   */\n      tag_413\n        /* \"#utility.yul\":1951:1956   */\n      dup2\n        /* \"#utility.yul\":1924:1957   */\n      tag_341\n      jump\t// in\n    tag_413:\n        /* \"#utility.yul\":1824:1963   */\n      swap3\n      swap2\n      pop\n      pop\n      jump\t// out\n        /* \"#utility.yul\":1969:3198   */\n    tag_33:\n        /* \"#utility.yul\":2095:2101   */\n      0x00\n        /* \"#utility.yul\":2103:2109   */\n      dup1\n        /* \"#utility.yul\":2111:2117   */\n      0x00\n        /* \"#utility.yul\":2119:2125   */\n      dup1\n        /* \"#utility.yul\":2127:2133   */\n      0x00\n        /* \"#utility.yul\":2135:2141   */\n      dup1\n        /* \"#utility.yul\":2143:2149   */\n      0x00\n        /* \"#utility.yul\":2192:2195   */\n      0xe0\n        /* \"#utility.yul\":2180:2189   */\n      dup9\n        /* \"#utility.yul\":2171:2178   */\n      dup11\n        /* \"#utility.yul\":2167:2190   */\n      sub\n        /* \"#utility.yul\":2163:2196   */\n      slt\n        /* \"#utility.yul\":2160:2280   */\n      iszero\n      tag_415\n      jumpi\n        /* \"#utility.yul\":2199:2278   */\n      tag_416\n      tag_328\n      jump\t// in\n    tag_416:\n        /* \"#utility.yul\":2160:2280   */\n    tag_415:\n        /* \"#utility.yul\":2319:2320   */\n      0x00\n        /* \"#utility.yul\":2344:2394   */\n      tag_417\n        /* \"#utility.yul\":2386:2393   */\n      dup11\n        /* \"#utility.yul\":2377:2383   */\n      dup3\n        /* \"#utility.yul\":2366:2375   */\n      dup12\n        /* \"#utility.yul\":2362:2384   */\n      add\n        /* \"#utility.yul\":2344:2394   */\n      tag_332\n      jump\t// in\n    tag_417:\n        /* \"#utility.yul\":2334:2394   */\n      swap8\n      pop\n        /* \"#utility.yul\":2290:2404   */\n      pop\n        /* \"#utility.yul\":2443:2445   */\n      0x20\n        /* \"#utility.yul\":2469:2530   */\n      tag_418\n        /* \"#utility.yul\":2522:2529   */\n      dup11\n        /* \"#utility.yul\":2513:2519   */\n      dup3\n        /* \"#utility.yul\":2502:2511   */\n      dup12\n        /* \"#utility.yul\":2498:2520   */\n      add\n        /* \"#utility.yul\":2469:2530   */\n      tag_336\n      jump\t// in\n    tag_418:\n        /* \"#utility.yul\":2459:2530   */\n      swap7\n      pop\n        /* \"#utility.yul\":2414:2540   */\n      pop\n        /* \"#utility.yul\":2579:2581   */\n      0x40\n        /* \"#utility.yul\":2605:2658   */\n      tag_419\n        /* \"#utility.yul\":2650:2657   */\n      dup11\n        /* \"#utility.yul\":2641:2647   */\n      dup3\n        /* \"#utility.yul\":2630:2639   */\n      dup12\n        /* \"#utility.yul\":2626:2648   */\n      add\n        /* \"#utility.yul\":2605:2658   */\n      tag_339\n      jump\t// in\n    tag_419:\n        /* \"#utility.yul\":2595:2658   */\n      swap6\n      pop\n        /* \"#utility.yul\":2550:2668   */\n      pop\n        /* \"#utility.yul\":2707:2709   */\n      0x60\n        /* \"#utility.yul\":2733:2786   */\n      tag_420\n        /* \"#utility.yul\":2778:2785   */\n      dup11\n        /* \"#utility.yul\":2769:2775   */\n      dup3\n        /* \"#utility.yul\":2758:2767   */\n      dup12\n        /* \"#utility.yul\":2754:2776   */\n      add\n        /* \"#utility.yul\":2733:2786   */\n      tag_342\n      jump\t// in\n    tag_420:\n        /* \"#utility.yul\":2723:2786   */\n      swap5\n      pop\n        /* \"#utility.yul\":2678:2796   */\n      pop\n        /* \"#utility.yul\":2835:2838   */\n      0x80\n        /* \"#utility.yul\":2862:2915   */\n      tag_421\n        /* \"#utility.yul\":2907:2914   */\n      dup11\n        /* \"#utility.yul\":2898:2904   */\n      dup3\n        /* \"#utility.yul\":2887:2896   */\n      dup12\n        /* \"#utility.yul\":2883:2905   */\n      add\n        /* \"#utility.yul\":2862:2915   */\n      tag_342\n      jump\t// in\n    tag_421:\n        /* \"#utility.yul\":2852:2915   */\n      swap4\n      pop\n        /* \"#utility.yul\":2806:2925   */\n      pop\n        /* \"#utility.yul\":2964:2967   */\n      0xa0\n        /* \"#utility.yul\":2991:3052   */\n      tag_422\n        /* \"#utility.yul\":3044:3051   */\n      dup11\n        /* \"#utility.yul\":3035:3041   */\n      dup3\n        /* \"#utility.yul\":3024:3033   */\n      dup12\n        /* \"#utility.yul\":3020:3042   */\n      add\n        /* \"#utility.yul\":2991:3052   */\n      tag_336\n      jump\t// in\n    tag_422:\n        /* \"#utility.yul\":2981:3052   */\n      swap3\n      pop\n        /* \"#utility.yul\":2935:3062   */\n      pop\n        /* \"#utility.yul\":3101:3104   */\n      0xc0\n        /* \"#utility.yul\":3128:3181   */\n      tag_423\n        /* \"#utility.yul\":3173:3180   */\n      dup11\n        /* \"#utility.yul\":3164:3170   */\n      dup3\n        /* \"#utility.yul\":3153:3162   */\n      dup12\n        /* \"#utility.yul\":3149:3171   */\n      add\n        /* \"#utility.yul\":3128:3181   */\n      tag_339\n      jump\t// in\n    tag_423:\n        /* \"#utility.yul\":3118:3181   */\n      swap2\n      pop\n        /* \"#utility.yul\":3072:3191   */\n      pop\n        /* \"#utility.yul\":1969:3198   */\n      swap3\n      swap6\n      swap9\n      swap2\n      swap5\n      swap8\n      pop\n      swap3\n      swap6\n      pop\n      jump\t// out\n        /* \"#utility.yul\":3204:3313   */\n    tag_343:\n        /* \"#utility.yul\":3285:3306   */\n      tag_425\n        /* \"#utility.yul\":3300:3305   */\n      dup2\n        /* \"#utility.yul\":3285:3306   */\n      tag_330\n      jump\t// in\n    tag_425:\n        /* \"#utility.yul\":3280:3283   */\n      dup3\n        /* \"#utility.yul\":3273:3307   */\n      mstore\n        /* \"#utility.yul\":3204:3313   */\n      pop\n      pop\n      jump\t// out\n        /* \"#utility.yul\":3319:3529   */\n    tag_39:\n        /* \"#utility.yul\":3406:3410   */\n      0x00\n        /* \"#utility.yul\":3444:3446   */\n      0x20\n        /* \"#utility.yul\":3433:3442   */\n      dup3\n        /* \"#utility.yul\":3429:3447   */\n      add\n        /* \"#utility.yul\":3421:3447   */\n      swap1\n      pop\n        /* \"#utility.yul\":3457:3522   */\n      tag_427\n        /* \"#utility.yul\":3519:3520   */\n      0x00\n        /* \"#utility.yul\":3508:3517   */\n      dup4\n        /* \"#utility.yul\":3504:3521   */\n      add\n        /* \"#utility.yul\":3495:3501   */\n      dup5\n        /* \"#utility.yul\":3457:3522   */\n      tag_343\n      jump\t// in\n    tag_427:\n        /* \"#utility.yul\":3319:3529   */\n      swap3\n      swap2\n      pop\n      pop\n      jump\t// out\n        /* \"#utility.yul\":3535:4170   */\n    tag_43:\n        /* \"#utility.yul\":3620:3626   */\n      0x00\n        /* \"#utility.yul\":3628:3634   */\n      dup1\n        /* \"#utility.yul\":3636:3642   */\n      0x00\n        /* \"#utility.yul\":3685:3687   */\n      0x60\n        /* \"#utility.yul\":3673:3682   */\n      dup5\n        /* \"#utility.yul\":3664:3671   */\n      dup7\n        /* \"#utility.yul\":3660:3683   */\n      sub\n        /* \"#utility.yul\":3656:3688   */\n      slt\n        /* \"#utility.yul\":3653:3772   */\n      iszero\n      tag_429\n      jumpi\n        /* \"#utility.yul\":3691:3770   */\n      tag_430\n      tag_328\n      jump\t// in\n    tag_430:\n        /* \"#utility.yul\":3653:3772   */\n    tag_429:\n        /* \"#utility.yul\":3811:3812   */\n      0x00\n        /* \"#utility.yul\":3836:3897   */\n      tag_431\n        /* \"#utility.yul\":3889:3896   */\n      dup7\n        /* \"#utility.yul\":3880:3886   */\n      dup3\n        /* \"#utility.yul\":3869:3878   */\n      dup8\n        /* \"#utility.yul\":3865:3887   */\n      add\n        /* \"#utility.yul\":3836:3897   */\n      tag_336\n      jump\t// in\n    tag_431:\n        /* \"#utility.yul\":3826:3897   */\n      swap4\n      pop\n        /* \"#utility.yul\":3782:3907   */\n      pop\n        /* \"#utility.yul\":3946:3948   */\n      0x20\n        /* \"#utility.yul\":3972:4025   */\n      tag_432\n        /* \"#utility.yul\":4017:4024   */\n      dup7\n        /* \"#utility.yul\":4008:4014   */\n      dup3\n        /* \"#utility.yul\":3997:4006   */\n      dup8\n        /* \"#utility.yul\":3993:4015   */\n      add\n        /* \"#utility.yul\":3972:4025   */\n      tag_339\n      jump\t// in\n    tag_432:\n        /* \"#utility.yul\":3962:4025   */\n      swap3\n      pop\n        /* \"#utility.yul\":3917:4035   */\n      pop\n        /* \"#utility.yul\":4074:4076   */\n      0x40\n        /* \"#utility.yul\":4100:4153   */\n      tag_433\n        /* \"#utility.yul\":4145:4152   */\n      dup7\n        /* \"#utility.yul\":4136:4142   */\n      dup3\n        /* \"#utility.yul\":4125:4134   */\n      dup8\n        /* \"#utility.yul\":4121:4143   */\n      add\n        /* \"#utility.yul\":4100:4153   */\n      tag_342\n      jump\t// in\n    tag_433:\n        /* \"#utility.yul\":4090:4153   */\n      swap2\n      pop\n        /* \"#utility.yul\":4045:4163   */\n      pop\n        /* \"#utility.yul\":3535:4170   */\n      swap3\n      pop\n      swap3\n      pop\n      swap3\n      jump\t// out\n        /* \"#utility.yul\":4176:4644   */\n    tag_48:\n        /* \"#utility.yul\":4241:4247   */\n      0x00\n        /* \"#utility.yul\":4249:4255   */\n      dup1\n        /* \"#utility.yul\":4298:4300   */\n      0x40\n        /* \"#utility.yul\":4286:4295   */\n      dup4\n        /* \"#utility.yul\":4277:4284   */\n      dup6\n        /* \"#utility.yul\":4273:4296   */\n      sub\n        /* \"#utility.yul\":4269:4301   */\n      slt\n        /* \"#utility.yul\":4266:4385   */\n      iszero\n      tag_435\n      jumpi\n        /* \"#utility.yul\":4304:4383   */\n      tag_436\n      tag_328\n      jump\t// in\n    tag_436:\n        /* \"#utility.yul\":4266:4385   */\n    tag_435:\n        /* \"#utility.yul\":4424:4425   */\n      0x00\n        /* \"#utility.yul\":4449:4499   */\n      tag_437\n        /* \"#utility.yul\":4491:4498   */\n      dup6\n        /* \"#utility.yul\":4482:4488   */\n      dup3\n        /* \"#utility.yul\":4471:4480   */\n      dup7\n        /* \"#utility.yul\":4467:4489   */\n      add\n        /* \"#utility.yul\":4449:4499   */\n      tag_332\n      jump\t// in\n    tag_437:\n        /* \"#utility.yul\":4439:4499   */\n      swap3\n      pop\n        /* \"#utility.yul\":4395:4509   */\n      pop\n        /* \"#utility.yul\":4548:4550   */\n      0x20\n        /* \"#utility.yul\":4574:4627   */\n      tag_438\n        /* \"#utility.yul\":4619:4626   */\n      dup6\n        /* \"#utility.yul\":4610:4616   */\n      dup3\n        /* \"#utility.yul\":4599:4608   */\n      dup7\n        /* \"#utility.yul\":4595:4617   */\n      add\n        /* \"#utility.yul\":4574:4627   */\n      tag_342\n      jump\t// in\n    tag_438:\n        /* \"#utility.yul\":4564:4627   */\n      swap2\n      pop\n        /* \"#utility.yul\":4519:4637   */\n      pop\n        /* \"#utility.yul\":4176:4644   */\n      swap3\n      pop\n      swap3\n      swap1\n      pop\n      jump\t// out\n        /* \"#utility.yul\":4650:4768   */\n    tag_344:\n        /* \"#utility.yul\":4737:4761   */\n      tag_440\n        /* \"#utility.yul\":4755:4760   */\n      dup2\n        /* \"#utility.yul\":4737:4761   */\n      tag_337\n      jump\t// in\n    tag_440:\n        /* \"#utility.yul\":4732:4735   */\n      dup3\n        /* \"#utility.yul\":4725:4762   */\n      mstore\n        /* \"#utility.yul\":4650:4768   */\n      pop\n      pop\n      jump\t// out\n        /* \"#utility.yul\":4774:4996   */\n    tag_51:\n        /* \"#utility.yul\":4867:4871   */\n      0x00\n        /* \"#utility.yul\":4905:4907   */\n      0x20\n        /* \"#utility.yul\":4894:4903   */\n      dup3\n        /* \"#utility.yul\":4890:4908   */\n      add\n        /* \"#utility.yul\":4882:4908   */\n      swap1\n      pop\n        /* \"#utility.yul\":4918:4989   */\n      tag_442\n        /* \"#utility.yul\":4986:4987   */\n      0x00\n        /* \"#utility.yul\":4975:4984   */\n      dup4\n        /* \"#utility.yul\":4971:4988   */\n      add\n        /* \"#utility.yul\":4962:4968   */\n      dup5\n        /* \"#utility.yul\":4918:4989   */\n      tag_344\n      jump\t// in\n    tag_442:\n        /* \"#utility.yul\":4774:4996   */\n      swap3\n      swap2\n      pop\n      pop\n      jump\t// out\n        /* \"#utility.yul\":5002:5120   */\n    tag_345:\n        /* \"#utility.yul\":5089:5113   */\n      tag_444\n        /* \"#utility.yul\":5107:5112   */\n      dup2\n        /* \"#utility.yul\":5089:5113   */\n      tag_340\n      jump\t// in\n    tag_444:\n        /* \"#utility.yul\":5084:5087   */\n      dup3\n        /* \"#utility.yul\":5077:5114   */\n      mstore\n        /* \"#utility.yul\":5002:5120   */\n      pop\n      pop\n      jump\t// out\n        /* \"#utility.yul\":5126:5348   */\n    tag_56:\n        /* \"#utility.yul\":5219:5223   */\n      0x00\n        /* \"#utility.yul\":5257:5259   */\n      0x20\n        /* \"#utility.yul\":5246:5255   */\n      dup3\n        /* \"#utility.yul\":5242:5260   */\n      add\n        /* \"#utility.yul\":5234:5260   */\n      swap1\n      pop\n        /* \"#utility.yul\":5270:5341   */\n      tag_446\n        /* \"#utility.yul\":5338:5339   */\n      0x00\n        /* \"#utility.yul\":5327:5336   */\n      dup4\n        /* \"#utility.yul\":5323:5340   */\n      add\n        /* \"#utility.yul\":5314:5320   */\n      dup5\n        /* \"#utility.yul\":5270:5341   */\n      tag_345\n      jump\t// in\n    tag_446:\n        /* \"#utility.yul\":5126:5348   */\n      swap3\n      swap2\n      pop\n      pop\n      jump\t// out\n        /* \"#utility.yul\":5354:5989   */\n    tag_63:\n        /* \"#utility.yul\":5439:5445   */\n      0x00\n        /* \"#utility.yul\":5447:5453   */\n      dup1\n        /* \"#utility.yul\":5455:5461   */\n      0x00\n        /* \"#utility.yul\":5504:5506   */\n      0x60\n        /* \"#utility.yul\":5492:5501   */\n      dup5\n        /* \"#utility.yul\":5483:5490   */\n      dup7\n        /* \"#utility.yul\":5479:5502   */\n      sub\n        /* \"#utility.yul\":5475:5507   */\n      slt\n        /* \"#utility.yul\":5472:5591   */\n      iszero\n      tag_448\n      jumpi\n        /* \"#utility.yul\":5510:5589   */\n      tag_449\n      tag_328\n      jump\t// in\n    tag_449:\n        /* \"#utility.yul\":5472:5591   */\n    tag_448:\n        /* \"#utility.yul\":5630:5631   */\n      0x00\n        /* \"#utility.yul\":5655:5708   */\n      tag_450\n        /* \"#utility.yul\":5700:5707   */\n      dup7\n        /* \"#utility.yul\":5691:5697   */\n      dup3\n        /* \"#utility.yul\":5680:5689   */\n      dup8\n        /* \"#utility.yul\":5676:5698   */\n      add\n        /* \"#utility.yul\":5655:5708   */\n      tag_339\n      jump\t// in\n    tag_450:\n        /* \"#utility.yul\":5645:5708   */\n      swap4\n      pop\n        /* \"#utility.yul\":5601:5718   */\n      pop\n        /* \"#utility.yul\":5757:5759   */\n      0x20\n        /* \"#utility.yul\":5783:5836   */\n      tag_451\n        /* \"#utility.yul\":5828:5835   */\n      dup7\n        /* \"#utility.yul\":5819:5825   */\n      dup3\n        /* \"#utility.yul\":5808:5817   */\n      dup8\n        /* \"#utility.yul\":5804:5826   */\n      add\n        /* \"#utility.yul\":5783:5836   */\n      tag_342\n      jump\t// in\n    tag_451:\n        /* \"#utility.yul\":5773:5836   */\n      swap3\n      pop\n        /* \"#utility.yul\":5728:5846   */\n      pop\n        /* \"#utility.yul\":5885:5887   */\n      0x40\n        /* \"#utility.yul\":5911:5972   */\n      tag_452\n        /* \"#utility.yul\":5964:5971   */\n      dup7\n        /* \"#utility.yul\":5955:5961   */\n      dup3\n        /* \"#utility.yul\":5944:5953   */\n      dup8\n        /* \"#utility.yul\":5940:5962   */\n      add\n        /* \"#utility.yul\":5911:5972   */\n      tag_336\n      jump\t// in\n    tag_452:\n        /* \"#utility.yul\":5901:5972   */\n      swap2\n      pop\n        /* \"#utility.yul\":5856:5982   */\n      pop\n        /* \"#utility.yul\":5354:5989   */\n      swap3\n      pop\n      swap3\n      pop\n      swap3\n      jump\t// out\n        /* \"#utility.yul\":5995:6614   */\n    tag_68:\n        /* \"#utility.yul\":6072:6078   */\n      0x00\n        /* \"#utility.yul\":6080:6086   */\n      dup1\n        /* \"#utility.yul\":6088:6094   */\n      0x00\n        /* \"#utility.yul\":6137:6139   */\n      0x60\n        /* \"#utility.yul\":6125:6134   */\n      dup5\n        /* \"#utility.yul\":6116:6123   */\n      dup7\n        /* \"#utility.yul\":6112:6135   */\n      sub\n        /* \"#utility.yul\":6108:6140   */\n      slt\n        /* \"#utility.yul\":6105:6224   */\n      iszero\n      tag_454\n      jumpi\n        /* \"#utility.yul\":6143:6222   */\n      tag_455\n      tag_328\n      jump\t// in\n    tag_455:\n        /* \"#utility.yul\":6105:6224   */\n    tag_454:\n        /* \"#utility.yul\":6263:6264   */\n      0x00\n        /* \"#utility.yul\":6288:6341   */\n      tag_456\n        /* \"#utility.yul\":6333:6340   */\n      dup7\n        /* \"#utility.yul\":6324:6330   */\n      dup3\n        /* \"#utility.yul\":6313:6322   */\n      dup8\n        /* \"#utility.yul\":6309:6331   */\n      add\n        /* \"#utility.yul\":6288:6341   */\n      tag_342\n      jump\t// in\n    tag_456:\n        /* \"#utility.yul\":6278:6341   */\n      swap4\n      pop\n        /* \"#utility.yul\":6234:6351   */\n      pop\n        /* \"#utility.yul\":6390:6392   */\n      0x20\n        /* \"#utility.yul\":6416:6469   */\n      tag_457\n        /* \"#utility.yul\":6461:6468   */\n      dup7\n        /* \"#utility.yul\":6452:6458   */\n      dup3\n        /* \"#utility.yul\":6441:6450   */\n      dup8\n        /* \"#utility.yul\":6437:6459   */\n      add\n        /* \"#utility.yul\":6416:6469   */\n      tag_339\n      jump\t// in\n    tag_457:\n        /* \"#utility.yul\":6406:6469   */\n      swap3\n      pop\n        /* \"#utility.yul\":6361:6479   */\n      pop\n        /* \"#utility.yul\":6518:6520   */\n      0x40\n        /* \"#utility.yul\":6544:6597   */\n      tag_458\n        /* \"#utility.yul\":6589:6596   */\n      dup7\n        /* \"#utility.yul\":6580:6586   */\n      dup3\n        /* \"#utility.yul\":6569:6578   */\n      dup8\n        /* \"#utility.yul\":6565:6587   */\n      add\n        /* \"#utility.yul\":6544:6597   */\n      tag_342\n      jump\t// in\n    tag_458:\n        /* \"#utility.yul\":6534:6597   */\n      swap2\n      pop\n        /* \"#utility.yul\":6489:6607   */\n      pop\n        /* \"#utility.yul\":5995:6614   */\n      swap3\n      pop\n      swap3\n      pop\n      swap3\n      jump\t// out\n        /* \"#utility.yul\":6620:6762   */\n    tag_346:\n        /* \"#utility.yul\":6723:6755   */\n      tag_460\n        /* \"#utility.yul\":6749:6754   */\n      dup2\n        /* \"#utility.yul\":6723:6755   */\n      tag_334\n      jump\t// in\n    tag_460:\n        /* \"#utility.yul\":6718:6721   */\n      dup3\n        /* \"#utility.yul\":6711:6756   */\n      mstore\n        /* \"#utility.yul\":6620:6762   */\n      pop\n      pop\n      jump\t// out\n        /* \"#utility.yul\":6768:7022   */\n    tag_74:\n        /* \"#utility.yul\":6877:6881   */\n      0x00\n        /* \"#utility.yul\":6915:6917   */\n      0x20\n        /* \"#utility.yul\":6904:6913   */\n      dup3\n        /* \"#utility.yul\":6900:6918   */\n      add\n        /* \"#utility.yul\":6892:6918   */\n      swap1\n      pop\n        /* \"#utility.yul\":6928:7015   */\n      tag_462\n        /* \"#utility.yul\":7012:7013   */\n      0x00\n        /* \"#utility.yul\":7001:7010   */\n      dup4\n        /* \"#utility.yul\":6997:7014   */\n      add\n        /* \"#utility.yul\":6988:6994   */\n      dup5\n        /* \"#utility.yul\":6928:7015   */\n      tag_346\n      jump\t// in\n    tag_462:\n        /* \"#utility.yul\":6768:7022   */\n      swap3\n      swap2\n      pop\n      pop\n      jump\t// out\n        /* \"#utility.yul\":7028:7357   */\n    tag_78:\n        /* \"#utility.yul\":7087:7093   */\n      0x00\n        /* \"#utility.yul\":7136:7138   */\n      0x20\n        /* \"#utility.yul\":7124:7133   */\n      dup3\n        /* \"#utility.yul\":7115:7122   */\n      dup5\n        /* \"#utility.yul\":7111:7134   */\n      sub\n        /* \"#utility.yul\":7107:7139   */\n      slt\n        /* \"#utility.yul\":7104:7223   */\n      iszero\n      tag_464\n      jumpi\n        /* \"#utility.yul\":7142:7221   */\n      tag_465\n      tag_328\n      jump\t// in\n    tag_465:\n        /* \"#utility.yul\":7104:7223   */\n    tag_464:\n        /* \"#utility.yul\":7262:7263   */\n      0x00\n        /* \"#utility.yul\":7287:7340   */\n      tag_466\n        /* \"#utility.yul\":7332:7339   */\n      dup5\n        /* \"#utility.yul\":7323:7329   */\n      dup3\n        /* \"#utility.yul\":7312:7321   */\n      dup6\n        /* \"#utility.yul\":7308:7330   */\n      add\n        /* \"#utility.yul\":7287:7340   */\n      tag_342\n      jump\t// in\n    tag_466:\n        /* \"#utility.yul\":7277:7340   */\n      swap2\n      pop\n        /* \"#utility.yul\":7233:7350   */\n      pop\n        /* \"#utility.yul\":7028:7357   */\n      swap3\n      swap2\n      pop\n      pop\n      jump\t// out\n        /* \"#utility.yul\":7363:8430   */\n    tag_94:\n        /* \"#utility.yul\":7472:7478   */\n      0x00\n        /* \"#utility.yul\":7480:7486   */\n      dup1\n        /* \"#utility.yul\":7488:7494   */\n      0x00\n        /* \"#utility.yul\":7496:7502   */\n      dup1\n        /* \"#utility.yul\":7504:7510   */\n      0x00\n        /* \"#utility.yul\":7512:7518   */\n      dup1\n        /* \"#utility.yul\":7561:7564   */\n      0xc0\n        /* \"#utility.yul\":7549:7558   */\n      dup8\n        /* \"#utility.yul\":7540:7547   */\n      dup10\n        /* \"#utility.yul\":7536:7559   */\n      sub\n        /* \"#utility.yul\":7532:7565   */\n      slt\n        /* \"#utility.yul\":7529:7649   */\n      iszero\n      tag_468\n      jumpi\n        /* \"#utility.yul\":7568:7647   */\n      tag_469\n      tag_328\n      jump\t// in\n    tag_469:\n        /* \"#utility.yul\":7529:7649   */\n    tag_468:\n        /* \"#utility.yul\":7688:7689   */\n      0x00\n        /* \"#utility.yul\":7713:7763   */\n      tag_470\n        /* \"#utility.yul\":7755:7762   */\n      dup10\n        /* \"#utility.yul\":7746:7752   */\n      dup3\n        /* \"#utility.yul\":7735:7744   */\n      dup11\n        /* \"#utility.yul\":7731:7753   */\n      add\n        /* \"#utility.yul\":7713:7763   */\n      tag_332\n      jump\t// in\n    tag_470:\n        /* \"#utility.yul\":7703:7763   */\n      swap7\n      pop\n        /* \"#utility.yul\":7659:7773   */\n      pop\n        /* \"#utility.yul\":7812:7814   */\n      0x20\n        /* \"#utility.yul\":7838:7891   */\n      tag_471\n        /* \"#utility.yul\":7883:7890   */\n      dup10\n        /* \"#utility.yul\":7874:7880   */\n      dup3\n        /* \"#utility.yul\":7863:7872   */\n      dup11\n        /* \"#utility.yul\":7859:7881   */\n      add\n        /* \"#utility.yul\":7838:7891   */\n      tag_339\n      jump\t// in\n    tag_471:\n        /* \"#utility.yul\":7828:7891   */\n      swap6\n      pop\n        /* \"#utility.yul\":7783:7901   */\n      pop\n        /* \"#utility.yul\":7940:7942   */\n      0x40\n        /* \"#utility.yul\":7966:8019   */\n      tag_472\n        /* \"#utility.yul\":8011:8018   */\n      dup10\n        /* \"#utility.yul\":8002:8008   */\n      dup3\n        /* \"#utility.yul\":7991:8000   */\n      dup11\n        /* \"#utility.yul\":7987:8009   */\n      add\n        /* \"#utility.yul\":7966:8019   */\n      tag_342\n      jump\t// in\n    tag_472:\n        /* \"#utility.yul\":7956:8019   */\n      swap5\n      pop\n        /* \"#utility.yul\":7911:8029   */\n      pop\n        /* \"#utility.yul\":8068:8070   */\n      0x60\n        /* \"#utility.yul\":8094:8147   */\n      tag_473\n        /* \"#utility.yul\":8139:8146   */\n      dup10\n        /* \"#utility.yul\":8130:8136   */\n      dup3\n        /* \"#utility.yul\":8119:8128   */\n      dup11\n        /* \"#utility.yul\":8115:8137   */\n      add\n        /* \"#utility.yul\":8094:8147   */\n      tag_342\n      jump\t// in\n    tag_473:\n        /* \"#utility.yul\":8084:8147   */\n      swap4\n      pop\n        /* \"#utility.yul\":8039:8157   */\n      pop\n        /* \"#utility.yul\":8196:8199   */\n      0x80\n        /* \"#utility.yul\":8223:8284   */\n      tag_474\n        /* \"#utility.yul\":8276:8283   */\n      dup10\n        /* \"#utility.yul\":8267:8273   */\n      dup3\n        /* \"#utility.yul\":8256:8265   */\n      dup11\n        /* \"#utility.yul\":8252:8274   */\n      add\n        /* \"#utility.yul\":8223:8284   */\n      tag_336\n      jump\t// in\n    tag_474:\n        /* \"#utility.yul\":8213:8284   */\n      swap3\n      pop\n        /* \"#utility.yul\":8167:8294   */\n      pop\n        /* \"#utility.yul\":8333:8336   */\n      0xa0\n        /* \"#utility.yul\":8360:8413   */\n      tag_475\n        /* \"#utility.yul\":8405:8412   */\n      dup10\n        /* \"#utility.yul\":8396:8402   */\n      dup3\n        /* \"#utility.yul\":8385:8394   */\n      dup11\n        /* \"#utility.yul\":8381:8403   */\n      add\n        /* \"#utility.yul\":8360:8413   */\n      tag_339\n      jump\t// in\n    tag_475:\n        /* \"#utility.yul\":8350:8413   */\n      swap2\n      pop\n        /* \"#utility.yul\":8304:8423   */\n      pop\n        /* \"#utility.yul\":7363:8430   */\n      swap3\n      swap6\n      pop\n      swap3\n      swap6\n      pop\n      swap3\n      swap6\n      jump\t// out\n        /* \"#utility.yul\":8436:9087   */\n    tag_107:\n        /* \"#utility.yul\":8529:8535   */\n      0x00\n        /* \"#utility.yul\":8537:8543   */\n      dup1\n        /* \"#utility.yul\":8545:8551   */\n      0x00\n        /* \"#utility.yul\":8594:8596   */\n      0x60\n        /* \"#utility.yul\":8582:8591   */\n      dup5\n        /* \"#utility.yul\":8573:8580   */\n      dup7\n        /* \"#utility.yul\":8569:8592   */\n      sub\n        /* \"#utility.yul\":8565:8597   */\n      slt\n        /* \"#utility.yul\":8562:8681   */\n      iszero\n      tag_477\n      jumpi\n        /* \"#utility.yul\":8600:8679   */\n      tag_478\n      tag_328\n      jump\t// in\n    tag_478:\n        /* \"#utility.yul\":8562:8681   */\n    tag_477:\n        /* \"#utility.yul\":8720:8721   */\n      0x00\n        /* \"#utility.yul\":8745:8798   */\n      tag_479\n        /* \"#utility.yul\":8790:8797   */\n      dup7\n        /* \"#utility.yul\":8781:8787   */\n      dup3\n        /* \"#utility.yul\":8770:8779   */\n      dup8\n        /* \"#utility.yul\":8766:8788   */\n      add\n        /* \"#utility.yul\":8745:8798   */\n      tag_342\n      jump\t// in\n    tag_479:\n        /* \"#utility.yul\":8735:8798   */\n      swap4\n      pop\n        /* \"#utility.yul\":8691:8808   */\n      pop\n        /* \"#utility.yul\":8847:8849   */\n      0x20\n        /* \"#utility.yul\":8873:8934   */\n      tag_480\n        /* \"#utility.yul\":8926:8933   */\n      dup7\n        /* \"#utility.yul\":8917:8923   */\n      dup3\n        /* \"#utility.yul\":8906:8915   */\n      dup8\n        /* \"#utility.yul\":8902:8924   */\n      add\n        /* \"#utility.yul\":8873:8934   */\n      tag_336\n      jump\t// in\n    tag_480:\n        /* \"#utility.yul\":8863:8934   */\n      swap3\n      pop\n        /* \"#utility.yul\":8818:8944   */\n      pop\n        /* \"#utility.yul\":8983:8985   */\n      0x40\n        /* \"#utility.yul\":9009:9070   */\n      tag_481\n        /* \"#utility.yul\":9062:9069   */\n      dup7\n        /* \"#utility.yul\":9053:9059   */\n      dup3\n        /* \"#utility.yul\":9042:9051   */\n      dup8\n        /* \"#utility.yul\":9038:9060   */\n      add\n        /* \"#utility.yul\":9009:9070   */\n      tag_336\n      jump\t// in\n    tag_481:\n        /* \"#utility.yul\":8999:9070   */\n      swap2\n      pop\n        /* \"#utility.yul\":8954:9080   */\n      pop\n        /* \"#utility.yul\":8436:9087   */\n      swap3\n      pop\n      swap3\n      pop\n      swap3\n      jump\t// out\n        /* \"#utility.yul\":9093:9890   */\n    tag_124:\n        /* \"#utility.yul\":9195:9201   */\n      0x00\n        /* \"#utility.yul\":9203:9209   */\n      dup1\n        /* \"#utility.yul\":9211:9217   */\n      0x00\n        /* \"#utility.yul\":9219:9225   */\n      dup1\n        /* \"#utility.yul\":9268:9271   */\n      0x80\n        /* \"#utility.yul\":9256:9265   */\n      dup6\n        /* \"#utility.yul\":9247:9254   */\n      dup8\n        /* \"#utility.yul\":9243:9266   */\n      sub\n        /* \"#utility.yul\":9239:9272   */\n      slt\n        /* \"#utility.yul\":9236:9356   */\n      iszero\n      tag_483\n      jumpi\n        /* \"#utility.yul\":9275:9354   */\n      tag_484\n      tag_328\n      jump\t// in\n    tag_484:\n        /* \"#utility.yul\":9236:9356   */\n    tag_483:\n        /* \"#utility.yul\":9395:9396   */\n      0x00\n        /* \"#utility.yul\":9420:9473   */\n      tag_485\n        /* \"#utility.yul\":9465:9472   */\n      dup8\n        /* \"#utility.yul\":9456:9462   */\n      dup3\n        /* \"#utility.yul\":9445:9454   */\n      dup9\n        /* \"#utility.yul\":9441:9463   */\n      add\n        /* \"#utility.yul\":9420:9473   */\n      tag_339\n      jump\t// in\n    tag_485:\n        /* \"#utility.yul\":9410:9473   */\n      swap5\n      pop\n        /* \"#utility.yul\":9366:9483   */\n      pop\n        /* \"#utility.yul\":9522:9524   */\n      0x20\n        /* \"#utility.yul\":9548:9609   */\n      tag_486\n        /* \"#utility.yul\":9601:9608   */\n      dup8\n        /* \"#utility.yul\":9592:9598   */\n      dup3\n        /* \"#utility.yul\":9581:9590   */\n      dup9\n        /* \"#utility.yul\":9577:9599   */\n      add\n        /* \"#utility.yul\":9548:9609   */\n      tag_336\n      jump\t// in\n    tag_486:\n        /* \"#utility.yul\":9538:9609   */\n      swap4\n      pop\n        /* \"#utility.yul\":9493:9619   */\n      pop\n        /* \"#utility.yul\":9658:9660   */\n      0x40\n        /* \"#utility.yul\":9684:9737   */\n      tag_487\n        /* \"#utility.yul\":9729:9736   */\n      dup8\n        /* \"#utility.yul\":9720:9726   */\n      dup3\n        /* \"#utility.yul\":9709:9718   */\n      dup9\n        /* \"#utility.yul\":9705:9727   */\n      add\n        /* \"#utility.yul\":9684:9737   */\n      tag_342\n      jump\t// in\n    tag_487:\n        /* \"#utility.yul\":9674:9737   */\n      swap3\n      pop\n        /* \"#utility.yul\":9629:9747   */\n      pop\n        /* \"#utility.yul\":9786:9788   */\n      0x60\n        /* \"#utility.yul\":9812:9873   */\n      tag_488\n        /* \"#utility.yul\":9865:9872   */\n      dup8\n        /* \"#utility.yul\":9856:9862   */\n      dup3\n        /* \"#utility.yul\":9845:9854   */\n      dup9\n        /* \"#utility.yul\":9841:9863   */\n      add\n        /* \"#utility.yul\":9812:9873   */\n      tag_336\n      jump\t// in\n    tag_488:\n        /* \"#utility.yul\":9802:9873   */\n      swap2\n      pop\n        /* \"#utility.yul\":9757:9883   */\n      pop\n        /* \"#utility.yul\":9093:9890   */\n      swap3\n      swap6\n      swap2\n      swap5\n      pop\n      swap3\n      pop\n      jump\t// out\n        /* \"#utility.yul\":9896:9956   */\n    tag_347:\n        /* \"#utility.yul\":9924:9927   */\n      0x00\n        /* \"#utility.yul\":9945:9950   */\n      dup2\n        /* \"#utility.yul\":9938:9950   */\n      swap1\n      pop\n        /* \"#utility.yul\":9896:9956   */\n      swap2\n      swap1\n      pop\n      jump\t// out\n        /* \"#utility.yul\":9962:10104   */\n    tag_348:\n        /* \"#utility.yul\":10012:10021   */\n      0x00\n        /* \"#utility.yul\":10045:10098   */\n      tag_491\n        /* \"#utility.yul\":10063:10097   */\n      tag_492\n        /* \"#utility.yul\":10072:10096   */\n      tag_493\n        /* \"#utility.yul\":10090:10095   */\n      dup5\n        /* \"#utility.yul\":10072:10096   */\n      tag_333\n      jump\t// in\n    tag_493:\n        /* \"#utility.yul\":10063:10097   */\n      tag_347\n      jump\t// in\n    tag_492:\n        /* \"#utility.yul\":10045:10098   */\n      tag_333\n      jump\t// in\n    tag_491:\n        /* \"#utility.yul\":10032:10098   */\n      swap1\n      pop\n        /* \"#utility.yul\":9962:10104   */\n      swap2\n      swap1\n      pop\n      jump\t// out\n        /* \"#utility.yul\":10110:10236   */\n    tag_349:\n        /* \"#utility.yul\":10160:10169   */\n      0x00\n        /* \"#utility.yul\":10193:10230   */\n      tag_495\n        /* \"#utility.yul\":10224:10229   */\n      dup3\n        /* \"#utility.yul\":10193:10230   */\n      tag_348\n      jump\t// in\n    tag_495:\n        /* \"#utility.yul\":10180:10230   */\n      swap1\n      pop\n        /* \"#utility.yul\":10110:10236   */\n      swap2\n      swap1\n      pop\n      jump\t// out\n        /* \"#utility.yul\":10242:10381   */\n    tag_350:\n        /* \"#utility.yul\":10305:10314   */\n      0x00\n        /* \"#utility.yul\":10338:10375   */\n      tag_497\n        /* \"#utility.yul\":10369:10374   */\n      dup3\n        /* \"#utility.yul\":10338:10375   */\n      tag_349\n      jump\t// in\n    tag_497:\n        /* \"#utility.yul\":10325:10375   */\n      swap1\n      pop\n        /* \"#utility.yul\":10242:10381   */\n      swap2\n      swap1\n      pop\n      jump\t// out\n        /* \"#utility.yul\":10387:10544   */\n    tag_351:\n        /* \"#utility.yul\":10487:10537   */\n      tag_499\n        /* \"#utility.yul\":10531:10536   */\n      dup2\n        /* \"#utility.yul\":10487:10537   */\n      tag_350\n      jump\t// in\n    tag_499:\n        /* \"#utility.yul\":10482:10485   */\n      dup3\n        /* \"#utility.yul\":10475:10538   */\n      mstore\n        /* \"#utility.yul\":10387:10544   */\n      pop\n      pop\n      jump\t// out\n        /* \"#utility.yul\":10550:10798   */\n    tag_134:\n        /* \"#utility.yul\":10656:10660   */\n      0x00\n        /* \"#utility.yul\":10694:10696   */\n      0x20\n        /* \"#utility.yul\":10683:10692   */\n      dup3\n        /* \"#utility.yul\":10679:10697   */\n      add\n        /* \"#utility.yul\":10671:10697   */\n      swap1\n      pop\n        /* \"#utility.yul\":10707:10791   */\n      tag_501\n        /* \"#utility.yul\":10788:10789   */\n      0x00\n        /* \"#utility.yul\":10777:10786   */\n      dup4\n        /* \"#utility.yul\":10773:10790   */\n      add\n        /* \"#utility.yul\":10764:10770   */\n      dup5\n        /* \"#utility.yul\":10707:10791   */\n      tag_351\n      jump\t// in\n    tag_501:\n        /* \"#utility.yul\":10550:10798   */\n      swap3\n      swap2\n      pop\n      pop\n      jump\t// out\n        /* \"#utility.yul\":10804:10973   */\n    tag_352:\n        /* \"#utility.yul\":10888:10899   */\n      0x00\n        /* \"#utility.yul\":10922:10928   */\n      dup3\n        /* \"#utility.yul\":10917:10920   */\n      dup3\n        /* \"#utility.yul\":10910:10929   */\n      mstore\n        /* \"#utility.yul\":10962:10966   */\n      0x20\n        /* \"#utility.yul\":10957:10960   */\n      dup3\n        /* \"#utility.yul\":10953:10967   */\n      add\n        /* \"#utility.yul\":10938:10967   */\n      swap1\n      pop\n        /* \"#utility.yul\":10804:10973   */\n      swap3\n      swap2\n      pop\n      pop\n      jump\t// out\n        /* \"#utility.yul\":10979:11219   */\n    tag_353:\n        /* \"#utility.yul\":11119:11153   */\n      0x4f6e6c7920746865206f776e6572206f72207468652062656e65666963696172\n        /* \"#utility.yul\":11115:11116   */\n      0x00\n        /* \"#utility.yul\":11107:11113   */\n      dup3\n        /* \"#utility.yul\":11103:11117   */\n      add\n        /* \"#utility.yul\":11096:11154   */\n      mstore\n        /* \"#utility.yul\":11188:11211   */\n      0x792063616e2077697468647261772066756e64732e0000000000000000000000\n        /* \"#utility.yul\":11183:11185   */\n      0x20\n        /* \"#utility.yul\":11175:11181   */\n      dup3\n        /* \"#utility.yul\":11171:11186   */\n      add\n        /* \"#utility.yul\":11164:11212   */\n      mstore\n        /* \"#utility.yul\":10979:11219   */\n      pop\n      jump\t// out\n        /* \"#utility.yul\":11225:11591   */\n    tag_354:\n        /* \"#utility.yul\":11367:11370   */\n      0x00\n        /* \"#utility.yul\":11388:11455   */\n      tag_505\n        /* \"#utility.yul\":11452:11454   */\n      0x35\n        /* \"#utility.yul\":11447:11450   */\n      dup4\n        /* \"#utility.yul\":11388:11455   */\n      tag_352\n      jump\t// in\n    tag_505:\n        /* \"#utility.yul\":11381:11455   */\n      swap2\n      pop\n        /* \"#utility.yul\":11464:11557   */\n      tag_506\n        /* \"#utility.yul\":11553:11556   */\n      dup3\n        /* \"#utility.yul\":11464:11557   */\n      tag_353\n      jump\t// in\n    tag_506:\n        /* \"#utility.yul\":11582:11584   */\n      0x40\n        /* \"#utility.yul\":11577:11580   */\n      dup3\n        /* \"#utility.yul\":11573:11585   */\n      add\n        /* \"#utility.yul\":11566:11585   */\n      swap1\n      pop\n        /* \"#utility.yul\":11225:11591   */\n      swap2\n      swap1\n      pop\n      jump\t// out\n        /* \"#utility.yul\":11597:12016   */\n    tag_149:\n        /* \"#utility.yul\":11763:11767   */\n      0x00\n        /* \"#utility.yul\":11801:11803   */\n      0x20\n        /* \"#utility.yul\":11790:11799   */\n      dup3\n        /* \"#utility.yul\":11786:11804   */\n      add\n        /* \"#utility.yul\":11778:11804   */\n      swap1\n      pop\n        /* \"#utility.yul\":11850:11859   */\n      dup2\n        /* \"#utility.yul\":11844:11848   */\n      dup2\n        /* \"#utility.yul\":11840:11860   */\n      sub\n        /* \"#utility.yul\":11836:11837   */\n      0x00\n        /* \"#utility.yul\":11825:11834   */\n      dup4\n        /* \"#utility.yul\":11821:11838   */\n      add\n        /* \"#utility.yul\":11814:11861   */\n      mstore\n        /* \"#utility.yul\":11878:12009   */\n      tag_508\n        /* \"#utility.yul\":12004:12008   */\n      dup2\n        /* \"#utility.yul\":11878:12009   */\n      tag_354\n      jump\t// in\n    tag_508:\n        /* \"#utility.yul\":11870:12009   */\n      swap1\n      pop\n        /* \"#utility.yul\":11597:12016   */\n      swap2\n      swap1\n      pop\n      jump\t// out\n        /* \"#utility.yul\":12022:12202   */\n    tag_355:\n        /* \"#utility.yul\":12070:12147   */\n      0x4e487b7100000000000000000000000000000000000000000000000000000000\n        /* \"#utility.yul\":12067:12068   */\n      0x00\n        /* \"#utility.yul\":12060:12148   */\n      mstore\n        /* \"#utility.yul\":12167:12171   */\n      0x11\n        /* \"#utility.yul\":12164:12165   */\n      0x04\n        /* \"#utility.yul\":12157:12172   */\n      mstore\n        /* \"#utility.yul\":12191:12195   */\n      0x24\n        /* \"#utility.yul\":12188:12189   */\n      0x00\n        /* \"#utility.yul\":12181:12196   */\n      revert\n        /* \"#utility.yul\":12208:12399   */\n    tag_153:\n        /* \"#utility.yul\":12248:12251   */\n      0x00\n        /* \"#utility.yul\":12267:12287   */\n      tag_511\n        /* \"#utility.yul\":12285:12286   */\n      dup3\n        /* \"#utility.yul\":12267:12287   */\n      tag_337\n      jump\t// in\n    tag_511:\n        /* \"#utility.yul\":12262:12287   */\n      swap2\n      pop\n        /* \"#utility.yul\":12301:12321   */\n      tag_512\n        /* \"#utility.yul\":12319:12320   */\n      dup4\n        /* \"#utility.yul\":12301:12321   */\n      tag_337\n      jump\t// in\n    tag_512:\n        /* \"#utility.yul\":12296:12321   */\n      swap3\n      pop\n        /* \"#utility.yul\":12344:12345   */\n      dup3\n        /* \"#utility.yul\":12341:12342   */\n      dup3\n        /* \"#utility.yul\":12337:12346   */\n      add\n        /* \"#utility.yul\":12330:12346   */\n      swap1\n      pop\n        /* \"#utility.yul\":12365:12368   */\n      dup1\n        /* \"#utility.yul\":12362:12363   */\n      dup3\n        /* \"#utility.yul\":12359:12369   */\n      gt\n        /* \"#utility.yul\":12356:12392   */\n      iszero\n      tag_513\n      jumpi\n        /* \"#utility.yul\":12372:12390   */\n      tag_514\n      tag_355\n      jump\t// in\n    tag_514:\n        /* \"#utility.yul\":12356:12392   */\n    tag_513:\n        /* \"#utility.yul\":12208:12399   */\n      swap3\n      swap2\n      pop\n      pop\n      jump\t// out\n        /* \"#utility.yul\":12405:12697   */\n    tag_356:\n        /* \"#utility.yul\":12545:12579   */\n      0x546865207769746864726177616c20616d6f756e742065786365656473207468\n        /* \"#utility.yul\":12541:12542   */\n      0x00\n        /* \"#utility.yul\":12533:12539   */\n      dup3\n        /* \"#utility.yul\":12529:12543   */\n      add\n        /* \"#utility.yul\":12522:12580   */\n      mstore\n        /* \"#utility.yul\":12614:12648   */\n      0x65206c696d6974206f722064656c617920686173206e6f742070617373656420\n        /* \"#utility.yul\":12609:12611   */\n      0x20\n        /* \"#utility.yul\":12601:12607   */\n      dup3\n        /* \"#utility.yul\":12597:12612   */\n      add\n        /* \"#utility.yul\":12590:12649   */\n      mstore\n        /* \"#utility.yul\":12683:12689   */\n      0x7965742e00000000000000000000000000000000000000000000000000000000\n        /* \"#utility.yul\":12678:12680   */\n      0x40\n        /* \"#utility.yul\":12670:12676   */\n      dup3\n        /* \"#utility.yul\":12666:12681   */\n      add\n        /* \"#utility.yul\":12659:12690   */\n      mstore\n        /* \"#utility.yul\":12405:12697   */\n      pop\n      jump\t// out\n        /* \"#utility.yul\":12703:13069   */\n    tag_357:\n        /* \"#utility.yul\":12845:12848   */\n      0x00\n        /* \"#utility.yul\":12866:12933   */\n      tag_517\n        /* \"#utility.yul\":12930:12932   */\n      0x44\n        /* \"#utility.yul\":12925:12928   */\n      dup4\n        /* \"#utility.yul\":12866:12933   */\n      tag_352\n      jump\t// in\n    tag_517:\n        /* \"#utility.yul\":12859:12933   */\n      swap2\n      pop\n        /* \"#utility.yul\":12942:13035   */\n      tag_518\n        /* \"#utility.yul\":13031:13034   */\n      dup3\n        /* \"#utility.yul\":12942:13035   */\n      tag_356\n      jump\t// in\n    tag_518:\n        /* \"#utility.yul\":13060:13062   */\n      0x60\n        /* \"#utility.yul\":13055:13058   */\n      dup3\n        /* \"#utility.yul\":13051:13063   */\n      add\n        /* \"#utility.yul\":13044:13063   */\n      swap1\n      pop\n        /* \"#utility.yul\":12703:13069   */\n      swap2\n      swap1\n      pop\n      jump\t// out\n        /* \"#utility.yul\":13075:13494   */\n    tag_156:\n        /* \"#utility.yul\":13241:13245   */\n      0x00\n        /* \"#utility.yul\":13279:13281   */\n      0x20\n        /* \"#utility.yul\":13268:13277   */\n      dup3\n        /* \"#utility.yul\":13264:13282   */\n      add\n        /* \"#utility.yul\":13256:13282   */\n      swap1\n      pop\n        /* \"#utility.yul\":13328:13337   */\n      dup2\n        /* \"#utility.yul\":13322:13326   */\n      dup2\n        /* \"#utility.yul\":13318:13338   */\n      sub\n        /* \"#utility.yul\":13314:13315   */\n      0x00\n        /* \"#utility.yul\":13303:13312   */\n      dup4\n        /* \"#utility.yul\":13299:13316   */\n      add\n        /* \"#utility.yul\":13292:13339   */\n      mstore\n        /* \"#utility.yul\":13356:13487   */\n      tag_520\n        /* \"#utility.yul\":13482:13486   */\n      dup2\n        /* \"#utility.yul\":13356:13487   */\n      tag_357\n      jump\t// in\n    tag_520:\n        /* \"#utility.yul\":13348:13487   */\n      swap1\n      pop\n        /* \"#utility.yul\":13075:13494   */\n      swap2\n      swap1\n      pop\n      jump\t// out\n        /* \"#utility.yul\":13500:13728   */\n    tag_358:\n        /* \"#utility.yul\":13640:13674   */\n      0x4163636f756e742069732066726f7a656e2c2063616e6e6f7420776974686472\n        /* \"#utility.yul\":13636:13637   */\n      0x00\n        /* \"#utility.yul\":13628:13634   */\n      dup3\n        /* \"#utility.yul\":13624:13638   */\n      add\n        /* \"#utility.yul\":13617:13675   */\n      mstore\n        /* \"#utility.yul\":13709:13720   */\n      0x61772066756e64732e0000000000000000000000000000000000000000000000\n        /* \"#utility.yul\":13704:13706   */\n      0x20\n        /* \"#utility.yul\":13696:13702   */\n      dup3\n        /* \"#utility.yul\":13692:13707   */\n      add\n        /* \"#utility.yul\":13685:13721   */\n      mstore\n        /* \"#utility.yul\":13500:13728   */\n      pop\n      jump\t// out\n        /* \"#utility.yul\":13734:14100   */\n    tag_359:\n        /* \"#utility.yul\":13876:13879   */\n      0x00\n        /* \"#utility.yul\":13897:13964   */\n      tag_523\n        /* \"#utility.yul\":13961:13963   */\n      0x29\n        /* \"#utility.yul\":13956:13959   */\n      dup4\n        /* \"#utility.yul\":13897:13964   */\n      tag_352\n      jump\t// in\n    tag_523:\n        /* \"#utility.yul\":13890:13964   */\n      swap2\n      pop\n        /* \"#utility.yul\":13973:14066   */\n      tag_524\n        /* \"#utility.yul\":14062:14065   */\n      dup3\n        /* \"#utility.yul\":13973:14066   */\n      tag_358\n      jump\t// in\n    tag_524:\n        /* \"#utility.yul\":14091:14093   */\n      0x40\n        /* \"#utility.yul\":14086:14089   */\n      dup3\n        /* \"#utility.yul\":14082:14094   */\n      add\n        /* \"#utility.yul\":14075:14094   */\n      swap1\n      pop\n        /* \"#utility.yul\":13734:14100   */\n      swap2\n      swap1\n      pop\n      jump\t// out\n        /* \"#utility.yul\":14106:14525   */\n    tag_159:\n        /* \"#utility.yul\":14272:14276   */\n      0x00\n        /* \"#utility.yul\":14310:14312   */\n      0x20\n        /* \"#utility.yul\":14299:14308   */\n      dup3\n        /* \"#utility.yul\":14295:14313   */\n      add\n        /* \"#utility.yul\":14287:14313   */\n      swap1\n      pop\n        /* \"#utility.yul\":14359:14368   */\n      dup2\n        /* \"#utility.yul\":14353:14357   */\n      dup2\n        /* \"#utility.yul\":14349:14369   */\n      sub\n        /* \"#utility.yul\":14345:14346   */\n      0x00\n        /* \"#utility.yul\":14334:14343   */\n      dup4\n        /* \"#utility.yul\":14330:14347   */\n      add\n        /* \"#utility.yul\":14323:14370   */\n      mstore\n        /* \"#utility.yul\":14387:14518   */\n      tag_526\n        /* \"#utility.yul\":14513:14517   */\n      dup2\n        /* \"#utility.yul\":14387:14518   */\n      tag_359\n      jump\t// in\n    tag_526:\n        /* \"#utility.yul\":14379:14518   */\n      swap1\n      pop\n        /* \"#utility.yul\":14106:14525   */\n      swap2\n      swap1\n      pop\n      jump\t// out\n        /* \"#utility.yul\":14531:14700   */\n    tag_360:\n        /* \"#utility.yul\":14671:14692   */\n      0x496e73756666696369656e742066756e64732e00000000000000000000000000\n        /* \"#utility.yul\":14667:14668   */\n      0x00\n        /* \"#utility.yul\":14659:14665   */\n      dup3\n        /* \"#utility.yul\":14655:14669   */\n      add\n        /* \"#utility.yul\":14648:14693   */\n      mstore\n        /* \"#utility.yul\":14531:14700   */\n      pop\n      jump\t// out\n        /* \"#utility.yul\":14706:15072   */\n    tag_361:\n        /* \"#utility.yul\":14848:14851   */\n      0x00\n        /* \"#utility.yul\":14869:14936   */\n      tag_529\n        /* \"#utility.yul\":14933:14935   */\n      0x13\n        /* \"#utility.yul\":14928:14931   */\n      dup4\n        /* \"#utility.yul\":14869:14936   */\n      tag_352\n      jump\t// in\n    tag_529:\n        /* \"#utility.yul\":14862:14936   */\n      swap2\n      pop\n        /* \"#utility.yul\":14945:15038   */\n      tag_530\n        /* \"#utility.yul\":15034:15037   */\n      dup3\n        /* \"#utility.yul\":14945:15038   */\n      tag_360\n      jump\t// in\n    tag_530:\n        /* \"#utility.yul\":15063:15065   */\n      0x20\n        /* \"#utility.yul\":15058:15061   */\n      dup3\n        /* \"#utility.yul\":15054:15066   */\n      add\n        /* \"#utility.yul\":15047:15066   */\n      swap1\n      pop\n        /* \"#utility.yul\":14706:15072   */\n      swap2\n      swap1\n      pop\n      jump\t// out\n        /* \"#utility.yul\":15078:15497   */\n    tag_163:\n        /* \"#utility.yul\":15244:15248   */\n      0x00\n        /* \"#utility.yul\":15282:15284   */\n      0x20\n        /* \"#utility.yul\":15271:15280   */\n      dup3\n        /* \"#utility.yul\":15267:15285   */\n      add\n        /* \"#utility.yul\":15259:15285   */\n      swap1\n      pop\n        /* \"#utility.yul\":15331:15340   */\n      dup2\n        /* \"#utility.yul\":15325:15329   */\n      dup2\n        /* \"#utility.yul\":15321:15341   */\n      sub\n        /* \"#utility.yul\":15317:15318   */\n      0x00\n        /* \"#utility.yul\":15306:15315   */\n      dup4\n        /* \"#utility.yul\":15302:15319   */\n      add\n        /* \"#utility.yul\":15295:15342   */\n      mstore\n        /* \"#utility.yul\":15359:15490   */\n      tag_532\n        /* \"#utility.yul\":15485:15489   */\n      dup2\n        /* \"#utility.yul\":15359:15490   */\n      tag_361\n      jump\t// in\n    tag_532:\n        /* \"#utility.yul\":15351:15490   */\n      swap1\n      pop\n        /* \"#utility.yul\":15078:15497   */\n      swap2\n      swap1\n      pop\n      jump\t// out\n        /* \"#utility.yul\":15503:15727   */\n    tag_362:\n        /* \"#utility.yul\":15643:15677   */\n      0x5468652066756e6374696f6e20697320616c726561647920696e206578656375\n        /* \"#utility.yul\":15639:15640   */\n      0x00\n        /* \"#utility.yul\":15631:15637   */\n      dup3\n        /* \"#utility.yul\":15627:15641   */\n      add\n        /* \"#utility.yul\":15620:15678   */\n      mstore\n        /* \"#utility.yul\":15712:15719   */\n      0x74696f6e2e000000000000000000000000000000000000000000000000000000\n        /* \"#utility.yul\":15707:15709   */\n      0x20\n        /* \"#utility.yul\":15699:15705   */\n      dup3\n        /* \"#utility.yul\":15695:15710   */\n      add\n        /* \"#utility.yul\":15688:15720   */\n      mstore\n        /* \"#utility.yul\":15503:15727   */\n      pop\n      jump\t// out\n        /* \"#utility.yul\":15733:16099   */\n    tag_363:\n        /* \"#utility.yul\":15875:15878   */\n      0x00\n        /* \"#utility.yul\":15896:15963   */\n      tag_535\n        /* \"#utility.yul\":15960:15962   */\n      0x25\n        /* \"#utility.yul\":15955:15958   */\n      dup4\n        /* \"#utility.yul\":15896:15963   */\n      tag_352\n      jump\t// in\n    tag_535:\n        /* \"#utility.yul\":15889:15963   */\n      swap2\n      pop\n        /* \"#utility.yul\":15972:16065   */\n      tag_536\n        /* \"#utility.yul\":16061:16064   */\n      dup3\n        /* \"#utility.yul\":15972:16065   */\n      tag_362\n      jump\t// in\n    tag_536:\n        /* \"#utility.yul\":16090:16092   */\n      0x40\n        /* \"#utility.yul\":16085:16088   */\n      dup3\n        /* \"#utility.yul\":16081:16093   */\n      add\n        /* \"#utility.yul\":16074:16093   */\n      swap1\n      pop\n        /* \"#utility.yul\":15733:16099   */\n      swap2\n      swap1\n      pop\n      jump\t// out\n        /* \"#utility.yul\":16105:16524   */\n    tag_166:\n        /* \"#utility.yul\":16271:16275   */\n      0x00\n        /* \"#utility.yul\":16309:16311   */\n      0x20\n        /* \"#utility.yul\":16298:16307   */\n      dup3\n        /* \"#utility.yul\":16294:16312   */\n      add\n        /* \"#utility.yul\":16286:16312   */\n      swap1\n      pop\n        /* \"#utility.yul\":16358:16367   */\n      dup2\n        /* \"#utility.yul\":16352:16356   */\n      dup2\n        /* \"#utility.yul\":16348:16368   */\n      sub\n        /* \"#utility.yul\":16344:16345   */\n      0x00\n        /* \"#utility.yul\":16333:16342   */\n      dup4\n        /* \"#utility.yul\":16329:16346   */\n      add\n        /* \"#utility.yul\":16322:16369   */\n      mstore\n        /* \"#utility.yul\":16386:16517   */\n      tag_538\n        /* \"#utility.yul\":16512:16516   */\n      dup2\n        /* \"#utility.yul\":16386:16517   */\n      tag_363\n      jump\t// in\n    tag_538:\n        /* \"#utility.yul\":16378:16517   */\n      swap1\n      pop\n        /* \"#utility.yul\":16105:16524   */\n      swap2\n      swap1\n      pop\n      jump\t// out\n        /* \"#utility.yul\":16530:16724   */\n    tag_178:\n        /* \"#utility.yul\":16570:16574   */\n      0x00\n        /* \"#utility.yul\":16590:16610   */\n      tag_540\n        /* \"#utility.yul\":16608:16609   */\n      dup3\n        /* \"#utility.yul\":16590:16610   */\n      tag_337\n      jump\t// in\n    tag_540:\n        /* \"#utility.yul\":16585:16610   */\n      swap2\n      pop\n        /* \"#utility.yul\":16624:16644   */\n      tag_541\n        /* \"#utility.yul\":16642:16643   */\n      dup4\n        /* \"#utility.yul\":16624:16644   */\n      tag_337\n      jump\t// in\n    tag_541:\n        /* \"#utility.yul\":16619:16644   */\n      swap3\n      pop\n        /* \"#utility.yul\":16668:16669   */\n      dup3\n        /* \"#utility.yul\":16665:16666   */\n      dup3\n        /* \"#utility.yul\":16661:16670   */\n      sub\n        /* \"#utility.yul\":16653:16670   */\n      swap1\n      pop\n        /* \"#utility.yul\":16692:16693   */\n      dup2\n        /* \"#utility.yul\":16686:16690   */\n      dup2\n        /* \"#utility.yul\":16683:16694   */\n      gt\n        /* \"#utility.yul\":16680:16717   */\n      iszero\n      tag_542\n      jumpi\n        /* \"#utility.yul\":16697:16715   */\n      tag_543\n      tag_355\n      jump\t// in\n    tag_543:\n        /* \"#utility.yul\":16680:16717   */\n    tag_542:\n        /* \"#utility.yul\":16530:16724   */\n      swap3\n      swap2\n      pop\n      pop\n      jump\t// out\n        /* \"#utility.yul\":16730:16873   */\n    tag_364:\n        /* \"#utility.yul\":16787:16792   */\n      0x00\n        /* \"#utility.yul\":16818:16824   */\n      dup2\n        /* \"#utility.yul\":16812:16825   */\n      mload\n        /* \"#utility.yul\":16803:16825   */\n      swap1\n      pop\n        /* \"#utility.yul\":16834:16867   */\n      tag_545\n        /* \"#utility.yul\":16861:16866   */\n      dup2\n        /* \"#utility.yul\":16834:16867   */\n      tag_338\n      jump\t// in\n    tag_545:\n        /* \"#utility.yul\":16730:16873   */\n      swap3\n      swap2\n      pop\n      pop\n      jump\t// out\n        /* \"#utility.yul\":16879:17230   */\n    tag_184:\n        /* \"#utility.yul\":16949:16955   */\n      0x00\n        /* \"#utility.yul\":16998:17000   */\n      0x20\n        /* \"#utility.yul\":16986:16995   */\n      dup3\n        /* \"#utility.yul\":16977:16984   */\n      dup5\n        /* \"#utility.yul\":16973:16996   */\n      sub\n        /* \"#utility.yul\":16969:17001   */\n      slt\n        /* \"#utility.yul\":16966:17085   */\n      iszero\n      tag_547\n      jumpi\n        /* \"#utility.yul\":17004:17083   */\n      tag_548\n      tag_328\n      jump\t// in\n    tag_548:\n        /* \"#utility.yul\":16966:17085   */\n    tag_547:\n        /* \"#utility.yul\":17124:17125   */\n      0x00\n        /* \"#utility.yul\":17149:17213   */\n      tag_549\n        /* \"#utility.yul\":17205:17212   */\n      dup5\n        /* \"#utility.yul\":17196:17202   */\n      dup3\n        /* \"#utility.yul\":17185:17194   */\n      dup6\n        /* \"#utility.yul\":17181:17203   */\n      add\n        /* \"#utility.yul\":17149:17213   */\n      tag_364\n      jump\t// in\n    tag_549:\n        /* \"#utility.yul\":17139:17213   */\n      swap2\n      pop\n        /* \"#utility.yul\":17095:17223   */\n      pop\n        /* \"#utility.yul\":16879:17230   */\n      swap3\n      swap2\n      pop\n      pop\n      jump\t// out\n        /* \"#utility.yul\":17236:17370   */\n    tag_365:\n        /* \"#utility.yul\":17294:17303   */\n      0x00\n        /* \"#utility.yul\":17327:17364   */\n      tag_551\n        /* \"#utility.yul\":17358:17363   */\n      dup3\n        /* \"#utility.yul\":17327:17364   */\n      tag_349\n      jump\t// in\n    tag_551:\n        /* \"#utility.yul\":17314:17364   */\n      swap1\n      pop\n        /* \"#utility.yul\":17236:17370   */\n      swap2\n      swap1\n      pop\n      jump\t// out\n        /* \"#utility.yul\":17376:17523   */\n    tag_366:\n        /* \"#utility.yul\":17471:17516   */\n      tag_553\n        /* \"#utility.yul\":17510:17515   */\n      dup2\n        /* \"#utility.yul\":17471:17516   */\n      tag_365\n      jump\t// in\n    tag_553:\n        /* \"#utility.yul\":17466:17469   */\n      dup3\n        /* \"#utility.yul\":17459:17517   */\n      mstore\n        /* \"#utility.yul\":17376:17523   */\n      pop\n      pop\n      jump\t// out\n        /* \"#utility.yul\":17529:17877   */\n    tag_193:\n        /* \"#utility.yul\":17658:17662   */\n      0x00\n        /* \"#utility.yul\":17696:17698   */\n      0x40\n        /* \"#utility.yul\":17685:17694   */\n      dup3\n        /* \"#utility.yul\":17681:17699   */\n      add\n        /* \"#utility.yul\":17673:17699   */\n      swap1\n      pop\n        /* \"#utility.yul\":17709:17788   */\n      tag_555\n        /* \"#utility.yul\":17785:17786   */\n      0x00\n        /* \"#utility.yul\":17774:17783   */\n      dup4\n        /* \"#utility.yul\":17770:17787   */\n      add\n        /* \"#utility.yul\":17761:17767   */\n      dup6\n        /* \"#utility.yul\":17709:17788   */\n      tag_366\n      jump\t// in\n    tag_555:\n        /* \"#utility.yul\":17798:17870   */\n      tag_556\n        /* \"#utility.yul\":17866:17868   */\n      0x20\n        /* \"#utility.yul\":17855:17864   */\n      dup4\n        /* \"#utility.yul\":17851:17869   */\n      add\n        /* \"#utility.yul\":17842:17848   */\n      dup5\n        /* \"#utility.yul\":17798:17870   */\n      tag_344\n      jump\t// in\n    tag_556:\n        /* \"#utility.yul\":17529:17877   */\n      swap4\n      swap3\n      pop\n      pop\n      pop\n      jump\t// out\n        /* \"#utility.yul\":17883:18020   */\n    tag_367:\n        /* \"#utility.yul\":17937:17942   */\n      0x00\n        /* \"#utility.yul\":17968:17974   */\n      dup2\n        /* \"#utility.yul\":17962:17975   */\n      mload\n        /* \"#utility.yul\":17953:17975   */\n      swap1\n      pop\n        /* \"#utility.yul\":17984:18014   */\n      tag_558\n        /* \"#utility.yul\":18008:18013   */\n      dup2\n        /* \"#utility.yul\":17984:18014   */\n      tag_331\n      jump\t// in\n    tag_558:\n        /* \"#utility.yul\":17883:18020   */\n      swap3\n      swap2\n      pop\n      pop\n      jump\t// out\n        /* \"#utility.yul\":18026:18371   */\n    tag_197:\n        /* \"#utility.yul\":18093:18099   */\n      0x00\n        /* \"#utility.yul\":18142:18144   */\n      0x20\n        /* \"#utility.yul\":18130:18139   */\n      dup3\n        /* \"#utility.yul\":18121:18128   */\n      dup5\n        /* \"#utility.yul\":18117:18140   */\n      sub\n        /* \"#utility.yul\":18113:18145   */\n      slt\n        /* \"#utility.yul\":18110:18229   */\n      iszero\n      tag_560\n      jumpi\n        /* \"#utility.yul\":18148:18227   */\n      tag_561\n      tag_328\n      jump\t// in\n    tag_561:\n        /* \"#utility.yul\":18110:18229   */\n    tag_560:\n        /* \"#utility.yul\":18268:18269   */\n      0x00\n        /* \"#utility.yul\":18293:18354   */\n      tag_562\n        /* \"#utility.yul\":18346:18353   */\n      dup5\n        /* \"#utility.yul\":18337:18343   */\n      dup3\n        /* \"#utility.yul\":18326:18335   */\n      dup6\n        /* \"#utility.yul\":18322:18344   */\n      add\n        /* \"#utility.yul\":18293:18354   */\n      tag_367\n      jump\t// in\n    tag_562:\n        /* \"#utility.yul\":18283:18354   */\n      swap2\n      pop\n        /* \"#utility.yul\":18239:18364   */\n      pop\n        /* \"#utility.yul\":18026:18371   */\n      swap3\n      swap2\n      pop\n      pop\n      jump\t// out\n        /* \"#utility.yul\":18377:18603   */\n    tag_368:\n        /* \"#utility.yul\":18517:18551   */\n      0x4f6e6c7920746865206f776e65722063616e20736574207468652062656e6566\n        /* \"#utility.yul\":18513:18514   */\n      0x00\n        /* \"#utility.yul\":18505:18511   */\n      dup3\n        /* \"#utility.yul\":18501:18515   */\n      add\n        /* \"#utility.yul\":18494:18552   */\n      mstore\n        /* \"#utility.yul\":18586:18595   */\n      0x6963696172792e00000000000000000000000000000000000000000000000000\n        /* \"#utility.yul\":18581:18583   */\n      0x20\n        /* \"#utility.yul\":18573:18579   */\n      dup3\n        /* \"#utility.yul\":18569:18584   */\n      add\n        /* \"#utility.yul\":18562:18596   */\n      mstore\n        /* \"#utility.yul\":18377:18603   */\n      pop\n      jump\t// out\n        /* \"#utility.yul\":18609:18975   */\n    tag_369:\n        /* \"#utility.yul\":18751:18754   */\n      0x00\n        /* \"#utility.yul\":18772:18839   */\n      tag_565\n        /* \"#utility.yul\":18836:18838   */\n      0x27\n        /* \"#utility.yul\":18831:18834   */\n      dup4\n        /* \"#utility.yul\":18772:18839   */\n      tag_352\n      jump\t// in\n    tag_565:\n        /* \"#utility.yul\":18765:18839   */\n      swap2\n      pop\n        /* \"#utility.yul\":18848:18941   */\n      tag_566\n        /* \"#utility.yul\":18937:18940   */\n      dup3\n        /* \"#utility.yul\":18848:18941   */\n      tag_368\n      jump\t// in\n    tag_566:\n        /* \"#utility.yul\":18966:18968   */\n      0x40\n        /* \"#utility.yul\":18961:18964   */\n      dup3\n        /* \"#utility.yul\":18957:18969   */\n      add\n        /* \"#utility.yul\":18950:18969   */\n      swap1\n      pop\n        /* \"#utility.yul\":18609:18975   */\n      swap2\n      swap1\n      pop\n      jump\t// out\n        /* \"#utility.yul\":18981:19400   */\n    tag_206:\n        /* \"#utility.yul\":19147:19151   */\n      0x00\n        /* \"#utility.yul\":19185:19187   */\n      0x20\n        /* \"#utility.yul\":19174:19183   */\n      dup3\n        /* \"#utility.yul\":19170:19188   */\n      add\n        /* \"#utility.yul\":19162:19188   */\n      swap1\n      pop\n        /* \"#utility.yul\":19234:19243   */\n      dup2\n        /* \"#utility.yul\":19228:19232   */\n      dup2\n        /* \"#utility.yul\":19224:19244   */\n      sub\n        /* \"#utility.yul\":19220:19221   */\n      0x00\n        /* \"#utility.yul\":19209:19218   */\n      dup4\n        /* \"#utility.yul\":19205:19222   */\n      add\n        /* \"#utility.yul\":19198:19245   */\n      mstore\n        /* \"#utility.yul\":19262:19393   */\n      tag_568\n        /* \"#utility.yul\":19388:19392   */\n      dup2\n        /* \"#utility.yul\":19262:19393   */\n      tag_369\n      jump\t// in\n    tag_568:\n        /* \"#utility.yul\":19254:19393   */\n      swap1\n      pop\n        /* \"#utility.yul\":18981:19400   */\n      swap2\n      swap1\n      pop\n      jump\t// out\n        /* \"#utility.yul\":19406:19581   */\n    tag_370:\n        /* \"#utility.yul\":19546:19573   */\n      0x43616e6e6f74206465706f7369742030206f72206c6573732e00000000000000\n        /* \"#utility.yul\":19542:19543   */\n      0x00\n        /* \"#utility.yul\":19534:19540   */\n      dup3\n        /* \"#utility.yul\":19530:19544   */\n      add\n        /* \"#utility.yul\":19523:19574   */\n      mstore\n        /* \"#utility.yul\":19406:19581   */\n      pop\n      jump\t// out\n        /* \"#utility.yul\":19587:19953   */\n    tag_371:\n        /* \"#utility.yul\":19729:19732   */\n      0x00\n        /* \"#utility.yul\":19750:19817   */\n      tag_571\n        /* \"#utility.yul\":19814:19816   */\n      0x19\n        /* \"#utility.yul\":19809:19812   */\n      dup4\n        /* \"#utility.yul\":19750:19817   */\n      tag_352\n      jump\t// in\n    tag_571:\n        /* \"#utility.yul\":19743:19817   */\n      swap2\n      pop\n        /* \"#utility.yul\":19826:19919   */\n      tag_572\n        /* \"#utility.yul\":19915:19918   */\n      dup3\n        /* \"#utility.yul\":19826:19919   */\n      tag_370\n      jump\t// in\n    tag_572:\n        /* \"#utility.yul\":19944:19946   */\n      0x20\n        /* \"#utility.yul\":19939:19942   */\n      dup3\n        /* \"#utility.yul\":19935:19947   */\n      add\n        /* \"#utility.yul\":19928:19947   */\n      swap1\n      pop\n        /* \"#utility.yul\":19587:19953   */\n      swap2\n      swap1\n      pop\n      jump\t// out\n        /* \"#utility.yul\":19959:20378   */\n    tag_220:\n        /* \"#utility.yul\":20125:20129   */\n      0x00\n        /* \"#utility.yul\":20163:20165   */\n      0x20\n        /* \"#utility.yul\":20152:20161   */\n      dup3\n        /* \"#utility.yul\":20148:20166   */\n      add\n        /* \"#utility.yul\":20140:20166   */\n      swap1\n      pop\n        /* \"#utility.yul\":20212:20221   */\n      dup2\n        /* \"#utility.yul\":20206:20210   */\n      dup2\n        /* \"#utility.yul\":20202:20222   */\n      sub\n        /* \"#utility.yul\":20198:20199   */\n      0x00\n        /* \"#utility.yul\":20187:20196   */\n      dup4\n        /* \"#utility.yul\":20183:20200   */\n      add\n        /* \"#utility.yul\":20176:20223   */\n      mstore\n        /* \"#utility.yul\":20240:20371   */\n      tag_574\n        /* \"#utility.yul\":20366:20370   */\n      dup2\n        /* \"#utility.yul\":20240:20371   */\n      tag_371\n      jump\t// in\n    tag_574:\n        /* \"#utility.yul\":20232:20371   */\n      swap1\n      pop\n        /* \"#utility.yul\":19959:20378   */\n      swap2\n      swap1\n      pop\n      jump\t// out\n        /* \"#utility.yul\":20384:20615   */\n    tag_372:\n        /* \"#utility.yul\":20524:20558   */\n      0x4f6e6c7920746865206f776e65722063616e2073657420746865207769746864\n        /* \"#utility.yul\":20520:20521   */\n      0x00\n        /* \"#utility.yul\":20512:20518   */\n      dup3\n        /* \"#utility.yul\":20508:20522   */\n      add\n        /* \"#utility.yul\":20501:20559   */\n      mstore\n        /* \"#utility.yul\":20593:20607   */\n      0x726177616c206c696d69742e0000000000000000000000000000000000000000\n        /* \"#utility.yul\":20588:20590   */\n      0x20\n        /* \"#utility.yul\":20580:20586   */\n      dup3\n        /* \"#utility.yul\":20576:20591   */\n      add\n        /* \"#utility.yul\":20569:20608   */\n      mstore\n        /* \"#utility.yul\":20384:20615   */\n      pop\n      jump\t// out\n        /* \"#utility.yul\":20621:20987   */\n    tag_373:\n        /* \"#utility.yul\":20763:20766   */\n      0x00\n        /* \"#utility.yul\":20784:20851   */\n      tag_577\n        /* \"#utility.yul\":20848:20850   */\n      0x2c\n        /* \"#utility.yul\":20843:20846   */\n      dup4\n        /* \"#utility.yul\":20784:20851   */\n      tag_352\n      jump\t// in\n    tag_577:\n        /* \"#utility.yul\":20777:20851   */\n      swap2\n      pop\n        /* \"#utility.yul\":20860:20953   */\n      tag_578\n        /* \"#utility.yul\":20949:20952   */\n      dup3\n        /* \"#utility.yul\":20860:20953   */\n      tag_372\n      jump\t// in\n    tag_578:\n        /* \"#utility.yul\":20978:20980   */\n      0x40\n        /* \"#utility.yul\":20973:20976   */\n      dup3\n        /* \"#utility.yul\":20969:20981   */\n      add\n        /* \"#utility.yul\":20962:20981   */\n      swap1\n      pop\n        /* \"#utility.yul\":20621:20987   */\n      swap2\n      swap1\n      pop\n      jump\t// out\n        /* \"#utility.yul\":20993:21412   */\n    tag_228:\n        /* \"#utility.yul\":21159:21163   */\n      0x00\n        /* \"#utility.yul\":21197:21199   */\n      0x20\n        /* \"#utility.yul\":21186:21195   */\n      dup3\n        /* \"#utility.yul\":21182:21200   */\n      add\n        /* \"#utility.yul\":21174:21200   */\n      swap1\n      pop\n        /* \"#utility.yul\":21246:21255   */\n      dup2\n        /* \"#utility.yul\":21240:21244   */\n      dup2\n        /* \"#utility.yul\":21236:21256   */\n      sub\n        /* \"#utility.yul\":21232:21233   */\n      0x00\n        /* \"#utility.yul\":21221:21230   */\n      dup4\n        /* \"#utility.yul\":21217:21234   */\n      add\n        /* \"#utility.yul\":21210:21257   */\n      mstore\n        /* \"#utility.yul\":21274:21405   */\n      tag_580\n        /* \"#utility.yul\":21400:21404   */\n      dup2\n        /* \"#utility.yul\":21274:21405   */\n      tag_373\n      jump\t// in\n    tag_580:\n        /* \"#utility.yul\":21266:21405   */\n      swap1\n      pop\n        /* \"#utility.yul\":20993:21412   */\n      swap2\n      swap1\n      pop\n      jump\t// out\n        /* \"#utility.yul\":21418:21645   */\n    tag_374:\n        /* \"#utility.yul\":21558:21592   */\n      0x4f6e6c7920746865206f776e65722063616e20756e667265657a652074686520\n        /* \"#utility.yul\":21554:21555   */\n      0x00\n        /* \"#utility.yul\":21546:21552   */\n      dup3\n        /* \"#utility.yul\":21542:21556   */\n      add\n        /* \"#utility.yul\":21535:21593   */\n      mstore\n        /* \"#utility.yul\":21627:21637   */\n      0x6163636f756e742e000000000000000000000000000000000000000000000000\n        /* \"#utility.yul\":21622:21624   */\n      0x20\n        /* \"#utility.yul\":21614:21620   */\n      dup3\n        /* \"#utility.yul\":21610:21625   */\n      add\n        /* \"#utility.yul\":21603:21638   */\n      mstore\n        /* \"#utility.yul\":21418:21645   */\n      pop\n      jump\t// out\n        /* \"#utility.yul\":21651:22017   */\n    tag_375:\n        /* \"#utility.yul\":21793:21796   */\n      0x00\n        /* \"#utility.yul\":21814:21881   */\n      tag_583\n        /* \"#utility.yul\":21878:21880   */\n      0x28\n        /* \"#utility.yul\":21873:21876   */\n      dup4\n        /* \"#utility.yul\":21814:21881   */\n      tag_352\n      jump\t// in\n    tag_583:\n        /* \"#utility.yul\":21807:21881   */\n      swap2\n      pop\n        /* \"#utility.yul\":21890:21983   */\n      tag_584\n        /* \"#utility.yul\":21979:21982   */\n      dup3\n        /* \"#utility.yul\":21890:21983   */\n      tag_374\n      jump\t// in\n    tag_584:\n        /* \"#utility.yul\":22008:22010   */\n      0x40\n        /* \"#utility.yul\":22003:22006   */\n      dup3\n        /* \"#utility.yul\":21999:22011   */\n      add\n        /* \"#utility.yul\":21992:22011   */\n      swap1\n      pop\n        /* \"#utility.yul\":21651:22017   */\n      swap2\n      swap1\n      pop\n      jump\t// out\n        /* \"#utility.yul\":22023:22442   */\n    tag_232:\n        /* \"#utility.yul\":22189:22193   */\n      0x00\n        /* \"#utility.yul\":22227:22229   */\n      0x20\n        /* \"#utility.yul\":22216:22225   */\n      dup3\n        /* \"#utility.yul\":22212:22230   */\n      add\n        /* \"#utility.yul\":22204:22230   */\n      swap1\n      pop\n        /* \"#utility.yul\":22276:22285   */\n      dup2\n        /* \"#utility.yul\":22270:22274   */\n      dup2\n        /* \"#utility.yul\":22266:22286   */\n      sub\n        /* \"#utility.yul\":22262:22263   */\n      0x00\n        /* \"#utility.yul\":22251:22260   */\n      dup4\n        /* \"#utility.yul\":22247:22264   */\n      add\n        /* \"#utility.yul\":22240:22287   */\n      mstore\n        /* \"#utility.yul\":22304:22435   */\n      tag_586\n        /* \"#utility.yul\":22430:22434   */\n      dup2\n        /* \"#utility.yul\":22304:22435   */\n      tag_375\n      jump\t// in\n    tag_586:\n        /* \"#utility.yul\":22296:22435   */\n      swap1\n      pop\n        /* \"#utility.yul\":22023:22442   */\n      swap2\n      swap1\n      pop\n      jump\t// out\n        /* \"#utility.yul\":22448:22629   */\n    tag_376:\n        /* \"#utility.yul\":22588:22621   */\n      0x546865726520617265206e6f2066756e647320746f2077697468647261772e00\n        /* \"#utility.yul\":22584:22585   */\n      0x00\n        /* \"#utility.yul\":22576:22582   */\n      dup3\n        /* \"#utility.yul\":22572:22586   */\n      add\n        /* \"#utility.yul\":22565:22622   */\n      mstore\n        /* \"#utility.yul\":22448:22629   */\n      pop\n      jump\t// out\n        /* \"#utility.yul\":22635:23001   */\n    tag_377:\n        /* \"#utility.yul\":22777:22780   */\n      0x00\n        /* \"#utility.yul\":22798:22865   */\n      tag_589\n        /* \"#utility.yul\":22862:22864   */\n      0x1f\n        /* \"#utility.yul\":22857:22860   */\n      dup4\n        /* \"#utility.yul\":22798:22865   */\n      tag_352\n      jump\t// in\n    tag_589:\n        /* \"#utility.yul\":22791:22865   */\n      swap2\n      pop\n        /* \"#utility.yul\":22874:22967   */\n      tag_590\n        /* \"#utility.yul\":22963:22966   */\n      dup3\n        /* \"#utility.yul\":22874:22967   */\n      tag_376\n      jump\t// in\n    tag_590:\n        /* \"#utility.yul\":22992:22994   */\n      0x20\n        /* \"#utility.yul\":22987:22990   */\n      dup3\n        /* \"#utility.yul\":22983:22995   */\n      add\n        /* \"#utility.yul\":22976:22995   */\n      swap1\n      pop\n        /* \"#utility.yul\":22635:23001   */\n      swap2\n      swap1\n      pop\n      jump\t// out\n        /* \"#utility.yul\":23007:23426   */\n    tag_249:\n        /* \"#utility.yul\":23173:23177   */\n      0x00\n        /* \"#utility.yul\":23211:23213   */\n      0x20\n        /* \"#utility.yul\":23200:23209   */\n      dup3\n        /* \"#utility.yul\":23196:23214   */\n      add\n        /* \"#utility.yul\":23188:23214   */\n      swap1\n      pop\n        /* \"#utility.yul\":23260:23269   */\n      dup2\n        /* \"#utility.yul\":23254:23258   */\n      dup2\n        /* \"#utility.yul\":23250:23270   */\n      sub\n        /* \"#utility.yul\":23246:23247   */\n      0x00\n        /* \"#utility.yul\":23235:23244   */\n      dup4\n        /* \"#utility.yul\":23231:23248   */\n      add\n        /* \"#utility.yul\":23224:23271   */\n      mstore\n        /* \"#utility.yul\":23288:23419   */\n      tag_592\n        /* \"#utility.yul\":23414:23418   */\n      dup2\n        /* \"#utility.yul\":23288:23419   */\n      tag_377\n      jump\t// in\n    tag_592:\n        /* \"#utility.yul\":23280:23419   */\n      swap1\n      pop\n        /* \"#utility.yul\":23007:23426   */\n      swap2\n      swap1\n      pop\n      jump\t// out\n        /* \"#utility.yul\":23432:23657   */\n    tag_378:\n        /* \"#utility.yul\":23572:23606   */\n      0x4f6e6c7920746865206f776e65722063616e20667265657a6520746865206163\n        /* \"#utility.yul\":23568:23569   */\n      0x00\n        /* \"#utility.yul\":23560:23566   */\n      dup3\n        /* \"#utility.yul\":23556:23570   */\n      add\n        /* \"#utility.yul\":23549:23607   */\n      mstore\n        /* \"#utility.yul\":23641:23649   */\n      0x636f756e742e0000000000000000000000000000000000000000000000000000\n        /* \"#utility.yul\":23636:23638   */\n      0x20\n        /* \"#utility.yul\":23628:23634   */\n      dup3\n        /* \"#utility.yul\":23624:23639   */\n      add\n        /* \"#utility.yul\":23617:23650   */\n      mstore\n        /* \"#utility.yul\":23432:23657   */\n      pop\n      jump\t// out\n        /* \"#utility.yul\":23663:24029   */\n    tag_379:\n        /* \"#utility.yul\":23805:23808   */\n      0x00\n        /* \"#utility.yul\":23826:23893   */\n      tag_595\n        /* \"#utility.yul\":23890:23892   */\n      0x26\n        /* \"#utility.yul\":23885:23888   */\n      dup4\n        /* \"#utility.yul\":23826:23893   */\n      tag_352\n      jump\t// in\n    tag_595:\n        /* \"#utility.yul\":23819:23893   */\n      swap2\n      pop\n        /* \"#utility.yul\":23902:23995   */\n      tag_596\n        /* \"#utility.yul\":23991:23994   */\n      dup3\n        /* \"#utility.yul\":23902:23995   */\n      tag_378\n      jump\t// in\n    tag_596:\n        /* \"#utility.yul\":24020:24022   */\n      0x40\n        /* \"#utility.yul\":24015:24018   */\n      dup3\n        /* \"#utility.yul\":24011:24023   */\n      add\n        /* \"#utility.yul\":24004:24023   */\n      swap1\n      pop\n        /* \"#utility.yul\":23663:24029   */\n      swap2\n      swap1\n      pop\n      jump\t// out\n        /* \"#utility.yul\":24035:24454   */\n    tag_292:\n        /* \"#utility.yul\":24201:24205   */\n      0x00\n        /* \"#utility.yul\":24239:24241   */\n      0x20\n        /* \"#utility.yul\":24228:24237   */\n      dup3\n        /* \"#utility.yul\":24224:24242   */\n      add\n        /* \"#utility.yul\":24216:24242   */\n      swap1\n      pop\n        /* \"#utility.yul\":24288:24297   */\n      dup2\n        /* \"#utility.yul\":24282:24286   */\n      dup2\n        /* \"#utility.yul\":24278:24298   */\n      sub\n        /* \"#utility.yul\":24274:24275   */\n      0x00\n        /* \"#utility.yul\":24263:24272   */\n      dup4\n        /* \"#utility.yul\":24259:24276   */\n      add\n        /* \"#utility.yul\":24252:24299   */\n      mstore\n        /* \"#utility.yul\":24316:24447   */\n      tag_598\n        /* \"#utility.yul\":24442:24446   */\n      dup2\n        /* \"#utility.yul\":24316:24447   */\n      tag_379\n      jump\t// in\n    tag_598:\n        /* \"#utility.yul\":24308:24447   */\n      swap1\n      pop\n        /* \"#utility.yul\":24035:24454   */\n      swap2\n      swap1\n      pop\n      jump\t// out\n        /* \"#utility.yul\":24460:24824   */\n    tag_296:\n        /* \"#utility.yul\":24597:24601   */\n      0x00\n        /* \"#utility.yul\":24635:24637   */\n      0x40\n        /* \"#utility.yul\":24624:24633   */\n      dup3\n        /* \"#utility.yul\":24620:24638   */\n      add\n        /* \"#utility.yul\":24612:24638   */\n      swap1\n      pop\n        /* \"#utility.yul\":24648:24727   */\n      tag_600\n        /* \"#utility.yul\":24724:24725   */\n      0x00\n        /* \"#utility.yul\":24713:24722   */\n      dup4\n        /* \"#utility.yul\":24709:24726   */\n      add\n        /* \"#utility.yul\":24700:24706   */\n      dup6\n        /* \"#utility.yul\":24648:24727   */\n      tag_366\n      jump\t// in\n    tag_600:\n        /* \"#utility.yul\":24737:24817   */\n      tag_601\n        /* \"#utility.yul\":24813:24815   */\n      0x20\n        /* \"#utility.yul\":24802:24811   */\n      dup4\n        /* \"#utility.yul\":24798:24816   */\n      add\n        /* \"#utility.yul\":24789:24795   */\n      dup5\n        /* \"#utility.yul\":24737:24817   */\n      tag_366\n      jump\t// in\n    tag_601:\n        /* \"#utility.yul\":24460:24824   */\n      swap4\n      swap3\n      pop\n      pop\n      pop\n      jump\t// out\n        /* \"#utility.yul\":24830:25068   */\n    tag_305:\n        /* \"#utility.yul\":24931:24935   */\n      0x00\n        /* \"#utility.yul\":24969:24971   */\n      0x20\n        /* \"#utility.yul\":24958:24967   */\n      dup3\n        /* \"#utility.yul\":24954:24972   */\n      add\n        /* \"#utility.yul\":24946:24972   */\n      swap1\n      pop\n        /* \"#utility.yul\":24982:25061   */\n      tag_603\n        /* \"#utility.yul\":25058:25059   */\n      0x00\n        /* \"#utility.yul\":25047:25056   */\n      dup4\n        /* \"#utility.yul\":25043:25060   */\n      add\n        /* \"#utility.yul\":25034:25040   */\n      dup5\n        /* \"#utility.yul\":24982:25061   */\n      tag_366\n      jump\t// in\n    tag_603:\n        /* \"#utility.yul\":24830:25068   */\n      swap3\n      swap2\n      pop\n      pop\n      jump\t// out\n        /* \"#utility.yul\":25074:25244   */\n    tag_380:\n        /* \"#utility.yul\":25214:25236   */\n      0x496e73756666696369656e742062616c616e6365000000000000000000000000\n        /* \"#utility.yul\":25210:25211   */\n      0x00\n        /* \"#utility.yul\":25202:25208   */\n      dup3\n        /* \"#utility.yul\":25198:25212   */\n      add\n        /* \"#utility.yul\":25191:25237   */\n      mstore\n        /* \"#utility.yul\":25074:25244   */\n      pop\n      jump\t// out\n        /* \"#utility.yul\":25250:25616   */\n    tag_381:\n        /* \"#utility.yul\":25392:25395   */\n      0x00\n        /* \"#utility.yul\":25413:25480   */\n      tag_606\n        /* \"#utility.yul\":25477:25479   */\n      0x14\n        /* \"#utility.yul\":25472:25475   */\n      dup4\n        /* \"#utility.yul\":25413:25480   */\n      tag_352\n      jump\t// in\n    tag_606:\n        /* \"#utility.yul\":25406:25480   */\n      swap2\n      pop\n        /* \"#utility.yul\":25489:25582   */\n      tag_607\n        /* \"#utility.yul\":25578:25581   */\n      dup3\n        /* \"#utility.yul\":25489:25582   */\n      tag_380\n      jump\t// in\n    tag_607:\n        /* \"#utility.yul\":25607:25609   */\n      0x20\n        /* \"#utility.yul\":25602:25605   */\n      dup3\n        /* \"#utility.yul\":25598:25610   */\n      add\n        /* \"#utility.yul\":25591:25610   */\n      swap1\n      pop\n        /* \"#utility.yul\":25250:25616   */\n      swap2\n      swap1\n      pop\n      jump\t// out\n        /* \"#utility.yul\":25622:26041   */\n    tag_311:\n        /* \"#utility.yul\":25788:25792   */\n      0x00\n        /* \"#utility.yul\":25826:25828   */\n      0x20\n        /* \"#utility.yul\":25815:25824   */\n      dup3\n        /* \"#utility.yul\":25811:25829   */\n      add\n        /* \"#utility.yul\":25803:25829   */\n      swap1\n      pop\n        /* \"#utility.yul\":25875:25884   */\n      dup2\n        /* \"#utility.yul\":25869:25873   */\n      dup2\n        /* \"#utility.yul\":25865:25885   */\n      sub\n        /* \"#utility.yul\":25861:25862   */\n      0x00\n        /* \"#utility.yul\":25850:25859   */\n      dup4\n        /* \"#utility.yul\":25846:25863   */\n      add\n        /* \"#utility.yul\":25839:25886   */\n      mstore\n        /* \"#utility.yul\":25903:26034   */\n      tag_609\n        /* \"#utility.yul\":26029:26033   */\n      dup2\n        /* \"#utility.yul\":25903:26034   */\n      tag_381\n      jump\t// in\n    tag_609:\n        /* \"#utility.yul\":25895:26034   */\n      swap1\n      pop\n        /* \"#utility.yul\":25622:26041   */\n      swap2\n      swap1\n      pop\n      jump\t// out\n        /* \"#utility.yul\":26047:26521   */\n    tag_313:\n        /* \"#utility.yul\":26212:26216   */\n      0x00\n        /* \"#utility.yul\":26250:26252   */\n      0x60\n        /* \"#utility.yul\":26239:26248   */\n      dup3\n        /* \"#utility.yul\":26235:26253   */\n      add\n        /* \"#utility.yul\":26227:26253   */\n      swap1\n      pop\n        /* \"#utility.yul\":26263:26342   */\n      tag_611\n        /* \"#utility.yul\":26339:26340   */\n      0x00\n        /* \"#utility.yul\":26328:26337   */\n      dup4\n        /* \"#utility.yul\":26324:26341   */\n      add\n        /* \"#utility.yul\":26315:26321   */\n      dup7\n        /* \"#utility.yul\":26263:26342   */\n      tag_366\n      jump\t// in\n    tag_611:\n        /* \"#utility.yul\":26352:26432   */\n      tag_612\n        /* \"#utility.yul\":26428:26430   */\n      0x20\n        /* \"#utility.yul\":26417:26426   */\n      dup4\n        /* \"#utility.yul\":26413:26431   */\n      add\n        /* \"#utility.yul\":26404:26410   */\n      dup6\n        /* \"#utility.yul\":26352:26432   */\n      tag_366\n      jump\t// in\n    tag_612:\n        /* \"#utility.yul\":26442:26514   */\n      tag_613\n        /* \"#utility.yul\":26510:26512   */\n      0x40\n        /* \"#utility.yul\":26499:26508   */\n      dup4\n        /* \"#utility.yul\":26495:26513   */\n      add\n        /* \"#utility.yul\":26486:26492   */\n      dup5\n        /* \"#utility.yul\":26442:26514   */\n      tag_344\n      jump\t// in\n    tag_613:\n        /* \"#utility.yul\":26047:26521   */\n      swap5\n      swap4\n      pop\n      pop\n      pop\n      pop\n      jump\t// out\n        /* \"#utility.yul\":26527:26937   */\n    tag_321:\n        /* \"#utility.yul\":26567:26574   */\n      0x00\n        /* \"#utility.yul\":26590:26610   */\n      tag_615\n        /* \"#utility.yul\":26608:26609   */\n      dup3\n        /* \"#utility.yul\":26590:26610   */\n      tag_337\n      jump\t// in\n    tag_615:\n        /* \"#utility.yul\":26585:26610   */\n      swap2\n      pop\n        /* \"#utility.yul\":26624:26644   */\n      tag_616\n        /* \"#utility.yul\":26642:26643   */\n      dup4\n        /* \"#utility.yul\":26624:26644   */\n      tag_337\n      jump\t// in\n    tag_616:\n        /* \"#utility.yul\":26619:26644   */\n      swap3\n      pop\n        /* \"#utility.yul\":26679:26680   */\n      dup3\n        /* \"#utility.yul\":26676:26677   */\n      dup3\n        /* \"#utility.yul\":26672:26681   */\n      mul\n        /* \"#utility.yul\":26701:26731   */\n      tag_617\n        /* \"#utility.yul\":26719:26730   */\n      dup2\n        /* \"#utility.yul\":26701:26731   */\n      tag_337\n      jump\t// in\n    tag_617:\n        /* \"#utility.yul\":26690:26731   */\n      swap2\n      pop\n        /* \"#utility.yul\":26880:26881   */\n      dup3\n        /* \"#utility.yul\":26871:26878   */\n      dup3\n        /* \"#utility.yul\":26867:26882   */\n      div\n        /* \"#utility.yul\":26864:26865   */\n      dup5\n        /* \"#utility.yul\":26861:26883   */\n      eq\n        /* \"#utility.yul\":26841:26842   */\n      dup4\n        /* \"#utility.yul\":26834:26843   */\n      iszero\n        /* \"#utility.yul\":26814:26897   */\n      or\n        /* \"#utility.yul\":26791:26930   */\n      tag_618\n      jumpi\n        /* \"#utility.yul\":26910:26928   */\n      tag_619\n      tag_355\n      jump\t// in\n    tag_619:\n        /* \"#utility.yul\":26791:26930   */\n    tag_618:\n        /* \"#utility.yul\":26575:26937   */\n      pop\n        /* \"#utility.yul\":26527:26937   */\n      swap3\n      swap2\n      pop\n      pop\n      jump\t// out\n        /* \"#utility.yul\":26943:27123   */\n    tag_382:\n        /* \"#utility.yul\":26991:27068   */\n      0x4e487b7100000000000000000000000000000000000000000000000000000000\n        /* \"#utility.yul\":26988:26989   */\n      0x00\n        /* \"#utility.yul\":26981:27069   */\n      mstore\n        /* \"#utility.yul\":27088:27092   */\n      0x12\n        /* \"#utility.yul\":27085:27086   */\n      0x04\n        /* \"#utility.yul\":27078:27093   */\n      mstore\n        /* \"#utility.yul\":27112:27116   */\n      0x24\n        /* \"#utility.yul\":27109:27110   */\n      0x00\n        /* \"#utility.yul\":27102:27117   */\n      revert\n        /* \"#utility.yul\":27129:27314   */\n    tag_324:\n        /* \"#utility.yul\":27169:27170   */\n      0x00\n        /* \"#utility.yul\":27186:27206   */\n      tag_622\n        /* \"#utility.yul\":27204:27205   */\n      dup3\n        /* \"#utility.yul\":27186:27206   */\n      tag_337\n      jump\t// in\n    tag_622:\n        /* \"#utility.yul\":27181:27206   */\n      swap2\n      pop\n        /* \"#utility.yul\":27220:27240   */\n      tag_623\n        /* \"#utility.yul\":27238:27239   */\n      dup4\n        /* \"#utility.yul\":27220:27240   */\n      tag_337\n      jump\t// in\n    tag_623:\n        /* \"#utility.yul\":27215:27240   */\n      swap3\n      pop\n        /* \"#utility.yul\":27259:27260   */\n      dup3\n        /* \"#utility.yul\":27249:27284   */\n      tag_624\n      jumpi\n        /* \"#utility.yul\":27264:27282   */\n      tag_625\n      tag_382\n      jump\t// in\n    tag_625:\n        /* \"#utility.yul\":27249:27284   */\n    tag_624:\n        /* \"#utility.yul\":27306:27307   */\n      dup3\n        /* \"#utility.yul\":27303:27304   */\n      dup3\n        /* \"#utility.yul\":27299:27308   */\n      div\n        /* \"#utility.yul\":27294:27308   */\n      swap1\n      pop\n        /* \"#utility.yul\":27129:27314   */\n      swap3\n      swap2\n      pop\n      pop\n      jump\t// out\n\n    auxdata: 0xa2646970667358221220b21f8e5432e65311fdc9538fe1c3f76f1de470024d66fc53ba99a26d1f93223064736f6c63430008110033\n}\n",
				"bytecode": {
					"linkReferences": {},
					"object": "60806040526000600660146101000a81548160ff0219169083151502179055506000600860006101000a81548160ff0219169083151502179055503480156200004757600080fd5b5060405162002fba38038062002fba83398181016040528101906200006d91906200011e565b806000806101000a81548173ffffffffffffffffffffffffffffffffffffffff021916908373ffffffffffffffffffffffffffffffffffffffff1602179055505062000150565b600080fd5b600073ffffffffffffffffffffffffffffffffffffffff82169050919050565b6000620000e682620000b9565b9050919050565b620000f881620000d9565b81146200010457600080fd5b50565b6000815190506200011881620000ed565b92915050565b600060208284031215620001375762000136620000b4565b5b6000620001478482850162000107565b91505092915050565b612e5a80620001606000396000f3fe6080604052600436106101665760003560e01c80637a80760e116100d15780639e1a4d191161008a578063c6a6229011610064578063c6a62290146104d2578063cc4aa204146104fd578063d4fb7e2d14610528578063fce33f011461056557610166565b80639e1a4d1914610460578063a57207701461048b578063c250283c146104b657610166565b80637a80760e1461035d57806387c2797d146103885780638d1fdf2f146103a45780638da5cb5b146103cd578063927da105146103f857806394a927fe1461043557610166565b80632fac5d9f116101235780632fac5d9f1461026e578063342ac6151461028a57806338af3eed146102b357806345c8b1a6146102de5780634bfffc86146103075780636a42b8f81461033257610166565b80630171b6da1461016b578063054f7d9c146101875780630a84aac5146101b25780631903b431146101db57806323658af41461021857806328af53fa14610243575b600080fd5b610185600480360381019061018091906120ba565b6105a2565b005b34801561019357600080fd5b5061019c610d4c565b6040516101a9919061216b565b60405180910390f35b3480156101be57600080fd5b506101d960048036038101906101d49190612186565b610d5f565b005b3480156101e757600080fd5b5061020260048036038101906101fd91906121d9565b610ec7565b60405161020f9190612228565b60405180910390f35b34801561022457600080fd5b5061022d610f5a565b60405161023a9190612252565b60405180910390f35b34801561024f57600080fd5b50610258610f84565b6040516102659190612228565b60405180910390f35b6102886004803603810190610283919061226d565b610f8a565b005b34801561029657600080fd5b506102b160048036038101906102ac91906122c0565b611057565b005b3480156102bf57600080fd5b506102c861112e565b6040516102d59190612322565b60405180910390f35b3480156102ea57600080fd5b506103056004803603810190610300919061233d565b611154565b005b34801561031357600080fd5b5061031c611237565b6040516103299190612228565b60405180910390f35b34801561033e57600080fd5b50610347611241565b6040516103549190612228565b60405180910390f35b34801561036957600080fd5b50610372611247565b60405161037f9190612322565b60405180910390f35b6103a2600480360381019061039d919061236a565b61126d565b005b3480156103b057600080fd5b506103cb60048036038101906103c6919061233d565b611b77565b005b3480156103d957600080fd5b506103e2611c5a565b6040516103ef9190612322565b60405180910390f35b34801561040457600080fd5b5061041f600480360381019061041a91906123f7565b611c7e565b60405161042c9190612228565b60405180910390f35b34801561044157600080fd5b5061044a611d0a565b6040516104579190612252565b60405180910390f35b34801561046c57600080fd5b50610475611d33565b6040516104829190612228565b60405180910390f35b34801561049757600080fd5b506104a0611d39565b6040516104ad919061216b565b60405180910390f35b6104d060048036038101906104cb919061244a565b611d4c565b005b3480156104de57600080fd5b506104e7611ed8565b6040516104f49190612228565b60405180910390f35b34801561050957600080fd5b50610512611ee2565b60405161051f9190612510565b60405180910390f35b34801561053457600080fd5b5061054f600480360381019061054a919061233d565b611f08565b60405161055c9190612228565b60405180910390f35b34801561057157600080fd5b5061058c6004803603810190610587919061233d565b611f51565b6040516105999190612228565b60405180910390f35b60008054906101000a900473ffffffffffffffffffffffffffffffffffffffff1673ffffffffffffffffffffffffffffffffffffffff168373ffffffffffffffffffffffffffffffffffffffff1614806106495750600160009054906101000a900473ffffffffffffffffffffffffffffffffffffffff1673ffffffffffffffffffffffffffffffffffffffff168373ffffffffffffffffffffffffffffffffffffffff16145b610688576040517f08c379a000000000000000000000000000000000000000000000000000000000815260040161067f906125ae565b60405180910390fd5b600160009054906101000a900473ffffffffffffffffffffffffffffffffffffffff1673ffffffffffffffffffffffffffffffffffffffff168373ffffffffffffffffffffffffffffffffffffffff160361077957600960008573ffffffffffffffffffffffffffffffffffffffff1673ffffffffffffffffffffffffffffffffffffffff168152602001908152602001600020548511158061073957504260035460025461073791906125fd565b105b610778576040517f08c379a000000000000000000000000000000000000000000000000000000000815260040161076f906126c9565b60405180910390fd5b5b600860009054906101000a900460ff16156107c9576040517f08c379a00000000000000000000000000000000000000000000000000000000081526004016107c09061275b565b60405180910390fd5b86156109c35747851115610812576040517f08c379a0000000000000000000000000000000000000000000000000000000008152600401610809906127c7565b60405180910390fd5b600660149054906101000a900460ff1615610862576040517f08c379a000000000000000000000000000000000000000000000000000000000815260040161085990612859565b60405180910390fd5b6001600660146101000a81548160ff0219169083151502179055506108a360646108958388611f6990919063ffffffff16565b611f7f90919063ffffffff16565b6004819055508573ffffffffffffffffffffffffffffffffffffffff166108fc6108d860045488611f9590919063ffffffff16565b9081150290604051600060405180830381858888f19350505050158015610903573d6000803e3d6000fd5b508173ffffffffffffffffffffffffffffffffffffffff166108fc6004549081150290604051600060405180830381858888f1935050505015801561094c573d6000803e3d6000fd5b5084600960008673ffffffffffffffffffffffffffffffffffffffff1673ffffffffffffffffffffffffffffffffffffffff168152602001908152602001600020600082825461099c9190612879565b925050819055506000600660146101000a81548160ff021916908315150217905550610d43565b83600660006101000a81548173ffffffffffffffffffffffffffffffffffffffff021916908373ffffffffffffffffffffffffffffffffffffffff160217905550600660009054906101000a900473ffffffffffffffffffffffffffffffffffffffff1673ffffffffffffffffffffffffffffffffffffffff166370a08231306040518263ffffffff1660e01b8152600401610a5f9190612252565b602060405180830381865afa158015610a7c573d6000803e3d6000fd5b505050506040513d601f19601f82011682018060405250810190610aa091906128c2565b851115610ae2576040517f08c379a0000000000000000000000000000000000000000000000000000000008152600401610ad9906127c7565b60405180910390fd5b600660149054906101000a900460ff1615610b32576040517f08c379a0000000000000000000000000000000000000000000000000000000008152600401610b2990612859565b60405180910390fd5b6001600660146101000a81548160ff021916908315150217905550610b736064610b658388611f6990919063ffffffff16565b611f7f90919063ffffffff16565b600481905550600660009054906101000a900473ffffffffffffffffffffffffffffffffffffffff1673ffffffffffffffffffffffffffffffffffffffff1663a9059cbb87610bcd60045489611f9590919063ffffffff16565b6040518363ffffffff1660e01b8152600401610bea929190612910565b6020604051808303816000875af1158015610c09573d6000803e3d6000fd5b505050506040513d601f19601f82011682018060405250810190610c2d919061294e565b50600660009054906101000a900473ffffffffffffffffffffffffffffffffffffffff1673ffffffffffffffffffffffffffffffffffffffff1663a9059cbb836004546040518363ffffffff1660e01b8152600401610c8d929190612910565b6020604051808303816000875af1158015610cac573d6000803e3d6000fd5b505050506040513d601f19601f82011682018060405250810190610cd0919061294e565b5084600960008673ffffffffffffffffffffffffffffffffffffffff1673ffffffffffffffffffffffffffffffffffffffff1681526020019081526020016000206000828254610d209190612879565b925050819055506000600660146101000a81548160ff0219169083151502179055505b50505050505050565b600860009054906101000a900460ff1681565b8073ffffffffffffffffffffffffffffffffffffffff1660008054906101000a900473ffffffffffffffffffffffffffffffffffffffff1673ffffffffffffffffffffffffffffffffffffffff1614610ded576040517f08c379a0000000000000000000000000000000000000000000000000000000008152600401610de4906129ed565b60405180910390fd5b600660149054906101000a900460ff1615610e3d576040517f08c379a0000000000000000000000000000000000000000000000000000000008152600401610e3490612859565b60405180910390fd5b6001600660146101000a81548160ff02191690831515021790555082600160006101000a81548173ffffffffffffffffffffffffffffffffffffffff021916908373ffffffffffffffffffffffffffffffffffffffff160217905550816003819055506000600660146101000a81548160ff02191690831515021790555042600281905550505050565b60008215610ed757479050610f54565b8173ffffffffffffffffffffffffffffffffffffffff166370a08231306040518263ffffffff1660e01b8152600401610f109190612252565b602060405180830381865afa158015610f2d573d6000803e3d6000fd5b505050506040513d601f19601f82011682018060405250810190610f5191906128c2565b90505b92915050565b6000600160009054906101000a900473ffffffffffffffffffffffffffffffffffffffff16905090565b60025481565b60008311610fcd576040517f08c379a0000000000000000000000000000000000000000000000000000000008152600401610fc490612a59565b60405180910390fd5b60008290508073ffffffffffffffffffffffffffffffffffffffff1663095ea7b383866040518363ffffffff1660e01b815260040161100d929190612910565b6020604051808303816000875af115801561102c573d6000803e3d6000fd5b505050506040513d601f19601f82011682018060405250810190611050919061294e565b5050505050565b60008054906101000a900473ffffffffffffffffffffffffffffffffffffffff1673ffffffffffffffffffffffffffffffffffffffff168373ffffffffffffffffffffffffffffffffffffffff16146110e5576040517f08c379a00000000000000000000000000000000000000000000000000000000081526004016110dc90612aeb565b60405180910390fd5b81600960008373ffffffffffffffffffffffffffffffffffffffff1673ffffffffffffffffffffffffffffffffffffffff16815260200190815260200160002081905550505050565b600160009054906101000a900473ffffffffffffffffffffffffffffffffffffffff1681565b60008054906101000a900473ffffffffffffffffffffffffffffffffffffffff1673ffffffffffffffffffffffffffffffffffffffff168173ffffffffffffffffffffffffffffffffffffffff16146111e2576040517f08c379a00000000000000000000000000000000000000000000000000000000081526004016111d990612b7d565b60405180910390fd5b6000600860006101000a81548160ff0219169083151502179055507fca5069937e68fd197927055037f59d7c90bf75ac104e6e375539ef480c3ad6ee8160405161122c9190612252565b60405180910390a150565b6000600254905090565b60035481565b600560009054906101000a900473ffffffffffffffffffffffffffffffffffffffff1681565b60008054906101000a900473ffffffffffffffffffffffffffffffffffffffff1673ffffffffffffffffffffffffffffffffffffffff168373ffffffffffffffffffffffffffffffffffffffff1614806113145750600160009054906101000a900473ffffffffffffffffffffffffffffffffffffffff1673ffffffffffffffffffffffffffffffffffffffff168373ffffffffffffffffffffffffffffffffffffffff16145b611353576040517f08c379a000000000000000000000000000000000000000000000000000000000815260040161134a906125ae565b60405180910390fd5b600160009054906101000a900473ffffffffffffffffffffffffffffffffffffffff1673ffffffffffffffffffffffffffffffffffffffff168373ffffffffffffffffffffffffffffffffffffffff160361144457600960008573ffffffffffffffffffffffffffffffffffffffff1673ffffffffffffffffffffffffffffffffffffffff168152602001908152602001600020548511158061140457504260035460025461140291906125fd565b105b611443576040517f08c379a000000000000000000000000000000000000000000000000000000000815260040161143a906126c9565b60405180910390fd5b5b600860009054906101000a900460ff1615611494576040517f08c379a000000000000000000000000000000000000000000000000000000000815260040161148b9061275b565b60405180910390fd5b85156116f157600047116114dd576040517f08c379a00000000000000000000000000000000000000000000000000000000081526004016114d490612be9565b60405180910390fd5b47851115611520576040517f08c379a0000000000000000000000000000000000000000000000000000000008152600401611517906127c7565b60405180910390fd5b600660149054906101000a900460ff1615611570576040517f08c379a000000000000000000000000000000000000000000000000000000000815260040161156790612859565b60405180910390fd5b6001600660146101000a81548160ff0219169083151502179055506115b160646115a38388611f6990919063ffffffff16565b611f7f90919063ffffffff16565b60048190555060008054906101000a900473ffffffffffffffffffffffffffffffffffffffff1673ffffffffffffffffffffffffffffffffffffffff166108fc61160660045488611f9590919063ffffffff16565b9081150290604051600060405180830381858888f19350505050158015611631573d6000803e3d6000fd5b508173ffffffffffffffffffffffffffffffffffffffff166108fc6004549081150290604051600060405180830381858888f1935050505015801561167a573d6000803e3d6000fd5b5084600960008673ffffffffffffffffffffffffffffffffffffffff1673ffffffffffffffffffffffffffffffffffffffff16815260200190815260200160002060008282546116ca9190612879565b925050819055506000600660146101000a81548160ff021916908315150217905550611b6f565b83600660006101000a81548173ffffffffffffffffffffffffffffffffffffffff021916908373ffffffffffffffffffffffffffffffffffffffff1602179055506000600660009054906101000a900473ffffffffffffffffffffffffffffffffffffffff1673ffffffffffffffffffffffffffffffffffffffff166370a08231306040518263ffffffff1660e01b815260040161178f9190612252565b602060405180830381865afa1580156117ac573d6000803e3d6000fd5b505050506040513d601f19601f820116820180604052508101906117d091906128c2565b11611810576040517f08c379a000000000000000000000000000000000000000000000000000000000815260040161180790612be9565b60405180910390fd5b600660009054906101000a900473ffffffffffffffffffffffffffffffffffffffff1673ffffffffffffffffffffffffffffffffffffffff166370a08231306040518263ffffffff1660e01b815260040161186b9190612252565b602060405180830381865afa158015611888573d6000803e3d6000fd5b505050506040513d601f19601f820116820180604052508101906118ac91906128c2565b8511156118ee576040517f08c379a00000000000000000000000000000000000000000000000000000000081526004016118e5906127c7565b60405180910390fd5b600660149054906101000a900460ff161561193e576040517f08c379a000000000000000000000000000000000000000000000000000000000815260040161193590612859565b60405180910390fd5b6001600660146101000a81548160ff02191690831515021790555061197f60646119718388611f6990919063ffffffff16565b611f7f90919063ffffffff16565b600481905550600660009054906101000a900473ffffffffffffffffffffffffffffffffffffffff1673ffffffffffffffffffffffffffffffffffffffff1663a9059cbb60008054906101000a900473ffffffffffffffffffffffffffffffffffffffff166119f960045489611f9590919063ffffffff16565b6040518363ffffffff1660e01b8152600401611a16929190612910565b6020604051808303816000875af1158015611a35573d6000803e3d6000fd5b505050506040513d601f19601f82011682018060405250810190611a59919061294e565b50600660009054906101000a900473ffffffffffffffffffffffffffffffffffffffff1673ffffffffffffffffffffffffffffffffffffffff1663a9059cbb836004546040518363ffffffff1660e01b8152600401611ab9929190612910565b6020604051808303816000875af1158015611ad8573d6000803e3d6000fd5b505050506040513d601f19601f82011682018060405250810190611afc919061294e565b5084600960008673ffffffffffffffffffffffffffffffffffffffff1673ffffffffffffffffffffffffffffffffffffffff1681526020019081526020016000206000828254611b4c9190612879565b925050819055506000600660146101000a81548160ff0219169083151502179055505b505050505050565b60008054906101000a900473ffffffffffffffffffffffffffffffffffffffff1673ffffffffffffffffffffffffffffffffffffffff168173ffffffffffffffffffffffffffffffffffffffff1614611c05576040517f08c379a0000000000000000000000000000000000000000000000000000000008152600401611bfc90612c7b565b60405180910390fd5b6001600860006101000a81548160ff0219169083151502179055507faf85b60d26151edd11443b704d424da6c43d0468f2235ebae3d1904dbc32304981604051611c4f9190612252565b60405180910390a150565b60008054906101000a900473ffffffffffffffffffffffffffffffffffffffff1681565b6000808490508073ffffffffffffffffffffffffffffffffffffffff1663dd62ed3e85856040518363ffffffff1660e01b8152600401611cbf929190612c9b565b602060405180830381865afa158015611cdc573d6000803e3d6000fd5b505050506040513d601f19601f82011682018060405250810190611d0091906128c2565b9150509392505050565b60008060009054906101000a900473ffffffffffffffffffffffffffffffffffffffff16905090565b60075481565b600660149054906101000a900460ff1681565b60008411611d8f576040517f08c379a0000000000000000000000000000000000000000000000000000000008152600401611d8690612a59565b60405180910390fd5b6000829050848173ffffffffffffffffffffffffffffffffffffffff166370a08231866040518263ffffffff1660e01b8152600401611dce9190612cc4565b602060405180830381865afa158015611deb573d6000803e3d6000fd5b505050506040513d601f19601f82011682018060405250810190611e0f91906128c2565b1015611e50576040517f08c379a0000000000000000000000000000000000000000000000000000000008152600401611e4790612d2b565b60405180910390fd5b8073ffffffffffffffffffffffffffffffffffffffff166323b872dd8584886040518463ffffffff1660e01b8152600401611e8d93929190612d4b565b6020604051808303816000875af1158015611eac573d6000803e3d6000fd5b505050506040513d601f19601f82011682018060405250810190611ed0919061294e565b505050505050565b6000600354905090565b600660009054906101000a900473ffffffffffffffffffffffffffffffffffffffff1681565b6000600960008373ffffffffffffffffffffffffffffffffffffffff1673ffffffffffffffffffffffffffffffffffffffff168152602001908152602001600020549050919050565b60096020528060005260406000206000915090505481565b60008183611f779190612d82565b905092915050565b60008183611f8d9190612df3565b905092915050565b60008183611fa39190612879565b905092915050565b600080fd5b60008115159050919050565b611fc581611fb0565b8114611fd057600080fd5b50565b600081359050611fe281611fbc565b92915050565b600073ffffffffffffffffffffffffffffffffffffffff82169050919050565b600061201382611fe8565b9050919050565b61202381612008565b811461202e57600080fd5b50565b6000813590506120408161201a565b92915050565b6000819050919050565b61205981612046565b811461206457600080fd5b50565b60008135905061207681612050565b92915050565b600061208782611fe8565b9050919050565b6120978161207c565b81146120a257600080fd5b50565b6000813590506120b48161208e565b92915050565b600080600080600080600060e0888a0312156120d9576120d8611fab565b5b60006120e78a828b01611fd3565b97505060206120f88a828b01612031565b96505060406121098a828b01612067565b955050606061211a8a828b016120a5565b945050608061212b8a828b016120a5565b93505060a061213c8a828b01612031565b92505060c061214d8a828b01612067565b91505092959891949750929550565b61216581611fb0565b82525050565b6000602082019050612180600083018461215c565b92915050565b60008060006060848603121561219f5761219e611fab565b5b60006121ad86828701612031565b93505060206121be86828701612067565b92505060406121cf868287016120a5565b9150509250925092565b600080604083850312156121f0576121ef611fab565b5b60006121fe85828601611fd3565b925050602061220f858286016120a5565b9150509250929050565b61222281612046565b82525050565b600060208201905061223d6000830184612219565b92915050565b61224c8161207c565b82525050565b60006020820190506122676000830184612243565b92915050565b60008060006060848603121561228657612285611fab565b5b600061229486828701612067565b93505060206122a5868287016120a5565b92505060406122b686828701612031565b9150509250925092565b6000806000606084860312156122d9576122d8611fab565b5b60006122e7868287016120a5565b93505060206122f886828701612067565b9250506040612309868287016120a5565b9150509250925092565b61231c81612008565b82525050565b60006020820190506123376000830184612313565b92915050565b60006020828403121561235357612352611fab565b5b6000612361848285016120a5565b91505092915050565b60008060008060008060c0878903121561238757612386611fab565b5b600061239589828a01611fd3565b96505060206123a689828a01612067565b95505060406123b789828a016120a5565b94505060606123c889828a016120a5565b93505060806123d989828a01612031565b92505060a06123ea89828a01612067565b9150509295509295509295565b6000806000606084860312156124105761240f611fab565b5b600061241e868287016120a5565b935050602061242f86828701612031565b925050604061244086828701612031565b9150509250925092565b6000806000806080858703121561246457612463611fab565b5b600061247287828801612067565b945050602061248387828801612031565b9350506040612494878288016120a5565b92505060606124a587828801612031565b91505092959194509250565b6000819050919050565b60006124d66124d16124cc84611fe8565b6124b1565b611fe8565b9050919050565b60006124e8826124bb565b9050919050565b60006124fa826124dd565b9050919050565b61250a816124ef565b82525050565b60006020820190506125256000830184612501565b92915050565b600082825260208201905092915050565b7f4f6e6c7920746865206f776e6572206f72207468652062656e6566696369617260008201527f792063616e2077697468647261772066756e64732e0000000000000000000000602082015250565b600061259860358361252b565b91506125a38261253c565b604082019050919050565b600060208201905081810360008301526125c78161258b565b9050919050565b7f4e487b7100000000000000000000000000000000000000000000000000000000600052601160045260246000fd5b600061260882612046565b915061261383612046565b925082820190508082111561262b5761262a6125ce565b5b92915050565b7f546865207769746864726177616c20616d6f756e74206578636565647320746860008201527f65206c696d6974206f722064656c617920686173206e6f74207061737365642060208201527f7965742e00000000000000000000000000000000000000000000000000000000604082015250565b60006126b360448361252b565b91506126be82612631565b606082019050919050565b600060208201905081810360008301526126e2816126a6565b9050919050565b7f4163636f756e742069732066726f7a656e2c2063616e6e6f742077697468647260008201527f61772066756e64732e0000000000000000000000000000000000000000000000602082015250565b600061274560298361252b565b9150612750826126e9565b604082019050919050565b6000602082019050818103600083015261277481612738565b9050919050565b7f496e73756666696369656e742066756e64732e00000000000000000000000000600082015250565b60006127b160138361252b565b91506127bc8261277b565b602082019050919050565b600060208201905081810360008301526127e0816127a4565b9050919050565b7f5468652066756e6374696f6e20697320616c726561647920696e20657865637560008201527f74696f6e2e000000000000000000000000000000000000000000000000000000602082015250565b600061284360258361252b565b915061284e826127e7565b604082019050919050565b6000602082019050818103600083015261287281612836565b9050919050565b600061288482612046565b915061288f83612046565b92508282039050818111156128a7576128a66125ce565b5b92915050565b6000815190506128bc81612050565b92915050565b6000602082840312156128d8576128d7611fab565b5b60006128e6848285016128ad565b91505092915050565b60006128fa826124dd565b9050919050565b61290a816128ef565b82525050565b60006040820190506129256000830185612901565b6129326020830184612219565b9392505050565b60008151905061294881611fbc565b92915050565b60006020828403121561296457612963611fab565b5b600061297284828501612939565b91505092915050565b7f4f6e6c7920746865206f776e65722063616e20736574207468652062656e656660008201527f6963696172792e00000000000000000000000000000000000000000000000000602082015250565b60006129d760278361252b565b91506129e28261297b565b604082019050919050565b60006020820190508181036000830152612a06816129ca565b9050919050565b7f43616e6e6f74206465706f7369742030206f72206c6573732e00000000000000600082015250565b6000612a4360198361252b565b9150612a4e82612a0d565b602082019050919050565b60006020820190508181036000830152612a7281612a36565b9050919050565b7f4f6e6c7920746865206f776e65722063616e207365742074686520776974686460008201527f726177616c206c696d69742e0000000000000000000000000000000000000000602082015250565b6000612ad5602c8361252b565b9150612ae082612a79565b604082019050919050565b60006020820190508181036000830152612b0481612ac8565b9050919050565b7f4f6e6c7920746865206f776e65722063616e20756e667265657a65207468652060008201527f6163636f756e742e000000000000000000000000000000000000000000000000602082015250565b6000612b6760288361252b565b9150612b7282612b0b565b604082019050919050565b60006020820190508181036000830152612b9681612b5a565b9050919050565b7f546865726520617265206e6f2066756e647320746f2077697468647261772e00600082015250565b6000612bd3601f8361252b565b9150612bde82612b9d565b602082019050919050565b60006020820190508181036000830152612c0281612bc6565b9050919050565b7f4f6e6c7920746865206f776e65722063616e20667265657a652074686520616360008201527f636f756e742e0000000000000000000000000000000000000000000000000000602082015250565b6000612c6560268361252b565b9150612c7082612c09565b604082019050919050565b60006020820190508181036000830152612c9481612c58565b9050919050565b6000604082019050612cb06000830185612901565b612cbd6020830184612901565b9392505050565b6000602082019050612cd96000830184612901565b92915050565b7f496e73756666696369656e742062616c616e6365000000000000000000000000600082015250565b6000612d1560148361252b565b9150612d2082612cdf565b602082019050919050565b60006020820190508181036000830152612d4481612d08565b9050919050565b6000606082019050612d606000830186612901565b612d6d6020830185612901565b612d7a6040830184612219565b949350505050565b6000612d8d82612046565b9150612d9883612046565b9250828202612da681612046565b91508282048414831517612dbd57612dbc6125ce565b5b5092915050565b7f4e487b7100000000000000000000000000000000000000000000000000000000600052601260045260246000fd5b6000612dfe82612046565b9150612e0983612046565b925082612e1957612e18612dc4565b5b82820490509291505056fea2646970667358221220b21f8e5432e65311fdc9538fe1c3f76f1de470024d66fc53ba99a26d1f93223064736f6c63430008110033",
					"opcodes": "PUSH1 0x80 PUSH1 0x40 MSTORE PUSH1 0x0 PUSH1 0x6 PUSH1 0x14 PUSH2 0x100 EXP DUP2 SLOAD DUP2 PUSH1 0xFF MUL NOT AND SWAP1 DUP4 ISZERO ISZERO MUL OR SWAP1 SSTORE POP PUSH1 0x0 PUSH1 0x8 PUSH1 0x0 PUSH2 0x100 EXP DUP2 SLOAD DUP2 PUSH1 0xFF MUL NOT AND SWAP1 DUP4 ISZERO ISZERO MUL OR SWAP1 SSTORE POP CALLVALUE DUP1 ISZERO PUSH3 0x47 JUMPI PUSH1 0x0 DUP1 REVERT JUMPDEST POP PUSH1 0x40 MLOAD PUSH3 0x2FBA CODESIZE SUB DUP1 PUSH3 0x2FBA DUP4 CODECOPY DUP2 DUP2 ADD PUSH1 0x40 MSTORE DUP2 ADD SWAP1 PUSH3 0x6D SWAP2 SWAP1 PUSH3 0x11E JUMP JUMPDEST DUP1 PUSH1 0x0 DUP1 PUSH2 0x100 EXP DUP2 SLOAD DUP2 PUSH20 0xFFFFFFFFFFFFFFFFFFFFFFFFFFFFFFFFFFFFFFFF MUL NOT AND SWAP1 DUP4 PUSH20 0xFFFFFFFFFFFFFFFFFFFFFFFFFFFFFFFFFFFFFFFF AND MUL OR SWAP1 SSTORE POP POP PUSH3 0x150 JUMP JUMPDEST PUSH1 0x0 DUP1 REVERT JUMPDEST PUSH1 0x0 PUSH20 0xFFFFFFFFFFFFFFFFFFFFFFFFFFFFFFFFFFFFFFFF DUP3 AND SWAP1 POP SWAP2 SWAP1 POP JUMP JUMPDEST PUSH1 0x0 PUSH3 0xE6 DUP3 PUSH3 0xB9 JUMP JUMPDEST SWAP1 POP SWAP2 SWAP1 POP JUMP JUMPDEST PUSH3 0xF8 DUP2 PUSH3 0xD9 JUMP JUMPDEST DUP2 EQ PUSH3 0x104 JUMPI PUSH1 0x0 DUP1 REVERT JUMPDEST POP JUMP JUMPDEST PUSH1 0x0 DUP2 MLOAD SWAP1 POP PUSH3 0x118 DUP2 PUSH3 0xED JUMP JUMPDEST SWAP3 SWAP2 POP POP JUMP JUMPDEST PUSH1 0x0 PUSH1 0x20 DUP3 DUP5 SUB SLT ISZERO PUSH3 0x137 JUMPI PUSH3 0x136 PUSH3 0xB4 JUMP JUMPDEST JUMPDEST PUSH1 0x0 PUSH3 0x147 DUP5 DUP3 DUP6 ADD PUSH3 0x107 JUMP JUMPDEST SWAP2 POP POP SWAP3 SWAP2 POP POP JUMP JUMPDEST PUSH2 0x2E5A DUP1 PUSH3 0x160 PUSH1 0x0 CODECOPY PUSH1 0x0 RETURN INVALID PUSH1 0x80 PUSH1 0x40 MSTORE PUSH1 0x4 CALLDATASIZE LT PUSH2 0x166 JUMPI PUSH1 0x0 CALLDATALOAD PUSH1 0xE0 SHR DUP1 PUSH4 0x7A80760E GT PUSH2 0xD1 JUMPI DUP1 PUSH4 0x9E1A4D19 GT PUSH2 0x8A JUMPI DUP1 PUSH4 0xC6A62290 GT PUSH2 0x64 JUMPI DUP1 PUSH4 0xC6A62290 EQ PUSH2 0x4D2 JUMPI DUP1 PUSH4 0xCC4AA204 EQ PUSH2 0x4FD JUMPI DUP1 PUSH4 0xD4FB7E2D EQ PUSH2 0x528 JUMPI DUP1 PUSH4 0xFCE33F01 EQ PUSH2 0x565 JUMPI PUSH2 0x166 JUMP JUMPDEST DUP1 PUSH4 0x9E1A4D19 EQ PUSH2 0x460 JUMPI DUP1 PUSH4 0xA5720770 EQ PUSH2 0x48B JUMPI DUP1 PUSH4 0xC250283C EQ PUSH2 0x4B6 JUMPI PUSH2 0x166 JUMP JUMPDEST DUP1 PUSH4 0x7A80760E EQ PUSH2 0x35D JUMPI DUP1 PUSH4 0x87C2797D EQ PUSH2 0x388 JUMPI DUP1 PUSH4 0x8D1FDF2F EQ PUSH2 0x3A4 JUMPI DUP1 PUSH4 0x8DA5CB5B EQ PUSH2 0x3CD JUMPI DUP1 PUSH4 0x927DA105 EQ PUSH2 0x3F8 JUMPI DUP1 PUSH4 0x94A927FE EQ PUSH2 0x435 JUMPI PUSH2 0x166 JUMP JUMPDEST DUP1 PUSH4 0x2FAC5D9F GT PUSH2 0x123 JUMPI DUP1 PUSH4 0x2FAC5D9F EQ PUSH2 0x26E JUMPI DUP1 PUSH4 0x342AC615 EQ PUSH2 0x28A JUMPI DUP1 PUSH4 0x38AF3EED EQ PUSH2 0x2B3 JUMPI DUP1 PUSH4 0x45C8B1A6 EQ PUSH2 0x2DE JUMPI DUP1 PUSH4 0x4BFFFC86 EQ PUSH2 0x307 JUMPI DUP1 PUSH4 0x6A42B8F8 EQ PUSH2 0x332 JUMPI PUSH2 0x166 JUMP JUMPDEST DUP1 PUSH4 0x171B6DA EQ PUSH2 0x16B JUMPI DUP1 PUSH4 0x54F7D9C EQ PUSH2 0x187 JUMPI DUP1 PUSH4 0xA84AAC5 EQ PUSH2 0x1B2 JUMPI DUP1 PUSH4 0x1903B431 EQ PUSH2 0x1DB JUMPI DUP1 PUSH4 0x23658AF4 EQ PUSH2 0x218 JUMPI DUP1 PUSH4 0x28AF53FA EQ PUSH2 0x243 JUMPI JUMPDEST PUSH1 0x0 DUP1 REVERT JUMPDEST PUSH2 0x185 PUSH1 0x4 DUP1 CALLDATASIZE SUB DUP2 ADD SWAP1 PUSH2 0x180 SWAP2 SWAP1 PUSH2 0x20BA JUMP JUMPDEST PUSH2 0x5A2 JUMP JUMPDEST STOP JUMPDEST CALLVALUE DUP1 ISZERO PUSH2 0x193 JUMPI PUSH1 0x0 DUP1 REVERT JUMPDEST POP PUSH2 0x19C PUSH2 0xD4C JUMP JUMPDEST PUSH1 0x40 MLOAD PUSH2 0x1A9 SWAP2 SWAP1 PUSH2 0x216B JUMP JUMPDEST PUSH1 0x40 MLOAD DUP1 SWAP2 SUB SWAP1 RETURN JUMPDEST CALLVALUE DUP1 ISZERO PUSH2 0x1BE JUMPI PUSH1 0x0 DUP1 REVERT JUMPDEST POP PUSH2 0x1D9 PUSH1 0x4 DUP1 CALLDATASIZE SUB DUP2 ADD SWAP1 PUSH2 0x1D4 SWAP2 SWAP1 PUSH2 0x2186 JUMP JUMPDEST PUSH2 0xD5F JUMP JUMPDEST STOP JUMPDEST CALLVALUE DUP1 ISZERO PUSH2 0x1E7 JUMPI PUSH1 0x0 DUP1 REVERT JUMPDEST POP PUSH2 0x202 PUSH1 0x4 DUP1 CALLDATASIZE SUB DUP2 ADD SWAP1 PUSH2 0x1FD SWAP2 SWAP1 PUSH2 0x21D9 JUMP JUMPDEST PUSH2 0xEC7 JUMP JUMPDEST PUSH1 0x40 MLOAD PUSH2 0x20F SWAP2 SWAP1 PUSH2 0x2228 JUMP JUMPDEST PUSH1 0x40 MLOAD DUP1 SWAP2 SUB SWAP1 RETURN JUMPDEST CALLVALUE DUP1 ISZERO PUSH2 0x224 JUMPI PUSH1 0x0 DUP1 REVERT JUMPDEST POP PUSH2 0x22D PUSH2 0xF5A JUMP JUMPDEST PUSH1 0x40 MLOAD PUSH2 0x23A SWAP2 SWAP1 PUSH2 0x2252 JUMP JUMPDEST PUSH1 0x40 MLOAD DUP1 SWAP2 SUB SWAP1 RETURN JUMPDEST CALLVALUE DUP1 ISZERO PUSH2 0x24F JUMPI PUSH1 0x0 DUP1 REVERT JUMPDEST POP PUSH2 0x258 PUSH2 0xF84 JUMP JUMPDEST PUSH1 0x40 MLOAD PUSH2 0x265 SWAP2 SWAP1 PUSH2 0x2228 JUMP JUMPDEST PUSH1 0x40 MLOAD DUP1 SWAP2 SUB SWAP1 RETURN JUMPDEST PUSH2 0x288 PUSH1 0x4 DUP1 CALLDATASIZE SUB DUP2 ADD SWAP1 PUSH2 0x283 SWAP2 SWAP1 PUSH2 0x226D JUMP JUMPDEST PUSH2 0xF8A JUMP JUMPDEST STOP JUMPDEST CALLVALUE DUP1 ISZERO PUSH2 0x296 JUMPI PUSH1 0x0 DUP1 REVERT JUMPDEST POP PUSH2 0x2B1 PUSH1 0x4 DUP1 CALLDATASIZE SUB DUP2 ADD SWAP1 PUSH2 0x2AC SWAP2 SWAP1 PUSH2 0x22C0 JUMP JUMPDEST PUSH2 0x1057 JUMP JUMPDEST STOP JUMPDEST CALLVALUE DUP1 ISZERO PUSH2 0x2BF JUMPI PUSH1 0x0 DUP1 REVERT JUMPDEST POP PUSH2 0x2C8 PUSH2 0x112E JUMP JUMPDEST PUSH1 0x40 MLOAD PUSH2 0x2D5 SWAP2 SWAP1 PUSH2 0x2322 JUMP JUMPDEST PUSH1 0x40 MLOAD DUP1 SWAP2 SUB SWAP1 RETURN JUMPDEST CALLVALUE DUP1 ISZERO PUSH2 0x2EA JUMPI PUSH1 0x0 DUP1 REVERT JUMPDEST POP PUSH2 0x305 PUSH1 0x4 DUP1 CALLDATASIZE SUB DUP2 ADD SWAP1 PUSH2 0x300 SWAP2 SWAP1 PUSH2 0x233D JUMP JUMPDEST PUSH2 0x1154 JUMP JUMPDEST STOP JUMPDEST CALLVALUE DUP1 ISZERO PUSH2 0x313 JUMPI PUSH1 0x0 DUP1 REVERT JUMPDEST POP PUSH2 0x31C PUSH2 0x1237 JUMP JUMPDEST PUSH1 0x40 MLOAD PUSH2 0x329 SWAP2 SWAP1 PUSH2 0x2228 JUMP JUMPDEST PUSH1 0x40 MLOAD DUP1 SWAP2 SUB SWAP1 RETURN JUMPDEST CALLVALUE DUP1 ISZERO PUSH2 0x33E JUMPI PUSH1 0x0 DUP1 REVERT JUMPDEST POP PUSH2 0x347 PUSH2 0x1241 JUMP JUMPDEST PUSH1 0x40 MLOAD PUSH2 0x354 SWAP2 SWAP1 PUSH2 0x2228 JUMP JUMPDEST PUSH1 0x40 MLOAD DUP1 SWAP2 SUB SWAP1 RETURN JUMPDEST CALLVALUE DUP1 ISZERO PUSH2 0x369 JUMPI PUSH1 0x0 DUP1 REVERT JUMPDEST POP PUSH2 0x372 PUSH2 0x1247 JUMP JUMPDEST PUSH1 0x40 MLOAD PUSH2 0x37F SWAP2 SWAP1 PUSH2 0x2322 JUMP JUMPDEST PUSH1 0x40 MLOAD DUP1 SWAP2 SUB SWAP1 RETURN JUMPDEST PUSH2 0x3A2 PUSH1 0x4 DUP1 CALLDATASIZE SUB DUP2 ADD SWAP1 PUSH2 0x39D SWAP2 SWAP1 PUSH2 0x236A JUMP JUMPDEST PUSH2 0x126D JUMP JUMPDEST STOP JUMPDEST CALLVALUE DUP1 ISZERO PUSH2 0x3B0 JUMPI PUSH1 0x0 DUP1 REVERT JUMPDEST POP PUSH2 0x3CB PUSH1 0x4 DUP1 CALLDATASIZE SUB DUP2 ADD SWAP1 PUSH2 0x3C6 SWAP2 SWAP1 PUSH2 0x233D JUMP JUMPDEST PUSH2 0x1B77 JUMP JUMPDEST STOP JUMPDEST CALLVALUE DUP1 ISZERO PUSH2 0x3D9 JUMPI PUSH1 0x0 DUP1 REVERT JUMPDEST POP PUSH2 0x3E2 PUSH2 0x1C5A JUMP JUMPDEST PUSH1 0x40 MLOAD PUSH2 0x3EF SWAP2 SWAP1 PUSH2 0x2322 JUMP JUMPDEST PUSH1 0x40 MLOAD DUP1 SWAP2 SUB SWAP1 RETURN JUMPDEST CALLVALUE DUP1 ISZERO PUSH2 0x404 JUMPI PUSH1 0x0 DUP1 REVERT JUMPDEST POP PUSH2 0x41F PUSH1 0x4 DUP1 CALLDATASIZE SUB DUP2 ADD SWAP1 PUSH2 0x41A SWAP2 SWAP1 PUSH2 0x23F7 JUMP JUMPDEST PUSH2 0x1C7E JUMP JUMPDEST PUSH1 0x40 MLOAD PUSH2 0x42C SWAP2 SWAP1 PUSH2 0x2228 JUMP JUMPDEST PUSH1 0x40 MLOAD DUP1 SWAP2 SUB SWAP1 RETURN JUMPDEST CALLVALUE DUP1 ISZERO PUSH2 0x441 JUMPI PUSH1 0x0 DUP1 REVERT JUMPDEST POP PUSH2 0x44A PUSH2 0x1D0A JUMP JUMPDEST PUSH1 0x40 MLOAD PUSH2 0x457 SWAP2 SWAP1 PUSH2 0x2252 JUMP JUMPDEST PUSH1 0x40 MLOAD DUP1 SWAP2 SUB SWAP1 RETURN JUMPDEST CALLVALUE DUP1 ISZERO PUSH2 0x46C JUMPI PUSH1 0x0 DUP1 REVERT JUMPDEST POP PUSH2 0x475 PUSH2 0x1D33 JUMP JUMPDEST PUSH1 0x40 MLOAD PUSH2 0x482 SWAP2 SWAP1 PUSH2 0x2228 JUMP JUMPDEST PUSH1 0x40 MLOAD DUP1 SWAP2 SUB SWAP1 RETURN JUMPDEST CALLVALUE DUP1 ISZERO PUSH2 0x497 JUMPI PUSH1 0x0 DUP1 REVERT JUMPDEST POP PUSH2 0x4A0 PUSH2 0x1D39 JUMP JUMPDEST PUSH1 0x40 MLOAD PUSH2 0x4AD SWAP2 SWAP1 PUSH2 0x216B JUMP JUMPDEST PUSH1 0x40 MLOAD DUP1 SWAP2 SUB SWAP1 RETURN JUMPDEST PUSH2 0x4D0 PUSH1 0x4 DUP1 CALLDATASIZE SUB DUP2 ADD SWAP1 PUSH2 0x4CB SWAP2 SWAP1 PUSH2 0x244A JUMP JUMPDEST PUSH2 0x1D4C JUMP JUMPDEST STOP JUMPDEST CALLVALUE DUP1 ISZERO PUSH2 0x4DE JUMPI PUSH1 0x0 DUP1 REVERT JUMPDEST POP PUSH2 0x4E7 PUSH2 0x1ED8 JUMP JUMPDEST PUSH1 0x40 MLOAD PUSH2 0x4F4 SWAP2 SWAP1 PUSH2 0x2228 JUMP JUMPDEST PUSH1 0x40 MLOAD DUP1 SWAP2 SUB SWAP1 RETURN JUMPDEST CALLVALUE DUP1 ISZERO PUSH2 0x509 JUMPI PUSH1 0x0 DUP1 REVERT JUMPDEST POP PUSH2 0x512 PUSH2 0x1EE2 JUMP JUMPDEST PUSH1 0x40 MLOAD PUSH2 0x51F SWAP2 SWAP1 PUSH2 0x2510 JUMP JUMPDEST PUSH1 0x40 MLOAD DUP1 SWAP2 SUB SWAP1 RETURN JUMPDEST CALLVALUE DUP1 ISZERO PUSH2 0x534 JUMPI PUSH1 0x0 DUP1 REVERT JUMPDEST POP PUSH2 0x54F PUSH1 0x4 DUP1 CALLDATASIZE SUB DUP2 ADD SWAP1 PUSH2 0x54A SWAP2 SWAP1 PUSH2 0x233D JUMP JUMPDEST PUSH2 0x1F08 JUMP JUMPDEST PUSH1 0x40 MLOAD PUSH2 0x55C SWAP2 SWAP1 PUSH2 0x2228 JUMP JUMPDEST PUSH1 0x40 MLOAD DUP1 SWAP2 SUB SWAP1 RETURN JUMPDEST CALLVALUE DUP1 ISZERO PUSH2 0x571 JUMPI PUSH1 0x0 DUP1 REVERT JUMPDEST POP PUSH2 0x58C PUSH1 0x4 DUP1 CALLDATASIZE SUB DUP2 ADD SWAP1 PUSH2 0x587 SWAP2 SWAP1 PUSH2 0x233D JUMP JUMPDEST PUSH2 0x1F51 JUMP JUMPDEST PUSH1 0x40 MLOAD PUSH2 0x599 SWAP2 SWAP1 PUSH2 0x2228 JUMP JUMPDEST PUSH1 0x40 MLOAD DUP1 SWAP2 SUB SWAP1 RETURN JUMPDEST PUSH1 0x0 DUP1 SLOAD SWAP1 PUSH2 0x100 EXP SWAP1 DIV PUSH20 0xFFFFFFFFFFFFFFFFFFFFFFFFFFFFFFFFFFFFFFFF AND PUSH20 0xFFFFFFFFFFFFFFFFFFFFFFFFFFFFFFFFFFFFFFFF AND DUP4 PUSH20 0xFFFFFFFFFFFFFFFFFFFFFFFFFFFFFFFFFFFFFFFF AND EQ DUP1 PUSH2 0x649 JUMPI POP PUSH1 0x1 PUSH1 0x0 SWAP1 SLOAD SWAP1 PUSH2 0x100 EXP SWAP1 DIV PUSH20 0xFFFFFFFFFFFFFFFFFFFFFFFFFFFFFFFFFFFFFFFF AND PUSH20 0xFFFFFFFFFFFFFFFFFFFFFFFFFFFFFFFFFFFFFFFF AND DUP4 PUSH20 0xFFFFFFFFFFFFFFFFFFFFFFFFFFFFFFFFFFFFFFFF AND EQ JUMPDEST PUSH2 0x688 JUMPI PUSH1 0x40 MLOAD PUSH32 0x8C379A000000000000000000000000000000000000000000000000000000000 DUP2 MSTORE PUSH1 0x4 ADD PUSH2 0x67F SWAP1 PUSH2 0x25AE JUMP JUMPDEST PUSH1 0x40 MLOAD DUP1 SWAP2 SUB SWAP1 REVERT JUMPDEST PUSH1 0x1 PUSH1 0x0 SWAP1 SLOAD SWAP1 PUSH2 0x100 EXP SWAP1 DIV PUSH20 0xFFFFFFFFFFFFFFFFFFFFFFFFFFFFFFFFFFFFFFFF AND PUSH20 0xFFFFFFFFFFFFFFFFFFFFFFFFFFFFFFFFFFFFFFFF AND DUP4 PUSH20 0xFFFFFFFFFFFFFFFFFFFFFFFFFFFFFFFFFFFFFFFF AND SUB PUSH2 0x779 JUMPI PUSH1 0x9 PUSH1 0x0 DUP6 PUSH20 0xFFFFFFFFFFFFFFFFFFFFFFFFFFFFFFFFFFFFFFFF AND PUSH20 0xFFFFFFFFFFFFFFFFFFFFFFFFFFFFFFFFFFFFFFFF AND DUP2 MSTORE PUSH1 0x20 ADD SWAP1 DUP2 MSTORE PUSH1 0x20 ADD PUSH1 0x0 KECCAK256 SLOAD DUP6 GT ISZERO DUP1 PUSH2 0x739 JUMPI POP TIMESTAMP PUSH1 0x3 SLOAD PUSH1 0x2 SLOAD PUSH2 0x737 SWAP2 SWAP1 PUSH2 0x25FD JUMP JUMPDEST LT JUMPDEST PUSH2 0x778 JUMPI PUSH1 0x40 MLOAD PUSH32 0x8C379A000000000000000000000000000000000000000000000000000000000 DUP2 MSTORE PUSH1 0x4 ADD PUSH2 0x76F SWAP1 PUSH2 0x26C9 JUMP JUMPDEST PUSH1 0x40 MLOAD DUP1 SWAP2 SUB SWAP1 REVERT JUMPDEST JUMPDEST PUSH1 0x8 PUSH1 0x0 SWAP1 SLOAD SWAP1 PUSH2 0x100 EXP SWAP1 DIV PUSH1 0xFF AND ISZERO PUSH2 0x7C9 JUMPI PUSH1 0x40 MLOAD PUSH32 0x8C379A000000000000000000000000000000000000000000000000000000000 DUP2 MSTORE PUSH1 0x4 ADD PUSH2 0x7C0 SWAP1 PUSH2 0x275B JUMP JUMPDEST PUSH1 0x40 MLOAD DUP1 SWAP2 SUB SWAP1 REVERT JUMPDEST DUP7 ISZERO PUSH2 0x9C3 JUMPI SELFBALANCE DUP6 GT ISZERO PUSH2 0x812 JUMPI PUSH1 0x40 MLOAD PUSH32 0x8C379A000000000000000000000000000000000000000000000000000000000 DUP2 MSTORE PUSH1 0x4 ADD PUSH2 0x809 SWAP1 PUSH2 0x27C7 JUMP JUMPDEST PUSH1 0x40 MLOAD DUP1 SWAP2 SUB SWAP1 REVERT JUMPDEST PUSH1 0x6 PUSH1 0x14 SWAP1 SLOAD SWAP1 PUSH2 0x100 EXP SWAP1 DIV PUSH1 0xFF AND ISZERO PUSH2 0x862 JUMPI PUSH1 0x40 MLOAD PUSH32 0x8C379A000000000000000000000000000000000000000000000000000000000 DUP2 MSTORE PUSH1 0x4 ADD PUSH2 0x859 SWAP1 PUSH2 0x2859 JUMP JUMPDEST PUSH1 0x40 MLOAD DUP1 SWAP2 SUB SWAP1 REVERT JUMPDEST PUSH1 0x1 PUSH1 0x6 PUSH1 0x14 PUSH2 0x100 EXP DUP2 SLOAD DUP2 PUSH1 0xFF MUL NOT AND SWAP1 DUP4 ISZERO ISZERO MUL OR SWAP1 SSTORE POP PUSH2 0x8A3 PUSH1 0x64 PUSH2 0x895 DUP4 DUP9 PUSH2 0x1F69 SWAP1 SWAP2 SWAP1 PUSH4 0xFFFFFFFF AND JUMP JUMPDEST PUSH2 0x1F7F SWAP1 SWAP2 SWAP1 PUSH4 0xFFFFFFFF AND JUMP JUMPDEST PUSH1 0x4 DUP2 SWAP1 SSTORE POP DUP6 PUSH20 0xFFFFFFFFFFFFFFFFFFFFFFFFFFFFFFFFFFFFFFFF AND PUSH2 0x8FC PUSH2 0x8D8 PUSH1 0x4 SLOAD DUP9 PUSH2 0x1F95 SWAP1 SWAP2 SWAP1 PUSH4 0xFFFFFFFF AND JUMP JUMPDEST SWAP1 DUP2 ISZERO MUL SWAP1 PUSH1 0x40 MLOAD PUSH1 0x0 PUSH1 0x40 MLOAD DUP1 DUP4 SUB DUP2 DUP6 DUP9 DUP9 CALL SWAP4 POP POP POP POP ISZERO DUP1 ISZERO PUSH2 0x903 JUMPI RETURNDATASIZE PUSH1 0x0 DUP1 RETURNDATACOPY RETURNDATASIZE PUSH1 0x0 REVERT JUMPDEST POP DUP2 PUSH20 0xFFFFFFFFFFFFFFFFFFFFFFFFFFFFFFFFFFFFFFFF AND PUSH2 0x8FC PUSH1 0x4 SLOAD SWAP1 DUP2 ISZERO MUL SWAP1 PUSH1 0x40 MLOAD PUSH1 0x0 PUSH1 0x40 MLOAD DUP1 DUP4 SUB DUP2 DUP6 DUP9 DUP9 CALL SWAP4 POP POP POP POP ISZERO DUP1 ISZERO PUSH2 0x94C JUMPI RETURNDATASIZE PUSH1 0x0 DUP1 RETURNDATACOPY RETURNDATASIZE PUSH1 0x0 REVERT JUMPDEST POP DUP5 PUSH1 0x9 PUSH1 0x0 DUP7 PUSH20 0xFFFFFFFFFFFFFFFFFFFFFFFFFFFFFFFFFFFFFFFF AND PUSH20 0xFFFFFFFFFFFFFFFFFFFFFFFFFFFFFFFFFFFFFFFF AND DUP2 MSTORE PUSH1 0x20 ADD SWAP1 DUP2 MSTORE PUSH1 0x20 ADD PUSH1 0x0 KECCAK256 PUSH1 0x0 DUP3 DUP3 SLOAD PUSH2 0x99C SWAP2 SWAP1 PUSH2 0x2879 JUMP JUMPDEST SWAP3 POP POP DUP2 SWAP1 SSTORE POP PUSH1 0x0 PUSH1 0x6 PUSH1 0x14 PUSH2 0x100 EXP DUP2 SLOAD DUP2 PUSH1 0xFF MUL NOT AND SWAP1 DUP4 ISZERO ISZERO MUL OR SWAP1 SSTORE POP PUSH2 0xD43 JUMP JUMPDEST DUP4 PUSH1 0x6 PUSH1 0x0 PUSH2 0x100 EXP DUP2 SLOAD DUP2 PUSH20 0xFFFFFFFFFFFFFFFFFFFFFFFFFFFFFFFFFFFFFFFF MUL NOT AND SWAP1 DUP4 PUSH20 0xFFFFFFFFFFFFFFFFFFFFFFFFFFFFFFFFFFFFFFFF AND MUL OR SWAP1 SSTORE POP PUSH1 0x6 PUSH1 0x0 SWAP1 SLOAD SWAP1 PUSH2 0x100 EXP SWAP1 DIV PUSH20 0xFFFFFFFFFFFFFFFFFFFFFFFFFFFFFFFFFFFFFFFF AND PUSH20 0xFFFFFFFFFFFFFFFFFFFFFFFFFFFFFFFFFFFFFFFF AND PUSH4 0x70A08231 ADDRESS PUSH1 0x40 MLOAD DUP3 PUSH4 0xFFFFFFFF AND PUSH1 0xE0 SHL DUP2 MSTORE PUSH1 0x4 ADD PUSH2 0xA5F SWAP2 SWAP1 PUSH2 0x2252 JUMP JUMPDEST PUSH1 0x20 PUSH1 0x40 MLOAD DUP1 DUP4 SUB DUP2 DUP7 GAS STATICCALL ISZERO DUP1 ISZERO PUSH2 0xA7C JUMPI RETURNDATASIZE PUSH1 0x0 DUP1 RETURNDATACOPY RETURNDATASIZE PUSH1 0x0 REVERT JUMPDEST POP POP POP POP PUSH1 0x40 MLOAD RETURNDATASIZE PUSH1 0x1F NOT PUSH1 0x1F DUP3 ADD AND DUP3 ADD DUP1 PUSH1 0x40 MSTORE POP DUP2 ADD SWAP1 PUSH2 0xAA0 SWAP2 SWAP1 PUSH2 0x28C2 JUMP JUMPDEST DUP6 GT ISZERO PUSH2 0xAE2 JUMPI PUSH1 0x40 MLOAD PUSH32 0x8C379A000000000000000000000000000000000000000000000000000000000 DUP2 MSTORE PUSH1 0x4 ADD PUSH2 0xAD9 SWAP1 PUSH2 0x27C7 JUMP JUMPDEST PUSH1 0x40 MLOAD DUP1 SWAP2 SUB SWAP1 REVERT JUMPDEST PUSH1 0x6 PUSH1 0x14 SWAP1 SLOAD SWAP1 PUSH2 0x100 EXP SWAP1 DIV PUSH1 0xFF AND ISZERO PUSH2 0xB32 JUMPI PUSH1 0x40 MLOAD PUSH32 0x8C379A000000000000000000000000000000000000000000000000000000000 DUP2 MSTORE PUSH1 0x4 ADD PUSH2 0xB29 SWAP1 PUSH2 0x2859 JUMP JUMPDEST PUSH1 0x40 MLOAD DUP1 SWAP2 SUB SWAP1 REVERT JUMPDEST PUSH1 0x1 PUSH1 0x6 PUSH1 0x14 PUSH2 0x100 EXP DUP2 SLOAD DUP2 PUSH1 0xFF MUL NOT AND SWAP1 DUP4 ISZERO ISZERO MUL OR SWAP1 SSTORE POP PUSH2 0xB73 PUSH1 0x64 PUSH2 0xB65 DUP4 DUP9 PUSH2 0x1F69 SWAP1 SWAP2 SWAP1 PUSH4 0xFFFFFFFF AND JUMP JUMPDEST PUSH2 0x1F7F SWAP1 SWAP2 SWAP1 PUSH4 0xFFFFFFFF AND JUMP JUMPDEST PUSH1 0x4 DUP2 SWAP1 SSTORE POP PUSH1 0x6 PUSH1 0x0 SWAP1 SLOAD SWAP1 PUSH2 0x100 EXP SWAP1 DIV PUSH20 0xFFFFFFFFFFFFFFFFFFFFFFFFFFFFFFFFFFFFFFFF AND PUSH20 0xFFFFFFFFFFFFFFFFFFFFFFFFFFFFFFFFFFFFFFFF AND PUSH4 0xA9059CBB DUP8 PUSH2 0xBCD PUSH1 0x4 SLOAD DUP10 PUSH2 0x1F95 SWAP1 SWAP2 SWAP1 PUSH4 0xFFFFFFFF AND JUMP JUMPDEST PUSH1 0x40 MLOAD DUP4 PUSH4 0xFFFFFFFF AND PUSH1 0xE0 SHL DUP2 MSTORE PUSH1 0x4 ADD PUSH2 0xBEA SWAP3 SWAP2 SWAP1 PUSH2 0x2910 JUMP JUMPDEST PUSH1 0x20 PUSH1 0x40 MLOAD DUP1 DUP4 SUB DUP2 PUSH1 0x0 DUP8 GAS CALL ISZERO DUP1 ISZERO PUSH2 0xC09 JUMPI RETURNDATASIZE PUSH1 0x0 DUP1 RETURNDATACOPY RETURNDATASIZE PUSH1 0x0 REVERT JUMPDEST POP POP POP POP PUSH1 0x40 MLOAD RETURNDATASIZE PUSH1 0x1F NOT PUSH1 0x1F DUP3 ADD AND DUP3 ADD DUP1 PUSH1 0x40 MSTORE POP DUP2 ADD SWAP1 PUSH2 0xC2D SWAP2 SWAP1 PUSH2 0x294E JUMP JUMPDEST POP PUSH1 0x6 PUSH1 0x0 SWAP1 SLOAD SWAP1 PUSH2 0x100 EXP SWAP1 DIV PUSH20 0xFFFFFFFFFFFFFFFFFFFFFFFFFFFFFFFFFFFFFFFF AND PUSH20 0xFFFFFFFFFFFFFFFFFFFFFFFFFFFFFFFFFFFFFFFF AND PUSH4 0xA9059CBB DUP4 PUSH1 0x4 SLOAD PUSH1 0x40 MLOAD DUP4 PUSH4 0xFFFFFFFF AND PUSH1 0xE0 SHL DUP2 MSTORE PUSH1 0x4 ADD PUSH2 0xC8D SWAP3 SWAP2 SWAP1 PUSH2 0x2910 JUMP JUMPDEST PUSH1 0x20 PUSH1 0x40 MLOAD DUP1 DUP4 SUB DUP2 PUSH1 0x0 DUP8 GAS CALL ISZERO DUP1 ISZERO PUSH2 0xCAC JUMPI RETURNDATASIZE PUSH1 0x0 DUP1 RETURNDATACOPY RETURNDATASIZE PUSH1 0x0 REVERT JUMPDEST POP POP POP POP PUSH1 0x40 MLOAD RETURNDATASIZE PUSH1 0x1F NOT PUSH1 0x1F DUP3 ADD AND DUP3 ADD DUP1 PUSH1 0x40 MSTORE POP DUP2 ADD SWAP1 PUSH2 0xCD0 SWAP2 SWAP1 PUSH2 0x294E JUMP JUMPDEST POP DUP5 PUSH1 0x9 PUSH1 0x0 DUP7 PUSH20 0xFFFFFFFFFFFFFFFFFFFFFFFFFFFFFFFFFFFFFFFF AND PUSH20 0xFFFFFFFFFFFFFFFFFFFFFFFFFFFFFFFFFFFFFFFF AND DUP2 MSTORE PUSH1 0x20 ADD SWAP1 DUP2 MSTORE PUSH1 0x20 ADD PUSH1 0x0 KECCAK256 PUSH1 0x0 DUP3 DUP3 SLOAD PUSH2 0xD20 SWAP2 SWAP1 PUSH2 0x2879 JUMP JUMPDEST SWAP3 POP POP DUP2 SWAP1 SSTORE POP PUSH1 0x0 PUSH1 0x6 PUSH1 0x14 PUSH2 0x100 EXP DUP2 SLOAD DUP2 PUSH1 0xFF MUL NOT AND SWAP1 DUP4 ISZERO ISZERO MUL OR SWAP1 SSTORE POP JUMPDEST POP POP POP POP POP POP POP JUMP JUMPDEST PUSH1 0x8 PUSH1 0x0 SWAP1 SLOAD SWAP1 PUSH2 0x100 EXP SWAP1 DIV PUSH1 0xFF AND DUP2 JUMP JUMPDEST DUP1 PUSH20 0xFFFFFFFFFFFFFFFFFFFFFFFFFFFFFFFFFFFFFFFF AND PUSH1 0x0 DUP1 SLOAD SWAP1 PUSH2 0x100 EXP SWAP1 DIV PUSH20 0xFFFFFFFFFFFFFFFFFFFFFFFFFFFFFFFFFFFFFFFF AND PUSH20 0xFFFFFFFFFFFFFFFFFFFFFFFFFFFFFFFFFFFFFFFF AND EQ PUSH2 0xDED JUMPI PUSH1 0x40 MLOAD PUSH32 0x8C379A000000000000000000000000000000000000000000000000000000000 DUP2 MSTORE PUSH1 0x4 ADD PUSH2 0xDE4 SWAP1 PUSH2 0x29ED JUMP JUMPDEST PUSH1 0x40 MLOAD DUP1 SWAP2 SUB SWAP1 REVERT JUMPDEST PUSH1 0x6 PUSH1 0x14 SWAP1 SLOAD SWAP1 PUSH2 0x100 EXP SWAP1 DIV PUSH1 0xFF AND ISZERO PUSH2 0xE3D JUMPI PUSH1 0x40 MLOAD PUSH32 0x8C379A000000000000000000000000000000000000000000000000000000000 DUP2 MSTORE PUSH1 0x4 ADD PUSH2 0xE34 SWAP1 PUSH2 0x2859 JUMP JUMPDEST PUSH1 0x40 MLOAD DUP1 SWAP2 SUB SWAP1 REVERT JUMPDEST PUSH1 0x1 PUSH1 0x6 PUSH1 0x14 PUSH2 0x100 EXP DUP2 SLOAD DUP2 PUSH1 0xFF MUL NOT AND SWAP1 DUP4 ISZERO ISZERO MUL OR SWAP1 SSTORE POP DUP3 PUSH1 0x1 PUSH1 0x0 PUSH2 0x100 EXP DUP2 SLOAD DUP2 PUSH20 0xFFFFFFFFFFFFFFFFFFFFFFFFFFFFFFFFFFFFFFFF MUL NOT AND SWAP1 DUP4 PUSH20 0xFFFFFFFFFFFFFFFFFFFFFFFFFFFFFFFFFFFFFFFF AND MUL OR SWAP1 SSTORE POP DUP2 PUSH1 0x3 DUP2 SWAP1 SSTORE POP PUSH1 0x0 PUSH1 0x6 PUSH1 0x14 PUSH2 0x100 EXP DUP2 SLOAD DUP2 PUSH1 0xFF MUL NOT AND SWAP1 DUP4 ISZERO ISZERO MUL OR SWAP1 SSTORE POP TIMESTAMP PUSH1 0x2 DUP2 SWAP1 SSTORE POP POP POP POP JUMP JUMPDEST PUSH1 0x0 DUP3 ISZERO PUSH2 0xED7 JUMPI SELFBALANCE SWAP1 POP PUSH2 0xF54 JUMP JUMPDEST DUP2 PUSH20 0xFFFFFFFFFFFFFFFFFFFFFFFFFFFFFFFFFFFFFFFF AND PUSH4 0x70A08231 ADDRESS PUSH1 0x40 MLOAD DUP3 PUSH4 0xFFFFFFFF AND PUSH1 0xE0 SHL DUP2 MSTORE PUSH1 0x4 ADD PUSH2 0xF10 SWAP2 SWAP1 PUSH2 0x2252 JUMP JUMPDEST PUSH1 0x20 PUSH1 0x40 MLOAD DUP1 DUP4 SUB DUP2 DUP7 GAS STATICCALL ISZERO DUP1 ISZERO PUSH2 0xF2D JUMPI RETURNDATASIZE PUSH1 0x0 DUP1 RETURNDATACOPY RETURNDATASIZE PUSH1 0x0 REVERT JUMPDEST POP POP POP POP PUSH1 0x40 MLOAD RETURNDATASIZE PUSH1 0x1F NOT PUSH1 0x1F DUP3 ADD AND DUP3 ADD DUP1 PUSH1 0x40 MSTORE POP DUP2 ADD SWAP1 PUSH2 0xF51 SWAP2 SWAP1 PUSH2 0x28C2 JUMP JUMPDEST SWAP1 POP JUMPDEST SWAP3 SWAP2 POP POP JUMP JUMPDEST PUSH1 0x0 PUSH1 0x1 PUSH1 0x0 SWAP1 SLOAD SWAP1 PUSH2 0x100 EXP SWAP1 DIV PUSH20 0xFFFFFFFFFFFFFFFFFFFFFFFFFFFFFFFFFFFFFFFF AND SWAP1 POP SWAP1 JUMP JUMPDEST PUSH1 0x2 SLOAD DUP2 JUMP JUMPDEST PUSH1 0x0 DUP4 GT PUSH2 0xFCD JUMPI PUSH1 0x40 MLOAD PUSH32 0x8C379A000000000000000000000000000000000000000000000000000000000 DUP2 MSTORE PUSH1 0x4 ADD PUSH2 0xFC4 SWAP1 PUSH2 0x2A59 JUMP JUMPDEST PUSH1 0x40 MLOAD DUP1 SWAP2 SUB SWAP1 REVERT JUMPDEST PUSH1 0x0 DUP3 SWAP1 POP DUP1 PUSH20 0xFFFFFFFFFFFFFFFFFFFFFFFFFFFFFFFFFFFFFFFF AND PUSH4 0x95EA7B3 DUP4 DUP7 PUSH1 0x40 MLOAD DUP4 PUSH4 0xFFFFFFFF AND PUSH1 0xE0 SHL DUP2 MSTORE PUSH1 0x4 ADD PUSH2 0x100D SWAP3 SWAP2 SWAP1 PUSH2 0x2910 JUMP JUMPDEST PUSH1 0x20 PUSH1 0x40 MLOAD DUP1 DUP4 SUB DUP2 PUSH1 0x0 DUP8 GAS CALL ISZERO DUP1 ISZERO PUSH2 0x102C JUMPI RETURNDATASIZE PUSH1 0x0 DUP1 RETURNDATACOPY RETURNDATASIZE PUSH1 0x0 REVERT JUMPDEST POP POP POP POP PUSH1 0x40 MLOAD RETURNDATASIZE PUSH1 0x1F NOT PUSH1 0x1F DUP3 ADD AND DUP3 ADD DUP1 PUSH1 0x40 MSTORE POP DUP2 ADD SWAP1 PUSH2 0x1050 SWAP2 SWAP1 PUSH2 0x294E JUMP JUMPDEST POP POP POP POP POP JUMP JUMPDEST PUSH1 0x0 DUP1 SLOAD SWAP1 PUSH2 0x100 EXP SWAP1 DIV PUSH20 0xFFFFFFFFFFFFFFFFFFFFFFFFFFFFFFFFFFFFFFFF AND PUSH20 0xFFFFFFFFFFFFFFFFFFFFFFFFFFFFFFFFFFFFFFFF AND DUP4 PUSH20 0xFFFFFFFFFFFFFFFFFFFFFFFFFFFFFFFFFFFFFFFF AND EQ PUSH2 0x10E5 JUMPI PUSH1 0x40 MLOAD PUSH32 0x8C379A000000000000000000000000000000000000000000000000000000000 DUP2 MSTORE PUSH1 0x4 ADD PUSH2 0x10DC SWAP1 PUSH2 0x2AEB JUMP JUMPDEST PUSH1 0x40 MLOAD DUP1 SWAP2 SUB SWAP1 REVERT JUMPDEST DUP2 PUSH1 0x9 PUSH1 0x0 DUP4 PUSH20 0xFFFFFFFFFFFFFFFFFFFFFFFFFFFFFFFFFFFFFFFF AND PUSH20 0xFFFFFFFFFFFFFFFFFFFFFFFFFFFFFFFFFFFFFFFF AND DUP2 MSTORE PUSH1 0x20 ADD SWAP1 DUP2 MSTORE PUSH1 0x20 ADD PUSH1 0x0 KECCAK256 DUP2 SWAP1 SSTORE POP POP POP POP JUMP JUMPDEST PUSH1 0x1 PUSH1 0x0 SWAP1 SLOAD SWAP1 PUSH2 0x100 EXP SWAP1 DIV PUSH20 0xFFFFFFFFFFFFFFFFFFFFFFFFFFFFFFFFFFFFFFFF AND DUP2 JUMP JUMPDEST PUSH1 0x0 DUP1 SLOAD SWAP1 PUSH2 0x100 EXP SWAP1 DIV PUSH20 0xFFFFFFFFFFFFFFFFFFFFFFFFFFFFFFFFFFFFFFFF AND PUSH20 0xFFFFFFFFFFFFFFFFFFFFFFFFFFFFFFFFFFFFFFFF AND DUP2 PUSH20 0xFFFFFFFFFFFFFFFFFFFFFFFFFFFFFFFFFFFFFFFF AND EQ PUSH2 0x11E2 JUMPI PUSH1 0x40 MLOAD PUSH32 0x8C379A000000000000000000000000000000000000000000000000000000000 DUP2 MSTORE PUSH1 0x4 ADD PUSH2 0x11D9 SWAP1 PUSH2 0x2B7D JUMP JUMPDEST PUSH1 0x40 MLOAD DUP1 SWAP2 SUB SWAP1 REVERT JUMPDEST PUSH1 0x0 PUSH1 0x8 PUSH1 0x0 PUSH2 0x100 EXP DUP2 SLOAD DUP2 PUSH1 0xFF MUL NOT AND SWAP1 DUP4 ISZERO ISZERO MUL OR SWAP1 SSTORE POP PUSH32 0xCA5069937E68FD197927055037F59D7C90BF75AC104E6E375539EF480C3AD6EE DUP2 PUSH1 0x40 MLOAD PUSH2 0x122C SWAP2 SWAP1 PUSH2 0x2252 JUMP JUMPDEST PUSH1 0x40 MLOAD DUP1 SWAP2 SUB SWAP1 LOG1 POP JUMP JUMPDEST PUSH1 0x0 PUSH1 0x2 SLOAD SWAP1 POP SWAP1 JUMP JUMPDEST PUSH1 0x3 SLOAD DUP2 JUMP JUMPDEST PUSH1 0x5 PUSH1 0x0 SWAP1 SLOAD SWAP1 PUSH2 0x100 EXP SWAP1 DIV PUSH20 0xFFFFFFFFFFFFFFFFFFFFFFFFFFFFFFFFFFFFFFFF AND DUP2 JUMP JUMPDEST PUSH1 0x0 DUP1 SLOAD SWAP1 PUSH2 0x100 EXP SWAP1 DIV PUSH20 0xFFFFFFFFFFFFFFFFFFFFFFFFFFFFFFFFFFFFFFFF AND PUSH20 0xFFFFFFFFFFFFFFFFFFFFFFFFFFFFFFFFFFFFFFFF AND DUP4 PUSH20 0xFFFFFFFFFFFFFFFFFFFFFFFFFFFFFFFFFFFFFFFF AND EQ DUP1 PUSH2 0x1314 JUMPI POP PUSH1 0x1 PUSH1 0x0 SWAP1 SLOAD SWAP1 PUSH2 0x100 EXP SWAP1 DIV PUSH20 0xFFFFFFFFFFFFFFFFFFFFFFFFFFFFFFFFFFFFFFFF AND PUSH20 0xFFFFFFFFFFFFFFFFFFFFFFFFFFFFFFFFFFFFFFFF AND DUP4 PUSH20 0xFFFFFFFFFFFFFFFFFFFFFFFFFFFFFFFFFFFFFFFF AND EQ JUMPDEST PUSH2 0x1353 JUMPI PUSH1 0x40 MLOAD PUSH32 0x8C379A000000000000000000000000000000000000000000000000000000000 DUP2 MSTORE PUSH1 0x4 ADD PUSH2 0x134A SWAP1 PUSH2 0x25AE JUMP JUMPDEST PUSH1 0x40 MLOAD DUP1 SWAP2 SUB SWAP1 REVERT JUMPDEST PUSH1 0x1 PUSH1 0x0 SWAP1 SLOAD SWAP1 PUSH2 0x100 EXP SWAP1 DIV PUSH20 0xFFFFFFFFFFFFFFFFFFFFFFFFFFFFFFFFFFFFFFFF AND PUSH20 0xFFFFFFFFFFFFFFFFFFFFFFFFFFFFFFFFFFFFFFFF AND DUP4 PUSH20 0xFFFFFFFFFFFFFFFFFFFFFFFFFFFFFFFFFFFFFFFF AND SUB PUSH2 0x1444 JUMPI PUSH1 0x9 PUSH1 0x0 DUP6 PUSH20 0xFFFFFFFFFFFFFFFFFFFFFFFFFFFFFFFFFFFFFFFF AND PUSH20 0xFFFFFFFFFFFFFFFFFFFFFFFFFFFFFFFFFFFFFFFF AND DUP2 MSTORE PUSH1 0x20 ADD SWAP1 DUP2 MSTORE PUSH1 0x20 ADD PUSH1 0x0 KECCAK256 SLOAD DUP6 GT ISZERO DUP1 PUSH2 0x1404 JUMPI POP TIMESTAMP PUSH1 0x3 SLOAD PUSH1 0x2 SLOAD PUSH2 0x1402 SWAP2 SWAP1 PUSH2 0x25FD JUMP JUMPDEST LT JUMPDEST PUSH2 0x1443 JUMPI PUSH1 0x40 MLOAD PUSH32 0x8C379A000000000000000000000000000000000000000000000000000000000 DUP2 MSTORE PUSH1 0x4 ADD PUSH2 0x143A SWAP1 PUSH2 0x26C9 JUMP JUMPDEST PUSH1 0x40 MLOAD DUP1 SWAP2 SUB SWAP1 REVERT JUMPDEST JUMPDEST PUSH1 0x8 PUSH1 0x0 SWAP1 SLOAD SWAP1 PUSH2 0x100 EXP SWAP1 DIV PUSH1 0xFF AND ISZERO PUSH2 0x1494 JUMPI PUSH1 0x40 MLOAD PUSH32 0x8C379A000000000000000000000000000000000000000000000000000000000 DUP2 MSTORE PUSH1 0x4 ADD PUSH2 0x148B SWAP1 PUSH2 0x275B JUMP JUMPDEST PUSH1 0x40 MLOAD DUP1 SWAP2 SUB SWAP1 REVERT JUMPDEST DUP6 ISZERO PUSH2 0x16F1 JUMPI PUSH1 0x0 SELFBALANCE GT PUSH2 0x14DD JUMPI PUSH1 0x40 MLOAD PUSH32 0x8C379A000000000000000000000000000000000000000000000000000000000 DUP2 MSTORE PUSH1 0x4 ADD PUSH2 0x14D4 SWAP1 PUSH2 0x2BE9 JUMP JUMPDEST PUSH1 0x40 MLOAD DUP1 SWAP2 SUB SWAP1 REVERT JUMPDEST SELFBALANCE DUP6 GT ISZERO PUSH2 0x1520 JUMPI PUSH1 0x40 MLOAD PUSH32 0x8C379A000000000000000000000000000000000000000000000000000000000 DUP2 MSTORE PUSH1 0x4 ADD PUSH2 0x1517 SWAP1 PUSH2 0x27C7 JUMP JUMPDEST PUSH1 0x40 MLOAD DUP1 SWAP2 SUB SWAP1 REVERT JUMPDEST PUSH1 0x6 PUSH1 0x14 SWAP1 SLOAD SWAP1 PUSH2 0x100 EXP SWAP1 DIV PUSH1 0xFF AND ISZERO PUSH2 0x1570 JUMPI PUSH1 0x40 MLOAD PUSH32 0x8C379A000000000000000000000000000000000000000000000000000000000 DUP2 MSTORE PUSH1 0x4 ADD PUSH2 0x1567 SWAP1 PUSH2 0x2859 JUMP JUMPDEST PUSH1 0x40 MLOAD DUP1 SWAP2 SUB SWAP1 REVERT JUMPDEST PUSH1 0x1 PUSH1 0x6 PUSH1 0x14 PUSH2 0x100 EXP DUP2 SLOAD DUP2 PUSH1 0xFF MUL NOT AND SWAP1 DUP4 ISZERO ISZERO MUL OR SWAP1 SSTORE POP PUSH2 0x15B1 PUSH1 0x64 PUSH2 0x15A3 DUP4 DUP9 PUSH2 0x1F69 SWAP1 SWAP2 SWAP1 PUSH4 0xFFFFFFFF AND JUMP JUMPDEST PUSH2 0x1F7F SWAP1 SWAP2 SWAP1 PUSH4 0xFFFFFFFF AND JUMP JUMPDEST PUSH1 0x4 DUP2 SWAP1 SSTORE POP PUSH1 0x0 DUP1 SLOAD SWAP1 PUSH2 0x100 EXP SWAP1 DIV PUSH20 0xFFFFFFFFFFFFFFFFFFFFFFFFFFFFFFFFFFFFFFFF AND PUSH20 0xFFFFFFFFFFFFFFFFFFFFFFFFFFFFFFFFFFFFFFFF AND PUSH2 0x8FC PUSH2 0x1606 PUSH1 0x4 SLOAD DUP9 PUSH2 0x1F95 SWAP1 SWAP2 SWAP1 PUSH4 0xFFFFFFFF AND JUMP JUMPDEST SWAP1 DUP2 ISZERO MUL SWAP1 PUSH1 0x40 MLOAD PUSH1 0x0 PUSH1 0x40 MLOAD DUP1 DUP4 SUB DUP2 DUP6 DUP9 DUP9 CALL SWAP4 POP POP POP POP ISZERO DUP1 ISZERO PUSH2 0x1631 JUMPI RETURNDATASIZE PUSH1 0x0 DUP1 RETURNDATACOPY RETURNDATASIZE PUSH1 0x0 REVERT JUMPDEST POP DUP2 PUSH20 0xFFFFFFFFFFFFFFFFFFFFFFFFFFFFFFFFFFFFFFFF AND PUSH2 0x8FC PUSH1 0x4 SLOAD SWAP1 DUP2 ISZERO MUL SWAP1 PUSH1 0x40 MLOAD PUSH1 0x0 PUSH1 0x40 MLOAD DUP1 DUP4 SUB DUP2 DUP6 DUP9 DUP9 CALL SWAP4 POP POP POP POP ISZERO DUP1 ISZERO PUSH2 0x167A JUMPI RETURNDATASIZE PUSH1 0x0 DUP1 RETURNDATACOPY RETURNDATASIZE PUSH1 0x0 REVERT JUMPDEST POP DUP5 PUSH1 0x9 PUSH1 0x0 DUP7 PUSH20 0xFFFFFFFFFFFFFFFFFFFFFFFFFFFFFFFFFFFFFFFF AND PUSH20 0xFFFFFFFFFFFFFFFFFFFFFFFFFFFFFFFFFFFFFFFF AND DUP2 MSTORE PUSH1 0x20 ADD SWAP1 DUP2 MSTORE PUSH1 0x20 ADD PUSH1 0x0 KECCAK256 PUSH1 0x0 DUP3 DUP3 SLOAD PUSH2 0x16CA SWAP2 SWAP1 PUSH2 0x2879 JUMP JUMPDEST SWAP3 POP POP DUP2 SWAP1 SSTORE POP PUSH1 0x0 PUSH1 0x6 PUSH1 0x14 PUSH2 0x100 EXP DUP2 SLOAD DUP2 PUSH1 0xFF MUL NOT AND SWAP1 DUP4 ISZERO ISZERO MUL OR SWAP1 SSTORE POP PUSH2 0x1B6F JUMP JUMPDEST DUP4 PUSH1 0x6 PUSH1 0x0 PUSH2 0x100 EXP DUP2 SLOAD DUP2 PUSH20 0xFFFFFFFFFFFFFFFFFFFFFFFFFFFFFFFFFFFFFFFF MUL NOT AND SWAP1 DUP4 PUSH20 0xFFFFFFFFFFFFFFFFFFFFFFFFFFFFFFFFFFFFFFFF AND MUL OR SWAP1 SSTORE POP PUSH1 0x0 PUSH1 0x6 PUSH1 0x0 SWAP1 SLOAD SWAP1 PUSH2 0x100 EXP SWAP1 DIV PUSH20 0xFFFFFFFFFFFFFFFFFFFFFFFFFFFFFFFFFFFFFFFF AND PUSH20 0xFFFFFFFFFFFFFFFFFFFFFFFFFFFFFFFFFFFFFFFF AND PUSH4 0x70A08231 ADDRESS PUSH1 0x40 MLOAD DUP3 PUSH4 0xFFFFFFFF AND PUSH1 0xE0 SHL DUP2 MSTORE PUSH1 0x4 ADD PUSH2 0x178F SWAP2 SWAP1 PUSH2 0x2252 JUMP JUMPDEST PUSH1 0x20 PUSH1 0x40 MLOAD DUP1 DUP4 SUB DUP2 DUP7 GAS STATICCALL ISZERO DUP1 ISZERO PUSH2 0x17AC JUMPI RETURNDATASIZE PUSH1 0x0 DUP1 RETURNDATACOPY RETURNDATASIZE PUSH1 0x0 REVERT JUMPDEST POP POP POP POP PUSH1 0x40 MLOAD RETURNDATASIZE PUSH1 0x1F NOT PUSH1 0x1F DUP3 ADD AND DUP3 ADD DUP1 PUSH1 0x40 MSTORE POP DUP2 ADD SWAP1 PUSH2 0x17D0 SWAP2 SWAP1 PUSH2 0x28C2 JUMP JUMPDEST GT PUSH2 0x1810 JUMPI PUSH1 0x40 MLOAD PUSH32 0x8C379A000000000000000000000000000000000000000000000000000000000 DUP2 MSTORE PUSH1 0x4 ADD PUSH2 0x1807 SWAP1 PUSH2 0x2BE9 JUMP JUMPDEST PUSH1 0x40 MLOAD DUP1 SWAP2 SUB SWAP1 REVERT JUMPDEST PUSH1 0x6 PUSH1 0x0 SWAP1 SLOAD SWAP1 PUSH2 0x100 EXP SWAP1 DIV PUSH20 0xFFFFFFFFFFFFFFFFFFFFFFFFFFFFFFFFFFFFFFFF AND PUSH20 0xFFFFFFFFFFFFFFFFFFFFFFFFFFFFFFFFFFFFFFFF AND PUSH4 0x70A08231 ADDRESS PUSH1 0x40 MLOAD DUP3 PUSH4 0xFFFFFFFF AND PUSH1 0xE0 SHL DUP2 MSTORE PUSH1 0x4 ADD PUSH2 0x186B SWAP2 SWAP1 PUSH2 0x2252 JUMP JUMPDEST PUSH1 0x20 PUSH1 0x40 MLOAD DUP1 DUP4 SUB DUP2 DUP7 GAS STATICCALL ISZERO DUP1 ISZERO PUSH2 0x1888 JUMPI RETURNDATASIZE PUSH1 0x0 DUP1 RETURNDATACOPY RETURNDATASIZE PUSH1 0x0 REVERT JUMPDEST POP POP POP POP PUSH1 0x40 MLOAD RETURNDATASIZE PUSH1 0x1F NOT PUSH1 0x1F DUP3 ADD AND DUP3 ADD DUP1 PUSH1 0x40 MSTORE POP DUP2 ADD SWAP1 PUSH2 0x18AC SWAP2 SWAP1 PUSH2 0x28C2 JUMP JUMPDEST DUP6 GT ISZERO PUSH2 0x18EE JUMPI PUSH1 0x40 MLOAD PUSH32 0x8C379A000000000000000000000000000000000000000000000000000000000 DUP2 MSTORE PUSH1 0x4 ADD PUSH2 0x18E5 SWAP1 PUSH2 0x27C7 JUMP JUMPDEST PUSH1 0x40 MLOAD DUP1 SWAP2 SUB SWAP1 REVERT JUMPDEST PUSH1 0x6 PUSH1 0x14 SWAP1 SLOAD SWAP1 PUSH2 0x100 EXP SWAP1 DIV PUSH1 0xFF AND ISZERO PUSH2 0x193E JUMPI PUSH1 0x40 MLOAD PUSH32 0x8C379A000000000000000000000000000000000000000000000000000000000 DUP2 MSTORE PUSH1 0x4 ADD PUSH2 0x1935 SWAP1 PUSH2 0x2859 JUMP JUMPDEST PUSH1 0x40 MLOAD DUP1 SWAP2 SUB SWAP1 REVERT JUMPDEST PUSH1 0x1 PUSH1 0x6 PUSH1 0x14 PUSH2 0x100 EXP DUP2 SLOAD DUP2 PUSH1 0xFF MUL NOT AND SWAP1 DUP4 ISZERO ISZERO MUL OR SWAP1 SSTORE POP PUSH2 0x197F PUSH1 0x64 PUSH2 0x1971 DUP4 DUP9 PUSH2 0x1F69 SWAP1 SWAP2 SWAP1 PUSH4 0xFFFFFFFF AND JUMP JUMPDEST PUSH2 0x1F7F SWAP1 SWAP2 SWAP1 PUSH4 0xFFFFFFFF AND JUMP JUMPDEST PUSH1 0x4 DUP2 SWAP1 SSTORE POP PUSH1 0x6 PUSH1 0x0 SWAP1 SLOAD SWAP1 PUSH2 0x100 EXP SWAP1 DIV PUSH20 0xFFFFFFFFFFFFFFFFFFFFFFFFFFFFFFFFFFFFFFFF AND PUSH20 0xFFFFFFFFFFFFFFFFFFFFFFFFFFFFFFFFFFFFFFFF AND PUSH4 0xA9059CBB PUSH1 0x0 DUP1 SLOAD SWAP1 PUSH2 0x100 EXP SWAP1 DIV PUSH20 0xFFFFFFFFFFFFFFFFFFFFFFFFFFFFFFFFFFFFFFFF AND PUSH2 0x19F9 PUSH1 0x4 SLOAD DUP10 PUSH2 0x1F95 SWAP1 SWAP2 SWAP1 PUSH4 0xFFFFFFFF AND JUMP JUMPDEST PUSH1 0x40 MLOAD DUP4 PUSH4 0xFFFFFFFF AND PUSH1 0xE0 SHL DUP2 MSTORE PUSH1 0x4 ADD PUSH2 0x1A16 SWAP3 SWAP2 SWAP1 PUSH2 0x2910 JUMP JUMPDEST PUSH1 0x20 PUSH1 0x40 MLOAD DUP1 DUP4 SUB DUP2 PUSH1 0x0 DUP8 GAS CALL ISZERO DUP1 ISZERO PUSH2 0x1A35 JUMPI RETURNDATASIZE PUSH1 0x0 DUP1 RETURNDATACOPY RETURNDATASIZE PUSH1 0x0 REVERT JUMPDEST POP POP POP POP PUSH1 0x40 MLOAD RETURNDATASIZE PUSH1 0x1F NOT PUSH1 0x1F DUP3 ADD AND DUP3 ADD DUP1 PUSH1 0x40 MSTORE POP DUP2 ADD SWAP1 PUSH2 0x1A59 SWAP2 SWAP1 PUSH2 0x294E JUMP JUMPDEST POP PUSH1 0x6 PUSH1 0x0 SWAP1 SLOAD SWAP1 PUSH2 0x100 EXP SWAP1 DIV PUSH20 0xFFFFFFFFFFFFFFFFFFFFFFFFFFFFFFFFFFFFFFFF AND PUSH20 0xFFFFFFFFFFFFFFFFFFFFFFFFFFFFFFFFFFFFFFFF AND PUSH4 0xA9059CBB DUP4 PUSH1 0x4 SLOAD PUSH1 0x40 MLOAD DUP4 PUSH4 0xFFFFFFFF AND PUSH1 0xE0 SHL DUP2 MSTORE PUSH1 0x4 ADD PUSH2 0x1AB9 SWAP3 SWAP2 SWAP1 PUSH2 0x2910 JUMP JUMPDEST PUSH1 0x20 PUSH1 0x40 MLOAD DUP1 DUP4 SUB DUP2 PUSH1 0x0 DUP8 GAS CALL ISZERO DUP1 ISZERO PUSH2 0x1AD8 JUMPI RETURNDATASIZE PUSH1 0x0 DUP1 RETURNDATACOPY RETURNDATASIZE PUSH1 0x0 REVERT JUMPDEST POP POP POP POP PUSH1 0x40 MLOAD RETURNDATASIZE PUSH1 0x1F NOT PUSH1 0x1F DUP3 ADD AND DUP3 ADD DUP1 PUSH1 0x40 MSTORE POP DUP2 ADD SWAP1 PUSH2 0x1AFC SWAP2 SWAP1 PUSH2 0x294E JUMP JUMPDEST POP DUP5 PUSH1 0x9 PUSH1 0x0 DUP7 PUSH20 0xFFFFFFFFFFFFFFFFFFFFFFFFFFFFFFFFFFFFFFFF AND PUSH20 0xFFFFFFFFFFFFFFFFFFFFFFFFFFFFFFFFFFFFFFFF AND DUP2 MSTORE PUSH1 0x20 ADD SWAP1 DUP2 MSTORE PUSH1 0x20 ADD PUSH1 0x0 KECCAK256 PUSH1 0x0 DUP3 DUP3 SLOAD PUSH2 0x1B4C SWAP2 SWAP1 PUSH2 0x2879 JUMP JUMPDEST SWAP3 POP POP DUP2 SWAP1 SSTORE POP PUSH1 0x0 PUSH1 0x6 PUSH1 0x14 PUSH2 0x100 EXP DUP2 SLOAD DUP2 PUSH1 0xFF MUL NOT AND SWAP1 DUP4 ISZERO ISZERO MUL OR SWAP1 SSTORE POP JUMPDEST POP POP POP POP POP POP JUMP JUMPDEST PUSH1 0x0 DUP1 SLOAD SWAP1 PUSH2 0x100 EXP SWAP1 DIV PUSH20 0xFFFFFFFFFFFFFFFFFFFFFFFFFFFFFFFFFFFFFFFF AND PUSH20 0xFFFFFFFFFFFFFFFFFFFFFFFFFFFFFFFFFFFFFFFF AND DUP2 PUSH20 0xFFFFFFFFFFFFFFFFFFFFFFFFFFFFFFFFFFFFFFFF AND EQ PUSH2 0x1C05 JUMPI PUSH1 0x40 MLOAD PUSH32 0x8C379A000000000000000000000000000000000000000000000000000000000 DUP2 MSTORE PUSH1 0x4 ADD PUSH2 0x1BFC SWAP1 PUSH2 0x2C7B JUMP JUMPDEST PUSH1 0x40 MLOAD DUP1 SWAP2 SUB SWAP1 REVERT JUMPDEST PUSH1 0x1 PUSH1 0x8 PUSH1 0x0 PUSH2 0x100 EXP DUP2 SLOAD DUP2 PUSH1 0xFF MUL NOT AND SWAP1 DUP4 ISZERO ISZERO MUL OR SWAP1 SSTORE POP PUSH32 0xAF85B60D26151EDD11443B704D424DA6C43D0468F2235EBAE3D1904DBC323049 DUP2 PUSH1 0x40 MLOAD PUSH2 0x1C4F SWAP2 SWAP1 PUSH2 0x2252 JUMP JUMPDEST PUSH1 0x40 MLOAD DUP1 SWAP2 SUB SWAP1 LOG1 POP JUMP JUMPDEST PUSH1 0x0 DUP1 SLOAD SWAP1 PUSH2 0x100 EXP SWAP1 DIV PUSH20 0xFFFFFFFFFFFFFFFFFFFFFFFFFFFFFFFFFFFFFFFF AND DUP2 JUMP JUMPDEST PUSH1 0x0 DUP1 DUP5 SWAP1 POP DUP1 PUSH20 0xFFFFFFFFFFFFFFFFFFFFFFFFFFFFFFFFFFFFFFFF AND PUSH4 0xDD62ED3E DUP6 DUP6 PUSH1 0x40 MLOAD DUP4 PUSH4 0xFFFFFFFF AND PUSH1 0xE0 SHL DUP2 MSTORE PUSH1 0x4 ADD PUSH2 0x1CBF SWAP3 SWAP2 SWAP1 PUSH2 0x2C9B JUMP JUMPDEST PUSH1 0x20 PUSH1 0x40 MLOAD DUP1 DUP4 SUB DUP2 DUP7 GAS STATICCALL ISZERO DUP1 ISZERO PUSH2 0x1CDC JUMPI RETURNDATASIZE PUSH1 0x0 DUP1 RETURNDATACOPY RETURNDATASIZE PUSH1 0x0 REVERT JUMPDEST POP POP POP POP PUSH1 0x40 MLOAD RETURNDATASIZE PUSH1 0x1F NOT PUSH1 0x1F DUP3 ADD AND DUP3 ADD DUP1 PUSH1 0x40 MSTORE POP DUP2 ADD SWAP1 PUSH2 0x1D00 SWAP2 SWAP1 PUSH2 0x28C2 JUMP JUMPDEST SWAP2 POP POP SWAP4 SWAP3 POP POP POP JUMP JUMPDEST PUSH1 0x0 DUP1 PUSH1 0x0 SWAP1 SLOAD SWAP1 PUSH2 0x100 EXP SWAP1 DIV PUSH20 0xFFFFFFFFFFFFFFFFFFFFFFFFFFFFFFFFFFFFFFFF AND SWAP1 POP SWAP1 JUMP JUMPDEST PUSH1 0x7 SLOAD DUP2 JUMP JUMPDEST PUSH1 0x6 PUSH1 0x14 SWAP1 SLOAD SWAP1 PUSH2 0x100 EXP SWAP1 DIV PUSH1 0xFF AND DUP2 JUMP JUMPDEST PUSH1 0x0 DUP5 GT PUSH2 0x1D8F JUMPI PUSH1 0x40 MLOAD PUSH32 0x8C379A000000000000000000000000000000000000000000000000000000000 DUP2 MSTORE PUSH1 0x4 ADD PUSH2 0x1D86 SWAP1 PUSH2 0x2A59 JUMP JUMPDEST PUSH1 0x40 MLOAD DUP1 SWAP2 SUB SWAP1 REVERT JUMPDEST PUSH1 0x0 DUP3 SWAP1 POP DUP5 DUP2 PUSH20 0xFFFFFFFFFFFFFFFFFFFFFFFFFFFFFFFFFFFFFFFF AND PUSH4 0x70A08231 DUP7 PUSH1 0x40 MLOAD DUP3 PUSH4 0xFFFFFFFF AND PUSH1 0xE0 SHL DUP2 MSTORE PUSH1 0x4 ADD PUSH2 0x1DCE SWAP2 SWAP1 PUSH2 0x2CC4 JUMP JUMPDEST PUSH1 0x20 PUSH1 0x40 MLOAD DUP1 DUP4 SUB DUP2 DUP7 GAS STATICCALL ISZERO DUP1 ISZERO PUSH2 0x1DEB JUMPI RETURNDATASIZE PUSH1 0x0 DUP1 RETURNDATACOPY RETURNDATASIZE PUSH1 0x0 REVERT JUMPDEST POP POP POP POP PUSH1 0x40 MLOAD RETURNDATASIZE PUSH1 0x1F NOT PUSH1 0x1F DUP3 ADD AND DUP3 ADD DUP1 PUSH1 0x40 MSTORE POP DUP2 ADD SWAP1 PUSH2 0x1E0F SWAP2 SWAP1 PUSH2 0x28C2 JUMP JUMPDEST LT ISZERO PUSH2 0x1E50 JUMPI PUSH1 0x40 MLOAD PUSH32 0x8C379A000000000000000000000000000000000000000000000000000000000 DUP2 MSTORE PUSH1 0x4 ADD PUSH2 0x1E47 SWAP1 PUSH2 0x2D2B JUMP JUMPDEST PUSH1 0x40 MLOAD DUP1 SWAP2 SUB SWAP1 REVERT JUMPDEST DUP1 PUSH20 0xFFFFFFFFFFFFFFFFFFFFFFFFFFFFFFFFFFFFFFFF AND PUSH4 0x23B872DD DUP6 DUP5 DUP9 PUSH1 0x40 MLOAD DUP5 PUSH4 0xFFFFFFFF AND PUSH1 0xE0 SHL DUP2 MSTORE PUSH1 0x4 ADD PUSH2 0x1E8D SWAP4 SWAP3 SWAP2 SWAP1 PUSH2 0x2D4B JUMP JUMPDEST PUSH1 0x20 PUSH1 0x40 MLOAD DUP1 DUP4 SUB DUP2 PUSH1 0x0 DUP8 GAS CALL ISZERO DUP1 ISZERO PUSH2 0x1EAC JUMPI RETURNDATASIZE PUSH1 0x0 DUP1 RETURNDATACOPY RETURNDATASIZE PUSH1 0x0 REVERT JUMPDEST POP POP POP POP PUSH1 0x40 MLOAD RETURNDATASIZE PUSH1 0x1F NOT PUSH1 0x1F DUP3 ADD AND DUP3 ADD DUP1 PUSH1 0x40 MSTORE POP DUP2 ADD SWAP1 PUSH2 0x1ED0 SWAP2 SWAP1 PUSH2 0x294E JUMP JUMPDEST POP POP POP POP POP POP JUMP JUMPDEST PUSH1 0x0 PUSH1 0x3 SLOAD SWAP1 POP SWAP1 JUMP JUMPDEST PUSH1 0x6 PUSH1 0x0 SWAP1 SLOAD SWAP1 PUSH2 0x100 EXP SWAP1 DIV PUSH20 0xFFFFFFFFFFFFFFFFFFFFFFFFFFFFFFFFFFFFFFFF AND DUP2 JUMP JUMPDEST PUSH1 0x0 PUSH1 0x9 PUSH1 0x0 DUP4 PUSH20 0xFFFFFFFFFFFFFFFFFFFFFFFFFFFFFFFFFFFFFFFF AND PUSH20 0xFFFFFFFFFFFFFFFFFFFFFFFFFFFFFFFFFFFFFFFF AND DUP2 MSTORE PUSH1 0x20 ADD SWAP1 DUP2 MSTORE PUSH1 0x20 ADD PUSH1 0x0 KECCAK256 SLOAD SWAP1 POP SWAP2 SWAP1 POP JUMP JUMPDEST PUSH1 0x9 PUSH1 0x20 MSTORE DUP1 PUSH1 0x0 MSTORE PUSH1 0x40 PUSH1 0x0 KECCAK256 PUSH1 0x0 SWAP2 POP SWAP1 POP SLOAD DUP2 JUMP JUMPDEST PUSH1 0x0 DUP2 DUP4 PUSH2 0x1F77 SWAP2 SWAP1 PUSH2 0x2D82 JUMP JUMPDEST SWAP1 POP SWAP3 SWAP2 POP POP JUMP JUMPDEST PUSH1 0x0 DUP2 DUP4 PUSH2 0x1F8D SWAP2 SWAP1 PUSH2 0x2DF3 JUMP JUMPDEST SWAP1 POP SWAP3 SWAP2 POP POP JUMP JUMPDEST PUSH1 0x0 DUP2 DUP4 PUSH2 0x1FA3 SWAP2 SWAP1 PUSH2 0x2879 JUMP JUMPDEST SWAP1 POP SWAP3 SWAP2 POP POP JUMP JUMPDEST PUSH1 0x0 DUP1 REVERT JUMPDEST PUSH1 0x0 DUP2 ISZERO ISZERO SWAP1 POP SWAP2 SWAP1 POP JUMP JUMPDEST PUSH2 0x1FC5 DUP2 PUSH2 0x1FB0 JUMP JUMPDEST DUP2 EQ PUSH2 0x1FD0 JUMPI PUSH1 0x0 DUP1 REVERT JUMPDEST POP JUMP JUMPDEST PUSH1 0x0 DUP2 CALLDATALOAD SWAP1 POP PUSH2 0x1FE2 DUP2 PUSH2 0x1FBC JUMP JUMPDEST SWAP3 SWAP2 POP POP JUMP JUMPDEST PUSH1 0x0 PUSH20 0xFFFFFFFFFFFFFFFFFFFFFFFFFFFFFFFFFFFFFFFF DUP3 AND SWAP1 POP SWAP2 SWAP1 POP JUMP JUMPDEST PUSH1 0x0 PUSH2 0x2013 DUP3 PUSH2 0x1FE8 JUMP JUMPDEST SWAP1 POP SWAP2 SWAP1 POP JUMP JUMPDEST PUSH2 0x2023 DUP2 PUSH2 0x2008 JUMP JUMPDEST DUP2 EQ PUSH2 0x202E JUMPI PUSH1 0x0 DUP1 REVERT JUMPDEST POP JUMP JUMPDEST PUSH1 0x0 DUP2 CALLDATALOAD SWAP1 POP PUSH2 0x2040 DUP2 PUSH2 0x201A JUMP JUMPDEST SWAP3 SWAP2 POP POP JUMP JUMPDEST PUSH1 0x0 DUP2 SWAP1 POP SWAP2 SWAP1 POP JUMP JUMPDEST PUSH2 0x2059 DUP2 PUSH2 0x2046 JUMP JUMPDEST DUP2 EQ PUSH2 0x2064 JUMPI PUSH1 0x0 DUP1 REVERT JUMPDEST POP JUMP JUMPDEST PUSH1 0x0 DUP2 CALLDATALOAD SWAP1 POP PUSH2 0x2076 DUP2 PUSH2 0x2050 JUMP JUMPDEST SWAP3 SWAP2 POP POP JUMP JUMPDEST PUSH1 0x0 PUSH2 0x2087 DUP3 PUSH2 0x1FE8 JUMP JUMPDEST SWAP1 POP SWAP2 SWAP1 POP JUMP JUMPDEST PUSH2 0x2097 DUP2 PUSH2 0x207C JUMP JUMPDEST DUP2 EQ PUSH2 0x20A2 JUMPI PUSH1 0x0 DUP1 REVERT JUMPDEST POP JUMP JUMPDEST PUSH1 0x0 DUP2 CALLDATALOAD SWAP1 POP PUSH2 0x20B4 DUP2 PUSH2 0x208E JUMP JUMPDEST SWAP3 SWAP2 POP POP JUMP JUMPDEST PUSH1 0x0 DUP1 PUSH1 0x0 DUP1 PUSH1 0x0 DUP1 PUSH1 0x0 PUSH1 0xE0 DUP9 DUP11 SUB SLT ISZERO PUSH2 0x20D9 JUMPI PUSH2 0x20D8 PUSH2 0x1FAB JUMP JUMPDEST JUMPDEST PUSH1 0x0 PUSH2 0x20E7 DUP11 DUP3 DUP12 ADD PUSH2 0x1FD3 JUMP JUMPDEST SWAP8 POP POP PUSH1 0x20 PUSH2 0x20F8 DUP11 DUP3 DUP12 ADD PUSH2 0x2031 JUMP JUMPDEST SWAP7 POP POP PUSH1 0x40 PUSH2 0x2109 DUP11 DUP3 DUP12 ADD PUSH2 0x2067 JUMP JUMPDEST SWAP6 POP POP PUSH1 0x60 PUSH2 0x211A DUP11 DUP3 DUP12 ADD PUSH2 0x20A5 JUMP JUMPDEST SWAP5 POP POP PUSH1 0x80 PUSH2 0x212B DUP11 DUP3 DUP12 ADD PUSH2 0x20A5 JUMP JUMPDEST SWAP4 POP POP PUSH1 0xA0 PUSH2 0x213C DUP11 DUP3 DUP12 ADD PUSH2 0x2031 JUMP JUMPDEST SWAP3 POP POP PUSH1 0xC0 PUSH2 0x214D DUP11 DUP3 DUP12 ADD PUSH2 0x2067 JUMP JUMPDEST SWAP2 POP POP SWAP3 SWAP6 SWAP9 SWAP2 SWAP5 SWAP8 POP SWAP3 SWAP6 POP JUMP JUMPDEST PUSH2 0x2165 DUP2 PUSH2 0x1FB0 JUMP JUMPDEST DUP3 MSTORE POP POP JUMP JUMPDEST PUSH1 0x0 PUSH1 0x20 DUP3 ADD SWAP1 POP PUSH2 0x2180 PUSH1 0x0 DUP4 ADD DUP5 PUSH2 0x215C JUMP JUMPDEST SWAP3 SWAP2 POP POP JUMP JUMPDEST PUSH1 0x0 DUP1 PUSH1 0x0 PUSH1 0x60 DUP5 DUP7 SUB SLT ISZERO PUSH2 0x219F JUMPI PUSH2 0x219E PUSH2 0x1FAB JUMP JUMPDEST JUMPDEST PUSH1 0x0 PUSH2 0x21AD DUP7 DUP3 DUP8 ADD PUSH2 0x2031 JUMP JUMPDEST SWAP4 POP POP PUSH1 0x20 PUSH2 0x21BE DUP7 DUP3 DUP8 ADD PUSH2 0x2067 JUMP JUMPDEST SWAP3 POP POP PUSH1 0x40 PUSH2 0x21CF DUP7 DUP3 DUP8 ADD PUSH2 0x20A5 JUMP JUMPDEST SWAP2 POP POP SWAP3 POP SWAP3 POP SWAP3 JUMP JUMPDEST PUSH1 0x0 DUP1 PUSH1 0x40 DUP4 DUP6 SUB SLT ISZERO PUSH2 0x21F0 JUMPI PUSH2 0x21EF PUSH2 0x1FAB JUMP JUMPDEST JUMPDEST PUSH1 0x0 PUSH2 0x21FE DUP6 DUP3 DUP7 ADD PUSH2 0x1FD3 JUMP JUMPDEST SWAP3 POP POP PUSH1 0x20 PUSH2 0x220F DUP6 DUP3 DUP7 ADD PUSH2 0x20A5 JUMP JUMPDEST SWAP2 POP POP SWAP3 POP SWAP3 SWAP1 POP JUMP JUMPDEST PUSH2 0x2222 DUP2 PUSH2 0x2046 JUMP JUMPDEST DUP3 MSTORE POP POP JUMP JUMPDEST PUSH1 0x0 PUSH1 0x20 DUP3 ADD SWAP1 POP PUSH2 0x223D PUSH1 0x0 DUP4 ADD DUP5 PUSH2 0x2219 JUMP JUMPDEST SWAP3 SWAP2 POP POP JUMP JUMPDEST PUSH2 0x224C DUP2 PUSH2 0x207C JUMP JUMPDEST DUP3 MSTORE POP POP JUMP JUMPDEST PUSH1 0x0 PUSH1 0x20 DUP3 ADD SWAP1 POP PUSH2 0x2267 PUSH1 0x0 DUP4 ADD DUP5 PUSH2 0x2243 JUMP JUMPDEST SWAP3 SWAP2 POP POP JUMP JUMPDEST PUSH1 0x0 DUP1 PUSH1 0x0 PUSH1 0x60 DUP5 DUP7 SUB SLT ISZERO PUSH2 0x2286 JUMPI PUSH2 0x2285 PUSH2 0x1FAB JUMP JUMPDEST JUMPDEST PUSH1 0x0 PUSH2 0x2294 DUP7 DUP3 DUP8 ADD PUSH2 0x2067 JUMP JUMPDEST SWAP4 POP POP PUSH1 0x20 PUSH2 0x22A5 DUP7 DUP3 DUP8 ADD PUSH2 0x20A5 JUMP JUMPDEST SWAP3 POP POP PUSH1 0x40 PUSH2 0x22B6 DUP7 DUP3 DUP8 ADD PUSH2 0x2031 JUMP JUMPDEST SWAP2 POP POP SWAP3 POP SWAP3 POP SWAP3 JUMP JUMPDEST PUSH1 0x0 DUP1 PUSH1 0x0 PUSH1 0x60 DUP5 DUP7 SUB SLT ISZERO PUSH2 0x22D9 JUMPI PUSH2 0x22D8 PUSH2 0x1FAB JUMP JUMPDEST JUMPDEST PUSH1 0x0 PUSH2 0x22E7 DUP7 DUP3 DUP8 ADD PUSH2 0x20A5 JUMP JUMPDEST SWAP4 POP POP PUSH1 0x20 PUSH2 0x22F8 DUP7 DUP3 DUP8 ADD PUSH2 0x2067 JUMP JUMPDEST SWAP3 POP POP PUSH1 0x40 PUSH2 0x2309 DUP7 DUP3 DUP8 ADD PUSH2 0x20A5 JUMP JUMPDEST SWAP2 POP POP SWAP3 POP SWAP3 POP SWAP3 JUMP JUMPDEST PUSH2 0x231C DUP2 PUSH2 0x2008 JUMP JUMPDEST DUP3 MSTORE POP POP JUMP JUMPDEST PUSH1 0x0 PUSH1 0x20 DUP3 ADD SWAP1 POP PUSH2 0x2337 PUSH1 0x0 DUP4 ADD DUP5 PUSH2 0x2313 JUMP JUMPDEST SWAP3 SWAP2 POP POP JUMP JUMPDEST PUSH1 0x0 PUSH1 0x20 DUP3 DUP5 SUB SLT ISZERO PUSH2 0x2353 JUMPI PUSH2 0x2352 PUSH2 0x1FAB JUMP JUMPDEST JUMPDEST PUSH1 0x0 PUSH2 0x2361 DUP5 DUP3 DUP6 ADD PUSH2 0x20A5 JUMP JUMPDEST SWAP2 POP POP SWAP3 SWAP2 POP POP JUMP JUMPDEST PUSH1 0x0 DUP1 PUSH1 0x0 DUP1 PUSH1 0x0 DUP1 PUSH1 0xC0 DUP8 DUP10 SUB SLT ISZERO PUSH2 0x2387 JUMPI PUSH2 0x2386 PUSH2 0x1FAB JUMP JUMPDEST JUMPDEST PUSH1 0x0 PUSH2 0x2395 DUP10 DUP3 DUP11 ADD PUSH2 0x1FD3 JUMP JUMPDEST SWAP7 POP POP PUSH1 0x20 PUSH2 0x23A6 DUP10 DUP3 DUP11 ADD PUSH2 0x2067 JUMP JUMPDEST SWAP6 POP POP PUSH1 0x40 PUSH2 0x23B7 DUP10 DUP3 DUP11 ADD PUSH2 0x20A5 JUMP JUMPDEST SWAP5 POP POP PUSH1 0x60 PUSH2 0x23C8 DUP10 DUP3 DUP11 ADD PUSH2 0x20A5 JUMP JUMPDEST SWAP4 POP POP PUSH1 0x80 PUSH2 0x23D9 DUP10 DUP3 DUP11 ADD PUSH2 0x2031 JUMP JUMPDEST SWAP3 POP POP PUSH1 0xA0 PUSH2 0x23EA DUP10 DUP3 DUP11 ADD PUSH2 0x2067 JUMP JUMPDEST SWAP2 POP POP SWAP3 SWAP6 POP SWAP3 SWAP6 POP SWAP3 SWAP6 JUMP JUMPDEST PUSH1 0x0 DUP1 PUSH1 0x0 PUSH1 0x60 DUP5 DUP7 SUB SLT ISZERO PUSH2 0x2410 JUMPI PUSH2 0x240F PUSH2 0x1FAB JUMP JUMPDEST JUMPDEST PUSH1 0x0 PUSH2 0x241E DUP7 DUP3 DUP8 ADD PUSH2 0x20A5 JUMP JUMPDEST SWAP4 POP POP PUSH1 0x20 PUSH2 0x242F DUP7 DUP3 DUP8 ADD PUSH2 0x2031 JUMP JUMPDEST SWAP3 POP POP PUSH1 0x40 PUSH2 0x2440 DUP7 DUP3 DUP8 ADD PUSH2 0x2031 JUMP JUMPDEST SWAP2 POP POP SWAP3 POP SWAP3 POP SWAP3 JUMP JUMPDEST PUSH1 0x0 DUP1 PUSH1 0x0 DUP1 PUSH1 0x80 DUP6 DUP8 SUB SLT ISZERO PUSH2 0x2464 JUMPI PUSH2 0x2463 PUSH2 0x1FAB JUMP JUMPDEST JUMPDEST PUSH1 0x0 PUSH2 0x2472 DUP8 DUP3 DUP9 ADD PUSH2 0x2067 JUMP JUMPDEST SWAP5 POP POP PUSH1 0x20 PUSH2 0x2483 DUP8 DUP3 DUP9 ADD PUSH2 0x2031 JUMP JUMPDEST SWAP4 POP POP PUSH1 0x40 PUSH2 0x2494 DUP8 DUP3 DUP9 ADD PUSH2 0x20A5 JUMP JUMPDEST SWAP3 POP POP PUSH1 0x60 PUSH2 0x24A5 DUP8 DUP3 DUP9 ADD PUSH2 0x2031 JUMP JUMPDEST SWAP2 POP POP SWAP3 SWAP6 SWAP2 SWAP5 POP SWAP3 POP JUMP JUMPDEST PUSH1 0x0 DUP2 SWAP1 POP SWAP2 SWAP1 POP JUMP JUMPDEST PUSH1 0x0 PUSH2 0x24D6 PUSH2 0x24D1 PUSH2 0x24CC DUP5 PUSH2 0x1FE8 JUMP JUMPDEST PUSH2 0x24B1 JUMP JUMPDEST PUSH2 0x1FE8 JUMP JUMPDEST SWAP1 POP SWAP2 SWAP1 POP JUMP JUMPDEST PUSH1 0x0 PUSH2 0x24E8 DUP3 PUSH2 0x24BB JUMP JUMPDEST SWAP1 POP SWAP2 SWAP1 POP JUMP JUMPDEST PUSH1 0x0 PUSH2 0x24FA DUP3 PUSH2 0x24DD JUMP JUMPDEST SWAP1 POP SWAP2 SWAP1 POP JUMP JUMPDEST PUSH2 0x250A DUP2 PUSH2 0x24EF JUMP JUMPDEST DUP3 MSTORE POP POP JUMP JUMPDEST PUSH1 0x0 PUSH1 0x20 DUP3 ADD SWAP1 POP PUSH2 0x2525 PUSH1 0x0 DUP4 ADD DUP5 PUSH2 0x2501 JUMP JUMPDEST SWAP3 SWAP2 POP POP JUMP JUMPDEST PUSH1 0x0 DUP3 DUP3 MSTORE PUSH1 0x20 DUP3 ADD SWAP1 POP SWAP3 SWAP2 POP POP JUMP JUMPDEST PUSH32 0x4F6E6C7920746865206F776E6572206F72207468652062656E65666963696172 PUSH1 0x0 DUP3 ADD MSTORE PUSH32 0x792063616E2077697468647261772066756E64732E0000000000000000000000 PUSH1 0x20 DUP3 ADD MSTORE POP JUMP JUMPDEST PUSH1 0x0 PUSH2 0x2598 PUSH1 0x35 DUP4 PUSH2 0x252B JUMP JUMPDEST SWAP2 POP PUSH2 0x25A3 DUP3 PUSH2 0x253C JUMP JUMPDEST PUSH1 0x40 DUP3 ADD SWAP1 POP SWAP2 SWAP1 POP JUMP JUMPDEST PUSH1 0x0 PUSH1 0x20 DUP3 ADD SWAP1 POP DUP2 DUP2 SUB PUSH1 0x0 DUP4 ADD MSTORE PUSH2 0x25C7 DUP2 PUSH2 0x258B JUMP JUMPDEST SWAP1 POP SWAP2 SWAP1 POP JUMP JUMPDEST PUSH32 0x4E487B7100000000000000000000000000000000000000000000000000000000 PUSH1 0x0 MSTORE PUSH1 0x11 PUSH1 0x4 MSTORE PUSH1 0x24 PUSH1 0x0 REVERT JUMPDEST PUSH1 0x0 PUSH2 0x2608 DUP3 PUSH2 0x2046 JUMP JUMPDEST SWAP2 POP PUSH2 0x2613 DUP4 PUSH2 0x2046 JUMP JUMPDEST SWAP3 POP DUP3 DUP3 ADD SWAP1 POP DUP1 DUP3 GT ISZERO PUSH2 0x262B JUMPI PUSH2 0x262A PUSH2 0x25CE JUMP JUMPDEST JUMPDEST SWAP3 SWAP2 POP POP JUMP JUMPDEST PUSH32 0x546865207769746864726177616C20616D6F756E742065786365656473207468 PUSH1 0x0 DUP3 ADD MSTORE PUSH32 0x65206C696D6974206F722064656C617920686173206E6F742070617373656420 PUSH1 0x20 DUP3 ADD MSTORE PUSH32 0x7965742E00000000000000000000000000000000000000000000000000000000 PUSH1 0x40 DUP3 ADD MSTORE POP JUMP JUMPDEST PUSH1 0x0 PUSH2 0x26B3 PUSH1 0x44 DUP4 PUSH2 0x252B JUMP JUMPDEST SWAP2 POP PUSH2 0x26BE DUP3 PUSH2 0x2631 JUMP JUMPDEST PUSH1 0x60 DUP3 ADD SWAP1 POP SWAP2 SWAP1 POP JUMP JUMPDEST PUSH1 0x0 PUSH1 0x20 DUP3 ADD SWAP1 POP DUP2 DUP2 SUB PUSH1 0x0 DUP4 ADD MSTORE PUSH2 0x26E2 DUP2 PUSH2 0x26A6 JUMP JUMPDEST SWAP1 POP SWAP2 SWAP1 POP JUMP JUMPDEST PUSH32 0x4163636F756E742069732066726F7A656E2C2063616E6E6F7420776974686472 PUSH1 0x0 DUP3 ADD MSTORE PUSH32 0x61772066756E64732E0000000000000000000000000000000000000000000000 PUSH1 0x20 DUP3 ADD MSTORE POP JUMP JUMPDEST PUSH1 0x0 PUSH2 0x2745 PUSH1 0x29 DUP4 PUSH2 0x252B JUMP JUMPDEST SWAP2 POP PUSH2 0x2750 DUP3 PUSH2 0x26E9 JUMP JUMPDEST PUSH1 0x40 DUP3 ADD SWAP1 POP SWAP2 SWAP1 POP JUMP JUMPDEST PUSH1 0x0 PUSH1 0x20 DUP3 ADD SWAP1 POP DUP2 DUP2 SUB PUSH1 0x0 DUP4 ADD MSTORE PUSH2 0x2774 DUP2 PUSH2 0x2738 JUMP JUMPDEST SWAP1 POP SWAP2 SWAP1 POP JUMP JUMPDEST PUSH32 0x496E73756666696369656E742066756E64732E00000000000000000000000000 PUSH1 0x0 DUP3 ADD MSTORE POP JUMP JUMPDEST PUSH1 0x0 PUSH2 0x27B1 PUSH1 0x13 DUP4 PUSH2 0x252B JUMP JUMPDEST SWAP2 POP PUSH2 0x27BC DUP3 PUSH2 0x277B JUMP JUMPDEST PUSH1 0x20 DUP3 ADD SWAP1 POP SWAP2 SWAP1 POP JUMP JUMPDEST PUSH1 0x0 PUSH1 0x20 DUP3 ADD SWAP1 POP DUP2 DUP2 SUB PUSH1 0x0 DUP4 ADD MSTORE PUSH2 0x27E0 DUP2 PUSH2 0x27A4 JUMP JUMPDEST SWAP1 POP SWAP2 SWAP1 POP JUMP JUMPDEST PUSH32 0x5468652066756E6374696F6E20697320616C726561647920696E206578656375 PUSH1 0x0 DUP3 ADD MSTORE PUSH32 0x74696F6E2E000000000000000000000000000000000000000000000000000000 PUSH1 0x20 DUP3 ADD MSTORE POP JUMP JUMPDEST PUSH1 0x0 PUSH2 0x2843 PUSH1 0x25 DUP4 PUSH2 0x252B JUMP JUMPDEST SWAP2 POP PUSH2 0x284E DUP3 PUSH2 0x27E7 JUMP JUMPDEST PUSH1 0x40 DUP3 ADD SWAP1 POP SWAP2 SWAP1 POP JUMP JUMPDEST PUSH1 0x0 PUSH1 0x20 DUP3 ADD SWAP1 POP DUP2 DUP2 SUB PUSH1 0x0 DUP4 ADD MSTORE PUSH2 0x2872 DUP2 PUSH2 0x2836 JUMP JUMPDEST SWAP1 POP SWAP2 SWAP1 POP JUMP JUMPDEST PUSH1 0x0 PUSH2 0x2884 DUP3 PUSH2 0x2046 JUMP JUMPDEST SWAP2 POP PUSH2 0x288F DUP4 PUSH2 0x2046 JUMP JUMPDEST SWAP3 POP DUP3 DUP3 SUB SWAP1 POP DUP2 DUP2 GT ISZERO PUSH2 0x28A7 JUMPI PUSH2 0x28A6 PUSH2 0x25CE JUMP JUMPDEST JUMPDEST SWAP3 SWAP2 POP POP JUMP JUMPDEST PUSH1 0x0 DUP2 MLOAD SWAP1 POP PUSH2 0x28BC DUP2 PUSH2 0x2050 JUMP JUMPDEST SWAP3 SWAP2 POP POP JUMP JUMPDEST PUSH1 0x0 PUSH1 0x20 DUP3 DUP5 SUB SLT ISZERO PUSH2 0x28D8 JUMPI PUSH2 0x28D7 PUSH2 0x1FAB JUMP JUMPDEST JUMPDEST PUSH1 0x0 PUSH2 0x28E6 DUP5 DUP3 DUP6 ADD PUSH2 0x28AD JUMP JUMPDEST SWAP2 POP POP SWAP3 SWAP2 POP POP JUMP JUMPDEST PUSH1 0x0 PUSH2 0x28FA DUP3 PUSH2 0x24DD JUMP JUMPDEST SWAP1 POP SWAP2 SWAP1 POP JUMP JUMPDEST PUSH2 0x290A DUP2 PUSH2 0x28EF JUMP JUMPDEST DUP3 MSTORE POP POP JUMP JUMPDEST PUSH1 0x0 PUSH1 0x40 DUP3 ADD SWAP1 POP PUSH2 0x2925 PUSH1 0x0 DUP4 ADD DUP6 PUSH2 0x2901 JUMP JUMPDEST PUSH2 0x2932 PUSH1 0x20 DUP4 ADD DUP5 PUSH2 0x2219 JUMP JUMPDEST SWAP4 SWAP3 POP POP POP JUMP JUMPDEST PUSH1 0x0 DUP2 MLOAD SWAP1 POP PUSH2 0x2948 DUP2 PUSH2 0x1FBC JUMP JUMPDEST SWAP3 SWAP2 POP POP JUMP JUMPDEST PUSH1 0x0 PUSH1 0x20 DUP3 DUP5 SUB SLT ISZERO PUSH2 0x2964 JUMPI PUSH2 0x2963 PUSH2 0x1FAB JUMP JUMPDEST JUMPDEST PUSH1 0x0 PUSH2 0x2972 DUP5 DUP3 DUP6 ADD PUSH2 0x2939 JUMP JUMPDEST SWAP2 POP POP SWAP3 SWAP2 POP POP JUMP JUMPDEST PUSH32 0x4F6E6C7920746865206F776E65722063616E20736574207468652062656E6566 PUSH1 0x0 DUP3 ADD MSTORE PUSH32 0x6963696172792E00000000000000000000000000000000000000000000000000 PUSH1 0x20 DUP3 ADD MSTORE POP JUMP JUMPDEST PUSH1 0x0 PUSH2 0x29D7 PUSH1 0x27 DUP4 PUSH2 0x252B JUMP JUMPDEST SWAP2 POP PUSH2 0x29E2 DUP3 PUSH2 0x297B JUMP JUMPDEST PUSH1 0x40 DUP3 ADD SWAP1 POP SWAP2 SWAP1 POP JUMP JUMPDEST PUSH1 0x0 PUSH1 0x20 DUP3 ADD SWAP1 POP DUP2 DUP2 SUB PUSH1 0x0 DUP4 ADD MSTORE PUSH2 0x2A06 DUP2 PUSH2 0x29CA JUMP JUMPDEST SWAP1 POP SWAP2 SWAP1 POP JUMP JUMPDEST PUSH32 0x43616E6E6F74206465706F7369742030206F72206C6573732E00000000000000 PUSH1 0x0 DUP3 ADD MSTORE POP JUMP JUMPDEST PUSH1 0x0 PUSH2 0x2A43 PUSH1 0x19 DUP4 PUSH2 0x252B JUMP JUMPDEST SWAP2 POP PUSH2 0x2A4E DUP3 PUSH2 0x2A0D JUMP JUMPDEST PUSH1 0x20 DUP3 ADD SWAP1 POP SWAP2 SWAP1 POP JUMP JUMPDEST PUSH1 0x0 PUSH1 0x20 DUP3 ADD SWAP1 POP DUP2 DUP2 SUB PUSH1 0x0 DUP4 ADD MSTORE PUSH2 0x2A72 DUP2 PUSH2 0x2A36 JUMP JUMPDEST SWAP1 POP SWAP2 SWAP1 POP JUMP JUMPDEST PUSH32 0x4F6E6C7920746865206F776E65722063616E2073657420746865207769746864 PUSH1 0x0 DUP3 ADD MSTORE PUSH32 0x726177616C206C696D69742E0000000000000000000000000000000000000000 PUSH1 0x20 DUP3 ADD MSTORE POP JUMP JUMPDEST PUSH1 0x0 PUSH2 0x2AD5 PUSH1 0x2C DUP4 PUSH2 0x252B JUMP JUMPDEST SWAP2 POP PUSH2 0x2AE0 DUP3 PUSH2 0x2A79 JUMP JUMPDEST PUSH1 0x40 DUP3 ADD SWAP1 POP SWAP2 SWAP1 POP JUMP JUMPDEST PUSH1 0x0 PUSH1 0x20 DUP3 ADD SWAP1 POP DUP2 DUP2 SUB PUSH1 0x0 DUP4 ADD MSTORE PUSH2 0x2B04 DUP2 PUSH2 0x2AC8 JUMP JUMPDEST SWAP1 POP SWAP2 SWAP1 POP JUMP JUMPDEST PUSH32 0x4F6E6C7920746865206F776E65722063616E20756E667265657A652074686520 PUSH1 0x0 DUP3 ADD MSTORE PUSH32 0x6163636F756E742E000000000000000000000000000000000000000000000000 PUSH1 0x20 DUP3 ADD MSTORE POP JUMP JUMPDEST PUSH1 0x0 PUSH2 0x2B67 PUSH1 0x28 DUP4 PUSH2 0x252B JUMP JUMPDEST SWAP2 POP PUSH2 0x2B72 DUP3 PUSH2 0x2B0B JUMP JUMPDEST PUSH1 0x40 DUP3 ADD SWAP1 POP SWAP2 SWAP1 POP JUMP JUMPDEST PUSH1 0x0 PUSH1 0x20 DUP3 ADD SWAP1 POP DUP2 DUP2 SUB PUSH1 0x0 DUP4 ADD MSTORE PUSH2 0x2B96 DUP2 PUSH2 0x2B5A JUMP JUMPDEST SWAP1 POP SWAP2 SWAP1 POP JUMP JUMPDEST PUSH32 0x546865726520617265206E6F2066756E647320746F2077697468647261772E00 PUSH1 0x0 DUP3 ADD MSTORE POP JUMP JUMPDEST PUSH1 0x0 PUSH2 0x2BD3 PUSH1 0x1F DUP4 PUSH2 0x252B JUMP JUMPDEST SWAP2 POP PUSH2 0x2BDE DUP3 PUSH2 0x2B9D JUMP JUMPDEST PUSH1 0x20 DUP3 ADD SWAP1 POP SWAP2 SWAP1 POP JUMP JUMPDEST PUSH1 0x0 PUSH1 0x20 DUP3 ADD SWAP1 POP DUP2 DUP2 SUB PUSH1 0x0 DUP4 ADD MSTORE PUSH2 0x2C02 DUP2 PUSH2 0x2BC6 JUMP JUMPDEST SWAP1 POP SWAP2 SWAP1 POP JUMP JUMPDEST PUSH32 0x4F6E6C7920746865206F776E65722063616E20667265657A6520746865206163 PUSH1 0x0 DUP3 ADD MSTORE PUSH32 0x636F756E742E0000000000000000000000000000000000000000000000000000 PUSH1 0x20 DUP3 ADD MSTORE POP JUMP JUMPDEST PUSH1 0x0 PUSH2 0x2C65 PUSH1 0x26 DUP4 PUSH2 0x252B JUMP JUMPDEST SWAP2 POP PUSH2 0x2C70 DUP3 PUSH2 0x2C09 JUMP JUMPDEST PUSH1 0x40 DUP3 ADD SWAP1 POP SWAP2 SWAP1 POP JUMP JUMPDEST PUSH1 0x0 PUSH1 0x20 DUP3 ADD SWAP1 POP DUP2 DUP2 SUB PUSH1 0x0 DUP4 ADD MSTORE PUSH2 0x2C94 DUP2 PUSH2 0x2C58 JUMP JUMPDEST SWAP1 POP SWAP2 SWAP1 POP JUMP JUMPDEST PUSH1 0x0 PUSH1 0x40 DUP3 ADD SWAP1 POP PUSH2 0x2CB0 PUSH1 0x0 DUP4 ADD DUP6 PUSH2 0x2901 JUMP JUMPDEST PUSH2 0x2CBD PUSH1 0x20 DUP4 ADD DUP5 PUSH2 0x2901 JUMP JUMPDEST SWAP4 SWAP3 POP POP POP JUMP JUMPDEST PUSH1 0x0 PUSH1 0x20 DUP3 ADD SWAP1 POP PUSH2 0x2CD9 PUSH1 0x0 DUP4 ADD DUP5 PUSH2 0x2901 JUMP JUMPDEST SWAP3 SWAP2 POP POP JUMP JUMPDEST PUSH32 0x496E73756666696369656E742062616C616E6365000000000000000000000000 PUSH1 0x0 DUP3 ADD MSTORE POP JUMP JUMPDEST PUSH1 0x0 PUSH2 0x2D15 PUSH1 0x14 DUP4 PUSH2 0x252B JUMP JUMPDEST SWAP2 POP PUSH2 0x2D20 DUP3 PUSH2 0x2CDF JUMP JUMPDEST PUSH1 0x20 DUP3 ADD SWAP1 POP SWAP2 SWAP1 POP JUMP JUMPDEST PUSH1 0x0 PUSH1 0x20 DUP3 ADD SWAP1 POP DUP2 DUP2 SUB PUSH1 0x0 DUP4 ADD MSTORE PUSH2 0x2D44 DUP2 PUSH2 0x2D08 JUMP JUMPDEST SWAP1 POP SWAP2 SWAP1 POP JUMP JUMPDEST PUSH1 0x0 PUSH1 0x60 DUP3 ADD SWAP1 POP PUSH2 0x2D60 PUSH1 0x0 DUP4 ADD DUP7 PUSH2 0x2901 JUMP JUMPDEST PUSH2 0x2D6D PUSH1 0x20 DUP4 ADD DUP6 PUSH2 0x2901 JUMP JUMPDEST PUSH2 0x2D7A PUSH1 0x40 DUP4 ADD DUP5 PUSH2 0x2219 JUMP JUMPDEST SWAP5 SWAP4 POP POP POP POP JUMP JUMPDEST PUSH1 0x0 PUSH2 0x2D8D DUP3 PUSH2 0x2046 JUMP JUMPDEST SWAP2 POP PUSH2 0x2D98 DUP4 PUSH2 0x2046 JUMP JUMPDEST SWAP3 POP DUP3 DUP3 MUL PUSH2 0x2DA6 DUP2 PUSH2 0x2046 JUMP JUMPDEST SWAP2 POP DUP3 DUP3 DIV DUP5 EQ DUP4 ISZERO OR PUSH2 0x2DBD JUMPI PUSH2 0x2DBC PUSH2 0x25CE JUMP JUMPDEST JUMPDEST POP SWAP3 SWAP2 POP POP JUMP JUMPDEST PUSH32 0x4E487B7100000000000000000000000000000000000000000000000000000000 PUSH1 0x0 MSTORE PUSH1 0x12 PUSH1 0x4 MSTORE PUSH1 0x24 PUSH1 0x0 REVERT JUMPDEST PUSH1 0x0 PUSH2 0x2DFE DUP3 PUSH2 0x2046 JUMP JUMPDEST SWAP2 POP PUSH2 0x2E09 DUP4 PUSH2 0x2046 JUMP JUMPDEST SWAP3 POP DUP3 PUSH2 0x2E19 JUMPI PUSH2 0x2E18 PUSH2 0x2DC4 JUMP JUMPDEST JUMPDEST DUP3 DUP3 DIV SWAP1 POP SWAP3 SWAP2 POP POP JUMP INVALID LOG2 PUSH5 0x6970667358 0x22 SLT KECCAK256 0xB2 0x1F DUP15 SLOAD ORIGIN 0xE6 MSTORE8 GT REVERT 0xC9 MSTORE8 DUP16 0xE1 0xC3 0xF7 PUSH16 0x1DE470024D66FC53BA99A26D1F932230 PUSH5 0x736F6C6343 STOP ADDMOD GT STOP CALLER "
				},
				"gasEstimates": {
					"creation": {
						"codeDepositCost": "2373200",
						"executionCost": "infinite",
						"totalCost": "infinite"
					},
					"external": {
						"ERC20()": "infinite",
						"ERC20Token()": "2537",
						"InitiatedAt()": "2563",
						"allowance(address,address,address)": "infinite",
						"approve(uint256,address,address)": "infinite",
						"balanceOf(bool,address)": "infinite",
						"beneficiary()": "2581",
						"delay()": "2562",
						"deposit(uint256,address,address,address)": "infinite",
						"freeze(address)": "infinite",
						"frozen()": "2517",
						"getWithdrawLimit(address)": "2929",
						"mutex()": "2588",
						"owner()": "2600",
						"returnBeneficiary()": "2634",
						"returnDelay()": "2481",
						"returnInitiateAt()": "2548",
						"returnOwner()": "2655",
						"setBeneficiary(address,uint256,address)": "infinite",
						"setWithdrawLimit(address,uint256,address)": "infinite",
						"tokenBalance()": "2474",
						"transferFunds(bool,address,uint256,address,address,address,uint256)": "infinite",
						"unfreeze(address)": "infinite",
						"withdraw(bool,uint256,address,address,address,uint256)": "infinite",
						"withdrawLimit(address)": "2924"
					}
				},
				"methodIdentifiers": {
					"ERC20()": "cc4aa204",
					"ERC20Token()": "7a80760e",
					"InitiatedAt()": "28af53fa",
					"allowance(address,address,address)": "927da105",
					"approve(uint256,address,address)": "2fac5d9f",
					"balanceOf(bool,address)": "1903b431",
					"beneficiary()": "38af3eed",
					"delay()": "6a42b8f8",
					"deposit(uint256,address,address,address)": "c250283c",
					"freeze(address)": "8d1fdf2f",
					"frozen()": "054f7d9c",
					"getWithdrawLimit(address)": "d4fb7e2d",
					"mutex()": "a5720770",
					"owner()": "8da5cb5b",
					"returnBeneficiary()": "23658af4",
					"returnDelay()": "c6a62290",
					"returnInitiateAt()": "4bfffc86",
					"returnOwner()": "94a927fe",
					"setBeneficiary(address,uint256,address)": "0a84aac5",
					"setWithdrawLimit(address,uint256,address)": "342ac615",
					"tokenBalance()": "9e1a4d19",
					"transferFunds(bool,address,uint256,address,address,address,uint256)": "0171b6da",
					"unfreeze(address)": "45c8b1a6",
					"withdraw(bool,uint256,address,address,address,uint256)": "87c2797d",
					"withdrawLimit(address)": "fce33f01"
				}
			},
			"storageLayout": {
				"storage": [
					{
						"astId": 1042,
						"contract": "contract/JointAccount.sol:Accounts",
						"label": "owner",
						"offset": 0,
						"slot": "0",
						"type": "t_address_payable"
					},
					{
						"astId": 1044,
						"contract": "contract/JointAccount.sol:Accounts",
						"label": "beneficiary",
						"offset": 0,
						"slot": "1",
						"type": "t_address_payable"
					},
					{
						"astId": 1046,
						"contract": "contract/JointAccount.sol:Accounts",
						"label": "InitiatedAt",
						"offset": 0,
						"slot": "2",
						"type": "t_uint256"
					},
					{
						"astId": 1048,
						"contract": "contract/JointAccount.sol:Accounts",
						"label": "delay",
						"offset": 0,
						"slot": "3",
						"type": "t_uint256"
					},
					{
						"astId": 1050,
						"contract": "contract/JointAccount.sol:Accounts",
						"label": "fee",
						"offset": 0,
						"slot": "4",
						"type": "t_uint256"
					},
					{
						"astId": 1052,
						"contract": "contract/JointAccount.sol:Accounts",
						"label": "ERC20Token",
						"offset": 0,
						"slot": "5",
						"type": "t_address_payable"
					},
					{
						"astId": 1055,
						"contract": "contract/JointAccount.sol:Accounts",
						"label": "ERC20",
						"offset": 0,
						"slot": "6",
						"type": "t_contract(IERC20)77"
					},
					{
						"astId": 1061,
						"contract": "contract/JointAccount.sol:Accounts",
						"label": "mutex",
						"offset": 20,
						"slot": "6",
						"type": "t_bool"
					},
					{
						"astId": 1063,
						"contract": "contract/JointAccount.sol:Accounts",
						"label": "tokenBalance",
						"offset": 0,
						"slot": "7",
						"type": "t_uint256"
					},
					{
						"astId": 1066,
						"contract": "contract/JointAccount.sol:Accounts",
						"label": "frozen",
						"offset": 0,
						"slot": "8",
						"type": "t_bool"
					},
					{
						"astId": 1078,
						"contract": "contract/JointAccount.sol:Accounts",
						"label": "withdrawLimit",
						"offset": 0,
						"slot": "9",
						"type": "t_mapping(t_address,t_uint256)"
					}
				],
				"types": {
					"t_address": {
						"encoding": "inplace",
						"label": "address",
						"numberOfBytes": "20"
					},
					"t_address_payable": {
						"encoding": "inplace",
						"label": "address payable",
						"numberOfBytes": "20"
					},
					"t_bool": {
						"encoding": "inplace",
						"label": "bool",
						"numberOfBytes": "1"
					},
					"t_contract(IERC20)77": {
						"encoding": "inplace",
						"label": "contract IERC20",
						"numberOfBytes": "20"
					},
					"t_mapping(t_address,t_uint256)": {
						"encoding": "mapping",
						"key": "t_address",
						"label": "mapping(address => uint256)",
						"numberOfBytes": "32",
						"value": "t_uint256"
					},
					"t_uint256": {
						"encoding": "inplace",
						"label": "uint256",
						"numberOfBytes": "32"
					}
				}
			},
			"userdoc": {
				"kind": "user",
				"methods": {},
				"version": 1
			}
		}
	}
}