{
	"contract/JointAccount.sol": {
		"Accounts": {
			"abi": [
				{
					"inputs": [
						{
							"internalType": "address payable",
							"name": "_owner",
							"type": "address"
						}
					],
					"stateMutability": "nonpayable",
					"type": "constructor"
				},
				{
					"anonymous": false,
					"inputs": [
						{
							"indexed": true,
							"internalType": "address",
							"name": "contractAddress",
							"type": "address"
						},
						{
							"indexed": true,
							"internalType": "address",
							"name": "from",
							"type": "address"
						},
						{
							"indexed": false,
							"internalType": "uint256",
							"name": "amount",
							"type": "uint256"
						}
					],
					"name": "Deposit",
					"type": "event"
				},
				{
					"anonymous": false,
					"inputs": [
						{
							"indexed": false,
							"internalType": "address",
							"name": "account",
							"type": "address"
						}
					],
					"name": "Paused",
					"type": "event"
				},
				{
					"anonymous": false,
					"inputs": [
						{
							"indexed": false,
							"internalType": "address",
							"name": "account",
							"type": "address"
						}
					],
					"name": "Unpaused",
					"type": "event"
				},
				{
					"stateMutability": "payable",
					"type": "fallback"
				},
				{
					"inputs": [],
					"name": "ERC20",
					"outputs": [
						{
							"internalType": "contract IERC20",
							"name": "",
							"type": "address"
						}
					],
					"stateMutability": "view",
					"type": "function"
				},
				{
					"inputs": [],
					"name": "ERC20Token",
					"outputs": [
						{
							"internalType": "address payable",
							"name": "",
							"type": "address"
						}
					],
					"stateMutability": "view",
					"type": "function"
				},
				{
					"inputs": [],
					"name": "InitiatedAt",
					"outputs": [
						{
							"internalType": "uint256",
							"name": "",
							"type": "uint256"
						}
					],
					"stateMutability": "view",
					"type": "function"
				},
				{
					"inputs": [
						{
							"internalType": "bool",
							"name": "_isCelo",
							"type": "bool"
						},
						{
							"internalType": "address",
							"name": "_ERC20Address",
							"type": "address"
						}
					],
					"name": "balanceOf",
					"outputs": [
						{
							"internalType": "uint256",
							"name": "",
							"type": "uint256"
						}
					],
					"stateMutability": "view",
					"type": "function"
				},
				{
					"inputs": [],
					"name": "beneficiary",
					"outputs": [
						{
							"internalType": "address payable",
							"name": "",
							"type": "address"
						}
					],
					"stateMutability": "view",
					"type": "function"
				},
				{
					"inputs": [],
					"name": "delay",
					"outputs": [
						{
							"internalType": "uint256",
							"name": "",
							"type": "uint256"
						}
					],
					"stateMutability": "view",
					"type": "function"
				},
				{
					"inputs": [
						{
							"internalType": "address",
							"name": "_ERC20Address",
							"type": "address"
						}
					],
					"name": "getWithdrawLimit",
					"outputs": [
						{
							"internalType": "uint256",
							"name": "",
							"type": "uint256"
						}
					],
					"stateMutability": "view",
					"type": "function"
				},
				{
					"inputs": [],
					"name": "owner",
					"outputs": [
						{
							"internalType": "address payable",
							"name": "",
							"type": "address"
						}
					],
					"stateMutability": "view",
					"type": "function"
				},
				{
					"inputs": [
						{
							"internalType": "address",
							"name": "_sender",
							"type": "address"
						}
					],
					"name": "pause",
					"outputs": [],
					"stateMutability": "nonpayable",
					"type": "function"
				},
				{
					"inputs": [],
					"name": "paused",
					"outputs": [
						{
							"internalType": "bool",
							"name": "",
							"type": "bool"
						}
					],
					"stateMutability": "view",
					"type": "function"
				},
				{
					"inputs": [],
					"name": "returnBeneficiary",
					"outputs": [
						{
							"internalType": "address",
							"name": "",
							"type": "address"
						}
					],
					"stateMutability": "view",
					"type": "function"
				},
				{
					"inputs": [],
					"name": "returnDelay",
					"outputs": [
						{
							"internalType": "uint256",
							"name": "",
							"type": "uint256"
						}
					],
					"stateMutability": "view",
					"type": "function"
				},
				{
					"inputs": [],
					"name": "returnInitiateAt",
					"outputs": [
						{
							"internalType": "uint256",
							"name": "",
							"type": "uint256"
						}
					],
					"stateMutability": "view",
					"type": "function"
				},
				{
					"inputs": [],
					"name": "returnOwner",
					"outputs": [
						{
							"internalType": "address",
							"name": "",
							"type": "address"
						}
					],
					"stateMutability": "view",
					"type": "function"
				},
				{
					"inputs": [],
					"name": "returnTransferFee",
					"outputs": [
						{
							"internalType": "uint256",
							"name": "",
							"type": "uint256"
						}
					],
					"stateMutability": "view",
					"type": "function"
				},
				{
					"inputs": [
						{
							"internalType": "address payable",
							"name": "_beneficiary",
							"type": "address"
						},
						{
							"internalType": "uint256",
							"name": "_delay",
							"type": "uint256"
						},
						{
							"internalType": "address",
							"name": "_sender",
							"type": "address"
						}
					],
					"name": "setBeneficiary",
					"outputs": [],
					"stateMutability": "nonpayable",
					"type": "function"
				},
				{
					"inputs": [
						{
							"internalType": "uint256",
							"name": "_amount",
							"type": "uint256"
						},
						{
							"internalType": "address",
							"name": "_ERC20Address",
							"type": "address"
						},
						{
							"internalType": "address",
							"name": "_sender",
							"type": "address"
						}
					],
					"name": "setWithdrawLimit",
					"outputs": [],
					"stateMutability": "nonpayable",
					"type": "function"
				},
				{
					"inputs": [],
					"name": "tokenBalance",
					"outputs": [
						{
							"internalType": "uint256",
							"name": "",
							"type": "uint256"
						}
					],
					"stateMutability": "view",
					"type": "function"
				},
				{
					"inputs": [
						{
							"internalType": "bool",
							"name": "_isWithdraw",
							"type": "bool"
						},
						{
							"internalType": "bool",
							"name": "_isCelo",
							"type": "bool"
						},
						{
							"internalType": "address payable",
							"name": "_recipient",
							"type": "address"
						},
						{
							"internalType": "uint256",
							"name": "_amount",
							"type": "uint256"
						},
						{
							"internalType": "address",
							"name": "_ERC20Address",
							"type": "address"
						},
						{
							"internalType": "address",
							"name": "_sender",
							"type": "address"
						}
					],
					"name": "transferOrWithdraw",
					"outputs": [],
					"stateMutability": "nonpayable",
					"type": "function"
				},
				{
					"inputs": [
						{
							"internalType": "address",
							"name": "_sender",
							"type": "address"
						}
					],
					"name": "unpause",
					"outputs": [],
					"stateMutability": "nonpayable",
					"type": "function"
				},
				{
					"inputs": [
						{
							"internalType": "address",
							"name": "",
							"type": "address"
						}
					],
					"name": "withdrawLimit",
					"outputs": [
						{
							"internalType": "uint256",
							"name": "",
							"type": "uint256"
						}
					],
					"stateMutability": "view",
					"type": "function"
				},
				{
					"stateMutability": "payable",
					"type": "receive"
				}
			],
			"devdoc": {
				"kind": "dev",
				"methods": {
					"paused()": {
						"details": "Returns true if the contract is paused, and false otherwise."
					}
				},
				"version": 1
			},
			"evm": {
				"assembly": "    /* \"contract/JointAccount.sol\":311:5687  contract Accounts is Pausable, ReentrancyGuard {\r... */\n  mstore(0x40, 0x80)\n    /* \"contract/JointAccount.sol\":1717:1888  constructor(address payable _owner) {\r... */\n  callvalue\n  dup1\n  iszero\n  tag_1\n  jumpi\n  0x00\n  dup1\n  revert\ntag_1:\n  pop\n  mload(0x40)\n  sub(codesize, bytecodeSize)\n  dup1\n  bytecodeSize\n  dup4\n  codecopy\n  dup2\n  dup2\n  add\n  0x40\n  mstore\n  dup2\n  add\n  swap1\n  tag_2\n  swap2\n  swap1\n  tag_3\n  jump\t// in\ntag_2:\n    /* \"@openzeppelin/contracts/security/Pausable.sol\":1006:1011  false */\n  0x00\n    /* \"@openzeppelin/contracts/security/Pausable.sol\":996:1003  _paused */\n  dup1\n  0x00\n    /* \"@openzeppelin/contracts/security/Pausable.sol\":996:1011  _paused = false */\n  0x0100\n  exp\n  dup2\n  sload\n  dup2\n  0xff\n  mul\n  not\n  and\n  swap1\n  dup4\n  iszero\n  iszero\n  mul\n  or\n  swap1\n  sstore\n  pop\n    /* \"@openzeppelin/contracts/security/ReentrancyGuard.sol\":1716:1717  1 */\n  0x01\n    /* \"@openzeppelin/contracts/security/ReentrancyGuard.sol\":1821:1828  _status */\n  dup1\n    /* \"@openzeppelin/contracts/security/ReentrancyGuard.sol\":1821:1843  _status = _NOT_ENTERED */\n  dup2\n  swap1\n  sstore\n  pop\n    /* \"contract/JointAccount.sol\":1772:1778  _owner */\n  dup1\n    /* \"contract/JointAccount.sol\":1764:1769  owner */\n  0x03\n  0x00\n    /* \"contract/JointAccount.sol\":1764:1778  owner = _owner */\n  0x0100\n  exp\n  dup2\n  sload\n  dup2\n  0xffffffffffffffffffffffffffffffffffffffff\n  mul\n  not\n  and\n  swap1\n  dup4\n  0xffffffffffffffffffffffffffffffffffffffff\n  and\n  mul\n  or\n  swap1\n  sstore\n  pop\n    /* \"contract/JointAccount.sol\":1803:1804  1 */\n  0x01\n    /* \"contract/JointAccount.sol\":1789:1800  transferFee */\n  0x0a\n    /* \"contract/JointAccount.sol\":1789:1804  transferFee = 1 */\n  dup2\n  swap1\n  sstore\n  pop\n    /* \"contract/JointAccount.sol\":1837:1879  0xca3C4DF107a315de8545Fb715917CaE4f6af8BF1 */\n  0xca3c4df107a315de8545fb715917cae4f6af8bf1\n    /* \"contract/JointAccount.sol\":1815:1825  feeAddress */\n  0x06\n  0x00\n    /* \"contract/JointAccount.sol\":1815:1880  feeAddress =  payable(0xca3C4DF107a315de8545Fb715917CaE4f6af8BF1) */\n  0x0100\n  exp\n  dup2\n  sload\n  dup2\n  0xffffffffffffffffffffffffffffffffffffffff\n  mul\n  not\n  and\n  swap1\n  dup4\n  0xffffffffffffffffffffffffffffffffffffffff\n  and\n  mul\n  or\n  swap1\n  sstore\n  pop\n    /* \"contract/JointAccount.sol\":1717:1888  constructor(address payable _owner) {\r... */\n  pop\n    /* \"contract/JointAccount.sol\":311:5687  contract Accounts is Pausable, ReentrancyGuard {\r... */\n  jump(tag_10)\n    /* \"#utility.yul\":7:166   */\ntag_12:\n    /* \"#utility.yul\":72:77   */\n  0x00\n    /* \"#utility.yul\":103:109   */\n  dup2\n    /* \"#utility.yul\":97:110   */\n  mload\n    /* \"#utility.yul\":88:110   */\n  swap1\n  pop\n    /* \"#utility.yul\":119:160   */\n  tag_14\n    /* \"#utility.yul\":154:159   */\n  dup2\n    /* \"#utility.yul\":119:160   */\n  tag_15\n  jump\t// in\ntag_14:\n    /* \"#utility.yul\":7:166   */\n  swap3\n  swap2\n  pop\n  pop\n  jump\t// out\n    /* \"#utility.yul\":172:539   */\ntag_3:\n    /* \"#utility.yul\":250:256   */\n  0x00\n    /* \"#utility.yul\":299:301   */\n  0x20\n    /* \"#utility.yul\":287:296   */\n  dup3\n    /* \"#utility.yul\":278:285   */\n  dup5\n    /* \"#utility.yul\":274:297   */\n  sub\n    /* \"#utility.yul\":270:302   */\n  slt\n    /* \"#utility.yul\":267:386   */\n  iszero\n  tag_17\n  jumpi\n    /* \"#utility.yul\":305:384   */\n  tag_18\n  tag_19\n  jump\t// in\ntag_18:\n    /* \"#utility.yul\":267:386   */\ntag_17:\n    /* \"#utility.yul\":425:426   */\n  0x00\n    /* \"#utility.yul\":450:522   */\n  tag_20\n    /* \"#utility.yul\":514:521   */\n  dup5\n    /* \"#utility.yul\":505:511   */\n  dup3\n    /* \"#utility.yul\":494:503   */\n  dup6\n    /* \"#utility.yul\":490:512   */\n  add\n    /* \"#utility.yul\":450:522   */\n  tag_12\n  jump\t// in\ntag_20:\n    /* \"#utility.yul\":440:522   */\n  swap2\n  pop\n    /* \"#utility.yul\":396:532   */\n  pop\n    /* \"#utility.yul\":172:539   */\n  swap3\n  swap2\n  pop\n  pop\n  jump\t// out\n    /* \"#utility.yul\":626:730   */\ntag_23:\n    /* \"#utility.yul\":671:678   */\n  0x00\n    /* \"#utility.yul\":700:724   */\n  tag_25\n    /* \"#utility.yul\":718:723   */\n  dup3\n    /* \"#utility.yul\":700:724   */\n  tag_26\n  jump\t// in\ntag_25:\n    /* \"#utility.yul\":689:724   */\n  swap1\n  pop\n    /* \"#utility.yul\":626:730   */\n  swap2\n  swap1\n  pop\n  jump\t// out\n    /* \"#utility.yul\":736:862   */\ntag_26:\n    /* \"#utility.yul\":773:780   */\n  0x00\n    /* \"#utility.yul\":813:855   */\n  0xffffffffffffffffffffffffffffffffffffffff\n    /* \"#utility.yul\":806:811   */\n  dup3\n    /* \"#utility.yul\":802:856   */\n  and\n    /* \"#utility.yul\":791:856   */\n  swap1\n  pop\n    /* \"#utility.yul\":736:862   */\n  swap2\n  swap1\n  pop\n  jump\t// out\n    /* \"#utility.yul\":991:1108   */\ntag_19:\n    /* \"#utility.yul\":1100:1101   */\n  0x00\n    /* \"#utility.yul\":1097:1098   */\n  dup1\n    /* \"#utility.yul\":1090:1102   */\n  revert\n    /* \"#utility.yul\":1114:1252   */\ntag_15:\n    /* \"#utility.yul\":1195:1227   */\n  tag_32\n    /* \"#utility.yul\":1221:1226   */\n  dup2\n    /* \"#utility.yul\":1195:1227   */\n  tag_23\n  jump\t// in\ntag_32:\n    /* \"#utility.yul\":1188:1193   */\n  dup2\n    /* \"#utility.yul\":1185:1228   */\n  eq\n    /* \"#utility.yul\":1175:1246   */\n  tag_33\n  jumpi\n    /* \"#utility.yul\":1242:1243   */\n  0x00\n    /* \"#utility.yul\":1239:1240   */\n  dup1\n    /* \"#utility.yul\":1232:1244   */\n  revert\n    /* \"#utility.yul\":1175:1246   */\ntag_33:\n    /* \"#utility.yul\":1114:1252   */\n  pop\n  jump\t// out\n    /* \"contract/JointAccount.sol\":311:5687  contract Accounts is Pausable, ReentrancyGuard {\r... */\ntag_10:\n  dataSize(sub_0)\n  dup1\n  dataOffset(sub_0)\n  0x00\n  codecopy\n  0x00\n  return\nstop\n\nsub_0: assembly {\n        /* \"contract/JointAccount.sol\":311:5687  contract Accounts is Pausable, ReentrancyGuard {\r... */\n      mstore(0x40, 0x80)\n      jumpi(tag_1, lt(calldatasize, 0x04))\n      shr(0xe0, calldataload(0x00))\n      dup1\n      0x76a67a51\n      gt\n      tag_24\n      jumpi\n      dup1\n      0x9e1a4d19\n      gt\n      tag_25\n      jumpi\n      dup1\n      0x9e1a4d19\n      eq\n      tag_18\n      jumpi\n      dup1\n      0xc6a62290\n      eq\n      tag_19\n      jumpi\n      dup1\n      0xcc4aa204\n      eq\n      tag_20\n      jumpi\n      dup1\n      0xd4fb7e2d\n      eq\n      tag_21\n      jumpi\n      dup1\n      0xf5c91a0b\n      eq\n      tag_22\n      jumpi\n      dup1\n      0xfce33f01\n      eq\n      tag_23\n      jumpi\n      jump(tag_2)\n    tag_25:\n      dup1\n      0x76a67a51\n      eq\n      tag_13\n      jumpi\n      dup1\n      0x7a80760e\n      eq\n      tag_14\n      jumpi\n      dup1\n      0x836b1aff\n      eq\n      tag_15\n      jumpi\n      dup1\n      0x8da5cb5b\n      eq\n      tag_16\n      jumpi\n      dup1\n      0x94a927fe\n      eq\n      tag_17\n      jumpi\n      jump(tag_2)\n    tag_24:\n      dup1\n      0x4bfffc86\n      gt\n      tag_26\n      jumpi\n      dup1\n      0x4bfffc86\n      eq\n      tag_8\n      jumpi\n      dup1\n      0x56e0a361\n      eq\n      tag_9\n      jumpi\n      dup1\n      0x57b001f9\n      eq\n      tag_10\n      jumpi\n      dup1\n      0x5c975abb\n      eq\n      tag_11\n      jumpi\n      dup1\n      0x6a42b8f8\n      eq\n      tag_12\n      jumpi\n      jump(tag_2)\n    tag_26:\n      dup1\n      0x0a84aac5\n      eq\n      tag_3\n      jumpi\n      dup1\n      0x1903b431\n      eq\n      tag_4\n      jumpi\n      dup1\n      0x23658af4\n      eq\n      tag_5\n      jumpi\n      dup1\n      0x28af53fa\n      eq\n      tag_6\n      jumpi\n      dup1\n      0x38af3eed\n      eq\n      tag_7\n      jumpi\n      jump(tag_2)\n    tag_1:\n      jumpi(tag_2, calldatasize)\n        /* \"contract/JointAccount.sol\":2121:2131  msg.sender */\n      caller\n        /* \"contract/JointAccount.sol\":2098:2143  Deposit(address(this), msg.sender, msg.value) */\n      0xffffffffffffffffffffffffffffffffffffffff\n      and\n        /* \"contract/JointAccount.sol\":2114:2118  this */\n      address\n        /* \"contract/JointAccount.sol\":2098:2143  Deposit(address(this), msg.sender, msg.value) */\n      0xffffffffffffffffffffffffffffffffffffffff\n      and\n      0x5548c837ab068cf56a2c2479df0882a4922fd203edb7517321831d95078c5f62\n        /* \"contract/JointAccount.sol\":2133:2142  msg.value */\n      callvalue\n        /* \"contract/JointAccount.sol\":2098:2143  Deposit(address(this), msg.sender, msg.value) */\n      mload(0x40)\n      tag_29\n      swap2\n      swap1\n      tag_30\n      jump\t// in\n    tag_29:\n      mload(0x40)\n      dup1\n      swap2\n      sub\n      swap1\n      log3\n        /* \"contract/JointAccount.sol\":311:5687  contract Accounts is Pausable, ReentrancyGuard {\r... */\n      stop\n    tag_2:\n        /* \"contract/JointAccount.sol\":1991:2001  msg.sender */\n      caller\n        /* \"contract/JointAccount.sol\":1968:2013  Deposit(address(this), msg.sender, msg.value) */\n      0xffffffffffffffffffffffffffffffffffffffff\n      and\n        /* \"contract/JointAccount.sol\":1984:1988  this */\n      address\n        /* \"contract/JointAccount.sol\":1968:2013  Deposit(address(this), msg.sender, msg.value) */\n      0xffffffffffffffffffffffffffffffffffffffff\n      and\n      0x5548c837ab068cf56a2c2479df0882a4922fd203edb7517321831d95078c5f62\n        /* \"contract/JointAccount.sol\":2003:2012  msg.value */\n      callvalue\n        /* \"contract/JointAccount.sol\":1968:2013  Deposit(address(this), msg.sender, msg.value) */\n      mload(0x40)\n      tag_33\n      swap2\n      swap1\n      tag_30\n      jump\t// in\n    tag_33:\n      mload(0x40)\n      dup1\n      swap2\n      sub\n      swap1\n      log3\n        /* \"contract/JointAccount.sol\":311:5687  contract Accounts is Pausable, ReentrancyGuard {\r... */\n      stop\n        /* \"contract/JointAccount.sol\":2570:2874  function setBeneficiary(address payable _beneficiary, uint _delay, address _sender) public onlyOwner(_sender) {\r... */\n    tag_3:\n      callvalue\n      dup1\n      iszero\n      tag_34\n      jumpi\n      0x00\n      dup1\n      revert\n    tag_34:\n      pop\n      tag_35\n      0x04\n      dup1\n      calldatasize\n      sub\n      dup2\n      add\n      swap1\n      tag_36\n      swap2\n      swap1\n      tag_37\n      jump\t// in\n    tag_36:\n      tag_38\n      jump\t// in\n    tag_35:\n      stop\n        /* \"contract/JointAccount.sol\":4464:4705  function balanceOf(bool _isCelo, address _ERC20Address) public view returns(uint) {\r... */\n    tag_4:\n      callvalue\n      dup1\n      iszero\n      tag_39\n      jumpi\n      0x00\n      dup1\n      revert\n    tag_39:\n      pop\n      tag_40\n      0x04\n      dup1\n      calldatasize\n      sub\n      dup2\n      add\n      swap1\n      tag_41\n      swap2\n      swap1\n      tag_42\n      jump\t// in\n    tag_41:\n      tag_43\n      jump\t// in\n    tag_40:\n      mload(0x40)\n      tag_44\n      swap2\n      swap1\n      tag_30\n      jump\t// in\n    tag_44:\n      mload(0x40)\n      dup1\n      swap2\n      sub\n      swap1\n      return\n        /* \"contract/JointAccount.sol\":4917:5011  function returnBeneficiary() public view returns(address){\r... */\n    tag_5:\n      callvalue\n      dup1\n      iszero\n      tag_45\n      jumpi\n      0x00\n      dup1\n      revert\n    tag_45:\n      pop\n      tag_46\n      tag_47\n      jump\t// in\n    tag_46:\n      mload(0x40)\n      tag_48\n      swap2\n      swap1\n      tag_49\n      jump\t// in\n    tag_48:\n      mload(0x40)\n      dup1\n      swap2\n      sub\n      swap1\n      return\n        /* \"contract/JointAccount.sol\":859:882  uint public InitiatedAt */\n    tag_6:\n      callvalue\n      dup1\n      iszero\n      tag_50\n      jumpi\n      0x00\n      dup1\n      revert\n    tag_50:\n      pop\n      tag_51\n      tag_52\n      jump\t// in\n    tag_51:\n      mload(0x40)\n      tag_53\n      swap2\n      swap1\n      tag_30\n      jump\t// in\n    tag_53:\n      mload(0x40)\n      dup1\n      swap2\n      sub\n      swap1\n      return\n        /* \"contract/JointAccount.sol\":615:649  address payable public beneficiary */\n    tag_7:\n      callvalue\n      dup1\n      iszero\n      tag_54\n      jumpi\n      0x00\n      dup1\n      revert\n    tag_54:\n      pop\n      tag_55\n      tag_56\n      jump\t// in\n    tag_55:\n      mload(0x40)\n      tag_57\n      swap2\n      swap1\n      tag_58\n      jump\t// in\n    tag_57:\n      mload(0x40)\n      dup1\n      swap2\n      sub\n      swap1\n      return\n        /* \"contract/JointAccount.sol\":5427:5517  function returnInitiateAt() public view returns(uint){\r... */\n    tag_8:\n      callvalue\n      dup1\n      iszero\n      tag_59\n      jumpi\n      0x00\n      dup1\n      revert\n    tag_59:\n      pop\n      tag_60\n      tag_61\n      jump\t// in\n    tag_60:\n      mload(0x40)\n      tag_62\n      swap2\n      swap1\n      tag_30\n      jump\t// in\n    tag_62:\n      mload(0x40)\n      dup1\n      swap2\n      sub\n      swap1\n      return\n        /* \"contract/JointAccount.sol\":2953:3166  function setWithdrawLimit( uint _amount, address _ERC20Address, address _sender) public onlyOwner(_sender) {\r... */\n    tag_9:\n      callvalue\n      dup1\n      iszero\n      tag_63\n      jumpi\n      0x00\n      dup1\n      revert\n    tag_63:\n      pop\n      tag_64\n      0x04\n      dup1\n      calldatasize\n      sub\n      dup2\n      add\n      swap1\n      tag_65\n      swap2\n      swap1\n      tag_66\n      jump\t// in\n    tag_65:\n      tag_67\n      jump\t// in\n    tag_64:\n      stop\n        /* \"contract/JointAccount.sol\":2392:2481  function unpause(address _sender) public onlyOwner(_sender) {\r... */\n    tag_10:\n      callvalue\n      dup1\n      iszero\n      tag_68\n      jumpi\n      0x00\n      dup1\n      revert\n    tag_68:\n      pop\n      tag_69\n      0x04\n      dup1\n      calldatasize\n      sub\n      dup2\n      add\n      swap1\n      tag_70\n      swap2\n      swap1\n      tag_71\n      jump\t// in\n    tag_70:\n      tag_72\n      jump\t// in\n    tag_69:\n      stop\n        /* \"@openzeppelin/contracts/security/Pausable.sol\":1615:1699  function paused() public view virtual returns (bool) {... */\n    tag_11:\n      callvalue\n      dup1\n      iszero\n      tag_73\n      jumpi\n      0x00\n      dup1\n      revert\n    tag_73:\n      pop\n      tag_74\n      tag_75\n      jump\t// in\n    tag_74:\n      mload(0x40)\n      tag_76\n      swap2\n      swap1\n      tag_77\n      jump\t// in\n    tag_76:\n      mload(0x40)\n      dup1\n      swap2\n      sub\n      swap1\n      return\n        /* \"contract/JointAccount.sol\":990:1007  uint public delay */\n    tag_12:\n      callvalue\n      dup1\n      iszero\n      tag_78\n      jumpi\n      0x00\n      dup1\n      revert\n    tag_78:\n      pop\n      tag_79\n      tag_80\n      jump\t// in\n    tag_79:\n      mload(0x40)\n      tag_81\n      swap2\n      swap1\n      tag_30\n      jump\t// in\n    tag_81:\n      mload(0x40)\n      dup1\n      swap2\n      sub\n      swap1\n      return\n        /* \"contract/JointAccount.sol\":2284:2369  function pause(address _sender) public onlyOwner(_sender) {\r... */\n    tag_13:\n      callvalue\n      dup1\n      iszero\n      tag_82\n      jumpi\n      0x00\n      dup1\n      revert\n    tag_82:\n      pop\n      tag_83\n      0x04\n      dup1\n      calldatasize\n      sub\n      dup2\n      add\n      swap1\n      tag_84\n      swap2\n      swap1\n      tag_71\n      jump\t// in\n    tag_84:\n      tag_85\n      jump\t// in\n    tag_83:\n      stop\n        /* \"contract/JointAccount.sol\":705:738  address payable public ERC20Token */\n    tag_14:\n      callvalue\n      dup1\n      iszero\n      tag_86\n      jumpi\n      0x00\n      dup1\n      revert\n    tag_86:\n      pop\n      tag_87\n      tag_88\n      jump\t// in\n    tag_87:\n      mload(0x40)\n      tag_89\n      swap2\n      swap1\n      tag_58\n      jump\t// in\n    tag_89:\n      mload(0x40)\n      dup1\n      swap2\n      sub\n      swap1\n      return\n        /* \"contract/JointAccount.sol\":3213:4408  function transferOrWithdraw(bool _isWithdraw, bool _isCelo, address payable _recipient, uint _amount, address _ERC20Address, address _sender) public whenNotPaused nonReentrant requireBeneficiaryOrOwner(_sender) {\r... */\n    tag_15:\n      callvalue\n      dup1\n      iszero\n      tag_90\n      jumpi\n      0x00\n      dup1\n      revert\n    tag_90:\n      pop\n      tag_91\n      0x04\n      dup1\n      calldatasize\n      sub\n      dup2\n      add\n      swap1\n      tag_92\n      swap2\n      swap1\n      tag_93\n      jump\t// in\n    tag_92:\n      tag_94\n      jump\t// in\n    tag_91:\n      stop\n        /* \"contract/JointAccount.sol\":541:569  address payable public owner */\n    tag_16:\n      callvalue\n      dup1\n      iszero\n      tag_95\n      jumpi\n      0x00\n      dup1\n      revert\n    tag_95:\n      pop\n      tag_96\n      tag_97\n      jump\t// in\n    tag_96:\n      mload(0x40)\n      tag_98\n      swap2\n      swap1\n      tag_58\n      jump\t// in\n    tag_98:\n      mload(0x40)\n      dup1\n      swap2\n      sub\n      swap1\n      return\n        /* \"contract/JointAccount.sol\":4765:4847  function returnOwner() public view returns(address){\r... */\n    tag_17:\n      callvalue\n      dup1\n      iszero\n      tag_99\n      jumpi\n      0x00\n      dup1\n      revert\n    tag_99:\n      pop\n      tag_100\n      tag_101\n      jump\t// in\n    tag_100:\n      mload(0x40)\n      tag_102\n      swap2\n      swap1\n      tag_49\n      jump\t// in\n    tag_102:\n      mload(0x40)\n      dup1\n      swap2\n      sub\n      swap1\n      return\n        /* \"contract/JointAccount.sol\":1143:1167  uint public tokenBalance */\n    tag_18:\n      callvalue\n      dup1\n      iszero\n      tag_103\n      jumpi\n      0x00\n      dup1\n      revert\n    tag_103:\n      pop\n      tag_104\n      tag_105\n      jump\t// in\n    tag_104:\n      mload(0x40)\n      tag_106\n      swap2\n      swap1\n      tag_30\n      jump\t// in\n    tag_106:\n      mload(0x40)\n      dup1\n      swap2\n      sub\n      swap1\n      return\n        /* \"contract/JointAccount.sol\":5273:5352  function returnDelay() public view returns(uint){\r... */\n    tag_19:\n      callvalue\n      dup1\n      iszero\n      tag_107\n      jumpi\n      0x00\n      dup1\n      revert\n    tag_107:\n      pop\n      tag_108\n      tag_109\n      jump\t// in\n    tag_108:\n      mload(0x40)\n      tag_110\n      swap2\n      swap1\n      tag_30\n      jump\t// in\n    tag_110:\n      mload(0x40)\n      dup1\n      swap2\n      sub\n      swap1\n      return\n        /* \"contract/JointAccount.sol\":380:399  IERC20 public ERC20 */\n    tag_20:\n      callvalue\n      dup1\n      iszero\n      tag_111\n      jumpi\n      0x00\n      dup1\n      revert\n    tag_111:\n      pop\n      tag_112\n      tag_113\n      jump\t// in\n    tag_112:\n      mload(0x40)\n      tag_114\n      swap2\n      swap1\n      tag_115\n      jump\t// in\n    tag_114:\n      mload(0x40)\n      dup1\n      swap2\n      sub\n      swap1\n      return\n        /* \"contract/JointAccount.sol\":5080:5210  function getWithdrawLimit(address _ERC20Address) public view returns (uint) {\r... */\n    tag_21:\n      callvalue\n      dup1\n      iszero\n      tag_116\n      jumpi\n      0x00\n      dup1\n      revert\n    tag_116:\n      pop\n      tag_117\n      0x04\n      dup1\n      calldatasize\n      sub\n      dup2\n      add\n      swap1\n      tag_118\n      swap2\n      swap1\n      tag_71\n      jump\t// in\n    tag_118:\n      tag_119\n      jump\t// in\n    tag_117:\n      mload(0x40)\n      tag_120\n      swap2\n      swap1\n      tag_30\n      jump\t// in\n    tag_120:\n      mload(0x40)\n      dup1\n      swap2\n      sub\n      swap1\n      return\n        /* \"contract/JointAccount.sol\":5587:5678  function returnTransferFee() public view returns(uint){\r... */\n    tag_22:\n      callvalue\n      dup1\n      iszero\n      tag_121\n      jumpi\n      0x00\n      dup1\n      revert\n    tag_121:\n      pop\n      tag_122\n      tag_123\n      jump\t// in\n    tag_122:\n      mload(0x40)\n      tag_124\n      swap2\n      swap1\n      tag_30\n      jump\t// in\n    tag_124:\n      mload(0x40)\n      dup1\n      swap2\n      sub\n      swap1\n      return\n        /* \"contract/JointAccount.sol\":1246:1292  mapping (address => uint) public withdrawLimit */\n    tag_23:\n      callvalue\n      dup1\n      iszero\n      tag_125\n      jumpi\n      0x00\n      dup1\n      revert\n    tag_125:\n      pop\n      tag_126\n      0x04\n      dup1\n      calldatasize\n      sub\n      dup2\n      add\n      swap1\n      tag_127\n      swap2\n      swap1\n      tag_71\n      jump\t// in\n    tag_127:\n      tag_128\n      jump\t// in\n    tag_126:\n      mload(0x40)\n      tag_129\n      swap2\n      swap1\n      tag_30\n      jump\t// in\n    tag_129:\n      mload(0x40)\n      dup1\n      swap2\n      sub\n      swap1\n      return\n        /* \"contract/JointAccount.sol\":2570:2874  function setBeneficiary(address payable _beneficiary, uint _delay, address _sender) public onlyOwner(_sender) {\r... */\n    tag_38:\n        /* \"contract/JointAccount.sol\":2671:2678  _sender */\n      dup1\n        /* \"contract/JointAccount.sol\":1395:1400  owner */\n      0x03\n      0x00\n      swap1\n      sload\n      swap1\n      0x0100\n      exp\n      swap1\n      div\n      0xffffffffffffffffffffffffffffffffffffffff\n      and\n        /* \"contract/JointAccount.sol\":1384:1400  _sender == owner */\n      0xffffffffffffffffffffffffffffffffffffffff\n      and\n        /* \"contract/JointAccount.sol\":1384:1391  _sender */\n      dup2\n        /* \"contract/JointAccount.sol\":1384:1400  _sender == owner */\n      0xffffffffffffffffffffffffffffffffffffffff\n      and\n      eq\n        /* \"contract/JointAccount.sol\":1376:1442  require(_sender == owner, \"Only the owner can call this function\") */\n      tag_131\n      jumpi\n      mload(0x40)\n      0x08c379a000000000000000000000000000000000000000000000000000000000\n      dup2\n      mstore\n      0x04\n      add\n      tag_132\n      swap1\n      tag_133\n      jump\t// in\n    tag_132:\n      mload(0x40)\n      dup1\n      swap2\n      sub\n      swap1\n      revert\n    tag_131:\n        /* \"contract/JointAccount.sol\":2723:2724  0 */\n      0x00\n        /* \"contract/JointAccount.sol\":2699:2725  _beneficiary != address(0) */\n      0xffffffffffffffffffffffffffffffffffffffff\n      and\n        /* \"contract/JointAccount.sol\":2699:2711  _beneficiary */\n      dup5\n        /* \"contract/JointAccount.sol\":2699:2725  _beneficiary != address(0) */\n      0xffffffffffffffffffffffffffffffffffffffff\n      and\n      eq\n      iszero\n        /* \"contract/JointAccount.sol\":2691:2764  require(_beneficiary != address(0), \"Beneficiary cannot be zero address\") */\n      tag_135\n      jumpi\n      mload(0x40)\n      0x08c379a000000000000000000000000000000000000000000000000000000000\n      dup2\n      mstore\n      0x04\n      add\n      tag_136\n      swap1\n      tag_137\n      jump\t// in\n    tag_136:\n      mload(0x40)\n      dup1\n      swap2\n      sub\n      swap1\n      revert\n    tag_135:\n        /* \"contract/JointAccount.sol\":2789:2801  _beneficiary */\n      dup4\n        /* \"contract/JointAccount.sol\":2775:2786  beneficiary */\n      0x04\n      0x00\n        /* \"contract/JointAccount.sol\":2775:2801  beneficiary = _beneficiary */\n      0x0100\n      exp\n      dup2\n      sload\n      dup2\n      0xffffffffffffffffffffffffffffffffffffffff\n      mul\n      not\n      and\n      swap1\n      dup4\n      0xffffffffffffffffffffffffffffffffffffffff\n      and\n      mul\n      or\n      swap1\n      sstore\n      pop\n        /* \"contract/JointAccount.sol\":2820:2826  _delay */\n      dup3\n        /* \"contract/JointAccount.sol\":2812:2817  delay */\n      0x08\n        /* \"contract/JointAccount.sol\":2812:2826  delay = _delay */\n      dup2\n      swap1\n      sstore\n      pop\n        /* \"contract/JointAccount.sol\":2851:2866  block.timestamp */\n      timestamp\n        /* \"contract/JointAccount.sol\":2837:2848  InitiatedAt */\n      0x07\n        /* \"contract/JointAccount.sol\":2837:2866  InitiatedAt = block.timestamp */\n      dup2\n      swap1\n      sstore\n      pop\n        /* \"contract/JointAccount.sol\":2570:2874  function setBeneficiary(address payable _beneficiary, uint _delay, address _sender) public onlyOwner(_sender) {\r... */\n      pop\n      pop\n      pop\n      pop\n      jump\t// out\n        /* \"contract/JointAccount.sol\":4464:4705  function balanceOf(bool _isCelo, address _ERC20Address) public view returns(uint) {\r... */\n    tag_43:\n        /* \"contract/JointAccount.sol\":4540:4544  uint */\n      0x00\n        /* \"contract/JointAccount.sol\":4557:4564  _isCelo */\n      dup3\n        /* \"contract/JointAccount.sol\":4553:4698  if (_isCelo) {\r... */\n      iszero\n      tag_139\n      jumpi\n        /* \"contract/JointAccount.sol\":4584:4605  address(this).balance */\n      selfbalance\n        /* \"contract/JointAccount.sol\":4577:4605  return address(this).balance */\n      swap1\n      pop\n      jump(tag_138)\n        /* \"contract/JointAccount.sol\":4553:4698  if (_isCelo) {\r... */\n    tag_139:\n        /* \"contract/JointAccount.sol\":4644:4657  _ERC20Address */\n      dup2\n        /* \"contract/JointAccount.sol\":4637:4668  IERC20(_ERC20Address).balanceOf */\n      0xffffffffffffffffffffffffffffffffffffffff\n      and\n      0x70a08231\n        /* \"contract/JointAccount.sol\":4677:4681  this */\n      address\n        /* \"contract/JointAccount.sol\":4637:4683  IERC20(_ERC20Address).balanceOf(address(this)) */\n      mload(0x40)\n      dup3\n      0xffffffff\n      and\n      0xe0\n      shl\n      dup2\n      mstore\n      0x04\n      add\n      tag_141\n      swap2\n      swap1\n      tag_49\n      jump\t// in\n    tag_141:\n      0x20\n      mload(0x40)\n      dup1\n      dup4\n      sub\n      dup2\n      dup7\n      dup1\n      extcodesize\n      iszero\n      dup1\n      iszero\n      tag_142\n      jumpi\n      0x00\n      dup1\n      revert\n    tag_142:\n      pop\n      gas\n      staticcall\n      iszero\n      dup1\n      iszero\n      tag_144\n      jumpi\n      returndatasize\n      0x00\n      dup1\n      returndatacopy\n      revert(0x00, returndatasize)\n    tag_144:\n      pop\n      pop\n      pop\n      pop\n      mload(0x40)\n      returndatasize\n      not(0x1f)\n      0x1f\n      dup3\n      add\n      and\n      dup3\n      add\n      dup1\n      0x40\n      mstore\n      pop\n      dup2\n      add\n      swap1\n      tag_145\n      swap2\n      swap1\n      tag_146\n      jump\t// in\n    tag_145:\n        /* \"contract/JointAccount.sol\":4630:4683  return IERC20(_ERC20Address).balanceOf(address(this)) */\n      swap1\n      pop\n        /* \"contract/JointAccount.sol\":4464:4705  function balanceOf(bool _isCelo, address _ERC20Address) public view returns(uint) {\r... */\n    tag_138:\n      swap3\n      swap2\n      pop\n      pop\n      jump\t// out\n        /* \"contract/JointAccount.sol\":4917:5011  function returnBeneficiary() public view returns(address){\r... */\n    tag_47:\n        /* \"contract/JointAccount.sol\":4966:4973  address */\n      0x00\n        /* \"contract/JointAccount.sol\":4992:5003  beneficiary */\n      0x04\n      0x00\n      swap1\n      sload\n      swap1\n      0x0100\n      exp\n      swap1\n      div\n      0xffffffffffffffffffffffffffffffffffffffff\n      and\n        /* \"contract/JointAccount.sol\":4985:5003  return beneficiary */\n      swap1\n      pop\n        /* \"contract/JointAccount.sol\":4917:5011  function returnBeneficiary() public view returns(address){\r... */\n      swap1\n      jump\t// out\n        /* \"contract/JointAccount.sol\":859:882  uint public InitiatedAt */\n    tag_52:\n      sload(0x07)\n      dup2\n      jump\t// out\n        /* \"contract/JointAccount.sol\":615:649  address payable public beneficiary */\n    tag_56:\n      0x04\n      0x00\n      swap1\n      sload\n      swap1\n      0x0100\n      exp\n      swap1\n      div\n      0xffffffffffffffffffffffffffffffffffffffff\n      and\n      dup2\n      jump\t// out\n        /* \"contract/JointAccount.sol\":5427:5517  function returnInitiateAt() public view returns(uint){\r... */\n    tag_61:\n        /* \"contract/JointAccount.sol\":5475:5479  uint */\n      0x00\n        /* \"contract/JointAccount.sol\":5498:5509  InitiatedAt */\n      sload(0x07)\n        /* \"contract/JointAccount.sol\":5491:5509  return InitiatedAt */\n      swap1\n      pop\n        /* \"contract/JointAccount.sol\":5427:5517  function returnInitiateAt() public view returns(uint){\r... */\n      swap1\n      jump\t// out\n        /* \"contract/JointAccount.sol\":2953:3166  function setWithdrawLimit( uint _amount, address _ERC20Address, address _sender) public onlyOwner(_sender) {\r... */\n    tag_67:\n        /* \"contract/JointAccount.sol\":3051:3058  _sender */\n      dup1\n        /* \"contract/JointAccount.sol\":1395:1400  owner */\n      0x03\n      0x00\n      swap1\n      sload\n      swap1\n      0x0100\n      exp\n      swap1\n      div\n      0xffffffffffffffffffffffffffffffffffffffff\n      and\n        /* \"contract/JointAccount.sol\":1384:1400  _sender == owner */\n      0xffffffffffffffffffffffffffffffffffffffff\n      and\n        /* \"contract/JointAccount.sol\":1384:1391  _sender */\n      dup2\n        /* \"contract/JointAccount.sol\":1384:1400  _sender == owner */\n      0xffffffffffffffffffffffffffffffffffffffff\n      and\n      eq\n        /* \"contract/JointAccount.sol\":1376:1442  require(_sender == owner, \"Only the owner can call this function\") */\n      tag_150\n      jumpi\n      mload(0x40)\n      0x08c379a000000000000000000000000000000000000000000000000000000000\n      dup2\n      mstore\n      0x04\n      add\n      tag_151\n      swap1\n      tag_133\n      jump\t// in\n    tag_151:\n      mload(0x40)\n      dup1\n      swap2\n      sub\n      swap1\n      revert\n    tag_150:\n        /* \"contract/JointAccount.sol\":3086:3087  0 */\n      0x00\n        /* \"contract/JointAccount.sol\":3075:3082  _amount */\n      dup5\n        /* \"contract/JointAccount.sol\":3075:3087  _amount != 0 */\n      eq\n      iszero\n        /* \"contract/JointAccount.sol\":3067:3113  require(_amount != 0, \"Amount cannot be zero\") */\n      tag_153\n      jumpi\n      mload(0x40)\n      0x08c379a000000000000000000000000000000000000000000000000000000000\n      dup2\n      mstore\n      0x04\n      add\n      tag_154\n      swap1\n      tag_155\n      jump\t// in\n    tag_154:\n      mload(0x40)\n      dup1\n      swap2\n      sub\n      swap1\n      revert\n    tag_153:\n        /* \"contract/JointAccount.sol\":3151:3158  _amount */\n      dup4\n        /* \"contract/JointAccount.sol\":3120:3133  withdrawLimit */\n      0x0c\n        /* \"contract/JointAccount.sol\":3120:3148  withdrawLimit[_ERC20Address] */\n      0x00\n        /* \"contract/JointAccount.sol\":3134:3147  _ERC20Address */\n      dup6\n        /* \"contract/JointAccount.sol\":3120:3148  withdrawLimit[_ERC20Address] */\n      0xffffffffffffffffffffffffffffffffffffffff\n      and\n      0xffffffffffffffffffffffffffffffffffffffff\n      and\n      dup2\n      mstore\n      0x20\n      add\n      swap1\n      dup2\n      mstore\n      0x20\n      add\n      0x00\n      keccak256\n        /* \"contract/JointAccount.sol\":3120:3158  withdrawLimit[_ERC20Address] = _amount */\n      dup2\n      swap1\n      sstore\n      pop\n        /* \"contract/JointAccount.sol\":2953:3166  function setWithdrawLimit( uint _amount, address _ERC20Address, address _sender) public onlyOwner(_sender) {\r... */\n      pop\n      pop\n      pop\n      pop\n      jump\t// out\n        /* \"contract/JointAccount.sol\":2392:2481  function unpause(address _sender) public onlyOwner(_sender) {\r... */\n    tag_72:\n        /* \"contract/JointAccount.sol\":2443:2450  _sender */\n      dup1\n        /* \"contract/JointAccount.sol\":1395:1400  owner */\n      0x03\n      0x00\n      swap1\n      sload\n      swap1\n      0x0100\n      exp\n      swap1\n      div\n      0xffffffffffffffffffffffffffffffffffffffff\n      and\n        /* \"contract/JointAccount.sol\":1384:1400  _sender == owner */\n      0xffffffffffffffffffffffffffffffffffffffff\n      and\n        /* \"contract/JointAccount.sol\":1384:1391  _sender */\n      dup2\n        /* \"contract/JointAccount.sol\":1384:1400  _sender == owner */\n      0xffffffffffffffffffffffffffffffffffffffff\n      and\n      eq\n        /* \"contract/JointAccount.sol\":1376:1442  require(_sender == owner, \"Only the owner can call this function\") */\n      tag_157\n      jumpi\n      mload(0x40)\n      0x08c379a000000000000000000000000000000000000000000000000000000000\n      dup2\n      mstore\n      0x04\n      add\n      tag_158\n      swap1\n      tag_133\n      jump\t// in\n    tag_158:\n      mload(0x40)\n      dup1\n      swap2\n      sub\n      swap1\n      revert\n    tag_157:\n        /* \"contract/JointAccount.sol\":2463:2473  _unpause() */\n      tag_160\n        /* \"contract/JointAccount.sol\":2463:2471  _unpause */\n      tag_161\n        /* \"contract/JointAccount.sol\":2463:2473  _unpause() */\n      jump\t// in\n    tag_160:\n        /* \"contract/JointAccount.sol\":2392:2481  function unpause(address _sender) public onlyOwner(_sender) {\r... */\n      pop\n      pop\n      jump\t// out\n        /* \"@openzeppelin/contracts/security/Pausable.sol\":1615:1699  function paused() public view virtual returns (bool) {... */\n    tag_75:\n        /* \"@openzeppelin/contracts/security/Pausable.sol\":1662:1666  bool */\n      0x00\n        /* \"@openzeppelin/contracts/security/Pausable.sol\":1685:1692  _paused */\n      dup1\n      0x00\n      swap1\n      sload\n      swap1\n      0x0100\n      exp\n      swap1\n      div\n      0xff\n      and\n        /* \"@openzeppelin/contracts/security/Pausable.sol\":1678:1692  return _paused */\n      swap1\n      pop\n        /* \"@openzeppelin/contracts/security/Pausable.sol\":1615:1699  function paused() public view virtual returns (bool) {... */\n      swap1\n      jump\t// out\n        /* \"contract/JointAccount.sol\":990:1007  uint public delay */\n    tag_80:\n      sload(0x08)\n      dup2\n      jump\t// out\n        /* \"contract/JointAccount.sol\":2284:2369  function pause(address _sender) public onlyOwner(_sender) {\r... */\n    tag_85:\n        /* \"contract/JointAccount.sol\":2333:2340  _sender */\n      dup1\n        /* \"contract/JointAccount.sol\":1395:1400  owner */\n      0x03\n      0x00\n      swap1\n      sload\n      swap1\n      0x0100\n      exp\n      swap1\n      div\n      0xffffffffffffffffffffffffffffffffffffffff\n      and\n        /* \"contract/JointAccount.sol\":1384:1400  _sender == owner */\n      0xffffffffffffffffffffffffffffffffffffffff\n      and\n        /* \"contract/JointAccount.sol\":1384:1391  _sender */\n      dup2\n        /* \"contract/JointAccount.sol\":1384:1400  _sender == owner */\n      0xffffffffffffffffffffffffffffffffffffffff\n      and\n      eq\n        /* \"contract/JointAccount.sol\":1376:1442  require(_sender == owner, \"Only the owner can call this function\") */\n      tag_164\n      jumpi\n      mload(0x40)\n      0x08c379a000000000000000000000000000000000000000000000000000000000\n      dup2\n      mstore\n      0x04\n      add\n      tag_165\n      swap1\n      tag_133\n      jump\t// in\n    tag_165:\n      mload(0x40)\n      dup1\n      swap2\n      sub\n      swap1\n      revert\n    tag_164:\n        /* \"contract/JointAccount.sol\":2353:2361  _pause() */\n      tag_167\n        /* \"contract/JointAccount.sol\":2353:2359  _pause */\n      tag_168\n        /* \"contract/JointAccount.sol\":2353:2361  _pause() */\n      jump\t// in\n    tag_167:\n        /* \"contract/JointAccount.sol\":2284:2369  function pause(address _sender) public onlyOwner(_sender) {\r... */\n      pop\n      pop\n      jump\t// out\n        /* \"contract/JointAccount.sol\":705:738  address payable public ERC20Token */\n    tag_88:\n      0x05\n      0x00\n      swap1\n      sload\n      swap1\n      0x0100\n      exp\n      swap1\n      div\n      0xffffffffffffffffffffffffffffffffffffffff\n      and\n      dup2\n      jump\t// out\n        /* \"contract/JointAccount.sol\":3213:4408  function transferOrWithdraw(bool _isWithdraw, bool _isCelo, address payable _recipient, uint _amount, address _ERC20Address, address _sender) public whenNotPaused nonReentrant requireBeneficiaryOrOwner(_sender) {\r... */\n    tag_94:\n        /* \"@openzeppelin/contracts/security/Pausable.sol\":1239:1258  _requireNotPaused() */\n      tag_170\n        /* \"@openzeppelin/contracts/security/Pausable.sol\":1239:1256  _requireNotPaused */\n      tag_171\n        /* \"@openzeppelin/contracts/security/Pausable.sol\":1239:1258  _requireNotPaused() */\n      jump\t// in\n    tag_170:\n        /* \"@openzeppelin/contracts/security/ReentrancyGuard.sol\":2261:2282  _nonReentrantBefore() */\n      tag_173\n        /* \"@openzeppelin/contracts/security/ReentrancyGuard.sol\":2261:2280  _nonReentrantBefore */\n      tag_174\n        /* \"@openzeppelin/contracts/security/ReentrancyGuard.sol\":2261:2282  _nonReentrantBefore() */\n      jump\t// in\n    tag_173:\n        /* \"contract/JointAccount.sol\":3415:3422  _sender */\n      dup1\n        /* \"contract/JointAccount.sol\":1591:1602  beneficiary */\n      0x04\n      0x00\n      swap1\n      sload\n      swap1\n      0x0100\n      exp\n      swap1\n      div\n      0xffffffffffffffffffffffffffffffffffffffff\n      and\n        /* \"contract/JointAccount.sol\":1580:1602  _sender == beneficiary */\n      0xffffffffffffffffffffffffffffffffffffffff\n      and\n        /* \"contract/JointAccount.sol\":1580:1587  _sender */\n      dup2\n        /* \"contract/JointAccount.sol\":1580:1602  _sender == beneficiary */\n      0xffffffffffffffffffffffffffffffffffffffff\n      and\n      eq\n        /* \"contract/JointAccount.sol\":1580:1625  _sender == beneficiary || msg.sender == owner */\n      dup1\n      tag_176\n      jumpi\n      pop\n        /* \"contract/JointAccount.sol\":1620:1625  owner */\n      0x03\n      0x00\n      swap1\n      sload\n      swap1\n      0x0100\n      exp\n      swap1\n      div\n      0xffffffffffffffffffffffffffffffffffffffff\n      and\n        /* \"contract/JointAccount.sol\":1606:1625  msg.sender == owner */\n      0xffffffffffffffffffffffffffffffffffffffff\n      and\n        /* \"contract/JointAccount.sol\":1606:1616  msg.sender */\n      caller\n        /* \"contract/JointAccount.sol\":1606:1625  msg.sender == owner */\n      0xffffffffffffffffffffffffffffffffffffffff\n      and\n      eq\n        /* \"contract/JointAccount.sol\":1580:1625  _sender == beneficiary || msg.sender == owner */\n    tag_176:\n        /* \"contract/JointAccount.sol\":1572:1686  require(_sender == beneficiary || msg.sender == owner, \"Only the owner or the beneficiary can call this function\") */\n      tag_177\n      jumpi\n      mload(0x40)\n      0x08c379a000000000000000000000000000000000000000000000000000000000\n      dup2\n      mstore\n      0x04\n      add\n      tag_178\n      swap1\n      tag_179\n      jump\t// in\n    tag_178:\n      mload(0x40)\n      dup1\n      swap2\n      sub\n      swap1\n      revert\n    tag_177:\n        /* \"contract/JointAccount.sol\":3453:3464  beneficiary */\n      0x04\n      0x00\n      swap1\n      sload\n      swap1\n      0x0100\n      exp\n      swap1\n      div\n      0xffffffffffffffffffffffffffffffffffffffff\n      and\n        /* \"contract/JointAccount.sol\":3439:3464  msg.sender == beneficiary */\n      0xffffffffffffffffffffffffffffffffffffffff\n      and\n        /* \"contract/JointAccount.sol\":3439:3449  msg.sender */\n      caller\n        /* \"contract/JointAccount.sol\":3439:3464  msg.sender == beneficiary */\n      0xffffffffffffffffffffffffffffffffffffffff\n      and\n      eq\n        /* \"contract/JointAccount.sol\":3435:3657  if (msg.sender == beneficiary) {\r... */\n      iszero\n      tag_181\n      jumpi\n        /* \"contract/JointAccount.sol\":3500:3513  withdrawLimit */\n      0x0c\n        /* \"contract/JointAccount.sol\":3500:3528  withdrawLimit[_ERC20Address] */\n      0x00\n        /* \"contract/JointAccount.sol\":3514:3527  _ERC20Address */\n      dup5\n        /* \"contract/JointAccount.sol\":3500:3528  withdrawLimit[_ERC20Address] */\n      0xffffffffffffffffffffffffffffffffffffffff\n      and\n      0xffffffffffffffffffffffffffffffffffffffff\n      and\n      dup2\n      mstore\n      0x20\n      add\n      swap1\n      dup2\n      mstore\n      0x20\n      add\n      0x00\n      keccak256\n      sload\n        /* \"contract/JointAccount.sol\":3489:3496  _amount */\n      dup5\n        /* \"contract/JointAccount.sol\":3489:3528  _amount <= withdrawLimit[_ERC20Address] */\n      gt\n      iszero\n        /* \"contract/JointAccount.sol\":3489:3571  _amount <= withdrawLimit[_ERC20Address] || (InitiatedAt + delay) < block.timestamp */\n      dup1\n      tag_182\n      jumpi\n      pop\n        /* \"contract/JointAccount.sol\":3556:3571  block.timestamp */\n      timestamp\n        /* \"contract/JointAccount.sol\":3547:3552  delay */\n      sload(0x08)\n        /* \"contract/JointAccount.sol\":3533:3544  InitiatedAt */\n      sload(0x07)\n        /* \"contract/JointAccount.sol\":3533:3552  InitiatedAt + delay */\n      tag_183\n      swap2\n      swap1\n      tag_184\n      jump\t// in\n    tag_183:\n        /* \"contract/JointAccount.sol\":3532:3571  (InitiatedAt + delay) < block.timestamp */\n      lt\n        /* \"contract/JointAccount.sol\":3489:3571  _amount <= withdrawLimit[_ERC20Address] || (InitiatedAt + delay) < block.timestamp */\n    tag_182:\n        /* \"contract/JointAccount.sol\":3481:3645  require(_amount <= withdrawLimit[_ERC20Address] || (InitiatedAt + delay) < block.timestamp , \"The withdrawal amount exceeds the limit or delay has not passed yet.\") */\n      tag_185\n      jumpi\n      mload(0x40)\n      0x08c379a000000000000000000000000000000000000000000000000000000000\n      dup2\n      mstore\n      0x04\n      add\n      tag_186\n      swap1\n      tag_187\n      jump\t// in\n    tag_186:\n      mload(0x40)\n      dup1\n      swap2\n      sub\n      swap1\n      revert\n    tag_185:\n        /* \"contract/JointAccount.sol\":3435:3657  if (msg.sender == beneficiary) {\r... */\n    tag_181:\n        /* \"contract/JointAccount.sol\":3667:3692  address payable recipient */\n      0x00\n        /* \"contract/JointAccount.sol\":3695:3706  _isWithdraw */\n      dup8\n        /* \"contract/JointAccount.sol\":3695:3726  _isWithdraw ? owner: _recipient */\n      tag_188\n      jumpi\n        /* \"contract/JointAccount.sol\":3716:3726  _recipient */\n      dup6\n        /* \"contract/JointAccount.sol\":3695:3726  _isWithdraw ? owner: _recipient */\n      jump(tag_189)\n    tag_188:\n        /* \"contract/JointAccount.sol\":3709:3714  owner */\n      0x03\n      0x00\n      swap1\n      sload\n      swap1\n      0x0100\n      exp\n      swap1\n      div\n      0xffffffffffffffffffffffffffffffffffffffff\n      and\n        /* \"contract/JointAccount.sol\":3695:3726  _isWithdraw ? owner: _recipient */\n    tag_189:\n        /* \"contract/JointAccount.sol\":3667:3726  address payable recipient = _isWithdraw ? owner: _recipient */\n      swap1\n      pop\n        /* \"contract/JointAccount.sol\":3740:3747  _isCelo */\n      dup7\n        /* \"contract/JointAccount.sol\":3736:4401  if (_isCelo) {\r... */\n      iszero\n      tag_190\n      jumpi\n        /* \"contract/JointAccount.sol\":3783:3804  address(this).balance */\n      selfbalance\n        /* \"contract/JointAccount.sol\":3772:3779  _amount */\n      dup6\n        /* \"contract/JointAccount.sol\":3772:3804  _amount <= address(this).balance */\n      gt\n      iszero\n        /* \"contract/JointAccount.sol\":3764:3828  require(_amount <= address(this).balance, \"Insufficient funds.\") */\n      tag_191\n      jumpi\n      mload(0x40)\n      0x08c379a000000000000000000000000000000000000000000000000000000000\n      dup2\n      mstore\n      0x04\n      add\n      tag_192\n      swap1\n      tag_193\n      jump\t// in\n    tag_192:\n      mload(0x40)\n      dup1\n      swap2\n      sub\n      swap1\n      revert\n    tag_191:\n        /* \"contract/JointAccount.sol\":3849:3882  _amount.mul(transferFee).div(100) */\n      tag_194\n        /* \"contract/JointAccount.sol\":3878:3881  100 */\n      0x64\n        /* \"contract/JointAccount.sol\":3849:3873  _amount.mul(transferFee) */\n      tag_195\n        /* \"contract/JointAccount.sol\":3861:3872  transferFee */\n      sload(0x0a)\n        /* \"contract/JointAccount.sol\":3849:3856  _amount */\n      dup9\n        /* \"contract/JointAccount.sol\":3849:3860  _amount.mul */\n      tag_196\n      swap1\n        /* \"contract/JointAccount.sol\":3849:3873  _amount.mul(transferFee) */\n      swap2\n      swap1\n      0xffffffff\n      and\n      jump\t// in\n    tag_195:\n        /* \"contract/JointAccount.sol\":3849:3877  _amount.mul(transferFee).div */\n      tag_197\n      swap1\n        /* \"contract/JointAccount.sol\":3849:3882  _amount.mul(transferFee).div(100) */\n      swap2\n      swap1\n      0xffffffff\n      and\n      jump\t// in\n    tag_194:\n        /* \"contract/JointAccount.sol\":3843:3846  fee */\n      0x09\n        /* \"contract/JointAccount.sol\":3843:3882  fee = _amount.mul(transferFee).div(100) */\n      dup2\n      swap1\n      sstore\n      pop\n        /* \"contract/JointAccount.sol\":3897:3906  recipient */\n      dup1\n        /* \"contract/JointAccount.sol\":3897:3915  recipient.transfer */\n      0xffffffffffffffffffffffffffffffffffffffff\n      and\n        /* \"contract/JointAccount.sol\":3897:3933  recipient.transfer(_amount.sub(fee)) */\n      0x08fc\n        /* \"contract/JointAccount.sol\":3916:3932  _amount.sub(fee) */\n      tag_198\n        /* \"contract/JointAccount.sol\":3928:3931  fee */\n      sload(0x09)\n        /* \"contract/JointAccount.sol\":3916:3923  _amount */\n      dup9\n        /* \"contract/JointAccount.sol\":3916:3927  _amount.sub */\n      tag_199\n      swap1\n        /* \"contract/JointAccount.sol\":3916:3932  _amount.sub(fee) */\n      swap2\n      swap1\n      0xffffffff\n      and\n      jump\t// in\n    tag_198:\n        /* \"contract/JointAccount.sol\":3897:3933  recipient.transfer(_amount.sub(fee)) */\n      swap1\n      dup2\n      iszero\n      mul\n      swap1\n      mload(0x40)\n      0x00\n      mload(0x40)\n      dup1\n      dup4\n      sub\n      dup2\n      dup6\n      dup9\n      dup9\n      call\n      swap4\n      pop\n      pop\n      pop\n      pop\n      iszero\n      dup1\n      iszero\n      tag_201\n      jumpi\n      returndatasize\n      0x00\n      dup1\n      returndatacopy\n      revert(0x00, returndatasize)\n    tag_201:\n      pop\n        /* \"contract/JointAccount.sol\":3948:3958  feeAddress */\n      0x06\n      0x00\n      swap1\n      sload\n      swap1\n      0x0100\n      exp\n      swap1\n      div\n      0xffffffffffffffffffffffffffffffffffffffff\n      and\n        /* \"contract/JointAccount.sol\":3948:3967  feeAddress.transfer */\n      0xffffffffffffffffffffffffffffffffffffffff\n      and\n        /* \"contract/JointAccount.sol\":3948:3972  feeAddress.transfer(fee) */\n      0x08fc\n        /* \"contract/JointAccount.sol\":3968:3971  fee */\n      sload(0x09)\n        /* \"contract/JointAccount.sol\":3948:3972  feeAddress.transfer(fee) */\n      swap1\n      dup2\n      iszero\n      mul\n      swap1\n      mload(0x40)\n      0x00\n      mload(0x40)\n      dup1\n      dup4\n      sub\n      dup2\n      dup6\n      dup9\n      dup9\n      call\n      swap4\n      pop\n      pop\n      pop\n      pop\n      iszero\n      dup1\n      iszero\n      tag_203\n      jumpi\n      returndatasize\n      0x00\n      dup1\n      returndatacopy\n      revert(0x00, returndatasize)\n    tag_203:\n      pop\n        /* \"contract/JointAccount.sol\":4019:4026  _amount */\n      dup5\n        /* \"contract/JointAccount.sol\":3987:4000  withdrawLimit */\n      0x0c\n        /* \"contract/JointAccount.sol\":3987:4015  withdrawLimit[_ERC20Address] */\n      0x00\n        /* \"contract/JointAccount.sol\":4001:4014  _ERC20Address */\n      dup7\n        /* \"contract/JointAccount.sol\":3987:4015  withdrawLimit[_ERC20Address] */\n      0xffffffffffffffffffffffffffffffffffffffff\n      and\n      0xffffffffffffffffffffffffffffffffffffffff\n      and\n      dup2\n      mstore\n      0x20\n      add\n      swap1\n      dup2\n      mstore\n      0x20\n      add\n      0x00\n      keccak256\n      0x00\n        /* \"contract/JointAccount.sol\":3987:4026  withdrawLimit[_ERC20Address] -= _amount */\n      dup3\n      dup3\n      sload\n      tag_204\n      swap2\n      swap1\n      tag_205\n      jump\t// in\n    tag_204:\n      swap3\n      pop\n      pop\n      dup2\n      swap1\n      sstore\n      pop\n        /* \"contract/JointAccount.sol\":3736:4401  if (_isCelo) {\r... */\n      jump(tag_206)\n    tag_190:\n        /* \"contract/JointAccount.sol\":4075:4088  _ERC20Address */\n      dup4\n        /* \"contract/JointAccount.sol\":4060:4065  ERC20 */\n      0x02\n      0x00\n        /* \"contract/JointAccount.sol\":4060:4089  ERC20 = IERC20(_ERC20Address) */\n      0x0100\n      exp\n      dup2\n      sload\n      dup2\n      0xffffffffffffffffffffffffffffffffffffffff\n      mul\n      not\n      and\n      swap1\n      dup4\n      0xffffffffffffffffffffffffffffffffffffffff\n      and\n      mul\n      or\n      swap1\n      sstore\n      pop\n        /* \"contract/JointAccount.sol\":4123:4128  ERC20 */\n      0x02\n      0x00\n      swap1\n      sload\n      swap1\n      0x0100\n      exp\n      swap1\n      div\n      0xffffffffffffffffffffffffffffffffffffffff\n      and\n        /* \"contract/JointAccount.sol\":4123:4138  ERC20.balanceOf */\n      0xffffffffffffffffffffffffffffffffffffffff\n      and\n      0x70a08231\n        /* \"contract/JointAccount.sol\":4147:4151  this */\n      address\n        /* \"contract/JointAccount.sol\":4123:4153  ERC20.balanceOf(address(this)) */\n      mload(0x40)\n      dup3\n      0xffffffff\n      and\n      0xe0\n      shl\n      dup2\n      mstore\n      0x04\n      add\n      tag_207\n      swap2\n      swap1\n      tag_49\n      jump\t// in\n    tag_207:\n      0x20\n      mload(0x40)\n      dup1\n      dup4\n      sub\n      dup2\n      dup7\n      dup1\n      extcodesize\n      iszero\n      dup1\n      iszero\n      tag_208\n      jumpi\n      0x00\n      dup1\n      revert\n    tag_208:\n      pop\n      gas\n      staticcall\n      iszero\n      dup1\n      iszero\n      tag_210\n      jumpi\n      returndatasize\n      0x00\n      dup1\n      returndatacopy\n      revert(0x00, returndatasize)\n    tag_210:\n      pop\n      pop\n      pop\n      pop\n      mload(0x40)\n      returndatasize\n      not(0x1f)\n      0x1f\n      dup3\n      add\n      and\n      dup3\n      add\n      dup1\n      0x40\n      mstore\n      pop\n      dup2\n      add\n      swap1\n      tag_211\n      swap2\n      swap1\n      tag_146\n      jump\t// in\n    tag_211:\n        /* \"contract/JointAccount.sol\":4112:4119  _amount */\n      dup6\n        /* \"contract/JointAccount.sol\":4112:4153  _amount <= ERC20.balanceOf(address(this)) */\n      gt\n      iszero\n        /* \"contract/JointAccount.sol\":4104:4177  require(_amount <= ERC20.balanceOf(address(this)), \"Insufficient funds.\") */\n      tag_212\n      jumpi\n      mload(0x40)\n      0x08c379a000000000000000000000000000000000000000000000000000000000\n      dup2\n      mstore\n      0x04\n      add\n      tag_213\n      swap1\n      tag_193\n      jump\t// in\n    tag_213:\n      mload(0x40)\n      dup1\n      swap2\n      sub\n      swap1\n      revert\n    tag_212:\n        /* \"contract/JointAccount.sol\":4198:4231  _amount.mul(transferFee).div(100) */\n      tag_214\n        /* \"contract/JointAccount.sol\":4227:4230  100 */\n      0x64\n        /* \"contract/JointAccount.sol\":4198:4222  _amount.mul(transferFee) */\n      tag_215\n        /* \"contract/JointAccount.sol\":4210:4221  transferFee */\n      sload(0x0a)\n        /* \"contract/JointAccount.sol\":4198:4205  _amount */\n      dup9\n        /* \"contract/JointAccount.sol\":4198:4209  _amount.mul */\n      tag_196\n      swap1\n        /* \"contract/JointAccount.sol\":4198:4222  _amount.mul(transferFee) */\n      swap2\n      swap1\n      0xffffffff\n      and\n      jump\t// in\n    tag_215:\n        /* \"contract/JointAccount.sol\":4198:4226  _amount.mul(transferFee).div */\n      tag_197\n      swap1\n        /* \"contract/JointAccount.sol\":4198:4231  _amount.mul(transferFee).div(100) */\n      swap2\n      swap1\n      0xffffffff\n      and\n      jump\t// in\n    tag_214:\n        /* \"contract/JointAccount.sol\":4192:4195  fee */\n      0x09\n        /* \"contract/JointAccount.sol\":4192:4231  fee = _amount.mul(transferFee).div(100) */\n      dup2\n      swap1\n      sstore\n      pop\n        /* \"contract/JointAccount.sol\":4246:4251  ERC20 */\n      0x02\n      0x00\n      swap1\n      sload\n      swap1\n      0x0100\n      exp\n      swap1\n      div\n      0xffffffffffffffffffffffffffffffffffffffff\n      and\n        /* \"contract/JointAccount.sol\":4246:4260  ERC20.transfer */\n      0xffffffffffffffffffffffffffffffffffffffff\n      and\n      0xa9059cbb\n        /* \"contract/JointAccount.sol\":4261:4270  recipient */\n      dup3\n        /* \"contract/JointAccount.sol\":4272:4288  _amount.sub(fee) */\n      tag_216\n        /* \"contract/JointAccount.sol\":4284:4287  fee */\n      sload(0x09)\n        /* \"contract/JointAccount.sol\":4272:4279  _amount */\n      dup10\n        /* \"contract/JointAccount.sol\":4272:4283  _amount.sub */\n      tag_199\n      swap1\n        /* \"contract/JointAccount.sol\":4272:4288  _amount.sub(fee) */\n      swap2\n      swap1\n      0xffffffff\n      and\n      jump\t// in\n    tag_216:\n        /* \"contract/JointAccount.sol\":4246:4289  ERC20.transfer(recipient, _amount.sub(fee)) */\n      mload(0x40)\n      dup4\n      0xffffffff\n      and\n      0xe0\n      shl\n      dup2\n      mstore\n      0x04\n      add\n      tag_217\n      swap3\n      swap2\n      swap1\n      tag_218\n      jump\t// in\n    tag_217:\n      0x20\n      mload(0x40)\n      dup1\n      dup4\n      sub\n      dup2\n      0x00\n      dup8\n      dup1\n      extcodesize\n      iszero\n      dup1\n      iszero\n      tag_219\n      jumpi\n      0x00\n      dup1\n      revert\n    tag_219:\n      pop\n      gas\n      call\n      iszero\n      dup1\n      iszero\n      tag_221\n      jumpi\n      returndatasize\n      0x00\n      dup1\n      returndatacopy\n      revert(0x00, returndatasize)\n    tag_221:\n      pop\n      pop\n      pop\n      pop\n      mload(0x40)\n      returndatasize\n      not(0x1f)\n      0x1f\n      dup3\n      add\n      and\n      dup3\n      add\n      dup1\n      0x40\n      mstore\n      pop\n      dup2\n      add\n      swap1\n      tag_222\n      swap2\n      swap1\n      tag_223\n      jump\t// in\n    tag_222:\n      pop\n        /* \"contract/JointAccount.sol\":4304:4309  ERC20 */\n      0x02\n      0x00\n      swap1\n      sload\n      swap1\n      0x0100\n      exp\n      swap1\n      div\n      0xffffffffffffffffffffffffffffffffffffffff\n      and\n        /* \"contract/JointAccount.sol\":4304:4318  ERC20.transfer */\n      0xffffffffffffffffffffffffffffffffffffffff\n      and\n      0xa9059cbb\n        /* \"contract/JointAccount.sol\":4319:4329  feeAddress */\n      0x06\n      0x00\n      swap1\n      sload\n      swap1\n      0x0100\n      exp\n      swap1\n      div\n      0xffffffffffffffffffffffffffffffffffffffff\n      and\n        /* \"contract/JointAccount.sol\":4331:4334  fee */\n      sload(0x09)\n        /* \"contract/JointAccount.sol\":4304:4335  ERC20.transfer(feeAddress, fee) */\n      mload(0x40)\n      dup4\n      0xffffffff\n      and\n      0xe0\n      shl\n      dup2\n      mstore\n      0x04\n      add\n      tag_224\n      swap3\n      swap2\n      swap1\n      tag_218\n      jump\t// in\n    tag_224:\n      0x20\n      mload(0x40)\n      dup1\n      dup4\n      sub\n      dup2\n      0x00\n      dup8\n      dup1\n      extcodesize\n      iszero\n      dup1\n      iszero\n      tag_225\n      jumpi\n      0x00\n      dup1\n      revert\n    tag_225:\n      pop\n      gas\n      call\n      iszero\n      dup1\n      iszero\n      tag_227\n      jumpi\n      returndatasize\n      0x00\n      dup1\n      returndatacopy\n      revert(0x00, returndatasize)\n    tag_227:\n      pop\n      pop\n      pop\n      pop\n      mload(0x40)\n      returndatasize\n      not(0x1f)\n      0x1f\n      dup3\n      add\n      and\n      dup3\n      add\n      dup1\n      0x40\n      mstore\n      pop\n      dup2\n      add\n      swap1\n      tag_228\n      swap2\n      swap1\n      tag_223\n      jump\t// in\n    tag_228:\n      pop\n        /* \"contract/JointAccount.sol\":4382:4389  _amount */\n      dup5\n        /* \"contract/JointAccount.sol\":4350:4363  withdrawLimit */\n      0x0c\n        /* \"contract/JointAccount.sol\":4350:4378  withdrawLimit[_ERC20Address] */\n      0x00\n        /* \"contract/JointAccount.sol\":4364:4377  _ERC20Address */\n      dup7\n        /* \"contract/JointAccount.sol\":4350:4378  withdrawLimit[_ERC20Address] */\n      0xffffffffffffffffffffffffffffffffffffffff\n      and\n      0xffffffffffffffffffffffffffffffffffffffff\n      and\n      dup2\n      mstore\n      0x20\n      add\n      swap1\n      dup2\n      mstore\n      0x20\n      add\n      0x00\n      keccak256\n      0x00\n        /* \"contract/JointAccount.sol\":4350:4389  withdrawLimit[_ERC20Address] -= _amount */\n      dup3\n      dup3\n      sload\n      tag_229\n      swap2\n      swap1\n      tag_205\n      jump\t// in\n    tag_229:\n      swap3\n      pop\n      pop\n      dup2\n      swap1\n      sstore\n      pop\n        /* \"contract/JointAccount.sol\":3736:4401  if (_isCelo) {\r... */\n    tag_206:\n        /* \"contract/JointAccount.sol\":3424:4408  {\r... */\n      pop\n        /* \"@openzeppelin/contracts/security/ReentrancyGuard.sol\":2292:2293  _ */\n      pop\n        /* \"@openzeppelin/contracts/security/ReentrancyGuard.sol\":2303:2323  _nonReentrantAfter() */\n      tag_230\n        /* \"@openzeppelin/contracts/security/ReentrancyGuard.sol\":2303:2321  _nonReentrantAfter */\n      tag_231\n        /* \"@openzeppelin/contracts/security/ReentrancyGuard.sol\":2303:2323  _nonReentrantAfter() */\n      jump\t// in\n    tag_230:\n        /* \"contract/JointAccount.sol\":3213:4408  function transferOrWithdraw(bool _isWithdraw, bool _isCelo, address payable _recipient, uint _amount, address _ERC20Address, address _sender) public whenNotPaused nonReentrant requireBeneficiaryOrOwner(_sender) {\r... */\n      pop\n      pop\n      pop\n      pop\n      pop\n      pop\n      jump\t// out\n        /* \"contract/JointAccount.sol\":541:569  address payable public owner */\n    tag_97:\n      0x03\n      0x00\n      swap1\n      sload\n      swap1\n      0x0100\n      exp\n      swap1\n      div\n      0xffffffffffffffffffffffffffffffffffffffff\n      and\n      dup2\n      jump\t// out\n        /* \"contract/JointAccount.sol\":4765:4847  function returnOwner() public view returns(address){\r... */\n    tag_101:\n        /* \"contract/JointAccount.sol\":4808:4815  address */\n      0x00\n        /* \"contract/JointAccount.sol\":4834:4839  owner */\n      0x03\n      0x00\n      swap1\n      sload\n      swap1\n      0x0100\n      exp\n      swap1\n      div\n      0xffffffffffffffffffffffffffffffffffffffff\n      and\n        /* \"contract/JointAccount.sol\":4827:4839  return owner */\n      swap1\n      pop\n        /* \"contract/JointAccount.sol\":4765:4847  function returnOwner() public view returns(address){\r... */\n      swap1\n      jump\t// out\n        /* \"contract/JointAccount.sol\":1143:1167  uint public tokenBalance */\n    tag_105:\n      sload(0x0b)\n      dup2\n      jump\t// out\n        /* \"contract/JointAccount.sol\":5273:5352  function returnDelay() public view returns(uint){\r... */\n    tag_109:\n        /* \"contract/JointAccount.sol\":5316:5320  uint */\n      0x00\n        /* \"contract/JointAccount.sol\":5339:5344  delay */\n      sload(0x08)\n        /* \"contract/JointAccount.sol\":5332:5344  return delay */\n      swap1\n      pop\n        /* \"contract/JointAccount.sol\":5273:5352  function returnDelay() public view returns(uint){\r... */\n      swap1\n      jump\t// out\n        /* \"contract/JointAccount.sol\":380:399  IERC20 public ERC20 */\n    tag_113:\n      0x02\n      0x00\n      swap1\n      sload\n      swap1\n      0x0100\n      exp\n      swap1\n      div\n      0xffffffffffffffffffffffffffffffffffffffff\n      and\n      dup2\n      jump\t// out\n        /* \"contract/JointAccount.sol\":5080:5210  function getWithdrawLimit(address _ERC20Address) public view returns (uint) {\r... */\n    tag_119:\n        /* \"contract/JointAccount.sol\":5150:5154  uint */\n      0x00\n        /* \"contract/JointAccount.sol\":5174:5187  withdrawLimit */\n      0x0c\n        /* \"contract/JointAccount.sol\":5174:5202  withdrawLimit[_ERC20Address] */\n      0x00\n        /* \"contract/JointAccount.sol\":5188:5201  _ERC20Address */\n      dup4\n        /* \"contract/JointAccount.sol\":5174:5202  withdrawLimit[_ERC20Address] */\n      0xffffffffffffffffffffffffffffffffffffffff\n      and\n      0xffffffffffffffffffffffffffffffffffffffff\n      and\n      dup2\n      mstore\n      0x20\n      add\n      swap1\n      dup2\n      mstore\n      0x20\n      add\n      0x00\n      keccak256\n      sload\n        /* \"contract/JointAccount.sol\":5167:5202  return withdrawLimit[_ERC20Address] */\n      swap1\n      pop\n        /* \"contract/JointAccount.sol\":5080:5210  function getWithdrawLimit(address _ERC20Address) public view returns (uint) {\r... */\n      swap2\n      swap1\n      pop\n      jump\t// out\n        /* \"contract/JointAccount.sol\":5587:5678  function returnTransferFee() public view returns(uint){\r... */\n    tag_123:\n        /* \"contract/JointAccount.sol\":5636:5640  uint */\n      0x00\n        /* \"contract/JointAccount.sol\":5659:5670  transferFee */\n      sload(0x0a)\n        /* \"contract/JointAccount.sol\":5652:5670  return transferFee */\n      swap1\n      pop\n        /* \"contract/JointAccount.sol\":5587:5678  function returnTransferFee() public view returns(uint){\r... */\n      swap1\n      jump\t// out\n        /* \"contract/JointAccount.sol\":1246:1292  mapping (address => uint) public withdrawLimit */\n    tag_128:\n      mstore(0x20, 0x0c)\n      dup1\n      0x00\n      mstore\n      keccak256(0x00, 0x40)\n      0x00\n      swap2\n      pop\n      swap1\n      pop\n      sload\n      dup2\n      jump\t// out\n        /* \"@openzeppelin/contracts/security/Pausable.sol\":2433:2550  function _unpause() internal virtual whenPaused {... */\n    tag_161:\n        /* \"@openzeppelin/contracts/security/Pausable.sol\":1486:1502  _requirePaused() */\n      tag_237\n        /* \"@openzeppelin/contracts/security/Pausable.sol\":1486:1500  _requirePaused */\n      tag_238\n        /* \"@openzeppelin/contracts/security/Pausable.sol\":1486:1502  _requirePaused() */\n      jump\t// in\n    tag_237:\n        /* \"@openzeppelin/contracts/security/Pausable.sol\":2501:2506  false */\n      0x00\n        /* \"@openzeppelin/contracts/security/Pausable.sol\":2491:2498  _paused */\n      dup1\n      0x00\n        /* \"@openzeppelin/contracts/security/Pausable.sol\":2491:2506  _paused = false */\n      0x0100\n      exp\n      dup2\n      sload\n      dup2\n      0xff\n      mul\n      not\n      and\n      swap1\n      dup4\n      iszero\n      iszero\n      mul\n      or\n      swap1\n      sstore\n      pop\n        /* \"@openzeppelin/contracts/security/Pausable.sol\":2521:2543  Unpaused(_msgSender()) */\n      0x5db9ee0a495bf2e6ff9c91a7834c1ba4fdd244a5e8aa4e537bd38aeae4b073aa\n        /* \"@openzeppelin/contracts/security/Pausable.sol\":2530:2542  _msgSender() */\n      tag_240\n        /* \"@openzeppelin/contracts/security/Pausable.sol\":2530:2540  _msgSender */\n      tag_241\n        /* \"@openzeppelin/contracts/security/Pausable.sol\":2530:2542  _msgSender() */\n      jump\t// in\n    tag_240:\n        /* \"@openzeppelin/contracts/security/Pausable.sol\":2521:2543  Unpaused(_msgSender()) */\n      mload(0x40)\n      tag_242\n      swap2\n      swap1\n      tag_49\n      jump\t// in\n    tag_242:\n      mload(0x40)\n      dup1\n      swap2\n      sub\n      swap1\n      log1\n        /* \"@openzeppelin/contracts/security/Pausable.sol\":2433:2550  function _unpause() internal virtual whenPaused {... */\n      jump\t// out\n        /* \"@openzeppelin/contracts/security/Pausable.sol\":2186:2301  function _pause() internal virtual whenNotPaused {... */\n    tag_168:\n        /* \"@openzeppelin/contracts/security/Pausable.sol\":1239:1258  _requireNotPaused() */\n      tag_244\n        /* \"@openzeppelin/contracts/security/Pausable.sol\":1239:1256  _requireNotPaused */\n      tag_171\n        /* \"@openzeppelin/contracts/security/Pausable.sol\":1239:1258  _requireNotPaused() */\n      jump\t// in\n    tag_244:\n        /* \"@openzeppelin/contracts/security/Pausable.sol\":2255:2259  true */\n      0x01\n        /* \"@openzeppelin/contracts/security/Pausable.sol\":2245:2252  _paused */\n      0x00\n      dup1\n        /* \"@openzeppelin/contracts/security/Pausable.sol\":2245:2259  _paused = true */\n      0x0100\n      exp\n      dup2\n      sload\n      dup2\n      0xff\n      mul\n      not\n      and\n      swap1\n      dup4\n      iszero\n      iszero\n      mul\n      or\n      swap1\n      sstore\n      pop\n        /* \"@openzeppelin/contracts/security/Pausable.sol\":2274:2294  Paused(_msgSender()) */\n      0x62e78cea01bee320cd4e420270b5ea74000d11b0c9f74754ebdbfc544b05a258\n        /* \"@openzeppelin/contracts/security/Pausable.sol\":2281:2293  _msgSender() */\n      tag_246\n        /* \"@openzeppelin/contracts/security/Pausable.sol\":2281:2291  _msgSender */\n      tag_241\n        /* \"@openzeppelin/contracts/security/Pausable.sol\":2281:2293  _msgSender() */\n      jump\t// in\n    tag_246:\n        /* \"@openzeppelin/contracts/security/Pausable.sol\":2274:2294  Paused(_msgSender()) */\n      mload(0x40)\n      tag_247\n      swap2\n      swap1\n      tag_49\n      jump\t// in\n    tag_247:\n      mload(0x40)\n      dup1\n      swap2\n      sub\n      swap1\n      log1\n        /* \"@openzeppelin/contracts/security/Pausable.sol\":2186:2301  function _pause() internal virtual whenNotPaused {... */\n      jump\t// out\n        /* \"@openzeppelin/contracts/security/Pausable.sol\":1767:1873  function _requireNotPaused() internal view virtual {... */\n    tag_171:\n        /* \"@openzeppelin/contracts/security/Pausable.sol\":1837:1845  paused() */\n      tag_249\n        /* \"@openzeppelin/contracts/security/Pausable.sol\":1837:1843  paused */\n      tag_75\n        /* \"@openzeppelin/contracts/security/Pausable.sol\":1837:1845  paused() */\n      jump\t// in\n    tag_249:\n        /* \"@openzeppelin/contracts/security/Pausable.sol\":1836:1845  !paused() */\n      iszero\n        /* \"@openzeppelin/contracts/security/Pausable.sol\":1828:1866  require(!paused(), \"Pausable: paused\") */\n      tag_250\n      jumpi\n      mload(0x40)\n      0x08c379a000000000000000000000000000000000000000000000000000000000\n      dup2\n      mstore\n      0x04\n      add\n      tag_251\n      swap1\n      tag_252\n      jump\t// in\n    tag_251:\n      mload(0x40)\n      dup1\n      swap2\n      sub\n      swap1\n      revert\n    tag_250:\n        /* \"@openzeppelin/contracts/security/Pausable.sol\":1767:1873  function _requireNotPaused() internal view virtual {... */\n      jump\t// out\n        /* \"@openzeppelin/contracts/security/ReentrancyGuard.sol\":2336:2623  function _nonReentrantBefore() private {... */\n    tag_174:\n        /* \"@openzeppelin/contracts/security/ReentrancyGuard.sol\":1759:1760  2 */\n      0x02\n        /* \"@openzeppelin/contracts/security/ReentrancyGuard.sol\":2468:2475  _status */\n      sload(0x01)\n        /* \"@openzeppelin/contracts/security/ReentrancyGuard.sol\":2468:2487  _status != _ENTERED */\n      eq\n      iszero\n        /* \"@openzeppelin/contracts/security/ReentrancyGuard.sol\":2460:2523  require(_status != _ENTERED, \"ReentrancyGuard: reentrant call\") */\n      tag_254\n      jumpi\n      mload(0x40)\n      0x08c379a000000000000000000000000000000000000000000000000000000000\n      dup2\n      mstore\n      0x04\n      add\n      tag_255\n      swap1\n      tag_256\n      jump\t// in\n    tag_255:\n      mload(0x40)\n      dup1\n      swap2\n      sub\n      swap1\n      revert\n    tag_254:\n        /* \"@openzeppelin/contracts/security/ReentrancyGuard.sol\":1759:1760  2 */\n      0x02\n        /* \"@openzeppelin/contracts/security/ReentrancyGuard.sol\":2598:2605  _status */\n      0x01\n        /* \"@openzeppelin/contracts/security/ReentrancyGuard.sol\":2598:2616  _status = _ENTERED */\n      dup2\n      swap1\n      sstore\n      pop\n        /* \"@openzeppelin/contracts/security/ReentrancyGuard.sol\":2336:2623  function _nonReentrantBefore() private {... */\n      jump\t// out\n        /* \"@openzeppelin/contracts/utils/math/SafeMath.sol\":3465:3561  function mul(uint256 a, uint256 b) internal pure returns (uint256) {... */\n    tag_196:\n        /* \"@openzeppelin/contracts/utils/math/SafeMath.sol\":3523:3530  uint256 */\n      0x00\n        /* \"@openzeppelin/contracts/utils/math/SafeMath.sol\":3553:3554  b */\n      dup2\n        /* \"@openzeppelin/contracts/utils/math/SafeMath.sol\":3549:3550  a */\n      dup4\n        /* \"@openzeppelin/contracts/utils/math/SafeMath.sol\":3549:3554  a * b */\n      tag_258\n      swap2\n      swap1\n      tag_259\n      jump\t// in\n    tag_258:\n        /* \"@openzeppelin/contracts/utils/math/SafeMath.sol\":3542:3554  return a * b */\n      swap1\n      pop\n        /* \"@openzeppelin/contracts/utils/math/SafeMath.sol\":3465:3561  function mul(uint256 a, uint256 b) internal pure returns (uint256) {... */\n      swap3\n      swap2\n      pop\n      pop\n      jump\t// out\n        /* \"@openzeppelin/contracts/utils/math/SafeMath.sol\":3850:3946  function div(uint256 a, uint256 b) internal pure returns (uint256) {... */\n    tag_197:\n        /* \"@openzeppelin/contracts/utils/math/SafeMath.sol\":3908:3915  uint256 */\n      0x00\n        /* \"@openzeppelin/contracts/utils/math/SafeMath.sol\":3938:3939  b */\n      dup2\n        /* \"@openzeppelin/contracts/utils/math/SafeMath.sol\":3934:3935  a */\n      dup4\n        /* \"@openzeppelin/contracts/utils/math/SafeMath.sol\":3934:3939  a / b */\n      tag_261\n      swap2\n      swap1\n      tag_262\n      jump\t// in\n    tag_261:\n        /* \"@openzeppelin/contracts/utils/math/SafeMath.sol\":3927:3939  return a / b */\n      swap1\n      pop\n        /* \"@openzeppelin/contracts/utils/math/SafeMath.sol\":3850:3946  function div(uint256 a, uint256 b) internal pure returns (uint256) {... */\n      swap3\n      swap2\n      pop\n      pop\n      jump\t// out\n        /* \"@openzeppelin/contracts/utils/math/SafeMath.sol\":3122:3218  function sub(uint256 a, uint256 b) internal pure returns (uint256) {... */\n    tag_199:\n        /* \"@openzeppelin/contracts/utils/math/SafeMath.sol\":3180:3187  uint256 */\n      0x00\n        /* \"@openzeppelin/contracts/utils/math/SafeMath.sol\":3210:3211  b */\n      dup2\n        /* \"@openzeppelin/contracts/utils/math/SafeMath.sol\":3206:3207  a */\n      dup4\n        /* \"@openzeppelin/contracts/utils/math/SafeMath.sol\":3206:3211  a - b */\n      tag_264\n      swap2\n      swap1\n      tag_205\n      jump\t// in\n    tag_264:\n        /* \"@openzeppelin/contracts/utils/math/SafeMath.sol\":3199:3211  return a - b */\n      swap1\n      pop\n        /* \"@openzeppelin/contracts/utils/math/SafeMath.sol\":3122:3218  function sub(uint256 a, uint256 b) internal pure returns (uint256) {... */\n      swap3\n      swap2\n      pop\n      pop\n      jump\t// out\n        /* \"@openzeppelin/contracts/security/ReentrancyGuard.sol\":2629:2838  function _nonReentrantAfter() private {... */\n    tag_231:\n        /* \"@openzeppelin/contracts/security/ReentrancyGuard.sol\":1716:1717  1 */\n      0x01\n        /* \"@openzeppelin/contracts/security/ReentrancyGuard.sol\":2809:2816  _status */\n      dup1\n        /* \"@openzeppelin/contracts/security/ReentrancyGuard.sol\":2809:2831  _status = _NOT_ENTERED */\n      dup2\n      swap1\n      sstore\n      pop\n        /* \"@openzeppelin/contracts/security/ReentrancyGuard.sol\":2629:2838  function _nonReentrantAfter() private {... */\n      jump\t// out\n        /* \"@openzeppelin/contracts/security/Pausable.sol\":1945:2051  function _requirePaused() internal view virtual {... */\n    tag_238:\n        /* \"@openzeppelin/contracts/security/Pausable.sol\":2011:2019  paused() */\n      tag_267\n        /* \"@openzeppelin/contracts/security/Pausable.sol\":2011:2017  paused */\n      tag_75\n        /* \"@openzeppelin/contracts/security/Pausable.sol\":2011:2019  paused() */\n      jump\t// in\n    tag_267:\n        /* \"@openzeppelin/contracts/security/Pausable.sol\":2003:2044  require(paused(), \"Pausable: not paused\") */\n      tag_268\n      jumpi\n      mload(0x40)\n      0x08c379a000000000000000000000000000000000000000000000000000000000\n      dup2\n      mstore\n      0x04\n      add\n      tag_269\n      swap1\n      tag_270\n      jump\t// in\n    tag_269:\n      mload(0x40)\n      dup1\n      swap2\n      sub\n      swap1\n      revert\n    tag_268:\n        /* \"@openzeppelin/contracts/security/Pausable.sol\":1945:2051  function _requirePaused() internal view virtual {... */\n      jump\t// out\n        /* \"@openzeppelin/contracts/utils/Context.sol\":640:736  function _msgSender() internal view virtual returns (address) {... */\n    tag_241:\n        /* \"@openzeppelin/contracts/utils/Context.sol\":693:700  address */\n      0x00\n        /* \"@openzeppelin/contracts/utils/Context.sol\":719:729  msg.sender */\n      caller\n        /* \"@openzeppelin/contracts/utils/Context.sol\":712:729  return msg.sender */\n      swap1\n      pop\n        /* \"@openzeppelin/contracts/utils/Context.sol\":640:736  function _msgSender() internal view virtual returns (address) {... */\n      swap1\n      jump\t// out\n        /* \"#utility.yul\":7:146   */\n    tag_273:\n        /* \"#utility.yul\":53:58   */\n      0x00\n        /* \"#utility.yul\":91:97   */\n      dup2\n        /* \"#utility.yul\":78:98   */\n      calldataload\n        /* \"#utility.yul\":69:98   */\n      swap1\n      pop\n        /* \"#utility.yul\":107:140   */\n      tag_275\n        /* \"#utility.yul\":134:139   */\n      dup2\n        /* \"#utility.yul\":107:140   */\n      tag_276\n      jump\t// in\n    tag_275:\n        /* \"#utility.yul\":7:146   */\n      swap3\n      swap2\n      pop\n      pop\n      jump\t// out\n        /* \"#utility.yul\":152:307   */\n    tag_277:\n        /* \"#utility.yul\":206:211   */\n      0x00\n        /* \"#utility.yul\":244:250   */\n      dup2\n        /* \"#utility.yul\":231:251   */\n      calldataload\n        /* \"#utility.yul\":222:251   */\n      swap1\n      pop\n        /* \"#utility.yul\":260:301   */\n      tag_279\n        /* \"#utility.yul\":295:300   */\n      dup2\n        /* \"#utility.yul\":260:301   */\n      tag_280\n      jump\t// in\n    tag_279:\n        /* \"#utility.yul\":152:307   */\n      swap3\n      swap2\n      pop\n      pop\n      jump\t// out\n        /* \"#utility.yul\":313:446   */\n    tag_281:\n        /* \"#utility.yul\":356:361   */\n      0x00\n        /* \"#utility.yul\":394:400   */\n      dup2\n        /* \"#utility.yul\":381:401   */\n      calldataload\n        /* \"#utility.yul\":372:401   */\n      swap1\n      pop\n        /* \"#utility.yul\":410:440   */\n      tag_283\n        /* \"#utility.yul\":434:439   */\n      dup2\n        /* \"#utility.yul\":410:440   */\n      tag_284\n      jump\t// in\n    tag_283:\n        /* \"#utility.yul\":313:446   */\n      swap3\n      swap2\n      pop\n      pop\n      jump\t// out\n        /* \"#utility.yul\":452:589   */\n    tag_285:\n        /* \"#utility.yul\":506:511   */\n      0x00\n        /* \"#utility.yul\":537:543   */\n      dup2\n        /* \"#utility.yul\":531:544   */\n      mload\n        /* \"#utility.yul\":522:544   */\n      swap1\n      pop\n        /* \"#utility.yul\":553:583   */\n      tag_287\n        /* \"#utility.yul\":577:582   */\n      dup2\n        /* \"#utility.yul\":553:583   */\n      tag_284\n      jump\t// in\n    tag_287:\n        /* \"#utility.yul\":452:589   */\n      swap3\n      swap2\n      pop\n      pop\n      jump\t// out\n        /* \"#utility.yul\":595:734   */\n    tag_288:\n        /* \"#utility.yul\":641:646   */\n      0x00\n        /* \"#utility.yul\":679:685   */\n      dup2\n        /* \"#utility.yul\":666:686   */\n      calldataload\n        /* \"#utility.yul\":657:686   */\n      swap1\n      pop\n        /* \"#utility.yul\":695:728   */\n      tag_290\n        /* \"#utility.yul\":722:727   */\n      dup2\n        /* \"#utility.yul\":695:728   */\n      tag_291\n      jump\t// in\n    tag_290:\n        /* \"#utility.yul\":595:734   */\n      swap3\n      swap2\n      pop\n      pop\n      jump\t// out\n        /* \"#utility.yul\":740:883   */\n    tag_292:\n        /* \"#utility.yul\":797:802   */\n      0x00\n        /* \"#utility.yul\":828:834   */\n      dup2\n        /* \"#utility.yul\":822:835   */\n      mload\n        /* \"#utility.yul\":813:835   */\n      swap1\n      pop\n        /* \"#utility.yul\":844:877   */\n      tag_294\n        /* \"#utility.yul\":871:876   */\n      dup2\n        /* \"#utility.yul\":844:877   */\n      tag_291\n      jump\t// in\n    tag_294:\n        /* \"#utility.yul\":740:883   */\n      swap3\n      swap2\n      pop\n      pop\n      jump\t// out\n        /* \"#utility.yul\":889:1218   */\n    tag_71:\n        /* \"#utility.yul\":948:954   */\n      0x00\n        /* \"#utility.yul\":997:999   */\n      0x20\n        /* \"#utility.yul\":985:994   */\n      dup3\n        /* \"#utility.yul\":976:983   */\n      dup5\n        /* \"#utility.yul\":972:995   */\n      sub\n        /* \"#utility.yul\":968:1000   */\n      slt\n        /* \"#utility.yul\":965:1084   */\n      iszero\n      tag_296\n      jumpi\n        /* \"#utility.yul\":1003:1082   */\n      tag_297\n      tag_298\n      jump\t// in\n    tag_297:\n        /* \"#utility.yul\":965:1084   */\n    tag_296:\n        /* \"#utility.yul\":1123:1124   */\n      0x00\n        /* \"#utility.yul\":1148:1201   */\n      tag_299\n        /* \"#utility.yul\":1193:1200   */\n      dup5\n        /* \"#utility.yul\":1184:1190   */\n      dup3\n        /* \"#utility.yul\":1173:1182   */\n      dup6\n        /* \"#utility.yul\":1169:1191   */\n      add\n        /* \"#utility.yul\":1148:1201   */\n      tag_273\n      jump\t// in\n    tag_299:\n        /* \"#utility.yul\":1138:1201   */\n      swap2\n      pop\n        /* \"#utility.yul\":1094:1211   */\n      pop\n        /* \"#utility.yul\":889:1218   */\n      swap3\n      swap2\n      pop\n      pop\n      jump\t// out\n        /* \"#utility.yul\":1224:1859   */\n    tag_37:\n        /* \"#utility.yul\":1309:1315   */\n      0x00\n        /* \"#utility.yul\":1317:1323   */\n      dup1\n        /* \"#utility.yul\":1325:1331   */\n      0x00\n        /* \"#utility.yul\":1374:1376   */\n      0x60\n        /* \"#utility.yul\":1362:1371   */\n      dup5\n        /* \"#utility.yul\":1353:1360   */\n      dup7\n        /* \"#utility.yul\":1349:1372   */\n      sub\n        /* \"#utility.yul\":1345:1377   */\n      slt\n        /* \"#utility.yul\":1342:1461   */\n      iszero\n      tag_301\n      jumpi\n        /* \"#utility.yul\":1380:1459   */\n      tag_302\n      tag_298\n      jump\t// in\n    tag_302:\n        /* \"#utility.yul\":1342:1461   */\n    tag_301:\n        /* \"#utility.yul\":1500:1501   */\n      0x00\n        /* \"#utility.yul\":1525:1586   */\n      tag_303\n        /* \"#utility.yul\":1578:1585   */\n      dup7\n        /* \"#utility.yul\":1569:1575   */\n      dup3\n        /* \"#utility.yul\":1558:1567   */\n      dup8\n        /* \"#utility.yul\":1554:1576   */\n      add\n        /* \"#utility.yul\":1525:1586   */\n      tag_277\n      jump\t// in\n    tag_303:\n        /* \"#utility.yul\":1515:1586   */\n      swap4\n      pop\n        /* \"#utility.yul\":1471:1596   */\n      pop\n        /* \"#utility.yul\":1635:1637   */\n      0x20\n        /* \"#utility.yul\":1661:1714   */\n      tag_304\n        /* \"#utility.yul\":1706:1713   */\n      dup7\n        /* \"#utility.yul\":1697:1703   */\n      dup3\n        /* \"#utility.yul\":1686:1695   */\n      dup8\n        /* \"#utility.yul\":1682:1704   */\n      add\n        /* \"#utility.yul\":1661:1714   */\n      tag_288\n      jump\t// in\n    tag_304:\n        /* \"#utility.yul\":1651:1714   */\n      swap3\n      pop\n        /* \"#utility.yul\":1606:1724   */\n      pop\n        /* \"#utility.yul\":1763:1765   */\n      0x40\n        /* \"#utility.yul\":1789:1842   */\n      tag_305\n        /* \"#utility.yul\":1834:1841   */\n      dup7\n        /* \"#utility.yul\":1825:1831   */\n      dup3\n        /* \"#utility.yul\":1814:1823   */\n      dup8\n        /* \"#utility.yul\":1810:1832   */\n      add\n        /* \"#utility.yul\":1789:1842   */\n      tag_273\n      jump\t// in\n    tag_305:\n        /* \"#utility.yul\":1779:1842   */\n      swap2\n      pop\n        /* \"#utility.yul\":1734:1852   */\n      pop\n        /* \"#utility.yul\":1224:1859   */\n      swap3\n      pop\n      swap3\n      pop\n      swap3\n      jump\t// out\n        /* \"#utility.yul\":1865:2210   */\n    tag_223:\n        /* \"#utility.yul\":1932:1938   */\n      0x00\n        /* \"#utility.yul\":1981:1983   */\n      0x20\n        /* \"#utility.yul\":1969:1978   */\n      dup3\n        /* \"#utility.yul\":1960:1967   */\n      dup5\n        /* \"#utility.yul\":1956:1979   */\n      sub\n        /* \"#utility.yul\":1952:1984   */\n      slt\n        /* \"#utility.yul\":1949:2068   */\n      iszero\n      tag_307\n      jumpi\n        /* \"#utility.yul\":1987:2066   */\n      tag_308\n      tag_298\n      jump\t// in\n    tag_308:\n        /* \"#utility.yul\":1949:2068   */\n    tag_307:\n        /* \"#utility.yul\":2107:2108   */\n      0x00\n        /* \"#utility.yul\":2132:2193   */\n      tag_309\n        /* \"#utility.yul\":2185:2192   */\n      dup5\n        /* \"#utility.yul\":2176:2182   */\n      dup3\n        /* \"#utility.yul\":2165:2174   */\n      dup6\n        /* \"#utility.yul\":2161:2183   */\n      add\n        /* \"#utility.yul\":2132:2193   */\n      tag_285\n      jump\t// in\n    tag_309:\n        /* \"#utility.yul\":2122:2193   */\n      swap2\n      pop\n        /* \"#utility.yul\":2078:2203   */\n      pop\n        /* \"#utility.yul\":1865:2210   */\n      swap3\n      swap2\n      pop\n      pop\n      jump\t// out\n        /* \"#utility.yul\":2216:2684   */\n    tag_42:\n        /* \"#utility.yul\":2281:2287   */\n      0x00\n        /* \"#utility.yul\":2289:2295   */\n      dup1\n        /* \"#utility.yul\":2338:2340   */\n      0x40\n        /* \"#utility.yul\":2326:2335   */\n      dup4\n        /* \"#utility.yul\":2317:2324   */\n      dup6\n        /* \"#utility.yul\":2313:2336   */\n      sub\n        /* \"#utility.yul\":2309:2341   */\n      slt\n        /* \"#utility.yul\":2306:2425   */\n      iszero\n      tag_311\n      jumpi\n        /* \"#utility.yul\":2344:2423   */\n      tag_312\n      tag_298\n      jump\t// in\n    tag_312:\n        /* \"#utility.yul\":2306:2425   */\n    tag_311:\n        /* \"#utility.yul\":2464:2465   */\n      0x00\n        /* \"#utility.yul\":2489:2539   */\n      tag_313\n        /* \"#utility.yul\":2531:2538   */\n      dup6\n        /* \"#utility.yul\":2522:2528   */\n      dup3\n        /* \"#utility.yul\":2511:2520   */\n      dup7\n        /* \"#utility.yul\":2507:2529   */\n      add\n        /* \"#utility.yul\":2489:2539   */\n      tag_281\n      jump\t// in\n    tag_313:\n        /* \"#utility.yul\":2479:2539   */\n      swap3\n      pop\n        /* \"#utility.yul\":2435:2549   */\n      pop\n        /* \"#utility.yul\":2588:2590   */\n      0x20\n        /* \"#utility.yul\":2614:2667   */\n      tag_314\n        /* \"#utility.yul\":2659:2666   */\n      dup6\n        /* \"#utility.yul\":2650:2656   */\n      dup3\n        /* \"#utility.yul\":2639:2648   */\n      dup7\n        /* \"#utility.yul\":2635:2657   */\n      add\n        /* \"#utility.yul\":2614:2667   */\n      tag_273\n      jump\t// in\n    tag_314:\n        /* \"#utility.yul\":2604:2667   */\n      swap2\n      pop\n        /* \"#utility.yul\":2559:2677   */\n      pop\n        /* \"#utility.yul\":2216:2684   */\n      swap3\n      pop\n      swap3\n      swap1\n      pop\n      jump\t// out\n        /* \"#utility.yul\":2690:3751   */\n    tag_93:\n        /* \"#utility.yul\":2796:2802   */\n      0x00\n        /* \"#utility.yul\":2804:2810   */\n      dup1\n        /* \"#utility.yul\":2812:2818   */\n      0x00\n        /* \"#utility.yul\":2820:2826   */\n      dup1\n        /* \"#utility.yul\":2828:2834   */\n      0x00\n        /* \"#utility.yul\":2836:2842   */\n      dup1\n        /* \"#utility.yul\":2885:2888   */\n      0xc0\n        /* \"#utility.yul\":2873:2882   */\n      dup8\n        /* \"#utility.yul\":2864:2871   */\n      dup10\n        /* \"#utility.yul\":2860:2883   */\n      sub\n        /* \"#utility.yul\":2856:2889   */\n      slt\n        /* \"#utility.yul\":2853:2973   */\n      iszero\n      tag_316\n      jumpi\n        /* \"#utility.yul\":2892:2971   */\n      tag_317\n      tag_298\n      jump\t// in\n    tag_317:\n        /* \"#utility.yul\":2853:2973   */\n    tag_316:\n        /* \"#utility.yul\":3012:3013   */\n      0x00\n        /* \"#utility.yul\":3037:3087   */\n      tag_318\n        /* \"#utility.yul\":3079:3086   */\n      dup10\n        /* \"#utility.yul\":3070:3076   */\n      dup3\n        /* \"#utility.yul\":3059:3068   */\n      dup11\n        /* \"#utility.yul\":3055:3077   */\n      add\n        /* \"#utility.yul\":3037:3087   */\n      tag_281\n      jump\t// in\n    tag_318:\n        /* \"#utility.yul\":3027:3087   */\n      swap7\n      pop\n        /* \"#utility.yul\":2983:3097   */\n      pop\n        /* \"#utility.yul\":3136:3138   */\n      0x20\n        /* \"#utility.yul\":3162:3212   */\n      tag_319\n        /* \"#utility.yul\":3204:3211   */\n      dup10\n        /* \"#utility.yul\":3195:3201   */\n      dup3\n        /* \"#utility.yul\":3184:3193   */\n      dup11\n        /* \"#utility.yul\":3180:3202   */\n      add\n        /* \"#utility.yul\":3162:3212   */\n      tag_281\n      jump\t// in\n    tag_319:\n        /* \"#utility.yul\":3152:3212   */\n      swap6\n      pop\n        /* \"#utility.yul\":3107:3222   */\n      pop\n        /* \"#utility.yul\":3261:3263   */\n      0x40\n        /* \"#utility.yul\":3287:3348   */\n      tag_320\n        /* \"#utility.yul\":3340:3347   */\n      dup10\n        /* \"#utility.yul\":3331:3337   */\n      dup3\n        /* \"#utility.yul\":3320:3329   */\n      dup11\n        /* \"#utility.yul\":3316:3338   */\n      add\n        /* \"#utility.yul\":3287:3348   */\n      tag_277\n      jump\t// in\n    tag_320:\n        /* \"#utility.yul\":3277:3348   */\n      swap5\n      pop\n        /* \"#utility.yul\":3232:3358   */\n      pop\n        /* \"#utility.yul\":3397:3399   */\n      0x60\n        /* \"#utility.yul\":3423:3476   */\n      tag_321\n        /* \"#utility.yul\":3468:3475   */\n      dup10\n        /* \"#utility.yul\":3459:3465   */\n      dup3\n        /* \"#utility.yul\":3448:3457   */\n      dup11\n        /* \"#utility.yul\":3444:3466   */\n      add\n        /* \"#utility.yul\":3423:3476   */\n      tag_288\n      jump\t// in\n    tag_321:\n        /* \"#utility.yul\":3413:3476   */\n      swap4\n      pop\n        /* \"#utility.yul\":3368:3486   */\n      pop\n        /* \"#utility.yul\":3525:3528   */\n      0x80\n        /* \"#utility.yul\":3552:3605   */\n      tag_322\n        /* \"#utility.yul\":3597:3604   */\n      dup10\n        /* \"#utility.yul\":3588:3594   */\n      dup3\n        /* \"#utility.yul\":3577:3586   */\n      dup11\n        /* \"#utility.yul\":3573:3595   */\n      add\n        /* \"#utility.yul\":3552:3605   */\n      tag_273\n      jump\t// in\n    tag_322:\n        /* \"#utility.yul\":3542:3605   */\n      swap3\n      pop\n        /* \"#utility.yul\":3496:3615   */\n      pop\n        /* \"#utility.yul\":3654:3657   */\n      0xa0\n        /* \"#utility.yul\":3681:3734   */\n      tag_323\n        /* \"#utility.yul\":3726:3733   */\n      dup10\n        /* \"#utility.yul\":3717:3723   */\n      dup3\n        /* \"#utility.yul\":3706:3715   */\n      dup11\n        /* \"#utility.yul\":3702:3724   */\n      add\n        /* \"#utility.yul\":3681:3734   */\n      tag_273\n      jump\t// in\n    tag_323:\n        /* \"#utility.yul\":3671:3734   */\n      swap2\n      pop\n        /* \"#utility.yul\":3625:3744   */\n      pop\n        /* \"#utility.yul\":2690:3751   */\n      swap3\n      swap6\n      pop\n      swap3\n      swap6\n      pop\n      swap3\n      swap6\n      jump\t// out\n        /* \"#utility.yul\":3757:4108   */\n    tag_146:\n        /* \"#utility.yul\":3827:3833   */\n      0x00\n        /* \"#utility.yul\":3876:3878   */\n      0x20\n        /* \"#utility.yul\":3864:3873   */\n      dup3\n        /* \"#utility.yul\":3855:3862   */\n      dup5\n        /* \"#utility.yul\":3851:3874   */\n      sub\n        /* \"#utility.yul\":3847:3879   */\n      slt\n        /* \"#utility.yul\":3844:3963   */\n      iszero\n      tag_325\n      jumpi\n        /* \"#utility.yul\":3882:3961   */\n      tag_326\n      tag_298\n      jump\t// in\n    tag_326:\n        /* \"#utility.yul\":3844:3963   */\n    tag_325:\n        /* \"#utility.yul\":4002:4003   */\n      0x00\n        /* \"#utility.yul\":4027:4091   */\n      tag_327\n        /* \"#utility.yul\":4083:4090   */\n      dup5\n        /* \"#utility.yul\":4074:4080   */\n      dup3\n        /* \"#utility.yul\":4063:4072   */\n      dup6\n        /* \"#utility.yul\":4059:4081   */\n      add\n        /* \"#utility.yul\":4027:4091   */\n      tag_292\n      jump\t// in\n    tag_327:\n        /* \"#utility.yul\":4017:4091   */\n      swap2\n      pop\n        /* \"#utility.yul\":3973:4101   */\n      pop\n        /* \"#utility.yul\":3757:4108   */\n      swap3\n      swap2\n      pop\n      pop\n      jump\t// out\n        /* \"#utility.yul\":4114:4733   */\n    tag_66:\n        /* \"#utility.yul\":4191:4197   */\n      0x00\n        /* \"#utility.yul\":4199:4205   */\n      dup1\n        /* \"#utility.yul\":4207:4213   */\n      0x00\n        /* \"#utility.yul\":4256:4258   */\n      0x60\n        /* \"#utility.yul\":4244:4253   */\n      dup5\n        /* \"#utility.yul\":4235:4242   */\n      dup7\n        /* \"#utility.yul\":4231:4254   */\n      sub\n        /* \"#utility.yul\":4227:4259   */\n      slt\n        /* \"#utility.yul\":4224:4343   */\n      iszero\n      tag_329\n      jumpi\n        /* \"#utility.yul\":4262:4341   */\n      tag_330\n      tag_298\n      jump\t// in\n    tag_330:\n        /* \"#utility.yul\":4224:4343   */\n    tag_329:\n        /* \"#utility.yul\":4382:4383   */\n      0x00\n        /* \"#utility.yul\":4407:4460   */\n      tag_331\n        /* \"#utility.yul\":4452:4459   */\n      dup7\n        /* \"#utility.yul\":4443:4449   */\n      dup3\n        /* \"#utility.yul\":4432:4441   */\n      dup8\n        /* \"#utility.yul\":4428:4450   */\n      add\n        /* \"#utility.yul\":4407:4460   */\n      tag_288\n      jump\t// in\n    tag_331:\n        /* \"#utility.yul\":4397:4460   */\n      swap4\n      pop\n        /* \"#utility.yul\":4353:4470   */\n      pop\n        /* \"#utility.yul\":4509:4511   */\n      0x20\n        /* \"#utility.yul\":4535:4588   */\n      tag_332\n        /* \"#utility.yul\":4580:4587   */\n      dup7\n        /* \"#utility.yul\":4571:4577   */\n      dup3\n        /* \"#utility.yul\":4560:4569   */\n      dup8\n        /* \"#utility.yul\":4556:4578   */\n      add\n        /* \"#utility.yul\":4535:4588   */\n      tag_273\n      jump\t// in\n    tag_332:\n        /* \"#utility.yul\":4525:4588   */\n      swap3\n      pop\n        /* \"#utility.yul\":4480:4598   */\n      pop\n        /* \"#utility.yul\":4637:4639   */\n      0x40\n        /* \"#utility.yul\":4663:4716   */\n      tag_333\n        /* \"#utility.yul\":4708:4715   */\n      dup7\n        /* \"#utility.yul\":4699:4705   */\n      dup3\n        /* \"#utility.yul\":4688:4697   */\n      dup8\n        /* \"#utility.yul\":4684:4706   */\n      add\n        /* \"#utility.yul\":4663:4716   */\n      tag_273\n      jump\t// in\n    tag_333:\n        /* \"#utility.yul\":4653:4716   */\n      swap2\n      pop\n        /* \"#utility.yul\":4608:4726   */\n      pop\n        /* \"#utility.yul\":4114:4733   */\n      swap3\n      pop\n      swap3\n      pop\n      swap3\n      jump\t// out\n        /* \"#utility.yul\":4739:4886   */\n    tag_334:\n        /* \"#utility.yul\":4834:4879   */\n      tag_336\n        /* \"#utility.yul\":4873:4878   */\n      dup2\n        /* \"#utility.yul\":4834:4879   */\n      tag_337\n      jump\t// in\n    tag_336:\n        /* \"#utility.yul\":4829:4832   */\n      dup3\n        /* \"#utility.yul\":4822:4880   */\n      mstore\n        /* \"#utility.yul\":4739:4886   */\n      pop\n      pop\n      jump\t// out\n        /* \"#utility.yul\":4892:5034   */\n    tag_338:\n        /* \"#utility.yul\":4995:5027   */\n      tag_340\n        /* \"#utility.yul\":5021:5026   */\n      dup2\n        /* \"#utility.yul\":4995:5027   */\n      tag_341\n      jump\t// in\n    tag_340:\n        /* \"#utility.yul\":4990:4993   */\n      dup3\n        /* \"#utility.yul\":4983:5028   */\n      mstore\n        /* \"#utility.yul\":4892:5034   */\n      pop\n      pop\n      jump\t// out\n        /* \"#utility.yul\":5040:5158   */\n    tag_342:\n        /* \"#utility.yul\":5127:5151   */\n      tag_344\n        /* \"#utility.yul\":5145:5150   */\n      dup2\n        /* \"#utility.yul\":5127:5151   */\n      tag_345\n      jump\t// in\n    tag_344:\n        /* \"#utility.yul\":5122:5125   */\n      dup3\n        /* \"#utility.yul\":5115:5152   */\n      mstore\n        /* \"#utility.yul\":5040:5158   */\n      pop\n      pop\n      jump\t// out\n        /* \"#utility.yul\":5164:5273   */\n    tag_346:\n        /* \"#utility.yul\":5245:5266   */\n      tag_348\n        /* \"#utility.yul\":5260:5265   */\n      dup2\n        /* \"#utility.yul\":5245:5266   */\n      tag_349\n      jump\t// in\n    tag_348:\n        /* \"#utility.yul\":5240:5243   */\n      dup3\n        /* \"#utility.yul\":5233:5267   */\n      mstore\n        /* \"#utility.yul\":5164:5273   */\n      pop\n      pop\n      jump\t// out\n        /* \"#utility.yul\":5279:5438   */\n    tag_350:\n        /* \"#utility.yul\":5380:5431   */\n      tag_352\n        /* \"#utility.yul\":5425:5430   */\n      dup2\n        /* \"#utility.yul\":5380:5431   */\n      tag_353\n      jump\t// in\n    tag_352:\n        /* \"#utility.yul\":5375:5378   */\n      dup3\n        /* \"#utility.yul\":5368:5432   */\n      mstore\n        /* \"#utility.yul\":5279:5438   */\n      pop\n      pop\n      jump\t// out\n        /* \"#utility.yul\":5444:5810   */\n    tag_354:\n        /* \"#utility.yul\":5586:5589   */\n      0x00\n        /* \"#utility.yul\":5607:5674   */\n      tag_356\n        /* \"#utility.yul\":5671:5673   */\n      0x25\n        /* \"#utility.yul\":5666:5669   */\n      dup4\n        /* \"#utility.yul\":5607:5674   */\n      tag_357\n      jump\t// in\n    tag_356:\n        /* \"#utility.yul\":5600:5674   */\n      swap2\n      pop\n        /* \"#utility.yul\":5683:5776   */\n      tag_358\n        /* \"#utility.yul\":5772:5775   */\n      dup3\n        /* \"#utility.yul\":5683:5776   */\n      tag_359\n      jump\t// in\n    tag_358:\n        /* \"#utility.yul\":5801:5803   */\n      0x40\n        /* \"#utility.yul\":5796:5799   */\n      dup3\n        /* \"#utility.yul\":5792:5804   */\n      add\n        /* \"#utility.yul\":5785:5804   */\n      swap1\n      pop\n        /* \"#utility.yul\":5444:5810   */\n      swap2\n      swap1\n      pop\n      jump\t// out\n        /* \"#utility.yul\":5816:6182   */\n    tag_360:\n        /* \"#utility.yul\":5958:5961   */\n      0x00\n        /* \"#utility.yul\":5979:6046   */\n      tag_362\n        /* \"#utility.yul\":6043:6045   */\n      0x14\n        /* \"#utility.yul\":6038:6041   */\n      dup4\n        /* \"#utility.yul\":5979:6046   */\n      tag_357\n      jump\t// in\n    tag_362:\n        /* \"#utility.yul\":5972:6046   */\n      swap2\n      pop\n        /* \"#utility.yul\":6055:6148   */\n      tag_363\n        /* \"#utility.yul\":6144:6147   */\n      dup3\n        /* \"#utility.yul\":6055:6148   */\n      tag_364\n      jump\t// in\n    tag_363:\n        /* \"#utility.yul\":6173:6175   */\n      0x20\n        /* \"#utility.yul\":6168:6171   */\n      dup3\n        /* \"#utility.yul\":6164:6176   */\n      add\n        /* \"#utility.yul\":6157:6176   */\n      swap1\n      pop\n        /* \"#utility.yul\":5816:6182   */\n      swap2\n      swap1\n      pop\n      jump\t// out\n        /* \"#utility.yul\":6188:6554   */\n    tag_365:\n        /* \"#utility.yul\":6330:6333   */\n      0x00\n        /* \"#utility.yul\":6351:6418   */\n      tag_367\n        /* \"#utility.yul\":6415:6417   */\n      0x10\n        /* \"#utility.yul\":6410:6413   */\n      dup4\n        /* \"#utility.yul\":6351:6418   */\n      tag_357\n      jump\t// in\n    tag_367:\n        /* \"#utility.yul\":6344:6418   */\n      swap2\n      pop\n        /* \"#utility.yul\":6427:6520   */\n      tag_368\n        /* \"#utility.yul\":6516:6519   */\n      dup3\n        /* \"#utility.yul\":6427:6520   */\n      tag_369\n      jump\t// in\n    tag_368:\n        /* \"#utility.yul\":6545:6547   */\n      0x20\n        /* \"#utility.yul\":6540:6543   */\n      dup3\n        /* \"#utility.yul\":6536:6548   */\n      add\n        /* \"#utility.yul\":6529:6548   */\n      swap1\n      pop\n        /* \"#utility.yul\":6188:6554   */\n      swap2\n      swap1\n      pop\n      jump\t// out\n        /* \"#utility.yul\":6560:6926   */\n    tag_370:\n        /* \"#utility.yul\":6702:6705   */\n      0x00\n        /* \"#utility.yul\":6723:6790   */\n      tag_372\n        /* \"#utility.yul\":6787:6789   */\n      0x15\n        /* \"#utility.yul\":6782:6785   */\n      dup4\n        /* \"#utility.yul\":6723:6790   */\n      tag_357\n      jump\t// in\n    tag_372:\n        /* \"#utility.yul\":6716:6790   */\n      swap2\n      pop\n        /* \"#utility.yul\":6799:6892   */\n      tag_373\n        /* \"#utility.yul\":6888:6891   */\n      dup3\n        /* \"#utility.yul\":6799:6892   */\n      tag_374\n      jump\t// in\n    tag_373:\n        /* \"#utility.yul\":6917:6919   */\n      0x20\n        /* \"#utility.yul\":6912:6915   */\n      dup3\n        /* \"#utility.yul\":6908:6920   */\n      add\n        /* \"#utility.yul\":6901:6920   */\n      swap1\n      pop\n        /* \"#utility.yul\":6560:6926   */\n      swap2\n      swap1\n      pop\n      jump\t// out\n        /* \"#utility.yul\":6932:7298   */\n    tag_375:\n        /* \"#utility.yul\":7074:7077   */\n      0x00\n        /* \"#utility.yul\":7095:7162   */\n      tag_377\n        /* \"#utility.yul\":7159:7161   */\n      0x22\n        /* \"#utility.yul\":7154:7157   */\n      dup4\n        /* \"#utility.yul\":7095:7162   */\n      tag_357\n      jump\t// in\n    tag_377:\n        /* \"#utility.yul\":7088:7162   */\n      swap2\n      pop\n        /* \"#utility.yul\":7171:7264   */\n      tag_378\n        /* \"#utility.yul\":7260:7263   */\n      dup3\n        /* \"#utility.yul\":7171:7264   */\n      tag_379\n      jump\t// in\n    tag_378:\n        /* \"#utility.yul\":7289:7291   */\n      0x40\n        /* \"#utility.yul\":7284:7287   */\n      dup3\n        /* \"#utility.yul\":7280:7292   */\n      add\n        /* \"#utility.yul\":7273:7292   */\n      swap1\n      pop\n        /* \"#utility.yul\":6932:7298   */\n      swap2\n      swap1\n      pop\n      jump\t// out\n        /* \"#utility.yul\":7304:7670   */\n    tag_380:\n        /* \"#utility.yul\":7446:7449   */\n      0x00\n        /* \"#utility.yul\":7467:7534   */\n      tag_382\n        /* \"#utility.yul\":7531:7533   */\n      0x44\n        /* \"#utility.yul\":7526:7529   */\n      dup4\n        /* \"#utility.yul\":7467:7534   */\n      tag_357\n      jump\t// in\n    tag_382:\n        /* \"#utility.yul\":7460:7534   */\n      swap2\n      pop\n        /* \"#utility.yul\":7543:7636   */\n      tag_383\n        /* \"#utility.yul\":7632:7635   */\n      dup3\n        /* \"#utility.yul\":7543:7636   */\n      tag_384\n      jump\t// in\n    tag_383:\n        /* \"#utility.yul\":7661:7663   */\n      0x60\n        /* \"#utility.yul\":7656:7659   */\n      dup3\n        /* \"#utility.yul\":7652:7664   */\n      add\n        /* \"#utility.yul\":7645:7664   */\n      swap1\n      pop\n        /* \"#utility.yul\":7304:7670   */\n      swap2\n      swap1\n      pop\n      jump\t// out\n        /* \"#utility.yul\":7676:8042   */\n    tag_385:\n        /* \"#utility.yul\":7818:7821   */\n      0x00\n        /* \"#utility.yul\":7839:7906   */\n      tag_387\n        /* \"#utility.yul\":7903:7905   */\n      0x38\n        /* \"#utility.yul\":7898:7901   */\n      dup4\n        /* \"#utility.yul\":7839:7906   */\n      tag_357\n      jump\t// in\n    tag_387:\n        /* \"#utility.yul\":7832:7906   */\n      swap2\n      pop\n        /* \"#utility.yul\":7915:8008   */\n      tag_388\n        /* \"#utility.yul\":8004:8007   */\n      dup3\n        /* \"#utility.yul\":7915:8008   */\n      tag_389\n      jump\t// in\n    tag_388:\n        /* \"#utility.yul\":8033:8035   */\n      0x40\n        /* \"#utility.yul\":8028:8031   */\n      dup3\n        /* \"#utility.yul\":8024:8036   */\n      add\n        /* \"#utility.yul\":8017:8036   */\n      swap1\n      pop\n        /* \"#utility.yul\":7676:8042   */\n      swap2\n      swap1\n      pop\n      jump\t// out\n        /* \"#utility.yul\":8048:8414   */\n    tag_390:\n        /* \"#utility.yul\":8190:8193   */\n      0x00\n        /* \"#utility.yul\":8211:8278   */\n      tag_392\n        /* \"#utility.yul\":8275:8277   */\n      0x1f\n        /* \"#utility.yul\":8270:8273   */\n      dup4\n        /* \"#utility.yul\":8211:8278   */\n      tag_357\n      jump\t// in\n    tag_392:\n        /* \"#utility.yul\":8204:8278   */\n      swap2\n      pop\n        /* \"#utility.yul\":8287:8380   */\n      tag_393\n        /* \"#utility.yul\":8376:8379   */\n      dup3\n        /* \"#utility.yul\":8287:8380   */\n      tag_394\n      jump\t// in\n    tag_393:\n        /* \"#utility.yul\":8405:8407   */\n      0x20\n        /* \"#utility.yul\":8400:8403   */\n      dup3\n        /* \"#utility.yul\":8396:8408   */\n      add\n        /* \"#utility.yul\":8389:8408   */\n      swap1\n      pop\n        /* \"#utility.yul\":8048:8414   */\n      swap2\n      swap1\n      pop\n      jump\t// out\n        /* \"#utility.yul\":8420:8786   */\n    tag_395:\n        /* \"#utility.yul\":8562:8565   */\n      0x00\n        /* \"#utility.yul\":8583:8650   */\n      tag_397\n        /* \"#utility.yul\":8647:8649   */\n      0x13\n        /* \"#utility.yul\":8642:8645   */\n      dup4\n        /* \"#utility.yul\":8583:8650   */\n      tag_357\n      jump\t// in\n    tag_397:\n        /* \"#utility.yul\":8576:8650   */\n      swap2\n      pop\n        /* \"#utility.yul\":8659:8752   */\n      tag_398\n        /* \"#utility.yul\":8748:8751   */\n      dup3\n        /* \"#utility.yul\":8659:8752   */\n      tag_399\n      jump\t// in\n    tag_398:\n        /* \"#utility.yul\":8777:8779   */\n      0x20\n        /* \"#utility.yul\":8772:8775   */\n      dup3\n        /* \"#utility.yul\":8768:8780   */\n      add\n        /* \"#utility.yul\":8761:8780   */\n      swap1\n      pop\n        /* \"#utility.yul\":8420:8786   */\n      swap2\n      swap1\n      pop\n      jump\t// out\n        /* \"#utility.yul\":8792:8910   */\n    tag_400:\n        /* \"#utility.yul\":8879:8903   */\n      tag_402\n        /* \"#utility.yul\":8897:8902   */\n      dup2\n        /* \"#utility.yul\":8879:8903   */\n      tag_403\n      jump\t// in\n    tag_402:\n        /* \"#utility.yul\":8874:8877   */\n      dup3\n        /* \"#utility.yul\":8867:8904   */\n      mstore\n        /* \"#utility.yul\":8792:8910   */\n      pop\n      pop\n      jump\t// out\n        /* \"#utility.yul\":8916:9138   */\n    tag_49:\n        /* \"#utility.yul\":9009:9013   */\n      0x00\n        /* \"#utility.yul\":9047:9049   */\n      0x20\n        /* \"#utility.yul\":9036:9045   */\n      dup3\n        /* \"#utility.yul\":9032:9050   */\n      add\n        /* \"#utility.yul\":9024:9050   */\n      swap1\n      pop\n        /* \"#utility.yul\":9060:9131   */\n      tag_405\n        /* \"#utility.yul\":9128:9129   */\n      0x00\n        /* \"#utility.yul\":9117:9126   */\n      dup4\n        /* \"#utility.yul\":9113:9130   */\n      add\n        /* \"#utility.yul\":9104:9110   */\n      dup5\n        /* \"#utility.yul\":9060:9131   */\n      tag_342\n      jump\t// in\n    tag_405:\n        /* \"#utility.yul\":8916:9138   */\n      swap3\n      swap2\n      pop\n      pop\n      jump\t// out\n        /* \"#utility.yul\":9144:9398   */\n    tag_58:\n        /* \"#utility.yul\":9253:9257   */\n      0x00\n        /* \"#utility.yul\":9291:9293   */\n      0x20\n        /* \"#utility.yul\":9280:9289   */\n      dup3\n        /* \"#utility.yul\":9276:9294   */\n      add\n        /* \"#utility.yul\":9268:9294   */\n      swap1\n      pop\n        /* \"#utility.yul\":9304:9391   */\n      tag_407\n        /* \"#utility.yul\":9388:9389   */\n      0x00\n        /* \"#utility.yul\":9377:9386   */\n      dup4\n        /* \"#utility.yul\":9373:9390   */\n      add\n        /* \"#utility.yul\":9364:9370   */\n      dup5\n        /* \"#utility.yul\":9304:9391   */\n      tag_338\n      jump\t// in\n    tag_407:\n        /* \"#utility.yul\":9144:9398   */\n      swap3\n      swap2\n      pop\n      pop\n      jump\t// out\n        /* \"#utility.yul\":9404:9752   */\n    tag_218:\n        /* \"#utility.yul\":9533:9537   */\n      0x00\n        /* \"#utility.yul\":9571:9573   */\n      0x40\n        /* \"#utility.yul\":9560:9569   */\n      dup3\n        /* \"#utility.yul\":9556:9574   */\n      add\n        /* \"#utility.yul\":9548:9574   */\n      swap1\n      pop\n        /* \"#utility.yul\":9584:9663   */\n      tag_409\n        /* \"#utility.yul\":9660:9661   */\n      0x00\n        /* \"#utility.yul\":9649:9658   */\n      dup4\n        /* \"#utility.yul\":9645:9662   */\n      add\n        /* \"#utility.yul\":9636:9642   */\n      dup6\n        /* \"#utility.yul\":9584:9663   */\n      tag_334\n      jump\t// in\n    tag_409:\n        /* \"#utility.yul\":9673:9745   */\n      tag_410\n        /* \"#utility.yul\":9741:9743   */\n      0x20\n        /* \"#utility.yul\":9730:9739   */\n      dup4\n        /* \"#utility.yul\":9726:9744   */\n      add\n        /* \"#utility.yul\":9717:9723   */\n      dup5\n        /* \"#utility.yul\":9673:9745   */\n      tag_400\n      jump\t// in\n    tag_410:\n        /* \"#utility.yul\":9404:9752   */\n      swap4\n      swap3\n      pop\n      pop\n      pop\n      jump\t// out\n        /* \"#utility.yul\":9758:9968   */\n    tag_77:\n        /* \"#utility.yul\":9845:9849   */\n      0x00\n        /* \"#utility.yul\":9883:9885   */\n      0x20\n        /* \"#utility.yul\":9872:9881   */\n      dup3\n        /* \"#utility.yul\":9868:9886   */\n      add\n        /* \"#utility.yul\":9860:9886   */\n      swap1\n      pop\n        /* \"#utility.yul\":9896:9961   */\n      tag_412\n        /* \"#utility.yul\":9958:9959   */\n      0x00\n        /* \"#utility.yul\":9947:9956   */\n      dup4\n        /* \"#utility.yul\":9943:9960   */\n      add\n        /* \"#utility.yul\":9934:9940   */\n      dup5\n        /* \"#utility.yul\":9896:9961   */\n      tag_346\n      jump\t// in\n    tag_412:\n        /* \"#utility.yul\":9758:9968   */\n      swap3\n      swap2\n      pop\n      pop\n      jump\t// out\n        /* \"#utility.yul\":9974:10224   */\n    tag_115:\n        /* \"#utility.yul\":10081:10085   */\n      0x00\n        /* \"#utility.yul\":10119:10121   */\n      0x20\n        /* \"#utility.yul\":10108:10117   */\n      dup3\n        /* \"#utility.yul\":10104:10122   */\n      add\n        /* \"#utility.yul\":10096:10122   */\n      swap1\n      pop\n        /* \"#utility.yul\":10132:10217   */\n      tag_414\n        /* \"#utility.yul\":10214:10215   */\n      0x00\n        /* \"#utility.yul\":10203:10212   */\n      dup4\n        /* \"#utility.yul\":10199:10216   */\n      add\n        /* \"#utility.yul\":10190:10196   */\n      dup5\n        /* \"#utility.yul\":10132:10217   */\n      tag_350\n      jump\t// in\n    tag_414:\n        /* \"#utility.yul\":9974:10224   */\n      swap3\n      swap2\n      pop\n      pop\n      jump\t// out\n        /* \"#utility.yul\":10230:10649   */\n    tag_133:\n        /* \"#utility.yul\":10396:10400   */\n      0x00\n        /* \"#utility.yul\":10434:10436   */\n      0x20\n        /* \"#utility.yul\":10423:10432   */\n      dup3\n        /* \"#utility.yul\":10419:10437   */\n      add\n        /* \"#utility.yul\":10411:10437   */\n      swap1\n      pop\n        /* \"#utility.yul\":10483:10492   */\n      dup2\n        /* \"#utility.yul\":10477:10481   */\n      dup2\n        /* \"#utility.yul\":10473:10493   */\n      sub\n        /* \"#utility.yul\":10469:10470   */\n      0x00\n        /* \"#utility.yul\":10458:10467   */\n      dup4\n        /* \"#utility.yul\":10454:10471   */\n      add\n        /* \"#utility.yul\":10447:10494   */\n      mstore\n        /* \"#utility.yul\":10511:10642   */\n      tag_416\n        /* \"#utility.yul\":10637:10641   */\n      dup2\n        /* \"#utility.yul\":10511:10642   */\n      tag_354\n      jump\t// in\n    tag_416:\n        /* \"#utility.yul\":10503:10642   */\n      swap1\n      pop\n        /* \"#utility.yul\":10230:10649   */\n      swap2\n      swap1\n      pop\n      jump\t// out\n        /* \"#utility.yul\":10655:11074   */\n    tag_270:\n        /* \"#utility.yul\":10821:10825   */\n      0x00\n        /* \"#utility.yul\":10859:10861   */\n      0x20\n        /* \"#utility.yul\":10848:10857   */\n      dup3\n        /* \"#utility.yul\":10844:10862   */\n      add\n        /* \"#utility.yul\":10836:10862   */\n      swap1\n      pop\n        /* \"#utility.yul\":10908:10917   */\n      dup2\n        /* \"#utility.yul\":10902:10906   */\n      dup2\n        /* \"#utility.yul\":10898:10918   */\n      sub\n        /* \"#utility.yul\":10894:10895   */\n      0x00\n        /* \"#utility.yul\":10883:10892   */\n      dup4\n        /* \"#utility.yul\":10879:10896   */\n      add\n        /* \"#utility.yul\":10872:10919   */\n      mstore\n        /* \"#utility.yul\":10936:11067   */\n      tag_418\n        /* \"#utility.yul\":11062:11066   */\n      dup2\n        /* \"#utility.yul\":10936:11067   */\n      tag_360\n      jump\t// in\n    tag_418:\n        /* \"#utility.yul\":10928:11067   */\n      swap1\n      pop\n        /* \"#utility.yul\":10655:11074   */\n      swap2\n      swap1\n      pop\n      jump\t// out\n        /* \"#utility.yul\":11080:11499   */\n    tag_252:\n        /* \"#utility.yul\":11246:11250   */\n      0x00\n        /* \"#utility.yul\":11284:11286   */\n      0x20\n        /* \"#utility.yul\":11273:11282   */\n      dup3\n        /* \"#utility.yul\":11269:11287   */\n      add\n        /* \"#utility.yul\":11261:11287   */\n      swap1\n      pop\n        /* \"#utility.yul\":11333:11342   */\n      dup2\n        /* \"#utility.yul\":11327:11331   */\n      dup2\n        /* \"#utility.yul\":11323:11343   */\n      sub\n        /* \"#utility.yul\":11319:11320   */\n      0x00\n        /* \"#utility.yul\":11308:11317   */\n      dup4\n        /* \"#utility.yul\":11304:11321   */\n      add\n        /* \"#utility.yul\":11297:11344   */\n      mstore\n        /* \"#utility.yul\":11361:11492   */\n      tag_420\n        /* \"#utility.yul\":11487:11491   */\n      dup2\n        /* \"#utility.yul\":11361:11492   */\n      tag_365\n      jump\t// in\n    tag_420:\n        /* \"#utility.yul\":11353:11492   */\n      swap1\n      pop\n        /* \"#utility.yul\":11080:11499   */\n      swap2\n      swap1\n      pop\n      jump\t// out\n        /* \"#utility.yul\":11505:11924   */\n    tag_155:\n        /* \"#utility.yul\":11671:11675   */\n      0x00\n        /* \"#utility.yul\":11709:11711   */\n      0x20\n        /* \"#utility.yul\":11698:11707   */\n      dup3\n        /* \"#utility.yul\":11694:11712   */\n      add\n        /* \"#utility.yul\":11686:11712   */\n      swap1\n      pop\n        /* \"#utility.yul\":11758:11767   */\n      dup2\n        /* \"#utility.yul\":11752:11756   */\n      dup2\n        /* \"#utility.yul\":11748:11768   */\n      sub\n        /* \"#utility.yul\":11744:11745   */\n      0x00\n        /* \"#utility.yul\":11733:11742   */\n      dup4\n        /* \"#utility.yul\":11729:11746   */\n      add\n        /* \"#utility.yul\":11722:11769   */\n      mstore\n        /* \"#utility.yul\":11786:11917   */\n      tag_422\n        /* \"#utility.yul\":11912:11916   */\n      dup2\n        /* \"#utility.yul\":11786:11917   */\n      tag_370\n      jump\t// in\n    tag_422:\n        /* \"#utility.yul\":11778:11917   */\n      swap1\n      pop\n        /* \"#utility.yul\":11505:11924   */\n      swap2\n      swap1\n      pop\n      jump\t// out\n        /* \"#utility.yul\":11930:12349   */\n    tag_137:\n        /* \"#utility.yul\":12096:12100   */\n      0x00\n        /* \"#utility.yul\":12134:12136   */\n      0x20\n        /* \"#utility.yul\":12123:12132   */\n      dup3\n        /* \"#utility.yul\":12119:12137   */\n      add\n        /* \"#utility.yul\":12111:12137   */\n      swap1\n      pop\n        /* \"#utility.yul\":12183:12192   */\n      dup2\n        /* \"#utility.yul\":12177:12181   */\n      dup2\n        /* \"#utility.yul\":12173:12193   */\n      sub\n        /* \"#utility.yul\":12169:12170   */\n      0x00\n        /* \"#utility.yul\":12158:12167   */\n      dup4\n        /* \"#utility.yul\":12154:12171   */\n      add\n        /* \"#utility.yul\":12147:12194   */\n      mstore\n        /* \"#utility.yul\":12211:12342   */\n      tag_424\n        /* \"#utility.yul\":12337:12341   */\n      dup2\n        /* \"#utility.yul\":12211:12342   */\n      tag_375\n      jump\t// in\n    tag_424:\n        /* \"#utility.yul\":12203:12342   */\n      swap1\n      pop\n        /* \"#utility.yul\":11930:12349   */\n      swap2\n      swap1\n      pop\n      jump\t// out\n        /* \"#utility.yul\":12355:12774   */\n    tag_187:\n        /* \"#utility.yul\":12521:12525   */\n      0x00\n        /* \"#utility.yul\":12559:12561   */\n      0x20\n        /* \"#utility.yul\":12548:12557   */\n      dup3\n        /* \"#utility.yul\":12544:12562   */\n      add\n        /* \"#utility.yul\":12536:12562   */\n      swap1\n      pop\n        /* \"#utility.yul\":12608:12617   */\n      dup2\n        /* \"#utility.yul\":12602:12606   */\n      dup2\n        /* \"#utility.yul\":12598:12618   */\n      sub\n        /* \"#utility.yul\":12594:12595   */\n      0x00\n        /* \"#utility.yul\":12583:12592   */\n      dup4\n        /* \"#utility.yul\":12579:12596   */\n      add\n        /* \"#utility.yul\":12572:12619   */\n      mstore\n        /* \"#utility.yul\":12636:12767   */\n      tag_426\n        /* \"#utility.yul\":12762:12766   */\n      dup2\n        /* \"#utility.yul\":12636:12767   */\n      tag_380\n      jump\t// in\n    tag_426:\n        /* \"#utility.yul\":12628:12767   */\n      swap1\n      pop\n        /* \"#utility.yul\":12355:12774   */\n      swap2\n      swap1\n      pop\n      jump\t// out\n        /* \"#utility.yul\":12780:13199   */\n    tag_179:\n        /* \"#utility.yul\":12946:12950   */\n      0x00\n        /* \"#utility.yul\":12984:12986   */\n      0x20\n        /* \"#utility.yul\":12973:12982   */\n      dup3\n        /* \"#utility.yul\":12969:12987   */\n      add\n        /* \"#utility.yul\":12961:12987   */\n      swap1\n      pop\n        /* \"#utility.yul\":13033:13042   */\n      dup2\n        /* \"#utility.yul\":13027:13031   */\n      dup2\n        /* \"#utility.yul\":13023:13043   */\n      sub\n        /* \"#utility.yul\":13019:13020   */\n      0x00\n        /* \"#utility.yul\":13008:13017   */\n      dup4\n        /* \"#utility.yul\":13004:13021   */\n      add\n        /* \"#utility.yul\":12997:13044   */\n      mstore\n        /* \"#utility.yul\":13061:13192   */\n      tag_428\n        /* \"#utility.yul\":13187:13191   */\n      dup2\n        /* \"#utility.yul\":13061:13192   */\n      tag_385\n      jump\t// in\n    tag_428:\n        /* \"#utility.yul\":13053:13192   */\n      swap1\n      pop\n        /* \"#utility.yul\":12780:13199   */\n      swap2\n      swap1\n      pop\n      jump\t// out\n        /* \"#utility.yul\":13205:13624   */\n    tag_256:\n        /* \"#utility.yul\":13371:13375   */\n      0x00\n        /* \"#utility.yul\":13409:13411   */\n      0x20\n        /* \"#utility.yul\":13398:13407   */\n      dup3\n        /* \"#utility.yul\":13394:13412   */\n      add\n        /* \"#utility.yul\":13386:13412   */\n      swap1\n      pop\n        /* \"#utility.yul\":13458:13467   */\n      dup2\n        /* \"#utility.yul\":13452:13456   */\n      dup2\n        /* \"#utility.yul\":13448:13468   */\n      sub\n        /* \"#utility.yul\":13444:13445   */\n      0x00\n        /* \"#utility.yul\":13433:13442   */\n      dup4\n        /* \"#utility.yul\":13429:13446   */\n      add\n        /* \"#utility.yul\":13422:13469   */\n      mstore\n        /* \"#utility.yul\":13486:13617   */\n      tag_430\n        /* \"#utility.yul\":13612:13616   */\n      dup2\n        /* \"#utility.yul\":13486:13617   */\n      tag_390\n      jump\t// in\n    tag_430:\n        /* \"#utility.yul\":13478:13617   */\n      swap1\n      pop\n        /* \"#utility.yul\":13205:13624   */\n      swap2\n      swap1\n      pop\n      jump\t// out\n        /* \"#utility.yul\":13630:14049   */\n    tag_193:\n        /* \"#utility.yul\":13796:13800   */\n      0x00\n        /* \"#utility.yul\":13834:13836   */\n      0x20\n        /* \"#utility.yul\":13823:13832   */\n      dup3\n        /* \"#utility.yul\":13819:13837   */\n      add\n        /* \"#utility.yul\":13811:13837   */\n      swap1\n      pop\n        /* \"#utility.yul\":13883:13892   */\n      dup2\n        /* \"#utility.yul\":13877:13881   */\n      dup2\n        /* \"#utility.yul\":13873:13893   */\n      sub\n        /* \"#utility.yul\":13869:13870   */\n      0x00\n        /* \"#utility.yul\":13858:13867   */\n      dup4\n        /* \"#utility.yul\":13854:13871   */\n      add\n        /* \"#utility.yul\":13847:13894   */\n      mstore\n        /* \"#utility.yul\":13911:14042   */\n      tag_432\n        /* \"#utility.yul\":14037:14041   */\n      dup2\n        /* \"#utility.yul\":13911:14042   */\n      tag_395\n      jump\t// in\n    tag_432:\n        /* \"#utility.yul\":13903:14042   */\n      swap1\n      pop\n        /* \"#utility.yul\":13630:14049   */\n      swap2\n      swap1\n      pop\n      jump\t// out\n        /* \"#utility.yul\":14055:14277   */\n    tag_30:\n        /* \"#utility.yul\":14148:14152   */\n      0x00\n        /* \"#utility.yul\":14186:14188   */\n      0x20\n        /* \"#utility.yul\":14175:14184   */\n      dup3\n        /* \"#utility.yul\":14171:14189   */\n      add\n        /* \"#utility.yul\":14163:14189   */\n      swap1\n      pop\n        /* \"#utility.yul\":14199:14270   */\n      tag_434\n        /* \"#utility.yul\":14267:14268   */\n      0x00\n        /* \"#utility.yul\":14256:14265   */\n      dup4\n        /* \"#utility.yul\":14252:14269   */\n      add\n        /* \"#utility.yul\":14243:14249   */\n      dup5\n        /* \"#utility.yul\":14199:14270   */\n      tag_400\n      jump\t// in\n    tag_434:\n        /* \"#utility.yul\":14055:14277   */\n      swap3\n      swap2\n      pop\n      pop\n      jump\t// out\n        /* \"#utility.yul\":14364:14533   */\n    tag_357:\n        /* \"#utility.yul\":14448:14459   */\n      0x00\n        /* \"#utility.yul\":14482:14488   */\n      dup3\n        /* \"#utility.yul\":14477:14480   */\n      dup3\n        /* \"#utility.yul\":14470:14489   */\n      mstore\n        /* \"#utility.yul\":14522:14526   */\n      0x20\n        /* \"#utility.yul\":14517:14520   */\n      dup3\n        /* \"#utility.yul\":14513:14527   */\n      add\n        /* \"#utility.yul\":14498:14527   */\n      swap1\n      pop\n        /* \"#utility.yul\":14364:14533   */\n      swap3\n      swap2\n      pop\n      pop\n      jump\t// out\n        /* \"#utility.yul\":14539:14844   */\n    tag_184:\n        /* \"#utility.yul\":14579:14582   */\n      0x00\n        /* \"#utility.yul\":14598:14618   */\n      tag_439\n        /* \"#utility.yul\":14616:14617   */\n      dup3\n        /* \"#utility.yul\":14598:14618   */\n      tag_403\n      jump\t// in\n    tag_439:\n        /* \"#utility.yul\":14593:14618   */\n      swap2\n      pop\n        /* \"#utility.yul\":14632:14652   */\n      tag_440\n        /* \"#utility.yul\":14650:14651   */\n      dup4\n        /* \"#utility.yul\":14632:14652   */\n      tag_403\n      jump\t// in\n    tag_440:\n        /* \"#utility.yul\":14627:14652   */\n      swap3\n      pop\n        /* \"#utility.yul\":14786:14787   */\n      dup3\n        /* \"#utility.yul\":14718:14784   */\n      0xffffffffffffffffffffffffffffffffffffffffffffffffffffffffffffffff\n        /* \"#utility.yul\":14714:14788   */\n      sub\n        /* \"#utility.yul\":14711:14712   */\n      dup3\n        /* \"#utility.yul\":14708:14789   */\n      gt\n        /* \"#utility.yul\":14705:14812   */\n      iszero\n      tag_441\n      jumpi\n        /* \"#utility.yul\":14792:14810   */\n      tag_442\n      tag_443\n      jump\t// in\n    tag_442:\n        /* \"#utility.yul\":14705:14812   */\n    tag_441:\n        /* \"#utility.yul\":14836:14837   */\n      dup3\n        /* \"#utility.yul\":14833:14834   */\n      dup3\n        /* \"#utility.yul\":14829:14838   */\n      add\n        /* \"#utility.yul\":14822:14838   */\n      swap1\n      pop\n        /* \"#utility.yul\":14539:14844   */\n      swap3\n      swap2\n      pop\n      pop\n      jump\t// out\n        /* \"#utility.yul\":14850:15035   */\n    tag_262:\n        /* \"#utility.yul\":14890:14891   */\n      0x00\n        /* \"#utility.yul\":14907:14927   */\n      tag_445\n        /* \"#utility.yul\":14925:14926   */\n      dup3\n        /* \"#utility.yul\":14907:14927   */\n      tag_403\n      jump\t// in\n    tag_445:\n        /* \"#utility.yul\":14902:14927   */\n      swap2\n      pop\n        /* \"#utility.yul\":14941:14961   */\n      tag_446\n        /* \"#utility.yul\":14959:14960   */\n      dup4\n        /* \"#utility.yul\":14941:14961   */\n      tag_403\n      jump\t// in\n    tag_446:\n        /* \"#utility.yul\":14936:14961   */\n      swap3\n      pop\n        /* \"#utility.yul\":14980:14981   */\n      dup3\n        /* \"#utility.yul\":14970:15005   */\n      tag_447\n      jumpi\n        /* \"#utility.yul\":14985:15003   */\n      tag_448\n      tag_449\n      jump\t// in\n    tag_448:\n        /* \"#utility.yul\":14970:15005   */\n    tag_447:\n        /* \"#utility.yul\":15027:15028   */\n      dup3\n        /* \"#utility.yul\":15024:15025   */\n      dup3\n        /* \"#utility.yul\":15020:15029   */\n      div\n        /* \"#utility.yul\":15015:15029   */\n      swap1\n      pop\n        /* \"#utility.yul\":14850:15035   */\n      swap3\n      swap2\n      pop\n      pop\n      jump\t// out\n        /* \"#utility.yul\":15041:15389   */\n    tag_259:\n        /* \"#utility.yul\":15081:15088   */\n      0x00\n        /* \"#utility.yul\":15104:15124   */\n      tag_451\n        /* \"#utility.yul\":15122:15123   */\n      dup3\n        /* \"#utility.yul\":15104:15124   */\n      tag_403\n      jump\t// in\n    tag_451:\n        /* \"#utility.yul\":15099:15124   */\n      swap2\n      pop\n        /* \"#utility.yul\":15138:15158   */\n      tag_452\n        /* \"#utility.yul\":15156:15157   */\n      dup4\n        /* \"#utility.yul\":15138:15158   */\n      tag_403\n      jump\t// in\n    tag_452:\n        /* \"#utility.yul\":15133:15158   */\n      swap3\n      pop\n        /* \"#utility.yul\":15326:15327   */\n      dup2\n        /* \"#utility.yul\":15258:15324   */\n      0xffffffffffffffffffffffffffffffffffffffffffffffffffffffffffffffff\n        /* \"#utility.yul\":15254:15328   */\n      div\n        /* \"#utility.yul\":15251:15252   */\n      dup4\n        /* \"#utility.yul\":15248:15329   */\n      gt\n        /* \"#utility.yul\":15243:15244   */\n      dup3\n        /* \"#utility.yul\":15236:15245   */\n      iszero\n        /* \"#utility.yul\":15229:15246   */\n      iszero\n        /* \"#utility.yul\":15225:15330   */\n      and\n        /* \"#utility.yul\":15222:15353   */\n      iszero\n      tag_453\n      jumpi\n        /* \"#utility.yul\":15333:15351   */\n      tag_454\n      tag_443\n      jump\t// in\n    tag_454:\n        /* \"#utility.yul\":15222:15353   */\n    tag_453:\n        /* \"#utility.yul\":15381:15382   */\n      dup3\n        /* \"#utility.yul\":15378:15379   */\n      dup3\n        /* \"#utility.yul\":15374:15383   */\n      mul\n        /* \"#utility.yul\":15363:15383   */\n      swap1\n      pop\n        /* \"#utility.yul\":15041:15389   */\n      swap3\n      swap2\n      pop\n      pop\n      jump\t// out\n        /* \"#utility.yul\":15395:15586   */\n    tag_205:\n        /* \"#utility.yul\":15435:15439   */\n      0x00\n        /* \"#utility.yul\":15455:15475   */\n      tag_456\n        /* \"#utility.yul\":15473:15474   */\n      dup3\n        /* \"#utility.yul\":15455:15475   */\n      tag_403\n      jump\t// in\n    tag_456:\n        /* \"#utility.yul\":15450:15475   */\n      swap2\n      pop\n        /* \"#utility.yul\":15489:15509   */\n      tag_457\n        /* \"#utility.yul\":15507:15508   */\n      dup4\n        /* \"#utility.yul\":15489:15509   */\n      tag_403\n      jump\t// in\n    tag_457:\n        /* \"#utility.yul\":15484:15509   */\n      swap3\n      pop\n        /* \"#utility.yul\":15528:15529   */\n      dup3\n        /* \"#utility.yul\":15525:15526   */\n      dup3\n        /* \"#utility.yul\":15522:15530   */\n      lt\n        /* \"#utility.yul\":15519:15553   */\n      iszero\n      tag_458\n      jumpi\n        /* \"#utility.yul\":15533:15551   */\n      tag_459\n      tag_443\n      jump\t// in\n    tag_459:\n        /* \"#utility.yul\":15519:15553   */\n    tag_458:\n        /* \"#utility.yul\":15578:15579   */\n      dup3\n        /* \"#utility.yul\":15575:15576   */\n      dup3\n        /* \"#utility.yul\":15571:15580   */\n      sub\n        /* \"#utility.yul\":15563:15580   */\n      swap1\n      pop\n        /* \"#utility.yul\":15395:15586   */\n      swap3\n      swap2\n      pop\n      pop\n      jump\t// out\n        /* \"#utility.yul\":15592:15688   */\n    tag_345:\n        /* \"#utility.yul\":15629:15636   */\n      0x00\n        /* \"#utility.yul\":15658:15682   */\n      tag_461\n        /* \"#utility.yul\":15676:15681   */\n      dup3\n        /* \"#utility.yul\":15658:15682   */\n      tag_462\n      jump\t// in\n    tag_461:\n        /* \"#utility.yul\":15647:15682   */\n      swap1\n      pop\n        /* \"#utility.yul\":15592:15688   */\n      swap2\n      swap1\n      pop\n      jump\t// out\n        /* \"#utility.yul\":15694:15798   */\n    tag_341:\n        /* \"#utility.yul\":15739:15746   */\n      0x00\n        /* \"#utility.yul\":15768:15792   */\n      tag_464\n        /* \"#utility.yul\":15786:15791   */\n      dup3\n        /* \"#utility.yul\":15768:15792   */\n      tag_462\n      jump\t// in\n    tag_464:\n        /* \"#utility.yul\":15757:15792   */\n      swap1\n      pop\n        /* \"#utility.yul\":15694:15798   */\n      swap2\n      swap1\n      pop\n      jump\t// out\n        /* \"#utility.yul\":15804:15894   */\n    tag_349:\n        /* \"#utility.yul\":15838:15845   */\n      0x00\n        /* \"#utility.yul\":15881:15886   */\n      dup2\n        /* \"#utility.yul\":15874:15887   */\n      iszero\n        /* \"#utility.yul\":15867:15888   */\n      iszero\n        /* \"#utility.yul\":15856:15888   */\n      swap1\n      pop\n        /* \"#utility.yul\":15804:15894   */\n      swap2\n      swap1\n      pop\n      jump\t// out\n        /* \"#utility.yul\":15900:16026   */\n    tag_462:\n        /* \"#utility.yul\":15937:15944   */\n      0x00\n        /* \"#utility.yul\":15977:16019   */\n      0xffffffffffffffffffffffffffffffffffffffff\n        /* \"#utility.yul\":15970:15975   */\n      dup3\n        /* \"#utility.yul\":15966:16020   */\n      and\n        /* \"#utility.yul\":15955:16020   */\n      swap1\n      pop\n        /* \"#utility.yul\":15900:16026   */\n      swap2\n      swap1\n      pop\n      jump\t// out\n        /* \"#utility.yul\":16032:16109   */\n    tag_403:\n        /* \"#utility.yul\":16069:16076   */\n      0x00\n        /* \"#utility.yul\":16098:16103   */\n      dup2\n        /* \"#utility.yul\":16087:16103   */\n      swap1\n      pop\n        /* \"#utility.yul\":16032:16109   */\n      swap2\n      swap1\n      pop\n      jump\t// out\n        /* \"#utility.yul\":16115:16249   */\n    tag_337:\n        /* \"#utility.yul\":16173:16182   */\n      0x00\n        /* \"#utility.yul\":16206:16243   */\n      tag_469\n        /* \"#utility.yul\":16237:16242   */\n      dup3\n        /* \"#utility.yul\":16206:16243   */\n      tag_470\n      jump\t// in\n    tag_469:\n        /* \"#utility.yul\":16193:16243   */\n      swap1\n      pop\n        /* \"#utility.yul\":16115:16249   */\n      swap2\n      swap1\n      pop\n      jump\t// out\n        /* \"#utility.yul\":16255:16395   */\n    tag_353:\n        /* \"#utility.yul\":16319:16328   */\n      0x00\n        /* \"#utility.yul\":16352:16389   */\n      tag_472\n        /* \"#utility.yul\":16383:16388   */\n      dup3\n        /* \"#utility.yul\":16352:16389   */\n      tag_470\n      jump\t// in\n    tag_472:\n        /* \"#utility.yul\":16339:16389   */\n      swap1\n      pop\n        /* \"#utility.yul\":16255:16395   */\n      swap2\n      swap1\n      pop\n      jump\t// out\n        /* \"#utility.yul\":16401:16527   */\n    tag_470:\n        /* \"#utility.yul\":16451:16460   */\n      0x00\n        /* \"#utility.yul\":16484:16521   */\n      tag_474\n        /* \"#utility.yul\":16515:16520   */\n      dup3\n        /* \"#utility.yul\":16484:16521   */\n      tag_475\n      jump\t// in\n    tag_474:\n        /* \"#utility.yul\":16471:16521   */\n      swap1\n      pop\n        /* \"#utility.yul\":16401:16527   */\n      swap2\n      swap1\n      pop\n      jump\t// out\n        /* \"#utility.yul\":16533:16646   */\n    tag_475:\n        /* \"#utility.yul\":16583:16592   */\n      0x00\n        /* \"#utility.yul\":16616:16640   */\n      tag_477\n        /* \"#utility.yul\":16634:16639   */\n      dup3\n        /* \"#utility.yul\":16616:16640   */\n      tag_462\n      jump\t// in\n    tag_477:\n        /* \"#utility.yul\":16603:16640   */\n      swap1\n      pop\n        /* \"#utility.yul\":16533:16646   */\n      swap2\n      swap1\n      pop\n      jump\t// out\n        /* \"#utility.yul\":16652:16832   */\n    tag_443:\n        /* \"#utility.yul\":16700:16777   */\n      0x4e487b7100000000000000000000000000000000000000000000000000000000\n        /* \"#utility.yul\":16697:16698   */\n      0x00\n        /* \"#utility.yul\":16690:16778   */\n      mstore\n        /* \"#utility.yul\":16797:16801   */\n      0x11\n        /* \"#utility.yul\":16794:16795   */\n      0x04\n        /* \"#utility.yul\":16787:16802   */\n      mstore\n        /* \"#utility.yul\":16821:16825   */\n      0x24\n        /* \"#utility.yul\":16818:16819   */\n      0x00\n        /* \"#utility.yul\":16811:16826   */\n      revert\n        /* \"#utility.yul\":16838:17018   */\n    tag_449:\n        /* \"#utility.yul\":16886:16963   */\n      0x4e487b7100000000000000000000000000000000000000000000000000000000\n        /* \"#utility.yul\":16883:16884   */\n      0x00\n        /* \"#utility.yul\":16876:16964   */\n      mstore\n        /* \"#utility.yul\":16983:16987   */\n      0x12\n        /* \"#utility.yul\":16980:16981   */\n      0x04\n        /* \"#utility.yul\":16973:16988   */\n      mstore\n        /* \"#utility.yul\":17007:17011   */\n      0x24\n        /* \"#utility.yul\":17004:17005   */\n      0x00\n        /* \"#utility.yul\":16997:17012   */\n      revert\n        /* \"#utility.yul\":17147:17264   */\n    tag_298:\n        /* \"#utility.yul\":17256:17257   */\n      0x00\n        /* \"#utility.yul\":17253:17254   */\n      dup1\n        /* \"#utility.yul\":17246:17258   */\n      revert\n        /* \"#utility.yul\":17270:17494   */\n    tag_359:\n        /* \"#utility.yul\":17410:17444   */\n      0x4f6e6c7920746865206f776e65722063616e2063616c6c20746869732066756e\n        /* \"#utility.yul\":17406:17407   */\n      0x00\n        /* \"#utility.yul\":17398:17404   */\n      dup3\n        /* \"#utility.yul\":17394:17408   */\n      add\n        /* \"#utility.yul\":17387:17445   */\n      mstore\n        /* \"#utility.yul\":17479:17486   */\n      0x6374696f6e000000000000000000000000000000000000000000000000000000\n        /* \"#utility.yul\":17474:17476   */\n      0x20\n        /* \"#utility.yul\":17466:17472   */\n      dup3\n        /* \"#utility.yul\":17462:17477   */\n      add\n        /* \"#utility.yul\":17455:17487   */\n      mstore\n        /* \"#utility.yul\":17270:17494   */\n      pop\n      jump\t// out\n        /* \"#utility.yul\":17500:17670   */\n    tag_364:\n        /* \"#utility.yul\":17640:17662   */\n      0x5061757361626c653a206e6f7420706175736564000000000000000000000000\n        /* \"#utility.yul\":17636:17637   */\n      0x00\n        /* \"#utility.yul\":17628:17634   */\n      dup3\n        /* \"#utility.yul\":17624:17638   */\n      add\n        /* \"#utility.yul\":17617:17663   */\n      mstore\n        /* \"#utility.yul\":17500:17670   */\n      pop\n      jump\t// out\n        /* \"#utility.yul\":17676:17842   */\n    tag_369:\n        /* \"#utility.yul\":17816:17834   */\n      0x5061757361626c653a2070617573656400000000000000000000000000000000\n        /* \"#utility.yul\":17812:17813   */\n      0x00\n        /* \"#utility.yul\":17804:17810   */\n      dup3\n        /* \"#utility.yul\":17800:17814   */\n      add\n        /* \"#utility.yul\":17793:17835   */\n      mstore\n        /* \"#utility.yul\":17676:17842   */\n      pop\n      jump\t// out\n        /* \"#utility.yul\":17848:18019   */\n    tag_374:\n        /* \"#utility.yul\":17988:18011   */\n      0x416d6f756e742063616e6e6f74206265207a65726f0000000000000000000000\n        /* \"#utility.yul\":17984:17985   */\n      0x00\n        /* \"#utility.yul\":17976:17982   */\n      dup3\n        /* \"#utility.yul\":17972:17986   */\n      add\n        /* \"#utility.yul\":17965:18012   */\n      mstore\n        /* \"#utility.yul\":17848:18019   */\n      pop\n      jump\t// out\n        /* \"#utility.yul\":18025:18246   */\n    tag_379:\n        /* \"#utility.yul\":18165:18199   */\n      0x42656e65666963696172792063616e6e6f74206265207a65726f206164647265\n        /* \"#utility.yul\":18161:18162   */\n      0x00\n        /* \"#utility.yul\":18153:18159   */\n      dup3\n        /* \"#utility.yul\":18149:18163   */\n      add\n        /* \"#utility.yul\":18142:18200   */\n      mstore\n        /* \"#utility.yul\":18234:18238   */\n      0x7373000000000000000000000000000000000000000000000000000000000000\n        /* \"#utility.yul\":18229:18231   */\n      0x20\n        /* \"#utility.yul\":18221:18227   */\n      dup3\n        /* \"#utility.yul\":18217:18232   */\n      add\n        /* \"#utility.yul\":18210:18239   */\n      mstore\n        /* \"#utility.yul\":18025:18246   */\n      pop\n      jump\t// out\n        /* \"#utility.yul\":18252:18544   */\n    tag_384:\n        /* \"#utility.yul\":18392:18426   */\n      0x546865207769746864726177616c20616d6f756e742065786365656473207468\n        /* \"#utility.yul\":18388:18389   */\n      0x00\n        /* \"#utility.yul\":18380:18386   */\n      dup3\n        /* \"#utility.yul\":18376:18390   */\n      add\n        /* \"#utility.yul\":18369:18427   */\n      mstore\n        /* \"#utility.yul\":18461:18495   */\n      0x65206c696d6974206f722064656c617920686173206e6f742070617373656420\n        /* \"#utility.yul\":18456:18458   */\n      0x20\n        /* \"#utility.yul\":18448:18454   */\n      dup3\n        /* \"#utility.yul\":18444:18459   */\n      add\n        /* \"#utility.yul\":18437:18496   */\n      mstore\n        /* \"#utility.yul\":18530:18536   */\n      0x7965742e00000000000000000000000000000000000000000000000000000000\n        /* \"#utility.yul\":18525:18527   */\n      0x40\n        /* \"#utility.yul\":18517:18523   */\n      dup3\n        /* \"#utility.yul\":18513:18528   */\n      add\n        /* \"#utility.yul\":18506:18537   */\n      mstore\n        /* \"#utility.yul\":18252:18544   */\n      pop\n      jump\t// out\n        /* \"#utility.yul\":18550:18793   */\n    tag_389:\n        /* \"#utility.yul\":18690:18724   */\n      0x4f6e6c7920746865206f776e6572206f72207468652062656e65666963696172\n        /* \"#utility.yul\":18686:18687   */\n      0x00\n        /* \"#utility.yul\":18678:18684   */\n      dup3\n        /* \"#utility.yul\":18674:18688   */\n      add\n        /* \"#utility.yul\":18667:18725   */\n      mstore\n        /* \"#utility.yul\":18759:18785   */\n      0x792063616e2063616c6c20746869732066756e6374696f6e0000000000000000\n        /* \"#utility.yul\":18754:18756   */\n      0x20\n        /* \"#utility.yul\":18746:18752   */\n      dup3\n        /* \"#utility.yul\":18742:18757   */\n      add\n        /* \"#utility.yul\":18735:18786   */\n      mstore\n        /* \"#utility.yul\":18550:18793   */\n      pop\n      jump\t// out\n        /* \"#utility.yul\":18799:18980   */\n    tag_394:\n        /* \"#utility.yul\":18939:18972   */\n      0x5265656e7472616e637947756172643a207265656e7472616e742063616c6c00\n        /* \"#utility.yul\":18935:18936   */\n      0x00\n        /* \"#utility.yul\":18927:18933   */\n      dup3\n        /* \"#utility.yul\":18923:18937   */\n      add\n        /* \"#utility.yul\":18916:18973   */\n      mstore\n        /* \"#utility.yul\":18799:18980   */\n      pop\n      jump\t// out\n        /* \"#utility.yul\":18986:19155   */\n    tag_399:\n        /* \"#utility.yul\":19126:19147   */\n      0x496e73756666696369656e742066756e64732e00000000000000000000000000\n        /* \"#utility.yul\":19122:19123   */\n      0x00\n        /* \"#utility.yul\":19114:19120   */\n      dup3\n        /* \"#utility.yul\":19110:19124   */\n      add\n        /* \"#utility.yul\":19103:19148   */\n      mstore\n        /* \"#utility.yul\":18986:19155   */\n      pop\n      jump\t// out\n        /* \"#utility.yul\":19161:19283   */\n    tag_276:\n        /* \"#utility.yul\":19234:19258   */\n      tag_493\n        /* \"#utility.yul\":19252:19257   */\n      dup2\n        /* \"#utility.yul\":19234:19258   */\n      tag_345\n      jump\t// in\n    tag_493:\n        /* \"#utility.yul\":19227:19232   */\n      dup2\n        /* \"#utility.yul\":19224:19259   */\n      eq\n        /* \"#utility.yul\":19214:19277   */\n      tag_494\n      jumpi\n        /* \"#utility.yul\":19273:19274   */\n      0x00\n        /* \"#utility.yul\":19270:19271   */\n      dup1\n        /* \"#utility.yul\":19263:19275   */\n      revert\n        /* \"#utility.yul\":19214:19277   */\n    tag_494:\n        /* \"#utility.yul\":19161:19283   */\n      pop\n      jump\t// out\n        /* \"#utility.yul\":19289:19427   */\n    tag_280:\n        /* \"#utility.yul\":19370:19402   */\n      tag_496\n        /* \"#utility.yul\":19396:19401   */\n      dup2\n        /* \"#utility.yul\":19370:19402   */\n      tag_341\n      jump\t// in\n    tag_496:\n        /* \"#utility.yul\":19363:19368   */\n      dup2\n        /* \"#utility.yul\":19360:19403   */\n      eq\n        /* \"#utility.yul\":19350:19421   */\n      tag_497\n      jumpi\n        /* \"#utility.yul\":19417:19418   */\n      0x00\n        /* \"#utility.yul\":19414:19415   */\n      dup1\n        /* \"#utility.yul\":19407:19419   */\n      revert\n        /* \"#utility.yul\":19350:19421   */\n    tag_497:\n        /* \"#utility.yul\":19289:19427   */\n      pop\n      jump\t// out\n        /* \"#utility.yul\":19433:19549   */\n    tag_284:\n        /* \"#utility.yul\":19503:19524   */\n      tag_499\n        /* \"#utility.yul\":19518:19523   */\n      dup2\n        /* \"#utility.yul\":19503:19524   */\n      tag_349\n      jump\t// in\n    tag_499:\n        /* \"#utility.yul\":19496:19501   */\n      dup2\n        /* \"#utility.yul\":19493:19525   */\n      eq\n        /* \"#utility.yul\":19483:19543   */\n      tag_500\n      jumpi\n        /* \"#utility.yul\":19539:19540   */\n      0x00\n        /* \"#utility.yul\":19536:19537   */\n      dup1\n        /* \"#utility.yul\":19529:19541   */\n      revert\n        /* \"#utility.yul\":19483:19543   */\n    tag_500:\n        /* \"#utility.yul\":19433:19549   */\n      pop\n      jump\t// out\n        /* \"#utility.yul\":19555:19677   */\n    tag_291:\n        /* \"#utility.yul\":19628:19652   */\n      tag_502\n        /* \"#utility.yul\":19646:19651   */\n      dup2\n        /* \"#utility.yul\":19628:19652   */\n      tag_403\n      jump\t// in\n    tag_502:\n        /* \"#utility.yul\":19621:19626   */\n      dup2\n        /* \"#utility.yul\":19618:19653   */\n      eq\n        /* \"#utility.yul\":19608:19671   */\n      tag_503\n      jumpi\n        /* \"#utility.yul\":19667:19668   */\n      0x00\n        /* \"#utility.yul\":19664:19665   */\n      dup1\n        /* \"#utility.yul\":19657:19669   */\n      revert\n        /* \"#utility.yul\":19608:19671   */\n    tag_503:\n        /* \"#utility.yul\":19555:19677   */\n      pop\n      jump\t// out\n\n    auxdata: 0xa2646970667358221220dbd7287b52aee98cf54e5e593bd1e3ba915189d9eb5e6899080d48a3b4f84c7364736f6c63430008070033\n}\n",
				"bytecode": {
					"linkReferences": {},
					"object": "60806040523480156200001157600080fd5b506040516200211738038062002117833981810160405281019062000037919062000114565b60008060006101000a81548160ff0219169083151502179055506001808190555080600360006101000a81548173ffffffffffffffffffffffffffffffffffffffff021916908373ffffffffffffffffffffffffffffffffffffffff1602179055506001600a8190555073ca3c4df107a315de8545fb715917cae4f6af8bf1600660006101000a81548173ffffffffffffffffffffffffffffffffffffffff021916908373ffffffffffffffffffffffffffffffffffffffff1602179055505062000199565b6000815190506200010e816200017f565b92915050565b6000602082840312156200012d576200012c6200017a565b5b60006200013d84828501620000fd565b91505092915050565b600062000153826200015a565b9050919050565b600073ffffffffffffffffffffffffffffffffffffffff82169050919050565b600080fd5b6200018a8162000146565b81146200019657600080fd5b50565b611f6e80620001a96000396000f3fe60806040526004361061012e5760003560e01c806376a67a51116100ab5780639e1a4d191161006f5780639e1a4d191461048e578063c6a62290146104b9578063cc4aa204146104e4578063d4fb7e2d1461050f578063f5c91a0b1461054c578063fce33f01146105775761019a565b806376a67a51146103bb5780637a80760e146103e4578063836b1aff1461040f5780638da5cb5b1461043857806394a927fe146104635761019a565b80634bfffc86116100f25780634bfffc86146102e857806356e0a3611461031357806357b001f91461033c5780635c975abb146103655780636a42b8f8146103905761019a565b80630a84aac5146102015780631903b4311461022a57806323658af41461026757806328af53fa1461029257806338af3eed146102bd5761019a565b3661019a573373ffffffffffffffffffffffffffffffffffffffff163073ffffffffffffffffffffffffffffffffffffffff167f5548c837ab068cf56a2c2479df0882a4922fd203edb7517321831d95078c5f62346040516101909190611a67565b60405180910390a3005b3373ffffffffffffffffffffffffffffffffffffffff163073ffffffffffffffffffffffffffffffffffffffff167f5548c837ab068cf56a2c2479df0882a4922fd203edb7517321831d95078c5f62346040516101f79190611a67565b60405180910390a3005b34801561020d57600080fd5b5061022860048036038101906102239190611550565b6105b4565b005b34801561023657600080fd5b50610251600480360381019061024c91906115d0565b61070a565b60405161025e9190611a67565b60405180910390f35b34801561027357600080fd5b5061027c6107ac565b60405161028991906118b2565b60405180910390f35b34801561029e57600080fd5b506102a76107d6565b6040516102b49190611a67565b60405180910390f35b3480156102c957600080fd5b506102d26107dc565b6040516102df91906118cd565b60405180910390f35b3480156102f457600080fd5b506102fd610802565b60405161030a9190611a67565b60405180910390f35b34801561031f57600080fd5b5061033a600480360381019061033591906116ca565b61080c565b005b34801561034857600080fd5b50610363600480360381019061035e9190611523565b61092b565b005b34801561037157600080fd5b5061037a6109c8565b6040516103879190611911565b60405180910390f35b34801561039c57600080fd5b506103a56109de565b6040516103b29190611a67565b60405180910390f35b3480156103c757600080fd5b506103e260048036038101906103dd9190611523565b6109e4565b005b3480156103f057600080fd5b506103f9610a81565b60405161040691906118cd565b60405180910390f35b34801561041b57600080fd5b5061043660048036038101906104319190611610565b610aa7565b005b34801561044457600080fd5b5061044d6111ba565b60405161045a91906118cd565b60405180910390f35b34801561046f57600080fd5b506104786111e0565b60405161048591906118b2565b60405180910390f35b34801561049a57600080fd5b506104a361120a565b6040516104b09190611a67565b60405180910390f35b3480156104c557600080fd5b506104ce611210565b6040516104db9190611a67565b60405180910390f35b3480156104f057600080fd5b506104f961121a565b604051610506919061192c565b60405180910390f35b34801561051b57600080fd5b5061053660048036038101906105319190611523565b611240565b6040516105439190611a67565b60405180910390f35b34801561055857600080fd5b50610561611289565b60405161056e9190611a67565b60405180910390f35b34801561058357600080fd5b5061059e60048036038101906105999190611523565b611293565b6040516105ab9190611a67565b60405180910390f35b80600360009054906101000a900473ffffffffffffffffffffffffffffffffffffffff1673ffffffffffffffffffffffffffffffffffffffff168173ffffffffffffffffffffffffffffffffffffffff1614610645576040517f08c379a000000000000000000000000000000000000000000000000000000000815260040161063c90611947565b60405180910390fd5b600073ffffffffffffffffffffffffffffffffffffffff168473ffffffffffffffffffffffffffffffffffffffff1614156106b5576040517f08c379a00000000000000000000000000000000000000000000000000000000081526004016106ac906119c7565b60405180910390fd5b83600460006101000a81548173ffffffffffffffffffffffffffffffffffffffff021916908373ffffffffffffffffffffffffffffffffffffffff160217905550826008819055504260078190555050505050565b6000821561071a574790506107a6565b8173ffffffffffffffffffffffffffffffffffffffff166370a08231306040518263ffffffff1660e01b815260040161075391906118b2565b60206040518083038186803b15801561076b57600080fd5b505afa15801561077f573d6000803e3d6000fd5b505050506040513d601f19601f820116820180604052508101906107a3919061169d565b90505b92915050565b6000600460009054906101000a900473ffffffffffffffffffffffffffffffffffffffff16905090565b60075481565b600460009054906101000a900473ffffffffffffffffffffffffffffffffffffffff1681565b6000600754905090565b80600360009054906101000a900473ffffffffffffffffffffffffffffffffffffffff1673ffffffffffffffffffffffffffffffffffffffff168173ffffffffffffffffffffffffffffffffffffffff161461089d576040517f08c379a000000000000000000000000000000000000000000000000000000000815260040161089490611947565b60405180910390fd5b60008414156108e1576040517f08c379a00000000000000000000000000000000000000000000000000000000081526004016108d8906119a7565b60405180910390fd5b83600c60008573ffffffffffffffffffffffffffffffffffffffff1673ffffffffffffffffffffffffffffffffffffffff1681526020019081526020016000208190555050505050565b80600360009054906101000a900473ffffffffffffffffffffffffffffffffffffffff1673ffffffffffffffffffffffffffffffffffffffff168173ffffffffffffffffffffffffffffffffffffffff16146109bc576040517f08c379a00000000000000000000000000000000000000000000000000000000081526004016109b390611947565b60405180910390fd5b6109c46112ab565b5050565b60008060009054906101000a900460ff16905090565b60085481565b80600360009054906101000a900473ffffffffffffffffffffffffffffffffffffffff1673ffffffffffffffffffffffffffffffffffffffff168173ffffffffffffffffffffffffffffffffffffffff1614610a75576040517f08c379a0000000000000000000000000000000000000000000000000000000008152600401610a6c90611947565b60405180910390fd5b610a7d61130d565b5050565b600560009054906101000a900473ffffffffffffffffffffffffffffffffffffffff1681565b610aaf61136f565b610ab76113b9565b80600460009054906101000a900473ffffffffffffffffffffffffffffffffffffffff1673ffffffffffffffffffffffffffffffffffffffff168173ffffffffffffffffffffffffffffffffffffffff161480610b615750600360009054906101000a900473ffffffffffffffffffffffffffffffffffffffff1673ffffffffffffffffffffffffffffffffffffffff163373ffffffffffffffffffffffffffffffffffffffff16145b610ba0576040517f08c379a0000000000000000000000000000000000000000000000000000000008152600401610b9790611a07565b60405180910390fd5b600460009054906101000a900473ffffffffffffffffffffffffffffffffffffffff1673ffffffffffffffffffffffffffffffffffffffff163373ffffffffffffffffffffffffffffffffffffffff161415610c9257600c60008473ffffffffffffffffffffffffffffffffffffffff1673ffffffffffffffffffffffffffffffffffffffff1681526020019081526020016000205484111580610c52575042600854600754610c509190611a93565b105b610c91576040517f08c379a0000000000000000000000000000000000000000000000000000000008152600401610c88906119e7565b60405180910390fd5b5b600087610c9f5785610cc3565b600360009054906101000a900473ffffffffffffffffffffffffffffffffffffffff165b90508615610e5d5747851115610d0e576040517f08c379a0000000000000000000000000000000000000000000000000000000008152600401610d0590611a47565b60405180910390fd5b610d366064610d28600a548861140990919063ffffffff16565b61141f90919063ffffffff16565b6009819055508073ffffffffffffffffffffffffffffffffffffffff166108fc610d6b6009548861143590919063ffffffff16565b9081150290604051600060405180830381858888f19350505050158015610d96573d6000803e3d6000fd5b50600660009054906101000a900473ffffffffffffffffffffffffffffffffffffffff1673ffffffffffffffffffffffffffffffffffffffff166108fc6009549081150290604051600060405180830381858888f19350505050158015610e01573d6000803e3d6000fd5b5084600c60008673ffffffffffffffffffffffffffffffffffffffff1673ffffffffffffffffffffffffffffffffffffffff1681526020019081526020016000206000828254610e519190611b74565b925050819055506111a8565b83600260006101000a81548173ffffffffffffffffffffffffffffffffffffffff021916908373ffffffffffffffffffffffffffffffffffffffff160217905550600260009054906101000a900473ffffffffffffffffffffffffffffffffffffffff1673ffffffffffffffffffffffffffffffffffffffff166370a08231306040518263ffffffff1660e01b8152600401610ef991906118b2565b60206040518083038186803b158015610f1157600080fd5b505afa158015610f25573d6000803e3d6000fd5b505050506040513d601f19601f82011682018060405250810190610f49919061169d565b851115610f8b576040517f08c379a0000000000000000000000000000000000000000000000000000000008152600401610f8290611a47565b60405180910390fd5b610fb36064610fa5600a548861140990919063ffffffff16565b61141f90919063ffffffff16565b600981905550600260009054906101000a900473ffffffffffffffffffffffffffffffffffffffff1673ffffffffffffffffffffffffffffffffffffffff1663a9059cbb8261100d6009548961143590919063ffffffff16565b6040518363ffffffff1660e01b815260040161102a9291906118e8565b602060405180830381600087803b15801561104457600080fd5b505af1158015611058573d6000803e3d6000fd5b505050506040513d601f19601f8201168201806040525081019061107c91906115a3565b50600260009054906101000a900473ffffffffffffffffffffffffffffffffffffffff1673ffffffffffffffffffffffffffffffffffffffff1663a9059cbb600660009054906101000a900473ffffffffffffffffffffffffffffffffffffffff166009546040518363ffffffff1660e01b81526004016110fe9291906118e8565b602060405180830381600087803b15801561111857600080fd5b505af115801561112c573d6000803e3d6000fd5b505050506040513d601f19601f8201168201806040525081019061115091906115a3565b5084600c60008673ffffffffffffffffffffffffffffffffffffffff1673ffffffffffffffffffffffffffffffffffffffff16815260200190815260200160002060008282546111a09190611b74565b925050819055505b50506111b261144b565b505050505050565b600360009054906101000a900473ffffffffffffffffffffffffffffffffffffffff1681565b6000600360009054906101000a900473ffffffffffffffffffffffffffffffffffffffff16905090565b600b5481565b6000600854905090565b600260009054906101000a900473ffffffffffffffffffffffffffffffffffffffff1681565b6000600c60008373ffffffffffffffffffffffffffffffffffffffff1673ffffffffffffffffffffffffffffffffffffffff168152602001908152602001600020549050919050565b6000600a54905090565b600c6020528060005260406000206000915090505481565b6112b3611454565b60008060006101000a81548160ff0219169083151502179055507f5db9ee0a495bf2e6ff9c91a7834c1ba4fdd244a5e8aa4e537bd38aeae4b073aa6112f661149d565b60405161130391906118b2565b60405180910390a1565b61131561136f565b60016000806101000a81548160ff0219169083151502179055507f62e78cea01bee320cd4e420270b5ea74000d11b0c9f74754ebdbfc544b05a25861135861149d565b60405161136591906118b2565b60405180910390a1565b6113776109c8565b156113b7576040517f08c379a00000000000000000000000000000000000000000000000000000000081526004016113ae90611987565b60405180910390fd5b565b600260015414156113ff576040517f08c379a00000000000000000000000000000000000000000000000000000000081526004016113f690611a27565b60405180910390fd5b6002600181905550565b600081836114179190611b1a565b905092915050565b6000818361142d9190611ae9565b905092915050565b600081836114439190611b74565b905092915050565b60018081905550565b61145c6109c8565b61149b576040517f08c379a000000000000000000000000000000000000000000000000000000000815260040161149290611967565b60405180910390fd5b565b600033905090565b6000813590506114b481611edc565b92915050565b6000813590506114c981611ef3565b92915050565b6000813590506114de81611f0a565b92915050565b6000815190506114f381611f0a565b92915050565b60008135905061150881611f21565b92915050565b60008151905061151d81611f21565b92915050565b60006020828403121561153957611538611ca8565b5b6000611547848285016114a5565b91505092915050565b60008060006060848603121561156957611568611ca8565b5b6000611577868287016114ba565b9350506020611588868287016114f9565b9250506040611599868287016114a5565b9150509250925092565b6000602082840312156115b9576115b8611ca8565b5b60006115c7848285016114e4565b91505092915050565b600080604083850312156115e7576115e6611ca8565b5b60006115f5858286016114cf565b9250506020611606858286016114a5565b9150509250929050565b60008060008060008060c0878903121561162d5761162c611ca8565b5b600061163b89828a016114cf565b965050602061164c89828a016114cf565b955050604061165d89828a016114ba565b945050606061166e89828a016114f9565b935050608061167f89828a016114a5565b92505060a061169089828a016114a5565b9150509295509295509295565b6000602082840312156116b3576116b2611ca8565b5b60006116c18482850161150e565b91505092915050565b6000806000606084860312156116e3576116e2611ca8565b5b60006116f1868287016114f9565b9350506020611702868287016114a5565b9250506040611713868287016114a5565b9150509250925092565b61172681611c02565b82525050565b61173581611bba565b82525050565b61174481611ba8565b82525050565b61175381611bcc565b82525050565b61176281611c14565b82525050565b6000611775602583611a82565b915061178082611cad565b604082019050919050565b6000611798601483611a82565b91506117a382611cfc565b602082019050919050565b60006117bb601083611a82565b91506117c682611d25565b602082019050919050565b60006117de601583611a82565b91506117e982611d4e565b602082019050919050565b6000611801602283611a82565b915061180c82611d77565b604082019050919050565b6000611824604483611a82565b915061182f82611dc6565b606082019050919050565b6000611847603883611a82565b915061185282611e3b565b604082019050919050565b600061186a601f83611a82565b915061187582611e8a565b602082019050919050565b600061188d601383611a82565b915061189882611eb3565b602082019050919050565b6118ac81611bf8565b82525050565b60006020820190506118c7600083018461173b565b92915050565b60006020820190506118e2600083018461172c565b92915050565b60006040820190506118fd600083018561171d565b61190a60208301846118a3565b9392505050565b6000602082019050611926600083018461174a565b92915050565b60006020820190506119416000830184611759565b92915050565b6000602082019050818103600083015261196081611768565b9050919050565b600060208201905081810360008301526119808161178b565b9050919050565b600060208201905081810360008301526119a0816117ae565b9050919050565b600060208201905081810360008301526119c0816117d1565b9050919050565b600060208201905081810360008301526119e0816117f4565b9050919050565b60006020820190508181036000830152611a0081611817565b9050919050565b60006020820190508181036000830152611a208161183a565b9050919050565b60006020820190508181036000830152611a408161185d565b9050919050565b60006020820190508181036000830152611a6081611880565b9050919050565b6000602082019050611a7c60008301846118a3565b92915050565b600082825260208201905092915050565b6000611a9e82611bf8565b9150611aa983611bf8565b9250827fffffffffffffffffffffffffffffffffffffffffffffffffffffffffffffffff03821115611ade57611add611c4a565b5b828201905092915050565b6000611af482611bf8565b9150611aff83611bf8565b925082611b0f57611b0e611c79565b5b828204905092915050565b6000611b2582611bf8565b9150611b3083611bf8565b9250817fffffffffffffffffffffffffffffffffffffffffffffffffffffffffffffffff0483118215151615611b6957611b68611c4a565b5b828202905092915050565b6000611b7f82611bf8565b9150611b8a83611bf8565b925082821015611b9d57611b9c611c4a565b5b828203905092915050565b6000611bb382611bd8565b9050919050565b6000611bc582611bd8565b9050919050565b60008115159050919050565b600073ffffffffffffffffffffffffffffffffffffffff82169050919050565b6000819050919050565b6000611c0d82611c26565b9050919050565b6000611c1f82611c26565b9050919050565b6000611c3182611c38565b9050919050565b6000611c4382611bd8565b9050919050565b7f4e487b7100000000000000000000000000000000000000000000000000000000600052601160045260246000fd5b7f4e487b7100000000000000000000000000000000000000000000000000000000600052601260045260246000fd5b600080fd5b7f4f6e6c7920746865206f776e65722063616e2063616c6c20746869732066756e60008201527f6374696f6e000000000000000000000000000000000000000000000000000000602082015250565b7f5061757361626c653a206e6f7420706175736564000000000000000000000000600082015250565b7f5061757361626c653a2070617573656400000000000000000000000000000000600082015250565b7f416d6f756e742063616e6e6f74206265207a65726f0000000000000000000000600082015250565b7f42656e65666963696172792063616e6e6f74206265207a65726f20616464726560008201527f7373000000000000000000000000000000000000000000000000000000000000602082015250565b7f546865207769746864726177616c20616d6f756e74206578636565647320746860008201527f65206c696d6974206f722064656c617920686173206e6f74207061737365642060208201527f7965742e00000000000000000000000000000000000000000000000000000000604082015250565b7f4f6e6c7920746865206f776e6572206f72207468652062656e6566696369617260008201527f792063616e2063616c6c20746869732066756e6374696f6e0000000000000000602082015250565b7f5265656e7472616e637947756172643a207265656e7472616e742063616c6c00600082015250565b7f496e73756666696369656e742066756e64732e00000000000000000000000000600082015250565b611ee581611ba8565b8114611ef057600080fd5b50565b611efc81611bba565b8114611f0757600080fd5b50565b611f1381611bcc565b8114611f1e57600080fd5b50565b611f2a81611bf8565b8114611f3557600080fd5b5056fea2646970667358221220dbd7287b52aee98cf54e5e593bd1e3ba915189d9eb5e6899080d48a3b4f84c7364736f6c63430008070033",
					"opcodes": "PUSH1 0x80 PUSH1 0x40 MSTORE CALLVALUE DUP1 ISZERO PUSH3 0x11 JUMPI PUSH1 0x0 DUP1 REVERT JUMPDEST POP PUSH1 0x40 MLOAD PUSH3 0x2117 CODESIZE SUB DUP1 PUSH3 0x2117 DUP4 CODECOPY DUP2 DUP2 ADD PUSH1 0x40 MSTORE DUP2 ADD SWAP1 PUSH3 0x37 SWAP2 SWAP1 PUSH3 0x114 JUMP JUMPDEST PUSH1 0x0 DUP1 PUSH1 0x0 PUSH2 0x100 EXP DUP2 SLOAD DUP2 PUSH1 0xFF MUL NOT AND SWAP1 DUP4 ISZERO ISZERO MUL OR SWAP1 SSTORE POP PUSH1 0x1 DUP1 DUP2 SWAP1 SSTORE POP DUP1 PUSH1 0x3 PUSH1 0x0 PUSH2 0x100 EXP DUP2 SLOAD DUP2 PUSH20 0xFFFFFFFFFFFFFFFFFFFFFFFFFFFFFFFFFFFFFFFF MUL NOT AND SWAP1 DUP4 PUSH20 0xFFFFFFFFFFFFFFFFFFFFFFFFFFFFFFFFFFFFFFFF AND MUL OR SWAP1 SSTORE POP PUSH1 0x1 PUSH1 0xA DUP2 SWAP1 SSTORE POP PUSH20 0xCA3C4DF107A315DE8545FB715917CAE4F6AF8BF1 PUSH1 0x6 PUSH1 0x0 PUSH2 0x100 EXP DUP2 SLOAD DUP2 PUSH20 0xFFFFFFFFFFFFFFFFFFFFFFFFFFFFFFFFFFFFFFFF MUL NOT AND SWAP1 DUP4 PUSH20 0xFFFFFFFFFFFFFFFFFFFFFFFFFFFFFFFFFFFFFFFF AND MUL OR SWAP1 SSTORE POP POP PUSH3 0x199 JUMP JUMPDEST PUSH1 0x0 DUP2 MLOAD SWAP1 POP PUSH3 0x10E DUP2 PUSH3 0x17F JUMP JUMPDEST SWAP3 SWAP2 POP POP JUMP JUMPDEST PUSH1 0x0 PUSH1 0x20 DUP3 DUP5 SUB SLT ISZERO PUSH3 0x12D JUMPI PUSH3 0x12C PUSH3 0x17A JUMP JUMPDEST JUMPDEST PUSH1 0x0 PUSH3 0x13D DUP5 DUP3 DUP6 ADD PUSH3 0xFD JUMP JUMPDEST SWAP2 POP POP SWAP3 SWAP2 POP POP JUMP JUMPDEST PUSH1 0x0 PUSH3 0x153 DUP3 PUSH3 0x15A JUMP JUMPDEST SWAP1 POP SWAP2 SWAP1 POP JUMP JUMPDEST PUSH1 0x0 PUSH20 0xFFFFFFFFFFFFFFFFFFFFFFFFFFFFFFFFFFFFFFFF DUP3 AND SWAP1 POP SWAP2 SWAP1 POP JUMP JUMPDEST PUSH1 0x0 DUP1 REVERT JUMPDEST PUSH3 0x18A DUP2 PUSH3 0x146 JUMP JUMPDEST DUP2 EQ PUSH3 0x196 JUMPI PUSH1 0x0 DUP1 REVERT JUMPDEST POP JUMP JUMPDEST PUSH2 0x1F6E DUP1 PUSH3 0x1A9 PUSH1 0x0 CODECOPY PUSH1 0x0 RETURN INVALID PUSH1 0x80 PUSH1 0x40 MSTORE PUSH1 0x4 CALLDATASIZE LT PUSH2 0x12E JUMPI PUSH1 0x0 CALLDATALOAD PUSH1 0xE0 SHR DUP1 PUSH4 0x76A67A51 GT PUSH2 0xAB JUMPI DUP1 PUSH4 0x9E1A4D19 GT PUSH2 0x6F JUMPI DUP1 PUSH4 0x9E1A4D19 EQ PUSH2 0x48E JUMPI DUP1 PUSH4 0xC6A62290 EQ PUSH2 0x4B9 JUMPI DUP1 PUSH4 0xCC4AA204 EQ PUSH2 0x4E4 JUMPI DUP1 PUSH4 0xD4FB7E2D EQ PUSH2 0x50F JUMPI DUP1 PUSH4 0xF5C91A0B EQ PUSH2 0x54C JUMPI DUP1 PUSH4 0xFCE33F01 EQ PUSH2 0x577 JUMPI PUSH2 0x19A JUMP JUMPDEST DUP1 PUSH4 0x76A67A51 EQ PUSH2 0x3BB JUMPI DUP1 PUSH4 0x7A80760E EQ PUSH2 0x3E4 JUMPI DUP1 PUSH4 0x836B1AFF EQ PUSH2 0x40F JUMPI DUP1 PUSH4 0x8DA5CB5B EQ PUSH2 0x438 JUMPI DUP1 PUSH4 0x94A927FE EQ PUSH2 0x463 JUMPI PUSH2 0x19A JUMP JUMPDEST DUP1 PUSH4 0x4BFFFC86 GT PUSH2 0xF2 JUMPI DUP1 PUSH4 0x4BFFFC86 EQ PUSH2 0x2E8 JUMPI DUP1 PUSH4 0x56E0A361 EQ PUSH2 0x313 JUMPI DUP1 PUSH4 0x57B001F9 EQ PUSH2 0x33C JUMPI DUP1 PUSH4 0x5C975ABB EQ PUSH2 0x365 JUMPI DUP1 PUSH4 0x6A42B8F8 EQ PUSH2 0x390 JUMPI PUSH2 0x19A JUMP JUMPDEST DUP1 PUSH4 0xA84AAC5 EQ PUSH2 0x201 JUMPI DUP1 PUSH4 0x1903B431 EQ PUSH2 0x22A JUMPI DUP1 PUSH4 0x23658AF4 EQ PUSH2 0x267 JUMPI DUP1 PUSH4 0x28AF53FA EQ PUSH2 0x292 JUMPI DUP1 PUSH4 0x38AF3EED EQ PUSH2 0x2BD JUMPI PUSH2 0x19A JUMP JUMPDEST CALLDATASIZE PUSH2 0x19A JUMPI CALLER PUSH20 0xFFFFFFFFFFFFFFFFFFFFFFFFFFFFFFFFFFFFFFFF AND ADDRESS PUSH20 0xFFFFFFFFFFFFFFFFFFFFFFFFFFFFFFFFFFFFFFFF AND PUSH32 0x5548C837AB068CF56A2C2479DF0882A4922FD203EDB7517321831D95078C5F62 CALLVALUE PUSH1 0x40 MLOAD PUSH2 0x190 SWAP2 SWAP1 PUSH2 0x1A67 JUMP JUMPDEST PUSH1 0x40 MLOAD DUP1 SWAP2 SUB SWAP1 LOG3 STOP JUMPDEST CALLER PUSH20 0xFFFFFFFFFFFFFFFFFFFFFFFFFFFFFFFFFFFFFFFF AND ADDRESS PUSH20 0xFFFFFFFFFFFFFFFFFFFFFFFFFFFFFFFFFFFFFFFF AND PUSH32 0x5548C837AB068CF56A2C2479DF0882A4922FD203EDB7517321831D95078C5F62 CALLVALUE PUSH1 0x40 MLOAD PUSH2 0x1F7 SWAP2 SWAP1 PUSH2 0x1A67 JUMP JUMPDEST PUSH1 0x40 MLOAD DUP1 SWAP2 SUB SWAP1 LOG3 STOP JUMPDEST CALLVALUE DUP1 ISZERO PUSH2 0x20D JUMPI PUSH1 0x0 DUP1 REVERT JUMPDEST POP PUSH2 0x228 PUSH1 0x4 DUP1 CALLDATASIZE SUB DUP2 ADD SWAP1 PUSH2 0x223 SWAP2 SWAP1 PUSH2 0x1550 JUMP JUMPDEST PUSH2 0x5B4 JUMP JUMPDEST STOP JUMPDEST CALLVALUE DUP1 ISZERO PUSH2 0x236 JUMPI PUSH1 0x0 DUP1 REVERT JUMPDEST POP PUSH2 0x251 PUSH1 0x4 DUP1 CALLDATASIZE SUB DUP2 ADD SWAP1 PUSH2 0x24C SWAP2 SWAP1 PUSH2 0x15D0 JUMP JUMPDEST PUSH2 0x70A JUMP JUMPDEST PUSH1 0x40 MLOAD PUSH2 0x25E SWAP2 SWAP1 PUSH2 0x1A67 JUMP JUMPDEST PUSH1 0x40 MLOAD DUP1 SWAP2 SUB SWAP1 RETURN JUMPDEST CALLVALUE DUP1 ISZERO PUSH2 0x273 JUMPI PUSH1 0x0 DUP1 REVERT JUMPDEST POP PUSH2 0x27C PUSH2 0x7AC JUMP JUMPDEST PUSH1 0x40 MLOAD PUSH2 0x289 SWAP2 SWAP1 PUSH2 0x18B2 JUMP JUMPDEST PUSH1 0x40 MLOAD DUP1 SWAP2 SUB SWAP1 RETURN JUMPDEST CALLVALUE DUP1 ISZERO PUSH2 0x29E JUMPI PUSH1 0x0 DUP1 REVERT JUMPDEST POP PUSH2 0x2A7 PUSH2 0x7D6 JUMP JUMPDEST PUSH1 0x40 MLOAD PUSH2 0x2B4 SWAP2 SWAP1 PUSH2 0x1A67 JUMP JUMPDEST PUSH1 0x40 MLOAD DUP1 SWAP2 SUB SWAP1 RETURN JUMPDEST CALLVALUE DUP1 ISZERO PUSH2 0x2C9 JUMPI PUSH1 0x0 DUP1 REVERT JUMPDEST POP PUSH2 0x2D2 PUSH2 0x7DC JUMP JUMPDEST PUSH1 0x40 MLOAD PUSH2 0x2DF SWAP2 SWAP1 PUSH2 0x18CD JUMP JUMPDEST PUSH1 0x40 MLOAD DUP1 SWAP2 SUB SWAP1 RETURN JUMPDEST CALLVALUE DUP1 ISZERO PUSH2 0x2F4 JUMPI PUSH1 0x0 DUP1 REVERT JUMPDEST POP PUSH2 0x2FD PUSH2 0x802 JUMP JUMPDEST PUSH1 0x40 MLOAD PUSH2 0x30A SWAP2 SWAP1 PUSH2 0x1A67 JUMP JUMPDEST PUSH1 0x40 MLOAD DUP1 SWAP2 SUB SWAP1 RETURN JUMPDEST CALLVALUE DUP1 ISZERO PUSH2 0x31F JUMPI PUSH1 0x0 DUP1 REVERT JUMPDEST POP PUSH2 0x33A PUSH1 0x4 DUP1 CALLDATASIZE SUB DUP2 ADD SWAP1 PUSH2 0x335 SWAP2 SWAP1 PUSH2 0x16CA JUMP JUMPDEST PUSH2 0x80C JUMP JUMPDEST STOP JUMPDEST CALLVALUE DUP1 ISZERO PUSH2 0x348 JUMPI PUSH1 0x0 DUP1 REVERT JUMPDEST POP PUSH2 0x363 PUSH1 0x4 DUP1 CALLDATASIZE SUB DUP2 ADD SWAP1 PUSH2 0x35E SWAP2 SWAP1 PUSH2 0x1523 JUMP JUMPDEST PUSH2 0x92B JUMP JUMPDEST STOP JUMPDEST CALLVALUE DUP1 ISZERO PUSH2 0x371 JUMPI PUSH1 0x0 DUP1 REVERT JUMPDEST POP PUSH2 0x37A PUSH2 0x9C8 JUMP JUMPDEST PUSH1 0x40 MLOAD PUSH2 0x387 SWAP2 SWAP1 PUSH2 0x1911 JUMP JUMPDEST PUSH1 0x40 MLOAD DUP1 SWAP2 SUB SWAP1 RETURN JUMPDEST CALLVALUE DUP1 ISZERO PUSH2 0x39C JUMPI PUSH1 0x0 DUP1 REVERT JUMPDEST POP PUSH2 0x3A5 PUSH2 0x9DE JUMP JUMPDEST PUSH1 0x40 MLOAD PUSH2 0x3B2 SWAP2 SWAP1 PUSH2 0x1A67 JUMP JUMPDEST PUSH1 0x40 MLOAD DUP1 SWAP2 SUB SWAP1 RETURN JUMPDEST CALLVALUE DUP1 ISZERO PUSH2 0x3C7 JUMPI PUSH1 0x0 DUP1 REVERT JUMPDEST POP PUSH2 0x3E2 PUSH1 0x4 DUP1 CALLDATASIZE SUB DUP2 ADD SWAP1 PUSH2 0x3DD SWAP2 SWAP1 PUSH2 0x1523 JUMP JUMPDEST PUSH2 0x9E4 JUMP JUMPDEST STOP JUMPDEST CALLVALUE DUP1 ISZERO PUSH2 0x3F0 JUMPI PUSH1 0x0 DUP1 REVERT JUMPDEST POP PUSH2 0x3F9 PUSH2 0xA81 JUMP JUMPDEST PUSH1 0x40 MLOAD PUSH2 0x406 SWAP2 SWAP1 PUSH2 0x18CD JUMP JUMPDEST PUSH1 0x40 MLOAD DUP1 SWAP2 SUB SWAP1 RETURN JUMPDEST CALLVALUE DUP1 ISZERO PUSH2 0x41B JUMPI PUSH1 0x0 DUP1 REVERT JUMPDEST POP PUSH2 0x436 PUSH1 0x4 DUP1 CALLDATASIZE SUB DUP2 ADD SWAP1 PUSH2 0x431 SWAP2 SWAP1 PUSH2 0x1610 JUMP JUMPDEST PUSH2 0xAA7 JUMP JUMPDEST STOP JUMPDEST CALLVALUE DUP1 ISZERO PUSH2 0x444 JUMPI PUSH1 0x0 DUP1 REVERT JUMPDEST POP PUSH2 0x44D PUSH2 0x11BA JUMP JUMPDEST PUSH1 0x40 MLOAD PUSH2 0x45A SWAP2 SWAP1 PUSH2 0x18CD JUMP JUMPDEST PUSH1 0x40 MLOAD DUP1 SWAP2 SUB SWAP1 RETURN JUMPDEST CALLVALUE DUP1 ISZERO PUSH2 0x46F JUMPI PUSH1 0x0 DUP1 REVERT JUMPDEST POP PUSH2 0x478 PUSH2 0x11E0 JUMP JUMPDEST PUSH1 0x40 MLOAD PUSH2 0x485 SWAP2 SWAP1 PUSH2 0x18B2 JUMP JUMPDEST PUSH1 0x40 MLOAD DUP1 SWAP2 SUB SWAP1 RETURN JUMPDEST CALLVALUE DUP1 ISZERO PUSH2 0x49A JUMPI PUSH1 0x0 DUP1 REVERT JUMPDEST POP PUSH2 0x4A3 PUSH2 0x120A JUMP JUMPDEST PUSH1 0x40 MLOAD PUSH2 0x4B0 SWAP2 SWAP1 PUSH2 0x1A67 JUMP JUMPDEST PUSH1 0x40 MLOAD DUP1 SWAP2 SUB SWAP1 RETURN JUMPDEST CALLVALUE DUP1 ISZERO PUSH2 0x4C5 JUMPI PUSH1 0x0 DUP1 REVERT JUMPDEST POP PUSH2 0x4CE PUSH2 0x1210 JUMP JUMPDEST PUSH1 0x40 MLOAD PUSH2 0x4DB SWAP2 SWAP1 PUSH2 0x1A67 JUMP JUMPDEST PUSH1 0x40 MLOAD DUP1 SWAP2 SUB SWAP1 RETURN JUMPDEST CALLVALUE DUP1 ISZERO PUSH2 0x4F0 JUMPI PUSH1 0x0 DUP1 REVERT JUMPDEST POP PUSH2 0x4F9 PUSH2 0x121A JUMP JUMPDEST PUSH1 0x40 MLOAD PUSH2 0x506 SWAP2 SWAP1 PUSH2 0x192C JUMP JUMPDEST PUSH1 0x40 MLOAD DUP1 SWAP2 SUB SWAP1 RETURN JUMPDEST CALLVALUE DUP1 ISZERO PUSH2 0x51B JUMPI PUSH1 0x0 DUP1 REVERT JUMPDEST POP PUSH2 0x536 PUSH1 0x4 DUP1 CALLDATASIZE SUB DUP2 ADD SWAP1 PUSH2 0x531 SWAP2 SWAP1 PUSH2 0x1523 JUMP JUMPDEST PUSH2 0x1240 JUMP JUMPDEST PUSH1 0x40 MLOAD PUSH2 0x543 SWAP2 SWAP1 PUSH2 0x1A67 JUMP JUMPDEST PUSH1 0x40 MLOAD DUP1 SWAP2 SUB SWAP1 RETURN JUMPDEST CALLVALUE DUP1 ISZERO PUSH2 0x558 JUMPI PUSH1 0x0 DUP1 REVERT JUMPDEST POP PUSH2 0x561 PUSH2 0x1289 JUMP JUMPDEST PUSH1 0x40 MLOAD PUSH2 0x56E SWAP2 SWAP1 PUSH2 0x1A67 JUMP JUMPDEST PUSH1 0x40 MLOAD DUP1 SWAP2 SUB SWAP1 RETURN JUMPDEST CALLVALUE DUP1 ISZERO PUSH2 0x583 JUMPI PUSH1 0x0 DUP1 REVERT JUMPDEST POP PUSH2 0x59E PUSH1 0x4 DUP1 CALLDATASIZE SUB DUP2 ADD SWAP1 PUSH2 0x599 SWAP2 SWAP1 PUSH2 0x1523 JUMP JUMPDEST PUSH2 0x1293 JUMP JUMPDEST PUSH1 0x40 MLOAD PUSH2 0x5AB SWAP2 SWAP1 PUSH2 0x1A67 JUMP JUMPDEST PUSH1 0x40 MLOAD DUP1 SWAP2 SUB SWAP1 RETURN JUMPDEST DUP1 PUSH1 0x3 PUSH1 0x0 SWAP1 SLOAD SWAP1 PUSH2 0x100 EXP SWAP1 DIV PUSH20 0xFFFFFFFFFFFFFFFFFFFFFFFFFFFFFFFFFFFFFFFF AND PUSH20 0xFFFFFFFFFFFFFFFFFFFFFFFFFFFFFFFFFFFFFFFF AND DUP2 PUSH20 0xFFFFFFFFFFFFFFFFFFFFFFFFFFFFFFFFFFFFFFFF AND EQ PUSH2 0x645 JUMPI PUSH1 0x40 MLOAD PUSH32 0x8C379A000000000000000000000000000000000000000000000000000000000 DUP2 MSTORE PUSH1 0x4 ADD PUSH2 0x63C SWAP1 PUSH2 0x1947 JUMP JUMPDEST PUSH1 0x40 MLOAD DUP1 SWAP2 SUB SWAP1 REVERT JUMPDEST PUSH1 0x0 PUSH20 0xFFFFFFFFFFFFFFFFFFFFFFFFFFFFFFFFFFFFFFFF AND DUP5 PUSH20 0xFFFFFFFFFFFFFFFFFFFFFFFFFFFFFFFFFFFFFFFF AND EQ ISZERO PUSH2 0x6B5 JUMPI PUSH1 0x40 MLOAD PUSH32 0x8C379A000000000000000000000000000000000000000000000000000000000 DUP2 MSTORE PUSH1 0x4 ADD PUSH2 0x6AC SWAP1 PUSH2 0x19C7 JUMP JUMPDEST PUSH1 0x40 MLOAD DUP1 SWAP2 SUB SWAP1 REVERT JUMPDEST DUP4 PUSH1 0x4 PUSH1 0x0 PUSH2 0x100 EXP DUP2 SLOAD DUP2 PUSH20 0xFFFFFFFFFFFFFFFFFFFFFFFFFFFFFFFFFFFFFFFF MUL NOT AND SWAP1 DUP4 PUSH20 0xFFFFFFFFFFFFFFFFFFFFFFFFFFFFFFFFFFFFFFFF AND MUL OR SWAP1 SSTORE POP DUP3 PUSH1 0x8 DUP2 SWAP1 SSTORE POP TIMESTAMP PUSH1 0x7 DUP2 SWAP1 SSTORE POP POP POP POP POP JUMP JUMPDEST PUSH1 0x0 DUP3 ISZERO PUSH2 0x71A JUMPI SELFBALANCE SWAP1 POP PUSH2 0x7A6 JUMP JUMPDEST DUP2 PUSH20 0xFFFFFFFFFFFFFFFFFFFFFFFFFFFFFFFFFFFFFFFF AND PUSH4 0x70A08231 ADDRESS PUSH1 0x40 MLOAD DUP3 PUSH4 0xFFFFFFFF AND PUSH1 0xE0 SHL DUP2 MSTORE PUSH1 0x4 ADD PUSH2 0x753 SWAP2 SWAP1 PUSH2 0x18B2 JUMP JUMPDEST PUSH1 0x20 PUSH1 0x40 MLOAD DUP1 DUP4 SUB DUP2 DUP7 DUP1 EXTCODESIZE ISZERO DUP1 ISZERO PUSH2 0x76B JUMPI PUSH1 0x0 DUP1 REVERT JUMPDEST POP GAS STATICCALL ISZERO DUP1 ISZERO PUSH2 0x77F JUMPI RETURNDATASIZE PUSH1 0x0 DUP1 RETURNDATACOPY RETURNDATASIZE PUSH1 0x0 REVERT JUMPDEST POP POP POP POP PUSH1 0x40 MLOAD RETURNDATASIZE PUSH1 0x1F NOT PUSH1 0x1F DUP3 ADD AND DUP3 ADD DUP1 PUSH1 0x40 MSTORE POP DUP2 ADD SWAP1 PUSH2 0x7A3 SWAP2 SWAP1 PUSH2 0x169D JUMP JUMPDEST SWAP1 POP JUMPDEST SWAP3 SWAP2 POP POP JUMP JUMPDEST PUSH1 0x0 PUSH1 0x4 PUSH1 0x0 SWAP1 SLOAD SWAP1 PUSH2 0x100 EXP SWAP1 DIV PUSH20 0xFFFFFFFFFFFFFFFFFFFFFFFFFFFFFFFFFFFFFFFF AND SWAP1 POP SWAP1 JUMP JUMPDEST PUSH1 0x7 SLOAD DUP2 JUMP JUMPDEST PUSH1 0x4 PUSH1 0x0 SWAP1 SLOAD SWAP1 PUSH2 0x100 EXP SWAP1 DIV PUSH20 0xFFFFFFFFFFFFFFFFFFFFFFFFFFFFFFFFFFFFFFFF AND DUP2 JUMP JUMPDEST PUSH1 0x0 PUSH1 0x7 SLOAD SWAP1 POP SWAP1 JUMP JUMPDEST DUP1 PUSH1 0x3 PUSH1 0x0 SWAP1 SLOAD SWAP1 PUSH2 0x100 EXP SWAP1 DIV PUSH20 0xFFFFFFFFFFFFFFFFFFFFFFFFFFFFFFFFFFFFFFFF AND PUSH20 0xFFFFFFFFFFFFFFFFFFFFFFFFFFFFFFFFFFFFFFFF AND DUP2 PUSH20 0xFFFFFFFFFFFFFFFFFFFFFFFFFFFFFFFFFFFFFFFF AND EQ PUSH2 0x89D JUMPI PUSH1 0x40 MLOAD PUSH32 0x8C379A000000000000000000000000000000000000000000000000000000000 DUP2 MSTORE PUSH1 0x4 ADD PUSH2 0x894 SWAP1 PUSH2 0x1947 JUMP JUMPDEST PUSH1 0x40 MLOAD DUP1 SWAP2 SUB SWAP1 REVERT JUMPDEST PUSH1 0x0 DUP5 EQ ISZERO PUSH2 0x8E1 JUMPI PUSH1 0x40 MLOAD PUSH32 0x8C379A000000000000000000000000000000000000000000000000000000000 DUP2 MSTORE PUSH1 0x4 ADD PUSH2 0x8D8 SWAP1 PUSH2 0x19A7 JUMP JUMPDEST PUSH1 0x40 MLOAD DUP1 SWAP2 SUB SWAP1 REVERT JUMPDEST DUP4 PUSH1 0xC PUSH1 0x0 DUP6 PUSH20 0xFFFFFFFFFFFFFFFFFFFFFFFFFFFFFFFFFFFFFFFF AND PUSH20 0xFFFFFFFFFFFFFFFFFFFFFFFFFFFFFFFFFFFFFFFF AND DUP2 MSTORE PUSH1 0x20 ADD SWAP1 DUP2 MSTORE PUSH1 0x20 ADD PUSH1 0x0 KECCAK256 DUP2 SWAP1 SSTORE POP POP POP POP POP JUMP JUMPDEST DUP1 PUSH1 0x3 PUSH1 0x0 SWAP1 SLOAD SWAP1 PUSH2 0x100 EXP SWAP1 DIV PUSH20 0xFFFFFFFFFFFFFFFFFFFFFFFFFFFFFFFFFFFFFFFF AND PUSH20 0xFFFFFFFFFFFFFFFFFFFFFFFFFFFFFFFFFFFFFFFF AND DUP2 PUSH20 0xFFFFFFFFFFFFFFFFFFFFFFFFFFFFFFFFFFFFFFFF AND EQ PUSH2 0x9BC JUMPI PUSH1 0x40 MLOAD PUSH32 0x8C379A000000000000000000000000000000000000000000000000000000000 DUP2 MSTORE PUSH1 0x4 ADD PUSH2 0x9B3 SWAP1 PUSH2 0x1947 JUMP JUMPDEST PUSH1 0x40 MLOAD DUP1 SWAP2 SUB SWAP1 REVERT JUMPDEST PUSH2 0x9C4 PUSH2 0x12AB JUMP JUMPDEST POP POP JUMP JUMPDEST PUSH1 0x0 DUP1 PUSH1 0x0 SWAP1 SLOAD SWAP1 PUSH2 0x100 EXP SWAP1 DIV PUSH1 0xFF AND SWAP1 POP SWAP1 JUMP JUMPDEST PUSH1 0x8 SLOAD DUP2 JUMP JUMPDEST DUP1 PUSH1 0x3 PUSH1 0x0 SWAP1 SLOAD SWAP1 PUSH2 0x100 EXP SWAP1 DIV PUSH20 0xFFFFFFFFFFFFFFFFFFFFFFFFFFFFFFFFFFFFFFFF AND PUSH20 0xFFFFFFFFFFFFFFFFFFFFFFFFFFFFFFFFFFFFFFFF AND DUP2 PUSH20 0xFFFFFFFFFFFFFFFFFFFFFFFFFFFFFFFFFFFFFFFF AND EQ PUSH2 0xA75 JUMPI PUSH1 0x40 MLOAD PUSH32 0x8C379A000000000000000000000000000000000000000000000000000000000 DUP2 MSTORE PUSH1 0x4 ADD PUSH2 0xA6C SWAP1 PUSH2 0x1947 JUMP JUMPDEST PUSH1 0x40 MLOAD DUP1 SWAP2 SUB SWAP1 REVERT JUMPDEST PUSH2 0xA7D PUSH2 0x130D JUMP JUMPDEST POP POP JUMP JUMPDEST PUSH1 0x5 PUSH1 0x0 SWAP1 SLOAD SWAP1 PUSH2 0x100 EXP SWAP1 DIV PUSH20 0xFFFFFFFFFFFFFFFFFFFFFFFFFFFFFFFFFFFFFFFF AND DUP2 JUMP JUMPDEST PUSH2 0xAAF PUSH2 0x136F JUMP JUMPDEST PUSH2 0xAB7 PUSH2 0x13B9 JUMP JUMPDEST DUP1 PUSH1 0x4 PUSH1 0x0 SWAP1 SLOAD SWAP1 PUSH2 0x100 EXP SWAP1 DIV PUSH20 0xFFFFFFFFFFFFFFFFFFFFFFFFFFFFFFFFFFFFFFFF AND PUSH20 0xFFFFFFFFFFFFFFFFFFFFFFFFFFFFFFFFFFFFFFFF AND DUP2 PUSH20 0xFFFFFFFFFFFFFFFFFFFFFFFFFFFFFFFFFFFFFFFF AND EQ DUP1 PUSH2 0xB61 JUMPI POP PUSH1 0x3 PUSH1 0x0 SWAP1 SLOAD SWAP1 PUSH2 0x100 EXP SWAP1 DIV PUSH20 0xFFFFFFFFFFFFFFFFFFFFFFFFFFFFFFFFFFFFFFFF AND PUSH20 0xFFFFFFFFFFFFFFFFFFFFFFFFFFFFFFFFFFFFFFFF AND CALLER PUSH20 0xFFFFFFFFFFFFFFFFFFFFFFFFFFFFFFFFFFFFFFFF AND EQ JUMPDEST PUSH2 0xBA0 JUMPI PUSH1 0x40 MLOAD PUSH32 0x8C379A000000000000000000000000000000000000000000000000000000000 DUP2 MSTORE PUSH1 0x4 ADD PUSH2 0xB97 SWAP1 PUSH2 0x1A07 JUMP JUMPDEST PUSH1 0x40 MLOAD DUP1 SWAP2 SUB SWAP1 REVERT JUMPDEST PUSH1 0x4 PUSH1 0x0 SWAP1 SLOAD SWAP1 PUSH2 0x100 EXP SWAP1 DIV PUSH20 0xFFFFFFFFFFFFFFFFFFFFFFFFFFFFFFFFFFFFFFFF AND PUSH20 0xFFFFFFFFFFFFFFFFFFFFFFFFFFFFFFFFFFFFFFFF AND CALLER PUSH20 0xFFFFFFFFFFFFFFFFFFFFFFFFFFFFFFFFFFFFFFFF AND EQ ISZERO PUSH2 0xC92 JUMPI PUSH1 0xC PUSH1 0x0 DUP5 PUSH20 0xFFFFFFFFFFFFFFFFFFFFFFFFFFFFFFFFFFFFFFFF AND PUSH20 0xFFFFFFFFFFFFFFFFFFFFFFFFFFFFFFFFFFFFFFFF AND DUP2 MSTORE PUSH1 0x20 ADD SWAP1 DUP2 MSTORE PUSH1 0x20 ADD PUSH1 0x0 KECCAK256 SLOAD DUP5 GT ISZERO DUP1 PUSH2 0xC52 JUMPI POP TIMESTAMP PUSH1 0x8 SLOAD PUSH1 0x7 SLOAD PUSH2 0xC50 SWAP2 SWAP1 PUSH2 0x1A93 JUMP JUMPDEST LT JUMPDEST PUSH2 0xC91 JUMPI PUSH1 0x40 MLOAD PUSH32 0x8C379A000000000000000000000000000000000000000000000000000000000 DUP2 MSTORE PUSH1 0x4 ADD PUSH2 0xC88 SWAP1 PUSH2 0x19E7 JUMP JUMPDEST PUSH1 0x40 MLOAD DUP1 SWAP2 SUB SWAP1 REVERT JUMPDEST JUMPDEST PUSH1 0x0 DUP8 PUSH2 0xC9F JUMPI DUP6 PUSH2 0xCC3 JUMP JUMPDEST PUSH1 0x3 PUSH1 0x0 SWAP1 SLOAD SWAP1 PUSH2 0x100 EXP SWAP1 DIV PUSH20 0xFFFFFFFFFFFFFFFFFFFFFFFFFFFFFFFFFFFFFFFF AND JUMPDEST SWAP1 POP DUP7 ISZERO PUSH2 0xE5D JUMPI SELFBALANCE DUP6 GT ISZERO PUSH2 0xD0E JUMPI PUSH1 0x40 MLOAD PUSH32 0x8C379A000000000000000000000000000000000000000000000000000000000 DUP2 MSTORE PUSH1 0x4 ADD PUSH2 0xD05 SWAP1 PUSH2 0x1A47 JUMP JUMPDEST PUSH1 0x40 MLOAD DUP1 SWAP2 SUB SWAP1 REVERT JUMPDEST PUSH2 0xD36 PUSH1 0x64 PUSH2 0xD28 PUSH1 0xA SLOAD DUP9 PUSH2 0x1409 SWAP1 SWAP2 SWAP1 PUSH4 0xFFFFFFFF AND JUMP JUMPDEST PUSH2 0x141F SWAP1 SWAP2 SWAP1 PUSH4 0xFFFFFFFF AND JUMP JUMPDEST PUSH1 0x9 DUP2 SWAP1 SSTORE POP DUP1 PUSH20 0xFFFFFFFFFFFFFFFFFFFFFFFFFFFFFFFFFFFFFFFF AND PUSH2 0x8FC PUSH2 0xD6B PUSH1 0x9 SLOAD DUP9 PUSH2 0x1435 SWAP1 SWAP2 SWAP1 PUSH4 0xFFFFFFFF AND JUMP JUMPDEST SWAP1 DUP2 ISZERO MUL SWAP1 PUSH1 0x40 MLOAD PUSH1 0x0 PUSH1 0x40 MLOAD DUP1 DUP4 SUB DUP2 DUP6 DUP9 DUP9 CALL SWAP4 POP POP POP POP ISZERO DUP1 ISZERO PUSH2 0xD96 JUMPI RETURNDATASIZE PUSH1 0x0 DUP1 RETURNDATACOPY RETURNDATASIZE PUSH1 0x0 REVERT JUMPDEST POP PUSH1 0x6 PUSH1 0x0 SWAP1 SLOAD SWAP1 PUSH2 0x100 EXP SWAP1 DIV PUSH20 0xFFFFFFFFFFFFFFFFFFFFFFFFFFFFFFFFFFFFFFFF AND PUSH20 0xFFFFFFFFFFFFFFFFFFFFFFFFFFFFFFFFFFFFFFFF AND PUSH2 0x8FC PUSH1 0x9 SLOAD SWAP1 DUP2 ISZERO MUL SWAP1 PUSH1 0x40 MLOAD PUSH1 0x0 PUSH1 0x40 MLOAD DUP1 DUP4 SUB DUP2 DUP6 DUP9 DUP9 CALL SWAP4 POP POP POP POP ISZERO DUP1 ISZERO PUSH2 0xE01 JUMPI RETURNDATASIZE PUSH1 0x0 DUP1 RETURNDATACOPY RETURNDATASIZE PUSH1 0x0 REVERT JUMPDEST POP DUP5 PUSH1 0xC PUSH1 0x0 DUP7 PUSH20 0xFFFFFFFFFFFFFFFFFFFFFFFFFFFFFFFFFFFFFFFF AND PUSH20 0xFFFFFFFFFFFFFFFFFFFFFFFFFFFFFFFFFFFFFFFF AND DUP2 MSTORE PUSH1 0x20 ADD SWAP1 DUP2 MSTORE PUSH1 0x20 ADD PUSH1 0x0 KECCAK256 PUSH1 0x0 DUP3 DUP3 SLOAD PUSH2 0xE51 SWAP2 SWAP1 PUSH2 0x1B74 JUMP JUMPDEST SWAP3 POP POP DUP2 SWAP1 SSTORE POP PUSH2 0x11A8 JUMP JUMPDEST DUP4 PUSH1 0x2 PUSH1 0x0 PUSH2 0x100 EXP DUP2 SLOAD DUP2 PUSH20 0xFFFFFFFFFFFFFFFFFFFFFFFFFFFFFFFFFFFFFFFF MUL NOT AND SWAP1 DUP4 PUSH20 0xFFFFFFFFFFFFFFFFFFFFFFFFFFFFFFFFFFFFFFFF AND MUL OR SWAP1 SSTORE POP PUSH1 0x2 PUSH1 0x0 SWAP1 SLOAD SWAP1 PUSH2 0x100 EXP SWAP1 DIV PUSH20 0xFFFFFFFFFFFFFFFFFFFFFFFFFFFFFFFFFFFFFFFF AND PUSH20 0xFFFFFFFFFFFFFFFFFFFFFFFFFFFFFFFFFFFFFFFF AND PUSH4 0x70A08231 ADDRESS PUSH1 0x40 MLOAD DUP3 PUSH4 0xFFFFFFFF AND PUSH1 0xE0 SHL DUP2 MSTORE PUSH1 0x4 ADD PUSH2 0xEF9 SWAP2 SWAP1 PUSH2 0x18B2 JUMP JUMPDEST PUSH1 0x20 PUSH1 0x40 MLOAD DUP1 DUP4 SUB DUP2 DUP7 DUP1 EXTCODESIZE ISZERO DUP1 ISZERO PUSH2 0xF11 JUMPI PUSH1 0x0 DUP1 REVERT JUMPDEST POP GAS STATICCALL ISZERO DUP1 ISZERO PUSH2 0xF25 JUMPI RETURNDATASIZE PUSH1 0x0 DUP1 RETURNDATACOPY RETURNDATASIZE PUSH1 0x0 REVERT JUMPDEST POP POP POP POP PUSH1 0x40 MLOAD RETURNDATASIZE PUSH1 0x1F NOT PUSH1 0x1F DUP3 ADD AND DUP3 ADD DUP1 PUSH1 0x40 MSTORE POP DUP2 ADD SWAP1 PUSH2 0xF49 SWAP2 SWAP1 PUSH2 0x169D JUMP JUMPDEST DUP6 GT ISZERO PUSH2 0xF8B JUMPI PUSH1 0x40 MLOAD PUSH32 0x8C379A000000000000000000000000000000000000000000000000000000000 DUP2 MSTORE PUSH1 0x4 ADD PUSH2 0xF82 SWAP1 PUSH2 0x1A47 JUMP JUMPDEST PUSH1 0x40 MLOAD DUP1 SWAP2 SUB SWAP1 REVERT JUMPDEST PUSH2 0xFB3 PUSH1 0x64 PUSH2 0xFA5 PUSH1 0xA SLOAD DUP9 PUSH2 0x1409 SWAP1 SWAP2 SWAP1 PUSH4 0xFFFFFFFF AND JUMP JUMPDEST PUSH2 0x141F SWAP1 SWAP2 SWAP1 PUSH4 0xFFFFFFFF AND JUMP JUMPDEST PUSH1 0x9 DUP2 SWAP1 SSTORE POP PUSH1 0x2 PUSH1 0x0 SWAP1 SLOAD SWAP1 PUSH2 0x100 EXP SWAP1 DIV PUSH20 0xFFFFFFFFFFFFFFFFFFFFFFFFFFFFFFFFFFFFFFFF AND PUSH20 0xFFFFFFFFFFFFFFFFFFFFFFFFFFFFFFFFFFFFFFFF AND PUSH4 0xA9059CBB DUP3 PUSH2 0x100D PUSH1 0x9 SLOAD DUP10 PUSH2 0x1435 SWAP1 SWAP2 SWAP1 PUSH4 0xFFFFFFFF AND JUMP JUMPDEST PUSH1 0x40 MLOAD DUP4 PUSH4 0xFFFFFFFF AND PUSH1 0xE0 SHL DUP2 MSTORE PUSH1 0x4 ADD PUSH2 0x102A SWAP3 SWAP2 SWAP1 PUSH2 0x18E8 JUMP JUMPDEST PUSH1 0x20 PUSH1 0x40 MLOAD DUP1 DUP4 SUB DUP2 PUSH1 0x0 DUP8 DUP1 EXTCODESIZE ISZERO DUP1 ISZERO PUSH2 0x1044 JUMPI PUSH1 0x0 DUP1 REVERT JUMPDEST POP GAS CALL ISZERO DUP1 ISZERO PUSH2 0x1058 JUMPI RETURNDATASIZE PUSH1 0x0 DUP1 RETURNDATACOPY RETURNDATASIZE PUSH1 0x0 REVERT JUMPDEST POP POP POP POP PUSH1 0x40 MLOAD RETURNDATASIZE PUSH1 0x1F NOT PUSH1 0x1F DUP3 ADD AND DUP3 ADD DUP1 PUSH1 0x40 MSTORE POP DUP2 ADD SWAP1 PUSH2 0x107C SWAP2 SWAP1 PUSH2 0x15A3 JUMP JUMPDEST POP PUSH1 0x2 PUSH1 0x0 SWAP1 SLOAD SWAP1 PUSH2 0x100 EXP SWAP1 DIV PUSH20 0xFFFFFFFFFFFFFFFFFFFFFFFFFFFFFFFFFFFFFFFF AND PUSH20 0xFFFFFFFFFFFFFFFFFFFFFFFFFFFFFFFFFFFFFFFF AND PUSH4 0xA9059CBB PUSH1 0x6 PUSH1 0x0 SWAP1 SLOAD SWAP1 PUSH2 0x100 EXP SWAP1 DIV PUSH20 0xFFFFFFFFFFFFFFFFFFFFFFFFFFFFFFFFFFFFFFFF AND PUSH1 0x9 SLOAD PUSH1 0x40 MLOAD DUP4 PUSH4 0xFFFFFFFF AND PUSH1 0xE0 SHL DUP2 MSTORE PUSH1 0x4 ADD PUSH2 0x10FE SWAP3 SWAP2 SWAP1 PUSH2 0x18E8 JUMP JUMPDEST PUSH1 0x20 PUSH1 0x40 MLOAD DUP1 DUP4 SUB DUP2 PUSH1 0x0 DUP8 DUP1 EXTCODESIZE ISZERO DUP1 ISZERO PUSH2 0x1118 JUMPI PUSH1 0x0 DUP1 REVERT JUMPDEST POP GAS CALL ISZERO DUP1 ISZERO PUSH2 0x112C JUMPI RETURNDATASIZE PUSH1 0x0 DUP1 RETURNDATACOPY RETURNDATASIZE PUSH1 0x0 REVERT JUMPDEST POP POP POP POP PUSH1 0x40 MLOAD RETURNDATASIZE PUSH1 0x1F NOT PUSH1 0x1F DUP3 ADD AND DUP3 ADD DUP1 PUSH1 0x40 MSTORE POP DUP2 ADD SWAP1 PUSH2 0x1150 SWAP2 SWAP1 PUSH2 0x15A3 JUMP JUMPDEST POP DUP5 PUSH1 0xC PUSH1 0x0 DUP7 PUSH20 0xFFFFFFFFFFFFFFFFFFFFFFFFFFFFFFFFFFFFFFFF AND PUSH20 0xFFFFFFFFFFFFFFFFFFFFFFFFFFFFFFFFFFFFFFFF AND DUP2 MSTORE PUSH1 0x20 ADD SWAP1 DUP2 MSTORE PUSH1 0x20 ADD PUSH1 0x0 KECCAK256 PUSH1 0x0 DUP3 DUP3 SLOAD PUSH2 0x11A0 SWAP2 SWAP1 PUSH2 0x1B74 JUMP JUMPDEST SWAP3 POP POP DUP2 SWAP1 SSTORE POP JUMPDEST POP POP PUSH2 0x11B2 PUSH2 0x144B JUMP JUMPDEST POP POP POP POP POP POP JUMP JUMPDEST PUSH1 0x3 PUSH1 0x0 SWAP1 SLOAD SWAP1 PUSH2 0x100 EXP SWAP1 DIV PUSH20 0xFFFFFFFFFFFFFFFFFFFFFFFFFFFFFFFFFFFFFFFF AND DUP2 JUMP JUMPDEST PUSH1 0x0 PUSH1 0x3 PUSH1 0x0 SWAP1 SLOAD SWAP1 PUSH2 0x100 EXP SWAP1 DIV PUSH20 0xFFFFFFFFFFFFFFFFFFFFFFFFFFFFFFFFFFFFFFFF AND SWAP1 POP SWAP1 JUMP JUMPDEST PUSH1 0xB SLOAD DUP2 JUMP JUMPDEST PUSH1 0x0 PUSH1 0x8 SLOAD SWAP1 POP SWAP1 JUMP JUMPDEST PUSH1 0x2 PUSH1 0x0 SWAP1 SLOAD SWAP1 PUSH2 0x100 EXP SWAP1 DIV PUSH20 0xFFFFFFFFFFFFFFFFFFFFFFFFFFFFFFFFFFFFFFFF AND DUP2 JUMP JUMPDEST PUSH1 0x0 PUSH1 0xC PUSH1 0x0 DUP4 PUSH20 0xFFFFFFFFFFFFFFFFFFFFFFFFFFFFFFFFFFFFFFFF AND PUSH20 0xFFFFFFFFFFFFFFFFFFFFFFFFFFFFFFFFFFFFFFFF AND DUP2 MSTORE PUSH1 0x20 ADD SWAP1 DUP2 MSTORE PUSH1 0x20 ADD PUSH1 0x0 KECCAK256 SLOAD SWAP1 POP SWAP2 SWAP1 POP JUMP JUMPDEST PUSH1 0x0 PUSH1 0xA SLOAD SWAP1 POP SWAP1 JUMP JUMPDEST PUSH1 0xC PUSH1 0x20 MSTORE DUP1 PUSH1 0x0 MSTORE PUSH1 0x40 PUSH1 0x0 KECCAK256 PUSH1 0x0 SWAP2 POP SWAP1 POP SLOAD DUP2 JUMP JUMPDEST PUSH2 0x12B3 PUSH2 0x1454 JUMP JUMPDEST PUSH1 0x0 DUP1 PUSH1 0x0 PUSH2 0x100 EXP DUP2 SLOAD DUP2 PUSH1 0xFF MUL NOT AND SWAP1 DUP4 ISZERO ISZERO MUL OR SWAP1 SSTORE POP PUSH32 0x5DB9EE0A495BF2E6FF9C91A7834C1BA4FDD244A5E8AA4E537BD38AEAE4B073AA PUSH2 0x12F6 PUSH2 0x149D JUMP JUMPDEST PUSH1 0x40 MLOAD PUSH2 0x1303 SWAP2 SWAP1 PUSH2 0x18B2 JUMP JUMPDEST PUSH1 0x40 MLOAD DUP1 SWAP2 SUB SWAP1 LOG1 JUMP JUMPDEST PUSH2 0x1315 PUSH2 0x136F JUMP JUMPDEST PUSH1 0x1 PUSH1 0x0 DUP1 PUSH2 0x100 EXP DUP2 SLOAD DUP2 PUSH1 0xFF MUL NOT AND SWAP1 DUP4 ISZERO ISZERO MUL OR SWAP1 SSTORE POP PUSH32 0x62E78CEA01BEE320CD4E420270B5EA74000D11B0C9F74754EBDBFC544B05A258 PUSH2 0x1358 PUSH2 0x149D JUMP JUMPDEST PUSH1 0x40 MLOAD PUSH2 0x1365 SWAP2 SWAP1 PUSH2 0x18B2 JUMP JUMPDEST PUSH1 0x40 MLOAD DUP1 SWAP2 SUB SWAP1 LOG1 JUMP JUMPDEST PUSH2 0x1377 PUSH2 0x9C8 JUMP JUMPDEST ISZERO PUSH2 0x13B7 JUMPI PUSH1 0x40 MLOAD PUSH32 0x8C379A000000000000000000000000000000000000000000000000000000000 DUP2 MSTORE PUSH1 0x4 ADD PUSH2 0x13AE SWAP1 PUSH2 0x1987 JUMP JUMPDEST PUSH1 0x40 MLOAD DUP1 SWAP2 SUB SWAP1 REVERT JUMPDEST JUMP JUMPDEST PUSH1 0x2 PUSH1 0x1 SLOAD EQ ISZERO PUSH2 0x13FF JUMPI PUSH1 0x40 MLOAD PUSH32 0x8C379A000000000000000000000000000000000000000000000000000000000 DUP2 MSTORE PUSH1 0x4 ADD PUSH2 0x13F6 SWAP1 PUSH2 0x1A27 JUMP JUMPDEST PUSH1 0x40 MLOAD DUP1 SWAP2 SUB SWAP1 REVERT JUMPDEST PUSH1 0x2 PUSH1 0x1 DUP2 SWAP1 SSTORE POP JUMP JUMPDEST PUSH1 0x0 DUP2 DUP4 PUSH2 0x1417 SWAP2 SWAP1 PUSH2 0x1B1A JUMP JUMPDEST SWAP1 POP SWAP3 SWAP2 POP POP JUMP JUMPDEST PUSH1 0x0 DUP2 DUP4 PUSH2 0x142D SWAP2 SWAP1 PUSH2 0x1AE9 JUMP JUMPDEST SWAP1 POP SWAP3 SWAP2 POP POP JUMP JUMPDEST PUSH1 0x0 DUP2 DUP4 PUSH2 0x1443 SWAP2 SWAP1 PUSH2 0x1B74 JUMP JUMPDEST SWAP1 POP SWAP3 SWAP2 POP POP JUMP JUMPDEST PUSH1 0x1 DUP1 DUP2 SWAP1 SSTORE POP JUMP JUMPDEST PUSH2 0x145C PUSH2 0x9C8 JUMP JUMPDEST PUSH2 0x149B JUMPI PUSH1 0x40 MLOAD PUSH32 0x8C379A000000000000000000000000000000000000000000000000000000000 DUP2 MSTORE PUSH1 0x4 ADD PUSH2 0x1492 SWAP1 PUSH2 0x1967 JUMP JUMPDEST PUSH1 0x40 MLOAD DUP1 SWAP2 SUB SWAP1 REVERT JUMPDEST JUMP JUMPDEST PUSH1 0x0 CALLER SWAP1 POP SWAP1 JUMP JUMPDEST PUSH1 0x0 DUP2 CALLDATALOAD SWAP1 POP PUSH2 0x14B4 DUP2 PUSH2 0x1EDC JUMP JUMPDEST SWAP3 SWAP2 POP POP JUMP JUMPDEST PUSH1 0x0 DUP2 CALLDATALOAD SWAP1 POP PUSH2 0x14C9 DUP2 PUSH2 0x1EF3 JUMP JUMPDEST SWAP3 SWAP2 POP POP JUMP JUMPDEST PUSH1 0x0 DUP2 CALLDATALOAD SWAP1 POP PUSH2 0x14DE DUP2 PUSH2 0x1F0A JUMP JUMPDEST SWAP3 SWAP2 POP POP JUMP JUMPDEST PUSH1 0x0 DUP2 MLOAD SWAP1 POP PUSH2 0x14F3 DUP2 PUSH2 0x1F0A JUMP JUMPDEST SWAP3 SWAP2 POP POP JUMP JUMPDEST PUSH1 0x0 DUP2 CALLDATALOAD SWAP1 POP PUSH2 0x1508 DUP2 PUSH2 0x1F21 JUMP JUMPDEST SWAP3 SWAP2 POP POP JUMP JUMPDEST PUSH1 0x0 DUP2 MLOAD SWAP1 POP PUSH2 0x151D DUP2 PUSH2 0x1F21 JUMP JUMPDEST SWAP3 SWAP2 POP POP JUMP JUMPDEST PUSH1 0x0 PUSH1 0x20 DUP3 DUP5 SUB SLT ISZERO PUSH2 0x1539 JUMPI PUSH2 0x1538 PUSH2 0x1CA8 JUMP JUMPDEST JUMPDEST PUSH1 0x0 PUSH2 0x1547 DUP5 DUP3 DUP6 ADD PUSH2 0x14A5 JUMP JUMPDEST SWAP2 POP POP SWAP3 SWAP2 POP POP JUMP JUMPDEST PUSH1 0x0 DUP1 PUSH1 0x0 PUSH1 0x60 DUP5 DUP7 SUB SLT ISZERO PUSH2 0x1569 JUMPI PUSH2 0x1568 PUSH2 0x1CA8 JUMP JUMPDEST JUMPDEST PUSH1 0x0 PUSH2 0x1577 DUP7 DUP3 DUP8 ADD PUSH2 0x14BA JUMP JUMPDEST SWAP4 POP POP PUSH1 0x20 PUSH2 0x1588 DUP7 DUP3 DUP8 ADD PUSH2 0x14F9 JUMP JUMPDEST SWAP3 POP POP PUSH1 0x40 PUSH2 0x1599 DUP7 DUP3 DUP8 ADD PUSH2 0x14A5 JUMP JUMPDEST SWAP2 POP POP SWAP3 POP SWAP3 POP SWAP3 JUMP JUMPDEST PUSH1 0x0 PUSH1 0x20 DUP3 DUP5 SUB SLT ISZERO PUSH2 0x15B9 JUMPI PUSH2 0x15B8 PUSH2 0x1CA8 JUMP JUMPDEST JUMPDEST PUSH1 0x0 PUSH2 0x15C7 DUP5 DUP3 DUP6 ADD PUSH2 0x14E4 JUMP JUMPDEST SWAP2 POP POP SWAP3 SWAP2 POP POP JUMP JUMPDEST PUSH1 0x0 DUP1 PUSH1 0x40 DUP4 DUP6 SUB SLT ISZERO PUSH2 0x15E7 JUMPI PUSH2 0x15E6 PUSH2 0x1CA8 JUMP JUMPDEST JUMPDEST PUSH1 0x0 PUSH2 0x15F5 DUP6 DUP3 DUP7 ADD PUSH2 0x14CF JUMP JUMPDEST SWAP3 POP POP PUSH1 0x20 PUSH2 0x1606 DUP6 DUP3 DUP7 ADD PUSH2 0x14A5 JUMP JUMPDEST SWAP2 POP POP SWAP3 POP SWAP3 SWAP1 POP JUMP JUMPDEST PUSH1 0x0 DUP1 PUSH1 0x0 DUP1 PUSH1 0x0 DUP1 PUSH1 0xC0 DUP8 DUP10 SUB SLT ISZERO PUSH2 0x162D JUMPI PUSH2 0x162C PUSH2 0x1CA8 JUMP JUMPDEST JUMPDEST PUSH1 0x0 PUSH2 0x163B DUP10 DUP3 DUP11 ADD PUSH2 0x14CF JUMP JUMPDEST SWAP7 POP POP PUSH1 0x20 PUSH2 0x164C DUP10 DUP3 DUP11 ADD PUSH2 0x14CF JUMP JUMPDEST SWAP6 POP POP PUSH1 0x40 PUSH2 0x165D DUP10 DUP3 DUP11 ADD PUSH2 0x14BA JUMP JUMPDEST SWAP5 POP POP PUSH1 0x60 PUSH2 0x166E DUP10 DUP3 DUP11 ADD PUSH2 0x14F9 JUMP JUMPDEST SWAP4 POP POP PUSH1 0x80 PUSH2 0x167F DUP10 DUP3 DUP11 ADD PUSH2 0x14A5 JUMP JUMPDEST SWAP3 POP POP PUSH1 0xA0 PUSH2 0x1690 DUP10 DUP3 DUP11 ADD PUSH2 0x14A5 JUMP JUMPDEST SWAP2 POP POP SWAP3 SWAP6 POP SWAP3 SWAP6 POP SWAP3 SWAP6 JUMP JUMPDEST PUSH1 0x0 PUSH1 0x20 DUP3 DUP5 SUB SLT ISZERO PUSH2 0x16B3 JUMPI PUSH2 0x16B2 PUSH2 0x1CA8 JUMP JUMPDEST JUMPDEST PUSH1 0x0 PUSH2 0x16C1 DUP5 DUP3 DUP6 ADD PUSH2 0x150E JUMP JUMPDEST SWAP2 POP POP SWAP3 SWAP2 POP POP JUMP JUMPDEST PUSH1 0x0 DUP1 PUSH1 0x0 PUSH1 0x60 DUP5 DUP7 SUB SLT ISZERO PUSH2 0x16E3 JUMPI PUSH2 0x16E2 PUSH2 0x1CA8 JUMP JUMPDEST JUMPDEST PUSH1 0x0 PUSH2 0x16F1 DUP7 DUP3 DUP8 ADD PUSH2 0x14F9 JUMP JUMPDEST SWAP4 POP POP PUSH1 0x20 PUSH2 0x1702 DUP7 DUP3 DUP8 ADD PUSH2 0x14A5 JUMP JUMPDEST SWAP3 POP POP PUSH1 0x40 PUSH2 0x1713 DUP7 DUP3 DUP8 ADD PUSH2 0x14A5 JUMP JUMPDEST SWAP2 POP POP SWAP3 POP SWAP3 POP SWAP3 JUMP JUMPDEST PUSH2 0x1726 DUP2 PUSH2 0x1C02 JUMP JUMPDEST DUP3 MSTORE POP POP JUMP JUMPDEST PUSH2 0x1735 DUP2 PUSH2 0x1BBA JUMP JUMPDEST DUP3 MSTORE POP POP JUMP JUMPDEST PUSH2 0x1744 DUP2 PUSH2 0x1BA8 JUMP JUMPDEST DUP3 MSTORE POP POP JUMP JUMPDEST PUSH2 0x1753 DUP2 PUSH2 0x1BCC JUMP JUMPDEST DUP3 MSTORE POP POP JUMP JUMPDEST PUSH2 0x1762 DUP2 PUSH2 0x1C14 JUMP JUMPDEST DUP3 MSTORE POP POP JUMP JUMPDEST PUSH1 0x0 PUSH2 0x1775 PUSH1 0x25 DUP4 PUSH2 0x1A82 JUMP JUMPDEST SWAP2 POP PUSH2 0x1780 DUP3 PUSH2 0x1CAD JUMP JUMPDEST PUSH1 0x40 DUP3 ADD SWAP1 POP SWAP2 SWAP1 POP JUMP JUMPDEST PUSH1 0x0 PUSH2 0x1798 PUSH1 0x14 DUP4 PUSH2 0x1A82 JUMP JUMPDEST SWAP2 POP PUSH2 0x17A3 DUP3 PUSH2 0x1CFC JUMP JUMPDEST PUSH1 0x20 DUP3 ADD SWAP1 POP SWAP2 SWAP1 POP JUMP JUMPDEST PUSH1 0x0 PUSH2 0x17BB PUSH1 0x10 DUP4 PUSH2 0x1A82 JUMP JUMPDEST SWAP2 POP PUSH2 0x17C6 DUP3 PUSH2 0x1D25 JUMP JUMPDEST PUSH1 0x20 DUP3 ADD SWAP1 POP SWAP2 SWAP1 POP JUMP JUMPDEST PUSH1 0x0 PUSH2 0x17DE PUSH1 0x15 DUP4 PUSH2 0x1A82 JUMP JUMPDEST SWAP2 POP PUSH2 0x17E9 DUP3 PUSH2 0x1D4E JUMP JUMPDEST PUSH1 0x20 DUP3 ADD SWAP1 POP SWAP2 SWAP1 POP JUMP JUMPDEST PUSH1 0x0 PUSH2 0x1801 PUSH1 0x22 DUP4 PUSH2 0x1A82 JUMP JUMPDEST SWAP2 POP PUSH2 0x180C DUP3 PUSH2 0x1D77 JUMP JUMPDEST PUSH1 0x40 DUP3 ADD SWAP1 POP SWAP2 SWAP1 POP JUMP JUMPDEST PUSH1 0x0 PUSH2 0x1824 PUSH1 0x44 DUP4 PUSH2 0x1A82 JUMP JUMPDEST SWAP2 POP PUSH2 0x182F DUP3 PUSH2 0x1DC6 JUMP JUMPDEST PUSH1 0x60 DUP3 ADD SWAP1 POP SWAP2 SWAP1 POP JUMP JUMPDEST PUSH1 0x0 PUSH2 0x1847 PUSH1 0x38 DUP4 PUSH2 0x1A82 JUMP JUMPDEST SWAP2 POP PUSH2 0x1852 DUP3 PUSH2 0x1E3B JUMP JUMPDEST PUSH1 0x40 DUP3 ADD SWAP1 POP SWAP2 SWAP1 POP JUMP JUMPDEST PUSH1 0x0 PUSH2 0x186A PUSH1 0x1F DUP4 PUSH2 0x1A82 JUMP JUMPDEST SWAP2 POP PUSH2 0x1875 DUP3 PUSH2 0x1E8A JUMP JUMPDEST PUSH1 0x20 DUP3 ADD SWAP1 POP SWAP2 SWAP1 POP JUMP JUMPDEST PUSH1 0x0 PUSH2 0x188D PUSH1 0x13 DUP4 PUSH2 0x1A82 JUMP JUMPDEST SWAP2 POP PUSH2 0x1898 DUP3 PUSH2 0x1EB3 JUMP JUMPDEST PUSH1 0x20 DUP3 ADD SWAP1 POP SWAP2 SWAP1 POP JUMP JUMPDEST PUSH2 0x18AC DUP2 PUSH2 0x1BF8 JUMP JUMPDEST DUP3 MSTORE POP POP JUMP JUMPDEST PUSH1 0x0 PUSH1 0x20 DUP3 ADD SWAP1 POP PUSH2 0x18C7 PUSH1 0x0 DUP4 ADD DUP5 PUSH2 0x173B JUMP JUMPDEST SWAP3 SWAP2 POP POP JUMP JUMPDEST PUSH1 0x0 PUSH1 0x20 DUP3 ADD SWAP1 POP PUSH2 0x18E2 PUSH1 0x0 DUP4 ADD DUP5 PUSH2 0x172C JUMP JUMPDEST SWAP3 SWAP2 POP POP JUMP JUMPDEST PUSH1 0x0 PUSH1 0x40 DUP3 ADD SWAP1 POP PUSH2 0x18FD PUSH1 0x0 DUP4 ADD DUP6 PUSH2 0x171D JUMP JUMPDEST PUSH2 0x190A PUSH1 0x20 DUP4 ADD DUP5 PUSH2 0x18A3 JUMP JUMPDEST SWAP4 SWAP3 POP POP POP JUMP JUMPDEST PUSH1 0x0 PUSH1 0x20 DUP3 ADD SWAP1 POP PUSH2 0x1926 PUSH1 0x0 DUP4 ADD DUP5 PUSH2 0x174A JUMP JUMPDEST SWAP3 SWAP2 POP POP JUMP JUMPDEST PUSH1 0x0 PUSH1 0x20 DUP3 ADD SWAP1 POP PUSH2 0x1941 PUSH1 0x0 DUP4 ADD DUP5 PUSH2 0x1759 JUMP JUMPDEST SWAP3 SWAP2 POP POP JUMP JUMPDEST PUSH1 0x0 PUSH1 0x20 DUP3 ADD SWAP1 POP DUP2 DUP2 SUB PUSH1 0x0 DUP4 ADD MSTORE PUSH2 0x1960 DUP2 PUSH2 0x1768 JUMP JUMPDEST SWAP1 POP SWAP2 SWAP1 POP JUMP JUMPDEST PUSH1 0x0 PUSH1 0x20 DUP3 ADD SWAP1 POP DUP2 DUP2 SUB PUSH1 0x0 DUP4 ADD MSTORE PUSH2 0x1980 DUP2 PUSH2 0x178B JUMP JUMPDEST SWAP1 POP SWAP2 SWAP1 POP JUMP JUMPDEST PUSH1 0x0 PUSH1 0x20 DUP3 ADD SWAP1 POP DUP2 DUP2 SUB PUSH1 0x0 DUP4 ADD MSTORE PUSH2 0x19A0 DUP2 PUSH2 0x17AE JUMP JUMPDEST SWAP1 POP SWAP2 SWAP1 POP JUMP JUMPDEST PUSH1 0x0 PUSH1 0x20 DUP3 ADD SWAP1 POP DUP2 DUP2 SUB PUSH1 0x0 DUP4 ADD MSTORE PUSH2 0x19C0 DUP2 PUSH2 0x17D1 JUMP JUMPDEST SWAP1 POP SWAP2 SWAP1 POP JUMP JUMPDEST PUSH1 0x0 PUSH1 0x20 DUP3 ADD SWAP1 POP DUP2 DUP2 SUB PUSH1 0x0 DUP4 ADD MSTORE PUSH2 0x19E0 DUP2 PUSH2 0x17F4 JUMP JUMPDEST SWAP1 POP SWAP2 SWAP1 POP JUMP JUMPDEST PUSH1 0x0 PUSH1 0x20 DUP3 ADD SWAP1 POP DUP2 DUP2 SUB PUSH1 0x0 DUP4 ADD MSTORE PUSH2 0x1A00 DUP2 PUSH2 0x1817 JUMP JUMPDEST SWAP1 POP SWAP2 SWAP1 POP JUMP JUMPDEST PUSH1 0x0 PUSH1 0x20 DUP3 ADD SWAP1 POP DUP2 DUP2 SUB PUSH1 0x0 DUP4 ADD MSTORE PUSH2 0x1A20 DUP2 PUSH2 0x183A JUMP JUMPDEST SWAP1 POP SWAP2 SWAP1 POP JUMP JUMPDEST PUSH1 0x0 PUSH1 0x20 DUP3 ADD SWAP1 POP DUP2 DUP2 SUB PUSH1 0x0 DUP4 ADD MSTORE PUSH2 0x1A40 DUP2 PUSH2 0x185D JUMP JUMPDEST SWAP1 POP SWAP2 SWAP1 POP JUMP JUMPDEST PUSH1 0x0 PUSH1 0x20 DUP3 ADD SWAP1 POP DUP2 DUP2 SUB PUSH1 0x0 DUP4 ADD MSTORE PUSH2 0x1A60 DUP2 PUSH2 0x1880 JUMP JUMPDEST SWAP1 POP SWAP2 SWAP1 POP JUMP JUMPDEST PUSH1 0x0 PUSH1 0x20 DUP3 ADD SWAP1 POP PUSH2 0x1A7C PUSH1 0x0 DUP4 ADD DUP5 PUSH2 0x18A3 JUMP JUMPDEST SWAP3 SWAP2 POP POP JUMP JUMPDEST PUSH1 0x0 DUP3 DUP3 MSTORE PUSH1 0x20 DUP3 ADD SWAP1 POP SWAP3 SWAP2 POP POP JUMP JUMPDEST PUSH1 0x0 PUSH2 0x1A9E DUP3 PUSH2 0x1BF8 JUMP JUMPDEST SWAP2 POP PUSH2 0x1AA9 DUP4 PUSH2 0x1BF8 JUMP JUMPDEST SWAP3 POP DUP3 PUSH32 0xFFFFFFFFFFFFFFFFFFFFFFFFFFFFFFFFFFFFFFFFFFFFFFFFFFFFFFFFFFFFFFFF SUB DUP3 GT ISZERO PUSH2 0x1ADE JUMPI PUSH2 0x1ADD PUSH2 0x1C4A JUMP JUMPDEST JUMPDEST DUP3 DUP3 ADD SWAP1 POP SWAP3 SWAP2 POP POP JUMP JUMPDEST PUSH1 0x0 PUSH2 0x1AF4 DUP3 PUSH2 0x1BF8 JUMP JUMPDEST SWAP2 POP PUSH2 0x1AFF DUP4 PUSH2 0x1BF8 JUMP JUMPDEST SWAP3 POP DUP3 PUSH2 0x1B0F JUMPI PUSH2 0x1B0E PUSH2 0x1C79 JUMP JUMPDEST JUMPDEST DUP3 DUP3 DIV SWAP1 POP SWAP3 SWAP2 POP POP JUMP JUMPDEST PUSH1 0x0 PUSH2 0x1B25 DUP3 PUSH2 0x1BF8 JUMP JUMPDEST SWAP2 POP PUSH2 0x1B30 DUP4 PUSH2 0x1BF8 JUMP JUMPDEST SWAP3 POP DUP2 PUSH32 0xFFFFFFFFFFFFFFFFFFFFFFFFFFFFFFFFFFFFFFFFFFFFFFFFFFFFFFFFFFFFFFFF DIV DUP4 GT DUP3 ISZERO ISZERO AND ISZERO PUSH2 0x1B69 JUMPI PUSH2 0x1B68 PUSH2 0x1C4A JUMP JUMPDEST JUMPDEST DUP3 DUP3 MUL SWAP1 POP SWAP3 SWAP2 POP POP JUMP JUMPDEST PUSH1 0x0 PUSH2 0x1B7F DUP3 PUSH2 0x1BF8 JUMP JUMPDEST SWAP2 POP PUSH2 0x1B8A DUP4 PUSH2 0x1BF8 JUMP JUMPDEST SWAP3 POP DUP3 DUP3 LT ISZERO PUSH2 0x1B9D JUMPI PUSH2 0x1B9C PUSH2 0x1C4A JUMP JUMPDEST JUMPDEST DUP3 DUP3 SUB SWAP1 POP SWAP3 SWAP2 POP POP JUMP JUMPDEST PUSH1 0x0 PUSH2 0x1BB3 DUP3 PUSH2 0x1BD8 JUMP JUMPDEST SWAP1 POP SWAP2 SWAP1 POP JUMP JUMPDEST PUSH1 0x0 PUSH2 0x1BC5 DUP3 PUSH2 0x1BD8 JUMP JUMPDEST SWAP1 POP SWAP2 SWAP1 POP JUMP JUMPDEST PUSH1 0x0 DUP2 ISZERO ISZERO SWAP1 POP SWAP2 SWAP1 POP JUMP JUMPDEST PUSH1 0x0 PUSH20 0xFFFFFFFFFFFFFFFFFFFFFFFFFFFFFFFFFFFFFFFF DUP3 AND SWAP1 POP SWAP2 SWAP1 POP JUMP JUMPDEST PUSH1 0x0 DUP2 SWAP1 POP SWAP2 SWAP1 POP JUMP JUMPDEST PUSH1 0x0 PUSH2 0x1C0D DUP3 PUSH2 0x1C26 JUMP JUMPDEST SWAP1 POP SWAP2 SWAP1 POP JUMP JUMPDEST PUSH1 0x0 PUSH2 0x1C1F DUP3 PUSH2 0x1C26 JUMP JUMPDEST SWAP1 POP SWAP2 SWAP1 POP JUMP JUMPDEST PUSH1 0x0 PUSH2 0x1C31 DUP3 PUSH2 0x1C38 JUMP JUMPDEST SWAP1 POP SWAP2 SWAP1 POP JUMP JUMPDEST PUSH1 0x0 PUSH2 0x1C43 DUP3 PUSH2 0x1BD8 JUMP JUMPDEST SWAP1 POP SWAP2 SWAP1 POP JUMP JUMPDEST PUSH32 0x4E487B7100000000000000000000000000000000000000000000000000000000 PUSH1 0x0 MSTORE PUSH1 0x11 PUSH1 0x4 MSTORE PUSH1 0x24 PUSH1 0x0 REVERT JUMPDEST PUSH32 0x4E487B7100000000000000000000000000000000000000000000000000000000 PUSH1 0x0 MSTORE PUSH1 0x12 PUSH1 0x4 MSTORE PUSH1 0x24 PUSH1 0x0 REVERT JUMPDEST PUSH1 0x0 DUP1 REVERT JUMPDEST PUSH32 0x4F6E6C7920746865206F776E65722063616E2063616C6C20746869732066756E PUSH1 0x0 DUP3 ADD MSTORE PUSH32 0x6374696F6E000000000000000000000000000000000000000000000000000000 PUSH1 0x20 DUP3 ADD MSTORE POP JUMP JUMPDEST PUSH32 0x5061757361626C653A206E6F7420706175736564000000000000000000000000 PUSH1 0x0 DUP3 ADD MSTORE POP JUMP JUMPDEST PUSH32 0x5061757361626C653A2070617573656400000000000000000000000000000000 PUSH1 0x0 DUP3 ADD MSTORE POP JUMP JUMPDEST PUSH32 0x416D6F756E742063616E6E6F74206265207A65726F0000000000000000000000 PUSH1 0x0 DUP3 ADD MSTORE POP JUMP JUMPDEST PUSH32 0x42656E65666963696172792063616E6E6F74206265207A65726F206164647265 PUSH1 0x0 DUP3 ADD MSTORE PUSH32 0x7373000000000000000000000000000000000000000000000000000000000000 PUSH1 0x20 DUP3 ADD MSTORE POP JUMP JUMPDEST PUSH32 0x546865207769746864726177616C20616D6F756E742065786365656473207468 PUSH1 0x0 DUP3 ADD MSTORE PUSH32 0x65206C696D6974206F722064656C617920686173206E6F742070617373656420 PUSH1 0x20 DUP3 ADD MSTORE PUSH32 0x7965742E00000000000000000000000000000000000000000000000000000000 PUSH1 0x40 DUP3 ADD MSTORE POP JUMP JUMPDEST PUSH32 0x4F6E6C7920746865206F776E6572206F72207468652062656E65666963696172 PUSH1 0x0 DUP3 ADD MSTORE PUSH32 0x792063616E2063616C6C20746869732066756E6374696F6E0000000000000000 PUSH1 0x20 DUP3 ADD MSTORE POP JUMP JUMPDEST PUSH32 0x5265656E7472616E637947756172643A207265656E7472616E742063616C6C00 PUSH1 0x0 DUP3 ADD MSTORE POP JUMP JUMPDEST PUSH32 0x496E73756666696369656E742066756E64732E00000000000000000000000000 PUSH1 0x0 DUP3 ADD MSTORE POP JUMP JUMPDEST PUSH2 0x1EE5 DUP2 PUSH2 0x1BA8 JUMP JUMPDEST DUP2 EQ PUSH2 0x1EF0 JUMPI PUSH1 0x0 DUP1 REVERT JUMPDEST POP JUMP JUMPDEST PUSH2 0x1EFC DUP2 PUSH2 0x1BBA JUMP JUMPDEST DUP2 EQ PUSH2 0x1F07 JUMPI PUSH1 0x0 DUP1 REVERT JUMPDEST POP JUMP JUMPDEST PUSH2 0x1F13 DUP2 PUSH2 0x1BCC JUMP JUMPDEST DUP2 EQ PUSH2 0x1F1E JUMPI PUSH1 0x0 DUP1 REVERT JUMPDEST POP JUMP JUMPDEST PUSH2 0x1F2A DUP2 PUSH2 0x1BF8 JUMP JUMPDEST DUP2 EQ PUSH2 0x1F35 JUMPI PUSH1 0x0 DUP1 REVERT JUMPDEST POP JUMP INVALID LOG2 PUSH5 0x6970667358 0x22 SLT KECCAK256 0xDB 0xD7 0x28 PUSH28 0x52AEE98CF54E5E593BD1E3BA915189D9EB5E6899080D48A3B4F84C73 PUSH5 0x736F6C6343 STOP ADDMOD SMOD STOP CALLER "
				},
				"gasEstimates": {
					"creation": {
						"codeDepositCost": "1609200",
						"executionCost": "infinite",
						"totalCost": "infinite"
					},
					"external": {
						"": "2175",
						"ERC20()": "2666",
						"ERC20Token()": "2559",
						"InitiatedAt()": "2519",
						"balanceOf(bool,address)": "infinite",
						"beneficiary()": "2626",
						"delay()": "2540",
						"getWithdrawLimit(address)": "2929",
						"owner()": "2603",
						"pause(address)": "infinite",
						"paused()": "2568",
						"returnBeneficiary()": "2590",
						"returnDelay()": "2481",
						"returnInitiateAt()": "2460",
						"returnOwner()": "2633",
						"returnTransferFee()": "2547",
						"setBeneficiary(address,uint256,address)": "infinite",
						"setWithdrawLimit(uint256,address,address)": "infinite",
						"tokenBalance()": "2451",
						"transferOrWithdraw(bool,bool,address,uint256,address,address)": "infinite",
						"unpause(address)": "infinite",
						"withdrawLimit(address)": "2946"
					}
				},
				"methodIdentifiers": {
					"ERC20()": "cc4aa204",
					"ERC20Token()": "7a80760e",
					"InitiatedAt()": "28af53fa",
					"balanceOf(bool,address)": "1903b431",
					"beneficiary()": "38af3eed",
					"delay()": "6a42b8f8",
					"getWithdrawLimit(address)": "d4fb7e2d",
					"owner()": "8da5cb5b",
					"pause(address)": "76a67a51",
					"paused()": "5c975abb",
					"returnBeneficiary()": "23658af4",
					"returnDelay()": "c6a62290",
					"returnInitiateAt()": "4bfffc86",
					"returnOwner()": "94a927fe",
					"returnTransferFee()": "f5c91a0b",
					"setBeneficiary(address,uint256,address)": "0a84aac5",
					"setWithdrawLimit(uint256,address,address)": "56e0a361",
					"tokenBalance()": "9e1a4d19",
					"transferOrWithdraw(bool,bool,address,uint256,address,address)": "836b1aff",
					"unpause(address)": "57b001f9",
					"withdrawLimit(address)": "fce33f01"
				}
			},
			"storageLayout": {
				"storage": [
					{
						"astId": 17,
						"contract": "contract/JointAccount.sol:Accounts",
						"label": "_paused",
						"offset": 0,
						"slot": "0",
						"type": "t_bool"
					},
					{
						"astId": 118,
						"contract": "contract/JointAccount.sol:Accounts",
						"label": "_status",
						"offset": 0,
						"slot": "1",
						"type": "t_uint256"
					},
					{
						"astId": 1233,
						"contract": "contract/JointAccount.sol:Accounts",
						"label": "ERC20",
						"offset": 0,
						"slot": "2",
						"type": "t_contract(IERC20)239"
					},
					{
						"astId": 1238,
						"contract": "contract/JointAccount.sol:Accounts",
						"label": "owner",
						"offset": 0,
						"slot": "3",
						"type": "t_address_payable"
					},
					{
						"astId": 1240,
						"contract": "contract/JointAccount.sol:Accounts",
						"label": "beneficiary",
						"offset": 0,
						"slot": "4",
						"type": "t_address_payable"
					},
					{
						"astId": 1242,
						"contract": "contract/JointAccount.sol:Accounts",
						"label": "ERC20Token",
						"offset": 0,
						"slot": "5",
						"type": "t_address_payable"
					},
					{
						"astId": 1244,
						"contract": "contract/JointAccount.sol:Accounts",
						"label": "feeAddress",
						"offset": 0,
						"slot": "6",
						"type": "t_address_payable"
					},
					{
						"astId": 1246,
						"contract": "contract/JointAccount.sol:Accounts",
						"label": "InitiatedAt",
						"offset": 0,
						"slot": "7",
						"type": "t_uint256"
					},
					{
						"astId": 1248,
						"contract": "contract/JointAccount.sol:Accounts",
						"label": "delay",
						"offset": 0,
						"slot": "8",
						"type": "t_uint256"
					},
					{
						"astId": 1250,
						"contract": "contract/JointAccount.sol:Accounts",
						"label": "fee",
						"offset": 0,
						"slot": "9",
						"type": "t_uint256"
					},
					{
						"astId": 1252,
						"contract": "contract/JointAccount.sol:Accounts",
						"label": "transferFee",
						"offset": 0,
						"slot": "10",
						"type": "t_uint256"
					},
					{
						"astId": 1254,
						"contract": "contract/JointAccount.sol:Accounts",
						"label": "tokenBalance",
						"offset": 0,
						"slot": "11",
						"type": "t_uint256"
					},
					{
						"astId": 1258,
						"contract": "contract/JointAccount.sol:Accounts",
						"label": "withdrawLimit",
						"offset": 0,
						"slot": "12",
						"type": "t_mapping(t_address,t_uint256)"
					}
				],
				"types": {
					"t_address": {
						"encoding": "inplace",
						"label": "address",
						"numberOfBytes": "20"
					},
					"t_address_payable": {
						"encoding": "inplace",
						"label": "address payable",
						"numberOfBytes": "20"
					},
					"t_bool": {
						"encoding": "inplace",
						"label": "bool",
						"numberOfBytes": "1"
					},
					"t_contract(IERC20)239": {
						"encoding": "inplace",
						"label": "contract IERC20",
						"numberOfBytes": "20"
					},
					"t_mapping(t_address,t_uint256)": {
						"encoding": "mapping",
						"key": "t_address",
						"label": "mapping(address => uint256)",
						"numberOfBytes": "32",
						"value": "t_uint256"
					},
					"t_uint256": {
						"encoding": "inplace",
						"label": "uint256",
						"numberOfBytes": "32"
					}
				}
			},
			"userdoc": {
				"kind": "user",
				"methods": {},
				"version": 1
			}
		}
	}
}