{
	"contract/HeirAccount.sol": {
		"Accounts": {
			"abi": [
				{
					"inputs": [
						{
							"internalType": "address payable",
							"name": "_owner",
							"type": "address"
						},
						{
							"internalType": "address payable",
							"name": "_feeAddress",
							"type": "address"
						},
						{
							"internalType": "uint256",
							"name": "_transferFee",
							"type": "uint256"
						}
					],
					"stateMutability": "nonpayable",
					"type": "constructor"
				},
				{
					"anonymous": false,
					"inputs": [
						{
							"indexed": true,
							"internalType": "address",
							"name": "contractAddress",
							"type": "address"
						},
						{
							"indexed": true,
							"internalType": "address",
							"name": "from",
							"type": "address"
						},
						{
							"indexed": false,
							"internalType": "uint256",
							"name": "amount",
							"type": "uint256"
						}
					],
					"name": "Deposit",
					"type": "event"
				},
				{
					"stateMutability": "payable",
					"type": "fallback"
				},
				{
					"inputs": [],
					"name": "ERC20",
					"outputs": [
						{
							"internalType": "contract IERC20",
							"name": "",
							"type": "address"
						}
					],
					"stateMutability": "view",
					"type": "function"
				},
				{
					"inputs": [],
					"name": "ERC20Token",
					"outputs": [
						{
							"internalType": "address payable",
							"name": "",
							"type": "address"
						}
					],
					"stateMutability": "view",
					"type": "function"
				},
				{
					"inputs": [
						{
							"internalType": "bool",
							"name": "_isCelo",
							"type": "bool"
						},
						{
							"internalType": "address",
							"name": "_ERC20Address",
							"type": "address"
						}
					],
					"name": "balanceOf",
					"outputs": [
						{
							"internalType": "uint256",
							"name": "",
							"type": "uint256"
						}
					],
					"stateMutability": "view",
					"type": "function"
				},
				{
					"inputs": [
						{
							"internalType": "address",
							"name": "_sender",
							"type": "address"
						}
					],
					"name": "claim",
					"outputs": [],
					"stateMutability": "nonpayable",
					"type": "function"
				},
				{
					"inputs": [],
					"name": "claimDelay",
					"outputs": [
						{
							"internalType": "uint256",
							"name": "",
							"type": "uint256"
						}
					],
					"stateMutability": "view",
					"type": "function"
				},
				{
					"inputs": [],
					"name": "claimInProgress",
					"outputs": [
						{
							"internalType": "bool",
							"name": "",
							"type": "bool"
						}
					],
					"stateMutability": "view",
					"type": "function"
				},
				{
					"inputs": [],
					"name": "claimInitiatedAt",
					"outputs": [
						{
							"internalType": "uint256",
							"name": "",
							"type": "uint256"
						}
					],
					"stateMutability": "view",
					"type": "function"
				},
				{
					"inputs": [],
					"name": "deployer",
					"outputs": [
						{
							"internalType": "address",
							"name": "",
							"type": "address"
						}
					],
					"stateMutability": "view",
					"type": "function"
				},
				{
					"inputs": [
						{
							"internalType": "address",
							"name": "_sender",
							"type": "address"
						}
					],
					"name": "freeze",
					"outputs": [],
					"stateMutability": "nonpayable",
					"type": "function"
				},
				{
					"inputs": [],
					"name": "frozen",
					"outputs": [
						{
							"internalType": "bool",
							"name": "",
							"type": "bool"
						}
					],
					"stateMutability": "view",
					"type": "function"
				},
				{
					"inputs": [],
					"name": "heir",
					"outputs": [
						{
							"internalType": "address payable",
							"name": "",
							"type": "address"
						}
					],
					"stateMutability": "view",
					"type": "function"
				},
				{
					"inputs": [
						{
							"internalType": "address",
							"name": "_sender",
							"type": "address"
						}
					],
					"name": "initiateClaim",
					"outputs": [],
					"stateMutability": "nonpayable",
					"type": "function"
				},
				{
					"inputs": [],
					"name": "mutex",
					"outputs": [
						{
							"internalType": "bool",
							"name": "",
							"type": "bool"
						}
					],
					"stateMutability": "view",
					"type": "function"
				},
				{
					"inputs": [],
					"name": "owner",
					"outputs": [
						{
							"internalType": "address payable",
							"name": "",
							"type": "address"
						}
					],
					"stateMutability": "view",
					"type": "function"
				},
				{
					"inputs": [],
					"name": "returnDeployer",
					"outputs": [
						{
							"internalType": "address",
							"name": "",
							"type": "address"
						}
					],
					"stateMutability": "view",
					"type": "function"
				},
				{
					"inputs": [],
					"name": "returnHeir",
					"outputs": [
						{
							"internalType": "address",
							"name": "",
							"type": "address"
						}
					],
					"stateMutability": "view",
					"type": "function"
				},
				{
					"inputs": [],
					"name": "returnOwner",
					"outputs": [
						{
							"internalType": "address",
							"name": "",
							"type": "address"
						}
					],
					"stateMutability": "view",
					"type": "function"
				},
				{
					"inputs": [],
					"name": "returnTransferFee",
					"outputs": [
						{
							"internalType": "uint256",
							"name": "",
							"type": "uint256"
						}
					],
					"stateMutability": "view",
					"type": "function"
				},
				{
					"inputs": [
						{
							"internalType": "address payable",
							"name": "_heir",
							"type": "address"
						},
						{
							"internalType": "uint256",
							"name": "_claimDelay",
							"type": "uint256"
						},
						{
							"internalType": "address",
							"name": "_sender",
							"type": "address"
						}
					],
					"name": "setHeir",
					"outputs": [],
					"stateMutability": "nonpayable",
					"type": "function"
				},
				{
					"inputs": [
						{
							"internalType": "address",
							"name": "_sender",
							"type": "address"
						}
					],
					"name": "stopClaim",
					"outputs": [],
					"stateMutability": "nonpayable",
					"type": "function"
				},
				{
					"inputs": [],
					"name": "tokenBalance",
					"outputs": [
						{
							"internalType": "uint256",
							"name": "",
							"type": "uint256"
						}
					],
					"stateMutability": "view",
					"type": "function"
				},
				{
					"inputs": [
						{
							"internalType": "bool",
							"name": "_isCelo",
							"type": "bool"
						},
						{
							"internalType": "address payable",
							"name": "_recipient",
							"type": "address"
						},
						{
							"internalType": "uint256",
							"name": "_amount",
							"type": "uint256"
						},
						{
							"internalType": "address",
							"name": "_ERC20Address",
							"type": "address"
						},
						{
							"internalType": "address",
							"name": "_sender",
							"type": "address"
						}
					],
					"name": "transferFunds",
					"outputs": [],
					"stateMutability": "payable",
					"type": "function"
				},
				{
					"inputs": [
						{
							"internalType": "address",
							"name": "_sender",
							"type": "address"
						}
					],
					"name": "unfreeze",
					"outputs": [],
					"stateMutability": "nonpayable",
					"type": "function"
				},
				{
					"inputs": [
						{
							"internalType": "bool",
							"name": "_isCelo",
							"type": "bool"
						},
						{
							"internalType": "uint256",
							"name": "_amount",
							"type": "uint256"
						},
						{
							"internalType": "address",
							"name": "_ERC20Address",
							"type": "address"
						},
						{
							"internalType": "address",
							"name": "_sender",
							"type": "address"
						}
					],
					"name": "withdraw",
					"outputs": [],
					"stateMutability": "payable",
					"type": "function"
				},
				{
					"stateMutability": "payable",
					"type": "receive"
				}
			],
			"devdoc": {
				"kind": "dev",
				"methods": {},
				"version": 1
			},
			"evm": {
				"assembly": "    /* \"contract/HeirAccount.sol\":803:7488  contract Accounts {... */\n  mstore(0x40, 0x80)\n    /* \"contract/HeirAccount.sol\":1765:1770  false */\n  0x00\n    /* \"contract/HeirAccount.sol\":1745:1770  bool public mutex = false */\n  0x09\n  exp(0x0100, 0x14)\n  dup2\n  sload\n  dup2\n  0xff\n  mul\n  not\n  and\n  swap1\n  dup4\n  iszero\n  iszero\n  mul\n  or\n  swap1\n  sstore\n  pop\n    /* \"contract/HeirAccount.sol\":1878:1883  false */\n  0x00\n    /* \"contract/HeirAccount.sol\":1857:1883  bool public frozen = false */\n  0x0b\n  exp(0x0100, 0x00)\n  dup2\n  sload\n  dup2\n  0xff\n  mul\n  not\n  and\n  swap1\n  dup4\n  iszero\n  iszero\n  mul\n  or\n  swap1\n  sstore\n  pop\n    /* \"contract/HeirAccount.sol\":2001:2225  constructor(address payable _owner, address payable _feeAddress, uint _transferFee) {... */\n  callvalue\n  dup1\n  iszero\n  tag_1\n  jumpi\n  0x00\n  dup1\n  revert\ntag_1:\n  pop\n  mload(0x40)\n  sub(codesize, bytecodeSize)\n  dup1\n  bytecodeSize\n  dup4\n  codecopy\n  dup2\n  dup2\n  add\n  0x40\n  mstore\n  dup2\n  add\n  swap1\n  tag_2\n  swap2\n  swap1\n  tag_3\n  jump\t// in\ntag_2:\n    /* \"contract/HeirAccount.sol\":2106:2112  _owner */\n  dup3\n    /* \"contract/HeirAccount.sol\":2098:2103  owner */\n  0x01\n  0x00\n    /* \"contract/HeirAccount.sol\":2098:2112  owner = _owner */\n  0x0100\n  exp\n  dup2\n  sload\n  dup2\n  0xffffffffffffffffffffffffffffffffffffffff\n  mul\n  not\n  and\n  swap1\n  dup4\n  0xffffffffffffffffffffffffffffffffffffffff\n  and\n  mul\n  or\n  swap1\n  sstore\n  pop\n    /* \"contract/HeirAccount.sol\":2136:2142  _owner */\n  dup3\n    /* \"contract/HeirAccount.sol\":2125:2133  deployer */\n  0x00\n  dup1\n    /* \"contract/HeirAccount.sol\":2125:2142  deployer = _owner */\n  0x0100\n  exp\n  dup2\n  sload\n  dup2\n  0xffffffffffffffffffffffffffffffffffffffff\n  mul\n  not\n  and\n  swap1\n  dup4\n  0xffffffffffffffffffffffffffffffffffffffff\n  and\n  mul\n  or\n  swap1\n  sstore\n  pop\n    /* \"contract/HeirAccount.sol\":2169:2181  _transferFee */\n  dup1\n    /* \"contract/HeirAccount.sol\":2155:2166  transferFee */\n  0x06\n    /* \"contract/HeirAccount.sol\":2155:2181  transferFee = _transferFee */\n  dup2\n  swap1\n  sstore\n  pop\n    /* \"contract/HeirAccount.sol\":2207:2218  _feeAddress */\n  dup2\n    /* \"contract/HeirAccount.sol\":2194:2204  feeAddress */\n  0x07\n  0x00\n    /* \"contract/HeirAccount.sol\":2194:2218  feeAddress = _feeAddress */\n  0x0100\n  exp\n  dup2\n  sload\n  dup2\n  0xffffffffffffffffffffffffffffffffffffffff\n  mul\n  not\n  and\n  swap1\n  dup4\n  0xffffffffffffffffffffffffffffffffffffffff\n  and\n  mul\n  or\n  swap1\n  sstore\n  pop\n    /* \"contract/HeirAccount.sol\":2001:2225  constructor(address payable _owner, address payable _feeAddress, uint _transferFee) {... */\n  pop\n  pop\n  pop\n    /* \"contract/HeirAccount.sol\":803:7488  contract Accounts {... */\n  jump(tag_6)\n    /* \"#utility.yul\":7:166   */\ntag_8:\n    /* \"#utility.yul\":72:77   */\n  0x00\n    /* \"#utility.yul\":103:109   */\n  dup2\n    /* \"#utility.yul\":97:110   */\n  mload\n    /* \"#utility.yul\":88:110   */\n  swap1\n  pop\n    /* \"#utility.yul\":119:160   */\n  tag_10\n    /* \"#utility.yul\":154:159   */\n  dup2\n    /* \"#utility.yul\":119:160   */\n  tag_11\n  jump\t// in\ntag_10:\n    /* \"#utility.yul\":7:166   */\n  swap3\n  swap2\n  pop\n  pop\n  jump\t// out\n    /* \"#utility.yul\":172:315   */\ntag_12:\n    /* \"#utility.yul\":229:234   */\n  0x00\n    /* \"#utility.yul\":260:266   */\n  dup2\n    /* \"#utility.yul\":254:267   */\n  mload\n    /* \"#utility.yul\":245:267   */\n  swap1\n  pop\n    /* \"#utility.yul\":276:309   */\n  tag_14\n    /* \"#utility.yul\":303:308   */\n  dup2\n    /* \"#utility.yul\":276:309   */\n  tag_15\n  jump\t// in\ntag_14:\n    /* \"#utility.yul\":172:315   */\n  swap3\n  swap2\n  pop\n  pop\n  jump\t// out\n    /* \"#utility.yul\":321:1016   */\ntag_3:\n    /* \"#utility.yul\":425:431   */\n  0x00\n    /* \"#utility.yul\":433:439   */\n  dup1\n    /* \"#utility.yul\":441:447   */\n  0x00\n    /* \"#utility.yul\":490:492   */\n  0x60\n    /* \"#utility.yul\":478:487   */\n  dup5\n    /* \"#utility.yul\":469:476   */\n  dup7\n    /* \"#utility.yul\":465:488   */\n  sub\n    /* \"#utility.yul\":461:493   */\n  slt\n    /* \"#utility.yul\":458:577   */\n  iszero\n  tag_17\n  jumpi\n    /* \"#utility.yul\":496:575   */\n  tag_18\n  tag_19\n  jump\t// in\ntag_18:\n    /* \"#utility.yul\":458:577   */\ntag_17:\n    /* \"#utility.yul\":616:617   */\n  0x00\n    /* \"#utility.yul\":641:713   */\n  tag_20\n    /* \"#utility.yul\":705:712   */\n  dup7\n    /* \"#utility.yul\":696:702   */\n  dup3\n    /* \"#utility.yul\":685:694   */\n  dup8\n    /* \"#utility.yul\":681:703   */\n  add\n    /* \"#utility.yul\":641:713   */\n  tag_8\n  jump\t// in\ntag_20:\n    /* \"#utility.yul\":631:713   */\n  swap4\n  pop\n    /* \"#utility.yul\":587:723   */\n  pop\n    /* \"#utility.yul\":762:764   */\n  0x20\n    /* \"#utility.yul\":788:860   */\n  tag_21\n    /* \"#utility.yul\":852:859   */\n  dup7\n    /* \"#utility.yul\":843:849   */\n  dup3\n    /* \"#utility.yul\":832:841   */\n  dup8\n    /* \"#utility.yul\":828:850   */\n  add\n    /* \"#utility.yul\":788:860   */\n  tag_8\n  jump\t// in\ntag_21:\n    /* \"#utility.yul\":778:860   */\n  swap3\n  pop\n    /* \"#utility.yul\":733:870   */\n  pop\n    /* \"#utility.yul\":909:911   */\n  0x40\n    /* \"#utility.yul\":935:999   */\n  tag_22\n    /* \"#utility.yul\":991:998   */\n  dup7\n    /* \"#utility.yul\":982:988   */\n  dup3\n    /* \"#utility.yul\":971:980   */\n  dup8\n    /* \"#utility.yul\":967:989   */\n  add\n    /* \"#utility.yul\":935:999   */\n  tag_12\n  jump\t// in\ntag_22:\n    /* \"#utility.yul\":925:999   */\n  swap2\n  pop\n    /* \"#utility.yul\":880:1009   */\n  pop\n    /* \"#utility.yul\":321:1016   */\n  swap3\n  pop\n  swap3\n  pop\n  swap3\n  jump\t// out\n    /* \"#utility.yul\":1103:1207   */\ntag_25:\n    /* \"#utility.yul\":1148:1155   */\n  0x00\n    /* \"#utility.yul\":1177:1201   */\n  tag_27\n    /* \"#utility.yul\":1195:1200   */\n  dup3\n    /* \"#utility.yul\":1177:1201   */\n  tag_28\n  jump\t// in\ntag_27:\n    /* \"#utility.yul\":1166:1201   */\n  swap1\n  pop\n    /* \"#utility.yul\":1103:1207   */\n  swap2\n  swap1\n  pop\n  jump\t// out\n    /* \"#utility.yul\":1213:1339   */\ntag_28:\n    /* \"#utility.yul\":1250:1257   */\n  0x00\n    /* \"#utility.yul\":1290:1332   */\n  0xffffffffffffffffffffffffffffffffffffffff\n    /* \"#utility.yul\":1283:1288   */\n  dup3\n    /* \"#utility.yul\":1279:1333   */\n  and\n    /* \"#utility.yul\":1268:1333   */\n  swap1\n  pop\n    /* \"#utility.yul\":1213:1339   */\n  swap2\n  swap1\n  pop\n  jump\t// out\n    /* \"#utility.yul\":1345:1422   */\ntag_30:\n    /* \"#utility.yul\":1382:1389   */\n  0x00\n    /* \"#utility.yul\":1411:1416   */\n  dup2\n    /* \"#utility.yul\":1400:1416   */\n  swap1\n  pop\n    /* \"#utility.yul\":1345:1422   */\n  swap2\n  swap1\n  pop\n  jump\t// out\n    /* \"#utility.yul\":1551:1668   */\ntag_19:\n    /* \"#utility.yul\":1660:1661   */\n  0x00\n    /* \"#utility.yul\":1657:1658   */\n  dup1\n    /* \"#utility.yul\":1650:1662   */\n  revert\n    /* \"#utility.yul\":1674:1812   */\ntag_11:\n    /* \"#utility.yul\":1755:1787   */\n  tag_36\n    /* \"#utility.yul\":1781:1786   */\n  dup2\n    /* \"#utility.yul\":1755:1787   */\n  tag_25\n  jump\t// in\ntag_36:\n    /* \"#utility.yul\":1748:1753   */\n  dup2\n    /* \"#utility.yul\":1745:1788   */\n  eq\n    /* \"#utility.yul\":1735:1806   */\n  tag_37\n  jumpi\n    /* \"#utility.yul\":1802:1803   */\n  0x00\n    /* \"#utility.yul\":1799:1800   */\n  dup1\n    /* \"#utility.yul\":1792:1804   */\n  revert\n    /* \"#utility.yul\":1735:1806   */\ntag_37:\n    /* \"#utility.yul\":1674:1812   */\n  pop\n  jump\t// out\n    /* \"#utility.yul\":1818:1940   */\ntag_15:\n    /* \"#utility.yul\":1891:1915   */\n  tag_39\n    /* \"#utility.yul\":1909:1914   */\n  dup2\n    /* \"#utility.yul\":1891:1915   */\n  tag_30\n  jump\t// in\ntag_39:\n    /* \"#utility.yul\":1884:1889   */\n  dup2\n    /* \"#utility.yul\":1881:1916   */\n  eq\n    /* \"#utility.yul\":1871:1934   */\n  tag_40\n  jumpi\n    /* \"#utility.yul\":1930:1931   */\n  0x00\n    /* \"#utility.yul\":1927:1928   */\n  dup1\n    /* \"#utility.yul\":1920:1932   */\n  revert\n    /* \"#utility.yul\":1871:1934   */\ntag_40:\n    /* \"#utility.yul\":1818:1940   */\n  pop\n  jump\t// out\n    /* \"contract/HeirAccount.sol\":803:7488  contract Accounts {... */\ntag_6:\n  dataSize(sub_0)\n  dup1\n  dataOffset(sub_0)\n  0x00\n  codecopy\n  0x00\n  return\nstop\n\nsub_0: assembly {\n        /* \"contract/HeirAccount.sol\":803:7488  contract Accounts {... */\n      mstore(0x40, 0x80)\n      jumpi(tag_1, lt(calldatasize, 0x04))\n      shr(0xe0, calldataload(0x00))\n      dup1\n      0x91f2ebb8\n      gt\n      tag_27\n      jumpi\n      dup1\n      0xcc4aa204\n      gt\n      tag_28\n      jumpi\n      dup1\n      0xcc4aa204\n      eq\n      tag_21\n      jumpi\n      dup1\n      0xd5f39488\n      eq\n      tag_22\n      jumpi\n      dup1\n      0xd86e0575\n      eq\n      tag_23\n      jumpi\n      dup1\n      0xf2b5eea7\n      eq\n      tag_24\n      jumpi\n      dup1\n      0xf5c91a0b\n      eq\n      tag_25\n      jumpi\n      dup1\n      0xfaedd18e\n      eq\n      tag_26\n      jumpi\n      jump(tag_2)\n    tag_28:\n      dup1\n      0x91f2ebb8\n      eq\n      tag_15\n      jumpi\n      dup1\n      0x94a927fe\n      eq\n      tag_16\n      jumpi\n      dup1\n      0x9e1a4d19\n      eq\n      tag_17\n      jumpi\n      dup1\n      0xa5720770\n      eq\n      tag_18\n      jumpi\n      dup1\n      0xb7d1d98e\n      eq\n      tag_19\n      jumpi\n      dup1\n      0xc7983e20\n      eq\n      tag_20\n      jumpi\n      jump(tag_2)\n    tag_27:\n      dup1\n      0x56af4f75\n      gt\n      tag_29\n      jumpi\n      dup1\n      0x56af4f75\n      eq\n      tag_9\n      jumpi\n      dup1\n      0x6c8d5ada\n      eq\n      tag_10\n      jumpi\n      dup1\n      0x6e1a7373\n      eq\n      tag_11\n      jumpi\n      dup1\n      0x7a80760e\n      eq\n      tag_12\n      jumpi\n      dup1\n      0x8d1fdf2f\n      eq\n      tag_13\n      jumpi\n      dup1\n      0x8da5cb5b\n      eq\n      tag_14\n      jumpi\n      jump(tag_2)\n    tag_29:\n      dup1\n      0x054f7d9c\n      eq\n      tag_3\n      jumpi\n      dup1\n      0x1903b431\n      eq\n      tag_4\n      jumpi\n      dup1\n      0x1c8ec299\n      eq\n      tag_5\n      jumpi\n      dup1\n      0x1e83409a\n      eq\n      tag_6\n      jumpi\n      dup1\n      0x362bb2ac\n      eq\n      tag_7\n      jumpi\n      dup1\n      0x45c8b1a6\n      eq\n      tag_8\n      jumpi\n      jump(tag_2)\n    tag_1:\n      jumpi(tag_2, calldatasize)\n        /* \"contract/HeirAccount.sol\":6874:6884  msg.sender */\n      caller\n        /* \"contract/HeirAccount.sol\":6851:6896  Deposit(address(this), msg.sender, msg.value) */\n      0xffffffffffffffffffffffffffffffffffffffff\n      and\n        /* \"contract/HeirAccount.sol\":6867:6871  this */\n      address\n        /* \"contract/HeirAccount.sol\":6851:6896  Deposit(address(this), msg.sender, msg.value) */\n      0xffffffffffffffffffffffffffffffffffffffff\n      and\n      0x5548c837ab068cf56a2c2479df0882a4922fd203edb7517321831d95078c5f62\n        /* \"contract/HeirAccount.sol\":6886:6895  msg.value */\n      callvalue\n        /* \"contract/HeirAccount.sol\":6851:6896  Deposit(address(this), msg.sender, msg.value) */\n      mload(0x40)\n      tag_32\n      swap2\n      swap1\n      tag_33\n      jump\t// in\n    tag_32:\n      mload(0x40)\n      dup1\n      swap2\n      sub\n      swap1\n      log3\n        /* \"contract/HeirAccount.sol\":803:7488  contract Accounts {... */\n      stop\n    tag_2:\n      stop\n        /* \"contract/HeirAccount.sol\":1857:1883  bool public frozen = false */\n    tag_3:\n      callvalue\n      dup1\n      iszero\n      tag_36\n      jumpi\n      0x00\n      dup1\n      revert\n    tag_36:\n      pop\n      tag_37\n      tag_38\n      jump\t// in\n    tag_37:\n      mload(0x40)\n      tag_39\n      swap2\n      swap1\n      tag_40\n      jump\t// in\n    tag_39:\n      mload(0x40)\n      dup1\n      swap2\n      sub\n      swap1\n      return\n        /* \"contract/HeirAccount.sol\":6477:6712  function balanceOf(bool _isCelo, address _ERC20Address) public view returns(uint) {... */\n    tag_4:\n      callvalue\n      dup1\n      iszero\n      tag_41\n      jumpi\n      0x00\n      dup1\n      revert\n    tag_41:\n      pop\n      tag_42\n      0x04\n      dup1\n      calldatasize\n      sub\n      dup2\n      add\n      swap1\n      tag_43\n      swap2\n      swap1\n      tag_44\n      jump\t// in\n    tag_43:\n      tag_45\n      jump\t// in\n    tag_42:\n      mload(0x40)\n      tag_46\n      swap2\n      swap1\n      tag_33\n      jump\t// in\n    tag_46:\n      mload(0x40)\n      dup1\n      swap2\n      sub\n      swap1\n      return\n        /* \"contract/HeirAccount.sol\":1319:1341  uint public claimDelay */\n    tag_5:\n      callvalue\n      dup1\n      iszero\n      tag_47\n      jumpi\n      0x00\n      dup1\n      revert\n    tag_47:\n      pop\n      tag_48\n      tag_49\n      jump\t// in\n    tag_48:\n      mload(0x40)\n      tag_50\n      swap2\n      swap1\n      tag_33\n      jump\t// in\n    tag_50:\n      mload(0x40)\n      dup1\n      swap2\n      sub\n      swap1\n      return\n        /* \"contract/HeirAccount.sol\":3013:3376  function claim(address _sender) public  {... */\n    tag_6:\n      callvalue\n      dup1\n      iszero\n      tag_51\n      jumpi\n      0x00\n      dup1\n      revert\n    tag_51:\n      pop\n      tag_52\n      0x04\n      dup1\n      calldatasize\n      sub\n      dup2\n      add\n      swap1\n      tag_53\n      swap2\n      swap1\n      tag_54\n      jump\t// in\n    tag_53:\n      tag_55\n      jump\t// in\n    tag_52:\n      stop\n        /* \"contract/HeirAccount.sol\":7242:7328  function returnDeployer() public view returns(address){... */\n    tag_7:\n      callvalue\n      dup1\n      iszero\n      tag_56\n      jumpi\n      0x00\n      dup1\n      revert\n    tag_56:\n      pop\n      tag_57\n      tag_58\n      jump\t// in\n    tag_57:\n      mload(0x40)\n      tag_59\n      swap2\n      swap1\n      tag_60\n      jump\t// in\n    tag_59:\n      mload(0x40)\n      dup1\n      swap2\n      sub\n      swap1\n      return\n        /* \"contract/HeirAccount.sol\":3911:4063  function unfreeze(address _sender) public {... */\n    tag_8:\n      callvalue\n      dup1\n      iszero\n      tag_61\n      jumpi\n      0x00\n      dup1\n      revert\n    tag_61:\n      pop\n      tag_62\n      0x04\n      dup1\n      calldatasize\n      sub\n      dup2\n      add\n      swap1\n      tag_63\n      swap2\n      swap1\n      tag_54\n      jump\t// in\n    tag_63:\n      tag_64\n      jump\t// in\n    tag_62:\n      stop\n        /* \"contract/HeirAccount.sol\":7100:7178  function returnHeir() public view returns(address){... */\n    tag_9:\n      callvalue\n      dup1\n      iszero\n      tag_65\n      jumpi\n      0x00\n      dup1\n      revert\n    tag_65:\n      pop\n      tag_66\n      tag_67\n      jump\t// in\n    tag_66:\n      mload(0x40)\n      tag_68\n      swap2\n      swap1\n      tag_60\n      jump\t// in\n    tag_68:\n      mload(0x40)\n      dup1\n      swap2\n      sub\n      swap1\n      return\n        /* \"contract/HeirAccount.sol\":5338:6424  function transferFunds(bool _isCelo, address payable _recipient, uint _amount, address _ERC20Address, address _sender) public payable {... */\n    tag_10:\n      tag_69\n      0x04\n      dup1\n      calldatasize\n      sub\n      dup2\n      add\n      swap1\n      tag_70\n      swap2\n      swap1\n      tag_71\n      jump\t// in\n    tag_70:\n      tag_72\n      jump\t// in\n    tag_69:\n      stop\n        /* \"contract/HeirAccount.sol\":2278:2606  function setHeir(address payable _heir, uint _claimDelay, address _sender) public {... */\n    tag_11:\n      callvalue\n      dup1\n      iszero\n      tag_73\n      jumpi\n      0x00\n      dup1\n      revert\n    tag_73:\n      pop\n      tag_74\n      0x04\n      dup1\n      calldatasize\n      sub\n      dup2\n      add\n      swap1\n      tag_75\n      swap2\n      swap1\n      tag_76\n      jump\t// in\n    tag_75:\n      tag_77\n      jump\t// in\n    tag_74:\n      stop\n        /* \"contract/HeirAccount.sol\":1555:1588  address payable public ERC20Token */\n    tag_12:\n      callvalue\n      dup1\n      iszero\n      tag_78\n      jumpi\n      0x00\n      dup1\n      revert\n    tag_78:\n      pop\n      tag_79\n      tag_80\n      jump\t// in\n    tag_79:\n      mload(0x40)\n      tag_81\n      swap2\n      swap1\n      tag_82\n      jump\t// in\n    tag_81:\n      mload(0x40)\n      dup1\n      swap2\n      sub\n      swap1\n      return\n        /* \"contract/HeirAccount.sol\":3718:3865  function freeze(address _sender) public {... */\n    tag_13:\n      callvalue\n      dup1\n      iszero\n      tag_83\n      jumpi\n      0x00\n      dup1\n      revert\n    tag_83:\n      pop\n      tag_84\n      0x04\n      dup1\n      calldatasize\n      sub\n      dup2\n      add\n      swap1\n      tag_85\n      swap2\n      swap1\n      tag_54\n      jump\t// in\n    tag_85:\n      tag_86\n      jump\t// in\n    tag_84:\n      stop\n        /* \"contract/HeirAccount.sol\":955:983  address payable public owner */\n    tag_14:\n      callvalue\n      dup1\n      iszero\n      tag_87\n      jumpi\n      0x00\n      dup1\n      revert\n    tag_87:\n      pop\n      tag_88\n      tag_89\n      jump\t// in\n    tag_88:\n      mload(0x40)\n      tag_90\n      swap2\n      swap1\n      tag_82\n      jump\t// in\n    tag_90:\n      mload(0x40)\n      dup1\n      swap2\n      sub\n      swap1\n      return\n        /* \"contract/HeirAccount.sol\":1020:1047  address payable public heir */\n    tag_15:\n      callvalue\n      dup1\n      iszero\n      tag_91\n      jumpi\n      0x00\n      dup1\n      revert\n    tag_91:\n      pop\n      tag_92\n      tag_93\n      jump\t// in\n    tag_92:\n      mload(0x40)\n      tag_94\n      swap2\n      swap1\n      tag_82\n      jump\t// in\n    tag_94:\n      mload(0x40)\n      dup1\n      swap2\n      sub\n      swap1\n      return\n        /* \"contract/HeirAccount.sol\":6960:7040  function returnOwner() public view returns(address){... */\n    tag_16:\n      callvalue\n      dup1\n      iszero\n      tag_95\n      jumpi\n      0x00\n      dup1\n      revert\n    tag_95:\n      pop\n      tag_96\n      tag_97\n      jump\t// in\n    tag_96:\n      mload(0x40)\n      tag_98\n      swap2\n      swap1\n      tag_60\n      jump\t// in\n    tag_98:\n      mload(0x40)\n      dup1\n      swap2\n      sub\n      swap1\n      return\n        /* \"contract/HeirAccount.sol\":1805:1829  uint public tokenBalance */\n    tag_17:\n      callvalue\n      dup1\n      iszero\n      tag_99\n      jumpi\n      0x00\n      dup1\n      revert\n    tag_99:\n      pop\n      tag_100\n      tag_101\n      jump\t// in\n    tag_100:\n      mload(0x40)\n      tag_102\n      swap2\n      swap1\n      tag_33\n      jump\t// in\n    tag_102:\n      mload(0x40)\n      dup1\n      swap2\n      sub\n      swap1\n      return\n        /* \"contract/HeirAccount.sol\":1745:1770  bool public mutex = false */\n    tag_18:\n      callvalue\n      dup1\n      iszero\n      tag_103\n      jumpi\n      0x00\n      dup1\n      revert\n    tag_103:\n      pop\n      tag_104\n      tag_105\n      jump\t// in\n    tag_104:\n      mload(0x40)\n      tag_106\n      swap2\n      swap1\n      tag_40\n      jump\t// in\n    tag_106:\n      mload(0x40)\n      dup1\n      swap2\n      sub\n      swap1\n      return\n        /* \"contract/HeirAccount.sol\":3448:3673  function stopClaim(address _sender) public {... */\n    tag_19:\n      callvalue\n      dup1\n      iszero\n      tag_107\n      jumpi\n      0x00\n      dup1\n      revert\n    tag_107:\n      pop\n      tag_108\n      0x04\n      dup1\n      calldatasize\n      sub\n      dup2\n      add\n      swap1\n      tag_109\n      swap2\n      swap1\n      tag_54\n      jump\t// in\n    tag_109:\n      tag_110\n      jump\t// in\n    tag_108:\n      stop\n        /* \"contract/HeirAccount.sol\":1197:1225  uint public claimInitiatedAt */\n    tag_20:\n      callvalue\n      dup1\n      iszero\n      tag_111\n      jumpi\n      0x00\n      dup1\n      revert\n    tag_111:\n      pop\n      tag_112\n      tag_113\n      jump\t// in\n    tag_112:\n      mload(0x40)\n      tag_114\n      swap2\n      swap1\n      tag_33\n      jump\t// in\n    tag_114:\n      mload(0x40)\n      dup1\n      swap2\n      sub\n      swap1\n      return\n        /* \"contract/HeirAccount.sol\":1608:1627  IERC20 public ERC20 */\n    tag_21:\n      callvalue\n      dup1\n      iszero\n      tag_115\n      jumpi\n      0x00\n      dup1\n      revert\n    tag_115:\n      pop\n      tag_116\n      tag_117\n      jump\t// in\n    tag_116:\n      mload(0x40)\n      tag_118\n      swap2\n      swap1\n      tag_119\n      jump\t// in\n    tag_118:\n      mload(0x40)\n      dup1\n      swap2\n      sub\n      swap1\n      return\n        /* \"contract/HeirAccount.sol\":878:901  address public deployer */\n    tag_22:\n      callvalue\n      dup1\n      iszero\n      tag_120\n      jumpi\n      0x00\n      dup1\n      revert\n    tag_120:\n      pop\n      tag_121\n      tag_122\n      jump\t// in\n    tag_121:\n      mload(0x40)\n      tag_123\n      swap2\n      swap1\n      tag_60\n      jump\t// in\n    tag_123:\n      mload(0x40)\n      dup1\n      swap2\n      sub\n      swap1\n      return\n        /* \"contract/HeirAccount.sol\":4108:5294  function withdraw(bool _isCelo, uint _amount, address _ERC20Address, address _sender) public payable {... */\n    tag_23:\n      tag_124\n      0x04\n      dup1\n      calldatasize\n      sub\n      dup2\n      add\n      swap1\n      tag_125\n      swap2\n      swap1\n      tag_126\n      jump\t// in\n    tag_125:\n      tag_127\n      jump\t// in\n    tag_124:\n      stop\n        /* \"contract/HeirAccount.sol\":2668:2957  function initiateClaim(address _sender) public {... */\n    tag_24:\n      callvalue\n      dup1\n      iszero\n      tag_128\n      jumpi\n      0x00\n      dup1\n      revert\n    tag_128:\n      pop\n      tag_129\n      0x04\n      dup1\n      calldatasize\n      sub\n      dup2\n      add\n      swap1\n      tag_130\n      swap2\n      swap1\n      tag_54\n      jump\t// in\n    tag_130:\n      tag_131\n      jump\t// in\n    tag_129:\n      stop\n        /* \"contract/HeirAccount.sol\":7392:7481  function returnTransferFee() public view returns(uint){... */\n    tag_25:\n      callvalue\n      dup1\n      iszero\n      tag_132\n      jumpi\n      0x00\n      dup1\n      revert\n    tag_132:\n      pop\n      tag_133\n      tag_134\n      jump\t// in\n    tag_133:\n      mload(0x40)\n      tag_135\n      swap2\n      swap1\n      tag_33\n      jump\t// in\n    tag_135:\n      mload(0x40)\n      dup1\n      swap2\n      sub\n      swap1\n      return\n        /* \"contract/HeirAccount.sol\":1107:1134  bool public claimInProgress */\n    tag_26:\n      callvalue\n      dup1\n      iszero\n      tag_136\n      jumpi\n      0x00\n      dup1\n      revert\n    tag_136:\n      pop\n      tag_137\n      tag_138\n      jump\t// in\n    tag_137:\n      mload(0x40)\n      tag_139\n      swap2\n      swap1\n      tag_40\n      jump\t// in\n    tag_139:\n      mload(0x40)\n      dup1\n      swap2\n      sub\n      swap1\n      return\n        /* \"contract/HeirAccount.sol\":1857:1883  bool public frozen = false */\n    tag_38:\n      0x0b\n      0x00\n      swap1\n      sload\n      swap1\n      0x0100\n      exp\n      swap1\n      div\n      0xff\n      and\n      dup2\n      jump\t// out\n        /* \"contract/HeirAccount.sol\":6477:6712  function balanceOf(bool _isCelo, address _ERC20Address) public view returns(uint) {... */\n    tag_45:\n        /* \"contract/HeirAccount.sol\":6553:6557  uint */\n      0x00\n        /* \"contract/HeirAccount.sol\":6569:6576  _isCelo */\n      dup3\n        /* \"contract/HeirAccount.sol\":6565:6706  if (_isCelo) {... */\n      iszero\n      tag_141\n      jumpi\n        /* \"contract/HeirAccount.sol\":6595:6616  address(this).balance */\n      selfbalance\n        /* \"contract/HeirAccount.sol\":6588:6616  return address(this).balance */\n      swap1\n      pop\n      jump(tag_140)\n        /* \"contract/HeirAccount.sol\":6565:6706  if (_isCelo) {... */\n    tag_141:\n        /* \"contract/HeirAccount.sol\":6653:6666  _ERC20Address */\n      dup2\n        /* \"contract/HeirAccount.sol\":6646:6677  IERC20(_ERC20Address).balanceOf */\n      0xffffffffffffffffffffffffffffffffffffffff\n      and\n      0x70a08231\n        /* \"contract/HeirAccount.sol\":6686:6690  this */\n      address\n        /* \"contract/HeirAccount.sol\":6646:6692  IERC20(_ERC20Address).balanceOf(address(this)) */\n      mload(0x40)\n      dup3\n      0xffffffff\n      and\n      0xe0\n      shl\n      dup2\n      mstore\n      0x04\n      add\n      tag_143\n      swap2\n      swap1\n      tag_60\n      jump\t// in\n    tag_143:\n      0x20\n      mload(0x40)\n      dup1\n      dup4\n      sub\n      dup2\n      dup7\n      dup1\n      extcodesize\n      iszero\n      dup1\n      iszero\n      tag_144\n      jumpi\n      0x00\n      dup1\n      revert\n    tag_144:\n      pop\n      gas\n      staticcall\n      iszero\n      dup1\n      iszero\n      tag_146\n      jumpi\n      returndatasize\n      0x00\n      dup1\n      returndatacopy\n      revert(0x00, returndatasize)\n    tag_146:\n      pop\n      pop\n      pop\n      pop\n      mload(0x40)\n      returndatasize\n      not(0x1f)\n      0x1f\n      dup3\n      add\n      and\n      dup3\n      add\n      dup1\n      0x40\n      mstore\n      pop\n      dup2\n      add\n      swap1\n      tag_147\n      swap2\n      swap1\n      tag_148\n      jump\t// in\n    tag_147:\n        /* \"contract/HeirAccount.sol\":6639:6692  return IERC20(_ERC20Address).balanceOf(address(this)) */\n      swap1\n      pop\n        /* \"contract/HeirAccount.sol\":6477:6712  function balanceOf(bool _isCelo, address _ERC20Address) public view returns(uint) {... */\n    tag_140:\n      swap3\n      swap2\n      pop\n      pop\n      jump\t// out\n        /* \"contract/HeirAccount.sol\":1319:1341  uint public claimDelay */\n    tag_49:\n      sload(0x04)\n      dup2\n      jump\t// out\n        /* \"contract/HeirAccount.sol\":3013:3376  function claim(address _sender) public  {... */\n    tag_55:\n        /* \"contract/HeirAccount.sol\":3079:3086  _sender */\n      dup1\n        /* \"contract/HeirAccount.sol\":3071:3086  heir == _sender */\n      0xffffffffffffffffffffffffffffffffffffffff\n      and\n        /* \"contract/HeirAccount.sol\":3071:3075  heir */\n      0x02\n      0x00\n      swap1\n      sload\n      swap1\n      0x0100\n      exp\n      swap1\n      div\n      0xffffffffffffffffffffffffffffffffffffffff\n      and\n        /* \"contract/HeirAccount.sol\":3071:3086  heir == _sender */\n      0xffffffffffffffffffffffffffffffffffffffff\n      and\n      eq\n        /* \"contract/HeirAccount.sol\":3063:3127  require(heir == _sender, \"Only the heir can claim the account.\") */\n      tag_150\n      jumpi\n      mload(0x40)\n      0x08c379a000000000000000000000000000000000000000000000000000000000\n      dup2\n      mstore\n      0x04\n      add\n      tag_151\n      swap1\n      tag_152\n      jump\t// in\n    tag_151:\n      mload(0x40)\n      dup1\n      swap2\n      sub\n      swap1\n      revert\n    tag_150:\n        /* \"contract/HeirAccount.sol\":3145:3160  claimInProgress */\n      0x02\n      0x14\n      swap1\n      sload\n      swap1\n      0x0100\n      exp\n      swap1\n      div\n      0xff\n      and\n        /* \"contract/HeirAccount.sol\":3137:3202  require(claimInProgress, \"Claim process has not been initiated.\") */\n      tag_153\n      jumpi\n      mload(0x40)\n      0x08c379a000000000000000000000000000000000000000000000000000000000\n      dup2\n      mstore\n      0x04\n      add\n      tag_154\n      swap1\n      tag_155\n      jump\t// in\n    tag_154:\n      mload(0x40)\n      dup1\n      swap2\n      sub\n      swap1\n      revert\n    tag_153:\n        /* \"contract/HeirAccount.sol\":3271:3277  1 days */\n      0x015180\n        /* \"contract/HeirAccount.sol\":3258:3268  claimDelay */\n      sload(0x04)\n        /* \"contract/HeirAccount.sol\":3258:3277  claimDelay * 1 days */\n      tag_156\n      swap2\n      swap1\n      tag_157\n      jump\t// in\n    tag_156:\n        /* \"contract/HeirAccount.sol\":3239:3255  claimInitiatedAt */\n      sload(0x03)\n        /* \"contract/HeirAccount.sol\":3239:3277  claimInitiatedAt + claimDelay * 1 days */\n      tag_158\n      swap2\n      swap1\n      tag_159\n      jump\t// in\n    tag_158:\n        /* \"contract/HeirAccount.sol\":3220:3235  block.timestamp */\n      timestamp\n        /* \"contract/HeirAccount.sol\":3220:3277  block.timestamp >= claimInitiatedAt + claimDelay * 1 days */\n      lt\n      iszero\n        /* \"contract/HeirAccount.sol\":3212:3310  require(block.timestamp >= claimInitiatedAt + claimDelay * 1 days, \"Claim delay has not expired.\") */\n      tag_160\n      jumpi\n      mload(0x40)\n      0x08c379a000000000000000000000000000000000000000000000000000000000\n      dup2\n      mstore\n      0x04\n      add\n      tag_161\n      swap1\n      tag_162\n      jump\t// in\n    tag_161:\n      mload(0x40)\n      dup1\n      swap2\n      sub\n      swap1\n      revert\n    tag_160:\n        /* \"contract/HeirAccount.sol\":3328:3332  heir */\n      0x02\n      0x00\n      swap1\n      sload\n      swap1\n      0x0100\n      exp\n      swap1\n      div\n      0xffffffffffffffffffffffffffffffffffffffff\n      and\n        /* \"contract/HeirAccount.sol\":3320:3325  owner */\n      0x01\n      0x00\n        /* \"contract/HeirAccount.sol\":3320:3332  owner = heir */\n      0x0100\n      exp\n      dup2\n      sload\n      dup2\n      0xffffffffffffffffffffffffffffffffffffffff\n      mul\n      not\n      and\n      swap1\n      dup4\n      0xffffffffffffffffffffffffffffffffffffffff\n      and\n      mul\n      or\n      swap1\n      sstore\n      pop\n        /* \"contract/HeirAccount.sol\":3360:3365  false */\n      0x00\n        /* \"contract/HeirAccount.sol\":3342:3357  claimInProgress */\n      0x02\n      0x14\n        /* \"contract/HeirAccount.sol\":3342:3365  claimInProgress = false */\n      0x0100\n      exp\n      dup2\n      sload\n      dup2\n      0xff\n      mul\n      not\n      and\n      swap1\n      dup4\n      iszero\n      iszero\n      mul\n      or\n      swap1\n      sstore\n      pop\n        /* \"contract/HeirAccount.sol\":3013:3376  function claim(address _sender) public  {... */\n      pop\n      jump\t// out\n        /* \"contract/HeirAccount.sol\":7242:7328  function returnDeployer() public view returns(address){... */\n    tag_58:\n        /* \"contract/HeirAccount.sol\":7288:7295  address */\n      0x00\n        /* \"contract/HeirAccount.sol\":7313:7321  deployer */\n      dup1\n      0x00\n      swap1\n      sload\n      swap1\n      0x0100\n      exp\n      swap1\n      div\n      0xffffffffffffffffffffffffffffffffffffffff\n      and\n        /* \"contract/HeirAccount.sol\":7306:7321  return deployer */\n      swap1\n      pop\n        /* \"contract/HeirAccount.sol\":7242:7328  function returnDeployer() public view returns(address){... */\n      swap1\n      jump\t// out\n        /* \"contract/HeirAccount.sol\":3911:4063  function unfreeze(address _sender) public {... */\n    tag_64:\n        /* \"contract/HeirAccount.sol\":3982:3987  owner */\n      0x01\n      0x00\n      swap1\n      sload\n      swap1\n      0x0100\n      exp\n      swap1\n      div\n      0xffffffffffffffffffffffffffffffffffffffff\n      and\n        /* \"contract/HeirAccount.sol\":3971:3987  _sender == owner */\n      0xffffffffffffffffffffffffffffffffffffffff\n      and\n        /* \"contract/HeirAccount.sol\":3971:3978  _sender */\n      dup2\n        /* \"contract/HeirAccount.sol\":3971:3987  _sender == owner */\n      0xffffffffffffffffffffffffffffffffffffffff\n      and\n      eq\n        /* \"contract/HeirAccount.sol\":3963:4032  require(_sender == owner, \"Only the owner can unfreeze the account.\") */\n      tag_165\n      jumpi\n      mload(0x40)\n      0x08c379a000000000000000000000000000000000000000000000000000000000\n      dup2\n      mstore\n      0x04\n      add\n      tag_166\n      swap1\n      tag_167\n      jump\t// in\n    tag_166:\n      mload(0x40)\n      dup1\n      swap2\n      sub\n      swap1\n      revert\n    tag_165:\n        /* \"contract/HeirAccount.sol\":4051:4056  false */\n      0x00\n        /* \"contract/HeirAccount.sol\":4042:4048  frozen */\n      0x0b\n      0x00\n        /* \"contract/HeirAccount.sol\":4042:4056  frozen = false */\n      0x0100\n      exp\n      dup2\n      sload\n      dup2\n      0xff\n      mul\n      not\n      and\n      swap1\n      dup4\n      iszero\n      iszero\n      mul\n      or\n      swap1\n      sstore\n      pop\n        /* \"contract/HeirAccount.sol\":3911:4063  function unfreeze(address _sender) public {... */\n      pop\n      jump\t// out\n        /* \"contract/HeirAccount.sol\":7100:7178  function returnHeir() public view returns(address){... */\n    tag_67:\n        /* \"contract/HeirAccount.sol\":7142:7149  address */\n      0x00\n        /* \"contract/HeirAccount.sol\":7167:7171  heir */\n      0x02\n      0x00\n      swap1\n      sload\n      swap1\n      0x0100\n      exp\n      swap1\n      div\n      0xffffffffffffffffffffffffffffffffffffffff\n      and\n        /* \"contract/HeirAccount.sol\":7160:7171  return heir */\n      swap1\n      pop\n        /* \"contract/HeirAccount.sol\":7100:7178  function returnHeir() public view returns(address){... */\n      swap1\n      jump\t// out\n        /* \"contract/HeirAccount.sol\":5338:6424  function transferFunds(bool _isCelo, address payable _recipient, uint _amount, address _ERC20Address, address _sender) public payable {... */\n    tag_72:\n        /* \"contract/HeirAccount.sol\":5501:5506  owner */\n      0x01\n      0x00\n      swap1\n      sload\n      swap1\n      0x0100\n      exp\n      swap1\n      div\n      0xffffffffffffffffffffffffffffffffffffffff\n      and\n        /* \"contract/HeirAccount.sol\":5490:5506  _sender == owner */\n      0xffffffffffffffffffffffffffffffffffffffff\n      and\n        /* \"contract/HeirAccount.sol\":5490:5497  _sender */\n      dup2\n        /* \"contract/HeirAccount.sol\":5490:5506  _sender == owner */\n      0xffffffffffffffffffffffffffffffffffffffff\n      and\n      eq\n        /* \"contract/HeirAccount.sol\":5482:5545  require(_sender == owner, \"Only the owner can transfer funds.\") */\n      tag_170\n      jumpi\n      mload(0x40)\n      0x08c379a000000000000000000000000000000000000000000000000000000000\n      dup2\n      mstore\n      0x04\n      add\n      tag_171\n      swap1\n      tag_172\n      jump\t// in\n    tag_171:\n      mload(0x40)\n      dup1\n      swap2\n      sub\n      swap1\n      revert\n    tag_170:\n        /* \"contract/HeirAccount.sol\":5564:5570  frozen */\n      0x0b\n      0x00\n      swap1\n      sload\n      swap1\n      0x0100\n      exp\n      swap1\n      div\n      0xff\n      and\n        /* \"contract/HeirAccount.sol\":5563:5570  !frozen */\n      iszero\n        /* \"contract/HeirAccount.sol\":5555:5616  require(!frozen, \"Account is frozen, cannot withdraw funds.\") */\n      tag_173\n      jumpi\n      mload(0x40)\n      0x08c379a000000000000000000000000000000000000000000000000000000000\n      dup2\n      mstore\n      0x04\n      add\n      tag_174\n      swap1\n      tag_175\n      jump\t// in\n    tag_174:\n      mload(0x40)\n      dup1\n      swap2\n      sub\n      swap1\n      revert\n    tag_173:\n        /* \"contract/HeirAccount.sol\":5629:5636  _isCelo */\n      dup5\n        /* \"contract/HeirAccount.sol\":5625:6418  if (_isCelo) {... */\n      iszero\n      tag_176\n      jumpi\n        /* \"contract/HeirAccount.sol\":5671:5692  address(this).balance */\n      selfbalance\n        /* \"contract/HeirAccount.sol\":5660:5667  _amount */\n      dup4\n        /* \"contract/HeirAccount.sol\":5660:5692  _amount <= address(this).balance */\n      gt\n      iszero\n        /* \"contract/HeirAccount.sol\":5652:5716  require(_amount <= address(this).balance, \"Insufficient funds.\") */\n      tag_177\n      jumpi\n      mload(0x40)\n      0x08c379a000000000000000000000000000000000000000000000000000000000\n      dup2\n      mstore\n      0x04\n      add\n      tag_178\n      swap1\n      tag_179\n      jump\t// in\n    tag_178:\n      mload(0x40)\n      dup1\n      swap2\n      sub\n      swap1\n      revert\n    tag_177:\n        /* \"contract/HeirAccount.sol\":5739:5744  mutex */\n      0x09\n      0x14\n      swap1\n      sload\n      swap1\n      0x0100\n      exp\n      swap1\n      div\n      0xff\n      and\n        /* \"contract/HeirAccount.sol\":5738:5744  !mutex */\n      iszero\n        /* \"contract/HeirAccount.sol\":5730:5786  require(!mutex, \"The function is already in execution.\") */\n      tag_180\n      jumpi\n      mload(0x40)\n      0x08c379a000000000000000000000000000000000000000000000000000000000\n      dup2\n      mstore\n      0x04\n      add\n      tag_181\n      swap1\n      tag_182\n      jump\t// in\n    tag_181:\n      mload(0x40)\n      dup1\n      swap2\n      sub\n      swap1\n      revert\n    tag_180:\n        /* \"contract/HeirAccount.sol\":5808:5812  true */\n      0x01\n        /* \"contract/HeirAccount.sol\":5800:5805  mutex */\n      0x09\n      0x14\n        /* \"contract/HeirAccount.sol\":5800:5812  mutex = true */\n      0x0100\n      exp\n      dup2\n      sload\n      dup2\n      0xff\n      mul\n      not\n      and\n      swap1\n      dup4\n      iszero\n      iszero\n      mul\n      or\n      swap1\n      sstore\n      pop\n        /* \"contract/HeirAccount.sol\":5832:5865  _amount.mul(transferFee).div(100) */\n      tag_183\n        /* \"contract/HeirAccount.sol\":5861:5864  100 */\n      0x64\n        /* \"contract/HeirAccount.sol\":5832:5856  _amount.mul(transferFee) */\n      tag_184\n        /* \"contract/HeirAccount.sol\":5844:5855  transferFee */\n      sload(0x06)\n        /* \"contract/HeirAccount.sol\":5832:5839  _amount */\n      dup7\n        /* \"contract/HeirAccount.sol\":5832:5843  _amount.mul */\n      tag_185\n      swap1\n        /* \"contract/HeirAccount.sol\":5832:5856  _amount.mul(transferFee) */\n      swap2\n      swap1\n      0xffffffff\n      and\n      jump\t// in\n    tag_184:\n        /* \"contract/HeirAccount.sol\":5832:5860  _amount.mul(transferFee).div */\n      tag_186\n      swap1\n        /* \"contract/HeirAccount.sol\":5832:5865  _amount.mul(transferFee).div(100) */\n      swap2\n      swap1\n      0xffffffff\n      and\n      jump\t// in\n    tag_183:\n        /* \"contract/HeirAccount.sol\":5826:5829  fee */\n      0x05\n        /* \"contract/HeirAccount.sol\":5826:5865  fee = _amount.mul(transferFee).div(100) */\n      dup2\n      swap1\n      sstore\n      pop\n        /* \"contract/HeirAccount.sol\":5879:5889  _recipient */\n      dup4\n        /* \"contract/HeirAccount.sol\":5879:5898  _recipient.transfer */\n      0xffffffffffffffffffffffffffffffffffffffff\n      and\n        /* \"contract/HeirAccount.sol\":5879:5916  _recipient.transfer(_amount.sub(fee)) */\n      0x08fc\n        /* \"contract/HeirAccount.sol\":5899:5915  _amount.sub(fee) */\n      tag_187\n        /* \"contract/HeirAccount.sol\":5911:5914  fee */\n      sload(0x05)\n        /* \"contract/HeirAccount.sol\":5899:5906  _amount */\n      dup7\n        /* \"contract/HeirAccount.sol\":5899:5910  _amount.sub */\n      tag_188\n      swap1\n        /* \"contract/HeirAccount.sol\":5899:5915  _amount.sub(fee) */\n      swap2\n      swap1\n      0xffffffff\n      and\n      jump\t// in\n    tag_187:\n        /* \"contract/HeirAccount.sol\":5879:5916  _recipient.transfer(_amount.sub(fee)) */\n      swap1\n      dup2\n      iszero\n      mul\n      swap1\n      mload(0x40)\n      0x00\n      mload(0x40)\n      dup1\n      dup4\n      sub\n      dup2\n      dup6\n      dup9\n      dup9\n      call\n      swap4\n      pop\n      pop\n      pop\n      pop\n      iszero\n      dup1\n      iszero\n      tag_190\n      jumpi\n      returndatasize\n      0x00\n      dup1\n      returndatacopy\n      revert(0x00, returndatasize)\n    tag_190:\n      pop\n        /* \"contract/HeirAccount.sol\":5930:5940  feeAddress */\n      0x07\n      0x00\n      swap1\n      sload\n      swap1\n      0x0100\n      exp\n      swap1\n      div\n      0xffffffffffffffffffffffffffffffffffffffff\n      and\n        /* \"contract/HeirAccount.sol\":5930:5949  feeAddress.transfer */\n      0xffffffffffffffffffffffffffffffffffffffff\n      and\n        /* \"contract/HeirAccount.sol\":5930:5954  feeAddress.transfer(fee) */\n      0x08fc\n        /* \"contract/HeirAccount.sol\":5950:5953  fee */\n      sload(0x05)\n        /* \"contract/HeirAccount.sol\":5930:5954  feeAddress.transfer(fee) */\n      swap1\n      dup2\n      iszero\n      mul\n      swap1\n      mload(0x40)\n      0x00\n      mload(0x40)\n      dup1\n      dup4\n      sub\n      dup2\n      dup6\n      dup9\n      dup9\n      call\n      swap4\n      pop\n      pop\n      pop\n      pop\n      iszero\n      dup1\n      iszero\n      tag_192\n      jumpi\n      returndatasize\n      0x00\n      dup1\n      returndatacopy\n      revert(0x00, returndatasize)\n    tag_192:\n      pop\n        /* \"contract/HeirAccount.sol\":5976:5981  false */\n      0x00\n        /* \"contract/HeirAccount.sol\":5968:5973  mutex */\n      0x09\n      0x14\n        /* \"contract/HeirAccount.sol\":5968:5981  mutex = false */\n      0x0100\n      exp\n      dup2\n      sload\n      dup2\n      0xff\n      mul\n      not\n      and\n      swap1\n      dup4\n      iszero\n      iszero\n      mul\n      or\n      swap1\n      sstore\n      pop\n        /* \"contract/HeirAccount.sol\":5625:6418  if (_isCelo) {... */\n      jump(tag_193)\n    tag_176:\n        /* \"contract/HeirAccount.sol\":6027:6040  _ERC20Address */\n      dup2\n        /* \"contract/HeirAccount.sol\":6012:6017  ERC20 */\n      0x09\n      0x00\n        /* \"contract/HeirAccount.sol\":6012:6041  ERC20 = IERC20(_ERC20Address) */\n      0x0100\n      exp\n      dup2\n      sload\n      dup2\n      0xffffffffffffffffffffffffffffffffffffffff\n      mul\n      not\n      and\n      swap1\n      dup4\n      0xffffffffffffffffffffffffffffffffffffffff\n      and\n      mul\n      or\n      swap1\n      sstore\n      pop\n        /* \"contract/HeirAccount.sol\":6074:6079  ERC20 */\n      0x09\n      0x00\n      swap1\n      sload\n      swap1\n      0x0100\n      exp\n      swap1\n      div\n      0xffffffffffffffffffffffffffffffffffffffff\n      and\n        /* \"contract/HeirAccount.sol\":6074:6089  ERC20.balanceOf */\n      0xffffffffffffffffffffffffffffffffffffffff\n      and\n      0x70a08231\n        /* \"contract/HeirAccount.sol\":6098:6102  this */\n      address\n        /* \"contract/HeirAccount.sol\":6074:6104  ERC20.balanceOf(address(this)) */\n      mload(0x40)\n      dup3\n      0xffffffff\n      and\n      0xe0\n      shl\n      dup2\n      mstore\n      0x04\n      add\n      tag_194\n      swap2\n      swap1\n      tag_60\n      jump\t// in\n    tag_194:\n      0x20\n      mload(0x40)\n      dup1\n      dup4\n      sub\n      dup2\n      dup7\n      dup1\n      extcodesize\n      iszero\n      dup1\n      iszero\n      tag_195\n      jumpi\n      0x00\n      dup1\n      revert\n    tag_195:\n      pop\n      gas\n      staticcall\n      iszero\n      dup1\n      iszero\n      tag_197\n      jumpi\n      returndatasize\n      0x00\n      dup1\n      returndatacopy\n      revert(0x00, returndatasize)\n    tag_197:\n      pop\n      pop\n      pop\n      pop\n      mload(0x40)\n      returndatasize\n      not(0x1f)\n      0x1f\n      dup3\n      add\n      and\n      dup3\n      add\n      dup1\n      0x40\n      mstore\n      pop\n      dup2\n      add\n      swap1\n      tag_198\n      swap2\n      swap1\n      tag_148\n      jump\t// in\n    tag_198:\n        /* \"contract/HeirAccount.sol\":6063:6070  _amount */\n      dup4\n        /* \"contract/HeirAccount.sol\":6063:6104  _amount <= ERC20.balanceOf(address(this)) */\n      gt\n      iszero\n        /* \"contract/HeirAccount.sol\":6055:6128  require(_amount <= ERC20.balanceOf(address(this)), \"Insufficient funds.\") */\n      tag_199\n      jumpi\n      mload(0x40)\n      0x08c379a000000000000000000000000000000000000000000000000000000000\n      dup2\n      mstore\n      0x04\n      add\n      tag_200\n      swap1\n      tag_179\n      jump\t// in\n    tag_200:\n      mload(0x40)\n      dup1\n      swap2\n      sub\n      swap1\n      revert\n    tag_199:\n        /* \"contract/HeirAccount.sol\":6151:6156  mutex */\n      0x09\n      0x14\n      swap1\n      sload\n      swap1\n      0x0100\n      exp\n      swap1\n      div\n      0xff\n      and\n        /* \"contract/HeirAccount.sol\":6150:6156  !mutex */\n      iszero\n        /* \"contract/HeirAccount.sol\":6142:6198  require(!mutex, \"The function is already in execution.\") */\n      tag_201\n      jumpi\n      mload(0x40)\n      0x08c379a000000000000000000000000000000000000000000000000000000000\n      dup2\n      mstore\n      0x04\n      add\n      tag_202\n      swap1\n      tag_182\n      jump\t// in\n    tag_202:\n      mload(0x40)\n      dup1\n      swap2\n      sub\n      swap1\n      revert\n    tag_201:\n        /* \"contract/HeirAccount.sol\":6220:6224  true */\n      0x01\n        /* \"contract/HeirAccount.sol\":6212:6217  mutex */\n      0x09\n      0x14\n        /* \"contract/HeirAccount.sol\":6212:6224  mutex = true */\n      0x0100\n      exp\n      dup2\n      sload\n      dup2\n      0xff\n      mul\n      not\n      and\n      swap1\n      dup4\n      iszero\n      iszero\n      mul\n      or\n      swap1\n      sstore\n      pop\n        /* \"contract/HeirAccount.sol\":6244:6277  _amount.mul(transferFee).div(100) */\n      tag_203\n        /* \"contract/HeirAccount.sol\":6273:6276  100 */\n      0x64\n        /* \"contract/HeirAccount.sol\":6244:6268  _amount.mul(transferFee) */\n      tag_204\n        /* \"contract/HeirAccount.sol\":6256:6267  transferFee */\n      sload(0x06)\n        /* \"contract/HeirAccount.sol\":6244:6251  _amount */\n      dup7\n        /* \"contract/HeirAccount.sol\":6244:6255  _amount.mul */\n      tag_185\n      swap1\n        /* \"contract/HeirAccount.sol\":6244:6268  _amount.mul(transferFee) */\n      swap2\n      swap1\n      0xffffffff\n      and\n      jump\t// in\n    tag_204:\n        /* \"contract/HeirAccount.sol\":6244:6272  _amount.mul(transferFee).div */\n      tag_186\n      swap1\n        /* \"contract/HeirAccount.sol\":6244:6277  _amount.mul(transferFee).div(100) */\n      swap2\n      swap1\n      0xffffffff\n      and\n      jump\t// in\n    tag_203:\n        /* \"contract/HeirAccount.sol\":6238:6241  fee */\n      0x05\n        /* \"contract/HeirAccount.sol\":6238:6277  fee = _amount.mul(transferFee).div(100) */\n      dup2\n      swap1\n      sstore\n      pop\n        /* \"contract/HeirAccount.sol\":6291:6296  ERC20 */\n      0x09\n      0x00\n      swap1\n      sload\n      swap1\n      0x0100\n      exp\n      swap1\n      div\n      0xffffffffffffffffffffffffffffffffffffffff\n      and\n        /* \"contract/HeirAccount.sol\":6291:6305  ERC20.transfer */\n      0xffffffffffffffffffffffffffffffffffffffff\n      and\n      0xa9059cbb\n        /* \"contract/HeirAccount.sol\":6306:6316  _recipient */\n      dup6\n        /* \"contract/HeirAccount.sol\":6318:6334  _amount.sub(fee) */\n      tag_205\n        /* \"contract/HeirAccount.sol\":6330:6333  fee */\n      sload(0x05)\n        /* \"contract/HeirAccount.sol\":6318:6325  _amount */\n      dup8\n        /* \"contract/HeirAccount.sol\":6318:6329  _amount.sub */\n      tag_188\n      swap1\n        /* \"contract/HeirAccount.sol\":6318:6334  _amount.sub(fee) */\n      swap2\n      swap1\n      0xffffffff\n      and\n      jump\t// in\n    tag_205:\n        /* \"contract/HeirAccount.sol\":6291:6335  ERC20.transfer(_recipient, _amount.sub(fee)) */\n      mload(0x40)\n      dup4\n      0xffffffff\n      and\n      0xe0\n      shl\n      dup2\n      mstore\n      0x04\n      add\n      tag_206\n      swap3\n      swap2\n      swap1\n      tag_207\n      jump\t// in\n    tag_206:\n      0x20\n      mload(0x40)\n      dup1\n      dup4\n      sub\n      dup2\n      0x00\n      dup8\n      dup1\n      extcodesize\n      iszero\n      dup1\n      iszero\n      tag_208\n      jumpi\n      0x00\n      dup1\n      revert\n    tag_208:\n      pop\n      gas\n      call\n      iszero\n      dup1\n      iszero\n      tag_210\n      jumpi\n      returndatasize\n      0x00\n      dup1\n      returndatacopy\n      revert(0x00, returndatasize)\n    tag_210:\n      pop\n      pop\n      pop\n      pop\n      mload(0x40)\n      returndatasize\n      not(0x1f)\n      0x1f\n      dup3\n      add\n      and\n      dup3\n      add\n      dup1\n      0x40\n      mstore\n      pop\n      dup2\n      add\n      swap1\n      tag_211\n      swap2\n      swap1\n      tag_212\n      jump\t// in\n    tag_211:\n      pop\n        /* \"contract/HeirAccount.sol\":6349:6354  ERC20 */\n      0x09\n      0x00\n      swap1\n      sload\n      swap1\n      0x0100\n      exp\n      swap1\n      div\n      0xffffffffffffffffffffffffffffffffffffffff\n      and\n        /* \"contract/HeirAccount.sol\":6349:6363  ERC20.transfer */\n      0xffffffffffffffffffffffffffffffffffffffff\n      and\n      0xa9059cbb\n        /* \"contract/HeirAccount.sol\":6364:6374  feeAddress */\n      0x07\n      0x00\n      swap1\n      sload\n      swap1\n      0x0100\n      exp\n      swap1\n      div\n      0xffffffffffffffffffffffffffffffffffffffff\n      and\n        /* \"contract/HeirAccount.sol\":6376:6379  fee */\n      sload(0x05)\n        /* \"contract/HeirAccount.sol\":6349:6380  ERC20.transfer(feeAddress, fee) */\n      mload(0x40)\n      dup4\n      0xffffffff\n      and\n      0xe0\n      shl\n      dup2\n      mstore\n      0x04\n      add\n      tag_213\n      swap3\n      swap2\n      swap1\n      tag_207\n      jump\t// in\n    tag_213:\n      0x20\n      mload(0x40)\n      dup1\n      dup4\n      sub\n      dup2\n      0x00\n      dup8\n      dup1\n      extcodesize\n      iszero\n      dup1\n      iszero\n      tag_214\n      jumpi\n      0x00\n      dup1\n      revert\n    tag_214:\n      pop\n      gas\n      call\n      iszero\n      dup1\n      iszero\n      tag_216\n      jumpi\n      returndatasize\n      0x00\n      dup1\n      returndatacopy\n      revert(0x00, returndatasize)\n    tag_216:\n      pop\n      pop\n      pop\n      pop\n      mload(0x40)\n      returndatasize\n      not(0x1f)\n      0x1f\n      dup3\n      add\n      and\n      dup3\n      add\n      dup1\n      0x40\n      mstore\n      pop\n      dup2\n      add\n      swap1\n      tag_217\n      swap2\n      swap1\n      tag_212\n      jump\t// in\n    tag_217:\n      pop\n        /* \"contract/HeirAccount.sol\":6402:6407  false */\n      0x00\n        /* \"contract/HeirAccount.sol\":6394:6399  mutex */\n      0x09\n      0x14\n        /* \"contract/HeirAccount.sol\":6394:6407  mutex = false */\n      0x0100\n      exp\n      dup2\n      sload\n      dup2\n      0xff\n      mul\n      not\n      and\n      swap1\n      dup4\n      iszero\n      iszero\n      mul\n      or\n      swap1\n      sstore\n      pop\n        /* \"contract/HeirAccount.sol\":5625:6418  if (_isCelo) {... */\n    tag_193:\n        /* \"contract/HeirAccount.sol\":5338:6424  function transferFunds(bool _isCelo, address payable _recipient, uint _amount, address _ERC20Address, address _sender) public payable {... */\n      pop\n      pop\n      pop\n      pop\n      pop\n      jump\t// out\n        /* \"contract/HeirAccount.sol\":2278:2606  function setHeir(address payable _heir, uint _claimDelay, address _sender) public {... */\n    tag_77:\n        /* \"contract/HeirAccount.sol\":2387:2394  _sender */\n      dup1\n        /* \"contract/HeirAccount.sol\":2378:2394  owner == _sender */\n      0xffffffffffffffffffffffffffffffffffffffff\n      and\n        /* \"contract/HeirAccount.sol\":2378:2383  owner */\n      0x01\n      0x00\n      swap1\n      sload\n      swap1\n      0x0100\n      exp\n      swap1\n      div\n      0xffffffffffffffffffffffffffffffffffffffff\n      and\n        /* \"contract/HeirAccount.sol\":2378:2394  owner == _sender */\n      0xffffffffffffffffffffffffffffffffffffffff\n      and\n      eq\n        /* \"contract/HeirAccount.sol\":2370:2431  require(owner == _sender, \"Only the owner can set the heir.\") */\n      tag_219\n      jumpi\n      mload(0x40)\n      0x08c379a000000000000000000000000000000000000000000000000000000000\n      dup2\n      mstore\n      0x04\n      add\n      tag_220\n      swap1\n      tag_221\n      jump\t// in\n    tag_220:\n      mload(0x40)\n      dup1\n      swap2\n      sub\n      swap1\n      revert\n    tag_219:\n        /* \"contract/HeirAccount.sol\":2450:2455  mutex */\n      0x09\n      0x14\n      swap1\n      sload\n      swap1\n      0x0100\n      exp\n      swap1\n      div\n      0xff\n      and\n        /* \"contract/HeirAccount.sol\":2449:2455  !mutex */\n      iszero\n        /* \"contract/HeirAccount.sol\":2441:2497  require(!mutex, \"The function is already in execution.\") */\n      tag_222\n      jumpi\n      mload(0x40)\n      0x08c379a000000000000000000000000000000000000000000000000000000000\n      dup2\n      mstore\n      0x04\n      add\n      tag_223\n      swap1\n      tag_182\n      jump\t// in\n    tag_223:\n      mload(0x40)\n      dup1\n      swap2\n      sub\n      swap1\n      revert\n    tag_222:\n        /* \"contract/HeirAccount.sol\":2515:2519  true */\n      0x01\n        /* \"contract/HeirAccount.sol\":2507:2512  mutex */\n      0x09\n      0x14\n        /* \"contract/HeirAccount.sol\":2507:2519  mutex = true */\n      0x0100\n      exp\n      dup2\n      sload\n      dup2\n      0xff\n      mul\n      not\n      and\n      swap1\n      dup4\n      iszero\n      iszero\n      mul\n      or\n      swap1\n      sstore\n      pop\n        /* \"contract/HeirAccount.sol\":2537:2542  _heir */\n      dup3\n        /* \"contract/HeirAccount.sol\":2530:2534  heir */\n      0x02\n      0x00\n        /* \"contract/HeirAccount.sol\":2530:2542  heir = _heir */\n      0x0100\n      exp\n      dup2\n      sload\n      dup2\n      0xffffffffffffffffffffffffffffffffffffffff\n      mul\n      not\n      and\n      swap1\n      dup4\n      0xffffffffffffffffffffffffffffffffffffffff\n      and\n      mul\n      or\n      swap1\n      sstore\n      pop\n        /* \"contract/HeirAccount.sol\":2565:2576  _claimDelay */\n      dup2\n        /* \"contract/HeirAccount.sol\":2552:2562  claimDelay */\n      0x04\n        /* \"contract/HeirAccount.sol\":2552:2576  claimDelay = _claimDelay */\n      dup2\n      swap1\n      sstore\n      pop\n        /* \"contract/HeirAccount.sol\":2594:2599  false */\n      0x00\n        /* \"contract/HeirAccount.sol\":2586:2591  mutex */\n      0x09\n      0x14\n        /* \"contract/HeirAccount.sol\":2586:2599  mutex = false */\n      0x0100\n      exp\n      dup2\n      sload\n      dup2\n      0xff\n      mul\n      not\n      and\n      swap1\n      dup4\n      iszero\n      iszero\n      mul\n      or\n      swap1\n      sstore\n      pop\n        /* \"contract/HeirAccount.sol\":2278:2606  function setHeir(address payable _heir, uint _claimDelay, address _sender) public {... */\n      pop\n      pop\n      pop\n      jump\t// out\n        /* \"contract/HeirAccount.sol\":1555:1588  address payable public ERC20Token */\n    tag_80:\n      0x08\n      0x00\n      swap1\n      sload\n      swap1\n      0x0100\n      exp\n      swap1\n      div\n      0xffffffffffffffffffffffffffffffffffffffff\n      and\n      dup2\n      jump\t// out\n        /* \"contract/HeirAccount.sol\":3718:3865  function freeze(address _sender) public {... */\n    tag_86:\n        /* \"contract/HeirAccount.sol\":3787:3792  owner */\n      0x01\n      0x00\n      swap1\n      sload\n      swap1\n      0x0100\n      exp\n      swap1\n      div\n      0xffffffffffffffffffffffffffffffffffffffff\n      and\n        /* \"contract/HeirAccount.sol\":3776:3792  _sender == owner */\n      0xffffffffffffffffffffffffffffffffffffffff\n      and\n        /* \"contract/HeirAccount.sol\":3776:3783  _sender */\n      dup2\n        /* \"contract/HeirAccount.sol\":3776:3792  _sender == owner */\n      0xffffffffffffffffffffffffffffffffffffffff\n      and\n      eq\n        /* \"contract/HeirAccount.sol\":3768:3835  require(_sender == owner, \"Only the owner can freeze the account.\") */\n      tag_225\n      jumpi\n      mload(0x40)\n      0x08c379a000000000000000000000000000000000000000000000000000000000\n      dup2\n      mstore\n      0x04\n      add\n      tag_226\n      swap1\n      tag_227\n      jump\t// in\n    tag_226:\n      mload(0x40)\n      dup1\n      swap2\n      sub\n      swap1\n      revert\n    tag_225:\n        /* \"contract/HeirAccount.sol\":3854:3858  true */\n      0x01\n        /* \"contract/HeirAccount.sol\":3845:3851  frozen */\n      0x0b\n      0x00\n        /* \"contract/HeirAccount.sol\":3845:3858  frozen = true */\n      0x0100\n      exp\n      dup2\n      sload\n      dup2\n      0xff\n      mul\n      not\n      and\n      swap1\n      dup4\n      iszero\n      iszero\n      mul\n      or\n      swap1\n      sstore\n      pop\n        /* \"contract/HeirAccount.sol\":3718:3865  function freeze(address _sender) public {... */\n      pop\n      jump\t// out\n        /* \"contract/HeirAccount.sol\":955:983  address payable public owner */\n    tag_89:\n      0x01\n      0x00\n      swap1\n      sload\n      swap1\n      0x0100\n      exp\n      swap1\n      div\n      0xffffffffffffffffffffffffffffffffffffffff\n      and\n      dup2\n      jump\t// out\n        /* \"contract/HeirAccount.sol\":1020:1047  address payable public heir */\n    tag_93:\n      0x02\n      0x00\n      swap1\n      sload\n      swap1\n      0x0100\n      exp\n      swap1\n      div\n      0xffffffffffffffffffffffffffffffffffffffff\n      and\n      dup2\n      jump\t// out\n        /* \"contract/HeirAccount.sol\":6960:7040  function returnOwner() public view returns(address){... */\n    tag_97:\n        /* \"contract/HeirAccount.sol\":7003:7010  address */\n      0x00\n        /* \"contract/HeirAccount.sol\":7028:7033  owner */\n      0x01\n      0x00\n      swap1\n      sload\n      swap1\n      0x0100\n      exp\n      swap1\n      div\n      0xffffffffffffffffffffffffffffffffffffffff\n      and\n        /* \"contract/HeirAccount.sol\":7021:7033  return owner */\n      swap1\n      pop\n        /* \"contract/HeirAccount.sol\":6960:7040  function returnOwner() public view returns(address){... */\n      swap1\n      jump\t// out\n        /* \"contract/HeirAccount.sol\":1805:1829  uint public tokenBalance */\n    tag_101:\n      sload(0x0a)\n      dup2\n      jump\t// out\n        /* \"contract/HeirAccount.sol\":1745:1770  bool public mutex = false */\n    tag_105:\n      0x09\n      0x14\n      swap1\n      sload\n      swap1\n      0x0100\n      exp\n      swap1\n      div\n      0xff\n      and\n      dup2\n      jump\t// out\n        /* \"contract/HeirAccount.sol\":3448:3673  function stopClaim(address _sender) public {... */\n    tag_110:\n        /* \"contract/HeirAccount.sol\":3520:3525  owner */\n      0x01\n      0x00\n      swap1\n      sload\n      swap1\n      0x0100\n      exp\n      swap1\n      div\n      0xffffffffffffffffffffffffffffffffffffffff\n      and\n        /* \"contract/HeirAccount.sol\":3509:3525  _sender == owner */\n      0xffffffffffffffffffffffffffffffffffffffff\n      and\n        /* \"contract/HeirAccount.sol\":3509:3516  _sender */\n      dup2\n        /* \"contract/HeirAccount.sol\":3509:3525  _sender == owner */\n      0xffffffffffffffffffffffffffffffffffffffff\n      and\n      eq\n        /* \"contract/HeirAccount.sol\":3501:3562  require(_sender == owner, \"Only the owner can stop a claim.\") */\n      tag_230\n      jumpi\n      mload(0x40)\n      0x08c379a000000000000000000000000000000000000000000000000000000000\n      dup2\n      mstore\n      0x04\n      add\n      tag_231\n      swap1\n      tag_232\n      jump\t// in\n    tag_231:\n      mload(0x40)\n      dup1\n      swap2\n      sub\n      swap1\n      revert\n    tag_230:\n        /* \"contract/HeirAccount.sol\":3580:3595  claimInProgress */\n      0x02\n      0x14\n      swap1\n      sload\n      swap1\n      0x0100\n      exp\n      swap1\n      div\n      0xff\n      and\n        /* \"contract/HeirAccount.sol\":3572:3633  require(claimInProgress, \"There is no active claim to stop.\") */\n      tag_233\n      jumpi\n      mload(0x40)\n      0x08c379a000000000000000000000000000000000000000000000000000000000\n      dup2\n      mstore\n      0x04\n      add\n      tag_234\n      swap1\n      tag_235\n      jump\t// in\n    tag_234:\n      mload(0x40)\n      dup1\n      swap2\n      sub\n      swap1\n      revert\n    tag_233:\n        /* \"contract/HeirAccount.sol\":3661:3666  false */\n      0x00\n        /* \"contract/HeirAccount.sol\":3643:3658  claimInProgress */\n      0x02\n      0x14\n        /* \"contract/HeirAccount.sol\":3643:3666  claimInProgress = false */\n      0x0100\n      exp\n      dup2\n      sload\n      dup2\n      0xff\n      mul\n      not\n      and\n      swap1\n      dup4\n      iszero\n      iszero\n      mul\n      or\n      swap1\n      sstore\n      pop\n        /* \"contract/HeirAccount.sol\":3448:3673  function stopClaim(address _sender) public {... */\n      pop\n      jump\t// out\n        /* \"contract/HeirAccount.sol\":1197:1225  uint public claimInitiatedAt */\n    tag_113:\n      sload(0x03)\n      dup2\n      jump\t// out\n        /* \"contract/HeirAccount.sol\":1608:1627  IERC20 public ERC20 */\n    tag_117:\n      0x09\n      0x00\n      swap1\n      sload\n      swap1\n      0x0100\n      exp\n      swap1\n      div\n      0xffffffffffffffffffffffffffffffffffffffff\n      and\n      dup2\n      jump\t// out\n        /* \"contract/HeirAccount.sol\":878:901  address public deployer */\n    tag_122:\n      0x00\n      dup1\n      sload\n      swap1\n      0x0100\n      exp\n      swap1\n      div\n      0xffffffffffffffffffffffffffffffffffffffff\n      and\n      dup2\n      jump\t// out\n        /* \"contract/HeirAccount.sol\":4108:5294  function withdraw(bool _isCelo, uint _amount, address _ERC20Address, address _sender) public payable {... */\n    tag_127:\n        /* \"contract/HeirAccount.sol\":4238:4243  owner */\n      0x01\n      0x00\n      swap1\n      sload\n      swap1\n      0x0100\n      exp\n      swap1\n      div\n      0xffffffffffffffffffffffffffffffffffffffff\n      and\n        /* \"contract/HeirAccount.sol\":4227:4243  _sender == owner */\n      0xffffffffffffffffffffffffffffffffffffffff\n      and\n        /* \"contract/HeirAccount.sol\":4227:4234  _sender */\n      dup2\n        /* \"contract/HeirAccount.sol\":4227:4243  _sender == owner */\n      0xffffffffffffffffffffffffffffffffffffffff\n      and\n      eq\n        /* \"contract/HeirAccount.sol\":4219:4282  require(_sender == owner, \"Only the owner can withdraw funds.\") */\n      tag_237\n      jumpi\n      mload(0x40)\n      0x08c379a000000000000000000000000000000000000000000000000000000000\n      dup2\n      mstore\n      0x04\n      add\n      tag_238\n      swap1\n      tag_239\n      jump\t// in\n    tag_238:\n      mload(0x40)\n      dup1\n      swap2\n      sub\n      swap1\n      revert\n    tag_237:\n        /* \"contract/HeirAccount.sol\":4301:4307  frozen */\n      0x0b\n      0x00\n      swap1\n      sload\n      swap1\n      0x0100\n      exp\n      swap1\n      div\n      0xff\n      and\n        /* \"contract/HeirAccount.sol\":4300:4307  !frozen */\n      iszero\n        /* \"contract/HeirAccount.sol\":4292:4353  require(!frozen, \"Account is frozen, cannot withdraw funds.\") */\n      tag_240\n      jumpi\n      mload(0x40)\n      0x08c379a000000000000000000000000000000000000000000000000000000000\n      dup2\n      mstore\n      0x04\n      add\n      tag_241\n      swap1\n      tag_175\n      jump\t// in\n    tag_241:\n      mload(0x40)\n      dup1\n      swap2\n      sub\n      swap1\n      revert\n    tag_240:\n        /* \"contract/HeirAccount.sol\":4367:4374  _isCelo */\n      dup4\n        /* \"contract/HeirAccount.sol\":4363:5288  if (_isCelo) {... */\n      iszero\n      tag_242\n      jumpi\n        /* \"contract/HeirAccount.sol\":4422:4423  0 */\n      0x00\n        /* \"contract/HeirAccount.sol\":4398:4419  address(this).balance */\n      selfbalance\n        /* \"contract/HeirAccount.sol\":4398:4423  address(this).balance > 0 */\n      gt\n        /* \"contract/HeirAccount.sol\":4390:4459  require(address(this).balance > 0, \"There are no funds to withdraw.\") */\n      tag_243\n      jumpi\n      mload(0x40)\n      0x08c379a000000000000000000000000000000000000000000000000000000000\n      dup2\n      mstore\n      0x04\n      add\n      tag_244\n      swap1\n      tag_245\n      jump\t// in\n    tag_244:\n      mload(0x40)\n      dup1\n      swap2\n      sub\n      swap1\n      revert\n    tag_243:\n        /* \"contract/HeirAccount.sol\":4492:4513  address(this).balance */\n      selfbalance\n        /* \"contract/HeirAccount.sol\":4481:4488  _amount */\n      dup4\n        /* \"contract/HeirAccount.sol\":4481:4513  _amount <= address(this).balance */\n      gt\n      iszero\n        /* \"contract/HeirAccount.sol\":4473:4537  require(_amount <= address(this).balance, \"Insufficient funds.\") */\n      tag_246\n      jumpi\n      mload(0x40)\n      0x08c379a000000000000000000000000000000000000000000000000000000000\n      dup2\n      mstore\n      0x04\n      add\n      tag_247\n      swap1\n      tag_179\n      jump\t// in\n    tag_247:\n      mload(0x40)\n      dup1\n      swap2\n      sub\n      swap1\n      revert\n    tag_246:\n        /* \"contract/HeirAccount.sol\":4560:4565  mutex */\n      0x09\n      0x14\n      swap1\n      sload\n      swap1\n      0x0100\n      exp\n      swap1\n      div\n      0xff\n      and\n        /* \"contract/HeirAccount.sol\":4559:4565  !mutex */\n      iszero\n        /* \"contract/HeirAccount.sol\":4551:4607  require(!mutex, \"The function is already in execution.\") */\n      tag_248\n      jumpi\n      mload(0x40)\n      0x08c379a000000000000000000000000000000000000000000000000000000000\n      dup2\n      mstore\n      0x04\n      add\n      tag_249\n      swap1\n      tag_182\n      jump\t// in\n    tag_249:\n      mload(0x40)\n      dup1\n      swap2\n      sub\n      swap1\n      revert\n    tag_248:\n        /* \"contract/HeirAccount.sol\":4629:4633  true */\n      0x01\n        /* \"contract/HeirAccount.sol\":4621:4626  mutex */\n      0x09\n      0x14\n        /* \"contract/HeirAccount.sol\":4621:4633  mutex = true */\n      0x0100\n      exp\n      dup2\n      sload\n      dup2\n      0xff\n      mul\n      not\n      and\n      swap1\n      dup4\n      iszero\n      iszero\n      mul\n      or\n      swap1\n      sstore\n      pop\n        /* \"contract/HeirAccount.sol\":4653:4686  _amount.mul(transferFee).div(100) */\n      tag_250\n        /* \"contract/HeirAccount.sol\":4682:4685  100 */\n      0x64\n        /* \"contract/HeirAccount.sol\":4653:4677  _amount.mul(transferFee) */\n      tag_251\n        /* \"contract/HeirAccount.sol\":4665:4676  transferFee */\n      sload(0x06)\n        /* \"contract/HeirAccount.sol\":4653:4660  _amount */\n      dup7\n        /* \"contract/HeirAccount.sol\":4653:4664  _amount.mul */\n      tag_185\n      swap1\n        /* \"contract/HeirAccount.sol\":4653:4677  _amount.mul(transferFee) */\n      swap2\n      swap1\n      0xffffffff\n      and\n      jump\t// in\n    tag_251:\n        /* \"contract/HeirAccount.sol\":4653:4681  _amount.mul(transferFee).div */\n      tag_186\n      swap1\n        /* \"contract/HeirAccount.sol\":4653:4686  _amount.mul(transferFee).div(100) */\n      swap2\n      swap1\n      0xffffffff\n      and\n      jump\t// in\n    tag_250:\n        /* \"contract/HeirAccount.sol\":4647:4650  fee */\n      0x05\n        /* \"contract/HeirAccount.sol\":4647:4686  fee = _amount.mul(transferFee).div(100) */\n      dup2\n      swap1\n      sstore\n      pop\n        /* \"contract/HeirAccount.sol\":4700:4705  owner */\n      0x01\n      0x00\n      swap1\n      sload\n      swap1\n      0x0100\n      exp\n      swap1\n      div\n      0xffffffffffffffffffffffffffffffffffffffff\n      and\n        /* \"contract/HeirAccount.sol\":4700:4714  owner.transfer */\n      0xffffffffffffffffffffffffffffffffffffffff\n      and\n        /* \"contract/HeirAccount.sol\":4700:4732  owner.transfer(_amount.sub(fee)) */\n      0x08fc\n        /* \"contract/HeirAccount.sol\":4715:4731  _amount.sub(fee) */\n      tag_252\n        /* \"contract/HeirAccount.sol\":4727:4730  fee */\n      sload(0x05)\n        /* \"contract/HeirAccount.sol\":4715:4722  _amount */\n      dup7\n        /* \"contract/HeirAccount.sol\":4715:4726  _amount.sub */\n      tag_188\n      swap1\n        /* \"contract/HeirAccount.sol\":4715:4731  _amount.sub(fee) */\n      swap2\n      swap1\n      0xffffffff\n      and\n      jump\t// in\n    tag_252:\n        /* \"contract/HeirAccount.sol\":4700:4732  owner.transfer(_amount.sub(fee)) */\n      swap1\n      dup2\n      iszero\n      mul\n      swap1\n      mload(0x40)\n      0x00\n      mload(0x40)\n      dup1\n      dup4\n      sub\n      dup2\n      dup6\n      dup9\n      dup9\n      call\n      swap4\n      pop\n      pop\n      pop\n      pop\n      iszero\n      dup1\n      iszero\n      tag_254\n      jumpi\n      returndatasize\n      0x00\n      dup1\n      returndatacopy\n      revert(0x00, returndatasize)\n    tag_254:\n      pop\n        /* \"contract/HeirAccount.sol\":4746:4756  feeAddress */\n      0x07\n      0x00\n      swap1\n      sload\n      swap1\n      0x0100\n      exp\n      swap1\n      div\n      0xffffffffffffffffffffffffffffffffffffffff\n      and\n        /* \"contract/HeirAccount.sol\":4746:4765  feeAddress.transfer */\n      0xffffffffffffffffffffffffffffffffffffffff\n      and\n        /* \"contract/HeirAccount.sol\":4746:4770  feeAddress.transfer(fee) */\n      0x08fc\n        /* \"contract/HeirAccount.sol\":4766:4769  fee */\n      sload(0x05)\n        /* \"contract/HeirAccount.sol\":4746:4770  feeAddress.transfer(fee) */\n      swap1\n      dup2\n      iszero\n      mul\n      swap1\n      mload(0x40)\n      0x00\n      mload(0x40)\n      dup1\n      dup4\n      sub\n      dup2\n      dup6\n      dup9\n      dup9\n      call\n      swap4\n      pop\n      pop\n      pop\n      pop\n      iszero\n      dup1\n      iszero\n      tag_256\n      jumpi\n      returndatasize\n      0x00\n      dup1\n      returndatacopy\n      revert(0x00, returndatasize)\n    tag_256:\n      pop\n        /* \"contract/HeirAccount.sol\":4792:4797  false */\n      0x00\n        /* \"contract/HeirAccount.sol\":4784:4789  mutex */\n      0x09\n      0x14\n        /* \"contract/HeirAccount.sol\":4784:4797  mutex = false */\n      0x0100\n      exp\n      dup2\n      sload\n      dup2\n      0xff\n      mul\n      not\n      and\n      swap1\n      dup4\n      iszero\n      iszero\n      mul\n      or\n      swap1\n      sstore\n      pop\n        /* \"contract/HeirAccount.sol\":4363:5288  if (_isCelo) {... */\n      jump(tag_257)\n    tag_242:\n        /* \"contract/HeirAccount.sol\":4841:4854  _ERC20Address */\n      dup2\n        /* \"contract/HeirAccount.sol\":4826:4831  ERC20 */\n      0x09\n      0x00\n        /* \"contract/HeirAccount.sol\":4826:4855  ERC20 = IERC20(_ERC20Address) */\n      0x0100\n      exp\n      dup2\n      sload\n      dup2\n      0xffffffffffffffffffffffffffffffffffffffff\n      mul\n      not\n      and\n      swap1\n      dup4\n      0xffffffffffffffffffffffffffffffffffffffff\n      and\n      mul\n      or\n      swap1\n      sstore\n      pop\n        /* \"contract/HeirAccount.sol\":4906:4907  0 */\n      0x00\n        /* \"contract/HeirAccount.sol\":4873:4878  ERC20 */\n      0x09\n      0x00\n      swap1\n      sload\n      swap1\n      0x0100\n      exp\n      swap1\n      div\n      0xffffffffffffffffffffffffffffffffffffffff\n      and\n        /* \"contract/HeirAccount.sol\":4873:4888  ERC20.balanceOf */\n      0xffffffffffffffffffffffffffffffffffffffff\n      and\n      0x70a08231\n        /* \"contract/HeirAccount.sol\":4897:4901  this */\n      address\n        /* \"contract/HeirAccount.sol\":4873:4903  ERC20.balanceOf(address(this)) */\n      mload(0x40)\n      dup3\n      0xffffffff\n      and\n      0xe0\n      shl\n      dup2\n      mstore\n      0x04\n      add\n      tag_258\n      swap2\n      swap1\n      tag_60\n      jump\t// in\n    tag_258:\n      0x20\n      mload(0x40)\n      dup1\n      dup4\n      sub\n      dup2\n      dup7\n      dup1\n      extcodesize\n      iszero\n      dup1\n      iszero\n      tag_259\n      jumpi\n      0x00\n      dup1\n      revert\n    tag_259:\n      pop\n      gas\n      staticcall\n      iszero\n      dup1\n      iszero\n      tag_261\n      jumpi\n      returndatasize\n      0x00\n      dup1\n      returndatacopy\n      revert(0x00, returndatasize)\n    tag_261:\n      pop\n      pop\n      pop\n      pop\n      mload(0x40)\n      returndatasize\n      not(0x1f)\n      0x1f\n      dup3\n      add\n      and\n      dup3\n      add\n      dup1\n      0x40\n      mstore\n      pop\n      dup2\n      add\n      swap1\n      tag_262\n      swap2\n      swap1\n      tag_148\n      jump\t// in\n    tag_262:\n        /* \"contract/HeirAccount.sol\":4873:4907  ERC20.balanceOf(address(this)) > 0 */\n      gt\n        /* \"contract/HeirAccount.sol\":4865:4943  require(ERC20.balanceOf(address(this)) > 0, \"There are no funds to withdraw.\") */\n      tag_263\n      jumpi\n      mload(0x40)\n      0x08c379a000000000000000000000000000000000000000000000000000000000\n      dup2\n      mstore\n      0x04\n      add\n      tag_264\n      swap1\n      tag_245\n      jump\t// in\n    tag_264:\n      mload(0x40)\n      dup1\n      swap2\n      sub\n      swap1\n      revert\n    tag_263:\n        /* \"contract/HeirAccount.sol\":4972:4977  ERC20 */\n      0x09\n      0x00\n      swap1\n      sload\n      swap1\n      0x0100\n      exp\n      swap1\n      div\n      0xffffffffffffffffffffffffffffffffffffffff\n      and\n        /* \"contract/HeirAccount.sol\":4972:4987  ERC20.balanceOf */\n      0xffffffffffffffffffffffffffffffffffffffff\n      and\n      0x70a08231\n        /* \"contract/HeirAccount.sol\":4996:5000  this */\n      address\n        /* \"contract/HeirAccount.sol\":4972:5002  ERC20.balanceOf(address(this)) */\n      mload(0x40)\n      dup3\n      0xffffffff\n      and\n      0xe0\n      shl\n      dup2\n      mstore\n      0x04\n      add\n      tag_265\n      swap2\n      swap1\n      tag_60\n      jump\t// in\n    tag_265:\n      0x20\n      mload(0x40)\n      dup1\n      dup4\n      sub\n      dup2\n      dup7\n      dup1\n      extcodesize\n      iszero\n      dup1\n      iszero\n      tag_266\n      jumpi\n      0x00\n      dup1\n      revert\n    tag_266:\n      pop\n      gas\n      staticcall\n      iszero\n      dup1\n      iszero\n      tag_268\n      jumpi\n      returndatasize\n      0x00\n      dup1\n      returndatacopy\n      revert(0x00, returndatasize)\n    tag_268:\n      pop\n      pop\n      pop\n      pop\n      mload(0x40)\n      returndatasize\n      not(0x1f)\n      0x1f\n      dup3\n      add\n      and\n      dup3\n      add\n      dup1\n      0x40\n      mstore\n      pop\n      dup2\n      add\n      swap1\n      tag_269\n      swap2\n      swap1\n      tag_148\n      jump\t// in\n    tag_269:\n        /* \"contract/HeirAccount.sol\":4961:4968  _amount */\n      dup4\n        /* \"contract/HeirAccount.sol\":4961:5002  _amount <= ERC20.balanceOf(address(this)) */\n      gt\n      iszero\n        /* \"contract/HeirAccount.sol\":4953:5026  require(_amount <= ERC20.balanceOf(address(this)), \"Insufficient funds.\") */\n      tag_270\n      jumpi\n      mload(0x40)\n      0x08c379a000000000000000000000000000000000000000000000000000000000\n      dup2\n      mstore\n      0x04\n      add\n      tag_271\n      swap1\n      tag_179\n      jump\t// in\n    tag_271:\n      mload(0x40)\n      dup1\n      swap2\n      sub\n      swap1\n      revert\n    tag_270:\n        /* \"contract/HeirAccount.sol\":5045:5050  mutex */\n      0x09\n      0x14\n      swap1\n      sload\n      swap1\n      0x0100\n      exp\n      swap1\n      div\n      0xff\n      and\n        /* \"contract/HeirAccount.sol\":5044:5050  !mutex */\n      iszero\n        /* \"contract/HeirAccount.sol\":5036:5092  require(!mutex, \"The function is already in execution.\") */\n      tag_272\n      jumpi\n      mload(0x40)\n      0x08c379a000000000000000000000000000000000000000000000000000000000\n      dup2\n      mstore\n      0x04\n      add\n      tag_273\n      swap1\n      tag_182\n      jump\t// in\n    tag_273:\n      mload(0x40)\n      dup1\n      swap2\n      sub\n      swap1\n      revert\n    tag_272:\n        /* \"contract/HeirAccount.sol\":5110:5114  true */\n      0x01\n        /* \"contract/HeirAccount.sol\":5102:5107  mutex */\n      0x09\n      0x14\n        /* \"contract/HeirAccount.sol\":5102:5114  mutex = true */\n      0x0100\n      exp\n      dup2\n      sload\n      dup2\n      0xff\n      mul\n      not\n      and\n      swap1\n      dup4\n      iszero\n      iszero\n      mul\n      or\n      swap1\n      sstore\n      pop\n        /* \"contract/HeirAccount.sol\":5130:5163  _amount.mul(transferFee).div(100) */\n      tag_274\n        /* \"contract/HeirAccount.sol\":5159:5162  100 */\n      0x64\n        /* \"contract/HeirAccount.sol\":5130:5154  _amount.mul(transferFee) */\n      tag_275\n        /* \"contract/HeirAccount.sol\":5142:5153  transferFee */\n      sload(0x06)\n        /* \"contract/HeirAccount.sol\":5130:5137  _amount */\n      dup7\n        /* \"contract/HeirAccount.sol\":5130:5141  _amount.mul */\n      tag_185\n      swap1\n        /* \"contract/HeirAccount.sol\":5130:5154  _amount.mul(transferFee) */\n      swap2\n      swap1\n      0xffffffff\n      and\n      jump\t// in\n    tag_275:\n        /* \"contract/HeirAccount.sol\":5130:5158  _amount.mul(transferFee).div */\n      tag_186\n      swap1\n        /* \"contract/HeirAccount.sol\":5130:5163  _amount.mul(transferFee).div(100) */\n      swap2\n      swap1\n      0xffffffff\n      and\n      jump\t// in\n    tag_274:\n        /* \"contract/HeirAccount.sol\":5124:5127  fee */\n      0x05\n        /* \"contract/HeirAccount.sol\":5124:5163  fee = _amount.mul(transferFee).div(100) */\n      dup2\n      swap1\n      sstore\n      pop\n        /* \"contract/HeirAccount.sol\":5173:5178  ERC20 */\n      0x09\n      0x00\n      swap1\n      sload\n      swap1\n      0x0100\n      exp\n      swap1\n      div\n      0xffffffffffffffffffffffffffffffffffffffff\n      and\n        /* \"contract/HeirAccount.sol\":5173:5187  ERC20.transfer */\n      0xffffffffffffffffffffffffffffffffffffffff\n      and\n      0xa9059cbb\n        /* \"contract/HeirAccount.sol\":5188:5193  owner */\n      0x01\n      0x00\n      swap1\n      sload\n      swap1\n      0x0100\n      exp\n      swap1\n      div\n      0xffffffffffffffffffffffffffffffffffffffff\n      and\n        /* \"contract/HeirAccount.sol\":5195:5211  _amount.sub(fee) */\n      tag_276\n        /* \"contract/HeirAccount.sol\":5207:5210  fee */\n      sload(0x05)\n        /* \"contract/HeirAccount.sol\":5195:5202  _amount */\n      dup8\n        /* \"contract/HeirAccount.sol\":5195:5206  _amount.sub */\n      tag_188\n      swap1\n        /* \"contract/HeirAccount.sol\":5195:5211  _amount.sub(fee) */\n      swap2\n      swap1\n      0xffffffff\n      and\n      jump\t// in\n    tag_276:\n        /* \"contract/HeirAccount.sol\":5173:5212  ERC20.transfer(owner, _amount.sub(fee)) */\n      mload(0x40)\n      dup4\n      0xffffffff\n      and\n      0xe0\n      shl\n      dup2\n      mstore\n      0x04\n      add\n      tag_277\n      swap3\n      swap2\n      swap1\n      tag_207\n      jump\t// in\n    tag_277:\n      0x20\n      mload(0x40)\n      dup1\n      dup4\n      sub\n      dup2\n      0x00\n      dup8\n      dup1\n      extcodesize\n      iszero\n      dup1\n      iszero\n      tag_278\n      jumpi\n      0x00\n      dup1\n      revert\n    tag_278:\n      pop\n      gas\n      call\n      iszero\n      dup1\n      iszero\n      tag_280\n      jumpi\n      returndatasize\n      0x00\n      dup1\n      returndatacopy\n      revert(0x00, returndatasize)\n    tag_280:\n      pop\n      pop\n      pop\n      pop\n      mload(0x40)\n      returndatasize\n      not(0x1f)\n      0x1f\n      dup3\n      add\n      and\n      dup3\n      add\n      dup1\n      0x40\n      mstore\n      pop\n      dup2\n      add\n      swap1\n      tag_281\n      swap2\n      swap1\n      tag_212\n      jump\t// in\n    tag_281:\n      pop\n        /* \"contract/HeirAccount.sol\":5222:5227  ERC20 */\n      0x09\n      0x00\n      swap1\n      sload\n      swap1\n      0x0100\n      exp\n      swap1\n      div\n      0xffffffffffffffffffffffffffffffffffffffff\n      and\n        /* \"contract/HeirAccount.sol\":5222:5236  ERC20.transfer */\n      0xffffffffffffffffffffffffffffffffffffffff\n      and\n      0xa9059cbb\n        /* \"contract/HeirAccount.sol\":5237:5247  feeAddress */\n      0x07\n      0x00\n      swap1\n      sload\n      swap1\n      0x0100\n      exp\n      swap1\n      div\n      0xffffffffffffffffffffffffffffffffffffffff\n      and\n        /* \"contract/HeirAccount.sol\":5249:5252  fee */\n      sload(0x05)\n        /* \"contract/HeirAccount.sol\":5222:5253  ERC20.transfer(feeAddress, fee) */\n      mload(0x40)\n      dup4\n      0xffffffff\n      and\n      0xe0\n      shl\n      dup2\n      mstore\n      0x04\n      add\n      tag_282\n      swap3\n      swap2\n      swap1\n      tag_207\n      jump\t// in\n    tag_282:\n      0x20\n      mload(0x40)\n      dup1\n      dup4\n      sub\n      dup2\n      0x00\n      dup8\n      dup1\n      extcodesize\n      iszero\n      dup1\n      iszero\n      tag_283\n      jumpi\n      0x00\n      dup1\n      revert\n    tag_283:\n      pop\n      gas\n      call\n      iszero\n      dup1\n      iszero\n      tag_285\n      jumpi\n      returndatasize\n      0x00\n      dup1\n      returndatacopy\n      revert(0x00, returndatasize)\n    tag_285:\n      pop\n      pop\n      pop\n      pop\n      mload(0x40)\n      returndatasize\n      not(0x1f)\n      0x1f\n      dup3\n      add\n      and\n      dup3\n      add\n      dup1\n      0x40\n      mstore\n      pop\n      dup2\n      add\n      swap1\n      tag_286\n      swap2\n      swap1\n      tag_212\n      jump\t// in\n    tag_286:\n      pop\n        /* \"contract/HeirAccount.sol\":5271:5276  false */\n      0x00\n        /* \"contract/HeirAccount.sol\":5263:5268  mutex */\n      0x09\n      0x14\n        /* \"contract/HeirAccount.sol\":5263:5276  mutex = false */\n      0x0100\n      exp\n      dup2\n      sload\n      dup2\n      0xff\n      mul\n      not\n      and\n      swap1\n      dup4\n      iszero\n      iszero\n      mul\n      or\n      swap1\n      sstore\n      pop\n        /* \"contract/HeirAccount.sol\":4363:5288  if (_isCelo) {... */\n    tag_257:\n        /* \"contract/HeirAccount.sol\":4108:5294  function withdraw(bool _isCelo, uint _amount, address _ERC20Address, address _sender) public payable {... */\n      pop\n      pop\n      pop\n      pop\n      jump\t// out\n        /* \"contract/HeirAccount.sol\":2668:2957  function initiateClaim(address _sender) public {... */\n    tag_131:\n        /* \"contract/HeirAccount.sol\":2741:2748  _sender */\n      dup1\n        /* \"contract/HeirAccount.sol\":2733:2748  heir == _sender */\n      0xffffffffffffffffffffffffffffffffffffffff\n      and\n        /* \"contract/HeirAccount.sol\":2733:2737  heir */\n      0x02\n      0x00\n      swap1\n      sload\n      swap1\n      0x0100\n      exp\n      swap1\n      div\n      0xffffffffffffffffffffffffffffffffffffffff\n      and\n        /* \"contract/HeirAccount.sol\":2733:2748  heir == _sender */\n      0xffffffffffffffffffffffffffffffffffffffff\n      and\n      eq\n        /* \"contract/HeirAccount.sol\":2725:2798  require(heir == _sender, \"Only the heir can initiate the claim process.\") */\n      tag_288\n      jumpi\n      mload(0x40)\n      0x08c379a000000000000000000000000000000000000000000000000000000000\n      dup2\n      mstore\n      0x04\n      add\n      tag_289\n      swap1\n      tag_290\n      jump\t// in\n    tag_289:\n      mload(0x40)\n      dup1\n      swap2\n      sub\n      swap1\n      revert\n    tag_288:\n        /* \"contract/HeirAccount.sol\":2817:2832  claimInProgress */\n      0x02\n      0x14\n      swap1\n      sload\n      swap1\n      0x0100\n      exp\n      swap1\n      div\n      0xff\n      and\n        /* \"contract/HeirAccount.sol\":2816:2832  !claimInProgress */\n      iszero\n        /* \"contract/HeirAccount.sol\":2808:2874  require(!claimInProgress, \"Claim process is already in progress.\") */\n      tag_291\n      jumpi\n      mload(0x40)\n      0x08c379a000000000000000000000000000000000000000000000000000000000\n      dup2\n      mstore\n      0x04\n      add\n      tag_292\n      swap1\n      tag_293\n      jump\t// in\n    tag_292:\n      mload(0x40)\n      dup1\n      swap2\n      sub\n      swap1\n      revert\n    tag_291:\n        /* \"contract/HeirAccount.sol\":2902:2906  true */\n      0x01\n        /* \"contract/HeirAccount.sol\":2884:2899  claimInProgress */\n      0x02\n      0x14\n        /* \"contract/HeirAccount.sol\":2884:2906  claimInProgress = true */\n      0x0100\n      exp\n      dup2\n      sload\n      dup2\n      0xff\n      mul\n      not\n      and\n      swap1\n      dup4\n      iszero\n      iszero\n      mul\n      or\n      swap1\n      sstore\n      pop\n        /* \"contract/HeirAccount.sol\":2935:2950  block.timestamp */\n      timestamp\n        /* \"contract/HeirAccount.sol\":2916:2932  claimInitiatedAt */\n      0x03\n        /* \"contract/HeirAccount.sol\":2916:2950  claimInitiatedAt = block.timestamp */\n      dup2\n      swap1\n      sstore\n      pop\n        /* \"contract/HeirAccount.sol\":2668:2957  function initiateClaim(address _sender) public {... */\n      pop\n      jump\t// out\n        /* \"contract/HeirAccount.sol\":7392:7481  function returnTransferFee() public view returns(uint){... */\n    tag_134:\n        /* \"contract/HeirAccount.sol\":7441:7445  uint */\n      0x00\n        /* \"contract/HeirAccount.sol\":7463:7474  transferFee */\n      sload(0x06)\n        /* \"contract/HeirAccount.sol\":7456:7474  return transferFee */\n      swap1\n      pop\n        /* \"contract/HeirAccount.sol\":7392:7481  function returnTransferFee() public view returns(uint){... */\n      swap1\n      jump\t// out\n        /* \"contract/HeirAccount.sol\":1107:1134  bool public claimInProgress */\n    tag_138:\n      0x02\n      0x14\n      swap1\n      sload\n      swap1\n      0x0100\n      exp\n      swap1\n      div\n      0xff\n      and\n      dup2\n      jump\t// out\n        /* \"@openzeppelin/contracts/utils/math/SafeMath.sol\":3465:3561  function mul(uint256 a, uint256 b) internal pure returns (uint256) {... */\n    tag_185:\n        /* \"@openzeppelin/contracts/utils/math/SafeMath.sol\":3523:3530  uint256 */\n      0x00\n        /* \"@openzeppelin/contracts/utils/math/SafeMath.sol\":3553:3554  b */\n      dup2\n        /* \"@openzeppelin/contracts/utils/math/SafeMath.sol\":3549:3550  a */\n      dup4\n        /* \"@openzeppelin/contracts/utils/math/SafeMath.sol\":3549:3554  a * b */\n      tag_296\n      swap2\n      swap1\n      tag_157\n      jump\t// in\n    tag_296:\n        /* \"@openzeppelin/contracts/utils/math/SafeMath.sol\":3542:3554  return a * b */\n      swap1\n      pop\n        /* \"@openzeppelin/contracts/utils/math/SafeMath.sol\":3465:3561  function mul(uint256 a, uint256 b) internal pure returns (uint256) {... */\n      swap3\n      swap2\n      pop\n      pop\n      jump\t// out\n        /* \"@openzeppelin/contracts/utils/math/SafeMath.sol\":3850:3946  function div(uint256 a, uint256 b) internal pure returns (uint256) {... */\n    tag_186:\n        /* \"@openzeppelin/contracts/utils/math/SafeMath.sol\":3908:3915  uint256 */\n      0x00\n        /* \"@openzeppelin/contracts/utils/math/SafeMath.sol\":3938:3939  b */\n      dup2\n        /* \"@openzeppelin/contracts/utils/math/SafeMath.sol\":3934:3935  a */\n      dup4\n        /* \"@openzeppelin/contracts/utils/math/SafeMath.sol\":3934:3939  a / b */\n      tag_298\n      swap2\n      swap1\n      tag_299\n      jump\t// in\n    tag_298:\n        /* \"@openzeppelin/contracts/utils/math/SafeMath.sol\":3927:3939  return a / b */\n      swap1\n      pop\n        /* \"@openzeppelin/contracts/utils/math/SafeMath.sol\":3850:3946  function div(uint256 a, uint256 b) internal pure returns (uint256) {... */\n      swap3\n      swap2\n      pop\n      pop\n      jump\t// out\n        /* \"@openzeppelin/contracts/utils/math/SafeMath.sol\":3122:3218  function sub(uint256 a, uint256 b) internal pure returns (uint256) {... */\n    tag_188:\n        /* \"@openzeppelin/contracts/utils/math/SafeMath.sol\":3180:3187  uint256 */\n      0x00\n        /* \"@openzeppelin/contracts/utils/math/SafeMath.sol\":3210:3211  b */\n      dup2\n        /* \"@openzeppelin/contracts/utils/math/SafeMath.sol\":3206:3207  a */\n      dup4\n        /* \"@openzeppelin/contracts/utils/math/SafeMath.sol\":3206:3211  a - b */\n      tag_301\n      swap2\n      swap1\n      tag_302\n      jump\t// in\n    tag_301:\n        /* \"@openzeppelin/contracts/utils/math/SafeMath.sol\":3199:3211  return a - b */\n      swap1\n      pop\n        /* \"@openzeppelin/contracts/utils/math/SafeMath.sol\":3122:3218  function sub(uint256 a, uint256 b) internal pure returns (uint256) {... */\n      swap3\n      swap2\n      pop\n      pop\n      jump\t// out\n        /* \"#utility.yul\":7:146   */\n    tag_304:\n        /* \"#utility.yul\":53:58   */\n      0x00\n        /* \"#utility.yul\":91:97   */\n      dup2\n        /* \"#utility.yul\":78:98   */\n      calldataload\n        /* \"#utility.yul\":69:98   */\n      swap1\n      pop\n        /* \"#utility.yul\":107:140   */\n      tag_306\n        /* \"#utility.yul\":134:139   */\n      dup2\n        /* \"#utility.yul\":107:140   */\n      tag_307\n      jump\t// in\n    tag_306:\n        /* \"#utility.yul\":7:146   */\n      swap3\n      swap2\n      pop\n      pop\n      jump\t// out\n        /* \"#utility.yul\":152:307   */\n    tag_308:\n        /* \"#utility.yul\":206:211   */\n      0x00\n        /* \"#utility.yul\":244:250   */\n      dup2\n        /* \"#utility.yul\":231:251   */\n      calldataload\n        /* \"#utility.yul\":222:251   */\n      swap1\n      pop\n        /* \"#utility.yul\":260:301   */\n      tag_310\n        /* \"#utility.yul\":295:300   */\n      dup2\n        /* \"#utility.yul\":260:301   */\n      tag_311\n      jump\t// in\n    tag_310:\n        /* \"#utility.yul\":152:307   */\n      swap3\n      swap2\n      pop\n      pop\n      jump\t// out\n        /* \"#utility.yul\":313:446   */\n    tag_312:\n        /* \"#utility.yul\":356:361   */\n      0x00\n        /* \"#utility.yul\":394:400   */\n      dup2\n        /* \"#utility.yul\":381:401   */\n      calldataload\n        /* \"#utility.yul\":372:401   */\n      swap1\n      pop\n        /* \"#utility.yul\":410:440   */\n      tag_314\n        /* \"#utility.yul\":434:439   */\n      dup2\n        /* \"#utility.yul\":410:440   */\n      tag_315\n      jump\t// in\n    tag_314:\n        /* \"#utility.yul\":313:446   */\n      swap3\n      swap2\n      pop\n      pop\n      jump\t// out\n        /* \"#utility.yul\":452:589   */\n    tag_316:\n        /* \"#utility.yul\":506:511   */\n      0x00\n        /* \"#utility.yul\":537:543   */\n      dup2\n        /* \"#utility.yul\":531:544   */\n      mload\n        /* \"#utility.yul\":522:544   */\n      swap1\n      pop\n        /* \"#utility.yul\":553:583   */\n      tag_318\n        /* \"#utility.yul\":577:582   */\n      dup2\n        /* \"#utility.yul\":553:583   */\n      tag_315\n      jump\t// in\n    tag_318:\n        /* \"#utility.yul\":452:589   */\n      swap3\n      swap2\n      pop\n      pop\n      jump\t// out\n        /* \"#utility.yul\":595:734   */\n    tag_319:\n        /* \"#utility.yul\":641:646   */\n      0x00\n        /* \"#utility.yul\":679:685   */\n      dup2\n        /* \"#utility.yul\":666:686   */\n      calldataload\n        /* \"#utility.yul\":657:686   */\n      swap1\n      pop\n        /* \"#utility.yul\":695:728   */\n      tag_321\n        /* \"#utility.yul\":722:727   */\n      dup2\n        /* \"#utility.yul\":695:728   */\n      tag_322\n      jump\t// in\n    tag_321:\n        /* \"#utility.yul\":595:734   */\n      swap3\n      swap2\n      pop\n      pop\n      jump\t// out\n        /* \"#utility.yul\":740:883   */\n    tag_323:\n        /* \"#utility.yul\":797:802   */\n      0x00\n        /* \"#utility.yul\":828:834   */\n      dup2\n        /* \"#utility.yul\":822:835   */\n      mload\n        /* \"#utility.yul\":813:835   */\n      swap1\n      pop\n        /* \"#utility.yul\":844:877   */\n      tag_325\n        /* \"#utility.yul\":871:876   */\n      dup2\n        /* \"#utility.yul\":844:877   */\n      tag_322\n      jump\t// in\n    tag_325:\n        /* \"#utility.yul\":740:883   */\n      swap3\n      swap2\n      pop\n      pop\n      jump\t// out\n        /* \"#utility.yul\":889:1218   */\n    tag_54:\n        /* \"#utility.yul\":948:954   */\n      0x00\n        /* \"#utility.yul\":997:999   */\n      0x20\n        /* \"#utility.yul\":985:994   */\n      dup3\n        /* \"#utility.yul\":976:983   */\n      dup5\n        /* \"#utility.yul\":972:995   */\n      sub\n        /* \"#utility.yul\":968:1000   */\n      slt\n        /* \"#utility.yul\":965:1084   */\n      iszero\n      tag_327\n      jumpi\n        /* \"#utility.yul\":1003:1082   */\n      tag_328\n      tag_329\n      jump\t// in\n    tag_328:\n        /* \"#utility.yul\":965:1084   */\n    tag_327:\n        /* \"#utility.yul\":1123:1124   */\n      0x00\n        /* \"#utility.yul\":1148:1201   */\n      tag_330\n        /* \"#utility.yul\":1193:1200   */\n      dup5\n        /* \"#utility.yul\":1184:1190   */\n      dup3\n        /* \"#utility.yul\":1173:1182   */\n      dup6\n        /* \"#utility.yul\":1169:1191   */\n      add\n        /* \"#utility.yul\":1148:1201   */\n      tag_304\n      jump\t// in\n    tag_330:\n        /* \"#utility.yul\":1138:1201   */\n      swap2\n      pop\n        /* \"#utility.yul\":1094:1211   */\n      pop\n        /* \"#utility.yul\":889:1218   */\n      swap3\n      swap2\n      pop\n      pop\n      jump\t// out\n        /* \"#utility.yul\":1224:1859   */\n    tag_76:\n        /* \"#utility.yul\":1309:1315   */\n      0x00\n        /* \"#utility.yul\":1317:1323   */\n      dup1\n        /* \"#utility.yul\":1325:1331   */\n      0x00\n        /* \"#utility.yul\":1374:1376   */\n      0x60\n        /* \"#utility.yul\":1362:1371   */\n      dup5\n        /* \"#utility.yul\":1353:1360   */\n      dup7\n        /* \"#utility.yul\":1349:1372   */\n      sub\n        /* \"#utility.yul\":1345:1377   */\n      slt\n        /* \"#utility.yul\":1342:1461   */\n      iszero\n      tag_332\n      jumpi\n        /* \"#utility.yul\":1380:1459   */\n      tag_333\n      tag_329\n      jump\t// in\n    tag_333:\n        /* \"#utility.yul\":1342:1461   */\n    tag_332:\n        /* \"#utility.yul\":1500:1501   */\n      0x00\n        /* \"#utility.yul\":1525:1586   */\n      tag_334\n        /* \"#utility.yul\":1578:1585   */\n      dup7\n        /* \"#utility.yul\":1569:1575   */\n      dup3\n        /* \"#utility.yul\":1558:1567   */\n      dup8\n        /* \"#utility.yul\":1554:1576   */\n      add\n        /* \"#utility.yul\":1525:1586   */\n      tag_308\n      jump\t// in\n    tag_334:\n        /* \"#utility.yul\":1515:1586   */\n      swap4\n      pop\n        /* \"#utility.yul\":1471:1596   */\n      pop\n        /* \"#utility.yul\":1635:1637   */\n      0x20\n        /* \"#utility.yul\":1661:1714   */\n      tag_335\n        /* \"#utility.yul\":1706:1713   */\n      dup7\n        /* \"#utility.yul\":1697:1703   */\n      dup3\n        /* \"#utility.yul\":1686:1695   */\n      dup8\n        /* \"#utility.yul\":1682:1704   */\n      add\n        /* \"#utility.yul\":1661:1714   */\n      tag_319\n      jump\t// in\n    tag_335:\n        /* \"#utility.yul\":1651:1714   */\n      swap3\n      pop\n        /* \"#utility.yul\":1606:1724   */\n      pop\n        /* \"#utility.yul\":1763:1765   */\n      0x40\n        /* \"#utility.yul\":1789:1842   */\n      tag_336\n        /* \"#utility.yul\":1834:1841   */\n      dup7\n        /* \"#utility.yul\":1825:1831   */\n      dup3\n        /* \"#utility.yul\":1814:1823   */\n      dup8\n        /* \"#utility.yul\":1810:1832   */\n      add\n        /* \"#utility.yul\":1789:1842   */\n      tag_304\n      jump\t// in\n    tag_336:\n        /* \"#utility.yul\":1779:1842   */\n      swap2\n      pop\n        /* \"#utility.yul\":1734:1852   */\n      pop\n        /* \"#utility.yul\":1224:1859   */\n      swap3\n      pop\n      swap3\n      pop\n      swap3\n      jump\t// out\n        /* \"#utility.yul\":1865:2210   */\n    tag_212:\n        /* \"#utility.yul\":1932:1938   */\n      0x00\n        /* \"#utility.yul\":1981:1983   */\n      0x20\n        /* \"#utility.yul\":1969:1978   */\n      dup3\n        /* \"#utility.yul\":1960:1967   */\n      dup5\n        /* \"#utility.yul\":1956:1979   */\n      sub\n        /* \"#utility.yul\":1952:1984   */\n      slt\n        /* \"#utility.yul\":1949:2068   */\n      iszero\n      tag_338\n      jumpi\n        /* \"#utility.yul\":1987:2066   */\n      tag_339\n      tag_329\n      jump\t// in\n    tag_339:\n        /* \"#utility.yul\":1949:2068   */\n    tag_338:\n        /* \"#utility.yul\":2107:2108   */\n      0x00\n        /* \"#utility.yul\":2132:2193   */\n      tag_340\n        /* \"#utility.yul\":2185:2192   */\n      dup5\n        /* \"#utility.yul\":2176:2182   */\n      dup3\n        /* \"#utility.yul\":2165:2174   */\n      dup6\n        /* \"#utility.yul\":2161:2183   */\n      add\n        /* \"#utility.yul\":2132:2193   */\n      tag_316\n      jump\t// in\n    tag_340:\n        /* \"#utility.yul\":2122:2193   */\n      swap2\n      pop\n        /* \"#utility.yul\":2078:2203   */\n      pop\n        /* \"#utility.yul\":1865:2210   */\n      swap3\n      swap2\n      pop\n      pop\n      jump\t// out\n        /* \"#utility.yul\":2216:2684   */\n    tag_44:\n        /* \"#utility.yul\":2281:2287   */\n      0x00\n        /* \"#utility.yul\":2289:2295   */\n      dup1\n        /* \"#utility.yul\":2338:2340   */\n      0x40\n        /* \"#utility.yul\":2326:2335   */\n      dup4\n        /* \"#utility.yul\":2317:2324   */\n      dup6\n        /* \"#utility.yul\":2313:2336   */\n      sub\n        /* \"#utility.yul\":2309:2341   */\n      slt\n        /* \"#utility.yul\":2306:2425   */\n      iszero\n      tag_342\n      jumpi\n        /* \"#utility.yul\":2344:2423   */\n      tag_343\n      tag_329\n      jump\t// in\n    tag_343:\n        /* \"#utility.yul\":2306:2425   */\n    tag_342:\n        /* \"#utility.yul\":2464:2465   */\n      0x00\n        /* \"#utility.yul\":2489:2539   */\n      tag_344\n        /* \"#utility.yul\":2531:2538   */\n      dup6\n        /* \"#utility.yul\":2522:2528   */\n      dup3\n        /* \"#utility.yul\":2511:2520   */\n      dup7\n        /* \"#utility.yul\":2507:2529   */\n      add\n        /* \"#utility.yul\":2489:2539   */\n      tag_312\n      jump\t// in\n    tag_344:\n        /* \"#utility.yul\":2479:2539   */\n      swap3\n      pop\n        /* \"#utility.yul\":2435:2549   */\n      pop\n        /* \"#utility.yul\":2588:2590   */\n      0x20\n        /* \"#utility.yul\":2614:2667   */\n      tag_345\n        /* \"#utility.yul\":2659:2666   */\n      dup6\n        /* \"#utility.yul\":2650:2656   */\n      dup3\n        /* \"#utility.yul\":2639:2648   */\n      dup7\n        /* \"#utility.yul\":2635:2657   */\n      add\n        /* \"#utility.yul\":2614:2667   */\n      tag_304\n      jump\t// in\n    tag_345:\n        /* \"#utility.yul\":2604:2667   */\n      swap2\n      pop\n        /* \"#utility.yul\":2559:2677   */\n      pop\n        /* \"#utility.yul\":2216:2684   */\n      swap3\n      pop\n      swap3\n      swap1\n      pop\n      jump\t// out\n        /* \"#utility.yul\":2690:3611   */\n    tag_71:\n        /* \"#utility.yul\":2790:2796   */\n      0x00\n        /* \"#utility.yul\":2798:2804   */\n      dup1\n        /* \"#utility.yul\":2806:2812   */\n      0x00\n        /* \"#utility.yul\":2814:2820   */\n      dup1\n        /* \"#utility.yul\":2822:2828   */\n      0x00\n        /* \"#utility.yul\":2871:2874   */\n      0xa0\n        /* \"#utility.yul\":2859:2868   */\n      dup7\n        /* \"#utility.yul\":2850:2857   */\n      dup9\n        /* \"#utility.yul\":2846:2869   */\n      sub\n        /* \"#utility.yul\":2842:2875   */\n      slt\n        /* \"#utility.yul\":2839:2959   */\n      iszero\n      tag_347\n      jumpi\n        /* \"#utility.yul\":2878:2957   */\n      tag_348\n      tag_329\n      jump\t// in\n    tag_348:\n        /* \"#utility.yul\":2839:2959   */\n    tag_347:\n        /* \"#utility.yul\":2998:2999   */\n      0x00\n        /* \"#utility.yul\":3023:3073   */\n      tag_349\n        /* \"#utility.yul\":3065:3072   */\n      dup9\n        /* \"#utility.yul\":3056:3062   */\n      dup3\n        /* \"#utility.yul\":3045:3054   */\n      dup10\n        /* \"#utility.yul\":3041:3063   */\n      add\n        /* \"#utility.yul\":3023:3073   */\n      tag_312\n      jump\t// in\n    tag_349:\n        /* \"#utility.yul\":3013:3073   */\n      swap6\n      pop\n        /* \"#utility.yul\":2969:3083   */\n      pop\n        /* \"#utility.yul\":3122:3124   */\n      0x20\n        /* \"#utility.yul\":3148:3209   */\n      tag_350\n        /* \"#utility.yul\":3201:3208   */\n      dup9\n        /* \"#utility.yul\":3192:3198   */\n      dup3\n        /* \"#utility.yul\":3181:3190   */\n      dup10\n        /* \"#utility.yul\":3177:3199   */\n      add\n        /* \"#utility.yul\":3148:3209   */\n      tag_308\n      jump\t// in\n    tag_350:\n        /* \"#utility.yul\":3138:3209   */\n      swap5\n      pop\n        /* \"#utility.yul\":3093:3219   */\n      pop\n        /* \"#utility.yul\":3258:3260   */\n      0x40\n        /* \"#utility.yul\":3284:3337   */\n      tag_351\n        /* \"#utility.yul\":3329:3336   */\n      dup9\n        /* \"#utility.yul\":3320:3326   */\n      dup3\n        /* \"#utility.yul\":3309:3318   */\n      dup10\n        /* \"#utility.yul\":3305:3327   */\n      add\n        /* \"#utility.yul\":3284:3337   */\n      tag_319\n      jump\t// in\n    tag_351:\n        /* \"#utility.yul\":3274:3337   */\n      swap4\n      pop\n        /* \"#utility.yul\":3229:3347   */\n      pop\n        /* \"#utility.yul\":3386:3388   */\n      0x60\n        /* \"#utility.yul\":3412:3465   */\n      tag_352\n        /* \"#utility.yul\":3457:3464   */\n      dup9\n        /* \"#utility.yul\":3448:3454   */\n      dup3\n        /* \"#utility.yul\":3437:3446   */\n      dup10\n        /* \"#utility.yul\":3433:3455   */\n      add\n        /* \"#utility.yul\":3412:3465   */\n      tag_304\n      jump\t// in\n    tag_352:\n        /* \"#utility.yul\":3402:3465   */\n      swap3\n      pop\n        /* \"#utility.yul\":3357:3475   */\n      pop\n        /* \"#utility.yul\":3514:3517   */\n      0x80\n        /* \"#utility.yul\":3541:3594   */\n      tag_353\n        /* \"#utility.yul\":3586:3593   */\n      dup9\n        /* \"#utility.yul\":3577:3583   */\n      dup3\n        /* \"#utility.yul\":3566:3575   */\n      dup10\n        /* \"#utility.yul\":3562:3584   */\n      add\n        /* \"#utility.yul\":3541:3594   */\n      tag_304\n      jump\t// in\n    tag_353:\n        /* \"#utility.yul\":3531:3594   */\n      swap2\n      pop\n        /* \"#utility.yul\":3485:3604   */\n      pop\n        /* \"#utility.yul\":2690:3611   */\n      swap3\n      swap6\n      pop\n      swap3\n      swap6\n      swap1\n      swap4\n      pop\n      jump\t// out\n        /* \"#utility.yul\":3617:4376   */\n    tag_126:\n        /* \"#utility.yul\":3700:3706   */\n      0x00\n        /* \"#utility.yul\":3708:3714   */\n      dup1\n        /* \"#utility.yul\":3716:3722   */\n      0x00\n        /* \"#utility.yul\":3724:3730   */\n      dup1\n        /* \"#utility.yul\":3773:3776   */\n      0x80\n        /* \"#utility.yul\":3761:3770   */\n      dup6\n        /* \"#utility.yul\":3752:3759   */\n      dup8\n        /* \"#utility.yul\":3748:3771   */\n      sub\n        /* \"#utility.yul\":3744:3777   */\n      slt\n        /* \"#utility.yul\":3741:3861   */\n      iszero\n      tag_355\n      jumpi\n        /* \"#utility.yul\":3780:3859   */\n      tag_356\n      tag_329\n      jump\t// in\n    tag_356:\n        /* \"#utility.yul\":3741:3861   */\n    tag_355:\n        /* \"#utility.yul\":3900:3901   */\n      0x00\n        /* \"#utility.yul\":3925:3975   */\n      tag_357\n        /* \"#utility.yul\":3967:3974   */\n      dup8\n        /* \"#utility.yul\":3958:3964   */\n      dup3\n        /* \"#utility.yul\":3947:3956   */\n      dup9\n        /* \"#utility.yul\":3943:3965   */\n      add\n        /* \"#utility.yul\":3925:3975   */\n      tag_312\n      jump\t// in\n    tag_357:\n        /* \"#utility.yul\":3915:3975   */\n      swap5\n      pop\n        /* \"#utility.yul\":3871:3985   */\n      pop\n        /* \"#utility.yul\":4024:4026   */\n      0x20\n        /* \"#utility.yul\":4050:4103   */\n      tag_358\n        /* \"#utility.yul\":4095:4102   */\n      dup8\n        /* \"#utility.yul\":4086:4092   */\n      dup3\n        /* \"#utility.yul\":4075:4084   */\n      dup9\n        /* \"#utility.yul\":4071:4093   */\n      add\n        /* \"#utility.yul\":4050:4103   */\n      tag_319\n      jump\t// in\n    tag_358:\n        /* \"#utility.yul\":4040:4103   */\n      swap4\n      pop\n        /* \"#utility.yul\":3995:4113   */\n      pop\n        /* \"#utility.yul\":4152:4154   */\n      0x40\n        /* \"#utility.yul\":4178:4231   */\n      tag_359\n        /* \"#utility.yul\":4223:4230   */\n      dup8\n        /* \"#utility.yul\":4214:4220   */\n      dup3\n        /* \"#utility.yul\":4203:4212   */\n      dup9\n        /* \"#utility.yul\":4199:4221   */\n      add\n        /* \"#utility.yul\":4178:4231   */\n      tag_304\n      jump\t// in\n    tag_359:\n        /* \"#utility.yul\":4168:4231   */\n      swap3\n      pop\n        /* \"#utility.yul\":4123:4241   */\n      pop\n        /* \"#utility.yul\":4280:4282   */\n      0x60\n        /* \"#utility.yul\":4306:4359   */\n      tag_360\n        /* \"#utility.yul\":4351:4358   */\n      dup8\n        /* \"#utility.yul\":4342:4348   */\n      dup3\n        /* \"#utility.yul\":4331:4340   */\n      dup9\n        /* \"#utility.yul\":4327:4349   */\n      add\n        /* \"#utility.yul\":4306:4359   */\n      tag_304\n      jump\t// in\n    tag_360:\n        /* \"#utility.yul\":4296:4359   */\n      swap2\n      pop\n        /* \"#utility.yul\":4251:4369   */\n      pop\n        /* \"#utility.yul\":3617:4376   */\n      swap3\n      swap6\n      swap2\n      swap5\n      pop\n      swap3\n      pop\n      jump\t// out\n        /* \"#utility.yul\":4382:4733   */\n    tag_148:\n        /* \"#utility.yul\":4452:4458   */\n      0x00\n        /* \"#utility.yul\":4501:4503   */\n      0x20\n        /* \"#utility.yul\":4489:4498   */\n      dup3\n        /* \"#utility.yul\":4480:4487   */\n      dup5\n        /* \"#utility.yul\":4476:4499   */\n      sub\n        /* \"#utility.yul\":4472:4504   */\n      slt\n        /* \"#utility.yul\":4469:4588   */\n      iszero\n      tag_362\n      jumpi\n        /* \"#utility.yul\":4507:4586   */\n      tag_363\n      tag_329\n      jump\t// in\n    tag_363:\n        /* \"#utility.yul\":4469:4588   */\n    tag_362:\n        /* \"#utility.yul\":4627:4628   */\n      0x00\n        /* \"#utility.yul\":4652:4716   */\n      tag_364\n        /* \"#utility.yul\":4708:4715   */\n      dup5\n        /* \"#utility.yul\":4699:4705   */\n      dup3\n        /* \"#utility.yul\":4688:4697   */\n      dup6\n        /* \"#utility.yul\":4684:4706   */\n      add\n        /* \"#utility.yul\":4652:4716   */\n      tag_323\n      jump\t// in\n    tag_364:\n        /* \"#utility.yul\":4642:4716   */\n      swap2\n      pop\n        /* \"#utility.yul\":4598:4726   */\n      pop\n        /* \"#utility.yul\":4382:4733   */\n      swap3\n      swap2\n      pop\n      pop\n      jump\t// out\n        /* \"#utility.yul\":4739:4886   */\n    tag_365:\n        /* \"#utility.yul\":4834:4879   */\n      tag_367\n        /* \"#utility.yul\":4873:4878   */\n      dup2\n        /* \"#utility.yul\":4834:4879   */\n      tag_368\n      jump\t// in\n    tag_367:\n        /* \"#utility.yul\":4829:4832   */\n      dup3\n        /* \"#utility.yul\":4822:4880   */\n      mstore\n        /* \"#utility.yul\":4739:4886   */\n      pop\n      pop\n      jump\t// out\n        /* \"#utility.yul\":4892:5034   */\n    tag_369:\n        /* \"#utility.yul\":4995:5027   */\n      tag_371\n        /* \"#utility.yul\":5021:5026   */\n      dup2\n        /* \"#utility.yul\":4995:5027   */\n      tag_372\n      jump\t// in\n    tag_371:\n        /* \"#utility.yul\":4990:4993   */\n      dup3\n        /* \"#utility.yul\":4983:5028   */\n      mstore\n        /* \"#utility.yul\":4892:5034   */\n      pop\n      pop\n      jump\t// out\n        /* \"#utility.yul\":5040:5158   */\n    tag_373:\n        /* \"#utility.yul\":5127:5151   */\n      tag_375\n        /* \"#utility.yul\":5145:5150   */\n      dup2\n        /* \"#utility.yul\":5127:5151   */\n      tag_376\n      jump\t// in\n    tag_375:\n        /* \"#utility.yul\":5122:5125   */\n      dup3\n        /* \"#utility.yul\":5115:5152   */\n      mstore\n        /* \"#utility.yul\":5040:5158   */\n      pop\n      pop\n      jump\t// out\n        /* \"#utility.yul\":5164:5273   */\n    tag_377:\n        /* \"#utility.yul\":5245:5266   */\n      tag_379\n        /* \"#utility.yul\":5260:5265   */\n      dup2\n        /* \"#utility.yul\":5245:5266   */\n      tag_380\n      jump\t// in\n    tag_379:\n        /* \"#utility.yul\":5240:5243   */\n      dup3\n        /* \"#utility.yul\":5233:5267   */\n      mstore\n        /* \"#utility.yul\":5164:5273   */\n      pop\n      pop\n      jump\t// out\n        /* \"#utility.yul\":5279:5436   */\n    tag_381:\n        /* \"#utility.yul\":5379:5429   */\n      tag_383\n        /* \"#utility.yul\":5423:5428   */\n      dup2\n        /* \"#utility.yul\":5379:5429   */\n      tag_384\n      jump\t// in\n    tag_383:\n        /* \"#utility.yul\":5374:5377   */\n      dup3\n        /* \"#utility.yul\":5367:5430   */\n      mstore\n        /* \"#utility.yul\":5279:5436   */\n      pop\n      pop\n      jump\t// out\n        /* \"#utility.yul\":5442:5808   */\n    tag_385:\n        /* \"#utility.yul\":5584:5587   */\n      0x00\n        /* \"#utility.yul\":5605:5672   */\n      tag_387\n        /* \"#utility.yul\":5669:5671   */\n      0x24\n        /* \"#utility.yul\":5664:5667   */\n      dup4\n        /* \"#utility.yul\":5605:5672   */\n      tag_388\n      jump\t// in\n    tag_387:\n        /* \"#utility.yul\":5598:5672   */\n      swap2\n      pop\n        /* \"#utility.yul\":5681:5774   */\n      tag_389\n        /* \"#utility.yul\":5770:5773   */\n      dup3\n        /* \"#utility.yul\":5681:5774   */\n      tag_390\n      jump\t// in\n    tag_389:\n        /* \"#utility.yul\":5799:5801   */\n      0x40\n        /* \"#utility.yul\":5794:5797   */\n      dup3\n        /* \"#utility.yul\":5790:5802   */\n      add\n        /* \"#utility.yul\":5783:5802   */\n      swap1\n      pop\n        /* \"#utility.yul\":5442:5808   */\n      swap2\n      swap1\n      pop\n      jump\t// out\n        /* \"#utility.yul\":5814:6180   */\n    tag_391:\n        /* \"#utility.yul\":5956:5959   */\n      0x00\n        /* \"#utility.yul\":5977:6044   */\n      tag_393\n        /* \"#utility.yul\":6041:6043   */\n      0x25\n        /* \"#utility.yul\":6036:6039   */\n      dup4\n        /* \"#utility.yul\":5977:6044   */\n      tag_388\n      jump\t// in\n    tag_393:\n        /* \"#utility.yul\":5970:6044   */\n      swap2\n      pop\n        /* \"#utility.yul\":6053:6146   */\n      tag_394\n        /* \"#utility.yul\":6142:6145   */\n      dup3\n        /* \"#utility.yul\":6053:6146   */\n      tag_395\n      jump\t// in\n    tag_394:\n        /* \"#utility.yul\":6171:6173   */\n      0x40\n        /* \"#utility.yul\":6166:6169   */\n      dup3\n        /* \"#utility.yul\":6162:6174   */\n      add\n        /* \"#utility.yul\":6155:6174   */\n      swap1\n      pop\n        /* \"#utility.yul\":5814:6180   */\n      swap2\n      swap1\n      pop\n      jump\t// out\n        /* \"#utility.yul\":6186:6552   */\n    tag_396:\n        /* \"#utility.yul\":6328:6331   */\n      0x00\n        /* \"#utility.yul\":6349:6416   */\n      tag_398\n        /* \"#utility.yul\":6413:6415   */\n      0x1c\n        /* \"#utility.yul\":6408:6411   */\n      dup4\n        /* \"#utility.yul\":6349:6416   */\n      tag_388\n      jump\t// in\n    tag_398:\n        /* \"#utility.yul\":6342:6416   */\n      swap2\n      pop\n        /* \"#utility.yul\":6425:6518   */\n      tag_399\n        /* \"#utility.yul\":6514:6517   */\n      dup3\n        /* \"#utility.yul\":6425:6518   */\n      tag_400\n      jump\t// in\n    tag_399:\n        /* \"#utility.yul\":6543:6545   */\n      0x20\n        /* \"#utility.yul\":6538:6541   */\n      dup3\n        /* \"#utility.yul\":6534:6546   */\n      add\n        /* \"#utility.yul\":6527:6546   */\n      swap1\n      pop\n        /* \"#utility.yul\":6186:6552   */\n      swap2\n      swap1\n      pop\n      jump\t// out\n        /* \"#utility.yul\":6558:6924   */\n    tag_401:\n        /* \"#utility.yul\":6700:6703   */\n      0x00\n        /* \"#utility.yul\":6721:6788   */\n      tag_403\n        /* \"#utility.yul\":6785:6787   */\n      0x20\n        /* \"#utility.yul\":6780:6783   */\n      dup4\n        /* \"#utility.yul\":6721:6788   */\n      tag_388\n      jump\t// in\n    tag_403:\n        /* \"#utility.yul\":6714:6788   */\n      swap2\n      pop\n        /* \"#utility.yul\":6797:6890   */\n      tag_404\n        /* \"#utility.yul\":6886:6889   */\n      dup3\n        /* \"#utility.yul\":6797:6890   */\n      tag_405\n      jump\t// in\n    tag_404:\n        /* \"#utility.yul\":6915:6917   */\n      0x20\n        /* \"#utility.yul\":6910:6913   */\n      dup3\n        /* \"#utility.yul\":6906:6918   */\n      add\n        /* \"#utility.yul\":6899:6918   */\n      swap1\n      pop\n        /* \"#utility.yul\":6558:6924   */\n      swap2\n      swap1\n      pop\n      jump\t// out\n        /* \"#utility.yul\":6930:7296   */\n    tag_406:\n        /* \"#utility.yul\":7072:7075   */\n      0x00\n        /* \"#utility.yul\":7093:7160   */\n      tag_408\n        /* \"#utility.yul\":7157:7159   */\n      0x2d\n        /* \"#utility.yul\":7152:7155   */\n      dup4\n        /* \"#utility.yul\":7093:7160   */\n      tag_388\n      jump\t// in\n    tag_408:\n        /* \"#utility.yul\":7086:7160   */\n      swap2\n      pop\n        /* \"#utility.yul\":7169:7262   */\n      tag_409\n        /* \"#utility.yul\":7258:7261   */\n      dup3\n        /* \"#utility.yul\":7169:7262   */\n      tag_410\n      jump\t// in\n    tag_409:\n        /* \"#utility.yul\":7287:7289   */\n      0x40\n        /* \"#utility.yul\":7282:7285   */\n      dup3\n        /* \"#utility.yul\":7278:7290   */\n      add\n        /* \"#utility.yul\":7271:7290   */\n      swap1\n      pop\n        /* \"#utility.yul\":6930:7296   */\n      swap2\n      swap1\n      pop\n      jump\t// out\n        /* \"#utility.yul\":7302:7668   */\n    tag_411:\n        /* \"#utility.yul\":7444:7447   */\n      0x00\n        /* \"#utility.yul\":7465:7532   */\n      tag_413\n        /* \"#utility.yul\":7529:7531   */\n      0x29\n        /* \"#utility.yul\":7524:7527   */\n      dup4\n        /* \"#utility.yul\":7465:7532   */\n      tag_388\n      jump\t// in\n    tag_413:\n        /* \"#utility.yul\":7458:7532   */\n      swap2\n      pop\n        /* \"#utility.yul\":7541:7634   */\n      tag_414\n        /* \"#utility.yul\":7630:7633   */\n      dup3\n        /* \"#utility.yul\":7541:7634   */\n      tag_415\n      jump\t// in\n    tag_414:\n        /* \"#utility.yul\":7659:7661   */\n      0x40\n        /* \"#utility.yul\":7654:7657   */\n      dup3\n        /* \"#utility.yul\":7650:7662   */\n      add\n        /* \"#utility.yul\":7643:7662   */\n      swap1\n      pop\n        /* \"#utility.yul\":7302:7668   */\n      swap2\n      swap1\n      pop\n      jump\t// out\n        /* \"#utility.yul\":7674:8040   */\n    tag_416:\n        /* \"#utility.yul\":7816:7819   */\n      0x00\n        /* \"#utility.yul\":7837:7904   */\n      tag_418\n        /* \"#utility.yul\":7901:7903   */\n      0x22\n        /* \"#utility.yul\":7896:7899   */\n      dup4\n        /* \"#utility.yul\":7837:7904   */\n      tag_388\n      jump\t// in\n    tag_418:\n        /* \"#utility.yul\":7830:7904   */\n      swap2\n      pop\n        /* \"#utility.yul\":7913:8006   */\n      tag_419\n        /* \"#utility.yul\":8002:8005   */\n      dup3\n        /* \"#utility.yul\":7913:8006   */\n      tag_420\n      jump\t// in\n    tag_419:\n        /* \"#utility.yul\":8031:8033   */\n      0x40\n        /* \"#utility.yul\":8026:8029   */\n      dup3\n        /* \"#utility.yul\":8022:8034   */\n      add\n        /* \"#utility.yul\":8015:8034   */\n      swap1\n      pop\n        /* \"#utility.yul\":7674:8040   */\n      swap2\n      swap1\n      pop\n      jump\t// out\n        /* \"#utility.yul\":8046:8412   */\n    tag_421:\n        /* \"#utility.yul\":8188:8191   */\n      0x00\n        /* \"#utility.yul\":8209:8276   */\n      tag_423\n        /* \"#utility.yul\":8273:8275   */\n      0x25\n        /* \"#utility.yul\":8268:8271   */\n      dup4\n        /* \"#utility.yul\":8209:8276   */\n      tag_388\n      jump\t// in\n    tag_423:\n        /* \"#utility.yul\":8202:8276   */\n      swap2\n      pop\n        /* \"#utility.yul\":8285:8378   */\n      tag_424\n        /* \"#utility.yul\":8374:8377   */\n      dup3\n        /* \"#utility.yul\":8285:8378   */\n      tag_425\n      jump\t// in\n    tag_424:\n        /* \"#utility.yul\":8403:8405   */\n      0x40\n        /* \"#utility.yul\":8398:8401   */\n      dup3\n        /* \"#utility.yul\":8394:8406   */\n      add\n        /* \"#utility.yul\":8387:8406   */\n      swap1\n      pop\n        /* \"#utility.yul\":8046:8412   */\n      swap2\n      swap1\n      pop\n      jump\t// out\n        /* \"#utility.yul\":8418:8784   */\n    tag_426:\n        /* \"#utility.yul\":8560:8563   */\n      0x00\n        /* \"#utility.yul\":8581:8648   */\n      tag_428\n        /* \"#utility.yul\":8645:8647   */\n      0x21\n        /* \"#utility.yul\":8640:8643   */\n      dup4\n        /* \"#utility.yul\":8581:8648   */\n      tag_388\n      jump\t// in\n    tag_428:\n        /* \"#utility.yul\":8574:8648   */\n      swap2\n      pop\n        /* \"#utility.yul\":8657:8750   */\n      tag_429\n        /* \"#utility.yul\":8746:8749   */\n      dup3\n        /* \"#utility.yul\":8657:8750   */\n      tag_430\n      jump\t// in\n    tag_429:\n        /* \"#utility.yul\":8775:8777   */\n      0x40\n        /* \"#utility.yul\":8770:8773   */\n      dup3\n        /* \"#utility.yul\":8766:8778   */\n      add\n        /* \"#utility.yul\":8759:8778   */\n      swap1\n      pop\n        /* \"#utility.yul\":8418:8784   */\n      swap2\n      swap1\n      pop\n      jump\t// out\n        /* \"#utility.yul\":8790:9156   */\n    tag_431:\n        /* \"#utility.yul\":8932:8935   */\n      0x00\n        /* \"#utility.yul\":8953:9020   */\n      tag_433\n        /* \"#utility.yul\":9017:9019   */\n      0x1f\n        /* \"#utility.yul\":9012:9015   */\n      dup4\n        /* \"#utility.yul\":8953:9020   */\n      tag_388\n      jump\t// in\n    tag_433:\n        /* \"#utility.yul\":8946:9020   */\n      swap2\n      pop\n        /* \"#utility.yul\":9029:9122   */\n      tag_434\n        /* \"#utility.yul\":9118:9121   */\n      dup3\n        /* \"#utility.yul\":9029:9122   */\n      tag_435\n      jump\t// in\n    tag_434:\n        /* \"#utility.yul\":9147:9149   */\n      0x20\n        /* \"#utility.yul\":9142:9145   */\n      dup3\n        /* \"#utility.yul\":9138:9150   */\n      add\n        /* \"#utility.yul\":9131:9150   */\n      swap1\n      pop\n        /* \"#utility.yul\":8790:9156   */\n      swap2\n      swap1\n      pop\n      jump\t// out\n        /* \"#utility.yul\":9162:9528   */\n    tag_436:\n        /* \"#utility.yul\":9304:9307   */\n      0x00\n        /* \"#utility.yul\":9325:9392   */\n      tag_438\n        /* \"#utility.yul\":9389:9391   */\n      0x25\n        /* \"#utility.yul\":9384:9387   */\n      dup4\n        /* \"#utility.yul\":9325:9392   */\n      tag_388\n      jump\t// in\n    tag_438:\n        /* \"#utility.yul\":9318:9392   */\n      swap2\n      pop\n        /* \"#utility.yul\":9401:9494   */\n      tag_439\n        /* \"#utility.yul\":9490:9493   */\n      dup3\n        /* \"#utility.yul\":9401:9494   */\n      tag_440\n      jump\t// in\n    tag_439:\n        /* \"#utility.yul\":9519:9521   */\n      0x40\n        /* \"#utility.yul\":9514:9517   */\n      dup3\n        /* \"#utility.yul\":9510:9522   */\n      add\n        /* \"#utility.yul\":9503:9522   */\n      swap1\n      pop\n        /* \"#utility.yul\":9162:9528   */\n      swap2\n      swap1\n      pop\n      jump\t// out\n        /* \"#utility.yul\":9534:9900   */\n    tag_441:\n        /* \"#utility.yul\":9676:9679   */\n      0x00\n        /* \"#utility.yul\":9697:9764   */\n      tag_443\n        /* \"#utility.yul\":9761:9763   */\n      0x22\n        /* \"#utility.yul\":9756:9759   */\n      dup4\n        /* \"#utility.yul\":9697:9764   */\n      tag_388\n      jump\t// in\n    tag_443:\n        /* \"#utility.yul\":9690:9764   */\n      swap2\n      pop\n        /* \"#utility.yul\":9773:9866   */\n      tag_444\n        /* \"#utility.yul\":9862:9865   */\n      dup3\n        /* \"#utility.yul\":9773:9866   */\n      tag_445\n      jump\t// in\n    tag_444:\n        /* \"#utility.yul\":9891:9893   */\n      0x40\n        /* \"#utility.yul\":9886:9889   */\n      dup3\n        /* \"#utility.yul\":9882:9894   */\n      add\n        /* \"#utility.yul\":9875:9894   */\n      swap1\n      pop\n        /* \"#utility.yul\":9534:9900   */\n      swap2\n      swap1\n      pop\n      jump\t// out\n        /* \"#utility.yul\":9906:10272   */\n    tag_446:\n        /* \"#utility.yul\":10048:10051   */\n      0x00\n        /* \"#utility.yul\":10069:10136   */\n      tag_448\n        /* \"#utility.yul\":10133:10135   */\n      0x20\n        /* \"#utility.yul\":10128:10131   */\n      dup4\n        /* \"#utility.yul\":10069:10136   */\n      tag_388\n      jump\t// in\n    tag_448:\n        /* \"#utility.yul\":10062:10136   */\n      swap2\n      pop\n        /* \"#utility.yul\":10145:10238   */\n      tag_449\n        /* \"#utility.yul\":10234:10237   */\n      dup3\n        /* \"#utility.yul\":10145:10238   */\n      tag_450\n      jump\t// in\n    tag_449:\n        /* \"#utility.yul\":10263:10265   */\n      0x20\n        /* \"#utility.yul\":10258:10261   */\n      dup3\n        /* \"#utility.yul\":10254:10266   */\n      add\n        /* \"#utility.yul\":10247:10266   */\n      swap1\n      pop\n        /* \"#utility.yul\":9906:10272   */\n      swap2\n      swap1\n      pop\n      jump\t// out\n        /* \"#utility.yul\":10278:10644   */\n    tag_451:\n        /* \"#utility.yul\":10420:10423   */\n      0x00\n        /* \"#utility.yul\":10441:10508   */\n      tag_453\n        /* \"#utility.yul\":10505:10507   */\n      0x26\n        /* \"#utility.yul\":10500:10503   */\n      dup4\n        /* \"#utility.yul\":10441:10508   */\n      tag_388\n      jump\t// in\n    tag_453:\n        /* \"#utility.yul\":10434:10508   */\n      swap2\n      pop\n        /* \"#utility.yul\":10517:10610   */\n      tag_454\n        /* \"#utility.yul\":10606:10609   */\n      dup3\n        /* \"#utility.yul\":10517:10610   */\n      tag_455\n      jump\t// in\n    tag_454:\n        /* \"#utility.yul\":10635:10637   */\n      0x40\n        /* \"#utility.yul\":10630:10633   */\n      dup3\n        /* \"#utility.yul\":10626:10638   */\n      add\n        /* \"#utility.yul\":10619:10638   */\n      swap1\n      pop\n        /* \"#utility.yul\":10278:10644   */\n      swap2\n      swap1\n      pop\n      jump\t// out\n        /* \"#utility.yul\":10650:11016   */\n    tag_456:\n        /* \"#utility.yul\":10792:10795   */\n      0x00\n        /* \"#utility.yul\":10813:10880   */\n      tag_458\n        /* \"#utility.yul\":10877:10879   */\n      0x28\n        /* \"#utility.yul\":10872:10875   */\n      dup4\n        /* \"#utility.yul\":10813:10880   */\n      tag_388\n      jump\t// in\n    tag_458:\n        /* \"#utility.yul\":10806:10880   */\n      swap2\n      pop\n        /* \"#utility.yul\":10889:10982   */\n      tag_459\n        /* \"#utility.yul\":10978:10981   */\n      dup3\n        /* \"#utility.yul\":10889:10982   */\n      tag_460\n      jump\t// in\n    tag_459:\n        /* \"#utility.yul\":11007:11009   */\n      0x40\n        /* \"#utility.yul\":11002:11005   */\n      dup3\n        /* \"#utility.yul\":10998:11010   */\n      add\n        /* \"#utility.yul\":10991:11010   */\n      swap1\n      pop\n        /* \"#utility.yul\":10650:11016   */\n      swap2\n      swap1\n      pop\n      jump\t// out\n        /* \"#utility.yul\":11022:11388   */\n    tag_461:\n        /* \"#utility.yul\":11164:11167   */\n      0x00\n        /* \"#utility.yul\":11185:11252   */\n      tag_463\n        /* \"#utility.yul\":11249:11251   */\n      0x13\n        /* \"#utility.yul\":11244:11247   */\n      dup4\n        /* \"#utility.yul\":11185:11252   */\n      tag_388\n      jump\t// in\n    tag_463:\n        /* \"#utility.yul\":11178:11252   */\n      swap2\n      pop\n        /* \"#utility.yul\":11261:11354   */\n      tag_464\n        /* \"#utility.yul\":11350:11353   */\n      dup3\n        /* \"#utility.yul\":11261:11354   */\n      tag_465\n      jump\t// in\n    tag_464:\n        /* \"#utility.yul\":11379:11381   */\n      0x20\n        /* \"#utility.yul\":11374:11377   */\n      dup3\n        /* \"#utility.yul\":11370:11382   */\n      add\n        /* \"#utility.yul\":11363:11382   */\n      swap1\n      pop\n        /* \"#utility.yul\":11022:11388   */\n      swap2\n      swap1\n      pop\n      jump\t// out\n        /* \"#utility.yul\":11394:11512   */\n    tag_466:\n        /* \"#utility.yul\":11481:11505   */\n      tag_468\n        /* \"#utility.yul\":11499:11504   */\n      dup2\n        /* \"#utility.yul\":11481:11505   */\n      tag_469\n      jump\t// in\n    tag_468:\n        /* \"#utility.yul\":11476:11479   */\n      dup3\n        /* \"#utility.yul\":11469:11506   */\n      mstore\n        /* \"#utility.yul\":11394:11512   */\n      pop\n      pop\n      jump\t// out\n        /* \"#utility.yul\":11518:11740   */\n    tag_60:\n        /* \"#utility.yul\":11611:11615   */\n      0x00\n        /* \"#utility.yul\":11649:11651   */\n      0x20\n        /* \"#utility.yul\":11638:11647   */\n      dup3\n        /* \"#utility.yul\":11634:11652   */\n      add\n        /* \"#utility.yul\":11626:11652   */\n      swap1\n      pop\n        /* \"#utility.yul\":11662:11733   */\n      tag_471\n        /* \"#utility.yul\":11730:11731   */\n      0x00\n        /* \"#utility.yul\":11719:11728   */\n      dup4\n        /* \"#utility.yul\":11715:11732   */\n      add\n        /* \"#utility.yul\":11706:11712   */\n      dup5\n        /* \"#utility.yul\":11662:11733   */\n      tag_373\n      jump\t// in\n    tag_471:\n        /* \"#utility.yul\":11518:11740   */\n      swap3\n      swap2\n      pop\n      pop\n      jump\t// out\n        /* \"#utility.yul\":11746:12000   */\n    tag_82:\n        /* \"#utility.yul\":11855:11859   */\n      0x00\n        /* \"#utility.yul\":11893:11895   */\n      0x20\n        /* \"#utility.yul\":11882:11891   */\n      dup3\n        /* \"#utility.yul\":11878:11896   */\n      add\n        /* \"#utility.yul\":11870:11896   */\n      swap1\n      pop\n        /* \"#utility.yul\":11906:11993   */\n      tag_473\n        /* \"#utility.yul\":11990:11991   */\n      0x00\n        /* \"#utility.yul\":11979:11988   */\n      dup4\n        /* \"#utility.yul\":11975:11992   */\n      add\n        /* \"#utility.yul\":11966:11972   */\n      dup5\n        /* \"#utility.yul\":11906:11993   */\n      tag_369\n      jump\t// in\n    tag_473:\n        /* \"#utility.yul\":11746:12000   */\n      swap3\n      swap2\n      pop\n      pop\n      jump\t// out\n        /* \"#utility.yul\":12006:12354   */\n    tag_207:\n        /* \"#utility.yul\":12135:12139   */\n      0x00\n        /* \"#utility.yul\":12173:12175   */\n      0x40\n        /* \"#utility.yul\":12162:12171   */\n      dup3\n        /* \"#utility.yul\":12158:12176   */\n      add\n        /* \"#utility.yul\":12150:12176   */\n      swap1\n      pop\n        /* \"#utility.yul\":12186:12265   */\n      tag_475\n        /* \"#utility.yul\":12262:12263   */\n      0x00\n        /* \"#utility.yul\":12251:12260   */\n      dup4\n        /* \"#utility.yul\":12247:12264   */\n      add\n        /* \"#utility.yul\":12238:12244   */\n      dup6\n        /* \"#utility.yul\":12186:12265   */\n      tag_365\n      jump\t// in\n    tag_475:\n        /* \"#utility.yul\":12275:12347   */\n      tag_476\n        /* \"#utility.yul\":12343:12345   */\n      0x20\n        /* \"#utility.yul\":12332:12341   */\n      dup4\n        /* \"#utility.yul\":12328:12346   */\n      add\n        /* \"#utility.yul\":12319:12325   */\n      dup5\n        /* \"#utility.yul\":12275:12347   */\n      tag_466\n      jump\t// in\n    tag_476:\n        /* \"#utility.yul\":12006:12354   */\n      swap4\n      swap3\n      pop\n      pop\n      pop\n      jump\t// out\n        /* \"#utility.yul\":12360:12570   */\n    tag_40:\n        /* \"#utility.yul\":12447:12451   */\n      0x00\n        /* \"#utility.yul\":12485:12487   */\n      0x20\n        /* \"#utility.yul\":12474:12483   */\n      dup3\n        /* \"#utility.yul\":12470:12488   */\n      add\n        /* \"#utility.yul\":12462:12488   */\n      swap1\n      pop\n        /* \"#utility.yul\":12498:12563   */\n      tag_478\n        /* \"#utility.yul\":12560:12561   */\n      0x00\n        /* \"#utility.yul\":12549:12558   */\n      dup4\n        /* \"#utility.yul\":12545:12562   */\n      add\n        /* \"#utility.yul\":12536:12542   */\n      dup5\n        /* \"#utility.yul\":12498:12563   */\n      tag_377\n      jump\t// in\n    tag_478:\n        /* \"#utility.yul\":12360:12570   */\n      swap3\n      swap2\n      pop\n      pop\n      jump\t// out\n        /* \"#utility.yul\":12576:12824   */\n    tag_119:\n        /* \"#utility.yul\":12682:12686   */\n      0x00\n        /* \"#utility.yul\":12720:12722   */\n      0x20\n        /* \"#utility.yul\":12709:12718   */\n      dup3\n        /* \"#utility.yul\":12705:12723   */\n      add\n        /* \"#utility.yul\":12697:12723   */\n      swap1\n      pop\n        /* \"#utility.yul\":12733:12817   */\n      tag_480\n        /* \"#utility.yul\":12814:12815   */\n      0x00\n        /* \"#utility.yul\":12803:12812   */\n      dup4\n        /* \"#utility.yul\":12799:12816   */\n      add\n        /* \"#utility.yul\":12790:12796   */\n      dup5\n        /* \"#utility.yul\":12733:12817   */\n      tag_381\n      jump\t// in\n    tag_480:\n        /* \"#utility.yul\":12576:12824   */\n      swap3\n      swap2\n      pop\n      pop\n      jump\t// out\n        /* \"#utility.yul\":12830:13249   */\n    tag_152:\n        /* \"#utility.yul\":12996:13000   */\n      0x00\n        /* \"#utility.yul\":13034:13036   */\n      0x20\n        /* \"#utility.yul\":13023:13032   */\n      dup3\n        /* \"#utility.yul\":13019:13037   */\n      add\n        /* \"#utility.yul\":13011:13037   */\n      swap1\n      pop\n        /* \"#utility.yul\":13083:13092   */\n      dup2\n        /* \"#utility.yul\":13077:13081   */\n      dup2\n        /* \"#utility.yul\":13073:13093   */\n      sub\n        /* \"#utility.yul\":13069:13070   */\n      0x00\n        /* \"#utility.yul\":13058:13067   */\n      dup4\n        /* \"#utility.yul\":13054:13071   */\n      add\n        /* \"#utility.yul\":13047:13094   */\n      mstore\n        /* \"#utility.yul\":13111:13242   */\n      tag_482\n        /* \"#utility.yul\":13237:13241   */\n      dup2\n        /* \"#utility.yul\":13111:13242   */\n      tag_385\n      jump\t// in\n    tag_482:\n        /* \"#utility.yul\":13103:13242   */\n      swap1\n      pop\n        /* \"#utility.yul\":12830:13249   */\n      swap2\n      swap1\n      pop\n      jump\t// out\n        /* \"#utility.yul\":13255:13674   */\n    tag_155:\n        /* \"#utility.yul\":13421:13425   */\n      0x00\n        /* \"#utility.yul\":13459:13461   */\n      0x20\n        /* \"#utility.yul\":13448:13457   */\n      dup3\n        /* \"#utility.yul\":13444:13462   */\n      add\n        /* \"#utility.yul\":13436:13462   */\n      swap1\n      pop\n        /* \"#utility.yul\":13508:13517   */\n      dup2\n        /* \"#utility.yul\":13502:13506   */\n      dup2\n        /* \"#utility.yul\":13498:13518   */\n      sub\n        /* \"#utility.yul\":13494:13495   */\n      0x00\n        /* \"#utility.yul\":13483:13492   */\n      dup4\n        /* \"#utility.yul\":13479:13496   */\n      add\n        /* \"#utility.yul\":13472:13519   */\n      mstore\n        /* \"#utility.yul\":13536:13667   */\n      tag_484\n        /* \"#utility.yul\":13662:13666   */\n      dup2\n        /* \"#utility.yul\":13536:13667   */\n      tag_391\n      jump\t// in\n    tag_484:\n        /* \"#utility.yul\":13528:13667   */\n      swap1\n      pop\n        /* \"#utility.yul\":13255:13674   */\n      swap2\n      swap1\n      pop\n      jump\t// out\n        /* \"#utility.yul\":13680:14099   */\n    tag_162:\n        /* \"#utility.yul\":13846:13850   */\n      0x00\n        /* \"#utility.yul\":13884:13886   */\n      0x20\n        /* \"#utility.yul\":13873:13882   */\n      dup3\n        /* \"#utility.yul\":13869:13887   */\n      add\n        /* \"#utility.yul\":13861:13887   */\n      swap1\n      pop\n        /* \"#utility.yul\":13933:13942   */\n      dup2\n        /* \"#utility.yul\":13927:13931   */\n      dup2\n        /* \"#utility.yul\":13923:13943   */\n      sub\n        /* \"#utility.yul\":13919:13920   */\n      0x00\n        /* \"#utility.yul\":13908:13917   */\n      dup4\n        /* \"#utility.yul\":13904:13921   */\n      add\n        /* \"#utility.yul\":13897:13944   */\n      mstore\n        /* \"#utility.yul\":13961:14092   */\n      tag_486\n        /* \"#utility.yul\":14087:14091   */\n      dup2\n        /* \"#utility.yul\":13961:14092   */\n      tag_396\n      jump\t// in\n    tag_486:\n        /* \"#utility.yul\":13953:14092   */\n      swap1\n      pop\n        /* \"#utility.yul\":13680:14099   */\n      swap2\n      swap1\n      pop\n      jump\t// out\n        /* \"#utility.yul\":14105:14524   */\n    tag_221:\n        /* \"#utility.yul\":14271:14275   */\n      0x00\n        /* \"#utility.yul\":14309:14311   */\n      0x20\n        /* \"#utility.yul\":14298:14307   */\n      dup3\n        /* \"#utility.yul\":14294:14312   */\n      add\n        /* \"#utility.yul\":14286:14312   */\n      swap1\n      pop\n        /* \"#utility.yul\":14358:14367   */\n      dup2\n        /* \"#utility.yul\":14352:14356   */\n      dup2\n        /* \"#utility.yul\":14348:14368   */\n      sub\n        /* \"#utility.yul\":14344:14345   */\n      0x00\n        /* \"#utility.yul\":14333:14342   */\n      dup4\n        /* \"#utility.yul\":14329:14346   */\n      add\n        /* \"#utility.yul\":14322:14369   */\n      mstore\n        /* \"#utility.yul\":14386:14517   */\n      tag_488\n        /* \"#utility.yul\":14512:14516   */\n      dup2\n        /* \"#utility.yul\":14386:14517   */\n      tag_401\n      jump\t// in\n    tag_488:\n        /* \"#utility.yul\":14378:14517   */\n      swap1\n      pop\n        /* \"#utility.yul\":14105:14524   */\n      swap2\n      swap1\n      pop\n      jump\t// out\n        /* \"#utility.yul\":14530:14949   */\n    tag_290:\n        /* \"#utility.yul\":14696:14700   */\n      0x00\n        /* \"#utility.yul\":14734:14736   */\n      0x20\n        /* \"#utility.yul\":14723:14732   */\n      dup3\n        /* \"#utility.yul\":14719:14737   */\n      add\n        /* \"#utility.yul\":14711:14737   */\n      swap1\n      pop\n        /* \"#utility.yul\":14783:14792   */\n      dup2\n        /* \"#utility.yul\":14777:14781   */\n      dup2\n        /* \"#utility.yul\":14773:14793   */\n      sub\n        /* \"#utility.yul\":14769:14770   */\n      0x00\n        /* \"#utility.yul\":14758:14767   */\n      dup4\n        /* \"#utility.yul\":14754:14771   */\n      add\n        /* \"#utility.yul\":14747:14794   */\n      mstore\n        /* \"#utility.yul\":14811:14942   */\n      tag_490\n        /* \"#utility.yul\":14937:14941   */\n      dup2\n        /* \"#utility.yul\":14811:14942   */\n      tag_406\n      jump\t// in\n    tag_490:\n        /* \"#utility.yul\":14803:14942   */\n      swap1\n      pop\n        /* \"#utility.yul\":14530:14949   */\n      swap2\n      swap1\n      pop\n      jump\t// out\n        /* \"#utility.yul\":14955:15374   */\n    tag_175:\n        /* \"#utility.yul\":15121:15125   */\n      0x00\n        /* \"#utility.yul\":15159:15161   */\n      0x20\n        /* \"#utility.yul\":15148:15157   */\n      dup3\n        /* \"#utility.yul\":15144:15162   */\n      add\n        /* \"#utility.yul\":15136:15162   */\n      swap1\n      pop\n        /* \"#utility.yul\":15208:15217   */\n      dup2\n        /* \"#utility.yul\":15202:15206   */\n      dup2\n        /* \"#utility.yul\":15198:15218   */\n      sub\n        /* \"#utility.yul\":15194:15195   */\n      0x00\n        /* \"#utility.yul\":15183:15192   */\n      dup4\n        /* \"#utility.yul\":15179:15196   */\n      add\n        /* \"#utility.yul\":15172:15219   */\n      mstore\n        /* \"#utility.yul\":15236:15367   */\n      tag_492\n        /* \"#utility.yul\":15362:15366   */\n      dup2\n        /* \"#utility.yul\":15236:15367   */\n      tag_411\n      jump\t// in\n    tag_492:\n        /* \"#utility.yul\":15228:15367   */\n      swap1\n      pop\n        /* \"#utility.yul\":14955:15374   */\n      swap2\n      swap1\n      pop\n      jump\t// out\n        /* \"#utility.yul\":15380:15799   */\n    tag_239:\n        /* \"#utility.yul\":15546:15550   */\n      0x00\n        /* \"#utility.yul\":15584:15586   */\n      0x20\n        /* \"#utility.yul\":15573:15582   */\n      dup3\n        /* \"#utility.yul\":15569:15587   */\n      add\n        /* \"#utility.yul\":15561:15587   */\n      swap1\n      pop\n        /* \"#utility.yul\":15633:15642   */\n      dup2\n        /* \"#utility.yul\":15627:15631   */\n      dup2\n        /* \"#utility.yul\":15623:15643   */\n      sub\n        /* \"#utility.yul\":15619:15620   */\n      0x00\n        /* \"#utility.yul\":15608:15617   */\n      dup4\n        /* \"#utility.yul\":15604:15621   */\n      add\n        /* \"#utility.yul\":15597:15644   */\n      mstore\n        /* \"#utility.yul\":15661:15792   */\n      tag_494\n        /* \"#utility.yul\":15787:15791   */\n      dup2\n        /* \"#utility.yul\":15661:15792   */\n      tag_416\n      jump\t// in\n    tag_494:\n        /* \"#utility.yul\":15653:15792   */\n      swap1\n      pop\n        /* \"#utility.yul\":15380:15799   */\n      swap2\n      swap1\n      pop\n      jump\t// out\n        /* \"#utility.yul\":15805:16224   */\n    tag_182:\n        /* \"#utility.yul\":15971:15975   */\n      0x00\n        /* \"#utility.yul\":16009:16011   */\n      0x20\n        /* \"#utility.yul\":15998:16007   */\n      dup3\n        /* \"#utility.yul\":15994:16012   */\n      add\n        /* \"#utility.yul\":15986:16012   */\n      swap1\n      pop\n        /* \"#utility.yul\":16058:16067   */\n      dup2\n        /* \"#utility.yul\":16052:16056   */\n      dup2\n        /* \"#utility.yul\":16048:16068   */\n      sub\n        /* \"#utility.yul\":16044:16045   */\n      0x00\n        /* \"#utility.yul\":16033:16042   */\n      dup4\n        /* \"#utility.yul\":16029:16046   */\n      add\n        /* \"#utility.yul\":16022:16069   */\n      mstore\n        /* \"#utility.yul\":16086:16217   */\n      tag_496\n        /* \"#utility.yul\":16212:16216   */\n      dup2\n        /* \"#utility.yul\":16086:16217   */\n      tag_421\n      jump\t// in\n    tag_496:\n        /* \"#utility.yul\":16078:16217   */\n      swap1\n      pop\n        /* \"#utility.yul\":15805:16224   */\n      swap2\n      swap1\n      pop\n      jump\t// out\n        /* \"#utility.yul\":16230:16649   */\n    tag_235:\n        /* \"#utility.yul\":16396:16400   */\n      0x00\n        /* \"#utility.yul\":16434:16436   */\n      0x20\n        /* \"#utility.yul\":16423:16432   */\n      dup3\n        /* \"#utility.yul\":16419:16437   */\n      add\n        /* \"#utility.yul\":16411:16437   */\n      swap1\n      pop\n        /* \"#utility.yul\":16483:16492   */\n      dup2\n        /* \"#utility.yul\":16477:16481   */\n      dup2\n        /* \"#utility.yul\":16473:16493   */\n      sub\n        /* \"#utility.yul\":16469:16470   */\n      0x00\n        /* \"#utility.yul\":16458:16467   */\n      dup4\n        /* \"#utility.yul\":16454:16471   */\n      add\n        /* \"#utility.yul\":16447:16494   */\n      mstore\n        /* \"#utility.yul\":16511:16642   */\n      tag_498\n        /* \"#utility.yul\":16637:16641   */\n      dup2\n        /* \"#utility.yul\":16511:16642   */\n      tag_426\n      jump\t// in\n    tag_498:\n        /* \"#utility.yul\":16503:16642   */\n      swap1\n      pop\n        /* \"#utility.yul\":16230:16649   */\n      swap2\n      swap1\n      pop\n      jump\t// out\n        /* \"#utility.yul\":16655:17074   */\n    tag_245:\n        /* \"#utility.yul\":16821:16825   */\n      0x00\n        /* \"#utility.yul\":16859:16861   */\n      0x20\n        /* \"#utility.yul\":16848:16857   */\n      dup3\n        /* \"#utility.yul\":16844:16862   */\n      add\n        /* \"#utility.yul\":16836:16862   */\n      swap1\n      pop\n        /* \"#utility.yul\":16908:16917   */\n      dup2\n        /* \"#utility.yul\":16902:16906   */\n      dup2\n        /* \"#utility.yul\":16898:16918   */\n      sub\n        /* \"#utility.yul\":16894:16895   */\n      0x00\n        /* \"#utility.yul\":16883:16892   */\n      dup4\n        /* \"#utility.yul\":16879:16896   */\n      add\n        /* \"#utility.yul\":16872:16919   */\n      mstore\n        /* \"#utility.yul\":16936:17067   */\n      tag_500\n        /* \"#utility.yul\":17062:17066   */\n      dup2\n        /* \"#utility.yul\":16936:17067   */\n      tag_431\n      jump\t// in\n    tag_500:\n        /* \"#utility.yul\":16928:17067   */\n      swap1\n      pop\n        /* \"#utility.yul\":16655:17074   */\n      swap2\n      swap1\n      pop\n      jump\t// out\n        /* \"#utility.yul\":17080:17499   */\n    tag_293:\n        /* \"#utility.yul\":17246:17250   */\n      0x00\n        /* \"#utility.yul\":17284:17286   */\n      0x20\n        /* \"#utility.yul\":17273:17282   */\n      dup3\n        /* \"#utility.yul\":17269:17287   */\n      add\n        /* \"#utility.yul\":17261:17287   */\n      swap1\n      pop\n        /* \"#utility.yul\":17333:17342   */\n      dup2\n        /* \"#utility.yul\":17327:17331   */\n      dup2\n        /* \"#utility.yul\":17323:17343   */\n      sub\n        /* \"#utility.yul\":17319:17320   */\n      0x00\n        /* \"#utility.yul\":17308:17317   */\n      dup4\n        /* \"#utility.yul\":17304:17321   */\n      add\n        /* \"#utility.yul\":17297:17344   */\n      mstore\n        /* \"#utility.yul\":17361:17492   */\n      tag_502\n        /* \"#utility.yul\":17487:17491   */\n      dup2\n        /* \"#utility.yul\":17361:17492   */\n      tag_436\n      jump\t// in\n    tag_502:\n        /* \"#utility.yul\":17353:17492   */\n      swap1\n      pop\n        /* \"#utility.yul\":17080:17499   */\n      swap2\n      swap1\n      pop\n      jump\t// out\n        /* \"#utility.yul\":17505:17924   */\n    tag_172:\n        /* \"#utility.yul\":17671:17675   */\n      0x00\n        /* \"#utility.yul\":17709:17711   */\n      0x20\n        /* \"#utility.yul\":17698:17707   */\n      dup3\n        /* \"#utility.yul\":17694:17712   */\n      add\n        /* \"#utility.yul\":17686:17712   */\n      swap1\n      pop\n        /* \"#utility.yul\":17758:17767   */\n      dup2\n        /* \"#utility.yul\":17752:17756   */\n      dup2\n        /* \"#utility.yul\":17748:17768   */\n      sub\n        /* \"#utility.yul\":17744:17745   */\n      0x00\n        /* \"#utility.yul\":17733:17742   */\n      dup4\n        /* \"#utility.yul\":17729:17746   */\n      add\n        /* \"#utility.yul\":17722:17769   */\n      mstore\n        /* \"#utility.yul\":17786:17917   */\n      tag_504\n        /* \"#utility.yul\":17912:17916   */\n      dup2\n        /* \"#utility.yul\":17786:17917   */\n      tag_441\n      jump\t// in\n    tag_504:\n        /* \"#utility.yul\":17778:17917   */\n      swap1\n      pop\n        /* \"#utility.yul\":17505:17924   */\n      swap2\n      swap1\n      pop\n      jump\t// out\n        /* \"#utility.yul\":17930:18349   */\n    tag_232:\n        /* \"#utility.yul\":18096:18100   */\n      0x00\n        /* \"#utility.yul\":18134:18136   */\n      0x20\n        /* \"#utility.yul\":18123:18132   */\n      dup3\n        /* \"#utility.yul\":18119:18137   */\n      add\n        /* \"#utility.yul\":18111:18137   */\n      swap1\n      pop\n        /* \"#utility.yul\":18183:18192   */\n      dup2\n        /* \"#utility.yul\":18177:18181   */\n      dup2\n        /* \"#utility.yul\":18173:18193   */\n      sub\n        /* \"#utility.yul\":18169:18170   */\n      0x00\n        /* \"#utility.yul\":18158:18167   */\n      dup4\n        /* \"#utility.yul\":18154:18171   */\n      add\n        /* \"#utility.yul\":18147:18194   */\n      mstore\n        /* \"#utility.yul\":18211:18342   */\n      tag_506\n        /* \"#utility.yul\":18337:18341   */\n      dup2\n        /* \"#utility.yul\":18211:18342   */\n      tag_446\n      jump\t// in\n    tag_506:\n        /* \"#utility.yul\":18203:18342   */\n      swap1\n      pop\n        /* \"#utility.yul\":17930:18349   */\n      swap2\n      swap1\n      pop\n      jump\t// out\n        /* \"#utility.yul\":18355:18774   */\n    tag_227:\n        /* \"#utility.yul\":18521:18525   */\n      0x00\n        /* \"#utility.yul\":18559:18561   */\n      0x20\n        /* \"#utility.yul\":18548:18557   */\n      dup3\n        /* \"#utility.yul\":18544:18562   */\n      add\n        /* \"#utility.yul\":18536:18562   */\n      swap1\n      pop\n        /* \"#utility.yul\":18608:18617   */\n      dup2\n        /* \"#utility.yul\":18602:18606   */\n      dup2\n        /* \"#utility.yul\":18598:18618   */\n      sub\n        /* \"#utility.yul\":18594:18595   */\n      0x00\n        /* \"#utility.yul\":18583:18592   */\n      dup4\n        /* \"#utility.yul\":18579:18596   */\n      add\n        /* \"#utility.yul\":18572:18619   */\n      mstore\n        /* \"#utility.yul\":18636:18767   */\n      tag_508\n        /* \"#utility.yul\":18762:18766   */\n      dup2\n        /* \"#utility.yul\":18636:18767   */\n      tag_451\n      jump\t// in\n    tag_508:\n        /* \"#utility.yul\":18628:18767   */\n      swap1\n      pop\n        /* \"#utility.yul\":18355:18774   */\n      swap2\n      swap1\n      pop\n      jump\t// out\n        /* \"#utility.yul\":18780:19199   */\n    tag_167:\n        /* \"#utility.yul\":18946:18950   */\n      0x00\n        /* \"#utility.yul\":18984:18986   */\n      0x20\n        /* \"#utility.yul\":18973:18982   */\n      dup3\n        /* \"#utility.yul\":18969:18987   */\n      add\n        /* \"#utility.yul\":18961:18987   */\n      swap1\n      pop\n        /* \"#utility.yul\":19033:19042   */\n      dup2\n        /* \"#utility.yul\":19027:19031   */\n      dup2\n        /* \"#utility.yul\":19023:19043   */\n      sub\n        /* \"#utility.yul\":19019:19020   */\n      0x00\n        /* \"#utility.yul\":19008:19017   */\n      dup4\n        /* \"#utility.yul\":19004:19021   */\n      add\n        /* \"#utility.yul\":18997:19044   */\n      mstore\n        /* \"#utility.yul\":19061:19192   */\n      tag_510\n        /* \"#utility.yul\":19187:19191   */\n      dup2\n        /* \"#utility.yul\":19061:19192   */\n      tag_456\n      jump\t// in\n    tag_510:\n        /* \"#utility.yul\":19053:19192   */\n      swap1\n      pop\n        /* \"#utility.yul\":18780:19199   */\n      swap2\n      swap1\n      pop\n      jump\t// out\n        /* \"#utility.yul\":19205:19624   */\n    tag_179:\n        /* \"#utility.yul\":19371:19375   */\n      0x00\n        /* \"#utility.yul\":19409:19411   */\n      0x20\n        /* \"#utility.yul\":19398:19407   */\n      dup3\n        /* \"#utility.yul\":19394:19412   */\n      add\n        /* \"#utility.yul\":19386:19412   */\n      swap1\n      pop\n        /* \"#utility.yul\":19458:19467   */\n      dup2\n        /* \"#utility.yul\":19452:19456   */\n      dup2\n        /* \"#utility.yul\":19448:19468   */\n      sub\n        /* \"#utility.yul\":19444:19445   */\n      0x00\n        /* \"#utility.yul\":19433:19442   */\n      dup4\n        /* \"#utility.yul\":19429:19446   */\n      add\n        /* \"#utility.yul\":19422:19469   */\n      mstore\n        /* \"#utility.yul\":19486:19617   */\n      tag_512\n        /* \"#utility.yul\":19612:19616   */\n      dup2\n        /* \"#utility.yul\":19486:19617   */\n      tag_461\n      jump\t// in\n    tag_512:\n        /* \"#utility.yul\":19478:19617   */\n      swap1\n      pop\n        /* \"#utility.yul\":19205:19624   */\n      swap2\n      swap1\n      pop\n      jump\t// out\n        /* \"#utility.yul\":19630:19852   */\n    tag_33:\n        /* \"#utility.yul\":19723:19727   */\n      0x00\n        /* \"#utility.yul\":19761:19763   */\n      0x20\n        /* \"#utility.yul\":19750:19759   */\n      dup3\n        /* \"#utility.yul\":19746:19764   */\n      add\n        /* \"#utility.yul\":19738:19764   */\n      swap1\n      pop\n        /* \"#utility.yul\":19774:19845   */\n      tag_514\n        /* \"#utility.yul\":19842:19843   */\n      0x00\n        /* \"#utility.yul\":19831:19840   */\n      dup4\n        /* \"#utility.yul\":19827:19844   */\n      add\n        /* \"#utility.yul\":19818:19824   */\n      dup5\n        /* \"#utility.yul\":19774:19845   */\n      tag_466\n      jump\t// in\n    tag_514:\n        /* \"#utility.yul\":19630:19852   */\n      swap3\n      swap2\n      pop\n      pop\n      jump\t// out\n        /* \"#utility.yul\":19939:20108   */\n    tag_388:\n        /* \"#utility.yul\":20023:20034   */\n      0x00\n        /* \"#utility.yul\":20057:20063   */\n      dup3\n        /* \"#utility.yul\":20052:20055   */\n      dup3\n        /* \"#utility.yul\":20045:20064   */\n      mstore\n        /* \"#utility.yul\":20097:20101   */\n      0x20\n        /* \"#utility.yul\":20092:20095   */\n      dup3\n        /* \"#utility.yul\":20088:20102   */\n      add\n        /* \"#utility.yul\":20073:20102   */\n      swap1\n      pop\n        /* \"#utility.yul\":19939:20108   */\n      swap3\n      swap2\n      pop\n      pop\n      jump\t// out\n        /* \"#utility.yul\":20114:20419   */\n    tag_159:\n        /* \"#utility.yul\":20154:20157   */\n      0x00\n        /* \"#utility.yul\":20173:20193   */\n      tag_519\n        /* \"#utility.yul\":20191:20192   */\n      dup3\n        /* \"#utility.yul\":20173:20193   */\n      tag_469\n      jump\t// in\n    tag_519:\n        /* \"#utility.yul\":20168:20193   */\n      swap2\n      pop\n        /* \"#utility.yul\":20207:20227   */\n      tag_520\n        /* \"#utility.yul\":20225:20226   */\n      dup4\n        /* \"#utility.yul\":20207:20227   */\n      tag_469\n      jump\t// in\n    tag_520:\n        /* \"#utility.yul\":20202:20227   */\n      swap3\n      pop\n        /* \"#utility.yul\":20361:20362   */\n      dup3\n        /* \"#utility.yul\":20293:20359   */\n      0xffffffffffffffffffffffffffffffffffffffffffffffffffffffffffffffff\n        /* \"#utility.yul\":20289:20363   */\n      sub\n        /* \"#utility.yul\":20286:20287   */\n      dup3\n        /* \"#utility.yul\":20283:20364   */\n      gt\n        /* \"#utility.yul\":20280:20387   */\n      iszero\n      tag_521\n      jumpi\n        /* \"#utility.yul\":20367:20385   */\n      tag_522\n      tag_523\n      jump\t// in\n    tag_522:\n        /* \"#utility.yul\":20280:20387   */\n    tag_521:\n        /* \"#utility.yul\":20411:20412   */\n      dup3\n        /* \"#utility.yul\":20408:20409   */\n      dup3\n        /* \"#utility.yul\":20404:20413   */\n      add\n        /* \"#utility.yul\":20397:20413   */\n      swap1\n      pop\n        /* \"#utility.yul\":20114:20419   */\n      swap3\n      swap2\n      pop\n      pop\n      jump\t// out\n        /* \"#utility.yul\":20425:20610   */\n    tag_299:\n        /* \"#utility.yul\":20465:20466   */\n      0x00\n        /* \"#utility.yul\":20482:20502   */\n      tag_525\n        /* \"#utility.yul\":20500:20501   */\n      dup3\n        /* \"#utility.yul\":20482:20502   */\n      tag_469\n      jump\t// in\n    tag_525:\n        /* \"#utility.yul\":20477:20502   */\n      swap2\n      pop\n        /* \"#utility.yul\":20516:20536   */\n      tag_526\n        /* \"#utility.yul\":20534:20535   */\n      dup4\n        /* \"#utility.yul\":20516:20536   */\n      tag_469\n      jump\t// in\n    tag_526:\n        /* \"#utility.yul\":20511:20536   */\n      swap3\n      pop\n        /* \"#utility.yul\":20555:20556   */\n      dup3\n        /* \"#utility.yul\":20545:20580   */\n      tag_527\n      jumpi\n        /* \"#utility.yul\":20560:20578   */\n      tag_528\n      tag_529\n      jump\t// in\n    tag_528:\n        /* \"#utility.yul\":20545:20580   */\n    tag_527:\n        /* \"#utility.yul\":20602:20603   */\n      dup3\n        /* \"#utility.yul\":20599:20600   */\n      dup3\n        /* \"#utility.yul\":20595:20604   */\n      div\n        /* \"#utility.yul\":20590:20604   */\n      swap1\n      pop\n        /* \"#utility.yul\":20425:20610   */\n      swap3\n      swap2\n      pop\n      pop\n      jump\t// out\n        /* \"#utility.yul\":20616:20964   */\n    tag_157:\n        /* \"#utility.yul\":20656:20663   */\n      0x00\n        /* \"#utility.yul\":20679:20699   */\n      tag_531\n        /* \"#utility.yul\":20697:20698   */\n      dup3\n        /* \"#utility.yul\":20679:20699   */\n      tag_469\n      jump\t// in\n    tag_531:\n        /* \"#utility.yul\":20674:20699   */\n      swap2\n      pop\n        /* \"#utility.yul\":20713:20733   */\n      tag_532\n        /* \"#utility.yul\":20731:20732   */\n      dup4\n        /* \"#utility.yul\":20713:20733   */\n      tag_469\n      jump\t// in\n    tag_532:\n        /* \"#utility.yul\":20708:20733   */\n      swap3\n      pop\n        /* \"#utility.yul\":20901:20902   */\n      dup2\n        /* \"#utility.yul\":20833:20899   */\n      0xffffffffffffffffffffffffffffffffffffffffffffffffffffffffffffffff\n        /* \"#utility.yul\":20829:20903   */\n      div\n        /* \"#utility.yul\":20826:20827   */\n      dup4\n        /* \"#utility.yul\":20823:20904   */\n      gt\n        /* \"#utility.yul\":20818:20819   */\n      dup3\n        /* \"#utility.yul\":20811:20820   */\n      iszero\n        /* \"#utility.yul\":20804:20821   */\n      iszero\n        /* \"#utility.yul\":20800:20905   */\n      and\n        /* \"#utility.yul\":20797:20928   */\n      iszero\n      tag_533\n      jumpi\n        /* \"#utility.yul\":20908:20926   */\n      tag_534\n      tag_523\n      jump\t// in\n    tag_534:\n        /* \"#utility.yul\":20797:20928   */\n    tag_533:\n        /* \"#utility.yul\":20956:20957   */\n      dup3\n        /* \"#utility.yul\":20953:20954   */\n      dup3\n        /* \"#utility.yul\":20949:20958   */\n      mul\n        /* \"#utility.yul\":20938:20958   */\n      swap1\n      pop\n        /* \"#utility.yul\":20616:20964   */\n      swap3\n      swap2\n      pop\n      pop\n      jump\t// out\n        /* \"#utility.yul\":20970:21161   */\n    tag_302:\n        /* \"#utility.yul\":21010:21014   */\n      0x00\n        /* \"#utility.yul\":21030:21050   */\n      tag_536\n        /* \"#utility.yul\":21048:21049   */\n      dup3\n        /* \"#utility.yul\":21030:21050   */\n      tag_469\n      jump\t// in\n    tag_536:\n        /* \"#utility.yul\":21025:21050   */\n      swap2\n      pop\n        /* \"#utility.yul\":21064:21084   */\n      tag_537\n        /* \"#utility.yul\":21082:21083   */\n      dup4\n        /* \"#utility.yul\":21064:21084   */\n      tag_469\n      jump\t// in\n    tag_537:\n        /* \"#utility.yul\":21059:21084   */\n      swap3\n      pop\n        /* \"#utility.yul\":21103:21104   */\n      dup3\n        /* \"#utility.yul\":21100:21101   */\n      dup3\n        /* \"#utility.yul\":21097:21105   */\n      lt\n        /* \"#utility.yul\":21094:21128   */\n      iszero\n      tag_538\n      jumpi\n        /* \"#utility.yul\":21108:21126   */\n      tag_539\n      tag_523\n      jump\t// in\n    tag_539:\n        /* \"#utility.yul\":21094:21128   */\n    tag_538:\n        /* \"#utility.yul\":21153:21154   */\n      dup3\n        /* \"#utility.yul\":21150:21151   */\n      dup3\n        /* \"#utility.yul\":21146:21155   */\n      sub\n        /* \"#utility.yul\":21138:21155   */\n      swap1\n      pop\n        /* \"#utility.yul\":20970:21161   */\n      swap3\n      swap2\n      pop\n      pop\n      jump\t// out\n        /* \"#utility.yul\":21167:21263   */\n    tag_376:\n        /* \"#utility.yul\":21204:21211   */\n      0x00\n        /* \"#utility.yul\":21233:21257   */\n      tag_541\n        /* \"#utility.yul\":21251:21256   */\n      dup3\n        /* \"#utility.yul\":21233:21257   */\n      tag_542\n      jump\t// in\n    tag_541:\n        /* \"#utility.yul\":21222:21257   */\n      swap1\n      pop\n        /* \"#utility.yul\":21167:21263   */\n      swap2\n      swap1\n      pop\n      jump\t// out\n        /* \"#utility.yul\":21269:21373   */\n    tag_372:\n        /* \"#utility.yul\":21314:21321   */\n      0x00\n        /* \"#utility.yul\":21343:21367   */\n      tag_544\n        /* \"#utility.yul\":21361:21366   */\n      dup3\n        /* \"#utility.yul\":21343:21367   */\n      tag_542\n      jump\t// in\n    tag_544:\n        /* \"#utility.yul\":21332:21367   */\n      swap1\n      pop\n        /* \"#utility.yul\":21269:21373   */\n      swap2\n      swap1\n      pop\n      jump\t// out\n        /* \"#utility.yul\":21379:21469   */\n    tag_380:\n        /* \"#utility.yul\":21413:21420   */\n      0x00\n        /* \"#utility.yul\":21456:21461   */\n      dup2\n        /* \"#utility.yul\":21449:21462   */\n      iszero\n        /* \"#utility.yul\":21442:21463   */\n      iszero\n        /* \"#utility.yul\":21431:21463   */\n      swap1\n      pop\n        /* \"#utility.yul\":21379:21469   */\n      swap2\n      swap1\n      pop\n      jump\t// out\n        /* \"#utility.yul\":21475:21601   */\n    tag_542:\n        /* \"#utility.yul\":21512:21519   */\n      0x00\n        /* \"#utility.yul\":21552:21594   */\n      0xffffffffffffffffffffffffffffffffffffffff\n        /* \"#utility.yul\":21545:21550   */\n      dup3\n        /* \"#utility.yul\":21541:21595   */\n      and\n        /* \"#utility.yul\":21530:21595   */\n      swap1\n      pop\n        /* \"#utility.yul\":21475:21601   */\n      swap2\n      swap1\n      pop\n      jump\t// out\n        /* \"#utility.yul\":21607:21684   */\n    tag_469:\n        /* \"#utility.yul\":21644:21651   */\n      0x00\n        /* \"#utility.yul\":21673:21678   */\n      dup2\n        /* \"#utility.yul\":21662:21678   */\n      swap1\n      pop\n        /* \"#utility.yul\":21607:21684   */\n      swap2\n      swap1\n      pop\n      jump\t// out\n        /* \"#utility.yul\":21690:21824   */\n    tag_368:\n        /* \"#utility.yul\":21748:21757   */\n      0x00\n        /* \"#utility.yul\":21781:21818   */\n      tag_549\n        /* \"#utility.yul\":21812:21817   */\n      dup3\n        /* \"#utility.yul\":21781:21818   */\n      tag_550\n      jump\t// in\n    tag_549:\n        /* \"#utility.yul\":21768:21818   */\n      swap1\n      pop\n        /* \"#utility.yul\":21690:21824   */\n      swap2\n      swap1\n      pop\n      jump\t// out\n        /* \"#utility.yul\":21830:21969   */\n    tag_384:\n        /* \"#utility.yul\":21893:21902   */\n      0x00\n        /* \"#utility.yul\":21926:21963   */\n      tag_552\n        /* \"#utility.yul\":21957:21962   */\n      dup3\n        /* \"#utility.yul\":21926:21963   */\n      tag_550\n      jump\t// in\n    tag_552:\n        /* \"#utility.yul\":21913:21963   */\n      swap1\n      pop\n        /* \"#utility.yul\":21830:21969   */\n      swap2\n      swap1\n      pop\n      jump\t// out\n        /* \"#utility.yul\":21975:22101   */\n    tag_550:\n        /* \"#utility.yul\":22025:22034   */\n      0x00\n        /* \"#utility.yul\":22058:22095   */\n      tag_554\n        /* \"#utility.yul\":22089:22094   */\n      dup3\n        /* \"#utility.yul\":22058:22095   */\n      tag_555\n      jump\t// in\n    tag_554:\n        /* \"#utility.yul\":22045:22095   */\n      swap1\n      pop\n        /* \"#utility.yul\":21975:22101   */\n      swap2\n      swap1\n      pop\n      jump\t// out\n        /* \"#utility.yul\":22107:22220   */\n    tag_555:\n        /* \"#utility.yul\":22157:22166   */\n      0x00\n        /* \"#utility.yul\":22190:22214   */\n      tag_557\n        /* \"#utility.yul\":22208:22213   */\n      dup3\n        /* \"#utility.yul\":22190:22214   */\n      tag_542\n      jump\t// in\n    tag_557:\n        /* \"#utility.yul\":22177:22214   */\n      swap1\n      pop\n        /* \"#utility.yul\":22107:22220   */\n      swap2\n      swap1\n      pop\n      jump\t// out\n        /* \"#utility.yul\":22226:22406   */\n    tag_523:\n        /* \"#utility.yul\":22274:22351   */\n      0x4e487b7100000000000000000000000000000000000000000000000000000000\n        /* \"#utility.yul\":22271:22272   */\n      0x00\n        /* \"#utility.yul\":22264:22352   */\n      mstore\n        /* \"#utility.yul\":22371:22375   */\n      0x11\n        /* \"#utility.yul\":22368:22369   */\n      0x04\n        /* \"#utility.yul\":22361:22376   */\n      mstore\n        /* \"#utility.yul\":22395:22399   */\n      0x24\n        /* \"#utility.yul\":22392:22393   */\n      0x00\n        /* \"#utility.yul\":22385:22400   */\n      revert\n        /* \"#utility.yul\":22412:22592   */\n    tag_529:\n        /* \"#utility.yul\":22460:22537   */\n      0x4e487b7100000000000000000000000000000000000000000000000000000000\n        /* \"#utility.yul\":22457:22458   */\n      0x00\n        /* \"#utility.yul\":22450:22538   */\n      mstore\n        /* \"#utility.yul\":22557:22561   */\n      0x12\n        /* \"#utility.yul\":22554:22555   */\n      0x04\n        /* \"#utility.yul\":22547:22562   */\n      mstore\n        /* \"#utility.yul\":22581:22585   */\n      0x24\n        /* \"#utility.yul\":22578:22579   */\n      0x00\n        /* \"#utility.yul\":22571:22586   */\n      revert\n        /* \"#utility.yul\":22721:22838   */\n    tag_329:\n        /* \"#utility.yul\":22830:22831   */\n      0x00\n        /* \"#utility.yul\":22827:22828   */\n      dup1\n        /* \"#utility.yul\":22820:22832   */\n      revert\n        /* \"#utility.yul\":22844:23067   */\n    tag_390:\n        /* \"#utility.yul\":22984:23018   */\n      0x4f6e6c792074686520686569722063616e20636c61696d20746865206163636f\n        /* \"#utility.yul\":22980:22981   */\n      0x00\n        /* \"#utility.yul\":22972:22978   */\n      dup3\n        /* \"#utility.yul\":22968:22982   */\n      add\n        /* \"#utility.yul\":22961:23019   */\n      mstore\n        /* \"#utility.yul\":23053:23059   */\n      0x756e742e00000000000000000000000000000000000000000000000000000000\n        /* \"#utility.yul\":23048:23050   */\n      0x20\n        /* \"#utility.yul\":23040:23046   */\n      dup3\n        /* \"#utility.yul\":23036:23051   */\n      add\n        /* \"#utility.yul\":23029:23060   */\n      mstore\n        /* \"#utility.yul\":22844:23067   */\n      pop\n      jump\t// out\n        /* \"#utility.yul\":23073:23297   */\n    tag_395:\n        /* \"#utility.yul\":23213:23247   */\n      0x436c61696d2070726f6365737320686173206e6f74206265656e20696e697469\n        /* \"#utility.yul\":23209:23210   */\n      0x00\n        /* \"#utility.yul\":23201:23207   */\n      dup3\n        /* \"#utility.yul\":23197:23211   */\n      add\n        /* \"#utility.yul\":23190:23248   */\n      mstore\n        /* \"#utility.yul\":23282:23289   */\n      0x617465642e000000000000000000000000000000000000000000000000000000\n        /* \"#utility.yul\":23277:23279   */\n      0x20\n        /* \"#utility.yul\":23269:23275   */\n      dup3\n        /* \"#utility.yul\":23265:23280   */\n      add\n        /* \"#utility.yul\":23258:23290   */\n      mstore\n        /* \"#utility.yul\":23073:23297   */\n      pop\n      jump\t// out\n        /* \"#utility.yul\":23303:23481   */\n    tag_400:\n        /* \"#utility.yul\":23443:23473   */\n      0x436c61696d2064656c617920686173206e6f7420657870697265642e00000000\n        /* \"#utility.yul\":23439:23440   */\n      0x00\n        /* \"#utility.yul\":23431:23437   */\n      dup3\n        /* \"#utility.yul\":23427:23441   */\n      add\n        /* \"#utility.yul\":23420:23474   */\n      mstore\n        /* \"#utility.yul\":23303:23481   */\n      pop\n      jump\t// out\n        /* \"#utility.yul\":23487:23669   */\n    tag_405:\n        /* \"#utility.yul\":23627:23661   */\n      0x4f6e6c7920746865206f776e65722063616e207365742074686520686569722e\n        /* \"#utility.yul\":23623:23624   */\n      0x00\n        /* \"#utility.yul\":23615:23621   */\n      dup3\n        /* \"#utility.yul\":23611:23625   */\n      add\n        /* \"#utility.yul\":23604:23662   */\n      mstore\n        /* \"#utility.yul\":23487:23669   */\n      pop\n      jump\t// out\n        /* \"#utility.yul\":23675:23907   */\n    tag_410:\n        /* \"#utility.yul\":23815:23849   */\n      0x4f6e6c792074686520686569722063616e20696e697469617465207468652063\n        /* \"#utility.yul\":23811:23812   */\n      0x00\n        /* \"#utility.yul\":23803:23809   */\n      dup3\n        /* \"#utility.yul\":23799:23813   */\n      add\n        /* \"#utility.yul\":23792:23850   */\n      mstore\n        /* \"#utility.yul\":23884:23899   */\n      0x6c61696d2070726f636573732e00000000000000000000000000000000000000\n        /* \"#utility.yul\":23879:23881   */\n      0x20\n        /* \"#utility.yul\":23871:23877   */\n      dup3\n        /* \"#utility.yul\":23867:23882   */\n      add\n        /* \"#utility.yul\":23860:23900   */\n      mstore\n        /* \"#utility.yul\":23675:23907   */\n      pop\n      jump\t// out\n        /* \"#utility.yul\":23913:24141   */\n    tag_415:\n        /* \"#utility.yul\":24053:24087   */\n      0x4163636f756e742069732066726f7a656e2c2063616e6e6f7420776974686472\n        /* \"#utility.yul\":24049:24050   */\n      0x00\n        /* \"#utility.yul\":24041:24047   */\n      dup3\n        /* \"#utility.yul\":24037:24051   */\n      add\n        /* \"#utility.yul\":24030:24088   */\n      mstore\n        /* \"#utility.yul\":24122:24133   */\n      0x61772066756e64732e0000000000000000000000000000000000000000000000\n        /* \"#utility.yul\":24117:24119   */\n      0x20\n        /* \"#utility.yul\":24109:24115   */\n      dup3\n        /* \"#utility.yul\":24105:24120   */\n      add\n        /* \"#utility.yul\":24098:24134   */\n      mstore\n        /* \"#utility.yul\":23913:24141   */\n      pop\n      jump\t// out\n        /* \"#utility.yul\":24147:24368   */\n    tag_420:\n        /* \"#utility.yul\":24287:24321   */\n      0x4f6e6c7920746865206f776e65722063616e2077697468647261772066756e64\n        /* \"#utility.yul\":24283:24284   */\n      0x00\n        /* \"#utility.yul\":24275:24281   */\n      dup3\n        /* \"#utility.yul\":24271:24285   */\n      add\n        /* \"#utility.yul\":24264:24322   */\n      mstore\n        /* \"#utility.yul\":24356:24360   */\n      0x732e000000000000000000000000000000000000000000000000000000000000\n        /* \"#utility.yul\":24351:24353   */\n      0x20\n        /* \"#utility.yul\":24343:24349   */\n      dup3\n        /* \"#utility.yul\":24339:24354   */\n      add\n        /* \"#utility.yul\":24332:24361   */\n      mstore\n        /* \"#utility.yul\":24147:24368   */\n      pop\n      jump\t// out\n        /* \"#utility.yul\":24374:24598   */\n    tag_425:\n        /* \"#utility.yul\":24514:24548   */\n      0x5468652066756e6374696f6e20697320616c726561647920696e206578656375\n        /* \"#utility.yul\":24510:24511   */\n      0x00\n        /* \"#utility.yul\":24502:24508   */\n      dup3\n        /* \"#utility.yul\":24498:24512   */\n      add\n        /* \"#utility.yul\":24491:24549   */\n      mstore\n        /* \"#utility.yul\":24583:24590   */\n      0x74696f6e2e000000000000000000000000000000000000000000000000000000\n        /* \"#utility.yul\":24578:24580   */\n      0x20\n        /* \"#utility.yul\":24570:24576   */\n      dup3\n        /* \"#utility.yul\":24566:24581   */\n      add\n        /* \"#utility.yul\":24559:24591   */\n      mstore\n        /* \"#utility.yul\":24374:24598   */\n      pop\n      jump\t// out\n        /* \"#utility.yul\":24604:24824   */\n    tag_430:\n        /* \"#utility.yul\":24744:24778   */\n      0x5468657265206973206e6f2061637469766520636c61696d20746f2073746f70\n        /* \"#utility.yul\":24740:24741   */\n      0x00\n        /* \"#utility.yul\":24732:24738   */\n      dup3\n        /* \"#utility.yul\":24728:24742   */\n      add\n        /* \"#utility.yul\":24721:24779   */\n      mstore\n        /* \"#utility.yul\":24813:24816   */\n      0x2e00000000000000000000000000000000000000000000000000000000000000\n        /* \"#utility.yul\":24808:24810   */\n      0x20\n        /* \"#utility.yul\":24800:24806   */\n      dup3\n        /* \"#utility.yul\":24796:24811   */\n      add\n        /* \"#utility.yul\":24789:24817   */\n      mstore\n        /* \"#utility.yul\":24604:24824   */\n      pop\n      jump\t// out\n        /* \"#utility.yul\":24830:25011   */\n    tag_435:\n        /* \"#utility.yul\":24970:25003   */\n      0x546865726520617265206e6f2066756e647320746f2077697468647261772e00\n        /* \"#utility.yul\":24966:24967   */\n      0x00\n        /* \"#utility.yul\":24958:24964   */\n      dup3\n        /* \"#utility.yul\":24954:24968   */\n      add\n        /* \"#utility.yul\":24947:25004   */\n      mstore\n        /* \"#utility.yul\":24830:25011   */\n      pop\n      jump\t// out\n        /* \"#utility.yul\":25017:25241   */\n    tag_440:\n        /* \"#utility.yul\":25157:25191   */\n      0x436c61696d2070726f6365737320697320616c726561647920696e2070726f67\n        /* \"#utility.yul\":25153:25154   */\n      0x00\n        /* \"#utility.yul\":25145:25151   */\n      dup3\n        /* \"#utility.yul\":25141:25155   */\n      add\n        /* \"#utility.yul\":25134:25192   */\n      mstore\n        /* \"#utility.yul\":25226:25233   */\n      0x726573732e000000000000000000000000000000000000000000000000000000\n        /* \"#utility.yul\":25221:25223   */\n      0x20\n        /* \"#utility.yul\":25213:25219   */\n      dup3\n        /* \"#utility.yul\":25209:25224   */\n      add\n        /* \"#utility.yul\":25202:25234   */\n      mstore\n        /* \"#utility.yul\":25017:25241   */\n      pop\n      jump\t// out\n        /* \"#utility.yul\":25247:25468   */\n    tag_445:\n        /* \"#utility.yul\":25387:25421   */\n      0x4f6e6c7920746865206f776e65722063616e207472616e736665722066756e64\n        /* \"#utility.yul\":25383:25384   */\n      0x00\n        /* \"#utility.yul\":25375:25381   */\n      dup3\n        /* \"#utility.yul\":25371:25385   */\n      add\n        /* \"#utility.yul\":25364:25422   */\n      mstore\n        /* \"#utility.yul\":25456:25460   */\n      0x732e000000000000000000000000000000000000000000000000000000000000\n        /* \"#utility.yul\":25451:25453   */\n      0x20\n        /* \"#utility.yul\":25443:25449   */\n      dup3\n        /* \"#utility.yul\":25439:25454   */\n      add\n        /* \"#utility.yul\":25432:25461   */\n      mstore\n        /* \"#utility.yul\":25247:25468   */\n      pop\n      jump\t// out\n        /* \"#utility.yul\":25474:25656   */\n    tag_450:\n        /* \"#utility.yul\":25614:25648   */\n      0x4f6e6c7920746865206f776e65722063616e2073746f70206120636c61696d2e\n        /* \"#utility.yul\":25610:25611   */\n      0x00\n        /* \"#utility.yul\":25602:25608   */\n      dup3\n        /* \"#utility.yul\":25598:25612   */\n      add\n        /* \"#utility.yul\":25591:25649   */\n      mstore\n        /* \"#utility.yul\":25474:25656   */\n      pop\n      jump\t// out\n        /* \"#utility.yul\":25662:25887   */\n    tag_455:\n        /* \"#utility.yul\":25802:25836   */\n      0x4f6e6c7920746865206f776e65722063616e20667265657a6520746865206163\n        /* \"#utility.yul\":25798:25799   */\n      0x00\n        /* \"#utility.yul\":25790:25796   */\n      dup3\n        /* \"#utility.yul\":25786:25800   */\n      add\n        /* \"#utility.yul\":25779:25837   */\n      mstore\n        /* \"#utility.yul\":25871:25879   */\n      0x636f756e742e0000000000000000000000000000000000000000000000000000\n        /* \"#utility.yul\":25866:25868   */\n      0x20\n        /* \"#utility.yul\":25858:25864   */\n      dup3\n        /* \"#utility.yul\":25854:25869   */\n      add\n        /* \"#utility.yul\":25847:25880   */\n      mstore\n        /* \"#utility.yul\":25662:25887   */\n      pop\n      jump\t// out\n        /* \"#utility.yul\":25893:26120   */\n    tag_460:\n        /* \"#utility.yul\":26033:26067   */\n      0x4f6e6c7920746865206f776e65722063616e20756e667265657a652074686520\n        /* \"#utility.yul\":26029:26030   */\n      0x00\n        /* \"#utility.yul\":26021:26027   */\n      dup3\n        /* \"#utility.yul\":26017:26031   */\n      add\n        /* \"#utility.yul\":26010:26068   */\n      mstore\n        /* \"#utility.yul\":26102:26112   */\n      0x6163636f756e742e000000000000000000000000000000000000000000000000\n        /* \"#utility.yul\":26097:26099   */\n      0x20\n        /* \"#utility.yul\":26089:26095   */\n      dup3\n        /* \"#utility.yul\":26085:26100   */\n      add\n        /* \"#utility.yul\":26078:26113   */\n      mstore\n        /* \"#utility.yul\":25893:26120   */\n      pop\n      jump\t// out\n        /* \"#utility.yul\":26126:26295   */\n    tag_465:\n        /* \"#utility.yul\":26266:26287   */\n      0x496e73756666696369656e742066756e64732e00000000000000000000000000\n        /* \"#utility.yul\":26262:26263   */\n      0x00\n        /* \"#utility.yul\":26254:26260   */\n      dup3\n        /* \"#utility.yul\":26250:26264   */\n      add\n        /* \"#utility.yul\":26243:26288   */\n      mstore\n        /* \"#utility.yul\":26126:26295   */\n      pop\n      jump\t// out\n        /* \"#utility.yul\":26301:26423   */\n    tag_307:\n        /* \"#utility.yul\":26374:26398   */\n      tag_580\n        /* \"#utility.yul\":26392:26397   */\n      dup2\n        /* \"#utility.yul\":26374:26398   */\n      tag_376\n      jump\t// in\n    tag_580:\n        /* \"#utility.yul\":26367:26372   */\n      dup2\n        /* \"#utility.yul\":26364:26399   */\n      eq\n        /* \"#utility.yul\":26354:26417   */\n      tag_581\n      jumpi\n        /* \"#utility.yul\":26413:26414   */\n      0x00\n        /* \"#utility.yul\":26410:26411   */\n      dup1\n        /* \"#utility.yul\":26403:26415   */\n      revert\n        /* \"#utility.yul\":26354:26417   */\n    tag_581:\n        /* \"#utility.yul\":26301:26423   */\n      pop\n      jump\t// out\n        /* \"#utility.yul\":26429:26567   */\n    tag_311:\n        /* \"#utility.yul\":26510:26542   */\n      tag_583\n        /* \"#utility.yul\":26536:26541   */\n      dup2\n        /* \"#utility.yul\":26510:26542   */\n      tag_372\n      jump\t// in\n    tag_583:\n        /* \"#utility.yul\":26503:26508   */\n      dup2\n        /* \"#utility.yul\":26500:26543   */\n      eq\n        /* \"#utility.yul\":26490:26561   */\n      tag_584\n      jumpi\n        /* \"#utility.yul\":26557:26558   */\n      0x00\n        /* \"#utility.yul\":26554:26555   */\n      dup1\n        /* \"#utility.yul\":26547:26559   */\n      revert\n        /* \"#utility.yul\":26490:26561   */\n    tag_584:\n        /* \"#utility.yul\":26429:26567   */\n      pop\n      jump\t// out\n        /* \"#utility.yul\":26573:26689   */\n    tag_315:\n        /* \"#utility.yul\":26643:26664   */\n      tag_586\n        /* \"#utility.yul\":26658:26663   */\n      dup2\n        /* \"#utility.yul\":26643:26664   */\n      tag_380\n      jump\t// in\n    tag_586:\n        /* \"#utility.yul\":26636:26641   */\n      dup2\n        /* \"#utility.yul\":26633:26665   */\n      eq\n        /* \"#utility.yul\":26623:26683   */\n      tag_587\n      jumpi\n        /* \"#utility.yul\":26679:26680   */\n      0x00\n        /* \"#utility.yul\":26676:26677   */\n      dup1\n        /* \"#utility.yul\":26669:26681   */\n      revert\n        /* \"#utility.yul\":26623:26683   */\n    tag_587:\n        /* \"#utility.yul\":26573:26689   */\n      pop\n      jump\t// out\n        /* \"#utility.yul\":26695:26817   */\n    tag_322:\n        /* \"#utility.yul\":26768:26792   */\n      tag_589\n        /* \"#utility.yul\":26786:26791   */\n      dup2\n        /* \"#utility.yul\":26768:26792   */\n      tag_469\n      jump\t// in\n    tag_589:\n        /* \"#utility.yul\":26761:26766   */\n      dup2\n        /* \"#utility.yul\":26758:26793   */\n      eq\n        /* \"#utility.yul\":26748:26811   */\n      tag_590\n      jumpi\n        /* \"#utility.yul\":26807:26808   */\n      0x00\n        /* \"#utility.yul\":26804:26805   */\n      dup1\n        /* \"#utility.yul\":26797:26809   */\n      revert\n        /* \"#utility.yul\":26748:26811   */\n    tag_590:\n        /* \"#utility.yul\":26695:26817   */\n      pop\n      jump\t// out\n\n    auxdata: 0xa26469706673582212200a554babda25d2cc000dfdf99d918b19115f0f717609d90610a818fcac51620564736f6c63430008070033\n}\n",
				"bytecode": {
					"linkReferences": {},
					"object": "60806040526000600960146101000a81548160ff0219169083151502179055506000600b60006101000a81548160ff0219169083151502179055503480156200004757600080fd5b5060405162002d5a38038062002d5a83398181016040528101906200006d91906200016d565b82600160006101000a81548173ffffffffffffffffffffffffffffffffffffffff021916908373ffffffffffffffffffffffffffffffffffffffff160217905550826000806101000a81548173ffffffffffffffffffffffffffffffffffffffff021916908373ffffffffffffffffffffffffffffffffffffffff1602179055508060068190555081600760006101000a81548173ffffffffffffffffffffffffffffffffffffffff021916908373ffffffffffffffffffffffffffffffffffffffff16021790555050505062000240565b60008151905062000150816200020c565b92915050565b600081519050620001678162000226565b92915050565b60008060006060848603121562000189576200018862000207565b5b600062000199868287016200013f565b9350506020620001ac868287016200013f565b9250506040620001bf8682870162000156565b9150509250925092565b6000620001d682620001dd565b9050919050565b600073ffffffffffffffffffffffffffffffffffffffff82169050919050565b6000819050919050565b600080fd5b6200021781620001c9565b81146200022357600080fd5b50565b6200023181620001fd565b81146200023d57600080fd5b50565b612b0a80620002506000396000f3fe60806040526004361061014f5760003560e01c806391f2ebb8116100b6578063cc4aa2041161006f578063cc4aa204146104bc578063d5f39488146104e7578063d86e057514610512578063f2b5eea71461052e578063f5c91a0b14610557578063faedd18e14610582576101bb565b806391f2ebb8146103bc57806394a927fe146103e75780639e1a4d1914610412578063a57207701461043d578063b7d1d98e14610468578063c7983e2014610491576101bb565b806356af4f751161010857806356af4f75146102cd5780636c8d5ada146102f85780636e1a7373146103145780637a80760e1461033d5780638d1fdf2f146103685780638da5cb5b14610391576101bb565b8063054f7d9c146101bd5780631903b431146101e85780631c8ec299146102255780631e83409a14610250578063362bb2ac1461027957806345c8b1a6146102a4576101bb565b366101bb573373ffffffffffffffffffffffffffffffffffffffff163073ffffffffffffffffffffffffffffffffffffffff167f5548c837ab068cf56a2c2479df0882a4922fd203edb7517321831d95078c5f62346040516101b19190612400565b60405180910390a3005b005b3480156101c957600080fd5b506101d26105ad565b6040516101df91906121ca565b60405180910390f35b3480156101f457600080fd5b5061020f600480360381019061020a9190611d92565b6105c0565b60405161021c9190612400565b60405180910390f35b34801561023157600080fd5b5061023a610662565b6040516102479190612400565b60405180910390f35b34801561025c57600080fd5b5061027760048036038101906102729190611ce5565b610668565b005b34801561028557600080fd5b5061028e610828565b60405161029b919061216b565b60405180910390f35b3480156102b057600080fd5b506102cb60048036038101906102c69190611ce5565b610851565b005b3480156102d957600080fd5b506102e26108ff565b6040516102ef919061216b565b60405180910390f35b610312600480360381019061030d9190611dd2565b610929565b005b34801561032057600080fd5b5061033b60048036038101906103369190611d12565b610f53565b005b34801561034957600080fd5b506103526110b6565b60405161035f9190612186565b60405180910390f35b34801561037457600080fd5b5061038f600480360381019061038a9190611ce5565b6110dc565b005b34801561039d57600080fd5b506103a661118a565b6040516103b39190612186565b60405180910390f35b3480156103c857600080fd5b506103d16111b0565b6040516103de9190612186565b60405180910390f35b3480156103f357600080fd5b506103fc6111d6565b604051610409919061216b565b60405180910390f35b34801561041e57600080fd5b50610427611200565b6040516104349190612400565b60405180910390f35b34801561044957600080fd5b50610452611206565b60405161045f91906121ca565b60405180910390f35b34801561047457600080fd5b5061048f600480360381019061048a9190611ce5565b611219565b005b34801561049d57600080fd5b506104a6611316565b6040516104b39190612400565b60405180910390f35b3480156104c857600080fd5b506104d161131c565b6040516104de91906121e5565b60405180910390f35b3480156104f357600080fd5b506104fc611342565b604051610509919061216b565b60405180910390f35b61052c60048036038101906105279190611e4d565b611366565b005b34801561053a57600080fd5b5061055560048036038101906105509190611ce5565b611b03565b005b34801561056357600080fd5b5061056c611c08565b6040516105799190612400565b60405180910390f35b34801561058e57600080fd5b50610597611c12565b6040516105a491906121ca565b60405180910390f35b600b60009054906101000a900460ff1681565b600082156105d05747905061065c565b8173ffffffffffffffffffffffffffffffffffffffff166370a08231306040518263ffffffff1660e01b8152600401610609919061216b565b60206040518083038186803b15801561062157600080fd5b505afa158015610635573d6000803e3d6000fd5b505050506040513d601f19601f820116820180604052508101906106599190611eb4565b90505b92915050565b60045481565b8073ffffffffffffffffffffffffffffffffffffffff16600260009054906101000a900473ffffffffffffffffffffffffffffffffffffffff1673ffffffffffffffffffffffffffffffffffffffff16146106f8576040517f08c379a00000000000000000000000000000000000000000000000000000000081526004016106ef90612200565b60405180910390fd5b600260149054906101000a900460ff16610747576040517f08c379a000000000000000000000000000000000000000000000000000000000815260040161073e90612220565b60405180910390fd5b6201518060045461075891906124b3565b600354610765919061242c565b4210156107a7576040517f08c379a000000000000000000000000000000000000000000000000000000000815260040161079e90612240565b60405180910390fd5b600260009054906101000a900473ffffffffffffffffffffffffffffffffffffffff16600160006101000a81548173ffffffffffffffffffffffffffffffffffffffff021916908373ffffffffffffffffffffffffffffffffffffffff1602179055506000600260146101000a81548160ff02191690831515021790555050565b60008060009054906101000a900473ffffffffffffffffffffffffffffffffffffffff16905090565b600160009054906101000a900473ffffffffffffffffffffffffffffffffffffffff1673ffffffffffffffffffffffffffffffffffffffff168173ffffffffffffffffffffffffffffffffffffffff16146108e1576040517f08c379a00000000000000000000000000000000000000000000000000000000081526004016108d8906123c0565b60405180910390fd5b6000600b60006101000a81548160ff02191690831515021790555050565b6000600260009054906101000a900473ffffffffffffffffffffffffffffffffffffffff16905090565b600160009054906101000a900473ffffffffffffffffffffffffffffffffffffffff1673ffffffffffffffffffffffffffffffffffffffff168173ffffffffffffffffffffffffffffffffffffffff16146109b9576040517f08c379a00000000000000000000000000000000000000000000000000000000081526004016109b090612360565b60405180910390fd5b600b60009054906101000a900460ff1615610a09576040517f08c379a0000000000000000000000000000000000000000000000000000000008152600401610a00906122a0565b60405180910390fd5b8415610bd15747831115610a52576040517f08c379a0000000000000000000000000000000000000000000000000000000008152600401610a49906123e0565b60405180910390fd5b600960149054906101000a900460ff1615610aa2576040517f08c379a0000000000000000000000000000000000000000000000000000000008152600401610a99906122e0565b60405180910390fd5b6001600960146101000a81548160ff021916908315150217905550610ae56064610ad760065486611c2590919063ffffffff16565b611c3b90919063ffffffff16565b6005819055508373ffffffffffffffffffffffffffffffffffffffff166108fc610b1a60055486611c5190919063ffffffff16565b9081150290604051600060405180830381858888f19350505050158015610b45573d6000803e3d6000fd5b50600760009054906101000a900473ffffffffffffffffffffffffffffffffffffffff1673ffffffffffffffffffffffffffffffffffffffff166108fc6005549081150290604051600060405180830381858888f19350505050158015610bb0573d6000803e3d6000fd5b506000600960146101000a81548160ff021916908315150217905550610f4c565b81600960006101000a81548173ffffffffffffffffffffffffffffffffffffffff021916908373ffffffffffffffffffffffffffffffffffffffff160217905550600960009054906101000a900473ffffffffffffffffffffffffffffffffffffffff1673ffffffffffffffffffffffffffffffffffffffff166370a08231306040518263ffffffff1660e01b8152600401610c6d919061216b565b60206040518083038186803b158015610c8557600080fd5b505afa158015610c99573d6000803e3d6000fd5b505050506040513d601f19601f82011682018060405250810190610cbd9190611eb4565b831115610cff576040517f08c379a0000000000000000000000000000000000000000000000000000000008152600401610cf6906123e0565b60405180910390fd5b600960149054906101000a900460ff1615610d4f576040517f08c379a0000000000000000000000000000000000000000000000000000000008152600401610d46906122e0565b60405180910390fd5b6001600960146101000a81548160ff021916908315150217905550610d926064610d8460065486611c2590919063ffffffff16565b611c3b90919063ffffffff16565b600581905550600960009054906101000a900473ffffffffffffffffffffffffffffffffffffffff1673ffffffffffffffffffffffffffffffffffffffff1663a9059cbb85610dec60055487611c5190919063ffffffff16565b6040518363ffffffff1660e01b8152600401610e099291906121a1565b602060405180830381600087803b158015610e2357600080fd5b505af1158015610e37573d6000803e3d6000fd5b505050506040513d601f19601f82011682018060405250810190610e5b9190611d65565b50600960009054906101000a900473ffffffffffffffffffffffffffffffffffffffff1673ffffffffffffffffffffffffffffffffffffffff1663a9059cbb600760009054906101000a900473ffffffffffffffffffffffffffffffffffffffff166005546040518363ffffffff1660e01b8152600401610edd9291906121a1565b602060405180830381600087803b158015610ef757600080fd5b505af1158015610f0b573d6000803e3d6000fd5b505050506040513d601f19601f82011682018060405250810190610f2f9190611d65565b506000600960146101000a81548160ff0219169083151502179055505b5050505050565b8073ffffffffffffffffffffffffffffffffffffffff16600160009054906101000a900473ffffffffffffffffffffffffffffffffffffffff1673ffffffffffffffffffffffffffffffffffffffff1614610fe3576040517f08c379a0000000000000000000000000000000000000000000000000000000008152600401610fda90612260565b60405180910390fd5b600960149054906101000a900460ff1615611033576040517f08c379a000000000000000000000000000000000000000000000000000000000815260040161102a906122e0565b60405180910390fd5b6001600960146101000a81548160ff02191690831515021790555082600260006101000a81548173ffffffffffffffffffffffffffffffffffffffff021916908373ffffffffffffffffffffffffffffffffffffffff160217905550816004819055506000600960146101000a81548160ff021916908315150217905550505050565b600860009054906101000a900473ffffffffffffffffffffffffffffffffffffffff1681565b600160009054906101000a900473ffffffffffffffffffffffffffffffffffffffff1673ffffffffffffffffffffffffffffffffffffffff168173ffffffffffffffffffffffffffffffffffffffff161461116c576040517f08c379a0000000000000000000000000000000000000000000000000000000008152600401611163906123a0565b60405180910390fd5b6001600b60006101000a81548160ff02191690831515021790555050565b600160009054906101000a900473ffffffffffffffffffffffffffffffffffffffff1681565b600260009054906101000a900473ffffffffffffffffffffffffffffffffffffffff1681565b6000600160009054906101000a900473ffffffffffffffffffffffffffffffffffffffff16905090565b600a5481565b600960149054906101000a900460ff1681565b600160009054906101000a900473ffffffffffffffffffffffffffffffffffffffff1673ffffffffffffffffffffffffffffffffffffffff168173ffffffffffffffffffffffffffffffffffffffff16146112a9576040517f08c379a00000000000000000000000000000000000000000000000000000000081526004016112a090612380565b60405180910390fd5b600260149054906101000a900460ff166112f8576040517f08c379a00000000000000000000000000000000000000000000000000000000081526004016112ef90612300565b60405180910390fd5b6000600260146101000a81548160ff02191690831515021790555050565b60035481565b600960009054906101000a900473ffffffffffffffffffffffffffffffffffffffff1681565b60008054906101000a900473ffffffffffffffffffffffffffffffffffffffff1681565b600160009054906101000a900473ffffffffffffffffffffffffffffffffffffffff1673ffffffffffffffffffffffffffffffffffffffff168173ffffffffffffffffffffffffffffffffffffffff16146113f6576040517f08c379a00000000000000000000000000000000000000000000000000000000081526004016113ed906122c0565b60405180910390fd5b600b60009054906101000a900460ff1615611446576040517f08c379a000000000000000000000000000000000000000000000000000000000815260040161143d906122a0565b60405180910390fd5b8315611673576000471161148f576040517f08c379a000000000000000000000000000000000000000000000000000000000815260040161148690612320565b60405180910390fd5b478311156114d2576040517f08c379a00000000000000000000000000000000000000000000000000000000081526004016114c9906123e0565b60405180910390fd5b600960149054906101000a900460ff1615611522576040517f08c379a0000000000000000000000000000000000000000000000000000000008152600401611519906122e0565b60405180910390fd5b6001600960146101000a81548160ff021916908315150217905550611565606461155760065486611c2590919063ffffffff16565b611c3b90919063ffffffff16565b600581905550600160009054906101000a900473ffffffffffffffffffffffffffffffffffffffff1673ffffffffffffffffffffffffffffffffffffffff166108fc6115bc60055486611c5190919063ffffffff16565b9081150290604051600060405180830381858888f193505050501580156115e7573d6000803e3d6000fd5b50600760009054906101000a900473ffffffffffffffffffffffffffffffffffffffff1673ffffffffffffffffffffffffffffffffffffffff166108fc6005549081150290604051600060405180830381858888f19350505050158015611652573d6000803e3d6000fd5b506000600960146101000a81548160ff021916908315150217905550611afd565b81600960006101000a81548173ffffffffffffffffffffffffffffffffffffffff021916908373ffffffffffffffffffffffffffffffffffffffff1602179055506000600960009054906101000a900473ffffffffffffffffffffffffffffffffffffffff1673ffffffffffffffffffffffffffffffffffffffff166370a08231306040518263ffffffff1660e01b8152600401611711919061216b565b60206040518083038186803b15801561172957600080fd5b505afa15801561173d573d6000803e3d6000fd5b505050506040513d601f19601f820116820180604052508101906117619190611eb4565b116117a1576040517f08c379a000000000000000000000000000000000000000000000000000000000815260040161179890612320565b60405180910390fd5b600960009054906101000a900473ffffffffffffffffffffffffffffffffffffffff1673ffffffffffffffffffffffffffffffffffffffff166370a08231306040518263ffffffff1660e01b81526004016117fc919061216b565b60206040518083038186803b15801561181457600080fd5b505afa158015611828573d6000803e3d6000fd5b505050506040513d601f19601f8201168201806040525081019061184c9190611eb4565b83111561188e576040517f08c379a0000000000000000000000000000000000000000000000000000000008152600401611885906123e0565b60405180910390fd5b600960149054906101000a900460ff16156118de576040517f08c379a00000000000000000000000000000000000000000000000000000000081526004016118d5906122e0565b60405180910390fd5b6001600960146101000a81548160ff021916908315150217905550611921606461191360065486611c2590919063ffffffff16565b611c3b90919063ffffffff16565b600581905550600960009054906101000a900473ffffffffffffffffffffffffffffffffffffffff1673ffffffffffffffffffffffffffffffffffffffff1663a9059cbb600160009054906101000a900473ffffffffffffffffffffffffffffffffffffffff1661199d60055487611c5190919063ffffffff16565b6040518363ffffffff1660e01b81526004016119ba9291906121a1565b602060405180830381600087803b1580156119d457600080fd5b505af11580156119e8573d6000803e3d6000fd5b505050506040513d601f19601f82011682018060405250810190611a0c9190611d65565b50600960009054906101000a900473ffffffffffffffffffffffffffffffffffffffff1673ffffffffffffffffffffffffffffffffffffffff1663a9059cbb600760009054906101000a900473ffffffffffffffffffffffffffffffffffffffff166005546040518363ffffffff1660e01b8152600401611a8e9291906121a1565b602060405180830381600087803b158015611aa857600080fd5b505af1158015611abc573d6000803e3d6000fd5b505050506040513d601f19601f82011682018060405250810190611ae09190611d65565b506000600960146101000a81548160ff0219169083151502179055505b50505050565b8073ffffffffffffffffffffffffffffffffffffffff16600260009054906101000a900473ffffffffffffffffffffffffffffffffffffffff1673ffffffffffffffffffffffffffffffffffffffff1614611b93576040517f08c379a0000000000000000000000000000000000000000000000000000000008152600401611b8a90612280565b60405180910390fd5b600260149054906101000a900460ff1615611be3576040517f08c379a0000000000000000000000000000000000000000000000000000000008152600401611bda90612340565b60405180910390fd5b6001600260146101000a81548160ff0219169083151502179055504260038190555050565b6000600654905090565b600260149054906101000a900460ff1681565b60008183611c3391906124b3565b905092915050565b60008183611c499190612482565b905092915050565b60008183611c5f919061250d565b905092915050565b600081359050611c7681612a78565b92915050565b600081359050611c8b81612a8f565b92915050565b600081359050611ca081612aa6565b92915050565b600081519050611cb581612aa6565b92915050565b600081359050611cca81612abd565b92915050565b600081519050611cdf81612abd565b92915050565b600060208284031215611cfb57611cfa612641565b5b6000611d0984828501611c67565b91505092915050565b600080600060608486031215611d2b57611d2a612641565b5b6000611d3986828701611c7c565b9350506020611d4a86828701611cbb565b9250506040611d5b86828701611c67565b9150509250925092565b600060208284031215611d7b57611d7a612641565b5b6000611d8984828501611ca6565b91505092915050565b60008060408385031215611da957611da8612641565b5b6000611db785828601611c91565b9250506020611dc885828601611c67565b9150509250929050565b600080600080600060a08688031215611dee57611ded612641565b5b6000611dfc88828901611c91565b9550506020611e0d88828901611c7c565b9450506040611e1e88828901611cbb565b9350506060611e2f88828901611c67565b9250506080611e4088828901611c67565b9150509295509295909350565b60008060008060808587031215611e6757611e66612641565b5b6000611e7587828801611c91565b9450506020611e8687828801611cbb565b9350506040611e9787828801611c67565b9250506060611ea887828801611c67565b91505092959194509250565b600060208284031215611eca57611ec9612641565b5b6000611ed884828501611cd0565b91505092915050565b611eea8161259b565b82525050565b611ef981612553565b82525050565b611f0881612541565b82525050565b611f1781612565565b82525050565b611f26816125ad565b82525050565b6000611f3960248361241b565b9150611f4482612646565b604082019050919050565b6000611f5c60258361241b565b9150611f6782612695565b604082019050919050565b6000611f7f601c8361241b565b9150611f8a826126e4565b602082019050919050565b6000611fa260208361241b565b9150611fad8261270d565b602082019050919050565b6000611fc5602d8361241b565b9150611fd082612736565b604082019050919050565b6000611fe860298361241b565b9150611ff382612785565b604082019050919050565b600061200b60228361241b565b9150612016826127d4565b604082019050919050565b600061202e60258361241b565b915061203982612823565b604082019050919050565b600061205160218361241b565b915061205c82612872565b604082019050919050565b6000612074601f8361241b565b915061207f826128c1565b602082019050919050565b600061209760258361241b565b91506120a2826128ea565b604082019050919050565b60006120ba60228361241b565b91506120c582612939565b604082019050919050565b60006120dd60208361241b565b91506120e882612988565b602082019050919050565b600061210060268361241b565b915061210b826129b1565b604082019050919050565b600061212360288361241b565b915061212e82612a00565b604082019050919050565b600061214660138361241b565b915061215182612a4f565b602082019050919050565b61216581612591565b82525050565b60006020820190506121806000830184611eff565b92915050565b600060208201905061219b6000830184611ef0565b92915050565b60006040820190506121b66000830185611ee1565b6121c3602083018461215c565b9392505050565b60006020820190506121df6000830184611f0e565b92915050565b60006020820190506121fa6000830184611f1d565b92915050565b6000602082019050818103600083015261221981611f2c565b9050919050565b6000602082019050818103600083015261223981611f4f565b9050919050565b6000602082019050818103600083015261225981611f72565b9050919050565b6000602082019050818103600083015261227981611f95565b9050919050565b6000602082019050818103600083015261229981611fb8565b9050919050565b600060208201905081810360008301526122b981611fdb565b9050919050565b600060208201905081810360008301526122d981611ffe565b9050919050565b600060208201905081810360008301526122f981612021565b9050919050565b6000602082019050818103600083015261231981612044565b9050919050565b6000602082019050818103600083015261233981612067565b9050919050565b600060208201905081810360008301526123598161208a565b9050919050565b60006020820190508181036000830152612379816120ad565b9050919050565b60006020820190508181036000830152612399816120d0565b9050919050565b600060208201905081810360008301526123b9816120f3565b9050919050565b600060208201905081810360008301526123d981612116565b9050919050565b600060208201905081810360008301526123f981612139565b9050919050565b6000602082019050612415600083018461215c565b92915050565b600082825260208201905092915050565b600061243782612591565b915061244283612591565b9250827fffffffffffffffffffffffffffffffffffffffffffffffffffffffffffffffff03821115612477576124766125e3565b5b828201905092915050565b600061248d82612591565b915061249883612591565b9250826124a8576124a7612612565b5b828204905092915050565b60006124be82612591565b91506124c983612591565b9250817fffffffffffffffffffffffffffffffffffffffffffffffffffffffffffffffff0483118215151615612502576125016125e3565b5b828202905092915050565b600061251882612591565b915061252383612591565b925082821015612536576125356125e3565b5b828203905092915050565b600061254c82612571565b9050919050565b600061255e82612571565b9050919050565b60008115159050919050565b600073ffffffffffffffffffffffffffffffffffffffff82169050919050565b6000819050919050565b60006125a6826125bf565b9050919050565b60006125b8826125bf565b9050919050565b60006125ca826125d1565b9050919050565b60006125dc82612571565b9050919050565b7f4e487b7100000000000000000000000000000000000000000000000000000000600052601160045260246000fd5b7f4e487b7100000000000000000000000000000000000000000000000000000000600052601260045260246000fd5b600080fd5b7f4f6e6c792074686520686569722063616e20636c61696d20746865206163636f60008201527f756e742e00000000000000000000000000000000000000000000000000000000602082015250565b7f436c61696d2070726f6365737320686173206e6f74206265656e20696e69746960008201527f617465642e000000000000000000000000000000000000000000000000000000602082015250565b7f436c61696d2064656c617920686173206e6f7420657870697265642e00000000600082015250565b7f4f6e6c7920746865206f776e65722063616e207365742074686520686569722e600082015250565b7f4f6e6c792074686520686569722063616e20696e69746961746520746865206360008201527f6c61696d2070726f636573732e00000000000000000000000000000000000000602082015250565b7f4163636f756e742069732066726f7a656e2c2063616e6e6f742077697468647260008201527f61772066756e64732e0000000000000000000000000000000000000000000000602082015250565b7f4f6e6c7920746865206f776e65722063616e2077697468647261772066756e6460008201527f732e000000000000000000000000000000000000000000000000000000000000602082015250565b7f5468652066756e6374696f6e20697320616c726561647920696e20657865637560008201527f74696f6e2e000000000000000000000000000000000000000000000000000000602082015250565b7f5468657265206973206e6f2061637469766520636c61696d20746f2073746f7060008201527f2e00000000000000000000000000000000000000000000000000000000000000602082015250565b7f546865726520617265206e6f2066756e647320746f2077697468647261772e00600082015250565b7f436c61696d2070726f6365737320697320616c726561647920696e2070726f6760008201527f726573732e000000000000000000000000000000000000000000000000000000602082015250565b7f4f6e6c7920746865206f776e65722063616e207472616e736665722066756e6460008201527f732e000000000000000000000000000000000000000000000000000000000000602082015250565b7f4f6e6c7920746865206f776e65722063616e2073746f70206120636c61696d2e600082015250565b7f4f6e6c7920746865206f776e65722063616e20667265657a652074686520616360008201527f636f756e742e0000000000000000000000000000000000000000000000000000602082015250565b7f4f6e6c7920746865206f776e65722063616e20756e667265657a65207468652060008201527f6163636f756e742e000000000000000000000000000000000000000000000000602082015250565b7f496e73756666696369656e742066756e64732e00000000000000000000000000600082015250565b612a8181612541565b8114612a8c57600080fd5b50565b612a9881612553565b8114612aa357600080fd5b50565b612aaf81612565565b8114612aba57600080fd5b50565b612ac681612591565b8114612ad157600080fd5b5056fea26469706673582212200a554babda25d2cc000dfdf99d918b19115f0f717609d90610a818fcac51620564736f6c63430008070033",
					"opcodes": "PUSH1 0x80 PUSH1 0x40 MSTORE PUSH1 0x0 PUSH1 0x9 PUSH1 0x14 PUSH2 0x100 EXP DUP2 SLOAD DUP2 PUSH1 0xFF MUL NOT AND SWAP1 DUP4 ISZERO ISZERO MUL OR SWAP1 SSTORE POP PUSH1 0x0 PUSH1 0xB PUSH1 0x0 PUSH2 0x100 EXP DUP2 SLOAD DUP2 PUSH1 0xFF MUL NOT AND SWAP1 DUP4 ISZERO ISZERO MUL OR SWAP1 SSTORE POP CALLVALUE DUP1 ISZERO PUSH3 0x47 JUMPI PUSH1 0x0 DUP1 REVERT JUMPDEST POP PUSH1 0x40 MLOAD PUSH3 0x2D5A CODESIZE SUB DUP1 PUSH3 0x2D5A DUP4 CODECOPY DUP2 DUP2 ADD PUSH1 0x40 MSTORE DUP2 ADD SWAP1 PUSH3 0x6D SWAP2 SWAP1 PUSH3 0x16D JUMP JUMPDEST DUP3 PUSH1 0x1 PUSH1 0x0 PUSH2 0x100 EXP DUP2 SLOAD DUP2 PUSH20 0xFFFFFFFFFFFFFFFFFFFFFFFFFFFFFFFFFFFFFFFF MUL NOT AND SWAP1 DUP4 PUSH20 0xFFFFFFFFFFFFFFFFFFFFFFFFFFFFFFFFFFFFFFFF AND MUL OR SWAP1 SSTORE POP DUP3 PUSH1 0x0 DUP1 PUSH2 0x100 EXP DUP2 SLOAD DUP2 PUSH20 0xFFFFFFFFFFFFFFFFFFFFFFFFFFFFFFFFFFFFFFFF MUL NOT AND SWAP1 DUP4 PUSH20 0xFFFFFFFFFFFFFFFFFFFFFFFFFFFFFFFFFFFFFFFF AND MUL OR SWAP1 SSTORE POP DUP1 PUSH1 0x6 DUP2 SWAP1 SSTORE POP DUP2 PUSH1 0x7 PUSH1 0x0 PUSH2 0x100 EXP DUP2 SLOAD DUP2 PUSH20 0xFFFFFFFFFFFFFFFFFFFFFFFFFFFFFFFFFFFFFFFF MUL NOT AND SWAP1 DUP4 PUSH20 0xFFFFFFFFFFFFFFFFFFFFFFFFFFFFFFFFFFFFFFFF AND MUL OR SWAP1 SSTORE POP POP POP POP PUSH3 0x240 JUMP JUMPDEST PUSH1 0x0 DUP2 MLOAD SWAP1 POP PUSH3 0x150 DUP2 PUSH3 0x20C JUMP JUMPDEST SWAP3 SWAP2 POP POP JUMP JUMPDEST PUSH1 0x0 DUP2 MLOAD SWAP1 POP PUSH3 0x167 DUP2 PUSH3 0x226 JUMP JUMPDEST SWAP3 SWAP2 POP POP JUMP JUMPDEST PUSH1 0x0 DUP1 PUSH1 0x0 PUSH1 0x60 DUP5 DUP7 SUB SLT ISZERO PUSH3 0x189 JUMPI PUSH3 0x188 PUSH3 0x207 JUMP JUMPDEST JUMPDEST PUSH1 0x0 PUSH3 0x199 DUP7 DUP3 DUP8 ADD PUSH3 0x13F JUMP JUMPDEST SWAP4 POP POP PUSH1 0x20 PUSH3 0x1AC DUP7 DUP3 DUP8 ADD PUSH3 0x13F JUMP JUMPDEST SWAP3 POP POP PUSH1 0x40 PUSH3 0x1BF DUP7 DUP3 DUP8 ADD PUSH3 0x156 JUMP JUMPDEST SWAP2 POP POP SWAP3 POP SWAP3 POP SWAP3 JUMP JUMPDEST PUSH1 0x0 PUSH3 0x1D6 DUP3 PUSH3 0x1DD JUMP JUMPDEST SWAP1 POP SWAP2 SWAP1 POP JUMP JUMPDEST PUSH1 0x0 PUSH20 0xFFFFFFFFFFFFFFFFFFFFFFFFFFFFFFFFFFFFFFFF DUP3 AND SWAP1 POP SWAP2 SWAP1 POP JUMP JUMPDEST PUSH1 0x0 DUP2 SWAP1 POP SWAP2 SWAP1 POP JUMP JUMPDEST PUSH1 0x0 DUP1 REVERT JUMPDEST PUSH3 0x217 DUP2 PUSH3 0x1C9 JUMP JUMPDEST DUP2 EQ PUSH3 0x223 JUMPI PUSH1 0x0 DUP1 REVERT JUMPDEST POP JUMP JUMPDEST PUSH3 0x231 DUP2 PUSH3 0x1FD JUMP JUMPDEST DUP2 EQ PUSH3 0x23D JUMPI PUSH1 0x0 DUP1 REVERT JUMPDEST POP JUMP JUMPDEST PUSH2 0x2B0A DUP1 PUSH3 0x250 PUSH1 0x0 CODECOPY PUSH1 0x0 RETURN INVALID PUSH1 0x80 PUSH1 0x40 MSTORE PUSH1 0x4 CALLDATASIZE LT PUSH2 0x14F JUMPI PUSH1 0x0 CALLDATALOAD PUSH1 0xE0 SHR DUP1 PUSH4 0x91F2EBB8 GT PUSH2 0xB6 JUMPI DUP1 PUSH4 0xCC4AA204 GT PUSH2 0x6F JUMPI DUP1 PUSH4 0xCC4AA204 EQ PUSH2 0x4BC JUMPI DUP1 PUSH4 0xD5F39488 EQ PUSH2 0x4E7 JUMPI DUP1 PUSH4 0xD86E0575 EQ PUSH2 0x512 JUMPI DUP1 PUSH4 0xF2B5EEA7 EQ PUSH2 0x52E JUMPI DUP1 PUSH4 0xF5C91A0B EQ PUSH2 0x557 JUMPI DUP1 PUSH4 0xFAEDD18E EQ PUSH2 0x582 JUMPI PUSH2 0x1BB JUMP JUMPDEST DUP1 PUSH4 0x91F2EBB8 EQ PUSH2 0x3BC JUMPI DUP1 PUSH4 0x94A927FE EQ PUSH2 0x3E7 JUMPI DUP1 PUSH4 0x9E1A4D19 EQ PUSH2 0x412 JUMPI DUP1 PUSH4 0xA5720770 EQ PUSH2 0x43D JUMPI DUP1 PUSH4 0xB7D1D98E EQ PUSH2 0x468 JUMPI DUP1 PUSH4 0xC7983E20 EQ PUSH2 0x491 JUMPI PUSH2 0x1BB JUMP JUMPDEST DUP1 PUSH4 0x56AF4F75 GT PUSH2 0x108 JUMPI DUP1 PUSH4 0x56AF4F75 EQ PUSH2 0x2CD JUMPI DUP1 PUSH4 0x6C8D5ADA EQ PUSH2 0x2F8 JUMPI DUP1 PUSH4 0x6E1A7373 EQ PUSH2 0x314 JUMPI DUP1 PUSH4 0x7A80760E EQ PUSH2 0x33D JUMPI DUP1 PUSH4 0x8D1FDF2F EQ PUSH2 0x368 JUMPI DUP1 PUSH4 0x8DA5CB5B EQ PUSH2 0x391 JUMPI PUSH2 0x1BB JUMP JUMPDEST DUP1 PUSH4 0x54F7D9C EQ PUSH2 0x1BD JUMPI DUP1 PUSH4 0x1903B431 EQ PUSH2 0x1E8 JUMPI DUP1 PUSH4 0x1C8EC299 EQ PUSH2 0x225 JUMPI DUP1 PUSH4 0x1E83409A EQ PUSH2 0x250 JUMPI DUP1 PUSH4 0x362BB2AC EQ PUSH2 0x279 JUMPI DUP1 PUSH4 0x45C8B1A6 EQ PUSH2 0x2A4 JUMPI PUSH2 0x1BB JUMP JUMPDEST CALLDATASIZE PUSH2 0x1BB JUMPI CALLER PUSH20 0xFFFFFFFFFFFFFFFFFFFFFFFFFFFFFFFFFFFFFFFF AND ADDRESS PUSH20 0xFFFFFFFFFFFFFFFFFFFFFFFFFFFFFFFFFFFFFFFF AND PUSH32 0x5548C837AB068CF56A2C2479DF0882A4922FD203EDB7517321831D95078C5F62 CALLVALUE PUSH1 0x40 MLOAD PUSH2 0x1B1 SWAP2 SWAP1 PUSH2 0x2400 JUMP JUMPDEST PUSH1 0x40 MLOAD DUP1 SWAP2 SUB SWAP1 LOG3 STOP JUMPDEST STOP JUMPDEST CALLVALUE DUP1 ISZERO PUSH2 0x1C9 JUMPI PUSH1 0x0 DUP1 REVERT JUMPDEST POP PUSH2 0x1D2 PUSH2 0x5AD JUMP JUMPDEST PUSH1 0x40 MLOAD PUSH2 0x1DF SWAP2 SWAP1 PUSH2 0x21CA JUMP JUMPDEST PUSH1 0x40 MLOAD DUP1 SWAP2 SUB SWAP1 RETURN JUMPDEST CALLVALUE DUP1 ISZERO PUSH2 0x1F4 JUMPI PUSH1 0x0 DUP1 REVERT JUMPDEST POP PUSH2 0x20F PUSH1 0x4 DUP1 CALLDATASIZE SUB DUP2 ADD SWAP1 PUSH2 0x20A SWAP2 SWAP1 PUSH2 0x1D92 JUMP JUMPDEST PUSH2 0x5C0 JUMP JUMPDEST PUSH1 0x40 MLOAD PUSH2 0x21C SWAP2 SWAP1 PUSH2 0x2400 JUMP JUMPDEST PUSH1 0x40 MLOAD DUP1 SWAP2 SUB SWAP1 RETURN JUMPDEST CALLVALUE DUP1 ISZERO PUSH2 0x231 JUMPI PUSH1 0x0 DUP1 REVERT JUMPDEST POP PUSH2 0x23A PUSH2 0x662 JUMP JUMPDEST PUSH1 0x40 MLOAD PUSH2 0x247 SWAP2 SWAP1 PUSH2 0x2400 JUMP JUMPDEST PUSH1 0x40 MLOAD DUP1 SWAP2 SUB SWAP1 RETURN JUMPDEST CALLVALUE DUP1 ISZERO PUSH2 0x25C JUMPI PUSH1 0x0 DUP1 REVERT JUMPDEST POP PUSH2 0x277 PUSH1 0x4 DUP1 CALLDATASIZE SUB DUP2 ADD SWAP1 PUSH2 0x272 SWAP2 SWAP1 PUSH2 0x1CE5 JUMP JUMPDEST PUSH2 0x668 JUMP JUMPDEST STOP JUMPDEST CALLVALUE DUP1 ISZERO PUSH2 0x285 JUMPI PUSH1 0x0 DUP1 REVERT JUMPDEST POP PUSH2 0x28E PUSH2 0x828 JUMP JUMPDEST PUSH1 0x40 MLOAD PUSH2 0x29B SWAP2 SWAP1 PUSH2 0x216B JUMP JUMPDEST PUSH1 0x40 MLOAD DUP1 SWAP2 SUB SWAP1 RETURN JUMPDEST CALLVALUE DUP1 ISZERO PUSH2 0x2B0 JUMPI PUSH1 0x0 DUP1 REVERT JUMPDEST POP PUSH2 0x2CB PUSH1 0x4 DUP1 CALLDATASIZE SUB DUP2 ADD SWAP1 PUSH2 0x2C6 SWAP2 SWAP1 PUSH2 0x1CE5 JUMP JUMPDEST PUSH2 0x851 JUMP JUMPDEST STOP JUMPDEST CALLVALUE DUP1 ISZERO PUSH2 0x2D9 JUMPI PUSH1 0x0 DUP1 REVERT JUMPDEST POP PUSH2 0x2E2 PUSH2 0x8FF JUMP JUMPDEST PUSH1 0x40 MLOAD PUSH2 0x2EF SWAP2 SWAP1 PUSH2 0x216B JUMP JUMPDEST PUSH1 0x40 MLOAD DUP1 SWAP2 SUB SWAP1 RETURN JUMPDEST PUSH2 0x312 PUSH1 0x4 DUP1 CALLDATASIZE SUB DUP2 ADD SWAP1 PUSH2 0x30D SWAP2 SWAP1 PUSH2 0x1DD2 JUMP JUMPDEST PUSH2 0x929 JUMP JUMPDEST STOP JUMPDEST CALLVALUE DUP1 ISZERO PUSH2 0x320 JUMPI PUSH1 0x0 DUP1 REVERT JUMPDEST POP PUSH2 0x33B PUSH1 0x4 DUP1 CALLDATASIZE SUB DUP2 ADD SWAP1 PUSH2 0x336 SWAP2 SWAP1 PUSH2 0x1D12 JUMP JUMPDEST PUSH2 0xF53 JUMP JUMPDEST STOP JUMPDEST CALLVALUE DUP1 ISZERO PUSH2 0x349 JUMPI PUSH1 0x0 DUP1 REVERT JUMPDEST POP PUSH2 0x352 PUSH2 0x10B6 JUMP JUMPDEST PUSH1 0x40 MLOAD PUSH2 0x35F SWAP2 SWAP1 PUSH2 0x2186 JUMP JUMPDEST PUSH1 0x40 MLOAD DUP1 SWAP2 SUB SWAP1 RETURN JUMPDEST CALLVALUE DUP1 ISZERO PUSH2 0x374 JUMPI PUSH1 0x0 DUP1 REVERT JUMPDEST POP PUSH2 0x38F PUSH1 0x4 DUP1 CALLDATASIZE SUB DUP2 ADD SWAP1 PUSH2 0x38A SWAP2 SWAP1 PUSH2 0x1CE5 JUMP JUMPDEST PUSH2 0x10DC JUMP JUMPDEST STOP JUMPDEST CALLVALUE DUP1 ISZERO PUSH2 0x39D JUMPI PUSH1 0x0 DUP1 REVERT JUMPDEST POP PUSH2 0x3A6 PUSH2 0x118A JUMP JUMPDEST PUSH1 0x40 MLOAD PUSH2 0x3B3 SWAP2 SWAP1 PUSH2 0x2186 JUMP JUMPDEST PUSH1 0x40 MLOAD DUP1 SWAP2 SUB SWAP1 RETURN JUMPDEST CALLVALUE DUP1 ISZERO PUSH2 0x3C8 JUMPI PUSH1 0x0 DUP1 REVERT JUMPDEST POP PUSH2 0x3D1 PUSH2 0x11B0 JUMP JUMPDEST PUSH1 0x40 MLOAD PUSH2 0x3DE SWAP2 SWAP1 PUSH2 0x2186 JUMP JUMPDEST PUSH1 0x40 MLOAD DUP1 SWAP2 SUB SWAP1 RETURN JUMPDEST CALLVALUE DUP1 ISZERO PUSH2 0x3F3 JUMPI PUSH1 0x0 DUP1 REVERT JUMPDEST POP PUSH2 0x3FC PUSH2 0x11D6 JUMP JUMPDEST PUSH1 0x40 MLOAD PUSH2 0x409 SWAP2 SWAP1 PUSH2 0x216B JUMP JUMPDEST PUSH1 0x40 MLOAD DUP1 SWAP2 SUB SWAP1 RETURN JUMPDEST CALLVALUE DUP1 ISZERO PUSH2 0x41E JUMPI PUSH1 0x0 DUP1 REVERT JUMPDEST POP PUSH2 0x427 PUSH2 0x1200 JUMP JUMPDEST PUSH1 0x40 MLOAD PUSH2 0x434 SWAP2 SWAP1 PUSH2 0x2400 JUMP JUMPDEST PUSH1 0x40 MLOAD DUP1 SWAP2 SUB SWAP1 RETURN JUMPDEST CALLVALUE DUP1 ISZERO PUSH2 0x449 JUMPI PUSH1 0x0 DUP1 REVERT JUMPDEST POP PUSH2 0x452 PUSH2 0x1206 JUMP JUMPDEST PUSH1 0x40 MLOAD PUSH2 0x45F SWAP2 SWAP1 PUSH2 0x21CA JUMP JUMPDEST PUSH1 0x40 MLOAD DUP1 SWAP2 SUB SWAP1 RETURN JUMPDEST CALLVALUE DUP1 ISZERO PUSH2 0x474 JUMPI PUSH1 0x0 DUP1 REVERT JUMPDEST POP PUSH2 0x48F PUSH1 0x4 DUP1 CALLDATASIZE SUB DUP2 ADD SWAP1 PUSH2 0x48A SWAP2 SWAP1 PUSH2 0x1CE5 JUMP JUMPDEST PUSH2 0x1219 JUMP JUMPDEST STOP JUMPDEST CALLVALUE DUP1 ISZERO PUSH2 0x49D JUMPI PUSH1 0x0 DUP1 REVERT JUMPDEST POP PUSH2 0x4A6 PUSH2 0x1316 JUMP JUMPDEST PUSH1 0x40 MLOAD PUSH2 0x4B3 SWAP2 SWAP1 PUSH2 0x2400 JUMP JUMPDEST PUSH1 0x40 MLOAD DUP1 SWAP2 SUB SWAP1 RETURN JUMPDEST CALLVALUE DUP1 ISZERO PUSH2 0x4C8 JUMPI PUSH1 0x0 DUP1 REVERT JUMPDEST POP PUSH2 0x4D1 PUSH2 0x131C JUMP JUMPDEST PUSH1 0x40 MLOAD PUSH2 0x4DE SWAP2 SWAP1 PUSH2 0x21E5 JUMP JUMPDEST PUSH1 0x40 MLOAD DUP1 SWAP2 SUB SWAP1 RETURN JUMPDEST CALLVALUE DUP1 ISZERO PUSH2 0x4F3 JUMPI PUSH1 0x0 DUP1 REVERT JUMPDEST POP PUSH2 0x4FC PUSH2 0x1342 JUMP JUMPDEST PUSH1 0x40 MLOAD PUSH2 0x509 SWAP2 SWAP1 PUSH2 0x216B JUMP JUMPDEST PUSH1 0x40 MLOAD DUP1 SWAP2 SUB SWAP1 RETURN JUMPDEST PUSH2 0x52C PUSH1 0x4 DUP1 CALLDATASIZE SUB DUP2 ADD SWAP1 PUSH2 0x527 SWAP2 SWAP1 PUSH2 0x1E4D JUMP JUMPDEST PUSH2 0x1366 JUMP JUMPDEST STOP JUMPDEST CALLVALUE DUP1 ISZERO PUSH2 0x53A JUMPI PUSH1 0x0 DUP1 REVERT JUMPDEST POP PUSH2 0x555 PUSH1 0x4 DUP1 CALLDATASIZE SUB DUP2 ADD SWAP1 PUSH2 0x550 SWAP2 SWAP1 PUSH2 0x1CE5 JUMP JUMPDEST PUSH2 0x1B03 JUMP JUMPDEST STOP JUMPDEST CALLVALUE DUP1 ISZERO PUSH2 0x563 JUMPI PUSH1 0x0 DUP1 REVERT JUMPDEST POP PUSH2 0x56C PUSH2 0x1C08 JUMP JUMPDEST PUSH1 0x40 MLOAD PUSH2 0x579 SWAP2 SWAP1 PUSH2 0x2400 JUMP JUMPDEST PUSH1 0x40 MLOAD DUP1 SWAP2 SUB SWAP1 RETURN JUMPDEST CALLVALUE DUP1 ISZERO PUSH2 0x58E JUMPI PUSH1 0x0 DUP1 REVERT JUMPDEST POP PUSH2 0x597 PUSH2 0x1C12 JUMP JUMPDEST PUSH1 0x40 MLOAD PUSH2 0x5A4 SWAP2 SWAP1 PUSH2 0x21CA JUMP JUMPDEST PUSH1 0x40 MLOAD DUP1 SWAP2 SUB SWAP1 RETURN JUMPDEST PUSH1 0xB PUSH1 0x0 SWAP1 SLOAD SWAP1 PUSH2 0x100 EXP SWAP1 DIV PUSH1 0xFF AND DUP2 JUMP JUMPDEST PUSH1 0x0 DUP3 ISZERO PUSH2 0x5D0 JUMPI SELFBALANCE SWAP1 POP PUSH2 0x65C JUMP JUMPDEST DUP2 PUSH20 0xFFFFFFFFFFFFFFFFFFFFFFFFFFFFFFFFFFFFFFFF AND PUSH4 0x70A08231 ADDRESS PUSH1 0x40 MLOAD DUP3 PUSH4 0xFFFFFFFF AND PUSH1 0xE0 SHL DUP2 MSTORE PUSH1 0x4 ADD PUSH2 0x609 SWAP2 SWAP1 PUSH2 0x216B JUMP JUMPDEST PUSH1 0x20 PUSH1 0x40 MLOAD DUP1 DUP4 SUB DUP2 DUP7 DUP1 EXTCODESIZE ISZERO DUP1 ISZERO PUSH2 0x621 JUMPI PUSH1 0x0 DUP1 REVERT JUMPDEST POP GAS STATICCALL ISZERO DUP1 ISZERO PUSH2 0x635 JUMPI RETURNDATASIZE PUSH1 0x0 DUP1 RETURNDATACOPY RETURNDATASIZE PUSH1 0x0 REVERT JUMPDEST POP POP POP POP PUSH1 0x40 MLOAD RETURNDATASIZE PUSH1 0x1F NOT PUSH1 0x1F DUP3 ADD AND DUP3 ADD DUP1 PUSH1 0x40 MSTORE POP DUP2 ADD SWAP1 PUSH2 0x659 SWAP2 SWAP1 PUSH2 0x1EB4 JUMP JUMPDEST SWAP1 POP JUMPDEST SWAP3 SWAP2 POP POP JUMP JUMPDEST PUSH1 0x4 SLOAD DUP2 JUMP JUMPDEST DUP1 PUSH20 0xFFFFFFFFFFFFFFFFFFFFFFFFFFFFFFFFFFFFFFFF AND PUSH1 0x2 PUSH1 0x0 SWAP1 SLOAD SWAP1 PUSH2 0x100 EXP SWAP1 DIV PUSH20 0xFFFFFFFFFFFFFFFFFFFFFFFFFFFFFFFFFFFFFFFF AND PUSH20 0xFFFFFFFFFFFFFFFFFFFFFFFFFFFFFFFFFFFFFFFF AND EQ PUSH2 0x6F8 JUMPI PUSH1 0x40 MLOAD PUSH32 0x8C379A000000000000000000000000000000000000000000000000000000000 DUP2 MSTORE PUSH1 0x4 ADD PUSH2 0x6EF SWAP1 PUSH2 0x2200 JUMP JUMPDEST PUSH1 0x40 MLOAD DUP1 SWAP2 SUB SWAP1 REVERT JUMPDEST PUSH1 0x2 PUSH1 0x14 SWAP1 SLOAD SWAP1 PUSH2 0x100 EXP SWAP1 DIV PUSH1 0xFF AND PUSH2 0x747 JUMPI PUSH1 0x40 MLOAD PUSH32 0x8C379A000000000000000000000000000000000000000000000000000000000 DUP2 MSTORE PUSH1 0x4 ADD PUSH2 0x73E SWAP1 PUSH2 0x2220 JUMP JUMPDEST PUSH1 0x40 MLOAD DUP1 SWAP2 SUB SWAP1 REVERT JUMPDEST PUSH3 0x15180 PUSH1 0x4 SLOAD PUSH2 0x758 SWAP2 SWAP1 PUSH2 0x24B3 JUMP JUMPDEST PUSH1 0x3 SLOAD PUSH2 0x765 SWAP2 SWAP1 PUSH2 0x242C JUMP JUMPDEST TIMESTAMP LT ISZERO PUSH2 0x7A7 JUMPI PUSH1 0x40 MLOAD PUSH32 0x8C379A000000000000000000000000000000000000000000000000000000000 DUP2 MSTORE PUSH1 0x4 ADD PUSH2 0x79E SWAP1 PUSH2 0x2240 JUMP JUMPDEST PUSH1 0x40 MLOAD DUP1 SWAP2 SUB SWAP1 REVERT JUMPDEST PUSH1 0x2 PUSH1 0x0 SWAP1 SLOAD SWAP1 PUSH2 0x100 EXP SWAP1 DIV PUSH20 0xFFFFFFFFFFFFFFFFFFFFFFFFFFFFFFFFFFFFFFFF AND PUSH1 0x1 PUSH1 0x0 PUSH2 0x100 EXP DUP2 SLOAD DUP2 PUSH20 0xFFFFFFFFFFFFFFFFFFFFFFFFFFFFFFFFFFFFFFFF MUL NOT AND SWAP1 DUP4 PUSH20 0xFFFFFFFFFFFFFFFFFFFFFFFFFFFFFFFFFFFFFFFF AND MUL OR SWAP1 SSTORE POP PUSH1 0x0 PUSH1 0x2 PUSH1 0x14 PUSH2 0x100 EXP DUP2 SLOAD DUP2 PUSH1 0xFF MUL NOT AND SWAP1 DUP4 ISZERO ISZERO MUL OR SWAP1 SSTORE POP POP JUMP JUMPDEST PUSH1 0x0 DUP1 PUSH1 0x0 SWAP1 SLOAD SWAP1 PUSH2 0x100 EXP SWAP1 DIV PUSH20 0xFFFFFFFFFFFFFFFFFFFFFFFFFFFFFFFFFFFFFFFF AND SWAP1 POP SWAP1 JUMP JUMPDEST PUSH1 0x1 PUSH1 0x0 SWAP1 SLOAD SWAP1 PUSH2 0x100 EXP SWAP1 DIV PUSH20 0xFFFFFFFFFFFFFFFFFFFFFFFFFFFFFFFFFFFFFFFF AND PUSH20 0xFFFFFFFFFFFFFFFFFFFFFFFFFFFFFFFFFFFFFFFF AND DUP2 PUSH20 0xFFFFFFFFFFFFFFFFFFFFFFFFFFFFFFFFFFFFFFFF AND EQ PUSH2 0x8E1 JUMPI PUSH1 0x40 MLOAD PUSH32 0x8C379A000000000000000000000000000000000000000000000000000000000 DUP2 MSTORE PUSH1 0x4 ADD PUSH2 0x8D8 SWAP1 PUSH2 0x23C0 JUMP JUMPDEST PUSH1 0x40 MLOAD DUP1 SWAP2 SUB SWAP1 REVERT JUMPDEST PUSH1 0x0 PUSH1 0xB PUSH1 0x0 PUSH2 0x100 EXP DUP2 SLOAD DUP2 PUSH1 0xFF MUL NOT AND SWAP1 DUP4 ISZERO ISZERO MUL OR SWAP1 SSTORE POP POP JUMP JUMPDEST PUSH1 0x0 PUSH1 0x2 PUSH1 0x0 SWAP1 SLOAD SWAP1 PUSH2 0x100 EXP SWAP1 DIV PUSH20 0xFFFFFFFFFFFFFFFFFFFFFFFFFFFFFFFFFFFFFFFF AND SWAP1 POP SWAP1 JUMP JUMPDEST PUSH1 0x1 PUSH1 0x0 SWAP1 SLOAD SWAP1 PUSH2 0x100 EXP SWAP1 DIV PUSH20 0xFFFFFFFFFFFFFFFFFFFFFFFFFFFFFFFFFFFFFFFF AND PUSH20 0xFFFFFFFFFFFFFFFFFFFFFFFFFFFFFFFFFFFFFFFF AND DUP2 PUSH20 0xFFFFFFFFFFFFFFFFFFFFFFFFFFFFFFFFFFFFFFFF AND EQ PUSH2 0x9B9 JUMPI PUSH1 0x40 MLOAD PUSH32 0x8C379A000000000000000000000000000000000000000000000000000000000 DUP2 MSTORE PUSH1 0x4 ADD PUSH2 0x9B0 SWAP1 PUSH2 0x2360 JUMP JUMPDEST PUSH1 0x40 MLOAD DUP1 SWAP2 SUB SWAP1 REVERT JUMPDEST PUSH1 0xB PUSH1 0x0 SWAP1 SLOAD SWAP1 PUSH2 0x100 EXP SWAP1 DIV PUSH1 0xFF AND ISZERO PUSH2 0xA09 JUMPI PUSH1 0x40 MLOAD PUSH32 0x8C379A000000000000000000000000000000000000000000000000000000000 DUP2 MSTORE PUSH1 0x4 ADD PUSH2 0xA00 SWAP1 PUSH2 0x22A0 JUMP JUMPDEST PUSH1 0x40 MLOAD DUP1 SWAP2 SUB SWAP1 REVERT JUMPDEST DUP5 ISZERO PUSH2 0xBD1 JUMPI SELFBALANCE DUP4 GT ISZERO PUSH2 0xA52 JUMPI PUSH1 0x40 MLOAD PUSH32 0x8C379A000000000000000000000000000000000000000000000000000000000 DUP2 MSTORE PUSH1 0x4 ADD PUSH2 0xA49 SWAP1 PUSH2 0x23E0 JUMP JUMPDEST PUSH1 0x40 MLOAD DUP1 SWAP2 SUB SWAP1 REVERT JUMPDEST PUSH1 0x9 PUSH1 0x14 SWAP1 SLOAD SWAP1 PUSH2 0x100 EXP SWAP1 DIV PUSH1 0xFF AND ISZERO PUSH2 0xAA2 JUMPI PUSH1 0x40 MLOAD PUSH32 0x8C379A000000000000000000000000000000000000000000000000000000000 DUP2 MSTORE PUSH1 0x4 ADD PUSH2 0xA99 SWAP1 PUSH2 0x22E0 JUMP JUMPDEST PUSH1 0x40 MLOAD DUP1 SWAP2 SUB SWAP1 REVERT JUMPDEST PUSH1 0x1 PUSH1 0x9 PUSH1 0x14 PUSH2 0x100 EXP DUP2 SLOAD DUP2 PUSH1 0xFF MUL NOT AND SWAP1 DUP4 ISZERO ISZERO MUL OR SWAP1 SSTORE POP PUSH2 0xAE5 PUSH1 0x64 PUSH2 0xAD7 PUSH1 0x6 SLOAD DUP7 PUSH2 0x1C25 SWAP1 SWAP2 SWAP1 PUSH4 0xFFFFFFFF AND JUMP JUMPDEST PUSH2 0x1C3B SWAP1 SWAP2 SWAP1 PUSH4 0xFFFFFFFF AND JUMP JUMPDEST PUSH1 0x5 DUP2 SWAP1 SSTORE POP DUP4 PUSH20 0xFFFFFFFFFFFFFFFFFFFFFFFFFFFFFFFFFFFFFFFF AND PUSH2 0x8FC PUSH2 0xB1A PUSH1 0x5 SLOAD DUP7 PUSH2 0x1C51 SWAP1 SWAP2 SWAP1 PUSH4 0xFFFFFFFF AND JUMP JUMPDEST SWAP1 DUP2 ISZERO MUL SWAP1 PUSH1 0x40 MLOAD PUSH1 0x0 PUSH1 0x40 MLOAD DUP1 DUP4 SUB DUP2 DUP6 DUP9 DUP9 CALL SWAP4 POP POP POP POP ISZERO DUP1 ISZERO PUSH2 0xB45 JUMPI RETURNDATASIZE PUSH1 0x0 DUP1 RETURNDATACOPY RETURNDATASIZE PUSH1 0x0 REVERT JUMPDEST POP PUSH1 0x7 PUSH1 0x0 SWAP1 SLOAD SWAP1 PUSH2 0x100 EXP SWAP1 DIV PUSH20 0xFFFFFFFFFFFFFFFFFFFFFFFFFFFFFFFFFFFFFFFF AND PUSH20 0xFFFFFFFFFFFFFFFFFFFFFFFFFFFFFFFFFFFFFFFF AND PUSH2 0x8FC PUSH1 0x5 SLOAD SWAP1 DUP2 ISZERO MUL SWAP1 PUSH1 0x40 MLOAD PUSH1 0x0 PUSH1 0x40 MLOAD DUP1 DUP4 SUB DUP2 DUP6 DUP9 DUP9 CALL SWAP4 POP POP POP POP ISZERO DUP1 ISZERO PUSH2 0xBB0 JUMPI RETURNDATASIZE PUSH1 0x0 DUP1 RETURNDATACOPY RETURNDATASIZE PUSH1 0x0 REVERT JUMPDEST POP PUSH1 0x0 PUSH1 0x9 PUSH1 0x14 PUSH2 0x100 EXP DUP2 SLOAD DUP2 PUSH1 0xFF MUL NOT AND SWAP1 DUP4 ISZERO ISZERO MUL OR SWAP1 SSTORE POP PUSH2 0xF4C JUMP JUMPDEST DUP2 PUSH1 0x9 PUSH1 0x0 PUSH2 0x100 EXP DUP2 SLOAD DUP2 PUSH20 0xFFFFFFFFFFFFFFFFFFFFFFFFFFFFFFFFFFFFFFFF MUL NOT AND SWAP1 DUP4 PUSH20 0xFFFFFFFFFFFFFFFFFFFFFFFFFFFFFFFFFFFFFFFF AND MUL OR SWAP1 SSTORE POP PUSH1 0x9 PUSH1 0x0 SWAP1 SLOAD SWAP1 PUSH2 0x100 EXP SWAP1 DIV PUSH20 0xFFFFFFFFFFFFFFFFFFFFFFFFFFFFFFFFFFFFFFFF AND PUSH20 0xFFFFFFFFFFFFFFFFFFFFFFFFFFFFFFFFFFFFFFFF AND PUSH4 0x70A08231 ADDRESS PUSH1 0x40 MLOAD DUP3 PUSH4 0xFFFFFFFF AND PUSH1 0xE0 SHL DUP2 MSTORE PUSH1 0x4 ADD PUSH2 0xC6D SWAP2 SWAP1 PUSH2 0x216B JUMP JUMPDEST PUSH1 0x20 PUSH1 0x40 MLOAD DUP1 DUP4 SUB DUP2 DUP7 DUP1 EXTCODESIZE ISZERO DUP1 ISZERO PUSH2 0xC85 JUMPI PUSH1 0x0 DUP1 REVERT JUMPDEST POP GAS STATICCALL ISZERO DUP1 ISZERO PUSH2 0xC99 JUMPI RETURNDATASIZE PUSH1 0x0 DUP1 RETURNDATACOPY RETURNDATASIZE PUSH1 0x0 REVERT JUMPDEST POP POP POP POP PUSH1 0x40 MLOAD RETURNDATASIZE PUSH1 0x1F NOT PUSH1 0x1F DUP3 ADD AND DUP3 ADD DUP1 PUSH1 0x40 MSTORE POP DUP2 ADD SWAP1 PUSH2 0xCBD SWAP2 SWAP1 PUSH2 0x1EB4 JUMP JUMPDEST DUP4 GT ISZERO PUSH2 0xCFF JUMPI PUSH1 0x40 MLOAD PUSH32 0x8C379A000000000000000000000000000000000000000000000000000000000 DUP2 MSTORE PUSH1 0x4 ADD PUSH2 0xCF6 SWAP1 PUSH2 0x23E0 JUMP JUMPDEST PUSH1 0x40 MLOAD DUP1 SWAP2 SUB SWAP1 REVERT JUMPDEST PUSH1 0x9 PUSH1 0x14 SWAP1 SLOAD SWAP1 PUSH2 0x100 EXP SWAP1 DIV PUSH1 0xFF AND ISZERO PUSH2 0xD4F JUMPI PUSH1 0x40 MLOAD PUSH32 0x8C379A000000000000000000000000000000000000000000000000000000000 DUP2 MSTORE PUSH1 0x4 ADD PUSH2 0xD46 SWAP1 PUSH2 0x22E0 JUMP JUMPDEST PUSH1 0x40 MLOAD DUP1 SWAP2 SUB SWAP1 REVERT JUMPDEST PUSH1 0x1 PUSH1 0x9 PUSH1 0x14 PUSH2 0x100 EXP DUP2 SLOAD DUP2 PUSH1 0xFF MUL NOT AND SWAP1 DUP4 ISZERO ISZERO MUL OR SWAP1 SSTORE POP PUSH2 0xD92 PUSH1 0x64 PUSH2 0xD84 PUSH1 0x6 SLOAD DUP7 PUSH2 0x1C25 SWAP1 SWAP2 SWAP1 PUSH4 0xFFFFFFFF AND JUMP JUMPDEST PUSH2 0x1C3B SWAP1 SWAP2 SWAP1 PUSH4 0xFFFFFFFF AND JUMP JUMPDEST PUSH1 0x5 DUP2 SWAP1 SSTORE POP PUSH1 0x9 PUSH1 0x0 SWAP1 SLOAD SWAP1 PUSH2 0x100 EXP SWAP1 DIV PUSH20 0xFFFFFFFFFFFFFFFFFFFFFFFFFFFFFFFFFFFFFFFF AND PUSH20 0xFFFFFFFFFFFFFFFFFFFFFFFFFFFFFFFFFFFFFFFF AND PUSH4 0xA9059CBB DUP6 PUSH2 0xDEC PUSH1 0x5 SLOAD DUP8 PUSH2 0x1C51 SWAP1 SWAP2 SWAP1 PUSH4 0xFFFFFFFF AND JUMP JUMPDEST PUSH1 0x40 MLOAD DUP4 PUSH4 0xFFFFFFFF AND PUSH1 0xE0 SHL DUP2 MSTORE PUSH1 0x4 ADD PUSH2 0xE09 SWAP3 SWAP2 SWAP1 PUSH2 0x21A1 JUMP JUMPDEST PUSH1 0x20 PUSH1 0x40 MLOAD DUP1 DUP4 SUB DUP2 PUSH1 0x0 DUP8 DUP1 EXTCODESIZE ISZERO DUP1 ISZERO PUSH2 0xE23 JUMPI PUSH1 0x0 DUP1 REVERT JUMPDEST POP GAS CALL ISZERO DUP1 ISZERO PUSH2 0xE37 JUMPI RETURNDATASIZE PUSH1 0x0 DUP1 RETURNDATACOPY RETURNDATASIZE PUSH1 0x0 REVERT JUMPDEST POP POP POP POP PUSH1 0x40 MLOAD RETURNDATASIZE PUSH1 0x1F NOT PUSH1 0x1F DUP3 ADD AND DUP3 ADD DUP1 PUSH1 0x40 MSTORE POP DUP2 ADD SWAP1 PUSH2 0xE5B SWAP2 SWAP1 PUSH2 0x1D65 JUMP JUMPDEST POP PUSH1 0x9 PUSH1 0x0 SWAP1 SLOAD SWAP1 PUSH2 0x100 EXP SWAP1 DIV PUSH20 0xFFFFFFFFFFFFFFFFFFFFFFFFFFFFFFFFFFFFFFFF AND PUSH20 0xFFFFFFFFFFFFFFFFFFFFFFFFFFFFFFFFFFFFFFFF AND PUSH4 0xA9059CBB PUSH1 0x7 PUSH1 0x0 SWAP1 SLOAD SWAP1 PUSH2 0x100 EXP SWAP1 DIV PUSH20 0xFFFFFFFFFFFFFFFFFFFFFFFFFFFFFFFFFFFFFFFF AND PUSH1 0x5 SLOAD PUSH1 0x40 MLOAD DUP4 PUSH4 0xFFFFFFFF AND PUSH1 0xE0 SHL DUP2 MSTORE PUSH1 0x4 ADD PUSH2 0xEDD SWAP3 SWAP2 SWAP1 PUSH2 0x21A1 JUMP JUMPDEST PUSH1 0x20 PUSH1 0x40 MLOAD DUP1 DUP4 SUB DUP2 PUSH1 0x0 DUP8 DUP1 EXTCODESIZE ISZERO DUP1 ISZERO PUSH2 0xEF7 JUMPI PUSH1 0x0 DUP1 REVERT JUMPDEST POP GAS CALL ISZERO DUP1 ISZERO PUSH2 0xF0B JUMPI RETURNDATASIZE PUSH1 0x0 DUP1 RETURNDATACOPY RETURNDATASIZE PUSH1 0x0 REVERT JUMPDEST POP POP POP POP PUSH1 0x40 MLOAD RETURNDATASIZE PUSH1 0x1F NOT PUSH1 0x1F DUP3 ADD AND DUP3 ADD DUP1 PUSH1 0x40 MSTORE POP DUP2 ADD SWAP1 PUSH2 0xF2F SWAP2 SWAP1 PUSH2 0x1D65 JUMP JUMPDEST POP PUSH1 0x0 PUSH1 0x9 PUSH1 0x14 PUSH2 0x100 EXP DUP2 SLOAD DUP2 PUSH1 0xFF MUL NOT AND SWAP1 DUP4 ISZERO ISZERO MUL OR SWAP1 SSTORE POP JUMPDEST POP POP POP POP POP JUMP JUMPDEST DUP1 PUSH20 0xFFFFFFFFFFFFFFFFFFFFFFFFFFFFFFFFFFFFFFFF AND PUSH1 0x1 PUSH1 0x0 SWAP1 SLOAD SWAP1 PUSH2 0x100 EXP SWAP1 DIV PUSH20 0xFFFFFFFFFFFFFFFFFFFFFFFFFFFFFFFFFFFFFFFF AND PUSH20 0xFFFFFFFFFFFFFFFFFFFFFFFFFFFFFFFFFFFFFFFF AND EQ PUSH2 0xFE3 JUMPI PUSH1 0x40 MLOAD PUSH32 0x8C379A000000000000000000000000000000000000000000000000000000000 DUP2 MSTORE PUSH1 0x4 ADD PUSH2 0xFDA SWAP1 PUSH2 0x2260 JUMP JUMPDEST PUSH1 0x40 MLOAD DUP1 SWAP2 SUB SWAP1 REVERT JUMPDEST PUSH1 0x9 PUSH1 0x14 SWAP1 SLOAD SWAP1 PUSH2 0x100 EXP SWAP1 DIV PUSH1 0xFF AND ISZERO PUSH2 0x1033 JUMPI PUSH1 0x40 MLOAD PUSH32 0x8C379A000000000000000000000000000000000000000000000000000000000 DUP2 MSTORE PUSH1 0x4 ADD PUSH2 0x102A SWAP1 PUSH2 0x22E0 JUMP JUMPDEST PUSH1 0x40 MLOAD DUP1 SWAP2 SUB SWAP1 REVERT JUMPDEST PUSH1 0x1 PUSH1 0x9 PUSH1 0x14 PUSH2 0x100 EXP DUP2 SLOAD DUP2 PUSH1 0xFF MUL NOT AND SWAP1 DUP4 ISZERO ISZERO MUL OR SWAP1 SSTORE POP DUP3 PUSH1 0x2 PUSH1 0x0 PUSH2 0x100 EXP DUP2 SLOAD DUP2 PUSH20 0xFFFFFFFFFFFFFFFFFFFFFFFFFFFFFFFFFFFFFFFF MUL NOT AND SWAP1 DUP4 PUSH20 0xFFFFFFFFFFFFFFFFFFFFFFFFFFFFFFFFFFFFFFFF AND MUL OR SWAP1 SSTORE POP DUP2 PUSH1 0x4 DUP2 SWAP1 SSTORE POP PUSH1 0x0 PUSH1 0x9 PUSH1 0x14 PUSH2 0x100 EXP DUP2 SLOAD DUP2 PUSH1 0xFF MUL NOT AND SWAP1 DUP4 ISZERO ISZERO MUL OR SWAP1 SSTORE POP POP POP POP JUMP JUMPDEST PUSH1 0x8 PUSH1 0x0 SWAP1 SLOAD SWAP1 PUSH2 0x100 EXP SWAP1 DIV PUSH20 0xFFFFFFFFFFFFFFFFFFFFFFFFFFFFFFFFFFFFFFFF AND DUP2 JUMP JUMPDEST PUSH1 0x1 PUSH1 0x0 SWAP1 SLOAD SWAP1 PUSH2 0x100 EXP SWAP1 DIV PUSH20 0xFFFFFFFFFFFFFFFFFFFFFFFFFFFFFFFFFFFFFFFF AND PUSH20 0xFFFFFFFFFFFFFFFFFFFFFFFFFFFFFFFFFFFFFFFF AND DUP2 PUSH20 0xFFFFFFFFFFFFFFFFFFFFFFFFFFFFFFFFFFFFFFFF AND EQ PUSH2 0x116C JUMPI PUSH1 0x40 MLOAD PUSH32 0x8C379A000000000000000000000000000000000000000000000000000000000 DUP2 MSTORE PUSH1 0x4 ADD PUSH2 0x1163 SWAP1 PUSH2 0x23A0 JUMP JUMPDEST PUSH1 0x40 MLOAD DUP1 SWAP2 SUB SWAP1 REVERT JUMPDEST PUSH1 0x1 PUSH1 0xB PUSH1 0x0 PUSH2 0x100 EXP DUP2 SLOAD DUP2 PUSH1 0xFF MUL NOT AND SWAP1 DUP4 ISZERO ISZERO MUL OR SWAP1 SSTORE POP POP JUMP JUMPDEST PUSH1 0x1 PUSH1 0x0 SWAP1 SLOAD SWAP1 PUSH2 0x100 EXP SWAP1 DIV PUSH20 0xFFFFFFFFFFFFFFFFFFFFFFFFFFFFFFFFFFFFFFFF AND DUP2 JUMP JUMPDEST PUSH1 0x2 PUSH1 0x0 SWAP1 SLOAD SWAP1 PUSH2 0x100 EXP SWAP1 DIV PUSH20 0xFFFFFFFFFFFFFFFFFFFFFFFFFFFFFFFFFFFFFFFF AND DUP2 JUMP JUMPDEST PUSH1 0x0 PUSH1 0x1 PUSH1 0x0 SWAP1 SLOAD SWAP1 PUSH2 0x100 EXP SWAP1 DIV PUSH20 0xFFFFFFFFFFFFFFFFFFFFFFFFFFFFFFFFFFFFFFFF AND SWAP1 POP SWAP1 JUMP JUMPDEST PUSH1 0xA SLOAD DUP2 JUMP JUMPDEST PUSH1 0x9 PUSH1 0x14 SWAP1 SLOAD SWAP1 PUSH2 0x100 EXP SWAP1 DIV PUSH1 0xFF AND DUP2 JUMP JUMPDEST PUSH1 0x1 PUSH1 0x0 SWAP1 SLOAD SWAP1 PUSH2 0x100 EXP SWAP1 DIV PUSH20 0xFFFFFFFFFFFFFFFFFFFFFFFFFFFFFFFFFFFFFFFF AND PUSH20 0xFFFFFFFFFFFFFFFFFFFFFFFFFFFFFFFFFFFFFFFF AND DUP2 PUSH20 0xFFFFFFFFFFFFFFFFFFFFFFFFFFFFFFFFFFFFFFFF AND EQ PUSH2 0x12A9 JUMPI PUSH1 0x40 MLOAD PUSH32 0x8C379A000000000000000000000000000000000000000000000000000000000 DUP2 MSTORE PUSH1 0x4 ADD PUSH2 0x12A0 SWAP1 PUSH2 0x2380 JUMP JUMPDEST PUSH1 0x40 MLOAD DUP1 SWAP2 SUB SWAP1 REVERT JUMPDEST PUSH1 0x2 PUSH1 0x14 SWAP1 SLOAD SWAP1 PUSH2 0x100 EXP SWAP1 DIV PUSH1 0xFF AND PUSH2 0x12F8 JUMPI PUSH1 0x40 MLOAD PUSH32 0x8C379A000000000000000000000000000000000000000000000000000000000 DUP2 MSTORE PUSH1 0x4 ADD PUSH2 0x12EF SWAP1 PUSH2 0x2300 JUMP JUMPDEST PUSH1 0x40 MLOAD DUP1 SWAP2 SUB SWAP1 REVERT JUMPDEST PUSH1 0x0 PUSH1 0x2 PUSH1 0x14 PUSH2 0x100 EXP DUP2 SLOAD DUP2 PUSH1 0xFF MUL NOT AND SWAP1 DUP4 ISZERO ISZERO MUL OR SWAP1 SSTORE POP POP JUMP JUMPDEST PUSH1 0x3 SLOAD DUP2 JUMP JUMPDEST PUSH1 0x9 PUSH1 0x0 SWAP1 SLOAD SWAP1 PUSH2 0x100 EXP SWAP1 DIV PUSH20 0xFFFFFFFFFFFFFFFFFFFFFFFFFFFFFFFFFFFFFFFF AND DUP2 JUMP JUMPDEST PUSH1 0x0 DUP1 SLOAD SWAP1 PUSH2 0x100 EXP SWAP1 DIV PUSH20 0xFFFFFFFFFFFFFFFFFFFFFFFFFFFFFFFFFFFFFFFF AND DUP2 JUMP JUMPDEST PUSH1 0x1 PUSH1 0x0 SWAP1 SLOAD SWAP1 PUSH2 0x100 EXP SWAP1 DIV PUSH20 0xFFFFFFFFFFFFFFFFFFFFFFFFFFFFFFFFFFFFFFFF AND PUSH20 0xFFFFFFFFFFFFFFFFFFFFFFFFFFFFFFFFFFFFFFFF AND DUP2 PUSH20 0xFFFFFFFFFFFFFFFFFFFFFFFFFFFFFFFFFFFFFFFF AND EQ PUSH2 0x13F6 JUMPI PUSH1 0x40 MLOAD PUSH32 0x8C379A000000000000000000000000000000000000000000000000000000000 DUP2 MSTORE PUSH1 0x4 ADD PUSH2 0x13ED SWAP1 PUSH2 0x22C0 JUMP JUMPDEST PUSH1 0x40 MLOAD DUP1 SWAP2 SUB SWAP1 REVERT JUMPDEST PUSH1 0xB PUSH1 0x0 SWAP1 SLOAD SWAP1 PUSH2 0x100 EXP SWAP1 DIV PUSH1 0xFF AND ISZERO PUSH2 0x1446 JUMPI PUSH1 0x40 MLOAD PUSH32 0x8C379A000000000000000000000000000000000000000000000000000000000 DUP2 MSTORE PUSH1 0x4 ADD PUSH2 0x143D SWAP1 PUSH2 0x22A0 JUMP JUMPDEST PUSH1 0x40 MLOAD DUP1 SWAP2 SUB SWAP1 REVERT JUMPDEST DUP4 ISZERO PUSH2 0x1673 JUMPI PUSH1 0x0 SELFBALANCE GT PUSH2 0x148F JUMPI PUSH1 0x40 MLOAD PUSH32 0x8C379A000000000000000000000000000000000000000000000000000000000 DUP2 MSTORE PUSH1 0x4 ADD PUSH2 0x1486 SWAP1 PUSH2 0x2320 JUMP JUMPDEST PUSH1 0x40 MLOAD DUP1 SWAP2 SUB SWAP1 REVERT JUMPDEST SELFBALANCE DUP4 GT ISZERO PUSH2 0x14D2 JUMPI PUSH1 0x40 MLOAD PUSH32 0x8C379A000000000000000000000000000000000000000000000000000000000 DUP2 MSTORE PUSH1 0x4 ADD PUSH2 0x14C9 SWAP1 PUSH2 0x23E0 JUMP JUMPDEST PUSH1 0x40 MLOAD DUP1 SWAP2 SUB SWAP1 REVERT JUMPDEST PUSH1 0x9 PUSH1 0x14 SWAP1 SLOAD SWAP1 PUSH2 0x100 EXP SWAP1 DIV PUSH1 0xFF AND ISZERO PUSH2 0x1522 JUMPI PUSH1 0x40 MLOAD PUSH32 0x8C379A000000000000000000000000000000000000000000000000000000000 DUP2 MSTORE PUSH1 0x4 ADD PUSH2 0x1519 SWAP1 PUSH2 0x22E0 JUMP JUMPDEST PUSH1 0x40 MLOAD DUP1 SWAP2 SUB SWAP1 REVERT JUMPDEST PUSH1 0x1 PUSH1 0x9 PUSH1 0x14 PUSH2 0x100 EXP DUP2 SLOAD DUP2 PUSH1 0xFF MUL NOT AND SWAP1 DUP4 ISZERO ISZERO MUL OR SWAP1 SSTORE POP PUSH2 0x1565 PUSH1 0x64 PUSH2 0x1557 PUSH1 0x6 SLOAD DUP7 PUSH2 0x1C25 SWAP1 SWAP2 SWAP1 PUSH4 0xFFFFFFFF AND JUMP JUMPDEST PUSH2 0x1C3B SWAP1 SWAP2 SWAP1 PUSH4 0xFFFFFFFF AND JUMP JUMPDEST PUSH1 0x5 DUP2 SWAP1 SSTORE POP PUSH1 0x1 PUSH1 0x0 SWAP1 SLOAD SWAP1 PUSH2 0x100 EXP SWAP1 DIV PUSH20 0xFFFFFFFFFFFFFFFFFFFFFFFFFFFFFFFFFFFFFFFF AND PUSH20 0xFFFFFFFFFFFFFFFFFFFFFFFFFFFFFFFFFFFFFFFF AND PUSH2 0x8FC PUSH2 0x15BC PUSH1 0x5 SLOAD DUP7 PUSH2 0x1C51 SWAP1 SWAP2 SWAP1 PUSH4 0xFFFFFFFF AND JUMP JUMPDEST SWAP1 DUP2 ISZERO MUL SWAP1 PUSH1 0x40 MLOAD PUSH1 0x0 PUSH1 0x40 MLOAD DUP1 DUP4 SUB DUP2 DUP6 DUP9 DUP9 CALL SWAP4 POP POP POP POP ISZERO DUP1 ISZERO PUSH2 0x15E7 JUMPI RETURNDATASIZE PUSH1 0x0 DUP1 RETURNDATACOPY RETURNDATASIZE PUSH1 0x0 REVERT JUMPDEST POP PUSH1 0x7 PUSH1 0x0 SWAP1 SLOAD SWAP1 PUSH2 0x100 EXP SWAP1 DIV PUSH20 0xFFFFFFFFFFFFFFFFFFFFFFFFFFFFFFFFFFFFFFFF AND PUSH20 0xFFFFFFFFFFFFFFFFFFFFFFFFFFFFFFFFFFFFFFFF AND PUSH2 0x8FC PUSH1 0x5 SLOAD SWAP1 DUP2 ISZERO MUL SWAP1 PUSH1 0x40 MLOAD PUSH1 0x0 PUSH1 0x40 MLOAD DUP1 DUP4 SUB DUP2 DUP6 DUP9 DUP9 CALL SWAP4 POP POP POP POP ISZERO DUP1 ISZERO PUSH2 0x1652 JUMPI RETURNDATASIZE PUSH1 0x0 DUP1 RETURNDATACOPY RETURNDATASIZE PUSH1 0x0 REVERT JUMPDEST POP PUSH1 0x0 PUSH1 0x9 PUSH1 0x14 PUSH2 0x100 EXP DUP2 SLOAD DUP2 PUSH1 0xFF MUL NOT AND SWAP1 DUP4 ISZERO ISZERO MUL OR SWAP1 SSTORE POP PUSH2 0x1AFD JUMP JUMPDEST DUP2 PUSH1 0x9 PUSH1 0x0 PUSH2 0x100 EXP DUP2 SLOAD DUP2 PUSH20 0xFFFFFFFFFFFFFFFFFFFFFFFFFFFFFFFFFFFFFFFF MUL NOT AND SWAP1 DUP4 PUSH20 0xFFFFFFFFFFFFFFFFFFFFFFFFFFFFFFFFFFFFFFFF AND MUL OR SWAP1 SSTORE POP PUSH1 0x0 PUSH1 0x9 PUSH1 0x0 SWAP1 SLOAD SWAP1 PUSH2 0x100 EXP SWAP1 DIV PUSH20 0xFFFFFFFFFFFFFFFFFFFFFFFFFFFFFFFFFFFFFFFF AND PUSH20 0xFFFFFFFFFFFFFFFFFFFFFFFFFFFFFFFFFFFFFFFF AND PUSH4 0x70A08231 ADDRESS PUSH1 0x40 MLOAD DUP3 PUSH4 0xFFFFFFFF AND PUSH1 0xE0 SHL DUP2 MSTORE PUSH1 0x4 ADD PUSH2 0x1711 SWAP2 SWAP1 PUSH2 0x216B JUMP JUMPDEST PUSH1 0x20 PUSH1 0x40 MLOAD DUP1 DUP4 SUB DUP2 DUP7 DUP1 EXTCODESIZE ISZERO DUP1 ISZERO PUSH2 0x1729 JUMPI PUSH1 0x0 DUP1 REVERT JUMPDEST POP GAS STATICCALL ISZERO DUP1 ISZERO PUSH2 0x173D JUMPI RETURNDATASIZE PUSH1 0x0 DUP1 RETURNDATACOPY RETURNDATASIZE PUSH1 0x0 REVERT JUMPDEST POP POP POP POP PUSH1 0x40 MLOAD RETURNDATASIZE PUSH1 0x1F NOT PUSH1 0x1F DUP3 ADD AND DUP3 ADD DUP1 PUSH1 0x40 MSTORE POP DUP2 ADD SWAP1 PUSH2 0x1761 SWAP2 SWAP1 PUSH2 0x1EB4 JUMP JUMPDEST GT PUSH2 0x17A1 JUMPI PUSH1 0x40 MLOAD PUSH32 0x8C379A000000000000000000000000000000000000000000000000000000000 DUP2 MSTORE PUSH1 0x4 ADD PUSH2 0x1798 SWAP1 PUSH2 0x2320 JUMP JUMPDEST PUSH1 0x40 MLOAD DUP1 SWAP2 SUB SWAP1 REVERT JUMPDEST PUSH1 0x9 PUSH1 0x0 SWAP1 SLOAD SWAP1 PUSH2 0x100 EXP SWAP1 DIV PUSH20 0xFFFFFFFFFFFFFFFFFFFFFFFFFFFFFFFFFFFFFFFF AND PUSH20 0xFFFFFFFFFFFFFFFFFFFFFFFFFFFFFFFFFFFFFFFF AND PUSH4 0x70A08231 ADDRESS PUSH1 0x40 MLOAD DUP3 PUSH4 0xFFFFFFFF AND PUSH1 0xE0 SHL DUP2 MSTORE PUSH1 0x4 ADD PUSH2 0x17FC SWAP2 SWAP1 PUSH2 0x216B JUMP JUMPDEST PUSH1 0x20 PUSH1 0x40 MLOAD DUP1 DUP4 SUB DUP2 DUP7 DUP1 EXTCODESIZE ISZERO DUP1 ISZERO PUSH2 0x1814 JUMPI PUSH1 0x0 DUP1 REVERT JUMPDEST POP GAS STATICCALL ISZERO DUP1 ISZERO PUSH2 0x1828 JUMPI RETURNDATASIZE PUSH1 0x0 DUP1 RETURNDATACOPY RETURNDATASIZE PUSH1 0x0 REVERT JUMPDEST POP POP POP POP PUSH1 0x40 MLOAD RETURNDATASIZE PUSH1 0x1F NOT PUSH1 0x1F DUP3 ADD AND DUP3 ADD DUP1 PUSH1 0x40 MSTORE POP DUP2 ADD SWAP1 PUSH2 0x184C SWAP2 SWAP1 PUSH2 0x1EB4 JUMP JUMPDEST DUP4 GT ISZERO PUSH2 0x188E JUMPI PUSH1 0x40 MLOAD PUSH32 0x8C379A000000000000000000000000000000000000000000000000000000000 DUP2 MSTORE PUSH1 0x4 ADD PUSH2 0x1885 SWAP1 PUSH2 0x23E0 JUMP JUMPDEST PUSH1 0x40 MLOAD DUP1 SWAP2 SUB SWAP1 REVERT JUMPDEST PUSH1 0x9 PUSH1 0x14 SWAP1 SLOAD SWAP1 PUSH2 0x100 EXP SWAP1 DIV PUSH1 0xFF AND ISZERO PUSH2 0x18DE JUMPI PUSH1 0x40 MLOAD PUSH32 0x8C379A000000000000000000000000000000000000000000000000000000000 DUP2 MSTORE PUSH1 0x4 ADD PUSH2 0x18D5 SWAP1 PUSH2 0x22E0 JUMP JUMPDEST PUSH1 0x40 MLOAD DUP1 SWAP2 SUB SWAP1 REVERT JUMPDEST PUSH1 0x1 PUSH1 0x9 PUSH1 0x14 PUSH2 0x100 EXP DUP2 SLOAD DUP2 PUSH1 0xFF MUL NOT AND SWAP1 DUP4 ISZERO ISZERO MUL OR SWAP1 SSTORE POP PUSH2 0x1921 PUSH1 0x64 PUSH2 0x1913 PUSH1 0x6 SLOAD DUP7 PUSH2 0x1C25 SWAP1 SWAP2 SWAP1 PUSH4 0xFFFFFFFF AND JUMP JUMPDEST PUSH2 0x1C3B SWAP1 SWAP2 SWAP1 PUSH4 0xFFFFFFFF AND JUMP JUMPDEST PUSH1 0x5 DUP2 SWAP1 SSTORE POP PUSH1 0x9 PUSH1 0x0 SWAP1 SLOAD SWAP1 PUSH2 0x100 EXP SWAP1 DIV PUSH20 0xFFFFFFFFFFFFFFFFFFFFFFFFFFFFFFFFFFFFFFFF AND PUSH20 0xFFFFFFFFFFFFFFFFFFFFFFFFFFFFFFFFFFFFFFFF AND PUSH4 0xA9059CBB PUSH1 0x1 PUSH1 0x0 SWAP1 SLOAD SWAP1 PUSH2 0x100 EXP SWAP1 DIV PUSH20 0xFFFFFFFFFFFFFFFFFFFFFFFFFFFFFFFFFFFFFFFF AND PUSH2 0x199D PUSH1 0x5 SLOAD DUP8 PUSH2 0x1C51 SWAP1 SWAP2 SWAP1 PUSH4 0xFFFFFFFF AND JUMP JUMPDEST PUSH1 0x40 MLOAD DUP4 PUSH4 0xFFFFFFFF AND PUSH1 0xE0 SHL DUP2 MSTORE PUSH1 0x4 ADD PUSH2 0x19BA SWAP3 SWAP2 SWAP1 PUSH2 0x21A1 JUMP JUMPDEST PUSH1 0x20 PUSH1 0x40 MLOAD DUP1 DUP4 SUB DUP2 PUSH1 0x0 DUP8 DUP1 EXTCODESIZE ISZERO DUP1 ISZERO PUSH2 0x19D4 JUMPI PUSH1 0x0 DUP1 REVERT JUMPDEST POP GAS CALL ISZERO DUP1 ISZERO PUSH2 0x19E8 JUMPI RETURNDATASIZE PUSH1 0x0 DUP1 RETURNDATACOPY RETURNDATASIZE PUSH1 0x0 REVERT JUMPDEST POP POP POP POP PUSH1 0x40 MLOAD RETURNDATASIZE PUSH1 0x1F NOT PUSH1 0x1F DUP3 ADD AND DUP3 ADD DUP1 PUSH1 0x40 MSTORE POP DUP2 ADD SWAP1 PUSH2 0x1A0C SWAP2 SWAP1 PUSH2 0x1D65 JUMP JUMPDEST POP PUSH1 0x9 PUSH1 0x0 SWAP1 SLOAD SWAP1 PUSH2 0x100 EXP SWAP1 DIV PUSH20 0xFFFFFFFFFFFFFFFFFFFFFFFFFFFFFFFFFFFFFFFF AND PUSH20 0xFFFFFFFFFFFFFFFFFFFFFFFFFFFFFFFFFFFFFFFF AND PUSH4 0xA9059CBB PUSH1 0x7 PUSH1 0x0 SWAP1 SLOAD SWAP1 PUSH2 0x100 EXP SWAP1 DIV PUSH20 0xFFFFFFFFFFFFFFFFFFFFFFFFFFFFFFFFFFFFFFFF AND PUSH1 0x5 SLOAD PUSH1 0x40 MLOAD DUP4 PUSH4 0xFFFFFFFF AND PUSH1 0xE0 SHL DUP2 MSTORE PUSH1 0x4 ADD PUSH2 0x1A8E SWAP3 SWAP2 SWAP1 PUSH2 0x21A1 JUMP JUMPDEST PUSH1 0x20 PUSH1 0x40 MLOAD DUP1 DUP4 SUB DUP2 PUSH1 0x0 DUP8 DUP1 EXTCODESIZE ISZERO DUP1 ISZERO PUSH2 0x1AA8 JUMPI PUSH1 0x0 DUP1 REVERT JUMPDEST POP GAS CALL ISZERO DUP1 ISZERO PUSH2 0x1ABC JUMPI RETURNDATASIZE PUSH1 0x0 DUP1 RETURNDATACOPY RETURNDATASIZE PUSH1 0x0 REVERT JUMPDEST POP POP POP POP PUSH1 0x40 MLOAD RETURNDATASIZE PUSH1 0x1F NOT PUSH1 0x1F DUP3 ADD AND DUP3 ADD DUP1 PUSH1 0x40 MSTORE POP DUP2 ADD SWAP1 PUSH2 0x1AE0 SWAP2 SWAP1 PUSH2 0x1D65 JUMP JUMPDEST POP PUSH1 0x0 PUSH1 0x9 PUSH1 0x14 PUSH2 0x100 EXP DUP2 SLOAD DUP2 PUSH1 0xFF MUL NOT AND SWAP1 DUP4 ISZERO ISZERO MUL OR SWAP1 SSTORE POP JUMPDEST POP POP POP POP JUMP JUMPDEST DUP1 PUSH20 0xFFFFFFFFFFFFFFFFFFFFFFFFFFFFFFFFFFFFFFFF AND PUSH1 0x2 PUSH1 0x0 SWAP1 SLOAD SWAP1 PUSH2 0x100 EXP SWAP1 DIV PUSH20 0xFFFFFFFFFFFFFFFFFFFFFFFFFFFFFFFFFFFFFFFF AND PUSH20 0xFFFFFFFFFFFFFFFFFFFFFFFFFFFFFFFFFFFFFFFF AND EQ PUSH2 0x1B93 JUMPI PUSH1 0x40 MLOAD PUSH32 0x8C379A000000000000000000000000000000000000000000000000000000000 DUP2 MSTORE PUSH1 0x4 ADD PUSH2 0x1B8A SWAP1 PUSH2 0x2280 JUMP JUMPDEST PUSH1 0x40 MLOAD DUP1 SWAP2 SUB SWAP1 REVERT JUMPDEST PUSH1 0x2 PUSH1 0x14 SWAP1 SLOAD SWAP1 PUSH2 0x100 EXP SWAP1 DIV PUSH1 0xFF AND ISZERO PUSH2 0x1BE3 JUMPI PUSH1 0x40 MLOAD PUSH32 0x8C379A000000000000000000000000000000000000000000000000000000000 DUP2 MSTORE PUSH1 0x4 ADD PUSH2 0x1BDA SWAP1 PUSH2 0x2340 JUMP JUMPDEST PUSH1 0x40 MLOAD DUP1 SWAP2 SUB SWAP1 REVERT JUMPDEST PUSH1 0x1 PUSH1 0x2 PUSH1 0x14 PUSH2 0x100 EXP DUP2 SLOAD DUP2 PUSH1 0xFF MUL NOT AND SWAP1 DUP4 ISZERO ISZERO MUL OR SWAP1 SSTORE POP TIMESTAMP PUSH1 0x3 DUP2 SWAP1 SSTORE POP POP JUMP JUMPDEST PUSH1 0x0 PUSH1 0x6 SLOAD SWAP1 POP SWAP1 JUMP JUMPDEST PUSH1 0x2 PUSH1 0x14 SWAP1 SLOAD SWAP1 PUSH2 0x100 EXP SWAP1 DIV PUSH1 0xFF AND DUP2 JUMP JUMPDEST PUSH1 0x0 DUP2 DUP4 PUSH2 0x1C33 SWAP2 SWAP1 PUSH2 0x24B3 JUMP JUMPDEST SWAP1 POP SWAP3 SWAP2 POP POP JUMP JUMPDEST PUSH1 0x0 DUP2 DUP4 PUSH2 0x1C49 SWAP2 SWAP1 PUSH2 0x2482 JUMP JUMPDEST SWAP1 POP SWAP3 SWAP2 POP POP JUMP JUMPDEST PUSH1 0x0 DUP2 DUP4 PUSH2 0x1C5F SWAP2 SWAP1 PUSH2 0x250D JUMP JUMPDEST SWAP1 POP SWAP3 SWAP2 POP POP JUMP JUMPDEST PUSH1 0x0 DUP2 CALLDATALOAD SWAP1 POP PUSH2 0x1C76 DUP2 PUSH2 0x2A78 JUMP JUMPDEST SWAP3 SWAP2 POP POP JUMP JUMPDEST PUSH1 0x0 DUP2 CALLDATALOAD SWAP1 POP PUSH2 0x1C8B DUP2 PUSH2 0x2A8F JUMP JUMPDEST SWAP3 SWAP2 POP POP JUMP JUMPDEST PUSH1 0x0 DUP2 CALLDATALOAD SWAP1 POP PUSH2 0x1CA0 DUP2 PUSH2 0x2AA6 JUMP JUMPDEST SWAP3 SWAP2 POP POP JUMP JUMPDEST PUSH1 0x0 DUP2 MLOAD SWAP1 POP PUSH2 0x1CB5 DUP2 PUSH2 0x2AA6 JUMP JUMPDEST SWAP3 SWAP2 POP POP JUMP JUMPDEST PUSH1 0x0 DUP2 CALLDATALOAD SWAP1 POP PUSH2 0x1CCA DUP2 PUSH2 0x2ABD JUMP JUMPDEST SWAP3 SWAP2 POP POP JUMP JUMPDEST PUSH1 0x0 DUP2 MLOAD SWAP1 POP PUSH2 0x1CDF DUP2 PUSH2 0x2ABD JUMP JUMPDEST SWAP3 SWAP2 POP POP JUMP JUMPDEST PUSH1 0x0 PUSH1 0x20 DUP3 DUP5 SUB SLT ISZERO PUSH2 0x1CFB JUMPI PUSH2 0x1CFA PUSH2 0x2641 JUMP JUMPDEST JUMPDEST PUSH1 0x0 PUSH2 0x1D09 DUP5 DUP3 DUP6 ADD PUSH2 0x1C67 JUMP JUMPDEST SWAP2 POP POP SWAP3 SWAP2 POP POP JUMP JUMPDEST PUSH1 0x0 DUP1 PUSH1 0x0 PUSH1 0x60 DUP5 DUP7 SUB SLT ISZERO PUSH2 0x1D2B JUMPI PUSH2 0x1D2A PUSH2 0x2641 JUMP JUMPDEST JUMPDEST PUSH1 0x0 PUSH2 0x1D39 DUP7 DUP3 DUP8 ADD PUSH2 0x1C7C JUMP JUMPDEST SWAP4 POP POP PUSH1 0x20 PUSH2 0x1D4A DUP7 DUP3 DUP8 ADD PUSH2 0x1CBB JUMP JUMPDEST SWAP3 POP POP PUSH1 0x40 PUSH2 0x1D5B DUP7 DUP3 DUP8 ADD PUSH2 0x1C67 JUMP JUMPDEST SWAP2 POP POP SWAP3 POP SWAP3 POP SWAP3 JUMP JUMPDEST PUSH1 0x0 PUSH1 0x20 DUP3 DUP5 SUB SLT ISZERO PUSH2 0x1D7B JUMPI PUSH2 0x1D7A PUSH2 0x2641 JUMP JUMPDEST JUMPDEST PUSH1 0x0 PUSH2 0x1D89 DUP5 DUP3 DUP6 ADD PUSH2 0x1CA6 JUMP JUMPDEST SWAP2 POP POP SWAP3 SWAP2 POP POP JUMP JUMPDEST PUSH1 0x0 DUP1 PUSH1 0x40 DUP4 DUP6 SUB SLT ISZERO PUSH2 0x1DA9 JUMPI PUSH2 0x1DA8 PUSH2 0x2641 JUMP JUMPDEST JUMPDEST PUSH1 0x0 PUSH2 0x1DB7 DUP6 DUP3 DUP7 ADD PUSH2 0x1C91 JUMP JUMPDEST SWAP3 POP POP PUSH1 0x20 PUSH2 0x1DC8 DUP6 DUP3 DUP7 ADD PUSH2 0x1C67 JUMP JUMPDEST SWAP2 POP POP SWAP3 POP SWAP3 SWAP1 POP JUMP JUMPDEST PUSH1 0x0 DUP1 PUSH1 0x0 DUP1 PUSH1 0x0 PUSH1 0xA0 DUP7 DUP9 SUB SLT ISZERO PUSH2 0x1DEE JUMPI PUSH2 0x1DED PUSH2 0x2641 JUMP JUMPDEST JUMPDEST PUSH1 0x0 PUSH2 0x1DFC DUP9 DUP3 DUP10 ADD PUSH2 0x1C91 JUMP JUMPDEST SWAP6 POP POP PUSH1 0x20 PUSH2 0x1E0D DUP9 DUP3 DUP10 ADD PUSH2 0x1C7C JUMP JUMPDEST SWAP5 POP POP PUSH1 0x40 PUSH2 0x1E1E DUP9 DUP3 DUP10 ADD PUSH2 0x1CBB JUMP JUMPDEST SWAP4 POP POP PUSH1 0x60 PUSH2 0x1E2F DUP9 DUP3 DUP10 ADD PUSH2 0x1C67 JUMP JUMPDEST SWAP3 POP POP PUSH1 0x80 PUSH2 0x1E40 DUP9 DUP3 DUP10 ADD PUSH2 0x1C67 JUMP JUMPDEST SWAP2 POP POP SWAP3 SWAP6 POP SWAP3 SWAP6 SWAP1 SWAP4 POP JUMP JUMPDEST PUSH1 0x0 DUP1 PUSH1 0x0 DUP1 PUSH1 0x80 DUP6 DUP8 SUB SLT ISZERO PUSH2 0x1E67 JUMPI PUSH2 0x1E66 PUSH2 0x2641 JUMP JUMPDEST JUMPDEST PUSH1 0x0 PUSH2 0x1E75 DUP8 DUP3 DUP9 ADD PUSH2 0x1C91 JUMP JUMPDEST SWAP5 POP POP PUSH1 0x20 PUSH2 0x1E86 DUP8 DUP3 DUP9 ADD PUSH2 0x1CBB JUMP JUMPDEST SWAP4 POP POP PUSH1 0x40 PUSH2 0x1E97 DUP8 DUP3 DUP9 ADD PUSH2 0x1C67 JUMP JUMPDEST SWAP3 POP POP PUSH1 0x60 PUSH2 0x1EA8 DUP8 DUP3 DUP9 ADD PUSH2 0x1C67 JUMP JUMPDEST SWAP2 POP POP SWAP3 SWAP6 SWAP2 SWAP5 POP SWAP3 POP JUMP JUMPDEST PUSH1 0x0 PUSH1 0x20 DUP3 DUP5 SUB SLT ISZERO PUSH2 0x1ECA JUMPI PUSH2 0x1EC9 PUSH2 0x2641 JUMP JUMPDEST JUMPDEST PUSH1 0x0 PUSH2 0x1ED8 DUP5 DUP3 DUP6 ADD PUSH2 0x1CD0 JUMP JUMPDEST SWAP2 POP POP SWAP3 SWAP2 POP POP JUMP JUMPDEST PUSH2 0x1EEA DUP2 PUSH2 0x259B JUMP JUMPDEST DUP3 MSTORE POP POP JUMP JUMPDEST PUSH2 0x1EF9 DUP2 PUSH2 0x2553 JUMP JUMPDEST DUP3 MSTORE POP POP JUMP JUMPDEST PUSH2 0x1F08 DUP2 PUSH2 0x2541 JUMP JUMPDEST DUP3 MSTORE POP POP JUMP JUMPDEST PUSH2 0x1F17 DUP2 PUSH2 0x2565 JUMP JUMPDEST DUP3 MSTORE POP POP JUMP JUMPDEST PUSH2 0x1F26 DUP2 PUSH2 0x25AD JUMP JUMPDEST DUP3 MSTORE POP POP JUMP JUMPDEST PUSH1 0x0 PUSH2 0x1F39 PUSH1 0x24 DUP4 PUSH2 0x241B JUMP JUMPDEST SWAP2 POP PUSH2 0x1F44 DUP3 PUSH2 0x2646 JUMP JUMPDEST PUSH1 0x40 DUP3 ADD SWAP1 POP SWAP2 SWAP1 POP JUMP JUMPDEST PUSH1 0x0 PUSH2 0x1F5C PUSH1 0x25 DUP4 PUSH2 0x241B JUMP JUMPDEST SWAP2 POP PUSH2 0x1F67 DUP3 PUSH2 0x2695 JUMP JUMPDEST PUSH1 0x40 DUP3 ADD SWAP1 POP SWAP2 SWAP1 POP JUMP JUMPDEST PUSH1 0x0 PUSH2 0x1F7F PUSH1 0x1C DUP4 PUSH2 0x241B JUMP JUMPDEST SWAP2 POP PUSH2 0x1F8A DUP3 PUSH2 0x26E4 JUMP JUMPDEST PUSH1 0x20 DUP3 ADD SWAP1 POP SWAP2 SWAP1 POP JUMP JUMPDEST PUSH1 0x0 PUSH2 0x1FA2 PUSH1 0x20 DUP4 PUSH2 0x241B JUMP JUMPDEST SWAP2 POP PUSH2 0x1FAD DUP3 PUSH2 0x270D JUMP JUMPDEST PUSH1 0x20 DUP3 ADD SWAP1 POP SWAP2 SWAP1 POP JUMP JUMPDEST PUSH1 0x0 PUSH2 0x1FC5 PUSH1 0x2D DUP4 PUSH2 0x241B JUMP JUMPDEST SWAP2 POP PUSH2 0x1FD0 DUP3 PUSH2 0x2736 JUMP JUMPDEST PUSH1 0x40 DUP3 ADD SWAP1 POP SWAP2 SWAP1 POP JUMP JUMPDEST PUSH1 0x0 PUSH2 0x1FE8 PUSH1 0x29 DUP4 PUSH2 0x241B JUMP JUMPDEST SWAP2 POP PUSH2 0x1FF3 DUP3 PUSH2 0x2785 JUMP JUMPDEST PUSH1 0x40 DUP3 ADD SWAP1 POP SWAP2 SWAP1 POP JUMP JUMPDEST PUSH1 0x0 PUSH2 0x200B PUSH1 0x22 DUP4 PUSH2 0x241B JUMP JUMPDEST SWAP2 POP PUSH2 0x2016 DUP3 PUSH2 0x27D4 JUMP JUMPDEST PUSH1 0x40 DUP3 ADD SWAP1 POP SWAP2 SWAP1 POP JUMP JUMPDEST PUSH1 0x0 PUSH2 0x202E PUSH1 0x25 DUP4 PUSH2 0x241B JUMP JUMPDEST SWAP2 POP PUSH2 0x2039 DUP3 PUSH2 0x2823 JUMP JUMPDEST PUSH1 0x40 DUP3 ADD SWAP1 POP SWAP2 SWAP1 POP JUMP JUMPDEST PUSH1 0x0 PUSH2 0x2051 PUSH1 0x21 DUP4 PUSH2 0x241B JUMP JUMPDEST SWAP2 POP PUSH2 0x205C DUP3 PUSH2 0x2872 JUMP JUMPDEST PUSH1 0x40 DUP3 ADD SWAP1 POP SWAP2 SWAP1 POP JUMP JUMPDEST PUSH1 0x0 PUSH2 0x2074 PUSH1 0x1F DUP4 PUSH2 0x241B JUMP JUMPDEST SWAP2 POP PUSH2 0x207F DUP3 PUSH2 0x28C1 JUMP JUMPDEST PUSH1 0x20 DUP3 ADD SWAP1 POP SWAP2 SWAP1 POP JUMP JUMPDEST PUSH1 0x0 PUSH2 0x2097 PUSH1 0x25 DUP4 PUSH2 0x241B JUMP JUMPDEST SWAP2 POP PUSH2 0x20A2 DUP3 PUSH2 0x28EA JUMP JUMPDEST PUSH1 0x40 DUP3 ADD SWAP1 POP SWAP2 SWAP1 POP JUMP JUMPDEST PUSH1 0x0 PUSH2 0x20BA PUSH1 0x22 DUP4 PUSH2 0x241B JUMP JUMPDEST SWAP2 POP PUSH2 0x20C5 DUP3 PUSH2 0x2939 JUMP JUMPDEST PUSH1 0x40 DUP3 ADD SWAP1 POP SWAP2 SWAP1 POP JUMP JUMPDEST PUSH1 0x0 PUSH2 0x20DD PUSH1 0x20 DUP4 PUSH2 0x241B JUMP JUMPDEST SWAP2 POP PUSH2 0x20E8 DUP3 PUSH2 0x2988 JUMP JUMPDEST PUSH1 0x20 DUP3 ADD SWAP1 POP SWAP2 SWAP1 POP JUMP JUMPDEST PUSH1 0x0 PUSH2 0x2100 PUSH1 0x26 DUP4 PUSH2 0x241B JUMP JUMPDEST SWAP2 POP PUSH2 0x210B DUP3 PUSH2 0x29B1 JUMP JUMPDEST PUSH1 0x40 DUP3 ADD SWAP1 POP SWAP2 SWAP1 POP JUMP JUMPDEST PUSH1 0x0 PUSH2 0x2123 PUSH1 0x28 DUP4 PUSH2 0x241B JUMP JUMPDEST SWAP2 POP PUSH2 0x212E DUP3 PUSH2 0x2A00 JUMP JUMPDEST PUSH1 0x40 DUP3 ADD SWAP1 POP SWAP2 SWAP1 POP JUMP JUMPDEST PUSH1 0x0 PUSH2 0x2146 PUSH1 0x13 DUP4 PUSH2 0x241B JUMP JUMPDEST SWAP2 POP PUSH2 0x2151 DUP3 PUSH2 0x2A4F JUMP JUMPDEST PUSH1 0x20 DUP3 ADD SWAP1 POP SWAP2 SWAP1 POP JUMP JUMPDEST PUSH2 0x2165 DUP2 PUSH2 0x2591 JUMP JUMPDEST DUP3 MSTORE POP POP JUMP JUMPDEST PUSH1 0x0 PUSH1 0x20 DUP3 ADD SWAP1 POP PUSH2 0x2180 PUSH1 0x0 DUP4 ADD DUP5 PUSH2 0x1EFF JUMP JUMPDEST SWAP3 SWAP2 POP POP JUMP JUMPDEST PUSH1 0x0 PUSH1 0x20 DUP3 ADD SWAP1 POP PUSH2 0x219B PUSH1 0x0 DUP4 ADD DUP5 PUSH2 0x1EF0 JUMP JUMPDEST SWAP3 SWAP2 POP POP JUMP JUMPDEST PUSH1 0x0 PUSH1 0x40 DUP3 ADD SWAP1 POP PUSH2 0x21B6 PUSH1 0x0 DUP4 ADD DUP6 PUSH2 0x1EE1 JUMP JUMPDEST PUSH2 0x21C3 PUSH1 0x20 DUP4 ADD DUP5 PUSH2 0x215C JUMP JUMPDEST SWAP4 SWAP3 POP POP POP JUMP JUMPDEST PUSH1 0x0 PUSH1 0x20 DUP3 ADD SWAP1 POP PUSH2 0x21DF PUSH1 0x0 DUP4 ADD DUP5 PUSH2 0x1F0E JUMP JUMPDEST SWAP3 SWAP2 POP POP JUMP JUMPDEST PUSH1 0x0 PUSH1 0x20 DUP3 ADD SWAP1 POP PUSH2 0x21FA PUSH1 0x0 DUP4 ADD DUP5 PUSH2 0x1F1D JUMP JUMPDEST SWAP3 SWAP2 POP POP JUMP JUMPDEST PUSH1 0x0 PUSH1 0x20 DUP3 ADD SWAP1 POP DUP2 DUP2 SUB PUSH1 0x0 DUP4 ADD MSTORE PUSH2 0x2219 DUP2 PUSH2 0x1F2C JUMP JUMPDEST SWAP1 POP SWAP2 SWAP1 POP JUMP JUMPDEST PUSH1 0x0 PUSH1 0x20 DUP3 ADD SWAP1 POP DUP2 DUP2 SUB PUSH1 0x0 DUP4 ADD MSTORE PUSH2 0x2239 DUP2 PUSH2 0x1F4F JUMP JUMPDEST SWAP1 POP SWAP2 SWAP1 POP JUMP JUMPDEST PUSH1 0x0 PUSH1 0x20 DUP3 ADD SWAP1 POP DUP2 DUP2 SUB PUSH1 0x0 DUP4 ADD MSTORE PUSH2 0x2259 DUP2 PUSH2 0x1F72 JUMP JUMPDEST SWAP1 POP SWAP2 SWAP1 POP JUMP JUMPDEST PUSH1 0x0 PUSH1 0x20 DUP3 ADD SWAP1 POP DUP2 DUP2 SUB PUSH1 0x0 DUP4 ADD MSTORE PUSH2 0x2279 DUP2 PUSH2 0x1F95 JUMP JUMPDEST SWAP1 POP SWAP2 SWAP1 POP JUMP JUMPDEST PUSH1 0x0 PUSH1 0x20 DUP3 ADD SWAP1 POP DUP2 DUP2 SUB PUSH1 0x0 DUP4 ADD MSTORE PUSH2 0x2299 DUP2 PUSH2 0x1FB8 JUMP JUMPDEST SWAP1 POP SWAP2 SWAP1 POP JUMP JUMPDEST PUSH1 0x0 PUSH1 0x20 DUP3 ADD SWAP1 POP DUP2 DUP2 SUB PUSH1 0x0 DUP4 ADD MSTORE PUSH2 0x22B9 DUP2 PUSH2 0x1FDB JUMP JUMPDEST SWAP1 POP SWAP2 SWAP1 POP JUMP JUMPDEST PUSH1 0x0 PUSH1 0x20 DUP3 ADD SWAP1 POP DUP2 DUP2 SUB PUSH1 0x0 DUP4 ADD MSTORE PUSH2 0x22D9 DUP2 PUSH2 0x1FFE JUMP JUMPDEST SWAP1 POP SWAP2 SWAP1 POP JUMP JUMPDEST PUSH1 0x0 PUSH1 0x20 DUP3 ADD SWAP1 POP DUP2 DUP2 SUB PUSH1 0x0 DUP4 ADD MSTORE PUSH2 0x22F9 DUP2 PUSH2 0x2021 JUMP JUMPDEST SWAP1 POP SWAP2 SWAP1 POP JUMP JUMPDEST PUSH1 0x0 PUSH1 0x20 DUP3 ADD SWAP1 POP DUP2 DUP2 SUB PUSH1 0x0 DUP4 ADD MSTORE PUSH2 0x2319 DUP2 PUSH2 0x2044 JUMP JUMPDEST SWAP1 POP SWAP2 SWAP1 POP JUMP JUMPDEST PUSH1 0x0 PUSH1 0x20 DUP3 ADD SWAP1 POP DUP2 DUP2 SUB PUSH1 0x0 DUP4 ADD MSTORE PUSH2 0x2339 DUP2 PUSH2 0x2067 JUMP JUMPDEST SWAP1 POP SWAP2 SWAP1 POP JUMP JUMPDEST PUSH1 0x0 PUSH1 0x20 DUP3 ADD SWAP1 POP DUP2 DUP2 SUB PUSH1 0x0 DUP4 ADD MSTORE PUSH2 0x2359 DUP2 PUSH2 0x208A JUMP JUMPDEST SWAP1 POP SWAP2 SWAP1 POP JUMP JUMPDEST PUSH1 0x0 PUSH1 0x20 DUP3 ADD SWAP1 POP DUP2 DUP2 SUB PUSH1 0x0 DUP4 ADD MSTORE PUSH2 0x2379 DUP2 PUSH2 0x20AD JUMP JUMPDEST SWAP1 POP SWAP2 SWAP1 POP JUMP JUMPDEST PUSH1 0x0 PUSH1 0x20 DUP3 ADD SWAP1 POP DUP2 DUP2 SUB PUSH1 0x0 DUP4 ADD MSTORE PUSH2 0x2399 DUP2 PUSH2 0x20D0 JUMP JUMPDEST SWAP1 POP SWAP2 SWAP1 POP JUMP JUMPDEST PUSH1 0x0 PUSH1 0x20 DUP3 ADD SWAP1 POP DUP2 DUP2 SUB PUSH1 0x0 DUP4 ADD MSTORE PUSH2 0x23B9 DUP2 PUSH2 0x20F3 JUMP JUMPDEST SWAP1 POP SWAP2 SWAP1 POP JUMP JUMPDEST PUSH1 0x0 PUSH1 0x20 DUP3 ADD SWAP1 POP DUP2 DUP2 SUB PUSH1 0x0 DUP4 ADD MSTORE PUSH2 0x23D9 DUP2 PUSH2 0x2116 JUMP JUMPDEST SWAP1 POP SWAP2 SWAP1 POP JUMP JUMPDEST PUSH1 0x0 PUSH1 0x20 DUP3 ADD SWAP1 POP DUP2 DUP2 SUB PUSH1 0x0 DUP4 ADD MSTORE PUSH2 0x23F9 DUP2 PUSH2 0x2139 JUMP JUMPDEST SWAP1 POP SWAP2 SWAP1 POP JUMP JUMPDEST PUSH1 0x0 PUSH1 0x20 DUP3 ADD SWAP1 POP PUSH2 0x2415 PUSH1 0x0 DUP4 ADD DUP5 PUSH2 0x215C JUMP JUMPDEST SWAP3 SWAP2 POP POP JUMP JUMPDEST PUSH1 0x0 DUP3 DUP3 MSTORE PUSH1 0x20 DUP3 ADD SWAP1 POP SWAP3 SWAP2 POP POP JUMP JUMPDEST PUSH1 0x0 PUSH2 0x2437 DUP3 PUSH2 0x2591 JUMP JUMPDEST SWAP2 POP PUSH2 0x2442 DUP4 PUSH2 0x2591 JUMP JUMPDEST SWAP3 POP DUP3 PUSH32 0xFFFFFFFFFFFFFFFFFFFFFFFFFFFFFFFFFFFFFFFFFFFFFFFFFFFFFFFFFFFFFFFF SUB DUP3 GT ISZERO PUSH2 0x2477 JUMPI PUSH2 0x2476 PUSH2 0x25E3 JUMP JUMPDEST JUMPDEST DUP3 DUP3 ADD SWAP1 POP SWAP3 SWAP2 POP POP JUMP JUMPDEST PUSH1 0x0 PUSH2 0x248D DUP3 PUSH2 0x2591 JUMP JUMPDEST SWAP2 POP PUSH2 0x2498 DUP4 PUSH2 0x2591 JUMP JUMPDEST SWAP3 POP DUP3 PUSH2 0x24A8 JUMPI PUSH2 0x24A7 PUSH2 0x2612 JUMP JUMPDEST JUMPDEST DUP3 DUP3 DIV SWAP1 POP SWAP3 SWAP2 POP POP JUMP JUMPDEST PUSH1 0x0 PUSH2 0x24BE DUP3 PUSH2 0x2591 JUMP JUMPDEST SWAP2 POP PUSH2 0x24C9 DUP4 PUSH2 0x2591 JUMP JUMPDEST SWAP3 POP DUP2 PUSH32 0xFFFFFFFFFFFFFFFFFFFFFFFFFFFFFFFFFFFFFFFFFFFFFFFFFFFFFFFFFFFFFFFF DIV DUP4 GT DUP3 ISZERO ISZERO AND ISZERO PUSH2 0x2502 JUMPI PUSH2 0x2501 PUSH2 0x25E3 JUMP JUMPDEST JUMPDEST DUP3 DUP3 MUL SWAP1 POP SWAP3 SWAP2 POP POP JUMP JUMPDEST PUSH1 0x0 PUSH2 0x2518 DUP3 PUSH2 0x2591 JUMP JUMPDEST SWAP2 POP PUSH2 0x2523 DUP4 PUSH2 0x2591 JUMP JUMPDEST SWAP3 POP DUP3 DUP3 LT ISZERO PUSH2 0x2536 JUMPI PUSH2 0x2535 PUSH2 0x25E3 JUMP JUMPDEST JUMPDEST DUP3 DUP3 SUB SWAP1 POP SWAP3 SWAP2 POP POP JUMP JUMPDEST PUSH1 0x0 PUSH2 0x254C DUP3 PUSH2 0x2571 JUMP JUMPDEST SWAP1 POP SWAP2 SWAP1 POP JUMP JUMPDEST PUSH1 0x0 PUSH2 0x255E DUP3 PUSH2 0x2571 JUMP JUMPDEST SWAP1 POP SWAP2 SWAP1 POP JUMP JUMPDEST PUSH1 0x0 DUP2 ISZERO ISZERO SWAP1 POP SWAP2 SWAP1 POP JUMP JUMPDEST PUSH1 0x0 PUSH20 0xFFFFFFFFFFFFFFFFFFFFFFFFFFFFFFFFFFFFFFFF DUP3 AND SWAP1 POP SWAP2 SWAP1 POP JUMP JUMPDEST PUSH1 0x0 DUP2 SWAP1 POP SWAP2 SWAP1 POP JUMP JUMPDEST PUSH1 0x0 PUSH2 0x25A6 DUP3 PUSH2 0x25BF JUMP JUMPDEST SWAP1 POP SWAP2 SWAP1 POP JUMP JUMPDEST PUSH1 0x0 PUSH2 0x25B8 DUP3 PUSH2 0x25BF JUMP JUMPDEST SWAP1 POP SWAP2 SWAP1 POP JUMP JUMPDEST PUSH1 0x0 PUSH2 0x25CA DUP3 PUSH2 0x25D1 JUMP JUMPDEST SWAP1 POP SWAP2 SWAP1 POP JUMP JUMPDEST PUSH1 0x0 PUSH2 0x25DC DUP3 PUSH2 0x2571 JUMP JUMPDEST SWAP1 POP SWAP2 SWAP1 POP JUMP JUMPDEST PUSH32 0x4E487B7100000000000000000000000000000000000000000000000000000000 PUSH1 0x0 MSTORE PUSH1 0x11 PUSH1 0x4 MSTORE PUSH1 0x24 PUSH1 0x0 REVERT JUMPDEST PUSH32 0x4E487B7100000000000000000000000000000000000000000000000000000000 PUSH1 0x0 MSTORE PUSH1 0x12 PUSH1 0x4 MSTORE PUSH1 0x24 PUSH1 0x0 REVERT JUMPDEST PUSH1 0x0 DUP1 REVERT JUMPDEST PUSH32 0x4F6E6C792074686520686569722063616E20636C61696D20746865206163636F PUSH1 0x0 DUP3 ADD MSTORE PUSH32 0x756E742E00000000000000000000000000000000000000000000000000000000 PUSH1 0x20 DUP3 ADD MSTORE POP JUMP JUMPDEST PUSH32 0x436C61696D2070726F6365737320686173206E6F74206265656E20696E697469 PUSH1 0x0 DUP3 ADD MSTORE PUSH32 0x617465642E000000000000000000000000000000000000000000000000000000 PUSH1 0x20 DUP3 ADD MSTORE POP JUMP JUMPDEST PUSH32 0x436C61696D2064656C617920686173206E6F7420657870697265642E00000000 PUSH1 0x0 DUP3 ADD MSTORE POP JUMP JUMPDEST PUSH32 0x4F6E6C7920746865206F776E65722063616E207365742074686520686569722E PUSH1 0x0 DUP3 ADD MSTORE POP JUMP JUMPDEST PUSH32 0x4F6E6C792074686520686569722063616E20696E697469617465207468652063 PUSH1 0x0 DUP3 ADD MSTORE PUSH32 0x6C61696D2070726F636573732E00000000000000000000000000000000000000 PUSH1 0x20 DUP3 ADD MSTORE POP JUMP JUMPDEST PUSH32 0x4163636F756E742069732066726F7A656E2C2063616E6E6F7420776974686472 PUSH1 0x0 DUP3 ADD MSTORE PUSH32 0x61772066756E64732E0000000000000000000000000000000000000000000000 PUSH1 0x20 DUP3 ADD MSTORE POP JUMP JUMPDEST PUSH32 0x4F6E6C7920746865206F776E65722063616E2077697468647261772066756E64 PUSH1 0x0 DUP3 ADD MSTORE PUSH32 0x732E000000000000000000000000000000000000000000000000000000000000 PUSH1 0x20 DUP3 ADD MSTORE POP JUMP JUMPDEST PUSH32 0x5468652066756E6374696F6E20697320616C726561647920696E206578656375 PUSH1 0x0 DUP3 ADD MSTORE PUSH32 0x74696F6E2E000000000000000000000000000000000000000000000000000000 PUSH1 0x20 DUP3 ADD MSTORE POP JUMP JUMPDEST PUSH32 0x5468657265206973206E6F2061637469766520636C61696D20746F2073746F70 PUSH1 0x0 DUP3 ADD MSTORE PUSH32 0x2E00000000000000000000000000000000000000000000000000000000000000 PUSH1 0x20 DUP3 ADD MSTORE POP JUMP JUMPDEST PUSH32 0x546865726520617265206E6F2066756E647320746F2077697468647261772E00 PUSH1 0x0 DUP3 ADD MSTORE POP JUMP JUMPDEST PUSH32 0x436C61696D2070726F6365737320697320616C726561647920696E2070726F67 PUSH1 0x0 DUP3 ADD MSTORE PUSH32 0x726573732E000000000000000000000000000000000000000000000000000000 PUSH1 0x20 DUP3 ADD MSTORE POP JUMP JUMPDEST PUSH32 0x4F6E6C7920746865206F776E65722063616E207472616E736665722066756E64 PUSH1 0x0 DUP3 ADD MSTORE PUSH32 0x732E000000000000000000000000000000000000000000000000000000000000 PUSH1 0x20 DUP3 ADD MSTORE POP JUMP JUMPDEST PUSH32 0x4F6E6C7920746865206F776E65722063616E2073746F70206120636C61696D2E PUSH1 0x0 DUP3 ADD MSTORE POP JUMP JUMPDEST PUSH32 0x4F6E6C7920746865206F776E65722063616E20667265657A6520746865206163 PUSH1 0x0 DUP3 ADD MSTORE PUSH32 0x636F756E742E0000000000000000000000000000000000000000000000000000 PUSH1 0x20 DUP3 ADD MSTORE POP JUMP JUMPDEST PUSH32 0x4F6E6C7920746865206F776E65722063616E20756E667265657A652074686520 PUSH1 0x0 DUP3 ADD MSTORE PUSH32 0x6163636F756E742E000000000000000000000000000000000000000000000000 PUSH1 0x20 DUP3 ADD MSTORE POP JUMP JUMPDEST PUSH32 0x496E73756666696369656E742066756E64732E00000000000000000000000000 PUSH1 0x0 DUP3 ADD MSTORE POP JUMP JUMPDEST PUSH2 0x2A81 DUP2 PUSH2 0x2541 JUMP JUMPDEST DUP2 EQ PUSH2 0x2A8C JUMPI PUSH1 0x0 DUP1 REVERT JUMPDEST POP JUMP JUMPDEST PUSH2 0x2A98 DUP2 PUSH2 0x2553 JUMP JUMPDEST DUP2 EQ PUSH2 0x2AA3 JUMPI PUSH1 0x0 DUP1 REVERT JUMPDEST POP JUMP JUMPDEST PUSH2 0x2AAF DUP2 PUSH2 0x2565 JUMP JUMPDEST DUP2 EQ PUSH2 0x2ABA JUMPI PUSH1 0x0 DUP1 REVERT JUMPDEST POP JUMP JUMPDEST PUSH2 0x2AC6 DUP2 PUSH2 0x2591 JUMP JUMPDEST DUP2 EQ PUSH2 0x2AD1 JUMPI PUSH1 0x0 DUP1 REVERT JUMPDEST POP JUMP INVALID LOG2 PUSH5 0x6970667358 0x22 SLT KECCAK256 EXP SSTORE 0x4B 0xAB 0xDA 0x25 0xD2 0xCC STOP 0xD REVERT 0xF9 SWAP14 SWAP2 DUP12 NOT GT 0x5F 0xF PUSH18 0x7609D90610A818FCAC51620564736F6C6343 STOP ADDMOD SMOD STOP CALLER "
				},
				"gasEstimates": {
					"creation": {
						"codeDepositCost": "2203600",
						"executionCost": "infinite",
						"totalCost": "infinite"
					},
					"external": {
						"": "241",
						"ERC20()": "2622",
						"ERC20Token()": "2603",
						"balanceOf(bool,address)": "infinite",
						"claim(address)": "infinite",
						"claimDelay()": "2497",
						"claimInProgress()": "2653",
						"claimInitiatedAt()": "2562",
						"deployer()": "2555",
						"freeze(address)": "27004",
						"frozen()": "2495",
						"heir()": "2537",
						"initiateClaim(address)": "51350",
						"mutex()": "2610",
						"owner()": "2647",
						"returnDeployer()": "2634",
						"returnHeir()": "2545",
						"returnOwner()": "2567",
						"returnTransferFee()": "2547",
						"setHeir(address,uint256,address)": "infinite",
						"stopClaim(address)": "29257",
						"tokenBalance()": "2496",
						"transferFunds(bool,address,uint256,address,address)": "infinite",
						"unfreeze(address)": "27027",
						"withdraw(bool,uint256,address,address)": "infinite"
					}
				},
				"methodIdentifiers": {
					"ERC20()": "cc4aa204",
					"ERC20Token()": "7a80760e",
					"balanceOf(bool,address)": "1903b431",
					"claim(address)": "1e83409a",
					"claimDelay()": "1c8ec299",
					"claimInProgress()": "faedd18e",
					"claimInitiatedAt()": "c7983e20",
					"deployer()": "d5f39488",
					"freeze(address)": "8d1fdf2f",
					"frozen()": "054f7d9c",
					"heir()": "91f2ebb8",
					"initiateClaim(address)": "f2b5eea7",
					"mutex()": "a5720770",
					"owner()": "8da5cb5b",
					"returnDeployer()": "362bb2ac",
					"returnHeir()": "56af4f75",
					"returnOwner()": "94a927fe",
					"returnTransferFee()": "f5c91a0b",
					"setHeir(address,uint256,address)": "6e1a7373",
					"stopClaim(address)": "b7d1d98e",
					"tokenBalance()": "9e1a4d19",
					"transferFunds(bool,address,uint256,address,address)": "6c8d5ada",
					"unfreeze(address)": "45c8b1a6",
					"withdraw(bool,uint256,address,address)": "d86e0575"
				}
			},
			"storageLayout": {
				"storage": [
					{
						"astId": 1042,
						"contract": "contract/HeirAccount.sol:Accounts",
						"label": "deployer",
						"offset": 0,
						"slot": "0",
						"type": "t_address"
					},
					{
						"astId": 1044,
						"contract": "contract/HeirAccount.sol:Accounts",
						"label": "owner",
						"offset": 0,
						"slot": "1",
						"type": "t_address_payable"
					},
					{
						"astId": 1046,
						"contract": "contract/HeirAccount.sol:Accounts",
						"label": "heir",
						"offset": 0,
						"slot": "2",
						"type": "t_address_payable"
					},
					{
						"astId": 1048,
						"contract": "contract/HeirAccount.sol:Accounts",
						"label": "claimInProgress",
						"offset": 20,
						"slot": "2",
						"type": "t_bool"
					},
					{
						"astId": 1050,
						"contract": "contract/HeirAccount.sol:Accounts",
						"label": "claimInitiatedAt",
						"offset": 0,
						"slot": "3",
						"type": "t_uint256"
					},
					{
						"astId": 1052,
						"contract": "contract/HeirAccount.sol:Accounts",
						"label": "claimDelay",
						"offset": 0,
						"slot": "4",
						"type": "t_uint256"
					},
					{
						"astId": 1054,
						"contract": "contract/HeirAccount.sol:Accounts",
						"label": "fee",
						"offset": 0,
						"slot": "5",
						"type": "t_uint256"
					},
					{
						"astId": 1056,
						"contract": "contract/HeirAccount.sol:Accounts",
						"label": "transferFee",
						"offset": 0,
						"slot": "6",
						"type": "t_uint256"
					},
					{
						"astId": 1058,
						"contract": "contract/HeirAccount.sol:Accounts",
						"label": "feeAddress",
						"offset": 0,
						"slot": "7",
						"type": "t_address_payable"
					},
					{
						"astId": 1060,
						"contract": "contract/HeirAccount.sol:Accounts",
						"label": "ERC20Token",
						"offset": 0,
						"slot": "8",
						"type": "t_address_payable"
					},
					{
						"astId": 1063,
						"contract": "contract/HeirAccount.sol:Accounts",
						"label": "ERC20",
						"offset": 0,
						"slot": "9",
						"type": "t_contract(IERC20)77"
					},
					{
						"astId": 1069,
						"contract": "contract/HeirAccount.sol:Accounts",
						"label": "mutex",
						"offset": 20,
						"slot": "9",
						"type": "t_bool"
					},
					{
						"astId": 1071,
						"contract": "contract/HeirAccount.sol:Accounts",
						"label": "tokenBalance",
						"offset": 0,
						"slot": "10",
						"type": "t_uint256"
					},
					{
						"astId": 1074,
						"contract": "contract/HeirAccount.sol:Accounts",
						"label": "frozen",
						"offset": 0,
						"slot": "11",
						"type": "t_bool"
					}
				],
				"types": {
					"t_address": {
						"encoding": "inplace",
						"label": "address",
						"numberOfBytes": "20"
					},
					"t_address_payable": {
						"encoding": "inplace",
						"label": "address payable",
						"numberOfBytes": "20"
					},
					"t_bool": {
						"encoding": "inplace",
						"label": "bool",
						"numberOfBytes": "1"
					},
					"t_contract(IERC20)77": {
						"encoding": "inplace",
						"label": "contract IERC20",
						"numberOfBytes": "20"
					},
					"t_uint256": {
						"encoding": "inplace",
						"label": "uint256",
						"numberOfBytes": "32"
					}
				}
			},
			"userdoc": {
				"kind": "user",
				"methods": {},
				"version": 1
			}
		}
	}
}