{
	"contract/TTOD.sol": {
		"TTODFactory": {
			"abi": [
				{
					"inputs": [],
					"name": "createTTOD",
					"outputs": [
						{
							"internalType": "address",
							"name": "",
							"type": "address"
						}
					],
					"stateMutability": "nonpayable",
					"type": "function"
				},
				{
					"inputs": [
						{
							"internalType": "uint256",
							"name": "",
							"type": "uint256"
						}
					],
					"name": "ttodArray",
					"outputs": [
						{
							"internalType": "contract Accounts",
							"name": "",
							"type": "address"
						}
					],
					"stateMutability": "view",
					"type": "function"
				},
				{
					"inputs": [
						{
							"internalType": "uint256",
							"name": "_ttodindex",
							"type": "uint256"
						}
					],
					"name": "ttodClaim",
					"outputs": [],
					"stateMutability": "nonpayable",
					"type": "function"
				},
				{
					"inputs": [
						{
							"internalType": "uint256",
							"name": "_ttodindex",
							"type": "uint256"
						}
					],
					"name": "ttodInitiateClaim",
					"outputs": [],
					"stateMutability": "nonpayable",
					"type": "function"
				},
				{
					"inputs": [
						{
							"internalType": "uint256",
							"name": "_ttodindex",
							"type": "uint256"
						}
					],
					"name": "ttodReturnDeployer",
					"outputs": [
						{
							"internalType": "address",
							"name": "",
							"type": "address"
						}
					],
					"stateMutability": "view",
					"type": "function"
				},
				{
					"inputs": [
						{
							"internalType": "uint256",
							"name": "_ttodindex",
							"type": "uint256"
						}
					],
					"name": "ttodReturnHeir",
					"outputs": [
						{
							"internalType": "address",
							"name": "",
							"type": "address"
						}
					],
					"stateMutability": "view",
					"type": "function"
				},
				{
					"inputs": [
						{
							"internalType": "uint256",
							"name": "_ttodindex",
							"type": "uint256"
						}
					],
					"name": "ttodReturnOwner",
					"outputs": [
						{
							"internalType": "address",
							"name": "",
							"type": "address"
						}
					],
					"stateMutability": "view",
					"type": "function"
				},
				{
					"inputs": [
						{
							"internalType": "uint256",
							"name": "_ttodindex",
							"type": "uint256"
						},
						{
							"internalType": "address payable",
							"name": "_heir",
							"type": "address"
						},
						{
							"internalType": "uint256",
							"name": "_claimDelay",
							"type": "uint256"
						}
					],
					"name": "ttodSetHeir",
					"outputs": [],
					"stateMutability": "nonpayable",
					"type": "function"
				},
				{
					"inputs": [
						{
							"internalType": "uint256",
							"name": "_ttodindex",
							"type": "uint256"
						}
					],
					"name": "ttodStopClaim",
					"outputs": [],
					"stateMutability": "nonpayable",
					"type": "function"
				},
				{
					"inputs": [
						{
							"internalType": "uint256",
							"name": "_ttodindex",
							"type": "uint256"
						}
					],
					"name": "ttodWithdraw",
					"outputs": [],
					"stateMutability": "payable",
					"type": "function"
				}
			],
			"devdoc": {
				"kind": "dev",
				"methods": {},
				"version": 1
			},
			"evm": {
				"assembly": "    /* \"contract/TTOD.sol\":132:1591  contract TTODFactory {... */\n  mstore(0x40, 0x80)\n  callvalue\n  dup1\n  iszero\n  tag_1\n  jumpi\n  0x00\n  dup1\n  revert\ntag_1:\n  pop\n  dataSize(sub_0)\n  dup1\n  dataOffset(sub_0)\n  0x00\n  codecopy\n  0x00\n  return\nstop\n\nsub_0: assembly {\n        /* \"contract/TTOD.sol\":132:1591  contract TTODFactory {... */\n      mstore(0x40, 0x80)\n      jumpi(tag_1, lt(calldatasize, 0x04))\n      shr(0xe0, calldataload(0x00))\n      dup1\n      0x92e5a4ac\n      gt\n      tag_12\n      jumpi\n      dup1\n      0x92e5a4ac\n      eq\n      tag_7\n      jumpi\n      dup1\n      0xa3b00e72\n      eq\n      tag_8\n      jumpi\n      dup1\n      0xb19ddaa0\n      eq\n      tag_9\n      jumpi\n      dup1\n      0xb23d289b\n      eq\n      tag_10\n      jumpi\n      dup1\n      0xd0c6ba89\n      eq\n      tag_11\n      jumpi\n      jump(tag_1)\n    tag_12:\n      dup1\n      0x07282ff3\n      eq\n      tag_2\n      jumpi\n      dup1\n      0x1f41f4fe\n      eq\n      tag_3\n      jumpi\n      dup1\n      0x3c9ca597\n      eq\n      tag_4\n      jumpi\n      dup1\n      0x460cab4f\n      eq\n      tag_5\n      jumpi\n      dup1\n      0x81a811b1\n      eq\n      tag_6\n      jumpi\n    tag_1:\n      0x00\n      dup1\n      revert\n        /* \"contract/TTOD.sol\":413:585  function ttodSetHeir(uint256 _ttodindex, address payable _heir, uint _claimDelay) public {... */\n    tag_2:\n      callvalue\n      dup1\n      iszero\n      tag_13\n      jumpi\n      0x00\n      dup1\n      revert\n    tag_13:\n      pop\n      tag_14\n      0x04\n      dup1\n      calldatasize\n      sub\n      0x60\n      dup2\n      lt\n      iszero\n      tag_15\n      jumpi\n      0x00\n      dup1\n      revert\n    tag_15:\n      dup2\n      add\n      swap1\n      dup1\n      dup1\n      calldataload\n      swap1\n      0x20\n      add\n      swap1\n      swap3\n      swap2\n      swap1\n      dup1\n      calldataload\n      0xffffffffffffffffffffffffffffffffffffffff\n      and\n      swap1\n      0x20\n      add\n      swap1\n      swap3\n      swap2\n      swap1\n      dup1\n      calldataload\n      swap1\n      0x20\n      add\n      swap1\n      swap3\n      swap2\n      swap1\n      pop\n      pop\n      pop\n      tag_16\n      jump\t// in\n    tag_14:\n      stop\n        /* \"contract/TTOD.sol\":1450:1588  function ttodReturnDeployer(uint256 _ttodindex) public view returns(address){... */\n    tag_3:\n      callvalue\n      dup1\n      iszero\n      tag_17\n      jumpi\n      0x00\n      dup1\n      revert\n    tag_17:\n      pop\n      tag_18\n      0x04\n      dup1\n      calldatasize\n      sub\n      0x20\n      dup2\n      lt\n      iszero\n      tag_19\n      jumpi\n      0x00\n      dup1\n      revert\n    tag_19:\n      dup2\n      add\n      swap1\n      dup1\n      dup1\n      calldataload\n      swap1\n      0x20\n      add\n      swap1\n      swap3\n      swap2\n      swap1\n      pop\n      pop\n      pop\n      tag_20\n      jump\t// in\n    tag_18:\n      mload(0x40)\n      dup1\n      dup3\n      0xffffffffffffffffffffffffffffffffffffffff\n      and\n      dup2\n      mstore\n      0x20\n      add\n      swap2\n      pop\n      pop\n      mload(0x40)\n      dup1\n      swap2\n      sub\n      swap1\n      return\n        /* \"contract/TTOD.sol\":1051:1161  function ttodStopClaim(uint256 _ttodindex) public {... */\n    tag_4:\n      callvalue\n      dup1\n      iszero\n      tag_21\n      jumpi\n      0x00\n      dup1\n      revert\n    tag_21:\n      pop\n      tag_22\n      0x04\n      dup1\n      calldatasize\n      sub\n      0x20\n      dup2\n      lt\n      iszero\n      tag_23\n      jumpi\n      0x00\n      dup1\n      revert\n    tag_23:\n      dup2\n      add\n      swap1\n      dup1\n      dup1\n      calldataload\n      swap1\n      0x20\n      add\n      swap1\n      swap3\n      swap2\n      swap1\n      pop\n      pop\n      pop\n      tag_24\n      jump\t// in\n    tag_22:\n      stop\n        /* \"contract/TTOD.sol\":642:760  function ttodInitiateClaim(uint256 _ttodindex) public {... */\n    tag_5:\n      callvalue\n      dup1\n      iszero\n      tag_25\n      jumpi\n      0x00\n      dup1\n      revert\n    tag_25:\n      pop\n      tag_26\n      0x04\n      dup1\n      calldatasize\n      sub\n      0x20\n      dup2\n      lt\n      iszero\n      tag_27\n      jumpi\n      0x00\n      dup1\n      revert\n    tag_27:\n      dup2\n      add\n      swap1\n      dup1\n      dup1\n      calldataload\n      swap1\n      0x20\n      add\n      swap1\n      swap3\n      swap2\n      swap1\n      pop\n      pop\n      pop\n      tag_28\n      jump\t// in\n    tag_26:\n      stop\n        /* \"contract/TTOD.sol\":816:923  function ttodClaim(uint256 _ttodindex) public  {... */\n    tag_6:\n      callvalue\n      dup1\n      iszero\n      tag_29\n      jumpi\n      0x00\n      dup1\n      revert\n    tag_29:\n      pop\n      tag_30\n      0x04\n      dup1\n      calldatasize\n      sub\n      0x20\n      dup2\n      lt\n      iszero\n      tag_31\n      jumpi\n      0x00\n      dup1\n      revert\n    tag_31:\n      dup2\n      add\n      swap1\n      dup1\n      dup1\n      calldataload\n      swap1\n      0x20\n      add\n      swap1\n      swap3\n      swap2\n      swap1\n      pop\n      pop\n      pop\n      tag_32\n      jump\t// in\n    tag_30:\n      stop\n        /* \"contract/TTOD.sol\":1310:1440  function ttodReturnHeir(uint256 _ttodindex) public view returns(address){... */\n    tag_7:\n      callvalue\n      dup1\n      iszero\n      tag_33\n      jumpi\n      0x00\n      dup1\n      revert\n    tag_33:\n      pop\n      tag_34\n      0x04\n      dup1\n      calldatasize\n      sub\n      0x20\n      dup2\n      lt\n      iszero\n      tag_35\n      jumpi\n      0x00\n      dup1\n      revert\n    tag_35:\n      dup2\n      add\n      swap1\n      dup1\n      dup1\n      calldataload\n      swap1\n      0x20\n      add\n      swap1\n      swap3\n      swap2\n      swap1\n      pop\n      pop\n      pop\n      tag_36\n      jump\t// in\n    tag_34:\n      mload(0x40)\n      dup1\n      dup3\n      0xffffffffffffffffffffffffffffffffffffffff\n      and\n      dup2\n      mstore\n      0x20\n      add\n      swap2\n      pop\n      pop\n      mload(0x40)\n      dup1\n      swap2\n      sub\n      swap1\n      return\n        /* \"contract/TTOD.sol\":1167:1299  function ttodReturnOwner(uint256 _ttodindex) public view returns(address){... */\n    tag_8:\n      callvalue\n      dup1\n      iszero\n      tag_37\n      jumpi\n      0x00\n      dup1\n      revert\n    tag_37:\n      pop\n      tag_38\n      0x04\n      dup1\n      calldatasize\n      sub\n      0x20\n      dup2\n      lt\n      iszero\n      tag_39\n      jumpi\n      0x00\n      dup1\n      revert\n    tag_39:\n      dup2\n      add\n      swap1\n      dup1\n      dup1\n      calldataload\n      swap1\n      0x20\n      add\n      swap1\n      swap3\n      swap2\n      swap1\n      pop\n      pop\n      pop\n      tag_40\n      jump\t// in\n    tag_38:\n      mload(0x40)\n      dup1\n      dup3\n      0xffffffffffffffffffffffffffffffffffffffff\n      and\n      dup2\n      mstore\n      0x20\n      add\n      swap2\n      pop\n      pop\n      mload(0x40)\n      dup1\n      swap2\n      sub\n      swap1\n      return\n        /* \"contract/TTOD.sol\":160:187  Accounts[] public ttodArray */\n    tag_9:\n      callvalue\n      dup1\n      iszero\n      tag_41\n      jumpi\n      0x00\n      dup1\n      revert\n    tag_41:\n      pop\n      tag_42\n      0x04\n      dup1\n      calldatasize\n      sub\n      0x20\n      dup2\n      lt\n      iszero\n      tag_43\n      jumpi\n      0x00\n      dup1\n      revert\n    tag_43:\n      dup2\n      add\n      swap1\n      dup1\n      dup1\n      calldataload\n      swap1\n      0x20\n      add\n      swap1\n      swap3\n      swap2\n      swap1\n      pop\n      pop\n      pop\n      tag_44\n      jump\t// in\n    tag_42:\n      mload(0x40)\n      dup1\n      dup3\n      0xffffffffffffffffffffffffffffffffffffffff\n      and\n      dup2\n      mstore\n      0x20\n      add\n      swap2\n      pop\n      pop\n      mload(0x40)\n      dup1\n      swap2\n      sub\n      swap1\n      return\n        /* \"contract/TTOD.sol\":196:360  function createTTOD() public returns(address) {... */\n    tag_10:\n      callvalue\n      dup1\n      iszero\n      tag_45\n      jumpi\n      0x00\n      dup1\n      revert\n    tag_45:\n      pop\n      tag_46\n      tag_47\n      jump\t// in\n    tag_46:\n      mload(0x40)\n      dup1\n      dup3\n      0xffffffffffffffffffffffffffffffffffffffff\n      and\n      dup2\n      mstore\n      0x20\n      add\n      swap2\n      pop\n      pop\n      mload(0x40)\n      dup1\n      swap2\n      sub\n      swap1\n      return\n        /* \"contract/TTOD.sol\":929:1045  function ttodWithdraw(uint256 _ttodindex) public payable {... */\n    tag_11:\n      tag_48\n      0x04\n      dup1\n      calldatasize\n      sub\n      0x20\n      dup2\n      lt\n      iszero\n      tag_49\n      jumpi\n      0x00\n      dup1\n      revert\n    tag_49:\n      dup2\n      add\n      swap1\n      dup1\n      dup1\n      calldataload\n      swap1\n      0x20\n      add\n      swap1\n      swap3\n      swap2\n      swap1\n      pop\n      pop\n      pop\n      tag_50\n      jump\t// in\n    tag_48:\n      stop\n        /* \"contract/TTOD.sol\":413:585  function ttodSetHeir(uint256 _ttodindex, address payable _heir, uint _claimDelay) public {... */\n    tag_16:\n        /* \"contract/TTOD.sol\":513:522  ttodArray */\n      0x00\n        /* \"contract/TTOD.sol\":523:533  _ttodindex */\n      dup4\n        /* \"contract/TTOD.sol\":513:534  ttodArray[_ttodindex] */\n      dup2\n      sload\n      dup2\n      lt\n      tag_52\n      jumpi\n      invalid\n    tag_52:\n      swap1\n      0x00\n      mstore\n      keccak256(0x00, 0x20)\n      add\n      0x00\n      swap1\n      sload\n      swap1\n      0x0100\n      exp\n      swap1\n      div\n      0xffffffffffffffffffffffffffffffffffffffff\n      and\n        /* \"contract/TTOD.sol\":513:542  ttodArray[_ttodindex].setHeir */\n      0xffffffffffffffffffffffffffffffffffffffff\n      and\n      0x6e1a7373\n        /* \"contract/TTOD.sol\":543:548  _heir */\n      dup4\n        /* \"contract/TTOD.sol\":550:561  _claimDelay */\n      dup4\n        /* \"contract/TTOD.sol\":563:573  msg.sender */\n      caller\n        /* \"contract/TTOD.sol\":513:574  ttodArray[_ttodindex].setHeir(_heir, _claimDelay, msg.sender) */\n      mload(0x40)\n      dup5\n      0xffffffff\n      and\n      0xe0\n      shl\n      dup2\n      mstore\n      0x04\n      add\n      dup1\n      dup5\n      0xffffffffffffffffffffffffffffffffffffffff\n      and\n      dup2\n      mstore\n      0x20\n      add\n      dup4\n      dup2\n      mstore\n      0x20\n      add\n      dup3\n      0xffffffffffffffffffffffffffffffffffffffff\n      and\n      dup2\n      mstore\n      0x20\n      add\n      swap4\n      pop\n      pop\n      pop\n      pop\n      0x00\n      mload(0x40)\n      dup1\n      dup4\n      sub\n      dup2\n      0x00\n      dup8\n      dup1\n      extcodesize\n      iszero\n      dup1\n      iszero\n      tag_54\n      jumpi\n      0x00\n      dup1\n      revert\n    tag_54:\n      pop\n      gas\n      call\n      iszero\n      dup1\n      iszero\n      tag_56\n      jumpi\n      returndatasize\n      0x00\n      dup1\n      returndatacopy\n      revert(0x00, returndatasize)\n    tag_56:\n      pop\n      pop\n      pop\n      pop\n        /* \"contract/TTOD.sol\":413:585  function ttodSetHeir(uint256 _ttodindex, address payable _heir, uint _claimDelay) public {... */\n      pop\n      pop\n      pop\n      jump\t// out\n        /* \"contract/TTOD.sol\":1450:1588  function ttodReturnDeployer(uint256 _ttodindex) public view returns(address){... */\n    tag_20:\n        /* \"contract/TTOD.sol\":1518:1525  address */\n      0x00\n        /* \"contract/TTOD.sol\":1543:1552  ttodArray */\n      dup1\n        /* \"contract/TTOD.sol\":1553:1563  _ttodindex */\n      dup3\n        /* \"contract/TTOD.sol\":1543:1564  ttodArray[_ttodindex] */\n      dup2\n      sload\n      dup2\n      lt\n      tag_58\n      jumpi\n      invalid\n    tag_58:\n      swap1\n      0x00\n      mstore\n      keccak256(0x00, 0x20)\n      add\n      0x00\n      swap1\n      sload\n      swap1\n      0x0100\n      exp\n      swap1\n      div\n      0xffffffffffffffffffffffffffffffffffffffff\n      and\n        /* \"contract/TTOD.sol\":1543:1579  ttodArray[_ttodindex].returnDeployer */\n      0xffffffffffffffffffffffffffffffffffffffff\n      and\n      0x362bb2ac\n        /* \"contract/TTOD.sol\":1543:1581  ttodArray[_ttodindex].returnDeployer() */\n      mload(0x40)\n      dup2\n      0xffffffff\n      and\n      0xe0\n      shl\n      dup2\n      mstore\n      0x04\n      add\n      0x20\n      mload(0x40)\n      dup1\n      dup4\n      sub\n      dup2\n      dup7\n      dup1\n      extcodesize\n      iszero\n      dup1\n      iszero\n      tag_60\n      jumpi\n      0x00\n      dup1\n      revert\n    tag_60:\n      pop\n      gas\n      staticcall\n      iszero\n      dup1\n      iszero\n      tag_62\n      jumpi\n      returndatasize\n      0x00\n      dup1\n      returndatacopy\n      revert(0x00, returndatasize)\n    tag_62:\n      pop\n      pop\n      pop\n      pop\n      mload(0x40)\n      returndatasize\n      0x20\n      dup2\n      lt\n      iszero\n      tag_63\n      jumpi\n      0x00\n      dup1\n      revert\n    tag_63:\n      dup2\n      add\n      swap1\n      dup1\n      dup1\n      mload\n      swap1\n      0x20\n      add\n      swap1\n      swap3\n      swap2\n      swap1\n      pop\n      pop\n      pop\n        /* \"contract/TTOD.sol\":1536:1581  return ttodArray[_ttodindex].returnDeployer() */\n      swap1\n      pop\n        /* \"contract/TTOD.sol\":1450:1588  function ttodReturnDeployer(uint256 _ttodindex) public view returns(address){... */\n      swap2\n      swap1\n      pop\n      jump\t// out\n        /* \"contract/TTOD.sol\":1051:1161  function ttodStopClaim(uint256 _ttodindex) public {... */\n    tag_24:\n        /* \"contract/TTOD.sol\":1111:1120  ttodArray */\n      0x00\n        /* \"contract/TTOD.sol\":1121:1131  _ttodindex */\n      dup2\n        /* \"contract/TTOD.sol\":1111:1132  ttodArray[_ttodindex] */\n      dup2\n      sload\n      dup2\n      lt\n      tag_65\n      jumpi\n      invalid\n    tag_65:\n      swap1\n      0x00\n      mstore\n      keccak256(0x00, 0x20)\n      add\n      0x00\n      swap1\n      sload\n      swap1\n      0x0100\n      exp\n      swap1\n      div\n      0xffffffffffffffffffffffffffffffffffffffff\n      and\n        /* \"contract/TTOD.sol\":1111:1142  ttodArray[_ttodindex].stopClaim */\n      0xffffffffffffffffffffffffffffffffffffffff\n      and\n      0xb7d1d98e\n        /* \"contract/TTOD.sol\":1143:1153  msg.sender */\n      caller\n        /* \"contract/TTOD.sol\":1111:1154  ttodArray[_ttodindex].stopClaim(msg.sender) */\n      mload(0x40)\n      dup3\n      0xffffffff\n      and\n      0xe0\n      shl\n      dup2\n      mstore\n      0x04\n      add\n      dup1\n      dup3\n      0xffffffffffffffffffffffffffffffffffffffff\n      and\n      dup2\n      mstore\n      0x20\n      add\n      swap2\n      pop\n      pop\n      0x00\n      mload(0x40)\n      dup1\n      dup4\n      sub\n      dup2\n      0x00\n      dup8\n      dup1\n      extcodesize\n      iszero\n      dup1\n      iszero\n      tag_67\n      jumpi\n      0x00\n      dup1\n      revert\n    tag_67:\n      pop\n      gas\n      call\n      iszero\n      dup1\n      iszero\n      tag_69\n      jumpi\n      returndatasize\n      0x00\n      dup1\n      returndatacopy\n      revert(0x00, returndatasize)\n    tag_69:\n      pop\n      pop\n      pop\n      pop\n        /* \"contract/TTOD.sol\":1051:1161  function ttodStopClaim(uint256 _ttodindex) public {... */\n      pop\n      jump\t// out\n        /* \"contract/TTOD.sol\":642:760  function ttodInitiateClaim(uint256 _ttodindex) public {... */\n    tag_28:\n        /* \"contract/TTOD.sol\":706:715  ttodArray */\n      0x00\n        /* \"contract/TTOD.sol\":716:726  _ttodindex */\n      dup2\n        /* \"contract/TTOD.sol\":706:727  ttodArray[_ttodindex] */\n      dup2\n      sload\n      dup2\n      lt\n      tag_71\n      jumpi\n      invalid\n    tag_71:\n      swap1\n      0x00\n      mstore\n      keccak256(0x00, 0x20)\n      add\n      0x00\n      swap1\n      sload\n      swap1\n      0x0100\n      exp\n      swap1\n      div\n      0xffffffffffffffffffffffffffffffffffffffff\n      and\n        /* \"contract/TTOD.sol\":706:741  ttodArray[_ttodindex].initiateClaim */\n      0xffffffffffffffffffffffffffffffffffffffff\n      and\n      0xf2b5eea7\n        /* \"contract/TTOD.sol\":742:752  msg.sender */\n      caller\n        /* \"contract/TTOD.sol\":706:753  ttodArray[_ttodindex].initiateClaim(msg.sender) */\n      mload(0x40)\n      dup3\n      0xffffffff\n      and\n      0xe0\n      shl\n      dup2\n      mstore\n      0x04\n      add\n      dup1\n      dup3\n      0xffffffffffffffffffffffffffffffffffffffff\n      and\n      dup2\n      mstore\n      0x20\n      add\n      swap2\n      pop\n      pop\n      0x00\n      mload(0x40)\n      dup1\n      dup4\n      sub\n      dup2\n      0x00\n      dup8\n      dup1\n      extcodesize\n      iszero\n      dup1\n      iszero\n      tag_73\n      jumpi\n      0x00\n      dup1\n      revert\n    tag_73:\n      pop\n      gas\n      call\n      iszero\n      dup1\n      iszero\n      tag_75\n      jumpi\n      returndatasize\n      0x00\n      dup1\n      returndatacopy\n      revert(0x00, returndatasize)\n    tag_75:\n      pop\n      pop\n      pop\n      pop\n        /* \"contract/TTOD.sol\":642:760  function ttodInitiateClaim(uint256 _ttodindex) public {... */\n      pop\n      jump\t// out\n        /* \"contract/TTOD.sol\":816:923  function ttodClaim(uint256 _ttodindex) public  {... */\n    tag_32:\n        /* \"contract/TTOD.sol\":873:882  ttodArray */\n      0x00\n        /* \"contract/TTOD.sol\":883:893  _ttodindex */\n      dup2\n        /* \"contract/TTOD.sol\":873:894  ttodArray[_ttodindex] */\n      dup2\n      sload\n      dup2\n      lt\n      tag_77\n      jumpi\n      invalid\n    tag_77:\n      swap1\n      0x00\n      mstore\n      keccak256(0x00, 0x20)\n      add\n      0x00\n      swap1\n      sload\n      swap1\n      0x0100\n      exp\n      swap1\n      div\n      0xffffffffffffffffffffffffffffffffffffffff\n      and\n        /* \"contract/TTOD.sol\":873:900  ttodArray[_ttodindex].claim */\n      0xffffffffffffffffffffffffffffffffffffffff\n      and\n      0x1e83409a\n        /* \"contract/TTOD.sol\":901:911  msg.sender */\n      caller\n        /* \"contract/TTOD.sol\":873:912  ttodArray[_ttodindex].claim(msg.sender) */\n      mload(0x40)\n      dup3\n      0xffffffff\n      and\n      0xe0\n      shl\n      dup2\n      mstore\n      0x04\n      add\n      dup1\n      dup3\n      0xffffffffffffffffffffffffffffffffffffffff\n      and\n      dup2\n      mstore\n      0x20\n      add\n      swap2\n      pop\n      pop\n      0x00\n      mload(0x40)\n      dup1\n      dup4\n      sub\n      dup2\n      0x00\n      dup8\n      dup1\n      extcodesize\n      iszero\n      dup1\n      iszero\n      tag_79\n      jumpi\n      0x00\n      dup1\n      revert\n    tag_79:\n      pop\n      gas\n      call\n      iszero\n      dup1\n      iszero\n      tag_81\n      jumpi\n      returndatasize\n      0x00\n      dup1\n      returndatacopy\n      revert(0x00, returndatasize)\n    tag_81:\n      pop\n      pop\n      pop\n      pop\n        /* \"contract/TTOD.sol\":816:923  function ttodClaim(uint256 _ttodindex) public  {... */\n      pop\n      jump\t// out\n        /* \"contract/TTOD.sol\":1310:1440  function ttodReturnHeir(uint256 _ttodindex) public view returns(address){... */\n    tag_36:\n        /* \"contract/TTOD.sol\":1374:1381  address */\n      0x00\n        /* \"contract/TTOD.sol\":1399:1408  ttodArray */\n      dup1\n        /* \"contract/TTOD.sol\":1409:1419  _ttodindex */\n      dup3\n        /* \"contract/TTOD.sol\":1399:1420  ttodArray[_ttodindex] */\n      dup2\n      sload\n      dup2\n      lt\n      tag_83\n      jumpi\n      invalid\n    tag_83:\n      swap1\n      0x00\n      mstore\n      keccak256(0x00, 0x20)\n      add\n      0x00\n      swap1\n      sload\n      swap1\n      0x0100\n      exp\n      swap1\n      div\n      0xffffffffffffffffffffffffffffffffffffffff\n      and\n        /* \"contract/TTOD.sol\":1399:1431  ttodArray[_ttodindex].returnHeir */\n      0xffffffffffffffffffffffffffffffffffffffff\n      and\n      0x56af4f75\n        /* \"contract/TTOD.sol\":1399:1433  ttodArray[_ttodindex].returnHeir() */\n      mload(0x40)\n      dup2\n      0xffffffff\n      and\n      0xe0\n      shl\n      dup2\n      mstore\n      0x04\n      add\n      0x20\n      mload(0x40)\n      dup1\n      dup4\n      sub\n      dup2\n      dup7\n      dup1\n      extcodesize\n      iszero\n      dup1\n      iszero\n      tag_85\n      jumpi\n      0x00\n      dup1\n      revert\n    tag_85:\n      pop\n      gas\n      staticcall\n      iszero\n      dup1\n      iszero\n      tag_87\n      jumpi\n      returndatasize\n      0x00\n      dup1\n      returndatacopy\n      revert(0x00, returndatasize)\n    tag_87:\n      pop\n      pop\n      pop\n      pop\n      mload(0x40)\n      returndatasize\n      0x20\n      dup2\n      lt\n      iszero\n      tag_88\n      jumpi\n      0x00\n      dup1\n      revert\n    tag_88:\n      dup2\n      add\n      swap1\n      dup1\n      dup1\n      mload\n      swap1\n      0x20\n      add\n      swap1\n      swap3\n      swap2\n      swap1\n      pop\n      pop\n      pop\n        /* \"contract/TTOD.sol\":1392:1433  return ttodArray[_ttodindex].returnHeir() */\n      swap1\n      pop\n        /* \"contract/TTOD.sol\":1310:1440  function ttodReturnHeir(uint256 _ttodindex) public view returns(address){... */\n      swap2\n      swap1\n      pop\n      jump\t// out\n        /* \"contract/TTOD.sol\":1167:1299  function ttodReturnOwner(uint256 _ttodindex) public view returns(address){... */\n    tag_40:\n        /* \"contract/TTOD.sol\":1232:1239  address */\n      0x00\n        /* \"contract/TTOD.sol\":1257:1266  ttodArray */\n      dup1\n        /* \"contract/TTOD.sol\":1267:1277  _ttodindex */\n      dup3\n        /* \"contract/TTOD.sol\":1257:1278  ttodArray[_ttodindex] */\n      dup2\n      sload\n      dup2\n      lt\n      tag_90\n      jumpi\n      invalid\n    tag_90:\n      swap1\n      0x00\n      mstore\n      keccak256(0x00, 0x20)\n      add\n      0x00\n      swap1\n      sload\n      swap1\n      0x0100\n      exp\n      swap1\n      div\n      0xffffffffffffffffffffffffffffffffffffffff\n      and\n        /* \"contract/TTOD.sol\":1257:1290  ttodArray[_ttodindex].returnOwner */\n      0xffffffffffffffffffffffffffffffffffffffff\n      and\n      0x94a927fe\n        /* \"contract/TTOD.sol\":1257:1292  ttodArray[_ttodindex].returnOwner() */\n      mload(0x40)\n      dup2\n      0xffffffff\n      and\n      0xe0\n      shl\n      dup2\n      mstore\n      0x04\n      add\n      0x20\n      mload(0x40)\n      dup1\n      dup4\n      sub\n      dup2\n      dup7\n      dup1\n      extcodesize\n      iszero\n      dup1\n      iszero\n      tag_92\n      jumpi\n      0x00\n      dup1\n      revert\n    tag_92:\n      pop\n      gas\n      staticcall\n      iszero\n      dup1\n      iszero\n      tag_94\n      jumpi\n      returndatasize\n      0x00\n      dup1\n      returndatacopy\n      revert(0x00, returndatasize)\n    tag_94:\n      pop\n      pop\n      pop\n      pop\n      mload(0x40)\n      returndatasize\n      0x20\n      dup2\n      lt\n      iszero\n      tag_95\n      jumpi\n      0x00\n      dup1\n      revert\n    tag_95:\n      dup2\n      add\n      swap1\n      dup1\n      dup1\n      mload\n      swap1\n      0x20\n      add\n      swap1\n      swap3\n      swap2\n      swap1\n      pop\n      pop\n      pop\n        /* \"contract/TTOD.sol\":1250:1292  return ttodArray[_ttodindex].returnOwner() */\n      swap1\n      pop\n        /* \"contract/TTOD.sol\":1167:1299  function ttodReturnOwner(uint256 _ttodindex) public view returns(address){... */\n      swap2\n      swap1\n      pop\n      jump\t// out\n        /* \"contract/TTOD.sol\":160:187  Accounts[] public ttodArray */\n    tag_44:\n      0x00\n      dup2\n      dup2\n      sload\n      dup2\n      lt\n      tag_96\n      jumpi\n      invalid\n    tag_96:\n      swap1\n      0x00\n      mstore\n      keccak256(0x00, 0x20)\n      add\n      0x00\n      swap2\n      pop\n      sload\n      swap1\n      0x0100\n      exp\n      swap1\n      div\n      0xffffffffffffffffffffffffffffffffffffffff\n      and\n      dup2\n      jump\t// out\n        /* \"contract/TTOD.sol\":196:360  function createTTOD() public returns(address) {... */\n    tag_47:\n        /* \"contract/TTOD.sol\":233:240  address */\n      0x00\n        /* \"contract/TTOD.sol\":251:264  Accounts ttod */\n      dup1\n        /* \"contract/TTOD.sol\":280:290  msg.sender */\n      caller\n        /* \"contract/TTOD.sol\":267:291  new Accounts(msg.sender) */\n      mload(0x40)\n      tag_99\n      swap1\n      tag_100\n      jump\t// in\n    tag_99:\n      dup1\n      dup3\n      0xffffffffffffffffffffffffffffffffffffffff\n      and\n      dup2\n      mstore\n      0x20\n      add\n      swap2\n      pop\n      pop\n      mload(0x40)\n      dup1\n      swap2\n      sub\n      swap1\n      0x00\n      create\n      dup1\n      iszero\n      dup1\n      iszero\n      tag_101\n      jumpi\n      returndatasize\n      0x00\n      dup1\n      returndatacopy\n      revert(0x00, returndatasize)\n    tag_101:\n      pop\n        /* \"contract/TTOD.sol\":251:291  Accounts ttod = new Accounts(msg.sender) */\n      swap1\n      pop\n        /* \"contract/TTOD.sol\":304:313  ttodArray */\n      0x00\n        /* \"contract/TTOD.sol\":319:323  ttod */\n      dup2\n        /* \"contract/TTOD.sol\":304:324  ttodArray.push(ttod) */\n      swap1\n      dup1\n      0x01\n      dup2\n      sload\n      add\n      dup1\n      dup3\n      sstore\n      dup1\n      swap2\n      pop\n      pop\n      0x01\n      swap1\n      sub\n      swap1\n      0x00\n      mstore\n      keccak256(0x00, 0x20)\n      add\n      0x00\n      swap1\n      swap2\n      swap1\n      swap2\n      swap1\n      swap2\n      0x0100\n      exp\n      dup2\n      sload\n      dup2\n      0xffffffffffffffffffffffffffffffffffffffff\n      mul\n      not\n      and\n      swap1\n      dup4\n      0xffffffffffffffffffffffffffffffffffffffff\n      and\n      mul\n      or\n      swap1\n      sstore\n      pop\n        /* \"contract/TTOD.sol\":348:352  ttod */\n      dup1\n        /* \"contract/TTOD.sol\":333:353  return address(ttod) */\n      swap2\n      pop\n      pop\n        /* \"contract/TTOD.sol\":196:360  function createTTOD() public returns(address) {... */\n      swap1\n      jump\t// out\n        /* \"contract/TTOD.sol\":929:1045  function ttodWithdraw(uint256 _ttodindex) public payable {... */\n    tag_50:\n        /* \"contract/TTOD.sol\":996:1005  ttodArray */\n      0x00\n        /* \"contract/TTOD.sol\":1006:1016  _ttodindex */\n      dup2\n        /* \"contract/TTOD.sol\":996:1017  ttodArray[_ttodindex] */\n      dup2\n      sload\n      dup2\n      lt\n      tag_104\n      jumpi\n      invalid\n    tag_104:\n      swap1\n      0x00\n      mstore\n      keccak256(0x00, 0x20)\n      add\n      0x00\n      swap1\n      sload\n      swap1\n      0x0100\n      exp\n      swap1\n      div\n      0xffffffffffffffffffffffffffffffffffffffff\n      and\n        /* \"contract/TTOD.sol\":996:1026  ttodArray[_ttodindex].withdraw */\n      0xffffffffffffffffffffffffffffffffffffffff\n      and\n      0x51cff8d9\n        /* \"contract/TTOD.sol\":1027:1037  msg.sender */\n      caller\n        /* \"contract/TTOD.sol\":996:1038  ttodArray[_ttodindex].withdraw(msg.sender) */\n      mload(0x40)\n      dup3\n      0xffffffff\n      and\n      0xe0\n      shl\n      dup2\n      mstore\n      0x04\n      add\n      dup1\n      dup3\n      0xffffffffffffffffffffffffffffffffffffffff\n      and\n      dup2\n      mstore\n      0x20\n      add\n      swap2\n      pop\n      pop\n      0x00\n      mload(0x40)\n      dup1\n      dup4\n      sub\n      dup2\n      0x00\n      dup8\n      dup1\n      extcodesize\n      iszero\n      dup1\n      iszero\n      tag_106\n      jumpi\n      0x00\n      dup1\n      revert\n    tag_106:\n      pop\n      gas\n      call\n      iszero\n      dup1\n      iszero\n      tag_108\n      jumpi\n      returndatasize\n      0x00\n      dup1\n      returndatacopy\n      revert(0x00, returndatasize)\n    tag_108:\n      pop\n      pop\n      pop\n      pop\n        /* \"contract/TTOD.sol\":929:1045  function ttodWithdraw(uint256 _ttodindex) public payable {... */\n      pop\n      jump\t// out\n    tag_100:\n      dataSize(sub_0)\n      dup1\n      dataOffset(sub_0)\n      dup4\n      codecopy\n      add\n      swap1\n      jump\t// out\n    stop\n\n    sub_0: assembly {\n            /* \"contract/Accounts.sol\":59:2491  contract Accounts {... */\n          mstore(0x40, 0x80)\n            /* \"contract/Accounts.sol\":606:717  constructor(address payable _owner) public {... */\n          callvalue\n          dup1\n          iszero\n          tag_1\n          jumpi\n          0x00\n          dup1\n          revert\n        tag_1:\n          pop\n          mload(0x40)\n          sub(codesize, bytecodeSize)\n          dup1\n          bytecodeSize\n          dup4\n          codecopy\n          dup2\n          dup2\n          add\n          0x40\n          mstore\n          0x20\n          dup2\n          lt\n          iszero\n          tag_2\n          jumpi\n          0x00\n          dup1\n          revert\n        tag_2:\n          dup2\n          add\n          swap1\n          dup1\n          dup1\n          mload\n          swap1\n          0x20\n          add\n          swap1\n          swap3\n          swap2\n          swap1\n          pop\n          pop\n          pop\n            /* \"contract/Accounts.sol\":670:676  _owner */\n          dup1\n            /* \"contract/Accounts.sol\":662:667  owner */\n          0x01\n          0x00\n            /* \"contract/Accounts.sol\":662:676  owner = _owner */\n          0x0100\n          exp\n          dup2\n          sload\n          dup2\n          0xffffffffffffffffffffffffffffffffffffffff\n          mul\n          not\n          and\n          swap1\n          dup4\n          0xffffffffffffffffffffffffffffffffffffffff\n          and\n          mul\n          or\n          swap1\n          sstore\n          pop\n            /* \"contract/Accounts.sol\":700:710  msg.sender */\n          caller\n            /* \"contract/Accounts.sol\":689:697  deployer */\n          0x00\n          dup1\n            /* \"contract/Accounts.sol\":689:710  deployer = msg.sender */\n          0x0100\n          exp\n          dup2\n          sload\n          dup2\n          0xffffffffffffffffffffffffffffffffffffffff\n          mul\n          not\n          and\n          swap1\n          dup4\n          0xffffffffffffffffffffffffffffffffffffffff\n          and\n          mul\n          or\n          swap1\n          sstore\n          pop\n            /* \"contract/Accounts.sol\":606:717  constructor(address payable _owner) public {... */\n          pop\n            /* \"contract/Accounts.sol\":59:2491  contract Accounts {... */\n          dataSize(sub_0)\n          dup1\n          dataOffset(sub_0)\n          0x00\n          codecopy\n          0x00\n          return\n        stop\n\n        sub_0: assembly {\n                /* \"contract/Accounts.sol\":59:2491  contract Accounts {... */\n              mstore(0x40, 0x80)\n              jumpi(tag_1, lt(calldatasize, 0x04))\n              shr(0xe0, calldataload(0x00))\n              dup1\n              0x91f2ebb8\n              gt\n              tag_16\n              jumpi\n              dup1\n              0xc7983e20\n              gt\n              tag_17\n              jumpi\n              dup1\n              0xc7983e20\n              eq\n              tag_12\n              jumpi\n              dup1\n              0xd5f39488\n              eq\n              tag_13\n              jumpi\n              dup1\n              0xf2b5eea7\n              eq\n              tag_14\n              jumpi\n              dup1\n              0xfaedd18e\n              eq\n              tag_15\n              jumpi\n              jump(tag_1)\n            tag_17:\n              dup1\n              0x91f2ebb8\n              eq\n              tag_9\n              jumpi\n              dup1\n              0x94a927fe\n              eq\n              tag_10\n              jumpi\n              dup1\n              0xb7d1d98e\n              eq\n              tag_11\n              jumpi\n              jump(tag_1)\n            tag_16:\n              dup1\n              0x51cff8d9\n              gt\n              tag_18\n              jumpi\n              dup1\n              0x51cff8d9\n              eq\n              tag_5\n              jumpi\n              dup1\n              0x56af4f75\n              eq\n              tag_6\n              jumpi\n              dup1\n              0x6e1a7373\n              eq\n              tag_7\n              jumpi\n              dup1\n              0x8da5cb5b\n              eq\n              tag_8\n              jumpi\n              jump(tag_1)\n            tag_18:\n              dup1\n              0x1c8ec299\n              eq\n              tag_2\n              jumpi\n              dup1\n              0x1e83409a\n              eq\n              tag_3\n              jumpi\n              dup1\n              0x362bb2ac\n              eq\n              tag_4\n              jumpi\n            tag_1:\n              0x00\n              dup1\n              revert\n                /* \"contract/Accounts.sol\":575:597  uint public claimDelay */\n            tag_2:\n              callvalue\n              dup1\n              iszero\n              tag_19\n              jumpi\n              0x00\n              dup1\n              revert\n            tag_19:\n              pop\n              tag_20\n              tag_21\n              jump\t// in\n            tag_20:\n              mload(0x40)\n              dup1\n              dup3\n              dup2\n              mstore\n              0x20\n              add\n              swap2\n              pop\n              pop\n              mload(0x40)\n              dup1\n              swap2\n              sub\n              swap1\n              return\n                /* \"contract/Accounts.sol\":1393:1723  function claim(address _sender) public  {... */\n            tag_3:\n              callvalue\n              dup1\n              iszero\n              tag_22\n              jumpi\n              0x00\n              dup1\n              revert\n            tag_22:\n              pop\n              tag_23\n              0x04\n              dup1\n              calldatasize\n              sub\n              0x20\n              dup2\n              lt\n              iszero\n              tag_24\n              jumpi\n              0x00\n              dup1\n              revert\n            tag_24:\n              dup2\n              add\n              swap1\n              dup1\n              dup1\n              calldataload\n              0xffffffffffffffffffffffffffffffffffffffff\n              and\n              swap1\n              0x20\n              add\n              swap1\n              swap3\n              swap2\n              swap1\n              pop\n              pop\n              pop\n              tag_25\n              jump\t// in\n            tag_23:\n              stop\n                /* \"contract/Accounts.sol\":2402:2488  function returnDeployer() public view returns(address){... */\n            tag_4:\n              callvalue\n              dup1\n              iszero\n              tag_26\n              jumpi\n              0x00\n              dup1\n              revert\n            tag_26:\n              pop\n              tag_27\n              tag_28\n              jump\t// in\n            tag_27:\n              mload(0x40)\n              dup1\n              dup3\n              0xffffffffffffffffffffffffffffffffffffffff\n              and\n              dup2\n              mstore\n              0x20\n              add\n              swap2\n              pop\n              pop\n              mload(0x40)\n              dup1\n              swap2\n              sub\n              swap1\n              return\n                /* \"contract/Accounts.sol\":1729:1985  function withdraw(address _sender) public payable {... */\n            tag_5:\n              tag_29\n              0x04\n              dup1\n              calldatasize\n              sub\n              0x20\n              dup2\n              lt\n              iszero\n              tag_30\n              jumpi\n              0x00\n              dup1\n              revert\n            tag_30:\n              dup2\n              add\n              swap1\n              dup1\n              dup1\n              calldataload\n              0xffffffffffffffffffffffffffffffffffffffff\n              and\n              swap1\n              0x20\n              add\n              swap1\n              swap3\n              swap2\n              swap1\n              pop\n              pop\n              pop\n              tag_31\n              jump\t// in\n            tag_29:\n              stop\n                /* \"contract/Accounts.sol\":2313:2391  function returnHeir() public view returns(address){... */\n            tag_6:\n              callvalue\n              dup1\n              iszero\n              tag_32\n              jumpi\n              0x00\n              dup1\n              revert\n            tag_32:\n              pop\n              tag_33\n              tag_34\n              jump\t// in\n            tag_33:\n              mload(0x40)\n              dup1\n              dup3\n              0xffffffffffffffffffffffffffffffffffffffff\n              and\n              dup2\n              mstore\n              0x20\n              add\n              swap2\n              pop\n              pop\n              mload(0x40)\n              dup1\n              swap2\n              sub\n              swap1\n              return\n                /* \"contract/Accounts.sol\":770:986  function setHeir(address payable _heir, uint _claimDelay, address _sender) public {... */\n            tag_7:\n              callvalue\n              dup1\n              iszero\n              tag_35\n              jumpi\n              0x00\n              dup1\n              revert\n            tag_35:\n              pop\n              tag_36\n              0x04\n              dup1\n              calldatasize\n              sub\n              0x60\n              dup2\n              lt\n              iszero\n              tag_37\n              jumpi\n              0x00\n              dup1\n              revert\n            tag_37:\n              dup2\n              add\n              swap1\n              dup1\n              dup1\n              calldataload\n              0xffffffffffffffffffffffffffffffffffffffff\n              and\n              swap1\n              0x20\n              add\n              swap1\n              swap3\n              swap2\n              swap1\n              dup1\n              calldataload\n              swap1\n              0x20\n              add\n              swap1\n              swap3\n              swap2\n              swap1\n              dup1\n              calldataload\n              0xffffffffffffffffffffffffffffffffffffffff\n              and\n              swap1\n              0x20\n              add\n              swap1\n              swap3\n              swap2\n              swap1\n              pop\n              pop\n              pop\n              tag_38\n              jump\t// in\n            tag_36:\n              stop\n                /* \"contract/Accounts.sol\":211:239  address payable public owner */\n            tag_8:\n              callvalue\n              dup1\n              iszero\n              tag_39\n              jumpi\n              0x00\n              dup1\n              revert\n            tag_39:\n              pop\n              tag_40\n              tag_41\n              jump\t// in\n            tag_40:\n              mload(0x40)\n              dup1\n              dup3\n              0xffffffffffffffffffffffffffffffffffffffff\n              and\n              dup2\n              mstore\n              0x20\n              add\n              swap2\n              pop\n              pop\n              mload(0x40)\n              dup1\n              swap2\n              sub\n              swap1\n              return\n                /* \"contract/Accounts.sol\":276:303  address payable public heir */\n            tag_9:\n              callvalue\n              dup1\n              iszero\n              tag_42\n              jumpi\n              0x00\n              dup1\n              revert\n            tag_42:\n              pop\n              tag_43\n              tag_44\n              jump\t// in\n            tag_43:\n              mload(0x40)\n              dup1\n              dup3\n              0xffffffffffffffffffffffffffffffffffffffff\n              and\n              dup2\n              mstore\n              0x20\n              add\n              swap2\n              pop\n              pop\n              mload(0x40)\n              dup1\n              swap2\n              sub\n              swap1\n              return\n                /* \"contract/Accounts.sol\":2222:2302  function returnOwner() public view returns(address){... */\n            tag_10:\n              callvalue\n              dup1\n              iszero\n              tag_45\n              jumpi\n              0x00\n              dup1\n              revert\n            tag_45:\n              pop\n              tag_46\n              tag_47\n              jump\t// in\n            tag_46:\n              mload(0x40)\n              dup1\n              dup3\n              0xffffffffffffffffffffffffffffffffffffffff\n              and\n              dup2\n              mstore\n              0x20\n              add\n              swap2\n              pop\n              pop\n              mload(0x40)\n              dup1\n              swap2\n              sub\n              swap1\n              return\n                /* \"contract/Accounts.sol\":1991:2216  function stopClaim(address _sender) public {... */\n            tag_11:\n              callvalue\n              dup1\n              iszero\n              tag_48\n              jumpi\n              0x00\n              dup1\n              revert\n            tag_48:\n              pop\n              tag_49\n              0x04\n              dup1\n              calldatasize\n              sub\n              0x20\n              dup2\n              lt\n              iszero\n              tag_50\n              jumpi\n              0x00\n              dup1\n              revert\n            tag_50:\n              dup2\n              add\n              swap1\n              dup1\n              dup1\n              calldataload\n              0xffffffffffffffffffffffffffffffffffffffff\n              and\n              swap1\n              0x20\n              add\n              swap1\n              swap3\n              swap2\n              swap1\n              pop\n              pop\n              pop\n              tag_51\n              jump\t// in\n            tag_49:\n              stop\n                /* \"contract/Accounts.sol\":453:481  uint public claimInitiatedAt */\n            tag_12:\n              callvalue\n              dup1\n              iszero\n              tag_52\n              jumpi\n              0x00\n              dup1\n              revert\n            tag_52:\n              pop\n              tag_53\n              tag_54\n              jump\t// in\n            tag_53:\n              mload(0x40)\n              dup1\n              dup3\n              dup2\n              mstore\n              0x20\n              add\n              swap2\n              pop\n              pop\n              mload(0x40)\n              dup1\n              swap2\n              sub\n              swap1\n              return\n                /* \"contract/Accounts.sol\":134:157  address public deployer */\n            tag_13:\n              callvalue\n              dup1\n              iszero\n              tag_55\n              jumpi\n              0x00\n              dup1\n              revert\n            tag_55:\n              pop\n              tag_56\n              tag_57\n              jump\t// in\n            tag_56:\n              mload(0x40)\n              dup1\n              dup3\n              0xffffffffffffffffffffffffffffffffffffffff\n              and\n              dup2\n              mstore\n              0x20\n              add\n              swap2\n              pop\n              pop\n              mload(0x40)\n              dup1\n              swap2\n              sub\n              swap1\n              return\n                /* \"contract/Accounts.sol\":1048:1337  function initiateClaim(address _sender) public {... */\n            tag_14:\n              callvalue\n              dup1\n              iszero\n              tag_58\n              jumpi\n              0x00\n              dup1\n              revert\n            tag_58:\n              pop\n              tag_59\n              0x04\n              dup1\n              calldatasize\n              sub\n              0x20\n              dup2\n              lt\n              iszero\n              tag_60\n              jumpi\n              0x00\n              dup1\n              revert\n            tag_60:\n              dup2\n              add\n              swap1\n              dup1\n              dup1\n              calldataload\n              0xffffffffffffffffffffffffffffffffffffffff\n              and\n              swap1\n              0x20\n              add\n              swap1\n              swap3\n              swap2\n              swap1\n              pop\n              pop\n              pop\n              tag_61\n              jump\t// in\n            tag_59:\n              stop\n                /* \"contract/Accounts.sol\":363:390  bool public claimInProgress */\n            tag_15:\n              callvalue\n              dup1\n              iszero\n              tag_62\n              jumpi\n              0x00\n              dup1\n              revert\n            tag_62:\n              pop\n              tag_63\n              tag_64\n              jump\t// in\n            tag_63:\n              mload(0x40)\n              dup1\n              dup3\n              iszero\n              iszero\n              dup2\n              mstore\n              0x20\n              add\n              swap2\n              pop\n              pop\n              mload(0x40)\n              dup1\n              swap2\n              sub\n              swap1\n              return\n                /* \"contract/Accounts.sol\":575:597  uint public claimDelay */\n            tag_21:\n              sload(0x04)\n              dup2\n              jump\t// out\n                /* \"contract/Accounts.sol\":1393:1723  function claim(address _sender) public  {... */\n            tag_25:\n                /* \"contract/Accounts.sol\":1459:1466  _sender */\n              dup1\n                /* \"contract/Accounts.sol\":1451:1466  heir == _sender */\n              0xffffffffffffffffffffffffffffffffffffffff\n              and\n                /* \"contract/Accounts.sol\":1451:1455  heir */\n              0x02\n              0x00\n              swap1\n              sload\n              swap1\n              0x0100\n              exp\n              swap1\n              div\n              0xffffffffffffffffffffffffffffffffffffffff\n              and\n                /* \"contract/Accounts.sol\":1451:1466  heir == _sender */\n              0xffffffffffffffffffffffffffffffffffffffff\n              and\n              eq\n                /* \"contract/Accounts.sol\":1443:1507  require(heir == _sender, \"Only the heir can claim the account.\") */\n              tag_66\n              jumpi\n              mload(0x40)\n              0x08c379a000000000000000000000000000000000000000000000000000000000\n              dup2\n              mstore\n              0x04\n              add\n              dup1\n              dup1\n              0x20\n              add\n              dup3\n              dup2\n              sub\n              dup3\n              mstore\n              0x24\n              dup2\n              mstore\n              0x20\n              add\n              dup1\n              data_148bbb31cb54489a3d30e76428c3a488d2ae99543ba241143db43efef686f3b3\n              0x24\n              swap2\n              codecopy\n              0x40\n              add\n              swap2\n              pop\n              pop\n              mload(0x40)\n              dup1\n              swap2\n              sub\n              swap1\n              revert\n            tag_66:\n                /* \"contract/Accounts.sol\":1525:1540  claimInProgress */\n              0x02\n              0x14\n              swap1\n              sload\n              swap1\n              0x0100\n              exp\n              swap1\n              div\n              0xff\n              and\n                /* \"contract/Accounts.sol\":1517:1582  require(claimInProgress, \"Claim process has not been initiated.\") */\n              tag_67\n              jumpi\n              mload(0x40)\n              0x08c379a000000000000000000000000000000000000000000000000000000000\n              dup2\n              mstore\n              0x04\n              add\n              dup1\n              dup1\n              0x20\n              add\n              dup3\n              dup2\n              sub\n              dup3\n              mstore\n              0x25\n              dup2\n              mstore\n              0x20\n              add\n              dup1\n              data_2c972908af29c60a43487557971a394330ae16b10c090b10f2de78d1c63b8c70\n              0x25\n              swap2\n              codecopy\n              0x40\n              add\n              swap2\n              pop\n              pop\n              mload(0x40)\n              dup1\n              swap2\n              sub\n              swap1\n              revert\n            tag_67:\n                /* \"contract/Accounts.sol\":1651:1657  1 days */\n              0x015180\n                /* \"contract/Accounts.sol\":1638:1648  claimDelay */\n              sload(0x04)\n                /* \"contract/Accounts.sol\":1638:1657  claimDelay * 1 days */\n              mul\n                /* \"contract/Accounts.sol\":1619:1635  claimInitiatedAt */\n              sload(0x03)\n                /* \"contract/Accounts.sol\":1619:1657  claimInitiatedAt + claimDelay * 1 days */\n              add\n                /* \"contract/Accounts.sol\":1600:1615  block.timestamp */\n              timestamp\n                /* \"contract/Accounts.sol\":1600:1657  block.timestamp >= claimInitiatedAt + claimDelay * 1 days */\n              lt\n              iszero\n                /* \"contract/Accounts.sol\":1592:1690  require(block.timestamp >= claimInitiatedAt + claimDelay * 1 days, \"Claim delay has not expired.\") */\n              tag_68\n              jumpi\n              mload(0x40)\n              0x08c379a000000000000000000000000000000000000000000000000000000000\n              dup2\n              mstore\n              0x04\n              add\n              dup1\n              dup1\n              0x20\n              add\n              dup3\n              dup2\n              sub\n              dup3\n              mstore\n              0x1c\n              dup2\n              mstore\n              0x20\n              add\n              dup1\n              0x436c61696d2064656c617920686173206e6f7420657870697265642e00000000\n              dup2\n              mstore\n              pop\n              0x20\n              add\n              swap2\n              pop\n              pop\n              mload(0x40)\n              dup1\n              swap2\n              sub\n              swap1\n              revert\n            tag_68:\n                /* \"contract/Accounts.sol\":1708:1712  heir */\n              0x02\n              0x00\n              swap1\n              sload\n              swap1\n              0x0100\n              exp\n              swap1\n              div\n              0xffffffffffffffffffffffffffffffffffffffff\n              and\n                /* \"contract/Accounts.sol\":1700:1705  owner */\n              0x01\n              0x00\n                /* \"contract/Accounts.sol\":1700:1712  owner = heir */\n              0x0100\n              exp\n              dup2\n              sload\n              dup2\n              0xffffffffffffffffffffffffffffffffffffffff\n              mul\n              not\n              and\n              swap1\n              dup4\n              0xffffffffffffffffffffffffffffffffffffffff\n              and\n              mul\n              or\n              swap1\n              sstore\n              pop\n                /* \"contract/Accounts.sol\":1393:1723  function claim(address _sender) public  {... */\n              pop\n              jump\t// out\n                /* \"contract/Accounts.sol\":2402:2488  function returnDeployer() public view returns(address){... */\n            tag_28:\n                /* \"contract/Accounts.sol\":2448:2455  address */\n              0x00\n                /* \"contract/Accounts.sol\":2473:2481  deployer */\n              dup1\n              0x00\n              swap1\n              sload\n              swap1\n              0x0100\n              exp\n              swap1\n              div\n              0xffffffffffffffffffffffffffffffffffffffff\n              and\n                /* \"contract/Accounts.sol\":2466:2481  return deployer */\n              swap1\n              pop\n                /* \"contract/Accounts.sol\":2402:2488  function returnDeployer() public view returns(address){... */\n              swap1\n              jump\t// out\n                /* \"contract/Accounts.sol\":1729:1985  function withdraw(address _sender) public payable {... */\n            tag_31:\n                /* \"contract/Accounts.sol\":1808:1813  owner */\n              0x01\n              0x00\n              swap1\n              sload\n              swap1\n              0x0100\n              exp\n              swap1\n              div\n              0xffffffffffffffffffffffffffffffffffffffff\n              and\n                /* \"contract/Accounts.sol\":1797:1813  _sender == owner */\n              0xffffffffffffffffffffffffffffffffffffffff\n              and\n                /* \"contract/Accounts.sol\":1797:1804  _sender */\n              dup2\n                /* \"contract/Accounts.sol\":1797:1813  _sender == owner */\n              0xffffffffffffffffffffffffffffffffffffffff\n              and\n              eq\n                /* \"contract/Accounts.sol\":1789:1852  require(_sender == owner, \"Only the owner can withdraw funds.\") */\n              tag_71\n              jumpi\n              mload(0x40)\n              0x08c379a000000000000000000000000000000000000000000000000000000000\n              dup2\n              mstore\n              0x04\n              add\n              dup1\n              dup1\n              0x20\n              add\n              dup3\n              dup2\n              sub\n              dup3\n              mstore\n              0x22\n              dup2\n              mstore\n              0x20\n              add\n              dup1\n              data_5f110f996a409987deba0e89eb5ab9b244ae95e2eb40f39dcd7a93c9276d5a70\n              0x22\n              swap2\n              codecopy\n              0x40\n              add\n              swap2\n              pop\n              pop\n              mload(0x40)\n              dup1\n              swap2\n              sub\n              swap1\n              revert\n            tag_71:\n                /* \"contract/Accounts.sol\":1894:1895  0 */\n              0x00\n                /* \"contract/Accounts.sol\":1870:1891  address(this).balance */\n              selfbalance\n                /* \"contract/Accounts.sol\":1870:1895  address(this).balance > 0 */\n              gt\n                /* \"contract/Accounts.sol\":1862:1931  require(address(this).balance > 0, \"There are no funds to withdraw.\") */\n              tag_72\n              jumpi\n              mload(0x40)\n              0x08c379a000000000000000000000000000000000000000000000000000000000\n              dup2\n              mstore\n              0x04\n              add\n              dup1\n              dup1\n              0x20\n              add\n              dup3\n              dup2\n              sub\n              dup3\n              mstore\n              0x1f\n              dup2\n              mstore\n              0x20\n              add\n              dup1\n              0x546865726520617265206e6f2066756e647320746f2077697468647261772e00\n              dup2\n              mstore\n              pop\n              0x20\n              add\n              swap2\n              pop\n              pop\n              mload(0x40)\n              dup1\n              swap2\n              sub\n              swap1\n              revert\n            tag_72:\n                /* \"contract/Accounts.sol\":1941:1946  owner */\n              0x01\n              0x00\n              swap1\n              sload\n              swap1\n              0x0100\n              exp\n              swap1\n              div\n              0xffffffffffffffffffffffffffffffffffffffff\n              and\n                /* \"contract/Accounts.sol\":1941:1955  owner.transfer */\n              0xffffffffffffffffffffffffffffffffffffffff\n              and\n                /* \"contract/Accounts.sol\":1941:1978  owner.transfer(address(this).balance) */\n              0x08fc\n                /* \"contract/Accounts.sol\":1956:1977  address(this).balance */\n              selfbalance\n                /* \"contract/Accounts.sol\":1941:1978  owner.transfer(address(this).balance) */\n              swap1\n              dup2\n              iszero\n              mul\n              swap1\n              mload(0x40)\n              0x00\n              mload(0x40)\n              dup1\n              dup4\n              sub\n              dup2\n              dup6\n              dup9\n              dup9\n              call\n              swap4\n              pop\n              pop\n              pop\n              pop\n              iszero\n              dup1\n              iszero\n              tag_74\n              jumpi\n              returndatasize\n              0x00\n              dup1\n              returndatacopy\n              revert(0x00, returndatasize)\n            tag_74:\n              pop\n                /* \"contract/Accounts.sol\":1729:1985  function withdraw(address _sender) public payable {... */\n              pop\n              jump\t// out\n                /* \"contract/Accounts.sol\":2313:2391  function returnHeir() public view returns(address){... */\n            tag_34:\n                /* \"contract/Accounts.sol\":2355:2362  address */\n              0x00\n                /* \"contract/Accounts.sol\":2380:2384  heir */\n              0x02\n              0x00\n              swap1\n              sload\n              swap1\n              0x0100\n              exp\n              swap1\n              div\n              0xffffffffffffffffffffffffffffffffffffffff\n              and\n                /* \"contract/Accounts.sol\":2373:2384  return heir */\n              swap1\n              pop\n                /* \"contract/Accounts.sol\":2313:2391  function returnHeir() public view returns(address){... */\n              swap1\n              jump\t// out\n                /* \"contract/Accounts.sol\":770:986  function setHeir(address payable _heir, uint _claimDelay, address _sender) public {... */\n            tag_38:\n                /* \"contract/Accounts.sol\":879:886  _sender */\n              dup1\n                /* \"contract/Accounts.sol\":870:886  owner == _sender */\n              0xffffffffffffffffffffffffffffffffffffffff\n              and\n                /* \"contract/Accounts.sol\":870:875  owner */\n              0x01\n              0x00\n              swap1\n              sload\n              swap1\n              0x0100\n              exp\n              swap1\n              div\n              0xffffffffffffffffffffffffffffffffffffffff\n              and\n                /* \"contract/Accounts.sol\":870:886  owner == _sender */\n              0xffffffffffffffffffffffffffffffffffffffff\n              and\n              eq\n                /* \"contract/Accounts.sol\":862:923  require(owner == _sender, \"Only the owner can set the heir.\") */\n              tag_77\n              jumpi\n              mload(0x40)\n              0x08c379a000000000000000000000000000000000000000000000000000000000\n              dup2\n              mstore\n              0x04\n              add\n              dup1\n              dup1\n              0x20\n              add\n              dup3\n              dup2\n              sub\n              dup3\n              mstore\n              0x20\n              dup2\n              mstore\n              0x20\n              add\n              dup1\n              0x4f6e6c7920746865206f776e65722063616e207365742074686520686569722e\n              dup2\n              mstore\n              pop\n              0x20\n              add\n              swap2\n              pop\n              pop\n              mload(0x40)\n              dup1\n              swap2\n              sub\n              swap1\n              revert\n            tag_77:\n                /* \"contract/Accounts.sol\":940:945  _heir */\n              dup3\n                /* \"contract/Accounts.sol\":933:937  heir */\n              0x02\n              0x00\n                /* \"contract/Accounts.sol\":933:945  heir = _heir */\n              0x0100\n              exp\n              dup2\n              sload\n              dup2\n              0xffffffffffffffffffffffffffffffffffffffff\n              mul\n              not\n              and\n              swap1\n              dup4\n              0xffffffffffffffffffffffffffffffffffffffff\n              and\n              mul\n              or\n              swap1\n              sstore\n              pop\n                /* \"contract/Accounts.sol\":968:979  _claimDelay */\n              dup2\n                /* \"contract/Accounts.sol\":955:965  claimDelay */\n              0x04\n                /* \"contract/Accounts.sol\":955:979  claimDelay = _claimDelay */\n              dup2\n              swap1\n              sstore\n              pop\n                /* \"contract/Accounts.sol\":770:986  function setHeir(address payable _heir, uint _claimDelay, address _sender) public {... */\n              pop\n              pop\n              pop\n              jump\t// out\n                /* \"contract/Accounts.sol\":211:239  address payable public owner */\n            tag_41:\n              0x01\n              0x00\n              swap1\n              sload\n              swap1\n              0x0100\n              exp\n              swap1\n              div\n              0xffffffffffffffffffffffffffffffffffffffff\n              and\n              dup2\n              jump\t// out\n                /* \"contract/Accounts.sol\":276:303  address payable public heir */\n            tag_44:\n              0x02\n              0x00\n              swap1\n              sload\n              swap1\n              0x0100\n              exp\n              swap1\n              div\n              0xffffffffffffffffffffffffffffffffffffffff\n              and\n              dup2\n              jump\t// out\n                /* \"contract/Accounts.sol\":2222:2302  function returnOwner() public view returns(address){... */\n            tag_47:\n                /* \"contract/Accounts.sol\":2265:2272  address */\n              0x00\n                /* \"contract/Accounts.sol\":2290:2295  owner */\n              0x01\n              0x00\n              swap1\n              sload\n              swap1\n              0x0100\n              exp\n              swap1\n              div\n              0xffffffffffffffffffffffffffffffffffffffff\n              and\n                /* \"contract/Accounts.sol\":2283:2295  return owner */\n              swap1\n              pop\n                /* \"contract/Accounts.sol\":2222:2302  function returnOwner() public view returns(address){... */\n              swap1\n              jump\t// out\n                /* \"contract/Accounts.sol\":1991:2216  function stopClaim(address _sender) public {... */\n            tag_51:\n                /* \"contract/Accounts.sol\":2063:2068  owner */\n              0x01\n              0x00\n              swap1\n              sload\n              swap1\n              0x0100\n              exp\n              swap1\n              div\n              0xffffffffffffffffffffffffffffffffffffffff\n              and\n                /* \"contract/Accounts.sol\":2052:2068  _sender == owner */\n              0xffffffffffffffffffffffffffffffffffffffff\n              and\n                /* \"contract/Accounts.sol\":2052:2059  _sender */\n              dup2\n                /* \"contract/Accounts.sol\":2052:2068  _sender == owner */\n              0xffffffffffffffffffffffffffffffffffffffff\n              and\n              eq\n                /* \"contract/Accounts.sol\":2044:2105  require(_sender == owner, \"Only the owner can stop a claim.\") */\n              tag_80\n              jumpi\n              mload(0x40)\n              0x08c379a000000000000000000000000000000000000000000000000000000000\n              dup2\n              mstore\n              0x04\n              add\n              dup1\n              dup1\n              0x20\n              add\n              dup3\n              dup2\n              sub\n              dup3\n              mstore\n              0x20\n              dup2\n              mstore\n              0x20\n              add\n              dup1\n              0x4f6e6c7920746865206f776e65722063616e2073746f70206120636c61696d2e\n              dup2\n              mstore\n              pop\n              0x20\n              add\n              swap2\n              pop\n              pop\n              mload(0x40)\n              dup1\n              swap2\n              sub\n              swap1\n              revert\n            tag_80:\n                /* \"contract/Accounts.sol\":2123:2138  claimInProgress */\n              0x02\n              0x14\n              swap1\n              sload\n              swap1\n              0x0100\n              exp\n              swap1\n              div\n              0xff\n              and\n                /* \"contract/Accounts.sol\":2115:2176  require(claimInProgress, \"There is no active claim to stop.\") */\n              tag_81\n              jumpi\n              mload(0x40)\n              0x08c379a000000000000000000000000000000000000000000000000000000000\n              dup2\n              mstore\n              0x04\n              add\n              dup1\n              dup1\n              0x20\n              add\n              dup3\n              dup2\n              sub\n              dup3\n              mstore\n              0x21\n              dup2\n              mstore\n              0x20\n              add\n              dup1\n              data_a74ea48608cdfe035c8c6ca4a7d54ad120fdff1995b6220e6cdf7b0a9f7f9e90\n              0x21\n              swap2\n              codecopy\n              0x40\n              add\n              swap2\n              pop\n              pop\n              mload(0x40)\n              dup1\n              swap2\n              sub\n              swap1\n              revert\n            tag_81:\n                /* \"contract/Accounts.sol\":2204:2209  false */\n              0x00\n                /* \"contract/Accounts.sol\":2186:2201  claimInProgress */\n              0x02\n              0x14\n                /* \"contract/Accounts.sol\":2186:2209  claimInProgress = false */\n              0x0100\n              exp\n              dup2\n              sload\n              dup2\n              0xff\n              mul\n              not\n              and\n              swap1\n              dup4\n              iszero\n              iszero\n              mul\n              or\n              swap1\n              sstore\n              pop\n                /* \"contract/Accounts.sol\":1991:2216  function stopClaim(address _sender) public {... */\n              pop\n              jump\t// out\n                /* \"contract/Accounts.sol\":453:481  uint public claimInitiatedAt */\n            tag_54:\n              sload(0x03)\n              dup2\n              jump\t// out\n                /* \"contract/Accounts.sol\":134:157  address public deployer */\n            tag_57:\n              0x00\n              dup1\n              sload\n              swap1\n              0x0100\n              exp\n              swap1\n              div\n              0xffffffffffffffffffffffffffffffffffffffff\n              and\n              dup2\n              jump\t// out\n                /* \"contract/Accounts.sol\":1048:1337  function initiateClaim(address _sender) public {... */\n            tag_61:\n                /* \"contract/Accounts.sol\":1121:1128  _sender */\n              dup1\n                /* \"contract/Accounts.sol\":1113:1128  heir == _sender */\n              0xffffffffffffffffffffffffffffffffffffffff\n              and\n                /* \"contract/Accounts.sol\":1113:1117  heir */\n              0x02\n              0x00\n              swap1\n              sload\n              swap1\n              0x0100\n              exp\n              swap1\n              div\n              0xffffffffffffffffffffffffffffffffffffffff\n              and\n                /* \"contract/Accounts.sol\":1113:1128  heir == _sender */\n              0xffffffffffffffffffffffffffffffffffffffff\n              and\n              eq\n                /* \"contract/Accounts.sol\":1105:1178  require(heir == _sender, \"Only the heir can initiate the claim process.\") */\n              tag_83\n              jumpi\n              mload(0x40)\n              0x08c379a000000000000000000000000000000000000000000000000000000000\n              dup2\n              mstore\n              0x04\n              add\n              dup1\n              dup1\n              0x20\n              add\n              dup3\n              dup2\n              sub\n              dup3\n              mstore\n              0x2d\n              dup2\n              mstore\n              0x20\n              add\n              dup1\n              data_382992ec7ac80344b935b4d826cba48d46c425c80199f7e0571f08941b089697\n              0x2d\n              swap2\n              codecopy\n              0x40\n              add\n              swap2\n              pop\n              pop\n              mload(0x40)\n              dup1\n              swap2\n              sub\n              swap1\n              revert\n            tag_83:\n                /* \"contract/Accounts.sol\":1197:1212  claimInProgress */\n              0x02\n              0x14\n              swap1\n              sload\n              swap1\n              0x0100\n              exp\n              swap1\n              div\n              0xff\n              and\n                /* \"contract/Accounts.sol\":1196:1212  !claimInProgress */\n              iszero\n                /* \"contract/Accounts.sol\":1188:1254  require(!claimInProgress, \"Claim process is already in progress.\") */\n              tag_84\n              jumpi\n              mload(0x40)\n              0x08c379a000000000000000000000000000000000000000000000000000000000\n              dup2\n              mstore\n              0x04\n              add\n              dup1\n              dup1\n              0x20\n              add\n              dup3\n              dup2\n              sub\n              dup3\n              mstore\n              0x25\n              dup2\n              mstore\n              0x20\n              add\n              dup1\n              data_b070038add67721f33dd3e8e89a590b38f24f445ce6482f61e44f88214ca4e20\n              0x25\n              swap2\n              codecopy\n              0x40\n              add\n              swap2\n              pop\n              pop\n              mload(0x40)\n              dup1\n              swap2\n              sub\n              swap1\n              revert\n            tag_84:\n                /* \"contract/Accounts.sol\":1282:1286  true */\n              0x01\n                /* \"contract/Accounts.sol\":1264:1279  claimInProgress */\n              0x02\n              0x14\n                /* \"contract/Accounts.sol\":1264:1286  claimInProgress = true */\n              0x0100\n              exp\n              dup2\n              sload\n              dup2\n              0xff\n              mul\n              not\n              and\n              swap1\n              dup4\n              iszero\n              iszero\n              mul\n              or\n              swap1\n              sstore\n              pop\n                /* \"contract/Accounts.sol\":1315:1330  block.timestamp */\n              timestamp\n                /* \"contract/Accounts.sol\":1296:1312  claimInitiatedAt */\n              0x03\n                /* \"contract/Accounts.sol\":1296:1330  claimInitiatedAt = block.timestamp */\n              dup2\n              swap1\n              sstore\n              pop\n                /* \"contract/Accounts.sol\":1048:1337  function initiateClaim(address _sender) public {... */\n              pop\n              jump\t// out\n                /* \"contract/Accounts.sol\":363:390  bool public claimInProgress */\n            tag_64:\n              0x02\n              0x14\n              swap1\n              sload\n              swap1\n              0x0100\n              exp\n              swap1\n              div\n              0xff\n              and\n              dup2\n              jump\t// out\n            stop\n            data_148bbb31cb54489a3d30e76428c3a488d2ae99543ba241143db43efef686f3b3 4f6e6c792074686520686569722063616e20636c61696d20746865206163636f756e742e\n            data_2c972908af29c60a43487557971a394330ae16b10c090b10f2de78d1c63b8c70 436c61696d2070726f6365737320686173206e6f74206265656e20696e697469617465642e\n            data_382992ec7ac80344b935b4d826cba48d46c425c80199f7e0571f08941b089697 4f6e6c792074686520686569722063616e20696e6974696174652074686520636c61696d2070726f636573732e\n            data_5f110f996a409987deba0e89eb5ab9b244ae95e2eb40f39dcd7a93c9276d5a70 4f6e6c7920746865206f776e65722063616e2077697468647261772066756e64732e\n            data_a74ea48608cdfe035c8c6ca4a7d54ad120fdff1995b6220e6cdf7b0a9f7f9e90 5468657265206973206e6f2061637469766520636c61696d20746f2073746f702e\n            data_b070038add67721f33dd3e8e89a590b38f24f445ce6482f61e44f88214ca4e20 436c61696d2070726f6365737320697320616c726561647920696e2070726f67726573732e\n\n            auxdata: 0xa2646970667358221220eae453a6ed97a56df2729698ff9db1ec2a9c87988bec44db0c837a3f6b24ae9864736f6c634300060c0033\n        }\n    }\n\n    auxdata: 0xa26469706673582212204d8791bef6457e67dbf6ae921a40b4aa234e8321cef46aaf6ce4b281200c0f5864736f6c634300060c0033\n}\n",
				"bytecode": {
					"linkReferences": {},
					"object": "608060405234801561001057600080fd5b50611989806100206000396000f3fe6080604052600436106100915760003560e01c806392e5a4ac1161005957806392e5a4ac14610211578063a3b00e7214610276578063b19ddaa0146102db578063b23d289b14610340578063d0c6ba891461038157610091565b806307282ff3146100965780631f41f4fe146100fb5780633c9ca59714610160578063460cab4f1461019b57806381a811b1146101d6575b600080fd5b3480156100a257600080fd5b506100f9600480360360608110156100b957600080fd5b8101908080359060200190929190803573ffffffffffffffffffffffffffffffffffffffff169060200190929190803590602001909291905050506103af565b005b34801561010757600080fd5b506101346004803603602081101561011e57600080fd5b8101908080359060200190929190505050610492565b604051808273ffffffffffffffffffffffffffffffffffffffff16815260200191505060405180910390f35b34801561016c57600080fd5b506101996004803603602081101561018357600080fd5b8101908080359060200190929190505050610552565b005b3480156101a757600080fd5b506101d4600480360360208110156101be57600080fd5b810190808035906020019092919050505061060d565b005b3480156101e257600080fd5b5061020f600480360360208110156101f957600080fd5b81019080803590602001909291905050506106c8565b005b34801561021d57600080fd5b5061024a6004803603602081101561023457600080fd5b8101908080359060200190929190505050610783565b604051808273ffffffffffffffffffffffffffffffffffffffff16815260200191505060405180910390f35b34801561028257600080fd5b506102af6004803603602081101561029957600080fd5b8101908080359060200190929190505050610843565b604051808273ffffffffffffffffffffffffffffffffffffffff16815260200191505060405180910390f35b3480156102e757600080fd5b50610314600480360360208110156102fe57600080fd5b8101908080359060200190929190505050610903565b604051808273ffffffffffffffffffffffffffffffffffffffff16815260200191505060405180910390f35b34801561034c57600080fd5b5061035561093f565b604051808273ffffffffffffffffffffffffffffffffffffffff16815260200191505060405180910390f35b6103ad6004803603602081101561039757600080fd5b81019080803590602001909291905050506109f8565b005b600083815481106103bc57fe5b9060005260206000200160009054906101000a900473ffffffffffffffffffffffffffffffffffffffff1673ffffffffffffffffffffffffffffffffffffffff16636e1a73738383336040518463ffffffff1660e01b8152600401808473ffffffffffffffffffffffffffffffffffffffff1681526020018381526020018273ffffffffffffffffffffffffffffffffffffffff1681526020019350505050600060405180830381600087803b15801561047557600080fd5b505af1158015610489573d6000803e3d6000fd5b50505050505050565b60008082815481106104a057fe5b9060005260206000200160009054906101000a900473ffffffffffffffffffffffffffffffffffffffff1673ffffffffffffffffffffffffffffffffffffffff1663362bb2ac6040518163ffffffff1660e01b815260040160206040518083038186803b15801561051057600080fd5b505afa158015610524573d6000803e3d6000fd5b505050506040513d602081101561053a57600080fd5b81019080805190602001909291905050509050919050565b6000818154811061055f57fe5b9060005260206000200160009054906101000a900473ffffffffffffffffffffffffffffffffffffffff1673ffffffffffffffffffffffffffffffffffffffff1663b7d1d98e336040518263ffffffff1660e01b8152600401808273ffffffffffffffffffffffffffffffffffffffff168152602001915050600060405180830381600087803b1580156105f257600080fd5b505af1158015610606573d6000803e3d6000fd5b5050505050565b6000818154811061061a57fe5b9060005260206000200160009054906101000a900473ffffffffffffffffffffffffffffffffffffffff1673ffffffffffffffffffffffffffffffffffffffff1663f2b5eea7336040518263ffffffff1660e01b8152600401808273ffffffffffffffffffffffffffffffffffffffff168152602001915050600060405180830381600087803b1580156106ad57600080fd5b505af11580156106c1573d6000803e3d6000fd5b5050505050565b600081815481106106d557fe5b9060005260206000200160009054906101000a900473ffffffffffffffffffffffffffffffffffffffff1673ffffffffffffffffffffffffffffffffffffffff16631e83409a336040518263ffffffff1660e01b8152600401808273ffffffffffffffffffffffffffffffffffffffff168152602001915050600060405180830381600087803b15801561076857600080fd5b505af115801561077c573d6000803e3d6000fd5b5050505050565b600080828154811061079157fe5b9060005260206000200160009054906101000a900473ffffffffffffffffffffffffffffffffffffffff1673ffffffffffffffffffffffffffffffffffffffff166356af4f756040518163ffffffff1660e01b815260040160206040518083038186803b15801561080157600080fd5b505afa158015610815573d6000803e3d6000fd5b505050506040513d602081101561082b57600080fd5b81019080805190602001909291905050509050919050565b600080828154811061085157fe5b9060005260206000200160009054906101000a900473ffffffffffffffffffffffffffffffffffffffff1673ffffffffffffffffffffffffffffffffffffffff166394a927fe6040518163ffffffff1660e01b815260040160206040518083038186803b1580156108c157600080fd5b505afa1580156108d5573d6000803e3d6000fd5b505050506040513d60208110156108eb57600080fd5b81019080805190602001909291905050509050919050565b6000818154811061091057fe5b906000526020600020016000915054906101000a900473ffffffffffffffffffffffffffffffffffffffff1681565b6000803360405161094f90610ab3565b808273ffffffffffffffffffffffffffffffffffffffff168152602001915050604051809103906000f08015801561098b573d6000803e3d6000fd5b5090506000819080600181540180825580915050600190039060005260206000200160009091909190916101000a81548173ffffffffffffffffffffffffffffffffffffffff021916908373ffffffffffffffffffffffffffffffffffffffff1602179055508091505090565b60008181548110610a0557fe5b9060005260206000200160009054906101000a900473ffffffffffffffffffffffffffffffffffffffff1673ffffffffffffffffffffffffffffffffffffffff166351cff8d9336040518263ffffffff1660e01b8152600401808273ffffffffffffffffffffffffffffffffffffffff168152602001915050600060405180830381600087803b158015610a9857600080fd5b505af1158015610aac573d6000803e3d6000fd5b5050505050565b610e9380610ac18339019056fe608060405234801561001057600080fd5b50604051610e93380380610e938339818101604052602081101561003357600080fd5b810190808051906020019092919050505080600160006101000a81548173ffffffffffffffffffffffffffffffffffffffff021916908373ffffffffffffffffffffffffffffffffffffffff160217905550336000806101000a81548173ffffffffffffffffffffffffffffffffffffffff021916908373ffffffffffffffffffffffffffffffffffffffff16021790555050610dbe806100d56000396000f3fe6080604052600436106100dd5760003560e01c806391f2ebb81161007f578063c7983e2011610059578063c7983e20146103b3578063d5f39488146103de578063f2b5eea71461041f578063faedd18e14610470576100dd565b806391f2ebb8146102e057806394a927fe14610321578063b7d1d98e14610362576100dd565b806351cff8d9116100bb57806351cff8d91461019f57806356af4f75146101e35780636e1a7373146102245780638da5cb5b1461029f576100dd565b80631c8ec299146100e25780631e83409a1461010d578063362bb2ac1461015e575b600080fd5b3480156100ee57600080fd5b506100f761049d565b6040518082815260200191505060405180910390f35b34801561011957600080fd5b5061015c6004803603602081101561013057600080fd5b81019080803573ffffffffffffffffffffffffffffffffffffffff1690602001909291905050506104a3565b005b34801561016a57600080fd5b50610173610695565b604051808273ffffffffffffffffffffffffffffffffffffffff16815260200191505060405180910390f35b6101e1600480360360208110156101b557600080fd5b81019080803573ffffffffffffffffffffffffffffffffffffffff1690602001909291905050506106be565b005b3480156101ef57600080fd5b506101f8610846565b604051808273ffffffffffffffffffffffffffffffffffffffff16815260200191505060405180910390f35b34801561023057600080fd5b5061029d6004803603606081101561024757600080fd5b81019080803573ffffffffffffffffffffffffffffffffffffffff16906020019092919080359060200190929190803573ffffffffffffffffffffffffffffffffffffffff169060200190929190505050610870565b005b3480156102ab57600080fd5b506102b4610980565b604051808273ffffffffffffffffffffffffffffffffffffffff16815260200191505060405180910390f35b3480156102ec57600080fd5b506102f56109a6565b604051808273ffffffffffffffffffffffffffffffffffffffff16815260200191505060405180910390f35b34801561032d57600080fd5b506103366109cc565b604051808273ffffffffffffffffffffffffffffffffffffffff16815260200191505060405180910390f35b34801561036e57600080fd5b506103b16004803603602081101561038557600080fd5b81019080803573ffffffffffffffffffffffffffffffffffffffff1690602001909291905050506109f6565b005b3480156103bf57600080fd5b506103c8610b3c565b6040518082815260200191505060405180910390f35b3480156103ea57600080fd5b506103f3610b42565b604051808273ffffffffffffffffffffffffffffffffffffffff16815260200191505060405180910390f35b34801561042b57600080fd5b5061046e6004803603602081101561044257600080fd5b81019080803573ffffffffffffffffffffffffffffffffffffffff169060200190929190505050610b66565b005b34801561047c57600080fd5b50610485610c97565b60405180821515815260200191505060405180910390f35b60045481565b8073ffffffffffffffffffffffffffffffffffffffff16600260009054906101000a900473ffffffffffffffffffffffffffffffffffffffff1673ffffffffffffffffffffffffffffffffffffffff1614610549576040517f08c379a0000000000000000000000000000000000000000000000000000000008152600401808060200182810382526024815260200180610cab6024913960400191505060405180910390fd5b600260149054906101000a900460ff166105ae576040517f08c379a0000000000000000000000000000000000000000000000000000000008152600401808060200182810382526025815260200180610ccf6025913960400191505060405180910390fd5b62015180600454026003540142101561062f576040517f08c379a000000000000000000000000000000000000000000000000000000000815260040180806020018281038252601c8152602001807f436c61696d2064656c617920686173206e6f7420657870697265642e0000000081525060200191505060405180910390fd5b600260009054906101000a900473ffffffffffffffffffffffffffffffffffffffff16600160006101000a81548173ffffffffffffffffffffffffffffffffffffffff021916908373ffffffffffffffffffffffffffffffffffffffff16021790555050565b60008060009054906101000a900473ffffffffffffffffffffffffffffffffffffffff16905090565b600160009054906101000a900473ffffffffffffffffffffffffffffffffffffffff1673ffffffffffffffffffffffffffffffffffffffff168173ffffffffffffffffffffffffffffffffffffffff1614610764576040517f08c379a0000000000000000000000000000000000000000000000000000000008152600401808060200182810382526022815260200180610d216022913960400191505060405180910390fd5b600047116107da576040517f08c379a000000000000000000000000000000000000000000000000000000000815260040180806020018281038252601f8152602001807f546865726520617265206e6f2066756e647320746f2077697468647261772e0081525060200191505060405180910390fd5b600160009054906101000a900473ffffffffffffffffffffffffffffffffffffffff1673ffffffffffffffffffffffffffffffffffffffff166108fc479081150290604051600060405180830381858888f19350505050158015610842573d6000803e3d6000fd5b5050565b6000600260009054906101000a900473ffffffffffffffffffffffffffffffffffffffff16905090565b8073ffffffffffffffffffffffffffffffffffffffff16600160009054906101000a900473ffffffffffffffffffffffffffffffffffffffff1673ffffffffffffffffffffffffffffffffffffffff1614610933576040517f08c379a00000000000000000000000000000000000000000000000000000000081526004018080602001828103825260208152602001807f4f6e6c7920746865206f776e65722063616e207365742074686520686569722e81525060200191505060405180910390fd5b82600260006101000a81548173ffffffffffffffffffffffffffffffffffffffff021916908373ffffffffffffffffffffffffffffffffffffffff16021790555081600481905550505050565b600160009054906101000a900473ffffffffffffffffffffffffffffffffffffffff1681565b600260009054906101000a900473ffffffffffffffffffffffffffffffffffffffff1681565b6000600160009054906101000a900473ffffffffffffffffffffffffffffffffffffffff16905090565b600160009054906101000a900473ffffffffffffffffffffffffffffffffffffffff1673ffffffffffffffffffffffffffffffffffffffff168173ffffffffffffffffffffffffffffffffffffffff1614610ab9576040517f08c379a00000000000000000000000000000000000000000000000000000000081526004018080602001828103825260208152602001807f4f6e6c7920746865206f776e65722063616e2073746f70206120636c61696d2e81525060200191505060405180910390fd5b600260149054906101000a900460ff16610b1e576040517f08c379a0000000000000000000000000000000000000000000000000000000008152600401808060200182810382526021815260200180610d436021913960400191505060405180910390fd5b6000600260146101000a81548160ff02191690831515021790555050565b60035481565b60008054906101000a900473ffffffffffffffffffffffffffffffffffffffff1681565b8073ffffffffffffffffffffffffffffffffffffffff16600260009054906101000a900473ffffffffffffffffffffffffffffffffffffffff1673ffffffffffffffffffffffffffffffffffffffff1614610c0c576040517f08c379a000000000000000000000000000000000000000000000000000000000815260040180806020018281038252602d815260200180610cf4602d913960400191505060405180910390fd5b600260149054906101000a900460ff1615610c72576040517f08c379a0000000000000000000000000000000000000000000000000000000008152600401808060200182810382526025815260200180610d646025913960400191505060405180910390fd5b6001600260146101000a81548160ff0219169083151502179055504260038190555050565b600260149054906101000a900460ff168156fe4f6e6c792074686520686569722063616e20636c61696d20746865206163636f756e742e436c61696d2070726f6365737320686173206e6f74206265656e20696e697469617465642e4f6e6c792074686520686569722063616e20696e6974696174652074686520636c61696d2070726f636573732e4f6e6c7920746865206f776e65722063616e2077697468647261772066756e64732e5468657265206973206e6f2061637469766520636c61696d20746f2073746f702e436c61696d2070726f6365737320697320616c726561647920696e2070726f67726573732ea2646970667358221220eae453a6ed97a56df2729698ff9db1ec2a9c87988bec44db0c837a3f6b24ae9864736f6c634300060c0033a26469706673582212204d8791bef6457e67dbf6ae921a40b4aa234e8321cef46aaf6ce4b281200c0f5864736f6c634300060c0033",
					"opcodes": "PUSH1 0x80 PUSH1 0x40 MSTORE CALLVALUE DUP1 ISZERO PUSH2 0x10 JUMPI PUSH1 0x0 DUP1 REVERT JUMPDEST POP PUSH2 0x1989 DUP1 PUSH2 0x20 PUSH1 0x0 CODECOPY PUSH1 0x0 RETURN INVALID PUSH1 0x80 PUSH1 0x40 MSTORE PUSH1 0x4 CALLDATASIZE LT PUSH2 0x91 JUMPI PUSH1 0x0 CALLDATALOAD PUSH1 0xE0 SHR DUP1 PUSH4 0x92E5A4AC GT PUSH2 0x59 JUMPI DUP1 PUSH4 0x92E5A4AC EQ PUSH2 0x211 JUMPI DUP1 PUSH4 0xA3B00E72 EQ PUSH2 0x276 JUMPI DUP1 PUSH4 0xB19DDAA0 EQ PUSH2 0x2DB JUMPI DUP1 PUSH4 0xB23D289B EQ PUSH2 0x340 JUMPI DUP1 PUSH4 0xD0C6BA89 EQ PUSH2 0x381 JUMPI PUSH2 0x91 JUMP JUMPDEST DUP1 PUSH4 0x7282FF3 EQ PUSH2 0x96 JUMPI DUP1 PUSH4 0x1F41F4FE EQ PUSH2 0xFB JUMPI DUP1 PUSH4 0x3C9CA597 EQ PUSH2 0x160 JUMPI DUP1 PUSH4 0x460CAB4F EQ PUSH2 0x19B JUMPI DUP1 PUSH4 0x81A811B1 EQ PUSH2 0x1D6 JUMPI JUMPDEST PUSH1 0x0 DUP1 REVERT JUMPDEST CALLVALUE DUP1 ISZERO PUSH2 0xA2 JUMPI PUSH1 0x0 DUP1 REVERT JUMPDEST POP PUSH2 0xF9 PUSH1 0x4 DUP1 CALLDATASIZE SUB PUSH1 0x60 DUP2 LT ISZERO PUSH2 0xB9 JUMPI PUSH1 0x0 DUP1 REVERT JUMPDEST DUP2 ADD SWAP1 DUP1 DUP1 CALLDATALOAD SWAP1 PUSH1 0x20 ADD SWAP1 SWAP3 SWAP2 SWAP1 DUP1 CALLDATALOAD PUSH20 0xFFFFFFFFFFFFFFFFFFFFFFFFFFFFFFFFFFFFFFFF AND SWAP1 PUSH1 0x20 ADD SWAP1 SWAP3 SWAP2 SWAP1 DUP1 CALLDATALOAD SWAP1 PUSH1 0x20 ADD SWAP1 SWAP3 SWAP2 SWAP1 POP POP POP PUSH2 0x3AF JUMP JUMPDEST STOP JUMPDEST CALLVALUE DUP1 ISZERO PUSH2 0x107 JUMPI PUSH1 0x0 DUP1 REVERT JUMPDEST POP PUSH2 0x134 PUSH1 0x4 DUP1 CALLDATASIZE SUB PUSH1 0x20 DUP2 LT ISZERO PUSH2 0x11E JUMPI PUSH1 0x0 DUP1 REVERT JUMPDEST DUP2 ADD SWAP1 DUP1 DUP1 CALLDATALOAD SWAP1 PUSH1 0x20 ADD SWAP1 SWAP3 SWAP2 SWAP1 POP POP POP PUSH2 0x492 JUMP JUMPDEST PUSH1 0x40 MLOAD DUP1 DUP3 PUSH20 0xFFFFFFFFFFFFFFFFFFFFFFFFFFFFFFFFFFFFFFFF AND DUP2 MSTORE PUSH1 0x20 ADD SWAP2 POP POP PUSH1 0x40 MLOAD DUP1 SWAP2 SUB SWAP1 RETURN JUMPDEST CALLVALUE DUP1 ISZERO PUSH2 0x16C JUMPI PUSH1 0x0 DUP1 REVERT JUMPDEST POP PUSH2 0x199 PUSH1 0x4 DUP1 CALLDATASIZE SUB PUSH1 0x20 DUP2 LT ISZERO PUSH2 0x183 JUMPI PUSH1 0x0 DUP1 REVERT JUMPDEST DUP2 ADD SWAP1 DUP1 DUP1 CALLDATALOAD SWAP1 PUSH1 0x20 ADD SWAP1 SWAP3 SWAP2 SWAP1 POP POP POP PUSH2 0x552 JUMP JUMPDEST STOP JUMPDEST CALLVALUE DUP1 ISZERO PUSH2 0x1A7 JUMPI PUSH1 0x0 DUP1 REVERT JUMPDEST POP PUSH2 0x1D4 PUSH1 0x4 DUP1 CALLDATASIZE SUB PUSH1 0x20 DUP2 LT ISZERO PUSH2 0x1BE JUMPI PUSH1 0x0 DUP1 REVERT JUMPDEST DUP2 ADD SWAP1 DUP1 DUP1 CALLDATALOAD SWAP1 PUSH1 0x20 ADD SWAP1 SWAP3 SWAP2 SWAP1 POP POP POP PUSH2 0x60D JUMP JUMPDEST STOP JUMPDEST CALLVALUE DUP1 ISZERO PUSH2 0x1E2 JUMPI PUSH1 0x0 DUP1 REVERT JUMPDEST POP PUSH2 0x20F PUSH1 0x4 DUP1 CALLDATASIZE SUB PUSH1 0x20 DUP2 LT ISZERO PUSH2 0x1F9 JUMPI PUSH1 0x0 DUP1 REVERT JUMPDEST DUP2 ADD SWAP1 DUP1 DUP1 CALLDATALOAD SWAP1 PUSH1 0x20 ADD SWAP1 SWAP3 SWAP2 SWAP1 POP POP POP PUSH2 0x6C8 JUMP JUMPDEST STOP JUMPDEST CALLVALUE DUP1 ISZERO PUSH2 0x21D JUMPI PUSH1 0x0 DUP1 REVERT JUMPDEST POP PUSH2 0x24A PUSH1 0x4 DUP1 CALLDATASIZE SUB PUSH1 0x20 DUP2 LT ISZERO PUSH2 0x234 JUMPI PUSH1 0x0 DUP1 REVERT JUMPDEST DUP2 ADD SWAP1 DUP1 DUP1 CALLDATALOAD SWAP1 PUSH1 0x20 ADD SWAP1 SWAP3 SWAP2 SWAP1 POP POP POP PUSH2 0x783 JUMP JUMPDEST PUSH1 0x40 MLOAD DUP1 DUP3 PUSH20 0xFFFFFFFFFFFFFFFFFFFFFFFFFFFFFFFFFFFFFFFF AND DUP2 MSTORE PUSH1 0x20 ADD SWAP2 POP POP PUSH1 0x40 MLOAD DUP1 SWAP2 SUB SWAP1 RETURN JUMPDEST CALLVALUE DUP1 ISZERO PUSH2 0x282 JUMPI PUSH1 0x0 DUP1 REVERT JUMPDEST POP PUSH2 0x2AF PUSH1 0x4 DUP1 CALLDATASIZE SUB PUSH1 0x20 DUP2 LT ISZERO PUSH2 0x299 JUMPI PUSH1 0x0 DUP1 REVERT JUMPDEST DUP2 ADD SWAP1 DUP1 DUP1 CALLDATALOAD SWAP1 PUSH1 0x20 ADD SWAP1 SWAP3 SWAP2 SWAP1 POP POP POP PUSH2 0x843 JUMP JUMPDEST PUSH1 0x40 MLOAD DUP1 DUP3 PUSH20 0xFFFFFFFFFFFFFFFFFFFFFFFFFFFFFFFFFFFFFFFF AND DUP2 MSTORE PUSH1 0x20 ADD SWAP2 POP POP PUSH1 0x40 MLOAD DUP1 SWAP2 SUB SWAP1 RETURN JUMPDEST CALLVALUE DUP1 ISZERO PUSH2 0x2E7 JUMPI PUSH1 0x0 DUP1 REVERT JUMPDEST POP PUSH2 0x314 PUSH1 0x4 DUP1 CALLDATASIZE SUB PUSH1 0x20 DUP2 LT ISZERO PUSH2 0x2FE JUMPI PUSH1 0x0 DUP1 REVERT JUMPDEST DUP2 ADD SWAP1 DUP1 DUP1 CALLDATALOAD SWAP1 PUSH1 0x20 ADD SWAP1 SWAP3 SWAP2 SWAP1 POP POP POP PUSH2 0x903 JUMP JUMPDEST PUSH1 0x40 MLOAD DUP1 DUP3 PUSH20 0xFFFFFFFFFFFFFFFFFFFFFFFFFFFFFFFFFFFFFFFF AND DUP2 MSTORE PUSH1 0x20 ADD SWAP2 POP POP PUSH1 0x40 MLOAD DUP1 SWAP2 SUB SWAP1 RETURN JUMPDEST CALLVALUE DUP1 ISZERO PUSH2 0x34C JUMPI PUSH1 0x0 DUP1 REVERT JUMPDEST POP PUSH2 0x355 PUSH2 0x93F JUMP JUMPDEST PUSH1 0x40 MLOAD DUP1 DUP3 PUSH20 0xFFFFFFFFFFFFFFFFFFFFFFFFFFFFFFFFFFFFFFFF AND DUP2 MSTORE PUSH1 0x20 ADD SWAP2 POP POP PUSH1 0x40 MLOAD DUP1 SWAP2 SUB SWAP1 RETURN JUMPDEST PUSH2 0x3AD PUSH1 0x4 DUP1 CALLDATASIZE SUB PUSH1 0x20 DUP2 LT ISZERO PUSH2 0x397 JUMPI PUSH1 0x0 DUP1 REVERT JUMPDEST DUP2 ADD SWAP1 DUP1 DUP1 CALLDATALOAD SWAP1 PUSH1 0x20 ADD SWAP1 SWAP3 SWAP2 SWAP1 POP POP POP PUSH2 0x9F8 JUMP JUMPDEST STOP JUMPDEST PUSH1 0x0 DUP4 DUP2 SLOAD DUP2 LT PUSH2 0x3BC JUMPI INVALID JUMPDEST SWAP1 PUSH1 0x0 MSTORE PUSH1 0x20 PUSH1 0x0 KECCAK256 ADD PUSH1 0x0 SWAP1 SLOAD SWAP1 PUSH2 0x100 EXP SWAP1 DIV PUSH20 0xFFFFFFFFFFFFFFFFFFFFFFFFFFFFFFFFFFFFFFFF AND PUSH20 0xFFFFFFFFFFFFFFFFFFFFFFFFFFFFFFFFFFFFFFFF AND PUSH4 0x6E1A7373 DUP4 DUP4 CALLER PUSH1 0x40 MLOAD DUP5 PUSH4 0xFFFFFFFF AND PUSH1 0xE0 SHL DUP2 MSTORE PUSH1 0x4 ADD DUP1 DUP5 PUSH20 0xFFFFFFFFFFFFFFFFFFFFFFFFFFFFFFFFFFFFFFFF AND DUP2 MSTORE PUSH1 0x20 ADD DUP4 DUP2 MSTORE PUSH1 0x20 ADD DUP3 PUSH20 0xFFFFFFFFFFFFFFFFFFFFFFFFFFFFFFFFFFFFFFFF AND DUP2 MSTORE PUSH1 0x20 ADD SWAP4 POP POP POP POP PUSH1 0x0 PUSH1 0x40 MLOAD DUP1 DUP4 SUB DUP2 PUSH1 0x0 DUP8 DUP1 EXTCODESIZE ISZERO DUP1 ISZERO PUSH2 0x475 JUMPI PUSH1 0x0 DUP1 REVERT JUMPDEST POP GAS CALL ISZERO DUP1 ISZERO PUSH2 0x489 JUMPI RETURNDATASIZE PUSH1 0x0 DUP1 RETURNDATACOPY RETURNDATASIZE PUSH1 0x0 REVERT JUMPDEST POP POP POP POP POP POP POP JUMP JUMPDEST PUSH1 0x0 DUP1 DUP3 DUP2 SLOAD DUP2 LT PUSH2 0x4A0 JUMPI INVALID JUMPDEST SWAP1 PUSH1 0x0 MSTORE PUSH1 0x20 PUSH1 0x0 KECCAK256 ADD PUSH1 0x0 SWAP1 SLOAD SWAP1 PUSH2 0x100 EXP SWAP1 DIV PUSH20 0xFFFFFFFFFFFFFFFFFFFFFFFFFFFFFFFFFFFFFFFF AND PUSH20 0xFFFFFFFFFFFFFFFFFFFFFFFFFFFFFFFFFFFFFFFF AND PUSH4 0x362BB2AC PUSH1 0x40 MLOAD DUP2 PUSH4 0xFFFFFFFF AND PUSH1 0xE0 SHL DUP2 MSTORE PUSH1 0x4 ADD PUSH1 0x20 PUSH1 0x40 MLOAD DUP1 DUP4 SUB DUP2 DUP7 DUP1 EXTCODESIZE ISZERO DUP1 ISZERO PUSH2 0x510 JUMPI PUSH1 0x0 DUP1 REVERT JUMPDEST POP GAS STATICCALL ISZERO DUP1 ISZERO PUSH2 0x524 JUMPI RETURNDATASIZE PUSH1 0x0 DUP1 RETURNDATACOPY RETURNDATASIZE PUSH1 0x0 REVERT JUMPDEST POP POP POP POP PUSH1 0x40 MLOAD RETURNDATASIZE PUSH1 0x20 DUP2 LT ISZERO PUSH2 0x53A JUMPI PUSH1 0x0 DUP1 REVERT JUMPDEST DUP2 ADD SWAP1 DUP1 DUP1 MLOAD SWAP1 PUSH1 0x20 ADD SWAP1 SWAP3 SWAP2 SWAP1 POP POP POP SWAP1 POP SWAP2 SWAP1 POP JUMP JUMPDEST PUSH1 0x0 DUP2 DUP2 SLOAD DUP2 LT PUSH2 0x55F JUMPI INVALID JUMPDEST SWAP1 PUSH1 0x0 MSTORE PUSH1 0x20 PUSH1 0x0 KECCAK256 ADD PUSH1 0x0 SWAP1 SLOAD SWAP1 PUSH2 0x100 EXP SWAP1 DIV PUSH20 0xFFFFFFFFFFFFFFFFFFFFFFFFFFFFFFFFFFFFFFFF AND PUSH20 0xFFFFFFFFFFFFFFFFFFFFFFFFFFFFFFFFFFFFFFFF AND PUSH4 0xB7D1D98E CALLER PUSH1 0x40 MLOAD DUP3 PUSH4 0xFFFFFFFF AND PUSH1 0xE0 SHL DUP2 MSTORE PUSH1 0x4 ADD DUP1 DUP3 PUSH20 0xFFFFFFFFFFFFFFFFFFFFFFFFFFFFFFFFFFFFFFFF AND DUP2 MSTORE PUSH1 0x20 ADD SWAP2 POP POP PUSH1 0x0 PUSH1 0x40 MLOAD DUP1 DUP4 SUB DUP2 PUSH1 0x0 DUP8 DUP1 EXTCODESIZE ISZERO DUP1 ISZERO PUSH2 0x5F2 JUMPI PUSH1 0x0 DUP1 REVERT JUMPDEST POP GAS CALL ISZERO DUP1 ISZERO PUSH2 0x606 JUMPI RETURNDATASIZE PUSH1 0x0 DUP1 RETURNDATACOPY RETURNDATASIZE PUSH1 0x0 REVERT JUMPDEST POP POP POP POP POP JUMP JUMPDEST PUSH1 0x0 DUP2 DUP2 SLOAD DUP2 LT PUSH2 0x61A JUMPI INVALID JUMPDEST SWAP1 PUSH1 0x0 MSTORE PUSH1 0x20 PUSH1 0x0 KECCAK256 ADD PUSH1 0x0 SWAP1 SLOAD SWAP1 PUSH2 0x100 EXP SWAP1 DIV PUSH20 0xFFFFFFFFFFFFFFFFFFFFFFFFFFFFFFFFFFFFFFFF AND PUSH20 0xFFFFFFFFFFFFFFFFFFFFFFFFFFFFFFFFFFFFFFFF AND PUSH4 0xF2B5EEA7 CALLER PUSH1 0x40 MLOAD DUP3 PUSH4 0xFFFFFFFF AND PUSH1 0xE0 SHL DUP2 MSTORE PUSH1 0x4 ADD DUP1 DUP3 PUSH20 0xFFFFFFFFFFFFFFFFFFFFFFFFFFFFFFFFFFFFFFFF AND DUP2 MSTORE PUSH1 0x20 ADD SWAP2 POP POP PUSH1 0x0 PUSH1 0x40 MLOAD DUP1 DUP4 SUB DUP2 PUSH1 0x0 DUP8 DUP1 EXTCODESIZE ISZERO DUP1 ISZERO PUSH2 0x6AD JUMPI PUSH1 0x0 DUP1 REVERT JUMPDEST POP GAS CALL ISZERO DUP1 ISZERO PUSH2 0x6C1 JUMPI RETURNDATASIZE PUSH1 0x0 DUP1 RETURNDATACOPY RETURNDATASIZE PUSH1 0x0 REVERT JUMPDEST POP POP POP POP POP JUMP JUMPDEST PUSH1 0x0 DUP2 DUP2 SLOAD DUP2 LT PUSH2 0x6D5 JUMPI INVALID JUMPDEST SWAP1 PUSH1 0x0 MSTORE PUSH1 0x20 PUSH1 0x0 KECCAK256 ADD PUSH1 0x0 SWAP1 SLOAD SWAP1 PUSH2 0x100 EXP SWAP1 DIV PUSH20 0xFFFFFFFFFFFFFFFFFFFFFFFFFFFFFFFFFFFFFFFF AND PUSH20 0xFFFFFFFFFFFFFFFFFFFFFFFFFFFFFFFFFFFFFFFF AND PUSH4 0x1E83409A CALLER PUSH1 0x40 MLOAD DUP3 PUSH4 0xFFFFFFFF AND PUSH1 0xE0 SHL DUP2 MSTORE PUSH1 0x4 ADD DUP1 DUP3 PUSH20 0xFFFFFFFFFFFFFFFFFFFFFFFFFFFFFFFFFFFFFFFF AND DUP2 MSTORE PUSH1 0x20 ADD SWAP2 POP POP PUSH1 0x0 PUSH1 0x40 MLOAD DUP1 DUP4 SUB DUP2 PUSH1 0x0 DUP8 DUP1 EXTCODESIZE ISZERO DUP1 ISZERO PUSH2 0x768 JUMPI PUSH1 0x0 DUP1 REVERT JUMPDEST POP GAS CALL ISZERO DUP1 ISZERO PUSH2 0x77C JUMPI RETURNDATASIZE PUSH1 0x0 DUP1 RETURNDATACOPY RETURNDATASIZE PUSH1 0x0 REVERT JUMPDEST POP POP POP POP POP JUMP JUMPDEST PUSH1 0x0 DUP1 DUP3 DUP2 SLOAD DUP2 LT PUSH2 0x791 JUMPI INVALID JUMPDEST SWAP1 PUSH1 0x0 MSTORE PUSH1 0x20 PUSH1 0x0 KECCAK256 ADD PUSH1 0x0 SWAP1 SLOAD SWAP1 PUSH2 0x100 EXP SWAP1 DIV PUSH20 0xFFFFFFFFFFFFFFFFFFFFFFFFFFFFFFFFFFFFFFFF AND PUSH20 0xFFFFFFFFFFFFFFFFFFFFFFFFFFFFFFFFFFFFFFFF AND PUSH4 0x56AF4F75 PUSH1 0x40 MLOAD DUP2 PUSH4 0xFFFFFFFF AND PUSH1 0xE0 SHL DUP2 MSTORE PUSH1 0x4 ADD PUSH1 0x20 PUSH1 0x40 MLOAD DUP1 DUP4 SUB DUP2 DUP7 DUP1 EXTCODESIZE ISZERO DUP1 ISZERO PUSH2 0x801 JUMPI PUSH1 0x0 DUP1 REVERT JUMPDEST POP GAS STATICCALL ISZERO DUP1 ISZERO PUSH2 0x815 JUMPI RETURNDATASIZE PUSH1 0x0 DUP1 RETURNDATACOPY RETURNDATASIZE PUSH1 0x0 REVERT JUMPDEST POP POP POP POP PUSH1 0x40 MLOAD RETURNDATASIZE PUSH1 0x20 DUP2 LT ISZERO PUSH2 0x82B JUMPI PUSH1 0x0 DUP1 REVERT JUMPDEST DUP2 ADD SWAP1 DUP1 DUP1 MLOAD SWAP1 PUSH1 0x20 ADD SWAP1 SWAP3 SWAP2 SWAP1 POP POP POP SWAP1 POP SWAP2 SWAP1 POP JUMP JUMPDEST PUSH1 0x0 DUP1 DUP3 DUP2 SLOAD DUP2 LT PUSH2 0x851 JUMPI INVALID JUMPDEST SWAP1 PUSH1 0x0 MSTORE PUSH1 0x20 PUSH1 0x0 KECCAK256 ADD PUSH1 0x0 SWAP1 SLOAD SWAP1 PUSH2 0x100 EXP SWAP1 DIV PUSH20 0xFFFFFFFFFFFFFFFFFFFFFFFFFFFFFFFFFFFFFFFF AND PUSH20 0xFFFFFFFFFFFFFFFFFFFFFFFFFFFFFFFFFFFFFFFF AND PUSH4 0x94A927FE PUSH1 0x40 MLOAD DUP2 PUSH4 0xFFFFFFFF AND PUSH1 0xE0 SHL DUP2 MSTORE PUSH1 0x4 ADD PUSH1 0x20 PUSH1 0x40 MLOAD DUP1 DUP4 SUB DUP2 DUP7 DUP1 EXTCODESIZE ISZERO DUP1 ISZERO PUSH2 0x8C1 JUMPI PUSH1 0x0 DUP1 REVERT JUMPDEST POP GAS STATICCALL ISZERO DUP1 ISZERO PUSH2 0x8D5 JUMPI RETURNDATASIZE PUSH1 0x0 DUP1 RETURNDATACOPY RETURNDATASIZE PUSH1 0x0 REVERT JUMPDEST POP POP POP POP PUSH1 0x40 MLOAD RETURNDATASIZE PUSH1 0x20 DUP2 LT ISZERO PUSH2 0x8EB JUMPI PUSH1 0x0 DUP1 REVERT JUMPDEST DUP2 ADD SWAP1 DUP1 DUP1 MLOAD SWAP1 PUSH1 0x20 ADD SWAP1 SWAP3 SWAP2 SWAP1 POP POP POP SWAP1 POP SWAP2 SWAP1 POP JUMP JUMPDEST PUSH1 0x0 DUP2 DUP2 SLOAD DUP2 LT PUSH2 0x910 JUMPI INVALID JUMPDEST SWAP1 PUSH1 0x0 MSTORE PUSH1 0x20 PUSH1 0x0 KECCAK256 ADD PUSH1 0x0 SWAP2 POP SLOAD SWAP1 PUSH2 0x100 EXP SWAP1 DIV PUSH20 0xFFFFFFFFFFFFFFFFFFFFFFFFFFFFFFFFFFFFFFFF AND DUP2 JUMP JUMPDEST PUSH1 0x0 DUP1 CALLER PUSH1 0x40 MLOAD PUSH2 0x94F SWAP1 PUSH2 0xAB3 JUMP JUMPDEST DUP1 DUP3 PUSH20 0xFFFFFFFFFFFFFFFFFFFFFFFFFFFFFFFFFFFFFFFF AND DUP2 MSTORE PUSH1 0x20 ADD SWAP2 POP POP PUSH1 0x40 MLOAD DUP1 SWAP2 SUB SWAP1 PUSH1 0x0 CREATE DUP1 ISZERO DUP1 ISZERO PUSH2 0x98B JUMPI RETURNDATASIZE PUSH1 0x0 DUP1 RETURNDATACOPY RETURNDATASIZE PUSH1 0x0 REVERT JUMPDEST POP SWAP1 POP PUSH1 0x0 DUP2 SWAP1 DUP1 PUSH1 0x1 DUP2 SLOAD ADD DUP1 DUP3 SSTORE DUP1 SWAP2 POP POP PUSH1 0x1 SWAP1 SUB SWAP1 PUSH1 0x0 MSTORE PUSH1 0x20 PUSH1 0x0 KECCAK256 ADD PUSH1 0x0 SWAP1 SWAP2 SWAP1 SWAP2 SWAP1 SWAP2 PUSH2 0x100 EXP DUP2 SLOAD DUP2 PUSH20 0xFFFFFFFFFFFFFFFFFFFFFFFFFFFFFFFFFFFFFFFF MUL NOT AND SWAP1 DUP4 PUSH20 0xFFFFFFFFFFFFFFFFFFFFFFFFFFFFFFFFFFFFFFFF AND MUL OR SWAP1 SSTORE POP DUP1 SWAP2 POP POP SWAP1 JUMP JUMPDEST PUSH1 0x0 DUP2 DUP2 SLOAD DUP2 LT PUSH2 0xA05 JUMPI INVALID JUMPDEST SWAP1 PUSH1 0x0 MSTORE PUSH1 0x20 PUSH1 0x0 KECCAK256 ADD PUSH1 0x0 SWAP1 SLOAD SWAP1 PUSH2 0x100 EXP SWAP1 DIV PUSH20 0xFFFFFFFFFFFFFFFFFFFFFFFFFFFFFFFFFFFFFFFF AND PUSH20 0xFFFFFFFFFFFFFFFFFFFFFFFFFFFFFFFFFFFFFFFF AND PUSH4 0x51CFF8D9 CALLER PUSH1 0x40 MLOAD DUP3 PUSH4 0xFFFFFFFF AND PUSH1 0xE0 SHL DUP2 MSTORE PUSH1 0x4 ADD DUP1 DUP3 PUSH20 0xFFFFFFFFFFFFFFFFFFFFFFFFFFFFFFFFFFFFFFFF AND DUP2 MSTORE PUSH1 0x20 ADD SWAP2 POP POP PUSH1 0x0 PUSH1 0x40 MLOAD DUP1 DUP4 SUB DUP2 PUSH1 0x0 DUP8 DUP1 EXTCODESIZE ISZERO DUP1 ISZERO PUSH2 0xA98 JUMPI PUSH1 0x0 DUP1 REVERT JUMPDEST POP GAS CALL ISZERO DUP1 ISZERO PUSH2 0xAAC JUMPI RETURNDATASIZE PUSH1 0x0 DUP1 RETURNDATACOPY RETURNDATASIZE PUSH1 0x0 REVERT JUMPDEST POP POP POP POP POP JUMP JUMPDEST PUSH2 0xE93 DUP1 PUSH2 0xAC1 DUP4 CODECOPY ADD SWAP1 JUMP INVALID PUSH1 0x80 PUSH1 0x40 MSTORE CALLVALUE DUP1 ISZERO PUSH2 0x10 JUMPI PUSH1 0x0 DUP1 REVERT JUMPDEST POP PUSH1 0x40 MLOAD PUSH2 0xE93 CODESIZE SUB DUP1 PUSH2 0xE93 DUP4 CODECOPY DUP2 DUP2 ADD PUSH1 0x40 MSTORE PUSH1 0x20 DUP2 LT ISZERO PUSH2 0x33 JUMPI PUSH1 0x0 DUP1 REVERT JUMPDEST DUP2 ADD SWAP1 DUP1 DUP1 MLOAD SWAP1 PUSH1 0x20 ADD SWAP1 SWAP3 SWAP2 SWAP1 POP POP POP DUP1 PUSH1 0x1 PUSH1 0x0 PUSH2 0x100 EXP DUP2 SLOAD DUP2 PUSH20 0xFFFFFFFFFFFFFFFFFFFFFFFFFFFFFFFFFFFFFFFF MUL NOT AND SWAP1 DUP4 PUSH20 0xFFFFFFFFFFFFFFFFFFFFFFFFFFFFFFFFFFFFFFFF AND MUL OR SWAP1 SSTORE POP CALLER PUSH1 0x0 DUP1 PUSH2 0x100 EXP DUP2 SLOAD DUP2 PUSH20 0xFFFFFFFFFFFFFFFFFFFFFFFFFFFFFFFFFFFFFFFF MUL NOT AND SWAP1 DUP4 PUSH20 0xFFFFFFFFFFFFFFFFFFFFFFFFFFFFFFFFFFFFFFFF AND MUL OR SWAP1 SSTORE POP POP PUSH2 0xDBE DUP1 PUSH2 0xD5 PUSH1 0x0 CODECOPY PUSH1 0x0 RETURN INVALID PUSH1 0x80 PUSH1 0x40 MSTORE PUSH1 0x4 CALLDATASIZE LT PUSH2 0xDD JUMPI PUSH1 0x0 CALLDATALOAD PUSH1 0xE0 SHR DUP1 PUSH4 0x91F2EBB8 GT PUSH2 0x7F JUMPI DUP1 PUSH4 0xC7983E20 GT PUSH2 0x59 JUMPI DUP1 PUSH4 0xC7983E20 EQ PUSH2 0x3B3 JUMPI DUP1 PUSH4 0xD5F39488 EQ PUSH2 0x3DE JUMPI DUP1 PUSH4 0xF2B5EEA7 EQ PUSH2 0x41F JUMPI DUP1 PUSH4 0xFAEDD18E EQ PUSH2 0x470 JUMPI PUSH2 0xDD JUMP JUMPDEST DUP1 PUSH4 0x91F2EBB8 EQ PUSH2 0x2E0 JUMPI DUP1 PUSH4 0x94A927FE EQ PUSH2 0x321 JUMPI DUP1 PUSH4 0xB7D1D98E EQ PUSH2 0x362 JUMPI PUSH2 0xDD JUMP JUMPDEST DUP1 PUSH4 0x51CFF8D9 GT PUSH2 0xBB JUMPI DUP1 PUSH4 0x51CFF8D9 EQ PUSH2 0x19F JUMPI DUP1 PUSH4 0x56AF4F75 EQ PUSH2 0x1E3 JUMPI DUP1 PUSH4 0x6E1A7373 EQ PUSH2 0x224 JUMPI DUP1 PUSH4 0x8DA5CB5B EQ PUSH2 0x29F JUMPI PUSH2 0xDD JUMP JUMPDEST DUP1 PUSH4 0x1C8EC299 EQ PUSH2 0xE2 JUMPI DUP1 PUSH4 0x1E83409A EQ PUSH2 0x10D JUMPI DUP1 PUSH4 0x362BB2AC EQ PUSH2 0x15E JUMPI JUMPDEST PUSH1 0x0 DUP1 REVERT JUMPDEST CALLVALUE DUP1 ISZERO PUSH2 0xEE JUMPI PUSH1 0x0 DUP1 REVERT JUMPDEST POP PUSH2 0xF7 PUSH2 0x49D JUMP JUMPDEST PUSH1 0x40 MLOAD DUP1 DUP3 DUP2 MSTORE PUSH1 0x20 ADD SWAP2 POP POP PUSH1 0x40 MLOAD DUP1 SWAP2 SUB SWAP1 RETURN JUMPDEST CALLVALUE DUP1 ISZERO PUSH2 0x119 JUMPI PUSH1 0x0 DUP1 REVERT JUMPDEST POP PUSH2 0x15C PUSH1 0x4 DUP1 CALLDATASIZE SUB PUSH1 0x20 DUP2 LT ISZERO PUSH2 0x130 JUMPI PUSH1 0x0 DUP1 REVERT JUMPDEST DUP2 ADD SWAP1 DUP1 DUP1 CALLDATALOAD PUSH20 0xFFFFFFFFFFFFFFFFFFFFFFFFFFFFFFFFFFFFFFFF AND SWAP1 PUSH1 0x20 ADD SWAP1 SWAP3 SWAP2 SWAP1 POP POP POP PUSH2 0x4A3 JUMP JUMPDEST STOP JUMPDEST CALLVALUE DUP1 ISZERO PUSH2 0x16A JUMPI PUSH1 0x0 DUP1 REVERT JUMPDEST POP PUSH2 0x173 PUSH2 0x695 JUMP JUMPDEST PUSH1 0x40 MLOAD DUP1 DUP3 PUSH20 0xFFFFFFFFFFFFFFFFFFFFFFFFFFFFFFFFFFFFFFFF AND DUP2 MSTORE PUSH1 0x20 ADD SWAP2 POP POP PUSH1 0x40 MLOAD DUP1 SWAP2 SUB SWAP1 RETURN JUMPDEST PUSH2 0x1E1 PUSH1 0x4 DUP1 CALLDATASIZE SUB PUSH1 0x20 DUP2 LT ISZERO PUSH2 0x1B5 JUMPI PUSH1 0x0 DUP1 REVERT JUMPDEST DUP2 ADD SWAP1 DUP1 DUP1 CALLDATALOAD PUSH20 0xFFFFFFFFFFFFFFFFFFFFFFFFFFFFFFFFFFFFFFFF AND SWAP1 PUSH1 0x20 ADD SWAP1 SWAP3 SWAP2 SWAP1 POP POP POP PUSH2 0x6BE JUMP JUMPDEST STOP JUMPDEST CALLVALUE DUP1 ISZERO PUSH2 0x1EF JUMPI PUSH1 0x0 DUP1 REVERT JUMPDEST POP PUSH2 0x1F8 PUSH2 0x846 JUMP JUMPDEST PUSH1 0x40 MLOAD DUP1 DUP3 PUSH20 0xFFFFFFFFFFFFFFFFFFFFFFFFFFFFFFFFFFFFFFFF AND DUP2 MSTORE PUSH1 0x20 ADD SWAP2 POP POP PUSH1 0x40 MLOAD DUP1 SWAP2 SUB SWAP1 RETURN JUMPDEST CALLVALUE DUP1 ISZERO PUSH2 0x230 JUMPI PUSH1 0x0 DUP1 REVERT JUMPDEST POP PUSH2 0x29D PUSH1 0x4 DUP1 CALLDATASIZE SUB PUSH1 0x60 DUP2 LT ISZERO PUSH2 0x247 JUMPI PUSH1 0x0 DUP1 REVERT JUMPDEST DUP2 ADD SWAP1 DUP1 DUP1 CALLDATALOAD PUSH20 0xFFFFFFFFFFFFFFFFFFFFFFFFFFFFFFFFFFFFFFFF AND SWAP1 PUSH1 0x20 ADD SWAP1 SWAP3 SWAP2 SWAP1 DUP1 CALLDATALOAD SWAP1 PUSH1 0x20 ADD SWAP1 SWAP3 SWAP2 SWAP1 DUP1 CALLDATALOAD PUSH20 0xFFFFFFFFFFFFFFFFFFFFFFFFFFFFFFFFFFFFFFFF AND SWAP1 PUSH1 0x20 ADD SWAP1 SWAP3 SWAP2 SWAP1 POP POP POP PUSH2 0x870 JUMP JUMPDEST STOP JUMPDEST CALLVALUE DUP1 ISZERO PUSH2 0x2AB JUMPI PUSH1 0x0 DUP1 REVERT JUMPDEST POP PUSH2 0x2B4 PUSH2 0x980 JUMP JUMPDEST PUSH1 0x40 MLOAD DUP1 DUP3 PUSH20 0xFFFFFFFFFFFFFFFFFFFFFFFFFFFFFFFFFFFFFFFF AND DUP2 MSTORE PUSH1 0x20 ADD SWAP2 POP POP PUSH1 0x40 MLOAD DUP1 SWAP2 SUB SWAP1 RETURN JUMPDEST CALLVALUE DUP1 ISZERO PUSH2 0x2EC JUMPI PUSH1 0x0 DUP1 REVERT JUMPDEST POP PUSH2 0x2F5 PUSH2 0x9A6 JUMP JUMPDEST PUSH1 0x40 MLOAD DUP1 DUP3 PUSH20 0xFFFFFFFFFFFFFFFFFFFFFFFFFFFFFFFFFFFFFFFF AND DUP2 MSTORE PUSH1 0x20 ADD SWAP2 POP POP PUSH1 0x40 MLOAD DUP1 SWAP2 SUB SWAP1 RETURN JUMPDEST CALLVALUE DUP1 ISZERO PUSH2 0x32D JUMPI PUSH1 0x0 DUP1 REVERT JUMPDEST POP PUSH2 0x336 PUSH2 0x9CC JUMP JUMPDEST PUSH1 0x40 MLOAD DUP1 DUP3 PUSH20 0xFFFFFFFFFFFFFFFFFFFFFFFFFFFFFFFFFFFFFFFF AND DUP2 MSTORE PUSH1 0x20 ADD SWAP2 POP POP PUSH1 0x40 MLOAD DUP1 SWAP2 SUB SWAP1 RETURN JUMPDEST CALLVALUE DUP1 ISZERO PUSH2 0x36E JUMPI PUSH1 0x0 DUP1 REVERT JUMPDEST POP PUSH2 0x3B1 PUSH1 0x4 DUP1 CALLDATASIZE SUB PUSH1 0x20 DUP2 LT ISZERO PUSH2 0x385 JUMPI PUSH1 0x0 DUP1 REVERT JUMPDEST DUP2 ADD SWAP1 DUP1 DUP1 CALLDATALOAD PUSH20 0xFFFFFFFFFFFFFFFFFFFFFFFFFFFFFFFFFFFFFFFF AND SWAP1 PUSH1 0x20 ADD SWAP1 SWAP3 SWAP2 SWAP1 POP POP POP PUSH2 0x9F6 JUMP JUMPDEST STOP JUMPDEST CALLVALUE DUP1 ISZERO PUSH2 0x3BF JUMPI PUSH1 0x0 DUP1 REVERT JUMPDEST POP PUSH2 0x3C8 PUSH2 0xB3C JUMP JUMPDEST PUSH1 0x40 MLOAD DUP1 DUP3 DUP2 MSTORE PUSH1 0x20 ADD SWAP2 POP POP PUSH1 0x40 MLOAD DUP1 SWAP2 SUB SWAP1 RETURN JUMPDEST CALLVALUE DUP1 ISZERO PUSH2 0x3EA JUMPI PUSH1 0x0 DUP1 REVERT JUMPDEST POP PUSH2 0x3F3 PUSH2 0xB42 JUMP JUMPDEST PUSH1 0x40 MLOAD DUP1 DUP3 PUSH20 0xFFFFFFFFFFFFFFFFFFFFFFFFFFFFFFFFFFFFFFFF AND DUP2 MSTORE PUSH1 0x20 ADD SWAP2 POP POP PUSH1 0x40 MLOAD DUP1 SWAP2 SUB SWAP1 RETURN JUMPDEST CALLVALUE DUP1 ISZERO PUSH2 0x42B JUMPI PUSH1 0x0 DUP1 REVERT JUMPDEST POP PUSH2 0x46E PUSH1 0x4 DUP1 CALLDATASIZE SUB PUSH1 0x20 DUP2 LT ISZERO PUSH2 0x442 JUMPI PUSH1 0x0 DUP1 REVERT JUMPDEST DUP2 ADD SWAP1 DUP1 DUP1 CALLDATALOAD PUSH20 0xFFFFFFFFFFFFFFFFFFFFFFFFFFFFFFFFFFFFFFFF AND SWAP1 PUSH1 0x20 ADD SWAP1 SWAP3 SWAP2 SWAP1 POP POP POP PUSH2 0xB66 JUMP JUMPDEST STOP JUMPDEST CALLVALUE DUP1 ISZERO PUSH2 0x47C JUMPI PUSH1 0x0 DUP1 REVERT JUMPDEST POP PUSH2 0x485 PUSH2 0xC97 JUMP JUMPDEST PUSH1 0x40 MLOAD DUP1 DUP3 ISZERO ISZERO DUP2 MSTORE PUSH1 0x20 ADD SWAP2 POP POP PUSH1 0x40 MLOAD DUP1 SWAP2 SUB SWAP1 RETURN JUMPDEST PUSH1 0x4 SLOAD DUP2 JUMP JUMPDEST DUP1 PUSH20 0xFFFFFFFFFFFFFFFFFFFFFFFFFFFFFFFFFFFFFFFF AND PUSH1 0x2 PUSH1 0x0 SWAP1 SLOAD SWAP1 PUSH2 0x100 EXP SWAP1 DIV PUSH20 0xFFFFFFFFFFFFFFFFFFFFFFFFFFFFFFFFFFFFFFFF AND PUSH20 0xFFFFFFFFFFFFFFFFFFFFFFFFFFFFFFFFFFFFFFFF AND EQ PUSH2 0x549 JUMPI PUSH1 0x40 MLOAD PUSH32 0x8C379A000000000000000000000000000000000000000000000000000000000 DUP2 MSTORE PUSH1 0x4 ADD DUP1 DUP1 PUSH1 0x20 ADD DUP3 DUP2 SUB DUP3 MSTORE PUSH1 0x24 DUP2 MSTORE PUSH1 0x20 ADD DUP1 PUSH2 0xCAB PUSH1 0x24 SWAP2 CODECOPY PUSH1 0x40 ADD SWAP2 POP POP PUSH1 0x40 MLOAD DUP1 SWAP2 SUB SWAP1 REVERT JUMPDEST PUSH1 0x2 PUSH1 0x14 SWAP1 SLOAD SWAP1 PUSH2 0x100 EXP SWAP1 DIV PUSH1 0xFF AND PUSH2 0x5AE JUMPI PUSH1 0x40 MLOAD PUSH32 0x8C379A000000000000000000000000000000000000000000000000000000000 DUP2 MSTORE PUSH1 0x4 ADD DUP1 DUP1 PUSH1 0x20 ADD DUP3 DUP2 SUB DUP3 MSTORE PUSH1 0x25 DUP2 MSTORE PUSH1 0x20 ADD DUP1 PUSH2 0xCCF PUSH1 0x25 SWAP2 CODECOPY PUSH1 0x40 ADD SWAP2 POP POP PUSH1 0x40 MLOAD DUP1 SWAP2 SUB SWAP1 REVERT JUMPDEST PUSH3 0x15180 PUSH1 0x4 SLOAD MUL PUSH1 0x3 SLOAD ADD TIMESTAMP LT ISZERO PUSH2 0x62F JUMPI PUSH1 0x40 MLOAD PUSH32 0x8C379A000000000000000000000000000000000000000000000000000000000 DUP2 MSTORE PUSH1 0x4 ADD DUP1 DUP1 PUSH1 0x20 ADD DUP3 DUP2 SUB DUP3 MSTORE PUSH1 0x1C DUP2 MSTORE PUSH1 0x20 ADD DUP1 PUSH32 0x436C61696D2064656C617920686173206E6F7420657870697265642E00000000 DUP2 MSTORE POP PUSH1 0x20 ADD SWAP2 POP POP PUSH1 0x40 MLOAD DUP1 SWAP2 SUB SWAP1 REVERT JUMPDEST PUSH1 0x2 PUSH1 0x0 SWAP1 SLOAD SWAP1 PUSH2 0x100 EXP SWAP1 DIV PUSH20 0xFFFFFFFFFFFFFFFFFFFFFFFFFFFFFFFFFFFFFFFF AND PUSH1 0x1 PUSH1 0x0 PUSH2 0x100 EXP DUP2 SLOAD DUP2 PUSH20 0xFFFFFFFFFFFFFFFFFFFFFFFFFFFFFFFFFFFFFFFF MUL NOT AND SWAP1 DUP4 PUSH20 0xFFFFFFFFFFFFFFFFFFFFFFFFFFFFFFFFFFFFFFFF AND MUL OR SWAP1 SSTORE POP POP JUMP JUMPDEST PUSH1 0x0 DUP1 PUSH1 0x0 SWAP1 SLOAD SWAP1 PUSH2 0x100 EXP SWAP1 DIV PUSH20 0xFFFFFFFFFFFFFFFFFFFFFFFFFFFFFFFFFFFFFFFF AND SWAP1 POP SWAP1 JUMP JUMPDEST PUSH1 0x1 PUSH1 0x0 SWAP1 SLOAD SWAP1 PUSH2 0x100 EXP SWAP1 DIV PUSH20 0xFFFFFFFFFFFFFFFFFFFFFFFFFFFFFFFFFFFFFFFF AND PUSH20 0xFFFFFFFFFFFFFFFFFFFFFFFFFFFFFFFFFFFFFFFF AND DUP2 PUSH20 0xFFFFFFFFFFFFFFFFFFFFFFFFFFFFFFFFFFFFFFFF AND EQ PUSH2 0x764 JUMPI PUSH1 0x40 MLOAD PUSH32 0x8C379A000000000000000000000000000000000000000000000000000000000 DUP2 MSTORE PUSH1 0x4 ADD DUP1 DUP1 PUSH1 0x20 ADD DUP3 DUP2 SUB DUP3 MSTORE PUSH1 0x22 DUP2 MSTORE PUSH1 0x20 ADD DUP1 PUSH2 0xD21 PUSH1 0x22 SWAP2 CODECOPY PUSH1 0x40 ADD SWAP2 POP POP PUSH1 0x40 MLOAD DUP1 SWAP2 SUB SWAP1 REVERT JUMPDEST PUSH1 0x0 SELFBALANCE GT PUSH2 0x7DA JUMPI PUSH1 0x40 MLOAD PUSH32 0x8C379A000000000000000000000000000000000000000000000000000000000 DUP2 MSTORE PUSH1 0x4 ADD DUP1 DUP1 PUSH1 0x20 ADD DUP3 DUP2 SUB DUP3 MSTORE PUSH1 0x1F DUP2 MSTORE PUSH1 0x20 ADD DUP1 PUSH32 0x546865726520617265206E6F2066756E647320746F2077697468647261772E00 DUP2 MSTORE POP PUSH1 0x20 ADD SWAP2 POP POP PUSH1 0x40 MLOAD DUP1 SWAP2 SUB SWAP1 REVERT JUMPDEST PUSH1 0x1 PUSH1 0x0 SWAP1 SLOAD SWAP1 PUSH2 0x100 EXP SWAP1 DIV PUSH20 0xFFFFFFFFFFFFFFFFFFFFFFFFFFFFFFFFFFFFFFFF AND PUSH20 0xFFFFFFFFFFFFFFFFFFFFFFFFFFFFFFFFFFFFFFFF AND PUSH2 0x8FC SELFBALANCE SWAP1 DUP2 ISZERO MUL SWAP1 PUSH1 0x40 MLOAD PUSH1 0x0 PUSH1 0x40 MLOAD DUP1 DUP4 SUB DUP2 DUP6 DUP9 DUP9 CALL SWAP4 POP POP POP POP ISZERO DUP1 ISZERO PUSH2 0x842 JUMPI RETURNDATASIZE PUSH1 0x0 DUP1 RETURNDATACOPY RETURNDATASIZE PUSH1 0x0 REVERT JUMPDEST POP POP JUMP JUMPDEST PUSH1 0x0 PUSH1 0x2 PUSH1 0x0 SWAP1 SLOAD SWAP1 PUSH2 0x100 EXP SWAP1 DIV PUSH20 0xFFFFFFFFFFFFFFFFFFFFFFFFFFFFFFFFFFFFFFFF AND SWAP1 POP SWAP1 JUMP JUMPDEST DUP1 PUSH20 0xFFFFFFFFFFFFFFFFFFFFFFFFFFFFFFFFFFFFFFFF AND PUSH1 0x1 PUSH1 0x0 SWAP1 SLOAD SWAP1 PUSH2 0x100 EXP SWAP1 DIV PUSH20 0xFFFFFFFFFFFFFFFFFFFFFFFFFFFFFFFFFFFFFFFF AND PUSH20 0xFFFFFFFFFFFFFFFFFFFFFFFFFFFFFFFFFFFFFFFF AND EQ PUSH2 0x933 JUMPI PUSH1 0x40 MLOAD PUSH32 0x8C379A000000000000000000000000000000000000000000000000000000000 DUP2 MSTORE PUSH1 0x4 ADD DUP1 DUP1 PUSH1 0x20 ADD DUP3 DUP2 SUB DUP3 MSTORE PUSH1 0x20 DUP2 MSTORE PUSH1 0x20 ADD DUP1 PUSH32 0x4F6E6C7920746865206F776E65722063616E207365742074686520686569722E DUP2 MSTORE POP PUSH1 0x20 ADD SWAP2 POP POP PUSH1 0x40 MLOAD DUP1 SWAP2 SUB SWAP1 REVERT JUMPDEST DUP3 PUSH1 0x2 PUSH1 0x0 PUSH2 0x100 EXP DUP2 SLOAD DUP2 PUSH20 0xFFFFFFFFFFFFFFFFFFFFFFFFFFFFFFFFFFFFFFFF MUL NOT AND SWAP1 DUP4 PUSH20 0xFFFFFFFFFFFFFFFFFFFFFFFFFFFFFFFFFFFFFFFF AND MUL OR SWAP1 SSTORE POP DUP2 PUSH1 0x4 DUP2 SWAP1 SSTORE POP POP POP POP JUMP JUMPDEST PUSH1 0x1 PUSH1 0x0 SWAP1 SLOAD SWAP1 PUSH2 0x100 EXP SWAP1 DIV PUSH20 0xFFFFFFFFFFFFFFFFFFFFFFFFFFFFFFFFFFFFFFFF AND DUP2 JUMP JUMPDEST PUSH1 0x2 PUSH1 0x0 SWAP1 SLOAD SWAP1 PUSH2 0x100 EXP SWAP1 DIV PUSH20 0xFFFFFFFFFFFFFFFFFFFFFFFFFFFFFFFFFFFFFFFF AND DUP2 JUMP JUMPDEST PUSH1 0x0 PUSH1 0x1 PUSH1 0x0 SWAP1 SLOAD SWAP1 PUSH2 0x100 EXP SWAP1 DIV PUSH20 0xFFFFFFFFFFFFFFFFFFFFFFFFFFFFFFFFFFFFFFFF AND SWAP1 POP SWAP1 JUMP JUMPDEST PUSH1 0x1 PUSH1 0x0 SWAP1 SLOAD SWAP1 PUSH2 0x100 EXP SWAP1 DIV PUSH20 0xFFFFFFFFFFFFFFFFFFFFFFFFFFFFFFFFFFFFFFFF AND PUSH20 0xFFFFFFFFFFFFFFFFFFFFFFFFFFFFFFFFFFFFFFFF AND DUP2 PUSH20 0xFFFFFFFFFFFFFFFFFFFFFFFFFFFFFFFFFFFFFFFF AND EQ PUSH2 0xAB9 JUMPI PUSH1 0x40 MLOAD PUSH32 0x8C379A000000000000000000000000000000000000000000000000000000000 DUP2 MSTORE PUSH1 0x4 ADD DUP1 DUP1 PUSH1 0x20 ADD DUP3 DUP2 SUB DUP3 MSTORE PUSH1 0x20 DUP2 MSTORE PUSH1 0x20 ADD DUP1 PUSH32 0x4F6E6C7920746865206F776E65722063616E2073746F70206120636C61696D2E DUP2 MSTORE POP PUSH1 0x20 ADD SWAP2 POP POP PUSH1 0x40 MLOAD DUP1 SWAP2 SUB SWAP1 REVERT JUMPDEST PUSH1 0x2 PUSH1 0x14 SWAP1 SLOAD SWAP1 PUSH2 0x100 EXP SWAP1 DIV PUSH1 0xFF AND PUSH2 0xB1E JUMPI PUSH1 0x40 MLOAD PUSH32 0x8C379A000000000000000000000000000000000000000000000000000000000 DUP2 MSTORE PUSH1 0x4 ADD DUP1 DUP1 PUSH1 0x20 ADD DUP3 DUP2 SUB DUP3 MSTORE PUSH1 0x21 DUP2 MSTORE PUSH1 0x20 ADD DUP1 PUSH2 0xD43 PUSH1 0x21 SWAP2 CODECOPY PUSH1 0x40 ADD SWAP2 POP POP PUSH1 0x40 MLOAD DUP1 SWAP2 SUB SWAP1 REVERT JUMPDEST PUSH1 0x0 PUSH1 0x2 PUSH1 0x14 PUSH2 0x100 EXP DUP2 SLOAD DUP2 PUSH1 0xFF MUL NOT AND SWAP1 DUP4 ISZERO ISZERO MUL OR SWAP1 SSTORE POP POP JUMP JUMPDEST PUSH1 0x3 SLOAD DUP2 JUMP JUMPDEST PUSH1 0x0 DUP1 SLOAD SWAP1 PUSH2 0x100 EXP SWAP1 DIV PUSH20 0xFFFFFFFFFFFFFFFFFFFFFFFFFFFFFFFFFFFFFFFF AND DUP2 JUMP JUMPDEST DUP1 PUSH20 0xFFFFFFFFFFFFFFFFFFFFFFFFFFFFFFFFFFFFFFFF AND PUSH1 0x2 PUSH1 0x0 SWAP1 SLOAD SWAP1 PUSH2 0x100 EXP SWAP1 DIV PUSH20 0xFFFFFFFFFFFFFFFFFFFFFFFFFFFFFFFFFFFFFFFF AND PUSH20 0xFFFFFFFFFFFFFFFFFFFFFFFFFFFFFFFFFFFFFFFF AND EQ PUSH2 0xC0C JUMPI PUSH1 0x40 MLOAD PUSH32 0x8C379A000000000000000000000000000000000000000000000000000000000 DUP2 MSTORE PUSH1 0x4 ADD DUP1 DUP1 PUSH1 0x20 ADD DUP3 DUP2 SUB DUP3 MSTORE PUSH1 0x2D DUP2 MSTORE PUSH1 0x20 ADD DUP1 PUSH2 0xCF4 PUSH1 0x2D SWAP2 CODECOPY PUSH1 0x40 ADD SWAP2 POP POP PUSH1 0x40 MLOAD DUP1 SWAP2 SUB SWAP1 REVERT JUMPDEST PUSH1 0x2 PUSH1 0x14 SWAP1 SLOAD SWAP1 PUSH2 0x100 EXP SWAP1 DIV PUSH1 0xFF AND ISZERO PUSH2 0xC72 JUMPI PUSH1 0x40 MLOAD PUSH32 0x8C379A000000000000000000000000000000000000000000000000000000000 DUP2 MSTORE PUSH1 0x4 ADD DUP1 DUP1 PUSH1 0x20 ADD DUP3 DUP2 SUB DUP3 MSTORE PUSH1 0x25 DUP2 MSTORE PUSH1 0x20 ADD DUP1 PUSH2 0xD64 PUSH1 0x25 SWAP2 CODECOPY PUSH1 0x40 ADD SWAP2 POP POP PUSH1 0x40 MLOAD DUP1 SWAP2 SUB SWAP1 REVERT JUMPDEST PUSH1 0x1 PUSH1 0x2 PUSH1 0x14 PUSH2 0x100 EXP DUP2 SLOAD DUP2 PUSH1 0xFF MUL NOT AND SWAP1 DUP4 ISZERO ISZERO MUL OR SWAP1 SSTORE POP TIMESTAMP PUSH1 0x3 DUP2 SWAP1 SSTORE POP POP JUMP JUMPDEST PUSH1 0x2 PUSH1 0x14 SWAP1 SLOAD SWAP1 PUSH2 0x100 EXP SWAP1 DIV PUSH1 0xFF AND DUP2 JUMP INVALID 0x4F PUSH15 0x6C792074686520686569722063616E KECCAK256 PUSH4 0x6C61696D KECCAK256 PUSH21 0x6865206163636F756E742E436C61696D2070726F63 PUSH6 0x737320686173 KECCAK256 PUSH15 0x6F74206265656E20696E6974696174 PUSH6 0x642E4F6E6C79 KECCAK256 PUSH21 0x686520686569722063616E20696E69746961746520 PUSH21 0x686520636C61696D2070726F636573732E4F6E6C79 KECCAK256 PUSH21 0x6865206F776E65722063616E207769746864726177 KECCAK256 PUSH7 0x756E64732E5468 PUSH6 0x726520697320 PUSH15 0x6F2061637469766520636C61696D20 PUSH21 0x6F2073746F702E436C61696D2070726F6365737320 PUSH10 0x7320616C726561647920 PUSH10 0x6E2070726F6772657373 0x2E LOG2 PUSH5 0x6970667358 0x22 SLT KECCAK256 0xEA 0xE4 MSTORE8 0xA6 0xED SWAP8 0xA5 PUSH14 0xF2729698FF9DB1EC2A9C87988BEC DIFFICULTY 0xDB 0xC DUP4 PUSH27 0x3F6B24AE9864736F6C634300060C0033A26469706673582212204D DUP8 SWAP2 0xBE 0xF6 GASLIMIT PUSH31 0x67DBF6AE921A40B4AA234E8321CEF46AAF6CE4B281200C0F5864736F6C6343 STOP MOD 0xC STOP CALLER "
				},
				"gasEstimates": {
					"creation": {
						"codeDepositCost": "1307400",
						"executionCost": "1363",
						"totalCost": "1308763"
					},
					"external": {
						"createTTOD()": "infinite",
						"ttodArray(uint256)": "2055",
						"ttodClaim(uint256)": "infinite",
						"ttodInitiateClaim(uint256)": "infinite",
						"ttodReturnDeployer(uint256)": "infinite",
						"ttodReturnHeir(uint256)": "infinite",
						"ttodReturnOwner(uint256)": "infinite",
						"ttodSetHeir(uint256,address,uint256)": "infinite",
						"ttodStopClaim(uint256)": "infinite",
						"ttodWithdraw(uint256)": "infinite"
					}
				},
				"methodIdentifiers": {
					"createTTOD()": "b23d289b",
					"ttodArray(uint256)": "b19ddaa0",
					"ttodClaim(uint256)": "81a811b1",
					"ttodInitiateClaim(uint256)": "460cab4f",
					"ttodReturnDeployer(uint256)": "1f41f4fe",
					"ttodReturnHeir(uint256)": "92e5a4ac",
					"ttodReturnOwner(uint256)": "a3b00e72",
					"ttodSetHeir(uint256,address,uint256)": "07282ff3",
					"ttodStopClaim(uint256)": "3c9ca597",
					"ttodWithdraw(uint256)": "d0c6ba89"
				}
			},
			"storageLayout": {
				"storage": [
					{
						"astId": 202,
						"contract": "contract/TTOD.sol:TTODFactory",
						"label": "ttodArray",
						"offset": 0,
						"slot": "0",
						"type": "t_array(t_contract(Accounts)196)dyn_storage"
					}
				],
				"types": {
					"t_array(t_contract(Accounts)196)dyn_storage": {
						"base": "t_contract(Accounts)196",
						"encoding": "dynamic_array",
						"label": "contract Accounts[]",
						"numberOfBytes": "32"
					},
					"t_contract(Accounts)196": {
						"encoding": "inplace",
						"label": "contract Accounts",
						"numberOfBytes": "20"
					}
				}
			},
			"userdoc": {
				"kind": "user",
				"methods": {},
				"version": 1
			}
		}
	}
}