{
	"contract/Accounts.sol": {
		"Accounts": {
			"abi": [
				{
					"inputs": [
						{
							"internalType": "address payable",
							"name": "_owner",
							"type": "address"
						}
					],
					"stateMutability": "nonpayable",
					"type": "constructor"
				},
				{
					"anonymous": false,
					"inputs": [
						{
							"indexed": false,
							"internalType": "address",
							"name": "freezeBy",
							"type": "address"
						}
					],
					"name": "Freeze",
					"type": "event"
				},
				{
					"anonymous": false,
					"inputs": [
						{
							"indexed": false,
							"internalType": "address",
							"name": "unfreezeBy",
							"type": "address"
						}
					],
					"name": "Unfreeze",
					"type": "event"
				},
				{
					"inputs": [],
					"name": "ERC20",
					"outputs": [
						{
							"internalType": "contract IERC20",
							"name": "",
							"type": "address"
						}
					],
					"stateMutability": "view",
					"type": "function"
				},
				{
					"inputs": [],
					"name": "ERC20Token",
					"outputs": [
						{
							"internalType": "address payable",
							"name": "",
							"type": "address"
						}
					],
					"stateMutability": "view",
					"type": "function"
				},
				{
					"inputs": [
						{
							"internalType": "bool",
							"name": "_isCelo",
							"type": "bool"
						},
						{
							"internalType": "address",
							"name": "_ERC20Address",
							"type": "address"
						}
					],
					"name": "balanceOf",
					"outputs": [
						{
							"internalType": "uint256",
							"name": "",
							"type": "uint256"
						}
					],
					"stateMutability": "nonpayable",
					"type": "function"
				},
				{
					"inputs": [
						{
							"internalType": "address",
							"name": "_sender",
							"type": "address"
						}
					],
					"name": "claim",
					"outputs": [],
					"stateMutability": "nonpayable",
					"type": "function"
				},
				{
					"inputs": [],
					"name": "claimDelay",
					"outputs": [
						{
							"internalType": "uint256",
							"name": "",
							"type": "uint256"
						}
					],
					"stateMutability": "view",
					"type": "function"
				},
				{
					"inputs": [],
					"name": "claimInProgress",
					"outputs": [
						{
							"internalType": "bool",
							"name": "",
							"type": "bool"
						}
					],
					"stateMutability": "view",
					"type": "function"
				},
				{
					"inputs": [],
					"name": "claimInitiatedAt",
					"outputs": [
						{
							"internalType": "uint256",
							"name": "",
							"type": "uint256"
						}
					],
					"stateMutability": "view",
					"type": "function"
				},
				{
					"inputs": [],
					"name": "deployer",
					"outputs": [
						{
							"internalType": "address",
							"name": "",
							"type": "address"
						}
					],
					"stateMutability": "view",
					"type": "function"
				},
				{
					"inputs": [
						{
							"internalType": "address",
							"name": "_sender",
							"type": "address"
						}
					],
					"name": "freeze",
					"outputs": [],
					"stateMutability": "nonpayable",
					"type": "function"
				},
				{
					"inputs": [],
					"name": "frozen",
					"outputs": [
						{
							"internalType": "bool",
							"name": "",
							"type": "bool"
						}
					],
					"stateMutability": "view",
					"type": "function"
				},
				{
					"inputs": [],
					"name": "heir",
					"outputs": [
						{
							"internalType": "address payable",
							"name": "",
							"type": "address"
						}
					],
					"stateMutability": "view",
					"type": "function"
				},
				{
					"inputs": [
						{
							"internalType": "address",
							"name": "_sender",
							"type": "address"
						}
					],
					"name": "initiateClaim",
					"outputs": [],
					"stateMutability": "nonpayable",
					"type": "function"
				},
				{
					"inputs": [],
					"name": "mutex",
					"outputs": [
						{
							"internalType": "bool",
							"name": "",
							"type": "bool"
						}
					],
					"stateMutability": "view",
					"type": "function"
				},
				{
					"inputs": [],
					"name": "owner",
					"outputs": [
						{
							"internalType": "address payable",
							"name": "",
							"type": "address"
						}
					],
					"stateMutability": "view",
					"type": "function"
				},
				{
					"inputs": [],
					"name": "returnDeployer",
					"outputs": [
						{
							"internalType": "address",
							"name": "",
							"type": "address"
						}
					],
					"stateMutability": "view",
					"type": "function"
				},
				{
					"inputs": [],
					"name": "returnHeir",
					"outputs": [
						{
							"internalType": "address",
							"name": "",
							"type": "address"
						}
					],
					"stateMutability": "view",
					"type": "function"
				},
				{
					"inputs": [],
					"name": "returnOwner",
					"outputs": [
						{
							"internalType": "address",
							"name": "",
							"type": "address"
						}
					],
					"stateMutability": "view",
					"type": "function"
				},
				{
					"inputs": [
						{
							"internalType": "address payable",
							"name": "_heir",
							"type": "address"
						},
						{
							"internalType": "uint256",
							"name": "_claimDelay",
							"type": "uint256"
						},
						{
							"internalType": "address",
							"name": "_sender",
							"type": "address"
						}
					],
					"name": "setHeir",
					"outputs": [],
					"stateMutability": "nonpayable",
					"type": "function"
				},
				{
					"inputs": [
						{
							"internalType": "address",
							"name": "_sender",
							"type": "address"
						}
					],
					"name": "stopClaim",
					"outputs": [],
					"stateMutability": "nonpayable",
					"type": "function"
				},
				{
					"inputs": [],
					"name": "tokenBalance",
					"outputs": [
						{
							"internalType": "uint256",
							"name": "",
							"type": "uint256"
						}
					],
					"stateMutability": "view",
					"type": "function"
				},
				{
					"inputs": [
						{
							"internalType": "address payable",
							"name": "_recipient",
							"type": "address"
						},
						{
							"internalType": "uint256",
							"name": "_amount",
							"type": "uint256"
						},
						{
							"internalType": "address",
							"name": "_ERC20Address",
							"type": "address"
						},
						{
							"internalType": "address",
							"name": "_sender",
							"type": "address"
						},
						{
							"internalType": "address payable",
							"name": "_feeAddress",
							"type": "address"
						},
						{
							"internalType": "uint256",
							"name": "_transferFee",
							"type": "uint256"
						}
					],
					"name": "transferERC20Funds",
					"outputs": [],
					"stateMutability": "payable",
					"type": "function"
				},
				{
					"inputs": [
						{
							"internalType": "address payable",
							"name": "_recipient",
							"type": "address"
						},
						{
							"internalType": "uint256",
							"name": "_amount",
							"type": "uint256"
						},
						{
							"internalType": "address",
							"name": "_sender",
							"type": "address"
						},
						{
							"internalType": "address payable",
							"name": "_feeAddress",
							"type": "address"
						},
						{
							"internalType": "uint256",
							"name": "_transferFee",
							"type": "uint256"
						}
					],
					"name": "transferFunds",
					"outputs": [],
					"stateMutability": "payable",
					"type": "function"
				},
				{
					"inputs": [
						{
							"internalType": "address",
							"name": "_sender",
							"type": "address"
						}
					],
					"name": "unfreeze",
					"outputs": [],
					"stateMutability": "nonpayable",
					"type": "function"
				},
				{
					"inputs": [
						{
							"internalType": "uint256",
							"name": "_amount",
							"type": "uint256"
						},
						{
							"internalType": "address",
							"name": "_sender",
							"type": "address"
						},
						{
							"internalType": "address payable",
							"name": "_feeAddress",
							"type": "address"
						},
						{
							"internalType": "uint256",
							"name": "_transferFee",
							"type": "uint256"
						}
					],
					"name": "withdraw",
					"outputs": [],
					"stateMutability": "payable",
					"type": "function"
				},
				{
					"inputs": [
						{
							"internalType": "uint256",
							"name": "_amount",
							"type": "uint256"
						},
						{
							"internalType": "address",
							"name": "_ERC20Address",
							"type": "address"
						},
						{
							"internalType": "address",
							"name": "_sender",
							"type": "address"
						},
						{
							"internalType": "address payable",
							"name": "_feeAddress",
							"type": "address"
						},
						{
							"internalType": "uint256",
							"name": "_transferFee",
							"type": "uint256"
						}
					],
					"name": "withdrawERC20",
					"outputs": [],
					"stateMutability": "payable",
					"type": "function"
				}
			],
			"devdoc": {
				"kind": "dev",
				"methods": {},
				"version": 1
			},
			"evm": {
				"assembly": "    /* \"contract/Accounts.sol\":357:6532  contract Accounts {... */\n  mstore(0x40, 0x80)\n    /* \"contract/Accounts.sol\":1194:1199  false */\n  0x00\n    /* \"contract/Accounts.sol\":1174:1199  bool public mutex = false */\n  0x07\n  exp(0x0100, 0x14)\n  dup2\n  sload\n  dup2\n  0xff\n  mul\n  not\n  and\n  swap1\n  dup4\n  iszero\n  iszero\n  mul\n  or\n  swap1\n  sstore\n  pop\n    /* \"contract/Accounts.sol\":1307:1312  false */\n  0x00\n    /* \"contract/Accounts.sol\":1286:1312  bool public frozen = false */\n  0x09\n  exp(0x0100, 0x00)\n  dup2\n  sload\n  dup2\n  0xff\n  mul\n  not\n  and\n  swap1\n  dup4\n  iszero\n  iszero\n  mul\n  or\n  swap1\n  sstore\n  pop\n    /* \"contract/Accounts.sol\":1443:1547  constructor(address payable _owner) {... */\n  callvalue\n  dup1\n  iszero\n  tag_1\n  jumpi\n  0x00\n  dup1\n  revert\ntag_1:\n  pop\n  mload(0x40)\n  sub(codesize, bytecodeSize)\n  dup1\n  bytecodeSize\n  dup4\n  codecopy\n  dup2\n  dup2\n  add\n  0x40\n  mstore\n  dup2\n  add\n  swap1\n  tag_2\n  swap2\n  swap1\n  tag_3\n  jump\t// in\ntag_2:\n    /* \"contract/Accounts.sol\":1500:1506  _owner */\n  dup1\n    /* \"contract/Accounts.sol\":1492:1497  owner */\n  0x01\n  0x00\n    /* \"contract/Accounts.sol\":1492:1506  owner = _owner */\n  0x0100\n  exp\n  dup2\n  sload\n  dup2\n  0xffffffffffffffffffffffffffffffffffffffff\n  mul\n  not\n  and\n  swap1\n  dup4\n  0xffffffffffffffffffffffffffffffffffffffff\n  and\n  mul\n  or\n  swap1\n  sstore\n  pop\n    /* \"contract/Accounts.sol\":1530:1540  msg.sender */\n  caller\n    /* \"contract/Accounts.sol\":1519:1527  deployer */\n  0x00\n  dup1\n    /* \"contract/Accounts.sol\":1519:1540  deployer = msg.sender */\n  0x0100\n  exp\n  dup2\n  sload\n  dup2\n  0xffffffffffffffffffffffffffffffffffffffff\n  mul\n  not\n  and\n  swap1\n  dup4\n  0xffffffffffffffffffffffffffffffffffffffff\n  and\n  mul\n  or\n  swap1\n  sstore\n  pop\n    /* \"contract/Accounts.sol\":1443:1547  constructor(address payable _owner) {... */\n  pop\n    /* \"contract/Accounts.sol\":357:6532  contract Accounts {... */\n  jump(tag_6)\n    /* \"#utility.yul\":88:205   */\ntag_8:\n    /* \"#utility.yul\":197:198   */\n  0x00\n    /* \"#utility.yul\":194:195   */\n  dup1\n    /* \"#utility.yul\":187:199   */\n  revert\n    /* \"#utility.yul\":334:460   */\ntag_10:\n    /* \"#utility.yul\":371:378   */\n  0x00\n    /* \"#utility.yul\":411:453   */\n  0xffffffffffffffffffffffffffffffffffffffff\n    /* \"#utility.yul\":404:409   */\n  dup3\n    /* \"#utility.yul\":400:454   */\n  and\n    /* \"#utility.yul\":389:454   */\n  swap1\n  pop\n    /* \"#utility.yul\":334:460   */\n  swap2\n  swap1\n  pop\n  jump\t// out\n    /* \"#utility.yul\":466:570   */\ntag_11:\n    /* \"#utility.yul\":511:518   */\n  0x00\n    /* \"#utility.yul\":540:564   */\n  tag_20\n    /* \"#utility.yul\":558:563   */\n  dup3\n    /* \"#utility.yul\":540:564   */\n  tag_10\n  jump\t// in\ntag_20:\n    /* \"#utility.yul\":529:564   */\n  swap1\n  pop\n    /* \"#utility.yul\":466:570   */\n  swap2\n  swap1\n  pop\n  jump\t// out\n    /* \"#utility.yul\":576:714   */\ntag_12:\n    /* \"#utility.yul\":657:689   */\n  tag_22\n    /* \"#utility.yul\":683:688   */\n  dup2\n    /* \"#utility.yul\":657:689   */\n  tag_11\n  jump\t// in\ntag_22:\n    /* \"#utility.yul\":650:655   */\n  dup2\n    /* \"#utility.yul\":647:690   */\n  eq\n    /* \"#utility.yul\":637:708   */\n  tag_23\n  jumpi\n    /* \"#utility.yul\":704:705   */\n  0x00\n    /* \"#utility.yul\":701:702   */\n  dup1\n    /* \"#utility.yul\":694:706   */\n  revert\n    /* \"#utility.yul\":637:708   */\ntag_23:\n    /* \"#utility.yul\":576:714   */\n  pop\n  jump\t// out\n    /* \"#utility.yul\":720:879   */\ntag_13:\n    /* \"#utility.yul\":785:790   */\n  0x00\n    /* \"#utility.yul\":816:822   */\n  dup2\n    /* \"#utility.yul\":810:823   */\n  mload\n    /* \"#utility.yul\":801:823   */\n  swap1\n  pop\n    /* \"#utility.yul\":832:873   */\n  tag_25\n    /* \"#utility.yul\":867:872   */\n  dup2\n    /* \"#utility.yul\":832:873   */\n  tag_12\n  jump\t// in\ntag_25:\n    /* \"#utility.yul\":720:879   */\n  swap3\n  swap2\n  pop\n  pop\n  jump\t// out\n    /* \"#utility.yul\":885:1252   */\ntag_3:\n    /* \"#utility.yul\":963:969   */\n  0x00\n    /* \"#utility.yul\":1012:1014   */\n  0x20\n    /* \"#utility.yul\":1000:1009   */\n  dup3\n    /* \"#utility.yul\":991:998   */\n  dup5\n    /* \"#utility.yul\":987:1010   */\n  sub\n    /* \"#utility.yul\":983:1015   */\n  slt\n    /* \"#utility.yul\":980:1099   */\n  iszero\n  tag_27\n  jumpi\n    /* \"#utility.yul\":1018:1097   */\n  tag_28\n  tag_8\n  jump\t// in\ntag_28:\n    /* \"#utility.yul\":980:1099   */\ntag_27:\n    /* \"#utility.yul\":1138:1139   */\n  0x00\n    /* \"#utility.yul\":1163:1235   */\n  tag_29\n    /* \"#utility.yul\":1227:1234   */\n  dup5\n    /* \"#utility.yul\":1218:1224   */\n  dup3\n    /* \"#utility.yul\":1207:1216   */\n  dup6\n    /* \"#utility.yul\":1203:1225   */\n  add\n    /* \"#utility.yul\":1163:1235   */\n  tag_13\n  jump\t// in\ntag_29:\n    /* \"#utility.yul\":1153:1235   */\n  swap2\n  pop\n    /* \"#utility.yul\":1109:1245   */\n  pop\n    /* \"#utility.yul\":885:1252   */\n  swap3\n  swap2\n  pop\n  pop\n  jump\t// out\n    /* \"contract/Accounts.sol\":357:6532  contract Accounts {... */\ntag_6:\n  dataSize(sub_0)\n  dup1\n  dataOffset(sub_0)\n  0x00\n  codecopy\n  0x00\n  return\nstop\n\nsub_0: assembly {\n        /* \"contract/Accounts.sol\":357:6532  contract Accounts {... */\n      mstore(0x40, 0x80)\n      jumpi(tag_1, lt(calldatasize, 0x04))\n      shr(0xe0, calldataload(0x00))\n      dup1\n      0x94a927fe\n      gt\n      tag_27\n      jumpi\n      dup1\n      0xcc4aa204\n      gt\n      tag_28\n      jumpi\n      dup1\n      0xe572adbd\n      gt\n      tag_29\n      jumpi\n      dup1\n      0xe572adbd\n      eq\n      tag_23\n      jumpi\n      dup1\n      0xea4c58ff\n      eq\n      tag_24\n      jumpi\n      dup1\n      0xf2b5eea7\n      eq\n      tag_25\n      jumpi\n      dup1\n      0xfaedd18e\n      eq\n      tag_26\n      jumpi\n      jump(tag_1)\n    tag_29:\n      dup1\n      0xcc4aa204\n      eq\n      tag_20\n      jumpi\n      dup1\n      0xd5f39488\n      eq\n      tag_21\n      jumpi\n      dup1\n      0xdce8bcea\n      eq\n      tag_22\n      jumpi\n      jump(tag_1)\n    tag_28:\n      dup1\n      0x94a927fe\n      eq\n      tag_14\n      jumpi\n      dup1\n      0x9e1a4d19\n      eq\n      tag_15\n      jumpi\n      dup1\n      0xa318c1a4\n      eq\n      tag_16\n      jumpi\n      dup1\n      0xa5720770\n      eq\n      tag_17\n      jumpi\n      dup1\n      0xb7d1d98e\n      eq\n      tag_18\n      jumpi\n      dup1\n      0xc7983e20\n      eq\n      tag_19\n      jumpi\n      jump(tag_1)\n    tag_27:\n      dup1\n      0x56af4f75\n      gt\n      tag_30\n      jumpi\n      dup1\n      0x56af4f75\n      eq\n      tag_8\n      jumpi\n      dup1\n      0x6e1a7373\n      eq\n      tag_9\n      jumpi\n      dup1\n      0x7a80760e\n      eq\n      tag_10\n      jumpi\n      dup1\n      0x8d1fdf2f\n      eq\n      tag_11\n      jumpi\n      dup1\n      0x8da5cb5b\n      eq\n      tag_12\n      jumpi\n      dup1\n      0x91f2ebb8\n      eq\n      tag_13\n      jumpi\n      jump(tag_1)\n    tag_30:\n      dup1\n      0x054f7d9c\n      eq\n      tag_2\n      jumpi\n      dup1\n      0x1903b431\n      eq\n      tag_3\n      jumpi\n      dup1\n      0x1c8ec299\n      eq\n      tag_4\n      jumpi\n      dup1\n      0x1e83409a\n      eq\n      tag_5\n      jumpi\n      dup1\n      0x362bb2ac\n      eq\n      tag_6\n      jumpi\n      dup1\n      0x45c8b1a6\n      eq\n      tag_7\n      jumpi\n    tag_1:\n      0x00\n      dup1\n      revert\n        /* \"contract/Accounts.sol\":1286:1312  bool public frozen = false */\n    tag_2:\n      callvalue\n      dup1\n      iszero\n      tag_31\n      jumpi\n      0x00\n      dup1\n      revert\n    tag_31:\n      pop\n      tag_32\n      tag_33\n      jump\t// in\n    tag_32:\n      mload(0x40)\n      tag_34\n      swap2\n      swap1\n      tag_35\n      jump\t// in\n    tag_34:\n      mload(0x40)\n      dup1\n      swap2\n      sub\n      swap1\n      return\n        /* \"contract/Accounts.sol\":2671:2925  function balanceOf(bool _isCelo, address _ERC20Address) public returns (uint) {... */\n    tag_3:\n      callvalue\n      dup1\n      iszero\n      tag_36\n      jumpi\n      0x00\n      dup1\n      revert\n    tag_36:\n      pop\n      tag_37\n      0x04\n      dup1\n      calldatasize\n      sub\n      dup2\n      add\n      swap1\n      tag_38\n      swap2\n      swap1\n      tag_39\n      jump\t// in\n    tag_38:\n      tag_40\n      jump\t// in\n    tag_37:\n      mload(0x40)\n      tag_41\n      swap2\n      swap1\n      tag_42\n      jump\t// in\n    tag_41:\n      mload(0x40)\n      dup1\n      swap2\n      sub\n      swap1\n      return\n        /* \"contract/Accounts.sol\":873:895  uint public claimDelay */\n    tag_4:\n      callvalue\n      dup1\n      iszero\n      tag_43\n      jumpi\n      0x00\n      dup1\n      revert\n    tag_43:\n      pop\n      tag_44\n      tag_45\n      jump\t// in\n    tag_44:\n      mload(0x40)\n      tag_46\n      swap2\n      swap1\n      tag_42\n      jump\t// in\n    tag_46:\n      mload(0x40)\n      dup1\n      swap2\n      sub\n      swap1\n      return\n        /* \"contract/Accounts.sol\":2335:2665  function claim(address _sender) public  {... */\n    tag_5:\n      callvalue\n      dup1\n      iszero\n      tag_47\n      jumpi\n      0x00\n      dup1\n      revert\n    tag_47:\n      pop\n      tag_48\n      0x04\n      dup1\n      calldatasize\n      sub\n      dup2\n      add\n      swap1\n      tag_49\n      swap2\n      swap1\n      tag_50\n      jump\t// in\n    tag_49:\n      tag_51\n      jump\t// in\n    tag_48:\n      stop\n        /* \"contract/Accounts.sol\":6443:6529  function returnDeployer() public view returns(address){... */\n    tag_6:\n      callvalue\n      dup1\n      iszero\n      tag_52\n      jumpi\n      0x00\n      dup1\n      revert\n    tag_52:\n      pop\n      tag_53\n      tag_54\n      jump\t// in\n    tag_53:\n      mload(0x40)\n      tag_55\n      swap2\n      swap1\n      tag_56\n      jump\t// in\n    tag_55:\n      mload(0x40)\n      dup1\n      swap2\n      sub\n      swap1\n      return\n        /* \"contract/Accounts.sol\":3114:3298  function unfreeze(address _sender) public {... */\n    tag_7:\n      callvalue\n      dup1\n      iszero\n      tag_57\n      jumpi\n      0x00\n      dup1\n      revert\n    tag_57:\n      pop\n      tag_58\n      0x04\n      dup1\n      calldatasize\n      sub\n      dup2\n      add\n      swap1\n      tag_59\n      swap2\n      swap1\n      tag_50\n      jump\t// in\n    tag_59:\n      tag_60\n      jump\t// in\n    tag_58:\n      stop\n        /* \"contract/Accounts.sol\":6355:6433  function returnHeir() public view returns(address){... */\n    tag_8:\n      callvalue\n      dup1\n      iszero\n      tag_61\n      jumpi\n      0x00\n      dup1\n      revert\n    tag_61:\n      pop\n      tag_62\n      tag_63\n      jump\t// in\n    tag_62:\n      mload(0x40)\n      tag_64\n      swap2\n      swap1\n      tag_56\n      jump\t// in\n    tag_64:\n      mload(0x40)\n      dup1\n      swap2\n      sub\n      swap1\n      return\n        /* \"contract/Accounts.sol\":1600:1928  function setHeir(address payable _heir, uint _claimDelay, address _sender) public {... */\n    tag_9:\n      callvalue\n      dup1\n      iszero\n      tag_65\n      jumpi\n      0x00\n      dup1\n      revert\n    tag_65:\n      pop\n      tag_66\n      0x04\n      dup1\n      calldatasize\n      sub\n      dup2\n      add\n      swap1\n      tag_67\n      swap2\n      swap1\n      tag_68\n      jump\t// in\n    tag_67:\n      tag_69\n      jump\t// in\n    tag_66:\n      stop\n        /* \"contract/Accounts.sol\":984:1017  address payable public ERC20Token */\n    tag_10:\n      callvalue\n      dup1\n      iszero\n      tag_70\n      jumpi\n      0x00\n      dup1\n      revert\n    tag_70:\n      pop\n      tag_71\n      tag_72\n      jump\t// in\n    tag_71:\n      mload(0x40)\n      tag_73\n      swap2\n      swap1\n      tag_74\n      jump\t// in\n    tag_73:\n      mload(0x40)\n      dup1\n      swap2\n      sub\n      swap1\n      return\n        /* \"contract/Accounts.sol\":2931:3108  function freeze(address _sender) public {... */\n    tag_11:\n      callvalue\n      dup1\n      iszero\n      tag_75\n      jumpi\n      0x00\n      dup1\n      revert\n    tag_75:\n      pop\n      tag_76\n      0x04\n      dup1\n      calldatasize\n      sub\n      dup2\n      add\n      swap1\n      tag_77\n      swap2\n      swap1\n      tag_50\n      jump\t// in\n    tag_77:\n      tag_78\n      jump\t// in\n    tag_76:\n      stop\n        /* \"contract/Accounts.sol\":509:537  address payable public owner */\n    tag_12:\n      callvalue\n      dup1\n      iszero\n      tag_79\n      jumpi\n      0x00\n      dup1\n      revert\n    tag_79:\n      pop\n      tag_80\n      tag_81\n      jump\t// in\n    tag_80:\n      mload(0x40)\n      tag_82\n      swap2\n      swap1\n      tag_74\n      jump\t// in\n    tag_82:\n      mload(0x40)\n      dup1\n      swap2\n      sub\n      swap1\n      return\n        /* \"contract/Accounts.sol\":574:601  address payable public heir */\n    tag_13:\n      callvalue\n      dup1\n      iszero\n      tag_83\n      jumpi\n      0x00\n      dup1\n      revert\n    tag_83:\n      pop\n      tag_84\n      tag_85\n      jump\t// in\n    tag_84:\n      mload(0x40)\n      tag_86\n      swap2\n      swap1\n      tag_74\n      jump\t// in\n    tag_86:\n      mload(0x40)\n      dup1\n      swap2\n      sub\n      swap1\n      return\n        /* \"contract/Accounts.sol\":6265:6345  function returnOwner() public view returns(address){... */\n    tag_14:\n      callvalue\n      dup1\n      iszero\n      tag_87\n      jumpi\n      0x00\n      dup1\n      revert\n    tag_87:\n      pop\n      tag_88\n      tag_89\n      jump\t// in\n    tag_88:\n      mload(0x40)\n      tag_90\n      swap2\n      swap1\n      tag_56\n      jump\t// in\n    tag_90:\n      mload(0x40)\n      dup1\n      swap2\n      sub\n      swap1\n      return\n        /* \"contract/Accounts.sol\":1234:1258  uint public tokenBalance */\n    tag_15:\n      callvalue\n      dup1\n      iszero\n      tag_91\n      jumpi\n      0x00\n      dup1\n      revert\n    tag_91:\n      pop\n      tag_92\n      tag_93\n      jump\t// in\n    tag_92:\n      mload(0x40)\n      tag_94\n      swap2\n      swap1\n      tag_42\n      jump\t// in\n    tag_94:\n      mload(0x40)\n      dup1\n      swap2\n      sub\n      swap1\n      return\n        /* \"contract/Accounts.sol\":3305:3959  function withdraw(uint _amount, address _sender, address payable _feeAddress, uint _transferFee) public payable {... */\n    tag_16:\n      tag_95\n      0x04\n      dup1\n      calldatasize\n      sub\n      dup2\n      add\n      swap1\n      tag_96\n      swap2\n      swap1\n      tag_97\n      jump\t// in\n    tag_96:\n      tag_98\n      jump\t// in\n    tag_95:\n      stop\n        /* \"contract/Accounts.sol\":1174:1199  bool public mutex = false */\n    tag_17:\n      callvalue\n      dup1\n      iszero\n      tag_99\n      jumpi\n      0x00\n      dup1\n      revert\n    tag_99:\n      pop\n      tag_100\n      tag_101\n      jump\t// in\n    tag_100:\n      mload(0x40)\n      tag_102\n      swap2\n      swap1\n      tag_35\n      jump\t// in\n    tag_102:\n      mload(0x40)\n      dup1\n      swap2\n      sub\n      swap1\n      return\n        /* \"contract/Accounts.sol\":6034:6259  function stopClaim(address _sender) public {... */\n    tag_18:\n      callvalue\n      dup1\n      iszero\n      tag_103\n      jumpi\n      0x00\n      dup1\n      revert\n    tag_103:\n      pop\n      tag_104\n      0x04\n      dup1\n      calldatasize\n      sub\n      dup2\n      add\n      swap1\n      tag_105\n      swap2\n      swap1\n      tag_50\n      jump\t// in\n    tag_105:\n      tag_106\n      jump\t// in\n    tag_104:\n      stop\n        /* \"contract/Accounts.sol\":751:779  uint public claimInitiatedAt */\n    tag_19:\n      callvalue\n      dup1\n      iszero\n      tag_107\n      jumpi\n      0x00\n      dup1\n      revert\n    tag_107:\n      pop\n      tag_108\n      tag_109\n      jump\t// in\n    tag_108:\n      mload(0x40)\n      tag_110\n      swap2\n      swap1\n      tag_42\n      jump\t// in\n    tag_110:\n      mload(0x40)\n      dup1\n      swap2\n      sub\n      swap1\n      return\n        /* \"contract/Accounts.sol\":1037:1056  IERC20 public ERC20 */\n    tag_20:\n      callvalue\n      dup1\n      iszero\n      tag_111\n      jumpi\n      0x00\n      dup1\n      revert\n    tag_111:\n      pop\n      tag_112\n      tag_113\n      jump\t// in\n    tag_112:\n      mload(0x40)\n      tag_114\n      swap2\n      swap1\n      tag_115\n      jump\t// in\n    tag_114:\n      mload(0x40)\n      dup1\n      swap2\n      sub\n      swap1\n      return\n        /* \"contract/Accounts.sol\":432:455  address public deployer */\n    tag_21:\n      callvalue\n      dup1\n      iszero\n      tag_116\n      jumpi\n      0x00\n      dup1\n      revert\n    tag_116:\n      pop\n      tag_117\n      tag_118\n      jump\t// in\n    tag_117:\n      mload(0x40)\n      tag_119\n      swap2\n      swap1\n      tag_56\n      jump\t// in\n    tag_119:\n      mload(0x40)\n      dup1\n      swap2\n      sub\n      swap1\n      return\n        /* \"contract/Accounts.sol\":4717:5326  function transferFunds(address payable _recipient, uint _amount, address _sender, address payable _feeAddress, uint _transferFee) public payable {... */\n    tag_22:\n      tag_120\n      0x04\n      dup1\n      calldatasize\n      sub\n      dup2\n      add\n      swap1\n      tag_121\n      swap2\n      swap1\n      tag_122\n      jump\t// in\n    tag_121:\n      tag_123\n      jump\t// in\n    tag_120:\n      stop\n        /* \"contract/Accounts.sol\":3965:4711  function withdrawERC20(uint _amount, address _ERC20Address, address _sender, address payable _feeAddress, uint _transferFee) public payable {... */\n    tag_23:\n      tag_124\n      0x04\n      dup1\n      calldatasize\n      sub\n      dup2\n      add\n      swap1\n      tag_125\n      swap2\n      swap1\n      tag_126\n      jump\t// in\n    tag_125:\n      tag_127\n      jump\t// in\n    tag_124:\n      stop\n        /* \"contract/Accounts.sol\":5332:6028  function transferERC20Funds(address payable _recipient, uint _amount, address _ERC20Address, address _sender, address payable _feeAddress, uint _transferFee) public payable {... */\n    tag_24:\n      tag_128\n      0x04\n      dup1\n      calldatasize\n      sub\n      dup2\n      add\n      swap1\n      tag_129\n      swap2\n      swap1\n      tag_130\n      jump\t// in\n    tag_129:\n      tag_131\n      jump\t// in\n    tag_128:\n      stop\n        /* \"contract/Accounts.sol\":1990:2279  function initiateClaim(address _sender) public {... */\n    tag_25:\n      callvalue\n      dup1\n      iszero\n      tag_132\n      jumpi\n      0x00\n      dup1\n      revert\n    tag_132:\n      pop\n      tag_133\n      0x04\n      dup1\n      calldatasize\n      sub\n      dup2\n      add\n      swap1\n      tag_134\n      swap2\n      swap1\n      tag_50\n      jump\t// in\n    tag_134:\n      tag_135\n      jump\t// in\n    tag_133:\n      stop\n        /* \"contract/Accounts.sol\":661:688  bool public claimInProgress */\n    tag_26:\n      callvalue\n      dup1\n      iszero\n      tag_136\n      jumpi\n      0x00\n      dup1\n      revert\n    tag_136:\n      pop\n      tag_137\n      tag_138\n      jump\t// in\n    tag_137:\n      mload(0x40)\n      tag_139\n      swap2\n      swap1\n      tag_35\n      jump\t// in\n    tag_139:\n      mload(0x40)\n      dup1\n      swap2\n      sub\n      swap1\n      return\n        /* \"contract/Accounts.sol\":1286:1312  bool public frozen = false */\n    tag_33:\n      0x09\n      0x00\n      swap1\n      sload\n      swap1\n      0x0100\n      exp\n      swap1\n      div\n      0xff\n      and\n      dup2\n      jump\t// out\n        /* \"contract/Accounts.sol\":2671:2925  function balanceOf(bool _isCelo, address _ERC20Address) public returns (uint) {... */\n    tag_40:\n        /* \"contract/Accounts.sol\":2743:2747  uint */\n      0x00\n        /* \"contract/Accounts.sol\":2759:2766  _isCelo */\n      dup3\n        /* \"contract/Accounts.sol\":2755:2919  if (_isCelo) {... */\n      iszero\n      tag_141\n      jumpi\n        /* \"contract/Accounts.sol\":2785:2806  address(this).balance */\n      selfbalance\n        /* \"contract/Accounts.sol\":2778:2806  return address(this).balance */\n      swap1\n      pop\n      jump(tag_140)\n        /* \"contract/Accounts.sol\":2755:2919  if (_isCelo) {... */\n    tag_141:\n        /* \"contract/Accounts.sol\":2844:2857  _ERC20Address */\n      dup2\n        /* \"contract/Accounts.sol\":2829:2834  ERC20 */\n      0x07\n      0x00\n        /* \"contract/Accounts.sol\":2829:2858  ERC20 = IERC20(_ERC20Address) */\n      0x0100\n      exp\n      dup2\n      sload\n      dup2\n      0xffffffffffffffffffffffffffffffffffffffff\n      mul\n      not\n      and\n      swap1\n      dup4\n      0xffffffffffffffffffffffffffffffffffffffff\n      and\n      mul\n      or\n      swap1\n      sstore\n      pop\n        /* \"contract/Accounts.sol\":2875:2880  ERC20 */\n      0x07\n      0x00\n      swap1\n      sload\n      swap1\n      0x0100\n      exp\n      swap1\n      div\n      0xffffffffffffffffffffffffffffffffffffffff\n      and\n        /* \"contract/Accounts.sol\":2875:2890  ERC20.balanceOf */\n      0xffffffffffffffffffffffffffffffffffffffff\n      and\n      0x70a08231\n        /* \"contract/Accounts.sol\":2899:2903  this */\n      address\n        /* \"contract/Accounts.sol\":2875:2905  ERC20.balanceOf(address(this)) */\n      mload(0x40)\n      dup3\n      0xffffffff\n      and\n      0xe0\n      shl\n      dup2\n      mstore\n      0x04\n      add\n      tag_143\n      swap2\n      swap1\n      tag_56\n      jump\t// in\n    tag_143:\n      0x20\n      mload(0x40)\n      dup1\n      dup4\n      sub\n      dup2\n      dup7\n      gas\n      staticcall\n      iszero\n      dup1\n      iszero\n      tag_145\n      jumpi\n      returndatasize\n      0x00\n      dup1\n      returndatacopy\n      revert(0x00, returndatasize)\n    tag_145:\n      pop\n      pop\n      pop\n      pop\n      mload(0x40)\n      returndatasize\n      not(0x1f)\n      0x1f\n      dup3\n      add\n      and\n      dup3\n      add\n      dup1\n      0x40\n      mstore\n      pop\n      dup2\n      add\n      swap1\n      tag_146\n      swap2\n      swap1\n      tag_147\n      jump\t// in\n    tag_146:\n        /* \"contract/Accounts.sol\":2868:2905  return ERC20.balanceOf(address(this)) */\n      swap1\n      pop\n        /* \"contract/Accounts.sol\":2671:2925  function balanceOf(bool _isCelo, address _ERC20Address) public returns (uint) {... */\n    tag_140:\n      swap3\n      swap2\n      pop\n      pop\n      jump\t// out\n        /* \"contract/Accounts.sol\":873:895  uint public claimDelay */\n    tag_45:\n      sload(0x04)\n      dup2\n      jump\t// out\n        /* \"contract/Accounts.sol\":2335:2665  function claim(address _sender) public  {... */\n    tag_51:\n        /* \"contract/Accounts.sol\":2401:2408  _sender */\n      dup1\n        /* \"contract/Accounts.sol\":2393:2408  heir == _sender */\n      0xffffffffffffffffffffffffffffffffffffffff\n      and\n        /* \"contract/Accounts.sol\":2393:2397  heir */\n      0x02\n      0x00\n      swap1\n      sload\n      swap1\n      0x0100\n      exp\n      swap1\n      div\n      0xffffffffffffffffffffffffffffffffffffffff\n      and\n        /* \"contract/Accounts.sol\":2393:2408  heir == _sender */\n      0xffffffffffffffffffffffffffffffffffffffff\n      and\n      eq\n        /* \"contract/Accounts.sol\":2385:2449  require(heir == _sender, \"Only the heir can claim the account.\") */\n      tag_149\n      jumpi\n      mload(0x40)\n      0x08c379a000000000000000000000000000000000000000000000000000000000\n      dup2\n      mstore\n      0x04\n      add\n      tag_150\n      swap1\n      tag_151\n      jump\t// in\n    tag_150:\n      mload(0x40)\n      dup1\n      swap2\n      sub\n      swap1\n      revert\n    tag_149:\n        /* \"contract/Accounts.sol\":2467:2482  claimInProgress */\n      0x02\n      0x14\n      swap1\n      sload\n      swap1\n      0x0100\n      exp\n      swap1\n      div\n      0xff\n      and\n        /* \"contract/Accounts.sol\":2459:2524  require(claimInProgress, \"Claim process has not been initiated.\") */\n      tag_152\n      jumpi\n      mload(0x40)\n      0x08c379a000000000000000000000000000000000000000000000000000000000\n      dup2\n      mstore\n      0x04\n      add\n      tag_153\n      swap1\n      tag_154\n      jump\t// in\n    tag_153:\n      mload(0x40)\n      dup1\n      swap2\n      sub\n      swap1\n      revert\n    tag_152:\n        /* \"contract/Accounts.sol\":2593:2599  1 days */\n      0x015180\n        /* \"contract/Accounts.sol\":2580:2590  claimDelay */\n      sload(0x04)\n        /* \"contract/Accounts.sol\":2580:2599  claimDelay * 1 days */\n      tag_155\n      swap2\n      swap1\n      tag_156\n      jump\t// in\n    tag_155:\n        /* \"contract/Accounts.sol\":2561:2577  claimInitiatedAt */\n      sload(0x03)\n        /* \"contract/Accounts.sol\":2561:2599  claimInitiatedAt + claimDelay * 1 days */\n      tag_157\n      swap2\n      swap1\n      tag_158\n      jump\t// in\n    tag_157:\n        /* \"contract/Accounts.sol\":2542:2557  block.timestamp */\n      timestamp\n        /* \"contract/Accounts.sol\":2542:2599  block.timestamp >= claimInitiatedAt + claimDelay * 1 days */\n      lt\n      iszero\n        /* \"contract/Accounts.sol\":2534:2632  require(block.timestamp >= claimInitiatedAt + claimDelay * 1 days, \"Claim delay has not expired.\") */\n      tag_159\n      jumpi\n      mload(0x40)\n      0x08c379a000000000000000000000000000000000000000000000000000000000\n      dup2\n      mstore\n      0x04\n      add\n      tag_160\n      swap1\n      tag_161\n      jump\t// in\n    tag_160:\n      mload(0x40)\n      dup1\n      swap2\n      sub\n      swap1\n      revert\n    tag_159:\n        /* \"contract/Accounts.sol\":2650:2654  heir */\n      0x02\n      0x00\n      swap1\n      sload\n      swap1\n      0x0100\n      exp\n      swap1\n      div\n      0xffffffffffffffffffffffffffffffffffffffff\n      and\n        /* \"contract/Accounts.sol\":2642:2647  owner */\n      0x01\n      0x00\n        /* \"contract/Accounts.sol\":2642:2654  owner = heir */\n      0x0100\n      exp\n      dup2\n      sload\n      dup2\n      0xffffffffffffffffffffffffffffffffffffffff\n      mul\n      not\n      and\n      swap1\n      dup4\n      0xffffffffffffffffffffffffffffffffffffffff\n      and\n      mul\n      or\n      swap1\n      sstore\n      pop\n        /* \"contract/Accounts.sol\":2335:2665  function claim(address _sender) public  {... */\n      pop\n      jump\t// out\n        /* \"contract/Accounts.sol\":6443:6529  function returnDeployer() public view returns(address){... */\n    tag_54:\n        /* \"contract/Accounts.sol\":6489:6496  address */\n      0x00\n        /* \"contract/Accounts.sol\":6514:6522  deployer */\n      dup1\n      0x00\n      swap1\n      sload\n      swap1\n      0x0100\n      exp\n      swap1\n      div\n      0xffffffffffffffffffffffffffffffffffffffff\n      and\n        /* \"contract/Accounts.sol\":6507:6522  return deployer */\n      swap1\n      pop\n        /* \"contract/Accounts.sol\":6443:6529  function returnDeployer() public view returns(address){... */\n      swap1\n      jump\t// out\n        /* \"contract/Accounts.sol\":3114:3298  function unfreeze(address _sender) public {... */\n    tag_60:\n        /* \"contract/Accounts.sol\":3185:3190  owner */\n      0x01\n      0x00\n      swap1\n      sload\n      swap1\n      0x0100\n      exp\n      swap1\n      div\n      0xffffffffffffffffffffffffffffffffffffffff\n      and\n        /* \"contract/Accounts.sol\":3174:3190  _sender == owner */\n      0xffffffffffffffffffffffffffffffffffffffff\n      and\n        /* \"contract/Accounts.sol\":3174:3181  _sender */\n      dup2\n        /* \"contract/Accounts.sol\":3174:3190  _sender == owner */\n      0xffffffffffffffffffffffffffffffffffffffff\n      and\n      eq\n        /* \"contract/Accounts.sol\":3166:3235  require(_sender == owner, \"Only the owner can unfreeze the account.\") */\n      tag_164\n      jumpi\n      mload(0x40)\n      0x08c379a000000000000000000000000000000000000000000000000000000000\n      dup2\n      mstore\n      0x04\n      add\n      tag_165\n      swap1\n      tag_166\n      jump\t// in\n    tag_165:\n      mload(0x40)\n      dup1\n      swap2\n      sub\n      swap1\n      revert\n    tag_164:\n        /* \"contract/Accounts.sol\":3254:3259  false */\n      0x00\n        /* \"contract/Accounts.sol\":3245:3251  frozen */\n      0x09\n      0x00\n        /* \"contract/Accounts.sol\":3245:3259  frozen = false */\n      0x0100\n      exp\n      dup2\n      sload\n      dup2\n      0xff\n      mul\n      not\n      and\n      swap1\n      dup4\n      iszero\n      iszero\n      mul\n      or\n      swap1\n      sstore\n      pop\n        /* \"contract/Accounts.sol\":3274:3291  Unfreeze(_sender) */\n      0xca5069937e68fd197927055037f59d7c90bf75ac104e6e375539ef480c3ad6ee\n        /* \"contract/Accounts.sol\":3283:3290  _sender */\n      dup2\n        /* \"contract/Accounts.sol\":3274:3291  Unfreeze(_sender) */\n      mload(0x40)\n      tag_167\n      swap2\n      swap1\n      tag_56\n      jump\t// in\n    tag_167:\n      mload(0x40)\n      dup1\n      swap2\n      sub\n      swap1\n      log1\n        /* \"contract/Accounts.sol\":3114:3298  function unfreeze(address _sender) public {... */\n      pop\n      jump\t// out\n        /* \"contract/Accounts.sol\":6355:6433  function returnHeir() public view returns(address){... */\n    tag_63:\n        /* \"contract/Accounts.sol\":6397:6404  address */\n      0x00\n        /* \"contract/Accounts.sol\":6422:6426  heir */\n      0x02\n      0x00\n      swap1\n      sload\n      swap1\n      0x0100\n      exp\n      swap1\n      div\n      0xffffffffffffffffffffffffffffffffffffffff\n      and\n        /* \"contract/Accounts.sol\":6415:6426  return heir */\n      swap1\n      pop\n        /* \"contract/Accounts.sol\":6355:6433  function returnHeir() public view returns(address){... */\n      swap1\n      jump\t// out\n        /* \"contract/Accounts.sol\":1600:1928  function setHeir(address payable _heir, uint _claimDelay, address _sender) public {... */\n    tag_69:\n        /* \"contract/Accounts.sol\":1709:1716  _sender */\n      dup1\n        /* \"contract/Accounts.sol\":1700:1716  owner == _sender */\n      0xffffffffffffffffffffffffffffffffffffffff\n      and\n        /* \"contract/Accounts.sol\":1700:1705  owner */\n      0x01\n      0x00\n      swap1\n      sload\n      swap1\n      0x0100\n      exp\n      swap1\n      div\n      0xffffffffffffffffffffffffffffffffffffffff\n      and\n        /* \"contract/Accounts.sol\":1700:1716  owner == _sender */\n      0xffffffffffffffffffffffffffffffffffffffff\n      and\n      eq\n        /* \"contract/Accounts.sol\":1692:1753  require(owner == _sender, \"Only the owner can set the heir.\") */\n      tag_170\n      jumpi\n      mload(0x40)\n      0x08c379a000000000000000000000000000000000000000000000000000000000\n      dup2\n      mstore\n      0x04\n      add\n      tag_171\n      swap1\n      tag_172\n      jump\t// in\n    tag_171:\n      mload(0x40)\n      dup1\n      swap2\n      sub\n      swap1\n      revert\n    tag_170:\n        /* \"contract/Accounts.sol\":1772:1777  mutex */\n      0x07\n      0x14\n      swap1\n      sload\n      swap1\n      0x0100\n      exp\n      swap1\n      div\n      0xff\n      and\n        /* \"contract/Accounts.sol\":1771:1777  !mutex */\n      iszero\n        /* \"contract/Accounts.sol\":1763:1819  require(!mutex, \"The function is already in execution.\") */\n      tag_173\n      jumpi\n      mload(0x40)\n      0x08c379a000000000000000000000000000000000000000000000000000000000\n      dup2\n      mstore\n      0x04\n      add\n      tag_174\n      swap1\n      tag_175\n      jump\t// in\n    tag_174:\n      mload(0x40)\n      dup1\n      swap2\n      sub\n      swap1\n      revert\n    tag_173:\n        /* \"contract/Accounts.sol\":1837:1841  true */\n      0x01\n        /* \"contract/Accounts.sol\":1829:1834  mutex */\n      0x07\n      0x14\n        /* \"contract/Accounts.sol\":1829:1841  mutex = true */\n      0x0100\n      exp\n      dup2\n      sload\n      dup2\n      0xff\n      mul\n      not\n      and\n      swap1\n      dup4\n      iszero\n      iszero\n      mul\n      or\n      swap1\n      sstore\n      pop\n        /* \"contract/Accounts.sol\":1859:1864  _heir */\n      dup3\n        /* \"contract/Accounts.sol\":1852:1856  heir */\n      0x02\n      0x00\n        /* \"contract/Accounts.sol\":1852:1864  heir = _heir */\n      0x0100\n      exp\n      dup2\n      sload\n      dup2\n      0xffffffffffffffffffffffffffffffffffffffff\n      mul\n      not\n      and\n      swap1\n      dup4\n      0xffffffffffffffffffffffffffffffffffffffff\n      and\n      mul\n      or\n      swap1\n      sstore\n      pop\n        /* \"contract/Accounts.sol\":1887:1898  _claimDelay */\n      dup2\n        /* \"contract/Accounts.sol\":1874:1884  claimDelay */\n      0x04\n        /* \"contract/Accounts.sol\":1874:1898  claimDelay = _claimDelay */\n      dup2\n      swap1\n      sstore\n      pop\n        /* \"contract/Accounts.sol\":1916:1921  false */\n      0x00\n        /* \"contract/Accounts.sol\":1908:1913  mutex */\n      0x07\n      0x14\n        /* \"contract/Accounts.sol\":1908:1921  mutex = false */\n      0x0100\n      exp\n      dup2\n      sload\n      dup2\n      0xff\n      mul\n      not\n      and\n      swap1\n      dup4\n      iszero\n      iszero\n      mul\n      or\n      swap1\n      sstore\n      pop\n        /* \"contract/Accounts.sol\":1600:1928  function setHeir(address payable _heir, uint _claimDelay, address _sender) public {... */\n      pop\n      pop\n      pop\n      jump\t// out\n        /* \"contract/Accounts.sol\":984:1017  address payable public ERC20Token */\n    tag_72:\n      0x06\n      0x00\n      swap1\n      sload\n      swap1\n      0x0100\n      exp\n      swap1\n      div\n      0xffffffffffffffffffffffffffffffffffffffff\n      and\n      dup2\n      jump\t// out\n        /* \"contract/Accounts.sol\":2931:3108  function freeze(address _sender) public {... */\n    tag_78:\n        /* \"contract/Accounts.sol\":3000:3005  owner */\n      0x01\n      0x00\n      swap1\n      sload\n      swap1\n      0x0100\n      exp\n      swap1\n      div\n      0xffffffffffffffffffffffffffffffffffffffff\n      and\n        /* \"contract/Accounts.sol\":2989:3005  _sender == owner */\n      0xffffffffffffffffffffffffffffffffffffffff\n      and\n        /* \"contract/Accounts.sol\":2989:2996  _sender */\n      dup2\n        /* \"contract/Accounts.sol\":2989:3005  _sender == owner */\n      0xffffffffffffffffffffffffffffffffffffffff\n      and\n      eq\n        /* \"contract/Accounts.sol\":2981:3048  require(_sender == owner, \"Only the owner can freeze the account.\") */\n      tag_177\n      jumpi\n      mload(0x40)\n      0x08c379a000000000000000000000000000000000000000000000000000000000\n      dup2\n      mstore\n      0x04\n      add\n      tag_178\n      swap1\n      tag_179\n      jump\t// in\n    tag_178:\n      mload(0x40)\n      dup1\n      swap2\n      sub\n      swap1\n      revert\n    tag_177:\n        /* \"contract/Accounts.sol\":3067:3071  true */\n      0x01\n        /* \"contract/Accounts.sol\":3058:3064  frozen */\n      0x09\n      0x00\n        /* \"contract/Accounts.sol\":3058:3071  frozen = true */\n      0x0100\n      exp\n      dup2\n      sload\n      dup2\n      0xff\n      mul\n      not\n      and\n      swap1\n      dup4\n      iszero\n      iszero\n      mul\n      or\n      swap1\n      sstore\n      pop\n        /* \"contract/Accounts.sol\":3086:3101  Freeze(_sender) */\n      0xaf85b60d26151edd11443b704d424da6c43d0468f2235ebae3d1904dbc323049\n        /* \"contract/Accounts.sol\":3093:3100  _sender */\n      dup2\n        /* \"contract/Accounts.sol\":3086:3101  Freeze(_sender) */\n      mload(0x40)\n      tag_180\n      swap2\n      swap1\n      tag_56\n      jump\t// in\n    tag_180:\n      mload(0x40)\n      dup1\n      swap2\n      sub\n      swap1\n      log1\n        /* \"contract/Accounts.sol\":2931:3108  function freeze(address _sender) public {... */\n      pop\n      jump\t// out\n        /* \"contract/Accounts.sol\":509:537  address payable public owner */\n    tag_81:\n      0x01\n      0x00\n      swap1\n      sload\n      swap1\n      0x0100\n      exp\n      swap1\n      div\n      0xffffffffffffffffffffffffffffffffffffffff\n      and\n      dup2\n      jump\t// out\n        /* \"contract/Accounts.sol\":574:601  address payable public heir */\n    tag_85:\n      0x02\n      0x00\n      swap1\n      sload\n      swap1\n      0x0100\n      exp\n      swap1\n      div\n      0xffffffffffffffffffffffffffffffffffffffff\n      and\n      dup2\n      jump\t// out\n        /* \"contract/Accounts.sol\":6265:6345  function returnOwner() public view returns(address){... */\n    tag_89:\n        /* \"contract/Accounts.sol\":6308:6315  address */\n      0x00\n        /* \"contract/Accounts.sol\":6333:6338  owner */\n      0x01\n      0x00\n      swap1\n      sload\n      swap1\n      0x0100\n      exp\n      swap1\n      div\n      0xffffffffffffffffffffffffffffffffffffffff\n      and\n        /* \"contract/Accounts.sol\":6326:6338  return owner */\n      swap1\n      pop\n        /* \"contract/Accounts.sol\":6265:6345  function returnOwner() public view returns(address){... */\n      swap1\n      jump\t// out\n        /* \"contract/Accounts.sol\":1234:1258  uint public tokenBalance */\n    tag_93:\n      sload(0x08)\n      dup2\n      jump\t// out\n        /* \"contract/Accounts.sol\":3305:3959  function withdraw(uint _amount, address _sender, address payable _feeAddress, uint _transferFee) public payable {... */\n    tag_98:\n        /* \"contract/Accounts.sol\":3446:3451  owner */\n      0x01\n      0x00\n      swap1\n      sload\n      swap1\n      0x0100\n      exp\n      swap1\n      div\n      0xffffffffffffffffffffffffffffffffffffffff\n      and\n        /* \"contract/Accounts.sol\":3435:3451  _sender == owner */\n      0xffffffffffffffffffffffffffffffffffffffff\n      and\n        /* \"contract/Accounts.sol\":3435:3442  _sender */\n      dup4\n        /* \"contract/Accounts.sol\":3435:3451  _sender == owner */\n      0xffffffffffffffffffffffffffffffffffffffff\n      and\n      eq\n        /* \"contract/Accounts.sol\":3427:3490  require(_sender == owner, \"Only the owner can withdraw funds.\") */\n      tag_183\n      jumpi\n      mload(0x40)\n      0x08c379a000000000000000000000000000000000000000000000000000000000\n      dup2\n      mstore\n      0x04\n      add\n      tag_184\n      swap1\n      tag_185\n      jump\t// in\n    tag_184:\n      mload(0x40)\n      dup1\n      swap2\n      sub\n      swap1\n      revert\n    tag_183:\n        /* \"contract/Accounts.sol\":3509:3515  frozen */\n      0x09\n      0x00\n      swap1\n      sload\n      swap1\n      0x0100\n      exp\n      swap1\n      div\n      0xff\n      and\n        /* \"contract/Accounts.sol\":3508:3515  !frozen */\n      iszero\n        /* \"contract/Accounts.sol\":3500:3561  require(!frozen, \"Account is frozen, cannot withdraw funds.\") */\n      tag_186\n      jumpi\n      mload(0x40)\n      0x08c379a000000000000000000000000000000000000000000000000000000000\n      dup2\n      mstore\n      0x04\n      add\n      tag_187\n      swap1\n      tag_188\n      jump\t// in\n    tag_187:\n      mload(0x40)\n      dup1\n      swap2\n      sub\n      swap1\n      revert\n    tag_186:\n        /* \"contract/Accounts.sol\":3603:3604  0 */\n      0x00\n        /* \"contract/Accounts.sol\":3579:3600  address(this).balance */\n      selfbalance\n        /* \"contract/Accounts.sol\":3579:3604  address(this).balance > 0 */\n      gt\n        /* \"contract/Accounts.sol\":3571:3640  require(address(this).balance > 0, \"There are no funds to withdraw.\") */\n      tag_189\n      jumpi\n      mload(0x40)\n      0x08c379a000000000000000000000000000000000000000000000000000000000\n      dup2\n      mstore\n      0x04\n      add\n      tag_190\n      swap1\n      tag_191\n      jump\t// in\n    tag_190:\n      mload(0x40)\n      dup1\n      swap2\n      sub\n      swap1\n      revert\n    tag_189:\n        /* \"contract/Accounts.sol\":3669:3690  address(this).balance */\n      selfbalance\n        /* \"contract/Accounts.sol\":3658:3665  _amount */\n      dup5\n        /* \"contract/Accounts.sol\":3658:3690  _amount <= address(this).balance */\n      gt\n      iszero\n        /* \"contract/Accounts.sol\":3650:3714  require(_amount <= address(this).balance, \"Insufficient funds.\") */\n      tag_192\n      jumpi\n      mload(0x40)\n      0x08c379a000000000000000000000000000000000000000000000000000000000\n      dup2\n      mstore\n      0x04\n      add\n      tag_193\n      swap1\n      tag_194\n      jump\t// in\n    tag_193:\n      mload(0x40)\n      dup1\n      swap2\n      sub\n      swap1\n      revert\n    tag_192:\n        /* \"contract/Accounts.sol\":3733:3738  mutex */\n      0x07\n      0x14\n      swap1\n      sload\n      swap1\n      0x0100\n      exp\n      swap1\n      div\n      0xff\n      and\n        /* \"contract/Accounts.sol\":3732:3738  !mutex */\n      iszero\n        /* \"contract/Accounts.sol\":3724:3780  require(!mutex, \"The function is already in execution.\") */\n      tag_195\n      jumpi\n      mload(0x40)\n      0x08c379a000000000000000000000000000000000000000000000000000000000\n      dup2\n      mstore\n      0x04\n      add\n      tag_196\n      swap1\n      tag_175\n      jump\t// in\n    tag_196:\n      mload(0x40)\n      dup1\n      swap2\n      sub\n      swap1\n      revert\n    tag_195:\n        /* \"contract/Accounts.sol\":3798:3802  true */\n      0x01\n        /* \"contract/Accounts.sol\":3790:3795  mutex */\n      0x07\n      0x14\n        /* \"contract/Accounts.sol\":3790:3802  mutex = true */\n      0x0100\n      exp\n      dup2\n      sload\n      dup2\n      0xff\n      mul\n      not\n      and\n      swap1\n      dup4\n      iszero\n      iszero\n      mul\n      or\n      swap1\n      sstore\n      pop\n        /* \"contract/Accounts.sol\":3818:3852  _amount.mul(_transferFee).div(100) */\n      tag_197\n        /* \"contract/Accounts.sol\":3848:3851  100 */\n      0x64\n        /* \"contract/Accounts.sol\":3818:3843  _amount.mul(_transferFee) */\n      tag_198\n        /* \"contract/Accounts.sol\":3830:3842  _transferFee */\n      dup4\n        /* \"contract/Accounts.sol\":3818:3825  _amount */\n      dup8\n        /* \"contract/Accounts.sol\":3818:3829  _amount.mul */\n      tag_199\n      swap1\n        /* \"contract/Accounts.sol\":3818:3843  _amount.mul(_transferFee) */\n      swap2\n      swap1\n      0xffffffff\n      and\n      jump\t// in\n    tag_198:\n        /* \"contract/Accounts.sol\":3818:3847  _amount.mul(_transferFee).div */\n      tag_200\n      swap1\n        /* \"contract/Accounts.sol\":3818:3852  _amount.mul(_transferFee).div(100) */\n      swap2\n      swap1\n      0xffffffff\n      and\n      jump\t// in\n    tag_197:\n        /* \"contract/Accounts.sol\":3812:3815  fee */\n      0x05\n        /* \"contract/Accounts.sol\":3812:3852  fee = _amount.mul(_transferFee).div(100) */\n      dup2\n      swap1\n      sstore\n      pop\n        /* \"contract/Accounts.sol\":3862:3867  owner */\n      0x01\n      0x00\n      swap1\n      sload\n      swap1\n      0x0100\n      exp\n      swap1\n      div\n      0xffffffffffffffffffffffffffffffffffffffff\n      and\n        /* \"contract/Accounts.sol\":3862:3876  owner.transfer */\n      0xffffffffffffffffffffffffffffffffffffffff\n      and\n        /* \"contract/Accounts.sol\":3862:3894  owner.transfer(_amount.sub(fee)) */\n      0x08fc\n        /* \"contract/Accounts.sol\":3877:3893  _amount.sub(fee) */\n      tag_201\n        /* \"contract/Accounts.sol\":3889:3892  fee */\n      sload(0x05)\n        /* \"contract/Accounts.sol\":3877:3884  _amount */\n      dup8\n        /* \"contract/Accounts.sol\":3877:3888  _amount.sub */\n      tag_202\n      swap1\n        /* \"contract/Accounts.sol\":3877:3893  _amount.sub(fee) */\n      swap2\n      swap1\n      0xffffffff\n      and\n      jump\t// in\n    tag_201:\n        /* \"contract/Accounts.sol\":3862:3894  owner.transfer(_amount.sub(fee)) */\n      swap1\n      dup2\n      iszero\n      mul\n      swap1\n      mload(0x40)\n      0x00\n      mload(0x40)\n      dup1\n      dup4\n      sub\n      dup2\n      dup6\n      dup9\n      dup9\n      call\n      swap4\n      pop\n      pop\n      pop\n      pop\n      iszero\n      dup1\n      iszero\n      tag_204\n      jumpi\n      returndatasize\n      0x00\n      dup1\n      returndatacopy\n      revert(0x00, returndatasize)\n    tag_204:\n      pop\n        /* \"contract/Accounts.sol\":3904:3915  _feeAddress */\n      dup2\n        /* \"contract/Accounts.sol\":3904:3924  _feeAddress.transfer */\n      0xffffffffffffffffffffffffffffffffffffffff\n      and\n        /* \"contract/Accounts.sol\":3904:3929  _feeAddress.transfer(fee) */\n      0x08fc\n        /* \"contract/Accounts.sol\":3925:3928  fee */\n      sload(0x05)\n        /* \"contract/Accounts.sol\":3904:3929  _feeAddress.transfer(fee) */\n      swap1\n      dup2\n      iszero\n      mul\n      swap1\n      mload(0x40)\n      0x00\n      mload(0x40)\n      dup1\n      dup4\n      sub\n      dup2\n      dup6\n      dup9\n      dup9\n      call\n      swap4\n      pop\n      pop\n      pop\n      pop\n      iszero\n      dup1\n      iszero\n      tag_206\n      jumpi\n      returndatasize\n      0x00\n      dup1\n      returndatacopy\n      revert(0x00, returndatasize)\n    tag_206:\n      pop\n        /* \"contract/Accounts.sol\":3947:3952  false */\n      0x00\n        /* \"contract/Accounts.sol\":3939:3944  mutex */\n      0x07\n      0x14\n        /* \"contract/Accounts.sol\":3939:3952  mutex = false */\n      0x0100\n      exp\n      dup2\n      sload\n      dup2\n      0xff\n      mul\n      not\n      and\n      swap1\n      dup4\n      iszero\n      iszero\n      mul\n      or\n      swap1\n      sstore\n      pop\n        /* \"contract/Accounts.sol\":3305:3959  function withdraw(uint _amount, address _sender, address payable _feeAddress, uint _transferFee) public payable {... */\n      pop\n      pop\n      pop\n      pop\n      jump\t// out\n        /* \"contract/Accounts.sol\":1174:1199  bool public mutex = false */\n    tag_101:\n      0x07\n      0x14\n      swap1\n      sload\n      swap1\n      0x0100\n      exp\n      swap1\n      div\n      0xff\n      and\n      dup2\n      jump\t// out\n        /* \"contract/Accounts.sol\":6034:6259  function stopClaim(address _sender) public {... */\n    tag_106:\n        /* \"contract/Accounts.sol\":6106:6111  owner */\n      0x01\n      0x00\n      swap1\n      sload\n      swap1\n      0x0100\n      exp\n      swap1\n      div\n      0xffffffffffffffffffffffffffffffffffffffff\n      and\n        /* \"contract/Accounts.sol\":6095:6111  _sender == owner */\n      0xffffffffffffffffffffffffffffffffffffffff\n      and\n        /* \"contract/Accounts.sol\":6095:6102  _sender */\n      dup2\n        /* \"contract/Accounts.sol\":6095:6111  _sender == owner */\n      0xffffffffffffffffffffffffffffffffffffffff\n      and\n      eq\n        /* \"contract/Accounts.sol\":6087:6148  require(_sender == owner, \"Only the owner can stop a claim.\") */\n      tag_208\n      jumpi\n      mload(0x40)\n      0x08c379a000000000000000000000000000000000000000000000000000000000\n      dup2\n      mstore\n      0x04\n      add\n      tag_209\n      swap1\n      tag_210\n      jump\t// in\n    tag_209:\n      mload(0x40)\n      dup1\n      swap2\n      sub\n      swap1\n      revert\n    tag_208:\n        /* \"contract/Accounts.sol\":6166:6181  claimInProgress */\n      0x02\n      0x14\n      swap1\n      sload\n      swap1\n      0x0100\n      exp\n      swap1\n      div\n      0xff\n      and\n        /* \"contract/Accounts.sol\":6158:6219  require(claimInProgress, \"There is no active claim to stop.\") */\n      tag_211\n      jumpi\n      mload(0x40)\n      0x08c379a000000000000000000000000000000000000000000000000000000000\n      dup2\n      mstore\n      0x04\n      add\n      tag_212\n      swap1\n      tag_213\n      jump\t// in\n    tag_212:\n      mload(0x40)\n      dup1\n      swap2\n      sub\n      swap1\n      revert\n    tag_211:\n        /* \"contract/Accounts.sol\":6247:6252  false */\n      0x00\n        /* \"contract/Accounts.sol\":6229:6244  claimInProgress */\n      0x02\n      0x14\n        /* \"contract/Accounts.sol\":6229:6252  claimInProgress = false */\n      0x0100\n      exp\n      dup2\n      sload\n      dup2\n      0xff\n      mul\n      not\n      and\n      swap1\n      dup4\n      iszero\n      iszero\n      mul\n      or\n      swap1\n      sstore\n      pop\n        /* \"contract/Accounts.sol\":6034:6259  function stopClaim(address _sender) public {... */\n      pop\n      jump\t// out\n        /* \"contract/Accounts.sol\":751:779  uint public claimInitiatedAt */\n    tag_109:\n      sload(0x03)\n      dup2\n      jump\t// out\n        /* \"contract/Accounts.sol\":1037:1056  IERC20 public ERC20 */\n    tag_113:\n      0x07\n      0x00\n      swap1\n      sload\n      swap1\n      0x0100\n      exp\n      swap1\n      div\n      0xffffffffffffffffffffffffffffffffffffffff\n      and\n      dup2\n      jump\t// out\n        /* \"contract/Accounts.sol\":432:455  address public deployer */\n    tag_118:\n      0x00\n      dup1\n      sload\n      swap1\n      0x0100\n      exp\n      swap1\n      div\n      0xffffffffffffffffffffffffffffffffffffffff\n      and\n      dup2\n      jump\t// out\n        /* \"contract/Accounts.sol\":4717:5326  function transferFunds(address payable _recipient, uint _amount, address _sender, address payable _feeAddress, uint _transferFee) public payable {... */\n    tag_123:\n        /* \"contract/Accounts.sol\":4891:4896  owner */\n      0x01\n      0x00\n      swap1\n      sload\n      swap1\n      0x0100\n      exp\n      swap1\n      div\n      0xffffffffffffffffffffffffffffffffffffffff\n      and\n        /* \"contract/Accounts.sol\":4880:4896  _sender == owner */\n      0xffffffffffffffffffffffffffffffffffffffff\n      and\n        /* \"contract/Accounts.sol\":4880:4887  _sender */\n      dup4\n        /* \"contract/Accounts.sol\":4880:4896  _sender == owner */\n      0xffffffffffffffffffffffffffffffffffffffff\n      and\n      eq\n        /* \"contract/Accounts.sol\":4872:4935  require(_sender == owner, \"Only the owner can transfer funds.\") */\n      tag_215\n      jumpi\n      mload(0x40)\n      0x08c379a000000000000000000000000000000000000000000000000000000000\n      dup2\n      mstore\n      0x04\n      add\n      tag_216\n      swap1\n      tag_217\n      jump\t// in\n    tag_216:\n      mload(0x40)\n      dup1\n      swap2\n      sub\n      swap1\n      revert\n    tag_215:\n        /* \"contract/Accounts.sol\":4954:4960  frozen */\n      0x09\n      0x00\n      swap1\n      sload\n      swap1\n      0x0100\n      exp\n      swap1\n      div\n      0xff\n      and\n        /* \"contract/Accounts.sol\":4953:4960  !frozen */\n      iszero\n        /* \"contract/Accounts.sol\":4945:5006  require(!frozen, \"Account is frozen, cannot withdraw funds.\") */\n      tag_218\n      jumpi\n      mload(0x40)\n      0x08c379a000000000000000000000000000000000000000000000000000000000\n      dup2\n      mstore\n      0x04\n      add\n      tag_219\n      swap1\n      tag_188\n      jump\t// in\n    tag_219:\n      mload(0x40)\n      dup1\n      swap2\n      sub\n      swap1\n      revert\n    tag_218:\n        /* \"contract/Accounts.sol\":5035:5056  address(this).balance */\n      selfbalance\n        /* \"contract/Accounts.sol\":5024:5031  _amount */\n      dup5\n        /* \"contract/Accounts.sol\":5024:5056  _amount <= address(this).balance */\n      gt\n      iszero\n        /* \"contract/Accounts.sol\":5016:5080  require(_amount <= address(this).balance, \"Insufficient funds.\") */\n      tag_220\n      jumpi\n      mload(0x40)\n      0x08c379a000000000000000000000000000000000000000000000000000000000\n      dup2\n      mstore\n      0x04\n      add\n      tag_221\n      swap1\n      tag_194\n      jump\t// in\n    tag_221:\n      mload(0x40)\n      dup1\n      swap2\n      sub\n      swap1\n      revert\n    tag_220:\n        /* \"contract/Accounts.sol\":5099:5104  mutex */\n      0x07\n      0x14\n      swap1\n      sload\n      swap1\n      0x0100\n      exp\n      swap1\n      div\n      0xff\n      and\n        /* \"contract/Accounts.sol\":5098:5104  !mutex */\n      iszero\n        /* \"contract/Accounts.sol\":5090:5146  require(!mutex, \"The function is already in execution.\") */\n      tag_222\n      jumpi\n      mload(0x40)\n      0x08c379a000000000000000000000000000000000000000000000000000000000\n      dup2\n      mstore\n      0x04\n      add\n      tag_223\n      swap1\n      tag_175\n      jump\t// in\n    tag_223:\n      mload(0x40)\n      dup1\n      swap2\n      sub\n      swap1\n      revert\n    tag_222:\n        /* \"contract/Accounts.sol\":5164:5168  true */\n      0x01\n        /* \"contract/Accounts.sol\":5156:5161  mutex */\n      0x07\n      0x14\n        /* \"contract/Accounts.sol\":5156:5168  mutex = true */\n      0x0100\n      exp\n      dup2\n      sload\n      dup2\n      0xff\n      mul\n      not\n      and\n      swap1\n      dup4\n      iszero\n      iszero\n      mul\n      or\n      swap1\n      sstore\n      pop\n        /* \"contract/Accounts.sol\":5184:5218  _amount.mul(_transferFee).div(100) */\n      tag_224\n        /* \"contract/Accounts.sol\":5214:5217  100 */\n      0x64\n        /* \"contract/Accounts.sol\":5184:5209  _amount.mul(_transferFee) */\n      tag_225\n        /* \"contract/Accounts.sol\":5196:5208  _transferFee */\n      dup4\n        /* \"contract/Accounts.sol\":5184:5191  _amount */\n      dup8\n        /* \"contract/Accounts.sol\":5184:5195  _amount.mul */\n      tag_199\n      swap1\n        /* \"contract/Accounts.sol\":5184:5209  _amount.mul(_transferFee) */\n      swap2\n      swap1\n      0xffffffff\n      and\n      jump\t// in\n    tag_225:\n        /* \"contract/Accounts.sol\":5184:5213  _amount.mul(_transferFee).div */\n      tag_200\n      swap1\n        /* \"contract/Accounts.sol\":5184:5218  _amount.mul(_transferFee).div(100) */\n      swap2\n      swap1\n      0xffffffff\n      and\n      jump\t// in\n    tag_224:\n        /* \"contract/Accounts.sol\":5178:5181  fee */\n      0x05\n        /* \"contract/Accounts.sol\":5178:5218  fee = _amount.mul(_transferFee).div(100) */\n      dup2\n      swap1\n      sstore\n      pop\n        /* \"contract/Accounts.sol\":5228:5238  _recipient */\n      dup5\n        /* \"contract/Accounts.sol\":5228:5247  _recipient.transfer */\n      0xffffffffffffffffffffffffffffffffffffffff\n      and\n        /* \"contract/Accounts.sol\":5228:5265  _recipient.transfer(_amount.sub(fee)) */\n      0x08fc\n        /* \"contract/Accounts.sol\":5248:5264  _amount.sub(fee) */\n      tag_226\n        /* \"contract/Accounts.sol\":5260:5263  fee */\n      sload(0x05)\n        /* \"contract/Accounts.sol\":5248:5255  _amount */\n      dup8\n        /* \"contract/Accounts.sol\":5248:5259  _amount.sub */\n      tag_202\n      swap1\n        /* \"contract/Accounts.sol\":5248:5264  _amount.sub(fee) */\n      swap2\n      swap1\n      0xffffffff\n      and\n      jump\t// in\n    tag_226:\n        /* \"contract/Accounts.sol\":5228:5265  _recipient.transfer(_amount.sub(fee)) */\n      swap1\n      dup2\n      iszero\n      mul\n      swap1\n      mload(0x40)\n      0x00\n      mload(0x40)\n      dup1\n      dup4\n      sub\n      dup2\n      dup6\n      dup9\n      dup9\n      call\n      swap4\n      pop\n      pop\n      pop\n      pop\n      iszero\n      dup1\n      iszero\n      tag_228\n      jumpi\n      returndatasize\n      0x00\n      dup1\n      returndatacopy\n      revert(0x00, returndatasize)\n    tag_228:\n      pop\n        /* \"contract/Accounts.sol\":5275:5286  _feeAddress */\n      dup2\n        /* \"contract/Accounts.sol\":5275:5295  _feeAddress.transfer */\n      0xffffffffffffffffffffffffffffffffffffffff\n      and\n        /* \"contract/Accounts.sol\":5275:5300  _feeAddress.transfer(fee) */\n      0x08fc\n        /* \"contract/Accounts.sol\":5296:5299  fee */\n      sload(0x05)\n        /* \"contract/Accounts.sol\":5275:5300  _feeAddress.transfer(fee) */\n      swap1\n      dup2\n      iszero\n      mul\n      swap1\n      mload(0x40)\n      0x00\n      mload(0x40)\n      dup1\n      dup4\n      sub\n      dup2\n      dup6\n      dup9\n      dup9\n      call\n      swap4\n      pop\n      pop\n      pop\n      pop\n      iszero\n      dup1\n      iszero\n      tag_230\n      jumpi\n      returndatasize\n      0x00\n      dup1\n      returndatacopy\n      revert(0x00, returndatasize)\n    tag_230:\n      pop\n        /* \"contract/Accounts.sol\":5318:5323  false */\n      0x00\n        /* \"contract/Accounts.sol\":5310:5315  mutex */\n      0x07\n      0x14\n        /* \"contract/Accounts.sol\":5310:5323  mutex = false */\n      0x0100\n      exp\n      dup2\n      sload\n      dup2\n      0xff\n      mul\n      not\n      and\n      swap1\n      dup4\n      iszero\n      iszero\n      mul\n      or\n      swap1\n      sstore\n      pop\n        /* \"contract/Accounts.sol\":4717:5326  function transferFunds(address payable _recipient, uint _amount, address _sender, address payable _feeAddress, uint _transferFee) public payable {... */\n      pop\n      pop\n      pop\n      pop\n      pop\n      jump\t// out\n        /* \"contract/Accounts.sol\":3965:4711  function withdrawERC20(uint _amount, address _ERC20Address, address _sender, address payable _feeAddress, uint _transferFee) public payable {... */\n    tag_127:\n        /* \"contract/Accounts.sol\":4134:4139  owner */\n      0x01\n      0x00\n      swap1\n      sload\n      swap1\n      0x0100\n      exp\n      swap1\n      div\n      0xffffffffffffffffffffffffffffffffffffffff\n      and\n        /* \"contract/Accounts.sol\":4123:4139  _sender == owner */\n      0xffffffffffffffffffffffffffffffffffffffff\n      and\n        /* \"contract/Accounts.sol\":4123:4130  _sender */\n      dup4\n        /* \"contract/Accounts.sol\":4123:4139  _sender == owner */\n      0xffffffffffffffffffffffffffffffffffffffff\n      and\n      eq\n        /* \"contract/Accounts.sol\":4115:4178  require(_sender == owner, \"Only the owner can withdraw funds.\") */\n      tag_232\n      jumpi\n      mload(0x40)\n      0x08c379a000000000000000000000000000000000000000000000000000000000\n      dup2\n      mstore\n      0x04\n      add\n      tag_233\n      swap1\n      tag_185\n      jump\t// in\n    tag_233:\n      mload(0x40)\n      dup1\n      swap2\n      sub\n      swap1\n      revert\n    tag_232:\n        /* \"contract/Accounts.sol\":4197:4203  frozen */\n      0x09\n      0x00\n      swap1\n      sload\n      swap1\n      0x0100\n      exp\n      swap1\n      div\n      0xff\n      and\n        /* \"contract/Accounts.sol\":4196:4203  !frozen */\n      iszero\n        /* \"contract/Accounts.sol\":4188:4249  require(!frozen, \"Account is frozen, cannot withdraw funds.\") */\n      tag_234\n      jumpi\n      mload(0x40)\n      0x08c379a000000000000000000000000000000000000000000000000000000000\n      dup2\n      mstore\n      0x04\n      add\n      tag_235\n      swap1\n      tag_188\n      jump\t// in\n    tag_235:\n      mload(0x40)\n      dup1\n      swap2\n      sub\n      swap1\n      revert\n    tag_234:\n        /* \"contract/Accounts.sol\":4274:4287  _ERC20Address */\n      dup4\n        /* \"contract/Accounts.sol\":4259:4264  ERC20 */\n      0x07\n      0x00\n        /* \"contract/Accounts.sol\":4259:4288  ERC20 = IERC20(_ERC20Address) */\n      0x0100\n      exp\n      dup2\n      sload\n      dup2\n      0xffffffffffffffffffffffffffffffffffffffff\n      mul\n      not\n      and\n      swap1\n      dup4\n      0xffffffffffffffffffffffffffffffffffffffff\n      and\n      mul\n      or\n      swap1\n      sstore\n      pop\n        /* \"contract/Accounts.sol\":4339:4340  0 */\n      0x00\n        /* \"contract/Accounts.sol\":4306:4311  ERC20 */\n      0x07\n      0x00\n      swap1\n      sload\n      swap1\n      0x0100\n      exp\n      swap1\n      div\n      0xffffffffffffffffffffffffffffffffffffffff\n      and\n        /* \"contract/Accounts.sol\":4306:4321  ERC20.balanceOf */\n      0xffffffffffffffffffffffffffffffffffffffff\n      and\n      0x70a08231\n        /* \"contract/Accounts.sol\":4330:4334  this */\n      address\n        /* \"contract/Accounts.sol\":4306:4336  ERC20.balanceOf(address(this)) */\n      mload(0x40)\n      dup3\n      0xffffffff\n      and\n      0xe0\n      shl\n      dup2\n      mstore\n      0x04\n      add\n      tag_236\n      swap2\n      swap1\n      tag_56\n      jump\t// in\n    tag_236:\n      0x20\n      mload(0x40)\n      dup1\n      dup4\n      sub\n      dup2\n      dup7\n      gas\n      staticcall\n      iszero\n      dup1\n      iszero\n      tag_238\n      jumpi\n      returndatasize\n      0x00\n      dup1\n      returndatacopy\n      revert(0x00, returndatasize)\n    tag_238:\n      pop\n      pop\n      pop\n      pop\n      mload(0x40)\n      returndatasize\n      not(0x1f)\n      0x1f\n      dup3\n      add\n      and\n      dup3\n      add\n      dup1\n      0x40\n      mstore\n      pop\n      dup2\n      add\n      swap1\n      tag_239\n      swap2\n      swap1\n      tag_147\n      jump\t// in\n    tag_239:\n        /* \"contract/Accounts.sol\":4306:4340  ERC20.balanceOf(address(this)) > 0 */\n      gt\n        /* \"contract/Accounts.sol\":4298:4376  require(ERC20.balanceOf(address(this)) > 0, \"There are no funds to withdraw.\") */\n      tag_240\n      jumpi\n      mload(0x40)\n      0x08c379a000000000000000000000000000000000000000000000000000000000\n      dup2\n      mstore\n      0x04\n      add\n      tag_241\n      swap1\n      tag_191\n      jump\t// in\n    tag_241:\n      mload(0x40)\n      dup1\n      swap2\n      sub\n      swap1\n      revert\n    tag_240:\n        /* \"contract/Accounts.sol\":4405:4410  ERC20 */\n      0x07\n      0x00\n      swap1\n      sload\n      swap1\n      0x0100\n      exp\n      swap1\n      div\n      0xffffffffffffffffffffffffffffffffffffffff\n      and\n        /* \"contract/Accounts.sol\":4405:4420  ERC20.balanceOf */\n      0xffffffffffffffffffffffffffffffffffffffff\n      and\n      0x70a08231\n        /* \"contract/Accounts.sol\":4429:4433  this */\n      address\n        /* \"contract/Accounts.sol\":4405:4435  ERC20.balanceOf(address(this)) */\n      mload(0x40)\n      dup3\n      0xffffffff\n      and\n      0xe0\n      shl\n      dup2\n      mstore\n      0x04\n      add\n      tag_242\n      swap2\n      swap1\n      tag_56\n      jump\t// in\n    tag_242:\n      0x20\n      mload(0x40)\n      dup1\n      dup4\n      sub\n      dup2\n      dup7\n      gas\n      staticcall\n      iszero\n      dup1\n      iszero\n      tag_244\n      jumpi\n      returndatasize\n      0x00\n      dup1\n      returndatacopy\n      revert(0x00, returndatasize)\n    tag_244:\n      pop\n      pop\n      pop\n      pop\n      mload(0x40)\n      returndatasize\n      not(0x1f)\n      0x1f\n      dup3\n      add\n      and\n      dup3\n      add\n      dup1\n      0x40\n      mstore\n      pop\n      dup2\n      add\n      swap1\n      tag_245\n      swap2\n      swap1\n      tag_147\n      jump\t// in\n    tag_245:\n        /* \"contract/Accounts.sol\":4394:4401  _amount */\n      dup6\n        /* \"contract/Accounts.sol\":4394:4435  _amount <= ERC20.balanceOf(address(this)) */\n      gt\n      iszero\n        /* \"contract/Accounts.sol\":4386:4459  require(_amount <= ERC20.balanceOf(address(this)), \"Insufficient funds.\") */\n      tag_246\n      jumpi\n      mload(0x40)\n      0x08c379a000000000000000000000000000000000000000000000000000000000\n      dup2\n      mstore\n      0x04\n      add\n      tag_247\n      swap1\n      tag_194\n      jump\t// in\n    tag_247:\n      mload(0x40)\n      dup1\n      swap2\n      sub\n      swap1\n      revert\n    tag_246:\n        /* \"contract/Accounts.sol\":4478:4483  mutex */\n      0x07\n      0x14\n      swap1\n      sload\n      swap1\n      0x0100\n      exp\n      swap1\n      div\n      0xff\n      and\n        /* \"contract/Accounts.sol\":4477:4483  !mutex */\n      iszero\n        /* \"contract/Accounts.sol\":4469:4525  require(!mutex, \"The function is already in execution.\") */\n      tag_248\n      jumpi\n      mload(0x40)\n      0x08c379a000000000000000000000000000000000000000000000000000000000\n      dup2\n      mstore\n      0x04\n      add\n      tag_249\n      swap1\n      tag_175\n      jump\t// in\n    tag_249:\n      mload(0x40)\n      dup1\n      swap2\n      sub\n      swap1\n      revert\n    tag_248:\n        /* \"contract/Accounts.sol\":4543:4547  true */\n      0x01\n        /* \"contract/Accounts.sol\":4535:4540  mutex */\n      0x07\n      0x14\n        /* \"contract/Accounts.sol\":4535:4547  mutex = true */\n      0x0100\n      exp\n      dup2\n      sload\n      dup2\n      0xff\n      mul\n      not\n      and\n      swap1\n      dup4\n      iszero\n      iszero\n      mul\n      or\n      swap1\n      sstore\n      pop\n        /* \"contract/Accounts.sol\":4563:4597  _amount.mul(_transferFee).div(100) */\n      tag_250\n        /* \"contract/Accounts.sol\":4593:4596  100 */\n      0x64\n        /* \"contract/Accounts.sol\":4563:4588  _amount.mul(_transferFee) */\n      tag_251\n        /* \"contract/Accounts.sol\":4575:4587  _transferFee */\n      dup4\n        /* \"contract/Accounts.sol\":4563:4570  _amount */\n      dup9\n        /* \"contract/Accounts.sol\":4563:4574  _amount.mul */\n      tag_199\n      swap1\n        /* \"contract/Accounts.sol\":4563:4588  _amount.mul(_transferFee) */\n      swap2\n      swap1\n      0xffffffff\n      and\n      jump\t// in\n    tag_251:\n        /* \"contract/Accounts.sol\":4563:4592  _amount.mul(_transferFee).div */\n      tag_200\n      swap1\n        /* \"contract/Accounts.sol\":4563:4597  _amount.mul(_transferFee).div(100) */\n      swap2\n      swap1\n      0xffffffff\n      and\n      jump\t// in\n    tag_250:\n        /* \"contract/Accounts.sol\":4557:4560  fee */\n      0x05\n        /* \"contract/Accounts.sol\":4557:4597  fee = _amount.mul(_transferFee).div(100) */\n      dup2\n      swap1\n      sstore\n      pop\n        /* \"contract/Accounts.sol\":4607:4612  ERC20 */\n      0x07\n      0x00\n      swap1\n      sload\n      swap1\n      0x0100\n      exp\n      swap1\n      div\n      0xffffffffffffffffffffffffffffffffffffffff\n      and\n        /* \"contract/Accounts.sol\":4607:4621  ERC20.transfer */\n      0xffffffffffffffffffffffffffffffffffffffff\n      and\n      0xa9059cbb\n        /* \"contract/Accounts.sol\":4622:4627  owner */\n      0x01\n      0x00\n      swap1\n      sload\n      swap1\n      0x0100\n      exp\n      swap1\n      div\n      0xffffffffffffffffffffffffffffffffffffffff\n      and\n        /* \"contract/Accounts.sol\":4629:4645  _amount.sub(fee) */\n      tag_252\n        /* \"contract/Accounts.sol\":4641:4644  fee */\n      sload(0x05)\n        /* \"contract/Accounts.sol\":4629:4636  _amount */\n      dup10\n        /* \"contract/Accounts.sol\":4629:4640  _amount.sub */\n      tag_202\n      swap1\n        /* \"contract/Accounts.sol\":4629:4645  _amount.sub(fee) */\n      swap2\n      swap1\n      0xffffffff\n      and\n      jump\t// in\n    tag_252:\n        /* \"contract/Accounts.sol\":4607:4646  ERC20.transfer(owner, _amount.sub(fee)) */\n      mload(0x40)\n      dup4\n      0xffffffff\n      and\n      0xe0\n      shl\n      dup2\n      mstore\n      0x04\n      add\n      tag_253\n      swap3\n      swap2\n      swap1\n      tag_254\n      jump\t// in\n    tag_253:\n      0x20\n      mload(0x40)\n      dup1\n      dup4\n      sub\n      dup2\n      0x00\n      dup8\n      gas\n      call\n      iszero\n      dup1\n      iszero\n      tag_256\n      jumpi\n      returndatasize\n      0x00\n      dup1\n      returndatacopy\n      revert(0x00, returndatasize)\n    tag_256:\n      pop\n      pop\n      pop\n      pop\n      mload(0x40)\n      returndatasize\n      not(0x1f)\n      0x1f\n      dup3\n      add\n      and\n      dup3\n      add\n      dup1\n      0x40\n      mstore\n      pop\n      dup2\n      add\n      swap1\n      tag_257\n      swap2\n      swap1\n      tag_258\n      jump\t// in\n    tag_257:\n      pop\n        /* \"contract/Accounts.sol\":4656:4667  _feeAddress */\n      dup2\n        /* \"contract/Accounts.sol\":4656:4676  _feeAddress.transfer */\n      0xffffffffffffffffffffffffffffffffffffffff\n      and\n        /* \"contract/Accounts.sol\":4656:4681  _feeAddress.transfer(fee) */\n      0x08fc\n        /* \"contract/Accounts.sol\":4677:4680  fee */\n      sload(0x05)\n        /* \"contract/Accounts.sol\":4656:4681  _feeAddress.transfer(fee) */\n      swap1\n      dup2\n      iszero\n      mul\n      swap1\n      mload(0x40)\n      0x00\n      mload(0x40)\n      dup1\n      dup4\n      sub\n      dup2\n      dup6\n      dup9\n      dup9\n      call\n      swap4\n      pop\n      pop\n      pop\n      pop\n      iszero\n      dup1\n      iszero\n      tag_260\n      jumpi\n      returndatasize\n      0x00\n      dup1\n      returndatacopy\n      revert(0x00, returndatasize)\n    tag_260:\n      pop\n        /* \"contract/Accounts.sol\":4699:4704  false */\n      0x00\n        /* \"contract/Accounts.sol\":4691:4696  mutex */\n      0x07\n      0x14\n        /* \"contract/Accounts.sol\":4691:4704  mutex = false */\n      0x0100\n      exp\n      dup2\n      sload\n      dup2\n      0xff\n      mul\n      not\n      and\n      swap1\n      dup4\n      iszero\n      iszero\n      mul\n      or\n      swap1\n      sstore\n      pop\n        /* \"contract/Accounts.sol\":3965:4711  function withdrawERC20(uint _amount, address _ERC20Address, address _sender, address payable _feeAddress, uint _transferFee) public payable {... */\n      pop\n      pop\n      pop\n      pop\n      pop\n      jump\t// out\n        /* \"contract/Accounts.sol\":5332:6028  function transferERC20Funds(address payable _recipient, uint _amount, address _ERC20Address, address _sender, address payable _feeAddress, uint _transferFee) public payable {... */\n    tag_131:\n        /* \"contract/Accounts.sol\":5534:5539  owner */\n      0x01\n      0x00\n      swap1\n      sload\n      swap1\n      0x0100\n      exp\n      swap1\n      div\n      0xffffffffffffffffffffffffffffffffffffffff\n      and\n        /* \"contract/Accounts.sol\":5523:5539  _sender == owner */\n      0xffffffffffffffffffffffffffffffffffffffff\n      and\n        /* \"contract/Accounts.sol\":5523:5530  _sender */\n      dup4\n        /* \"contract/Accounts.sol\":5523:5539  _sender == owner */\n      0xffffffffffffffffffffffffffffffffffffffff\n      and\n      eq\n        /* \"contract/Accounts.sol\":5515:5578  require(_sender == owner, \"Only the owner can transfer funds.\") */\n      tag_262\n      jumpi\n      mload(0x40)\n      0x08c379a000000000000000000000000000000000000000000000000000000000\n      dup2\n      mstore\n      0x04\n      add\n      tag_263\n      swap1\n      tag_217\n      jump\t// in\n    tag_263:\n      mload(0x40)\n      dup1\n      swap2\n      sub\n      swap1\n      revert\n    tag_262:\n        /* \"contract/Accounts.sol\":5597:5603  frozen */\n      0x09\n      0x00\n      swap1\n      sload\n      swap1\n      0x0100\n      exp\n      swap1\n      div\n      0xff\n      and\n        /* \"contract/Accounts.sol\":5596:5603  !frozen */\n      iszero\n        /* \"contract/Accounts.sol\":5588:5649  require(!frozen, \"Account is frozen, cannot withdraw funds.\") */\n      tag_264\n      jumpi\n      mload(0x40)\n      0x08c379a000000000000000000000000000000000000000000000000000000000\n      dup2\n      mstore\n      0x04\n      add\n      tag_265\n      swap1\n      tag_188\n      jump\t// in\n    tag_265:\n      mload(0x40)\n      dup1\n      swap2\n      sub\n      swap1\n      revert\n    tag_264:\n        /* \"contract/Accounts.sol\":5674:5687  _ERC20Address */\n      dup4\n        /* \"contract/Accounts.sol\":5659:5664  ERC20 */\n      0x07\n      0x00\n        /* \"contract/Accounts.sol\":5659:5688  ERC20 = IERC20(_ERC20Address) */\n      0x0100\n      exp\n      dup2\n      sload\n      dup2\n      0xffffffffffffffffffffffffffffffffffffffff\n      mul\n      not\n      and\n      swap1\n      dup4\n      0xffffffffffffffffffffffffffffffffffffffff\n      and\n      mul\n      or\n      swap1\n      sstore\n      pop\n        /* \"contract/Accounts.sol\":5717:5722  ERC20 */\n      0x07\n      0x00\n      swap1\n      sload\n      swap1\n      0x0100\n      exp\n      swap1\n      div\n      0xffffffffffffffffffffffffffffffffffffffff\n      and\n        /* \"contract/Accounts.sol\":5717:5732  ERC20.balanceOf */\n      0xffffffffffffffffffffffffffffffffffffffff\n      and\n      0x70a08231\n        /* \"contract/Accounts.sol\":5741:5745  this */\n      address\n        /* \"contract/Accounts.sol\":5717:5747  ERC20.balanceOf(address(this)) */\n      mload(0x40)\n      dup3\n      0xffffffff\n      and\n      0xe0\n      shl\n      dup2\n      mstore\n      0x04\n      add\n      tag_266\n      swap2\n      swap1\n      tag_56\n      jump\t// in\n    tag_266:\n      0x20\n      mload(0x40)\n      dup1\n      dup4\n      sub\n      dup2\n      dup7\n      gas\n      staticcall\n      iszero\n      dup1\n      iszero\n      tag_268\n      jumpi\n      returndatasize\n      0x00\n      dup1\n      returndatacopy\n      revert(0x00, returndatasize)\n    tag_268:\n      pop\n      pop\n      pop\n      pop\n      mload(0x40)\n      returndatasize\n      not(0x1f)\n      0x1f\n      dup3\n      add\n      and\n      dup3\n      add\n      dup1\n      0x40\n      mstore\n      pop\n      dup2\n      add\n      swap1\n      tag_269\n      swap2\n      swap1\n      tag_147\n      jump\t// in\n    tag_269:\n        /* \"contract/Accounts.sol\":5706:5713  _amount */\n      dup6\n        /* \"contract/Accounts.sol\":5706:5747  _amount <= ERC20.balanceOf(address(this)) */\n      gt\n      iszero\n        /* \"contract/Accounts.sol\":5698:5771  require(_amount <= ERC20.balanceOf(address(this)), \"Insufficient funds.\") */\n      tag_270\n      jumpi\n      mload(0x40)\n      0x08c379a000000000000000000000000000000000000000000000000000000000\n      dup2\n      mstore\n      0x04\n      add\n      tag_271\n      swap1\n      tag_194\n      jump\t// in\n    tag_271:\n      mload(0x40)\n      dup1\n      swap2\n      sub\n      swap1\n      revert\n    tag_270:\n        /* \"contract/Accounts.sol\":5790:5795  mutex */\n      0x07\n      0x14\n      swap1\n      sload\n      swap1\n      0x0100\n      exp\n      swap1\n      div\n      0xff\n      and\n        /* \"contract/Accounts.sol\":5789:5795  !mutex */\n      iszero\n        /* \"contract/Accounts.sol\":5781:5837  require(!mutex, \"The function is already in execution.\") */\n      tag_272\n      jumpi\n      mload(0x40)\n      0x08c379a000000000000000000000000000000000000000000000000000000000\n      dup2\n      mstore\n      0x04\n      add\n      tag_273\n      swap1\n      tag_175\n      jump\t// in\n    tag_273:\n      mload(0x40)\n      dup1\n      swap2\n      sub\n      swap1\n      revert\n    tag_272:\n        /* \"contract/Accounts.sol\":5855:5859  true */\n      0x01\n        /* \"contract/Accounts.sol\":5847:5852  mutex */\n      0x07\n      0x14\n        /* \"contract/Accounts.sol\":5847:5859  mutex = true */\n      0x0100\n      exp\n      dup2\n      sload\n      dup2\n      0xff\n      mul\n      not\n      and\n      swap1\n      dup4\n      iszero\n      iszero\n      mul\n      or\n      swap1\n      sstore\n      pop\n        /* \"contract/Accounts.sol\":5875:5909  _amount.mul(_transferFee).div(100) */\n      tag_274\n        /* \"contract/Accounts.sol\":5905:5908  100 */\n      0x64\n        /* \"contract/Accounts.sol\":5875:5900  _amount.mul(_transferFee) */\n      tag_275\n        /* \"contract/Accounts.sol\":5887:5899  _transferFee */\n      dup4\n        /* \"contract/Accounts.sol\":5875:5882  _amount */\n      dup9\n        /* \"contract/Accounts.sol\":5875:5886  _amount.mul */\n      tag_199\n      swap1\n        /* \"contract/Accounts.sol\":5875:5900  _amount.mul(_transferFee) */\n      swap2\n      swap1\n      0xffffffff\n      and\n      jump\t// in\n    tag_275:\n        /* \"contract/Accounts.sol\":5875:5904  _amount.mul(_transferFee).div */\n      tag_200\n      swap1\n        /* \"contract/Accounts.sol\":5875:5909  _amount.mul(_transferFee).div(100) */\n      swap2\n      swap1\n      0xffffffff\n      and\n      jump\t// in\n    tag_274:\n        /* \"contract/Accounts.sol\":5869:5872  fee */\n      0x05\n        /* \"contract/Accounts.sol\":5869:5909  fee = _amount.mul(_transferFee).div(100) */\n      dup2\n      swap1\n      sstore\n      pop\n        /* \"contract/Accounts.sol\":5919:5924  ERC20 */\n      0x07\n      0x00\n      swap1\n      sload\n      swap1\n      0x0100\n      exp\n      swap1\n      div\n      0xffffffffffffffffffffffffffffffffffffffff\n      and\n        /* \"contract/Accounts.sol\":5919:5933  ERC20.transfer */\n      0xffffffffffffffffffffffffffffffffffffffff\n      and\n      0xa9059cbb\n        /* \"contract/Accounts.sol\":5934:5944  _recipient */\n      dup8\n        /* \"contract/Accounts.sol\":5946:5962  _amount.sub(fee) */\n      tag_276\n        /* \"contract/Accounts.sol\":5958:5961  fee */\n      sload(0x05)\n        /* \"contract/Accounts.sol\":5946:5953  _amount */\n      dup10\n        /* \"contract/Accounts.sol\":5946:5957  _amount.sub */\n      tag_202\n      swap1\n        /* \"contract/Accounts.sol\":5946:5962  _amount.sub(fee) */\n      swap2\n      swap1\n      0xffffffff\n      and\n      jump\t// in\n    tag_276:\n        /* \"contract/Accounts.sol\":5919:5963  ERC20.transfer(_recipient, _amount.sub(fee)) */\n      mload(0x40)\n      dup4\n      0xffffffff\n      and\n      0xe0\n      shl\n      dup2\n      mstore\n      0x04\n      add\n      tag_277\n      swap3\n      swap2\n      swap1\n      tag_254\n      jump\t// in\n    tag_277:\n      0x20\n      mload(0x40)\n      dup1\n      dup4\n      sub\n      dup2\n      0x00\n      dup8\n      gas\n      call\n      iszero\n      dup1\n      iszero\n      tag_279\n      jumpi\n      returndatasize\n      0x00\n      dup1\n      returndatacopy\n      revert(0x00, returndatasize)\n    tag_279:\n      pop\n      pop\n      pop\n      pop\n      mload(0x40)\n      returndatasize\n      not(0x1f)\n      0x1f\n      dup3\n      add\n      and\n      dup3\n      add\n      dup1\n      0x40\n      mstore\n      pop\n      dup2\n      add\n      swap1\n      tag_280\n      swap2\n      swap1\n      tag_258\n      jump\t// in\n    tag_280:\n      pop\n        /* \"contract/Accounts.sol\":5973:5984  _feeAddress */\n      dup2\n        /* \"contract/Accounts.sol\":5973:5993  _feeAddress.transfer */\n      0xffffffffffffffffffffffffffffffffffffffff\n      and\n        /* \"contract/Accounts.sol\":5973:5998  _feeAddress.transfer(fee) */\n      0x08fc\n        /* \"contract/Accounts.sol\":5994:5997  fee */\n      sload(0x05)\n        /* \"contract/Accounts.sol\":5973:5998  _feeAddress.transfer(fee) */\n      swap1\n      dup2\n      iszero\n      mul\n      swap1\n      mload(0x40)\n      0x00\n      mload(0x40)\n      dup1\n      dup4\n      sub\n      dup2\n      dup6\n      dup9\n      dup9\n      call\n      swap4\n      pop\n      pop\n      pop\n      pop\n      iszero\n      dup1\n      iszero\n      tag_282\n      jumpi\n      returndatasize\n      0x00\n      dup1\n      returndatacopy\n      revert(0x00, returndatasize)\n    tag_282:\n      pop\n        /* \"contract/Accounts.sol\":6016:6021  false */\n      0x00\n        /* \"contract/Accounts.sol\":6008:6013  mutex */\n      0x07\n      0x14\n        /* \"contract/Accounts.sol\":6008:6021  mutex = false */\n      0x0100\n      exp\n      dup2\n      sload\n      dup2\n      0xff\n      mul\n      not\n      and\n      swap1\n      dup4\n      iszero\n      iszero\n      mul\n      or\n      swap1\n      sstore\n      pop\n        /* \"contract/Accounts.sol\":5332:6028  function transferERC20Funds(address payable _recipient, uint _amount, address _ERC20Address, address _sender, address payable _feeAddress, uint _transferFee) public payable {... */\n      pop\n      pop\n      pop\n      pop\n      pop\n      pop\n      jump\t// out\n        /* \"contract/Accounts.sol\":1990:2279  function initiateClaim(address _sender) public {... */\n    tag_135:\n        /* \"contract/Accounts.sol\":2063:2070  _sender */\n      dup1\n        /* \"contract/Accounts.sol\":2055:2070  heir == _sender */\n      0xffffffffffffffffffffffffffffffffffffffff\n      and\n        /* \"contract/Accounts.sol\":2055:2059  heir */\n      0x02\n      0x00\n      swap1\n      sload\n      swap1\n      0x0100\n      exp\n      swap1\n      div\n      0xffffffffffffffffffffffffffffffffffffffff\n      and\n        /* \"contract/Accounts.sol\":2055:2070  heir == _sender */\n      0xffffffffffffffffffffffffffffffffffffffff\n      and\n      eq\n        /* \"contract/Accounts.sol\":2047:2120  require(heir == _sender, \"Only the heir can initiate the claim process.\") */\n      tag_284\n      jumpi\n      mload(0x40)\n      0x08c379a000000000000000000000000000000000000000000000000000000000\n      dup2\n      mstore\n      0x04\n      add\n      tag_285\n      swap1\n      tag_286\n      jump\t// in\n    tag_285:\n      mload(0x40)\n      dup1\n      swap2\n      sub\n      swap1\n      revert\n    tag_284:\n        /* \"contract/Accounts.sol\":2139:2154  claimInProgress */\n      0x02\n      0x14\n      swap1\n      sload\n      swap1\n      0x0100\n      exp\n      swap1\n      div\n      0xff\n      and\n        /* \"contract/Accounts.sol\":2138:2154  !claimInProgress */\n      iszero\n        /* \"contract/Accounts.sol\":2130:2196  require(!claimInProgress, \"Claim process is already in progress.\") */\n      tag_287\n      jumpi\n      mload(0x40)\n      0x08c379a000000000000000000000000000000000000000000000000000000000\n      dup2\n      mstore\n      0x04\n      add\n      tag_288\n      swap1\n      tag_289\n      jump\t// in\n    tag_288:\n      mload(0x40)\n      dup1\n      swap2\n      sub\n      swap1\n      revert\n    tag_287:\n        /* \"contract/Accounts.sol\":2224:2228  true */\n      0x01\n        /* \"contract/Accounts.sol\":2206:2221  claimInProgress */\n      0x02\n      0x14\n        /* \"contract/Accounts.sol\":2206:2228  claimInProgress = true */\n      0x0100\n      exp\n      dup2\n      sload\n      dup2\n      0xff\n      mul\n      not\n      and\n      swap1\n      dup4\n      iszero\n      iszero\n      mul\n      or\n      swap1\n      sstore\n      pop\n        /* \"contract/Accounts.sol\":2257:2272  block.timestamp */\n      timestamp\n        /* \"contract/Accounts.sol\":2238:2254  claimInitiatedAt */\n      0x03\n        /* \"contract/Accounts.sol\":2238:2272  claimInitiatedAt = block.timestamp */\n      dup2\n      swap1\n      sstore\n      pop\n        /* \"contract/Accounts.sol\":1990:2279  function initiateClaim(address _sender) public {... */\n      pop\n      jump\t// out\n        /* \"contract/Accounts.sol\":661:688  bool public claimInProgress */\n    tag_138:\n      0x02\n      0x14\n      swap1\n      sload\n      swap1\n      0x0100\n      exp\n      swap1\n      div\n      0xff\n      and\n      dup2\n      jump\t// out\n        /* \"https://github.com/OpenZeppelin/openzeppelin-contracts/blob/49c0e4370d0cc50ea6090709e3835a3091e33ee2/contracts/utils/math/SafeMath.sol\":3465:3561  function mul(uint256 a, uint256 b) internal pure returns (uint256) {... */\n    tag_199:\n        /* \"https://github.com/OpenZeppelin/openzeppelin-contracts/blob/49c0e4370d0cc50ea6090709e3835a3091e33ee2/contracts/utils/math/SafeMath.sol\":3523:3530  uint256 */\n      0x00\n        /* \"https://github.com/OpenZeppelin/openzeppelin-contracts/blob/49c0e4370d0cc50ea6090709e3835a3091e33ee2/contracts/utils/math/SafeMath.sol\":3553:3554  b */\n      dup2\n        /* \"https://github.com/OpenZeppelin/openzeppelin-contracts/blob/49c0e4370d0cc50ea6090709e3835a3091e33ee2/contracts/utils/math/SafeMath.sol\":3549:3550  a */\n      dup4\n        /* \"https://github.com/OpenZeppelin/openzeppelin-contracts/blob/49c0e4370d0cc50ea6090709e3835a3091e33ee2/contracts/utils/math/SafeMath.sol\":3549:3554  a * b */\n      tag_291\n      swap2\n      swap1\n      tag_156\n      jump\t// in\n    tag_291:\n        /* \"https://github.com/OpenZeppelin/openzeppelin-contracts/blob/49c0e4370d0cc50ea6090709e3835a3091e33ee2/contracts/utils/math/SafeMath.sol\":3542:3554  return a * b */\n      swap1\n      pop\n        /* \"https://github.com/OpenZeppelin/openzeppelin-contracts/blob/49c0e4370d0cc50ea6090709e3835a3091e33ee2/contracts/utils/math/SafeMath.sol\":3465:3561  function mul(uint256 a, uint256 b) internal pure returns (uint256) {... */\n      swap3\n      swap2\n      pop\n      pop\n      jump\t// out\n        /* \"https://github.com/OpenZeppelin/openzeppelin-contracts/blob/49c0e4370d0cc50ea6090709e3835a3091e33ee2/contracts/utils/math/SafeMath.sol\":3850:3946  function div(uint256 a, uint256 b) internal pure returns (uint256) {... */\n    tag_200:\n        /* \"https://github.com/OpenZeppelin/openzeppelin-contracts/blob/49c0e4370d0cc50ea6090709e3835a3091e33ee2/contracts/utils/math/SafeMath.sol\":3908:3915  uint256 */\n      0x00\n        /* \"https://github.com/OpenZeppelin/openzeppelin-contracts/blob/49c0e4370d0cc50ea6090709e3835a3091e33ee2/contracts/utils/math/SafeMath.sol\":3938:3939  b */\n      dup2\n        /* \"https://github.com/OpenZeppelin/openzeppelin-contracts/blob/49c0e4370d0cc50ea6090709e3835a3091e33ee2/contracts/utils/math/SafeMath.sol\":3934:3935  a */\n      dup4\n        /* \"https://github.com/OpenZeppelin/openzeppelin-contracts/blob/49c0e4370d0cc50ea6090709e3835a3091e33ee2/contracts/utils/math/SafeMath.sol\":3934:3939  a / b */\n      tag_293\n      swap2\n      swap1\n      tag_294\n      jump\t// in\n    tag_293:\n        /* \"https://github.com/OpenZeppelin/openzeppelin-contracts/blob/49c0e4370d0cc50ea6090709e3835a3091e33ee2/contracts/utils/math/SafeMath.sol\":3927:3939  return a / b */\n      swap1\n      pop\n        /* \"https://github.com/OpenZeppelin/openzeppelin-contracts/blob/49c0e4370d0cc50ea6090709e3835a3091e33ee2/contracts/utils/math/SafeMath.sol\":3850:3946  function div(uint256 a, uint256 b) internal pure returns (uint256) {... */\n      swap3\n      swap2\n      pop\n      pop\n      jump\t// out\n        /* \"https://github.com/OpenZeppelin/openzeppelin-contracts/blob/49c0e4370d0cc50ea6090709e3835a3091e33ee2/contracts/utils/math/SafeMath.sol\":3122:3218  function sub(uint256 a, uint256 b) internal pure returns (uint256) {... */\n    tag_202:\n        /* \"https://github.com/OpenZeppelin/openzeppelin-contracts/blob/49c0e4370d0cc50ea6090709e3835a3091e33ee2/contracts/utils/math/SafeMath.sol\":3180:3187  uint256 */\n      0x00\n        /* \"https://github.com/OpenZeppelin/openzeppelin-contracts/blob/49c0e4370d0cc50ea6090709e3835a3091e33ee2/contracts/utils/math/SafeMath.sol\":3210:3211  b */\n      dup2\n        /* \"https://github.com/OpenZeppelin/openzeppelin-contracts/blob/49c0e4370d0cc50ea6090709e3835a3091e33ee2/contracts/utils/math/SafeMath.sol\":3206:3207  a */\n      dup4\n        /* \"https://github.com/OpenZeppelin/openzeppelin-contracts/blob/49c0e4370d0cc50ea6090709e3835a3091e33ee2/contracts/utils/math/SafeMath.sol\":3206:3211  a - b */\n      tag_296\n      swap2\n      swap1\n      tag_297\n      jump\t// in\n    tag_296:\n        /* \"https://github.com/OpenZeppelin/openzeppelin-contracts/blob/49c0e4370d0cc50ea6090709e3835a3091e33ee2/contracts/utils/math/SafeMath.sol\":3199:3211  return a - b */\n      swap1\n      pop\n        /* \"https://github.com/OpenZeppelin/openzeppelin-contracts/blob/49c0e4370d0cc50ea6090709e3835a3091e33ee2/contracts/utils/math/SafeMath.sol\":3122:3218  function sub(uint256 a, uint256 b) internal pure returns (uint256) {... */\n      swap3\n      swap2\n      pop\n      pop\n      jump\t// out\n        /* \"#utility.yul\":7:97   */\n    tag_298:\n        /* \"#utility.yul\":41:48   */\n      0x00\n        /* \"#utility.yul\":84:89   */\n      dup2\n        /* \"#utility.yul\":77:90   */\n      iszero\n        /* \"#utility.yul\":70:91   */\n      iszero\n        /* \"#utility.yul\":59:91   */\n      swap1\n      pop\n        /* \"#utility.yul\":7:97   */\n      swap2\n      swap1\n      pop\n      jump\t// out\n        /* \"#utility.yul\":103:212   */\n    tag_299:\n        /* \"#utility.yul\":184:205   */\n      tag_365\n        /* \"#utility.yul\":199:204   */\n      dup2\n        /* \"#utility.yul\":184:205   */\n      tag_298\n      jump\t// in\n    tag_365:\n        /* \"#utility.yul\":179:182   */\n      dup3\n        /* \"#utility.yul\":172:206   */\n      mstore\n        /* \"#utility.yul\":103:212   */\n      pop\n      pop\n      jump\t// out\n        /* \"#utility.yul\":218:428   */\n    tag_35:\n        /* \"#utility.yul\":305:309   */\n      0x00\n        /* \"#utility.yul\":343:345   */\n      0x20\n        /* \"#utility.yul\":332:341   */\n      dup3\n        /* \"#utility.yul\":328:346   */\n      add\n        /* \"#utility.yul\":320:346   */\n      swap1\n      pop\n        /* \"#utility.yul\":356:421   */\n      tag_367\n        /* \"#utility.yul\":418:419   */\n      0x00\n        /* \"#utility.yul\":407:416   */\n      dup4\n        /* \"#utility.yul\":403:420   */\n      add\n        /* \"#utility.yul\":394:400   */\n      dup5\n        /* \"#utility.yul\":356:421   */\n      tag_299\n      jump\t// in\n    tag_367:\n        /* \"#utility.yul\":218:428   */\n      swap3\n      swap2\n      pop\n      pop\n      jump\t// out\n        /* \"#utility.yul\":515:632   */\n    tag_301:\n        /* \"#utility.yul\":624:625   */\n      0x00\n        /* \"#utility.yul\":621:622   */\n      dup1\n        /* \"#utility.yul\":614:626   */\n      revert\n        /* \"#utility.yul\":761:877   */\n    tag_303:\n        /* \"#utility.yul\":831:852   */\n      tag_372\n        /* \"#utility.yul\":846:851   */\n      dup2\n        /* \"#utility.yul\":831:852   */\n      tag_298\n      jump\t// in\n    tag_372:\n        /* \"#utility.yul\":824:829   */\n      dup2\n        /* \"#utility.yul\":821:853   */\n      eq\n        /* \"#utility.yul\":811:871   */\n      tag_373\n      jumpi\n        /* \"#utility.yul\":867:868   */\n      0x00\n        /* \"#utility.yul\":864:865   */\n      dup1\n        /* \"#utility.yul\":857:869   */\n      revert\n        /* \"#utility.yul\":811:871   */\n    tag_373:\n        /* \"#utility.yul\":761:877   */\n      pop\n      jump\t// out\n        /* \"#utility.yul\":883:1016   */\n    tag_304:\n        /* \"#utility.yul\":926:931   */\n      0x00\n        /* \"#utility.yul\":964:970   */\n      dup2\n        /* \"#utility.yul\":951:971   */\n      calldataload\n        /* \"#utility.yul\":942:971   */\n      swap1\n      pop\n        /* \"#utility.yul\":980:1010   */\n      tag_375\n        /* \"#utility.yul\":1004:1009   */\n      dup2\n        /* \"#utility.yul\":980:1010   */\n      tag_303\n      jump\t// in\n    tag_375:\n        /* \"#utility.yul\":883:1016   */\n      swap3\n      swap2\n      pop\n      pop\n      jump\t// out\n        /* \"#utility.yul\":1022:1148   */\n    tag_305:\n        /* \"#utility.yul\":1059:1066   */\n      0x00\n        /* \"#utility.yul\":1099:1141   */\n      0xffffffffffffffffffffffffffffffffffffffff\n        /* \"#utility.yul\":1092:1097   */\n      dup3\n        /* \"#utility.yul\":1088:1142   */\n      and\n        /* \"#utility.yul\":1077:1142   */\n      swap1\n      pop\n        /* \"#utility.yul\":1022:1148   */\n      swap2\n      swap1\n      pop\n      jump\t// out\n        /* \"#utility.yul\":1154:1250   */\n    tag_306:\n        /* \"#utility.yul\":1191:1198   */\n      0x00\n        /* \"#utility.yul\":1220:1244   */\n      tag_378\n        /* \"#utility.yul\":1238:1243   */\n      dup3\n        /* \"#utility.yul\":1220:1244   */\n      tag_305\n      jump\t// in\n    tag_378:\n        /* \"#utility.yul\":1209:1244   */\n      swap1\n      pop\n        /* \"#utility.yul\":1154:1250   */\n      swap2\n      swap1\n      pop\n      jump\t// out\n        /* \"#utility.yul\":1256:1378   */\n    tag_307:\n        /* \"#utility.yul\":1329:1353   */\n      tag_380\n        /* \"#utility.yul\":1347:1352   */\n      dup2\n        /* \"#utility.yul\":1329:1353   */\n      tag_306\n      jump\t// in\n    tag_380:\n        /* \"#utility.yul\":1322:1327   */\n      dup2\n        /* \"#utility.yul\":1319:1354   */\n      eq\n        /* \"#utility.yul\":1309:1372   */\n      tag_381\n      jumpi\n        /* \"#utility.yul\":1368:1369   */\n      0x00\n        /* \"#utility.yul\":1365:1366   */\n      dup1\n        /* \"#utility.yul\":1358:1370   */\n      revert\n        /* \"#utility.yul\":1309:1372   */\n    tag_381:\n        /* \"#utility.yul\":1256:1378   */\n      pop\n      jump\t// out\n        /* \"#utility.yul\":1384:1523   */\n    tag_308:\n        /* \"#utility.yul\":1430:1435   */\n      0x00\n        /* \"#utility.yul\":1468:1474   */\n      dup2\n        /* \"#utility.yul\":1455:1475   */\n      calldataload\n        /* \"#utility.yul\":1446:1475   */\n      swap1\n      pop\n        /* \"#utility.yul\":1484:1517   */\n      tag_383\n        /* \"#utility.yul\":1511:1516   */\n      dup2\n        /* \"#utility.yul\":1484:1517   */\n      tag_307\n      jump\t// in\n    tag_383:\n        /* \"#utility.yul\":1384:1523   */\n      swap3\n      swap2\n      pop\n      pop\n      jump\t// out\n        /* \"#utility.yul\":1529:1997   */\n    tag_39:\n        /* \"#utility.yul\":1594:1600   */\n      0x00\n        /* \"#utility.yul\":1602:1608   */\n      dup1\n        /* \"#utility.yul\":1651:1653   */\n      0x40\n        /* \"#utility.yul\":1639:1648   */\n      dup4\n        /* \"#utility.yul\":1630:1637   */\n      dup6\n        /* \"#utility.yul\":1626:1649   */\n      sub\n        /* \"#utility.yul\":1622:1654   */\n      slt\n        /* \"#utility.yul\":1619:1738   */\n      iszero\n      tag_385\n      jumpi\n        /* \"#utility.yul\":1657:1736   */\n      tag_386\n      tag_301\n      jump\t// in\n    tag_386:\n        /* \"#utility.yul\":1619:1738   */\n    tag_385:\n        /* \"#utility.yul\":1777:1778   */\n      0x00\n        /* \"#utility.yul\":1802:1852   */\n      tag_387\n        /* \"#utility.yul\":1844:1851   */\n      dup6\n        /* \"#utility.yul\":1835:1841   */\n      dup3\n        /* \"#utility.yul\":1824:1833   */\n      dup7\n        /* \"#utility.yul\":1820:1842   */\n      add\n        /* \"#utility.yul\":1802:1852   */\n      tag_304\n      jump\t// in\n    tag_387:\n        /* \"#utility.yul\":1792:1852   */\n      swap3\n      pop\n        /* \"#utility.yul\":1748:1862   */\n      pop\n        /* \"#utility.yul\":1901:1903   */\n      0x20\n        /* \"#utility.yul\":1927:1980   */\n      tag_388\n        /* \"#utility.yul\":1972:1979   */\n      dup6\n        /* \"#utility.yul\":1963:1969   */\n      dup3\n        /* \"#utility.yul\":1952:1961   */\n      dup7\n        /* \"#utility.yul\":1948:1970   */\n      add\n        /* \"#utility.yul\":1927:1980   */\n      tag_308\n      jump\t// in\n    tag_388:\n        /* \"#utility.yul\":1917:1980   */\n      swap2\n      pop\n        /* \"#utility.yul\":1872:1990   */\n      pop\n        /* \"#utility.yul\":1529:1997   */\n      swap3\n      pop\n      swap3\n      swap1\n      pop\n      jump\t// out\n        /* \"#utility.yul\":2003:2080   */\n    tag_309:\n        /* \"#utility.yul\":2040:2047   */\n      0x00\n        /* \"#utility.yul\":2069:2074   */\n      dup2\n        /* \"#utility.yul\":2058:2074   */\n      swap1\n      pop\n        /* \"#utility.yul\":2003:2080   */\n      swap2\n      swap1\n      pop\n      jump\t// out\n        /* \"#utility.yul\":2086:2204   */\n    tag_310:\n        /* \"#utility.yul\":2173:2197   */\n      tag_391\n        /* \"#utility.yul\":2191:2196   */\n      dup2\n        /* \"#utility.yul\":2173:2197   */\n      tag_309\n      jump\t// in\n    tag_391:\n        /* \"#utility.yul\":2168:2171   */\n      dup3\n        /* \"#utility.yul\":2161:2198   */\n      mstore\n        /* \"#utility.yul\":2086:2204   */\n      pop\n      pop\n      jump\t// out\n        /* \"#utility.yul\":2210:2432   */\n    tag_42:\n        /* \"#utility.yul\":2303:2307   */\n      0x00\n        /* \"#utility.yul\":2341:2343   */\n      0x20\n        /* \"#utility.yul\":2330:2339   */\n      dup3\n        /* \"#utility.yul\":2326:2344   */\n      add\n        /* \"#utility.yul\":2318:2344   */\n      swap1\n      pop\n        /* \"#utility.yul\":2354:2425   */\n      tag_393\n        /* \"#utility.yul\":2422:2423   */\n      0x00\n        /* \"#utility.yul\":2411:2420   */\n      dup4\n        /* \"#utility.yul\":2407:2424   */\n      add\n        /* \"#utility.yul\":2398:2404   */\n      dup5\n        /* \"#utility.yul\":2354:2425   */\n      tag_310\n      jump\t// in\n    tag_393:\n        /* \"#utility.yul\":2210:2432   */\n      swap3\n      swap2\n      pop\n      pop\n      jump\t// out\n        /* \"#utility.yul\":2438:2767   */\n    tag_50:\n        /* \"#utility.yul\":2497:2503   */\n      0x00\n        /* \"#utility.yul\":2546:2548   */\n      0x20\n        /* \"#utility.yul\":2534:2543   */\n      dup3\n        /* \"#utility.yul\":2525:2532   */\n      dup5\n        /* \"#utility.yul\":2521:2544   */\n      sub\n        /* \"#utility.yul\":2517:2549   */\n      slt\n        /* \"#utility.yul\":2514:2633   */\n      iszero\n      tag_395\n      jumpi\n        /* \"#utility.yul\":2552:2631   */\n      tag_396\n      tag_301\n      jump\t// in\n    tag_396:\n        /* \"#utility.yul\":2514:2633   */\n    tag_395:\n        /* \"#utility.yul\":2672:2673   */\n      0x00\n        /* \"#utility.yul\":2697:2750   */\n      tag_397\n        /* \"#utility.yul\":2742:2749   */\n      dup5\n        /* \"#utility.yul\":2733:2739   */\n      dup3\n        /* \"#utility.yul\":2722:2731   */\n      dup6\n        /* \"#utility.yul\":2718:2740   */\n      add\n        /* \"#utility.yul\":2697:2750   */\n      tag_308\n      jump\t// in\n    tag_397:\n        /* \"#utility.yul\":2687:2750   */\n      swap2\n      pop\n        /* \"#utility.yul\":2643:2760   */\n      pop\n        /* \"#utility.yul\":2438:2767   */\n      swap3\n      swap2\n      pop\n      pop\n      jump\t// out\n        /* \"#utility.yul\":2773:2891   */\n    tag_311:\n        /* \"#utility.yul\":2860:2884   */\n      tag_399\n        /* \"#utility.yul\":2878:2883   */\n      dup2\n        /* \"#utility.yul\":2860:2884   */\n      tag_306\n      jump\t// in\n    tag_399:\n        /* \"#utility.yul\":2855:2858   */\n      dup3\n        /* \"#utility.yul\":2848:2885   */\n      mstore\n        /* \"#utility.yul\":2773:2891   */\n      pop\n      pop\n      jump\t// out\n        /* \"#utility.yul\":2897:3119   */\n    tag_56:\n        /* \"#utility.yul\":2990:2994   */\n      0x00\n        /* \"#utility.yul\":3028:3030   */\n      0x20\n        /* \"#utility.yul\":3017:3026   */\n      dup3\n        /* \"#utility.yul\":3013:3031   */\n      add\n        /* \"#utility.yul\":3005:3031   */\n      swap1\n      pop\n        /* \"#utility.yul\":3041:3112   */\n      tag_401\n        /* \"#utility.yul\":3109:3110   */\n      0x00\n        /* \"#utility.yul\":3098:3107   */\n      dup4\n        /* \"#utility.yul\":3094:3111   */\n      add\n        /* \"#utility.yul\":3085:3091   */\n      dup5\n        /* \"#utility.yul\":3041:3112   */\n      tag_311\n      jump\t// in\n    tag_401:\n        /* \"#utility.yul\":2897:3119   */\n      swap3\n      swap2\n      pop\n      pop\n      jump\t// out\n        /* \"#utility.yul\":3125:3229   */\n    tag_312:\n        /* \"#utility.yul\":3170:3177   */\n      0x00\n        /* \"#utility.yul\":3199:3223   */\n      tag_403\n        /* \"#utility.yul\":3217:3222   */\n      dup3\n        /* \"#utility.yul\":3199:3223   */\n      tag_305\n      jump\t// in\n    tag_403:\n        /* \"#utility.yul\":3188:3223   */\n      swap1\n      pop\n        /* \"#utility.yul\":3125:3229   */\n      swap2\n      swap1\n      pop\n      jump\t// out\n        /* \"#utility.yul\":3235:3373   */\n    tag_313:\n        /* \"#utility.yul\":3316:3348   */\n      tag_405\n        /* \"#utility.yul\":3342:3347   */\n      dup2\n        /* \"#utility.yul\":3316:3348   */\n      tag_312\n      jump\t// in\n    tag_405:\n        /* \"#utility.yul\":3309:3314   */\n      dup2\n        /* \"#utility.yul\":3306:3349   */\n      eq\n        /* \"#utility.yul\":3296:3367   */\n      tag_406\n      jumpi\n        /* \"#utility.yul\":3363:3364   */\n      0x00\n        /* \"#utility.yul\":3360:3361   */\n      dup1\n        /* \"#utility.yul\":3353:3365   */\n      revert\n        /* \"#utility.yul\":3296:3367   */\n    tag_406:\n        /* \"#utility.yul\":3235:3373   */\n      pop\n      jump\t// out\n        /* \"#utility.yul\":3379:3534   */\n    tag_314:\n        /* \"#utility.yul\":3433:3438   */\n      0x00\n        /* \"#utility.yul\":3471:3477   */\n      dup2\n        /* \"#utility.yul\":3458:3478   */\n      calldataload\n        /* \"#utility.yul\":3449:3478   */\n      swap1\n      pop\n        /* \"#utility.yul\":3487:3528   */\n      tag_408\n        /* \"#utility.yul\":3522:3527   */\n      dup2\n        /* \"#utility.yul\":3487:3528   */\n      tag_313\n      jump\t// in\n    tag_408:\n        /* \"#utility.yul\":3379:3534   */\n      swap3\n      swap2\n      pop\n      pop\n      jump\t// out\n        /* \"#utility.yul\":3540:3662   */\n    tag_315:\n        /* \"#utility.yul\":3613:3637   */\n      tag_410\n        /* \"#utility.yul\":3631:3636   */\n      dup2\n        /* \"#utility.yul\":3613:3637   */\n      tag_309\n      jump\t// in\n    tag_410:\n        /* \"#utility.yul\":3606:3611   */\n      dup2\n        /* \"#utility.yul\":3603:3638   */\n      eq\n        /* \"#utility.yul\":3593:3656   */\n      tag_411\n      jumpi\n        /* \"#utility.yul\":3652:3653   */\n      0x00\n        /* \"#utility.yul\":3649:3650   */\n      dup1\n        /* \"#utility.yul\":3642:3654   */\n      revert\n        /* \"#utility.yul\":3593:3656   */\n    tag_411:\n        /* \"#utility.yul\":3540:3662   */\n      pop\n      jump\t// out\n        /* \"#utility.yul\":3668:3807   */\n    tag_316:\n        /* \"#utility.yul\":3714:3719   */\n      0x00\n        /* \"#utility.yul\":3752:3758   */\n      dup2\n        /* \"#utility.yul\":3739:3759   */\n      calldataload\n        /* \"#utility.yul\":3730:3759   */\n      swap1\n      pop\n        /* \"#utility.yul\":3768:3801   */\n      tag_413\n        /* \"#utility.yul\":3795:3800   */\n      dup2\n        /* \"#utility.yul\":3768:3801   */\n      tag_315\n      jump\t// in\n    tag_413:\n        /* \"#utility.yul\":3668:3807   */\n      swap3\n      swap2\n      pop\n      pop\n      jump\t// out\n        /* \"#utility.yul\":3813:4448   */\n    tag_68:\n        /* \"#utility.yul\":3898:3904   */\n      0x00\n        /* \"#utility.yul\":3906:3912   */\n      dup1\n        /* \"#utility.yul\":3914:3920   */\n      0x00\n        /* \"#utility.yul\":3963:3965   */\n      0x60\n        /* \"#utility.yul\":3951:3960   */\n      dup5\n        /* \"#utility.yul\":3942:3949   */\n      dup7\n        /* \"#utility.yul\":3938:3961   */\n      sub\n        /* \"#utility.yul\":3934:3966   */\n      slt\n        /* \"#utility.yul\":3931:4050   */\n      iszero\n      tag_415\n      jumpi\n        /* \"#utility.yul\":3969:4048   */\n      tag_416\n      tag_301\n      jump\t// in\n    tag_416:\n        /* \"#utility.yul\":3931:4050   */\n    tag_415:\n        /* \"#utility.yul\":4089:4090   */\n      0x00\n        /* \"#utility.yul\":4114:4175   */\n      tag_417\n        /* \"#utility.yul\":4167:4174   */\n      dup7\n        /* \"#utility.yul\":4158:4164   */\n      dup3\n        /* \"#utility.yul\":4147:4156   */\n      dup8\n        /* \"#utility.yul\":4143:4165   */\n      add\n        /* \"#utility.yul\":4114:4175   */\n      tag_314\n      jump\t// in\n    tag_417:\n        /* \"#utility.yul\":4104:4175   */\n      swap4\n      pop\n        /* \"#utility.yul\":4060:4185   */\n      pop\n        /* \"#utility.yul\":4224:4226   */\n      0x20\n        /* \"#utility.yul\":4250:4303   */\n      tag_418\n        /* \"#utility.yul\":4295:4302   */\n      dup7\n        /* \"#utility.yul\":4286:4292   */\n      dup3\n        /* \"#utility.yul\":4275:4284   */\n      dup8\n        /* \"#utility.yul\":4271:4293   */\n      add\n        /* \"#utility.yul\":4250:4303   */\n      tag_316\n      jump\t// in\n    tag_418:\n        /* \"#utility.yul\":4240:4303   */\n      swap3\n      pop\n        /* \"#utility.yul\":4195:4313   */\n      pop\n        /* \"#utility.yul\":4352:4354   */\n      0x40\n        /* \"#utility.yul\":4378:4431   */\n      tag_419\n        /* \"#utility.yul\":4423:4430   */\n      dup7\n        /* \"#utility.yul\":4414:4420   */\n      dup3\n        /* \"#utility.yul\":4403:4412   */\n      dup8\n        /* \"#utility.yul\":4399:4421   */\n      add\n        /* \"#utility.yul\":4378:4431   */\n      tag_308\n      jump\t// in\n    tag_419:\n        /* \"#utility.yul\":4368:4431   */\n      swap2\n      pop\n        /* \"#utility.yul\":4323:4441   */\n      pop\n        /* \"#utility.yul\":3813:4448   */\n      swap3\n      pop\n      swap3\n      pop\n      swap3\n      jump\t// out\n        /* \"#utility.yul\":4454:4596   */\n    tag_317:\n        /* \"#utility.yul\":4557:4589   */\n      tag_421\n        /* \"#utility.yul\":4583:4588   */\n      dup2\n        /* \"#utility.yul\":4557:4589   */\n      tag_312\n      jump\t// in\n    tag_421:\n        /* \"#utility.yul\":4552:4555   */\n      dup3\n        /* \"#utility.yul\":4545:4590   */\n      mstore\n        /* \"#utility.yul\":4454:4596   */\n      pop\n      pop\n      jump\t// out\n        /* \"#utility.yul\":4602:4856   */\n    tag_74:\n        /* \"#utility.yul\":4711:4715   */\n      0x00\n        /* \"#utility.yul\":4749:4751   */\n      0x20\n        /* \"#utility.yul\":4738:4747   */\n      dup3\n        /* \"#utility.yul\":4734:4752   */\n      add\n        /* \"#utility.yul\":4726:4752   */\n      swap1\n      pop\n        /* \"#utility.yul\":4762:4849   */\n      tag_423\n        /* \"#utility.yul\":4846:4847   */\n      0x00\n        /* \"#utility.yul\":4835:4844   */\n      dup4\n        /* \"#utility.yul\":4831:4848   */\n      add\n        /* \"#utility.yul\":4822:4828   */\n      dup5\n        /* \"#utility.yul\":4762:4849   */\n      tag_317\n      jump\t// in\n    tag_423:\n        /* \"#utility.yul\":4602:4856   */\n      swap3\n      swap2\n      pop\n      pop\n      jump\t// out\n        /* \"#utility.yul\":4862:5643   */\n    tag_97:\n        /* \"#utility.yul\":4956:4962   */\n      0x00\n        /* \"#utility.yul\":4964:4970   */\n      dup1\n        /* \"#utility.yul\":4972:4978   */\n      0x00\n        /* \"#utility.yul\":4980:4986   */\n      dup1\n        /* \"#utility.yul\":5029:5032   */\n      0x80\n        /* \"#utility.yul\":5017:5026   */\n      dup6\n        /* \"#utility.yul\":5008:5015   */\n      dup8\n        /* \"#utility.yul\":5004:5027   */\n      sub\n        /* \"#utility.yul\":5000:5033   */\n      slt\n        /* \"#utility.yul\":4997:5117   */\n      iszero\n      tag_425\n      jumpi\n        /* \"#utility.yul\":5036:5115   */\n      tag_426\n      tag_301\n      jump\t// in\n    tag_426:\n        /* \"#utility.yul\":4997:5117   */\n    tag_425:\n        /* \"#utility.yul\":5156:5157   */\n      0x00\n        /* \"#utility.yul\":5181:5234   */\n      tag_427\n        /* \"#utility.yul\":5226:5233   */\n      dup8\n        /* \"#utility.yul\":5217:5223   */\n      dup3\n        /* \"#utility.yul\":5206:5215   */\n      dup9\n        /* \"#utility.yul\":5202:5224   */\n      add\n        /* \"#utility.yul\":5181:5234   */\n      tag_316\n      jump\t// in\n    tag_427:\n        /* \"#utility.yul\":5171:5234   */\n      swap5\n      pop\n        /* \"#utility.yul\":5127:5244   */\n      pop\n        /* \"#utility.yul\":5283:5285   */\n      0x20\n        /* \"#utility.yul\":5309:5362   */\n      tag_428\n        /* \"#utility.yul\":5354:5361   */\n      dup8\n        /* \"#utility.yul\":5345:5351   */\n      dup3\n        /* \"#utility.yul\":5334:5343   */\n      dup9\n        /* \"#utility.yul\":5330:5352   */\n      add\n        /* \"#utility.yul\":5309:5362   */\n      tag_308\n      jump\t// in\n    tag_428:\n        /* \"#utility.yul\":5299:5362   */\n      swap4\n      pop\n        /* \"#utility.yul\":5254:5372   */\n      pop\n        /* \"#utility.yul\":5411:5413   */\n      0x40\n        /* \"#utility.yul\":5437:5498   */\n      tag_429\n        /* \"#utility.yul\":5490:5497   */\n      dup8\n        /* \"#utility.yul\":5481:5487   */\n      dup3\n        /* \"#utility.yul\":5470:5479   */\n      dup9\n        /* \"#utility.yul\":5466:5488   */\n      add\n        /* \"#utility.yul\":5437:5498   */\n      tag_314\n      jump\t// in\n    tag_429:\n        /* \"#utility.yul\":5427:5498   */\n      swap3\n      pop\n        /* \"#utility.yul\":5382:5508   */\n      pop\n        /* \"#utility.yul\":5547:5549   */\n      0x60\n        /* \"#utility.yul\":5573:5626   */\n      tag_430\n        /* \"#utility.yul\":5618:5625   */\n      dup8\n        /* \"#utility.yul\":5609:5615   */\n      dup3\n        /* \"#utility.yul\":5598:5607   */\n      dup9\n        /* \"#utility.yul\":5594:5616   */\n      add\n        /* \"#utility.yul\":5573:5626   */\n      tag_316\n      jump\t// in\n    tag_430:\n        /* \"#utility.yul\":5563:5626   */\n      swap2\n      pop\n        /* \"#utility.yul\":5518:5636   */\n      pop\n        /* \"#utility.yul\":4862:5643   */\n      swap3\n      swap6\n      swap2\n      swap5\n      pop\n      swap3\n      pop\n      jump\t// out\n        /* \"#utility.yul\":5649:5709   */\n    tag_318:\n        /* \"#utility.yul\":5677:5680   */\n      0x00\n        /* \"#utility.yul\":5698:5703   */\n      dup2\n        /* \"#utility.yul\":5691:5703   */\n      swap1\n      pop\n        /* \"#utility.yul\":5649:5709   */\n      swap2\n      swap1\n      pop\n      jump\t// out\n        /* \"#utility.yul\":5715:5857   */\n    tag_319:\n        /* \"#utility.yul\":5765:5774   */\n      0x00\n        /* \"#utility.yul\":5798:5851   */\n      tag_433\n        /* \"#utility.yul\":5816:5850   */\n      tag_434\n        /* \"#utility.yul\":5825:5849   */\n      tag_435\n        /* \"#utility.yul\":5843:5848   */\n      dup5\n        /* \"#utility.yul\":5825:5849   */\n      tag_305\n      jump\t// in\n    tag_435:\n        /* \"#utility.yul\":5816:5850   */\n      tag_318\n      jump\t// in\n    tag_434:\n        /* \"#utility.yul\":5798:5851   */\n      tag_305\n      jump\t// in\n    tag_433:\n        /* \"#utility.yul\":5785:5851   */\n      swap1\n      pop\n        /* \"#utility.yul\":5715:5857   */\n      swap2\n      swap1\n      pop\n      jump\t// out\n        /* \"#utility.yul\":5863:5989   */\n    tag_320:\n        /* \"#utility.yul\":5913:5922   */\n      0x00\n        /* \"#utility.yul\":5946:5983   */\n      tag_437\n        /* \"#utility.yul\":5977:5982   */\n      dup3\n        /* \"#utility.yul\":5946:5983   */\n      tag_319\n      jump\t// in\n    tag_437:\n        /* \"#utility.yul\":5933:5983   */\n      swap1\n      pop\n        /* \"#utility.yul\":5863:5989   */\n      swap2\n      swap1\n      pop\n      jump\t// out\n        /* \"#utility.yul\":5995:6135   */\n    tag_321:\n        /* \"#utility.yul\":6059:6068   */\n      0x00\n        /* \"#utility.yul\":6092:6129   */\n      tag_439\n        /* \"#utility.yul\":6123:6128   */\n      dup3\n        /* \"#utility.yul\":6092:6129   */\n      tag_320\n      jump\t// in\n    tag_439:\n        /* \"#utility.yul\":6079:6129   */\n      swap1\n      pop\n        /* \"#utility.yul\":5995:6135   */\n      swap2\n      swap1\n      pop\n      jump\t// out\n        /* \"#utility.yul\":6141:6300   */\n    tag_322:\n        /* \"#utility.yul\":6242:6293   */\n      tag_441\n        /* \"#utility.yul\":6287:6292   */\n      dup2\n        /* \"#utility.yul\":6242:6293   */\n      tag_321\n      jump\t// in\n    tag_441:\n        /* \"#utility.yul\":6237:6240   */\n      dup3\n        /* \"#utility.yul\":6230:6294   */\n      mstore\n        /* \"#utility.yul\":6141:6300   */\n      pop\n      pop\n      jump\t// out\n        /* \"#utility.yul\":6306:6556   */\n    tag_115:\n        /* \"#utility.yul\":6413:6417   */\n      0x00\n        /* \"#utility.yul\":6451:6453   */\n      0x20\n        /* \"#utility.yul\":6440:6449   */\n      dup3\n        /* \"#utility.yul\":6436:6454   */\n      add\n        /* \"#utility.yul\":6428:6454   */\n      swap1\n      pop\n        /* \"#utility.yul\":6464:6549   */\n      tag_443\n        /* \"#utility.yul\":6546:6547   */\n      0x00\n        /* \"#utility.yul\":6535:6544   */\n      dup4\n        /* \"#utility.yul\":6531:6548   */\n      add\n        /* \"#utility.yul\":6522:6528   */\n      dup5\n        /* \"#utility.yul\":6464:6549   */\n      tag_322\n      jump\t// in\n    tag_443:\n        /* \"#utility.yul\":6306:6556   */\n      swap3\n      swap2\n      pop\n      pop\n      jump\t// out\n        /* \"#utility.yul\":6562:7505   */\n    tag_122:\n        /* \"#utility.yul\":6673:6679   */\n      0x00\n        /* \"#utility.yul\":6681:6687   */\n      dup1\n        /* \"#utility.yul\":6689:6695   */\n      0x00\n        /* \"#utility.yul\":6697:6703   */\n      dup1\n        /* \"#utility.yul\":6705:6711   */\n      0x00\n        /* \"#utility.yul\":6754:6757   */\n      0xa0\n        /* \"#utility.yul\":6742:6751   */\n      dup7\n        /* \"#utility.yul\":6733:6740   */\n      dup9\n        /* \"#utility.yul\":6729:6752   */\n      sub\n        /* \"#utility.yul\":6725:6758   */\n      slt\n        /* \"#utility.yul\":6722:6842   */\n      iszero\n      tag_445\n      jumpi\n        /* \"#utility.yul\":6761:6840   */\n      tag_446\n      tag_301\n      jump\t// in\n    tag_446:\n        /* \"#utility.yul\":6722:6842   */\n    tag_445:\n        /* \"#utility.yul\":6881:6882   */\n      0x00\n        /* \"#utility.yul\":6906:6967   */\n      tag_447\n        /* \"#utility.yul\":6959:6966   */\n      dup9\n        /* \"#utility.yul\":6950:6956   */\n      dup3\n        /* \"#utility.yul\":6939:6948   */\n      dup10\n        /* \"#utility.yul\":6935:6957   */\n      add\n        /* \"#utility.yul\":6906:6967   */\n      tag_314\n      jump\t// in\n    tag_447:\n        /* \"#utility.yul\":6896:6967   */\n      swap6\n      pop\n        /* \"#utility.yul\":6852:6977   */\n      pop\n        /* \"#utility.yul\":7016:7018   */\n      0x20\n        /* \"#utility.yul\":7042:7095   */\n      tag_448\n        /* \"#utility.yul\":7087:7094   */\n      dup9\n        /* \"#utility.yul\":7078:7084   */\n      dup3\n        /* \"#utility.yul\":7067:7076   */\n      dup10\n        /* \"#utility.yul\":7063:7085   */\n      add\n        /* \"#utility.yul\":7042:7095   */\n      tag_316\n      jump\t// in\n    tag_448:\n        /* \"#utility.yul\":7032:7095   */\n      swap5\n      pop\n        /* \"#utility.yul\":6987:7105   */\n      pop\n        /* \"#utility.yul\":7144:7146   */\n      0x40\n        /* \"#utility.yul\":7170:7223   */\n      tag_449\n        /* \"#utility.yul\":7215:7222   */\n      dup9\n        /* \"#utility.yul\":7206:7212   */\n      dup3\n        /* \"#utility.yul\":7195:7204   */\n      dup10\n        /* \"#utility.yul\":7191:7213   */\n      add\n        /* \"#utility.yul\":7170:7223   */\n      tag_308\n      jump\t// in\n    tag_449:\n        /* \"#utility.yul\":7160:7223   */\n      swap4\n      pop\n        /* \"#utility.yul\":7115:7233   */\n      pop\n        /* \"#utility.yul\":7272:7274   */\n      0x60\n        /* \"#utility.yul\":7298:7359   */\n      tag_450\n        /* \"#utility.yul\":7351:7358   */\n      dup9\n        /* \"#utility.yul\":7342:7348   */\n      dup3\n        /* \"#utility.yul\":7331:7340   */\n      dup10\n        /* \"#utility.yul\":7327:7349   */\n      add\n        /* \"#utility.yul\":7298:7359   */\n      tag_314\n      jump\t// in\n    tag_450:\n        /* \"#utility.yul\":7288:7359   */\n      swap3\n      pop\n        /* \"#utility.yul\":7243:7369   */\n      pop\n        /* \"#utility.yul\":7408:7411   */\n      0x80\n        /* \"#utility.yul\":7435:7488   */\n      tag_451\n        /* \"#utility.yul\":7480:7487   */\n      dup9\n        /* \"#utility.yul\":7471:7477   */\n      dup3\n        /* \"#utility.yul\":7460:7469   */\n      dup10\n        /* \"#utility.yul\":7456:7478   */\n      add\n        /* \"#utility.yul\":7435:7488   */\n      tag_316\n      jump\t// in\n    tag_451:\n        /* \"#utility.yul\":7425:7488   */\n      swap2\n      pop\n        /* \"#utility.yul\":7379:7498   */\n      pop\n        /* \"#utility.yul\":6562:7505   */\n      swap3\n      swap6\n      pop\n      swap3\n      swap6\n      swap1\n      swap4\n      pop\n      jump\t// out\n        /* \"#utility.yul\":7511:8438   */\n    tag_126:\n        /* \"#utility.yul\":7614:7620   */\n      0x00\n        /* \"#utility.yul\":7622:7628   */\n      dup1\n        /* \"#utility.yul\":7630:7636   */\n      0x00\n        /* \"#utility.yul\":7638:7644   */\n      dup1\n        /* \"#utility.yul\":7646:7652   */\n      0x00\n        /* \"#utility.yul\":7695:7698   */\n      0xa0\n        /* \"#utility.yul\":7683:7692   */\n      dup7\n        /* \"#utility.yul\":7674:7681   */\n      dup9\n        /* \"#utility.yul\":7670:7693   */\n      sub\n        /* \"#utility.yul\":7666:7699   */\n      slt\n        /* \"#utility.yul\":7663:7783   */\n      iszero\n      tag_453\n      jumpi\n        /* \"#utility.yul\":7702:7781   */\n      tag_454\n      tag_301\n      jump\t// in\n    tag_454:\n        /* \"#utility.yul\":7663:7783   */\n    tag_453:\n        /* \"#utility.yul\":7822:7823   */\n      0x00\n        /* \"#utility.yul\":7847:7900   */\n      tag_455\n        /* \"#utility.yul\":7892:7899   */\n      dup9\n        /* \"#utility.yul\":7883:7889   */\n      dup3\n        /* \"#utility.yul\":7872:7881   */\n      dup10\n        /* \"#utility.yul\":7868:7890   */\n      add\n        /* \"#utility.yul\":7847:7900   */\n      tag_316\n      jump\t// in\n    tag_455:\n        /* \"#utility.yul\":7837:7900   */\n      swap6\n      pop\n        /* \"#utility.yul\":7793:7910   */\n      pop\n        /* \"#utility.yul\":7949:7951   */\n      0x20\n        /* \"#utility.yul\":7975:8028   */\n      tag_456\n        /* \"#utility.yul\":8020:8027   */\n      dup9\n        /* \"#utility.yul\":8011:8017   */\n      dup3\n        /* \"#utility.yul\":8000:8009   */\n      dup10\n        /* \"#utility.yul\":7996:8018   */\n      add\n        /* \"#utility.yul\":7975:8028   */\n      tag_308\n      jump\t// in\n    tag_456:\n        /* \"#utility.yul\":7965:8028   */\n      swap5\n      pop\n        /* \"#utility.yul\":7920:8038   */\n      pop\n        /* \"#utility.yul\":8077:8079   */\n      0x40\n        /* \"#utility.yul\":8103:8156   */\n      tag_457\n        /* \"#utility.yul\":8148:8155   */\n      dup9\n        /* \"#utility.yul\":8139:8145   */\n      dup3\n        /* \"#utility.yul\":8128:8137   */\n      dup10\n        /* \"#utility.yul\":8124:8146   */\n      add\n        /* \"#utility.yul\":8103:8156   */\n      tag_308\n      jump\t// in\n    tag_457:\n        /* \"#utility.yul\":8093:8156   */\n      swap4\n      pop\n        /* \"#utility.yul\":8048:8166   */\n      pop\n        /* \"#utility.yul\":8205:8207   */\n      0x60\n        /* \"#utility.yul\":8231:8292   */\n      tag_458\n        /* \"#utility.yul\":8284:8291   */\n      dup9\n        /* \"#utility.yul\":8275:8281   */\n      dup3\n        /* \"#utility.yul\":8264:8273   */\n      dup10\n        /* \"#utility.yul\":8260:8282   */\n      add\n        /* \"#utility.yul\":8231:8292   */\n      tag_314\n      jump\t// in\n    tag_458:\n        /* \"#utility.yul\":8221:8292   */\n      swap3\n      pop\n        /* \"#utility.yul\":8176:8302   */\n      pop\n        /* \"#utility.yul\":8341:8344   */\n      0x80\n        /* \"#utility.yul\":8368:8421   */\n      tag_459\n        /* \"#utility.yul\":8413:8420   */\n      dup9\n        /* \"#utility.yul\":8404:8410   */\n      dup3\n        /* \"#utility.yul\":8393:8402   */\n      dup10\n        /* \"#utility.yul\":8389:8411   */\n      add\n        /* \"#utility.yul\":8368:8421   */\n      tag_316\n      jump\t// in\n    tag_459:\n        /* \"#utility.yul\":8358:8421   */\n      swap2\n      pop\n        /* \"#utility.yul\":8312:8431   */\n      pop\n        /* \"#utility.yul\":7511:8438   */\n      swap3\n      swap6\n      pop\n      swap3\n      swap6\n      swap1\n      swap4\n      pop\n      jump\t// out\n        /* \"#utility.yul\":8444:9533   */\n    tag_130:\n        /* \"#utility.yul\":8564:8570   */\n      0x00\n        /* \"#utility.yul\":8572:8578   */\n      dup1\n        /* \"#utility.yul\":8580:8586   */\n      0x00\n        /* \"#utility.yul\":8588:8594   */\n      dup1\n        /* \"#utility.yul\":8596:8602   */\n      0x00\n        /* \"#utility.yul\":8604:8610   */\n      dup1\n        /* \"#utility.yul\":8653:8656   */\n      0xc0\n        /* \"#utility.yul\":8641:8650   */\n      dup8\n        /* \"#utility.yul\":8632:8639   */\n      dup10\n        /* \"#utility.yul\":8628:8651   */\n      sub\n        /* \"#utility.yul\":8624:8657   */\n      slt\n        /* \"#utility.yul\":8621:8741   */\n      iszero\n      tag_461\n      jumpi\n        /* \"#utility.yul\":8660:8739   */\n      tag_462\n      tag_301\n      jump\t// in\n    tag_462:\n        /* \"#utility.yul\":8621:8741   */\n    tag_461:\n        /* \"#utility.yul\":8780:8781   */\n      0x00\n        /* \"#utility.yul\":8805:8866   */\n      tag_463\n        /* \"#utility.yul\":8858:8865   */\n      dup10\n        /* \"#utility.yul\":8849:8855   */\n      dup3\n        /* \"#utility.yul\":8838:8847   */\n      dup11\n        /* \"#utility.yul\":8834:8856   */\n      add\n        /* \"#utility.yul\":8805:8866   */\n      tag_314\n      jump\t// in\n    tag_463:\n        /* \"#utility.yul\":8795:8866   */\n      swap7\n      pop\n        /* \"#utility.yul\":8751:8876   */\n      pop\n        /* \"#utility.yul\":8915:8917   */\n      0x20\n        /* \"#utility.yul\":8941:8994   */\n      tag_464\n        /* \"#utility.yul\":8986:8993   */\n      dup10\n        /* \"#utility.yul\":8977:8983   */\n      dup3\n        /* \"#utility.yul\":8966:8975   */\n      dup11\n        /* \"#utility.yul\":8962:8984   */\n      add\n        /* \"#utility.yul\":8941:8994   */\n      tag_316\n      jump\t// in\n    tag_464:\n        /* \"#utility.yul\":8931:8994   */\n      swap6\n      pop\n        /* \"#utility.yul\":8886:9004   */\n      pop\n        /* \"#utility.yul\":9043:9045   */\n      0x40\n        /* \"#utility.yul\":9069:9122   */\n      tag_465\n        /* \"#utility.yul\":9114:9121   */\n      dup10\n        /* \"#utility.yul\":9105:9111   */\n      dup3\n        /* \"#utility.yul\":9094:9103   */\n      dup11\n        /* \"#utility.yul\":9090:9112   */\n      add\n        /* \"#utility.yul\":9069:9122   */\n      tag_308\n      jump\t// in\n    tag_465:\n        /* \"#utility.yul\":9059:9122   */\n      swap5\n      pop\n        /* \"#utility.yul\":9014:9132   */\n      pop\n        /* \"#utility.yul\":9171:9173   */\n      0x60\n        /* \"#utility.yul\":9197:9250   */\n      tag_466\n        /* \"#utility.yul\":9242:9249   */\n      dup10\n        /* \"#utility.yul\":9233:9239   */\n      dup3\n        /* \"#utility.yul\":9222:9231   */\n      dup11\n        /* \"#utility.yul\":9218:9240   */\n      add\n        /* \"#utility.yul\":9197:9250   */\n      tag_308\n      jump\t// in\n    tag_466:\n        /* \"#utility.yul\":9187:9250   */\n      swap4\n      pop\n        /* \"#utility.yul\":9142:9260   */\n      pop\n        /* \"#utility.yul\":9299:9302   */\n      0x80\n        /* \"#utility.yul\":9326:9387   */\n      tag_467\n        /* \"#utility.yul\":9379:9386   */\n      dup10\n        /* \"#utility.yul\":9370:9376   */\n      dup3\n        /* \"#utility.yul\":9359:9368   */\n      dup11\n        /* \"#utility.yul\":9355:9377   */\n      add\n        /* \"#utility.yul\":9326:9387   */\n      tag_314\n      jump\t// in\n    tag_467:\n        /* \"#utility.yul\":9316:9387   */\n      swap3\n      pop\n        /* \"#utility.yul\":9270:9397   */\n      pop\n        /* \"#utility.yul\":9436:9439   */\n      0xa0\n        /* \"#utility.yul\":9463:9516   */\n      tag_468\n        /* \"#utility.yul\":9508:9515   */\n      dup10\n        /* \"#utility.yul\":9499:9505   */\n      dup3\n        /* \"#utility.yul\":9488:9497   */\n      dup11\n        /* \"#utility.yul\":9484:9506   */\n      add\n        /* \"#utility.yul\":9463:9516   */\n      tag_316\n      jump\t// in\n    tag_468:\n        /* \"#utility.yul\":9453:9516   */\n      swap2\n      pop\n        /* \"#utility.yul\":9407:9526   */\n      pop\n        /* \"#utility.yul\":8444:9533   */\n      swap3\n      swap6\n      pop\n      swap3\n      swap6\n      pop\n      swap3\n      swap6\n      jump\t// out\n        /* \"#utility.yul\":9539:9682   */\n    tag_323:\n        /* \"#utility.yul\":9596:9601   */\n      0x00\n        /* \"#utility.yul\":9627:9633   */\n      dup2\n        /* \"#utility.yul\":9621:9634   */\n      mload\n        /* \"#utility.yul\":9612:9634   */\n      swap1\n      pop\n        /* \"#utility.yul\":9643:9676   */\n      tag_470\n        /* \"#utility.yul\":9670:9675   */\n      dup2\n        /* \"#utility.yul\":9643:9676   */\n      tag_315\n      jump\t// in\n    tag_470:\n        /* \"#utility.yul\":9539:9682   */\n      swap3\n      swap2\n      pop\n      pop\n      jump\t// out\n        /* \"#utility.yul\":9688:10039   */\n    tag_147:\n        /* \"#utility.yul\":9758:9764   */\n      0x00\n        /* \"#utility.yul\":9807:9809   */\n      0x20\n        /* \"#utility.yul\":9795:9804   */\n      dup3\n        /* \"#utility.yul\":9786:9793   */\n      dup5\n        /* \"#utility.yul\":9782:9805   */\n      sub\n        /* \"#utility.yul\":9778:9810   */\n      slt\n        /* \"#utility.yul\":9775:9894   */\n      iszero\n      tag_472\n      jumpi\n        /* \"#utility.yul\":9813:9892   */\n      tag_473\n      tag_301\n      jump\t// in\n    tag_473:\n        /* \"#utility.yul\":9775:9894   */\n    tag_472:\n        /* \"#utility.yul\":9933:9934   */\n      0x00\n        /* \"#utility.yul\":9958:10022   */\n      tag_474\n        /* \"#utility.yul\":10014:10021   */\n      dup5\n        /* \"#utility.yul\":10005:10011   */\n      dup3\n        /* \"#utility.yul\":9994:10003   */\n      dup6\n        /* \"#utility.yul\":9990:10012   */\n      add\n        /* \"#utility.yul\":9958:10022   */\n      tag_323\n      jump\t// in\n    tag_474:\n        /* \"#utility.yul\":9948:10022   */\n      swap2\n      pop\n        /* \"#utility.yul\":9904:10032   */\n      pop\n        /* \"#utility.yul\":9688:10039   */\n      swap3\n      swap2\n      pop\n      pop\n      jump\t// out\n        /* \"#utility.yul\":10045:10214   */\n    tag_324:\n        /* \"#utility.yul\":10129:10140   */\n      0x00\n        /* \"#utility.yul\":10163:10169   */\n      dup3\n        /* \"#utility.yul\":10158:10161   */\n      dup3\n        /* \"#utility.yul\":10151:10170   */\n      mstore\n        /* \"#utility.yul\":10203:10207   */\n      0x20\n        /* \"#utility.yul\":10198:10201   */\n      dup3\n        /* \"#utility.yul\":10194:10208   */\n      add\n        /* \"#utility.yul\":10179:10208   */\n      swap1\n      pop\n        /* \"#utility.yul\":10045:10214   */\n      swap3\n      swap2\n      pop\n      pop\n      jump\t// out\n        /* \"#utility.yul\":10220:10443   */\n    tag_325:\n        /* \"#utility.yul\":10360:10394   */\n      0x4f6e6c792074686520686569722063616e20636c61696d20746865206163636f\n        /* \"#utility.yul\":10356:10357   */\n      0x00\n        /* \"#utility.yul\":10348:10354   */\n      dup3\n        /* \"#utility.yul\":10344:10358   */\n      add\n        /* \"#utility.yul\":10337:10395   */\n      mstore\n        /* \"#utility.yul\":10429:10435   */\n      0x756e742e00000000000000000000000000000000000000000000000000000000\n        /* \"#utility.yul\":10424:10426   */\n      0x20\n        /* \"#utility.yul\":10416:10422   */\n      dup3\n        /* \"#utility.yul\":10412:10427   */\n      add\n        /* \"#utility.yul\":10405:10436   */\n      mstore\n        /* \"#utility.yul\":10220:10443   */\n      pop\n      jump\t// out\n        /* \"#utility.yul\":10449:10815   */\n    tag_326:\n        /* \"#utility.yul\":10591:10594   */\n      0x00\n        /* \"#utility.yul\":10612:10679   */\n      tag_478\n        /* \"#utility.yul\":10676:10678   */\n      0x24\n        /* \"#utility.yul\":10671:10674   */\n      dup4\n        /* \"#utility.yul\":10612:10679   */\n      tag_324\n      jump\t// in\n    tag_478:\n        /* \"#utility.yul\":10605:10679   */\n      swap2\n      pop\n        /* \"#utility.yul\":10688:10781   */\n      tag_479\n        /* \"#utility.yul\":10777:10780   */\n      dup3\n        /* \"#utility.yul\":10688:10781   */\n      tag_325\n      jump\t// in\n    tag_479:\n        /* \"#utility.yul\":10806:10808   */\n      0x40\n        /* \"#utility.yul\":10801:10804   */\n      dup3\n        /* \"#utility.yul\":10797:10809   */\n      add\n        /* \"#utility.yul\":10790:10809   */\n      swap1\n      pop\n        /* \"#utility.yul\":10449:10815   */\n      swap2\n      swap1\n      pop\n      jump\t// out\n        /* \"#utility.yul\":10821:11240   */\n    tag_151:\n        /* \"#utility.yul\":10987:10991   */\n      0x00\n        /* \"#utility.yul\":11025:11027   */\n      0x20\n        /* \"#utility.yul\":11014:11023   */\n      dup3\n        /* \"#utility.yul\":11010:11028   */\n      add\n        /* \"#utility.yul\":11002:11028   */\n      swap1\n      pop\n        /* \"#utility.yul\":11074:11083   */\n      dup2\n        /* \"#utility.yul\":11068:11072   */\n      dup2\n        /* \"#utility.yul\":11064:11084   */\n      sub\n        /* \"#utility.yul\":11060:11061   */\n      0x00\n        /* \"#utility.yul\":11049:11058   */\n      dup4\n        /* \"#utility.yul\":11045:11062   */\n      add\n        /* \"#utility.yul\":11038:11085   */\n      mstore\n        /* \"#utility.yul\":11102:11233   */\n      tag_481\n        /* \"#utility.yul\":11228:11232   */\n      dup2\n        /* \"#utility.yul\":11102:11233   */\n      tag_326\n      jump\t// in\n    tag_481:\n        /* \"#utility.yul\":11094:11233   */\n      swap1\n      pop\n        /* \"#utility.yul\":10821:11240   */\n      swap2\n      swap1\n      pop\n      jump\t// out\n        /* \"#utility.yul\":11246:11470   */\n    tag_327:\n        /* \"#utility.yul\":11386:11420   */\n      0x436c61696d2070726f6365737320686173206e6f74206265656e20696e697469\n        /* \"#utility.yul\":11382:11383   */\n      0x00\n        /* \"#utility.yul\":11374:11380   */\n      dup3\n        /* \"#utility.yul\":11370:11384   */\n      add\n        /* \"#utility.yul\":11363:11421   */\n      mstore\n        /* \"#utility.yul\":11455:11462   */\n      0x617465642e000000000000000000000000000000000000000000000000000000\n        /* \"#utility.yul\":11450:11452   */\n      0x20\n        /* \"#utility.yul\":11442:11448   */\n      dup3\n        /* \"#utility.yul\":11438:11453   */\n      add\n        /* \"#utility.yul\":11431:11463   */\n      mstore\n        /* \"#utility.yul\":11246:11470   */\n      pop\n      jump\t// out\n        /* \"#utility.yul\":11476:11842   */\n    tag_328:\n        /* \"#utility.yul\":11618:11621   */\n      0x00\n        /* \"#utility.yul\":11639:11706   */\n      tag_484\n        /* \"#utility.yul\":11703:11705   */\n      0x25\n        /* \"#utility.yul\":11698:11701   */\n      dup4\n        /* \"#utility.yul\":11639:11706   */\n      tag_324\n      jump\t// in\n    tag_484:\n        /* \"#utility.yul\":11632:11706   */\n      swap2\n      pop\n        /* \"#utility.yul\":11715:11808   */\n      tag_485\n        /* \"#utility.yul\":11804:11807   */\n      dup3\n        /* \"#utility.yul\":11715:11808   */\n      tag_327\n      jump\t// in\n    tag_485:\n        /* \"#utility.yul\":11833:11835   */\n      0x40\n        /* \"#utility.yul\":11828:11831   */\n      dup3\n        /* \"#utility.yul\":11824:11836   */\n      add\n        /* \"#utility.yul\":11817:11836   */\n      swap1\n      pop\n        /* \"#utility.yul\":11476:11842   */\n      swap2\n      swap1\n      pop\n      jump\t// out\n        /* \"#utility.yul\":11848:12267   */\n    tag_154:\n        /* \"#utility.yul\":12014:12018   */\n      0x00\n        /* \"#utility.yul\":12052:12054   */\n      0x20\n        /* \"#utility.yul\":12041:12050   */\n      dup3\n        /* \"#utility.yul\":12037:12055   */\n      add\n        /* \"#utility.yul\":12029:12055   */\n      swap1\n      pop\n        /* \"#utility.yul\":12101:12110   */\n      dup2\n        /* \"#utility.yul\":12095:12099   */\n      dup2\n        /* \"#utility.yul\":12091:12111   */\n      sub\n        /* \"#utility.yul\":12087:12088   */\n      0x00\n        /* \"#utility.yul\":12076:12085   */\n      dup4\n        /* \"#utility.yul\":12072:12089   */\n      add\n        /* \"#utility.yul\":12065:12112   */\n      mstore\n        /* \"#utility.yul\":12129:12260   */\n      tag_487\n        /* \"#utility.yul\":12255:12259   */\n      dup2\n        /* \"#utility.yul\":12129:12260   */\n      tag_328\n      jump\t// in\n    tag_487:\n        /* \"#utility.yul\":12121:12260   */\n      swap1\n      pop\n        /* \"#utility.yul\":11848:12267   */\n      swap2\n      swap1\n      pop\n      jump\t// out\n        /* \"#utility.yul\":12273:12453   */\n    tag_329:\n        /* \"#utility.yul\":12321:12398   */\n      0x4e487b7100000000000000000000000000000000000000000000000000000000\n        /* \"#utility.yul\":12318:12319   */\n      0x00\n        /* \"#utility.yul\":12311:12399   */\n      mstore\n        /* \"#utility.yul\":12418:12422   */\n      0x11\n        /* \"#utility.yul\":12415:12416   */\n      0x04\n        /* \"#utility.yul\":12408:12423   */\n      mstore\n        /* \"#utility.yul\":12442:12446   */\n      0x24\n        /* \"#utility.yul\":12439:12440   */\n      0x00\n        /* \"#utility.yul\":12432:12447   */\n      revert\n        /* \"#utility.yul\":12459:12869   */\n    tag_156:\n        /* \"#utility.yul\":12499:12506   */\n      0x00\n        /* \"#utility.yul\":12522:12542   */\n      tag_490\n        /* \"#utility.yul\":12540:12541   */\n      dup3\n        /* \"#utility.yul\":12522:12542   */\n      tag_309\n      jump\t// in\n    tag_490:\n        /* \"#utility.yul\":12517:12542   */\n      swap2\n      pop\n        /* \"#utility.yul\":12556:12576   */\n      tag_491\n        /* \"#utility.yul\":12574:12575   */\n      dup4\n        /* \"#utility.yul\":12556:12576   */\n      tag_309\n      jump\t// in\n    tag_491:\n        /* \"#utility.yul\":12551:12576   */\n      swap3\n      pop\n        /* \"#utility.yul\":12611:12612   */\n      dup3\n        /* \"#utility.yul\":12608:12609   */\n      dup3\n        /* \"#utility.yul\":12604:12613   */\n      mul\n        /* \"#utility.yul\":12633:12663   */\n      tag_492\n        /* \"#utility.yul\":12651:12662   */\n      dup2\n        /* \"#utility.yul\":12633:12663   */\n      tag_309\n      jump\t// in\n    tag_492:\n        /* \"#utility.yul\":12622:12663   */\n      swap2\n      pop\n        /* \"#utility.yul\":12812:12813   */\n      dup3\n        /* \"#utility.yul\":12803:12810   */\n      dup3\n        /* \"#utility.yul\":12799:12814   */\n      div\n        /* \"#utility.yul\":12796:12797   */\n      dup5\n        /* \"#utility.yul\":12793:12815   */\n      eq\n        /* \"#utility.yul\":12773:12774   */\n      dup4\n        /* \"#utility.yul\":12766:12775   */\n      iszero\n        /* \"#utility.yul\":12746:12829   */\n      or\n        /* \"#utility.yul\":12723:12862   */\n      tag_493\n      jumpi\n        /* \"#utility.yul\":12842:12860   */\n      tag_494\n      tag_329\n      jump\t// in\n    tag_494:\n        /* \"#utility.yul\":12723:12862   */\n    tag_493:\n        /* \"#utility.yul\":12507:12869   */\n      pop\n        /* \"#utility.yul\":12459:12869   */\n      swap3\n      swap2\n      pop\n      pop\n      jump\t// out\n        /* \"#utility.yul\":12875:13066   */\n    tag_158:\n        /* \"#utility.yul\":12915:12918   */\n      0x00\n        /* \"#utility.yul\":12934:12954   */\n      tag_496\n        /* \"#utility.yul\":12952:12953   */\n      dup3\n        /* \"#utility.yul\":12934:12954   */\n      tag_309\n      jump\t// in\n    tag_496:\n        /* \"#utility.yul\":12929:12954   */\n      swap2\n      pop\n        /* \"#utility.yul\":12968:12988   */\n      tag_497\n        /* \"#utility.yul\":12986:12987   */\n      dup4\n        /* \"#utility.yul\":12968:12988   */\n      tag_309\n      jump\t// in\n    tag_497:\n        /* \"#utility.yul\":12963:12988   */\n      swap3\n      pop\n        /* \"#utility.yul\":13011:13012   */\n      dup3\n        /* \"#utility.yul\":13008:13009   */\n      dup3\n        /* \"#utility.yul\":13004:13013   */\n      add\n        /* \"#utility.yul\":12997:13013   */\n      swap1\n      pop\n        /* \"#utility.yul\":13032:13035   */\n      dup1\n        /* \"#utility.yul\":13029:13030   */\n      dup3\n        /* \"#utility.yul\":13026:13036   */\n      gt\n        /* \"#utility.yul\":13023:13059   */\n      iszero\n      tag_498\n      jumpi\n        /* \"#utility.yul\":13039:13057   */\n      tag_499\n      tag_329\n      jump\t// in\n    tag_499:\n        /* \"#utility.yul\":13023:13059   */\n    tag_498:\n        /* \"#utility.yul\":12875:13066   */\n      swap3\n      swap2\n      pop\n      pop\n      jump\t// out\n        /* \"#utility.yul\":13072:13250   */\n    tag_330:\n        /* \"#utility.yul\":13212:13242   */\n      0x436c61696d2064656c617920686173206e6f7420657870697265642e00000000\n        /* \"#utility.yul\":13208:13209   */\n      0x00\n        /* \"#utility.yul\":13200:13206   */\n      dup3\n        /* \"#utility.yul\":13196:13210   */\n      add\n        /* \"#utility.yul\":13189:13243   */\n      mstore\n        /* \"#utility.yul\":13072:13250   */\n      pop\n      jump\t// out\n        /* \"#utility.yul\":13256:13622   */\n    tag_331:\n        /* \"#utility.yul\":13398:13401   */\n      0x00\n        /* \"#utility.yul\":13419:13486   */\n      tag_502\n        /* \"#utility.yul\":13483:13485   */\n      0x1c\n        /* \"#utility.yul\":13478:13481   */\n      dup4\n        /* \"#utility.yul\":13419:13486   */\n      tag_324\n      jump\t// in\n    tag_502:\n        /* \"#utility.yul\":13412:13486   */\n      swap2\n      pop\n        /* \"#utility.yul\":13495:13588   */\n      tag_503\n        /* \"#utility.yul\":13584:13587   */\n      dup3\n        /* \"#utility.yul\":13495:13588   */\n      tag_330\n      jump\t// in\n    tag_503:\n        /* \"#utility.yul\":13613:13615   */\n      0x20\n        /* \"#utility.yul\":13608:13611   */\n      dup3\n        /* \"#utility.yul\":13604:13616   */\n      add\n        /* \"#utility.yul\":13597:13616   */\n      swap1\n      pop\n        /* \"#utility.yul\":13256:13622   */\n      swap2\n      swap1\n      pop\n      jump\t// out\n        /* \"#utility.yul\":13628:14047   */\n    tag_161:\n        /* \"#utility.yul\":13794:13798   */\n      0x00\n        /* \"#utility.yul\":13832:13834   */\n      0x20\n        /* \"#utility.yul\":13821:13830   */\n      dup3\n        /* \"#utility.yul\":13817:13835   */\n      add\n        /* \"#utility.yul\":13809:13835   */\n      swap1\n      pop\n        /* \"#utility.yul\":13881:13890   */\n      dup2\n        /* \"#utility.yul\":13875:13879   */\n      dup2\n        /* \"#utility.yul\":13871:13891   */\n      sub\n        /* \"#utility.yul\":13867:13868   */\n      0x00\n        /* \"#utility.yul\":13856:13865   */\n      dup4\n        /* \"#utility.yul\":13852:13869   */\n      add\n        /* \"#utility.yul\":13845:13892   */\n      mstore\n        /* \"#utility.yul\":13909:14040   */\n      tag_505\n        /* \"#utility.yul\":14035:14039   */\n      dup2\n        /* \"#utility.yul\":13909:14040   */\n      tag_331\n      jump\t// in\n    tag_505:\n        /* \"#utility.yul\":13901:14040   */\n      swap1\n      pop\n        /* \"#utility.yul\":13628:14047   */\n      swap2\n      swap1\n      pop\n      jump\t// out\n        /* \"#utility.yul\":14053:14280   */\n    tag_332:\n        /* \"#utility.yul\":14193:14227   */\n      0x4f6e6c7920746865206f776e65722063616e20756e667265657a652074686520\n        /* \"#utility.yul\":14189:14190   */\n      0x00\n        /* \"#utility.yul\":14181:14187   */\n      dup3\n        /* \"#utility.yul\":14177:14191   */\n      add\n        /* \"#utility.yul\":14170:14228   */\n      mstore\n        /* \"#utility.yul\":14262:14272   */\n      0x6163636f756e742e000000000000000000000000000000000000000000000000\n        /* \"#utility.yul\":14257:14259   */\n      0x20\n        /* \"#utility.yul\":14249:14255   */\n      dup3\n        /* \"#utility.yul\":14245:14260   */\n      add\n        /* \"#utility.yul\":14238:14273   */\n      mstore\n        /* \"#utility.yul\":14053:14280   */\n      pop\n      jump\t// out\n        /* \"#utility.yul\":14286:14652   */\n    tag_333:\n        /* \"#utility.yul\":14428:14431   */\n      0x00\n        /* \"#utility.yul\":14449:14516   */\n      tag_508\n        /* \"#utility.yul\":14513:14515   */\n      0x28\n        /* \"#utility.yul\":14508:14511   */\n      dup4\n        /* \"#utility.yul\":14449:14516   */\n      tag_324\n      jump\t// in\n    tag_508:\n        /* \"#utility.yul\":14442:14516   */\n      swap2\n      pop\n        /* \"#utility.yul\":14525:14618   */\n      tag_509\n        /* \"#utility.yul\":14614:14617   */\n      dup3\n        /* \"#utility.yul\":14525:14618   */\n      tag_332\n      jump\t// in\n    tag_509:\n        /* \"#utility.yul\":14643:14645   */\n      0x40\n        /* \"#utility.yul\":14638:14641   */\n      dup3\n        /* \"#utility.yul\":14634:14646   */\n      add\n        /* \"#utility.yul\":14627:14646   */\n      swap1\n      pop\n        /* \"#utility.yul\":14286:14652   */\n      swap2\n      swap1\n      pop\n      jump\t// out\n        /* \"#utility.yul\":14658:15077   */\n    tag_166:\n        /* \"#utility.yul\":14824:14828   */\n      0x00\n        /* \"#utility.yul\":14862:14864   */\n      0x20\n        /* \"#utility.yul\":14851:14860   */\n      dup3\n        /* \"#utility.yul\":14847:14865   */\n      add\n        /* \"#utility.yul\":14839:14865   */\n      swap1\n      pop\n        /* \"#utility.yul\":14911:14920   */\n      dup2\n        /* \"#utility.yul\":14905:14909   */\n      dup2\n        /* \"#utility.yul\":14901:14921   */\n      sub\n        /* \"#utility.yul\":14897:14898   */\n      0x00\n        /* \"#utility.yul\":14886:14895   */\n      dup4\n        /* \"#utility.yul\":14882:14899   */\n      add\n        /* \"#utility.yul\":14875:14922   */\n      mstore\n        /* \"#utility.yul\":14939:15070   */\n      tag_511\n        /* \"#utility.yul\":15065:15069   */\n      dup2\n        /* \"#utility.yul\":14939:15070   */\n      tag_333\n      jump\t// in\n    tag_511:\n        /* \"#utility.yul\":14931:15070   */\n      swap1\n      pop\n        /* \"#utility.yul\":14658:15077   */\n      swap2\n      swap1\n      pop\n      jump\t// out\n        /* \"#utility.yul\":15083:15265   */\n    tag_334:\n        /* \"#utility.yul\":15223:15257   */\n      0x4f6e6c7920746865206f776e65722063616e207365742074686520686569722e\n        /* \"#utility.yul\":15219:15220   */\n      0x00\n        /* \"#utility.yul\":15211:15217   */\n      dup3\n        /* \"#utility.yul\":15207:15221   */\n      add\n        /* \"#utility.yul\":15200:15258   */\n      mstore\n        /* \"#utility.yul\":15083:15265   */\n      pop\n      jump\t// out\n        /* \"#utility.yul\":15271:15637   */\n    tag_335:\n        /* \"#utility.yul\":15413:15416   */\n      0x00\n        /* \"#utility.yul\":15434:15501   */\n      tag_514\n        /* \"#utility.yul\":15498:15500   */\n      0x20\n        /* \"#utility.yul\":15493:15496   */\n      dup4\n        /* \"#utility.yul\":15434:15501   */\n      tag_324\n      jump\t// in\n    tag_514:\n        /* \"#utility.yul\":15427:15501   */\n      swap2\n      pop\n        /* \"#utility.yul\":15510:15603   */\n      tag_515\n        /* \"#utility.yul\":15599:15602   */\n      dup3\n        /* \"#utility.yul\":15510:15603   */\n      tag_334\n      jump\t// in\n    tag_515:\n        /* \"#utility.yul\":15628:15630   */\n      0x20\n        /* \"#utility.yul\":15623:15626   */\n      dup3\n        /* \"#utility.yul\":15619:15631   */\n      add\n        /* \"#utility.yul\":15612:15631   */\n      swap1\n      pop\n        /* \"#utility.yul\":15271:15637   */\n      swap2\n      swap1\n      pop\n      jump\t// out\n        /* \"#utility.yul\":15643:16062   */\n    tag_172:\n        /* \"#utility.yul\":15809:15813   */\n      0x00\n        /* \"#utility.yul\":15847:15849   */\n      0x20\n        /* \"#utility.yul\":15836:15845   */\n      dup3\n        /* \"#utility.yul\":15832:15850   */\n      add\n        /* \"#utility.yul\":15824:15850   */\n      swap1\n      pop\n        /* \"#utility.yul\":15896:15905   */\n      dup2\n        /* \"#utility.yul\":15890:15894   */\n      dup2\n        /* \"#utility.yul\":15886:15906   */\n      sub\n        /* \"#utility.yul\":15882:15883   */\n      0x00\n        /* \"#utility.yul\":15871:15880   */\n      dup4\n        /* \"#utility.yul\":15867:15884   */\n      add\n        /* \"#utility.yul\":15860:15907   */\n      mstore\n        /* \"#utility.yul\":15924:16055   */\n      tag_517\n        /* \"#utility.yul\":16050:16054   */\n      dup2\n        /* \"#utility.yul\":15924:16055   */\n      tag_335\n      jump\t// in\n    tag_517:\n        /* \"#utility.yul\":15916:16055   */\n      swap1\n      pop\n        /* \"#utility.yul\":15643:16062   */\n      swap2\n      swap1\n      pop\n      jump\t// out\n        /* \"#utility.yul\":16068:16292   */\n    tag_336:\n        /* \"#utility.yul\":16208:16242   */\n      0x5468652066756e6374696f6e20697320616c726561647920696e206578656375\n        /* \"#utility.yul\":16204:16205   */\n      0x00\n        /* \"#utility.yul\":16196:16202   */\n      dup3\n        /* \"#utility.yul\":16192:16206   */\n      add\n        /* \"#utility.yul\":16185:16243   */\n      mstore\n        /* \"#utility.yul\":16277:16284   */\n      0x74696f6e2e000000000000000000000000000000000000000000000000000000\n        /* \"#utility.yul\":16272:16274   */\n      0x20\n        /* \"#utility.yul\":16264:16270   */\n      dup3\n        /* \"#utility.yul\":16260:16275   */\n      add\n        /* \"#utility.yul\":16253:16285   */\n      mstore\n        /* \"#utility.yul\":16068:16292   */\n      pop\n      jump\t// out\n        /* \"#utility.yul\":16298:16664   */\n    tag_337:\n        /* \"#utility.yul\":16440:16443   */\n      0x00\n        /* \"#utility.yul\":16461:16528   */\n      tag_520\n        /* \"#utility.yul\":16525:16527   */\n      0x25\n        /* \"#utility.yul\":16520:16523   */\n      dup4\n        /* \"#utility.yul\":16461:16528   */\n      tag_324\n      jump\t// in\n    tag_520:\n        /* \"#utility.yul\":16454:16528   */\n      swap2\n      pop\n        /* \"#utility.yul\":16537:16630   */\n      tag_521\n        /* \"#utility.yul\":16626:16629   */\n      dup3\n        /* \"#utility.yul\":16537:16630   */\n      tag_336\n      jump\t// in\n    tag_521:\n        /* \"#utility.yul\":16655:16657   */\n      0x40\n        /* \"#utility.yul\":16650:16653   */\n      dup3\n        /* \"#utility.yul\":16646:16658   */\n      add\n        /* \"#utility.yul\":16639:16658   */\n      swap1\n      pop\n        /* \"#utility.yul\":16298:16664   */\n      swap2\n      swap1\n      pop\n      jump\t// out\n        /* \"#utility.yul\":16670:17089   */\n    tag_175:\n        /* \"#utility.yul\":16836:16840   */\n      0x00\n        /* \"#utility.yul\":16874:16876   */\n      0x20\n        /* \"#utility.yul\":16863:16872   */\n      dup3\n        /* \"#utility.yul\":16859:16877   */\n      add\n        /* \"#utility.yul\":16851:16877   */\n      swap1\n      pop\n        /* \"#utility.yul\":16923:16932   */\n      dup2\n        /* \"#utility.yul\":16917:16921   */\n      dup2\n        /* \"#utility.yul\":16913:16933   */\n      sub\n        /* \"#utility.yul\":16909:16910   */\n      0x00\n        /* \"#utility.yul\":16898:16907   */\n      dup4\n        /* \"#utility.yul\":16894:16911   */\n      add\n        /* \"#utility.yul\":16887:16934   */\n      mstore\n        /* \"#utility.yul\":16951:17082   */\n      tag_523\n        /* \"#utility.yul\":17077:17081   */\n      dup2\n        /* \"#utility.yul\":16951:17082   */\n      tag_337\n      jump\t// in\n    tag_523:\n        /* \"#utility.yul\":16943:17082   */\n      swap1\n      pop\n        /* \"#utility.yul\":16670:17089   */\n      swap2\n      swap1\n      pop\n      jump\t// out\n        /* \"#utility.yul\":17095:17320   */\n    tag_338:\n        /* \"#utility.yul\":17235:17269   */\n      0x4f6e6c7920746865206f776e65722063616e20667265657a6520746865206163\n        /* \"#utility.yul\":17231:17232   */\n      0x00\n        /* \"#utility.yul\":17223:17229   */\n      dup3\n        /* \"#utility.yul\":17219:17233   */\n      add\n        /* \"#utility.yul\":17212:17270   */\n      mstore\n        /* \"#utility.yul\":17304:17312   */\n      0x636f756e742e0000000000000000000000000000000000000000000000000000\n        /* \"#utility.yul\":17299:17301   */\n      0x20\n        /* \"#utility.yul\":17291:17297   */\n      dup3\n        /* \"#utility.yul\":17287:17302   */\n      add\n        /* \"#utility.yul\":17280:17313   */\n      mstore\n        /* \"#utility.yul\":17095:17320   */\n      pop\n      jump\t// out\n        /* \"#utility.yul\":17326:17692   */\n    tag_339:\n        /* \"#utility.yul\":17468:17471   */\n      0x00\n        /* \"#utility.yul\":17489:17556   */\n      tag_526\n        /* \"#utility.yul\":17553:17555   */\n      0x26\n        /* \"#utility.yul\":17548:17551   */\n      dup4\n        /* \"#utility.yul\":17489:17556   */\n      tag_324\n      jump\t// in\n    tag_526:\n        /* \"#utility.yul\":17482:17556   */\n      swap2\n      pop\n        /* \"#utility.yul\":17565:17658   */\n      tag_527\n        /* \"#utility.yul\":17654:17657   */\n      dup3\n        /* \"#utility.yul\":17565:17658   */\n      tag_338\n      jump\t// in\n    tag_527:\n        /* \"#utility.yul\":17683:17685   */\n      0x40\n        /* \"#utility.yul\":17678:17681   */\n      dup3\n        /* \"#utility.yul\":17674:17686   */\n      add\n        /* \"#utility.yul\":17667:17686   */\n      swap1\n      pop\n        /* \"#utility.yul\":17326:17692   */\n      swap2\n      swap1\n      pop\n      jump\t// out\n        /* \"#utility.yul\":17698:18117   */\n    tag_179:\n        /* \"#utility.yul\":17864:17868   */\n      0x00\n        /* \"#utility.yul\":17902:17904   */\n      0x20\n        /* \"#utility.yul\":17891:17900   */\n      dup3\n        /* \"#utility.yul\":17887:17905   */\n      add\n        /* \"#utility.yul\":17879:17905   */\n      swap1\n      pop\n        /* \"#utility.yul\":17951:17960   */\n      dup2\n        /* \"#utility.yul\":17945:17949   */\n      dup2\n        /* \"#utility.yul\":17941:17961   */\n      sub\n        /* \"#utility.yul\":17937:17938   */\n      0x00\n        /* \"#utility.yul\":17926:17935   */\n      dup4\n        /* \"#utility.yul\":17922:17939   */\n      add\n        /* \"#utility.yul\":17915:17962   */\n      mstore\n        /* \"#utility.yul\":17979:18110   */\n      tag_529\n        /* \"#utility.yul\":18105:18109   */\n      dup2\n        /* \"#utility.yul\":17979:18110   */\n      tag_339\n      jump\t// in\n    tag_529:\n        /* \"#utility.yul\":17971:18110   */\n      swap1\n      pop\n        /* \"#utility.yul\":17698:18117   */\n      swap2\n      swap1\n      pop\n      jump\t// out\n        /* \"#utility.yul\":18123:18344   */\n    tag_340:\n        /* \"#utility.yul\":18263:18297   */\n      0x4f6e6c7920746865206f776e65722063616e2077697468647261772066756e64\n        /* \"#utility.yul\":18259:18260   */\n      0x00\n        /* \"#utility.yul\":18251:18257   */\n      dup3\n        /* \"#utility.yul\":18247:18261   */\n      add\n        /* \"#utility.yul\":18240:18298   */\n      mstore\n        /* \"#utility.yul\":18332:18336   */\n      0x732e000000000000000000000000000000000000000000000000000000000000\n        /* \"#utility.yul\":18327:18329   */\n      0x20\n        /* \"#utility.yul\":18319:18325   */\n      dup3\n        /* \"#utility.yul\":18315:18330   */\n      add\n        /* \"#utility.yul\":18308:18337   */\n      mstore\n        /* \"#utility.yul\":18123:18344   */\n      pop\n      jump\t// out\n        /* \"#utility.yul\":18350:18716   */\n    tag_341:\n        /* \"#utility.yul\":18492:18495   */\n      0x00\n        /* \"#utility.yul\":18513:18580   */\n      tag_532\n        /* \"#utility.yul\":18577:18579   */\n      0x22\n        /* \"#utility.yul\":18572:18575   */\n      dup4\n        /* \"#utility.yul\":18513:18580   */\n      tag_324\n      jump\t// in\n    tag_532:\n        /* \"#utility.yul\":18506:18580   */\n      swap2\n      pop\n        /* \"#utility.yul\":18589:18682   */\n      tag_533\n        /* \"#utility.yul\":18678:18681   */\n      dup3\n        /* \"#utility.yul\":18589:18682   */\n      tag_340\n      jump\t// in\n    tag_533:\n        /* \"#utility.yul\":18707:18709   */\n      0x40\n        /* \"#utility.yul\":18702:18705   */\n      dup3\n        /* \"#utility.yul\":18698:18710   */\n      add\n        /* \"#utility.yul\":18691:18710   */\n      swap1\n      pop\n        /* \"#utility.yul\":18350:18716   */\n      swap2\n      swap1\n      pop\n      jump\t// out\n        /* \"#utility.yul\":18722:19141   */\n    tag_185:\n        /* \"#utility.yul\":18888:18892   */\n      0x00\n        /* \"#utility.yul\":18926:18928   */\n      0x20\n        /* \"#utility.yul\":18915:18924   */\n      dup3\n        /* \"#utility.yul\":18911:18929   */\n      add\n        /* \"#utility.yul\":18903:18929   */\n      swap1\n      pop\n        /* \"#utility.yul\":18975:18984   */\n      dup2\n        /* \"#utility.yul\":18969:18973   */\n      dup2\n        /* \"#utility.yul\":18965:18985   */\n      sub\n        /* \"#utility.yul\":18961:18962   */\n      0x00\n        /* \"#utility.yul\":18950:18959   */\n      dup4\n        /* \"#utility.yul\":18946:18963   */\n      add\n        /* \"#utility.yul\":18939:18986   */\n      mstore\n        /* \"#utility.yul\":19003:19134   */\n      tag_535\n        /* \"#utility.yul\":19129:19133   */\n      dup2\n        /* \"#utility.yul\":19003:19134   */\n      tag_341\n      jump\t// in\n    tag_535:\n        /* \"#utility.yul\":18995:19134   */\n      swap1\n      pop\n        /* \"#utility.yul\":18722:19141   */\n      swap2\n      swap1\n      pop\n      jump\t// out\n        /* \"#utility.yul\":19147:19375   */\n    tag_342:\n        /* \"#utility.yul\":19287:19321   */\n      0x4163636f756e742069732066726f7a656e2c2063616e6e6f7420776974686472\n        /* \"#utility.yul\":19283:19284   */\n      0x00\n        /* \"#utility.yul\":19275:19281   */\n      dup3\n        /* \"#utility.yul\":19271:19285   */\n      add\n        /* \"#utility.yul\":19264:19322   */\n      mstore\n        /* \"#utility.yul\":19356:19367   */\n      0x61772066756e64732e0000000000000000000000000000000000000000000000\n        /* \"#utility.yul\":19351:19353   */\n      0x20\n        /* \"#utility.yul\":19343:19349   */\n      dup3\n        /* \"#utility.yul\":19339:19354   */\n      add\n        /* \"#utility.yul\":19332:19368   */\n      mstore\n        /* \"#utility.yul\":19147:19375   */\n      pop\n      jump\t// out\n        /* \"#utility.yul\":19381:19747   */\n    tag_343:\n        /* \"#utility.yul\":19523:19526   */\n      0x00\n        /* \"#utility.yul\":19544:19611   */\n      tag_538\n        /* \"#utility.yul\":19608:19610   */\n      0x29\n        /* \"#utility.yul\":19603:19606   */\n      dup4\n        /* \"#utility.yul\":19544:19611   */\n      tag_324\n      jump\t// in\n    tag_538:\n        /* \"#utility.yul\":19537:19611   */\n      swap2\n      pop\n        /* \"#utility.yul\":19620:19713   */\n      tag_539\n        /* \"#utility.yul\":19709:19712   */\n      dup3\n        /* \"#utility.yul\":19620:19713   */\n      tag_342\n      jump\t// in\n    tag_539:\n        /* \"#utility.yul\":19738:19740   */\n      0x40\n        /* \"#utility.yul\":19733:19736   */\n      dup3\n        /* \"#utility.yul\":19729:19741   */\n      add\n        /* \"#utility.yul\":19722:19741   */\n      swap1\n      pop\n        /* \"#utility.yul\":19381:19747   */\n      swap2\n      swap1\n      pop\n      jump\t// out\n        /* \"#utility.yul\":19753:20172   */\n    tag_188:\n        /* \"#utility.yul\":19919:19923   */\n      0x00\n        /* \"#utility.yul\":19957:19959   */\n      0x20\n        /* \"#utility.yul\":19946:19955   */\n      dup3\n        /* \"#utility.yul\":19942:19960   */\n      add\n        /* \"#utility.yul\":19934:19960   */\n      swap1\n      pop\n        /* \"#utility.yul\":20006:20015   */\n      dup2\n        /* \"#utility.yul\":20000:20004   */\n      dup2\n        /* \"#utility.yul\":19996:20016   */\n      sub\n        /* \"#utility.yul\":19992:19993   */\n      0x00\n        /* \"#utility.yul\":19981:19990   */\n      dup4\n        /* \"#utility.yul\":19977:19994   */\n      add\n        /* \"#utility.yul\":19970:20017   */\n      mstore\n        /* \"#utility.yul\":20034:20165   */\n      tag_541\n        /* \"#utility.yul\":20160:20164   */\n      dup2\n        /* \"#utility.yul\":20034:20165   */\n      tag_343\n      jump\t// in\n    tag_541:\n        /* \"#utility.yul\":20026:20165   */\n      swap1\n      pop\n        /* \"#utility.yul\":19753:20172   */\n      swap2\n      swap1\n      pop\n      jump\t// out\n        /* \"#utility.yul\":20178:20359   */\n    tag_344:\n        /* \"#utility.yul\":20318:20351   */\n      0x546865726520617265206e6f2066756e647320746f2077697468647261772e00\n        /* \"#utility.yul\":20314:20315   */\n      0x00\n        /* \"#utility.yul\":20306:20312   */\n      dup3\n        /* \"#utility.yul\":20302:20316   */\n      add\n        /* \"#utility.yul\":20295:20352   */\n      mstore\n        /* \"#utility.yul\":20178:20359   */\n      pop\n      jump\t// out\n        /* \"#utility.yul\":20365:20731   */\n    tag_345:\n        /* \"#utility.yul\":20507:20510   */\n      0x00\n        /* \"#utility.yul\":20528:20595   */\n      tag_544\n        /* \"#utility.yul\":20592:20594   */\n      0x1f\n        /* \"#utility.yul\":20587:20590   */\n      dup4\n        /* \"#utility.yul\":20528:20595   */\n      tag_324\n      jump\t// in\n    tag_544:\n        /* \"#utility.yul\":20521:20595   */\n      swap2\n      pop\n        /* \"#utility.yul\":20604:20697   */\n      tag_545\n        /* \"#utility.yul\":20693:20696   */\n      dup3\n        /* \"#utility.yul\":20604:20697   */\n      tag_344\n      jump\t// in\n    tag_545:\n        /* \"#utility.yul\":20722:20724   */\n      0x20\n        /* \"#utility.yul\":20717:20720   */\n      dup3\n        /* \"#utility.yul\":20713:20725   */\n      add\n        /* \"#utility.yul\":20706:20725   */\n      swap1\n      pop\n        /* \"#utility.yul\":20365:20731   */\n      swap2\n      swap1\n      pop\n      jump\t// out\n        /* \"#utility.yul\":20737:21156   */\n    tag_191:\n        /* \"#utility.yul\":20903:20907   */\n      0x00\n        /* \"#utility.yul\":20941:20943   */\n      0x20\n        /* \"#utility.yul\":20930:20939   */\n      dup3\n        /* \"#utility.yul\":20926:20944   */\n      add\n        /* \"#utility.yul\":20918:20944   */\n      swap1\n      pop\n        /* \"#utility.yul\":20990:20999   */\n      dup2\n        /* \"#utility.yul\":20984:20988   */\n      dup2\n        /* \"#utility.yul\":20980:21000   */\n      sub\n        /* \"#utility.yul\":20976:20977   */\n      0x00\n        /* \"#utility.yul\":20965:20974   */\n      dup4\n        /* \"#utility.yul\":20961:20978   */\n      add\n        /* \"#utility.yul\":20954:21001   */\n      mstore\n        /* \"#utility.yul\":21018:21149   */\n      tag_547\n        /* \"#utility.yul\":21144:21148   */\n      dup2\n        /* \"#utility.yul\":21018:21149   */\n      tag_345\n      jump\t// in\n    tag_547:\n        /* \"#utility.yul\":21010:21149   */\n      swap1\n      pop\n        /* \"#utility.yul\":20737:21156   */\n      swap2\n      swap1\n      pop\n      jump\t// out\n        /* \"#utility.yul\":21162:21331   */\n    tag_346:\n        /* \"#utility.yul\":21302:21323   */\n      0x496e73756666696369656e742066756e64732e00000000000000000000000000\n        /* \"#utility.yul\":21298:21299   */\n      0x00\n        /* \"#utility.yul\":21290:21296   */\n      dup3\n        /* \"#utility.yul\":21286:21300   */\n      add\n        /* \"#utility.yul\":21279:21324   */\n      mstore\n        /* \"#utility.yul\":21162:21331   */\n      pop\n      jump\t// out\n        /* \"#utility.yul\":21337:21703   */\n    tag_347:\n        /* \"#utility.yul\":21479:21482   */\n      0x00\n        /* \"#utility.yul\":21500:21567   */\n      tag_550\n        /* \"#utility.yul\":21564:21566   */\n      0x13\n        /* \"#utility.yul\":21559:21562   */\n      dup4\n        /* \"#utility.yul\":21500:21567   */\n      tag_324\n      jump\t// in\n    tag_550:\n        /* \"#utility.yul\":21493:21567   */\n      swap2\n      pop\n        /* \"#utility.yul\":21576:21669   */\n      tag_551\n        /* \"#utility.yul\":21665:21668   */\n      dup3\n        /* \"#utility.yul\":21576:21669   */\n      tag_346\n      jump\t// in\n    tag_551:\n        /* \"#utility.yul\":21694:21696   */\n      0x20\n        /* \"#utility.yul\":21689:21692   */\n      dup3\n        /* \"#utility.yul\":21685:21697   */\n      add\n        /* \"#utility.yul\":21678:21697   */\n      swap1\n      pop\n        /* \"#utility.yul\":21337:21703   */\n      swap2\n      swap1\n      pop\n      jump\t// out\n        /* \"#utility.yul\":21709:22128   */\n    tag_194:\n        /* \"#utility.yul\":21875:21879   */\n      0x00\n        /* \"#utility.yul\":21913:21915   */\n      0x20\n        /* \"#utility.yul\":21902:21911   */\n      dup3\n        /* \"#utility.yul\":21898:21916   */\n      add\n        /* \"#utility.yul\":21890:21916   */\n      swap1\n      pop\n        /* \"#utility.yul\":21962:21971   */\n      dup2\n        /* \"#utility.yul\":21956:21960   */\n      dup2\n        /* \"#utility.yul\":21952:21972   */\n      sub\n        /* \"#utility.yul\":21948:21949   */\n      0x00\n        /* \"#utility.yul\":21937:21946   */\n      dup4\n        /* \"#utility.yul\":21933:21950   */\n      add\n        /* \"#utility.yul\":21926:21973   */\n      mstore\n        /* \"#utility.yul\":21990:22121   */\n      tag_553\n        /* \"#utility.yul\":22116:22120   */\n      dup2\n        /* \"#utility.yul\":21990:22121   */\n      tag_347\n      jump\t// in\n    tag_553:\n        /* \"#utility.yul\":21982:22121   */\n      swap1\n      pop\n        /* \"#utility.yul\":21709:22128   */\n      swap2\n      swap1\n      pop\n      jump\t// out\n        /* \"#utility.yul\":22134:22316   */\n    tag_348:\n        /* \"#utility.yul\":22274:22308   */\n      0x4f6e6c7920746865206f776e65722063616e2073746f70206120636c61696d2e\n        /* \"#utility.yul\":22270:22271   */\n      0x00\n        /* \"#utility.yul\":22262:22268   */\n      dup3\n        /* \"#utility.yul\":22258:22272   */\n      add\n        /* \"#utility.yul\":22251:22309   */\n      mstore\n        /* \"#utility.yul\":22134:22316   */\n      pop\n      jump\t// out\n        /* \"#utility.yul\":22322:22688   */\n    tag_349:\n        /* \"#utility.yul\":22464:22467   */\n      0x00\n        /* \"#utility.yul\":22485:22552   */\n      tag_556\n        /* \"#utility.yul\":22549:22551   */\n      0x20\n        /* \"#utility.yul\":22544:22547   */\n      dup4\n        /* \"#utility.yul\":22485:22552   */\n      tag_324\n      jump\t// in\n    tag_556:\n        /* \"#utility.yul\":22478:22552   */\n      swap2\n      pop\n        /* \"#utility.yul\":22561:22654   */\n      tag_557\n        /* \"#utility.yul\":22650:22653   */\n      dup3\n        /* \"#utility.yul\":22561:22654   */\n      tag_348\n      jump\t// in\n    tag_557:\n        /* \"#utility.yul\":22679:22681   */\n      0x20\n        /* \"#utility.yul\":22674:22677   */\n      dup3\n        /* \"#utility.yul\":22670:22682   */\n      add\n        /* \"#utility.yul\":22663:22682   */\n      swap1\n      pop\n        /* \"#utility.yul\":22322:22688   */\n      swap2\n      swap1\n      pop\n      jump\t// out\n        /* \"#utility.yul\":22694:23113   */\n    tag_210:\n        /* \"#utility.yul\":22860:22864   */\n      0x00\n        /* \"#utility.yul\":22898:22900   */\n      0x20\n        /* \"#utility.yul\":22887:22896   */\n      dup3\n        /* \"#utility.yul\":22883:22901   */\n      add\n        /* \"#utility.yul\":22875:22901   */\n      swap1\n      pop\n        /* \"#utility.yul\":22947:22956   */\n      dup2\n        /* \"#utility.yul\":22941:22945   */\n      dup2\n        /* \"#utility.yul\":22937:22957   */\n      sub\n        /* \"#utility.yul\":22933:22934   */\n      0x00\n        /* \"#utility.yul\":22922:22931   */\n      dup4\n        /* \"#utility.yul\":22918:22935   */\n      add\n        /* \"#utility.yul\":22911:22958   */\n      mstore\n        /* \"#utility.yul\":22975:23106   */\n      tag_559\n        /* \"#utility.yul\":23101:23105   */\n      dup2\n        /* \"#utility.yul\":22975:23106   */\n      tag_349\n      jump\t// in\n    tag_559:\n        /* \"#utility.yul\":22967:23106   */\n      swap1\n      pop\n        /* \"#utility.yul\":22694:23113   */\n      swap2\n      swap1\n      pop\n      jump\t// out\n        /* \"#utility.yul\":23119:23339   */\n    tag_350:\n        /* \"#utility.yul\":23259:23293   */\n      0x5468657265206973206e6f2061637469766520636c61696d20746f2073746f70\n        /* \"#utility.yul\":23255:23256   */\n      0x00\n        /* \"#utility.yul\":23247:23253   */\n      dup3\n        /* \"#utility.yul\":23243:23257   */\n      add\n        /* \"#utility.yul\":23236:23294   */\n      mstore\n        /* \"#utility.yul\":23328:23331   */\n      0x2e00000000000000000000000000000000000000000000000000000000000000\n        /* \"#utility.yul\":23323:23325   */\n      0x20\n        /* \"#utility.yul\":23315:23321   */\n      dup3\n        /* \"#utility.yul\":23311:23326   */\n      add\n        /* \"#utility.yul\":23304:23332   */\n      mstore\n        /* \"#utility.yul\":23119:23339   */\n      pop\n      jump\t// out\n        /* \"#utility.yul\":23345:23711   */\n    tag_351:\n        /* \"#utility.yul\":23487:23490   */\n      0x00\n        /* \"#utility.yul\":23508:23575   */\n      tag_562\n        /* \"#utility.yul\":23572:23574   */\n      0x21\n        /* \"#utility.yul\":23567:23570   */\n      dup4\n        /* \"#utility.yul\":23508:23575   */\n      tag_324\n      jump\t// in\n    tag_562:\n        /* \"#utility.yul\":23501:23575   */\n      swap2\n      pop\n        /* \"#utility.yul\":23584:23677   */\n      tag_563\n        /* \"#utility.yul\":23673:23676   */\n      dup3\n        /* \"#utility.yul\":23584:23677   */\n      tag_350\n      jump\t// in\n    tag_563:\n        /* \"#utility.yul\":23702:23704   */\n      0x40\n        /* \"#utility.yul\":23697:23700   */\n      dup3\n        /* \"#utility.yul\":23693:23705   */\n      add\n        /* \"#utility.yul\":23686:23705   */\n      swap1\n      pop\n        /* \"#utility.yul\":23345:23711   */\n      swap2\n      swap1\n      pop\n      jump\t// out\n        /* \"#utility.yul\":23717:24136   */\n    tag_213:\n        /* \"#utility.yul\":23883:23887   */\n      0x00\n        /* \"#utility.yul\":23921:23923   */\n      0x20\n        /* \"#utility.yul\":23910:23919   */\n      dup3\n        /* \"#utility.yul\":23906:23924   */\n      add\n        /* \"#utility.yul\":23898:23924   */\n      swap1\n      pop\n        /* \"#utility.yul\":23970:23979   */\n      dup2\n        /* \"#utility.yul\":23964:23968   */\n      dup2\n        /* \"#utility.yul\":23960:23980   */\n      sub\n        /* \"#utility.yul\":23956:23957   */\n      0x00\n        /* \"#utility.yul\":23945:23954   */\n      dup4\n        /* \"#utility.yul\":23941:23958   */\n      add\n        /* \"#utility.yul\":23934:23981   */\n      mstore\n        /* \"#utility.yul\":23998:24129   */\n      tag_565\n        /* \"#utility.yul\":24124:24128   */\n      dup2\n        /* \"#utility.yul\":23998:24129   */\n      tag_351\n      jump\t// in\n    tag_565:\n        /* \"#utility.yul\":23990:24129   */\n      swap1\n      pop\n        /* \"#utility.yul\":23717:24136   */\n      swap2\n      swap1\n      pop\n      jump\t// out\n        /* \"#utility.yul\":24142:24363   */\n    tag_352:\n        /* \"#utility.yul\":24282:24316   */\n      0x4f6e6c7920746865206f776e65722063616e207472616e736665722066756e64\n        /* \"#utility.yul\":24278:24279   */\n      0x00\n        /* \"#utility.yul\":24270:24276   */\n      dup3\n        /* \"#utility.yul\":24266:24280   */\n      add\n        /* \"#utility.yul\":24259:24317   */\n      mstore\n        /* \"#utility.yul\":24351:24355   */\n      0x732e000000000000000000000000000000000000000000000000000000000000\n        /* \"#utility.yul\":24346:24348   */\n      0x20\n        /* \"#utility.yul\":24338:24344   */\n      dup3\n        /* \"#utility.yul\":24334:24349   */\n      add\n        /* \"#utility.yul\":24327:24356   */\n      mstore\n        /* \"#utility.yul\":24142:24363   */\n      pop\n      jump\t// out\n        /* \"#utility.yul\":24369:24735   */\n    tag_353:\n        /* \"#utility.yul\":24511:24514   */\n      0x00\n        /* \"#utility.yul\":24532:24599   */\n      tag_568\n        /* \"#utility.yul\":24596:24598   */\n      0x22\n        /* \"#utility.yul\":24591:24594   */\n      dup4\n        /* \"#utility.yul\":24532:24599   */\n      tag_324\n      jump\t// in\n    tag_568:\n        /* \"#utility.yul\":24525:24599   */\n      swap2\n      pop\n        /* \"#utility.yul\":24608:24701   */\n      tag_569\n        /* \"#utility.yul\":24697:24700   */\n      dup3\n        /* \"#utility.yul\":24608:24701   */\n      tag_352\n      jump\t// in\n    tag_569:\n        /* \"#utility.yul\":24726:24728   */\n      0x40\n        /* \"#utility.yul\":24721:24724   */\n      dup3\n        /* \"#utility.yul\":24717:24729   */\n      add\n        /* \"#utility.yul\":24710:24729   */\n      swap1\n      pop\n        /* \"#utility.yul\":24369:24735   */\n      swap2\n      swap1\n      pop\n      jump\t// out\n        /* \"#utility.yul\":24741:25160   */\n    tag_217:\n        /* \"#utility.yul\":24907:24911   */\n      0x00\n        /* \"#utility.yul\":24945:24947   */\n      0x20\n        /* \"#utility.yul\":24934:24943   */\n      dup3\n        /* \"#utility.yul\":24930:24948   */\n      add\n        /* \"#utility.yul\":24922:24948   */\n      swap1\n      pop\n        /* \"#utility.yul\":24994:25003   */\n      dup2\n        /* \"#utility.yul\":24988:24992   */\n      dup2\n        /* \"#utility.yul\":24984:25004   */\n      sub\n        /* \"#utility.yul\":24980:24981   */\n      0x00\n        /* \"#utility.yul\":24969:24978   */\n      dup4\n        /* \"#utility.yul\":24965:24982   */\n      add\n        /* \"#utility.yul\":24958:25005   */\n      mstore\n        /* \"#utility.yul\":25022:25153   */\n      tag_571\n        /* \"#utility.yul\":25148:25152   */\n      dup2\n        /* \"#utility.yul\":25022:25153   */\n      tag_353\n      jump\t// in\n    tag_571:\n        /* \"#utility.yul\":25014:25153   */\n      swap1\n      pop\n        /* \"#utility.yul\":24741:25160   */\n      swap2\n      swap1\n      pop\n      jump\t// out\n        /* \"#utility.yul\":25166:25300   */\n    tag_354:\n        /* \"#utility.yul\":25224:25233   */\n      0x00\n        /* \"#utility.yul\":25257:25294   */\n      tag_573\n        /* \"#utility.yul\":25288:25293   */\n      dup3\n        /* \"#utility.yul\":25257:25294   */\n      tag_320\n      jump\t// in\n    tag_573:\n        /* \"#utility.yul\":25244:25294   */\n      swap1\n      pop\n        /* \"#utility.yul\":25166:25300   */\n      swap2\n      swap1\n      pop\n      jump\t// out\n        /* \"#utility.yul\":25306:25453   */\n    tag_355:\n        /* \"#utility.yul\":25401:25446   */\n      tag_575\n        /* \"#utility.yul\":25440:25445   */\n      dup2\n        /* \"#utility.yul\":25401:25446   */\n      tag_354\n      jump\t// in\n    tag_575:\n        /* \"#utility.yul\":25396:25399   */\n      dup3\n        /* \"#utility.yul\":25389:25447   */\n      mstore\n        /* \"#utility.yul\":25306:25453   */\n      pop\n      pop\n      jump\t// out\n        /* \"#utility.yul\":25459:25807   */\n    tag_254:\n        /* \"#utility.yul\":25588:25592   */\n      0x00\n        /* \"#utility.yul\":25626:25628   */\n      0x40\n        /* \"#utility.yul\":25615:25624   */\n      dup3\n        /* \"#utility.yul\":25611:25629   */\n      add\n        /* \"#utility.yul\":25603:25629   */\n      swap1\n      pop\n        /* \"#utility.yul\":25639:25718   */\n      tag_577\n        /* \"#utility.yul\":25715:25716   */\n      0x00\n        /* \"#utility.yul\":25704:25713   */\n      dup4\n        /* \"#utility.yul\":25700:25717   */\n      add\n        /* \"#utility.yul\":25691:25697   */\n      dup6\n        /* \"#utility.yul\":25639:25718   */\n      tag_355\n      jump\t// in\n    tag_577:\n        /* \"#utility.yul\":25728:25800   */\n      tag_578\n        /* \"#utility.yul\":25796:25798   */\n      0x20\n        /* \"#utility.yul\":25785:25794   */\n      dup4\n        /* \"#utility.yul\":25781:25799   */\n      add\n        /* \"#utility.yul\":25772:25778   */\n      dup5\n        /* \"#utility.yul\":25728:25800   */\n      tag_310\n      jump\t// in\n    tag_578:\n        /* \"#utility.yul\":25459:25807   */\n      swap4\n      swap3\n      pop\n      pop\n      pop\n      jump\t// out\n        /* \"#utility.yul\":25813:25950   */\n    tag_356:\n        /* \"#utility.yul\":25867:25872   */\n      0x00\n        /* \"#utility.yul\":25898:25904   */\n      dup2\n        /* \"#utility.yul\":25892:25905   */\n      mload\n        /* \"#utility.yul\":25883:25905   */\n      swap1\n      pop\n        /* \"#utility.yul\":25914:25944   */\n      tag_580\n        /* \"#utility.yul\":25938:25943   */\n      dup2\n        /* \"#utility.yul\":25914:25944   */\n      tag_303\n      jump\t// in\n    tag_580:\n        /* \"#utility.yul\":25813:25950   */\n      swap3\n      swap2\n      pop\n      pop\n      jump\t// out\n        /* \"#utility.yul\":25956:26301   */\n    tag_258:\n        /* \"#utility.yul\":26023:26029   */\n      0x00\n        /* \"#utility.yul\":26072:26074   */\n      0x20\n        /* \"#utility.yul\":26060:26069   */\n      dup3\n        /* \"#utility.yul\":26051:26058   */\n      dup5\n        /* \"#utility.yul\":26047:26070   */\n      sub\n        /* \"#utility.yul\":26043:26075   */\n      slt\n        /* \"#utility.yul\":26040:26159   */\n      iszero\n      tag_582\n      jumpi\n        /* \"#utility.yul\":26078:26157   */\n      tag_583\n      tag_301\n      jump\t// in\n    tag_583:\n        /* \"#utility.yul\":26040:26159   */\n    tag_582:\n        /* \"#utility.yul\":26198:26199   */\n      0x00\n        /* \"#utility.yul\":26223:26284   */\n      tag_584\n        /* \"#utility.yul\":26276:26283   */\n      dup5\n        /* \"#utility.yul\":26267:26273   */\n      dup3\n        /* \"#utility.yul\":26256:26265   */\n      dup6\n        /* \"#utility.yul\":26252:26274   */\n      add\n        /* \"#utility.yul\":26223:26284   */\n      tag_356\n      jump\t// in\n    tag_584:\n        /* \"#utility.yul\":26213:26284   */\n      swap2\n      pop\n        /* \"#utility.yul\":26169:26294   */\n      pop\n        /* \"#utility.yul\":25956:26301   */\n      swap3\n      swap2\n      pop\n      pop\n      jump\t// out\n        /* \"#utility.yul\":26307:26539   */\n    tag_357:\n        /* \"#utility.yul\":26447:26481   */\n      0x4f6e6c792074686520686569722063616e20696e697469617465207468652063\n        /* \"#utility.yul\":26443:26444   */\n      0x00\n        /* \"#utility.yul\":26435:26441   */\n      dup3\n        /* \"#utility.yul\":26431:26445   */\n      add\n        /* \"#utility.yul\":26424:26482   */\n      mstore\n        /* \"#utility.yul\":26516:26531   */\n      0x6c61696d2070726f636573732e00000000000000000000000000000000000000\n        /* \"#utility.yul\":26511:26513   */\n      0x20\n        /* \"#utility.yul\":26503:26509   */\n      dup3\n        /* \"#utility.yul\":26499:26514   */\n      add\n        /* \"#utility.yul\":26492:26532   */\n      mstore\n        /* \"#utility.yul\":26307:26539   */\n      pop\n      jump\t// out\n        /* \"#utility.yul\":26545:26911   */\n    tag_358:\n        /* \"#utility.yul\":26687:26690   */\n      0x00\n        /* \"#utility.yul\":26708:26775   */\n      tag_587\n        /* \"#utility.yul\":26772:26774   */\n      0x2d\n        /* \"#utility.yul\":26767:26770   */\n      dup4\n        /* \"#utility.yul\":26708:26775   */\n      tag_324\n      jump\t// in\n    tag_587:\n        /* \"#utility.yul\":26701:26775   */\n      swap2\n      pop\n        /* \"#utility.yul\":26784:26877   */\n      tag_588\n        /* \"#utility.yul\":26873:26876   */\n      dup3\n        /* \"#utility.yul\":26784:26877   */\n      tag_357\n      jump\t// in\n    tag_588:\n        /* \"#utility.yul\":26902:26904   */\n      0x40\n        /* \"#utility.yul\":26897:26900   */\n      dup3\n        /* \"#utility.yul\":26893:26905   */\n      add\n        /* \"#utility.yul\":26886:26905   */\n      swap1\n      pop\n        /* \"#utility.yul\":26545:26911   */\n      swap2\n      swap1\n      pop\n      jump\t// out\n        /* \"#utility.yul\":26917:27336   */\n    tag_286:\n        /* \"#utility.yul\":27083:27087   */\n      0x00\n        /* \"#utility.yul\":27121:27123   */\n      0x20\n        /* \"#utility.yul\":27110:27119   */\n      dup3\n        /* \"#utility.yul\":27106:27124   */\n      add\n        /* \"#utility.yul\":27098:27124   */\n      swap1\n      pop\n        /* \"#utility.yul\":27170:27179   */\n      dup2\n        /* \"#utility.yul\":27164:27168   */\n      dup2\n        /* \"#utility.yul\":27160:27180   */\n      sub\n        /* \"#utility.yul\":27156:27157   */\n      0x00\n        /* \"#utility.yul\":27145:27154   */\n      dup4\n        /* \"#utility.yul\":27141:27158   */\n      add\n        /* \"#utility.yul\":27134:27181   */\n      mstore\n        /* \"#utility.yul\":27198:27329   */\n      tag_590\n        /* \"#utility.yul\":27324:27328   */\n      dup2\n        /* \"#utility.yul\":27198:27329   */\n      tag_358\n      jump\t// in\n    tag_590:\n        /* \"#utility.yul\":27190:27329   */\n      swap1\n      pop\n        /* \"#utility.yul\":26917:27336   */\n      swap2\n      swap1\n      pop\n      jump\t// out\n        /* \"#utility.yul\":27342:27566   */\n    tag_359:\n        /* \"#utility.yul\":27482:27516   */\n      0x436c61696d2070726f6365737320697320616c726561647920696e2070726f67\n        /* \"#utility.yul\":27478:27479   */\n      0x00\n        /* \"#utility.yul\":27470:27476   */\n      dup3\n        /* \"#utility.yul\":27466:27480   */\n      add\n        /* \"#utility.yul\":27459:27517   */\n      mstore\n        /* \"#utility.yul\":27551:27558   */\n      0x726573732e000000000000000000000000000000000000000000000000000000\n        /* \"#utility.yul\":27546:27548   */\n      0x20\n        /* \"#utility.yul\":27538:27544   */\n      dup3\n        /* \"#utility.yul\":27534:27549   */\n      add\n        /* \"#utility.yul\":27527:27559   */\n      mstore\n        /* \"#utility.yul\":27342:27566   */\n      pop\n      jump\t// out\n        /* \"#utility.yul\":27572:27938   */\n    tag_360:\n        /* \"#utility.yul\":27714:27717   */\n      0x00\n        /* \"#utility.yul\":27735:27802   */\n      tag_593\n        /* \"#utility.yul\":27799:27801   */\n      0x25\n        /* \"#utility.yul\":27794:27797   */\n      dup4\n        /* \"#utility.yul\":27735:27802   */\n      tag_324\n      jump\t// in\n    tag_593:\n        /* \"#utility.yul\":27728:27802   */\n      swap2\n      pop\n        /* \"#utility.yul\":27811:27904   */\n      tag_594\n        /* \"#utility.yul\":27900:27903   */\n      dup3\n        /* \"#utility.yul\":27811:27904   */\n      tag_359\n      jump\t// in\n    tag_594:\n        /* \"#utility.yul\":27929:27931   */\n      0x40\n        /* \"#utility.yul\":27924:27927   */\n      dup3\n        /* \"#utility.yul\":27920:27932   */\n      add\n        /* \"#utility.yul\":27913:27932   */\n      swap1\n      pop\n        /* \"#utility.yul\":27572:27938   */\n      swap2\n      swap1\n      pop\n      jump\t// out\n        /* \"#utility.yul\":27944:28363   */\n    tag_289:\n        /* \"#utility.yul\":28110:28114   */\n      0x00\n        /* \"#utility.yul\":28148:28150   */\n      0x20\n        /* \"#utility.yul\":28137:28146   */\n      dup3\n        /* \"#utility.yul\":28133:28151   */\n      add\n        /* \"#utility.yul\":28125:28151   */\n      swap1\n      pop\n        /* \"#utility.yul\":28197:28206   */\n      dup2\n        /* \"#utility.yul\":28191:28195   */\n      dup2\n        /* \"#utility.yul\":28187:28207   */\n      sub\n        /* \"#utility.yul\":28183:28184   */\n      0x00\n        /* \"#utility.yul\":28172:28181   */\n      dup4\n        /* \"#utility.yul\":28168:28185   */\n      add\n        /* \"#utility.yul\":28161:28208   */\n      mstore\n        /* \"#utility.yul\":28225:28356   */\n      tag_596\n        /* \"#utility.yul\":28351:28355   */\n      dup2\n        /* \"#utility.yul\":28225:28356   */\n      tag_360\n      jump\t// in\n    tag_596:\n        /* \"#utility.yul\":28217:28356   */\n      swap1\n      pop\n        /* \"#utility.yul\":27944:28363   */\n      swap2\n      swap1\n      pop\n      jump\t// out\n        /* \"#utility.yul\":28369:28549   */\n    tag_361:\n        /* \"#utility.yul\":28417:28494   */\n      0x4e487b7100000000000000000000000000000000000000000000000000000000\n        /* \"#utility.yul\":28414:28415   */\n      0x00\n        /* \"#utility.yul\":28407:28495   */\n      mstore\n        /* \"#utility.yul\":28514:28518   */\n      0x12\n        /* \"#utility.yul\":28511:28512   */\n      0x04\n        /* \"#utility.yul\":28504:28519   */\n      mstore\n        /* \"#utility.yul\":28538:28542   */\n      0x24\n        /* \"#utility.yul\":28535:28536   */\n      0x00\n        /* \"#utility.yul\":28528:28543   */\n      revert\n        /* \"#utility.yul\":28555:28740   */\n    tag_294:\n        /* \"#utility.yul\":28595:28596   */\n      0x00\n        /* \"#utility.yul\":28612:28632   */\n      tag_599\n        /* \"#utility.yul\":28630:28631   */\n      dup3\n        /* \"#utility.yul\":28612:28632   */\n      tag_309\n      jump\t// in\n    tag_599:\n        /* \"#utility.yul\":28607:28632   */\n      swap2\n      pop\n        /* \"#utility.yul\":28646:28666   */\n      tag_600\n        /* \"#utility.yul\":28664:28665   */\n      dup4\n        /* \"#utility.yul\":28646:28666   */\n      tag_309\n      jump\t// in\n    tag_600:\n        /* \"#utility.yul\":28641:28666   */\n      swap3\n      pop\n        /* \"#utility.yul\":28685:28686   */\n      dup3\n        /* \"#utility.yul\":28675:28710   */\n      tag_601\n      jumpi\n        /* \"#utility.yul\":28690:28708   */\n      tag_602\n      tag_361\n      jump\t// in\n    tag_602:\n        /* \"#utility.yul\":28675:28710   */\n    tag_601:\n        /* \"#utility.yul\":28732:28733   */\n      dup3\n        /* \"#utility.yul\":28729:28730   */\n      dup3\n        /* \"#utility.yul\":28725:28734   */\n      div\n        /* \"#utility.yul\":28720:28734   */\n      swap1\n      pop\n        /* \"#utility.yul\":28555:28740   */\n      swap3\n      swap2\n      pop\n      pop\n      jump\t// out\n        /* \"#utility.yul\":28746:28940   */\n    tag_297:\n        /* \"#utility.yul\":28786:28790   */\n      0x00\n        /* \"#utility.yul\":28806:28826   */\n      tag_604\n        /* \"#utility.yul\":28824:28825   */\n      dup3\n        /* \"#utility.yul\":28806:28826   */\n      tag_309\n      jump\t// in\n    tag_604:\n        /* \"#utility.yul\":28801:28826   */\n      swap2\n      pop\n        /* \"#utility.yul\":28840:28860   */\n      tag_605\n        /* \"#utility.yul\":28858:28859   */\n      dup4\n        /* \"#utility.yul\":28840:28860   */\n      tag_309\n      jump\t// in\n    tag_605:\n        /* \"#utility.yul\":28835:28860   */\n      swap3\n      pop\n        /* \"#utility.yul\":28884:28885   */\n      dup3\n        /* \"#utility.yul\":28881:28882   */\n      dup3\n        /* \"#utility.yul\":28877:28886   */\n      sub\n        /* \"#utility.yul\":28869:28886   */\n      swap1\n      pop\n        /* \"#utility.yul\":28908:28909   */\n      dup2\n        /* \"#utility.yul\":28902:28906   */\n      dup2\n        /* \"#utility.yul\":28899:28910   */\n      gt\n        /* \"#utility.yul\":28896:28933   */\n      iszero\n      tag_606\n      jumpi\n        /* \"#utility.yul\":28913:28931   */\n      tag_607\n      tag_329\n      jump\t// in\n    tag_607:\n        /* \"#utility.yul\":28896:28933   */\n    tag_606:\n        /* \"#utility.yul\":28746:28940   */\n      swap3\n      swap2\n      pop\n      pop\n      jump\t// out\n\n    auxdata: 0xa26469706673582212203595dd94959b08b594429c20d8e71aff78504734f9c6d67146a3b6a85363792964736f6c63430008110033\n}\n",
				"bytecode": {
					"linkReferences": {},
					"object": "60806040526000600760146101000a81548160ff0219169083151502179055506000600960006101000a81548160ff0219169083151502179055503480156200004757600080fd5b5060405162002df538038062002df583398181016040528101906200006d91906200015f565b80600160006101000a81548173ffffffffffffffffffffffffffffffffffffffff021916908373ffffffffffffffffffffffffffffffffffffffff160217905550336000806101000a81548173ffffffffffffffffffffffffffffffffffffffff021916908373ffffffffffffffffffffffffffffffffffffffff1602179055505062000191565b600080fd5b600073ffffffffffffffffffffffffffffffffffffffff82169050919050565b60006200012782620000fa565b9050919050565b62000139816200011a565b81146200014557600080fd5b50565b60008151905062000159816200012e565b92915050565b600060208284031215620001785762000177620000f5565b5b6000620001888482850162000148565b91505092915050565b612c5480620001a16000396000f3fe6080604052600436106101665760003560e01c806394a927fe116100d1578063cc4aa2041161008a578063e572adbd11610064578063e572adbd146104dc578063ea4c58ff146104f8578063f2b5eea714610514578063faedd18e1461053d57610166565b8063cc4aa2041461046a578063d5f3948814610495578063dce8bcea146104c057610166565b806394a927fe146103795780639e1a4d19146103a4578063a318c1a4146103cf578063a5720770146103eb578063b7d1d98e14610416578063c7983e201461043f57610166565b806356af4f751161012357806356af4f751461027b5780636e1a7373146102a65780637a80760e146102cf5780638d1fdf2f146102fa5780638da5cb5b1461032357806391f2ebb81461034e57610166565b8063054f7d9c1461016b5780631903b431146101965780631c8ec299146101d35780631e83409a146101fe578063362bb2ac1461022757806345c8b1a614610252575b600080fd5b34801561017757600080fd5b50610180610568565b60405161018d9190611ce4565b60405180910390f35b3480156101a257600080fd5b506101bd60048036038101906101b89190611d8e565b61057b565b6040516101ca9190611de7565b60405180910390f35b3480156101df57600080fd5b506101e8610671565b6040516101f59190611de7565b60405180910390f35b34801561020a57600080fd5b5061022560048036038101906102209190611e02565b610677565b005b34801561023357600080fd5b5061023c61081c565b6040516102499190611e3e565b60405180910390f35b34801561025e57600080fd5b5061027960048036038101906102749190611e02565b610845565b005b34801561028757600080fd5b5061029061092a565b60405161029d9190611e3e565b60405180910390f35b3480156102b257600080fd5b506102cd60048036038101906102c89190611ec3565b610954565b005b3480156102db57600080fd5b506102e4610ab7565b6040516102f19190611f25565b60405180910390f35b34801561030657600080fd5b50610321600480360381019061031c9190611e02565b610add565b005b34801561032f57600080fd5b50610338610bc2565b6040516103459190611f25565b60405180910390f35b34801561035a57600080fd5b50610363610be8565b6040516103709190611f25565b60405180910390f35b34801561038557600080fd5b5061038e610c0e565b60405161039b9190611e3e565b60405180910390f35b3480156103b057600080fd5b506103b9610c38565b6040516103c69190611de7565b60405180910390f35b6103e960048036038101906103e49190611f40565b610c3e565b005b3480156103f757600080fd5b50610400610f22565b60405161040d9190611ce4565b60405180910390f35b34801561042257600080fd5b5061043d60048036038101906104389190611e02565b610f35565b005b34801561044b57600080fd5b50610454611032565b6040516104619190611de7565b60405180910390f35b34801561047657600080fd5b5061047f611038565b60405161048c9190612006565b60405180910390f35b3480156104a157600080fd5b506104aa61105e565b6040516104b79190611e3e565b60405180910390f35b6104da60048036038101906104d59190612021565b611082565b005b6104f660048036038101906104f1919061209c565b611302565b005b610512600480360381019061050d9190612117565b6117b8565b005b34801561052057600080fd5b5061053b60048036038101906105369190611e02565b611b6f565b005b34801561054957600080fd5b50610552611c74565b60405161055f9190611ce4565b60405180910390f35b600960009054906101000a900460ff1681565b6000821561058b5747905061066b565b81600760006101000a81548173ffffffffffffffffffffffffffffffffffffffff021916908373ffffffffffffffffffffffffffffffffffffffff160217905550600760009054906101000a900473ffffffffffffffffffffffffffffffffffffffff1673ffffffffffffffffffffffffffffffffffffffff166370a08231306040518263ffffffff1660e01b81526004016106279190611e3e565b602060405180830381865afa158015610644573d6000803e3d6000fd5b505050506040513d601f19601f8201168201806040525081019061066891906121b9565b90505b92915050565b60045481565b8073ffffffffffffffffffffffffffffffffffffffff16600260009054906101000a900473ffffffffffffffffffffffffffffffffffffffff1673ffffffffffffffffffffffffffffffffffffffff1614610707576040517f08c379a00000000000000000000000000000000000000000000000000000000081526004016106fe90612269565b60405180910390fd5b600260149054906101000a900460ff16610756576040517f08c379a000000000000000000000000000000000000000000000000000000000815260040161074d906122fb565b60405180910390fd5b62015180600454610767919061234a565b600354610774919061238c565b4210156107b6576040517f08c379a00000000000000000000000000000000000000000000000000000000081526004016107ad9061240c565b60405180910390fd5b600260009054906101000a900473ffffffffffffffffffffffffffffffffffffffff16600160006101000a81548173ffffffffffffffffffffffffffffffffffffffff021916908373ffffffffffffffffffffffffffffffffffffffff16021790555050565b60008060009054906101000a900473ffffffffffffffffffffffffffffffffffffffff16905090565b600160009054906101000a900473ffffffffffffffffffffffffffffffffffffffff1673ffffffffffffffffffffffffffffffffffffffff168173ffffffffffffffffffffffffffffffffffffffff16146108d5576040517f08c379a00000000000000000000000000000000000000000000000000000000081526004016108cc9061249e565b60405180910390fd5b6000600960006101000a81548160ff0219169083151502179055507fca5069937e68fd197927055037f59d7c90bf75ac104e6e375539ef480c3ad6ee8160405161091f9190611e3e565b60405180910390a150565b6000600260009054906101000a900473ffffffffffffffffffffffffffffffffffffffff16905090565b8073ffffffffffffffffffffffffffffffffffffffff16600160009054906101000a900473ffffffffffffffffffffffffffffffffffffffff1673ffffffffffffffffffffffffffffffffffffffff16146109e4576040517f08c379a00000000000000000000000000000000000000000000000000000000081526004016109db9061250a565b60405180910390fd5b600760149054906101000a900460ff1615610a34576040517f08c379a0000000000000000000000000000000000000000000000000000000008152600401610a2b9061259c565b60405180910390fd5b6001600760146101000a81548160ff02191690831515021790555082600260006101000a81548173ffffffffffffffffffffffffffffffffffffffff021916908373ffffffffffffffffffffffffffffffffffffffff160217905550816004819055506000600760146101000a81548160ff021916908315150217905550505050565b600660009054906101000a900473ffffffffffffffffffffffffffffffffffffffff1681565b600160009054906101000a900473ffffffffffffffffffffffffffffffffffffffff1673ffffffffffffffffffffffffffffffffffffffff168173ffffffffffffffffffffffffffffffffffffffff1614610b6d576040517f08c379a0000000000000000000000000000000000000000000000000000000008152600401610b649061262e565b60405180910390fd5b6001600960006101000a81548160ff0219169083151502179055507faf85b60d26151edd11443b704d424da6c43d0468f2235ebae3d1904dbc32304981604051610bb79190611e3e565b60405180910390a150565b600160009054906101000a900473ffffffffffffffffffffffffffffffffffffffff1681565b600260009054906101000a900473ffffffffffffffffffffffffffffffffffffffff1681565b6000600160009054906101000a900473ffffffffffffffffffffffffffffffffffffffff16905090565b60085481565b600160009054906101000a900473ffffffffffffffffffffffffffffffffffffffff1673ffffffffffffffffffffffffffffffffffffffff168373ffffffffffffffffffffffffffffffffffffffff1614610cce576040517f08c379a0000000000000000000000000000000000000000000000000000000008152600401610cc5906126c0565b60405180910390fd5b600960009054906101000a900460ff1615610d1e576040517f08c379a0000000000000000000000000000000000000000000000000000000008152600401610d1590612752565b60405180910390fd5b60004711610d61576040517f08c379a0000000000000000000000000000000000000000000000000000000008152600401610d58906127be565b60405180910390fd5b47841115610da4576040517f08c379a0000000000000000000000000000000000000000000000000000000008152600401610d9b9061282a565b60405180910390fd5b600760149054906101000a900460ff1615610df4576040517f08c379a0000000000000000000000000000000000000000000000000000000008152600401610deb9061259c565b60405180910390fd5b6001600760146101000a81548160ff021916908315150217905550610e356064610e278387611c8790919063ffffffff16565b611c9d90919063ffffffff16565b600581905550600160009054906101000a900473ffffffffffffffffffffffffffffffffffffffff1673ffffffffffffffffffffffffffffffffffffffff166108fc610e8c60055487611cb390919063ffffffff16565b9081150290604051600060405180830381858888f19350505050158015610eb7573d6000803e3d6000fd5b508173ffffffffffffffffffffffffffffffffffffffff166108fc6005549081150290604051600060405180830381858888f19350505050158015610f00573d6000803e3d6000fd5b506000600760146101000a81548160ff02191690831515021790555050505050565b600760149054906101000a900460ff1681565b600160009054906101000a900473ffffffffffffffffffffffffffffffffffffffff1673ffffffffffffffffffffffffffffffffffffffff168173ffffffffffffffffffffffffffffffffffffffff1614610fc5576040517f08c379a0000000000000000000000000000000000000000000000000000000008152600401610fbc90612896565b60405180910390fd5b600260149054906101000a900460ff16611014576040517f08c379a000000000000000000000000000000000000000000000000000000000815260040161100b90612928565b60405180910390fd5b6000600260146101000a81548160ff02191690831515021790555050565b60035481565b600760009054906101000a900473ffffffffffffffffffffffffffffffffffffffff1681565b60008054906101000a900473ffffffffffffffffffffffffffffffffffffffff1681565b600160009054906101000a900473ffffffffffffffffffffffffffffffffffffffff1673ffffffffffffffffffffffffffffffffffffffff168373ffffffffffffffffffffffffffffffffffffffff1614611112576040517f08c379a0000000000000000000000000000000000000000000000000000000008152600401611109906129ba565b60405180910390fd5b600960009054906101000a900460ff1615611162576040517f08c379a000000000000000000000000000000000000000000000000000000000815260040161115990612752565b60405180910390fd5b478411156111a5576040517f08c379a000000000000000000000000000000000000000000000000000000000815260040161119c9061282a565b60405180910390fd5b600760149054906101000a900460ff16156111f5576040517f08c379a00000000000000000000000000000000000000000000000000000000081526004016111ec9061259c565b60405180910390fd5b6001600760146101000a81548160ff02191690831515021790555061123660646112288387611c8790919063ffffffff16565b611c9d90919063ffffffff16565b6005819055508473ffffffffffffffffffffffffffffffffffffffff166108fc61126b60055487611cb390919063ffffffff16565b9081150290604051600060405180830381858888f19350505050158015611296573d6000803e3d6000fd5b508173ffffffffffffffffffffffffffffffffffffffff166108fc6005549081150290604051600060405180830381858888f193505050501580156112df573d6000803e3d6000fd5b506000600760146101000a81548160ff0219169083151502179055505050505050565b600160009054906101000a900473ffffffffffffffffffffffffffffffffffffffff1673ffffffffffffffffffffffffffffffffffffffff168373ffffffffffffffffffffffffffffffffffffffff1614611392576040517f08c379a0000000000000000000000000000000000000000000000000000000008152600401611389906126c0565b60405180910390fd5b600960009054906101000a900460ff16156113e2576040517f08c379a00000000000000000000000000000000000000000000000000000000081526004016113d990612752565b60405180910390fd5b83600760006101000a81548173ffffffffffffffffffffffffffffffffffffffff021916908373ffffffffffffffffffffffffffffffffffffffff1602179055506000600760009054906101000a900473ffffffffffffffffffffffffffffffffffffffff1673ffffffffffffffffffffffffffffffffffffffff166370a08231306040518263ffffffff1660e01b81526004016114809190611e3e565b602060405180830381865afa15801561149d573d6000803e3d6000fd5b505050506040513d601f19601f820116820180604052508101906114c191906121b9565b11611501576040517f08c379a00000000000000000000000000000000000000000000000000000000081526004016114f8906127be565b60405180910390fd5b600760009054906101000a900473ffffffffffffffffffffffffffffffffffffffff1673ffffffffffffffffffffffffffffffffffffffff166370a08231306040518263ffffffff1660e01b815260040161155c9190611e3e565b602060405180830381865afa158015611579573d6000803e3d6000fd5b505050506040513d601f19601f8201168201806040525081019061159d91906121b9565b8511156115df576040517f08c379a00000000000000000000000000000000000000000000000000000000081526004016115d69061282a565b60405180910390fd5b600760149054906101000a900460ff161561162f576040517f08c379a00000000000000000000000000000000000000000000000000000000081526004016116269061259c565b60405180910390fd5b6001600760146101000a81548160ff02191690831515021790555061167060646116628388611c8790919063ffffffff16565b611c9d90919063ffffffff16565b600581905550600760009054906101000a900473ffffffffffffffffffffffffffffffffffffffff1673ffffffffffffffffffffffffffffffffffffffff1663a9059cbb600160009054906101000a900473ffffffffffffffffffffffffffffffffffffffff166116ec60055489611cb390919063ffffffff16565b6040518363ffffffff1660e01b81526004016117099291906129fb565b6020604051808303816000875af1158015611728573d6000803e3d6000fd5b505050506040513d601f19601f8201168201806040525081019061174c9190612a39565b508173ffffffffffffffffffffffffffffffffffffffff166108fc6005549081150290604051600060405180830381858888f19350505050158015611795573d6000803e3d6000fd5b506000600760146101000a81548160ff0219169083151502179055505050505050565b600160009054906101000a900473ffffffffffffffffffffffffffffffffffffffff1673ffffffffffffffffffffffffffffffffffffffff168373ffffffffffffffffffffffffffffffffffffffff1614611848576040517f08c379a000000000000000000000000000000000000000000000000000000000815260040161183f906129ba565b60405180910390fd5b600960009054906101000a900460ff1615611898576040517f08c379a000000000000000000000000000000000000000000000000000000000815260040161188f90612752565b60405180910390fd5b83600760006101000a81548173ffffffffffffffffffffffffffffffffffffffff021916908373ffffffffffffffffffffffffffffffffffffffff160217905550600760009054906101000a900473ffffffffffffffffffffffffffffffffffffffff1673ffffffffffffffffffffffffffffffffffffffff166370a08231306040518263ffffffff1660e01b81526004016119349190611e3e565b602060405180830381865afa158015611951573d6000803e3d6000fd5b505050506040513d601f19601f8201168201806040525081019061197591906121b9565b8511156119b7576040517f08c379a00000000000000000000000000000000000000000000000000000000081526004016119ae9061282a565b60405180910390fd5b600760149054906101000a900460ff1615611a07576040517f08c379a00000000000000000000000000000000000000000000000000000000081526004016119fe9061259c565b60405180910390fd5b6001600760146101000a81548160ff021916908315150217905550611a486064611a3a8388611c8790919063ffffffff16565b611c9d90919063ffffffff16565b600581905550600760009054906101000a900473ffffffffffffffffffffffffffffffffffffffff1673ffffffffffffffffffffffffffffffffffffffff1663a9059cbb87611aa260055489611cb390919063ffffffff16565b6040518363ffffffff1660e01b8152600401611abf9291906129fb565b6020604051808303816000875af1158015611ade573d6000803e3d6000fd5b505050506040513d601f19601f82011682018060405250810190611b029190612a39565b508173ffffffffffffffffffffffffffffffffffffffff166108fc6005549081150290604051600060405180830381858888f19350505050158015611b4b573d6000803e3d6000fd5b506000600760146101000a81548160ff021916908315150217905550505050505050565b8073ffffffffffffffffffffffffffffffffffffffff16600260009054906101000a900473ffffffffffffffffffffffffffffffffffffffff1673ffffffffffffffffffffffffffffffffffffffff1614611bff576040517f08c379a0000000000000000000000000000000000000000000000000000000008152600401611bf690612ad8565b60405180910390fd5b600260149054906101000a900460ff1615611c4f576040517f08c379a0000000000000000000000000000000000000000000000000000000008152600401611c4690612b6a565b60405180910390fd5b6001600260146101000a81548160ff0219169083151502179055504260038190555050565b600260149054906101000a900460ff1681565b60008183611c95919061234a565b905092915050565b60008183611cab9190612bb9565b905092915050565b60008183611cc19190612bea565b905092915050565b60008115159050919050565b611cde81611cc9565b82525050565b6000602082019050611cf96000830184611cd5565b92915050565b600080fd5b611d0d81611cc9565b8114611d1857600080fd5b50565b600081359050611d2a81611d04565b92915050565b600073ffffffffffffffffffffffffffffffffffffffff82169050919050565b6000611d5b82611d30565b9050919050565b611d6b81611d50565b8114611d7657600080fd5b50565b600081359050611d8881611d62565b92915050565b60008060408385031215611da557611da4611cff565b5b6000611db385828601611d1b565b9250506020611dc485828601611d79565b9150509250929050565b6000819050919050565b611de181611dce565b82525050565b6000602082019050611dfc6000830184611dd8565b92915050565b600060208284031215611e1857611e17611cff565b5b6000611e2684828501611d79565b91505092915050565b611e3881611d50565b82525050565b6000602082019050611e536000830184611e2f565b92915050565b6000611e6482611d30565b9050919050565b611e7481611e59565b8114611e7f57600080fd5b50565b600081359050611e9181611e6b565b92915050565b611ea081611dce565b8114611eab57600080fd5b50565b600081359050611ebd81611e97565b92915050565b600080600060608486031215611edc57611edb611cff565b5b6000611eea86828701611e82565b9350506020611efb86828701611eae565b9250506040611f0c86828701611d79565b9150509250925092565b611f1f81611e59565b82525050565b6000602082019050611f3a6000830184611f16565b92915050565b60008060008060808587031215611f5a57611f59611cff565b5b6000611f6887828801611eae565b9450506020611f7987828801611d79565b9350506040611f8a87828801611e82565b9250506060611f9b87828801611eae565b91505092959194509250565b6000819050919050565b6000611fcc611fc7611fc284611d30565b611fa7565b611d30565b9050919050565b6000611fde82611fb1565b9050919050565b6000611ff082611fd3565b9050919050565b61200081611fe5565b82525050565b600060208201905061201b6000830184611ff7565b92915050565b600080600080600060a0868803121561203d5761203c611cff565b5b600061204b88828901611e82565b955050602061205c88828901611eae565b945050604061206d88828901611d79565b935050606061207e88828901611e82565b925050608061208f88828901611eae565b9150509295509295909350565b600080600080600060a086880312156120b8576120b7611cff565b5b60006120c688828901611eae565b95505060206120d788828901611d79565b94505060406120e888828901611d79565b93505060606120f988828901611e82565b925050608061210a88828901611eae565b9150509295509295909350565b60008060008060008060c0878903121561213457612133611cff565b5b600061214289828a01611e82565b965050602061215389828a01611eae565b955050604061216489828a01611d79565b945050606061217589828a01611d79565b935050608061218689828a01611e82565b92505060a061219789828a01611eae565b9150509295509295509295565b6000815190506121b381611e97565b92915050565b6000602082840312156121cf576121ce611cff565b5b60006121dd848285016121a4565b91505092915050565b600082825260208201905092915050565b7f4f6e6c792074686520686569722063616e20636c61696d20746865206163636f60008201527f756e742e00000000000000000000000000000000000000000000000000000000602082015250565b60006122536024836121e6565b915061225e826121f7565b604082019050919050565b6000602082019050818103600083015261228281612246565b9050919050565b7f436c61696d2070726f6365737320686173206e6f74206265656e20696e69746960008201527f617465642e000000000000000000000000000000000000000000000000000000602082015250565b60006122e56025836121e6565b91506122f082612289565b604082019050919050565b60006020820190508181036000830152612314816122d8565b9050919050565b7f4e487b7100000000000000000000000000000000000000000000000000000000600052601160045260246000fd5b600061235582611dce565b915061236083611dce565b925082820261236e81611dce565b915082820484148315176123855761238461231b565b5b5092915050565b600061239782611dce565b91506123a283611dce565b92508282019050808211156123ba576123b961231b565b5b92915050565b7f436c61696d2064656c617920686173206e6f7420657870697265642e00000000600082015250565b60006123f6601c836121e6565b9150612401826123c0565b602082019050919050565b60006020820190508181036000830152612425816123e9565b9050919050565b7f4f6e6c7920746865206f776e65722063616e20756e667265657a65207468652060008201527f6163636f756e742e000000000000000000000000000000000000000000000000602082015250565b60006124886028836121e6565b91506124938261242c565b604082019050919050565b600060208201905081810360008301526124b78161247b565b9050919050565b7f4f6e6c7920746865206f776e65722063616e207365742074686520686569722e600082015250565b60006124f46020836121e6565b91506124ff826124be565b602082019050919050565b60006020820190508181036000830152612523816124e7565b9050919050565b7f5468652066756e6374696f6e20697320616c726561647920696e20657865637560008201527f74696f6e2e000000000000000000000000000000000000000000000000000000602082015250565b60006125866025836121e6565b91506125918261252a565b604082019050919050565b600060208201905081810360008301526125b581612579565b9050919050565b7f4f6e6c7920746865206f776e65722063616e20667265657a652074686520616360008201527f636f756e742e0000000000000000000000000000000000000000000000000000602082015250565b60006126186026836121e6565b9150612623826125bc565b604082019050919050565b600060208201905081810360008301526126478161260b565b9050919050565b7f4f6e6c7920746865206f776e65722063616e2077697468647261772066756e6460008201527f732e000000000000000000000000000000000000000000000000000000000000602082015250565b60006126aa6022836121e6565b91506126b58261264e565b604082019050919050565b600060208201905081810360008301526126d98161269d565b9050919050565b7f4163636f756e742069732066726f7a656e2c2063616e6e6f742077697468647260008201527f61772066756e64732e0000000000000000000000000000000000000000000000602082015250565b600061273c6029836121e6565b9150612747826126e0565b604082019050919050565b6000602082019050818103600083015261276b8161272f565b9050919050565b7f546865726520617265206e6f2066756e647320746f2077697468647261772e00600082015250565b60006127a8601f836121e6565b91506127b382612772565b602082019050919050565b600060208201905081810360008301526127d78161279b565b9050919050565b7f496e73756666696369656e742066756e64732e00000000000000000000000000600082015250565b60006128146013836121e6565b915061281f826127de565b602082019050919050565b6000602082019050818103600083015261284381612807565b9050919050565b7f4f6e6c7920746865206f776e65722063616e2073746f70206120636c61696d2e600082015250565b60006128806020836121e6565b915061288b8261284a565b602082019050919050565b600060208201905081810360008301526128af81612873565b9050919050565b7f5468657265206973206e6f2061637469766520636c61696d20746f2073746f7060008201527f2e00000000000000000000000000000000000000000000000000000000000000602082015250565b60006129126021836121e6565b915061291d826128b6565b604082019050919050565b6000602082019050818103600083015261294181612905565b9050919050565b7f4f6e6c7920746865206f776e65722063616e207472616e736665722066756e6460008201527f732e000000000000000000000000000000000000000000000000000000000000602082015250565b60006129a46022836121e6565b91506129af82612948565b604082019050919050565b600060208201905081810360008301526129d381612997565b9050919050565b60006129e582611fd3565b9050919050565b6129f5816129da565b82525050565b6000604082019050612a1060008301856129ec565b612a1d6020830184611dd8565b9392505050565b600081519050612a3381611d04565b92915050565b600060208284031215612a4f57612a4e611cff565b5b6000612a5d84828501612a24565b91505092915050565b7f4f6e6c792074686520686569722063616e20696e69746961746520746865206360008201527f6c61696d2070726f636573732e00000000000000000000000000000000000000602082015250565b6000612ac2602d836121e6565b9150612acd82612a66565b604082019050919050565b60006020820190508181036000830152612af181612ab5565b9050919050565b7f436c61696d2070726f6365737320697320616c726561647920696e2070726f6760008201527f726573732e000000000000000000000000000000000000000000000000000000602082015250565b6000612b546025836121e6565b9150612b5f82612af8565b604082019050919050565b60006020820190508181036000830152612b8381612b47565b9050919050565b7f4e487b7100000000000000000000000000000000000000000000000000000000600052601260045260246000fd5b6000612bc482611dce565b9150612bcf83611dce565b925082612bdf57612bde612b8a565b5b828204905092915050565b6000612bf582611dce565b9150612c0083611dce565b9250828203905081811115612c1857612c1761231b565b5b9291505056fea26469706673582212203595dd94959b08b594429c20d8e71aff78504734f9c6d67146a3b6a85363792964736f6c63430008110033",
					"opcodes": "PUSH1 0x80 PUSH1 0x40 MSTORE PUSH1 0x0 PUSH1 0x7 PUSH1 0x14 PUSH2 0x100 EXP DUP2 SLOAD DUP2 PUSH1 0xFF MUL NOT AND SWAP1 DUP4 ISZERO ISZERO MUL OR SWAP1 SSTORE POP PUSH1 0x0 PUSH1 0x9 PUSH1 0x0 PUSH2 0x100 EXP DUP2 SLOAD DUP2 PUSH1 0xFF MUL NOT AND SWAP1 DUP4 ISZERO ISZERO MUL OR SWAP1 SSTORE POP CALLVALUE DUP1 ISZERO PUSH3 0x47 JUMPI PUSH1 0x0 DUP1 REVERT JUMPDEST POP PUSH1 0x40 MLOAD PUSH3 0x2DF5 CODESIZE SUB DUP1 PUSH3 0x2DF5 DUP4 CODECOPY DUP2 DUP2 ADD PUSH1 0x40 MSTORE DUP2 ADD SWAP1 PUSH3 0x6D SWAP2 SWAP1 PUSH3 0x15F JUMP JUMPDEST DUP1 PUSH1 0x1 PUSH1 0x0 PUSH2 0x100 EXP DUP2 SLOAD DUP2 PUSH20 0xFFFFFFFFFFFFFFFFFFFFFFFFFFFFFFFFFFFFFFFF MUL NOT AND SWAP1 DUP4 PUSH20 0xFFFFFFFFFFFFFFFFFFFFFFFFFFFFFFFFFFFFFFFF AND MUL OR SWAP1 SSTORE POP CALLER PUSH1 0x0 DUP1 PUSH2 0x100 EXP DUP2 SLOAD DUP2 PUSH20 0xFFFFFFFFFFFFFFFFFFFFFFFFFFFFFFFFFFFFFFFF MUL NOT AND SWAP1 DUP4 PUSH20 0xFFFFFFFFFFFFFFFFFFFFFFFFFFFFFFFFFFFFFFFF AND MUL OR SWAP1 SSTORE POP POP PUSH3 0x191 JUMP JUMPDEST PUSH1 0x0 DUP1 REVERT JUMPDEST PUSH1 0x0 PUSH20 0xFFFFFFFFFFFFFFFFFFFFFFFFFFFFFFFFFFFFFFFF DUP3 AND SWAP1 POP SWAP2 SWAP1 POP JUMP JUMPDEST PUSH1 0x0 PUSH3 0x127 DUP3 PUSH3 0xFA JUMP JUMPDEST SWAP1 POP SWAP2 SWAP1 POP JUMP JUMPDEST PUSH3 0x139 DUP2 PUSH3 0x11A JUMP JUMPDEST DUP2 EQ PUSH3 0x145 JUMPI PUSH1 0x0 DUP1 REVERT JUMPDEST POP JUMP JUMPDEST PUSH1 0x0 DUP2 MLOAD SWAP1 POP PUSH3 0x159 DUP2 PUSH3 0x12E JUMP JUMPDEST SWAP3 SWAP2 POP POP JUMP JUMPDEST PUSH1 0x0 PUSH1 0x20 DUP3 DUP5 SUB SLT ISZERO PUSH3 0x178 JUMPI PUSH3 0x177 PUSH3 0xF5 JUMP JUMPDEST JUMPDEST PUSH1 0x0 PUSH3 0x188 DUP5 DUP3 DUP6 ADD PUSH3 0x148 JUMP JUMPDEST SWAP2 POP POP SWAP3 SWAP2 POP POP JUMP JUMPDEST PUSH2 0x2C54 DUP1 PUSH3 0x1A1 PUSH1 0x0 CODECOPY PUSH1 0x0 RETURN INVALID PUSH1 0x80 PUSH1 0x40 MSTORE PUSH1 0x4 CALLDATASIZE LT PUSH2 0x166 JUMPI PUSH1 0x0 CALLDATALOAD PUSH1 0xE0 SHR DUP1 PUSH4 0x94A927FE GT PUSH2 0xD1 JUMPI DUP1 PUSH4 0xCC4AA204 GT PUSH2 0x8A JUMPI DUP1 PUSH4 0xE572ADBD GT PUSH2 0x64 JUMPI DUP1 PUSH4 0xE572ADBD EQ PUSH2 0x4DC JUMPI DUP1 PUSH4 0xEA4C58FF EQ PUSH2 0x4F8 JUMPI DUP1 PUSH4 0xF2B5EEA7 EQ PUSH2 0x514 JUMPI DUP1 PUSH4 0xFAEDD18E EQ PUSH2 0x53D JUMPI PUSH2 0x166 JUMP JUMPDEST DUP1 PUSH4 0xCC4AA204 EQ PUSH2 0x46A JUMPI DUP1 PUSH4 0xD5F39488 EQ PUSH2 0x495 JUMPI DUP1 PUSH4 0xDCE8BCEA EQ PUSH2 0x4C0 JUMPI PUSH2 0x166 JUMP JUMPDEST DUP1 PUSH4 0x94A927FE EQ PUSH2 0x379 JUMPI DUP1 PUSH4 0x9E1A4D19 EQ PUSH2 0x3A4 JUMPI DUP1 PUSH4 0xA318C1A4 EQ PUSH2 0x3CF JUMPI DUP1 PUSH4 0xA5720770 EQ PUSH2 0x3EB JUMPI DUP1 PUSH4 0xB7D1D98E EQ PUSH2 0x416 JUMPI DUP1 PUSH4 0xC7983E20 EQ PUSH2 0x43F JUMPI PUSH2 0x166 JUMP JUMPDEST DUP1 PUSH4 0x56AF4F75 GT PUSH2 0x123 JUMPI DUP1 PUSH4 0x56AF4F75 EQ PUSH2 0x27B JUMPI DUP1 PUSH4 0x6E1A7373 EQ PUSH2 0x2A6 JUMPI DUP1 PUSH4 0x7A80760E EQ PUSH2 0x2CF JUMPI DUP1 PUSH4 0x8D1FDF2F EQ PUSH2 0x2FA JUMPI DUP1 PUSH4 0x8DA5CB5B EQ PUSH2 0x323 JUMPI DUP1 PUSH4 0x91F2EBB8 EQ PUSH2 0x34E JUMPI PUSH2 0x166 JUMP JUMPDEST DUP1 PUSH4 0x54F7D9C EQ PUSH2 0x16B JUMPI DUP1 PUSH4 0x1903B431 EQ PUSH2 0x196 JUMPI DUP1 PUSH4 0x1C8EC299 EQ PUSH2 0x1D3 JUMPI DUP1 PUSH4 0x1E83409A EQ PUSH2 0x1FE JUMPI DUP1 PUSH4 0x362BB2AC EQ PUSH2 0x227 JUMPI DUP1 PUSH4 0x45C8B1A6 EQ PUSH2 0x252 JUMPI JUMPDEST PUSH1 0x0 DUP1 REVERT JUMPDEST CALLVALUE DUP1 ISZERO PUSH2 0x177 JUMPI PUSH1 0x0 DUP1 REVERT JUMPDEST POP PUSH2 0x180 PUSH2 0x568 JUMP JUMPDEST PUSH1 0x40 MLOAD PUSH2 0x18D SWAP2 SWAP1 PUSH2 0x1CE4 JUMP JUMPDEST PUSH1 0x40 MLOAD DUP1 SWAP2 SUB SWAP1 RETURN JUMPDEST CALLVALUE DUP1 ISZERO PUSH2 0x1A2 JUMPI PUSH1 0x0 DUP1 REVERT JUMPDEST POP PUSH2 0x1BD PUSH1 0x4 DUP1 CALLDATASIZE SUB DUP2 ADD SWAP1 PUSH2 0x1B8 SWAP2 SWAP1 PUSH2 0x1D8E JUMP JUMPDEST PUSH2 0x57B JUMP JUMPDEST PUSH1 0x40 MLOAD PUSH2 0x1CA SWAP2 SWAP1 PUSH2 0x1DE7 JUMP JUMPDEST PUSH1 0x40 MLOAD DUP1 SWAP2 SUB SWAP1 RETURN JUMPDEST CALLVALUE DUP1 ISZERO PUSH2 0x1DF JUMPI PUSH1 0x0 DUP1 REVERT JUMPDEST POP PUSH2 0x1E8 PUSH2 0x671 JUMP JUMPDEST PUSH1 0x40 MLOAD PUSH2 0x1F5 SWAP2 SWAP1 PUSH2 0x1DE7 JUMP JUMPDEST PUSH1 0x40 MLOAD DUP1 SWAP2 SUB SWAP1 RETURN JUMPDEST CALLVALUE DUP1 ISZERO PUSH2 0x20A JUMPI PUSH1 0x0 DUP1 REVERT JUMPDEST POP PUSH2 0x225 PUSH1 0x4 DUP1 CALLDATASIZE SUB DUP2 ADD SWAP1 PUSH2 0x220 SWAP2 SWAP1 PUSH2 0x1E02 JUMP JUMPDEST PUSH2 0x677 JUMP JUMPDEST STOP JUMPDEST CALLVALUE DUP1 ISZERO PUSH2 0x233 JUMPI PUSH1 0x0 DUP1 REVERT JUMPDEST POP PUSH2 0x23C PUSH2 0x81C JUMP JUMPDEST PUSH1 0x40 MLOAD PUSH2 0x249 SWAP2 SWAP1 PUSH2 0x1E3E JUMP JUMPDEST PUSH1 0x40 MLOAD DUP1 SWAP2 SUB SWAP1 RETURN JUMPDEST CALLVALUE DUP1 ISZERO PUSH2 0x25E JUMPI PUSH1 0x0 DUP1 REVERT JUMPDEST POP PUSH2 0x279 PUSH1 0x4 DUP1 CALLDATASIZE SUB DUP2 ADD SWAP1 PUSH2 0x274 SWAP2 SWAP1 PUSH2 0x1E02 JUMP JUMPDEST PUSH2 0x845 JUMP JUMPDEST STOP JUMPDEST CALLVALUE DUP1 ISZERO PUSH2 0x287 JUMPI PUSH1 0x0 DUP1 REVERT JUMPDEST POP PUSH2 0x290 PUSH2 0x92A JUMP JUMPDEST PUSH1 0x40 MLOAD PUSH2 0x29D SWAP2 SWAP1 PUSH2 0x1E3E JUMP JUMPDEST PUSH1 0x40 MLOAD DUP1 SWAP2 SUB SWAP1 RETURN JUMPDEST CALLVALUE DUP1 ISZERO PUSH2 0x2B2 JUMPI PUSH1 0x0 DUP1 REVERT JUMPDEST POP PUSH2 0x2CD PUSH1 0x4 DUP1 CALLDATASIZE SUB DUP2 ADD SWAP1 PUSH2 0x2C8 SWAP2 SWAP1 PUSH2 0x1EC3 JUMP JUMPDEST PUSH2 0x954 JUMP JUMPDEST STOP JUMPDEST CALLVALUE DUP1 ISZERO PUSH2 0x2DB JUMPI PUSH1 0x0 DUP1 REVERT JUMPDEST POP PUSH2 0x2E4 PUSH2 0xAB7 JUMP JUMPDEST PUSH1 0x40 MLOAD PUSH2 0x2F1 SWAP2 SWAP1 PUSH2 0x1F25 JUMP JUMPDEST PUSH1 0x40 MLOAD DUP1 SWAP2 SUB SWAP1 RETURN JUMPDEST CALLVALUE DUP1 ISZERO PUSH2 0x306 JUMPI PUSH1 0x0 DUP1 REVERT JUMPDEST POP PUSH2 0x321 PUSH1 0x4 DUP1 CALLDATASIZE SUB DUP2 ADD SWAP1 PUSH2 0x31C SWAP2 SWAP1 PUSH2 0x1E02 JUMP JUMPDEST PUSH2 0xADD JUMP JUMPDEST STOP JUMPDEST CALLVALUE DUP1 ISZERO PUSH2 0x32F JUMPI PUSH1 0x0 DUP1 REVERT JUMPDEST POP PUSH2 0x338 PUSH2 0xBC2 JUMP JUMPDEST PUSH1 0x40 MLOAD PUSH2 0x345 SWAP2 SWAP1 PUSH2 0x1F25 JUMP JUMPDEST PUSH1 0x40 MLOAD DUP1 SWAP2 SUB SWAP1 RETURN JUMPDEST CALLVALUE DUP1 ISZERO PUSH2 0x35A JUMPI PUSH1 0x0 DUP1 REVERT JUMPDEST POP PUSH2 0x363 PUSH2 0xBE8 JUMP JUMPDEST PUSH1 0x40 MLOAD PUSH2 0x370 SWAP2 SWAP1 PUSH2 0x1F25 JUMP JUMPDEST PUSH1 0x40 MLOAD DUP1 SWAP2 SUB SWAP1 RETURN JUMPDEST CALLVALUE DUP1 ISZERO PUSH2 0x385 JUMPI PUSH1 0x0 DUP1 REVERT JUMPDEST POP PUSH2 0x38E PUSH2 0xC0E JUMP JUMPDEST PUSH1 0x40 MLOAD PUSH2 0x39B SWAP2 SWAP1 PUSH2 0x1E3E JUMP JUMPDEST PUSH1 0x40 MLOAD DUP1 SWAP2 SUB SWAP1 RETURN JUMPDEST CALLVALUE DUP1 ISZERO PUSH2 0x3B0 JUMPI PUSH1 0x0 DUP1 REVERT JUMPDEST POP PUSH2 0x3B9 PUSH2 0xC38 JUMP JUMPDEST PUSH1 0x40 MLOAD PUSH2 0x3C6 SWAP2 SWAP1 PUSH2 0x1DE7 JUMP JUMPDEST PUSH1 0x40 MLOAD DUP1 SWAP2 SUB SWAP1 RETURN JUMPDEST PUSH2 0x3E9 PUSH1 0x4 DUP1 CALLDATASIZE SUB DUP2 ADD SWAP1 PUSH2 0x3E4 SWAP2 SWAP1 PUSH2 0x1F40 JUMP JUMPDEST PUSH2 0xC3E JUMP JUMPDEST STOP JUMPDEST CALLVALUE DUP1 ISZERO PUSH2 0x3F7 JUMPI PUSH1 0x0 DUP1 REVERT JUMPDEST POP PUSH2 0x400 PUSH2 0xF22 JUMP JUMPDEST PUSH1 0x40 MLOAD PUSH2 0x40D SWAP2 SWAP1 PUSH2 0x1CE4 JUMP JUMPDEST PUSH1 0x40 MLOAD DUP1 SWAP2 SUB SWAP1 RETURN JUMPDEST CALLVALUE DUP1 ISZERO PUSH2 0x422 JUMPI PUSH1 0x0 DUP1 REVERT JUMPDEST POP PUSH2 0x43D PUSH1 0x4 DUP1 CALLDATASIZE SUB DUP2 ADD SWAP1 PUSH2 0x438 SWAP2 SWAP1 PUSH2 0x1E02 JUMP JUMPDEST PUSH2 0xF35 JUMP JUMPDEST STOP JUMPDEST CALLVALUE DUP1 ISZERO PUSH2 0x44B JUMPI PUSH1 0x0 DUP1 REVERT JUMPDEST POP PUSH2 0x454 PUSH2 0x1032 JUMP JUMPDEST PUSH1 0x40 MLOAD PUSH2 0x461 SWAP2 SWAP1 PUSH2 0x1DE7 JUMP JUMPDEST PUSH1 0x40 MLOAD DUP1 SWAP2 SUB SWAP1 RETURN JUMPDEST CALLVALUE DUP1 ISZERO PUSH2 0x476 JUMPI PUSH1 0x0 DUP1 REVERT JUMPDEST POP PUSH2 0x47F PUSH2 0x1038 JUMP JUMPDEST PUSH1 0x40 MLOAD PUSH2 0x48C SWAP2 SWAP1 PUSH2 0x2006 JUMP JUMPDEST PUSH1 0x40 MLOAD DUP1 SWAP2 SUB SWAP1 RETURN JUMPDEST CALLVALUE DUP1 ISZERO PUSH2 0x4A1 JUMPI PUSH1 0x0 DUP1 REVERT JUMPDEST POP PUSH2 0x4AA PUSH2 0x105E JUMP JUMPDEST PUSH1 0x40 MLOAD PUSH2 0x4B7 SWAP2 SWAP1 PUSH2 0x1E3E JUMP JUMPDEST PUSH1 0x40 MLOAD DUP1 SWAP2 SUB SWAP1 RETURN JUMPDEST PUSH2 0x4DA PUSH1 0x4 DUP1 CALLDATASIZE SUB DUP2 ADD SWAP1 PUSH2 0x4D5 SWAP2 SWAP1 PUSH2 0x2021 JUMP JUMPDEST PUSH2 0x1082 JUMP JUMPDEST STOP JUMPDEST PUSH2 0x4F6 PUSH1 0x4 DUP1 CALLDATASIZE SUB DUP2 ADD SWAP1 PUSH2 0x4F1 SWAP2 SWAP1 PUSH2 0x209C JUMP JUMPDEST PUSH2 0x1302 JUMP JUMPDEST STOP JUMPDEST PUSH2 0x512 PUSH1 0x4 DUP1 CALLDATASIZE SUB DUP2 ADD SWAP1 PUSH2 0x50D SWAP2 SWAP1 PUSH2 0x2117 JUMP JUMPDEST PUSH2 0x17B8 JUMP JUMPDEST STOP JUMPDEST CALLVALUE DUP1 ISZERO PUSH2 0x520 JUMPI PUSH1 0x0 DUP1 REVERT JUMPDEST POP PUSH2 0x53B PUSH1 0x4 DUP1 CALLDATASIZE SUB DUP2 ADD SWAP1 PUSH2 0x536 SWAP2 SWAP1 PUSH2 0x1E02 JUMP JUMPDEST PUSH2 0x1B6F JUMP JUMPDEST STOP JUMPDEST CALLVALUE DUP1 ISZERO PUSH2 0x549 JUMPI PUSH1 0x0 DUP1 REVERT JUMPDEST POP PUSH2 0x552 PUSH2 0x1C74 JUMP JUMPDEST PUSH1 0x40 MLOAD PUSH2 0x55F SWAP2 SWAP1 PUSH2 0x1CE4 JUMP JUMPDEST PUSH1 0x40 MLOAD DUP1 SWAP2 SUB SWAP1 RETURN JUMPDEST PUSH1 0x9 PUSH1 0x0 SWAP1 SLOAD SWAP1 PUSH2 0x100 EXP SWAP1 DIV PUSH1 0xFF AND DUP2 JUMP JUMPDEST PUSH1 0x0 DUP3 ISZERO PUSH2 0x58B JUMPI SELFBALANCE SWAP1 POP PUSH2 0x66B JUMP JUMPDEST DUP2 PUSH1 0x7 PUSH1 0x0 PUSH2 0x100 EXP DUP2 SLOAD DUP2 PUSH20 0xFFFFFFFFFFFFFFFFFFFFFFFFFFFFFFFFFFFFFFFF MUL NOT AND SWAP1 DUP4 PUSH20 0xFFFFFFFFFFFFFFFFFFFFFFFFFFFFFFFFFFFFFFFF AND MUL OR SWAP1 SSTORE POP PUSH1 0x7 PUSH1 0x0 SWAP1 SLOAD SWAP1 PUSH2 0x100 EXP SWAP1 DIV PUSH20 0xFFFFFFFFFFFFFFFFFFFFFFFFFFFFFFFFFFFFFFFF AND PUSH20 0xFFFFFFFFFFFFFFFFFFFFFFFFFFFFFFFFFFFFFFFF AND PUSH4 0x70A08231 ADDRESS PUSH1 0x40 MLOAD DUP3 PUSH4 0xFFFFFFFF AND PUSH1 0xE0 SHL DUP2 MSTORE PUSH1 0x4 ADD PUSH2 0x627 SWAP2 SWAP1 PUSH2 0x1E3E JUMP JUMPDEST PUSH1 0x20 PUSH1 0x40 MLOAD DUP1 DUP4 SUB DUP2 DUP7 GAS STATICCALL ISZERO DUP1 ISZERO PUSH2 0x644 JUMPI RETURNDATASIZE PUSH1 0x0 DUP1 RETURNDATACOPY RETURNDATASIZE PUSH1 0x0 REVERT JUMPDEST POP POP POP POP PUSH1 0x40 MLOAD RETURNDATASIZE PUSH1 0x1F NOT PUSH1 0x1F DUP3 ADD AND DUP3 ADD DUP1 PUSH1 0x40 MSTORE POP DUP2 ADD SWAP1 PUSH2 0x668 SWAP2 SWAP1 PUSH2 0x21B9 JUMP JUMPDEST SWAP1 POP JUMPDEST SWAP3 SWAP2 POP POP JUMP JUMPDEST PUSH1 0x4 SLOAD DUP2 JUMP JUMPDEST DUP1 PUSH20 0xFFFFFFFFFFFFFFFFFFFFFFFFFFFFFFFFFFFFFFFF AND PUSH1 0x2 PUSH1 0x0 SWAP1 SLOAD SWAP1 PUSH2 0x100 EXP SWAP1 DIV PUSH20 0xFFFFFFFFFFFFFFFFFFFFFFFFFFFFFFFFFFFFFFFF AND PUSH20 0xFFFFFFFFFFFFFFFFFFFFFFFFFFFFFFFFFFFFFFFF AND EQ PUSH2 0x707 JUMPI PUSH1 0x40 MLOAD PUSH32 0x8C379A000000000000000000000000000000000000000000000000000000000 DUP2 MSTORE PUSH1 0x4 ADD PUSH2 0x6FE SWAP1 PUSH2 0x2269 JUMP JUMPDEST PUSH1 0x40 MLOAD DUP1 SWAP2 SUB SWAP1 REVERT JUMPDEST PUSH1 0x2 PUSH1 0x14 SWAP1 SLOAD SWAP1 PUSH2 0x100 EXP SWAP1 DIV PUSH1 0xFF AND PUSH2 0x756 JUMPI PUSH1 0x40 MLOAD PUSH32 0x8C379A000000000000000000000000000000000000000000000000000000000 DUP2 MSTORE PUSH1 0x4 ADD PUSH2 0x74D SWAP1 PUSH2 0x22FB JUMP JUMPDEST PUSH1 0x40 MLOAD DUP1 SWAP2 SUB SWAP1 REVERT JUMPDEST PUSH3 0x15180 PUSH1 0x4 SLOAD PUSH2 0x767 SWAP2 SWAP1 PUSH2 0x234A JUMP JUMPDEST PUSH1 0x3 SLOAD PUSH2 0x774 SWAP2 SWAP1 PUSH2 0x238C JUMP JUMPDEST TIMESTAMP LT ISZERO PUSH2 0x7B6 JUMPI PUSH1 0x40 MLOAD PUSH32 0x8C379A000000000000000000000000000000000000000000000000000000000 DUP2 MSTORE PUSH1 0x4 ADD PUSH2 0x7AD SWAP1 PUSH2 0x240C JUMP JUMPDEST PUSH1 0x40 MLOAD DUP1 SWAP2 SUB SWAP1 REVERT JUMPDEST PUSH1 0x2 PUSH1 0x0 SWAP1 SLOAD SWAP1 PUSH2 0x100 EXP SWAP1 DIV PUSH20 0xFFFFFFFFFFFFFFFFFFFFFFFFFFFFFFFFFFFFFFFF AND PUSH1 0x1 PUSH1 0x0 PUSH2 0x100 EXP DUP2 SLOAD DUP2 PUSH20 0xFFFFFFFFFFFFFFFFFFFFFFFFFFFFFFFFFFFFFFFF MUL NOT AND SWAP1 DUP4 PUSH20 0xFFFFFFFFFFFFFFFFFFFFFFFFFFFFFFFFFFFFFFFF AND MUL OR SWAP1 SSTORE POP POP JUMP JUMPDEST PUSH1 0x0 DUP1 PUSH1 0x0 SWAP1 SLOAD SWAP1 PUSH2 0x100 EXP SWAP1 DIV PUSH20 0xFFFFFFFFFFFFFFFFFFFFFFFFFFFFFFFFFFFFFFFF AND SWAP1 POP SWAP1 JUMP JUMPDEST PUSH1 0x1 PUSH1 0x0 SWAP1 SLOAD SWAP1 PUSH2 0x100 EXP SWAP1 DIV PUSH20 0xFFFFFFFFFFFFFFFFFFFFFFFFFFFFFFFFFFFFFFFF AND PUSH20 0xFFFFFFFFFFFFFFFFFFFFFFFFFFFFFFFFFFFFFFFF AND DUP2 PUSH20 0xFFFFFFFFFFFFFFFFFFFFFFFFFFFFFFFFFFFFFFFF AND EQ PUSH2 0x8D5 JUMPI PUSH1 0x40 MLOAD PUSH32 0x8C379A000000000000000000000000000000000000000000000000000000000 DUP2 MSTORE PUSH1 0x4 ADD PUSH2 0x8CC SWAP1 PUSH2 0x249E JUMP JUMPDEST PUSH1 0x40 MLOAD DUP1 SWAP2 SUB SWAP1 REVERT JUMPDEST PUSH1 0x0 PUSH1 0x9 PUSH1 0x0 PUSH2 0x100 EXP DUP2 SLOAD DUP2 PUSH1 0xFF MUL NOT AND SWAP1 DUP4 ISZERO ISZERO MUL OR SWAP1 SSTORE POP PUSH32 0xCA5069937E68FD197927055037F59D7C90BF75AC104E6E375539EF480C3AD6EE DUP2 PUSH1 0x40 MLOAD PUSH2 0x91F SWAP2 SWAP1 PUSH2 0x1E3E JUMP JUMPDEST PUSH1 0x40 MLOAD DUP1 SWAP2 SUB SWAP1 LOG1 POP JUMP JUMPDEST PUSH1 0x0 PUSH1 0x2 PUSH1 0x0 SWAP1 SLOAD SWAP1 PUSH2 0x100 EXP SWAP1 DIV PUSH20 0xFFFFFFFFFFFFFFFFFFFFFFFFFFFFFFFFFFFFFFFF AND SWAP1 POP SWAP1 JUMP JUMPDEST DUP1 PUSH20 0xFFFFFFFFFFFFFFFFFFFFFFFFFFFFFFFFFFFFFFFF AND PUSH1 0x1 PUSH1 0x0 SWAP1 SLOAD SWAP1 PUSH2 0x100 EXP SWAP1 DIV PUSH20 0xFFFFFFFFFFFFFFFFFFFFFFFFFFFFFFFFFFFFFFFF AND PUSH20 0xFFFFFFFFFFFFFFFFFFFFFFFFFFFFFFFFFFFFFFFF AND EQ PUSH2 0x9E4 JUMPI PUSH1 0x40 MLOAD PUSH32 0x8C379A000000000000000000000000000000000000000000000000000000000 DUP2 MSTORE PUSH1 0x4 ADD PUSH2 0x9DB SWAP1 PUSH2 0x250A JUMP JUMPDEST PUSH1 0x40 MLOAD DUP1 SWAP2 SUB SWAP1 REVERT JUMPDEST PUSH1 0x7 PUSH1 0x14 SWAP1 SLOAD SWAP1 PUSH2 0x100 EXP SWAP1 DIV PUSH1 0xFF AND ISZERO PUSH2 0xA34 JUMPI PUSH1 0x40 MLOAD PUSH32 0x8C379A000000000000000000000000000000000000000000000000000000000 DUP2 MSTORE PUSH1 0x4 ADD PUSH2 0xA2B SWAP1 PUSH2 0x259C JUMP JUMPDEST PUSH1 0x40 MLOAD DUP1 SWAP2 SUB SWAP1 REVERT JUMPDEST PUSH1 0x1 PUSH1 0x7 PUSH1 0x14 PUSH2 0x100 EXP DUP2 SLOAD DUP2 PUSH1 0xFF MUL NOT AND SWAP1 DUP4 ISZERO ISZERO MUL OR SWAP1 SSTORE POP DUP3 PUSH1 0x2 PUSH1 0x0 PUSH2 0x100 EXP DUP2 SLOAD DUP2 PUSH20 0xFFFFFFFFFFFFFFFFFFFFFFFFFFFFFFFFFFFFFFFF MUL NOT AND SWAP1 DUP4 PUSH20 0xFFFFFFFFFFFFFFFFFFFFFFFFFFFFFFFFFFFFFFFF AND MUL OR SWAP1 SSTORE POP DUP2 PUSH1 0x4 DUP2 SWAP1 SSTORE POP PUSH1 0x0 PUSH1 0x7 PUSH1 0x14 PUSH2 0x100 EXP DUP2 SLOAD DUP2 PUSH1 0xFF MUL NOT AND SWAP1 DUP4 ISZERO ISZERO MUL OR SWAP1 SSTORE POP POP POP POP JUMP JUMPDEST PUSH1 0x6 PUSH1 0x0 SWAP1 SLOAD SWAP1 PUSH2 0x100 EXP SWAP1 DIV PUSH20 0xFFFFFFFFFFFFFFFFFFFFFFFFFFFFFFFFFFFFFFFF AND DUP2 JUMP JUMPDEST PUSH1 0x1 PUSH1 0x0 SWAP1 SLOAD SWAP1 PUSH2 0x100 EXP SWAP1 DIV PUSH20 0xFFFFFFFFFFFFFFFFFFFFFFFFFFFFFFFFFFFFFFFF AND PUSH20 0xFFFFFFFFFFFFFFFFFFFFFFFFFFFFFFFFFFFFFFFF AND DUP2 PUSH20 0xFFFFFFFFFFFFFFFFFFFFFFFFFFFFFFFFFFFFFFFF AND EQ PUSH2 0xB6D JUMPI PUSH1 0x40 MLOAD PUSH32 0x8C379A000000000000000000000000000000000000000000000000000000000 DUP2 MSTORE PUSH1 0x4 ADD PUSH2 0xB64 SWAP1 PUSH2 0x262E JUMP JUMPDEST PUSH1 0x40 MLOAD DUP1 SWAP2 SUB SWAP1 REVERT JUMPDEST PUSH1 0x1 PUSH1 0x9 PUSH1 0x0 PUSH2 0x100 EXP DUP2 SLOAD DUP2 PUSH1 0xFF MUL NOT AND SWAP1 DUP4 ISZERO ISZERO MUL OR SWAP1 SSTORE POP PUSH32 0xAF85B60D26151EDD11443B704D424DA6C43D0468F2235EBAE3D1904DBC323049 DUP2 PUSH1 0x40 MLOAD PUSH2 0xBB7 SWAP2 SWAP1 PUSH2 0x1E3E JUMP JUMPDEST PUSH1 0x40 MLOAD DUP1 SWAP2 SUB SWAP1 LOG1 POP JUMP JUMPDEST PUSH1 0x1 PUSH1 0x0 SWAP1 SLOAD SWAP1 PUSH2 0x100 EXP SWAP1 DIV PUSH20 0xFFFFFFFFFFFFFFFFFFFFFFFFFFFFFFFFFFFFFFFF AND DUP2 JUMP JUMPDEST PUSH1 0x2 PUSH1 0x0 SWAP1 SLOAD SWAP1 PUSH2 0x100 EXP SWAP1 DIV PUSH20 0xFFFFFFFFFFFFFFFFFFFFFFFFFFFFFFFFFFFFFFFF AND DUP2 JUMP JUMPDEST PUSH1 0x0 PUSH1 0x1 PUSH1 0x0 SWAP1 SLOAD SWAP1 PUSH2 0x100 EXP SWAP1 DIV PUSH20 0xFFFFFFFFFFFFFFFFFFFFFFFFFFFFFFFFFFFFFFFF AND SWAP1 POP SWAP1 JUMP JUMPDEST PUSH1 0x8 SLOAD DUP2 JUMP JUMPDEST PUSH1 0x1 PUSH1 0x0 SWAP1 SLOAD SWAP1 PUSH2 0x100 EXP SWAP1 DIV PUSH20 0xFFFFFFFFFFFFFFFFFFFFFFFFFFFFFFFFFFFFFFFF AND PUSH20 0xFFFFFFFFFFFFFFFFFFFFFFFFFFFFFFFFFFFFFFFF AND DUP4 PUSH20 0xFFFFFFFFFFFFFFFFFFFFFFFFFFFFFFFFFFFFFFFF AND EQ PUSH2 0xCCE JUMPI PUSH1 0x40 MLOAD PUSH32 0x8C379A000000000000000000000000000000000000000000000000000000000 DUP2 MSTORE PUSH1 0x4 ADD PUSH2 0xCC5 SWAP1 PUSH2 0x26C0 JUMP JUMPDEST PUSH1 0x40 MLOAD DUP1 SWAP2 SUB SWAP1 REVERT JUMPDEST PUSH1 0x9 PUSH1 0x0 SWAP1 SLOAD SWAP1 PUSH2 0x100 EXP SWAP1 DIV PUSH1 0xFF AND ISZERO PUSH2 0xD1E JUMPI PUSH1 0x40 MLOAD PUSH32 0x8C379A000000000000000000000000000000000000000000000000000000000 DUP2 MSTORE PUSH1 0x4 ADD PUSH2 0xD15 SWAP1 PUSH2 0x2752 JUMP JUMPDEST PUSH1 0x40 MLOAD DUP1 SWAP2 SUB SWAP1 REVERT JUMPDEST PUSH1 0x0 SELFBALANCE GT PUSH2 0xD61 JUMPI PUSH1 0x40 MLOAD PUSH32 0x8C379A000000000000000000000000000000000000000000000000000000000 DUP2 MSTORE PUSH1 0x4 ADD PUSH2 0xD58 SWAP1 PUSH2 0x27BE JUMP JUMPDEST PUSH1 0x40 MLOAD DUP1 SWAP2 SUB SWAP1 REVERT JUMPDEST SELFBALANCE DUP5 GT ISZERO PUSH2 0xDA4 JUMPI PUSH1 0x40 MLOAD PUSH32 0x8C379A000000000000000000000000000000000000000000000000000000000 DUP2 MSTORE PUSH1 0x4 ADD PUSH2 0xD9B SWAP1 PUSH2 0x282A JUMP JUMPDEST PUSH1 0x40 MLOAD DUP1 SWAP2 SUB SWAP1 REVERT JUMPDEST PUSH1 0x7 PUSH1 0x14 SWAP1 SLOAD SWAP1 PUSH2 0x100 EXP SWAP1 DIV PUSH1 0xFF AND ISZERO PUSH2 0xDF4 JUMPI PUSH1 0x40 MLOAD PUSH32 0x8C379A000000000000000000000000000000000000000000000000000000000 DUP2 MSTORE PUSH1 0x4 ADD PUSH2 0xDEB SWAP1 PUSH2 0x259C JUMP JUMPDEST PUSH1 0x40 MLOAD DUP1 SWAP2 SUB SWAP1 REVERT JUMPDEST PUSH1 0x1 PUSH1 0x7 PUSH1 0x14 PUSH2 0x100 EXP DUP2 SLOAD DUP2 PUSH1 0xFF MUL NOT AND SWAP1 DUP4 ISZERO ISZERO MUL OR SWAP1 SSTORE POP PUSH2 0xE35 PUSH1 0x64 PUSH2 0xE27 DUP4 DUP8 PUSH2 0x1C87 SWAP1 SWAP2 SWAP1 PUSH4 0xFFFFFFFF AND JUMP JUMPDEST PUSH2 0x1C9D SWAP1 SWAP2 SWAP1 PUSH4 0xFFFFFFFF AND JUMP JUMPDEST PUSH1 0x5 DUP2 SWAP1 SSTORE POP PUSH1 0x1 PUSH1 0x0 SWAP1 SLOAD SWAP1 PUSH2 0x100 EXP SWAP1 DIV PUSH20 0xFFFFFFFFFFFFFFFFFFFFFFFFFFFFFFFFFFFFFFFF AND PUSH20 0xFFFFFFFFFFFFFFFFFFFFFFFFFFFFFFFFFFFFFFFF AND PUSH2 0x8FC PUSH2 0xE8C PUSH1 0x5 SLOAD DUP8 PUSH2 0x1CB3 SWAP1 SWAP2 SWAP1 PUSH4 0xFFFFFFFF AND JUMP JUMPDEST SWAP1 DUP2 ISZERO MUL SWAP1 PUSH1 0x40 MLOAD PUSH1 0x0 PUSH1 0x40 MLOAD DUP1 DUP4 SUB DUP2 DUP6 DUP9 DUP9 CALL SWAP4 POP POP POP POP ISZERO DUP1 ISZERO PUSH2 0xEB7 JUMPI RETURNDATASIZE PUSH1 0x0 DUP1 RETURNDATACOPY RETURNDATASIZE PUSH1 0x0 REVERT JUMPDEST POP DUP2 PUSH20 0xFFFFFFFFFFFFFFFFFFFFFFFFFFFFFFFFFFFFFFFF AND PUSH2 0x8FC PUSH1 0x5 SLOAD SWAP1 DUP2 ISZERO MUL SWAP1 PUSH1 0x40 MLOAD PUSH1 0x0 PUSH1 0x40 MLOAD DUP1 DUP4 SUB DUP2 DUP6 DUP9 DUP9 CALL SWAP4 POP POP POP POP ISZERO DUP1 ISZERO PUSH2 0xF00 JUMPI RETURNDATASIZE PUSH1 0x0 DUP1 RETURNDATACOPY RETURNDATASIZE PUSH1 0x0 REVERT JUMPDEST POP PUSH1 0x0 PUSH1 0x7 PUSH1 0x14 PUSH2 0x100 EXP DUP2 SLOAD DUP2 PUSH1 0xFF MUL NOT AND SWAP1 DUP4 ISZERO ISZERO MUL OR SWAP1 SSTORE POP POP POP POP POP JUMP JUMPDEST PUSH1 0x7 PUSH1 0x14 SWAP1 SLOAD SWAP1 PUSH2 0x100 EXP SWAP1 DIV PUSH1 0xFF AND DUP2 JUMP JUMPDEST PUSH1 0x1 PUSH1 0x0 SWAP1 SLOAD SWAP1 PUSH2 0x100 EXP SWAP1 DIV PUSH20 0xFFFFFFFFFFFFFFFFFFFFFFFFFFFFFFFFFFFFFFFF AND PUSH20 0xFFFFFFFFFFFFFFFFFFFFFFFFFFFFFFFFFFFFFFFF AND DUP2 PUSH20 0xFFFFFFFFFFFFFFFFFFFFFFFFFFFFFFFFFFFFFFFF AND EQ PUSH2 0xFC5 JUMPI PUSH1 0x40 MLOAD PUSH32 0x8C379A000000000000000000000000000000000000000000000000000000000 DUP2 MSTORE PUSH1 0x4 ADD PUSH2 0xFBC SWAP1 PUSH2 0x2896 JUMP JUMPDEST PUSH1 0x40 MLOAD DUP1 SWAP2 SUB SWAP1 REVERT JUMPDEST PUSH1 0x2 PUSH1 0x14 SWAP1 SLOAD SWAP1 PUSH2 0x100 EXP SWAP1 DIV PUSH1 0xFF AND PUSH2 0x1014 JUMPI PUSH1 0x40 MLOAD PUSH32 0x8C379A000000000000000000000000000000000000000000000000000000000 DUP2 MSTORE PUSH1 0x4 ADD PUSH2 0x100B SWAP1 PUSH2 0x2928 JUMP JUMPDEST PUSH1 0x40 MLOAD DUP1 SWAP2 SUB SWAP1 REVERT JUMPDEST PUSH1 0x0 PUSH1 0x2 PUSH1 0x14 PUSH2 0x100 EXP DUP2 SLOAD DUP2 PUSH1 0xFF MUL NOT AND SWAP1 DUP4 ISZERO ISZERO MUL OR SWAP1 SSTORE POP POP JUMP JUMPDEST PUSH1 0x3 SLOAD DUP2 JUMP JUMPDEST PUSH1 0x7 PUSH1 0x0 SWAP1 SLOAD SWAP1 PUSH2 0x100 EXP SWAP1 DIV PUSH20 0xFFFFFFFFFFFFFFFFFFFFFFFFFFFFFFFFFFFFFFFF AND DUP2 JUMP JUMPDEST PUSH1 0x0 DUP1 SLOAD SWAP1 PUSH2 0x100 EXP SWAP1 DIV PUSH20 0xFFFFFFFFFFFFFFFFFFFFFFFFFFFFFFFFFFFFFFFF AND DUP2 JUMP JUMPDEST PUSH1 0x1 PUSH1 0x0 SWAP1 SLOAD SWAP1 PUSH2 0x100 EXP SWAP1 DIV PUSH20 0xFFFFFFFFFFFFFFFFFFFFFFFFFFFFFFFFFFFFFFFF AND PUSH20 0xFFFFFFFFFFFFFFFFFFFFFFFFFFFFFFFFFFFFFFFF AND DUP4 PUSH20 0xFFFFFFFFFFFFFFFFFFFFFFFFFFFFFFFFFFFFFFFF AND EQ PUSH2 0x1112 JUMPI PUSH1 0x40 MLOAD PUSH32 0x8C379A000000000000000000000000000000000000000000000000000000000 DUP2 MSTORE PUSH1 0x4 ADD PUSH2 0x1109 SWAP1 PUSH2 0x29BA JUMP JUMPDEST PUSH1 0x40 MLOAD DUP1 SWAP2 SUB SWAP1 REVERT JUMPDEST PUSH1 0x9 PUSH1 0x0 SWAP1 SLOAD SWAP1 PUSH2 0x100 EXP SWAP1 DIV PUSH1 0xFF AND ISZERO PUSH2 0x1162 JUMPI PUSH1 0x40 MLOAD PUSH32 0x8C379A000000000000000000000000000000000000000000000000000000000 DUP2 MSTORE PUSH1 0x4 ADD PUSH2 0x1159 SWAP1 PUSH2 0x2752 JUMP JUMPDEST PUSH1 0x40 MLOAD DUP1 SWAP2 SUB SWAP1 REVERT JUMPDEST SELFBALANCE DUP5 GT ISZERO PUSH2 0x11A5 JUMPI PUSH1 0x40 MLOAD PUSH32 0x8C379A000000000000000000000000000000000000000000000000000000000 DUP2 MSTORE PUSH1 0x4 ADD PUSH2 0x119C SWAP1 PUSH2 0x282A JUMP JUMPDEST PUSH1 0x40 MLOAD DUP1 SWAP2 SUB SWAP1 REVERT JUMPDEST PUSH1 0x7 PUSH1 0x14 SWAP1 SLOAD SWAP1 PUSH2 0x100 EXP SWAP1 DIV PUSH1 0xFF AND ISZERO PUSH2 0x11F5 JUMPI PUSH1 0x40 MLOAD PUSH32 0x8C379A000000000000000000000000000000000000000000000000000000000 DUP2 MSTORE PUSH1 0x4 ADD PUSH2 0x11EC SWAP1 PUSH2 0x259C JUMP JUMPDEST PUSH1 0x40 MLOAD DUP1 SWAP2 SUB SWAP1 REVERT JUMPDEST PUSH1 0x1 PUSH1 0x7 PUSH1 0x14 PUSH2 0x100 EXP DUP2 SLOAD DUP2 PUSH1 0xFF MUL NOT AND SWAP1 DUP4 ISZERO ISZERO MUL OR SWAP1 SSTORE POP PUSH2 0x1236 PUSH1 0x64 PUSH2 0x1228 DUP4 DUP8 PUSH2 0x1C87 SWAP1 SWAP2 SWAP1 PUSH4 0xFFFFFFFF AND JUMP JUMPDEST PUSH2 0x1C9D SWAP1 SWAP2 SWAP1 PUSH4 0xFFFFFFFF AND JUMP JUMPDEST PUSH1 0x5 DUP2 SWAP1 SSTORE POP DUP5 PUSH20 0xFFFFFFFFFFFFFFFFFFFFFFFFFFFFFFFFFFFFFFFF AND PUSH2 0x8FC PUSH2 0x126B PUSH1 0x5 SLOAD DUP8 PUSH2 0x1CB3 SWAP1 SWAP2 SWAP1 PUSH4 0xFFFFFFFF AND JUMP JUMPDEST SWAP1 DUP2 ISZERO MUL SWAP1 PUSH1 0x40 MLOAD PUSH1 0x0 PUSH1 0x40 MLOAD DUP1 DUP4 SUB DUP2 DUP6 DUP9 DUP9 CALL SWAP4 POP POP POP POP ISZERO DUP1 ISZERO PUSH2 0x1296 JUMPI RETURNDATASIZE PUSH1 0x0 DUP1 RETURNDATACOPY RETURNDATASIZE PUSH1 0x0 REVERT JUMPDEST POP DUP2 PUSH20 0xFFFFFFFFFFFFFFFFFFFFFFFFFFFFFFFFFFFFFFFF AND PUSH2 0x8FC PUSH1 0x5 SLOAD SWAP1 DUP2 ISZERO MUL SWAP1 PUSH1 0x40 MLOAD PUSH1 0x0 PUSH1 0x40 MLOAD DUP1 DUP4 SUB DUP2 DUP6 DUP9 DUP9 CALL SWAP4 POP POP POP POP ISZERO DUP1 ISZERO PUSH2 0x12DF JUMPI RETURNDATASIZE PUSH1 0x0 DUP1 RETURNDATACOPY RETURNDATASIZE PUSH1 0x0 REVERT JUMPDEST POP PUSH1 0x0 PUSH1 0x7 PUSH1 0x14 PUSH2 0x100 EXP DUP2 SLOAD DUP2 PUSH1 0xFF MUL NOT AND SWAP1 DUP4 ISZERO ISZERO MUL OR SWAP1 SSTORE POP POP POP POP POP POP JUMP JUMPDEST PUSH1 0x1 PUSH1 0x0 SWAP1 SLOAD SWAP1 PUSH2 0x100 EXP SWAP1 DIV PUSH20 0xFFFFFFFFFFFFFFFFFFFFFFFFFFFFFFFFFFFFFFFF AND PUSH20 0xFFFFFFFFFFFFFFFFFFFFFFFFFFFFFFFFFFFFFFFF AND DUP4 PUSH20 0xFFFFFFFFFFFFFFFFFFFFFFFFFFFFFFFFFFFFFFFF AND EQ PUSH2 0x1392 JUMPI PUSH1 0x40 MLOAD PUSH32 0x8C379A000000000000000000000000000000000000000000000000000000000 DUP2 MSTORE PUSH1 0x4 ADD PUSH2 0x1389 SWAP1 PUSH2 0x26C0 JUMP JUMPDEST PUSH1 0x40 MLOAD DUP1 SWAP2 SUB SWAP1 REVERT JUMPDEST PUSH1 0x9 PUSH1 0x0 SWAP1 SLOAD SWAP1 PUSH2 0x100 EXP SWAP1 DIV PUSH1 0xFF AND ISZERO PUSH2 0x13E2 JUMPI PUSH1 0x40 MLOAD PUSH32 0x8C379A000000000000000000000000000000000000000000000000000000000 DUP2 MSTORE PUSH1 0x4 ADD PUSH2 0x13D9 SWAP1 PUSH2 0x2752 JUMP JUMPDEST PUSH1 0x40 MLOAD DUP1 SWAP2 SUB SWAP1 REVERT JUMPDEST DUP4 PUSH1 0x7 PUSH1 0x0 PUSH2 0x100 EXP DUP2 SLOAD DUP2 PUSH20 0xFFFFFFFFFFFFFFFFFFFFFFFFFFFFFFFFFFFFFFFF MUL NOT AND SWAP1 DUP4 PUSH20 0xFFFFFFFFFFFFFFFFFFFFFFFFFFFFFFFFFFFFFFFF AND MUL OR SWAP1 SSTORE POP PUSH1 0x0 PUSH1 0x7 PUSH1 0x0 SWAP1 SLOAD SWAP1 PUSH2 0x100 EXP SWAP1 DIV PUSH20 0xFFFFFFFFFFFFFFFFFFFFFFFFFFFFFFFFFFFFFFFF AND PUSH20 0xFFFFFFFFFFFFFFFFFFFFFFFFFFFFFFFFFFFFFFFF AND PUSH4 0x70A08231 ADDRESS PUSH1 0x40 MLOAD DUP3 PUSH4 0xFFFFFFFF AND PUSH1 0xE0 SHL DUP2 MSTORE PUSH1 0x4 ADD PUSH2 0x1480 SWAP2 SWAP1 PUSH2 0x1E3E JUMP JUMPDEST PUSH1 0x20 PUSH1 0x40 MLOAD DUP1 DUP4 SUB DUP2 DUP7 GAS STATICCALL ISZERO DUP1 ISZERO PUSH2 0x149D JUMPI RETURNDATASIZE PUSH1 0x0 DUP1 RETURNDATACOPY RETURNDATASIZE PUSH1 0x0 REVERT JUMPDEST POP POP POP POP PUSH1 0x40 MLOAD RETURNDATASIZE PUSH1 0x1F NOT PUSH1 0x1F DUP3 ADD AND DUP3 ADD DUP1 PUSH1 0x40 MSTORE POP DUP2 ADD SWAP1 PUSH2 0x14C1 SWAP2 SWAP1 PUSH2 0x21B9 JUMP JUMPDEST GT PUSH2 0x1501 JUMPI PUSH1 0x40 MLOAD PUSH32 0x8C379A000000000000000000000000000000000000000000000000000000000 DUP2 MSTORE PUSH1 0x4 ADD PUSH2 0x14F8 SWAP1 PUSH2 0x27BE JUMP JUMPDEST PUSH1 0x40 MLOAD DUP1 SWAP2 SUB SWAP1 REVERT JUMPDEST PUSH1 0x7 PUSH1 0x0 SWAP1 SLOAD SWAP1 PUSH2 0x100 EXP SWAP1 DIV PUSH20 0xFFFFFFFFFFFFFFFFFFFFFFFFFFFFFFFFFFFFFFFF AND PUSH20 0xFFFFFFFFFFFFFFFFFFFFFFFFFFFFFFFFFFFFFFFF AND PUSH4 0x70A08231 ADDRESS PUSH1 0x40 MLOAD DUP3 PUSH4 0xFFFFFFFF AND PUSH1 0xE0 SHL DUP2 MSTORE PUSH1 0x4 ADD PUSH2 0x155C SWAP2 SWAP1 PUSH2 0x1E3E JUMP JUMPDEST PUSH1 0x20 PUSH1 0x40 MLOAD DUP1 DUP4 SUB DUP2 DUP7 GAS STATICCALL ISZERO DUP1 ISZERO PUSH2 0x1579 JUMPI RETURNDATASIZE PUSH1 0x0 DUP1 RETURNDATACOPY RETURNDATASIZE PUSH1 0x0 REVERT JUMPDEST POP POP POP POP PUSH1 0x40 MLOAD RETURNDATASIZE PUSH1 0x1F NOT PUSH1 0x1F DUP3 ADD AND DUP3 ADD DUP1 PUSH1 0x40 MSTORE POP DUP2 ADD SWAP1 PUSH2 0x159D SWAP2 SWAP1 PUSH2 0x21B9 JUMP JUMPDEST DUP6 GT ISZERO PUSH2 0x15DF JUMPI PUSH1 0x40 MLOAD PUSH32 0x8C379A000000000000000000000000000000000000000000000000000000000 DUP2 MSTORE PUSH1 0x4 ADD PUSH2 0x15D6 SWAP1 PUSH2 0x282A JUMP JUMPDEST PUSH1 0x40 MLOAD DUP1 SWAP2 SUB SWAP1 REVERT JUMPDEST PUSH1 0x7 PUSH1 0x14 SWAP1 SLOAD SWAP1 PUSH2 0x100 EXP SWAP1 DIV PUSH1 0xFF AND ISZERO PUSH2 0x162F JUMPI PUSH1 0x40 MLOAD PUSH32 0x8C379A000000000000000000000000000000000000000000000000000000000 DUP2 MSTORE PUSH1 0x4 ADD PUSH2 0x1626 SWAP1 PUSH2 0x259C JUMP JUMPDEST PUSH1 0x40 MLOAD DUP1 SWAP2 SUB SWAP1 REVERT JUMPDEST PUSH1 0x1 PUSH1 0x7 PUSH1 0x14 PUSH2 0x100 EXP DUP2 SLOAD DUP2 PUSH1 0xFF MUL NOT AND SWAP1 DUP4 ISZERO ISZERO MUL OR SWAP1 SSTORE POP PUSH2 0x1670 PUSH1 0x64 PUSH2 0x1662 DUP4 DUP9 PUSH2 0x1C87 SWAP1 SWAP2 SWAP1 PUSH4 0xFFFFFFFF AND JUMP JUMPDEST PUSH2 0x1C9D SWAP1 SWAP2 SWAP1 PUSH4 0xFFFFFFFF AND JUMP JUMPDEST PUSH1 0x5 DUP2 SWAP1 SSTORE POP PUSH1 0x7 PUSH1 0x0 SWAP1 SLOAD SWAP1 PUSH2 0x100 EXP SWAP1 DIV PUSH20 0xFFFFFFFFFFFFFFFFFFFFFFFFFFFFFFFFFFFFFFFF AND PUSH20 0xFFFFFFFFFFFFFFFFFFFFFFFFFFFFFFFFFFFFFFFF AND PUSH4 0xA9059CBB PUSH1 0x1 PUSH1 0x0 SWAP1 SLOAD SWAP1 PUSH2 0x100 EXP SWAP1 DIV PUSH20 0xFFFFFFFFFFFFFFFFFFFFFFFFFFFFFFFFFFFFFFFF AND PUSH2 0x16EC PUSH1 0x5 SLOAD DUP10 PUSH2 0x1CB3 SWAP1 SWAP2 SWAP1 PUSH4 0xFFFFFFFF AND JUMP JUMPDEST PUSH1 0x40 MLOAD DUP4 PUSH4 0xFFFFFFFF AND PUSH1 0xE0 SHL DUP2 MSTORE PUSH1 0x4 ADD PUSH2 0x1709 SWAP3 SWAP2 SWAP1 PUSH2 0x29FB JUMP JUMPDEST PUSH1 0x20 PUSH1 0x40 MLOAD DUP1 DUP4 SUB DUP2 PUSH1 0x0 DUP8 GAS CALL ISZERO DUP1 ISZERO PUSH2 0x1728 JUMPI RETURNDATASIZE PUSH1 0x0 DUP1 RETURNDATACOPY RETURNDATASIZE PUSH1 0x0 REVERT JUMPDEST POP POP POP POP PUSH1 0x40 MLOAD RETURNDATASIZE PUSH1 0x1F NOT PUSH1 0x1F DUP3 ADD AND DUP3 ADD DUP1 PUSH1 0x40 MSTORE POP DUP2 ADD SWAP1 PUSH2 0x174C SWAP2 SWAP1 PUSH2 0x2A39 JUMP JUMPDEST POP DUP2 PUSH20 0xFFFFFFFFFFFFFFFFFFFFFFFFFFFFFFFFFFFFFFFF AND PUSH2 0x8FC PUSH1 0x5 SLOAD SWAP1 DUP2 ISZERO MUL SWAP1 PUSH1 0x40 MLOAD PUSH1 0x0 PUSH1 0x40 MLOAD DUP1 DUP4 SUB DUP2 DUP6 DUP9 DUP9 CALL SWAP4 POP POP POP POP ISZERO DUP1 ISZERO PUSH2 0x1795 JUMPI RETURNDATASIZE PUSH1 0x0 DUP1 RETURNDATACOPY RETURNDATASIZE PUSH1 0x0 REVERT JUMPDEST POP PUSH1 0x0 PUSH1 0x7 PUSH1 0x14 PUSH2 0x100 EXP DUP2 SLOAD DUP2 PUSH1 0xFF MUL NOT AND SWAP1 DUP4 ISZERO ISZERO MUL OR SWAP1 SSTORE POP POP POP POP POP POP JUMP JUMPDEST PUSH1 0x1 PUSH1 0x0 SWAP1 SLOAD SWAP1 PUSH2 0x100 EXP SWAP1 DIV PUSH20 0xFFFFFFFFFFFFFFFFFFFFFFFFFFFFFFFFFFFFFFFF AND PUSH20 0xFFFFFFFFFFFFFFFFFFFFFFFFFFFFFFFFFFFFFFFF AND DUP4 PUSH20 0xFFFFFFFFFFFFFFFFFFFFFFFFFFFFFFFFFFFFFFFF AND EQ PUSH2 0x1848 JUMPI PUSH1 0x40 MLOAD PUSH32 0x8C379A000000000000000000000000000000000000000000000000000000000 DUP2 MSTORE PUSH1 0x4 ADD PUSH2 0x183F SWAP1 PUSH2 0x29BA JUMP JUMPDEST PUSH1 0x40 MLOAD DUP1 SWAP2 SUB SWAP1 REVERT JUMPDEST PUSH1 0x9 PUSH1 0x0 SWAP1 SLOAD SWAP1 PUSH2 0x100 EXP SWAP1 DIV PUSH1 0xFF AND ISZERO PUSH2 0x1898 JUMPI PUSH1 0x40 MLOAD PUSH32 0x8C379A000000000000000000000000000000000000000000000000000000000 DUP2 MSTORE PUSH1 0x4 ADD PUSH2 0x188F SWAP1 PUSH2 0x2752 JUMP JUMPDEST PUSH1 0x40 MLOAD DUP1 SWAP2 SUB SWAP1 REVERT JUMPDEST DUP4 PUSH1 0x7 PUSH1 0x0 PUSH2 0x100 EXP DUP2 SLOAD DUP2 PUSH20 0xFFFFFFFFFFFFFFFFFFFFFFFFFFFFFFFFFFFFFFFF MUL NOT AND SWAP1 DUP4 PUSH20 0xFFFFFFFFFFFFFFFFFFFFFFFFFFFFFFFFFFFFFFFF AND MUL OR SWAP1 SSTORE POP PUSH1 0x7 PUSH1 0x0 SWAP1 SLOAD SWAP1 PUSH2 0x100 EXP SWAP1 DIV PUSH20 0xFFFFFFFFFFFFFFFFFFFFFFFFFFFFFFFFFFFFFFFF AND PUSH20 0xFFFFFFFFFFFFFFFFFFFFFFFFFFFFFFFFFFFFFFFF AND PUSH4 0x70A08231 ADDRESS PUSH1 0x40 MLOAD DUP3 PUSH4 0xFFFFFFFF AND PUSH1 0xE0 SHL DUP2 MSTORE PUSH1 0x4 ADD PUSH2 0x1934 SWAP2 SWAP1 PUSH2 0x1E3E JUMP JUMPDEST PUSH1 0x20 PUSH1 0x40 MLOAD DUP1 DUP4 SUB DUP2 DUP7 GAS STATICCALL ISZERO DUP1 ISZERO PUSH2 0x1951 JUMPI RETURNDATASIZE PUSH1 0x0 DUP1 RETURNDATACOPY RETURNDATASIZE PUSH1 0x0 REVERT JUMPDEST POP POP POP POP PUSH1 0x40 MLOAD RETURNDATASIZE PUSH1 0x1F NOT PUSH1 0x1F DUP3 ADD AND DUP3 ADD DUP1 PUSH1 0x40 MSTORE POP DUP2 ADD SWAP1 PUSH2 0x1975 SWAP2 SWAP1 PUSH2 0x21B9 JUMP JUMPDEST DUP6 GT ISZERO PUSH2 0x19B7 JUMPI PUSH1 0x40 MLOAD PUSH32 0x8C379A000000000000000000000000000000000000000000000000000000000 DUP2 MSTORE PUSH1 0x4 ADD PUSH2 0x19AE SWAP1 PUSH2 0x282A JUMP JUMPDEST PUSH1 0x40 MLOAD DUP1 SWAP2 SUB SWAP1 REVERT JUMPDEST PUSH1 0x7 PUSH1 0x14 SWAP1 SLOAD SWAP1 PUSH2 0x100 EXP SWAP1 DIV PUSH1 0xFF AND ISZERO PUSH2 0x1A07 JUMPI PUSH1 0x40 MLOAD PUSH32 0x8C379A000000000000000000000000000000000000000000000000000000000 DUP2 MSTORE PUSH1 0x4 ADD PUSH2 0x19FE SWAP1 PUSH2 0x259C JUMP JUMPDEST PUSH1 0x40 MLOAD DUP1 SWAP2 SUB SWAP1 REVERT JUMPDEST PUSH1 0x1 PUSH1 0x7 PUSH1 0x14 PUSH2 0x100 EXP DUP2 SLOAD DUP2 PUSH1 0xFF MUL NOT AND SWAP1 DUP4 ISZERO ISZERO MUL OR SWAP1 SSTORE POP PUSH2 0x1A48 PUSH1 0x64 PUSH2 0x1A3A DUP4 DUP9 PUSH2 0x1C87 SWAP1 SWAP2 SWAP1 PUSH4 0xFFFFFFFF AND JUMP JUMPDEST PUSH2 0x1C9D SWAP1 SWAP2 SWAP1 PUSH4 0xFFFFFFFF AND JUMP JUMPDEST PUSH1 0x5 DUP2 SWAP1 SSTORE POP PUSH1 0x7 PUSH1 0x0 SWAP1 SLOAD SWAP1 PUSH2 0x100 EXP SWAP1 DIV PUSH20 0xFFFFFFFFFFFFFFFFFFFFFFFFFFFFFFFFFFFFFFFF AND PUSH20 0xFFFFFFFFFFFFFFFFFFFFFFFFFFFFFFFFFFFFFFFF AND PUSH4 0xA9059CBB DUP8 PUSH2 0x1AA2 PUSH1 0x5 SLOAD DUP10 PUSH2 0x1CB3 SWAP1 SWAP2 SWAP1 PUSH4 0xFFFFFFFF AND JUMP JUMPDEST PUSH1 0x40 MLOAD DUP4 PUSH4 0xFFFFFFFF AND PUSH1 0xE0 SHL DUP2 MSTORE PUSH1 0x4 ADD PUSH2 0x1ABF SWAP3 SWAP2 SWAP1 PUSH2 0x29FB JUMP JUMPDEST PUSH1 0x20 PUSH1 0x40 MLOAD DUP1 DUP4 SUB DUP2 PUSH1 0x0 DUP8 GAS CALL ISZERO DUP1 ISZERO PUSH2 0x1ADE JUMPI RETURNDATASIZE PUSH1 0x0 DUP1 RETURNDATACOPY RETURNDATASIZE PUSH1 0x0 REVERT JUMPDEST POP POP POP POP PUSH1 0x40 MLOAD RETURNDATASIZE PUSH1 0x1F NOT PUSH1 0x1F DUP3 ADD AND DUP3 ADD DUP1 PUSH1 0x40 MSTORE POP DUP2 ADD SWAP1 PUSH2 0x1B02 SWAP2 SWAP1 PUSH2 0x2A39 JUMP JUMPDEST POP DUP2 PUSH20 0xFFFFFFFFFFFFFFFFFFFFFFFFFFFFFFFFFFFFFFFF AND PUSH2 0x8FC PUSH1 0x5 SLOAD SWAP1 DUP2 ISZERO MUL SWAP1 PUSH1 0x40 MLOAD PUSH1 0x0 PUSH1 0x40 MLOAD DUP1 DUP4 SUB DUP2 DUP6 DUP9 DUP9 CALL SWAP4 POP POP POP POP ISZERO DUP1 ISZERO PUSH2 0x1B4B JUMPI RETURNDATASIZE PUSH1 0x0 DUP1 RETURNDATACOPY RETURNDATASIZE PUSH1 0x0 REVERT JUMPDEST POP PUSH1 0x0 PUSH1 0x7 PUSH1 0x14 PUSH2 0x100 EXP DUP2 SLOAD DUP2 PUSH1 0xFF MUL NOT AND SWAP1 DUP4 ISZERO ISZERO MUL OR SWAP1 SSTORE POP POP POP POP POP POP POP JUMP JUMPDEST DUP1 PUSH20 0xFFFFFFFFFFFFFFFFFFFFFFFFFFFFFFFFFFFFFFFF AND PUSH1 0x2 PUSH1 0x0 SWAP1 SLOAD SWAP1 PUSH2 0x100 EXP SWAP1 DIV PUSH20 0xFFFFFFFFFFFFFFFFFFFFFFFFFFFFFFFFFFFFFFFF AND PUSH20 0xFFFFFFFFFFFFFFFFFFFFFFFFFFFFFFFFFFFFFFFF AND EQ PUSH2 0x1BFF JUMPI PUSH1 0x40 MLOAD PUSH32 0x8C379A000000000000000000000000000000000000000000000000000000000 DUP2 MSTORE PUSH1 0x4 ADD PUSH2 0x1BF6 SWAP1 PUSH2 0x2AD8 JUMP JUMPDEST PUSH1 0x40 MLOAD DUP1 SWAP2 SUB SWAP1 REVERT JUMPDEST PUSH1 0x2 PUSH1 0x14 SWAP1 SLOAD SWAP1 PUSH2 0x100 EXP SWAP1 DIV PUSH1 0xFF AND ISZERO PUSH2 0x1C4F JUMPI PUSH1 0x40 MLOAD PUSH32 0x8C379A000000000000000000000000000000000000000000000000000000000 DUP2 MSTORE PUSH1 0x4 ADD PUSH2 0x1C46 SWAP1 PUSH2 0x2B6A JUMP JUMPDEST PUSH1 0x40 MLOAD DUP1 SWAP2 SUB SWAP1 REVERT JUMPDEST PUSH1 0x1 PUSH1 0x2 PUSH1 0x14 PUSH2 0x100 EXP DUP2 SLOAD DUP2 PUSH1 0xFF MUL NOT AND SWAP1 DUP4 ISZERO ISZERO MUL OR SWAP1 SSTORE POP TIMESTAMP PUSH1 0x3 DUP2 SWAP1 SSTORE POP POP JUMP JUMPDEST PUSH1 0x2 PUSH1 0x14 SWAP1 SLOAD SWAP1 PUSH2 0x100 EXP SWAP1 DIV PUSH1 0xFF AND DUP2 JUMP JUMPDEST PUSH1 0x0 DUP2 DUP4 PUSH2 0x1C95 SWAP2 SWAP1 PUSH2 0x234A JUMP JUMPDEST SWAP1 POP SWAP3 SWAP2 POP POP JUMP JUMPDEST PUSH1 0x0 DUP2 DUP4 PUSH2 0x1CAB SWAP2 SWAP1 PUSH2 0x2BB9 JUMP JUMPDEST SWAP1 POP SWAP3 SWAP2 POP POP JUMP JUMPDEST PUSH1 0x0 DUP2 DUP4 PUSH2 0x1CC1 SWAP2 SWAP1 PUSH2 0x2BEA JUMP JUMPDEST SWAP1 POP SWAP3 SWAP2 POP POP JUMP JUMPDEST PUSH1 0x0 DUP2 ISZERO ISZERO SWAP1 POP SWAP2 SWAP1 POP JUMP JUMPDEST PUSH2 0x1CDE DUP2 PUSH2 0x1CC9 JUMP JUMPDEST DUP3 MSTORE POP POP JUMP JUMPDEST PUSH1 0x0 PUSH1 0x20 DUP3 ADD SWAP1 POP PUSH2 0x1CF9 PUSH1 0x0 DUP4 ADD DUP5 PUSH2 0x1CD5 JUMP JUMPDEST SWAP3 SWAP2 POP POP JUMP JUMPDEST PUSH1 0x0 DUP1 REVERT JUMPDEST PUSH2 0x1D0D DUP2 PUSH2 0x1CC9 JUMP JUMPDEST DUP2 EQ PUSH2 0x1D18 JUMPI PUSH1 0x0 DUP1 REVERT JUMPDEST POP JUMP JUMPDEST PUSH1 0x0 DUP2 CALLDATALOAD SWAP1 POP PUSH2 0x1D2A DUP2 PUSH2 0x1D04 JUMP JUMPDEST SWAP3 SWAP2 POP POP JUMP JUMPDEST PUSH1 0x0 PUSH20 0xFFFFFFFFFFFFFFFFFFFFFFFFFFFFFFFFFFFFFFFF DUP3 AND SWAP1 POP SWAP2 SWAP1 POP JUMP JUMPDEST PUSH1 0x0 PUSH2 0x1D5B DUP3 PUSH2 0x1D30 JUMP JUMPDEST SWAP1 POP SWAP2 SWAP1 POP JUMP JUMPDEST PUSH2 0x1D6B DUP2 PUSH2 0x1D50 JUMP JUMPDEST DUP2 EQ PUSH2 0x1D76 JUMPI PUSH1 0x0 DUP1 REVERT JUMPDEST POP JUMP JUMPDEST PUSH1 0x0 DUP2 CALLDATALOAD SWAP1 POP PUSH2 0x1D88 DUP2 PUSH2 0x1D62 JUMP JUMPDEST SWAP3 SWAP2 POP POP JUMP JUMPDEST PUSH1 0x0 DUP1 PUSH1 0x40 DUP4 DUP6 SUB SLT ISZERO PUSH2 0x1DA5 JUMPI PUSH2 0x1DA4 PUSH2 0x1CFF JUMP JUMPDEST JUMPDEST PUSH1 0x0 PUSH2 0x1DB3 DUP6 DUP3 DUP7 ADD PUSH2 0x1D1B JUMP JUMPDEST SWAP3 POP POP PUSH1 0x20 PUSH2 0x1DC4 DUP6 DUP3 DUP7 ADD PUSH2 0x1D79 JUMP JUMPDEST SWAP2 POP POP SWAP3 POP SWAP3 SWAP1 POP JUMP JUMPDEST PUSH1 0x0 DUP2 SWAP1 POP SWAP2 SWAP1 POP JUMP JUMPDEST PUSH2 0x1DE1 DUP2 PUSH2 0x1DCE JUMP JUMPDEST DUP3 MSTORE POP POP JUMP JUMPDEST PUSH1 0x0 PUSH1 0x20 DUP3 ADD SWAP1 POP PUSH2 0x1DFC PUSH1 0x0 DUP4 ADD DUP5 PUSH2 0x1DD8 JUMP JUMPDEST SWAP3 SWAP2 POP POP JUMP JUMPDEST PUSH1 0x0 PUSH1 0x20 DUP3 DUP5 SUB SLT ISZERO PUSH2 0x1E18 JUMPI PUSH2 0x1E17 PUSH2 0x1CFF JUMP JUMPDEST JUMPDEST PUSH1 0x0 PUSH2 0x1E26 DUP5 DUP3 DUP6 ADD PUSH2 0x1D79 JUMP JUMPDEST SWAP2 POP POP SWAP3 SWAP2 POP POP JUMP JUMPDEST PUSH2 0x1E38 DUP2 PUSH2 0x1D50 JUMP JUMPDEST DUP3 MSTORE POP POP JUMP JUMPDEST PUSH1 0x0 PUSH1 0x20 DUP3 ADD SWAP1 POP PUSH2 0x1E53 PUSH1 0x0 DUP4 ADD DUP5 PUSH2 0x1E2F JUMP JUMPDEST SWAP3 SWAP2 POP POP JUMP JUMPDEST PUSH1 0x0 PUSH2 0x1E64 DUP3 PUSH2 0x1D30 JUMP JUMPDEST SWAP1 POP SWAP2 SWAP1 POP JUMP JUMPDEST PUSH2 0x1E74 DUP2 PUSH2 0x1E59 JUMP JUMPDEST DUP2 EQ PUSH2 0x1E7F JUMPI PUSH1 0x0 DUP1 REVERT JUMPDEST POP JUMP JUMPDEST PUSH1 0x0 DUP2 CALLDATALOAD SWAP1 POP PUSH2 0x1E91 DUP2 PUSH2 0x1E6B JUMP JUMPDEST SWAP3 SWAP2 POP POP JUMP JUMPDEST PUSH2 0x1EA0 DUP2 PUSH2 0x1DCE JUMP JUMPDEST DUP2 EQ PUSH2 0x1EAB JUMPI PUSH1 0x0 DUP1 REVERT JUMPDEST POP JUMP JUMPDEST PUSH1 0x0 DUP2 CALLDATALOAD SWAP1 POP PUSH2 0x1EBD DUP2 PUSH2 0x1E97 JUMP JUMPDEST SWAP3 SWAP2 POP POP JUMP JUMPDEST PUSH1 0x0 DUP1 PUSH1 0x0 PUSH1 0x60 DUP5 DUP7 SUB SLT ISZERO PUSH2 0x1EDC JUMPI PUSH2 0x1EDB PUSH2 0x1CFF JUMP JUMPDEST JUMPDEST PUSH1 0x0 PUSH2 0x1EEA DUP7 DUP3 DUP8 ADD PUSH2 0x1E82 JUMP JUMPDEST SWAP4 POP POP PUSH1 0x20 PUSH2 0x1EFB DUP7 DUP3 DUP8 ADD PUSH2 0x1EAE JUMP JUMPDEST SWAP3 POP POP PUSH1 0x40 PUSH2 0x1F0C DUP7 DUP3 DUP8 ADD PUSH2 0x1D79 JUMP JUMPDEST SWAP2 POP POP SWAP3 POP SWAP3 POP SWAP3 JUMP JUMPDEST PUSH2 0x1F1F DUP2 PUSH2 0x1E59 JUMP JUMPDEST DUP3 MSTORE POP POP JUMP JUMPDEST PUSH1 0x0 PUSH1 0x20 DUP3 ADD SWAP1 POP PUSH2 0x1F3A PUSH1 0x0 DUP4 ADD DUP5 PUSH2 0x1F16 JUMP JUMPDEST SWAP3 SWAP2 POP POP JUMP JUMPDEST PUSH1 0x0 DUP1 PUSH1 0x0 DUP1 PUSH1 0x80 DUP6 DUP8 SUB SLT ISZERO PUSH2 0x1F5A JUMPI PUSH2 0x1F59 PUSH2 0x1CFF JUMP JUMPDEST JUMPDEST PUSH1 0x0 PUSH2 0x1F68 DUP8 DUP3 DUP9 ADD PUSH2 0x1EAE JUMP JUMPDEST SWAP5 POP POP PUSH1 0x20 PUSH2 0x1F79 DUP8 DUP3 DUP9 ADD PUSH2 0x1D79 JUMP JUMPDEST SWAP4 POP POP PUSH1 0x40 PUSH2 0x1F8A DUP8 DUP3 DUP9 ADD PUSH2 0x1E82 JUMP JUMPDEST SWAP3 POP POP PUSH1 0x60 PUSH2 0x1F9B DUP8 DUP3 DUP9 ADD PUSH2 0x1EAE JUMP JUMPDEST SWAP2 POP POP SWAP3 SWAP6 SWAP2 SWAP5 POP SWAP3 POP JUMP JUMPDEST PUSH1 0x0 DUP2 SWAP1 POP SWAP2 SWAP1 POP JUMP JUMPDEST PUSH1 0x0 PUSH2 0x1FCC PUSH2 0x1FC7 PUSH2 0x1FC2 DUP5 PUSH2 0x1D30 JUMP JUMPDEST PUSH2 0x1FA7 JUMP JUMPDEST PUSH2 0x1D30 JUMP JUMPDEST SWAP1 POP SWAP2 SWAP1 POP JUMP JUMPDEST PUSH1 0x0 PUSH2 0x1FDE DUP3 PUSH2 0x1FB1 JUMP JUMPDEST SWAP1 POP SWAP2 SWAP1 POP JUMP JUMPDEST PUSH1 0x0 PUSH2 0x1FF0 DUP3 PUSH2 0x1FD3 JUMP JUMPDEST SWAP1 POP SWAP2 SWAP1 POP JUMP JUMPDEST PUSH2 0x2000 DUP2 PUSH2 0x1FE5 JUMP JUMPDEST DUP3 MSTORE POP POP JUMP JUMPDEST PUSH1 0x0 PUSH1 0x20 DUP3 ADD SWAP1 POP PUSH2 0x201B PUSH1 0x0 DUP4 ADD DUP5 PUSH2 0x1FF7 JUMP JUMPDEST SWAP3 SWAP2 POP POP JUMP JUMPDEST PUSH1 0x0 DUP1 PUSH1 0x0 DUP1 PUSH1 0x0 PUSH1 0xA0 DUP7 DUP9 SUB SLT ISZERO PUSH2 0x203D JUMPI PUSH2 0x203C PUSH2 0x1CFF JUMP JUMPDEST JUMPDEST PUSH1 0x0 PUSH2 0x204B DUP9 DUP3 DUP10 ADD PUSH2 0x1E82 JUMP JUMPDEST SWAP6 POP POP PUSH1 0x20 PUSH2 0x205C DUP9 DUP3 DUP10 ADD PUSH2 0x1EAE JUMP JUMPDEST SWAP5 POP POP PUSH1 0x40 PUSH2 0x206D DUP9 DUP3 DUP10 ADD PUSH2 0x1D79 JUMP JUMPDEST SWAP4 POP POP PUSH1 0x60 PUSH2 0x207E DUP9 DUP3 DUP10 ADD PUSH2 0x1E82 JUMP JUMPDEST SWAP3 POP POP PUSH1 0x80 PUSH2 0x208F DUP9 DUP3 DUP10 ADD PUSH2 0x1EAE JUMP JUMPDEST SWAP2 POP POP SWAP3 SWAP6 POP SWAP3 SWAP6 SWAP1 SWAP4 POP JUMP JUMPDEST PUSH1 0x0 DUP1 PUSH1 0x0 DUP1 PUSH1 0x0 PUSH1 0xA0 DUP7 DUP9 SUB SLT ISZERO PUSH2 0x20B8 JUMPI PUSH2 0x20B7 PUSH2 0x1CFF JUMP JUMPDEST JUMPDEST PUSH1 0x0 PUSH2 0x20C6 DUP9 DUP3 DUP10 ADD PUSH2 0x1EAE JUMP JUMPDEST SWAP6 POP POP PUSH1 0x20 PUSH2 0x20D7 DUP9 DUP3 DUP10 ADD PUSH2 0x1D79 JUMP JUMPDEST SWAP5 POP POP PUSH1 0x40 PUSH2 0x20E8 DUP9 DUP3 DUP10 ADD PUSH2 0x1D79 JUMP JUMPDEST SWAP4 POP POP PUSH1 0x60 PUSH2 0x20F9 DUP9 DUP3 DUP10 ADD PUSH2 0x1E82 JUMP JUMPDEST SWAP3 POP POP PUSH1 0x80 PUSH2 0x210A DUP9 DUP3 DUP10 ADD PUSH2 0x1EAE JUMP JUMPDEST SWAP2 POP POP SWAP3 SWAP6 POP SWAP3 SWAP6 SWAP1 SWAP4 POP JUMP JUMPDEST PUSH1 0x0 DUP1 PUSH1 0x0 DUP1 PUSH1 0x0 DUP1 PUSH1 0xC0 DUP8 DUP10 SUB SLT ISZERO PUSH2 0x2134 JUMPI PUSH2 0x2133 PUSH2 0x1CFF JUMP JUMPDEST JUMPDEST PUSH1 0x0 PUSH2 0x2142 DUP10 DUP3 DUP11 ADD PUSH2 0x1E82 JUMP JUMPDEST SWAP7 POP POP PUSH1 0x20 PUSH2 0x2153 DUP10 DUP3 DUP11 ADD PUSH2 0x1EAE JUMP JUMPDEST SWAP6 POP POP PUSH1 0x40 PUSH2 0x2164 DUP10 DUP3 DUP11 ADD PUSH2 0x1D79 JUMP JUMPDEST SWAP5 POP POP PUSH1 0x60 PUSH2 0x2175 DUP10 DUP3 DUP11 ADD PUSH2 0x1D79 JUMP JUMPDEST SWAP4 POP POP PUSH1 0x80 PUSH2 0x2186 DUP10 DUP3 DUP11 ADD PUSH2 0x1E82 JUMP JUMPDEST SWAP3 POP POP PUSH1 0xA0 PUSH2 0x2197 DUP10 DUP3 DUP11 ADD PUSH2 0x1EAE JUMP JUMPDEST SWAP2 POP POP SWAP3 SWAP6 POP SWAP3 SWAP6 POP SWAP3 SWAP6 JUMP JUMPDEST PUSH1 0x0 DUP2 MLOAD SWAP1 POP PUSH2 0x21B3 DUP2 PUSH2 0x1E97 JUMP JUMPDEST SWAP3 SWAP2 POP POP JUMP JUMPDEST PUSH1 0x0 PUSH1 0x20 DUP3 DUP5 SUB SLT ISZERO PUSH2 0x21CF JUMPI PUSH2 0x21CE PUSH2 0x1CFF JUMP JUMPDEST JUMPDEST PUSH1 0x0 PUSH2 0x21DD DUP5 DUP3 DUP6 ADD PUSH2 0x21A4 JUMP JUMPDEST SWAP2 POP POP SWAP3 SWAP2 POP POP JUMP JUMPDEST PUSH1 0x0 DUP3 DUP3 MSTORE PUSH1 0x20 DUP3 ADD SWAP1 POP SWAP3 SWAP2 POP POP JUMP JUMPDEST PUSH32 0x4F6E6C792074686520686569722063616E20636C61696D20746865206163636F PUSH1 0x0 DUP3 ADD MSTORE PUSH32 0x756E742E00000000000000000000000000000000000000000000000000000000 PUSH1 0x20 DUP3 ADD MSTORE POP JUMP JUMPDEST PUSH1 0x0 PUSH2 0x2253 PUSH1 0x24 DUP4 PUSH2 0x21E6 JUMP JUMPDEST SWAP2 POP PUSH2 0x225E DUP3 PUSH2 0x21F7 JUMP JUMPDEST PUSH1 0x40 DUP3 ADD SWAP1 POP SWAP2 SWAP1 POP JUMP JUMPDEST PUSH1 0x0 PUSH1 0x20 DUP3 ADD SWAP1 POP DUP2 DUP2 SUB PUSH1 0x0 DUP4 ADD MSTORE PUSH2 0x2282 DUP2 PUSH2 0x2246 JUMP JUMPDEST SWAP1 POP SWAP2 SWAP1 POP JUMP JUMPDEST PUSH32 0x436C61696D2070726F6365737320686173206E6F74206265656E20696E697469 PUSH1 0x0 DUP3 ADD MSTORE PUSH32 0x617465642E000000000000000000000000000000000000000000000000000000 PUSH1 0x20 DUP3 ADD MSTORE POP JUMP JUMPDEST PUSH1 0x0 PUSH2 0x22E5 PUSH1 0x25 DUP4 PUSH2 0x21E6 JUMP JUMPDEST SWAP2 POP PUSH2 0x22F0 DUP3 PUSH2 0x2289 JUMP JUMPDEST PUSH1 0x40 DUP3 ADD SWAP1 POP SWAP2 SWAP1 POP JUMP JUMPDEST PUSH1 0x0 PUSH1 0x20 DUP3 ADD SWAP1 POP DUP2 DUP2 SUB PUSH1 0x0 DUP4 ADD MSTORE PUSH2 0x2314 DUP2 PUSH2 0x22D8 JUMP JUMPDEST SWAP1 POP SWAP2 SWAP1 POP JUMP JUMPDEST PUSH32 0x4E487B7100000000000000000000000000000000000000000000000000000000 PUSH1 0x0 MSTORE PUSH1 0x11 PUSH1 0x4 MSTORE PUSH1 0x24 PUSH1 0x0 REVERT JUMPDEST PUSH1 0x0 PUSH2 0x2355 DUP3 PUSH2 0x1DCE JUMP JUMPDEST SWAP2 POP PUSH2 0x2360 DUP4 PUSH2 0x1DCE JUMP JUMPDEST SWAP3 POP DUP3 DUP3 MUL PUSH2 0x236E DUP2 PUSH2 0x1DCE JUMP JUMPDEST SWAP2 POP DUP3 DUP3 DIV DUP5 EQ DUP4 ISZERO OR PUSH2 0x2385 JUMPI PUSH2 0x2384 PUSH2 0x231B JUMP JUMPDEST JUMPDEST POP SWAP3 SWAP2 POP POP JUMP JUMPDEST PUSH1 0x0 PUSH2 0x2397 DUP3 PUSH2 0x1DCE JUMP JUMPDEST SWAP2 POP PUSH2 0x23A2 DUP4 PUSH2 0x1DCE JUMP JUMPDEST SWAP3 POP DUP3 DUP3 ADD SWAP1 POP DUP1 DUP3 GT ISZERO PUSH2 0x23BA JUMPI PUSH2 0x23B9 PUSH2 0x231B JUMP JUMPDEST JUMPDEST SWAP3 SWAP2 POP POP JUMP JUMPDEST PUSH32 0x436C61696D2064656C617920686173206E6F7420657870697265642E00000000 PUSH1 0x0 DUP3 ADD MSTORE POP JUMP JUMPDEST PUSH1 0x0 PUSH2 0x23F6 PUSH1 0x1C DUP4 PUSH2 0x21E6 JUMP JUMPDEST SWAP2 POP PUSH2 0x2401 DUP3 PUSH2 0x23C0 JUMP JUMPDEST PUSH1 0x20 DUP3 ADD SWAP1 POP SWAP2 SWAP1 POP JUMP JUMPDEST PUSH1 0x0 PUSH1 0x20 DUP3 ADD SWAP1 POP DUP2 DUP2 SUB PUSH1 0x0 DUP4 ADD MSTORE PUSH2 0x2425 DUP2 PUSH2 0x23E9 JUMP JUMPDEST SWAP1 POP SWAP2 SWAP1 POP JUMP JUMPDEST PUSH32 0x4F6E6C7920746865206F776E65722063616E20756E667265657A652074686520 PUSH1 0x0 DUP3 ADD MSTORE PUSH32 0x6163636F756E742E000000000000000000000000000000000000000000000000 PUSH1 0x20 DUP3 ADD MSTORE POP JUMP JUMPDEST PUSH1 0x0 PUSH2 0x2488 PUSH1 0x28 DUP4 PUSH2 0x21E6 JUMP JUMPDEST SWAP2 POP PUSH2 0x2493 DUP3 PUSH2 0x242C JUMP JUMPDEST PUSH1 0x40 DUP3 ADD SWAP1 POP SWAP2 SWAP1 POP JUMP JUMPDEST PUSH1 0x0 PUSH1 0x20 DUP3 ADD SWAP1 POP DUP2 DUP2 SUB PUSH1 0x0 DUP4 ADD MSTORE PUSH2 0x24B7 DUP2 PUSH2 0x247B JUMP JUMPDEST SWAP1 POP SWAP2 SWAP1 POP JUMP JUMPDEST PUSH32 0x4F6E6C7920746865206F776E65722063616E207365742074686520686569722E PUSH1 0x0 DUP3 ADD MSTORE POP JUMP JUMPDEST PUSH1 0x0 PUSH2 0x24F4 PUSH1 0x20 DUP4 PUSH2 0x21E6 JUMP JUMPDEST SWAP2 POP PUSH2 0x24FF DUP3 PUSH2 0x24BE JUMP JUMPDEST PUSH1 0x20 DUP3 ADD SWAP1 POP SWAP2 SWAP1 POP JUMP JUMPDEST PUSH1 0x0 PUSH1 0x20 DUP3 ADD SWAP1 POP DUP2 DUP2 SUB PUSH1 0x0 DUP4 ADD MSTORE PUSH2 0x2523 DUP2 PUSH2 0x24E7 JUMP JUMPDEST SWAP1 POP SWAP2 SWAP1 POP JUMP JUMPDEST PUSH32 0x5468652066756E6374696F6E20697320616C726561647920696E206578656375 PUSH1 0x0 DUP3 ADD MSTORE PUSH32 0x74696F6E2E000000000000000000000000000000000000000000000000000000 PUSH1 0x20 DUP3 ADD MSTORE POP JUMP JUMPDEST PUSH1 0x0 PUSH2 0x2586 PUSH1 0x25 DUP4 PUSH2 0x21E6 JUMP JUMPDEST SWAP2 POP PUSH2 0x2591 DUP3 PUSH2 0x252A JUMP JUMPDEST PUSH1 0x40 DUP3 ADD SWAP1 POP SWAP2 SWAP1 POP JUMP JUMPDEST PUSH1 0x0 PUSH1 0x20 DUP3 ADD SWAP1 POP DUP2 DUP2 SUB PUSH1 0x0 DUP4 ADD MSTORE PUSH2 0x25B5 DUP2 PUSH2 0x2579 JUMP JUMPDEST SWAP1 POP SWAP2 SWAP1 POP JUMP JUMPDEST PUSH32 0x4F6E6C7920746865206F776E65722063616E20667265657A6520746865206163 PUSH1 0x0 DUP3 ADD MSTORE PUSH32 0x636F756E742E0000000000000000000000000000000000000000000000000000 PUSH1 0x20 DUP3 ADD MSTORE POP JUMP JUMPDEST PUSH1 0x0 PUSH2 0x2618 PUSH1 0x26 DUP4 PUSH2 0x21E6 JUMP JUMPDEST SWAP2 POP PUSH2 0x2623 DUP3 PUSH2 0x25BC JUMP JUMPDEST PUSH1 0x40 DUP3 ADD SWAP1 POP SWAP2 SWAP1 POP JUMP JUMPDEST PUSH1 0x0 PUSH1 0x20 DUP3 ADD SWAP1 POP DUP2 DUP2 SUB PUSH1 0x0 DUP4 ADD MSTORE PUSH2 0x2647 DUP2 PUSH2 0x260B JUMP JUMPDEST SWAP1 POP SWAP2 SWAP1 POP JUMP JUMPDEST PUSH32 0x4F6E6C7920746865206F776E65722063616E2077697468647261772066756E64 PUSH1 0x0 DUP3 ADD MSTORE PUSH32 0x732E000000000000000000000000000000000000000000000000000000000000 PUSH1 0x20 DUP3 ADD MSTORE POP JUMP JUMPDEST PUSH1 0x0 PUSH2 0x26AA PUSH1 0x22 DUP4 PUSH2 0x21E6 JUMP JUMPDEST SWAP2 POP PUSH2 0x26B5 DUP3 PUSH2 0x264E JUMP JUMPDEST PUSH1 0x40 DUP3 ADD SWAP1 POP SWAP2 SWAP1 POP JUMP JUMPDEST PUSH1 0x0 PUSH1 0x20 DUP3 ADD SWAP1 POP DUP2 DUP2 SUB PUSH1 0x0 DUP4 ADD MSTORE PUSH2 0x26D9 DUP2 PUSH2 0x269D JUMP JUMPDEST SWAP1 POP SWAP2 SWAP1 POP JUMP JUMPDEST PUSH32 0x4163636F756E742069732066726F7A656E2C2063616E6E6F7420776974686472 PUSH1 0x0 DUP3 ADD MSTORE PUSH32 0x61772066756E64732E0000000000000000000000000000000000000000000000 PUSH1 0x20 DUP3 ADD MSTORE POP JUMP JUMPDEST PUSH1 0x0 PUSH2 0x273C PUSH1 0x29 DUP4 PUSH2 0x21E6 JUMP JUMPDEST SWAP2 POP PUSH2 0x2747 DUP3 PUSH2 0x26E0 JUMP JUMPDEST PUSH1 0x40 DUP3 ADD SWAP1 POP SWAP2 SWAP1 POP JUMP JUMPDEST PUSH1 0x0 PUSH1 0x20 DUP3 ADD SWAP1 POP DUP2 DUP2 SUB PUSH1 0x0 DUP4 ADD MSTORE PUSH2 0x276B DUP2 PUSH2 0x272F JUMP JUMPDEST SWAP1 POP SWAP2 SWAP1 POP JUMP JUMPDEST PUSH32 0x546865726520617265206E6F2066756E647320746F2077697468647261772E00 PUSH1 0x0 DUP3 ADD MSTORE POP JUMP JUMPDEST PUSH1 0x0 PUSH2 0x27A8 PUSH1 0x1F DUP4 PUSH2 0x21E6 JUMP JUMPDEST SWAP2 POP PUSH2 0x27B3 DUP3 PUSH2 0x2772 JUMP JUMPDEST PUSH1 0x20 DUP3 ADD SWAP1 POP SWAP2 SWAP1 POP JUMP JUMPDEST PUSH1 0x0 PUSH1 0x20 DUP3 ADD SWAP1 POP DUP2 DUP2 SUB PUSH1 0x0 DUP4 ADD MSTORE PUSH2 0x27D7 DUP2 PUSH2 0x279B JUMP JUMPDEST SWAP1 POP SWAP2 SWAP1 POP JUMP JUMPDEST PUSH32 0x496E73756666696369656E742066756E64732E00000000000000000000000000 PUSH1 0x0 DUP3 ADD MSTORE POP JUMP JUMPDEST PUSH1 0x0 PUSH2 0x2814 PUSH1 0x13 DUP4 PUSH2 0x21E6 JUMP JUMPDEST SWAP2 POP PUSH2 0x281F DUP3 PUSH2 0x27DE JUMP JUMPDEST PUSH1 0x20 DUP3 ADD SWAP1 POP SWAP2 SWAP1 POP JUMP JUMPDEST PUSH1 0x0 PUSH1 0x20 DUP3 ADD SWAP1 POP DUP2 DUP2 SUB PUSH1 0x0 DUP4 ADD MSTORE PUSH2 0x2843 DUP2 PUSH2 0x2807 JUMP JUMPDEST SWAP1 POP SWAP2 SWAP1 POP JUMP JUMPDEST PUSH32 0x4F6E6C7920746865206F776E65722063616E2073746F70206120636C61696D2E PUSH1 0x0 DUP3 ADD MSTORE POP JUMP JUMPDEST PUSH1 0x0 PUSH2 0x2880 PUSH1 0x20 DUP4 PUSH2 0x21E6 JUMP JUMPDEST SWAP2 POP PUSH2 0x288B DUP3 PUSH2 0x284A JUMP JUMPDEST PUSH1 0x20 DUP3 ADD SWAP1 POP SWAP2 SWAP1 POP JUMP JUMPDEST PUSH1 0x0 PUSH1 0x20 DUP3 ADD SWAP1 POP DUP2 DUP2 SUB PUSH1 0x0 DUP4 ADD MSTORE PUSH2 0x28AF DUP2 PUSH2 0x2873 JUMP JUMPDEST SWAP1 POP SWAP2 SWAP1 POP JUMP JUMPDEST PUSH32 0x5468657265206973206E6F2061637469766520636C61696D20746F2073746F70 PUSH1 0x0 DUP3 ADD MSTORE PUSH32 0x2E00000000000000000000000000000000000000000000000000000000000000 PUSH1 0x20 DUP3 ADD MSTORE POP JUMP JUMPDEST PUSH1 0x0 PUSH2 0x2912 PUSH1 0x21 DUP4 PUSH2 0x21E6 JUMP JUMPDEST SWAP2 POP PUSH2 0x291D DUP3 PUSH2 0x28B6 JUMP JUMPDEST PUSH1 0x40 DUP3 ADD SWAP1 POP SWAP2 SWAP1 POP JUMP JUMPDEST PUSH1 0x0 PUSH1 0x20 DUP3 ADD SWAP1 POP DUP2 DUP2 SUB PUSH1 0x0 DUP4 ADD MSTORE PUSH2 0x2941 DUP2 PUSH2 0x2905 JUMP JUMPDEST SWAP1 POP SWAP2 SWAP1 POP JUMP JUMPDEST PUSH32 0x4F6E6C7920746865206F776E65722063616E207472616E736665722066756E64 PUSH1 0x0 DUP3 ADD MSTORE PUSH32 0x732E000000000000000000000000000000000000000000000000000000000000 PUSH1 0x20 DUP3 ADD MSTORE POP JUMP JUMPDEST PUSH1 0x0 PUSH2 0x29A4 PUSH1 0x22 DUP4 PUSH2 0x21E6 JUMP JUMPDEST SWAP2 POP PUSH2 0x29AF DUP3 PUSH2 0x2948 JUMP JUMPDEST PUSH1 0x40 DUP3 ADD SWAP1 POP SWAP2 SWAP1 POP JUMP JUMPDEST PUSH1 0x0 PUSH1 0x20 DUP3 ADD SWAP1 POP DUP2 DUP2 SUB PUSH1 0x0 DUP4 ADD MSTORE PUSH2 0x29D3 DUP2 PUSH2 0x2997 JUMP JUMPDEST SWAP1 POP SWAP2 SWAP1 POP JUMP JUMPDEST PUSH1 0x0 PUSH2 0x29E5 DUP3 PUSH2 0x1FD3 JUMP JUMPDEST SWAP1 POP SWAP2 SWAP1 POP JUMP JUMPDEST PUSH2 0x29F5 DUP2 PUSH2 0x29DA JUMP JUMPDEST DUP3 MSTORE POP POP JUMP JUMPDEST PUSH1 0x0 PUSH1 0x40 DUP3 ADD SWAP1 POP PUSH2 0x2A10 PUSH1 0x0 DUP4 ADD DUP6 PUSH2 0x29EC JUMP JUMPDEST PUSH2 0x2A1D PUSH1 0x20 DUP4 ADD DUP5 PUSH2 0x1DD8 JUMP JUMPDEST SWAP4 SWAP3 POP POP POP JUMP JUMPDEST PUSH1 0x0 DUP2 MLOAD SWAP1 POP PUSH2 0x2A33 DUP2 PUSH2 0x1D04 JUMP JUMPDEST SWAP3 SWAP2 POP POP JUMP JUMPDEST PUSH1 0x0 PUSH1 0x20 DUP3 DUP5 SUB SLT ISZERO PUSH2 0x2A4F JUMPI PUSH2 0x2A4E PUSH2 0x1CFF JUMP JUMPDEST JUMPDEST PUSH1 0x0 PUSH2 0x2A5D DUP5 DUP3 DUP6 ADD PUSH2 0x2A24 JUMP JUMPDEST SWAP2 POP POP SWAP3 SWAP2 POP POP JUMP JUMPDEST PUSH32 0x4F6E6C792074686520686569722063616E20696E697469617465207468652063 PUSH1 0x0 DUP3 ADD MSTORE PUSH32 0x6C61696D2070726F636573732E00000000000000000000000000000000000000 PUSH1 0x20 DUP3 ADD MSTORE POP JUMP JUMPDEST PUSH1 0x0 PUSH2 0x2AC2 PUSH1 0x2D DUP4 PUSH2 0x21E6 JUMP JUMPDEST SWAP2 POP PUSH2 0x2ACD DUP3 PUSH2 0x2A66 JUMP JUMPDEST PUSH1 0x40 DUP3 ADD SWAP1 POP SWAP2 SWAP1 POP JUMP JUMPDEST PUSH1 0x0 PUSH1 0x20 DUP3 ADD SWAP1 POP DUP2 DUP2 SUB PUSH1 0x0 DUP4 ADD MSTORE PUSH2 0x2AF1 DUP2 PUSH2 0x2AB5 JUMP JUMPDEST SWAP1 POP SWAP2 SWAP1 POP JUMP JUMPDEST PUSH32 0x436C61696D2070726F6365737320697320616C726561647920696E2070726F67 PUSH1 0x0 DUP3 ADD MSTORE PUSH32 0x726573732E000000000000000000000000000000000000000000000000000000 PUSH1 0x20 DUP3 ADD MSTORE POP JUMP JUMPDEST PUSH1 0x0 PUSH2 0x2B54 PUSH1 0x25 DUP4 PUSH2 0x21E6 JUMP JUMPDEST SWAP2 POP PUSH2 0x2B5F DUP3 PUSH2 0x2AF8 JUMP JUMPDEST PUSH1 0x40 DUP3 ADD SWAP1 POP SWAP2 SWAP1 POP JUMP JUMPDEST PUSH1 0x0 PUSH1 0x20 DUP3 ADD SWAP1 POP DUP2 DUP2 SUB PUSH1 0x0 DUP4 ADD MSTORE PUSH2 0x2B83 DUP2 PUSH2 0x2B47 JUMP JUMPDEST SWAP1 POP SWAP2 SWAP1 POP JUMP JUMPDEST PUSH32 0x4E487B7100000000000000000000000000000000000000000000000000000000 PUSH1 0x0 MSTORE PUSH1 0x12 PUSH1 0x4 MSTORE PUSH1 0x24 PUSH1 0x0 REVERT JUMPDEST PUSH1 0x0 PUSH2 0x2BC4 DUP3 PUSH2 0x1DCE JUMP JUMPDEST SWAP2 POP PUSH2 0x2BCF DUP4 PUSH2 0x1DCE JUMP JUMPDEST SWAP3 POP DUP3 PUSH2 0x2BDF JUMPI PUSH2 0x2BDE PUSH2 0x2B8A JUMP JUMPDEST JUMPDEST DUP3 DUP3 DIV SWAP1 POP SWAP3 SWAP2 POP POP JUMP JUMPDEST PUSH1 0x0 PUSH2 0x2BF5 DUP3 PUSH2 0x1DCE JUMP JUMPDEST SWAP2 POP PUSH2 0x2C00 DUP4 PUSH2 0x1DCE JUMP JUMPDEST SWAP3 POP DUP3 DUP3 SUB SWAP1 POP DUP2 DUP2 GT ISZERO PUSH2 0x2C18 JUMPI PUSH2 0x2C17 PUSH2 0x231B JUMP JUMPDEST JUMPDEST SWAP3 SWAP2 POP POP JUMP INVALID LOG2 PUSH5 0x6970667358 0x22 SLT KECCAK256 CALLDATALOAD SWAP6 0xDD SWAP5 SWAP6 SWAP12 ADDMOD 0xB5 SWAP5 TIMESTAMP SWAP13 KECCAK256 0xD8 0xE7 BYTE SELFDESTRUCT PUSH25 0x504734F9C6D67146A3B6A85363792964736F6C634300081100 CALLER "
				},
				"gasEstimates": {
					"creation": {
						"codeDepositCost": "2269600",
						"executionCost": "infinite",
						"totalCost": "infinite"
					},
					"external": {
						"ERC20()": "infinite",
						"ERC20Token()": "2581",
						"balanceOf(bool,address)": "infinite",
						"claim(address)": "infinite",
						"claimDelay()": "2497",
						"claimInProgress()": "2631",
						"claimInitiatedAt()": "2562",
						"deployer()": "2578",
						"freeze(address)": "infinite",
						"frozen()": "2495",
						"heir()": "2647",
						"initiateClaim(address)": "51350",
						"mutex()": "2610",
						"owner()": "2625",
						"returnDeployer()": "2634",
						"returnHeir()": "2545",
						"returnOwner()": "2545",
						"setHeir(address,uint256,address)": "infinite",
						"stopClaim(address)": "29257",
						"tokenBalance()": "2474",
						"transferERC20Funds(address,uint256,address,address,address,uint256)": "infinite",
						"transferFunds(address,uint256,address,address,uint256)": "infinite",
						"unfreeze(address)": "infinite",
						"withdraw(uint256,address,address,uint256)": "infinite",
						"withdrawERC20(uint256,address,address,address,uint256)": "infinite"
					}
				},
				"methodIdentifiers": {
					"ERC20()": "cc4aa204",
					"ERC20Token()": "7a80760e",
					"balanceOf(bool,address)": "1903b431",
					"claim(address)": "1e83409a",
					"claimDelay()": "1c8ec299",
					"claimInProgress()": "faedd18e",
					"claimInitiatedAt()": "c7983e20",
					"deployer()": "d5f39488",
					"freeze(address)": "8d1fdf2f",
					"frozen()": "054f7d9c",
					"heir()": "91f2ebb8",
					"initiateClaim(address)": "f2b5eea7",
					"mutex()": "a5720770",
					"owner()": "8da5cb5b",
					"returnDeployer()": "362bb2ac",
					"returnHeir()": "56af4f75",
					"returnOwner()": "94a927fe",
					"setHeir(address,uint256,address)": "6e1a7373",
					"stopClaim(address)": "b7d1d98e",
					"tokenBalance()": "9e1a4d19",
					"transferERC20Funds(address,uint256,address,address,address,uint256)": "ea4c58ff",
					"transferFunds(address,uint256,address,address,uint256)": "dce8bcea",
					"unfreeze(address)": "45c8b1a6",
					"withdraw(uint256,address,address,uint256)": "a318c1a4",
					"withdrawERC20(uint256,address,address,address,uint256)": "e572adbd"
				}
			},
			"storageLayout": {
				"storage": [
					{
						"astId": 5,
						"contract": "contract/Accounts.sol:Accounts",
						"label": "deployer",
						"offset": 0,
						"slot": "0",
						"type": "t_address"
					},
					{
						"astId": 7,
						"contract": "contract/Accounts.sol:Accounts",
						"label": "owner",
						"offset": 0,
						"slot": "1",
						"type": "t_address_payable"
					},
					{
						"astId": 9,
						"contract": "contract/Accounts.sol:Accounts",
						"label": "heir",
						"offset": 0,
						"slot": "2",
						"type": "t_address_payable"
					},
					{
						"astId": 11,
						"contract": "contract/Accounts.sol:Accounts",
						"label": "claimInProgress",
						"offset": 20,
						"slot": "2",
						"type": "t_bool"
					},
					{
						"astId": 13,
						"contract": "contract/Accounts.sol:Accounts",
						"label": "claimInitiatedAt",
						"offset": 0,
						"slot": "3",
						"type": "t_uint256"
					},
					{
						"astId": 15,
						"contract": "contract/Accounts.sol:Accounts",
						"label": "claimDelay",
						"offset": 0,
						"slot": "4",
						"type": "t_uint256"
					},
					{
						"astId": 17,
						"contract": "contract/Accounts.sol:Accounts",
						"label": "fee",
						"offset": 0,
						"slot": "5",
						"type": "t_uint256"
					},
					{
						"astId": 19,
						"contract": "contract/Accounts.sol:Accounts",
						"label": "ERC20Token",
						"offset": 0,
						"slot": "6",
						"type": "t_address_payable"
					},
					{
						"astId": 22,
						"contract": "contract/Accounts.sol:Accounts",
						"label": "ERC20",
						"offset": 0,
						"slot": "7",
						"type": "t_contract(IERC20)708"
					},
					{
						"astId": 28,
						"contract": "contract/Accounts.sol:Accounts",
						"label": "mutex",
						"offset": 20,
						"slot": "7",
						"type": "t_bool"
					},
					{
						"astId": 30,
						"contract": "contract/Accounts.sol:Accounts",
						"label": "tokenBalance",
						"offset": 0,
						"slot": "8",
						"type": "t_uint256"
					},
					{
						"astId": 33,
						"contract": "contract/Accounts.sol:Accounts",
						"label": "frozen",
						"offset": 0,
						"slot": "9",
						"type": "t_bool"
					}
				],
				"types": {
					"t_address": {
						"encoding": "inplace",
						"label": "address",
						"numberOfBytes": "20"
					},
					"t_address_payable": {
						"encoding": "inplace",
						"label": "address payable",
						"numberOfBytes": "20"
					},
					"t_bool": {
						"encoding": "inplace",
						"label": "bool",
						"numberOfBytes": "1"
					},
					"t_contract(IERC20)708": {
						"encoding": "inplace",
						"label": "contract IERC20",
						"numberOfBytes": "20"
					},
					"t_uint256": {
						"encoding": "inplace",
						"label": "uint256",
						"numberOfBytes": "32"
					}
				}
			},
			"userdoc": {
				"kind": "user",
				"methods": {},
				"version": 1
			}
		}
	}
}