{
	"contract/JointAccount.sol": {
		"Accounts": {
			"abi": [
				{
					"inputs": [
						{
							"internalType": "address payable",
							"name": "_owner",
							"type": "address"
						},
						{
							"internalType": "address payable",
							"name": "_feeAddress",
							"type": "address"
						},
						{
							"internalType": "uint256",
							"name": "_transferFee",
							"type": "uint256"
						}
					],
					"stateMutability": "nonpayable",
					"type": "constructor"
				},
				{
					"anonymous": false,
					"inputs": [
						{
							"indexed": true,
							"internalType": "address",
							"name": "contractAddress",
							"type": "address"
						},
						{
							"indexed": true,
							"internalType": "address",
							"name": "from",
							"type": "address"
						},
						{
							"indexed": false,
							"internalType": "uint256",
							"name": "amount",
							"type": "uint256"
						}
					],
					"name": "Deposit",
					"type": "event"
				},
				{
					"stateMutability": "payable",
					"type": "fallback"
				},
				{
					"inputs": [],
					"name": "ERC20",
					"outputs": [
						{
							"internalType": "contract IERC20",
							"name": "",
							"type": "address"
						}
					],
					"stateMutability": "view",
					"type": "function"
				},
				{
					"inputs": [],
					"name": "ERC20Token",
					"outputs": [
						{
							"internalType": "address payable",
							"name": "",
							"type": "address"
						}
					],
					"stateMutability": "view",
					"type": "function"
				},
				{
					"inputs": [],
					"name": "InitiatedAt",
					"outputs": [
						{
							"internalType": "uint256",
							"name": "",
							"type": "uint256"
						}
					],
					"stateMutability": "view",
					"type": "function"
				},
				{
					"inputs": [
						{
							"internalType": "bool",
							"name": "_isCelo",
							"type": "bool"
						},
						{
							"internalType": "address",
							"name": "_ERC20Address",
							"type": "address"
						}
					],
					"name": "balanceOf",
					"outputs": [
						{
							"internalType": "uint256",
							"name": "",
							"type": "uint256"
						}
					],
					"stateMutability": "view",
					"type": "function"
				},
				{
					"inputs": [],
					"name": "beneficiary",
					"outputs": [
						{
							"internalType": "address payable",
							"name": "",
							"type": "address"
						}
					],
					"stateMutability": "view",
					"type": "function"
				},
				{
					"inputs": [],
					"name": "delay",
					"outputs": [
						{
							"internalType": "uint256",
							"name": "",
							"type": "uint256"
						}
					],
					"stateMutability": "view",
					"type": "function"
				},
				{
					"inputs": [
						{
							"internalType": "address",
							"name": "_sender",
							"type": "address"
						}
					],
					"name": "freeze",
					"outputs": [],
					"stateMutability": "nonpayable",
					"type": "function"
				},
				{
					"inputs": [],
					"name": "frozen",
					"outputs": [
						{
							"internalType": "bool",
							"name": "",
							"type": "bool"
						}
					],
					"stateMutability": "view",
					"type": "function"
				},
				{
					"inputs": [
						{
							"internalType": "address",
							"name": "_ERC20Address",
							"type": "address"
						}
					],
					"name": "getWithdrawLimit",
					"outputs": [
						{
							"internalType": "uint256",
							"name": "",
							"type": "uint256"
						}
					],
					"stateMutability": "view",
					"type": "function"
				},
				{
					"inputs": [],
					"name": "mutex",
					"outputs": [
						{
							"internalType": "bool",
							"name": "",
							"type": "bool"
						}
					],
					"stateMutability": "view",
					"type": "function"
				},
				{
					"inputs": [],
					"name": "owner",
					"outputs": [
						{
							"internalType": "address payable",
							"name": "",
							"type": "address"
						}
					],
					"stateMutability": "view",
					"type": "function"
				},
				{
					"inputs": [],
					"name": "returnBeneficiary",
					"outputs": [
						{
							"internalType": "address",
							"name": "",
							"type": "address"
						}
					],
					"stateMutability": "view",
					"type": "function"
				},
				{
					"inputs": [],
					"name": "returnDelay",
					"outputs": [
						{
							"internalType": "uint256",
							"name": "",
							"type": "uint256"
						}
					],
					"stateMutability": "view",
					"type": "function"
				},
				{
					"inputs": [],
					"name": "returnInitiateAt",
					"outputs": [
						{
							"internalType": "uint256",
							"name": "",
							"type": "uint256"
						}
					],
					"stateMutability": "view",
					"type": "function"
				},
				{
					"inputs": [],
					"name": "returnOwner",
					"outputs": [
						{
							"internalType": "address",
							"name": "",
							"type": "address"
						}
					],
					"stateMutability": "view",
					"type": "function"
				},
				{
					"inputs": [],
					"name": "returnTransferFee",
					"outputs": [
						{
							"internalType": "uint256",
							"name": "",
							"type": "uint256"
						}
					],
					"stateMutability": "view",
					"type": "function"
				},
				{
					"inputs": [
						{
							"internalType": "address payable",
							"name": "_beneficiary",
							"type": "address"
						},
						{
							"internalType": "uint256",
							"name": "_delay",
							"type": "uint256"
						},
						{
							"internalType": "address",
							"name": "_sender",
							"type": "address"
						}
					],
					"name": "setBeneficiary",
					"outputs": [],
					"stateMutability": "nonpayable",
					"type": "function"
				},
				{
					"inputs": [
						{
							"internalType": "address",
							"name": "_sender",
							"type": "address"
						},
						{
							"internalType": "uint256",
							"name": "_amount",
							"type": "uint256"
						},
						{
							"internalType": "address",
							"name": "_ERC20Address",
							"type": "address"
						}
					],
					"name": "setWithdrawLimit",
					"outputs": [],
					"stateMutability": "nonpayable",
					"type": "function"
				},
				{
					"inputs": [],
					"name": "tokenBalance",
					"outputs": [
						{
							"internalType": "uint256",
							"name": "",
							"type": "uint256"
						}
					],
					"stateMutability": "view",
					"type": "function"
				},
				{
					"inputs": [
						{
							"internalType": "bool",
							"name": "_isCelo",
							"type": "bool"
						},
						{
							"internalType": "address payable",
							"name": "_recipient",
							"type": "address"
						},
						{
							"internalType": "uint256",
							"name": "_amount",
							"type": "uint256"
						},
						{
							"internalType": "address",
							"name": "_ERC20Address",
							"type": "address"
						},
						{
							"internalType": "address",
							"name": "_sender",
							"type": "address"
						}
					],
					"name": "transferFunds",
					"outputs": [],
					"stateMutability": "payable",
					"type": "function"
				},
				{
					"inputs": [
						{
							"internalType": "address",
							"name": "_sender",
							"type": "address"
						}
					],
					"name": "unfreeze",
					"outputs": [],
					"stateMutability": "nonpayable",
					"type": "function"
				},
				{
					"inputs": [
						{
							"internalType": "bool",
							"name": "_isCelo",
							"type": "bool"
						},
						{
							"internalType": "uint256",
							"name": "_amount",
							"type": "uint256"
						},
						{
							"internalType": "address",
							"name": "_ERC20Address",
							"type": "address"
						},
						{
							"internalType": "address",
							"name": "_sender",
							"type": "address"
						}
					],
					"name": "withdraw",
					"outputs": [],
					"stateMutability": "payable",
					"type": "function"
				},
				{
					"inputs": [
						{
							"internalType": "address",
							"name": "",
							"type": "address"
						}
					],
					"name": "withdrawLimit",
					"outputs": [
						{
							"internalType": "uint256",
							"name": "",
							"type": "uint256"
						}
					],
					"stateMutability": "view",
					"type": "function"
				},
				{
					"stateMutability": "payable",
					"type": "receive"
				}
			],
			"devdoc": {
				"kind": "dev",
				"methods": {},
				"version": 1
			},
			"evm": {
				"assembly": "    /* \"contract/JointAccount.sol\":192:7405  contract Accounts {\r... */\n  mstore(0x40, 0x80)\n    /* \"contract/JointAccount.sol\":1012:1017  false */\n  0x00\n    /* \"contract/JointAccount.sol\":992:1017  bool public mutex = false */\n  0x08\n  exp(0x0100, 0x14)\n  dup2\n  sload\n  dup2\n  0xff\n  mul\n  not\n  and\n  swap1\n  dup4\n  iszero\n  iszero\n  mul\n  or\n  swap1\n  sstore\n  pop\n    /* \"contract/JointAccount.sol\":1129:1134  false */\n  0x00\n    /* \"contract/JointAccount.sol\":1108:1134  bool public frozen = false */\n  0x0a\n  exp(0x0100, 0x00)\n  dup2\n  sload\n  dup2\n  0xff\n  mul\n  not\n  and\n  swap1\n  dup4\n  iszero\n  iszero\n  mul\n  or\n  swap1\n  sstore\n  pop\n    /* \"contract/JointAccount.sol\":1381:1570  constructor(address payable _owner, address payable _feeAddress, uint _transferFee) {\r... */\n  callvalue\n  dup1\n  iszero\n  tag_1\n  jumpi\n  0x00\n  dup1\n  revert\ntag_1:\n  pop\n  mload(0x40)\n  sub(codesize, bytecodeSize)\n  dup1\n  bytecodeSize\n  dup4\n  codecopy\n  dup2\n  dup2\n  add\n  0x40\n  mstore\n  dup2\n  add\n  swap1\n  tag_2\n  swap2\n  swap1\n  tag_3\n  jump\t// in\ntag_2:\n    /* \"contract/JointAccount.sol\":1484:1490  _owner */\n  dup3\n    /* \"contract/JointAccount.sol\":1476:1481  owner */\n  0x00\n  dup1\n    /* \"contract/JointAccount.sol\":1476:1490  owner = _owner */\n  0x0100\n  exp\n  dup2\n  sload\n  dup2\n  0xffffffffffffffffffffffffffffffffffffffff\n  mul\n  not\n  and\n  swap1\n  dup4\n  0xffffffffffffffffffffffffffffffffffffffff\n  and\n  mul\n  or\n  swap1\n  sstore\n  pop\n    /* \"contract/JointAccount.sol\":1515:1527  _transferFee */\n  dup1\n    /* \"contract/JointAccount.sol\":1501:1512  transferFee */\n  0x05\n    /* \"contract/JointAccount.sol\":1501:1527  transferFee = _transferFee */\n  dup2\n  swap1\n  sstore\n  pop\n    /* \"contract/JointAccount.sol\":1551:1562  _feeAddress */\n  dup2\n    /* \"contract/JointAccount.sol\":1538:1548  feeAddress */\n  0x06\n  0x00\n    /* \"contract/JointAccount.sol\":1538:1562  feeAddress = _feeAddress */\n  0x0100\n  exp\n  dup2\n  sload\n  dup2\n  0xffffffffffffffffffffffffffffffffffffffff\n  mul\n  not\n  and\n  swap1\n  dup4\n  0xffffffffffffffffffffffffffffffffffffffff\n  and\n  mul\n  or\n  swap1\n  sstore\n  pop\n    /* \"contract/JointAccount.sol\":1381:1570  constructor(address payable _owner, address payable _feeAddress, uint _transferFee) {\r... */\n  pop\n  pop\n  pop\n    /* \"contract/JointAccount.sol\":192:7405  contract Accounts {\r... */\n  jump(tag_6)\n    /* \"#utility.yul\":7:166   */\ntag_8:\n    /* \"#utility.yul\":72:77   */\n  0x00\n    /* \"#utility.yul\":103:109   */\n  dup2\n    /* \"#utility.yul\":97:110   */\n  mload\n    /* \"#utility.yul\":88:110   */\n  swap1\n  pop\n    /* \"#utility.yul\":119:160   */\n  tag_10\n    /* \"#utility.yul\":154:159   */\n  dup2\n    /* \"#utility.yul\":119:160   */\n  tag_11\n  jump\t// in\ntag_10:\n    /* \"#utility.yul\":7:166   */\n  swap3\n  swap2\n  pop\n  pop\n  jump\t// out\n    /* \"#utility.yul\":172:315   */\ntag_12:\n    /* \"#utility.yul\":229:234   */\n  0x00\n    /* \"#utility.yul\":260:266   */\n  dup2\n    /* \"#utility.yul\":254:267   */\n  mload\n    /* \"#utility.yul\":245:267   */\n  swap1\n  pop\n    /* \"#utility.yul\":276:309   */\n  tag_14\n    /* \"#utility.yul\":303:308   */\n  dup2\n    /* \"#utility.yul\":276:309   */\n  tag_15\n  jump\t// in\ntag_14:\n    /* \"#utility.yul\":172:315   */\n  swap3\n  swap2\n  pop\n  pop\n  jump\t// out\n    /* \"#utility.yul\":321:1016   */\ntag_3:\n    /* \"#utility.yul\":425:431   */\n  0x00\n    /* \"#utility.yul\":433:439   */\n  dup1\n    /* \"#utility.yul\":441:447   */\n  0x00\n    /* \"#utility.yul\":490:492   */\n  0x60\n    /* \"#utility.yul\":478:487   */\n  dup5\n    /* \"#utility.yul\":469:476   */\n  dup7\n    /* \"#utility.yul\":465:488   */\n  sub\n    /* \"#utility.yul\":461:493   */\n  slt\n    /* \"#utility.yul\":458:577   */\n  iszero\n  tag_17\n  jumpi\n    /* \"#utility.yul\":496:575   */\n  tag_18\n  tag_19\n  jump\t// in\ntag_18:\n    /* \"#utility.yul\":458:577   */\ntag_17:\n    /* \"#utility.yul\":616:617   */\n  0x00\n    /* \"#utility.yul\":641:713   */\n  tag_20\n    /* \"#utility.yul\":705:712   */\n  dup7\n    /* \"#utility.yul\":696:702   */\n  dup3\n    /* \"#utility.yul\":685:694   */\n  dup8\n    /* \"#utility.yul\":681:703   */\n  add\n    /* \"#utility.yul\":641:713   */\n  tag_8\n  jump\t// in\ntag_20:\n    /* \"#utility.yul\":631:713   */\n  swap4\n  pop\n    /* \"#utility.yul\":587:723   */\n  pop\n    /* \"#utility.yul\":762:764   */\n  0x20\n    /* \"#utility.yul\":788:860   */\n  tag_21\n    /* \"#utility.yul\":852:859   */\n  dup7\n    /* \"#utility.yul\":843:849   */\n  dup3\n    /* \"#utility.yul\":832:841   */\n  dup8\n    /* \"#utility.yul\":828:850   */\n  add\n    /* \"#utility.yul\":788:860   */\n  tag_8\n  jump\t// in\ntag_21:\n    /* \"#utility.yul\":778:860   */\n  swap3\n  pop\n    /* \"#utility.yul\":733:870   */\n  pop\n    /* \"#utility.yul\":909:911   */\n  0x40\n    /* \"#utility.yul\":935:999   */\n  tag_22\n    /* \"#utility.yul\":991:998   */\n  dup7\n    /* \"#utility.yul\":982:988   */\n  dup3\n    /* \"#utility.yul\":971:980   */\n  dup8\n    /* \"#utility.yul\":967:989   */\n  add\n    /* \"#utility.yul\":935:999   */\n  tag_12\n  jump\t// in\ntag_22:\n    /* \"#utility.yul\":925:999   */\n  swap2\n  pop\n    /* \"#utility.yul\":880:1009   */\n  pop\n    /* \"#utility.yul\":321:1016   */\n  swap3\n  pop\n  swap3\n  pop\n  swap3\n  jump\t// out\n    /* \"#utility.yul\":1103:1207   */\ntag_25:\n    /* \"#utility.yul\":1148:1155   */\n  0x00\n    /* \"#utility.yul\":1177:1201   */\n  tag_27\n    /* \"#utility.yul\":1195:1200   */\n  dup3\n    /* \"#utility.yul\":1177:1201   */\n  tag_28\n  jump\t// in\ntag_27:\n    /* \"#utility.yul\":1166:1201   */\n  swap1\n  pop\n    /* \"#utility.yul\":1103:1207   */\n  swap2\n  swap1\n  pop\n  jump\t// out\n    /* \"#utility.yul\":1213:1339   */\ntag_28:\n    /* \"#utility.yul\":1250:1257   */\n  0x00\n    /* \"#utility.yul\":1290:1332   */\n  0xffffffffffffffffffffffffffffffffffffffff\n    /* \"#utility.yul\":1283:1288   */\n  dup3\n    /* \"#utility.yul\":1279:1333   */\n  and\n    /* \"#utility.yul\":1268:1333   */\n  swap1\n  pop\n    /* \"#utility.yul\":1213:1339   */\n  swap2\n  swap1\n  pop\n  jump\t// out\n    /* \"#utility.yul\":1345:1422   */\ntag_30:\n    /* \"#utility.yul\":1382:1389   */\n  0x00\n    /* \"#utility.yul\":1411:1416   */\n  dup2\n    /* \"#utility.yul\":1400:1416   */\n  swap1\n  pop\n    /* \"#utility.yul\":1345:1422   */\n  swap2\n  swap1\n  pop\n  jump\t// out\n    /* \"#utility.yul\":1551:1668   */\ntag_19:\n    /* \"#utility.yul\":1660:1661   */\n  0x00\n    /* \"#utility.yul\":1657:1658   */\n  dup1\n    /* \"#utility.yul\":1650:1662   */\n  revert\n    /* \"#utility.yul\":1674:1812   */\ntag_11:\n    /* \"#utility.yul\":1755:1787   */\n  tag_36\n    /* \"#utility.yul\":1781:1786   */\n  dup2\n    /* \"#utility.yul\":1755:1787   */\n  tag_25\n  jump\t// in\ntag_36:\n    /* \"#utility.yul\":1748:1753   */\n  dup2\n    /* \"#utility.yul\":1745:1788   */\n  eq\n    /* \"#utility.yul\":1735:1806   */\n  tag_37\n  jumpi\n    /* \"#utility.yul\":1802:1803   */\n  0x00\n    /* \"#utility.yul\":1799:1800   */\n  dup1\n    /* \"#utility.yul\":1792:1804   */\n  revert\n    /* \"#utility.yul\":1735:1806   */\ntag_37:\n    /* \"#utility.yul\":1674:1812   */\n  pop\n  jump\t// out\n    /* \"#utility.yul\":1818:1940   */\ntag_15:\n    /* \"#utility.yul\":1891:1915   */\n  tag_39\n    /* \"#utility.yul\":1909:1914   */\n  dup2\n    /* \"#utility.yul\":1891:1915   */\n  tag_30\n  jump\t// in\ntag_39:\n    /* \"#utility.yul\":1884:1889   */\n  dup2\n    /* \"#utility.yul\":1881:1916   */\n  eq\n    /* \"#utility.yul\":1871:1934   */\n  tag_40\n  jumpi\n    /* \"#utility.yul\":1930:1931   */\n  0x00\n    /* \"#utility.yul\":1927:1928   */\n  dup1\n    /* \"#utility.yul\":1920:1932   */\n  revert\n    /* \"#utility.yul\":1871:1934   */\ntag_40:\n    /* \"#utility.yul\":1818:1940   */\n  pop\n  jump\t// out\n    /* \"contract/JointAccount.sol\":192:7405  contract Accounts {\r... */\ntag_6:\n  dataSize(sub_0)\n  dup1\n  dataOffset(sub_0)\n  0x00\n  codecopy\n  0x00\n  return\nstop\n\nsub_0: assembly {\n        /* \"contract/JointAccount.sol\":192:7405  contract Accounts {\r... */\n      mstore(0x40, 0x80)\n      jumpi(tag_1, lt(calldatasize, 0x04))\n      shr(0xe0, calldataload(0x00))\n      dup1\n      0x7a80760e\n      gt\n      tag_26\n      jumpi\n      dup1\n      0xc6a62290\n      gt\n      tag_27\n      jumpi\n      dup1\n      0xc6a62290\n      eq\n      tag_20\n      jumpi\n      dup1\n      0xcc4aa204\n      eq\n      tag_21\n      jumpi\n      dup1\n      0xd4fb7e2d\n      eq\n      tag_22\n      jumpi\n      dup1\n      0xd86e0575\n      eq\n      tag_23\n      jumpi\n      dup1\n      0xf5c91a0b\n      eq\n      tag_24\n      jumpi\n      dup1\n      0xfce33f01\n      eq\n      tag_25\n      jumpi\n      jump(tag_2)\n    tag_27:\n      dup1\n      0x7a80760e\n      eq\n      tag_14\n      jumpi\n      dup1\n      0x8d1fdf2f\n      eq\n      tag_15\n      jumpi\n      dup1\n      0x8da5cb5b\n      eq\n      tag_16\n      jumpi\n      dup1\n      0x94a927fe\n      eq\n      tag_17\n      jumpi\n      dup1\n      0x9e1a4d19\n      eq\n      tag_18\n      jumpi\n      dup1\n      0xa5720770\n      eq\n      tag_19\n      jumpi\n      jump(tag_2)\n    tag_26:\n      dup1\n      0x342ac615\n      gt\n      tag_28\n      jumpi\n      dup1\n      0x342ac615\n      eq\n      tag_8\n      jumpi\n      dup1\n      0x38af3eed\n      eq\n      tag_9\n      jumpi\n      dup1\n      0x45c8b1a6\n      eq\n      tag_10\n      jumpi\n      dup1\n      0x4bfffc86\n      eq\n      tag_11\n      jumpi\n      dup1\n      0x6a42b8f8\n      eq\n      tag_12\n      jumpi\n      dup1\n      0x6c8d5ada\n      eq\n      tag_13\n      jumpi\n      jump(tag_2)\n    tag_28:\n      dup1\n      0x054f7d9c\n      eq\n      tag_3\n      jumpi\n      dup1\n      0x0a84aac5\n      eq\n      tag_4\n      jumpi\n      dup1\n      0x1903b431\n      eq\n      tag_5\n      jumpi\n      dup1\n      0x23658af4\n      eq\n      tag_6\n      jumpi\n      dup1\n      0x28af53fa\n      eq\n      tag_7\n      jumpi\n      jump(tag_2)\n    tag_1:\n      jumpi(tag_2, calldatasize)\n        /* \"contract/JointAccount.sol\":7369:7379  msg.sender */\n      caller\n        /* \"contract/JointAccount.sol\":7346:7391  Deposit(address(this), msg.sender, msg.value) */\n      0xffffffffffffffffffffffffffffffffffffffff\n      and\n        /* \"contract/JointAccount.sol\":7362:7366  this */\n      address\n        /* \"contract/JointAccount.sol\":7346:7391  Deposit(address(this), msg.sender, msg.value) */\n      0xffffffffffffffffffffffffffffffffffffffff\n      and\n      0x5548c837ab068cf56a2c2479df0882a4922fd203edb7517321831d95078c5f62\n        /* \"contract/JointAccount.sol\":7381:7390  msg.value */\n      callvalue\n        /* \"contract/JointAccount.sol\":7346:7391  Deposit(address(this), msg.sender, msg.value) */\n      mload(0x40)\n      tag_31\n      swap2\n      swap1\n      tag_32\n      jump\t// in\n    tag_31:\n      mload(0x40)\n      dup1\n      swap2\n      sub\n      swap1\n      log3\n        /* \"contract/JointAccount.sol\":192:7405  contract Accounts {\r... */\n      stop\n    tag_2:\n      stop\n        /* \"contract/JointAccount.sol\":1108:1134  bool public frozen = false */\n    tag_3:\n      callvalue\n      dup1\n      iszero\n      tag_35\n      jumpi\n      0x00\n      dup1\n      revert\n    tag_35:\n      pop\n      tag_36\n      tag_37\n      jump\t// in\n    tag_36:\n      mload(0x40)\n      tag_38\n      swap2\n      swap1\n      tag_39\n      jump\t// in\n    tag_38:\n      mload(0x40)\n      dup1\n      swap2\n      sub\n      swap1\n      return\n        /* \"contract/JointAccount.sol\":1657:2051  function setBeneficiary(address payable _beneficiary, uint _delay, address _sender) public {\r... */\n    tag_4:\n      callvalue\n      dup1\n      iszero\n      tag_40\n      jumpi\n      0x00\n      dup1\n      revert\n    tag_40:\n      pop\n      tag_41\n      0x04\n      dup1\n      calldatasize\n      sub\n      dup2\n      add\n      swap1\n      tag_42\n      swap2\n      swap1\n      tag_43\n      jump\t// in\n    tag_42:\n      tag_44\n      jump\t// in\n    tag_41:\n      stop\n        /* \"contract/JointAccount.sol\":5980:6221  function balanceOf(bool _isCelo, address _ERC20Address) public view returns(uint) {\r... */\n    tag_5:\n      callvalue\n      dup1\n      iszero\n      tag_45\n      jumpi\n      0x00\n      dup1\n      revert\n    tag_45:\n      pop\n      tag_46\n      0x04\n      dup1\n      calldatasize\n      sub\n      dup2\n      add\n      swap1\n      tag_47\n      swap2\n      swap1\n      tag_48\n      jump\t// in\n    tag_47:\n      tag_49\n      jump\t// in\n    tag_46:\n      mload(0x40)\n      tag_50\n      swap2\n      swap1\n      tag_32\n      jump\t// in\n    tag_50:\n      mload(0x40)\n      dup1\n      swap2\n      sub\n      swap1\n      return\n        /* \"contract/JointAccount.sol\":6433:6527  function returnBeneficiary() public view returns(address){\r... */\n    tag_6:\n      callvalue\n      dup1\n      iszero\n      tag_51\n      jumpi\n      0x00\n      dup1\n      revert\n    tag_51:\n      pop\n      tag_52\n      tag_53\n      jump\t// in\n    tag_52:\n      mload(0x40)\n      tag_54\n      swap2\n      swap1\n      tag_55\n      jump\t// in\n    tag_54:\n      mload(0x40)\n      dup1\n      swap2\n      sub\n      swap1\n      return\n        /* \"contract/JointAccount.sol\":425:448  uint public InitiatedAt */\n    tag_7:\n      callvalue\n      dup1\n      iszero\n      tag_56\n      jumpi\n      0x00\n      dup1\n      revert\n    tag_56:\n      pop\n      tag_57\n      tag_58\n      jump\t// in\n    tag_57:\n      mload(0x40)\n      tag_59\n      swap2\n      swap1\n      tag_32\n      jump\t// in\n    tag_59:\n      mload(0x40)\n      dup1\n      swap2\n      sub\n      swap1\n      return\n        /* \"contract/JointAccount.sol\":2130:2346  function setWithdrawLimit(address _sender, uint _amount, address _ERC20Address) public {\r... */\n    tag_8:\n      callvalue\n      dup1\n      iszero\n      tag_60\n      jumpi\n      0x00\n      dup1\n      revert\n    tag_60:\n      pop\n      tag_61\n      0x04\n      dup1\n      calldatasize\n      sub\n      dup2\n      add\n      swap1\n      tag_62\n      swap2\n      swap1\n      tag_63\n      jump\t// in\n    tag_62:\n      tag_64\n      jump\t// in\n    tag_61:\n      stop\n        /* \"contract/JointAccount.sol\":340:374  address payable public beneficiary */\n    tag_9:\n      callvalue\n      dup1\n      iszero\n      tag_65\n      jumpi\n      0x00\n      dup1\n      revert\n    tag_65:\n      pop\n      tag_66\n      tag_67\n      jump\t// in\n    tag_66:\n      mload(0x40)\n      tag_68\n      swap2\n      swap1\n      tag_69\n      jump\t// in\n    tag_68:\n      mload(0x40)\n      dup1\n      swap2\n      sub\n      swap1\n      return\n        /* \"contract/JointAccount.sol\":2594:2750  function unfreeze(address _sender) public {\r... */\n    tag_10:\n      callvalue\n      dup1\n      iszero\n      tag_70\n      jumpi\n      0x00\n      dup1\n      revert\n    tag_70:\n      pop\n      tag_71\n      0x04\n      dup1\n      calldatasize\n      sub\n      dup2\n      add\n      swap1\n      tag_72\n      swap2\n      swap1\n      tag_73\n      jump\t// in\n    tag_72:\n      tag_74\n      jump\t// in\n    tag_71:\n      stop\n        /* \"contract/JointAccount.sol\":6939:7029  function returnInitiateAt() public view returns(uint){\r... */\n    tag_11:\n      callvalue\n      dup1\n      iszero\n      tag_75\n      jumpi\n      0x00\n      dup1\n      revert\n    tag_75:\n      pop\n      tag_76\n      tag_77\n      jump\t// in\n    tag_76:\n      mload(0x40)\n      tag_78\n      swap2\n      swap1\n      tag_32\n      jump\t// in\n    tag_78:\n      mload(0x40)\n      dup1\n      swap2\n      sub\n      swap1\n      return\n        /* \"contract/JointAccount.sol\":556:573  uint public delay */\n    tag_12:\n      callvalue\n      dup1\n      iszero\n      tag_79\n      jumpi\n      0x00\n      dup1\n      revert\n    tag_79:\n      pop\n      tag_80\n      tag_81\n      jump\t// in\n    tag_80:\n      mload(0x40)\n      tag_82\n      swap2\n      swap1\n      tag_32\n      jump\t// in\n    tag_82:\n      mload(0x40)\n      dup1\n      swap2\n      sub\n      swap1\n      return\n        /* \"contract/JointAccount.sol\":4435:5924  function transferFunds(bool _isCelo, address payable _recipient, uint _amount, address _ERC20Address, address _sender) public payable {\r... */\n    tag_13:\n      tag_83\n      0x04\n      dup1\n      calldatasize\n      sub\n      dup2\n      add\n      swap1\n      tag_84\n      swap2\n      swap1\n      tag_85\n      jump\t// in\n    tag_84:\n      tag_86\n      jump\t// in\n    tag_83:\n      stop\n        /* \"contract/JointAccount.sol\":796:829  address payable public ERC20Token */\n    tag_14:\n      callvalue\n      dup1\n      iszero\n      tag_87\n      jumpi\n      0x00\n      dup1\n      revert\n    tag_87:\n      pop\n      tag_88\n      tag_89\n      jump\t// in\n    tag_88:\n      mload(0x40)\n      tag_90\n      swap2\n      swap1\n      tag_69\n      jump\t// in\n    tag_90:\n      mload(0x40)\n      dup1\n      swap2\n      sub\n      swap1\n      return\n        /* \"contract/JointAccount.sol\":2395:2545  function freeze(address _sender) public {\r... */\n    tag_15:\n      callvalue\n      dup1\n      iszero\n      tag_91\n      jumpi\n      0x00\n      dup1\n      revert\n    tag_91:\n      pop\n      tag_92\n      0x04\n      dup1\n      calldatasize\n      sub\n      dup2\n      add\n      swap1\n      tag_93\n      swap2\n      swap1\n      tag_73\n      jump\t// in\n    tag_93:\n      tag_94\n      jump\t// in\n    tag_92:\n      stop\n        /* \"contract/JointAccount.sol\":266:294  address payable public owner */\n    tag_16:\n      callvalue\n      dup1\n      iszero\n      tag_95\n      jumpi\n      0x00\n      dup1\n      revert\n    tag_95:\n      pop\n      tag_96\n      tag_97\n      jump\t// in\n    tag_96:\n      mload(0x40)\n      tag_98\n      swap2\n      swap1\n      tag_69\n      jump\t// in\n    tag_98:\n      mload(0x40)\n      dup1\n      swap2\n      sub\n      swap1\n      return\n        /* \"contract/JointAccount.sol\":6281:6363  function returnOwner() public view returns(address){\r... */\n    tag_17:\n      callvalue\n      dup1\n      iszero\n      tag_99\n      jumpi\n      0x00\n      dup1\n      revert\n    tag_99:\n      pop\n      tag_100\n      tag_101\n      jump\t// in\n    tag_100:\n      mload(0x40)\n      tag_102\n      swap2\n      swap1\n      tag_55\n      jump\t// in\n    tag_102:\n      mload(0x40)\n      dup1\n      swap2\n      sub\n      swap1\n      return\n        /* \"contract/JointAccount.sol\":1054:1078  uint public tokenBalance */\n    tag_18:\n      callvalue\n      dup1\n      iszero\n      tag_103\n      jumpi\n      0x00\n      dup1\n      revert\n    tag_103:\n      pop\n      tag_104\n      tag_105\n      jump\t// in\n    tag_104:\n      mload(0x40)\n      tag_106\n      swap2\n      swap1\n      tag_32\n      jump\t// in\n    tag_106:\n      mload(0x40)\n      dup1\n      swap2\n      sub\n      swap1\n      return\n        /* \"contract/JointAccount.sol\":992:1017  bool public mutex = false */\n    tag_19:\n      callvalue\n      dup1\n      iszero\n      tag_107\n      jumpi\n      0x00\n      dup1\n      revert\n    tag_107:\n      pop\n      tag_108\n      tag_109\n      jump\t// in\n    tag_108:\n      mload(0x40)\n      tag_110\n      swap2\n      swap1\n      tag_39\n      jump\t// in\n    tag_110:\n      mload(0x40)\n      dup1\n      swap2\n      sub\n      swap1\n      return\n        /* \"contract/JointAccount.sol\":6785:6864  function returnDelay() public view returns(uint){\r... */\n    tag_20:\n      callvalue\n      dup1\n      iszero\n      tag_111\n      jumpi\n      0x00\n      dup1\n      revert\n    tag_111:\n      pop\n      tag_112\n      tag_113\n      jump\t// in\n    tag_112:\n      mload(0x40)\n      tag_114\n      swap2\n      swap1\n      tag_32\n      jump\t// in\n    tag_114:\n      mload(0x40)\n      dup1\n      swap2\n      sub\n      swap1\n      return\n        /* \"contract/JointAccount.sol\":851:870  IERC20 public ERC20 */\n    tag_21:\n      callvalue\n      dup1\n      iszero\n      tag_115\n      jumpi\n      0x00\n      dup1\n      revert\n    tag_115:\n      pop\n      tag_116\n      tag_117\n      jump\t// in\n    tag_116:\n      mload(0x40)\n      tag_118\n      swap2\n      swap1\n      tag_119\n      jump\t// in\n    tag_118:\n      mload(0x40)\n      dup1\n      swap2\n      sub\n      swap1\n      return\n        /* \"contract/JointAccount.sol\":6596:6722  function getWithdrawLimit(address _ERC20Address) public view returns (uint) {\r... */\n    tag_22:\n      callvalue\n      dup1\n      iszero\n      tag_120\n      jumpi\n      0x00\n      dup1\n      revert\n    tag_120:\n      pop\n      tag_121\n      0x04\n      dup1\n      calldatasize\n      sub\n      dup2\n      add\n      swap1\n      tag_122\n      swap2\n      swap1\n      tag_73\n      jump\t// in\n    tag_122:\n      tag_123\n      jump\t// in\n    tag_121:\n      mload(0x40)\n      tag_124\n      swap2\n      swap1\n      tag_32\n      jump\t// in\n    tag_124:\n      mload(0x40)\n      dup1\n      swap2\n      sub\n      swap1\n      return\n        /* \"contract/JointAccount.sol\":2799:4388  function withdraw(bool _isCelo, uint _amount, address _ERC20Address, address _sender) public payable {\r... */\n    tag_23:\n      tag_125\n      0x04\n      dup1\n      calldatasize\n      sub\n      dup2\n      add\n      swap1\n      tag_126\n      swap2\n      swap1\n      tag_127\n      jump\t// in\n    tag_126:\n      tag_128\n      jump\t// in\n    tag_125:\n      stop\n        /* \"contract/JointAccount.sol\":7099:7190  function returnTransferFee() public view returns(uint){\r... */\n    tag_24:\n      callvalue\n      dup1\n      iszero\n      tag_129\n      jumpi\n      0x00\n      dup1\n      revert\n    tag_129:\n      pop\n      tag_130\n      tag_131\n      jump\t// in\n    tag_130:\n      mload(0x40)\n      tag_132\n      swap2\n      swap1\n      tag_32\n      jump\t// in\n    tag_132:\n      mload(0x40)\n      dup1\n      swap2\n      sub\n      swap1\n      return\n        /* \"contract/JointAccount.sol\":1210:1256  mapping (address => uint) public withdrawLimit */\n    tag_25:\n      callvalue\n      dup1\n      iszero\n      tag_133\n      jumpi\n      0x00\n      dup1\n      revert\n    tag_133:\n      pop\n      tag_134\n      0x04\n      dup1\n      calldatasize\n      sub\n      dup2\n      add\n      swap1\n      tag_135\n      swap2\n      swap1\n      tag_73\n      jump\t// in\n    tag_135:\n      tag_136\n      jump\t// in\n    tag_134:\n      mload(0x40)\n      tag_137\n      swap2\n      swap1\n      tag_32\n      jump\t// in\n    tag_137:\n      mload(0x40)\n      dup1\n      swap2\n      sub\n      swap1\n      return\n        /* \"contract/JointAccount.sol\":1108:1134  bool public frozen = false */\n    tag_37:\n      0x0a\n      0x00\n      swap1\n      sload\n      swap1\n      0x0100\n      exp\n      swap1\n      div\n      0xff\n      and\n      dup2\n      jump\t// out\n        /* \"contract/JointAccount.sol\":1657:2051  function setBeneficiary(address payable _beneficiary, uint _delay, address _sender) public {\r... */\n    tag_44:\n        /* \"contract/JointAccount.sol\":1776:1783  _sender */\n      dup1\n        /* \"contract/JointAccount.sol\":1767:1783  owner == _sender */\n      0xffffffffffffffffffffffffffffffffffffffff\n      and\n        /* \"contract/JointAccount.sol\":1767:1772  owner */\n      0x00\n      dup1\n      sload\n      swap1\n      0x0100\n      exp\n      swap1\n      div\n      0xffffffffffffffffffffffffffffffffffffffff\n      and\n        /* \"contract/JointAccount.sol\":1767:1783  owner == _sender */\n      0xffffffffffffffffffffffffffffffffffffffff\n      and\n      eq\n        /* \"contract/JointAccount.sol\":1759:1827  require(owner == _sender, \"Only the owner can set the beneficiary.\") */\n      tag_139\n      jumpi\n      mload(0x40)\n      0x08c379a000000000000000000000000000000000000000000000000000000000\n      dup2\n      mstore\n      0x04\n      add\n      tag_140\n      swap1\n      tag_141\n      jump\t// in\n    tag_140:\n      mload(0x40)\n      dup1\n      swap2\n      sub\n      swap1\n      revert\n    tag_139:\n        /* \"contract/JointAccount.sol\":1847:1852  mutex */\n      0x08\n      0x14\n      swap1\n      sload\n      swap1\n      0x0100\n      exp\n      swap1\n      div\n      0xff\n      and\n        /* \"contract/JointAccount.sol\":1846:1852  !mutex */\n      iszero\n        /* \"contract/JointAccount.sol\":1838:1894  require(!mutex, \"The function is already in execution.\") */\n      tag_142\n      jumpi\n      mload(0x40)\n      0x08c379a000000000000000000000000000000000000000000000000000000000\n      dup2\n      mstore\n      0x04\n      add\n      tag_143\n      swap1\n      tag_144\n      jump\t// in\n    tag_143:\n      mload(0x40)\n      dup1\n      swap2\n      sub\n      swap1\n      revert\n    tag_142:\n        /* \"contract/JointAccount.sol\":1913:1917  true */\n      0x01\n        /* \"contract/JointAccount.sol\":1905:1910  mutex */\n      0x08\n      0x14\n        /* \"contract/JointAccount.sol\":1905:1917  mutex = true */\n      0x0100\n      exp\n      dup2\n      sload\n      dup2\n      0xff\n      mul\n      not\n      and\n      swap1\n      dup4\n      iszero\n      iszero\n      mul\n      or\n      swap1\n      sstore\n      pop\n        /* \"contract/JointAccount.sol\":1942:1954  _beneficiary */\n      dup3\n        /* \"contract/JointAccount.sol\":1928:1939  beneficiary */\n      0x01\n      0x00\n        /* \"contract/JointAccount.sol\":1928:1954  beneficiary = _beneficiary */\n      0x0100\n      exp\n      dup2\n      sload\n      dup2\n      0xffffffffffffffffffffffffffffffffffffffff\n      mul\n      not\n      and\n      swap1\n      dup4\n      0xffffffffffffffffffffffffffffffffffffffff\n      and\n      mul\n      or\n      swap1\n      sstore\n      pop\n        /* \"contract/JointAccount.sol\":1973:1979  _delay */\n      dup2\n        /* \"contract/JointAccount.sol\":1965:1970  delay */\n      0x03\n        /* \"contract/JointAccount.sol\":1965:1979  delay = _delay */\n      dup2\n      swap1\n      sstore\n      pop\n        /* \"contract/JointAccount.sol\":1998:2003  false */\n      0x00\n        /* \"contract/JointAccount.sol\":1990:1995  mutex */\n      0x08\n      0x14\n        /* \"contract/JointAccount.sol\":1990:2003  mutex = false */\n      0x0100\n      exp\n      dup2\n      sload\n      dup2\n      0xff\n      mul\n      not\n      and\n      swap1\n      dup4\n      iszero\n      iszero\n      mul\n      or\n      swap1\n      sstore\n      pop\n        /* \"contract/JointAccount.sol\":2028:2043  block.timestamp */\n      timestamp\n        /* \"contract/JointAccount.sol\":2014:2025  InitiatedAt */\n      0x02\n        /* \"contract/JointAccount.sol\":2014:2043  InitiatedAt = block.timestamp */\n      dup2\n      swap1\n      sstore\n      pop\n        /* \"contract/JointAccount.sol\":1657:2051  function setBeneficiary(address payable _beneficiary, uint _delay, address _sender) public {\r... */\n      pop\n      pop\n      pop\n      jump\t// out\n        /* \"contract/JointAccount.sol\":5980:6221  function balanceOf(bool _isCelo, address _ERC20Address) public view returns(uint) {\r... */\n    tag_49:\n        /* \"contract/JointAccount.sol\":6056:6060  uint */\n      0x00\n        /* \"contract/JointAccount.sol\":6073:6080  _isCelo */\n      dup3\n        /* \"contract/JointAccount.sol\":6069:6214  if (_isCelo) {\r... */\n      iszero\n      tag_146\n      jumpi\n        /* \"contract/JointAccount.sol\":6100:6121  address(this).balance */\n      selfbalance\n        /* \"contract/JointAccount.sol\":6093:6121  return address(this).balance */\n      swap1\n      pop\n      jump(tag_145)\n        /* \"contract/JointAccount.sol\":6069:6214  if (_isCelo) {\r... */\n    tag_146:\n        /* \"contract/JointAccount.sol\":6160:6173  _ERC20Address */\n      dup2\n        /* \"contract/JointAccount.sol\":6153:6184  IERC20(_ERC20Address).balanceOf */\n      0xffffffffffffffffffffffffffffffffffffffff\n      and\n      0x70a08231\n        /* \"contract/JointAccount.sol\":6193:6197  this */\n      address\n        /* \"contract/JointAccount.sol\":6153:6199  IERC20(_ERC20Address).balanceOf(address(this)) */\n      mload(0x40)\n      dup3\n      0xffffffff\n      and\n      0xe0\n      shl\n      dup2\n      mstore\n      0x04\n      add\n      tag_148\n      swap2\n      swap1\n      tag_55\n      jump\t// in\n    tag_148:\n      0x20\n      mload(0x40)\n      dup1\n      dup4\n      sub\n      dup2\n      dup7\n      dup1\n      extcodesize\n      iszero\n      dup1\n      iszero\n      tag_149\n      jumpi\n      0x00\n      dup1\n      revert\n    tag_149:\n      pop\n      gas\n      staticcall\n      iszero\n      dup1\n      iszero\n      tag_151\n      jumpi\n      returndatasize\n      0x00\n      dup1\n      returndatacopy\n      revert(0x00, returndatasize)\n    tag_151:\n      pop\n      pop\n      pop\n      pop\n      mload(0x40)\n      returndatasize\n      not(0x1f)\n      0x1f\n      dup3\n      add\n      and\n      dup3\n      add\n      dup1\n      0x40\n      mstore\n      pop\n      dup2\n      add\n      swap1\n      tag_152\n      swap2\n      swap1\n      tag_153\n      jump\t// in\n    tag_152:\n        /* \"contract/JointAccount.sol\":6146:6199  return IERC20(_ERC20Address).balanceOf(address(this)) */\n      swap1\n      pop\n        /* \"contract/JointAccount.sol\":5980:6221  function balanceOf(bool _isCelo, address _ERC20Address) public view returns(uint) {\r... */\n    tag_145:\n      swap3\n      swap2\n      pop\n      pop\n      jump\t// out\n        /* \"contract/JointAccount.sol\":6433:6527  function returnBeneficiary() public view returns(address){\r... */\n    tag_53:\n        /* \"contract/JointAccount.sol\":6482:6489  address */\n      0x00\n        /* \"contract/JointAccount.sol\":6508:6519  beneficiary */\n      0x01\n      0x00\n      swap1\n      sload\n      swap1\n      0x0100\n      exp\n      swap1\n      div\n      0xffffffffffffffffffffffffffffffffffffffff\n      and\n        /* \"contract/JointAccount.sol\":6501:6519  return beneficiary */\n      swap1\n      pop\n        /* \"contract/JointAccount.sol\":6433:6527  function returnBeneficiary() public view returns(address){\r... */\n      swap1\n      jump\t// out\n        /* \"contract/JointAccount.sol\":425:448  uint public InitiatedAt */\n    tag_58:\n      sload(0x02)\n      dup2\n      jump\t// out\n        /* \"contract/JointAccount.sol\":2130:2346  function setWithdrawLimit(address _sender, uint _amount, address _ERC20Address) public {\r... */\n    tag_64:\n        /* \"contract/JointAccount.sol\":2243:2248  owner */\n      0x00\n      dup1\n      sload\n      swap1\n      0x0100\n      exp\n      swap1\n      div\n      0xffffffffffffffffffffffffffffffffffffffff\n      and\n        /* \"contract/JointAccount.sol\":2232:2248  _sender == owner */\n      0xffffffffffffffffffffffffffffffffffffffff\n      and\n        /* \"contract/JointAccount.sol\":2232:2239  _sender */\n      dup4\n        /* \"contract/JointAccount.sol\":2232:2248  _sender == owner */\n      0xffffffffffffffffffffffffffffffffffffffff\n      and\n      eq\n        /* \"contract/JointAccount.sol\":2224:2297  require(_sender == owner, \"Only the owner can set the withdrawal limit.\") */\n      tag_156\n      jumpi\n      mload(0x40)\n      0x08c379a000000000000000000000000000000000000000000000000000000000\n      dup2\n      mstore\n      0x04\n      add\n      tag_157\n      swap1\n      tag_158\n      jump\t// in\n    tag_157:\n      mload(0x40)\n      dup1\n      swap2\n      sub\n      swap1\n      revert\n    tag_156:\n        /* \"contract/JointAccount.sol\":2335:2342  _amount */\n      dup2\n        /* \"contract/JointAccount.sol\":2304:2317  withdrawLimit */\n      0x0b\n        /* \"contract/JointAccount.sol\":2304:2332  withdrawLimit[_ERC20Address] */\n      0x00\n        /* \"contract/JointAccount.sol\":2318:2331  _ERC20Address */\n      dup4\n        /* \"contract/JointAccount.sol\":2304:2332  withdrawLimit[_ERC20Address] */\n      0xffffffffffffffffffffffffffffffffffffffff\n      and\n      0xffffffffffffffffffffffffffffffffffffffff\n      and\n      dup2\n      mstore\n      0x20\n      add\n      swap1\n      dup2\n      mstore\n      0x20\n      add\n      0x00\n      keccak256\n        /* \"contract/JointAccount.sol\":2304:2342  withdrawLimit[_ERC20Address] = _amount */\n      dup2\n      swap1\n      sstore\n      pop\n        /* \"contract/JointAccount.sol\":2130:2346  function setWithdrawLimit(address _sender, uint _amount, address _ERC20Address) public {\r... */\n      pop\n      pop\n      pop\n      jump\t// out\n        /* \"contract/JointAccount.sol\":340:374  address payable public beneficiary */\n    tag_67:\n      0x01\n      0x00\n      swap1\n      sload\n      swap1\n      0x0100\n      exp\n      swap1\n      div\n      0xffffffffffffffffffffffffffffffffffffffff\n      and\n      dup2\n      jump\t// out\n        /* \"contract/JointAccount.sol\":2594:2750  function unfreeze(address _sender) public {\r... */\n    tag_74:\n        /* \"contract/JointAccount.sol\":2666:2671  owner */\n      0x00\n      dup1\n      sload\n      swap1\n      0x0100\n      exp\n      swap1\n      div\n      0xffffffffffffffffffffffffffffffffffffffff\n      and\n        /* \"contract/JointAccount.sol\":2655:2671  _sender == owner */\n      0xffffffffffffffffffffffffffffffffffffffff\n      and\n        /* \"contract/JointAccount.sol\":2655:2662  _sender */\n      dup2\n        /* \"contract/JointAccount.sol\":2655:2671  _sender == owner */\n      0xffffffffffffffffffffffffffffffffffffffff\n      and\n      eq\n        /* \"contract/JointAccount.sol\":2647:2716  require(_sender == owner, \"Only the owner can unfreeze the account.\") */\n      tag_160\n      jumpi\n      mload(0x40)\n      0x08c379a000000000000000000000000000000000000000000000000000000000\n      dup2\n      mstore\n      0x04\n      add\n      tag_161\n      swap1\n      tag_162\n      jump\t// in\n    tag_161:\n      mload(0x40)\n      dup1\n      swap2\n      sub\n      swap1\n      revert\n    tag_160:\n        /* \"contract/JointAccount.sol\":2736:2741  false */\n      0x00\n        /* \"contract/JointAccount.sol\":2727:2733  frozen */\n      0x0a\n      0x00\n        /* \"contract/JointAccount.sol\":2727:2741  frozen = false */\n      0x0100\n      exp\n      dup2\n      sload\n      dup2\n      0xff\n      mul\n      not\n      and\n      swap1\n      dup4\n      iszero\n      iszero\n      mul\n      or\n      swap1\n      sstore\n      pop\n        /* \"contract/JointAccount.sol\":2594:2750  function unfreeze(address _sender) public {\r... */\n      pop\n      jump\t// out\n        /* \"contract/JointAccount.sol\":6939:7029  function returnInitiateAt() public view returns(uint){\r... */\n    tag_77:\n        /* \"contract/JointAccount.sol\":6987:6991  uint */\n      0x00\n        /* \"contract/JointAccount.sol\":7010:7021  InitiatedAt */\n      sload(0x02)\n        /* \"contract/JointAccount.sol\":7003:7021  return InitiatedAt */\n      swap1\n      pop\n        /* \"contract/JointAccount.sol\":6939:7029  function returnInitiateAt() public view returns(uint){\r... */\n      swap1\n      jump\t// out\n        /* \"contract/JointAccount.sol\":556:573  uint public delay */\n    tag_81:\n      sload(0x03)\n      dup2\n      jump\t// out\n        /* \"contract/JointAccount.sol\":4435:5924  function transferFunds(bool _isCelo, address payable _recipient, uint _amount, address _ERC20Address, address _sender) public payable {\r... */\n    tag_86:\n        /* \"contract/JointAccount.sol\":4599:4604  owner */\n      0x00\n      dup1\n      sload\n      swap1\n      0x0100\n      exp\n      swap1\n      div\n      0xffffffffffffffffffffffffffffffffffffffff\n      and\n        /* \"contract/JointAccount.sol\":4588:4604  _sender == owner */\n      0xffffffffffffffffffffffffffffffffffffffff\n      and\n        /* \"contract/JointAccount.sol\":4588:4595  _sender */\n      dup2\n        /* \"contract/JointAccount.sol\":4588:4604  _sender == owner */\n      0xffffffffffffffffffffffffffffffffffffffff\n      and\n      eq\n        /* \"contract/JointAccount.sol\":4588:4630  _sender == owner || _sender == beneficiary */\n      dup1\n      tag_165\n      jumpi\n      pop\n        /* \"contract/JointAccount.sol\":4619:4630  beneficiary */\n      0x01\n      0x00\n      swap1\n      sload\n      swap1\n      0x0100\n      exp\n      swap1\n      div\n      0xffffffffffffffffffffffffffffffffffffffff\n      and\n        /* \"contract/JointAccount.sol\":4608:4630  _sender == beneficiary */\n      0xffffffffffffffffffffffffffffffffffffffff\n      and\n        /* \"contract/JointAccount.sol\":4608:4615  _sender */\n      dup2\n        /* \"contract/JointAccount.sol\":4608:4630  _sender == beneficiary */\n      0xffffffffffffffffffffffffffffffffffffffff\n      and\n      eq\n        /* \"contract/JointAccount.sol\":4588:4630  _sender == owner || _sender == beneficiary */\n    tag_165:\n        /* \"contract/JointAccount.sol\":4580:4688  require(_sender == owner || _sender == beneficiary, \"Only the owner or the beneficiary can withdraw funds.\") */\n      tag_166\n      jumpi\n      mload(0x40)\n      0x08c379a000000000000000000000000000000000000000000000000000000000\n      dup2\n      mstore\n      0x04\n      add\n      tag_167\n      swap1\n      tag_168\n      jump\t// in\n    tag_167:\n      mload(0x40)\n      dup1\n      swap2\n      sub\n      swap1\n      revert\n    tag_166:\n        /* \"contract/JointAccount.sol\":4714:4725  beneficiary */\n      0x01\n      0x00\n      swap1\n      sload\n      swap1\n      0x0100\n      exp\n      swap1\n      div\n      0xffffffffffffffffffffffffffffffffffffffff\n      and\n        /* \"contract/JointAccount.sol\":4703:4725  _sender == beneficiary */\n      0xffffffffffffffffffffffffffffffffffffffff\n      and\n        /* \"contract/JointAccount.sol\":4703:4710  _sender */\n      dup2\n        /* \"contract/JointAccount.sol\":4703:4725  _sender == beneficiary */\n      0xffffffffffffffffffffffffffffffffffffffff\n      and\n      eq\n        /* \"contract/JointAccount.sol\":4699:4918  if (_sender == beneficiary) {\r... */\n      iszero\n      tag_169\n      jumpi\n        /* \"contract/JointAccount.sol\":4761:4774  withdrawLimit */\n      0x0b\n        /* \"contract/JointAccount.sol\":4761:4789  withdrawLimit[_ERC20Address] */\n      0x00\n        /* \"contract/JointAccount.sol\":4775:4788  _ERC20Address */\n      dup4\n        /* \"contract/JointAccount.sol\":4761:4789  withdrawLimit[_ERC20Address] */\n      0xffffffffffffffffffffffffffffffffffffffff\n      and\n      0xffffffffffffffffffffffffffffffffffffffff\n      and\n      dup2\n      mstore\n      0x20\n      add\n      swap1\n      dup2\n      mstore\n      0x20\n      add\n      0x00\n      keccak256\n      sload\n        /* \"contract/JointAccount.sol\":4750:4757  _amount */\n      dup4\n        /* \"contract/JointAccount.sol\":4750:4789  _amount <= withdrawLimit[_ERC20Address] */\n      gt\n      iszero\n        /* \"contract/JointAccount.sol\":4750:4832  _amount <= withdrawLimit[_ERC20Address] || (InitiatedAt + delay) < block.timestamp */\n      dup1\n      tag_170\n      jumpi\n      pop\n        /* \"contract/JointAccount.sol\":4817:4832  block.timestamp */\n      timestamp\n        /* \"contract/JointAccount.sol\":4808:4813  delay */\n      sload(0x03)\n        /* \"contract/JointAccount.sol\":4794:4805  InitiatedAt */\n      sload(0x02)\n        /* \"contract/JointAccount.sol\":4794:4813  InitiatedAt + delay */\n      tag_171\n      swap2\n      swap1\n      tag_172\n      jump\t// in\n    tag_171:\n        /* \"contract/JointAccount.sol\":4793:4832  (InitiatedAt + delay) < block.timestamp */\n      lt\n        /* \"contract/JointAccount.sol\":4750:4832  _amount <= withdrawLimit[_ERC20Address] || (InitiatedAt + delay) < block.timestamp */\n    tag_170:\n        /* \"contract/JointAccount.sol\":4742:4906  require(_amount <= withdrawLimit[_ERC20Address] || (InitiatedAt + delay) < block.timestamp , \"The withdrawal amount exceeds the limit or delay has not passed yet.\") */\n      tag_173\n      jumpi\n      mload(0x40)\n      0x08c379a000000000000000000000000000000000000000000000000000000000\n      dup2\n      mstore\n      0x04\n      add\n      tag_174\n      swap1\n      tag_175\n      jump\t// in\n    tag_174:\n      mload(0x40)\n      dup1\n      swap2\n      sub\n      swap1\n      revert\n    tag_173:\n        /* \"contract/JointAccount.sol\":4699:4918  if (_sender == beneficiary) {\r... */\n    tag_169:\n        /* \"contract/JointAccount.sol\":4937:4943  frozen */\n      0x0a\n      0x00\n      swap1\n      sload\n      swap1\n      0x0100\n      exp\n      swap1\n      div\n      0xff\n      and\n        /* \"contract/JointAccount.sol\":4936:4943  !frozen */\n      iszero\n        /* \"contract/JointAccount.sol\":4928:4989  require(!frozen, \"Account is frozen, cannot withdraw funds.\") */\n      tag_176\n      jumpi\n      mload(0x40)\n      0x08c379a000000000000000000000000000000000000000000000000000000000\n      dup2\n      mstore\n      0x04\n      add\n      tag_177\n      swap1\n      tag_178\n      jump\t// in\n    tag_177:\n      mload(0x40)\n      dup1\n      swap2\n      sub\n      swap1\n      revert\n    tag_176:\n        /* \"contract/JointAccount.sol\":5003:5010  _isCelo */\n      dup5\n        /* \"contract/JointAccount.sol\":4999:5917  if (_isCelo) {\r... */\n      iszero\n      tag_179\n      jumpi\n        /* \"contract/JointAccount.sol\":5046:5067  address(this).balance */\n      selfbalance\n        /* \"contract/JointAccount.sol\":5035:5042  _amount */\n      dup4\n        /* \"contract/JointAccount.sol\":5035:5067  _amount <= address(this).balance */\n      gt\n      iszero\n        /* \"contract/JointAccount.sol\":5027:5091  require(_amount <= address(this).balance, \"Insufficient funds.\") */\n      tag_180\n      jumpi\n      mload(0x40)\n      0x08c379a000000000000000000000000000000000000000000000000000000000\n      dup2\n      mstore\n      0x04\n      add\n      tag_181\n      swap1\n      tag_182\n      jump\t// in\n    tag_181:\n      mload(0x40)\n      dup1\n      swap2\n      sub\n      swap1\n      revert\n    tag_180:\n        /* \"contract/JointAccount.sol\":5115:5120  mutex */\n      0x08\n      0x14\n      swap1\n      sload\n      swap1\n      0x0100\n      exp\n      swap1\n      div\n      0xff\n      and\n        /* \"contract/JointAccount.sol\":5114:5120  !mutex */\n      iszero\n        /* \"contract/JointAccount.sol\":5106:5162  require(!mutex, \"The function is already in execution.\") */\n      tag_183\n      jumpi\n      mload(0x40)\n      0x08c379a000000000000000000000000000000000000000000000000000000000\n      dup2\n      mstore\n      0x04\n      add\n      tag_184\n      swap1\n      tag_144\n      jump\t// in\n    tag_184:\n      mload(0x40)\n      dup1\n      swap2\n      sub\n      swap1\n      revert\n    tag_183:\n        /* \"contract/JointAccount.sol\":5185:5189  true */\n      0x01\n        /* \"contract/JointAccount.sol\":5177:5182  mutex */\n      0x08\n      0x14\n        /* \"contract/JointAccount.sol\":5177:5189  mutex = true */\n      0x0100\n      exp\n      dup2\n      sload\n      dup2\n      0xff\n      mul\n      not\n      and\n      swap1\n      dup4\n      iszero\n      iszero\n      mul\n      or\n      swap1\n      sstore\n      pop\n        /* \"contract/JointAccount.sol\":5210:5243  _amount.mul(transferFee).div(100) */\n      tag_185\n        /* \"contract/JointAccount.sol\":5239:5242  100 */\n      0x64\n        /* \"contract/JointAccount.sol\":5210:5234  _amount.mul(transferFee) */\n      tag_186\n        /* \"contract/JointAccount.sol\":5222:5233  transferFee */\n      sload(0x05)\n        /* \"contract/JointAccount.sol\":5210:5217  _amount */\n      dup7\n        /* \"contract/JointAccount.sol\":5210:5221  _amount.mul */\n      tag_187\n      swap1\n        /* \"contract/JointAccount.sol\":5210:5234  _amount.mul(transferFee) */\n      swap2\n      swap1\n      0xffffffff\n      and\n      jump\t// in\n    tag_186:\n        /* \"contract/JointAccount.sol\":5210:5238  _amount.mul(transferFee).div */\n      tag_188\n      swap1\n        /* \"contract/JointAccount.sol\":5210:5243  _amount.mul(transferFee).div(100) */\n      swap2\n      swap1\n      0xffffffff\n      and\n      jump\t// in\n    tag_185:\n        /* \"contract/JointAccount.sol\":5204:5207  fee */\n      0x04\n        /* \"contract/JointAccount.sol\":5204:5243  fee = _amount.mul(transferFee).div(100) */\n      dup2\n      swap1\n      sstore\n      pop\n        /* \"contract/JointAccount.sol\":5258:5268  _recipient */\n      dup4\n        /* \"contract/JointAccount.sol\":5258:5277  _recipient.transfer */\n      0xffffffffffffffffffffffffffffffffffffffff\n      and\n        /* \"contract/JointAccount.sol\":5258:5295  _recipient.transfer(_amount.sub(fee)) */\n      0x08fc\n        /* \"contract/JointAccount.sol\":5278:5294  _amount.sub(fee) */\n      tag_189\n        /* \"contract/JointAccount.sol\":5290:5293  fee */\n      sload(0x04)\n        /* \"contract/JointAccount.sol\":5278:5285  _amount */\n      dup7\n        /* \"contract/JointAccount.sol\":5278:5289  _amount.sub */\n      tag_190\n      swap1\n        /* \"contract/JointAccount.sol\":5278:5294  _amount.sub(fee) */\n      swap2\n      swap1\n      0xffffffff\n      and\n      jump\t// in\n    tag_189:\n        /* \"contract/JointAccount.sol\":5258:5295  _recipient.transfer(_amount.sub(fee)) */\n      swap1\n      dup2\n      iszero\n      mul\n      swap1\n      mload(0x40)\n      0x00\n      mload(0x40)\n      dup1\n      dup4\n      sub\n      dup2\n      dup6\n      dup9\n      dup9\n      call\n      swap4\n      pop\n      pop\n      pop\n      pop\n      iszero\n      dup1\n      iszero\n      tag_192\n      jumpi\n      returndatasize\n      0x00\n      dup1\n      returndatacopy\n      revert(0x00, returndatasize)\n    tag_192:\n      pop\n        /* \"contract/JointAccount.sol\":5310:5320  feeAddress */\n      0x06\n      0x00\n      swap1\n      sload\n      swap1\n      0x0100\n      exp\n      swap1\n      div\n      0xffffffffffffffffffffffffffffffffffffffff\n      and\n        /* \"contract/JointAccount.sol\":5310:5329  feeAddress.transfer */\n      0xffffffffffffffffffffffffffffffffffffffff\n      and\n        /* \"contract/JointAccount.sol\":5310:5334  feeAddress.transfer(fee) */\n      0x08fc\n        /* \"contract/JointAccount.sol\":5330:5333  fee */\n      sload(0x04)\n        /* \"contract/JointAccount.sol\":5310:5334  feeAddress.transfer(fee) */\n      swap1\n      dup2\n      iszero\n      mul\n      swap1\n      mload(0x40)\n      0x00\n      mload(0x40)\n      dup1\n      dup4\n      sub\n      dup2\n      dup6\n      dup9\n      dup9\n      call\n      swap4\n      pop\n      pop\n      pop\n      pop\n      iszero\n      dup1\n      iszero\n      tag_194\n      jumpi\n      returndatasize\n      0x00\n      dup1\n      returndatacopy\n      revert(0x00, returndatasize)\n    tag_194:\n      pop\n        /* \"contract/JointAccount.sol\":5381:5388  _amount */\n      dup3\n        /* \"contract/JointAccount.sol\":5349:5362  withdrawLimit */\n      0x0b\n        /* \"contract/JointAccount.sol\":5349:5377  withdrawLimit[_ERC20Address] */\n      0x00\n        /* \"contract/JointAccount.sol\":5363:5376  _ERC20Address */\n      dup5\n        /* \"contract/JointAccount.sol\":5349:5377  withdrawLimit[_ERC20Address] */\n      0xffffffffffffffffffffffffffffffffffffffff\n      and\n      0xffffffffffffffffffffffffffffffffffffffff\n      and\n      dup2\n      mstore\n      0x20\n      add\n      swap1\n      dup2\n      mstore\n      0x20\n      add\n      0x00\n      keccak256\n      0x00\n        /* \"contract/JointAccount.sol\":5349:5388  withdrawLimit[_ERC20Address] -= _amount */\n      dup3\n      dup3\n      sload\n      tag_195\n      swap2\n      swap1\n      tag_196\n      jump\t// in\n    tag_195:\n      swap3\n      pop\n      pop\n      dup2\n      swap1\n      sstore\n      pop\n        /* \"contract/JointAccount.sol\":5411:5416  false */\n      0x00\n        /* \"contract/JointAccount.sol\":5403:5408  mutex */\n      0x08\n      0x14\n        /* \"contract/JointAccount.sol\":5403:5416  mutex = false */\n      0x0100\n      exp\n      dup2\n      sload\n      dup2\n      0xff\n      mul\n      not\n      and\n      swap1\n      dup4\n      iszero\n      iszero\n      mul\n      or\n      swap1\n      sstore\n      pop\n        /* \"contract/JointAccount.sol\":4999:5917  if (_isCelo) {\r... */\n      jump(tag_197)\n    tag_179:\n        /* \"contract/JointAccount.sol\":5464:5477  _ERC20Address */\n      dup2\n        /* \"contract/JointAccount.sol\":5449:5454  ERC20 */\n      0x08\n      0x00\n        /* \"contract/JointAccount.sol\":5449:5478  ERC20 = IERC20(_ERC20Address) */\n      0x0100\n      exp\n      dup2\n      sload\n      dup2\n      0xffffffffffffffffffffffffffffffffffffffff\n      mul\n      not\n      and\n      swap1\n      dup4\n      0xffffffffffffffffffffffffffffffffffffffff\n      and\n      mul\n      or\n      swap1\n      sstore\n      pop\n        /* \"contract/JointAccount.sol\":5512:5517  ERC20 */\n      0x08\n      0x00\n      swap1\n      sload\n      swap1\n      0x0100\n      exp\n      swap1\n      div\n      0xffffffffffffffffffffffffffffffffffffffff\n      and\n        /* \"contract/JointAccount.sol\":5512:5527  ERC20.balanceOf */\n      0xffffffffffffffffffffffffffffffffffffffff\n      and\n      0x70a08231\n        /* \"contract/JointAccount.sol\":5536:5540  this */\n      address\n        /* \"contract/JointAccount.sol\":5512:5542  ERC20.balanceOf(address(this)) */\n      mload(0x40)\n      dup3\n      0xffffffff\n      and\n      0xe0\n      shl\n      dup2\n      mstore\n      0x04\n      add\n      tag_198\n      swap2\n      swap1\n      tag_55\n      jump\t// in\n    tag_198:\n      0x20\n      mload(0x40)\n      dup1\n      dup4\n      sub\n      dup2\n      dup7\n      dup1\n      extcodesize\n      iszero\n      dup1\n      iszero\n      tag_199\n      jumpi\n      0x00\n      dup1\n      revert\n    tag_199:\n      pop\n      gas\n      staticcall\n      iszero\n      dup1\n      iszero\n      tag_201\n      jumpi\n      returndatasize\n      0x00\n      dup1\n      returndatacopy\n      revert(0x00, returndatasize)\n    tag_201:\n      pop\n      pop\n      pop\n      pop\n      mload(0x40)\n      returndatasize\n      not(0x1f)\n      0x1f\n      dup3\n      add\n      and\n      dup3\n      add\n      dup1\n      0x40\n      mstore\n      pop\n      dup2\n      add\n      swap1\n      tag_202\n      swap2\n      swap1\n      tag_153\n      jump\t// in\n    tag_202:\n        /* \"contract/JointAccount.sol\":5501:5508  _amount */\n      dup4\n        /* \"contract/JointAccount.sol\":5501:5542  _amount <= ERC20.balanceOf(address(this)) */\n      gt\n      iszero\n        /* \"contract/JointAccount.sol\":5493:5566  require(_amount <= ERC20.balanceOf(address(this)), \"Insufficient funds.\") */\n      tag_203\n      jumpi\n      mload(0x40)\n      0x08c379a000000000000000000000000000000000000000000000000000000000\n      dup2\n      mstore\n      0x04\n      add\n      tag_204\n      swap1\n      tag_182\n      jump\t// in\n    tag_204:\n      mload(0x40)\n      dup1\n      swap2\n      sub\n      swap1\n      revert\n    tag_203:\n        /* \"contract/JointAccount.sol\":5590:5595  mutex */\n      0x08\n      0x14\n      swap1\n      sload\n      swap1\n      0x0100\n      exp\n      swap1\n      div\n      0xff\n      and\n        /* \"contract/JointAccount.sol\":5589:5595  !mutex */\n      iszero\n        /* \"contract/JointAccount.sol\":5581:5637  require(!mutex, \"The function is already in execution.\") */\n      tag_205\n      jumpi\n      mload(0x40)\n      0x08c379a000000000000000000000000000000000000000000000000000000000\n      dup2\n      mstore\n      0x04\n      add\n      tag_206\n      swap1\n      tag_144\n      jump\t// in\n    tag_206:\n      mload(0x40)\n      dup1\n      swap2\n      sub\n      swap1\n      revert\n    tag_205:\n        /* \"contract/JointAccount.sol\":5660:5664  true */\n      0x01\n        /* \"contract/JointAccount.sol\":5652:5657  mutex */\n      0x08\n      0x14\n        /* \"contract/JointAccount.sol\":5652:5664  mutex = true */\n      0x0100\n      exp\n      dup2\n      sload\n      dup2\n      0xff\n      mul\n      not\n      and\n      swap1\n      dup4\n      iszero\n      iszero\n      mul\n      or\n      swap1\n      sstore\n      pop\n        /* \"contract/JointAccount.sol\":5685:5718  _amount.mul(transferFee).div(100) */\n      tag_207\n        /* \"contract/JointAccount.sol\":5714:5717  100 */\n      0x64\n        /* \"contract/JointAccount.sol\":5685:5709  _amount.mul(transferFee) */\n      tag_208\n        /* \"contract/JointAccount.sol\":5697:5708  transferFee */\n      sload(0x05)\n        /* \"contract/JointAccount.sol\":5685:5692  _amount */\n      dup7\n        /* \"contract/JointAccount.sol\":5685:5696  _amount.mul */\n      tag_187\n      swap1\n        /* \"contract/JointAccount.sol\":5685:5709  _amount.mul(transferFee) */\n      swap2\n      swap1\n      0xffffffff\n      and\n      jump\t// in\n    tag_208:\n        /* \"contract/JointAccount.sol\":5685:5713  _amount.mul(transferFee).div */\n      tag_188\n      swap1\n        /* \"contract/JointAccount.sol\":5685:5718  _amount.mul(transferFee).div(100) */\n      swap2\n      swap1\n      0xffffffff\n      and\n      jump\t// in\n    tag_207:\n        /* \"contract/JointAccount.sol\":5679:5682  fee */\n      0x04\n        /* \"contract/JointAccount.sol\":5679:5718  fee = _amount.mul(transferFee).div(100) */\n      dup2\n      swap1\n      sstore\n      pop\n        /* \"contract/JointAccount.sol\":5733:5738  ERC20 */\n      0x08\n      0x00\n      swap1\n      sload\n      swap1\n      0x0100\n      exp\n      swap1\n      div\n      0xffffffffffffffffffffffffffffffffffffffff\n      and\n        /* \"contract/JointAccount.sol\":5733:5747  ERC20.transfer */\n      0xffffffffffffffffffffffffffffffffffffffff\n      and\n      0xa9059cbb\n        /* \"contract/JointAccount.sol\":5748:5758  _recipient */\n      dup6\n        /* \"contract/JointAccount.sol\":5760:5776  _amount.sub(fee) */\n      tag_209\n        /* \"contract/JointAccount.sol\":5772:5775  fee */\n      sload(0x04)\n        /* \"contract/JointAccount.sol\":5760:5767  _amount */\n      dup8\n        /* \"contract/JointAccount.sol\":5760:5771  _amount.sub */\n      tag_190\n      swap1\n        /* \"contract/JointAccount.sol\":5760:5776  _amount.sub(fee) */\n      swap2\n      swap1\n      0xffffffff\n      and\n      jump\t// in\n    tag_209:\n        /* \"contract/JointAccount.sol\":5733:5777  ERC20.transfer(_recipient, _amount.sub(fee)) */\n      mload(0x40)\n      dup4\n      0xffffffff\n      and\n      0xe0\n      shl\n      dup2\n      mstore\n      0x04\n      add\n      tag_210\n      swap3\n      swap2\n      swap1\n      tag_211\n      jump\t// in\n    tag_210:\n      0x20\n      mload(0x40)\n      dup1\n      dup4\n      sub\n      dup2\n      0x00\n      dup8\n      dup1\n      extcodesize\n      iszero\n      dup1\n      iszero\n      tag_212\n      jumpi\n      0x00\n      dup1\n      revert\n    tag_212:\n      pop\n      gas\n      call\n      iszero\n      dup1\n      iszero\n      tag_214\n      jumpi\n      returndatasize\n      0x00\n      dup1\n      returndatacopy\n      revert(0x00, returndatasize)\n    tag_214:\n      pop\n      pop\n      pop\n      pop\n      mload(0x40)\n      returndatasize\n      not(0x1f)\n      0x1f\n      dup3\n      add\n      and\n      dup3\n      add\n      dup1\n      0x40\n      mstore\n      pop\n      dup2\n      add\n      swap1\n      tag_215\n      swap2\n      swap1\n      tag_216\n      jump\t// in\n    tag_215:\n      pop\n        /* \"contract/JointAccount.sol\":5792:5797  ERC20 */\n      0x08\n      0x00\n      swap1\n      sload\n      swap1\n      0x0100\n      exp\n      swap1\n      div\n      0xffffffffffffffffffffffffffffffffffffffff\n      and\n        /* \"contract/JointAccount.sol\":5792:5806  ERC20.transfer */\n      0xffffffffffffffffffffffffffffffffffffffff\n      and\n      0xa9059cbb\n        /* \"contract/JointAccount.sol\":5807:5817  feeAddress */\n      0x06\n      0x00\n      swap1\n      sload\n      swap1\n      0x0100\n      exp\n      swap1\n      div\n      0xffffffffffffffffffffffffffffffffffffffff\n      and\n        /* \"contract/JointAccount.sol\":5819:5822  fee */\n      sload(0x04)\n        /* \"contract/JointAccount.sol\":5792:5823  ERC20.transfer(feeAddress, fee) */\n      mload(0x40)\n      dup4\n      0xffffffff\n      and\n      0xe0\n      shl\n      dup2\n      mstore\n      0x04\n      add\n      tag_217\n      swap3\n      swap2\n      swap1\n      tag_211\n      jump\t// in\n    tag_217:\n      0x20\n      mload(0x40)\n      dup1\n      dup4\n      sub\n      dup2\n      0x00\n      dup8\n      dup1\n      extcodesize\n      iszero\n      dup1\n      iszero\n      tag_218\n      jumpi\n      0x00\n      dup1\n      revert\n    tag_218:\n      pop\n      gas\n      call\n      iszero\n      dup1\n      iszero\n      tag_220\n      jumpi\n      returndatasize\n      0x00\n      dup1\n      returndatacopy\n      revert(0x00, returndatasize)\n    tag_220:\n      pop\n      pop\n      pop\n      pop\n      mload(0x40)\n      returndatasize\n      not(0x1f)\n      0x1f\n      dup3\n      add\n      and\n      dup3\n      add\n      dup1\n      0x40\n      mstore\n      pop\n      dup2\n      add\n      swap1\n      tag_221\n      swap2\n      swap1\n      tag_216\n      jump\t// in\n    tag_221:\n      pop\n        /* \"contract/JointAccount.sol\":5870:5877  _amount */\n      dup3\n        /* \"contract/JointAccount.sol\":5838:5851  withdrawLimit */\n      0x0b\n        /* \"contract/JointAccount.sol\":5838:5866  withdrawLimit[_ERC20Address] */\n      0x00\n        /* \"contract/JointAccount.sol\":5852:5865  _ERC20Address */\n      dup5\n        /* \"contract/JointAccount.sol\":5838:5866  withdrawLimit[_ERC20Address] */\n      0xffffffffffffffffffffffffffffffffffffffff\n      and\n      0xffffffffffffffffffffffffffffffffffffffff\n      and\n      dup2\n      mstore\n      0x20\n      add\n      swap1\n      dup2\n      mstore\n      0x20\n      add\n      0x00\n      keccak256\n      0x00\n        /* \"contract/JointAccount.sol\":5838:5877  withdrawLimit[_ERC20Address] -= _amount */\n      dup3\n      dup3\n      sload\n      tag_222\n      swap2\n      swap1\n      tag_196\n      jump\t// in\n    tag_222:\n      swap3\n      pop\n      pop\n      dup2\n      swap1\n      sstore\n      pop\n        /* \"contract/JointAccount.sol\":5900:5905  false */\n      0x00\n        /* \"contract/JointAccount.sol\":5892:5897  mutex */\n      0x08\n      0x14\n        /* \"contract/JointAccount.sol\":5892:5905  mutex = false */\n      0x0100\n      exp\n      dup2\n      sload\n      dup2\n      0xff\n      mul\n      not\n      and\n      swap1\n      dup4\n      iszero\n      iszero\n      mul\n      or\n      swap1\n      sstore\n      pop\n        /* \"contract/JointAccount.sol\":4999:5917  if (_isCelo) {\r... */\n    tag_197:\n        /* \"contract/JointAccount.sol\":4435:5924  function transferFunds(bool _isCelo, address payable _recipient, uint _amount, address _ERC20Address, address _sender) public payable {\r... */\n      pop\n      pop\n      pop\n      pop\n      pop\n      jump\t// out\n        /* \"contract/JointAccount.sol\":796:829  address payable public ERC20Token */\n    tag_89:\n      0x07\n      0x00\n      swap1\n      sload\n      swap1\n      0x0100\n      exp\n      swap1\n      div\n      0xffffffffffffffffffffffffffffffffffffffff\n      and\n      dup2\n      jump\t// out\n        /* \"contract/JointAccount.sol\":2395:2545  function freeze(address _sender) public {\r... */\n    tag_94:\n        /* \"contract/JointAccount.sol\":2465:2470  owner */\n      0x00\n      dup1\n      sload\n      swap1\n      0x0100\n      exp\n      swap1\n      div\n      0xffffffffffffffffffffffffffffffffffffffff\n      and\n        /* \"contract/JointAccount.sol\":2454:2470  _sender == owner */\n      0xffffffffffffffffffffffffffffffffffffffff\n      and\n        /* \"contract/JointAccount.sol\":2454:2461  _sender */\n      dup2\n        /* \"contract/JointAccount.sol\":2454:2470  _sender == owner */\n      0xffffffffffffffffffffffffffffffffffffffff\n      and\n      eq\n        /* \"contract/JointAccount.sol\":2446:2513  require(_sender == owner, \"Only the owner can freeze the account.\") */\n      tag_224\n      jumpi\n      mload(0x40)\n      0x08c379a000000000000000000000000000000000000000000000000000000000\n      dup2\n      mstore\n      0x04\n      add\n      tag_225\n      swap1\n      tag_226\n      jump\t// in\n    tag_225:\n      mload(0x40)\n      dup1\n      swap2\n      sub\n      swap1\n      revert\n    tag_224:\n        /* \"contract/JointAccount.sol\":2533:2537  true */\n      0x01\n        /* \"contract/JointAccount.sol\":2524:2530  frozen */\n      0x0a\n      0x00\n        /* \"contract/JointAccount.sol\":2524:2537  frozen = true */\n      0x0100\n      exp\n      dup2\n      sload\n      dup2\n      0xff\n      mul\n      not\n      and\n      swap1\n      dup4\n      iszero\n      iszero\n      mul\n      or\n      swap1\n      sstore\n      pop\n        /* \"contract/JointAccount.sol\":2395:2545  function freeze(address _sender) public {\r... */\n      pop\n      jump\t// out\n        /* \"contract/JointAccount.sol\":266:294  address payable public owner */\n    tag_97:\n      0x00\n      dup1\n      sload\n      swap1\n      0x0100\n      exp\n      swap1\n      div\n      0xffffffffffffffffffffffffffffffffffffffff\n      and\n      dup2\n      jump\t// out\n        /* \"contract/JointAccount.sol\":6281:6363  function returnOwner() public view returns(address){\r... */\n    tag_101:\n        /* \"contract/JointAccount.sol\":6324:6331  address */\n      0x00\n        /* \"contract/JointAccount.sol\":6350:6355  owner */\n      dup1\n      0x00\n      swap1\n      sload\n      swap1\n      0x0100\n      exp\n      swap1\n      div\n      0xffffffffffffffffffffffffffffffffffffffff\n      and\n        /* \"contract/JointAccount.sol\":6343:6355  return owner */\n      swap1\n      pop\n        /* \"contract/JointAccount.sol\":6281:6363  function returnOwner() public view returns(address){\r... */\n      swap1\n      jump\t// out\n        /* \"contract/JointAccount.sol\":1054:1078  uint public tokenBalance */\n    tag_105:\n      sload(0x09)\n      dup2\n      jump\t// out\n        /* \"contract/JointAccount.sol\":992:1017  bool public mutex = false */\n    tag_109:\n      0x08\n      0x14\n      swap1\n      sload\n      swap1\n      0x0100\n      exp\n      swap1\n      div\n      0xff\n      and\n      dup2\n      jump\t// out\n        /* \"contract/JointAccount.sol\":6785:6864  function returnDelay() public view returns(uint){\r... */\n    tag_113:\n        /* \"contract/JointAccount.sol\":6828:6832  uint */\n      0x00\n        /* \"contract/JointAccount.sol\":6851:6856  delay */\n      sload(0x03)\n        /* \"contract/JointAccount.sol\":6844:6856  return delay */\n      swap1\n      pop\n        /* \"contract/JointAccount.sol\":6785:6864  function returnDelay() public view returns(uint){\r... */\n      swap1\n      jump\t// out\n        /* \"contract/JointAccount.sol\":851:870  IERC20 public ERC20 */\n    tag_117:\n      0x08\n      0x00\n      swap1\n      sload\n      swap1\n      0x0100\n      exp\n      swap1\n      div\n      0xffffffffffffffffffffffffffffffffffffffff\n      and\n      dup2\n      jump\t// out\n        /* \"contract/JointAccount.sol\":6596:6722  function getWithdrawLimit(address _ERC20Address) public view returns (uint) {\r... */\n    tag_123:\n        /* \"contract/JointAccount.sol\":6666:6670  uint */\n      0x00\n        /* \"contract/JointAccount.sol\":6686:6699  withdrawLimit */\n      0x0b\n        /* \"contract/JointAccount.sol\":6686:6714  withdrawLimit[_ERC20Address] */\n      0x00\n        /* \"contract/JointAccount.sol\":6700:6713  _ERC20Address */\n      dup4\n        /* \"contract/JointAccount.sol\":6686:6714  withdrawLimit[_ERC20Address] */\n      0xffffffffffffffffffffffffffffffffffffffff\n      and\n      0xffffffffffffffffffffffffffffffffffffffff\n      and\n      dup2\n      mstore\n      0x20\n      add\n      swap1\n      dup2\n      mstore\n      0x20\n      add\n      0x00\n      keccak256\n      sload\n        /* \"contract/JointAccount.sol\":6679:6714  return withdrawLimit[_ERC20Address] */\n      swap1\n      pop\n        /* \"contract/JointAccount.sol\":6596:6722  function getWithdrawLimit(address _ERC20Address) public view returns (uint) {\r... */\n      swap2\n      swap1\n      pop\n      jump\t// out\n        /* \"contract/JointAccount.sol\":2799:4388  function withdraw(bool _isCelo, uint _amount, address _ERC20Address, address _sender) public payable {\r... */\n    tag_128:\n        /* \"contract/JointAccount.sol\":2930:2935  owner */\n      0x00\n      dup1\n      sload\n      swap1\n      0x0100\n      exp\n      swap1\n      div\n      0xffffffffffffffffffffffffffffffffffffffff\n      and\n        /* \"contract/JointAccount.sol\":2919:2935  _sender == owner */\n      0xffffffffffffffffffffffffffffffffffffffff\n      and\n        /* \"contract/JointAccount.sol\":2919:2926  _sender */\n      dup2\n        /* \"contract/JointAccount.sol\":2919:2935  _sender == owner */\n      0xffffffffffffffffffffffffffffffffffffffff\n      and\n      eq\n        /* \"contract/JointAccount.sol\":2919:2961  _sender == owner || _sender == beneficiary */\n      dup1\n      tag_231\n      jumpi\n      pop\n        /* \"contract/JointAccount.sol\":2950:2961  beneficiary */\n      0x01\n      0x00\n      swap1\n      sload\n      swap1\n      0x0100\n      exp\n      swap1\n      div\n      0xffffffffffffffffffffffffffffffffffffffff\n      and\n        /* \"contract/JointAccount.sol\":2939:2961  _sender == beneficiary */\n      0xffffffffffffffffffffffffffffffffffffffff\n      and\n        /* \"contract/JointAccount.sol\":2939:2946  _sender */\n      dup2\n        /* \"contract/JointAccount.sol\":2939:2961  _sender == beneficiary */\n      0xffffffffffffffffffffffffffffffffffffffff\n      and\n      eq\n        /* \"contract/JointAccount.sol\":2919:2961  _sender == owner || _sender == beneficiary */\n    tag_231:\n        /* \"contract/JointAccount.sol\":2911:3019  require(_sender == owner || _sender == beneficiary, \"Only the owner or the beneficiary can withdraw funds.\") */\n      tag_232\n      jumpi\n      mload(0x40)\n      0x08c379a000000000000000000000000000000000000000000000000000000000\n      dup2\n      mstore\n      0x04\n      add\n      tag_233\n      swap1\n      tag_168\n      jump\t// in\n    tag_233:\n      mload(0x40)\n      dup1\n      swap2\n      sub\n      swap1\n      revert\n    tag_232:\n        /* \"contract/JointAccount.sol\":3045:3056  beneficiary */\n      0x01\n      0x00\n      swap1\n      sload\n      swap1\n      0x0100\n      exp\n      swap1\n      div\n      0xffffffffffffffffffffffffffffffffffffffff\n      and\n        /* \"contract/JointAccount.sol\":3034:3056  _sender == beneficiary */\n      0xffffffffffffffffffffffffffffffffffffffff\n      and\n        /* \"contract/JointAccount.sol\":3034:3041  _sender */\n      dup2\n        /* \"contract/JointAccount.sol\":3034:3056  _sender == beneficiary */\n      0xffffffffffffffffffffffffffffffffffffffff\n      and\n      eq\n        /* \"contract/JointAccount.sol\":3030:3248  if (_sender == beneficiary) {\r... */\n      iszero\n      tag_234\n      jumpi\n        /* \"contract/JointAccount.sol\":3092:3105  withdrawLimit */\n      0x0b\n        /* \"contract/JointAccount.sol\":3092:3120  withdrawLimit[_ERC20Address] */\n      0x00\n        /* \"contract/JointAccount.sol\":3106:3119  _ERC20Address */\n      dup4\n        /* \"contract/JointAccount.sol\":3092:3120  withdrawLimit[_ERC20Address] */\n      0xffffffffffffffffffffffffffffffffffffffff\n      and\n      0xffffffffffffffffffffffffffffffffffffffff\n      and\n      dup2\n      mstore\n      0x20\n      add\n      swap1\n      dup2\n      mstore\n      0x20\n      add\n      0x00\n      keccak256\n      sload\n        /* \"contract/JointAccount.sol\":3081:3088  _amount */\n      dup4\n        /* \"contract/JointAccount.sol\":3081:3120  _amount <= withdrawLimit[_ERC20Address] */\n      gt\n      iszero\n        /* \"contract/JointAccount.sol\":3081:3163  _amount <= withdrawLimit[_ERC20Address] || (InitiatedAt + delay) < block.timestamp */\n      dup1\n      tag_235\n      jumpi\n      pop\n        /* \"contract/JointAccount.sol\":3148:3163  block.timestamp */\n      timestamp\n        /* \"contract/JointAccount.sol\":3139:3144  delay */\n      sload(0x03)\n        /* \"contract/JointAccount.sol\":3125:3136  InitiatedAt */\n      sload(0x02)\n        /* \"contract/JointAccount.sol\":3125:3144  InitiatedAt + delay */\n      tag_236\n      swap2\n      swap1\n      tag_172\n      jump\t// in\n    tag_236:\n        /* \"contract/JointAccount.sol\":3124:3163  (InitiatedAt + delay) < block.timestamp */\n      lt\n        /* \"contract/JointAccount.sol\":3081:3163  _amount <= withdrawLimit[_ERC20Address] || (InitiatedAt + delay) < block.timestamp */\n    tag_235:\n        /* \"contract/JointAccount.sol\":3073:3236  require(_amount <= withdrawLimit[_ERC20Address] || (InitiatedAt + delay) < block.timestamp, \"The withdrawal amount exceeds the limit or delay has not passed yet.\") */\n      tag_237\n      jumpi\n      mload(0x40)\n      0x08c379a000000000000000000000000000000000000000000000000000000000\n      dup2\n      mstore\n      0x04\n      add\n      tag_238\n      swap1\n      tag_175\n      jump\t// in\n    tag_238:\n      mload(0x40)\n      dup1\n      swap2\n      sub\n      swap1\n      revert\n    tag_237:\n        /* \"contract/JointAccount.sol\":3030:3248  if (_sender == beneficiary) {\r... */\n    tag_234:\n        /* \"contract/JointAccount.sol\":3267:3273  frozen */\n      0x0a\n      0x00\n      swap1\n      sload\n      swap1\n      0x0100\n      exp\n      swap1\n      div\n      0xff\n      and\n        /* \"contract/JointAccount.sol\":3266:3273  !frozen */\n      iszero\n        /* \"contract/JointAccount.sol\":3258:3319  require(!frozen, \"Account is frozen, cannot withdraw funds.\") */\n      tag_239\n      jumpi\n      mload(0x40)\n      0x08c379a000000000000000000000000000000000000000000000000000000000\n      dup2\n      mstore\n      0x04\n      add\n      tag_240\n      swap1\n      tag_178\n      jump\t// in\n    tag_240:\n      mload(0x40)\n      dup1\n      swap2\n      sub\n      swap1\n      revert\n    tag_239:\n        /* \"contract/JointAccount.sol\":3336:3343  _isCelo */\n      dup4\n        /* \"contract/JointAccount.sol\":3332:4381  if (_isCelo) {\r... */\n      iszero\n      tag_241\n      jumpi\n        /* \"contract/JointAccount.sol\":3392:3393  0 */\n      0x00\n        /* \"contract/JointAccount.sol\":3368:3389  address(this).balance */\n      selfbalance\n        /* \"contract/JointAccount.sol\":3368:3393  address(this).balance > 0 */\n      gt\n        /* \"contract/JointAccount.sol\":3360:3429  require(address(this).balance > 0, \"There are no funds to withdraw.\") */\n      tag_242\n      jumpi\n      mload(0x40)\n      0x08c379a000000000000000000000000000000000000000000000000000000000\n      dup2\n      mstore\n      0x04\n      add\n      tag_243\n      swap1\n      tag_244\n      jump\t// in\n    tag_243:\n      mload(0x40)\n      dup1\n      swap2\n      sub\n      swap1\n      revert\n    tag_242:\n        /* \"contract/JointAccount.sol\":3463:3484  address(this).balance */\n      selfbalance\n        /* \"contract/JointAccount.sol\":3452:3459  _amount */\n      dup4\n        /* \"contract/JointAccount.sol\":3452:3484  _amount <= address(this).balance */\n      gt\n      iszero\n        /* \"contract/JointAccount.sol\":3444:3508  require(_amount <= address(this).balance, \"Insufficient funds.\") */\n      tag_245\n      jumpi\n      mload(0x40)\n      0x08c379a000000000000000000000000000000000000000000000000000000000\n      dup2\n      mstore\n      0x04\n      add\n      tag_246\n      swap1\n      tag_182\n      jump\t// in\n    tag_246:\n      mload(0x40)\n      dup1\n      swap2\n      sub\n      swap1\n      revert\n    tag_245:\n        /* \"contract/JointAccount.sol\":3532:3537  mutex */\n      0x08\n      0x14\n      swap1\n      sload\n      swap1\n      0x0100\n      exp\n      swap1\n      div\n      0xff\n      and\n        /* \"contract/JointAccount.sol\":3531:3537  !mutex */\n      iszero\n        /* \"contract/JointAccount.sol\":3523:3579  require(!mutex, \"The function is already in execution.\") */\n      tag_247\n      jumpi\n      mload(0x40)\n      0x08c379a000000000000000000000000000000000000000000000000000000000\n      dup2\n      mstore\n      0x04\n      add\n      tag_248\n      swap1\n      tag_144\n      jump\t// in\n    tag_248:\n      mload(0x40)\n      dup1\n      swap2\n      sub\n      swap1\n      revert\n    tag_247:\n        /* \"contract/JointAccount.sol\":3602:3606  true */\n      0x01\n        /* \"contract/JointAccount.sol\":3594:3599  mutex */\n      0x08\n      0x14\n        /* \"contract/JointAccount.sol\":3594:3606  mutex = true */\n      0x0100\n      exp\n      dup2\n      sload\n      dup2\n      0xff\n      mul\n      not\n      and\n      swap1\n      dup4\n      iszero\n      iszero\n      mul\n      or\n      swap1\n      sstore\n      pop\n        /* \"contract/JointAccount.sol\":3627:3660  _amount.mul(transferFee).div(100) */\n      tag_249\n        /* \"contract/JointAccount.sol\":3656:3659  100 */\n      0x64\n        /* \"contract/JointAccount.sol\":3627:3651  _amount.mul(transferFee) */\n      tag_250\n        /* \"contract/JointAccount.sol\":3639:3650  transferFee */\n      sload(0x05)\n        /* \"contract/JointAccount.sol\":3627:3634  _amount */\n      dup7\n        /* \"contract/JointAccount.sol\":3627:3638  _amount.mul */\n      tag_187\n      swap1\n        /* \"contract/JointAccount.sol\":3627:3651  _amount.mul(transferFee) */\n      swap2\n      swap1\n      0xffffffff\n      and\n      jump\t// in\n    tag_250:\n        /* \"contract/JointAccount.sol\":3627:3655  _amount.mul(transferFee).div */\n      tag_188\n      swap1\n        /* \"contract/JointAccount.sol\":3627:3660  _amount.mul(transferFee).div(100) */\n      swap2\n      swap1\n      0xffffffff\n      and\n      jump\t// in\n    tag_249:\n        /* \"contract/JointAccount.sol\":3621:3624  fee */\n      0x04\n        /* \"contract/JointAccount.sol\":3621:3660  fee = _amount.mul(transferFee).div(100) */\n      dup2\n      swap1\n      sstore\n      pop\n        /* \"contract/JointAccount.sol\":3675:3680  owner */\n      0x00\n      dup1\n      sload\n      swap1\n      0x0100\n      exp\n      swap1\n      div\n      0xffffffffffffffffffffffffffffffffffffffff\n      and\n        /* \"contract/JointAccount.sol\":3675:3689  owner.transfer */\n      0xffffffffffffffffffffffffffffffffffffffff\n      and\n        /* \"contract/JointAccount.sol\":3675:3707  owner.transfer(_amount.sub(fee)) */\n      0x08fc\n        /* \"contract/JointAccount.sol\":3690:3706  _amount.sub(fee) */\n      tag_251\n        /* \"contract/JointAccount.sol\":3702:3705  fee */\n      sload(0x04)\n        /* \"contract/JointAccount.sol\":3690:3697  _amount */\n      dup7\n        /* \"contract/JointAccount.sol\":3690:3701  _amount.sub */\n      tag_190\n      swap1\n        /* \"contract/JointAccount.sol\":3690:3706  _amount.sub(fee) */\n      swap2\n      swap1\n      0xffffffff\n      and\n      jump\t// in\n    tag_251:\n        /* \"contract/JointAccount.sol\":3675:3707  owner.transfer(_amount.sub(fee)) */\n      swap1\n      dup2\n      iszero\n      mul\n      swap1\n      mload(0x40)\n      0x00\n      mload(0x40)\n      dup1\n      dup4\n      sub\n      dup2\n      dup6\n      dup9\n      dup9\n      call\n      swap4\n      pop\n      pop\n      pop\n      pop\n      iszero\n      dup1\n      iszero\n      tag_253\n      jumpi\n      returndatasize\n      0x00\n      dup1\n      returndatacopy\n      revert(0x00, returndatasize)\n    tag_253:\n      pop\n        /* \"contract/JointAccount.sol\":3722:3732  feeAddress */\n      0x06\n      0x00\n      swap1\n      sload\n      swap1\n      0x0100\n      exp\n      swap1\n      div\n      0xffffffffffffffffffffffffffffffffffffffff\n      and\n        /* \"contract/JointAccount.sol\":3722:3741  feeAddress.transfer */\n      0xffffffffffffffffffffffffffffffffffffffff\n      and\n        /* \"contract/JointAccount.sol\":3722:3746  feeAddress.transfer(fee) */\n      0x08fc\n        /* \"contract/JointAccount.sol\":3742:3745  fee */\n      sload(0x04)\n        /* \"contract/JointAccount.sol\":3722:3746  feeAddress.transfer(fee) */\n      swap1\n      dup2\n      iszero\n      mul\n      swap1\n      mload(0x40)\n      0x00\n      mload(0x40)\n      dup1\n      dup4\n      sub\n      dup2\n      dup6\n      dup9\n      dup9\n      call\n      swap4\n      pop\n      pop\n      pop\n      pop\n      iszero\n      dup1\n      iszero\n      tag_255\n      jumpi\n      returndatasize\n      0x00\n      dup1\n      returndatacopy\n      revert(0x00, returndatasize)\n    tag_255:\n      pop\n        /* \"contract/JointAccount.sol\":3793:3800  _amount */\n      dup3\n        /* \"contract/JointAccount.sol\":3761:3774  withdrawLimit */\n      0x0b\n        /* \"contract/JointAccount.sol\":3761:3789  withdrawLimit[_ERC20Address] */\n      0x00\n        /* \"contract/JointAccount.sol\":3775:3788  _ERC20Address */\n      dup5\n        /* \"contract/JointAccount.sol\":3761:3789  withdrawLimit[_ERC20Address] */\n      0xffffffffffffffffffffffffffffffffffffffff\n      and\n      0xffffffffffffffffffffffffffffffffffffffff\n      and\n      dup2\n      mstore\n      0x20\n      add\n      swap1\n      dup2\n      mstore\n      0x20\n      add\n      0x00\n      keccak256\n      0x00\n        /* \"contract/JointAccount.sol\":3761:3800  withdrawLimit[_ERC20Address] -= _amount */\n      dup3\n      dup3\n      sload\n      tag_256\n      swap2\n      swap1\n      tag_196\n      jump\t// in\n    tag_256:\n      swap3\n      pop\n      pop\n      dup2\n      swap1\n      sstore\n      pop\n        /* \"contract/JointAccount.sol\":3823:3828  false */\n      0x00\n        /* \"contract/JointAccount.sol\":3815:3820  mutex */\n      0x08\n      0x14\n        /* \"contract/JointAccount.sol\":3815:3828  mutex = false */\n      0x0100\n      exp\n      dup2\n      sload\n      dup2\n      0xff\n      mul\n      not\n      and\n      swap1\n      dup4\n      iszero\n      iszero\n      mul\n      or\n      swap1\n      sstore\n      pop\n        /* \"contract/JointAccount.sol\":3332:4381  if (_isCelo) {\r... */\n      jump(tag_257)\n    tag_241:\n        /* \"contract/JointAccount.sol\":3875:3888  _ERC20Address */\n      dup2\n        /* \"contract/JointAccount.sol\":3860:3865  ERC20 */\n      0x08\n      0x00\n        /* \"contract/JointAccount.sol\":3860:3889  ERC20 = IERC20(_ERC20Address) */\n      0x0100\n      exp\n      dup2\n      sload\n      dup2\n      0xffffffffffffffffffffffffffffffffffffffff\n      mul\n      not\n      and\n      swap1\n      dup4\n      0xffffffffffffffffffffffffffffffffffffffff\n      and\n      mul\n      or\n      swap1\n      sstore\n      pop\n        /* \"contract/JointAccount.sol\":3941:3942  0 */\n      0x00\n        /* \"contract/JointAccount.sol\":3908:3913  ERC20 */\n      0x08\n      0x00\n      swap1\n      sload\n      swap1\n      0x0100\n      exp\n      swap1\n      div\n      0xffffffffffffffffffffffffffffffffffffffff\n      and\n        /* \"contract/JointAccount.sol\":3908:3923  ERC20.balanceOf */\n      0xffffffffffffffffffffffffffffffffffffffff\n      and\n      0x70a08231\n        /* \"contract/JointAccount.sol\":3932:3936  this */\n      address\n        /* \"contract/JointAccount.sol\":3908:3938  ERC20.balanceOf(address(this)) */\n      mload(0x40)\n      dup3\n      0xffffffff\n      and\n      0xe0\n      shl\n      dup2\n      mstore\n      0x04\n      add\n      tag_258\n      swap2\n      swap1\n      tag_55\n      jump\t// in\n    tag_258:\n      0x20\n      mload(0x40)\n      dup1\n      dup4\n      sub\n      dup2\n      dup7\n      dup1\n      extcodesize\n      iszero\n      dup1\n      iszero\n      tag_259\n      jumpi\n      0x00\n      dup1\n      revert\n    tag_259:\n      pop\n      gas\n      staticcall\n      iszero\n      dup1\n      iszero\n      tag_261\n      jumpi\n      returndatasize\n      0x00\n      dup1\n      returndatacopy\n      revert(0x00, returndatasize)\n    tag_261:\n      pop\n      pop\n      pop\n      pop\n      mload(0x40)\n      returndatasize\n      not(0x1f)\n      0x1f\n      dup3\n      add\n      and\n      dup3\n      add\n      dup1\n      0x40\n      mstore\n      pop\n      dup2\n      add\n      swap1\n      tag_262\n      swap2\n      swap1\n      tag_153\n      jump\t// in\n    tag_262:\n        /* \"contract/JointAccount.sol\":3908:3942  ERC20.balanceOf(address(this)) > 0 */\n      gt\n        /* \"contract/JointAccount.sol\":3900:3978  require(ERC20.balanceOf(address(this)) > 0, \"There are no funds to withdraw.\") */\n      tag_263\n      jumpi\n      mload(0x40)\n      0x08c379a000000000000000000000000000000000000000000000000000000000\n      dup2\n      mstore\n      0x04\n      add\n      tag_264\n      swap1\n      tag_244\n      jump\t// in\n    tag_264:\n      mload(0x40)\n      dup1\n      swap2\n      sub\n      swap1\n      revert\n    tag_263:\n        /* \"contract/JointAccount.sol\":4008:4013  ERC20 */\n      0x08\n      0x00\n      swap1\n      sload\n      swap1\n      0x0100\n      exp\n      swap1\n      div\n      0xffffffffffffffffffffffffffffffffffffffff\n      and\n        /* \"contract/JointAccount.sol\":4008:4023  ERC20.balanceOf */\n      0xffffffffffffffffffffffffffffffffffffffff\n      and\n      0x70a08231\n        /* \"contract/JointAccount.sol\":4032:4036  this */\n      address\n        /* \"contract/JointAccount.sol\":4008:4038  ERC20.balanceOf(address(this)) */\n      mload(0x40)\n      dup3\n      0xffffffff\n      and\n      0xe0\n      shl\n      dup2\n      mstore\n      0x04\n      add\n      tag_265\n      swap2\n      swap1\n      tag_55\n      jump\t// in\n    tag_265:\n      0x20\n      mload(0x40)\n      dup1\n      dup4\n      sub\n      dup2\n      dup7\n      dup1\n      extcodesize\n      iszero\n      dup1\n      iszero\n      tag_266\n      jumpi\n      0x00\n      dup1\n      revert\n    tag_266:\n      pop\n      gas\n      staticcall\n      iszero\n      dup1\n      iszero\n      tag_268\n      jumpi\n      returndatasize\n      0x00\n      dup1\n      returndatacopy\n      revert(0x00, returndatasize)\n    tag_268:\n      pop\n      pop\n      pop\n      pop\n      mload(0x40)\n      returndatasize\n      not(0x1f)\n      0x1f\n      dup3\n      add\n      and\n      dup3\n      add\n      dup1\n      0x40\n      mstore\n      pop\n      dup2\n      add\n      swap1\n      tag_269\n      swap2\n      swap1\n      tag_153\n      jump\t// in\n    tag_269:\n        /* \"contract/JointAccount.sol\":3997:4004  _amount */\n      dup4\n        /* \"contract/JointAccount.sol\":3997:4038  _amount <= ERC20.balanceOf(address(this)) */\n      gt\n      iszero\n        /* \"contract/JointAccount.sol\":3989:4062  require(_amount <= ERC20.balanceOf(address(this)), \"Insufficient funds.\") */\n      tag_270\n      jumpi\n      mload(0x40)\n      0x08c379a000000000000000000000000000000000000000000000000000000000\n      dup2\n      mstore\n      0x04\n      add\n      tag_271\n      swap1\n      tag_182\n      jump\t// in\n    tag_271:\n      mload(0x40)\n      dup1\n      swap2\n      sub\n      swap1\n      revert\n    tag_270:\n        /* \"contract/JointAccount.sol\":4082:4087  mutex */\n      0x08\n      0x14\n      swap1\n      sload\n      swap1\n      0x0100\n      exp\n      swap1\n      div\n      0xff\n      and\n        /* \"contract/JointAccount.sol\":4081:4087  !mutex */\n      iszero\n        /* \"contract/JointAccount.sol\":4073:4129  require(!mutex, \"The function is already in execution.\") */\n      tag_272\n      jumpi\n      mload(0x40)\n      0x08c379a000000000000000000000000000000000000000000000000000000000\n      dup2\n      mstore\n      0x04\n      add\n      tag_273\n      swap1\n      tag_144\n      jump\t// in\n    tag_273:\n      mload(0x40)\n      dup1\n      swap2\n      sub\n      swap1\n      revert\n    tag_272:\n        /* \"contract/JointAccount.sol\":4148:4152  true */\n      0x01\n        /* \"contract/JointAccount.sol\":4140:4145  mutex */\n      0x08\n      0x14\n        /* \"contract/JointAccount.sol\":4140:4152  mutex = true */\n      0x0100\n      exp\n      dup2\n      sload\n      dup2\n      0xff\n      mul\n      not\n      and\n      swap1\n      dup4\n      iszero\n      iszero\n      mul\n      or\n      swap1\n      sstore\n      pop\n        /* \"contract/JointAccount.sol\":4169:4202  _amount.mul(transferFee).div(100) */\n      tag_274\n        /* \"contract/JointAccount.sol\":4198:4201  100 */\n      0x64\n        /* \"contract/JointAccount.sol\":4169:4193  _amount.mul(transferFee) */\n      tag_275\n        /* \"contract/JointAccount.sol\":4181:4192  transferFee */\n      sload(0x05)\n        /* \"contract/JointAccount.sol\":4169:4176  _amount */\n      dup7\n        /* \"contract/JointAccount.sol\":4169:4180  _amount.mul */\n      tag_187\n      swap1\n        /* \"contract/JointAccount.sol\":4169:4193  _amount.mul(transferFee) */\n      swap2\n      swap1\n      0xffffffff\n      and\n      jump\t// in\n    tag_275:\n        /* \"contract/JointAccount.sol\":4169:4197  _amount.mul(transferFee).div */\n      tag_188\n      swap1\n        /* \"contract/JointAccount.sol\":4169:4202  _amount.mul(transferFee).div(100) */\n      swap2\n      swap1\n      0xffffffff\n      and\n      jump\t// in\n    tag_274:\n        /* \"contract/JointAccount.sol\":4163:4166  fee */\n      0x04\n        /* \"contract/JointAccount.sol\":4163:4202  fee = _amount.mul(transferFee).div(100) */\n      dup2\n      swap1\n      sstore\n      pop\n        /* \"contract/JointAccount.sol\":4213:4218  ERC20 */\n      0x08\n      0x00\n      swap1\n      sload\n      swap1\n      0x0100\n      exp\n      swap1\n      div\n      0xffffffffffffffffffffffffffffffffffffffff\n      and\n        /* \"contract/JointAccount.sol\":4213:4227  ERC20.transfer */\n      0xffffffffffffffffffffffffffffffffffffffff\n      and\n      0xa9059cbb\n        /* \"contract/JointAccount.sol\":4228:4233  owner */\n      0x00\n      dup1\n      sload\n      swap1\n      0x0100\n      exp\n      swap1\n      div\n      0xffffffffffffffffffffffffffffffffffffffff\n      and\n        /* \"contract/JointAccount.sol\":4235:4251  _amount.sub(fee) */\n      tag_276\n        /* \"contract/JointAccount.sol\":4247:4250  fee */\n      sload(0x04)\n        /* \"contract/JointAccount.sol\":4235:4242  _amount */\n      dup8\n        /* \"contract/JointAccount.sol\":4235:4246  _amount.sub */\n      tag_190\n      swap1\n        /* \"contract/JointAccount.sol\":4235:4251  _amount.sub(fee) */\n      swap2\n      swap1\n      0xffffffff\n      and\n      jump\t// in\n    tag_276:\n        /* \"contract/JointAccount.sol\":4213:4252  ERC20.transfer(owner, _amount.sub(fee)) */\n      mload(0x40)\n      dup4\n      0xffffffff\n      and\n      0xe0\n      shl\n      dup2\n      mstore\n      0x04\n      add\n      tag_277\n      swap3\n      swap2\n      swap1\n      tag_211\n      jump\t// in\n    tag_277:\n      0x20\n      mload(0x40)\n      dup1\n      dup4\n      sub\n      dup2\n      0x00\n      dup8\n      dup1\n      extcodesize\n      iszero\n      dup1\n      iszero\n      tag_278\n      jumpi\n      0x00\n      dup1\n      revert\n    tag_278:\n      pop\n      gas\n      call\n      iszero\n      dup1\n      iszero\n      tag_280\n      jumpi\n      returndatasize\n      0x00\n      dup1\n      returndatacopy\n      revert(0x00, returndatasize)\n    tag_280:\n      pop\n      pop\n      pop\n      pop\n      mload(0x40)\n      returndatasize\n      not(0x1f)\n      0x1f\n      dup3\n      add\n      and\n      dup3\n      add\n      dup1\n      0x40\n      mstore\n      pop\n      dup2\n      add\n      swap1\n      tag_281\n      swap2\n      swap1\n      tag_216\n      jump\t// in\n    tag_281:\n      pop\n        /* \"contract/JointAccount.sol\":4263:4268  ERC20 */\n      0x08\n      0x00\n      swap1\n      sload\n      swap1\n      0x0100\n      exp\n      swap1\n      div\n      0xffffffffffffffffffffffffffffffffffffffff\n      and\n        /* \"contract/JointAccount.sol\":4263:4277  ERC20.transfer */\n      0xffffffffffffffffffffffffffffffffffffffff\n      and\n      0xa9059cbb\n        /* \"contract/JointAccount.sol\":4278:4288  feeAddress */\n      0x06\n      0x00\n      swap1\n      sload\n      swap1\n      0x0100\n      exp\n      swap1\n      div\n      0xffffffffffffffffffffffffffffffffffffffff\n      and\n        /* \"contract/JointAccount.sol\":4290:4293  fee */\n      sload(0x04)\n        /* \"contract/JointAccount.sol\":4263:4294  ERC20.transfer(feeAddress, fee) */\n      mload(0x40)\n      dup4\n      0xffffffff\n      and\n      0xe0\n      shl\n      dup2\n      mstore\n      0x04\n      add\n      tag_282\n      swap3\n      swap2\n      swap1\n      tag_211\n      jump\t// in\n    tag_282:\n      0x20\n      mload(0x40)\n      dup1\n      dup4\n      sub\n      dup2\n      0x00\n      dup8\n      dup1\n      extcodesize\n      iszero\n      dup1\n      iszero\n      tag_283\n      jumpi\n      0x00\n      dup1\n      revert\n    tag_283:\n      pop\n      gas\n      call\n      iszero\n      dup1\n      iszero\n      tag_285\n      jumpi\n      returndatasize\n      0x00\n      dup1\n      returndatacopy\n      revert(0x00, returndatasize)\n    tag_285:\n      pop\n      pop\n      pop\n      pop\n      mload(0x40)\n      returndatasize\n      not(0x1f)\n      0x1f\n      dup3\n      add\n      and\n      dup3\n      add\n      dup1\n      0x40\n      mstore\n      pop\n      dup2\n      add\n      swap1\n      tag_286\n      swap2\n      swap1\n      tag_216\n      jump\t// in\n    tag_286:\n      pop\n        /* \"contract/JointAccount.sol\":4337:4344  _amount */\n      dup3\n        /* \"contract/JointAccount.sol\":4305:4318  withdrawLimit */\n      0x0b\n        /* \"contract/JointAccount.sol\":4305:4333  withdrawLimit[_ERC20Address] */\n      0x00\n        /* \"contract/JointAccount.sol\":4319:4332  _ERC20Address */\n      dup5\n        /* \"contract/JointAccount.sol\":4305:4333  withdrawLimit[_ERC20Address] */\n      0xffffffffffffffffffffffffffffffffffffffff\n      and\n      0xffffffffffffffffffffffffffffffffffffffff\n      and\n      dup2\n      mstore\n      0x20\n      add\n      swap1\n      dup2\n      mstore\n      0x20\n      add\n      0x00\n      keccak256\n      0x00\n        /* \"contract/JointAccount.sol\":4305:4344  withdrawLimit[_ERC20Address] -= _amount */\n      dup3\n      dup3\n      sload\n      tag_287\n      swap2\n      swap1\n      tag_196\n      jump\t// in\n    tag_287:\n      swap3\n      pop\n      pop\n      dup2\n      swap1\n      sstore\n      pop\n        /* \"contract/JointAccount.sol\":4363:4368  false */\n      0x00\n        /* \"contract/JointAccount.sol\":4355:4360  mutex */\n      0x08\n      0x14\n        /* \"contract/JointAccount.sol\":4355:4368  mutex = false */\n      0x0100\n      exp\n      dup2\n      sload\n      dup2\n      0xff\n      mul\n      not\n      and\n      swap1\n      dup4\n      iszero\n      iszero\n      mul\n      or\n      swap1\n      sstore\n      pop\n        /* \"contract/JointAccount.sol\":3332:4381  if (_isCelo) {\r... */\n    tag_257:\n        /* \"contract/JointAccount.sol\":2799:4388  function withdraw(bool _isCelo, uint _amount, address _ERC20Address, address _sender) public payable {\r... */\n      pop\n      pop\n      pop\n      pop\n      jump\t// out\n        /* \"contract/JointAccount.sol\":7099:7190  function returnTransferFee() public view returns(uint){\r... */\n    tag_131:\n        /* \"contract/JointAccount.sol\":7148:7152  uint */\n      0x00\n        /* \"contract/JointAccount.sol\":7171:7182  transferFee */\n      sload(0x05)\n        /* \"contract/JointAccount.sol\":7164:7182  return transferFee */\n      swap1\n      pop\n        /* \"contract/JointAccount.sol\":7099:7190  function returnTransferFee() public view returns(uint){\r... */\n      swap1\n      jump\t// out\n        /* \"contract/JointAccount.sol\":1210:1256  mapping (address => uint) public withdrawLimit */\n    tag_136:\n      mstore(0x20, 0x0b)\n      dup1\n      0x00\n      mstore\n      keccak256(0x00, 0x40)\n      0x00\n      swap2\n      pop\n      swap1\n      pop\n      sload\n      dup2\n      jump\t// out\n        /* \"@openzeppelin/contracts/utils/math/SafeMath.sol\":3465:3561  function mul(uint256 a, uint256 b) internal pure returns (uint256) {... */\n    tag_187:\n        /* \"@openzeppelin/contracts/utils/math/SafeMath.sol\":3523:3530  uint256 */\n      0x00\n        /* \"@openzeppelin/contracts/utils/math/SafeMath.sol\":3553:3554  b */\n      dup2\n        /* \"@openzeppelin/contracts/utils/math/SafeMath.sol\":3549:3550  a */\n      dup4\n        /* \"@openzeppelin/contracts/utils/math/SafeMath.sol\":3549:3554  a * b */\n      tag_290\n      swap2\n      swap1\n      tag_291\n      jump\t// in\n    tag_290:\n        /* \"@openzeppelin/contracts/utils/math/SafeMath.sol\":3542:3554  return a * b */\n      swap1\n      pop\n        /* \"@openzeppelin/contracts/utils/math/SafeMath.sol\":3465:3561  function mul(uint256 a, uint256 b) internal pure returns (uint256) {... */\n      swap3\n      swap2\n      pop\n      pop\n      jump\t// out\n        /* \"@openzeppelin/contracts/utils/math/SafeMath.sol\":3850:3946  function div(uint256 a, uint256 b) internal pure returns (uint256) {... */\n    tag_188:\n        /* \"@openzeppelin/contracts/utils/math/SafeMath.sol\":3908:3915  uint256 */\n      0x00\n        /* \"@openzeppelin/contracts/utils/math/SafeMath.sol\":3938:3939  b */\n      dup2\n        /* \"@openzeppelin/contracts/utils/math/SafeMath.sol\":3934:3935  a */\n      dup4\n        /* \"@openzeppelin/contracts/utils/math/SafeMath.sol\":3934:3939  a / b */\n      tag_293\n      swap2\n      swap1\n      tag_294\n      jump\t// in\n    tag_293:\n        /* \"@openzeppelin/contracts/utils/math/SafeMath.sol\":3927:3939  return a / b */\n      swap1\n      pop\n        /* \"@openzeppelin/contracts/utils/math/SafeMath.sol\":3850:3946  function div(uint256 a, uint256 b) internal pure returns (uint256) {... */\n      swap3\n      swap2\n      pop\n      pop\n      jump\t// out\n        /* \"@openzeppelin/contracts/utils/math/SafeMath.sol\":3122:3218  function sub(uint256 a, uint256 b) internal pure returns (uint256) {... */\n    tag_190:\n        /* \"@openzeppelin/contracts/utils/math/SafeMath.sol\":3180:3187  uint256 */\n      0x00\n        /* \"@openzeppelin/contracts/utils/math/SafeMath.sol\":3210:3211  b */\n      dup2\n        /* \"@openzeppelin/contracts/utils/math/SafeMath.sol\":3206:3207  a */\n      dup4\n        /* \"@openzeppelin/contracts/utils/math/SafeMath.sol\":3206:3211  a - b */\n      tag_296\n      swap2\n      swap1\n      tag_196\n      jump\t// in\n    tag_296:\n        /* \"@openzeppelin/contracts/utils/math/SafeMath.sol\":3199:3211  return a - b */\n      swap1\n      pop\n        /* \"@openzeppelin/contracts/utils/math/SafeMath.sol\":3122:3218  function sub(uint256 a, uint256 b) internal pure returns (uint256) {... */\n      swap3\n      swap2\n      pop\n      pop\n      jump\t// out\n        /* \"#utility.yul\":7:146   */\n    tag_298:\n        /* \"#utility.yul\":53:58   */\n      0x00\n        /* \"#utility.yul\":91:97   */\n      dup2\n        /* \"#utility.yul\":78:98   */\n      calldataload\n        /* \"#utility.yul\":69:98   */\n      swap1\n      pop\n        /* \"#utility.yul\":107:140   */\n      tag_300\n        /* \"#utility.yul\":134:139   */\n      dup2\n        /* \"#utility.yul\":107:140   */\n      tag_301\n      jump\t// in\n    tag_300:\n        /* \"#utility.yul\":7:146   */\n      swap3\n      swap2\n      pop\n      pop\n      jump\t// out\n        /* \"#utility.yul\":152:307   */\n    tag_302:\n        /* \"#utility.yul\":206:211   */\n      0x00\n        /* \"#utility.yul\":244:250   */\n      dup2\n        /* \"#utility.yul\":231:251   */\n      calldataload\n        /* \"#utility.yul\":222:251   */\n      swap1\n      pop\n        /* \"#utility.yul\":260:301   */\n      tag_304\n        /* \"#utility.yul\":295:300   */\n      dup2\n        /* \"#utility.yul\":260:301   */\n      tag_305\n      jump\t// in\n    tag_304:\n        /* \"#utility.yul\":152:307   */\n      swap3\n      swap2\n      pop\n      pop\n      jump\t// out\n        /* \"#utility.yul\":313:446   */\n    tag_306:\n        /* \"#utility.yul\":356:361   */\n      0x00\n        /* \"#utility.yul\":394:400   */\n      dup2\n        /* \"#utility.yul\":381:401   */\n      calldataload\n        /* \"#utility.yul\":372:401   */\n      swap1\n      pop\n        /* \"#utility.yul\":410:440   */\n      tag_308\n        /* \"#utility.yul\":434:439   */\n      dup2\n        /* \"#utility.yul\":410:440   */\n      tag_309\n      jump\t// in\n    tag_308:\n        /* \"#utility.yul\":313:446   */\n      swap3\n      swap2\n      pop\n      pop\n      jump\t// out\n        /* \"#utility.yul\":452:589   */\n    tag_310:\n        /* \"#utility.yul\":506:511   */\n      0x00\n        /* \"#utility.yul\":537:543   */\n      dup2\n        /* \"#utility.yul\":531:544   */\n      mload\n        /* \"#utility.yul\":522:544   */\n      swap1\n      pop\n        /* \"#utility.yul\":553:583   */\n      tag_312\n        /* \"#utility.yul\":577:582   */\n      dup2\n        /* \"#utility.yul\":553:583   */\n      tag_309\n      jump\t// in\n    tag_312:\n        /* \"#utility.yul\":452:589   */\n      swap3\n      swap2\n      pop\n      pop\n      jump\t// out\n        /* \"#utility.yul\":595:734   */\n    tag_313:\n        /* \"#utility.yul\":641:646   */\n      0x00\n        /* \"#utility.yul\":679:685   */\n      dup2\n        /* \"#utility.yul\":666:686   */\n      calldataload\n        /* \"#utility.yul\":657:686   */\n      swap1\n      pop\n        /* \"#utility.yul\":695:728   */\n      tag_315\n        /* \"#utility.yul\":722:727   */\n      dup2\n        /* \"#utility.yul\":695:728   */\n      tag_316\n      jump\t// in\n    tag_315:\n        /* \"#utility.yul\":595:734   */\n      swap3\n      swap2\n      pop\n      pop\n      jump\t// out\n        /* \"#utility.yul\":740:883   */\n    tag_317:\n        /* \"#utility.yul\":797:802   */\n      0x00\n        /* \"#utility.yul\":828:834   */\n      dup2\n        /* \"#utility.yul\":822:835   */\n      mload\n        /* \"#utility.yul\":813:835   */\n      swap1\n      pop\n        /* \"#utility.yul\":844:877   */\n      tag_319\n        /* \"#utility.yul\":871:876   */\n      dup2\n        /* \"#utility.yul\":844:877   */\n      tag_316\n      jump\t// in\n    tag_319:\n        /* \"#utility.yul\":740:883   */\n      swap3\n      swap2\n      pop\n      pop\n      jump\t// out\n        /* \"#utility.yul\":889:1218   */\n    tag_73:\n        /* \"#utility.yul\":948:954   */\n      0x00\n        /* \"#utility.yul\":997:999   */\n      0x20\n        /* \"#utility.yul\":985:994   */\n      dup3\n        /* \"#utility.yul\":976:983   */\n      dup5\n        /* \"#utility.yul\":972:995   */\n      sub\n        /* \"#utility.yul\":968:1000   */\n      slt\n        /* \"#utility.yul\":965:1084   */\n      iszero\n      tag_321\n      jumpi\n        /* \"#utility.yul\":1003:1082   */\n      tag_322\n      tag_323\n      jump\t// in\n    tag_322:\n        /* \"#utility.yul\":965:1084   */\n    tag_321:\n        /* \"#utility.yul\":1123:1124   */\n      0x00\n        /* \"#utility.yul\":1148:1201   */\n      tag_324\n        /* \"#utility.yul\":1193:1200   */\n      dup5\n        /* \"#utility.yul\":1184:1190   */\n      dup3\n        /* \"#utility.yul\":1173:1182   */\n      dup6\n        /* \"#utility.yul\":1169:1191   */\n      add\n        /* \"#utility.yul\":1148:1201   */\n      tag_298\n      jump\t// in\n    tag_324:\n        /* \"#utility.yul\":1138:1201   */\n      swap2\n      pop\n        /* \"#utility.yul\":1094:1211   */\n      pop\n        /* \"#utility.yul\":889:1218   */\n      swap3\n      swap2\n      pop\n      pop\n      jump\t// out\n        /* \"#utility.yul\":1224:1859   */\n    tag_43:\n        /* \"#utility.yul\":1309:1315   */\n      0x00\n        /* \"#utility.yul\":1317:1323   */\n      dup1\n        /* \"#utility.yul\":1325:1331   */\n      0x00\n        /* \"#utility.yul\":1374:1376   */\n      0x60\n        /* \"#utility.yul\":1362:1371   */\n      dup5\n        /* \"#utility.yul\":1353:1360   */\n      dup7\n        /* \"#utility.yul\":1349:1372   */\n      sub\n        /* \"#utility.yul\":1345:1377   */\n      slt\n        /* \"#utility.yul\":1342:1461   */\n      iszero\n      tag_326\n      jumpi\n        /* \"#utility.yul\":1380:1459   */\n      tag_327\n      tag_323\n      jump\t// in\n    tag_327:\n        /* \"#utility.yul\":1342:1461   */\n    tag_326:\n        /* \"#utility.yul\":1500:1501   */\n      0x00\n        /* \"#utility.yul\":1525:1586   */\n      tag_328\n        /* \"#utility.yul\":1578:1585   */\n      dup7\n        /* \"#utility.yul\":1569:1575   */\n      dup3\n        /* \"#utility.yul\":1558:1567   */\n      dup8\n        /* \"#utility.yul\":1554:1576   */\n      add\n        /* \"#utility.yul\":1525:1586   */\n      tag_302\n      jump\t// in\n    tag_328:\n        /* \"#utility.yul\":1515:1586   */\n      swap4\n      pop\n        /* \"#utility.yul\":1471:1596   */\n      pop\n        /* \"#utility.yul\":1635:1637   */\n      0x20\n        /* \"#utility.yul\":1661:1714   */\n      tag_329\n        /* \"#utility.yul\":1706:1713   */\n      dup7\n        /* \"#utility.yul\":1697:1703   */\n      dup3\n        /* \"#utility.yul\":1686:1695   */\n      dup8\n        /* \"#utility.yul\":1682:1704   */\n      add\n        /* \"#utility.yul\":1661:1714   */\n      tag_313\n      jump\t// in\n    tag_329:\n        /* \"#utility.yul\":1651:1714   */\n      swap3\n      pop\n        /* \"#utility.yul\":1606:1724   */\n      pop\n        /* \"#utility.yul\":1763:1765   */\n      0x40\n        /* \"#utility.yul\":1789:1842   */\n      tag_330\n        /* \"#utility.yul\":1834:1841   */\n      dup7\n        /* \"#utility.yul\":1825:1831   */\n      dup3\n        /* \"#utility.yul\":1814:1823   */\n      dup8\n        /* \"#utility.yul\":1810:1832   */\n      add\n        /* \"#utility.yul\":1789:1842   */\n      tag_298\n      jump\t// in\n    tag_330:\n        /* \"#utility.yul\":1779:1842   */\n      swap2\n      pop\n        /* \"#utility.yul\":1734:1852   */\n      pop\n        /* \"#utility.yul\":1224:1859   */\n      swap3\n      pop\n      swap3\n      pop\n      swap3\n      jump\t// out\n        /* \"#utility.yul\":1865:2484   */\n    tag_63:\n        /* \"#utility.yul\":1942:1948   */\n      0x00\n        /* \"#utility.yul\":1950:1956   */\n      dup1\n        /* \"#utility.yul\":1958:1964   */\n      0x00\n        /* \"#utility.yul\":2007:2009   */\n      0x60\n        /* \"#utility.yul\":1995:2004   */\n      dup5\n        /* \"#utility.yul\":1986:1993   */\n      dup7\n        /* \"#utility.yul\":1982:2005   */\n      sub\n        /* \"#utility.yul\":1978:2010   */\n      slt\n        /* \"#utility.yul\":1975:2094   */\n      iszero\n      tag_332\n      jumpi\n        /* \"#utility.yul\":2013:2092   */\n      tag_333\n      tag_323\n      jump\t// in\n    tag_333:\n        /* \"#utility.yul\":1975:2094   */\n    tag_332:\n        /* \"#utility.yul\":2133:2134   */\n      0x00\n        /* \"#utility.yul\":2158:2211   */\n      tag_334\n        /* \"#utility.yul\":2203:2210   */\n      dup7\n        /* \"#utility.yul\":2194:2200   */\n      dup3\n        /* \"#utility.yul\":2183:2192   */\n      dup8\n        /* \"#utility.yul\":2179:2201   */\n      add\n        /* \"#utility.yul\":2158:2211   */\n      tag_298\n      jump\t// in\n    tag_334:\n        /* \"#utility.yul\":2148:2211   */\n      swap4\n      pop\n        /* \"#utility.yul\":2104:2221   */\n      pop\n        /* \"#utility.yul\":2260:2262   */\n      0x20\n        /* \"#utility.yul\":2286:2339   */\n      tag_335\n        /* \"#utility.yul\":2331:2338   */\n      dup7\n        /* \"#utility.yul\":2322:2328   */\n      dup3\n        /* \"#utility.yul\":2311:2320   */\n      dup8\n        /* \"#utility.yul\":2307:2329   */\n      add\n        /* \"#utility.yul\":2286:2339   */\n      tag_313\n      jump\t// in\n    tag_335:\n        /* \"#utility.yul\":2276:2339   */\n      swap3\n      pop\n        /* \"#utility.yul\":2231:2349   */\n      pop\n        /* \"#utility.yul\":2388:2390   */\n      0x40\n        /* \"#utility.yul\":2414:2467   */\n      tag_336\n        /* \"#utility.yul\":2459:2466   */\n      dup7\n        /* \"#utility.yul\":2450:2456   */\n      dup3\n        /* \"#utility.yul\":2439:2448   */\n      dup8\n        /* \"#utility.yul\":2435:2457   */\n      add\n        /* \"#utility.yul\":2414:2467   */\n      tag_298\n      jump\t// in\n    tag_336:\n        /* \"#utility.yul\":2404:2467   */\n      swap2\n      pop\n        /* \"#utility.yul\":2359:2477   */\n      pop\n        /* \"#utility.yul\":1865:2484   */\n      swap3\n      pop\n      swap3\n      pop\n      swap3\n      jump\t// out\n        /* \"#utility.yul\":2490:2835   */\n    tag_216:\n        /* \"#utility.yul\":2557:2563   */\n      0x00\n        /* \"#utility.yul\":2606:2608   */\n      0x20\n        /* \"#utility.yul\":2594:2603   */\n      dup3\n        /* \"#utility.yul\":2585:2592   */\n      dup5\n        /* \"#utility.yul\":2581:2604   */\n      sub\n        /* \"#utility.yul\":2577:2609   */\n      slt\n        /* \"#utility.yul\":2574:2693   */\n      iszero\n      tag_338\n      jumpi\n        /* \"#utility.yul\":2612:2691   */\n      tag_339\n      tag_323\n      jump\t// in\n    tag_339:\n        /* \"#utility.yul\":2574:2693   */\n    tag_338:\n        /* \"#utility.yul\":2732:2733   */\n      0x00\n        /* \"#utility.yul\":2757:2818   */\n      tag_340\n        /* \"#utility.yul\":2810:2817   */\n      dup5\n        /* \"#utility.yul\":2801:2807   */\n      dup3\n        /* \"#utility.yul\":2790:2799   */\n      dup6\n        /* \"#utility.yul\":2786:2808   */\n      add\n        /* \"#utility.yul\":2757:2818   */\n      tag_310\n      jump\t// in\n    tag_340:\n        /* \"#utility.yul\":2747:2818   */\n      swap2\n      pop\n        /* \"#utility.yul\":2703:2828   */\n      pop\n        /* \"#utility.yul\":2490:2835   */\n      swap3\n      swap2\n      pop\n      pop\n      jump\t// out\n        /* \"#utility.yul\":2841:3309   */\n    tag_48:\n        /* \"#utility.yul\":2906:2912   */\n      0x00\n        /* \"#utility.yul\":2914:2920   */\n      dup1\n        /* \"#utility.yul\":2963:2965   */\n      0x40\n        /* \"#utility.yul\":2951:2960   */\n      dup4\n        /* \"#utility.yul\":2942:2949   */\n      dup6\n        /* \"#utility.yul\":2938:2961   */\n      sub\n        /* \"#utility.yul\":2934:2966   */\n      slt\n        /* \"#utility.yul\":2931:3050   */\n      iszero\n      tag_342\n      jumpi\n        /* \"#utility.yul\":2969:3048   */\n      tag_343\n      tag_323\n      jump\t// in\n    tag_343:\n        /* \"#utility.yul\":2931:3050   */\n    tag_342:\n        /* \"#utility.yul\":3089:3090   */\n      0x00\n        /* \"#utility.yul\":3114:3164   */\n      tag_344\n        /* \"#utility.yul\":3156:3163   */\n      dup6\n        /* \"#utility.yul\":3147:3153   */\n      dup3\n        /* \"#utility.yul\":3136:3145   */\n      dup7\n        /* \"#utility.yul\":3132:3154   */\n      add\n        /* \"#utility.yul\":3114:3164   */\n      tag_306\n      jump\t// in\n    tag_344:\n        /* \"#utility.yul\":3104:3164   */\n      swap3\n      pop\n        /* \"#utility.yul\":3060:3174   */\n      pop\n        /* \"#utility.yul\":3213:3215   */\n      0x20\n        /* \"#utility.yul\":3239:3292   */\n      tag_345\n        /* \"#utility.yul\":3284:3291   */\n      dup6\n        /* \"#utility.yul\":3275:3281   */\n      dup3\n        /* \"#utility.yul\":3264:3273   */\n      dup7\n        /* \"#utility.yul\":3260:3282   */\n      add\n        /* \"#utility.yul\":3239:3292   */\n      tag_298\n      jump\t// in\n    tag_345:\n        /* \"#utility.yul\":3229:3292   */\n      swap2\n      pop\n        /* \"#utility.yul\":3184:3302   */\n      pop\n        /* \"#utility.yul\":2841:3309   */\n      swap3\n      pop\n      swap3\n      swap1\n      pop\n      jump\t// out\n        /* \"#utility.yul\":3315:4236   */\n    tag_85:\n        /* \"#utility.yul\":3415:3421   */\n      0x00\n        /* \"#utility.yul\":3423:3429   */\n      dup1\n        /* \"#utility.yul\":3431:3437   */\n      0x00\n        /* \"#utility.yul\":3439:3445   */\n      dup1\n        /* \"#utility.yul\":3447:3453   */\n      0x00\n        /* \"#utility.yul\":3496:3499   */\n      0xa0\n        /* \"#utility.yul\":3484:3493   */\n      dup7\n        /* \"#utility.yul\":3475:3482   */\n      dup9\n        /* \"#utility.yul\":3471:3494   */\n      sub\n        /* \"#utility.yul\":3467:3500   */\n      slt\n        /* \"#utility.yul\":3464:3584   */\n      iszero\n      tag_347\n      jumpi\n        /* \"#utility.yul\":3503:3582   */\n      tag_348\n      tag_323\n      jump\t// in\n    tag_348:\n        /* \"#utility.yul\":3464:3584   */\n    tag_347:\n        /* \"#utility.yul\":3623:3624   */\n      0x00\n        /* \"#utility.yul\":3648:3698   */\n      tag_349\n        /* \"#utility.yul\":3690:3697   */\n      dup9\n        /* \"#utility.yul\":3681:3687   */\n      dup3\n        /* \"#utility.yul\":3670:3679   */\n      dup10\n        /* \"#utility.yul\":3666:3688   */\n      add\n        /* \"#utility.yul\":3648:3698   */\n      tag_306\n      jump\t// in\n    tag_349:\n        /* \"#utility.yul\":3638:3698   */\n      swap6\n      pop\n        /* \"#utility.yul\":3594:3708   */\n      pop\n        /* \"#utility.yul\":3747:3749   */\n      0x20\n        /* \"#utility.yul\":3773:3834   */\n      tag_350\n        /* \"#utility.yul\":3826:3833   */\n      dup9\n        /* \"#utility.yul\":3817:3823   */\n      dup3\n        /* \"#utility.yul\":3806:3815   */\n      dup10\n        /* \"#utility.yul\":3802:3824   */\n      add\n        /* \"#utility.yul\":3773:3834   */\n      tag_302\n      jump\t// in\n    tag_350:\n        /* \"#utility.yul\":3763:3834   */\n      swap5\n      pop\n        /* \"#utility.yul\":3718:3844   */\n      pop\n        /* \"#utility.yul\":3883:3885   */\n      0x40\n        /* \"#utility.yul\":3909:3962   */\n      tag_351\n        /* \"#utility.yul\":3954:3961   */\n      dup9\n        /* \"#utility.yul\":3945:3951   */\n      dup3\n        /* \"#utility.yul\":3934:3943   */\n      dup10\n        /* \"#utility.yul\":3930:3952   */\n      add\n        /* \"#utility.yul\":3909:3962   */\n      tag_313\n      jump\t// in\n    tag_351:\n        /* \"#utility.yul\":3899:3962   */\n      swap4\n      pop\n        /* \"#utility.yul\":3854:3972   */\n      pop\n        /* \"#utility.yul\":4011:4013   */\n      0x60\n        /* \"#utility.yul\":4037:4090   */\n      tag_352\n        /* \"#utility.yul\":4082:4089   */\n      dup9\n        /* \"#utility.yul\":4073:4079   */\n      dup3\n        /* \"#utility.yul\":4062:4071   */\n      dup10\n        /* \"#utility.yul\":4058:4080   */\n      add\n        /* \"#utility.yul\":4037:4090   */\n      tag_298\n      jump\t// in\n    tag_352:\n        /* \"#utility.yul\":4027:4090   */\n      swap3\n      pop\n        /* \"#utility.yul\":3982:4100   */\n      pop\n        /* \"#utility.yul\":4139:4142   */\n      0x80\n        /* \"#utility.yul\":4166:4219   */\n      tag_353\n        /* \"#utility.yul\":4211:4218   */\n      dup9\n        /* \"#utility.yul\":4202:4208   */\n      dup3\n        /* \"#utility.yul\":4191:4200   */\n      dup10\n        /* \"#utility.yul\":4187:4209   */\n      add\n        /* \"#utility.yul\":4166:4219   */\n      tag_298\n      jump\t// in\n    tag_353:\n        /* \"#utility.yul\":4156:4219   */\n      swap2\n      pop\n        /* \"#utility.yul\":4110:4229   */\n      pop\n        /* \"#utility.yul\":3315:4236   */\n      swap3\n      swap6\n      pop\n      swap3\n      swap6\n      swap1\n      swap4\n      pop\n      jump\t// out\n        /* \"#utility.yul\":4242:5001   */\n    tag_127:\n        /* \"#utility.yul\":4325:4331   */\n      0x00\n        /* \"#utility.yul\":4333:4339   */\n      dup1\n        /* \"#utility.yul\":4341:4347   */\n      0x00\n        /* \"#utility.yul\":4349:4355   */\n      dup1\n        /* \"#utility.yul\":4398:4401   */\n      0x80\n        /* \"#utility.yul\":4386:4395   */\n      dup6\n        /* \"#utility.yul\":4377:4384   */\n      dup8\n        /* \"#utility.yul\":4373:4396   */\n      sub\n        /* \"#utility.yul\":4369:4402   */\n      slt\n        /* \"#utility.yul\":4366:4486   */\n      iszero\n      tag_355\n      jumpi\n        /* \"#utility.yul\":4405:4484   */\n      tag_356\n      tag_323\n      jump\t// in\n    tag_356:\n        /* \"#utility.yul\":4366:4486   */\n    tag_355:\n        /* \"#utility.yul\":4525:4526   */\n      0x00\n        /* \"#utility.yul\":4550:4600   */\n      tag_357\n        /* \"#utility.yul\":4592:4599   */\n      dup8\n        /* \"#utility.yul\":4583:4589   */\n      dup3\n        /* \"#utility.yul\":4572:4581   */\n      dup9\n        /* \"#utility.yul\":4568:4590   */\n      add\n        /* \"#utility.yul\":4550:4600   */\n      tag_306\n      jump\t// in\n    tag_357:\n        /* \"#utility.yul\":4540:4600   */\n      swap5\n      pop\n        /* \"#utility.yul\":4496:4610   */\n      pop\n        /* \"#utility.yul\":4649:4651   */\n      0x20\n        /* \"#utility.yul\":4675:4728   */\n      tag_358\n        /* \"#utility.yul\":4720:4727   */\n      dup8\n        /* \"#utility.yul\":4711:4717   */\n      dup3\n        /* \"#utility.yul\":4700:4709   */\n      dup9\n        /* \"#utility.yul\":4696:4718   */\n      add\n        /* \"#utility.yul\":4675:4728   */\n      tag_313\n      jump\t// in\n    tag_358:\n        /* \"#utility.yul\":4665:4728   */\n      swap4\n      pop\n        /* \"#utility.yul\":4620:4738   */\n      pop\n        /* \"#utility.yul\":4777:4779   */\n      0x40\n        /* \"#utility.yul\":4803:4856   */\n      tag_359\n        /* \"#utility.yul\":4848:4855   */\n      dup8\n        /* \"#utility.yul\":4839:4845   */\n      dup3\n        /* \"#utility.yul\":4828:4837   */\n      dup9\n        /* \"#utility.yul\":4824:4846   */\n      add\n        /* \"#utility.yul\":4803:4856   */\n      tag_298\n      jump\t// in\n    tag_359:\n        /* \"#utility.yul\":4793:4856   */\n      swap3\n      pop\n        /* \"#utility.yul\":4748:4866   */\n      pop\n        /* \"#utility.yul\":4905:4907   */\n      0x60\n        /* \"#utility.yul\":4931:4984   */\n      tag_360\n        /* \"#utility.yul\":4976:4983   */\n      dup8\n        /* \"#utility.yul\":4967:4973   */\n      dup3\n        /* \"#utility.yul\":4956:4965   */\n      dup9\n        /* \"#utility.yul\":4952:4974   */\n      add\n        /* \"#utility.yul\":4931:4984   */\n      tag_298\n      jump\t// in\n    tag_360:\n        /* \"#utility.yul\":4921:4984   */\n      swap2\n      pop\n        /* \"#utility.yul\":4876:4994   */\n      pop\n        /* \"#utility.yul\":4242:5001   */\n      swap3\n      swap6\n      swap2\n      swap5\n      pop\n      swap3\n      pop\n      jump\t// out\n        /* \"#utility.yul\":5007:5358   */\n    tag_153:\n        /* \"#utility.yul\":5077:5083   */\n      0x00\n        /* \"#utility.yul\":5126:5128   */\n      0x20\n        /* \"#utility.yul\":5114:5123   */\n      dup3\n        /* \"#utility.yul\":5105:5112   */\n      dup5\n        /* \"#utility.yul\":5101:5124   */\n      sub\n        /* \"#utility.yul\":5097:5129   */\n      slt\n        /* \"#utility.yul\":5094:5213   */\n      iszero\n      tag_362\n      jumpi\n        /* \"#utility.yul\":5132:5211   */\n      tag_363\n      tag_323\n      jump\t// in\n    tag_363:\n        /* \"#utility.yul\":5094:5213   */\n    tag_362:\n        /* \"#utility.yul\":5252:5253   */\n      0x00\n        /* \"#utility.yul\":5277:5341   */\n      tag_364\n        /* \"#utility.yul\":5333:5340   */\n      dup5\n        /* \"#utility.yul\":5324:5330   */\n      dup3\n        /* \"#utility.yul\":5313:5322   */\n      dup6\n        /* \"#utility.yul\":5309:5331   */\n      add\n        /* \"#utility.yul\":5277:5341   */\n      tag_317\n      jump\t// in\n    tag_364:\n        /* \"#utility.yul\":5267:5341   */\n      swap2\n      pop\n        /* \"#utility.yul\":5223:5351   */\n      pop\n        /* \"#utility.yul\":5007:5358   */\n      swap3\n      swap2\n      pop\n      pop\n      jump\t// out\n        /* \"#utility.yul\":5364:5511   */\n    tag_365:\n        /* \"#utility.yul\":5459:5504   */\n      tag_367\n        /* \"#utility.yul\":5498:5503   */\n      dup2\n        /* \"#utility.yul\":5459:5504   */\n      tag_368\n      jump\t// in\n    tag_367:\n        /* \"#utility.yul\":5454:5457   */\n      dup3\n        /* \"#utility.yul\":5447:5505   */\n      mstore\n        /* \"#utility.yul\":5364:5511   */\n      pop\n      pop\n      jump\t// out\n        /* \"#utility.yul\":5517:5659   */\n    tag_369:\n        /* \"#utility.yul\":5620:5652   */\n      tag_371\n        /* \"#utility.yul\":5646:5651   */\n      dup2\n        /* \"#utility.yul\":5620:5652   */\n      tag_372\n      jump\t// in\n    tag_371:\n        /* \"#utility.yul\":5615:5618   */\n      dup3\n        /* \"#utility.yul\":5608:5653   */\n      mstore\n        /* \"#utility.yul\":5517:5659   */\n      pop\n      pop\n      jump\t// out\n        /* \"#utility.yul\":5665:5783   */\n    tag_373:\n        /* \"#utility.yul\":5752:5776   */\n      tag_375\n        /* \"#utility.yul\":5770:5775   */\n      dup2\n        /* \"#utility.yul\":5752:5776   */\n      tag_376\n      jump\t// in\n    tag_375:\n        /* \"#utility.yul\":5747:5750   */\n      dup3\n        /* \"#utility.yul\":5740:5777   */\n      mstore\n        /* \"#utility.yul\":5665:5783   */\n      pop\n      pop\n      jump\t// out\n        /* \"#utility.yul\":5789:5898   */\n    tag_377:\n        /* \"#utility.yul\":5870:5891   */\n      tag_379\n        /* \"#utility.yul\":5885:5890   */\n      dup2\n        /* \"#utility.yul\":5870:5891   */\n      tag_380\n      jump\t// in\n    tag_379:\n        /* \"#utility.yul\":5865:5868   */\n      dup3\n        /* \"#utility.yul\":5858:5892   */\n      mstore\n        /* \"#utility.yul\":5789:5898   */\n      pop\n      pop\n      jump\t// out\n        /* \"#utility.yul\":5904:6061   */\n    tag_381:\n        /* \"#utility.yul\":6004:6054   */\n      tag_383\n        /* \"#utility.yul\":6048:6053   */\n      dup2\n        /* \"#utility.yul\":6004:6054   */\n      tag_384\n      jump\t// in\n    tag_383:\n        /* \"#utility.yul\":5999:6002   */\n      dup3\n        /* \"#utility.yul\":5992:6055   */\n      mstore\n        /* \"#utility.yul\":5904:6061   */\n      pop\n      pop\n      jump\t// out\n        /* \"#utility.yul\":6067:6433   */\n    tag_385:\n        /* \"#utility.yul\":6209:6212   */\n      0x00\n        /* \"#utility.yul\":6230:6297   */\n      tag_387\n        /* \"#utility.yul\":6294:6296   */\n      0x2c\n        /* \"#utility.yul\":6289:6292   */\n      dup4\n        /* \"#utility.yul\":6230:6297   */\n      tag_388\n      jump\t// in\n    tag_387:\n        /* \"#utility.yul\":6223:6297   */\n      swap2\n      pop\n        /* \"#utility.yul\":6306:6399   */\n      tag_389\n        /* \"#utility.yul\":6395:6398   */\n      dup3\n        /* \"#utility.yul\":6306:6399   */\n      tag_390\n      jump\t// in\n    tag_389:\n        /* \"#utility.yul\":6424:6426   */\n      0x40\n        /* \"#utility.yul\":6419:6422   */\n      dup3\n        /* \"#utility.yul\":6415:6427   */\n      add\n        /* \"#utility.yul\":6408:6427   */\n      swap1\n      pop\n        /* \"#utility.yul\":6067:6433   */\n      swap2\n      swap1\n      pop\n      jump\t// out\n        /* \"#utility.yul\":6439:6805   */\n    tag_391:\n        /* \"#utility.yul\":6581:6584   */\n      0x00\n        /* \"#utility.yul\":6602:6669   */\n      tag_393\n        /* \"#utility.yul\":6666:6668   */\n      0x29\n        /* \"#utility.yul\":6661:6664   */\n      dup4\n        /* \"#utility.yul\":6602:6669   */\n      tag_388\n      jump\t// in\n    tag_393:\n        /* \"#utility.yul\":6595:6669   */\n      swap2\n      pop\n        /* \"#utility.yul\":6678:6771   */\n      tag_394\n        /* \"#utility.yul\":6767:6770   */\n      dup3\n        /* \"#utility.yul\":6678:6771   */\n      tag_395\n      jump\t// in\n    tag_394:\n        /* \"#utility.yul\":6796:6798   */\n      0x40\n        /* \"#utility.yul\":6791:6794   */\n      dup3\n        /* \"#utility.yul\":6787:6799   */\n      add\n        /* \"#utility.yul\":6780:6799   */\n      swap1\n      pop\n        /* \"#utility.yul\":6439:6805   */\n      swap2\n      swap1\n      pop\n      jump\t// out\n        /* \"#utility.yul\":6811:7177   */\n    tag_396:\n        /* \"#utility.yul\":6953:6956   */\n      0x00\n        /* \"#utility.yul\":6974:7041   */\n      tag_398\n        /* \"#utility.yul\":7038:7040   */\n      0x35\n        /* \"#utility.yul\":7033:7036   */\n      dup4\n        /* \"#utility.yul\":6974:7041   */\n      tag_388\n      jump\t// in\n    tag_398:\n        /* \"#utility.yul\":6967:7041   */\n      swap2\n      pop\n        /* \"#utility.yul\":7050:7143   */\n      tag_399\n        /* \"#utility.yul\":7139:7142   */\n      dup3\n        /* \"#utility.yul\":7050:7143   */\n      tag_400\n      jump\t// in\n    tag_399:\n        /* \"#utility.yul\":7168:7170   */\n      0x40\n        /* \"#utility.yul\":7163:7166   */\n      dup3\n        /* \"#utility.yul\":7159:7171   */\n      add\n        /* \"#utility.yul\":7152:7171   */\n      swap1\n      pop\n        /* \"#utility.yul\":6811:7177   */\n      swap2\n      swap1\n      pop\n      jump\t// out\n        /* \"#utility.yul\":7183:7549   */\n    tag_401:\n        /* \"#utility.yul\":7325:7328   */\n      0x00\n        /* \"#utility.yul\":7346:7413   */\n      tag_403\n        /* \"#utility.yul\":7410:7412   */\n      0x25\n        /* \"#utility.yul\":7405:7408   */\n      dup4\n        /* \"#utility.yul\":7346:7413   */\n      tag_388\n      jump\t// in\n    tag_403:\n        /* \"#utility.yul\":7339:7413   */\n      swap2\n      pop\n        /* \"#utility.yul\":7422:7515   */\n      tag_404\n        /* \"#utility.yul\":7511:7514   */\n      dup3\n        /* \"#utility.yul\":7422:7515   */\n      tag_405\n      jump\t// in\n    tag_404:\n        /* \"#utility.yul\":7540:7542   */\n      0x40\n        /* \"#utility.yul\":7535:7538   */\n      dup3\n        /* \"#utility.yul\":7531:7543   */\n      add\n        /* \"#utility.yul\":7524:7543   */\n      swap1\n      pop\n        /* \"#utility.yul\":7183:7549   */\n      swap2\n      swap1\n      pop\n      jump\t// out\n        /* \"#utility.yul\":7555:7921   */\n    tag_406:\n        /* \"#utility.yul\":7697:7700   */\n      0x00\n        /* \"#utility.yul\":7718:7785   */\n      tag_408\n        /* \"#utility.yul\":7782:7784   */\n      0x1f\n        /* \"#utility.yul\":7777:7780   */\n      dup4\n        /* \"#utility.yul\":7718:7785   */\n      tag_388\n      jump\t// in\n    tag_408:\n        /* \"#utility.yul\":7711:7785   */\n      swap2\n      pop\n        /* \"#utility.yul\":7794:7887   */\n      tag_409\n        /* \"#utility.yul\":7883:7886   */\n      dup3\n        /* \"#utility.yul\":7794:7887   */\n      tag_410\n      jump\t// in\n    tag_409:\n        /* \"#utility.yul\":7912:7914   */\n      0x20\n        /* \"#utility.yul\":7907:7910   */\n      dup3\n        /* \"#utility.yul\":7903:7915   */\n      add\n        /* \"#utility.yul\":7896:7915   */\n      swap1\n      pop\n        /* \"#utility.yul\":7555:7921   */\n      swap2\n      swap1\n      pop\n      jump\t// out\n        /* \"#utility.yul\":7927:8293   */\n    tag_411:\n        /* \"#utility.yul\":8069:8072   */\n      0x00\n        /* \"#utility.yul\":8090:8157   */\n      tag_413\n        /* \"#utility.yul\":8154:8156   */\n      0x27\n        /* \"#utility.yul\":8149:8152   */\n      dup4\n        /* \"#utility.yul\":8090:8157   */\n      tag_388\n      jump\t// in\n    tag_413:\n        /* \"#utility.yul\":8083:8157   */\n      swap2\n      pop\n        /* \"#utility.yul\":8166:8259   */\n      tag_414\n        /* \"#utility.yul\":8255:8258   */\n      dup3\n        /* \"#utility.yul\":8166:8259   */\n      tag_415\n      jump\t// in\n    tag_414:\n        /* \"#utility.yul\":8284:8286   */\n      0x40\n        /* \"#utility.yul\":8279:8282   */\n      dup3\n        /* \"#utility.yul\":8275:8287   */\n      add\n        /* \"#utility.yul\":8268:8287   */\n      swap1\n      pop\n        /* \"#utility.yul\":7927:8293   */\n      swap2\n      swap1\n      pop\n      jump\t// out\n        /* \"#utility.yul\":8299:8665   */\n    tag_416:\n        /* \"#utility.yul\":8441:8444   */\n      0x00\n        /* \"#utility.yul\":8462:8529   */\n      tag_418\n        /* \"#utility.yul\":8526:8528   */\n      0x44\n        /* \"#utility.yul\":8521:8524   */\n      dup4\n        /* \"#utility.yul\":8462:8529   */\n      tag_388\n      jump\t// in\n    tag_418:\n        /* \"#utility.yul\":8455:8529   */\n      swap2\n      pop\n        /* \"#utility.yul\":8538:8631   */\n      tag_419\n        /* \"#utility.yul\":8627:8630   */\n      dup3\n        /* \"#utility.yul\":8538:8631   */\n      tag_420\n      jump\t// in\n    tag_419:\n        /* \"#utility.yul\":8656:8658   */\n      0x60\n        /* \"#utility.yul\":8651:8654   */\n      dup3\n        /* \"#utility.yul\":8647:8659   */\n      add\n        /* \"#utility.yul\":8640:8659   */\n      swap1\n      pop\n        /* \"#utility.yul\":8299:8665   */\n      swap2\n      swap1\n      pop\n      jump\t// out\n        /* \"#utility.yul\":8671:9037   */\n    tag_421:\n        /* \"#utility.yul\":8813:8816   */\n      0x00\n        /* \"#utility.yul\":8834:8901   */\n      tag_423\n        /* \"#utility.yul\":8898:8900   */\n      0x26\n        /* \"#utility.yul\":8893:8896   */\n      dup4\n        /* \"#utility.yul\":8834:8901   */\n      tag_388\n      jump\t// in\n    tag_423:\n        /* \"#utility.yul\":8827:8901   */\n      swap2\n      pop\n        /* \"#utility.yul\":8910:9003   */\n      tag_424\n        /* \"#utility.yul\":8999:9002   */\n      dup3\n        /* \"#utility.yul\":8910:9003   */\n      tag_425\n      jump\t// in\n    tag_424:\n        /* \"#utility.yul\":9028:9030   */\n      0x40\n        /* \"#utility.yul\":9023:9026   */\n      dup3\n        /* \"#utility.yul\":9019:9031   */\n      add\n        /* \"#utility.yul\":9012:9031   */\n      swap1\n      pop\n        /* \"#utility.yul\":8671:9037   */\n      swap2\n      swap1\n      pop\n      jump\t// out\n        /* \"#utility.yul\":9043:9409   */\n    tag_426:\n        /* \"#utility.yul\":9185:9188   */\n      0x00\n        /* \"#utility.yul\":9206:9273   */\n      tag_428\n        /* \"#utility.yul\":9270:9272   */\n      0x28\n        /* \"#utility.yul\":9265:9268   */\n      dup4\n        /* \"#utility.yul\":9206:9273   */\n      tag_388\n      jump\t// in\n    tag_428:\n        /* \"#utility.yul\":9199:9273   */\n      swap2\n      pop\n        /* \"#utility.yul\":9282:9375   */\n      tag_429\n        /* \"#utility.yul\":9371:9374   */\n      dup3\n        /* \"#utility.yul\":9282:9375   */\n      tag_430\n      jump\t// in\n    tag_429:\n        /* \"#utility.yul\":9400:9402   */\n      0x40\n        /* \"#utility.yul\":9395:9398   */\n      dup3\n        /* \"#utility.yul\":9391:9403   */\n      add\n        /* \"#utility.yul\":9384:9403   */\n      swap1\n      pop\n        /* \"#utility.yul\":9043:9409   */\n      swap2\n      swap1\n      pop\n      jump\t// out\n        /* \"#utility.yul\":9415:9781   */\n    tag_431:\n        /* \"#utility.yul\":9557:9560   */\n      0x00\n        /* \"#utility.yul\":9578:9645   */\n      tag_433\n        /* \"#utility.yul\":9642:9644   */\n      0x13\n        /* \"#utility.yul\":9637:9640   */\n      dup4\n        /* \"#utility.yul\":9578:9645   */\n      tag_388\n      jump\t// in\n    tag_433:\n        /* \"#utility.yul\":9571:9645   */\n      swap2\n      pop\n        /* \"#utility.yul\":9654:9747   */\n      tag_434\n        /* \"#utility.yul\":9743:9746   */\n      dup3\n        /* \"#utility.yul\":9654:9747   */\n      tag_435\n      jump\t// in\n    tag_434:\n        /* \"#utility.yul\":9772:9774   */\n      0x20\n        /* \"#utility.yul\":9767:9770   */\n      dup3\n        /* \"#utility.yul\":9763:9775   */\n      add\n        /* \"#utility.yul\":9756:9775   */\n      swap1\n      pop\n        /* \"#utility.yul\":9415:9781   */\n      swap2\n      swap1\n      pop\n      jump\t// out\n        /* \"#utility.yul\":9787:9905   */\n    tag_436:\n        /* \"#utility.yul\":9874:9898   */\n      tag_438\n        /* \"#utility.yul\":9892:9897   */\n      dup2\n        /* \"#utility.yul\":9874:9898   */\n      tag_439\n      jump\t// in\n    tag_438:\n        /* \"#utility.yul\":9869:9872   */\n      dup3\n        /* \"#utility.yul\":9862:9899   */\n      mstore\n        /* \"#utility.yul\":9787:9905   */\n      pop\n      pop\n      jump\t// out\n        /* \"#utility.yul\":9911:10133   */\n    tag_55:\n        /* \"#utility.yul\":10004:10008   */\n      0x00\n        /* \"#utility.yul\":10042:10044   */\n      0x20\n        /* \"#utility.yul\":10031:10040   */\n      dup3\n        /* \"#utility.yul\":10027:10045   */\n      add\n        /* \"#utility.yul\":10019:10045   */\n      swap1\n      pop\n        /* \"#utility.yul\":10055:10126   */\n      tag_441\n        /* \"#utility.yul\":10123:10124   */\n      0x00\n        /* \"#utility.yul\":10112:10121   */\n      dup4\n        /* \"#utility.yul\":10108:10125   */\n      add\n        /* \"#utility.yul\":10099:10105   */\n      dup5\n        /* \"#utility.yul\":10055:10126   */\n      tag_373\n      jump\t// in\n    tag_441:\n        /* \"#utility.yul\":9911:10133   */\n      swap3\n      swap2\n      pop\n      pop\n      jump\t// out\n        /* \"#utility.yul\":10139:10393   */\n    tag_69:\n        /* \"#utility.yul\":10248:10252   */\n      0x00\n        /* \"#utility.yul\":10286:10288   */\n      0x20\n        /* \"#utility.yul\":10275:10284   */\n      dup3\n        /* \"#utility.yul\":10271:10289   */\n      add\n        /* \"#utility.yul\":10263:10289   */\n      swap1\n      pop\n        /* \"#utility.yul\":10299:10386   */\n      tag_443\n        /* \"#utility.yul\":10383:10384   */\n      0x00\n        /* \"#utility.yul\":10372:10381   */\n      dup4\n        /* \"#utility.yul\":10368:10385   */\n      add\n        /* \"#utility.yul\":10359:10365   */\n      dup5\n        /* \"#utility.yul\":10299:10386   */\n      tag_369\n      jump\t// in\n    tag_443:\n        /* \"#utility.yul\":10139:10393   */\n      swap3\n      swap2\n      pop\n      pop\n      jump\t// out\n        /* \"#utility.yul\":10399:10747   */\n    tag_211:\n        /* \"#utility.yul\":10528:10532   */\n      0x00\n        /* \"#utility.yul\":10566:10568   */\n      0x40\n        /* \"#utility.yul\":10555:10564   */\n      dup3\n        /* \"#utility.yul\":10551:10569   */\n      add\n        /* \"#utility.yul\":10543:10569   */\n      swap1\n      pop\n        /* \"#utility.yul\":10579:10658   */\n      tag_445\n        /* \"#utility.yul\":10655:10656   */\n      0x00\n        /* \"#utility.yul\":10644:10653   */\n      dup4\n        /* \"#utility.yul\":10640:10657   */\n      add\n        /* \"#utility.yul\":10631:10637   */\n      dup6\n        /* \"#utility.yul\":10579:10658   */\n      tag_365\n      jump\t// in\n    tag_445:\n        /* \"#utility.yul\":10668:10740   */\n      tag_446\n        /* \"#utility.yul\":10736:10738   */\n      0x20\n        /* \"#utility.yul\":10725:10734   */\n      dup4\n        /* \"#utility.yul\":10721:10739   */\n      add\n        /* \"#utility.yul\":10712:10718   */\n      dup5\n        /* \"#utility.yul\":10668:10740   */\n      tag_436\n      jump\t// in\n    tag_446:\n        /* \"#utility.yul\":10399:10747   */\n      swap4\n      swap3\n      pop\n      pop\n      pop\n      jump\t// out\n        /* \"#utility.yul\":10753:10963   */\n    tag_39:\n        /* \"#utility.yul\":10840:10844   */\n      0x00\n        /* \"#utility.yul\":10878:10880   */\n      0x20\n        /* \"#utility.yul\":10867:10876   */\n      dup3\n        /* \"#utility.yul\":10863:10881   */\n      add\n        /* \"#utility.yul\":10855:10881   */\n      swap1\n      pop\n        /* \"#utility.yul\":10891:10956   */\n      tag_448\n        /* \"#utility.yul\":10953:10954   */\n      0x00\n        /* \"#utility.yul\":10942:10951   */\n      dup4\n        /* \"#utility.yul\":10938:10955   */\n      add\n        /* \"#utility.yul\":10929:10935   */\n      dup5\n        /* \"#utility.yul\":10891:10956   */\n      tag_377\n      jump\t// in\n    tag_448:\n        /* \"#utility.yul\":10753:10963   */\n      swap3\n      swap2\n      pop\n      pop\n      jump\t// out\n        /* \"#utility.yul\":10969:11217   */\n    tag_119:\n        /* \"#utility.yul\":11075:11079   */\n      0x00\n        /* \"#utility.yul\":11113:11115   */\n      0x20\n        /* \"#utility.yul\":11102:11111   */\n      dup3\n        /* \"#utility.yul\":11098:11116   */\n      add\n        /* \"#utility.yul\":11090:11116   */\n      swap1\n      pop\n        /* \"#utility.yul\":11126:11210   */\n      tag_450\n        /* \"#utility.yul\":11207:11208   */\n      0x00\n        /* \"#utility.yul\":11196:11205   */\n      dup4\n        /* \"#utility.yul\":11192:11209   */\n      add\n        /* \"#utility.yul\":11183:11189   */\n      dup5\n        /* \"#utility.yul\":11126:11210   */\n      tag_381\n      jump\t// in\n    tag_450:\n        /* \"#utility.yul\":10969:11217   */\n      swap3\n      swap2\n      pop\n      pop\n      jump\t// out\n        /* \"#utility.yul\":11223:11642   */\n    tag_158:\n        /* \"#utility.yul\":11389:11393   */\n      0x00\n        /* \"#utility.yul\":11427:11429   */\n      0x20\n        /* \"#utility.yul\":11416:11425   */\n      dup3\n        /* \"#utility.yul\":11412:11430   */\n      add\n        /* \"#utility.yul\":11404:11430   */\n      swap1\n      pop\n        /* \"#utility.yul\":11476:11485   */\n      dup2\n        /* \"#utility.yul\":11470:11474   */\n      dup2\n        /* \"#utility.yul\":11466:11486   */\n      sub\n        /* \"#utility.yul\":11462:11463   */\n      0x00\n        /* \"#utility.yul\":11451:11460   */\n      dup4\n        /* \"#utility.yul\":11447:11464   */\n      add\n        /* \"#utility.yul\":11440:11487   */\n      mstore\n        /* \"#utility.yul\":11504:11635   */\n      tag_452\n        /* \"#utility.yul\":11630:11634   */\n      dup2\n        /* \"#utility.yul\":11504:11635   */\n      tag_385\n      jump\t// in\n    tag_452:\n        /* \"#utility.yul\":11496:11635   */\n      swap1\n      pop\n        /* \"#utility.yul\":11223:11642   */\n      swap2\n      swap1\n      pop\n      jump\t// out\n        /* \"#utility.yul\":11648:12067   */\n    tag_178:\n        /* \"#utility.yul\":11814:11818   */\n      0x00\n        /* \"#utility.yul\":11852:11854   */\n      0x20\n        /* \"#utility.yul\":11841:11850   */\n      dup3\n        /* \"#utility.yul\":11837:11855   */\n      add\n        /* \"#utility.yul\":11829:11855   */\n      swap1\n      pop\n        /* \"#utility.yul\":11901:11910   */\n      dup2\n        /* \"#utility.yul\":11895:11899   */\n      dup2\n        /* \"#utility.yul\":11891:11911   */\n      sub\n        /* \"#utility.yul\":11887:11888   */\n      0x00\n        /* \"#utility.yul\":11876:11885   */\n      dup4\n        /* \"#utility.yul\":11872:11889   */\n      add\n        /* \"#utility.yul\":11865:11912   */\n      mstore\n        /* \"#utility.yul\":11929:12060   */\n      tag_454\n        /* \"#utility.yul\":12055:12059   */\n      dup2\n        /* \"#utility.yul\":11929:12060   */\n      tag_391\n      jump\t// in\n    tag_454:\n        /* \"#utility.yul\":11921:12060   */\n      swap1\n      pop\n        /* \"#utility.yul\":11648:12067   */\n      swap2\n      swap1\n      pop\n      jump\t// out\n        /* \"#utility.yul\":12073:12492   */\n    tag_168:\n        /* \"#utility.yul\":12239:12243   */\n      0x00\n        /* \"#utility.yul\":12277:12279   */\n      0x20\n        /* \"#utility.yul\":12266:12275   */\n      dup3\n        /* \"#utility.yul\":12262:12280   */\n      add\n        /* \"#utility.yul\":12254:12280   */\n      swap1\n      pop\n        /* \"#utility.yul\":12326:12335   */\n      dup2\n        /* \"#utility.yul\":12320:12324   */\n      dup2\n        /* \"#utility.yul\":12316:12336   */\n      sub\n        /* \"#utility.yul\":12312:12313   */\n      0x00\n        /* \"#utility.yul\":12301:12310   */\n      dup4\n        /* \"#utility.yul\":12297:12314   */\n      add\n        /* \"#utility.yul\":12290:12337   */\n      mstore\n        /* \"#utility.yul\":12354:12485   */\n      tag_456\n        /* \"#utility.yul\":12480:12484   */\n      dup2\n        /* \"#utility.yul\":12354:12485   */\n      tag_396\n      jump\t// in\n    tag_456:\n        /* \"#utility.yul\":12346:12485   */\n      swap1\n      pop\n        /* \"#utility.yul\":12073:12492   */\n      swap2\n      swap1\n      pop\n      jump\t// out\n        /* \"#utility.yul\":12498:12917   */\n    tag_144:\n        /* \"#utility.yul\":12664:12668   */\n      0x00\n        /* \"#utility.yul\":12702:12704   */\n      0x20\n        /* \"#utility.yul\":12691:12700   */\n      dup3\n        /* \"#utility.yul\":12687:12705   */\n      add\n        /* \"#utility.yul\":12679:12705   */\n      swap1\n      pop\n        /* \"#utility.yul\":12751:12760   */\n      dup2\n        /* \"#utility.yul\":12745:12749   */\n      dup2\n        /* \"#utility.yul\":12741:12761   */\n      sub\n        /* \"#utility.yul\":12737:12738   */\n      0x00\n        /* \"#utility.yul\":12726:12735   */\n      dup4\n        /* \"#utility.yul\":12722:12739   */\n      add\n        /* \"#utility.yul\":12715:12762   */\n      mstore\n        /* \"#utility.yul\":12779:12910   */\n      tag_458\n        /* \"#utility.yul\":12905:12909   */\n      dup2\n        /* \"#utility.yul\":12779:12910   */\n      tag_401\n      jump\t// in\n    tag_458:\n        /* \"#utility.yul\":12771:12910   */\n      swap1\n      pop\n        /* \"#utility.yul\":12498:12917   */\n      swap2\n      swap1\n      pop\n      jump\t// out\n        /* \"#utility.yul\":12923:13342   */\n    tag_244:\n        /* \"#utility.yul\":13089:13093   */\n      0x00\n        /* \"#utility.yul\":13127:13129   */\n      0x20\n        /* \"#utility.yul\":13116:13125   */\n      dup3\n        /* \"#utility.yul\":13112:13130   */\n      add\n        /* \"#utility.yul\":13104:13130   */\n      swap1\n      pop\n        /* \"#utility.yul\":13176:13185   */\n      dup2\n        /* \"#utility.yul\":13170:13174   */\n      dup2\n        /* \"#utility.yul\":13166:13186   */\n      sub\n        /* \"#utility.yul\":13162:13163   */\n      0x00\n        /* \"#utility.yul\":13151:13160   */\n      dup4\n        /* \"#utility.yul\":13147:13164   */\n      add\n        /* \"#utility.yul\":13140:13187   */\n      mstore\n        /* \"#utility.yul\":13204:13335   */\n      tag_460\n        /* \"#utility.yul\":13330:13334   */\n      dup2\n        /* \"#utility.yul\":13204:13335   */\n      tag_406\n      jump\t// in\n    tag_460:\n        /* \"#utility.yul\":13196:13335   */\n      swap1\n      pop\n        /* \"#utility.yul\":12923:13342   */\n      swap2\n      swap1\n      pop\n      jump\t// out\n        /* \"#utility.yul\":13348:13767   */\n    tag_141:\n        /* \"#utility.yul\":13514:13518   */\n      0x00\n        /* \"#utility.yul\":13552:13554   */\n      0x20\n        /* \"#utility.yul\":13541:13550   */\n      dup3\n        /* \"#utility.yul\":13537:13555   */\n      add\n        /* \"#utility.yul\":13529:13555   */\n      swap1\n      pop\n        /* \"#utility.yul\":13601:13610   */\n      dup2\n        /* \"#utility.yul\":13595:13599   */\n      dup2\n        /* \"#utility.yul\":13591:13611   */\n      sub\n        /* \"#utility.yul\":13587:13588   */\n      0x00\n        /* \"#utility.yul\":13576:13585   */\n      dup4\n        /* \"#utility.yul\":13572:13589   */\n      add\n        /* \"#utility.yul\":13565:13612   */\n      mstore\n        /* \"#utility.yul\":13629:13760   */\n      tag_462\n        /* \"#utility.yul\":13755:13759   */\n      dup2\n        /* \"#utility.yul\":13629:13760   */\n      tag_411\n      jump\t// in\n    tag_462:\n        /* \"#utility.yul\":13621:13760   */\n      swap1\n      pop\n        /* \"#utility.yul\":13348:13767   */\n      swap2\n      swap1\n      pop\n      jump\t// out\n        /* \"#utility.yul\":13773:14192   */\n    tag_175:\n        /* \"#utility.yul\":13939:13943   */\n      0x00\n        /* \"#utility.yul\":13977:13979   */\n      0x20\n        /* \"#utility.yul\":13966:13975   */\n      dup3\n        /* \"#utility.yul\":13962:13980   */\n      add\n        /* \"#utility.yul\":13954:13980   */\n      swap1\n      pop\n        /* \"#utility.yul\":14026:14035   */\n      dup2\n        /* \"#utility.yul\":14020:14024   */\n      dup2\n        /* \"#utility.yul\":14016:14036   */\n      sub\n        /* \"#utility.yul\":14012:14013   */\n      0x00\n        /* \"#utility.yul\":14001:14010   */\n      dup4\n        /* \"#utility.yul\":13997:14014   */\n      add\n        /* \"#utility.yul\":13990:14037   */\n      mstore\n        /* \"#utility.yul\":14054:14185   */\n      tag_464\n        /* \"#utility.yul\":14180:14184   */\n      dup2\n        /* \"#utility.yul\":14054:14185   */\n      tag_416\n      jump\t// in\n    tag_464:\n        /* \"#utility.yul\":14046:14185   */\n      swap1\n      pop\n        /* \"#utility.yul\":13773:14192   */\n      swap2\n      swap1\n      pop\n      jump\t// out\n        /* \"#utility.yul\":14198:14617   */\n    tag_226:\n        /* \"#utility.yul\":14364:14368   */\n      0x00\n        /* \"#utility.yul\":14402:14404   */\n      0x20\n        /* \"#utility.yul\":14391:14400   */\n      dup3\n        /* \"#utility.yul\":14387:14405   */\n      add\n        /* \"#utility.yul\":14379:14405   */\n      swap1\n      pop\n        /* \"#utility.yul\":14451:14460   */\n      dup2\n        /* \"#utility.yul\":14445:14449   */\n      dup2\n        /* \"#utility.yul\":14441:14461   */\n      sub\n        /* \"#utility.yul\":14437:14438   */\n      0x00\n        /* \"#utility.yul\":14426:14435   */\n      dup4\n        /* \"#utility.yul\":14422:14439   */\n      add\n        /* \"#utility.yul\":14415:14462   */\n      mstore\n        /* \"#utility.yul\":14479:14610   */\n      tag_466\n        /* \"#utility.yul\":14605:14609   */\n      dup2\n        /* \"#utility.yul\":14479:14610   */\n      tag_421\n      jump\t// in\n    tag_466:\n        /* \"#utility.yul\":14471:14610   */\n      swap1\n      pop\n        /* \"#utility.yul\":14198:14617   */\n      swap2\n      swap1\n      pop\n      jump\t// out\n        /* \"#utility.yul\":14623:15042   */\n    tag_162:\n        /* \"#utility.yul\":14789:14793   */\n      0x00\n        /* \"#utility.yul\":14827:14829   */\n      0x20\n        /* \"#utility.yul\":14816:14825   */\n      dup3\n        /* \"#utility.yul\":14812:14830   */\n      add\n        /* \"#utility.yul\":14804:14830   */\n      swap1\n      pop\n        /* \"#utility.yul\":14876:14885   */\n      dup2\n        /* \"#utility.yul\":14870:14874   */\n      dup2\n        /* \"#utility.yul\":14866:14886   */\n      sub\n        /* \"#utility.yul\":14862:14863   */\n      0x00\n        /* \"#utility.yul\":14851:14860   */\n      dup4\n        /* \"#utility.yul\":14847:14864   */\n      add\n        /* \"#utility.yul\":14840:14887   */\n      mstore\n        /* \"#utility.yul\":14904:15035   */\n      tag_468\n        /* \"#utility.yul\":15030:15034   */\n      dup2\n        /* \"#utility.yul\":14904:15035   */\n      tag_426\n      jump\t// in\n    tag_468:\n        /* \"#utility.yul\":14896:15035   */\n      swap1\n      pop\n        /* \"#utility.yul\":14623:15042   */\n      swap2\n      swap1\n      pop\n      jump\t// out\n        /* \"#utility.yul\":15048:15467   */\n    tag_182:\n        /* \"#utility.yul\":15214:15218   */\n      0x00\n        /* \"#utility.yul\":15252:15254   */\n      0x20\n        /* \"#utility.yul\":15241:15250   */\n      dup3\n        /* \"#utility.yul\":15237:15255   */\n      add\n        /* \"#utility.yul\":15229:15255   */\n      swap1\n      pop\n        /* \"#utility.yul\":15301:15310   */\n      dup2\n        /* \"#utility.yul\":15295:15299   */\n      dup2\n        /* \"#utility.yul\":15291:15311   */\n      sub\n        /* \"#utility.yul\":15287:15288   */\n      0x00\n        /* \"#utility.yul\":15276:15285   */\n      dup4\n        /* \"#utility.yul\":15272:15289   */\n      add\n        /* \"#utility.yul\":15265:15312   */\n      mstore\n        /* \"#utility.yul\":15329:15460   */\n      tag_470\n        /* \"#utility.yul\":15455:15459   */\n      dup2\n        /* \"#utility.yul\":15329:15460   */\n      tag_431\n      jump\t// in\n    tag_470:\n        /* \"#utility.yul\":15321:15460   */\n      swap1\n      pop\n        /* \"#utility.yul\":15048:15467   */\n      swap2\n      swap1\n      pop\n      jump\t// out\n        /* \"#utility.yul\":15473:15695   */\n    tag_32:\n        /* \"#utility.yul\":15566:15570   */\n      0x00\n        /* \"#utility.yul\":15604:15606   */\n      0x20\n        /* \"#utility.yul\":15593:15602   */\n      dup3\n        /* \"#utility.yul\":15589:15607   */\n      add\n        /* \"#utility.yul\":15581:15607   */\n      swap1\n      pop\n        /* \"#utility.yul\":15617:15688   */\n      tag_472\n        /* \"#utility.yul\":15685:15686   */\n      0x00\n        /* \"#utility.yul\":15674:15683   */\n      dup4\n        /* \"#utility.yul\":15670:15687   */\n      add\n        /* \"#utility.yul\":15661:15667   */\n      dup5\n        /* \"#utility.yul\":15617:15688   */\n      tag_436\n      jump\t// in\n    tag_472:\n        /* \"#utility.yul\":15473:15695   */\n      swap3\n      swap2\n      pop\n      pop\n      jump\t// out\n        /* \"#utility.yul\":15782:15951   */\n    tag_388:\n        /* \"#utility.yul\":15866:15877   */\n      0x00\n        /* \"#utility.yul\":15900:15906   */\n      dup3\n        /* \"#utility.yul\":15895:15898   */\n      dup3\n        /* \"#utility.yul\":15888:15907   */\n      mstore\n        /* \"#utility.yul\":15940:15944   */\n      0x20\n        /* \"#utility.yul\":15935:15938   */\n      dup3\n        /* \"#utility.yul\":15931:15945   */\n      add\n        /* \"#utility.yul\":15916:15945   */\n      swap1\n      pop\n        /* \"#utility.yul\":15782:15951   */\n      swap3\n      swap2\n      pop\n      pop\n      jump\t// out\n        /* \"#utility.yul\":15957:16262   */\n    tag_172:\n        /* \"#utility.yul\":15997:16000   */\n      0x00\n        /* \"#utility.yul\":16016:16036   */\n      tag_477\n        /* \"#utility.yul\":16034:16035   */\n      dup3\n        /* \"#utility.yul\":16016:16036   */\n      tag_439\n      jump\t// in\n    tag_477:\n        /* \"#utility.yul\":16011:16036   */\n      swap2\n      pop\n        /* \"#utility.yul\":16050:16070   */\n      tag_478\n        /* \"#utility.yul\":16068:16069   */\n      dup4\n        /* \"#utility.yul\":16050:16070   */\n      tag_439\n      jump\t// in\n    tag_478:\n        /* \"#utility.yul\":16045:16070   */\n      swap3\n      pop\n        /* \"#utility.yul\":16204:16205   */\n      dup3\n        /* \"#utility.yul\":16136:16202   */\n      0xffffffffffffffffffffffffffffffffffffffffffffffffffffffffffffffff\n        /* \"#utility.yul\":16132:16206   */\n      sub\n        /* \"#utility.yul\":16129:16130   */\n      dup3\n        /* \"#utility.yul\":16126:16207   */\n      gt\n        /* \"#utility.yul\":16123:16230   */\n      iszero\n      tag_479\n      jumpi\n        /* \"#utility.yul\":16210:16228   */\n      tag_480\n      tag_481\n      jump\t// in\n    tag_480:\n        /* \"#utility.yul\":16123:16230   */\n    tag_479:\n        /* \"#utility.yul\":16254:16255   */\n      dup3\n        /* \"#utility.yul\":16251:16252   */\n      dup3\n        /* \"#utility.yul\":16247:16256   */\n      add\n        /* \"#utility.yul\":16240:16256   */\n      swap1\n      pop\n        /* \"#utility.yul\":15957:16262   */\n      swap3\n      swap2\n      pop\n      pop\n      jump\t// out\n        /* \"#utility.yul\":16268:16453   */\n    tag_294:\n        /* \"#utility.yul\":16308:16309   */\n      0x00\n        /* \"#utility.yul\":16325:16345   */\n      tag_483\n        /* \"#utility.yul\":16343:16344   */\n      dup3\n        /* \"#utility.yul\":16325:16345   */\n      tag_439\n      jump\t// in\n    tag_483:\n        /* \"#utility.yul\":16320:16345   */\n      swap2\n      pop\n        /* \"#utility.yul\":16359:16379   */\n      tag_484\n        /* \"#utility.yul\":16377:16378   */\n      dup4\n        /* \"#utility.yul\":16359:16379   */\n      tag_439\n      jump\t// in\n    tag_484:\n        /* \"#utility.yul\":16354:16379   */\n      swap3\n      pop\n        /* \"#utility.yul\":16398:16399   */\n      dup3\n        /* \"#utility.yul\":16388:16423   */\n      tag_485\n      jumpi\n        /* \"#utility.yul\":16403:16421   */\n      tag_486\n      tag_487\n      jump\t// in\n    tag_486:\n        /* \"#utility.yul\":16388:16423   */\n    tag_485:\n        /* \"#utility.yul\":16445:16446   */\n      dup3\n        /* \"#utility.yul\":16442:16443   */\n      dup3\n        /* \"#utility.yul\":16438:16447   */\n      div\n        /* \"#utility.yul\":16433:16447   */\n      swap1\n      pop\n        /* \"#utility.yul\":16268:16453   */\n      swap3\n      swap2\n      pop\n      pop\n      jump\t// out\n        /* \"#utility.yul\":16459:16807   */\n    tag_291:\n        /* \"#utility.yul\":16499:16506   */\n      0x00\n        /* \"#utility.yul\":16522:16542   */\n      tag_489\n        /* \"#utility.yul\":16540:16541   */\n      dup3\n        /* \"#utility.yul\":16522:16542   */\n      tag_439\n      jump\t// in\n    tag_489:\n        /* \"#utility.yul\":16517:16542   */\n      swap2\n      pop\n        /* \"#utility.yul\":16556:16576   */\n      tag_490\n        /* \"#utility.yul\":16574:16575   */\n      dup4\n        /* \"#utility.yul\":16556:16576   */\n      tag_439\n      jump\t// in\n    tag_490:\n        /* \"#utility.yul\":16551:16576   */\n      swap3\n      pop\n        /* \"#utility.yul\":16744:16745   */\n      dup2\n        /* \"#utility.yul\":16676:16742   */\n      0xffffffffffffffffffffffffffffffffffffffffffffffffffffffffffffffff\n        /* \"#utility.yul\":16672:16746   */\n      div\n        /* \"#utility.yul\":16669:16670   */\n      dup4\n        /* \"#utility.yul\":16666:16747   */\n      gt\n        /* \"#utility.yul\":16661:16662   */\n      dup3\n        /* \"#utility.yul\":16654:16663   */\n      iszero\n        /* \"#utility.yul\":16647:16664   */\n      iszero\n        /* \"#utility.yul\":16643:16748   */\n      and\n        /* \"#utility.yul\":16640:16771   */\n      iszero\n      tag_491\n      jumpi\n        /* \"#utility.yul\":16751:16769   */\n      tag_492\n      tag_481\n      jump\t// in\n    tag_492:\n        /* \"#utility.yul\":16640:16771   */\n    tag_491:\n        /* \"#utility.yul\":16799:16800   */\n      dup3\n        /* \"#utility.yul\":16796:16797   */\n      dup3\n        /* \"#utility.yul\":16792:16801   */\n      mul\n        /* \"#utility.yul\":16781:16801   */\n      swap1\n      pop\n        /* \"#utility.yul\":16459:16807   */\n      swap3\n      swap2\n      pop\n      pop\n      jump\t// out\n        /* \"#utility.yul\":16813:17004   */\n    tag_196:\n        /* \"#utility.yul\":16853:16857   */\n      0x00\n        /* \"#utility.yul\":16873:16893   */\n      tag_494\n        /* \"#utility.yul\":16891:16892   */\n      dup3\n        /* \"#utility.yul\":16873:16893   */\n      tag_439\n      jump\t// in\n    tag_494:\n        /* \"#utility.yul\":16868:16893   */\n      swap2\n      pop\n        /* \"#utility.yul\":16907:16927   */\n      tag_495\n        /* \"#utility.yul\":16925:16926   */\n      dup4\n        /* \"#utility.yul\":16907:16927   */\n      tag_439\n      jump\t// in\n    tag_495:\n        /* \"#utility.yul\":16902:16927   */\n      swap3\n      pop\n        /* \"#utility.yul\":16946:16947   */\n      dup3\n        /* \"#utility.yul\":16943:16944   */\n      dup3\n        /* \"#utility.yul\":16940:16948   */\n      lt\n        /* \"#utility.yul\":16937:16971   */\n      iszero\n      tag_496\n      jumpi\n        /* \"#utility.yul\":16951:16969   */\n      tag_497\n      tag_481\n      jump\t// in\n    tag_497:\n        /* \"#utility.yul\":16937:16971   */\n    tag_496:\n        /* \"#utility.yul\":16996:16997   */\n      dup3\n        /* \"#utility.yul\":16993:16994   */\n      dup3\n        /* \"#utility.yul\":16989:16998   */\n      sub\n        /* \"#utility.yul\":16981:16998   */\n      swap1\n      pop\n        /* \"#utility.yul\":16813:17004   */\n      swap3\n      swap2\n      pop\n      pop\n      jump\t// out\n        /* \"#utility.yul\":17010:17106   */\n    tag_376:\n        /* \"#utility.yul\":17047:17054   */\n      0x00\n        /* \"#utility.yul\":17076:17100   */\n      tag_499\n        /* \"#utility.yul\":17094:17099   */\n      dup3\n        /* \"#utility.yul\":17076:17100   */\n      tag_500\n      jump\t// in\n    tag_499:\n        /* \"#utility.yul\":17065:17100   */\n      swap1\n      pop\n        /* \"#utility.yul\":17010:17106   */\n      swap2\n      swap1\n      pop\n      jump\t// out\n        /* \"#utility.yul\":17112:17216   */\n    tag_372:\n        /* \"#utility.yul\":17157:17164   */\n      0x00\n        /* \"#utility.yul\":17186:17210   */\n      tag_502\n        /* \"#utility.yul\":17204:17209   */\n      dup3\n        /* \"#utility.yul\":17186:17210   */\n      tag_500\n      jump\t// in\n    tag_502:\n        /* \"#utility.yul\":17175:17210   */\n      swap1\n      pop\n        /* \"#utility.yul\":17112:17216   */\n      swap2\n      swap1\n      pop\n      jump\t// out\n        /* \"#utility.yul\":17222:17312   */\n    tag_380:\n        /* \"#utility.yul\":17256:17263   */\n      0x00\n        /* \"#utility.yul\":17299:17304   */\n      dup2\n        /* \"#utility.yul\":17292:17305   */\n      iszero\n        /* \"#utility.yul\":17285:17306   */\n      iszero\n        /* \"#utility.yul\":17274:17306   */\n      swap1\n      pop\n        /* \"#utility.yul\":17222:17312   */\n      swap2\n      swap1\n      pop\n      jump\t// out\n        /* \"#utility.yul\":17318:17444   */\n    tag_500:\n        /* \"#utility.yul\":17355:17362   */\n      0x00\n        /* \"#utility.yul\":17395:17437   */\n      0xffffffffffffffffffffffffffffffffffffffff\n        /* \"#utility.yul\":17388:17393   */\n      dup3\n        /* \"#utility.yul\":17384:17438   */\n      and\n        /* \"#utility.yul\":17373:17438   */\n      swap1\n      pop\n        /* \"#utility.yul\":17318:17444   */\n      swap2\n      swap1\n      pop\n      jump\t// out\n        /* \"#utility.yul\":17450:17527   */\n    tag_439:\n        /* \"#utility.yul\":17487:17494   */\n      0x00\n        /* \"#utility.yul\":17516:17521   */\n      dup2\n        /* \"#utility.yul\":17505:17521   */\n      swap1\n      pop\n        /* \"#utility.yul\":17450:17527   */\n      swap2\n      swap1\n      pop\n      jump\t// out\n        /* \"#utility.yul\":17533:17667   */\n    tag_368:\n        /* \"#utility.yul\":17591:17600   */\n      0x00\n        /* \"#utility.yul\":17624:17661   */\n      tag_507\n        /* \"#utility.yul\":17655:17660   */\n      dup3\n        /* \"#utility.yul\":17624:17661   */\n      tag_508\n      jump\t// in\n    tag_507:\n        /* \"#utility.yul\":17611:17661   */\n      swap1\n      pop\n        /* \"#utility.yul\":17533:17667   */\n      swap2\n      swap1\n      pop\n      jump\t// out\n        /* \"#utility.yul\":17673:17812   */\n    tag_384:\n        /* \"#utility.yul\":17736:17745   */\n      0x00\n        /* \"#utility.yul\":17769:17806   */\n      tag_510\n        /* \"#utility.yul\":17800:17805   */\n      dup3\n        /* \"#utility.yul\":17769:17806   */\n      tag_508\n      jump\t// in\n    tag_510:\n        /* \"#utility.yul\":17756:17806   */\n      swap1\n      pop\n        /* \"#utility.yul\":17673:17812   */\n      swap2\n      swap1\n      pop\n      jump\t// out\n        /* \"#utility.yul\":17818:17944   */\n    tag_508:\n        /* \"#utility.yul\":17868:17877   */\n      0x00\n        /* \"#utility.yul\":17901:17938   */\n      tag_512\n        /* \"#utility.yul\":17932:17937   */\n      dup3\n        /* \"#utility.yul\":17901:17938   */\n      tag_513\n      jump\t// in\n    tag_512:\n        /* \"#utility.yul\":17888:17938   */\n      swap1\n      pop\n        /* \"#utility.yul\":17818:17944   */\n      swap2\n      swap1\n      pop\n      jump\t// out\n        /* \"#utility.yul\":17950:18063   */\n    tag_513:\n        /* \"#utility.yul\":18000:18009   */\n      0x00\n        /* \"#utility.yul\":18033:18057   */\n      tag_515\n        /* \"#utility.yul\":18051:18056   */\n      dup3\n        /* \"#utility.yul\":18033:18057   */\n      tag_500\n      jump\t// in\n    tag_515:\n        /* \"#utility.yul\":18020:18057   */\n      swap1\n      pop\n        /* \"#utility.yul\":17950:18063   */\n      swap2\n      swap1\n      pop\n      jump\t// out\n        /* \"#utility.yul\":18069:18249   */\n    tag_481:\n        /* \"#utility.yul\":18117:18194   */\n      0x4e487b7100000000000000000000000000000000000000000000000000000000\n        /* \"#utility.yul\":18114:18115   */\n      0x00\n        /* \"#utility.yul\":18107:18195   */\n      mstore\n        /* \"#utility.yul\":18214:18218   */\n      0x11\n        /* \"#utility.yul\":18211:18212   */\n      0x04\n        /* \"#utility.yul\":18204:18219   */\n      mstore\n        /* \"#utility.yul\":18238:18242   */\n      0x24\n        /* \"#utility.yul\":18235:18236   */\n      0x00\n        /* \"#utility.yul\":18228:18243   */\n      revert\n        /* \"#utility.yul\":18255:18435   */\n    tag_487:\n        /* \"#utility.yul\":18303:18380   */\n      0x4e487b7100000000000000000000000000000000000000000000000000000000\n        /* \"#utility.yul\":18300:18301   */\n      0x00\n        /* \"#utility.yul\":18293:18381   */\n      mstore\n        /* \"#utility.yul\":18400:18404   */\n      0x12\n        /* \"#utility.yul\":18397:18398   */\n      0x04\n        /* \"#utility.yul\":18390:18405   */\n      mstore\n        /* \"#utility.yul\":18424:18428   */\n      0x24\n        /* \"#utility.yul\":18421:18422   */\n      0x00\n        /* \"#utility.yul\":18414:18429   */\n      revert\n        /* \"#utility.yul\":18564:18681   */\n    tag_323:\n        /* \"#utility.yul\":18673:18674   */\n      0x00\n        /* \"#utility.yul\":18670:18671   */\n      dup1\n        /* \"#utility.yul\":18663:18675   */\n      revert\n        /* \"#utility.yul\":18687:18918   */\n    tag_390:\n        /* \"#utility.yul\":18827:18861   */\n      0x4f6e6c7920746865206f776e65722063616e2073657420746865207769746864\n        /* \"#utility.yul\":18823:18824   */\n      0x00\n        /* \"#utility.yul\":18815:18821   */\n      dup3\n        /* \"#utility.yul\":18811:18825   */\n      add\n        /* \"#utility.yul\":18804:18862   */\n      mstore\n        /* \"#utility.yul\":18896:18910   */\n      0x726177616c206c696d69742e0000000000000000000000000000000000000000\n        /* \"#utility.yul\":18891:18893   */\n      0x20\n        /* \"#utility.yul\":18883:18889   */\n      dup3\n        /* \"#utility.yul\":18879:18894   */\n      add\n        /* \"#utility.yul\":18872:18911   */\n      mstore\n        /* \"#utility.yul\":18687:18918   */\n      pop\n      jump\t// out\n        /* \"#utility.yul\":18924:19152   */\n    tag_395:\n        /* \"#utility.yul\":19064:19098   */\n      0x4163636f756e742069732066726f7a656e2c2063616e6e6f7420776974686472\n        /* \"#utility.yul\":19060:19061   */\n      0x00\n        /* \"#utility.yul\":19052:19058   */\n      dup3\n        /* \"#utility.yul\":19048:19062   */\n      add\n        /* \"#utility.yul\":19041:19099   */\n      mstore\n        /* \"#utility.yul\":19133:19144   */\n      0x61772066756e64732e0000000000000000000000000000000000000000000000\n        /* \"#utility.yul\":19128:19130   */\n      0x20\n        /* \"#utility.yul\":19120:19126   */\n      dup3\n        /* \"#utility.yul\":19116:19131   */\n      add\n        /* \"#utility.yul\":19109:19145   */\n      mstore\n        /* \"#utility.yul\":18924:19152   */\n      pop\n      jump\t// out\n        /* \"#utility.yul\":19158:19398   */\n    tag_400:\n        /* \"#utility.yul\":19298:19332   */\n      0x4f6e6c7920746865206f776e6572206f72207468652062656e65666963696172\n        /* \"#utility.yul\":19294:19295   */\n      0x00\n        /* \"#utility.yul\":19286:19292   */\n      dup3\n        /* \"#utility.yul\":19282:19296   */\n      add\n        /* \"#utility.yul\":19275:19333   */\n      mstore\n        /* \"#utility.yul\":19367:19390   */\n      0x792063616e2077697468647261772066756e64732e0000000000000000000000\n        /* \"#utility.yul\":19362:19364   */\n      0x20\n        /* \"#utility.yul\":19354:19360   */\n      dup3\n        /* \"#utility.yul\":19350:19365   */\n      add\n        /* \"#utility.yul\":19343:19391   */\n      mstore\n        /* \"#utility.yul\":19158:19398   */\n      pop\n      jump\t// out\n        /* \"#utility.yul\":19404:19628   */\n    tag_405:\n        /* \"#utility.yul\":19544:19578   */\n      0x5468652066756e6374696f6e20697320616c726561647920696e206578656375\n        /* \"#utility.yul\":19540:19541   */\n      0x00\n        /* \"#utility.yul\":19532:19538   */\n      dup3\n        /* \"#utility.yul\":19528:19542   */\n      add\n        /* \"#utility.yul\":19521:19579   */\n      mstore\n        /* \"#utility.yul\":19613:19620   */\n      0x74696f6e2e000000000000000000000000000000000000000000000000000000\n        /* \"#utility.yul\":19608:19610   */\n      0x20\n        /* \"#utility.yul\":19600:19606   */\n      dup3\n        /* \"#utility.yul\":19596:19611   */\n      add\n        /* \"#utility.yul\":19589:19621   */\n      mstore\n        /* \"#utility.yul\":19404:19628   */\n      pop\n      jump\t// out\n        /* \"#utility.yul\":19634:19815   */\n    tag_410:\n        /* \"#utility.yul\":19774:19807   */\n      0x546865726520617265206e6f2066756e647320746f2077697468647261772e00\n        /* \"#utility.yul\":19770:19771   */\n      0x00\n        /* \"#utility.yul\":19762:19768   */\n      dup3\n        /* \"#utility.yul\":19758:19772   */\n      add\n        /* \"#utility.yul\":19751:19808   */\n      mstore\n        /* \"#utility.yul\":19634:19815   */\n      pop\n      jump\t// out\n        /* \"#utility.yul\":19821:20047   */\n    tag_415:\n        /* \"#utility.yul\":19961:19995   */\n      0x4f6e6c7920746865206f776e65722063616e20736574207468652062656e6566\n        /* \"#utility.yul\":19957:19958   */\n      0x00\n        /* \"#utility.yul\":19949:19955   */\n      dup3\n        /* \"#utility.yul\":19945:19959   */\n      add\n        /* \"#utility.yul\":19938:19996   */\n      mstore\n        /* \"#utility.yul\":20030:20039   */\n      0x6963696172792e00000000000000000000000000000000000000000000000000\n        /* \"#utility.yul\":20025:20027   */\n      0x20\n        /* \"#utility.yul\":20017:20023   */\n      dup3\n        /* \"#utility.yul\":20013:20028   */\n      add\n        /* \"#utility.yul\":20006:20040   */\n      mstore\n        /* \"#utility.yul\":19821:20047   */\n      pop\n      jump\t// out\n        /* \"#utility.yul\":20053:20345   */\n    tag_420:\n        /* \"#utility.yul\":20193:20227   */\n      0x546865207769746864726177616c20616d6f756e742065786365656473207468\n        /* \"#utility.yul\":20189:20190   */\n      0x00\n        /* \"#utility.yul\":20181:20187   */\n      dup3\n        /* \"#utility.yul\":20177:20191   */\n      add\n        /* \"#utility.yul\":20170:20228   */\n      mstore\n        /* \"#utility.yul\":20262:20296   */\n      0x65206c696d6974206f722064656c617920686173206e6f742070617373656420\n        /* \"#utility.yul\":20257:20259   */\n      0x20\n        /* \"#utility.yul\":20249:20255   */\n      dup3\n        /* \"#utility.yul\":20245:20260   */\n      add\n        /* \"#utility.yul\":20238:20297   */\n      mstore\n        /* \"#utility.yul\":20331:20337   */\n      0x7965742e00000000000000000000000000000000000000000000000000000000\n        /* \"#utility.yul\":20326:20328   */\n      0x40\n        /* \"#utility.yul\":20318:20324   */\n      dup3\n        /* \"#utility.yul\":20314:20329   */\n      add\n        /* \"#utility.yul\":20307:20338   */\n      mstore\n        /* \"#utility.yul\":20053:20345   */\n      pop\n      jump\t// out\n        /* \"#utility.yul\":20351:20576   */\n    tag_425:\n        /* \"#utility.yul\":20491:20525   */\n      0x4f6e6c7920746865206f776e65722063616e20667265657a6520746865206163\n        /* \"#utility.yul\":20487:20488   */\n      0x00\n        /* \"#utility.yul\":20479:20485   */\n      dup3\n        /* \"#utility.yul\":20475:20489   */\n      add\n        /* \"#utility.yul\":20468:20526   */\n      mstore\n        /* \"#utility.yul\":20560:20568   */\n      0x636f756e742e0000000000000000000000000000000000000000000000000000\n        /* \"#utility.yul\":20555:20557   */\n      0x20\n        /* \"#utility.yul\":20547:20553   */\n      dup3\n        /* \"#utility.yul\":20543:20558   */\n      add\n        /* \"#utility.yul\":20536:20569   */\n      mstore\n        /* \"#utility.yul\":20351:20576   */\n      pop\n      jump\t// out\n        /* \"#utility.yul\":20582:20809   */\n    tag_430:\n        /* \"#utility.yul\":20722:20756   */\n      0x4f6e6c7920746865206f776e65722063616e20756e667265657a652074686520\n        /* \"#utility.yul\":20718:20719   */\n      0x00\n        /* \"#utility.yul\":20710:20716   */\n      dup3\n        /* \"#utility.yul\":20706:20720   */\n      add\n        /* \"#utility.yul\":20699:20757   */\n      mstore\n        /* \"#utility.yul\":20791:20801   */\n      0x6163636f756e742e000000000000000000000000000000000000000000000000\n        /* \"#utility.yul\":20786:20788   */\n      0x20\n        /* \"#utility.yul\":20778:20784   */\n      dup3\n        /* \"#utility.yul\":20774:20789   */\n      add\n        /* \"#utility.yul\":20767:20802   */\n      mstore\n        /* \"#utility.yul\":20582:20809   */\n      pop\n      jump\t// out\n        /* \"#utility.yul\":20815:20984   */\n    tag_435:\n        /* \"#utility.yul\":20955:20976   */\n      0x496e73756666696369656e742066756e64732e00000000000000000000000000\n        /* \"#utility.yul\":20951:20952   */\n      0x00\n        /* \"#utility.yul\":20943:20949   */\n      dup3\n        /* \"#utility.yul\":20939:20953   */\n      add\n        /* \"#utility.yul\":20932:20977   */\n      mstore\n        /* \"#utility.yul\":20815:20984   */\n      pop\n      jump\t// out\n        /* \"#utility.yul\":20990:21112   */\n    tag_301:\n        /* \"#utility.yul\":21063:21087   */\n      tag_532\n        /* \"#utility.yul\":21081:21086   */\n      dup2\n        /* \"#utility.yul\":21063:21087   */\n      tag_376\n      jump\t// in\n    tag_532:\n        /* \"#utility.yul\":21056:21061   */\n      dup2\n        /* \"#utility.yul\":21053:21088   */\n      eq\n        /* \"#utility.yul\":21043:21106   */\n      tag_533\n      jumpi\n        /* \"#utility.yul\":21102:21103   */\n      0x00\n        /* \"#utility.yul\":21099:21100   */\n      dup1\n        /* \"#utility.yul\":21092:21104   */\n      revert\n        /* \"#utility.yul\":21043:21106   */\n    tag_533:\n        /* \"#utility.yul\":20990:21112   */\n      pop\n      jump\t// out\n        /* \"#utility.yul\":21118:21256   */\n    tag_305:\n        /* \"#utility.yul\":21199:21231   */\n      tag_535\n        /* \"#utility.yul\":21225:21230   */\n      dup2\n        /* \"#utility.yul\":21199:21231   */\n      tag_372\n      jump\t// in\n    tag_535:\n        /* \"#utility.yul\":21192:21197   */\n      dup2\n        /* \"#utility.yul\":21189:21232   */\n      eq\n        /* \"#utility.yul\":21179:21250   */\n      tag_536\n      jumpi\n        /* \"#utility.yul\":21246:21247   */\n      0x00\n        /* \"#utility.yul\":21243:21244   */\n      dup1\n        /* \"#utility.yul\":21236:21248   */\n      revert\n        /* \"#utility.yul\":21179:21250   */\n    tag_536:\n        /* \"#utility.yul\":21118:21256   */\n      pop\n      jump\t// out\n        /* \"#utility.yul\":21262:21378   */\n    tag_309:\n        /* \"#utility.yul\":21332:21353   */\n      tag_538\n        /* \"#utility.yul\":21347:21352   */\n      dup2\n        /* \"#utility.yul\":21332:21353   */\n      tag_380\n      jump\t// in\n    tag_538:\n        /* \"#utility.yul\":21325:21330   */\n      dup2\n        /* \"#utility.yul\":21322:21354   */\n      eq\n        /* \"#utility.yul\":21312:21372   */\n      tag_539\n      jumpi\n        /* \"#utility.yul\":21368:21369   */\n      0x00\n        /* \"#utility.yul\":21365:21366   */\n      dup1\n        /* \"#utility.yul\":21358:21370   */\n      revert\n        /* \"#utility.yul\":21312:21372   */\n    tag_539:\n        /* \"#utility.yul\":21262:21378   */\n      pop\n      jump\t// out\n        /* \"#utility.yul\":21384:21506   */\n    tag_316:\n        /* \"#utility.yul\":21457:21481   */\n      tag_541\n        /* \"#utility.yul\":21475:21480   */\n      dup2\n        /* \"#utility.yul\":21457:21481   */\n      tag_439\n      jump\t// in\n    tag_541:\n        /* \"#utility.yul\":21450:21455   */\n      dup2\n        /* \"#utility.yul\":21447:21482   */\n      eq\n        /* \"#utility.yul\":21437:21500   */\n      tag_542\n      jumpi\n        /* \"#utility.yul\":21496:21497   */\n      0x00\n        /* \"#utility.yul\":21493:21494   */\n      dup1\n        /* \"#utility.yul\":21486:21498   */\n      revert\n        /* \"#utility.yul\":21437:21500   */\n    tag_542:\n        /* \"#utility.yul\":21384:21506   */\n      pop\n      jump\t// out\n\n    auxdata: 0xa2646970667358221220bcbefd621f9b0f791e5eb5e9c3b2ccf5b5b3f951b5c5a6a737aec9cb8558d51564736f6c63430008070033\n}\n",
				"bytecode": {
					"linkReferences": {},
					"object": "60806040526000600860146101000a81548160ff0219169083151502179055506000600a60006101000a81548160ff0219169083151502179055503480156200004757600080fd5b5060405162002b9638038062002b9683398181016040528101906200006d91906200012c565b826000806101000a81548173ffffffffffffffffffffffffffffffffffffffff021916908373ffffffffffffffffffffffffffffffffffffffff1602179055508060058190555081600660006101000a81548173ffffffffffffffffffffffffffffffffffffffff021916908373ffffffffffffffffffffffffffffffffffffffff160217905550505050620001ff565b6000815190506200010f81620001cb565b92915050565b6000815190506200012681620001e5565b92915050565b600080600060608486031215620001485762000147620001c6565b5b60006200015886828701620000fe565b93505060206200016b86828701620000fe565b92505060406200017e8682870162000115565b9150509250925092565b600062000195826200019c565b9050919050565b600073ffffffffffffffffffffffffffffffffffffffff82169050919050565b6000819050919050565b600080fd5b620001d68162000188565b8114620001e257600080fd5b50565b620001f081620001bc565b8114620001fc57600080fd5b50565b612987806200020f6000396000f3fe6080604052600436106101445760003560e01c80637a80760e116100b6578063c6a622901161006f578063c6a6229014610488578063cc4aa204146104b3578063d4fb7e2d146104de578063d86e05751461051b578063f5c91a0b14610537578063fce33f0114610562576101b0565b80637a80760e146103885780638d1fdf2f146103b35780638da5cb5b146103dc57806394a927fe146104075780639e1a4d1914610432578063a57207701461045d576101b0565b8063342ac61511610108578063342ac6151461029957806338af3eed146102c257806345c8b1a6146102ed5780634bfffc86146103165780636a42b8f8146103415780636c8d5ada1461036c576101b0565b8063054f7d9c146101b25780630a84aac5146101dd5780631903b4311461020657806323658af41461024357806328af53fa1461026e576101b0565b366101b0573373ffffffffffffffffffffffffffffffffffffffff163073ffffffffffffffffffffffffffffffffffffffff167f5548c837ab068cf56a2c2479df0882a4922fd203edb7517321831d95078c5f62346040516101a691906123bf565b60405180910390a3005b005b3480156101be57600080fd5b506101c761059f565b6040516101d49190612249565b60405180910390f35b3480156101e957600080fd5b5061020460048036038101906101ff9190611e10565b6105b2565b005b34801561021257600080fd5b5061022d60048036038101906102289190611ee3565b61071a565b60405161023a91906123bf565b60405180910390f35b34801561024f57600080fd5b506102586107bc565b60405161026591906121ea565b60405180910390f35b34801561027a57600080fd5b506102836107e6565b60405161029091906123bf565b60405180910390f35b3480156102a557600080fd5b506102c060048036038101906102bb9190611e63565b6107ec565b005b3480156102ce57600080fd5b506102d76108c3565b6040516102e49190612205565b60405180910390f35b3480156102f957600080fd5b50610314600480360381019061030f9190611de3565b6108e9565b005b34801561032257600080fd5b5061032b610995565b60405161033891906123bf565b60405180910390f35b34801561034d57600080fd5b5061035661099f565b60405161036391906123bf565b60405180910390f35b61038660048036038101906103819190611f23565b6109a5565b005b34801561039457600080fd5b5061039d6111c3565b6040516103aa9190612205565b60405180910390f35b3480156103bf57600080fd5b506103da60048036038101906103d59190611de3565b6111e9565b005b3480156103e857600080fd5b506103f1611295565b6040516103fe9190612205565b60405180910390f35b34801561041357600080fd5b5061041c6112b9565b60405161042991906121ea565b60405180910390f35b34801561043e57600080fd5b506104476112e2565b60405161045491906123bf565b60405180910390f35b34801561046957600080fd5b506104726112e8565b60405161047f9190612249565b60405180910390f35b34801561049457600080fd5b5061049d6112fb565b6040516104aa91906123bf565b60405180910390f35b3480156104bf57600080fd5b506104c8611305565b6040516104d59190612264565b60405180910390f35b3480156104ea57600080fd5b5061050560048036038101906105009190611de3565b61132b565b60405161051291906123bf565b60405180910390f35b61053560048036038101906105309190611f9e565b611374565b005b34801561054357600080fd5b5061054c611d01565b60405161055991906123bf565b60405180910390f35b34801561056e57600080fd5b5061058960048036038101906105849190611de3565b611d0b565b60405161059691906123bf565b60405180910390f35b600a60009054906101000a900460ff1681565b8073ffffffffffffffffffffffffffffffffffffffff1660008054906101000a900473ffffffffffffffffffffffffffffffffffffffff1673ffffffffffffffffffffffffffffffffffffffff1614610640576040517f08c379a00000000000000000000000000000000000000000000000000000000081526004016106379061231f565b60405180910390fd5b600860149054906101000a900460ff1615610690576040517f08c379a0000000000000000000000000000000000000000000000000000000008152600401610687906122df565b60405180910390fd5b6001600860146101000a81548160ff02191690831515021790555082600160006101000a81548173ffffffffffffffffffffffffffffffffffffffff021916908373ffffffffffffffffffffffffffffffffffffffff160217905550816003819055506000600860146101000a81548160ff02191690831515021790555042600281905550505050565b6000821561072a574790506107b6565b8173ffffffffffffffffffffffffffffffffffffffff166370a08231306040518263ffffffff1660e01b815260040161076391906121ea565b60206040518083038186803b15801561077b57600080fd5b505afa15801561078f573d6000803e3d6000fd5b505050506040513d601f19601f820116820180604052508101906107b39190612005565b90505b92915050565b6000600160009054906101000a900473ffffffffffffffffffffffffffffffffffffffff16905090565b60025481565b60008054906101000a900473ffffffffffffffffffffffffffffffffffffffff1673ffffffffffffffffffffffffffffffffffffffff168373ffffffffffffffffffffffffffffffffffffffff161461087a576040517f08c379a00000000000000000000000000000000000000000000000000000000081526004016108719061227f565b60405180910390fd5b81600b60008373ffffffffffffffffffffffffffffffffffffffff1673ffffffffffffffffffffffffffffffffffffffff16815260200190815260200160002081905550505050565b600160009054906101000a900473ffffffffffffffffffffffffffffffffffffffff1681565b60008054906101000a900473ffffffffffffffffffffffffffffffffffffffff1673ffffffffffffffffffffffffffffffffffffffff168173ffffffffffffffffffffffffffffffffffffffff1614610977576040517f08c379a000000000000000000000000000000000000000000000000000000000815260040161096e9061237f565b60405180910390fd5b6000600a60006101000a81548160ff02191690831515021790555050565b6000600254905090565b60035481565b60008054906101000a900473ffffffffffffffffffffffffffffffffffffffff1673ffffffffffffffffffffffffffffffffffffffff168173ffffffffffffffffffffffffffffffffffffffff161480610a4c5750600160009054906101000a900473ffffffffffffffffffffffffffffffffffffffff1673ffffffffffffffffffffffffffffffffffffffff168173ffffffffffffffffffffffffffffffffffffffff16145b610a8b576040517f08c379a0000000000000000000000000000000000000000000000000000000008152600401610a82906122bf565b60405180910390fd5b600160009054906101000a900473ffffffffffffffffffffffffffffffffffffffff1673ffffffffffffffffffffffffffffffffffffffff168173ffffffffffffffffffffffffffffffffffffffff161415610b7d57600b60008373ffffffffffffffffffffffffffffffffffffffff1673ffffffffffffffffffffffffffffffffffffffff1681526020019081526020016000205483111580610b3d575042600354600254610b3b91906123eb565b105b610b7c576040517f08c379a0000000000000000000000000000000000000000000000000000000008152600401610b739061233f565b60405180910390fd5b5b600a60009054906101000a900460ff1615610bcd576040517f08c379a0000000000000000000000000000000000000000000000000000000008152600401610bc49061229f565b60405180910390fd5b8415610deb5747831115610c16576040517f08c379a0000000000000000000000000000000000000000000000000000000008152600401610c0d9061239f565b60405180910390fd5b600860149054906101000a900460ff1615610c66576040517f08c379a0000000000000000000000000000000000000000000000000000000008152600401610c5d906122df565b60405180910390fd5b6001600860146101000a81548160ff021916908315150217905550610ca96064610c9b60055486611d2390919063ffffffff16565b611d3990919063ffffffff16565b6004819055508373ffffffffffffffffffffffffffffffffffffffff166108fc610cde60045486611d4f90919063ffffffff16565b9081150290604051600060405180830381858888f19350505050158015610d09573d6000803e3d6000fd5b50600660009054906101000a900473ffffffffffffffffffffffffffffffffffffffff1673ffffffffffffffffffffffffffffffffffffffff166108fc6004549081150290604051600060405180830381858888f19350505050158015610d74573d6000803e3d6000fd5b5082600b60008473ffffffffffffffffffffffffffffffffffffffff1673ffffffffffffffffffffffffffffffffffffffff1681526020019081526020016000206000828254610dc491906124cc565b925050819055506000600860146101000a81548160ff0219169083151502179055506111bc565b81600860006101000a81548173ffffffffffffffffffffffffffffffffffffffff021916908373ffffffffffffffffffffffffffffffffffffffff160217905550600860009054906101000a900473ffffffffffffffffffffffffffffffffffffffff1673ffffffffffffffffffffffffffffffffffffffff166370a08231306040518263ffffffff1660e01b8152600401610e8791906121ea565b60206040518083038186803b158015610e9f57600080fd5b505afa158015610eb3573d6000803e3d6000fd5b505050506040513d601f19601f82011682018060405250810190610ed79190612005565b831115610f19576040517f08c379a0000000000000000000000000000000000000000000000000000000008152600401610f109061239f565b60405180910390fd5b600860149054906101000a900460ff1615610f69576040517f08c379a0000000000000000000000000000000000000000000000000000000008152600401610f60906122df565b60405180910390fd5b6001600860146101000a81548160ff021916908315150217905550610fac6064610f9e60055486611d2390919063ffffffff16565b611d3990919063ffffffff16565b600481905550600860009054906101000a900473ffffffffffffffffffffffffffffffffffffffff1673ffffffffffffffffffffffffffffffffffffffff1663a9059cbb8561100660045487611d4f90919063ffffffff16565b6040518363ffffffff1660e01b8152600401611023929190612220565b602060405180830381600087803b15801561103d57600080fd5b505af1158015611051573d6000803e3d6000fd5b505050506040513d601f19601f820116820180604052508101906110759190611eb6565b50600860009054906101000a900473ffffffffffffffffffffffffffffffffffffffff1673ffffffffffffffffffffffffffffffffffffffff1663a9059cbb600660009054906101000a900473ffffffffffffffffffffffffffffffffffffffff166004546040518363ffffffff1660e01b81526004016110f7929190612220565b602060405180830381600087803b15801561111157600080fd5b505af1158015611125573d6000803e3d6000fd5b505050506040513d601f19601f820116820180604052508101906111499190611eb6565b5082600b60008473ffffffffffffffffffffffffffffffffffffffff1673ffffffffffffffffffffffffffffffffffffffff168152602001908152602001600020600082825461119991906124cc565b925050819055506000600860146101000a81548160ff0219169083151502179055505b5050505050565b600760009054906101000a900473ffffffffffffffffffffffffffffffffffffffff1681565b60008054906101000a900473ffffffffffffffffffffffffffffffffffffffff1673ffffffffffffffffffffffffffffffffffffffff168173ffffffffffffffffffffffffffffffffffffffff1614611277576040517f08c379a000000000000000000000000000000000000000000000000000000000815260040161126e9061235f565b60405180910390fd5b6001600a60006101000a81548160ff02191690831515021790555050565b60008054906101000a900473ffffffffffffffffffffffffffffffffffffffff1681565b60008060009054906101000a900473ffffffffffffffffffffffffffffffffffffffff16905090565b60095481565b600860149054906101000a900460ff1681565b6000600354905090565b600860009054906101000a900473ffffffffffffffffffffffffffffffffffffffff1681565b6000600b60008373ffffffffffffffffffffffffffffffffffffffff1673ffffffffffffffffffffffffffffffffffffffff168152602001908152602001600020549050919050565b60008054906101000a900473ffffffffffffffffffffffffffffffffffffffff1673ffffffffffffffffffffffffffffffffffffffff168173ffffffffffffffffffffffffffffffffffffffff16148061141b5750600160009054906101000a900473ffffffffffffffffffffffffffffffffffffffff1673ffffffffffffffffffffffffffffffffffffffff168173ffffffffffffffffffffffffffffffffffffffff16145b61145a576040517f08c379a0000000000000000000000000000000000000000000000000000000008152600401611451906122bf565b60405180910390fd5b600160009054906101000a900473ffffffffffffffffffffffffffffffffffffffff1673ffffffffffffffffffffffffffffffffffffffff168173ffffffffffffffffffffffffffffffffffffffff16141561154c57600b60008373ffffffffffffffffffffffffffffffffffffffff1673ffffffffffffffffffffffffffffffffffffffff168152602001908152602001600020548311158061150c57504260035460025461150a91906123eb565b105b61154b576040517f08c379a00000000000000000000000000000000000000000000000000000000081526004016115429061233f565b60405180910390fd5b5b600a60009054906101000a900460ff161561159c576040517f08c379a00000000000000000000000000000000000000000000000000000000081526004016115939061229f565b60405180910390fd5b831561181d57600047116115e5576040517f08c379a00000000000000000000000000000000000000000000000000000000081526004016115dc906122ff565b60405180910390fd5b47831115611628576040517f08c379a000000000000000000000000000000000000000000000000000000000815260040161161f9061239f565b60405180910390fd5b600860149054906101000a900460ff1615611678576040517f08c379a000000000000000000000000000000000000000000000000000000000815260040161166f906122df565b60405180910390fd5b6001600860146101000a81548160ff0219169083151502179055506116bb60646116ad60055486611d2390919063ffffffff16565b611d3990919063ffffffff16565b60048190555060008054906101000a900473ffffffffffffffffffffffffffffffffffffffff1673ffffffffffffffffffffffffffffffffffffffff166108fc61171060045486611d4f90919063ffffffff16565b9081150290604051600060405180830381858888f1935050505015801561173b573d6000803e3d6000fd5b50600660009054906101000a900473ffffffffffffffffffffffffffffffffffffffff1673ffffffffffffffffffffffffffffffffffffffff166108fc6004549081150290604051600060405180830381858888f193505050501580156117a6573d6000803e3d6000fd5b5082600b60008473ffffffffffffffffffffffffffffffffffffffff1673ffffffffffffffffffffffffffffffffffffffff16815260200190815260200160002060008282546117f691906124cc565b925050819055506000600860146101000a81548160ff021916908315150217905550611cfb565b81600860006101000a81548173ffffffffffffffffffffffffffffffffffffffff021916908373ffffffffffffffffffffffffffffffffffffffff1602179055506000600860009054906101000a900473ffffffffffffffffffffffffffffffffffffffff1673ffffffffffffffffffffffffffffffffffffffff166370a08231306040518263ffffffff1660e01b81526004016118bb91906121ea565b60206040518083038186803b1580156118d357600080fd5b505afa1580156118e7573d6000803e3d6000fd5b505050506040513d601f19601f8201168201806040525081019061190b9190612005565b1161194b576040517f08c379a0000000000000000000000000000000000000000000000000000000008152600401611942906122ff565b60405180910390fd5b600860009054906101000a900473ffffffffffffffffffffffffffffffffffffffff1673ffffffffffffffffffffffffffffffffffffffff166370a08231306040518263ffffffff1660e01b81526004016119a691906121ea565b60206040518083038186803b1580156119be57600080fd5b505afa1580156119d2573d6000803e3d6000fd5b505050506040513d601f19601f820116820180604052508101906119f69190612005565b831115611a38576040517f08c379a0000000000000000000000000000000000000000000000000000000008152600401611a2f9061239f565b60405180910390fd5b600860149054906101000a900460ff1615611a88576040517f08c379a0000000000000000000000000000000000000000000000000000000008152600401611a7f906122df565b60405180910390fd5b6001600860146101000a81548160ff021916908315150217905550611acb6064611abd60055486611d2390919063ffffffff16565b611d3990919063ffffffff16565b600481905550600860009054906101000a900473ffffffffffffffffffffffffffffffffffffffff1673ffffffffffffffffffffffffffffffffffffffff1663a9059cbb60008054906101000a900473ffffffffffffffffffffffffffffffffffffffff16611b4560045487611d4f90919063ffffffff16565b6040518363ffffffff1660e01b8152600401611b62929190612220565b602060405180830381600087803b158015611b7c57600080fd5b505af1158015611b90573d6000803e3d6000fd5b505050506040513d601f19601f82011682018060405250810190611bb49190611eb6565b50600860009054906101000a900473ffffffffffffffffffffffffffffffffffffffff1673ffffffffffffffffffffffffffffffffffffffff1663a9059cbb600660009054906101000a900473ffffffffffffffffffffffffffffffffffffffff166004546040518363ffffffff1660e01b8152600401611c36929190612220565b602060405180830381600087803b158015611c5057600080fd5b505af1158015611c64573d6000803e3d6000fd5b505050506040513d601f19601f82011682018060405250810190611c889190611eb6565b5082600b60008473ffffffffffffffffffffffffffffffffffffffff1673ffffffffffffffffffffffffffffffffffffffff1681526020019081526020016000206000828254611cd891906124cc565b925050819055506000600860146101000a81548160ff0219169083151502179055505b50505050565b6000600554905090565b600b6020528060005260406000206000915090505481565b60008183611d319190612472565b905092915050565b60008183611d479190612441565b905092915050565b60008183611d5d91906124cc565b905092915050565b600081359050611d74816128f5565b92915050565b600081359050611d898161290c565b92915050565b600081359050611d9e81612923565b92915050565b600081519050611db381612923565b92915050565b600081359050611dc88161293a565b92915050565b600081519050611ddd8161293a565b92915050565b600060208284031215611df957611df8612600565b5b6000611e0784828501611d65565b91505092915050565b600080600060608486031215611e2957611e28612600565b5b6000611e3786828701611d7a565b9350506020611e4886828701611db9565b9250506040611e5986828701611d65565b9150509250925092565b600080600060608486031215611e7c57611e7b612600565b5b6000611e8a86828701611d65565b9350506020611e9b86828701611db9565b9250506040611eac86828701611d65565b9150509250925092565b600060208284031215611ecc57611ecb612600565b5b6000611eda84828501611da4565b91505092915050565b60008060408385031215611efa57611ef9612600565b5b6000611f0885828601611d8f565b9250506020611f1985828601611d65565b9150509250929050565b600080600080600060a08688031215611f3f57611f3e612600565b5b6000611f4d88828901611d8f565b9550506020611f5e88828901611d7a565b9450506040611f6f88828901611db9565b9350506060611f8088828901611d65565b9250506080611f9188828901611d65565b9150509295509295909350565b60008060008060808587031215611fb857611fb7612600565b5b6000611fc687828801611d8f565b9450506020611fd787828801611db9565b9350506040611fe887828801611d65565b9250506060611ff987828801611d65565b91505092959194509250565b60006020828403121561201b5761201a612600565b5b600061202984828501611dce565b91505092915050565b61203b8161255a565b82525050565b61204a81612512565b82525050565b61205981612500565b82525050565b61206881612524565b82525050565b6120778161256c565b82525050565b600061208a602c836123da565b915061209582612605565b604082019050919050565b60006120ad6029836123da565b91506120b882612654565b604082019050919050565b60006120d06035836123da565b91506120db826126a3565b604082019050919050565b60006120f36025836123da565b91506120fe826126f2565b604082019050919050565b6000612116601f836123da565b915061212182612741565b602082019050919050565b60006121396027836123da565b91506121448261276a565b604082019050919050565b600061215c6044836123da565b9150612167826127b9565b606082019050919050565b600061217f6026836123da565b915061218a8261282e565b604082019050919050565b60006121a26028836123da565b91506121ad8261287d565b604082019050919050565b60006121c56013836123da565b91506121d0826128cc565b602082019050919050565b6121e481612550565b82525050565b60006020820190506121ff6000830184612050565b92915050565b600060208201905061221a6000830184612041565b92915050565b60006040820190506122356000830185612032565b61224260208301846121db565b9392505050565b600060208201905061225e600083018461205f565b92915050565b6000602082019050612279600083018461206e565b92915050565b600060208201905081810360008301526122988161207d565b9050919050565b600060208201905081810360008301526122b8816120a0565b9050919050565b600060208201905081810360008301526122d8816120c3565b9050919050565b600060208201905081810360008301526122f8816120e6565b9050919050565b6000602082019050818103600083015261231881612109565b9050919050565b600060208201905081810360008301526123388161212c565b9050919050565b600060208201905081810360008301526123588161214f565b9050919050565b6000602082019050818103600083015261237881612172565b9050919050565b6000602082019050818103600083015261239881612195565b9050919050565b600060208201905081810360008301526123b8816121b8565b9050919050565b60006020820190506123d460008301846121db565b92915050565b600082825260208201905092915050565b60006123f682612550565b915061240183612550565b9250827fffffffffffffffffffffffffffffffffffffffffffffffffffffffffffffffff03821115612436576124356125a2565b5b828201905092915050565b600061244c82612550565b915061245783612550565b925082612467576124666125d1565b5b828204905092915050565b600061247d82612550565b915061248883612550565b9250817fffffffffffffffffffffffffffffffffffffffffffffffffffffffffffffffff04831182151516156124c1576124c06125a2565b5b828202905092915050565b60006124d782612550565b91506124e283612550565b9250828210156124f5576124f46125a2565b5b828203905092915050565b600061250b82612530565b9050919050565b600061251d82612530565b9050919050565b60008115159050919050565b600073ffffffffffffffffffffffffffffffffffffffff82169050919050565b6000819050919050565b60006125658261257e565b9050919050565b60006125778261257e565b9050919050565b600061258982612590565b9050919050565b600061259b82612530565b9050919050565b7f4e487b7100000000000000000000000000000000000000000000000000000000600052601160045260246000fd5b7f4e487b7100000000000000000000000000000000000000000000000000000000600052601260045260246000fd5b600080fd5b7f4f6e6c7920746865206f776e65722063616e207365742074686520776974686460008201527f726177616c206c696d69742e0000000000000000000000000000000000000000602082015250565b7f4163636f756e742069732066726f7a656e2c2063616e6e6f742077697468647260008201527f61772066756e64732e0000000000000000000000000000000000000000000000602082015250565b7f4f6e6c7920746865206f776e6572206f72207468652062656e6566696369617260008201527f792063616e2077697468647261772066756e64732e0000000000000000000000602082015250565b7f5468652066756e6374696f6e20697320616c726561647920696e20657865637560008201527f74696f6e2e000000000000000000000000000000000000000000000000000000602082015250565b7f546865726520617265206e6f2066756e647320746f2077697468647261772e00600082015250565b7f4f6e6c7920746865206f776e65722063616e20736574207468652062656e656660008201527f6963696172792e00000000000000000000000000000000000000000000000000602082015250565b7f546865207769746864726177616c20616d6f756e74206578636565647320746860008201527f65206c696d6974206f722064656c617920686173206e6f74207061737365642060208201527f7965742e00000000000000000000000000000000000000000000000000000000604082015250565b7f4f6e6c7920746865206f776e65722063616e20667265657a652074686520616360008201527f636f756e742e0000000000000000000000000000000000000000000000000000602082015250565b7f4f6e6c7920746865206f776e65722063616e20756e667265657a65207468652060008201527f6163636f756e742e000000000000000000000000000000000000000000000000602082015250565b7f496e73756666696369656e742066756e64732e00000000000000000000000000600082015250565b6128fe81612500565b811461290957600080fd5b50565b61291581612512565b811461292057600080fd5b50565b61292c81612524565b811461293757600080fd5b50565b61294381612550565b811461294e57600080fd5b5056fea2646970667358221220bcbefd621f9b0f791e5eb5e9c3b2ccf5b5b3f951b5c5a6a737aec9cb8558d51564736f6c63430008070033",
					"opcodes": "PUSH1 0x80 PUSH1 0x40 MSTORE PUSH1 0x0 PUSH1 0x8 PUSH1 0x14 PUSH2 0x100 EXP DUP2 SLOAD DUP2 PUSH1 0xFF MUL NOT AND SWAP1 DUP4 ISZERO ISZERO MUL OR SWAP1 SSTORE POP PUSH1 0x0 PUSH1 0xA PUSH1 0x0 PUSH2 0x100 EXP DUP2 SLOAD DUP2 PUSH1 0xFF MUL NOT AND SWAP1 DUP4 ISZERO ISZERO MUL OR SWAP1 SSTORE POP CALLVALUE DUP1 ISZERO PUSH3 0x47 JUMPI PUSH1 0x0 DUP1 REVERT JUMPDEST POP PUSH1 0x40 MLOAD PUSH3 0x2B96 CODESIZE SUB DUP1 PUSH3 0x2B96 DUP4 CODECOPY DUP2 DUP2 ADD PUSH1 0x40 MSTORE DUP2 ADD SWAP1 PUSH3 0x6D SWAP2 SWAP1 PUSH3 0x12C JUMP JUMPDEST DUP3 PUSH1 0x0 DUP1 PUSH2 0x100 EXP DUP2 SLOAD DUP2 PUSH20 0xFFFFFFFFFFFFFFFFFFFFFFFFFFFFFFFFFFFFFFFF MUL NOT AND SWAP1 DUP4 PUSH20 0xFFFFFFFFFFFFFFFFFFFFFFFFFFFFFFFFFFFFFFFF AND MUL OR SWAP1 SSTORE POP DUP1 PUSH1 0x5 DUP2 SWAP1 SSTORE POP DUP2 PUSH1 0x6 PUSH1 0x0 PUSH2 0x100 EXP DUP2 SLOAD DUP2 PUSH20 0xFFFFFFFFFFFFFFFFFFFFFFFFFFFFFFFFFFFFFFFF MUL NOT AND SWAP1 DUP4 PUSH20 0xFFFFFFFFFFFFFFFFFFFFFFFFFFFFFFFFFFFFFFFF AND MUL OR SWAP1 SSTORE POP POP POP POP PUSH3 0x1FF JUMP JUMPDEST PUSH1 0x0 DUP2 MLOAD SWAP1 POP PUSH3 0x10F DUP2 PUSH3 0x1CB JUMP JUMPDEST SWAP3 SWAP2 POP POP JUMP JUMPDEST PUSH1 0x0 DUP2 MLOAD SWAP1 POP PUSH3 0x126 DUP2 PUSH3 0x1E5 JUMP JUMPDEST SWAP3 SWAP2 POP POP JUMP JUMPDEST PUSH1 0x0 DUP1 PUSH1 0x0 PUSH1 0x60 DUP5 DUP7 SUB SLT ISZERO PUSH3 0x148 JUMPI PUSH3 0x147 PUSH3 0x1C6 JUMP JUMPDEST JUMPDEST PUSH1 0x0 PUSH3 0x158 DUP7 DUP3 DUP8 ADD PUSH3 0xFE JUMP JUMPDEST SWAP4 POP POP PUSH1 0x20 PUSH3 0x16B DUP7 DUP3 DUP8 ADD PUSH3 0xFE JUMP JUMPDEST SWAP3 POP POP PUSH1 0x40 PUSH3 0x17E DUP7 DUP3 DUP8 ADD PUSH3 0x115 JUMP JUMPDEST SWAP2 POP POP SWAP3 POP SWAP3 POP SWAP3 JUMP JUMPDEST PUSH1 0x0 PUSH3 0x195 DUP3 PUSH3 0x19C JUMP JUMPDEST SWAP1 POP SWAP2 SWAP1 POP JUMP JUMPDEST PUSH1 0x0 PUSH20 0xFFFFFFFFFFFFFFFFFFFFFFFFFFFFFFFFFFFFFFFF DUP3 AND SWAP1 POP SWAP2 SWAP1 POP JUMP JUMPDEST PUSH1 0x0 DUP2 SWAP1 POP SWAP2 SWAP1 POP JUMP JUMPDEST PUSH1 0x0 DUP1 REVERT JUMPDEST PUSH3 0x1D6 DUP2 PUSH3 0x188 JUMP JUMPDEST DUP2 EQ PUSH3 0x1E2 JUMPI PUSH1 0x0 DUP1 REVERT JUMPDEST POP JUMP JUMPDEST PUSH3 0x1F0 DUP2 PUSH3 0x1BC JUMP JUMPDEST DUP2 EQ PUSH3 0x1FC JUMPI PUSH1 0x0 DUP1 REVERT JUMPDEST POP JUMP JUMPDEST PUSH2 0x2987 DUP1 PUSH3 0x20F PUSH1 0x0 CODECOPY PUSH1 0x0 RETURN INVALID PUSH1 0x80 PUSH1 0x40 MSTORE PUSH1 0x4 CALLDATASIZE LT PUSH2 0x144 JUMPI PUSH1 0x0 CALLDATALOAD PUSH1 0xE0 SHR DUP1 PUSH4 0x7A80760E GT PUSH2 0xB6 JUMPI DUP1 PUSH4 0xC6A62290 GT PUSH2 0x6F JUMPI DUP1 PUSH4 0xC6A62290 EQ PUSH2 0x488 JUMPI DUP1 PUSH4 0xCC4AA204 EQ PUSH2 0x4B3 JUMPI DUP1 PUSH4 0xD4FB7E2D EQ PUSH2 0x4DE JUMPI DUP1 PUSH4 0xD86E0575 EQ PUSH2 0x51B JUMPI DUP1 PUSH4 0xF5C91A0B EQ PUSH2 0x537 JUMPI DUP1 PUSH4 0xFCE33F01 EQ PUSH2 0x562 JUMPI PUSH2 0x1B0 JUMP JUMPDEST DUP1 PUSH4 0x7A80760E EQ PUSH2 0x388 JUMPI DUP1 PUSH4 0x8D1FDF2F EQ PUSH2 0x3B3 JUMPI DUP1 PUSH4 0x8DA5CB5B EQ PUSH2 0x3DC JUMPI DUP1 PUSH4 0x94A927FE EQ PUSH2 0x407 JUMPI DUP1 PUSH4 0x9E1A4D19 EQ PUSH2 0x432 JUMPI DUP1 PUSH4 0xA5720770 EQ PUSH2 0x45D JUMPI PUSH2 0x1B0 JUMP JUMPDEST DUP1 PUSH4 0x342AC615 GT PUSH2 0x108 JUMPI DUP1 PUSH4 0x342AC615 EQ PUSH2 0x299 JUMPI DUP1 PUSH4 0x38AF3EED EQ PUSH2 0x2C2 JUMPI DUP1 PUSH4 0x45C8B1A6 EQ PUSH2 0x2ED JUMPI DUP1 PUSH4 0x4BFFFC86 EQ PUSH2 0x316 JUMPI DUP1 PUSH4 0x6A42B8F8 EQ PUSH2 0x341 JUMPI DUP1 PUSH4 0x6C8D5ADA EQ PUSH2 0x36C JUMPI PUSH2 0x1B0 JUMP JUMPDEST DUP1 PUSH4 0x54F7D9C EQ PUSH2 0x1B2 JUMPI DUP1 PUSH4 0xA84AAC5 EQ PUSH2 0x1DD JUMPI DUP1 PUSH4 0x1903B431 EQ PUSH2 0x206 JUMPI DUP1 PUSH4 0x23658AF4 EQ PUSH2 0x243 JUMPI DUP1 PUSH4 0x28AF53FA EQ PUSH2 0x26E JUMPI PUSH2 0x1B0 JUMP JUMPDEST CALLDATASIZE PUSH2 0x1B0 JUMPI CALLER PUSH20 0xFFFFFFFFFFFFFFFFFFFFFFFFFFFFFFFFFFFFFFFF AND ADDRESS PUSH20 0xFFFFFFFFFFFFFFFFFFFFFFFFFFFFFFFFFFFFFFFF AND PUSH32 0x5548C837AB068CF56A2C2479DF0882A4922FD203EDB7517321831D95078C5F62 CALLVALUE PUSH1 0x40 MLOAD PUSH2 0x1A6 SWAP2 SWAP1 PUSH2 0x23BF JUMP JUMPDEST PUSH1 0x40 MLOAD DUP1 SWAP2 SUB SWAP1 LOG3 STOP JUMPDEST STOP JUMPDEST CALLVALUE DUP1 ISZERO PUSH2 0x1BE JUMPI PUSH1 0x0 DUP1 REVERT JUMPDEST POP PUSH2 0x1C7 PUSH2 0x59F JUMP JUMPDEST PUSH1 0x40 MLOAD PUSH2 0x1D4 SWAP2 SWAP1 PUSH2 0x2249 JUMP JUMPDEST PUSH1 0x40 MLOAD DUP1 SWAP2 SUB SWAP1 RETURN JUMPDEST CALLVALUE DUP1 ISZERO PUSH2 0x1E9 JUMPI PUSH1 0x0 DUP1 REVERT JUMPDEST POP PUSH2 0x204 PUSH1 0x4 DUP1 CALLDATASIZE SUB DUP2 ADD SWAP1 PUSH2 0x1FF SWAP2 SWAP1 PUSH2 0x1E10 JUMP JUMPDEST PUSH2 0x5B2 JUMP JUMPDEST STOP JUMPDEST CALLVALUE DUP1 ISZERO PUSH2 0x212 JUMPI PUSH1 0x0 DUP1 REVERT JUMPDEST POP PUSH2 0x22D PUSH1 0x4 DUP1 CALLDATASIZE SUB DUP2 ADD SWAP1 PUSH2 0x228 SWAP2 SWAP1 PUSH2 0x1EE3 JUMP JUMPDEST PUSH2 0x71A JUMP JUMPDEST PUSH1 0x40 MLOAD PUSH2 0x23A SWAP2 SWAP1 PUSH2 0x23BF JUMP JUMPDEST PUSH1 0x40 MLOAD DUP1 SWAP2 SUB SWAP1 RETURN JUMPDEST CALLVALUE DUP1 ISZERO PUSH2 0x24F JUMPI PUSH1 0x0 DUP1 REVERT JUMPDEST POP PUSH2 0x258 PUSH2 0x7BC JUMP JUMPDEST PUSH1 0x40 MLOAD PUSH2 0x265 SWAP2 SWAP1 PUSH2 0x21EA JUMP JUMPDEST PUSH1 0x40 MLOAD DUP1 SWAP2 SUB SWAP1 RETURN JUMPDEST CALLVALUE DUP1 ISZERO PUSH2 0x27A JUMPI PUSH1 0x0 DUP1 REVERT JUMPDEST POP PUSH2 0x283 PUSH2 0x7E6 JUMP JUMPDEST PUSH1 0x40 MLOAD PUSH2 0x290 SWAP2 SWAP1 PUSH2 0x23BF JUMP JUMPDEST PUSH1 0x40 MLOAD DUP1 SWAP2 SUB SWAP1 RETURN JUMPDEST CALLVALUE DUP1 ISZERO PUSH2 0x2A5 JUMPI PUSH1 0x0 DUP1 REVERT JUMPDEST POP PUSH2 0x2C0 PUSH1 0x4 DUP1 CALLDATASIZE SUB DUP2 ADD SWAP1 PUSH2 0x2BB SWAP2 SWAP1 PUSH2 0x1E63 JUMP JUMPDEST PUSH2 0x7EC JUMP JUMPDEST STOP JUMPDEST CALLVALUE DUP1 ISZERO PUSH2 0x2CE JUMPI PUSH1 0x0 DUP1 REVERT JUMPDEST POP PUSH2 0x2D7 PUSH2 0x8C3 JUMP JUMPDEST PUSH1 0x40 MLOAD PUSH2 0x2E4 SWAP2 SWAP1 PUSH2 0x2205 JUMP JUMPDEST PUSH1 0x40 MLOAD DUP1 SWAP2 SUB SWAP1 RETURN JUMPDEST CALLVALUE DUP1 ISZERO PUSH2 0x2F9 JUMPI PUSH1 0x0 DUP1 REVERT JUMPDEST POP PUSH2 0x314 PUSH1 0x4 DUP1 CALLDATASIZE SUB DUP2 ADD SWAP1 PUSH2 0x30F SWAP2 SWAP1 PUSH2 0x1DE3 JUMP JUMPDEST PUSH2 0x8E9 JUMP JUMPDEST STOP JUMPDEST CALLVALUE DUP1 ISZERO PUSH2 0x322 JUMPI PUSH1 0x0 DUP1 REVERT JUMPDEST POP PUSH2 0x32B PUSH2 0x995 JUMP JUMPDEST PUSH1 0x40 MLOAD PUSH2 0x338 SWAP2 SWAP1 PUSH2 0x23BF JUMP JUMPDEST PUSH1 0x40 MLOAD DUP1 SWAP2 SUB SWAP1 RETURN JUMPDEST CALLVALUE DUP1 ISZERO PUSH2 0x34D JUMPI PUSH1 0x0 DUP1 REVERT JUMPDEST POP PUSH2 0x356 PUSH2 0x99F JUMP JUMPDEST PUSH1 0x40 MLOAD PUSH2 0x363 SWAP2 SWAP1 PUSH2 0x23BF JUMP JUMPDEST PUSH1 0x40 MLOAD DUP1 SWAP2 SUB SWAP1 RETURN JUMPDEST PUSH2 0x386 PUSH1 0x4 DUP1 CALLDATASIZE SUB DUP2 ADD SWAP1 PUSH2 0x381 SWAP2 SWAP1 PUSH2 0x1F23 JUMP JUMPDEST PUSH2 0x9A5 JUMP JUMPDEST STOP JUMPDEST CALLVALUE DUP1 ISZERO PUSH2 0x394 JUMPI PUSH1 0x0 DUP1 REVERT JUMPDEST POP PUSH2 0x39D PUSH2 0x11C3 JUMP JUMPDEST PUSH1 0x40 MLOAD PUSH2 0x3AA SWAP2 SWAP1 PUSH2 0x2205 JUMP JUMPDEST PUSH1 0x40 MLOAD DUP1 SWAP2 SUB SWAP1 RETURN JUMPDEST CALLVALUE DUP1 ISZERO PUSH2 0x3BF JUMPI PUSH1 0x0 DUP1 REVERT JUMPDEST POP PUSH2 0x3DA PUSH1 0x4 DUP1 CALLDATASIZE SUB DUP2 ADD SWAP1 PUSH2 0x3D5 SWAP2 SWAP1 PUSH2 0x1DE3 JUMP JUMPDEST PUSH2 0x11E9 JUMP JUMPDEST STOP JUMPDEST CALLVALUE DUP1 ISZERO PUSH2 0x3E8 JUMPI PUSH1 0x0 DUP1 REVERT JUMPDEST POP PUSH2 0x3F1 PUSH2 0x1295 JUMP JUMPDEST PUSH1 0x40 MLOAD PUSH2 0x3FE SWAP2 SWAP1 PUSH2 0x2205 JUMP JUMPDEST PUSH1 0x40 MLOAD DUP1 SWAP2 SUB SWAP1 RETURN JUMPDEST CALLVALUE DUP1 ISZERO PUSH2 0x413 JUMPI PUSH1 0x0 DUP1 REVERT JUMPDEST POP PUSH2 0x41C PUSH2 0x12B9 JUMP JUMPDEST PUSH1 0x40 MLOAD PUSH2 0x429 SWAP2 SWAP1 PUSH2 0x21EA JUMP JUMPDEST PUSH1 0x40 MLOAD DUP1 SWAP2 SUB SWAP1 RETURN JUMPDEST CALLVALUE DUP1 ISZERO PUSH2 0x43E JUMPI PUSH1 0x0 DUP1 REVERT JUMPDEST POP PUSH2 0x447 PUSH2 0x12E2 JUMP JUMPDEST PUSH1 0x40 MLOAD PUSH2 0x454 SWAP2 SWAP1 PUSH2 0x23BF JUMP JUMPDEST PUSH1 0x40 MLOAD DUP1 SWAP2 SUB SWAP1 RETURN JUMPDEST CALLVALUE DUP1 ISZERO PUSH2 0x469 JUMPI PUSH1 0x0 DUP1 REVERT JUMPDEST POP PUSH2 0x472 PUSH2 0x12E8 JUMP JUMPDEST PUSH1 0x40 MLOAD PUSH2 0x47F SWAP2 SWAP1 PUSH2 0x2249 JUMP JUMPDEST PUSH1 0x40 MLOAD DUP1 SWAP2 SUB SWAP1 RETURN JUMPDEST CALLVALUE DUP1 ISZERO PUSH2 0x494 JUMPI PUSH1 0x0 DUP1 REVERT JUMPDEST POP PUSH2 0x49D PUSH2 0x12FB JUMP JUMPDEST PUSH1 0x40 MLOAD PUSH2 0x4AA SWAP2 SWAP1 PUSH2 0x23BF JUMP JUMPDEST PUSH1 0x40 MLOAD DUP1 SWAP2 SUB SWAP1 RETURN JUMPDEST CALLVALUE DUP1 ISZERO PUSH2 0x4BF JUMPI PUSH1 0x0 DUP1 REVERT JUMPDEST POP PUSH2 0x4C8 PUSH2 0x1305 JUMP JUMPDEST PUSH1 0x40 MLOAD PUSH2 0x4D5 SWAP2 SWAP1 PUSH2 0x2264 JUMP JUMPDEST PUSH1 0x40 MLOAD DUP1 SWAP2 SUB SWAP1 RETURN JUMPDEST CALLVALUE DUP1 ISZERO PUSH2 0x4EA JUMPI PUSH1 0x0 DUP1 REVERT JUMPDEST POP PUSH2 0x505 PUSH1 0x4 DUP1 CALLDATASIZE SUB DUP2 ADD SWAP1 PUSH2 0x500 SWAP2 SWAP1 PUSH2 0x1DE3 JUMP JUMPDEST PUSH2 0x132B JUMP JUMPDEST PUSH1 0x40 MLOAD PUSH2 0x512 SWAP2 SWAP1 PUSH2 0x23BF JUMP JUMPDEST PUSH1 0x40 MLOAD DUP1 SWAP2 SUB SWAP1 RETURN JUMPDEST PUSH2 0x535 PUSH1 0x4 DUP1 CALLDATASIZE SUB DUP2 ADD SWAP1 PUSH2 0x530 SWAP2 SWAP1 PUSH2 0x1F9E JUMP JUMPDEST PUSH2 0x1374 JUMP JUMPDEST STOP JUMPDEST CALLVALUE DUP1 ISZERO PUSH2 0x543 JUMPI PUSH1 0x0 DUP1 REVERT JUMPDEST POP PUSH2 0x54C PUSH2 0x1D01 JUMP JUMPDEST PUSH1 0x40 MLOAD PUSH2 0x559 SWAP2 SWAP1 PUSH2 0x23BF JUMP JUMPDEST PUSH1 0x40 MLOAD DUP1 SWAP2 SUB SWAP1 RETURN JUMPDEST CALLVALUE DUP1 ISZERO PUSH2 0x56E JUMPI PUSH1 0x0 DUP1 REVERT JUMPDEST POP PUSH2 0x589 PUSH1 0x4 DUP1 CALLDATASIZE SUB DUP2 ADD SWAP1 PUSH2 0x584 SWAP2 SWAP1 PUSH2 0x1DE3 JUMP JUMPDEST PUSH2 0x1D0B JUMP JUMPDEST PUSH1 0x40 MLOAD PUSH2 0x596 SWAP2 SWAP1 PUSH2 0x23BF JUMP JUMPDEST PUSH1 0x40 MLOAD DUP1 SWAP2 SUB SWAP1 RETURN JUMPDEST PUSH1 0xA PUSH1 0x0 SWAP1 SLOAD SWAP1 PUSH2 0x100 EXP SWAP1 DIV PUSH1 0xFF AND DUP2 JUMP JUMPDEST DUP1 PUSH20 0xFFFFFFFFFFFFFFFFFFFFFFFFFFFFFFFFFFFFFFFF AND PUSH1 0x0 DUP1 SLOAD SWAP1 PUSH2 0x100 EXP SWAP1 DIV PUSH20 0xFFFFFFFFFFFFFFFFFFFFFFFFFFFFFFFFFFFFFFFF AND PUSH20 0xFFFFFFFFFFFFFFFFFFFFFFFFFFFFFFFFFFFFFFFF AND EQ PUSH2 0x640 JUMPI PUSH1 0x40 MLOAD PUSH32 0x8C379A000000000000000000000000000000000000000000000000000000000 DUP2 MSTORE PUSH1 0x4 ADD PUSH2 0x637 SWAP1 PUSH2 0x231F JUMP JUMPDEST PUSH1 0x40 MLOAD DUP1 SWAP2 SUB SWAP1 REVERT JUMPDEST PUSH1 0x8 PUSH1 0x14 SWAP1 SLOAD SWAP1 PUSH2 0x100 EXP SWAP1 DIV PUSH1 0xFF AND ISZERO PUSH2 0x690 JUMPI PUSH1 0x40 MLOAD PUSH32 0x8C379A000000000000000000000000000000000000000000000000000000000 DUP2 MSTORE PUSH1 0x4 ADD PUSH2 0x687 SWAP1 PUSH2 0x22DF JUMP JUMPDEST PUSH1 0x40 MLOAD DUP1 SWAP2 SUB SWAP1 REVERT JUMPDEST PUSH1 0x1 PUSH1 0x8 PUSH1 0x14 PUSH2 0x100 EXP DUP2 SLOAD DUP2 PUSH1 0xFF MUL NOT AND SWAP1 DUP4 ISZERO ISZERO MUL OR SWAP1 SSTORE POP DUP3 PUSH1 0x1 PUSH1 0x0 PUSH2 0x100 EXP DUP2 SLOAD DUP2 PUSH20 0xFFFFFFFFFFFFFFFFFFFFFFFFFFFFFFFFFFFFFFFF MUL NOT AND SWAP1 DUP4 PUSH20 0xFFFFFFFFFFFFFFFFFFFFFFFFFFFFFFFFFFFFFFFF AND MUL OR SWAP1 SSTORE POP DUP2 PUSH1 0x3 DUP2 SWAP1 SSTORE POP PUSH1 0x0 PUSH1 0x8 PUSH1 0x14 PUSH2 0x100 EXP DUP2 SLOAD DUP2 PUSH1 0xFF MUL NOT AND SWAP1 DUP4 ISZERO ISZERO MUL OR SWAP1 SSTORE POP TIMESTAMP PUSH1 0x2 DUP2 SWAP1 SSTORE POP POP POP POP JUMP JUMPDEST PUSH1 0x0 DUP3 ISZERO PUSH2 0x72A JUMPI SELFBALANCE SWAP1 POP PUSH2 0x7B6 JUMP JUMPDEST DUP2 PUSH20 0xFFFFFFFFFFFFFFFFFFFFFFFFFFFFFFFFFFFFFFFF AND PUSH4 0x70A08231 ADDRESS PUSH1 0x40 MLOAD DUP3 PUSH4 0xFFFFFFFF AND PUSH1 0xE0 SHL DUP2 MSTORE PUSH1 0x4 ADD PUSH2 0x763 SWAP2 SWAP1 PUSH2 0x21EA JUMP JUMPDEST PUSH1 0x20 PUSH1 0x40 MLOAD DUP1 DUP4 SUB DUP2 DUP7 DUP1 EXTCODESIZE ISZERO DUP1 ISZERO PUSH2 0x77B JUMPI PUSH1 0x0 DUP1 REVERT JUMPDEST POP GAS STATICCALL ISZERO DUP1 ISZERO PUSH2 0x78F JUMPI RETURNDATASIZE PUSH1 0x0 DUP1 RETURNDATACOPY RETURNDATASIZE PUSH1 0x0 REVERT JUMPDEST POP POP POP POP PUSH1 0x40 MLOAD RETURNDATASIZE PUSH1 0x1F NOT PUSH1 0x1F DUP3 ADD AND DUP3 ADD DUP1 PUSH1 0x40 MSTORE POP DUP2 ADD SWAP1 PUSH2 0x7B3 SWAP2 SWAP1 PUSH2 0x2005 JUMP JUMPDEST SWAP1 POP JUMPDEST SWAP3 SWAP2 POP POP JUMP JUMPDEST PUSH1 0x0 PUSH1 0x1 PUSH1 0x0 SWAP1 SLOAD SWAP1 PUSH2 0x100 EXP SWAP1 DIV PUSH20 0xFFFFFFFFFFFFFFFFFFFFFFFFFFFFFFFFFFFFFFFF AND SWAP1 POP SWAP1 JUMP JUMPDEST PUSH1 0x2 SLOAD DUP2 JUMP JUMPDEST PUSH1 0x0 DUP1 SLOAD SWAP1 PUSH2 0x100 EXP SWAP1 DIV PUSH20 0xFFFFFFFFFFFFFFFFFFFFFFFFFFFFFFFFFFFFFFFF AND PUSH20 0xFFFFFFFFFFFFFFFFFFFFFFFFFFFFFFFFFFFFFFFF AND DUP4 PUSH20 0xFFFFFFFFFFFFFFFFFFFFFFFFFFFFFFFFFFFFFFFF AND EQ PUSH2 0x87A JUMPI PUSH1 0x40 MLOAD PUSH32 0x8C379A000000000000000000000000000000000000000000000000000000000 DUP2 MSTORE PUSH1 0x4 ADD PUSH2 0x871 SWAP1 PUSH2 0x227F JUMP JUMPDEST PUSH1 0x40 MLOAD DUP1 SWAP2 SUB SWAP1 REVERT JUMPDEST DUP2 PUSH1 0xB PUSH1 0x0 DUP4 PUSH20 0xFFFFFFFFFFFFFFFFFFFFFFFFFFFFFFFFFFFFFFFF AND PUSH20 0xFFFFFFFFFFFFFFFFFFFFFFFFFFFFFFFFFFFFFFFF AND DUP2 MSTORE PUSH1 0x20 ADD SWAP1 DUP2 MSTORE PUSH1 0x20 ADD PUSH1 0x0 KECCAK256 DUP2 SWAP1 SSTORE POP POP POP POP JUMP JUMPDEST PUSH1 0x1 PUSH1 0x0 SWAP1 SLOAD SWAP1 PUSH2 0x100 EXP SWAP1 DIV PUSH20 0xFFFFFFFFFFFFFFFFFFFFFFFFFFFFFFFFFFFFFFFF AND DUP2 JUMP JUMPDEST PUSH1 0x0 DUP1 SLOAD SWAP1 PUSH2 0x100 EXP SWAP1 DIV PUSH20 0xFFFFFFFFFFFFFFFFFFFFFFFFFFFFFFFFFFFFFFFF AND PUSH20 0xFFFFFFFFFFFFFFFFFFFFFFFFFFFFFFFFFFFFFFFF AND DUP2 PUSH20 0xFFFFFFFFFFFFFFFFFFFFFFFFFFFFFFFFFFFFFFFF AND EQ PUSH2 0x977 JUMPI PUSH1 0x40 MLOAD PUSH32 0x8C379A000000000000000000000000000000000000000000000000000000000 DUP2 MSTORE PUSH1 0x4 ADD PUSH2 0x96E SWAP1 PUSH2 0x237F JUMP JUMPDEST PUSH1 0x40 MLOAD DUP1 SWAP2 SUB SWAP1 REVERT JUMPDEST PUSH1 0x0 PUSH1 0xA PUSH1 0x0 PUSH2 0x100 EXP DUP2 SLOAD DUP2 PUSH1 0xFF MUL NOT AND SWAP1 DUP4 ISZERO ISZERO MUL OR SWAP1 SSTORE POP POP JUMP JUMPDEST PUSH1 0x0 PUSH1 0x2 SLOAD SWAP1 POP SWAP1 JUMP JUMPDEST PUSH1 0x3 SLOAD DUP2 JUMP JUMPDEST PUSH1 0x0 DUP1 SLOAD SWAP1 PUSH2 0x100 EXP SWAP1 DIV PUSH20 0xFFFFFFFFFFFFFFFFFFFFFFFFFFFFFFFFFFFFFFFF AND PUSH20 0xFFFFFFFFFFFFFFFFFFFFFFFFFFFFFFFFFFFFFFFF AND DUP2 PUSH20 0xFFFFFFFFFFFFFFFFFFFFFFFFFFFFFFFFFFFFFFFF AND EQ DUP1 PUSH2 0xA4C JUMPI POP PUSH1 0x1 PUSH1 0x0 SWAP1 SLOAD SWAP1 PUSH2 0x100 EXP SWAP1 DIV PUSH20 0xFFFFFFFFFFFFFFFFFFFFFFFFFFFFFFFFFFFFFFFF AND PUSH20 0xFFFFFFFFFFFFFFFFFFFFFFFFFFFFFFFFFFFFFFFF AND DUP2 PUSH20 0xFFFFFFFFFFFFFFFFFFFFFFFFFFFFFFFFFFFFFFFF AND EQ JUMPDEST PUSH2 0xA8B JUMPI PUSH1 0x40 MLOAD PUSH32 0x8C379A000000000000000000000000000000000000000000000000000000000 DUP2 MSTORE PUSH1 0x4 ADD PUSH2 0xA82 SWAP1 PUSH2 0x22BF JUMP JUMPDEST PUSH1 0x40 MLOAD DUP1 SWAP2 SUB SWAP1 REVERT JUMPDEST PUSH1 0x1 PUSH1 0x0 SWAP1 SLOAD SWAP1 PUSH2 0x100 EXP SWAP1 DIV PUSH20 0xFFFFFFFFFFFFFFFFFFFFFFFFFFFFFFFFFFFFFFFF AND PUSH20 0xFFFFFFFFFFFFFFFFFFFFFFFFFFFFFFFFFFFFFFFF AND DUP2 PUSH20 0xFFFFFFFFFFFFFFFFFFFFFFFFFFFFFFFFFFFFFFFF AND EQ ISZERO PUSH2 0xB7D JUMPI PUSH1 0xB PUSH1 0x0 DUP4 PUSH20 0xFFFFFFFFFFFFFFFFFFFFFFFFFFFFFFFFFFFFFFFF AND PUSH20 0xFFFFFFFFFFFFFFFFFFFFFFFFFFFFFFFFFFFFFFFF AND DUP2 MSTORE PUSH1 0x20 ADD SWAP1 DUP2 MSTORE PUSH1 0x20 ADD PUSH1 0x0 KECCAK256 SLOAD DUP4 GT ISZERO DUP1 PUSH2 0xB3D JUMPI POP TIMESTAMP PUSH1 0x3 SLOAD PUSH1 0x2 SLOAD PUSH2 0xB3B SWAP2 SWAP1 PUSH2 0x23EB JUMP JUMPDEST LT JUMPDEST PUSH2 0xB7C JUMPI PUSH1 0x40 MLOAD PUSH32 0x8C379A000000000000000000000000000000000000000000000000000000000 DUP2 MSTORE PUSH1 0x4 ADD PUSH2 0xB73 SWAP1 PUSH2 0x233F JUMP JUMPDEST PUSH1 0x40 MLOAD DUP1 SWAP2 SUB SWAP1 REVERT JUMPDEST JUMPDEST PUSH1 0xA PUSH1 0x0 SWAP1 SLOAD SWAP1 PUSH2 0x100 EXP SWAP1 DIV PUSH1 0xFF AND ISZERO PUSH2 0xBCD JUMPI PUSH1 0x40 MLOAD PUSH32 0x8C379A000000000000000000000000000000000000000000000000000000000 DUP2 MSTORE PUSH1 0x4 ADD PUSH2 0xBC4 SWAP1 PUSH2 0x229F JUMP JUMPDEST PUSH1 0x40 MLOAD DUP1 SWAP2 SUB SWAP1 REVERT JUMPDEST DUP5 ISZERO PUSH2 0xDEB JUMPI SELFBALANCE DUP4 GT ISZERO PUSH2 0xC16 JUMPI PUSH1 0x40 MLOAD PUSH32 0x8C379A000000000000000000000000000000000000000000000000000000000 DUP2 MSTORE PUSH1 0x4 ADD PUSH2 0xC0D SWAP1 PUSH2 0x239F JUMP JUMPDEST PUSH1 0x40 MLOAD DUP1 SWAP2 SUB SWAP1 REVERT JUMPDEST PUSH1 0x8 PUSH1 0x14 SWAP1 SLOAD SWAP1 PUSH2 0x100 EXP SWAP1 DIV PUSH1 0xFF AND ISZERO PUSH2 0xC66 JUMPI PUSH1 0x40 MLOAD PUSH32 0x8C379A000000000000000000000000000000000000000000000000000000000 DUP2 MSTORE PUSH1 0x4 ADD PUSH2 0xC5D SWAP1 PUSH2 0x22DF JUMP JUMPDEST PUSH1 0x40 MLOAD DUP1 SWAP2 SUB SWAP1 REVERT JUMPDEST PUSH1 0x1 PUSH1 0x8 PUSH1 0x14 PUSH2 0x100 EXP DUP2 SLOAD DUP2 PUSH1 0xFF MUL NOT AND SWAP1 DUP4 ISZERO ISZERO MUL OR SWAP1 SSTORE POP PUSH2 0xCA9 PUSH1 0x64 PUSH2 0xC9B PUSH1 0x5 SLOAD DUP7 PUSH2 0x1D23 SWAP1 SWAP2 SWAP1 PUSH4 0xFFFFFFFF AND JUMP JUMPDEST PUSH2 0x1D39 SWAP1 SWAP2 SWAP1 PUSH4 0xFFFFFFFF AND JUMP JUMPDEST PUSH1 0x4 DUP2 SWAP1 SSTORE POP DUP4 PUSH20 0xFFFFFFFFFFFFFFFFFFFFFFFFFFFFFFFFFFFFFFFF AND PUSH2 0x8FC PUSH2 0xCDE PUSH1 0x4 SLOAD DUP7 PUSH2 0x1D4F SWAP1 SWAP2 SWAP1 PUSH4 0xFFFFFFFF AND JUMP JUMPDEST SWAP1 DUP2 ISZERO MUL SWAP1 PUSH1 0x40 MLOAD PUSH1 0x0 PUSH1 0x40 MLOAD DUP1 DUP4 SUB DUP2 DUP6 DUP9 DUP9 CALL SWAP4 POP POP POP POP ISZERO DUP1 ISZERO PUSH2 0xD09 JUMPI RETURNDATASIZE PUSH1 0x0 DUP1 RETURNDATACOPY RETURNDATASIZE PUSH1 0x0 REVERT JUMPDEST POP PUSH1 0x6 PUSH1 0x0 SWAP1 SLOAD SWAP1 PUSH2 0x100 EXP SWAP1 DIV PUSH20 0xFFFFFFFFFFFFFFFFFFFFFFFFFFFFFFFFFFFFFFFF AND PUSH20 0xFFFFFFFFFFFFFFFFFFFFFFFFFFFFFFFFFFFFFFFF AND PUSH2 0x8FC PUSH1 0x4 SLOAD SWAP1 DUP2 ISZERO MUL SWAP1 PUSH1 0x40 MLOAD PUSH1 0x0 PUSH1 0x40 MLOAD DUP1 DUP4 SUB DUP2 DUP6 DUP9 DUP9 CALL SWAP4 POP POP POP POP ISZERO DUP1 ISZERO PUSH2 0xD74 JUMPI RETURNDATASIZE PUSH1 0x0 DUP1 RETURNDATACOPY RETURNDATASIZE PUSH1 0x0 REVERT JUMPDEST POP DUP3 PUSH1 0xB PUSH1 0x0 DUP5 PUSH20 0xFFFFFFFFFFFFFFFFFFFFFFFFFFFFFFFFFFFFFFFF AND PUSH20 0xFFFFFFFFFFFFFFFFFFFFFFFFFFFFFFFFFFFFFFFF AND DUP2 MSTORE PUSH1 0x20 ADD SWAP1 DUP2 MSTORE PUSH1 0x20 ADD PUSH1 0x0 KECCAK256 PUSH1 0x0 DUP3 DUP3 SLOAD PUSH2 0xDC4 SWAP2 SWAP1 PUSH2 0x24CC JUMP JUMPDEST SWAP3 POP POP DUP2 SWAP1 SSTORE POP PUSH1 0x0 PUSH1 0x8 PUSH1 0x14 PUSH2 0x100 EXP DUP2 SLOAD DUP2 PUSH1 0xFF MUL NOT AND SWAP1 DUP4 ISZERO ISZERO MUL OR SWAP1 SSTORE POP PUSH2 0x11BC JUMP JUMPDEST DUP2 PUSH1 0x8 PUSH1 0x0 PUSH2 0x100 EXP DUP2 SLOAD DUP2 PUSH20 0xFFFFFFFFFFFFFFFFFFFFFFFFFFFFFFFFFFFFFFFF MUL NOT AND SWAP1 DUP4 PUSH20 0xFFFFFFFFFFFFFFFFFFFFFFFFFFFFFFFFFFFFFFFF AND MUL OR SWAP1 SSTORE POP PUSH1 0x8 PUSH1 0x0 SWAP1 SLOAD SWAP1 PUSH2 0x100 EXP SWAP1 DIV PUSH20 0xFFFFFFFFFFFFFFFFFFFFFFFFFFFFFFFFFFFFFFFF AND PUSH20 0xFFFFFFFFFFFFFFFFFFFFFFFFFFFFFFFFFFFFFFFF AND PUSH4 0x70A08231 ADDRESS PUSH1 0x40 MLOAD DUP3 PUSH4 0xFFFFFFFF AND PUSH1 0xE0 SHL DUP2 MSTORE PUSH1 0x4 ADD PUSH2 0xE87 SWAP2 SWAP1 PUSH2 0x21EA JUMP JUMPDEST PUSH1 0x20 PUSH1 0x40 MLOAD DUP1 DUP4 SUB DUP2 DUP7 DUP1 EXTCODESIZE ISZERO DUP1 ISZERO PUSH2 0xE9F JUMPI PUSH1 0x0 DUP1 REVERT JUMPDEST POP GAS STATICCALL ISZERO DUP1 ISZERO PUSH2 0xEB3 JUMPI RETURNDATASIZE PUSH1 0x0 DUP1 RETURNDATACOPY RETURNDATASIZE PUSH1 0x0 REVERT JUMPDEST POP POP POP POP PUSH1 0x40 MLOAD RETURNDATASIZE PUSH1 0x1F NOT PUSH1 0x1F DUP3 ADD AND DUP3 ADD DUP1 PUSH1 0x40 MSTORE POP DUP2 ADD SWAP1 PUSH2 0xED7 SWAP2 SWAP1 PUSH2 0x2005 JUMP JUMPDEST DUP4 GT ISZERO PUSH2 0xF19 JUMPI PUSH1 0x40 MLOAD PUSH32 0x8C379A000000000000000000000000000000000000000000000000000000000 DUP2 MSTORE PUSH1 0x4 ADD PUSH2 0xF10 SWAP1 PUSH2 0x239F JUMP JUMPDEST PUSH1 0x40 MLOAD DUP1 SWAP2 SUB SWAP1 REVERT JUMPDEST PUSH1 0x8 PUSH1 0x14 SWAP1 SLOAD SWAP1 PUSH2 0x100 EXP SWAP1 DIV PUSH1 0xFF AND ISZERO PUSH2 0xF69 JUMPI PUSH1 0x40 MLOAD PUSH32 0x8C379A000000000000000000000000000000000000000000000000000000000 DUP2 MSTORE PUSH1 0x4 ADD PUSH2 0xF60 SWAP1 PUSH2 0x22DF JUMP JUMPDEST PUSH1 0x40 MLOAD DUP1 SWAP2 SUB SWAP1 REVERT JUMPDEST PUSH1 0x1 PUSH1 0x8 PUSH1 0x14 PUSH2 0x100 EXP DUP2 SLOAD DUP2 PUSH1 0xFF MUL NOT AND SWAP1 DUP4 ISZERO ISZERO MUL OR SWAP1 SSTORE POP PUSH2 0xFAC PUSH1 0x64 PUSH2 0xF9E PUSH1 0x5 SLOAD DUP7 PUSH2 0x1D23 SWAP1 SWAP2 SWAP1 PUSH4 0xFFFFFFFF AND JUMP JUMPDEST PUSH2 0x1D39 SWAP1 SWAP2 SWAP1 PUSH4 0xFFFFFFFF AND JUMP JUMPDEST PUSH1 0x4 DUP2 SWAP1 SSTORE POP PUSH1 0x8 PUSH1 0x0 SWAP1 SLOAD SWAP1 PUSH2 0x100 EXP SWAP1 DIV PUSH20 0xFFFFFFFFFFFFFFFFFFFFFFFFFFFFFFFFFFFFFFFF AND PUSH20 0xFFFFFFFFFFFFFFFFFFFFFFFFFFFFFFFFFFFFFFFF AND PUSH4 0xA9059CBB DUP6 PUSH2 0x1006 PUSH1 0x4 SLOAD DUP8 PUSH2 0x1D4F SWAP1 SWAP2 SWAP1 PUSH4 0xFFFFFFFF AND JUMP JUMPDEST PUSH1 0x40 MLOAD DUP4 PUSH4 0xFFFFFFFF AND PUSH1 0xE0 SHL DUP2 MSTORE PUSH1 0x4 ADD PUSH2 0x1023 SWAP3 SWAP2 SWAP1 PUSH2 0x2220 JUMP JUMPDEST PUSH1 0x20 PUSH1 0x40 MLOAD DUP1 DUP4 SUB DUP2 PUSH1 0x0 DUP8 DUP1 EXTCODESIZE ISZERO DUP1 ISZERO PUSH2 0x103D JUMPI PUSH1 0x0 DUP1 REVERT JUMPDEST POP GAS CALL ISZERO DUP1 ISZERO PUSH2 0x1051 JUMPI RETURNDATASIZE PUSH1 0x0 DUP1 RETURNDATACOPY RETURNDATASIZE PUSH1 0x0 REVERT JUMPDEST POP POP POP POP PUSH1 0x40 MLOAD RETURNDATASIZE PUSH1 0x1F NOT PUSH1 0x1F DUP3 ADD AND DUP3 ADD DUP1 PUSH1 0x40 MSTORE POP DUP2 ADD SWAP1 PUSH2 0x1075 SWAP2 SWAP1 PUSH2 0x1EB6 JUMP JUMPDEST POP PUSH1 0x8 PUSH1 0x0 SWAP1 SLOAD SWAP1 PUSH2 0x100 EXP SWAP1 DIV PUSH20 0xFFFFFFFFFFFFFFFFFFFFFFFFFFFFFFFFFFFFFFFF AND PUSH20 0xFFFFFFFFFFFFFFFFFFFFFFFFFFFFFFFFFFFFFFFF AND PUSH4 0xA9059CBB PUSH1 0x6 PUSH1 0x0 SWAP1 SLOAD SWAP1 PUSH2 0x100 EXP SWAP1 DIV PUSH20 0xFFFFFFFFFFFFFFFFFFFFFFFFFFFFFFFFFFFFFFFF AND PUSH1 0x4 SLOAD PUSH1 0x40 MLOAD DUP4 PUSH4 0xFFFFFFFF AND PUSH1 0xE0 SHL DUP2 MSTORE PUSH1 0x4 ADD PUSH2 0x10F7 SWAP3 SWAP2 SWAP1 PUSH2 0x2220 JUMP JUMPDEST PUSH1 0x20 PUSH1 0x40 MLOAD DUP1 DUP4 SUB DUP2 PUSH1 0x0 DUP8 DUP1 EXTCODESIZE ISZERO DUP1 ISZERO PUSH2 0x1111 JUMPI PUSH1 0x0 DUP1 REVERT JUMPDEST POP GAS CALL ISZERO DUP1 ISZERO PUSH2 0x1125 JUMPI RETURNDATASIZE PUSH1 0x0 DUP1 RETURNDATACOPY RETURNDATASIZE PUSH1 0x0 REVERT JUMPDEST POP POP POP POP PUSH1 0x40 MLOAD RETURNDATASIZE PUSH1 0x1F NOT PUSH1 0x1F DUP3 ADD AND DUP3 ADD DUP1 PUSH1 0x40 MSTORE POP DUP2 ADD SWAP1 PUSH2 0x1149 SWAP2 SWAP1 PUSH2 0x1EB6 JUMP JUMPDEST POP DUP3 PUSH1 0xB PUSH1 0x0 DUP5 PUSH20 0xFFFFFFFFFFFFFFFFFFFFFFFFFFFFFFFFFFFFFFFF AND PUSH20 0xFFFFFFFFFFFFFFFFFFFFFFFFFFFFFFFFFFFFFFFF AND DUP2 MSTORE PUSH1 0x20 ADD SWAP1 DUP2 MSTORE PUSH1 0x20 ADD PUSH1 0x0 KECCAK256 PUSH1 0x0 DUP3 DUP3 SLOAD PUSH2 0x1199 SWAP2 SWAP1 PUSH2 0x24CC JUMP JUMPDEST SWAP3 POP POP DUP2 SWAP1 SSTORE POP PUSH1 0x0 PUSH1 0x8 PUSH1 0x14 PUSH2 0x100 EXP DUP2 SLOAD DUP2 PUSH1 0xFF MUL NOT AND SWAP1 DUP4 ISZERO ISZERO MUL OR SWAP1 SSTORE POP JUMPDEST POP POP POP POP POP JUMP JUMPDEST PUSH1 0x7 PUSH1 0x0 SWAP1 SLOAD SWAP1 PUSH2 0x100 EXP SWAP1 DIV PUSH20 0xFFFFFFFFFFFFFFFFFFFFFFFFFFFFFFFFFFFFFFFF AND DUP2 JUMP JUMPDEST PUSH1 0x0 DUP1 SLOAD SWAP1 PUSH2 0x100 EXP SWAP1 DIV PUSH20 0xFFFFFFFFFFFFFFFFFFFFFFFFFFFFFFFFFFFFFFFF AND PUSH20 0xFFFFFFFFFFFFFFFFFFFFFFFFFFFFFFFFFFFFFFFF AND DUP2 PUSH20 0xFFFFFFFFFFFFFFFFFFFFFFFFFFFFFFFFFFFFFFFF AND EQ PUSH2 0x1277 JUMPI PUSH1 0x40 MLOAD PUSH32 0x8C379A000000000000000000000000000000000000000000000000000000000 DUP2 MSTORE PUSH1 0x4 ADD PUSH2 0x126E SWAP1 PUSH2 0x235F JUMP JUMPDEST PUSH1 0x40 MLOAD DUP1 SWAP2 SUB SWAP1 REVERT JUMPDEST PUSH1 0x1 PUSH1 0xA PUSH1 0x0 PUSH2 0x100 EXP DUP2 SLOAD DUP2 PUSH1 0xFF MUL NOT AND SWAP1 DUP4 ISZERO ISZERO MUL OR SWAP1 SSTORE POP POP JUMP JUMPDEST PUSH1 0x0 DUP1 SLOAD SWAP1 PUSH2 0x100 EXP SWAP1 DIV PUSH20 0xFFFFFFFFFFFFFFFFFFFFFFFFFFFFFFFFFFFFFFFF AND DUP2 JUMP JUMPDEST PUSH1 0x0 DUP1 PUSH1 0x0 SWAP1 SLOAD SWAP1 PUSH2 0x100 EXP SWAP1 DIV PUSH20 0xFFFFFFFFFFFFFFFFFFFFFFFFFFFFFFFFFFFFFFFF AND SWAP1 POP SWAP1 JUMP JUMPDEST PUSH1 0x9 SLOAD DUP2 JUMP JUMPDEST PUSH1 0x8 PUSH1 0x14 SWAP1 SLOAD SWAP1 PUSH2 0x100 EXP SWAP1 DIV PUSH1 0xFF AND DUP2 JUMP JUMPDEST PUSH1 0x0 PUSH1 0x3 SLOAD SWAP1 POP SWAP1 JUMP JUMPDEST PUSH1 0x8 PUSH1 0x0 SWAP1 SLOAD SWAP1 PUSH2 0x100 EXP SWAP1 DIV PUSH20 0xFFFFFFFFFFFFFFFFFFFFFFFFFFFFFFFFFFFFFFFF AND DUP2 JUMP JUMPDEST PUSH1 0x0 PUSH1 0xB PUSH1 0x0 DUP4 PUSH20 0xFFFFFFFFFFFFFFFFFFFFFFFFFFFFFFFFFFFFFFFF AND PUSH20 0xFFFFFFFFFFFFFFFFFFFFFFFFFFFFFFFFFFFFFFFF AND DUP2 MSTORE PUSH1 0x20 ADD SWAP1 DUP2 MSTORE PUSH1 0x20 ADD PUSH1 0x0 KECCAK256 SLOAD SWAP1 POP SWAP2 SWAP1 POP JUMP JUMPDEST PUSH1 0x0 DUP1 SLOAD SWAP1 PUSH2 0x100 EXP SWAP1 DIV PUSH20 0xFFFFFFFFFFFFFFFFFFFFFFFFFFFFFFFFFFFFFFFF AND PUSH20 0xFFFFFFFFFFFFFFFFFFFFFFFFFFFFFFFFFFFFFFFF AND DUP2 PUSH20 0xFFFFFFFFFFFFFFFFFFFFFFFFFFFFFFFFFFFFFFFF AND EQ DUP1 PUSH2 0x141B JUMPI POP PUSH1 0x1 PUSH1 0x0 SWAP1 SLOAD SWAP1 PUSH2 0x100 EXP SWAP1 DIV PUSH20 0xFFFFFFFFFFFFFFFFFFFFFFFFFFFFFFFFFFFFFFFF AND PUSH20 0xFFFFFFFFFFFFFFFFFFFFFFFFFFFFFFFFFFFFFFFF AND DUP2 PUSH20 0xFFFFFFFFFFFFFFFFFFFFFFFFFFFFFFFFFFFFFFFF AND EQ JUMPDEST PUSH2 0x145A JUMPI PUSH1 0x40 MLOAD PUSH32 0x8C379A000000000000000000000000000000000000000000000000000000000 DUP2 MSTORE PUSH1 0x4 ADD PUSH2 0x1451 SWAP1 PUSH2 0x22BF JUMP JUMPDEST PUSH1 0x40 MLOAD DUP1 SWAP2 SUB SWAP1 REVERT JUMPDEST PUSH1 0x1 PUSH1 0x0 SWAP1 SLOAD SWAP1 PUSH2 0x100 EXP SWAP1 DIV PUSH20 0xFFFFFFFFFFFFFFFFFFFFFFFFFFFFFFFFFFFFFFFF AND PUSH20 0xFFFFFFFFFFFFFFFFFFFFFFFFFFFFFFFFFFFFFFFF AND DUP2 PUSH20 0xFFFFFFFFFFFFFFFFFFFFFFFFFFFFFFFFFFFFFFFF AND EQ ISZERO PUSH2 0x154C JUMPI PUSH1 0xB PUSH1 0x0 DUP4 PUSH20 0xFFFFFFFFFFFFFFFFFFFFFFFFFFFFFFFFFFFFFFFF AND PUSH20 0xFFFFFFFFFFFFFFFFFFFFFFFFFFFFFFFFFFFFFFFF AND DUP2 MSTORE PUSH1 0x20 ADD SWAP1 DUP2 MSTORE PUSH1 0x20 ADD PUSH1 0x0 KECCAK256 SLOAD DUP4 GT ISZERO DUP1 PUSH2 0x150C JUMPI POP TIMESTAMP PUSH1 0x3 SLOAD PUSH1 0x2 SLOAD PUSH2 0x150A SWAP2 SWAP1 PUSH2 0x23EB JUMP JUMPDEST LT JUMPDEST PUSH2 0x154B JUMPI PUSH1 0x40 MLOAD PUSH32 0x8C379A000000000000000000000000000000000000000000000000000000000 DUP2 MSTORE PUSH1 0x4 ADD PUSH2 0x1542 SWAP1 PUSH2 0x233F JUMP JUMPDEST PUSH1 0x40 MLOAD DUP1 SWAP2 SUB SWAP1 REVERT JUMPDEST JUMPDEST PUSH1 0xA PUSH1 0x0 SWAP1 SLOAD SWAP1 PUSH2 0x100 EXP SWAP1 DIV PUSH1 0xFF AND ISZERO PUSH2 0x159C JUMPI PUSH1 0x40 MLOAD PUSH32 0x8C379A000000000000000000000000000000000000000000000000000000000 DUP2 MSTORE PUSH1 0x4 ADD PUSH2 0x1593 SWAP1 PUSH2 0x229F JUMP JUMPDEST PUSH1 0x40 MLOAD DUP1 SWAP2 SUB SWAP1 REVERT JUMPDEST DUP4 ISZERO PUSH2 0x181D JUMPI PUSH1 0x0 SELFBALANCE GT PUSH2 0x15E5 JUMPI PUSH1 0x40 MLOAD PUSH32 0x8C379A000000000000000000000000000000000000000000000000000000000 DUP2 MSTORE PUSH1 0x4 ADD PUSH2 0x15DC SWAP1 PUSH2 0x22FF JUMP JUMPDEST PUSH1 0x40 MLOAD DUP1 SWAP2 SUB SWAP1 REVERT JUMPDEST SELFBALANCE DUP4 GT ISZERO PUSH2 0x1628 JUMPI PUSH1 0x40 MLOAD PUSH32 0x8C379A000000000000000000000000000000000000000000000000000000000 DUP2 MSTORE PUSH1 0x4 ADD PUSH2 0x161F SWAP1 PUSH2 0x239F JUMP JUMPDEST PUSH1 0x40 MLOAD DUP1 SWAP2 SUB SWAP1 REVERT JUMPDEST PUSH1 0x8 PUSH1 0x14 SWAP1 SLOAD SWAP1 PUSH2 0x100 EXP SWAP1 DIV PUSH1 0xFF AND ISZERO PUSH2 0x1678 JUMPI PUSH1 0x40 MLOAD PUSH32 0x8C379A000000000000000000000000000000000000000000000000000000000 DUP2 MSTORE PUSH1 0x4 ADD PUSH2 0x166F SWAP1 PUSH2 0x22DF JUMP JUMPDEST PUSH1 0x40 MLOAD DUP1 SWAP2 SUB SWAP1 REVERT JUMPDEST PUSH1 0x1 PUSH1 0x8 PUSH1 0x14 PUSH2 0x100 EXP DUP2 SLOAD DUP2 PUSH1 0xFF MUL NOT AND SWAP1 DUP4 ISZERO ISZERO MUL OR SWAP1 SSTORE POP PUSH2 0x16BB PUSH1 0x64 PUSH2 0x16AD PUSH1 0x5 SLOAD DUP7 PUSH2 0x1D23 SWAP1 SWAP2 SWAP1 PUSH4 0xFFFFFFFF AND JUMP JUMPDEST PUSH2 0x1D39 SWAP1 SWAP2 SWAP1 PUSH4 0xFFFFFFFF AND JUMP JUMPDEST PUSH1 0x4 DUP2 SWAP1 SSTORE POP PUSH1 0x0 DUP1 SLOAD SWAP1 PUSH2 0x100 EXP SWAP1 DIV PUSH20 0xFFFFFFFFFFFFFFFFFFFFFFFFFFFFFFFFFFFFFFFF AND PUSH20 0xFFFFFFFFFFFFFFFFFFFFFFFFFFFFFFFFFFFFFFFF AND PUSH2 0x8FC PUSH2 0x1710 PUSH1 0x4 SLOAD DUP7 PUSH2 0x1D4F SWAP1 SWAP2 SWAP1 PUSH4 0xFFFFFFFF AND JUMP JUMPDEST SWAP1 DUP2 ISZERO MUL SWAP1 PUSH1 0x40 MLOAD PUSH1 0x0 PUSH1 0x40 MLOAD DUP1 DUP4 SUB DUP2 DUP6 DUP9 DUP9 CALL SWAP4 POP POP POP POP ISZERO DUP1 ISZERO PUSH2 0x173B JUMPI RETURNDATASIZE PUSH1 0x0 DUP1 RETURNDATACOPY RETURNDATASIZE PUSH1 0x0 REVERT JUMPDEST POP PUSH1 0x6 PUSH1 0x0 SWAP1 SLOAD SWAP1 PUSH2 0x100 EXP SWAP1 DIV PUSH20 0xFFFFFFFFFFFFFFFFFFFFFFFFFFFFFFFFFFFFFFFF AND PUSH20 0xFFFFFFFFFFFFFFFFFFFFFFFFFFFFFFFFFFFFFFFF AND PUSH2 0x8FC PUSH1 0x4 SLOAD SWAP1 DUP2 ISZERO MUL SWAP1 PUSH1 0x40 MLOAD PUSH1 0x0 PUSH1 0x40 MLOAD DUP1 DUP4 SUB DUP2 DUP6 DUP9 DUP9 CALL SWAP4 POP POP POP POP ISZERO DUP1 ISZERO PUSH2 0x17A6 JUMPI RETURNDATASIZE PUSH1 0x0 DUP1 RETURNDATACOPY RETURNDATASIZE PUSH1 0x0 REVERT JUMPDEST POP DUP3 PUSH1 0xB PUSH1 0x0 DUP5 PUSH20 0xFFFFFFFFFFFFFFFFFFFFFFFFFFFFFFFFFFFFFFFF AND PUSH20 0xFFFFFFFFFFFFFFFFFFFFFFFFFFFFFFFFFFFFFFFF AND DUP2 MSTORE PUSH1 0x20 ADD SWAP1 DUP2 MSTORE PUSH1 0x20 ADD PUSH1 0x0 KECCAK256 PUSH1 0x0 DUP3 DUP3 SLOAD PUSH2 0x17F6 SWAP2 SWAP1 PUSH2 0x24CC JUMP JUMPDEST SWAP3 POP POP DUP2 SWAP1 SSTORE POP PUSH1 0x0 PUSH1 0x8 PUSH1 0x14 PUSH2 0x100 EXP DUP2 SLOAD DUP2 PUSH1 0xFF MUL NOT AND SWAP1 DUP4 ISZERO ISZERO MUL OR SWAP1 SSTORE POP PUSH2 0x1CFB JUMP JUMPDEST DUP2 PUSH1 0x8 PUSH1 0x0 PUSH2 0x100 EXP DUP2 SLOAD DUP2 PUSH20 0xFFFFFFFFFFFFFFFFFFFFFFFFFFFFFFFFFFFFFFFF MUL NOT AND SWAP1 DUP4 PUSH20 0xFFFFFFFFFFFFFFFFFFFFFFFFFFFFFFFFFFFFFFFF AND MUL OR SWAP1 SSTORE POP PUSH1 0x0 PUSH1 0x8 PUSH1 0x0 SWAP1 SLOAD SWAP1 PUSH2 0x100 EXP SWAP1 DIV PUSH20 0xFFFFFFFFFFFFFFFFFFFFFFFFFFFFFFFFFFFFFFFF AND PUSH20 0xFFFFFFFFFFFFFFFFFFFFFFFFFFFFFFFFFFFFFFFF AND PUSH4 0x70A08231 ADDRESS PUSH1 0x40 MLOAD DUP3 PUSH4 0xFFFFFFFF AND PUSH1 0xE0 SHL DUP2 MSTORE PUSH1 0x4 ADD PUSH2 0x18BB SWAP2 SWAP1 PUSH2 0x21EA JUMP JUMPDEST PUSH1 0x20 PUSH1 0x40 MLOAD DUP1 DUP4 SUB DUP2 DUP7 DUP1 EXTCODESIZE ISZERO DUP1 ISZERO PUSH2 0x18D3 JUMPI PUSH1 0x0 DUP1 REVERT JUMPDEST POP GAS STATICCALL ISZERO DUP1 ISZERO PUSH2 0x18E7 JUMPI RETURNDATASIZE PUSH1 0x0 DUP1 RETURNDATACOPY RETURNDATASIZE PUSH1 0x0 REVERT JUMPDEST POP POP POP POP PUSH1 0x40 MLOAD RETURNDATASIZE PUSH1 0x1F NOT PUSH1 0x1F DUP3 ADD AND DUP3 ADD DUP1 PUSH1 0x40 MSTORE POP DUP2 ADD SWAP1 PUSH2 0x190B SWAP2 SWAP1 PUSH2 0x2005 JUMP JUMPDEST GT PUSH2 0x194B JUMPI PUSH1 0x40 MLOAD PUSH32 0x8C379A000000000000000000000000000000000000000000000000000000000 DUP2 MSTORE PUSH1 0x4 ADD PUSH2 0x1942 SWAP1 PUSH2 0x22FF JUMP JUMPDEST PUSH1 0x40 MLOAD DUP1 SWAP2 SUB SWAP1 REVERT JUMPDEST PUSH1 0x8 PUSH1 0x0 SWAP1 SLOAD SWAP1 PUSH2 0x100 EXP SWAP1 DIV PUSH20 0xFFFFFFFFFFFFFFFFFFFFFFFFFFFFFFFFFFFFFFFF AND PUSH20 0xFFFFFFFFFFFFFFFFFFFFFFFFFFFFFFFFFFFFFFFF AND PUSH4 0x70A08231 ADDRESS PUSH1 0x40 MLOAD DUP3 PUSH4 0xFFFFFFFF AND PUSH1 0xE0 SHL DUP2 MSTORE PUSH1 0x4 ADD PUSH2 0x19A6 SWAP2 SWAP1 PUSH2 0x21EA JUMP JUMPDEST PUSH1 0x20 PUSH1 0x40 MLOAD DUP1 DUP4 SUB DUP2 DUP7 DUP1 EXTCODESIZE ISZERO DUP1 ISZERO PUSH2 0x19BE JUMPI PUSH1 0x0 DUP1 REVERT JUMPDEST POP GAS STATICCALL ISZERO DUP1 ISZERO PUSH2 0x19D2 JUMPI RETURNDATASIZE PUSH1 0x0 DUP1 RETURNDATACOPY RETURNDATASIZE PUSH1 0x0 REVERT JUMPDEST POP POP POP POP PUSH1 0x40 MLOAD RETURNDATASIZE PUSH1 0x1F NOT PUSH1 0x1F DUP3 ADD AND DUP3 ADD DUP1 PUSH1 0x40 MSTORE POP DUP2 ADD SWAP1 PUSH2 0x19F6 SWAP2 SWAP1 PUSH2 0x2005 JUMP JUMPDEST DUP4 GT ISZERO PUSH2 0x1A38 JUMPI PUSH1 0x40 MLOAD PUSH32 0x8C379A000000000000000000000000000000000000000000000000000000000 DUP2 MSTORE PUSH1 0x4 ADD PUSH2 0x1A2F SWAP1 PUSH2 0x239F JUMP JUMPDEST PUSH1 0x40 MLOAD DUP1 SWAP2 SUB SWAP1 REVERT JUMPDEST PUSH1 0x8 PUSH1 0x14 SWAP1 SLOAD SWAP1 PUSH2 0x100 EXP SWAP1 DIV PUSH1 0xFF AND ISZERO PUSH2 0x1A88 JUMPI PUSH1 0x40 MLOAD PUSH32 0x8C379A000000000000000000000000000000000000000000000000000000000 DUP2 MSTORE PUSH1 0x4 ADD PUSH2 0x1A7F SWAP1 PUSH2 0x22DF JUMP JUMPDEST PUSH1 0x40 MLOAD DUP1 SWAP2 SUB SWAP1 REVERT JUMPDEST PUSH1 0x1 PUSH1 0x8 PUSH1 0x14 PUSH2 0x100 EXP DUP2 SLOAD DUP2 PUSH1 0xFF MUL NOT AND SWAP1 DUP4 ISZERO ISZERO MUL OR SWAP1 SSTORE POP PUSH2 0x1ACB PUSH1 0x64 PUSH2 0x1ABD PUSH1 0x5 SLOAD DUP7 PUSH2 0x1D23 SWAP1 SWAP2 SWAP1 PUSH4 0xFFFFFFFF AND JUMP JUMPDEST PUSH2 0x1D39 SWAP1 SWAP2 SWAP1 PUSH4 0xFFFFFFFF AND JUMP JUMPDEST PUSH1 0x4 DUP2 SWAP1 SSTORE POP PUSH1 0x8 PUSH1 0x0 SWAP1 SLOAD SWAP1 PUSH2 0x100 EXP SWAP1 DIV PUSH20 0xFFFFFFFFFFFFFFFFFFFFFFFFFFFFFFFFFFFFFFFF AND PUSH20 0xFFFFFFFFFFFFFFFFFFFFFFFFFFFFFFFFFFFFFFFF AND PUSH4 0xA9059CBB PUSH1 0x0 DUP1 SLOAD SWAP1 PUSH2 0x100 EXP SWAP1 DIV PUSH20 0xFFFFFFFFFFFFFFFFFFFFFFFFFFFFFFFFFFFFFFFF AND PUSH2 0x1B45 PUSH1 0x4 SLOAD DUP8 PUSH2 0x1D4F SWAP1 SWAP2 SWAP1 PUSH4 0xFFFFFFFF AND JUMP JUMPDEST PUSH1 0x40 MLOAD DUP4 PUSH4 0xFFFFFFFF AND PUSH1 0xE0 SHL DUP2 MSTORE PUSH1 0x4 ADD PUSH2 0x1B62 SWAP3 SWAP2 SWAP1 PUSH2 0x2220 JUMP JUMPDEST PUSH1 0x20 PUSH1 0x40 MLOAD DUP1 DUP4 SUB DUP2 PUSH1 0x0 DUP8 DUP1 EXTCODESIZE ISZERO DUP1 ISZERO PUSH2 0x1B7C JUMPI PUSH1 0x0 DUP1 REVERT JUMPDEST POP GAS CALL ISZERO DUP1 ISZERO PUSH2 0x1B90 JUMPI RETURNDATASIZE PUSH1 0x0 DUP1 RETURNDATACOPY RETURNDATASIZE PUSH1 0x0 REVERT JUMPDEST POP POP POP POP PUSH1 0x40 MLOAD RETURNDATASIZE PUSH1 0x1F NOT PUSH1 0x1F DUP3 ADD AND DUP3 ADD DUP1 PUSH1 0x40 MSTORE POP DUP2 ADD SWAP1 PUSH2 0x1BB4 SWAP2 SWAP1 PUSH2 0x1EB6 JUMP JUMPDEST POP PUSH1 0x8 PUSH1 0x0 SWAP1 SLOAD SWAP1 PUSH2 0x100 EXP SWAP1 DIV PUSH20 0xFFFFFFFFFFFFFFFFFFFFFFFFFFFFFFFFFFFFFFFF AND PUSH20 0xFFFFFFFFFFFFFFFFFFFFFFFFFFFFFFFFFFFFFFFF AND PUSH4 0xA9059CBB PUSH1 0x6 PUSH1 0x0 SWAP1 SLOAD SWAP1 PUSH2 0x100 EXP SWAP1 DIV PUSH20 0xFFFFFFFFFFFFFFFFFFFFFFFFFFFFFFFFFFFFFFFF AND PUSH1 0x4 SLOAD PUSH1 0x40 MLOAD DUP4 PUSH4 0xFFFFFFFF AND PUSH1 0xE0 SHL DUP2 MSTORE PUSH1 0x4 ADD PUSH2 0x1C36 SWAP3 SWAP2 SWAP1 PUSH2 0x2220 JUMP JUMPDEST PUSH1 0x20 PUSH1 0x40 MLOAD DUP1 DUP4 SUB DUP2 PUSH1 0x0 DUP8 DUP1 EXTCODESIZE ISZERO DUP1 ISZERO PUSH2 0x1C50 JUMPI PUSH1 0x0 DUP1 REVERT JUMPDEST POP GAS CALL ISZERO DUP1 ISZERO PUSH2 0x1C64 JUMPI RETURNDATASIZE PUSH1 0x0 DUP1 RETURNDATACOPY RETURNDATASIZE PUSH1 0x0 REVERT JUMPDEST POP POP POP POP PUSH1 0x40 MLOAD RETURNDATASIZE PUSH1 0x1F NOT PUSH1 0x1F DUP3 ADD AND DUP3 ADD DUP1 PUSH1 0x40 MSTORE POP DUP2 ADD SWAP1 PUSH2 0x1C88 SWAP2 SWAP1 PUSH2 0x1EB6 JUMP JUMPDEST POP DUP3 PUSH1 0xB PUSH1 0x0 DUP5 PUSH20 0xFFFFFFFFFFFFFFFFFFFFFFFFFFFFFFFFFFFFFFFF AND PUSH20 0xFFFFFFFFFFFFFFFFFFFFFFFFFFFFFFFFFFFFFFFF AND DUP2 MSTORE PUSH1 0x20 ADD SWAP1 DUP2 MSTORE PUSH1 0x20 ADD PUSH1 0x0 KECCAK256 PUSH1 0x0 DUP3 DUP3 SLOAD PUSH2 0x1CD8 SWAP2 SWAP1 PUSH2 0x24CC JUMP JUMPDEST SWAP3 POP POP DUP2 SWAP1 SSTORE POP PUSH1 0x0 PUSH1 0x8 PUSH1 0x14 PUSH2 0x100 EXP DUP2 SLOAD DUP2 PUSH1 0xFF MUL NOT AND SWAP1 DUP4 ISZERO ISZERO MUL OR SWAP1 SSTORE POP JUMPDEST POP POP POP POP JUMP JUMPDEST PUSH1 0x0 PUSH1 0x5 SLOAD SWAP1 POP SWAP1 JUMP JUMPDEST PUSH1 0xB PUSH1 0x20 MSTORE DUP1 PUSH1 0x0 MSTORE PUSH1 0x40 PUSH1 0x0 KECCAK256 PUSH1 0x0 SWAP2 POP SWAP1 POP SLOAD DUP2 JUMP JUMPDEST PUSH1 0x0 DUP2 DUP4 PUSH2 0x1D31 SWAP2 SWAP1 PUSH2 0x2472 JUMP JUMPDEST SWAP1 POP SWAP3 SWAP2 POP POP JUMP JUMPDEST PUSH1 0x0 DUP2 DUP4 PUSH2 0x1D47 SWAP2 SWAP1 PUSH2 0x2441 JUMP JUMPDEST SWAP1 POP SWAP3 SWAP2 POP POP JUMP JUMPDEST PUSH1 0x0 DUP2 DUP4 PUSH2 0x1D5D SWAP2 SWAP1 PUSH2 0x24CC JUMP JUMPDEST SWAP1 POP SWAP3 SWAP2 POP POP JUMP JUMPDEST PUSH1 0x0 DUP2 CALLDATALOAD SWAP1 POP PUSH2 0x1D74 DUP2 PUSH2 0x28F5 JUMP JUMPDEST SWAP3 SWAP2 POP POP JUMP JUMPDEST PUSH1 0x0 DUP2 CALLDATALOAD SWAP1 POP PUSH2 0x1D89 DUP2 PUSH2 0x290C JUMP JUMPDEST SWAP3 SWAP2 POP POP JUMP JUMPDEST PUSH1 0x0 DUP2 CALLDATALOAD SWAP1 POP PUSH2 0x1D9E DUP2 PUSH2 0x2923 JUMP JUMPDEST SWAP3 SWAP2 POP POP JUMP JUMPDEST PUSH1 0x0 DUP2 MLOAD SWAP1 POP PUSH2 0x1DB3 DUP2 PUSH2 0x2923 JUMP JUMPDEST SWAP3 SWAP2 POP POP JUMP JUMPDEST PUSH1 0x0 DUP2 CALLDATALOAD SWAP1 POP PUSH2 0x1DC8 DUP2 PUSH2 0x293A JUMP JUMPDEST SWAP3 SWAP2 POP POP JUMP JUMPDEST PUSH1 0x0 DUP2 MLOAD SWAP1 POP PUSH2 0x1DDD DUP2 PUSH2 0x293A JUMP JUMPDEST SWAP3 SWAP2 POP POP JUMP JUMPDEST PUSH1 0x0 PUSH1 0x20 DUP3 DUP5 SUB SLT ISZERO PUSH2 0x1DF9 JUMPI PUSH2 0x1DF8 PUSH2 0x2600 JUMP JUMPDEST JUMPDEST PUSH1 0x0 PUSH2 0x1E07 DUP5 DUP3 DUP6 ADD PUSH2 0x1D65 JUMP JUMPDEST SWAP2 POP POP SWAP3 SWAP2 POP POP JUMP JUMPDEST PUSH1 0x0 DUP1 PUSH1 0x0 PUSH1 0x60 DUP5 DUP7 SUB SLT ISZERO PUSH2 0x1E29 JUMPI PUSH2 0x1E28 PUSH2 0x2600 JUMP JUMPDEST JUMPDEST PUSH1 0x0 PUSH2 0x1E37 DUP7 DUP3 DUP8 ADD PUSH2 0x1D7A JUMP JUMPDEST SWAP4 POP POP PUSH1 0x20 PUSH2 0x1E48 DUP7 DUP3 DUP8 ADD PUSH2 0x1DB9 JUMP JUMPDEST SWAP3 POP POP PUSH1 0x40 PUSH2 0x1E59 DUP7 DUP3 DUP8 ADD PUSH2 0x1D65 JUMP JUMPDEST SWAP2 POP POP SWAP3 POP SWAP3 POP SWAP3 JUMP JUMPDEST PUSH1 0x0 DUP1 PUSH1 0x0 PUSH1 0x60 DUP5 DUP7 SUB SLT ISZERO PUSH2 0x1E7C JUMPI PUSH2 0x1E7B PUSH2 0x2600 JUMP JUMPDEST JUMPDEST PUSH1 0x0 PUSH2 0x1E8A DUP7 DUP3 DUP8 ADD PUSH2 0x1D65 JUMP JUMPDEST SWAP4 POP POP PUSH1 0x20 PUSH2 0x1E9B DUP7 DUP3 DUP8 ADD PUSH2 0x1DB9 JUMP JUMPDEST SWAP3 POP POP PUSH1 0x40 PUSH2 0x1EAC DUP7 DUP3 DUP8 ADD PUSH2 0x1D65 JUMP JUMPDEST SWAP2 POP POP SWAP3 POP SWAP3 POP SWAP3 JUMP JUMPDEST PUSH1 0x0 PUSH1 0x20 DUP3 DUP5 SUB SLT ISZERO PUSH2 0x1ECC JUMPI PUSH2 0x1ECB PUSH2 0x2600 JUMP JUMPDEST JUMPDEST PUSH1 0x0 PUSH2 0x1EDA DUP5 DUP3 DUP6 ADD PUSH2 0x1DA4 JUMP JUMPDEST SWAP2 POP POP SWAP3 SWAP2 POP POP JUMP JUMPDEST PUSH1 0x0 DUP1 PUSH1 0x40 DUP4 DUP6 SUB SLT ISZERO PUSH2 0x1EFA JUMPI PUSH2 0x1EF9 PUSH2 0x2600 JUMP JUMPDEST JUMPDEST PUSH1 0x0 PUSH2 0x1F08 DUP6 DUP3 DUP7 ADD PUSH2 0x1D8F JUMP JUMPDEST SWAP3 POP POP PUSH1 0x20 PUSH2 0x1F19 DUP6 DUP3 DUP7 ADD PUSH2 0x1D65 JUMP JUMPDEST SWAP2 POP POP SWAP3 POP SWAP3 SWAP1 POP JUMP JUMPDEST PUSH1 0x0 DUP1 PUSH1 0x0 DUP1 PUSH1 0x0 PUSH1 0xA0 DUP7 DUP9 SUB SLT ISZERO PUSH2 0x1F3F JUMPI PUSH2 0x1F3E PUSH2 0x2600 JUMP JUMPDEST JUMPDEST PUSH1 0x0 PUSH2 0x1F4D DUP9 DUP3 DUP10 ADD PUSH2 0x1D8F JUMP JUMPDEST SWAP6 POP POP PUSH1 0x20 PUSH2 0x1F5E DUP9 DUP3 DUP10 ADD PUSH2 0x1D7A JUMP JUMPDEST SWAP5 POP POP PUSH1 0x40 PUSH2 0x1F6F DUP9 DUP3 DUP10 ADD PUSH2 0x1DB9 JUMP JUMPDEST SWAP4 POP POP PUSH1 0x60 PUSH2 0x1F80 DUP9 DUP3 DUP10 ADD PUSH2 0x1D65 JUMP JUMPDEST SWAP3 POP POP PUSH1 0x80 PUSH2 0x1F91 DUP9 DUP3 DUP10 ADD PUSH2 0x1D65 JUMP JUMPDEST SWAP2 POP POP SWAP3 SWAP6 POP SWAP3 SWAP6 SWAP1 SWAP4 POP JUMP JUMPDEST PUSH1 0x0 DUP1 PUSH1 0x0 DUP1 PUSH1 0x80 DUP6 DUP8 SUB SLT ISZERO PUSH2 0x1FB8 JUMPI PUSH2 0x1FB7 PUSH2 0x2600 JUMP JUMPDEST JUMPDEST PUSH1 0x0 PUSH2 0x1FC6 DUP8 DUP3 DUP9 ADD PUSH2 0x1D8F JUMP JUMPDEST SWAP5 POP POP PUSH1 0x20 PUSH2 0x1FD7 DUP8 DUP3 DUP9 ADD PUSH2 0x1DB9 JUMP JUMPDEST SWAP4 POP POP PUSH1 0x40 PUSH2 0x1FE8 DUP8 DUP3 DUP9 ADD PUSH2 0x1D65 JUMP JUMPDEST SWAP3 POP POP PUSH1 0x60 PUSH2 0x1FF9 DUP8 DUP3 DUP9 ADD PUSH2 0x1D65 JUMP JUMPDEST SWAP2 POP POP SWAP3 SWAP6 SWAP2 SWAP5 POP SWAP3 POP JUMP JUMPDEST PUSH1 0x0 PUSH1 0x20 DUP3 DUP5 SUB SLT ISZERO PUSH2 0x201B JUMPI PUSH2 0x201A PUSH2 0x2600 JUMP JUMPDEST JUMPDEST PUSH1 0x0 PUSH2 0x2029 DUP5 DUP3 DUP6 ADD PUSH2 0x1DCE JUMP JUMPDEST SWAP2 POP POP SWAP3 SWAP2 POP POP JUMP JUMPDEST PUSH2 0x203B DUP2 PUSH2 0x255A JUMP JUMPDEST DUP3 MSTORE POP POP JUMP JUMPDEST PUSH2 0x204A DUP2 PUSH2 0x2512 JUMP JUMPDEST DUP3 MSTORE POP POP JUMP JUMPDEST PUSH2 0x2059 DUP2 PUSH2 0x2500 JUMP JUMPDEST DUP3 MSTORE POP POP JUMP JUMPDEST PUSH2 0x2068 DUP2 PUSH2 0x2524 JUMP JUMPDEST DUP3 MSTORE POP POP JUMP JUMPDEST PUSH2 0x2077 DUP2 PUSH2 0x256C JUMP JUMPDEST DUP3 MSTORE POP POP JUMP JUMPDEST PUSH1 0x0 PUSH2 0x208A PUSH1 0x2C DUP4 PUSH2 0x23DA JUMP JUMPDEST SWAP2 POP PUSH2 0x2095 DUP3 PUSH2 0x2605 JUMP JUMPDEST PUSH1 0x40 DUP3 ADD SWAP1 POP SWAP2 SWAP1 POP JUMP JUMPDEST PUSH1 0x0 PUSH2 0x20AD PUSH1 0x29 DUP4 PUSH2 0x23DA JUMP JUMPDEST SWAP2 POP PUSH2 0x20B8 DUP3 PUSH2 0x2654 JUMP JUMPDEST PUSH1 0x40 DUP3 ADD SWAP1 POP SWAP2 SWAP1 POP JUMP JUMPDEST PUSH1 0x0 PUSH2 0x20D0 PUSH1 0x35 DUP4 PUSH2 0x23DA JUMP JUMPDEST SWAP2 POP PUSH2 0x20DB DUP3 PUSH2 0x26A3 JUMP JUMPDEST PUSH1 0x40 DUP3 ADD SWAP1 POP SWAP2 SWAP1 POP JUMP JUMPDEST PUSH1 0x0 PUSH2 0x20F3 PUSH1 0x25 DUP4 PUSH2 0x23DA JUMP JUMPDEST SWAP2 POP PUSH2 0x20FE DUP3 PUSH2 0x26F2 JUMP JUMPDEST PUSH1 0x40 DUP3 ADD SWAP1 POP SWAP2 SWAP1 POP JUMP JUMPDEST PUSH1 0x0 PUSH2 0x2116 PUSH1 0x1F DUP4 PUSH2 0x23DA JUMP JUMPDEST SWAP2 POP PUSH2 0x2121 DUP3 PUSH2 0x2741 JUMP JUMPDEST PUSH1 0x20 DUP3 ADD SWAP1 POP SWAP2 SWAP1 POP JUMP JUMPDEST PUSH1 0x0 PUSH2 0x2139 PUSH1 0x27 DUP4 PUSH2 0x23DA JUMP JUMPDEST SWAP2 POP PUSH2 0x2144 DUP3 PUSH2 0x276A JUMP JUMPDEST PUSH1 0x40 DUP3 ADD SWAP1 POP SWAP2 SWAP1 POP JUMP JUMPDEST PUSH1 0x0 PUSH2 0x215C PUSH1 0x44 DUP4 PUSH2 0x23DA JUMP JUMPDEST SWAP2 POP PUSH2 0x2167 DUP3 PUSH2 0x27B9 JUMP JUMPDEST PUSH1 0x60 DUP3 ADD SWAP1 POP SWAP2 SWAP1 POP JUMP JUMPDEST PUSH1 0x0 PUSH2 0x217F PUSH1 0x26 DUP4 PUSH2 0x23DA JUMP JUMPDEST SWAP2 POP PUSH2 0x218A DUP3 PUSH2 0x282E JUMP JUMPDEST PUSH1 0x40 DUP3 ADD SWAP1 POP SWAP2 SWAP1 POP JUMP JUMPDEST PUSH1 0x0 PUSH2 0x21A2 PUSH1 0x28 DUP4 PUSH2 0x23DA JUMP JUMPDEST SWAP2 POP PUSH2 0x21AD DUP3 PUSH2 0x287D JUMP JUMPDEST PUSH1 0x40 DUP3 ADD SWAP1 POP SWAP2 SWAP1 POP JUMP JUMPDEST PUSH1 0x0 PUSH2 0x21C5 PUSH1 0x13 DUP4 PUSH2 0x23DA JUMP JUMPDEST SWAP2 POP PUSH2 0x21D0 DUP3 PUSH2 0x28CC JUMP JUMPDEST PUSH1 0x20 DUP3 ADD SWAP1 POP SWAP2 SWAP1 POP JUMP JUMPDEST PUSH2 0x21E4 DUP2 PUSH2 0x2550 JUMP JUMPDEST DUP3 MSTORE POP POP JUMP JUMPDEST PUSH1 0x0 PUSH1 0x20 DUP3 ADD SWAP1 POP PUSH2 0x21FF PUSH1 0x0 DUP4 ADD DUP5 PUSH2 0x2050 JUMP JUMPDEST SWAP3 SWAP2 POP POP JUMP JUMPDEST PUSH1 0x0 PUSH1 0x20 DUP3 ADD SWAP1 POP PUSH2 0x221A PUSH1 0x0 DUP4 ADD DUP5 PUSH2 0x2041 JUMP JUMPDEST SWAP3 SWAP2 POP POP JUMP JUMPDEST PUSH1 0x0 PUSH1 0x40 DUP3 ADD SWAP1 POP PUSH2 0x2235 PUSH1 0x0 DUP4 ADD DUP6 PUSH2 0x2032 JUMP JUMPDEST PUSH2 0x2242 PUSH1 0x20 DUP4 ADD DUP5 PUSH2 0x21DB JUMP JUMPDEST SWAP4 SWAP3 POP POP POP JUMP JUMPDEST PUSH1 0x0 PUSH1 0x20 DUP3 ADD SWAP1 POP PUSH2 0x225E PUSH1 0x0 DUP4 ADD DUP5 PUSH2 0x205F JUMP JUMPDEST SWAP3 SWAP2 POP POP JUMP JUMPDEST PUSH1 0x0 PUSH1 0x20 DUP3 ADD SWAP1 POP PUSH2 0x2279 PUSH1 0x0 DUP4 ADD DUP5 PUSH2 0x206E JUMP JUMPDEST SWAP3 SWAP2 POP POP JUMP JUMPDEST PUSH1 0x0 PUSH1 0x20 DUP3 ADD SWAP1 POP DUP2 DUP2 SUB PUSH1 0x0 DUP4 ADD MSTORE PUSH2 0x2298 DUP2 PUSH2 0x207D JUMP JUMPDEST SWAP1 POP SWAP2 SWAP1 POP JUMP JUMPDEST PUSH1 0x0 PUSH1 0x20 DUP3 ADD SWAP1 POP DUP2 DUP2 SUB PUSH1 0x0 DUP4 ADD MSTORE PUSH2 0x22B8 DUP2 PUSH2 0x20A0 JUMP JUMPDEST SWAP1 POP SWAP2 SWAP1 POP JUMP JUMPDEST PUSH1 0x0 PUSH1 0x20 DUP3 ADD SWAP1 POP DUP2 DUP2 SUB PUSH1 0x0 DUP4 ADD MSTORE PUSH2 0x22D8 DUP2 PUSH2 0x20C3 JUMP JUMPDEST SWAP1 POP SWAP2 SWAP1 POP JUMP JUMPDEST PUSH1 0x0 PUSH1 0x20 DUP3 ADD SWAP1 POP DUP2 DUP2 SUB PUSH1 0x0 DUP4 ADD MSTORE PUSH2 0x22F8 DUP2 PUSH2 0x20E6 JUMP JUMPDEST SWAP1 POP SWAP2 SWAP1 POP JUMP JUMPDEST PUSH1 0x0 PUSH1 0x20 DUP3 ADD SWAP1 POP DUP2 DUP2 SUB PUSH1 0x0 DUP4 ADD MSTORE PUSH2 0x2318 DUP2 PUSH2 0x2109 JUMP JUMPDEST SWAP1 POP SWAP2 SWAP1 POP JUMP JUMPDEST PUSH1 0x0 PUSH1 0x20 DUP3 ADD SWAP1 POP DUP2 DUP2 SUB PUSH1 0x0 DUP4 ADD MSTORE PUSH2 0x2338 DUP2 PUSH2 0x212C JUMP JUMPDEST SWAP1 POP SWAP2 SWAP1 POP JUMP JUMPDEST PUSH1 0x0 PUSH1 0x20 DUP3 ADD SWAP1 POP DUP2 DUP2 SUB PUSH1 0x0 DUP4 ADD MSTORE PUSH2 0x2358 DUP2 PUSH2 0x214F JUMP JUMPDEST SWAP1 POP SWAP2 SWAP1 POP JUMP JUMPDEST PUSH1 0x0 PUSH1 0x20 DUP3 ADD SWAP1 POP DUP2 DUP2 SUB PUSH1 0x0 DUP4 ADD MSTORE PUSH2 0x2378 DUP2 PUSH2 0x2172 JUMP JUMPDEST SWAP1 POP SWAP2 SWAP1 POP JUMP JUMPDEST PUSH1 0x0 PUSH1 0x20 DUP3 ADD SWAP1 POP DUP2 DUP2 SUB PUSH1 0x0 DUP4 ADD MSTORE PUSH2 0x2398 DUP2 PUSH2 0x2195 JUMP JUMPDEST SWAP1 POP SWAP2 SWAP1 POP JUMP JUMPDEST PUSH1 0x0 PUSH1 0x20 DUP3 ADD SWAP1 POP DUP2 DUP2 SUB PUSH1 0x0 DUP4 ADD MSTORE PUSH2 0x23B8 DUP2 PUSH2 0x21B8 JUMP JUMPDEST SWAP1 POP SWAP2 SWAP1 POP JUMP JUMPDEST PUSH1 0x0 PUSH1 0x20 DUP3 ADD SWAP1 POP PUSH2 0x23D4 PUSH1 0x0 DUP4 ADD DUP5 PUSH2 0x21DB JUMP JUMPDEST SWAP3 SWAP2 POP POP JUMP JUMPDEST PUSH1 0x0 DUP3 DUP3 MSTORE PUSH1 0x20 DUP3 ADD SWAP1 POP SWAP3 SWAP2 POP POP JUMP JUMPDEST PUSH1 0x0 PUSH2 0x23F6 DUP3 PUSH2 0x2550 JUMP JUMPDEST SWAP2 POP PUSH2 0x2401 DUP4 PUSH2 0x2550 JUMP JUMPDEST SWAP3 POP DUP3 PUSH32 0xFFFFFFFFFFFFFFFFFFFFFFFFFFFFFFFFFFFFFFFFFFFFFFFFFFFFFFFFFFFFFFFF SUB DUP3 GT ISZERO PUSH2 0x2436 JUMPI PUSH2 0x2435 PUSH2 0x25A2 JUMP JUMPDEST JUMPDEST DUP3 DUP3 ADD SWAP1 POP SWAP3 SWAP2 POP POP JUMP JUMPDEST PUSH1 0x0 PUSH2 0x244C DUP3 PUSH2 0x2550 JUMP JUMPDEST SWAP2 POP PUSH2 0x2457 DUP4 PUSH2 0x2550 JUMP JUMPDEST SWAP3 POP DUP3 PUSH2 0x2467 JUMPI PUSH2 0x2466 PUSH2 0x25D1 JUMP JUMPDEST JUMPDEST DUP3 DUP3 DIV SWAP1 POP SWAP3 SWAP2 POP POP JUMP JUMPDEST PUSH1 0x0 PUSH2 0x247D DUP3 PUSH2 0x2550 JUMP JUMPDEST SWAP2 POP PUSH2 0x2488 DUP4 PUSH2 0x2550 JUMP JUMPDEST SWAP3 POP DUP2 PUSH32 0xFFFFFFFFFFFFFFFFFFFFFFFFFFFFFFFFFFFFFFFFFFFFFFFFFFFFFFFFFFFFFFFF DIV DUP4 GT DUP3 ISZERO ISZERO AND ISZERO PUSH2 0x24C1 JUMPI PUSH2 0x24C0 PUSH2 0x25A2 JUMP JUMPDEST JUMPDEST DUP3 DUP3 MUL SWAP1 POP SWAP3 SWAP2 POP POP JUMP JUMPDEST PUSH1 0x0 PUSH2 0x24D7 DUP3 PUSH2 0x2550 JUMP JUMPDEST SWAP2 POP PUSH2 0x24E2 DUP4 PUSH2 0x2550 JUMP JUMPDEST SWAP3 POP DUP3 DUP3 LT ISZERO PUSH2 0x24F5 JUMPI PUSH2 0x24F4 PUSH2 0x25A2 JUMP JUMPDEST JUMPDEST DUP3 DUP3 SUB SWAP1 POP SWAP3 SWAP2 POP POP JUMP JUMPDEST PUSH1 0x0 PUSH2 0x250B DUP3 PUSH2 0x2530 JUMP JUMPDEST SWAP1 POP SWAP2 SWAP1 POP JUMP JUMPDEST PUSH1 0x0 PUSH2 0x251D DUP3 PUSH2 0x2530 JUMP JUMPDEST SWAP1 POP SWAP2 SWAP1 POP JUMP JUMPDEST PUSH1 0x0 DUP2 ISZERO ISZERO SWAP1 POP SWAP2 SWAP1 POP JUMP JUMPDEST PUSH1 0x0 PUSH20 0xFFFFFFFFFFFFFFFFFFFFFFFFFFFFFFFFFFFFFFFF DUP3 AND SWAP1 POP SWAP2 SWAP1 POP JUMP JUMPDEST PUSH1 0x0 DUP2 SWAP1 POP SWAP2 SWAP1 POP JUMP JUMPDEST PUSH1 0x0 PUSH2 0x2565 DUP3 PUSH2 0x257E JUMP JUMPDEST SWAP1 POP SWAP2 SWAP1 POP JUMP JUMPDEST PUSH1 0x0 PUSH2 0x2577 DUP3 PUSH2 0x257E JUMP JUMPDEST SWAP1 POP SWAP2 SWAP1 POP JUMP JUMPDEST PUSH1 0x0 PUSH2 0x2589 DUP3 PUSH2 0x2590 JUMP JUMPDEST SWAP1 POP SWAP2 SWAP1 POP JUMP JUMPDEST PUSH1 0x0 PUSH2 0x259B DUP3 PUSH2 0x2530 JUMP JUMPDEST SWAP1 POP SWAP2 SWAP1 POP JUMP JUMPDEST PUSH32 0x4E487B7100000000000000000000000000000000000000000000000000000000 PUSH1 0x0 MSTORE PUSH1 0x11 PUSH1 0x4 MSTORE PUSH1 0x24 PUSH1 0x0 REVERT JUMPDEST PUSH32 0x4E487B7100000000000000000000000000000000000000000000000000000000 PUSH1 0x0 MSTORE PUSH1 0x12 PUSH1 0x4 MSTORE PUSH1 0x24 PUSH1 0x0 REVERT JUMPDEST PUSH1 0x0 DUP1 REVERT JUMPDEST PUSH32 0x4F6E6C7920746865206F776E65722063616E2073657420746865207769746864 PUSH1 0x0 DUP3 ADD MSTORE PUSH32 0x726177616C206C696D69742E0000000000000000000000000000000000000000 PUSH1 0x20 DUP3 ADD MSTORE POP JUMP JUMPDEST PUSH32 0x4163636F756E742069732066726F7A656E2C2063616E6E6F7420776974686472 PUSH1 0x0 DUP3 ADD MSTORE PUSH32 0x61772066756E64732E0000000000000000000000000000000000000000000000 PUSH1 0x20 DUP3 ADD MSTORE POP JUMP JUMPDEST PUSH32 0x4F6E6C7920746865206F776E6572206F72207468652062656E65666963696172 PUSH1 0x0 DUP3 ADD MSTORE PUSH32 0x792063616E2077697468647261772066756E64732E0000000000000000000000 PUSH1 0x20 DUP3 ADD MSTORE POP JUMP JUMPDEST PUSH32 0x5468652066756E6374696F6E20697320616C726561647920696E206578656375 PUSH1 0x0 DUP3 ADD MSTORE PUSH32 0x74696F6E2E000000000000000000000000000000000000000000000000000000 PUSH1 0x20 DUP3 ADD MSTORE POP JUMP JUMPDEST PUSH32 0x546865726520617265206E6F2066756E647320746F2077697468647261772E00 PUSH1 0x0 DUP3 ADD MSTORE POP JUMP JUMPDEST PUSH32 0x4F6E6C7920746865206F776E65722063616E20736574207468652062656E6566 PUSH1 0x0 DUP3 ADD MSTORE PUSH32 0x6963696172792E00000000000000000000000000000000000000000000000000 PUSH1 0x20 DUP3 ADD MSTORE POP JUMP JUMPDEST PUSH32 0x546865207769746864726177616C20616D6F756E742065786365656473207468 PUSH1 0x0 DUP3 ADD MSTORE PUSH32 0x65206C696D6974206F722064656C617920686173206E6F742070617373656420 PUSH1 0x20 DUP3 ADD MSTORE PUSH32 0x7965742E00000000000000000000000000000000000000000000000000000000 PUSH1 0x40 DUP3 ADD MSTORE POP JUMP JUMPDEST PUSH32 0x4F6E6C7920746865206F776E65722063616E20667265657A6520746865206163 PUSH1 0x0 DUP3 ADD MSTORE PUSH32 0x636F756E742E0000000000000000000000000000000000000000000000000000 PUSH1 0x20 DUP3 ADD MSTORE POP JUMP JUMPDEST PUSH32 0x4F6E6C7920746865206F776E65722063616E20756E667265657A652074686520 PUSH1 0x0 DUP3 ADD MSTORE PUSH32 0x6163636F756E742E000000000000000000000000000000000000000000000000 PUSH1 0x20 DUP3 ADD MSTORE POP JUMP JUMPDEST PUSH32 0x496E73756666696369656E742066756E64732E00000000000000000000000000 PUSH1 0x0 DUP3 ADD MSTORE POP JUMP JUMPDEST PUSH2 0x28FE DUP2 PUSH2 0x2500 JUMP JUMPDEST DUP2 EQ PUSH2 0x2909 JUMPI PUSH1 0x0 DUP1 REVERT JUMPDEST POP JUMP JUMPDEST PUSH2 0x2915 DUP2 PUSH2 0x2512 JUMP JUMPDEST DUP2 EQ PUSH2 0x2920 JUMPI PUSH1 0x0 DUP1 REVERT JUMPDEST POP JUMP JUMPDEST PUSH2 0x292C DUP2 PUSH2 0x2524 JUMP JUMPDEST DUP2 EQ PUSH2 0x2937 JUMPI PUSH1 0x0 DUP1 REVERT JUMPDEST POP JUMP JUMPDEST PUSH2 0x2943 DUP2 PUSH2 0x2550 JUMP JUMPDEST DUP2 EQ PUSH2 0x294E JUMPI PUSH1 0x0 DUP1 REVERT JUMPDEST POP JUMP INVALID LOG2 PUSH5 0x6970667358 0x22 SLT KECCAK256 0xBC 0xBE REVERT PUSH3 0x1F9B0F PUSH26 0x1E5EB5E9C3B2CCF5B5B3F951B5C5A6A737AEC9CB8558D5156473 PUSH16 0x6C634300080700330000000000000000 "
				},
				"gasEstimates": {
					"creation": {
						"codeDepositCost": "2126200",
						"executionCost": "infinite",
						"totalCost": "infinite"
					},
					"external": {
						"": "219",
						"ERC20()": "2644",
						"ERC20Token()": "2537",
						"InitiatedAt()": "2541",
						"balanceOf(bool,address)": "infinite",
						"beneficiary()": "2559",
						"delay()": "2540",
						"freeze(address)": "26935",
						"frozen()": "2495",
						"getWithdrawLimit(address)": "2907",
						"mutex()": "2654",
						"owner()": "2578",
						"returnBeneficiary()": "2612",
						"returnDelay()": "2459",
						"returnInitiateAt()": "2526",
						"returnOwner()": "2611",
						"returnTransferFee()": "2547",
						"setBeneficiary(address,uint256,address)": "infinite",
						"setWithdrawLimit(address,uint256,address)": "infinite",
						"tokenBalance()": "2540",
						"transferFunds(bool,address,uint256,address,address)": "infinite",
						"unfreeze(address)": "26957",
						"withdraw(bool,uint256,address,address)": "infinite",
						"withdrawLimit(address)": "2946"
					}
				},
				"methodIdentifiers": {
					"ERC20()": "cc4aa204",
					"ERC20Token()": "7a80760e",
					"InitiatedAt()": "28af53fa",
					"balanceOf(bool,address)": "1903b431",
					"beneficiary()": "38af3eed",
					"delay()": "6a42b8f8",
					"freeze(address)": "8d1fdf2f",
					"frozen()": "054f7d9c",
					"getWithdrawLimit(address)": "d4fb7e2d",
					"mutex()": "a5720770",
					"owner()": "8da5cb5b",
					"returnBeneficiary()": "23658af4",
					"returnDelay()": "c6a62290",
					"returnInitiateAt()": "4bfffc86",
					"returnOwner()": "94a927fe",
					"returnTransferFee()": "f5c91a0b",
					"setBeneficiary(address,uint256,address)": "0a84aac5",
					"setWithdrawLimit(address,uint256,address)": "342ac615",
					"tokenBalance()": "9e1a4d19",
					"transferFunds(bool,address,uint256,address,address)": "6c8d5ada",
					"unfreeze(address)": "45c8b1a6",
					"withdraw(bool,uint256,address,address)": "d86e0575",
					"withdrawLimit(address)": "fce33f01"
				}
			},
			"storageLayout": {
				"storage": [
					{
						"astId": 1042,
						"contract": "contract/JointAccount.sol:Accounts",
						"label": "owner",
						"offset": 0,
						"slot": "0",
						"type": "t_address_payable"
					},
					{
						"astId": 1044,
						"contract": "contract/JointAccount.sol:Accounts",
						"label": "beneficiary",
						"offset": 0,
						"slot": "1",
						"type": "t_address_payable"
					},
					{
						"astId": 1046,
						"contract": "contract/JointAccount.sol:Accounts",
						"label": "InitiatedAt",
						"offset": 0,
						"slot": "2",
						"type": "t_uint256"
					},
					{
						"astId": 1048,
						"contract": "contract/JointAccount.sol:Accounts",
						"label": "delay",
						"offset": 0,
						"slot": "3",
						"type": "t_uint256"
					},
					{
						"astId": 1050,
						"contract": "contract/JointAccount.sol:Accounts",
						"label": "fee",
						"offset": 0,
						"slot": "4",
						"type": "t_uint256"
					},
					{
						"astId": 1052,
						"contract": "contract/JointAccount.sol:Accounts",
						"label": "transferFee",
						"offset": 0,
						"slot": "5",
						"type": "t_uint256"
					},
					{
						"astId": 1054,
						"contract": "contract/JointAccount.sol:Accounts",
						"label": "feeAddress",
						"offset": 0,
						"slot": "6",
						"type": "t_address_payable"
					},
					{
						"astId": 1056,
						"contract": "contract/JointAccount.sol:Accounts",
						"label": "ERC20Token",
						"offset": 0,
						"slot": "7",
						"type": "t_address_payable"
					},
					{
						"astId": 1059,
						"contract": "contract/JointAccount.sol:Accounts",
						"label": "ERC20",
						"offset": 0,
						"slot": "8",
						"type": "t_contract(IERC20)77"
					},
					{
						"astId": 1065,
						"contract": "contract/JointAccount.sol:Accounts",
						"label": "mutex",
						"offset": 20,
						"slot": "8",
						"type": "t_bool"
					},
					{
						"astId": 1067,
						"contract": "contract/JointAccount.sol:Accounts",
						"label": "tokenBalance",
						"offset": 0,
						"slot": "9",
						"type": "t_uint256"
					},
					{
						"astId": 1070,
						"contract": "contract/JointAccount.sol:Accounts",
						"label": "frozen",
						"offset": 0,
						"slot": "10",
						"type": "t_bool"
					},
					{
						"astId": 1074,
						"contract": "contract/JointAccount.sol:Accounts",
						"label": "withdrawLimit",
						"offset": 0,
						"slot": "11",
						"type": "t_mapping(t_address,t_uint256)"
					}
				],
				"types": {
					"t_address": {
						"encoding": "inplace",
						"label": "address",
						"numberOfBytes": "20"
					},
					"t_address_payable": {
						"encoding": "inplace",
						"label": "address payable",
						"numberOfBytes": "20"
					},
					"t_bool": {
						"encoding": "inplace",
						"label": "bool",
						"numberOfBytes": "1"
					},
					"t_contract(IERC20)77": {
						"encoding": "inplace",
						"label": "contract IERC20",
						"numberOfBytes": "20"
					},
					"t_mapping(t_address,t_uint256)": {
						"encoding": "mapping",
						"key": "t_address",
						"label": "mapping(address => uint256)",
						"numberOfBytes": "32",
						"value": "t_uint256"
					},
					"t_uint256": {
						"encoding": "inplace",
						"label": "uint256",
						"numberOfBytes": "32"
					}
				}
			},
			"userdoc": {
				"kind": "user",
				"methods": {},
				"version": 1
			}
		}
	}
}